{
  "contractName": "Claims",
  "abi": [
    {
      "inputs": [
        {
          "name": "_UsersAddr",
          "type": "address"
        },
        {
          "name": "_MembersAddr",
          "type": "address"
        }
      ],
      "payable": false,
      "stateMutability": "nonpayable",
      "type": "constructor"
    },
    {
      "constant": false,
      "inputs": [
        {
          "name": "_creationDate",
          "type": "uint256"
        },
        {
          "name": "_claimData",
          "type": "bytes"
        },
        {
          "name": "_claimType",
          "type": "bool"
        },
        {
          "name": "_memberOwner",
          "type": "uint256"
        },
        {
          "name": "register_or_update",
          "type": "bool"
        },
        {
          "name": "_claimId",
          "type": "uint256"
        },
        {
          "name": "_oldClaimData",
          "type": "bytes"
        },
        {
          "name": "_lastChange",
          "type": "uint256"
        },
        {
          "name": "_updateClaimId",
          "type": "bool"
        }
      ],
      "name": "computeClaim",
      "outputs": [],
      "payable": false,
      "stateMutability": "nonpayable",
      "type": "function"
    },
    {
      "constant": true,
      "inputs": [],
      "name": "getTransactionPrice",
      "outputs": [
        {
          "name": "",
          "type": "uint256"
        }
      ],
      "payable": false,
      "stateMutability": "pure",
      "type": "function"
    },
    {
      "constant": true,
      "inputs": [],
      "name": "getPageSize",
      "outputs": [
        {
          "name": "",
          "type": "uint256"
        }
      ],
      "payable": false,
      "stateMutability": "pure",
      "type": "function"
    },
    {
      "constant": true,
      "inputs": [
        {
          "name": "_claimId",
          "type": "uint256"
        }
      ],
      "name": "getClaim",
      "outputs": [
        {
          "components": [
            {
              "name": "creationDate",
              "type": "uint256"
            },
            {
              "name": "claimId",
              "type": "uint256"
            },
            {
              "components": [
                {
                  "name": "name",
                  "type": "string"
                },
                {
                  "name": "value",
                  "type": "string"
                }
              ],
              "name": "claimData",
              "type": "tuple[]"
            },
            {
              "name": "claimType",
              "type": "bool"
            },
            {
              "name": "memberOwner",
              "type": "uint256"
            },
            {
              "name": "status",
              "type": "bool"
            },
            {
              "name": "lastChange",
              "type": "uint256"
            },
            {
              "name": "log",
              "type": "uint16[]"
            },
            {
              "name": "maxSplit",
              "type": "uint16"
            }
          ],
          "name": "",
          "type": "tuple"
        }
      ],
      "payable": false,
      "stateMutability": "view",
      "type": "function"
    },
    {
      "constant": false,
      "inputs": [
        {
          "name": "_page",
          "type": "uint256"
        }
      ],
      "name": "getClaimsByMemberId",
      "outputs": [
        {
          "components": [
            {
              "name": "creationDate",
              "type": "uint256"
            },
            {
              "name": "claimId",
              "type": "uint256"
            },
            {
              "components": [
                {
                  "name": "name",
                  "type": "string"
                },
                {
                  "name": "value",
                  "type": "string"
                }
              ],
              "name": "claimData",
              "type": "tuple[]"
            },
            {
              "name": "claimType",
              "type": "bool"
            },
            {
              "name": "memberOwner",
              "type": "uint256"
            },
            {
              "name": "status",
              "type": "bool"
            },
            {
              "name": "lastChange",
              "type": "uint256"
            },
            {
              "name": "log",
              "type": "uint16[]"
            },
            {
              "name": "maxSplit",
              "type": "uint16"
            }
          ],
          "name": "",
          "type": "tuple[]"
        }
      ],
      "payable": false,
      "stateMutability": "nonpayable",
      "type": "function"
    },
    {
      "constant": false,
      "inputs": [],
      "name": "getClaimsCountByMemberId",
      "outputs": [
        {
          "name": "",
          "type": "uint256"
        }
      ],
      "payable": false,
      "stateMutability": "nonpayable",
      "type": "function"
    }
  ],
  "bytecode": "0x608060405260006004553480156200001657600080fd5b5060405160408062003bf783398101806040526200003891908101906200007f565b60008054600160a060020a03938416600160a060020a03199182161790915560018054929093169116179055620000ca565b6000620000788251620000be565b9392505050565b600080604083850312156200009357600080fd5b6000620000a185856200006a565b9250506020620000b4858286016200006a565b9150509250929050565b600160a060020a031690565b613b1d80620000da6000396000f30060806040526004361061005e5763ffffffff60e060020a6000350416630e606cef81146100635780631be8850b146100855780635aef2447146100b05780636a0c8730146100dd578063b6bc3812146100f2578063d7662d5d1461011f575b600080fd5b34801561006f57600080fd5b5061008361007e3660046135d2565b610134565b005b34801561009157600080fd5b5061009a61054b565b6040516100a791906139ef565b60405180910390f35b3480156100bc57600080fd5b506100d06100cb366004613596565b610950565b6040516100a791906139de565b3480156100e957600080fd5b5061009a610bd5565b3480156100fe57600080fd5b5061011261010d366004613596565b610bdb565b6040516100a7919061399d565b34801561012b57600080fd5b5061009a61187a565b6000546040517f9249d753000000000000000000000000000000000000000000000000000000008152600191600160a060020a031690639249d7539061017e90339060040161396e565b602060405180830381600087803b15801561019857600080fd5b505af11580156101ac573d6000803e3d6000fd5b505050506040513d601f19601f820116820180604052506101d091908101906135b4565b10610540576000546040517f67e482ad000000000000000000000000000000000000000000000000000000008152600160a060020a03909116906367e482ad90610221903390600190600401613982565b600060405180830381600087803b15801561023b57600080fd5b505af115801561024f573d6000803e3d6000fd5b5050505084156103de5760048054600190810180835590546040517ff8380733000000000000000000000000000000000000000000000000000000008152919650600160a060020a03169163f8380733916102ac918a91016139ef565b602060405180830381600087803b1580156102c657600080fd5b505af11580156102da573d6000803e3d6000fd5b505050506040513d601f19601f820116820180604052506102fe9190810190613543565b151561033f576040517f08c379a0000000000000000000000000000000000000000000000000000000008152600401610336906139ce565b60405180910390fd5b61034f848a8a8a8a60008f611880565b6001546040517fe2c11f9e000000000000000000000000000000000000000000000000000000008152600160a060020a039091169063e2c11f9e9061039a90899088906004016139fd565b600060405180830381600087803b1580156103b457600080fd5b505af11580156103c8573d6000803e3d6000fd5b505050506103d984888a60016119fa565b610540565b6103eb84888560006119fa565b6103f884888a60016119fa565b6000848152600260205260409020600501546104219085908b908b908b908b9060ff1688611880565b8860011415610540576001546040517fbb03b706000000000000000000000000000000000000000000000000000000008152600160a060020a039091169063bb03b7069061047590899088906004016139fd565b600060405180830381600087803b15801561048f57600080fd5b505af11580156104a3573d6000803e3d6000fd5b50505060008581526002602052604090206005015460ff16159050610540576001546040517f8b92892b000000000000000000000000000000000000000000000000000000008152600160a060020a0390911690638b92892b9061050d90899088906004016139fd565b600060405180830381600087803b15801561052757600080fd5b505af115801561053b573d6000803e3d6000fd5b505050505b505050505050505050565b6000610555612f84565b600080546040517f69c212f600000000000000000000000000000000000000000000000000000000815260609183918291600160a060020a0316906369c212f6906105a490339060040161396e565b600060405180830381600087803b1580156105be57600080fd5b505af11580156105d2573d6000803e3d6000fd5b505050506040513d6000823e601f3d908101601f191682016040526105fa9190810190613561565b604080517f53757065722061646d696e0000000000000000000000000000000000000000008152905190819003600b01812061010083015180519398509092909190819060208401908083835b602083106106665780518252601f199092019160209182019101610647565b6001836020036101000a0380198251168184511680821785525050505050509050019150506040518091039020600019161415156107dc576000546040517feff34e59000000000000000000000000000000000000000000000000000000008152600160a060020a039091169063eff34e59906106e790339060040161396e565b602060405180830381600087803b15801561070157600080fd5b505af1158015610715573d6000803e3d6000fd5b505050506040513d601f19601f8201168201806040525061073991908101906135b4565b6001546040517faffccd84000000000000000000000000000000000000000000000000000000008152919550600160a060020a03169063affccd84906107839087906004016139ef565b602060405180830381600087803b15801561079d57600080fd5b505af11580156107b1573d6000803e3d6000fd5b505050506040513d601f19601f820116820180604052506107d591908101906135b4565b9550610948565b60015461012086015160608701516040517f989359df000000000000000000000000000000000000000000000000000000008152600160a060020a039093169263989359df926108309290916004016139ae565b600060405180830381600087803b15801561084a57600080fd5b505af115801561085e573d6000803e3d6000fd5b505050506040513d6000823e601f3d908101601f191682016040526108869190810190613506565b925060009150600090505b8251811015610944576001548351600160a060020a039091169063affccd84908590849081106108bd57fe5b906020019060200201516040518263ffffffff1660e060020a0281526004016108e691906139ef565b602060405180830381600087803b15801561090057600080fd5b505af1158015610914573d6000803e3d6000fd5b505050506040513d601f19601f8201168201806040525061093891908101906135b4565b90910190600101610891565b8195505b505050505090565b610958612ff6565b6000828152600260208181526040808420815161012081018352815481526001820154818501529381018054835181860281018601855281815295969295938701949192909184015b82821015610aff5760008481526020908190206040805160028681029093018054600181161561010002600019011693909304601f810185900490940281016060908101835291810184815290938492849190840182828015610a455780601f10610a1a57610100808354040283529160200191610a45565b820191906000526020600020905b815481529060010190602001808311610a2857829003601f168201915b50505050508152602001600182018054600181600116156101000203166002900480601f016020809104026020016040519081016040528092919081815260200182805460018160011615610100020316600290048015610ae75780601f10610abc57610100808354040283529160200191610ae7565b820191906000526020600020905b815481529060010190602001808311610aca57829003601f168201915b505050505081525050815260200190600101906109a1565b50505090825250600382015460ff908116151560208084019190915260048401546040808501919091526005850154909216151560608401526006840154608084015260078401805483518184028101840190945280845260a0909401939091830182828015610bb657602002820191906000526020600020906000905b82829054906101000a900461ffff1661ffff1681526020019060020190602082600101049283019260010382029150808411610b7d5790505b50505091835250506008919091015461ffff1660209091015292915050565b60015b90565b60606000610be7612f84565b6000806000606080600080606060006060610c046103e78f612610565b6000546040517f69c212f6000000000000000000000000000000000000000000000000000000008152919d50600160a060020a0316906369c212f690610c4e90339060040161396e565b600060405180830381600087803b158015610c6857600080fd5b505af1158015610c7c573d6000803e3d6000fd5b505050506040513d6000823e601f3d908101601f19168201604052610ca49190810190613561565b604080517f53757065722061646d696e0000000000000000000000000000000000000000008152905190819003600b0181206101008301518051939e509092909190819060208401908083835b60208310610d105780518252601f199092019160209182019101610cf1565b6001836020036101000a03801982511681845116808217855250505050505090500191505060405180910390206000191614151561127c576000546040517feff34e59000000000000000000000000000000000000000000000000000000008152600160a060020a039091169063eff34e5990610d9190339060040161396e565b602060405180830381600087803b158015610dab57600080fd5b505af1158015610dbf573d6000803e3d6000fd5b505050506040513d601f19601f82011682018060405250610de391908101906135b4565b6001546040517faffccd84000000000000000000000000000000000000000000000000000000008152919b50600160a060020a03169063affccd8490610e2d908d906004016139ef565b602060405180830381600087803b158015610e4757600080fd5b505af1158015610e5b573d6000803e3d6000fd5b505050506040513d601f19601f82011682018060405250610e7f91908101906135b4565b9850610e8d896103e7612649565b9750881580610e9e5750600189038c115b80610ea85750878e115b15610eb257611869565b6001546040517f6262dff6000000000000000000000000000000000000000000000000000000008152600160a060020a0390911690636262dff690610efb908d906004016139ef565b600060405180830381600087803b158015610f1557600080fd5b505af1158015610f29573d6000803e3d6000fd5b505050506040513d6000823e601f3d908101601f19168201604052610f519190810190613506565b604080516103e7808252617d008201909252919850816020015b610f73612ff6565b815260200190600190039081610f6b579050509550600094508b93505b8651841015611274576103e785101561126457600260008886815181101515610fb557fe5b9060200190602002015181526020019081526020016000206101206040519081016040529081600082015481526020016001820154815260200160028201805480602002602001604051908101604052809291908181526020016000905b828210156111715760008481526020908190206040805160028681029093018054600181161561010002600019011693909304601f8101859004909402810160609081018352918101848152909384928491908401828280156110b75780601f1061108c576101008083540402835291602001916110b7565b820191906000526020600020905b81548152906001019060200180831161109a57829003601f168201915b50505050508152602001600182018054600181600116156101000203166002900480601f0160208091040260200160405190810160405280929190818152602001828054600181600116156101000203166002900480156111595780601f1061112e57610100808354040283529160200191611159565b820191906000526020600020905b81548152906001019060200180831161113c57829003601f168201915b50505050508152505081526020019060010190611013565b50505090825250600382015460ff908116151560208084019190915260048401546040808501919091526005850154909216151560608401526006840154608084015260078401805483518184028101840190945280845260a090940193909183018282801561122857602002820191906000526020600020906000905b82829054906101000a900461ffff1661ffff16815260200190600201906020826001010492830192600103820291508084116111ef5790505b50505091835250506008919091015461ffff16602090910152865187908790811061124f57fe5b60209081029091010152600190940193611269565b611274565b836001019350610f90565b859c50611869565b6001546101208c015160608d01516040517f989359df000000000000000000000000000000000000000000000000000000008152600160a060020a039093169263989359df926112d09290916004016139ae565b600060405180830381600087803b1580156112ea57600080fd5b505af11580156112fe573d6000803e3d6000fd5b505050506040513d6000823e601f3d908101601f191682016040526113269190810190613506565b925060009850600091505b82518210156113e7576001548351600160a060020a039091169063affccd849085908590811061135d57fe5b906020019060200201516040518263ffffffff1660e060020a02815260040161138691906139ef565b602060405180830381600087803b1580156113a057600080fd5b505af11580156113b4573d6000803e3d6000fd5b505050506040513d601f19601f820116820180604052506113d891908101906135b4565b89019850816001019150611331565b6113f3896103e7612649565b97508815806114045750600189038c115b8061140e5750878e115b1561141857611869565b88604051908082528060200260200182016040528015611442578160200160208202803883390190505b50905060009850600091505b8251821015611552576001548351600160a060020a0390911690636262dff69085908590811061147a57fe5b906020019060200201516040518263ffffffff1660e060020a0281526004016114a391906139ef565b600060405180830381600087803b1580156114bd57600080fd5b505af11580156114d1573d6000803e3d6000fd5b505050506040513d6000823e601f3d908101601f191682016040526114f99190810190613506565b9650600093505b865184101561154757868481518110151561151757fe5b60209081029091010151815160018b019a8391811061153257fe5b60209081029091010152600190930192611500565b81600101915061144e565b604080516103e7808252617d00820190925290816020015b611572612ff6565b81526020019060019003908161156a579050509550600094508b93505b8051841015611274576103e7851015611264576002600082868151811015156115b457fe5b9060200190602002015181526020019081526020016000206101206040519081016040529081600082015481526020016001820154815260200160028201805480602002602001604051908101604052809291908181526020016000905b828210156117705760008481526020908190206040805160028681029093018054600181161561010002600019011693909304601f8101859004909402810160609081018352918101848152909384928491908401828280156116b65780601f1061168b576101008083540402835291602001916116b6565b820191906000526020600020905b81548152906001019060200180831161169957829003601f168201915b50505050508152602001600182018054600181600116156101000203166002900480601f0160208091040260200160405190810160405280929190818152602001828054600181600116156101000203166002900480156117585780601f1061172d57610100808354040283529160200191611758565b820191906000526020600020905b81548152906001019060200180831161173b57829003601f168201915b50505050508152505081526020019060010190611612565b50505090825250600382015460ff908116151560208084019190915260048401546040808501919091526005850154909216151560608401526006840154608084015260078401805483518184028101840190945280845260a090940193909183018282801561182757602002820191906000526020600020906000905b82829054906101000a900461ffff1661ffff16815260200190600201906020826001010492830192600103820291508084116117ee5790505b50505091835250506008919091015461ffff16602090910152865187908790811061184e57fe5b6020908102909101015260019094019383600101935061158f565b505050505050505050505050919050565b6103e790565b61188861304b565b6060600060606118978961266c565b93506118a2846126bd565b60008c81526002602081905260408220600181018f90558d815560038101805460ff19168d15151790559295506118da920190613062565b600091505b82518210156119bf5761190883838151811015156118f957fe5b906020019060200201516126bd565b9050600260008c8152602001908152602001600020600201604080519081016040528061194c84600081518110151561193d57fe5b90602001906020020151612790565b815260200161196384600181518110151561193d57fe5b9052815460018101808455600093845260209384902083518051929560029094029091019261199792849290910190613086565b5060208281015180516119b09260018501920190613086565b505050508160010191506118df565b5050506000978852506002602052604090962060048101929092556006820195909555600501805460ff191694151594909417909355505050565b611a0261304b565b6060600080600080600080611a168a61266c565b9750611a21886126bd565b9650611a4d611a48611a3b8960058151811015156118f957fe5b8051600190811061193d57fe5b612802565b9550611a67611a48611a3b8960028151811015156118f957fe5b9450611a81611a48611a3b8960038151811015156118f957fe5b60008d8152600360209081526040808320805461ffff191661ffff8c16179055600290915290206005015490945060ff169250600191508190505b60045481116125d25760008181526002602052604090206003015460ff1615158b1515148015611aec5750808c14155b156125ca57600081815260026020819052604082200180549091908110611b0f57fe5b90600052602060002090600202016001016040518082805460018160011615610100020316600290048015611b7b5780601f10611b59576101008083540402835291820191611b7b565b820191906000526020600020905b815481529060010190602001808311611b67575b5050915050604051809103902060001916611ba1611a3b8960008151811015156118f957fe5b6040518082805190602001908083835b60208310611bd05780518252601f199092019160209182019101611bb1565b6001836020036101000a038019825116818451168082178552505050505050905001915050604051809103902060001916148015611cee5750600081815260026020819052604090912081018054611cda92908110611c2b57fe5b90600052602060002090600202016001018054600181600116156101000203166002900480601f016020809104026020016040519081016040528092919081815260200182805460018160011615610100020316600290048015611cd05780601f10611ca557610100808354040283529160200191611cd0565b820191906000526020600020905b815481529060010190602001808311611cb357829003601f168201915b5050505050612802565b65ffffffffffff168465ffffffffffff1610155b8015611d2d57506000818152600260208190526040909120018054611d1991906003908110611c2b57fe5b65ffffffffffff168565ffffffffffff1611155b156125ca57611e18611d4a611a3b8960048151811015156118f957fe5b60008381526002602081905260409091200180546004908110611d6957fe5b90600052602060002090600202016001018054600181600116156101000203166002900480601f016020809104026020016040519081016040528092919081815260200182805460018160011615610100020316600290048015611e0e5780601f10611de357610100808354040283529160200191611e0e565b820191906000526020600020905b815481529060010190602001808311611df157829003601f168201915b5050505050612884565b60055460ff16156125ca57611e5a611e3b611a3b8960018151811015156118f957fe5b60008381526002602081905260409091200180546001908110611d6957fe5b60055460ff16156125ca5788156122c157600081815260036020526040902054606461ffff9182168801909116118015611ea5575060008181526003602052604090205461ffff1615155b8015611eb4575061ffff861615155b1561204757821515611f8257600192506001600260008e815260200190815260200160002060050160006101000a81548160ff021916908315150217905550600160009054906101000a9004600160a060020a0316600160a060020a03166374853239600260008f8152602001908152602001600020600401548e6040518363ffffffff1660e060020a028152600401611f4f9291906139fd565b600060405180830381600087803b158015611f6957600080fd5b505af1158015611f7d573d6000803e3d6000fd5b505050505b60008181526002602052604090206005015460ff161515612042576000818152600260205260409081902060058101805460ff191660019081179091558054600480840154939092015493517f74853239000000000000000000000000000000000000000000000000000000008152600160a060020a039091169363748532399361200f939092016139fd565b600060405180830381600087803b15801561202957600080fd5b505af115801561203d573d6000803e3d6000fd5b505050505b612099565b600081815260036020526040902054606461ffff9182168801909116116120995760008c8152600260205260408082206005908101805460ff1990811690915584845291909220909101805490911690555b61ffff86161580156120a85750825b1561216f57600092506000600260008e815260200190815260200160002060050160006101000a81548160ff021916908315150217905550600160009054906101000a9004600160a060020a0316600160a060020a0316638b92892b600260008f8152602001908152602001600020600401548e6040518363ffffffff1660e060020a02815260040161213c9291906139fd565b600060405180830381600087803b15801561215657600080fd5b505af115801561216a573d6000803e3d6000fd5b505050505b60008181526003602052604090205461ffff16156121ab576000818152600360205260409020805461ffff80821689011661ffff199091161790555b8180156121c9575060008181526003602052604090205461ffff1615155b80156121d8575061ffff861615155b1561220957600081815260036020526040808220548e8352908220805461ffff191661ffff90921691909117905591505b7fe90b7bceb6e7df5418fb78d8ee546e97c83a08bbccc01a0644d599ccd2a7c2e780546001818101835560108083047f1a6fbd1f297ed988ea45c2367ec56c5b8e10e479745ecc6f83889968f8e402e2908101805461ffff808e16600f978816600290810261010090810a928302928402199094169190911790935560008981526003602052604081205489549788018a5598905293850490920180549490951602900a938116840293021916919091179055612599565b81156122e75760008c8152600360205260408120805461ffff191661ffff891617905591505b82156123af576000600260008e815260200190815260200160002060050160006101000a81548160ff021916908315150217905550600160009054906101000a9004600160a060020a0316600160a060020a0316638b92892b600260008f8152602001908152602001600020600401548e6040518363ffffffff1660e060020a0281526004016123789291906139fd565b600060405180830381600087803b15801561239257600080fd5b505af11580156123a6573d6000803e3d6000fd5b50505050600092505b600081815260036020526040902054606461ffff9182168890039091161115806123e9575060008181526003602052604090205461ffff16155b156124a85760008181526002602052604090206005015460ff16156124a8576000818152600260205260409081902060058101805460ff1916905560018054600480840154929093015493517f8b92892b000000000000000000000000000000000000000000000000000000008152600160a060020a0390911693638b92892b936124759392016139fd565b600060405180830381600087803b15801561248f57600080fd5b505af11580156124a3573d6000803e3d6000fd5b505050505b60008181526003602052604090205461ffff16156124e5576000818152600360205260409020805461ffff8082168990031661ffff199091161790555b7f679795a0195a1b76cdebb7c51d74e058aee92919b8c3389af86ef24535e8a29380546001818101835560108083047f2b34630e1d22bf5495daa6ded59ed8a83124fe0834081c01cebe871871c5330f908101805461ffff808e16600f978816600290810261010090810a928302928402199094169190911790935560008981526003602052604081205489549788018a5598905293850490920180549490951602900a9381168402930219169190911790555b6000818152600360209081526040808320546002909252909120600801805461ffff191661ffff9092169190911790555b600101611abc565b50505060009889525050600360209081526040808920546002909252909720600801805461ffff191661ffff90981697909717909655505050505050565b6000808315156126235760009150612642565b5082820282848281151561263357fe5b041461263e57600080fd5b8091505b5092915050565b60008080831161265857600080fd5b828481151561266357fe5b04949350505050565b61267461304b565b600082516000141561269b57604080518082019091526000808252602082015291506126b7565b5050604080518082019091528151815260208281019082018190525b50919050565b60606000806000806126ce86612b64565b15156126d957600080fd5b6126e286612b93565b93508360405190808252806020026020018201604052801561271e57816020015b61270b61304b565b8152602001906001900390816127035790505b50945061272e8660200151612be3565b8660200151019250600090505b838110156127875761274c83612c46565b9150604080519081016040528083815260200184815250858281518110151561277157fe5b602090810290910101529181019160010161273b565b50505050919050565b6060600080606060006127a68660200151612be3565b9350838660000151039250826040519080825280601f01601f1916602001820160405280156127df578160200160208202803883390190505b5091508160200190506127f9848760200151018285612cd7565b50949350505050565b60008181805b825182101561287c57828281518110151561281f57fe5b01602001517f010000000000000000000000000000000000000000000000000000000000000090819004810204905060308110801590612860575060398111155b15612871576030810384600a020193505b600190910190612808565b505050919050565b61288c61304b565b61289461304b565b606060006128a061304b565b6005805460ff1916905560408051808201909152600181527f2c0000000000000000000000000000000000000000000000000000000000000060208201526060906000906128ed90612d1e565b96506128f889612d1e565b955061290a868863ffffffff612d4416565b60010160405190808252806020026020018201604052801561294057816020015b606081526020019060019003908161292b5790505b509450600093505b845184101561298c57612969612964878963ffffffff612daa16565b612dbd565b858581518110151561297757fe5b60209081029091010152600190930192612948565b61299588612d1e565b92506129a7838863ffffffff612d4416565b6001016040519080825280602002602001820160405280156129dd57816020015b60608152602001906001900390816129c85790505b509150600090505b8151811015612a2157612a01612964848963ffffffff612daa16565b8282815181101515612a0f57fe5b602090810290910101526001016129e5565b600093505b8451841015610540575060005b8151811015612b49578181815181101515612a4a57fe5b906020019060200201516040518082805190602001908083835b60208310612a835780518252601f199092019160209182019101612a64565b5181516020939093036101000a6000190180199091169216919091179052604051920182900390912088519093508892508791508110612abf57fe5b906020019060200201516040518082805190602001908083835b60208310612af85780518252601f199092019160209182019101612ad9565b6001836020036101000a0380198251168184511680821785525050505050509050019150506040518091039020600019161415612b41576005805460ff19166001179055612b49565b600101612a33565b60055460ff1615612b5957610540565b600190930192612a26565b6020810151805160009190821a9060c060ff83161015612b875760009250612b8c565b600192505b5050919050565b60008060008060009250612baa8560200151612be3565b6020860151865191810193500190505b80821015612bda57612bcb82612c46565b60019093019290910190612bba565b50909392505050565b8051600090811a6080811015612bfc57600091506126b7565b60b8811080612c17575060c08110801590612c17575060f881105b15612c2557600191506126b7565b60c0811015612c3a5760b519810191506126b7565b60f519810191506126b7565b8051600090811a6080811015612c5f57600191506126b7565b60b8811015612c7457607e19810191506126b7565b60c0811015612ca15760b78103600184019350806020036101000a845104600182018101935050506126b7565b60f8811015612cb65760be19810191506126b7565b60019290920151602083900360f7016101000a900490910160f51901919050565b60005b60208210612cfc578351835260209384019390920191601f1990910190612cda565b50915181516020939093036101000a6000190180199091169216919091179052565b612d2661304b565b50604080518082019091528151815260209182019181019190915290565b6000808260000151612d688560000151866020015186600001518760200151612e10565b0190505b83516020850151018111612642578251602080860151865191860151600190950194612da2929185039091039084908490612e10565b019050612d6c565b612db261304b565b612642838383612ed0565b606080600083600001516040519080825280601f01601f191660200182016040528015612df4578160200160208202803883390190505b5091506020820190506126428185602001518660000151612f40565b600083818080808080808c8b11612eba5760208b11612e835760018b60200360080260020a03196001029550858a511694508a8d8d010393508588511692505b828514612e7b57838810612e68578c8c019850612ec0565b8780600101985050858851169250612e50565b879850612ec0565b8a8a209150600096505b8a8d038711612eba575089872081811415612eaa57879850612ec0565b6001978801979690960195612e8d565b8c8c0198505b5050505050505050949350505050565b612ed861304b565b6000612ef68560000151866020015186600001518760200151612e10565b60208087018051918601919091528051820385528651905191925001811415612f225760008552612bda565b83518351865191019003855283518101602086015250909392505050565b60005b60208210612f65578251845260209384019390920191601f1990910190612f43565b50905182516020929092036101000a6000190180199091169116179052565b6101a06040519081016040528060008152602001600081526020016000600160a060020a03168152602001600081526020016000815260200160008152602001606081526020016060815260200160608152602001606081526020016060815260200160608152602001600081525090565b61012060405190810160405280600081526020016000815260200160608152602001600015158152602001600081526020016000151581526020016000815260200160608152602001600061ffff1681525090565b604080518082019091526000808252602082015290565b50805460008255600202906000526020600020908101906130839190613104565b50565b828054600181600116156101000203166002900490600052602060002090601f016020900481019282601f106130c757805160ff19168380011785556130f4565b828001600101855582156130f4579182015b828111156130f45782518255916020019190600101906130d9565b50613100929150613135565b5090565b610bd891905b8082111561310057600061311e828261314f565b61312c60018301600061314f565b5060020161310a565b610bd891905b80821115613100576000815560010161313b565b50805460018160011615610100020316600290046000825580601f106131755750613083565b601f0160209004906000526020600020908101906130839190613135565b600061319f8251613a85565b9392505050565b6000601f820183136131b757600080fd5b81516131ca6131c582613a32565b613a0b565b81815260209384019390925082018360005b8381101561320857815186016131f288826132e9565b84525060209283019291909101906001016131dc565b5050505092915050565b6000601f8201831361322357600080fd5b81516132316131c582613a32565b9150818183526020840193506020810190508385602084028201111561325657600080fd5b60005b83811015613208578161326c88826134fa565b8452506020928301929190910190600101613259565b600061319f8235613a91565b600061319f8251613a91565b6000601f820183136132ab57600080fd5b81356132b96131c582613a53565b915080825260208301602083018583830111156132d557600080fd5b6132e0838284613a9d565b50505092915050565b6000601f820183136132fa57600080fd5b81516133086131c582613a53565b9150808252602083016020830185838301111561332457600080fd5b6132e0838284613aa9565b60006101a0828403121561334257600080fd5b61334d6101a0613a0b565b9050600061335b84846134fa565b825250602061336c848483016134fa565b602083015250604061338084828501613193565b6040830152506060613394848285016134fa565b60608301525060806133a8848285016134fa565b60808301525060a06133bc848285016134fa565b60a08301525060c082015167ffffffffffffffff8111156133dc57600080fd5b6133e8848285016132e9565b60c08301525060e082015167ffffffffffffffff81111561340857600080fd5b613414848285016132e9565b60e08301525061010082015167ffffffffffffffff81111561343557600080fd5b613441848285016132e9565b6101008301525061012082015167ffffffffffffffff81111561346357600080fd5b61346f848285016132e9565b6101208301525061014082015167ffffffffffffffff81111561349157600080fd5b61349d848285016131a6565b6101408301525061016082015167ffffffffffffffff8111156134bf57600080fd5b6134cb848285016132e9565b610160830152506101806134e1848285016134fa565b6101808301525092915050565b600061319f8235610bd8565b600061319f8251610bd8565b60006020828403121561351857600080fd5b815167ffffffffffffffff81111561352f57600080fd5b61353b84828501613212565b949350505050565b60006020828403121561355557600080fd5b600061353b848461328e565b60006020828403121561357357600080fd5b815167ffffffffffffffff81111561358a57600080fd5b61353b8482850161332f565b6000602082840312156135a857600080fd5b600061353b84846134ee565b6000602082840312156135c657600080fd5b600061353b84846134fa565b60008060008060008060008060006101208a8c0312156135f157600080fd5b60006135fd8c8c6134ee565b99505060208a013567ffffffffffffffff81111561361a57600080fd5b6136268c828d0161329a565b98505060406136378c828d01613282565b97505060606136488c828d016134ee565b96505060806136598c828d01613282565b95505060a061366a8c828d016134ee565b94505060c08a013567ffffffffffffffff81111561368757600080fd5b6136938c828d0161329a565b93505060e06136a48c828d016134ee565b9250506101006136b68c828d01613282565b9150509295985092959850929598565b6136cf81613a85565b82525050565b60006136e082613a81565b808452602084019350836020820285016136f985613a7b565b60005b8481101561373057838303885261371483835161385c565b925061371f82613a7b565b6020989098019791506001016136fc565b50909695505050505050565b600061374782613a81565b8084526020840193508360208202850161376085613a7b565b60005b8481101561373057838303885261377b838351613921565b925061378682613a7b565b602098909801979150600101613763565b60006137a282613a81565b8084526020840193506137b483613a7b565b60005b828110156137e4576137ca86835161395c565b6137d382613a7b565b6020969096019591506001016137b7565b5093949350505050565b6136cf81613a91565b600061380282613a81565b808452613816816020860160208601613aa9565b61381f81613ad9565b9093016020019392505050565b601481527f4d656d62657220646f206e6f7420657869737473000000000000000000000000602082015260400190565b80516000906101208401906138718582613965565b5060208301516138846020860182613965565b506040830151848203604086015261389c828261373c565b91505060608301516138b160608601826137ee565b5060808301516138c46080860182613965565b5060a08301516138d760a08601826137ee565b5060c08301516138ea60c0860182613965565b5060e083015184820360e08601526139028282613797565b91505061010083015161391961010086018261395c565b509392505050565b805160408084526000919084019061393982826137f7565b9150506020830151848203602086015261395382826137f7565b95945050505050565b6136cf81613a96565b6136cf81610bd8565b6020810161397c82846136c6565b92915050565b6040810161399082856136c6565b61319f6020830184613965565b6020808252810161319f81846136d5565b604080825281016139bf81856137f7565b905061319f6020830184613965565b6020808252810161397c8161382c565b6020808252810161319f818461385c565b6020810161397c8284613965565b604081016139908285613965565b60405181810167ffffffffffffffff81118282101715613a2a57600080fd5b604052919050565b600067ffffffffffffffff821115613a4957600080fd5b5060209081020190565b600067ffffffffffffffff821115613a6a57600080fd5b506020601f91909101601f19160190565b60200190565b5190565b600160a060020a031690565b151590565b61ffff1690565b82818337506000910152565b60005b83811015613ac4578181015183820152602001613aac565b83811115613ad3576000848401525b50505050565b601f01601f1916905600a265627a7a723058207a588d74c893b5fe9c44ef3364d712896ba560b3f8198e5f2efaed1386e55f6e6c6578706572696d656e74616cf50037",
  "source": "pragma solidity ^0.4.24;\npragma experimental ABIEncoderV2;\n\nimport \"./SafeMath.sol\";\nimport \"./RLPReader.sol\";\nimport \"./Users.sol\";\nimport \"./strings.sol\";\n\ncontract Claims {\n\n  Users private _Users;\n  Members private _Members;\n\n  constructor (address _UsersAddr, address _MembersAddr) public {\n    _Users = Users(_UsersAddr);\n    _Members = Members(_MembersAddr);\n  }\n\n  using RLPReader for bytes;\n  using RLPReader for uint;\n  using RLPReader for RLPReader.RLPItem;\n\n  struct NameValue{\n    string name;\n    string value;\n  }\n\n  struct Claim {\n    uint256 creationDate;\n    uint256 claimId;        // should be 2^48 ~ 100 trillion claims\n    NameValue[] claimData;\n    bool claimType;\n    uint256 memberOwner;    // should be 2^24 ~ 16 million members\n    bool status;\n    uint256 lastChange;\n    uint16[] log;\n    uint16 maxSplit;\n  }\n\n  mapping (uint256 => Claim) private claims_;\n  mapping (uint256 => uint16) private maxSplits_;\n  uint256 constant private PAGE_SIZE = 999;\n  uint256 constant private transactionPrice = 1;\n\n  uint256 private claimIdCounter_ = 0; // has the number of claims ever inserted, including the deleted ones\n  //   uint256[] private claimIdIndex;\n  bool private hasOverlapResult;\n  using strings for *;\n\n  function computeClaim(uint256 _creationDate, bytes _claimData, bool _claimType, uint256 _memberOwner, bool register_or_update,\n    uint256 _claimId, bytes _oldClaimData, uint _lastChange, bool _updateClaimId) public {\n\n//    Users.User memory currentUser = _Users.getUserByAddress(msg.sender);\n//    if (currentUser.tokens > transactionPrice) {\n    if (_Users.getUserTokensByAddress(msg.sender) >= transactionPrice) {\n      _Users.updateTokens(msg.sender, transactionPrice);\n      if (register_or_update) {             // Register new claim.\n        _claimId = ++claimIdCounter_;\n        //    require(claims_[_claimId].claimId == 0, \"Claim already exists\");\n        require(_Members._memberExists(_memberOwner), \"Member do not exists\");\n  //      _memberOwner = _Users._memberIdFromCurrentAddress(msg.sender);\n\n        _saveClaim(_claimId, _creationDate, _claimData, _claimType, _memberOwner, false, _creationDate);\n        _Members._addClaimIdToMemberOwner(_memberOwner, _claimId);\n\n        checkClaimStatus(_claimId, _claimType, _claimData, true);\n      } else {                     // Update existing claim.\n\n        checkClaimStatus(_claimId, _claimType, _oldClaimData, false);\n  //      if (_updateClaimId) {\n  //        checkClaimStatus(updateClaimId(_claimId, _claimData, _memberOwner, _claimType), _claimType, _claimData, true);\n  //        _saveClaim(updateClaimId(_claimId, _claimData, _memberOwner, _claimType), _creationDate, _claimData, _claimType,\n  //          _memberOwner, claims_[_claimId].status, _lastChange);\n  //      } else {\n        checkClaimStatus(_claimId, _claimType, _claimData, true);\n        _saveClaim(_claimId, _creationDate, _claimData, _claimType, _memberOwner, claims_[_claimId].status, _lastChange);\n\n        if (_creationDate == 1) {  // Delete claim.\n          _Members._removeClaimFromMember(_memberOwner, _claimId);\n          if (claims_[_claimId].status) {\n            _Members._removeClaimFromInbox(_memberOwner, _claimId);\n          }\n//            _removeClaimFromMapping(_claimId);\n//            _saveClaim(_claimId, _creationDate, _claimData, _claimType, _memberOwner, claims_[_claimId].status, _lastChange);\n        }\n      }\n    } else {\n      // USER DOES NOT HAVE ENOUGH TOKENS TO SUBMIT THE TRANSACTION.\n    }\n  }\n\n//  function _removeClaimFromMapping(uint claimId) private {\n    // maybe do split = 0% -> already in sound & musical components.OnDelete()\n//  }\n\n  function getTransactionPrice() pure public returns (uint) {\n    return transactionPrice;\n  }\n\n  function getPageSize() pure public returns (uint) {\n    return PAGE_SIZE;\n  }\n\n  function getClaim(uint256 _claimId) view public returns (Claim) {\n    return claims_[_claimId];\n  }\n\n  function getClaimsByMemberId(uint _page) public returns (Claim[] memory) {\n\n    uint256 pageIndex = SafeMath.mul(PAGE_SIZE, _page);\n    Users.User memory currentUser = _Users.getUserByAddress(msg.sender);\n    if (keccak256(currentUser.role) != keccak256(\"Super admin\")) { // If user IS NOT \"Super admin\".\n      uint256 _memberId = _Users._memberIdFromCurrentAddress(msg.sender);\n      uint count = _Members._getClaimsCountByMember(_memberId);\n      uint256 pageNumber = SafeMath.div(count, PAGE_SIZE);\n\n      if (count == 0 || pageIndex > count - 1 || _page > pageNumber) {\n        return;\n      }\n\n      uint256[] memory claimsId = _Members._getClaimsIdByMember(_memberId);\n\n      Claim[] memory _claims = new Claim[](PAGE_SIZE);\n      uint256 returnCounter = 0;\n      for (uint i = pageIndex; i < claimsId.length; ++i) {\n        if(returnCounter < PAGE_SIZE) {\n          _claims[returnCounter] = claims_[claimsId[i]];\n          ++returnCounter;\n        } else {\n          break;\n        }\n      }\n      return _claims;\n    } else {  // If user IS \"Super admin\".\n\n      uint[] memory memberIds = _Members._getMemberIdsOfCurrentCMO(currentUser.cmo, currentUser.memberId);\n      count = 0;\n      for (uint j = 0; j < memberIds.length; ++j) {\n        count += _Members._getClaimsCountByMember(memberIds[j]); // count+count+...+count\n      }\n      pageNumber = SafeMath.div(count, PAGE_SIZE);\n\n      if (count == 0 || pageIndex > count - 1 || _page > pageNumber) {\n        return;\n      }\n\n      uint[] memory allClaimsId = new uint[](count);\n      count = 0;  // now, use it for iterator\n      for (j = 0; j < memberIds.length; ++j) {\n        claimsId = _Members._getClaimsIdByMember(memberIds[j]);\n        for (i=0; i < claimsId.length; ++i) {\n          allClaimsId[count++] = claimsId[i];\n        }\n      }\n\n      _claims = new Claim[](PAGE_SIZE);\n      returnCounter = 0;\n      for (i = pageIndex; i < allClaimsId.length; ++i) {\n        if(returnCounter < PAGE_SIZE) {\n          _claims[returnCounter] = claims_[allClaimsId[i]];\n          ++returnCounter;\n        } else {\n          break;\n        }\n      }\n      return _claims;\n    }\n  }\n\n  function getClaimsCountByMemberId() public returns (uint) {\n    Users.User memory currentUser = _Users.getUserByAddress(msg.sender);\n    if (keccak256(currentUser.role) != keccak256(\"Super admin\")) { // If user IS NOT \"Super admin\".\n      uint256 _memberId = _Users._memberIdFromCurrentAddress(msg.sender);\n      return _Members._getClaimsCountByMember(_memberId);\n    } else {                                                       // If user IS \"Super admin\".\n      uint[] memory memberIds = _Members._getMemberIdsOfCurrentCMO(currentUser.cmo, currentUser.memberId);\n      uint count = 0;\n      for (uint j = 0; j < memberIds.length; ++j) {\n        count += _Members._getClaimsCountByMember(memberIds[j]); // count+count+...+count\n      }\n      return count;\n    }\n  }\n\n  function _saveClaim(uint256 _claimId, uint256 _creationDate, bytes _claimData, bool _claimType,\n    uint _memberOwner, bool _status, uint256 _lastChange) private {\n\n    RLPReader.RLPItem memory item = _claimData.toRlpItem();\n    RLPReader.RLPItem[] memory itemList = item.toList(); // ((name, value), (name, value), (name, value), ...)\n\n    claims_[_claimId].claimId = _claimId;\n    claims_[_claimId].creationDate = _creationDate;\n    claims_[_claimId].claimType = _claimType;\n\n    delete claims_[_claimId].claimData;\n    for(uint i = 0; i < itemList.length; ++i) {\n      RLPReader.RLPItem[] memory itemListClaim = itemList[i].toList(); // (name, value)\n      claims_[_claimId].claimData.push(NameValue(string(itemListClaim[0].toBytes()), string(itemListClaim[1].toBytes())));\n    }\n\n    claims_[_claimId].memberOwner = _memberOwner;\n    claims_[_claimId].lastChange = _lastChange;\n    claims_[_claimId].status = _status;\n  }\n\n  // Old Lib.sol\n//\n//  using RLPReader for bytes;\n//  using RLPReader for uint;\n//  using RLPReader for RLPReader.RLPItem;\n//\n//  struct NameValue{\n//    string name;\n//    string value;\n//  }\n//\n//  struct Claim {\n//    uint256 creationDate;\n//    uint256 claimId;        // should be 2^48 ~ 100 trillion claims\n//    NameValue[] claimData;\n//    bool claimType;\n//    uint256 memberOwner;    // should be 2^24 ~ 16 million members\n//    bool status;\n//    uint256 lastChange;\n//    //    string[] log;\n//    //    uint16 log2;\n//  }\n//\n//  mapping (uint256 => Claim) internal claims_;\n//  mapping (uint256 => uint16) internal maxSplits_;\n//  uint256 constant internal PAGE_SIZE = 10;\n//\n//  uint256 internal claimIdCounter_ = 0; // has the number of claims ever inserted, including the deleted ones\n//  //  uint256[] private claimIdIndex;\n\n  function checkClaimStatus(uint256 _claimId, bool _claimType, bytes _claimData, bool newClaim) private {\n\n    //    if (newClaim) {\n    //      claimIdIndex.push(_claimId);\n    //    }\n    RLPReader.RLPItem memory item = _claimData.toRlpItem();\n    RLPReader.RLPItem[] memory itemList = item.toList();  // ((name0, value0), (name, value), (name, value), ...)\n    uint16 split = uint16(bytesToUint(itemList[5].toList()[1].toBytes()));\n    uint48 startDate = uint48(bytesToUint(itemList[2].toList()[1].toBytes()));\n    uint48 endDate = uint48(bytesToUint(itemList[3].toList()[1].toBytes()));\n\n    maxSplits_[_claimId] = split;\n//    claims_[_claimId].maxSplit.push(maxSplits_[_claimId]);\n    bool prevStatus = claims_[_claimId].status;\n    bool tempMaxSplitOnce = true;\n    for(uint256 i = 1; i <= claimIdCounter_; i++) {\n      if (_claimType == claims_[i].claimType && _claimId != i) {\n        if(keccak256(itemList[0].toList()[1].toBytes()) == keccak256(claims_[i].claimData[0].value) // same ISRC/ISWC\n        && endDate >= uint48(bytesToUint(bytes(claims_[i].claimData[2].value))) // end1 >= start2\n        && startDate <= uint48(bytesToUint(bytes(claims_[i].claimData[3].value))) // start1 <= end2\n        ){\n          if (newClaim) {\n            // claims_[2].log.push('CHECK STATUS TRUE');\n          } else {\n            // claims_[2].log.push('CHECK STATUS FALSE');\n          }\n          // claims_[2].log.push(string(itemList[4].toList()[1].toBytes()));\n          // claims_[2].log.push(string(bytes(claims_[i].claimData[4].value)));\n          hasOverlap(itemList[4].toList()[1].toBytes(), bytes(claims_[i].claimData[4].value)); // useTypes/rightTypes: have at least one common\n          if (hasOverlapResult) {\n            hasOverlap(itemList[1].toList()[1].toBytes(), bytes(claims_[i].claimData[1].value)); // territory: contain at least one common\n            if (hasOverlapResult) {\n              if (newClaim) {\n                if (maxSplits_[i] + split > 100 && maxSplits_[i] != 0 && split != 0) { // set it CONFLICT\n                  if (!prevStatus) {\n                    prevStatus = true;\n                    claims_[_claimId].status = true; // true, means there IS a CONFLICT\n                    _Members._addClaimFromInbox(claims_[_claimId].memberOwner, _claimId);\n                  }\n                  if (!claims_[i].status) {\n                    claims_[i].status = true;\n                    _Members._addClaimFromInbox(claims_[i].memberOwner, claims_[i].claimId);\n                  }\n                } else if (maxSplits_[i] + split <= 100) {\n                  claims_[_claimId].status = false;\n                  claims_[i].status = false;\n                }\n//                if (maxSplits_[i] == 0) {      // claims_[i].claimData[5].value = split = 0\n//                  claims_[i].status = false;\n//                  _Users._removeClaimFromInbox(claims_[i].memberOwner, claims_[i].claimId);\n//                }\n                if (split == 0 && prevStatus) {\n                  prevStatus = false;\n                  claims_[_claimId].status = false;\n                  _Members._removeClaimFromInbox(claims_[_claimId].memberOwner, _claimId);\n                }\n                if (maxSplits_[i] != 0) maxSplits_[i]+=split;                // build maxSplits_[i]\n                if (tempMaxSplitOnce && maxSplits_[i] != 0 && split != 0) {\n                  tempMaxSplitOnce=false;\n                  maxSplits_[_claimId] = maxSplits_[i];\n                }\n                claims_[1].log.push(split);\n                claims_[1].log.push(maxSplits_[i]);\n              } else {\n                if (tempMaxSplitOnce) {\n                  maxSplits_[_claimId]=split;\n                  tempMaxSplitOnce=false;\n                }\n                if (prevStatus) {                                        // set it CLAIMED\n                  claims_[_claimId].status = false;\n                  _Members._removeClaimFromInbox(claims_[_claimId].memberOwner, _claimId);\n                  prevStatus = false;\n                }\n                if (maxSplits_[i] - split <= 100 || maxSplits_[i] == 0) {     // split != 0 here is redundant\n                  if (claims_[i].status) {\n                    claims_[i].status = false;\n                    _Members._removeClaimFromInbox(claims_[i].memberOwner, claims_[i].claimId);\n                  }\n                }\n                if (maxSplits_[i] != 0) maxSplits_[i]-=split;                // recalculate maxSplits_[i]\n                claims_[2].log.push(split);\n                claims_[2].log.push(maxSplits_[i]);\n              }\n              claims_[i].maxSplit = maxSplits_[i];\n            }  // hasOverlapResult territory\n          } // hasOverlapResult: useTypes/rightTypes\n        } // if ISC/start/endDate\n      } // if claimId<>i\n    } // for\n    claims_[_claimId].maxSplit = maxSplits_[_claimId];\n    //    } // if (split == 0)\n  }\n\n  function bytesToUint(bytes s) private pure returns (uint result) {\n    bytes memory b = s;\n    uint i;\n    result = 0;\n    for (i = 0; i < b.length; i++) {\n      uint c = uint(b[i]);\n      if (c >= 48 && c <= 57) {\n        result = result * 10 + (c - 48);\n      }\n    }\n  }\n\n  function hasOverlap(bytes _b1, bytes _b2) private {\n\n    hasOverlapResult = false;\n    var delim = \",\".toSlice();\n    var s1 = string(_b1).toSlice();\n    var parts1 = new string[](s1.count(delim) + 1);\n    for(uint i = 0; i < parts1.length; i++) {\n      parts1[i] = s1.split(delim).toString();\n    }\n    var s2 = string(_b2).toSlice();\n    var parts2 = new string[](s2.count(delim) + 1);\n    for(uint j = 0; j < parts2.length; j++) {\n      parts2[j] = s2.split(delim).toString();\n    }\n\n    for(i = 0; i < parts1.length; i++) {\n      for(j = 0; j < parts2.length; j++) {\n        if (keccak256(parts1[i]) == keccak256(parts2[j])) {\n          hasOverlapResult = true;\n          break;\n        }\n      }\n      if (hasOverlapResult) {\n        break;\n      }\n    }\n\n  }\n//\n//  function updateClaimId(uint _claimId, bytes _claimData, uint _memberOwner, bool _claimType) private returns (uint) {\n//    RLPReader.RLPItem memory item = _claimData.toRlpItem();\n//    RLPReader.RLPItem[] memory itemList = item.toList();\n//\n//    for(uint256 i = 1; i <= claimIdCounter_; i++) {\n//      if (_claimType == claims_[i].claimType && _claimId != i) {\n//        if(keccak256(abi.encodePacked(itemList[0].toList()[1].toBytes())) == keccak256(abi.encodePacked(claims_[i].claimData[0].value)) // same ISRC/ISWC\n//        && keccak256(abi.encodePacked(itemList[1].toList()[1].toBytes())) == keccak256(abi.encodePacked(claims_[i].claimData[1].value)) // same countries\n//        && keccak256(abi.encodePacked(itemList[2].toList()[1].toBytes())) == keccak256(abi.encodePacked(claims_[i].claimData[2].value)) // same startDate\n//        && keccak256(abi.encodePacked(itemList[3].toList()[1].toBytes())) == keccak256(abi.encodePacked(claims_[i].claimData[3].value)) // same endDate\n//        && keccak256(abi.encodePacked(itemList[4].toList()[1].toBytes())) == keccak256(abi.encodePacked(claims_[i].claimData[4].value)) // same use/right-Types\n//        && keccak256(abi.encodePacked(itemList[5].toList()[1].toBytes())) == keccak256(abi.encodePacked(claims_[i].claimData[5].value)) // same split\n//        && _memberOwner == claims_[i].memberOwner                                                                                       // same memberOwner\n//        ){\n//          return i;\n//        }\n//      }\n//    }\n//    return ++claimIdCounter_;\n//  }\n}\n",
  "sourcePath": "/home/komodo/newUI2/bloomen-decentralized-rights-management-v2/truffle/contracts/registry/Claims.sol",
  "compiler": {
    "name": "solc",
    "version": "0.4.24+commit.e67f0147.Emscripten.clang"
  },
  "schemaVersion": "2.0.1",
  "updatedAt": "2020-06-28T10:21:18.873Z"
}