{
  "contractName": "Claims",
  "abi": [
    {
      "inputs": [
        {
          "name": "_UsersAddr",
          "type": "address"
        }
      ],
      "payable": false,
      "stateMutability": "nonpayable",
      "type": "constructor"
    },
    {
      "constant": false,
      "inputs": [
        {
          "name": "_creationDate",
          "type": "uint256"
        },
        {
          "name": "_claimData",
          "type": "bytes"
        },
        {
          "name": "_claimType",
          "type": "bool"
        },
        {
          "name": "_memberOwner",
          "type": "uint256"
        },
        {
          "name": "register_or_update",
          "type": "bool"
        },
        {
          "name": "_claimId",
          "type": "uint256"
        },
        {
          "name": "_oldClaimData",
          "type": "bytes"
        },
        {
          "name": "_lastChange",
          "type": "uint256"
        },
        {
          "name": "_updateClaimId",
          "type": "bool"
        }
      ],
      "name": "computeClaim",
      "outputs": [],
      "payable": false,
      "stateMutability": "nonpayable",
      "type": "function"
    },
    {
      "constant": true,
      "inputs": [
        {
          "name": "_claimId",
          "type": "uint256"
        }
      ],
      "name": "getClaim",
      "outputs": [
        {
          "components": [
            {
              "name": "creationDate",
              "type": "uint256"
            },
            {
              "name": "claimId",
              "type": "uint256"
            },
            {
              "components": [
                {
                  "name": "name",
                  "type": "string"
                },
                {
                  "name": "value",
                  "type": "string"
                }
              ],
              "name": "claimData",
              "type": "tuple[]"
            },
            {
              "name": "claimType",
              "type": "bool"
            },
            {
              "name": "memberOwner",
              "type": "uint256"
            },
            {
              "name": "status",
              "type": "bool"
            },
            {
              "name": "lastChange",
              "type": "uint256"
            }
          ],
          "name": "",
          "type": "tuple"
        }
      ],
      "payable": false,
      "stateMutability": "view",
      "type": "function"
    },
    {
      "constant": true,
      "inputs": [
        {
          "name": "_page",
          "type": "uint256"
        }
      ],
      "name": "getClaimsByMemberId",
      "outputs": [
        {
          "components": [
            {
              "name": "creationDate",
              "type": "uint256"
            },
            {
              "name": "claimId",
              "type": "uint256"
            },
            {
              "components": [
                {
                  "name": "name",
                  "type": "string"
                },
                {
                  "name": "value",
                  "type": "string"
                }
              ],
              "name": "claimData",
              "type": "tuple[]"
            },
            {
              "name": "claimType",
              "type": "bool"
            },
            {
              "name": "memberOwner",
              "type": "uint256"
            },
            {
              "name": "status",
              "type": "bool"
            },
            {
              "name": "lastChange",
              "type": "uint256"
            }
          ],
          "name": "",
          "type": "tuple[]"
        }
      ],
      "payable": false,
      "stateMutability": "view",
      "type": "function"
    },
    {
      "constant": true,
      "inputs": [],
      "name": "getClaimsCountByMemberId",
      "outputs": [
        {
          "name": "",
          "type": "uint256"
        }
      ],
      "payable": false,
      "stateMutability": "view",
      "type": "function"
    }
  ],
  "bytecode": "0x608060405260006003553480156200001657600080fd5b506040516020806200326f833981018060405262000038919081019062000073565b60008054600160a060020a031916600160a060020a0392909216919091179055620000a8565b60006200006c82516200009c565b9392505050565b6000602082840312156200008657600080fd5b60006200009484846200005e565b949350505050565b600160a060020a031690565b6131b780620000b86000396000f3006080604052600436106100485763ffffffff60e060020a6000350416630e606cef811461004d5780631be8850b1461006f5780635aef24471461009a578063b6bc3812146100c7575b600080fd5b34801561005957600080fd5b5061006d610068366004612d31565b6100f4565b005b34801561007b57600080fd5b506100846102f2565b6040516100919190613083565b60405180910390f35b3480156100a657600080fd5b506100ba6100b5366004612cf5565b610431565b6040516100919190613072565b3480156100d357600080fd5b506100e76100e2366004612cf5565b610620565b6040516100919190613051565b84156102815760038054600101908190556000546040517ff8380733000000000000000000000000000000000000000000000000000000008152919550600160a060020a03169063f83807339061014f908990600401613083565b602060405180830381600087803b15801561016957600080fd5b505af115801561017d573d6000803e3d6000fd5b505050506040513d601f19601f820116820180604052506101a19190810190612cd7565b15156101e2576040517f08c379a00000000000000000000000000000000000000000000000000000000081526004016101d990613062565b60405180910390fd5b6101f2848a8a8a8a60008f610adb565b6000546040517fe2c11f9e000000000000000000000000000000000000000000000000000000008152600160a060020a039091169063e2c11f9e9061023d9089908890600401613091565b600060405180830381600087803b15801561025757600080fd5b505af115801561026b573d6000803e3d6000fd5b5050505061027c84888a6001610c56565b6102e7565b61028e8488856000610c56565b80156102b1576102ac6102a3858a898b611495565b888a6001610c56565b6102be565b6102be84888a6001610c56565b6000848152600160205260409020600501546102e79085908b908b908b908b9060ff1688610adb565b505050505050505050565b600080546040517feff34e590000000000000000000000000000000000000000000000000000000081528291600160a060020a03169063eff34e599061033c90339060040161303d565b602060405180830381600087803b15801561035657600080fd5b505af115801561036a573d6000803e3d6000fd5b505050506040513d601f19601f8201168201806040525061038e9190810190612d13565b6000546040517faffccd84000000000000000000000000000000000000000000000000000000008152919250600160a060020a03169063affccd84906103d8908490600401613083565b602060405180830381600087803b1580156103f257600080fd5b505af1158015610406573d6000803e3d6000fd5b505050506040513d601f19601f8201168201806040525061042a9190810190612d13565b91505b5090565b610439612a0c565b6000828152600160208181526040808420815160e081018352815481529381015484840152600281018054835181860281018601855281815295969295938701949192909184015b828210156105df5760008481526020908190206040805160028681029093018054600181161561010002600019011693909304601f8101859004909402810160609081018352918101848152909384928491908401828280156105255780601f106104fa57610100808354040283529160200191610525565b820191906000526020600020905b81548152906001019060200180831161050857829003601f168201915b50505050508152602001600182018054600181600116156101000203166002900480601f0160208091040260200160405190810160405280929190818152602001828054600181600116156101000203166002900480156105c75780601f1061059c576101008083540402835291602001916105c7565b820191906000526020600020905b8154815290600101906020018083116105aa57829003601f168201915b50505050508152505081526020019060010190610481565b50505090825250600382015460ff90811615156020830152600483015460408301526005830154161515606082015260069091015460809091015292915050565b6060600080600080606080600080610639600a8b612098565b6000546040517feff34e59000000000000000000000000000000000000000000000000000000008152919950600160a060020a03169063eff34e599061068390339060040161303d565b602060405180830381600087803b15801561069d57600080fd5b505af11580156106b1573d6000803e3d6000fd5b505050506040513d601f19601f820116820180604052506106d59190810190612d13565b6000546040517faffccd84000000000000000000000000000000000000000000000000000000008152919850600160a060020a03169063affccd849061071f908a90600401613083565b602060405180830381600087803b15801561073957600080fd5b505af115801561074d573d6000803e3d6000fd5b505050506040513d601f19601f820116820180604052506107719190810190612d13565b955061077e86600a6120d1565b945085158061078f57506001860388115b806107995750848a115b156107a357610ace565b6000546040517f6262dff6000000000000000000000000000000000000000000000000000000008152600160a060020a0390911690636262dff6906107ec908a90600401613083565b600060405180830381600087803b15801561080657600080fd5b505af115801561081a573d6000803e3d6000fd5b505050506040513d6000823e601f3d908101601f191682016040526108429190810190612c9a565b60408051600a8082526101608201909252919550816020015b610863612a0c565b81526020019060019003908161085b579050509250600091508790505b8351811015610aca57600a821015610abd576001600085838151811015156108a457fe5b90602001906020020151815260200190815260200160002060e06040519081016040529081600082015481526020016001820154815260200160028201805480602002602001604051908101604052809291908181526020016000905b82821015610a5f5760008481526020908190206040805160028681029093018054600181161561010002600019011693909304601f8101859004909402810160609081018352918101848152909384928491908401828280156109a55780601f1061097a576101008083540402835291602001916109a5565b820191906000526020600020905b81548152906001019060200180831161098857829003601f168201915b50505050508152602001600182018054600181600116156101000203166002900480601f016020809104026020016040519081016040528092919081815260200182805460018160011615610100020316600290048015610a475780601f10610a1c57610100808354040283529160200191610a47565b820191906000526020600020905b815481529060010190602001808311610a2a57829003601f168201915b50505050508152505081526020019060010190610901565b50505090825250600382015460ff9081161515602083015260048301546040830152600583015416151560608201526006909101546080909101528351849084908110610aa857fe5b60209081029091010152600190910190610ac2565b610aca565b600101610880565b8298505b5050505050505050919050565b610ae3612a4e565b606060006060610af2896120f4565b9350610afd84612145565b60008c815260016020819052604082209081018e90558c815560038101805460ff19168c1515179055919450610b369160020190612a65565b600091505b8251821015610c1b57610b648383815181101515610b5557fe5b90602001906020020151612145565b9050600160008c81526020019081526020016000206002016040805190810160405280610ba8846000815181101515610b9957fe5b90602001906020020151612218565b8152602001610bbf846001815181101515610b9957fe5b90528154600181018084556000938452602093849020835180519295600290940290910192610bf392849290910190612a89565b506020828101518051610c0c9260018501920190612a89565b50505050816001019150610b3b565b5050506000978852506001602052604090962060048101929092556006820195909555600501805460ff191694151594909417909355505050565b610c5e612a4e565b6060600080600080600080610c728a6120f4565b9750610c7d88612145565b9650610ca9610ca4610c97896005815181101515610b5557fe5b80516001908110610b9957fe5b61228a565b9550610cc3610ca4610c97896002815181101515610b5557fe5b9450610cdd610ca4610c97896003815181101515610b5557fe5b60008d8152600260209081526040808320805461ffff191661ffff8c161790556001918290529091206005015491955060ff909116935091508190505b60035481116114875760008181526001602052604090206003015460ff1615158b1515148015610d4a5750808c14155b1561147f57600081815260016020526040812060020180549091908110610d6d57fe5b90600052602060002090600202016001016040518082805460018160011615610100020316600290048015610dd95780601f10610db7576101008083540402835291820191610dd9565b820191906000526020600020905b815481529060010190602001808311610dc5575b5050915050604051809103902060001916610dff610c97896000815181101515610b5557fe5b6040518082805190602001908083835b60208310610e2e5780518252601f199092019160209182019101610e0f565b6001836020036101000a038019825116818451168082178552505050505050905001915050604051809103902060001916148015610f4c5750600081815260016020526040902060029081018054610f3892908110610e8957fe5b90600052602060002090600202016001018054600181600116156101000203166002900480601f016020809104026020016040519081016040528092919081815260200182805460018160011615610100020316600290048015610f2e5780601f10610f0357610100808354040283529160200191610f2e565b820191906000526020600020905b815481529060010190602001808311610f1157829003601f168201915b505050505061228a565b65ffffffffffff168465ffffffffffff1610155b8015610f8a575060008181526001602052604090206002018054610f7691906003908110610e8957fe5b65ffffffffffff168565ffffffffffff1611155b1561147f57611074610fa7610c97896004815181101515610b5557fe5b600083815260016020526040902060020180546004908110610fc557fe5b90600052602060002090600202016001018054600181600116156101000203166002900480601f01602080910402602001604051908101604052809291908181526020018280546001816001161561010002031660029004801561106a5780601f1061103f5761010080835404028352916020019161106a565b820191906000526020600020905b81548152906001019060200180831161104d57829003601f168201915b505050505061230c565b60045460ff161561147f576110b8611097610c97896001815181101515610b5557fe5b600083815260016020819052604090912060020180549091908110610fc557fe5b60045460ff161561147f578815611291576000818152600260205260409020805461ffff19811661ffff91821689018216179182905560649116111561128c578215156111bf5760018060008e815260200190815260200160002060050160006101000a81548160ff0219169083151502179055506000809054906101000a9004600160a060020a0316600160a060020a03166374853239600160008f8152602001908152602001600020600401548e6040518363ffffffff1660e060020a028152600401611188929190613091565b600060405180830381600087803b1580156111a257600080fd5b505af11580156111b6573d6000803e3d6000fd5b50505050600192505b60008181526001602052604090206005015460ff16151561128c576000805482825260016020819052604092839020600480820154919092015493517f74853239000000000000000000000000000000000000000000000000000000008152600160a060020a039093169363748532399361123a9301613091565b600060405180830381600087803b15801561125457600080fd5b505af1158015611268573d6000803e3d6000fd5b5050506000828152600160208190526040909120600501805460ff19169091179055505b61144d565b6000818152600260205260409020805461ffff19811661ffff91821689900382161791829055606491161161144d578215611387576000600160008e815260200190815260200160002060050160006101000a81548160ff0219169083151502179055506000809054906101000a9004600160a060020a0316600160a060020a0316638b92892b600160008f8152602001908152602001600020600401548e6040518363ffffffff1660e060020a028152600401611350929190613091565b600060405180830381600087803b15801561136a57600080fd5b505af115801561137e573d6000803e3d6000fd5b50505050600092505b60008181526001602052604090206005015460ff161561144d576000805482825260016020819052604092839020600480820154919092015493517f8b92892b000000000000000000000000000000000000000000000000000000008152600160a060020a0390931693638b92892b936114019301613091565b600060405180830381600087803b15801561141b57600080fd5b505af115801561142f573d6000803e3d6000fd5b5050506000828152600160205260409020600501805460ff19169055505b811561147f57600081815260026020526040808220548e8352908220805461ffff191661ffff90921691909117905591505b600101610d1a565b505050505050505050505050565b600061149f612a4e565b606060006114ac876120f4565b92506114b783612145565b9150600190505b600354811161207f5760008181526001602052604090206003015460ff1615158515151480156114ee5750808814155b156120775760008181526001602052604081206002018054909190811061151157fe5b906000526020600020906002020160010160405160200180828054600181600116156101000203166002900480156115805780601f1061155e576101008083540402835291820191611580565b820191906000526020600020905b81548152906001019060200180831161156c575b50509150506040516020818303038152906040526040518082805190602001908083835b602083106115c35780518252601f1990920191602091820191016115a4565b6001836020036101000a038019825116818451168082178552505050505050905001915050604051809103902060001916611609610c97846000815181101515610b5557fe5b6040516020018082805190602001908083835b6020831061163b5780518252601f19909201916020918201910161161c565b6001836020036101000a0380198251168184511680821785525050505050509050019150506040516020818303038152906040526040518082805190602001908083835b6020831061169e5780518252601f19909201916020918201910161167f565b6001836020036101000a0380198251168184511680821785525050505050509050019150506040518091039020600019161480156118b857506000818152600160208190526040909120600201805490919081106116f857fe5b906000526020600020906002020160010160405160200180828054600181600116156101000203166002900480156117675780601f10611745576101008083540402835291820191611767565b820191906000526020600020905b815481529060010190602001808311611753575b50509150506040516020818303038152906040526040518082805190602001908083835b602083106117aa5780518252601f19909201916020918201910161178b565b6001836020036101000a0380198251168184511680821785525050505050509050019150506040518091039020600019166117f0610c97846001815181101515610b5557fe5b6040516020018082805190602001908083835b602083106118225780518252601f199092019160209182019101611803565b6001836020036101000a0380198251168184511680821785525050505050509050019150506040516020818303038152906040526040518082805190602001908083835b602083106118855780518252601f199092019160209182019101611866565b6001836020036101000a038019825116818451168082178552505050505050905001915050604051809103902060001916145b8015611a9f575060008181526001602052604090206002908101805490919081106118df57fe5b9060005260206000209060020201600101604051602001808280546001816001161561010002031660029004801561194e5780601f1061192c57610100808354040283529182019161194e565b820191906000526020600020905b81548152906001019060200180831161193a575b50509150506040516020818303038152906040526040518082805190602001908083835b602083106119915780518252601f199092019160209182019101611972565b6001836020036101000a0380198251168184511680821785525050505050509050019150506040518091039020600019166119d7610c97846002815181101515610b5557fe5b6040516020018082805190602001908083835b60208310611a095780518252601f1990920191602091820191016119ea565b6001836020036101000a0380198251168184511680821785525050505050509050019150506040516020818303038152906040526040518082805190602001908083835b60208310611a6c5780518252601f199092019160209182019101611a4d565b6001836020036101000a038019825116818451168082178552505050505050905001915050604051809103902060001916145b8015611c845750600081815260016020526040902060020180546003908110611ac457fe5b90600052602060002090600202016001016040516020018082805460018160011615610100020316600290048015611b335780601f10611b11576101008083540402835291820191611b33565b820191906000526020600020905b815481529060010190602001808311611b1f575b50509150506040516020818303038152906040526040518082805190602001908083835b60208310611b765780518252601f199092019160209182019101611b57565b6001836020036101000a038019825116818451168082178552505050505050905001915050604051809103902060001916611bbc610c97846003815181101515610b5557fe5b6040516020018082805190602001908083835b60208310611bee5780518252601f199092019160209182019101611bcf565b6001836020036101000a0380198251168184511680821785525050505050509050019150506040516020818303038152906040526040518082805190602001908083835b60208310611c515780518252601f199092019160209182019101611c32565b6001836020036101000a038019825116818451168082178552505050505050905001915050604051809103902060001916145b8015611e695750600081815260016020526040902060020180546004908110611ca957fe5b90600052602060002090600202016001016040516020018082805460018160011615610100020316600290048015611d185780601f10611cf6576101008083540402835291820191611d18565b820191906000526020600020905b815481529060010190602001808311611d04575b50509150506040516020818303038152906040526040518082805190602001908083835b60208310611d5b5780518252601f199092019160209182019101611d3c565b6001836020036101000a038019825116818451168082178552505050505050905001915050604051809103902060001916611da1610c97846004815181101515610b5557fe5b6040516020018082805190602001908083835b60208310611dd35780518252601f199092019160209182019101611db4565b6001836020036101000a0380198251168184511680821785525050505050509050019150506040516020818303038152906040526040518082805190602001908083835b60208310611e365780518252601f199092019160209182019101611e17565b6001836020036101000a038019825116818451168082178552505050505050905001915050604051809103902060001916145b801561204e5750600081815260016020526040902060020180546005908110611e8e57fe5b90600052602060002090600202016001016040516020018082805460018160011615610100020316600290048015611efd5780601f10611edb576101008083540402835291820191611efd565b820191906000526020600020905b815481529060010190602001808311611ee9575b50509150506040516020818303038152906040526040518082805190602001908083835b60208310611f405780518252601f199092019160209182019101611f21565b6001836020036101000a038019825116818451168082178552505050505050905001915050604051809103902060001916611f86610c97846005815181101515610b5557fe5b6040516020018082805190602001908083835b60208310611fb85780518252601f199092019160209182019101611f99565b6001836020036101000a0380198251168184511680821785525050505050509050019150506040516020818303038152906040526040518082805190602001908083835b6020831061201b5780518252601f199092019160209182019101611ffc565b6001836020036101000a038019825116818451168082178552505050505050905001915050604051809103902060001916145b801561206a575060008181526001602052604090206004015486145b156120775780935061208d565b6001016114be565b600380546001019081905593505b505050949350505050565b6000808315156120ab57600091506120ca565b508282028284828115156120bb57fe5b04146120c657600080fd5b8091505b5092915050565b6000808083116120e057600080fd5b82848115156120eb57fe5b04949350505050565b6120fc612a4e565b6000825160001415612123576040805180820190915260008082526020820152915061213f565b5050604080518082019091528151815260208281019082018190525b50919050565b6060600080600080612156866125ec565b151561216157600080fd5b61216a8661261b565b9350836040519080825280602002602001820160405280156121a657816020015b612193612a4e565b81526020019060019003908161218b5790505b5094506121b6866020015161266b565b8660200151019250600090505b8381101561220f576121d4836126ce565b915060408051908101604052808381526020018481525085828151811015156121f957fe5b60209081029091010152918101916001016121c3565b50505050919050565b60606000806060600061222e866020015161266b565b9350838660000151039250826040519080825280601f01601f191660200182016040528015612267578160200160208202803883390190505b50915081602001905061228184876020015101828561275f565b50949350505050565b60008181805b82518210156123045782828151811015156122a757fe5b01602001517f0100000000000000000000000000000000000000000000000000000000000000908190048102049050603081108015906122e8575060398111155b156122f9576030810384600a020193505b600190910190612290565b505050919050565b612314612a4e565b61231c612a4e565b60606000612328612a4e565b6004805460ff1916905560408051808201909152600181527f2c000000000000000000000000000000000000000000000000000000000000006020820152606090600090612375906127a6565b9650612380896127a6565b9550612392868863ffffffff6127cc16565b6001016040519080825280602002602001820160405280156123c857816020015b60608152602001906001900390816123b35790505b509450600093505b8451841015612414576123f16123ec878963ffffffff61283216565b612845565b85858151811015156123ff57fe5b602090810290910101526001909301926123d0565b61241d886127a6565b925061242f838863ffffffff6127cc16565b60010160405190808252806020026020018201604052801561246557816020015b60608152602001906001900390816124505790505b509150600090505b81518110156124a9576124896123ec848963ffffffff61283216565b828281518110151561249757fe5b6020908102909101015260010161246d565b600093505b84518410156102e7575060005b81518110156125d15781818151811015156124d257fe5b906020019060200201516040518082805190602001908083835b6020831061250b5780518252601f1990920191602091820191016124ec565b5181516020939093036101000a600019018019909116921691909117905260405192018290039091208851909350889250879150811061254757fe5b906020019060200201516040518082805190602001908083835b602083106125805780518252601f199092019160209182019101612561565b6001836020036101000a03801982511681845116808217855250505050505090500191505060405180910390206000191614156125c9576004805460ff191660011790556125d1565b6001016124bb565b60045460ff16156125e1576102e7565b6001909301926124ae565b6020810151805160009190821a9060c060ff8316101561260f5760009250612614565b600192505b5050919050565b60008060008060009250612632856020015161266b565b6020860151865191810193500190505b8082101561266257612653826126ce565b60019093019290910190612642565b50909392505050565b8051600090811a6080811015612684576000915061213f565b60b881108061269f575060c0811080159061269f575060f881105b156126ad576001915061213f565b60c08110156126c25760b5198101915061213f565b60f5198101915061213f565b8051600090811a60808110156126e7576001915061213f565b60b88110156126fc57607e198101915061213f565b60c08110156127295760b78103600184019350806020036101000a8451046001820181019350505061213f565b60f881101561273e5760be198101915061213f565b60019290920151602083900360f7016101000a900490910160f51901919050565b60005b60208210612784578351835260209384019390920191601f1990910190612762565b50915181516020939093036101000a6000190180199091169216919091179052565b6127ae612a4e565b50604080518082019091528151815260209182019181019190915290565b60008082600001516127f08560000151866020015186600001518760200151612898565b0190505b835160208501510181116120ca57825160208086015186519186015160019095019461282a929185039091039084908490612898565b0190506127f4565b61283a612a4e565b6120ca838383612958565b606080600083600001516040519080825280601f01601f19166020018201604052801561287c578160200160208202803883390190505b5091506020820190506120ca81856020015186600001516129c8565b600083818080808080808c8b116129425760208b1161290b5760018b60200360080260020a03196001029550858a511694508a8d8d010393508588511692505b828514612903578388106128f0578c8c019850612948565b87806001019850508588511692506128d8565b879850612948565b8a8a209150600096505b8a8d03871161294257508987208181141561293257879850612948565b6001978801979690960195612915565b8c8c0198505b5050505050505050949350505050565b612960612a4e565b600061297e8560000151866020015186600001518760200151612898565b602080870180519186019190915280518203855286519051919250018114156129aa5760008552612662565b83518351865191019003855283518101602086015250909392505050565b60005b602082106129ed578251845260209384019390920191601f19909101906129cb565b50905182516020929092036101000a6000190180199091169116179052565b60e06040519081016040528060008152602001600081526020016060815260200160001515815260200160008152602001600015158152602001600081525090565b604080518082019091526000808252602082015290565b5080546000825560020290600052602060002090810190612a869190612b03565b50565b828054600181600116156101000203166002900490600052602060002090601f016020900481019282601f10612aca57805160ff1916838001178555612af7565b82800160010185558215612af7579182015b82811115612af7578251825591602001919060010190612adc565b5061042d929150612b37565b612b3491905b8082111561042d576000612b1d8282612b51565b612b2b600183016000612b51565b50600201612b09565b90565b612b3491905b8082111561042d5760008155600101612b3d565b50805460018160011615610100020316600290046000825580601f10612b775750612a86565b601f016020900490600052602060002090810190612a869190612b37565b6000601f82018313612ba657600080fd5b8151612bb9612bb4826130d3565b6130ac565b91508181835260208401935060208101905083856020840282011115612bde57600080fd5b60005b83811015612c0a5781612bf48882612c8e565b8452506020928301929190910190600101612be1565b5050505092915050565b6000612c208235613132565b9392505050565b6000612c208251613132565b6000601f82018313612c4457600080fd5b8135612c52612bb4826130f4565b91508082526020830160208301858383011115612c6e57600080fd5b612c79838284613137565b50505092915050565b6000612c208235612b34565b6000612c208251612b34565b600060208284031215612cac57600080fd5b815167ffffffffffffffff811115612cc357600080fd5b612ccf84828501612b95565b949350505050565b600060208284031215612ce957600080fd5b6000612ccf8484612c27565b600060208284031215612d0757600080fd5b6000612ccf8484612c82565b600060208284031215612d2557600080fd5b6000612ccf8484612c8e565b60008060008060008060008060006101208a8c031215612d5057600080fd5b6000612d5c8c8c612c82565b99505060208a013567ffffffffffffffff811115612d7957600080fd5b612d858c828d01612c33565b9850506040612d968c828d01612c14565b9750506060612da78c828d01612c82565b9650506080612db88c828d01612c14565b95505060a0612dc98c828d01612c82565b94505060c08a013567ffffffffffffffff811115612de657600080fd5b612df28c828d01612c33565b93505060e0612e038c828d01612c82565b925050610100612e158c828d01612c14565b9150509295985092959850929598565b612e2e81613126565b82525050565b6000612e3f82613122565b80845260208401935083602082028501612e588561311c565b60005b84811015612e8f578383038852612e73838351612f64565b9250612e7e8261311c565b602098909801979150600101612e5b565b50909695505050505050565b6000612ea682613122565b80845260208401935083602082028501612ebf8561311c565b60005b84811015612e8f578383038852612eda838351612ff9565b9250612ee58261311c565b602098909801979150600101612ec2565b612e2e81613132565b6000612f0a82613122565b808452612f1e816020860160208601613143565b612f2781613173565b9093016020019392505050565b601481527f4d656d62657220646f206e6f7420657869737473000000000000000000000000602082015260400190565b805160009060e0840190612f788582613034565b506020830151612f8b6020860182613034565b5060408301518482036040860152612fa38282612e9b565b9150506060830151612fb86060860182612ef6565b506080830151612fcb6080860182613034565b5060a0830151612fde60a0860182612ef6565b5060c0830151612ff160c0860182613034565b509392505050565b80516040808452600091908401906130118282612eff565b9150506020830151848203602086015261302b8282612eff565b95945050505050565b612e2e81612b34565b6020810161304b8284612e25565b92915050565b60208082528101612c208184612e34565b6020808252810161304b81612f34565b60208082528101612c208184612f64565b6020810161304b8284613034565b6040810161309f8285613034565b612c206020830184613034565b60405181810167ffffffffffffffff811182821017156130cb57600080fd5b604052919050565b600067ffffffffffffffff8211156130ea57600080fd5b5060209081020190565b600067ffffffffffffffff82111561310b57600080fd5b506020601f91909101601f19160190565b60200190565b5190565b600160a060020a031690565b151590565b82818337506000910152565b60005b8381101561315e578181015183820152602001613146565b8381111561316d576000848401525b50505050565b601f01601f1916905600a265627a7a7230582010664cb682905f99281f79e3a6e5ade8b045df0448bb7bfe342954b2a304acec6c6578706572696d656e74616cf50037",
  "source": "pragma solidity ^0.4.24;\npragma experimental ABIEncoderV2;\n\nimport \"./SafeMath.sol\";\nimport \"../../node_modules/solidity-rlp/contracts/RLPReader.sol\";\nimport \"./Users.sol\";\nimport \"../../node_modules/solidity-stringutils/strings.sol\";\n\ncontract Claims {\n\n  Users private _Users;\n\n  constructor (address _UsersAddr) public {\n    _Users = Users(_UsersAddr);\n  }\n\n  using RLPReader for bytes;\n  using RLPReader for uint;\n  using RLPReader for RLPReader.RLPItem;\n\n  struct NameValue{\n    string name;\n    string value;\n  }\n\n  struct Claim {\n    uint256 creationDate;\n    uint256 claimId;        // should be 2^48 ~ 100 trillion claims\n    NameValue[] claimData;\n    bool claimType;\n    uint256 memberOwner;    // should be 2^24 ~ 16 million members\n    bool status;\n    uint256 lastChange;\n  }\n\n  mapping (uint256 => Claim) private claims_;\n  mapping (uint256 => uint16) private maxSplits_;\n  uint256 constant private PAGE_SIZE = 10;\n\n  uint256 private claimIdCounter_ = 0; // has the number of claims ever inserted, including the deleted ones\n  //   uint256[] private claimIdIndex;\n  bool private hasOverlapResult;\n  using strings for *;\n\n  function computeClaim(uint256 _creationDate, bytes _claimData, bool _claimType, uint256 _memberOwner, bool register_or_update,\n    uint256 _claimId, bytes _oldClaimData, uint _lastChange, bool _updateClaimId) public {\n\n    if (register_or_update) {             // Register new claim.\n      _claimId = ++claimIdCounter_;\n      //    require(claims_[_claimId].claimId == 0, \"Claim already exists\");\n      require(_Users._memberExists(_memberOwner), \"Member do not exists\");\n//      _memberOwner = _Users._memberIdFromCurrentAddress(msg.sender);\n\n      _saveClaim(_claimId, _creationDate, _claimData, _claimType, _memberOwner, false, _creationDate);\n      _Users._addClaimIdToMemberOwner(_memberOwner, _claimId);\n\n      checkClaimStatus(_claimId, _claimType, _claimData, true);\n    } else {                     // Update existing claim.\n\n      checkClaimStatus(_claimId, _claimType, _oldClaimData, false);\n      if (_updateClaimId) {\n        checkClaimStatus(updateClaimId(_claimId, _claimData, _memberOwner, _claimType), _claimType, _claimData, true);\n      } else {\n        checkClaimStatus(_claimId, _claimType, _claimData, true);\n      }\n\n      _saveClaim(_claimId, _creationDate, _claimData, _claimType, _memberOwner, claims_[_claimId].status, _lastChange);\n      if (_creationDate == 0) {  // Delete claim.\n//        _removeClaimIdFromMember(_memberOwner, _claimId);\n//        _removeClaim(_claimId);\n      }\n    }\n  }\n\n  function getClaim(uint256 _claimId) view public returns (Claim) {\n    return claims_[_claimId];\n  }\n\n\n  function getClaimsByMemberId(uint _page) view public returns (Claim[] memory) {\n\n    uint256 pageIndex = SafeMath.mul(PAGE_SIZE, _page);\n    uint256 _memberId = _Users._memberIdFromCurrentAddress(msg.sender);\n    uint count = _Users._getClaimsCountByMember(_memberId);\n    uint256 pageNumber = SafeMath.div(count, PAGE_SIZE);\n\n    if (count == 0 || pageIndex > count - 1 || _page > pageNumber) {\n      return;\n    }\n\n    uint256[] memory claimsId = _Users._getClaimsIdByMember(_memberId);\n\n    Claim[] memory _claims = new Claim[](PAGE_SIZE);\n    uint256 returnCounter = 0;\n    for (uint i = pageIndex; i < claimsId.length; ++i) {\n      if(returnCounter < PAGE_SIZE) {\n        _claims[returnCounter] = claims_[claimsId[i]];\n        ++returnCounter;\n      } else {\n        break;\n      }\n    }\n    return _claims;\n  }\n\n  function getClaimsCountByMemberId() view public returns (uint) {\n    uint256 _memberId = _Users._memberIdFromCurrentAddress(msg.sender);\n    return _Users._getClaimsCountByMember(_memberId);\n  }\n\n  function _saveClaim(uint256 _claimId, uint256 _creationDate, bytes _claimData, bool _claimType,\n    uint _memberOwner, bool _status, uint256 _lastChange) private {\n\n    RLPReader.RLPItem memory item = _claimData.toRlpItem();\n    RLPReader.RLPItem[] memory itemList = item.toList(); // ((name, value), (name, value), (name, value), ...)\n\n    claims_[_claimId].claimId = _claimId;\n    claims_[_claimId].creationDate = _creationDate;\n    claims_[_claimId].claimType = _claimType;\n\n    delete claims_[_claimId].claimData;\n    for(uint i = 0; i < itemList.length; ++i) {\n      RLPReader.RLPItem[] memory itemListClaim = itemList[i].toList(); // (name, value)\n      claims_[_claimId].claimData.push(NameValue(string(itemListClaim[0].toBytes()), string(itemListClaim[1].toBytes())));\n    }\n\n    claims_[_claimId].memberOwner = _memberOwner;\n    claims_[_claimId].lastChange = _lastChange;\n    claims_[_claimId].status = _status;\n  }\n\n  // Old Lib.sol\n//\n//  using RLPReader for bytes;\n//  using RLPReader for uint;\n//  using RLPReader for RLPReader.RLPItem;\n//\n//  struct NameValue{\n//    string name;\n//    string value;\n//  }\n//\n//  struct Claim {\n//    uint256 creationDate;\n//    uint256 claimId;        // should be 2^48 ~ 100 trillion claims\n//    NameValue[] claimData;\n//    bool claimType;\n//    uint256 memberOwner;    // should be 2^24 ~ 16 million members\n//    bool status;\n//    uint256 lastChange;\n//    //    string[] log;\n//    //    uint16 log2;\n//  }\n//\n//  mapping (uint256 => Claim) internal claims_;\n//  mapping (uint256 => uint16) internal maxSplits_;\n//  uint256 constant internal PAGE_SIZE = 10;\n//\n//  uint256 internal claimIdCounter_ = 0; // has the number of claims ever inserted, including the deleted ones\n//  //  uint256[] private claimIdIndex;\n\n  function checkClaimStatus(uint256 _claimId, bool _claimType, bytes _claimData, bool newClaim) private {\n\n    //    if (newClaim) {\n    //      claimIdIndex.push(_claimId);\n    //    }\n    RLPReader.RLPItem memory item = _claimData.toRlpItem();\n    RLPReader.RLPItem[] memory itemList = item.toList();  // ((name0, value0), (name, value), (name, value), ...)\n    uint16 split = uint16(bytesToUint(itemList[5].toList()[1].toBytes()));\n    uint48 startDate = uint48(bytesToUint(itemList[2].toList()[1].toBytes()));\n    uint48 endDate = uint48(bytesToUint(itemList[3].toList()[1].toBytes()));\n\n    maxSplits_[_claimId]=split;\n//    claims_[_claimId].maxSplit.push(maxSplits_[_claimId]);\n    bool prevStatus = claims_[_claimId].status;\n    bool tempMaxSplitOnce = true;\n    for(uint256 i = 1; i <= claimIdCounter_; i++) {\n      if (_claimType == claims_[i].claimType && _claimId != i) {\n        if(keccak256(itemList[0].toList()[1].toBytes()) == keccak256(claims_[i].claimData[0].value) // same ISRC/ISWC\n        && endDate >= uint48(bytesToUint(bytes(claims_[i].claimData[2].value))) // end1 >= start2\n        && startDate <= uint48(bytesToUint(bytes(claims_[i].claimData[3].value))) // start1 <= end2\n        ){\n          if (newClaim) {\n            // claims_[2].log.push('CHECK STATUS TRUE');\n          } else {\n            // claims_[2].log.push('CHECK STATUS FALSE');\n          }\n          // claims_[2].log.push(string(itemList[4].toList()[1].toBytes()));\n          // claims_[2].log.push(string(bytes(claims_[i].claimData[4].value)));\n          hasOverlap(itemList[4].toList()[1].toBytes(), bytes(claims_[i].claimData[4].value)); // useTypes/rightTypes: have at least one common\n          if (hasOverlapResult) {\n            hasOverlap(itemList[1].toList()[1].toBytes(), bytes(claims_[i].claimData[1].value)); // territory: contain at least one common\n            if (hasOverlapResult) {\n              if (newClaim) {\n                maxSplits_[i]+=split;                // build maxSplits_[i]\n//                claims_[i].maxSplit.push(maxSplits_[i]);\n                if (maxSplits_[i]>100) {\n                  if (!prevStatus) {\n                    claims_[_claimId].status = true; // true, means there IS a CONFLICT\n                    _Users._addClaimFromInbox(claims_[_claimId].memberOwner, _claimId);\n                    prevStatus = true;\n                  }\n                  if (!claims_[i].status) {\n                    _Users._addClaimFromInbox(claims_[i].memberOwner, claims_[i].claimId);\n                    claims_[i].status = true;\n                  }\n                }\n              } else {\n                maxSplits_[i]-=split;\n//                claims_[i].maxSplit.push(maxSplits_[i]);\n                if (maxSplits_[i]<=100) {\n                  if (prevStatus) {\n                    claims_[_claimId].status = false;\n                    _Users._removeClaimFromInbox(claims_[_claimId].memberOwner, _claimId);\n                    prevStatus = false;\n                  }\n                  if (claims_[i].status) {\n                    _Users._removeClaimFromInbox(claims_[i].memberOwner, claims_[i].claimId);\n                    claims_[i].status = false;\n                  }\n                }\n              }\n              if (tempMaxSplitOnce) {\n                maxSplits_[_claimId]=maxSplits_[i];\n//                claims_[_claimId].maxSplit.push(maxSplits_[_claimId]);\n                tempMaxSplitOnce=false;\n              }\n            }  // hasOverlapResult\n          } // hasOverlapResult\n        }\n      }\n    }\n  }\n\n  function bytesToUint(bytes s) private pure returns (uint result) {\n    bytes memory b = s;\n    uint i;\n    result = 0;\n    for (i = 0; i < b.length; i++) {\n      uint c = uint(b[i]);\n      if (c >= 48 && c <= 57) {\n        result = result * 10 + (c - 48);\n      }\n    }\n  }\n\n  function hasOverlap(bytes _b1, bytes _b2) private {\n\n    hasOverlapResult = false;\n    var delim = \",\".toSlice();\n    var s1 = string(_b1).toSlice();\n    var parts1 = new string[](s1.count(delim) + 1);\n    for(uint i = 0; i < parts1.length; i++) {\n      parts1[i] = s1.split(delim).toString();\n    }\n    var s2 = string(_b2).toSlice();\n    var parts2 = new string[](s2.count(delim) + 1);\n    for(uint j = 0; j < parts2.length; j++) {\n      parts2[j] = s2.split(delim).toString();\n    }\n\n    for(i = 0; i < parts1.length; i++) {\n      for(j = 0; j < parts2.length; j++) {\n        if (keccak256(parts1[i]) == keccak256(parts2[j])) {\n          hasOverlapResult = true;\n          break;\n        }\n      }\n      if (hasOverlapResult) {\n        break;\n      }\n    }\n\n  }\n\n  function updateClaimId(uint _claimId, bytes _claimData, uint _memberOwner, bool _claimType) private returns (uint) {\n    RLPReader.RLPItem memory item = _claimData.toRlpItem();\n    RLPReader.RLPItem[] memory itemList = item.toList();\n\n    for(uint256 i = 1; i <= claimIdCounter_; i++) {\n      if (_claimType == claims_[i].claimType && _claimId != i) {\n        if(keccak256(abi.encodePacked(itemList[0].toList()[1].toBytes())) == keccak256(abi.encodePacked(claims_[i].claimData[0].value)) // same ISRC/ISWC\n        && keccak256(abi.encodePacked(itemList[1].toList()[1].toBytes())) == keccak256(abi.encodePacked(claims_[i].claimData[1].value)) // same countries\n        && keccak256(abi.encodePacked(itemList[2].toList()[1].toBytes())) == keccak256(abi.encodePacked(claims_[i].claimData[2].value)) // same startDate\n        && keccak256(abi.encodePacked(itemList[3].toList()[1].toBytes())) == keccak256(abi.encodePacked(claims_[i].claimData[3].value)) // same endDate\n        && keccak256(abi.encodePacked(itemList[4].toList()[1].toBytes())) == keccak256(abi.encodePacked(claims_[i].claimData[4].value)) // same useTypes/rightTypes\n        && keccak256(abi.encodePacked(itemList[5].toList()[1].toBytes())) == keccak256(abi.encodePacked(claims_[i].claimData[5].value)) // same split\n        && _memberOwner == claims_[i].memberOwner                                                                                       // same memberOwner\n        ){\n          return i;\n        }\n      }\n    }\n    return ++claimIdCounter_;\n  }\n}",
  "sourcePath": "/home/komodo/newUI2/bloomen-decentralized-rights-management-v2/truffle/contracts/registry/Claims.sol",
  "compiler": {
    "name": "solc",
    "version": "0.4.24+commit.e67f0147.Emscripten.clang"
  },
  "schemaVersion": "2.0.1",
  "updatedAt": "2019-12-29T21:24:08.487Z"
}