{
  "contractName": "Claims",
  "abi": [
    {
      "inputs": [
        {
          "name": "_UsersAddr",
          "type": "address"
        }
      ],
      "payable": false,
      "stateMutability": "nonpayable",
      "type": "constructor"
    },
    {
      "constant": false,
      "inputs": [
        {
          "name": "_creationDate",
          "type": "uint256"
        },
        {
          "name": "_claimData",
          "type": "bytes"
        },
        {
          "name": "_claimType",
          "type": "bool"
        },
        {
          "name": "_memberOwner",
          "type": "uint256"
        },
        {
          "name": "register_or_update",
          "type": "bool"
        },
        {
          "name": "_claimId",
          "type": "uint256"
        },
        {
          "name": "_oldClaimData",
          "type": "bytes"
        },
        {
          "name": "_lastChange",
          "type": "uint256"
        },
        {
          "name": "_updateClaimId",
          "type": "bool"
        }
      ],
      "name": "computeClaim",
      "outputs": [],
      "payable": false,
      "stateMutability": "nonpayable",
      "type": "function"
    },
    {
      "constant": true,
      "inputs": [],
      "name": "getTransactionPrice",
      "outputs": [
        {
          "name": "",
          "type": "uint256"
        }
      ],
      "payable": false,
      "stateMutability": "pure",
      "type": "function"
    },
    {
      "constant": true,
      "inputs": [
        {
          "name": "_claimId",
          "type": "uint256"
        }
      ],
      "name": "getClaim",
      "outputs": [
        {
          "components": [
            {
              "name": "creationDate",
              "type": "uint256"
            },
            {
              "name": "claimId",
              "type": "uint256"
            },
            {
              "components": [
                {
                  "name": "name",
                  "type": "string"
                },
                {
                  "name": "value",
                  "type": "string"
                }
              ],
              "name": "claimData",
              "type": "tuple[]"
            },
            {
              "name": "claimType",
              "type": "bool"
            },
            {
              "name": "memberOwner",
              "type": "uint256"
            },
            {
              "name": "status",
              "type": "bool"
            },
            {
              "name": "lastChange",
              "type": "uint256"
            },
            {
              "name": "log",
              "type": "uint16[]"
            },
            {
              "name": "maxSplit",
              "type": "uint16"
            }
          ],
          "name": "",
          "type": "tuple"
        }
      ],
      "payable": false,
      "stateMutability": "view",
      "type": "function"
    },
    {
      "constant": true,
      "inputs": [
        {
          "name": "_page",
          "type": "uint256"
        }
      ],
      "name": "getClaimsByMemberId",
      "outputs": [
        {
          "components": [
            {
              "name": "creationDate",
              "type": "uint256"
            },
            {
              "name": "claimId",
              "type": "uint256"
            },
            {
              "components": [
                {
                  "name": "name",
                  "type": "string"
                },
                {
                  "name": "value",
                  "type": "string"
                }
              ],
              "name": "claimData",
              "type": "tuple[]"
            },
            {
              "name": "claimType",
              "type": "bool"
            },
            {
              "name": "memberOwner",
              "type": "uint256"
            },
            {
              "name": "status",
              "type": "bool"
            },
            {
              "name": "lastChange",
              "type": "uint256"
            },
            {
              "name": "log",
              "type": "uint16[]"
            },
            {
              "name": "maxSplit",
              "type": "uint16"
            }
          ],
          "name": "",
          "type": "tuple[]"
        }
      ],
      "payable": false,
      "stateMutability": "view",
      "type": "function"
    },
    {
      "constant": true,
      "inputs": [],
      "name": "getClaimsCountByMemberId",
      "outputs": [
        {
          "name": "",
          "type": "uint256"
        }
      ],
      "payable": false,
      "stateMutability": "view",
      "type": "function"
    }
  ],
  "bytecode": "0x608060405260006003553480156200001657600080fd5b5060405160208062003a87833981018060405262000038919081019062000073565b60008054600160a060020a031916600160a060020a0392909216919091179055620000a8565b60006200006c82516200009c565b9392505050565b6000602082840312156200008657600080fd5b60006200009484846200005e565b949350505050565b600160a060020a031690565b6139cf80620000b86000396000f3006080604052600436106100535763ffffffff60e060020a6000350416630e606cef81146100585780631be8850b1461007a5780635aef2447146100a55780636a0c8730146100d2578063b6bc3812146100e7575b600080fd5b34801561006457600080fd5b50610078610073366004613475565b610114565b005b34801561008657600080fd5b5061008f610494565b60405161009c9190613892565b60405180910390f35b3480156100b157600080fd5b506100c56100c0366004613439565b610898565b60405161009c9190613881565b3480156100de57600080fd5b5061008f610b1d565b3480156100f357600080fd5b50610107610102366004613439565b610b23565b60405161009c9190613840565b6000546040517f9249d753000000000000000000000000000000000000000000000000000000008152600191600160a060020a031690639249d7539061015e903390600401613811565b602060405180830381600087803b15801561017857600080fd5b505af115801561018c573d6000803e3d6000fd5b505050506040513d601f19601f820116820180604052506101b09190810190613457565b1115610489576000546040517f78e97354000000000000000000000000000000000000000000000000000000008152600160a060020a03909116906378e9735490610202903390600190600401613825565b600060405180830381600087803b15801561021c57600080fd5b505af1158015610230573d6000803e3d6000fd5b5050505084156103c15760038054600101908190556000546040517ff8380733000000000000000000000000000000000000000000000000000000008152919550600160a060020a03169063f83807339061028f908990600401613892565b602060405180830381600087803b1580156102a957600080fd5b505af11580156102bd573d6000803e3d6000fd5b505050506040513d601f19601f820116820180604052506102e191908101906133e6565b1515610322576040517f08c379a000000000000000000000000000000000000000000000000000000000815260040161031990613871565b60405180910390fd5b610332848a8a8a8a60008f6117ba565b6000546040517fe2c11f9e000000000000000000000000000000000000000000000000000000008152600160a060020a039091169063e2c11f9e9061037d90899088906004016138a0565b600060405180830381600087803b15801561039757600080fd5b505af11580156103ab573d6000803e3d6000fd5b505050506103bc84888a6001611935565b610489565b6103ce8488856000611935565b6103db84888a6001611935565b6000848152600160205260409020600501546104049085908b908b908b908b9060ff16886117ba565b881515610489576000546040517fa29d441f000000000000000000000000000000000000000000000000000000008152600160a060020a039091169063a29d441f9061045690899088906004016138a0565b600060405180830381600087803b15801561047057600080fd5b505af1158015610484573d6000803e3d6000fd5b505050505b505050505050505050565b600061049e612e62565b600080546040517f69c212f600000000000000000000000000000000000000000000000000000000815260609183918291600160a060020a0316906369c212f6906104ed903390600401613811565b600060405180830381600087803b15801561050757600080fd5b505af115801561051b573d6000803e3d6000fd5b505050506040513d6000823e601f3d908101601f191682016040526105439190810190613404565b604080517f53757065722061646d696e0000000000000000000000000000000000000000008152905190819003600b01812060a083015180519398509092909190819060208401908083835b602083106105ae5780518252601f19909201916020918201910161058f565b6001836020036101000a038019825116818451168082178552505050505050905001915050604051809103902060001916141515610724576000546040517feff34e59000000000000000000000000000000000000000000000000000000008152600160a060020a039091169063eff34e599061062f903390600401613811565b602060405180830381600087803b15801561064957600080fd5b505af115801561065d573d6000803e3d6000fd5b505050506040513d601f19601f820116820180604052506106819190810190613457565b6000546040517faffccd84000000000000000000000000000000000000000000000000000000008152919550600160a060020a03169063affccd84906106cb908790600401613892565b602060405180830381600087803b1580156106e557600080fd5b505af11580156106f9573d6000803e3d6000fd5b505050506040513d601f19601f8201168201806040525061071d9190810190613457565b9550610890565b60005461010086015160608701516040517f989359df000000000000000000000000000000000000000000000000000000008152600160a060020a039093169263989359df92610778929091600401613851565b600060405180830381600087803b15801561079257600080fd5b505af11580156107a6573d6000803e3d6000fd5b505050506040513d6000823e601f3d908101601f191682016040526107ce91908101906133a9565b925060009150600090505b825181101561088c576000548351600160a060020a039091169063affccd849085908490811061080557fe5b906020019060200201516040518263ffffffff1660e060020a02815260040161082e9190613892565b602060405180830381600087803b15801561084857600080fd5b505af115801561085c573d6000803e3d6000fd5b505050506040513d601f19601f820116820180604052506108809190810190613457565b909101906001016107d9565b8195505b505050505090565b6108a0612ed1565b6000828152600160208181526040808420815161012081018352815481529381015484840152600281018054835181860281018601855281815295969295938701949192909184015b82821015610a475760008481526020908190206040805160028681029093018054600181161561010002600019011693909304601f81018590049094028101606090810183529181018481529093849284919084018282801561098d5780601f106109625761010080835404028352916020019161098d565b820191906000526020600020905b81548152906001019060200180831161097057829003601f168201915b50505050508152602001600182018054600181600116156101000203166002900480601f016020809104026020016040519081016040528092919081815260200182805460018160011615610100020316600290048015610a2f5780601f10610a0457610100808354040283529160200191610a2f565b820191906000526020600020905b815481529060010190602001808311610a1257829003601f168201915b505050505081525050815260200190600101906108e9565b50505090825250600382015460ff908116151560208084019190915260048401546040808501919091526005850154909216151560608401526006840154608084015260078401805483518184028101840190945280845260a0909401939091830182828015610afe57602002820191906000526020600020906000905b82829054906101000a900461ffff1661ffff1681526020019060020190602082600101049283019260010382029150808411610ac55790505b50505091835250506008919091015461ffff1660209091015292915050565b60015b90565b60606000610b2f612e62565b6000806000606080600080606060006060610b4b60328f6124ee565b6000546040517f69c212f6000000000000000000000000000000000000000000000000000000008152919d50600160a060020a0316906369c212f690610b95903390600401613811565b600060405180830381600087803b158015610baf57600080fd5b505af1158015610bc3573d6000803e3d6000fd5b505050506040513d6000823e601f3d908101601f19168201604052610beb9190810190613404565b604080517f53757065722061646d696e0000000000000000000000000000000000000000008152905190819003600b01812060a08301518051939e509092909190819060208401908083835b60208310610c565780518252601f199092019160209182019101610c37565b6001836020036101000a0380198251168184511680821785525050505050509050019150506040518091039020600019161415156111bf576000546040517feff34e59000000000000000000000000000000000000000000000000000000008152600160a060020a039091169063eff34e5990610cd7903390600401613811565b602060405180830381600087803b158015610cf157600080fd5b505af1158015610d05573d6000803e3d6000fd5b505050506040513d601f19601f82011682018060405250610d299190810190613457565b6000546040517faffccd84000000000000000000000000000000000000000000000000000000008152919b50600160a060020a03169063affccd8490610d73908d90600401613892565b602060405180830381600087803b158015610d8d57600080fd5b505af1158015610da1573d6000803e3d6000fd5b505050506040513d601f19601f82011682018060405250610dc59190810190613457565b9850610dd2896032612527565b9750881580610de35750600189038c115b80610ded5750878e115b15610df7576117a9565b6000546040517f6262dff6000000000000000000000000000000000000000000000000000000008152600160a060020a0390911690636262dff690610e40908d90600401613892565b600060405180830381600087803b158015610e5a57600080fd5b505af1158015610e6e573d6000803e3d6000fd5b505050506040513d6000823e601f3d908101601f19168201604052610e9691908101906133a9565b6040805160328082526106608201909252919850816020015b610eb7612ed1565b815260200190600190039081610eaf579050509550600094508b93505b86518410156111b75760328510156111a757600160008886815181101515610ef857fe5b9060200190602002015181526020019081526020016000206101206040519081016040529081600082015481526020016001820154815260200160028201805480602002602001604051908101604052809291908181526020016000905b828210156110b45760008481526020908190206040805160028681029093018054600181161561010002600019011693909304601f810185900490940281016060908101835291810184815290938492849190840182828015610ffa5780601f10610fcf57610100808354040283529160200191610ffa565b820191906000526020600020905b815481529060010190602001808311610fdd57829003601f168201915b50505050508152602001600182018054600181600116156101000203166002900480601f01602080910402602001604051908101604052809291908181526020018280546001816001161561010002031660029004801561109c5780601f106110715761010080835404028352916020019161109c565b820191906000526020600020905b81548152906001019060200180831161107f57829003601f168201915b50505050508152505081526020019060010190610f56565b50505090825250600382015460ff908116151560208084019190915260048401546040808501919091526005850154909216151560608401526006840154608084015260078401805483518184028101840190945280845260a090940193909183018282801561116b57602002820191906000526020600020906000905b82829054906101000a900461ffff1661ffff16815260200190600201906020826001010492830192600103820291508084116111325790505b50505091835250506008919091015461ffff16602090910152865187908790811061119257fe5b602090810290910101526001909401936111ac565b6111b7565b836001019350610ed4565b859c506117a9565b6000546101008c015160608d01516040517f989359df000000000000000000000000000000000000000000000000000000008152600160a060020a039093169263989359df92611213929091600401613851565b600060405180830381600087803b15801561122d57600080fd5b505af1158015611241573d6000803e3d6000fd5b505050506040513d6000823e601f3d908101601f1916820160405261126991908101906133a9565b925060009850600091505b825182101561132a576000548351600160a060020a039091169063affccd84908590859081106112a057fe5b906020019060200201516040518263ffffffff1660e060020a0281526004016112c99190613892565b602060405180830381600087803b1580156112e357600080fd5b505af11580156112f7573d6000803e3d6000fd5b505050506040513d601f19601f8201168201806040525061131b9190810190613457565b89019850816001019150611274565b611335896032612527565b97508815806113465750600189038c115b806113505750878e115b1561135a576117a9565b88604051908082528060200260200182016040528015611384578160200160208202803883390190505b50905060009850600091505b8251821015611494576000548351600160a060020a0390911690636262dff6908590859081106113bc57fe5b906020019060200201516040518263ffffffff1660e060020a0281526004016113e59190613892565b600060405180830381600087803b1580156113ff57600080fd5b505af1158015611413573d6000803e3d6000fd5b505050506040513d6000823e601f3d908101601f1916820160405261143b91908101906133a9565b9650600093505b865184101561148957868481518110151561145957fe5b60209081029091010151815160018b019a8391811061147457fe5b60209081029091010152600190930192611442565b816001019150611390565b604080516032808252610660820190925290816020015b6114b3612ed1565b8152602001906001900390816114ab579050509550600094508b93505b80518410156111b75760328510156111a7576001600082868151811015156114f457fe5b9060200190602002015181526020019081526020016000206101206040519081016040529081600082015481526020016001820154815260200160028201805480602002602001604051908101604052809291908181526020016000905b828210156116b05760008481526020908190206040805160028681029093018054600181161561010002600019011693909304601f8101859004909402810160609081018352918101848152909384928491908401828280156115f65780601f106115cb576101008083540402835291602001916115f6565b820191906000526020600020905b8154815290600101906020018083116115d957829003601f168201915b50505050508152602001600182018054600181600116156101000203166002900480601f0160208091040260200160405190810160405280929190818152602001828054600181600116156101000203166002900480156116985780601f1061166d57610100808354040283529160200191611698565b820191906000526020600020905b81548152906001019060200180831161167b57829003601f168201915b50505050508152505081526020019060010190611552565b50505090825250600382015460ff908116151560208084019190915260048401546040808501919091526005850154909216151560608401526006840154608084015260078401805483518184028101840190945280845260a090940193909183018282801561176757602002820191906000526020600020906000905b82829054906101000a900461ffff1661ffff168152602001906002019060208260010104928301926001038202915080841161172e5790505b50505091835250506008919091015461ffff16602090910152865187908790811061178e57fe5b602090810290910101526001909401938360010193506114d0565b505050505050505050505050919050565b6117c2612f26565b6060600060606117d18961254a565b93506117dc8461259b565b60008c815260016020819052604082209081018e90558c815560038101805460ff19168c15151790559194506118159160020190612f3d565b600091505b82518210156118fa57611843838381518110151561183457fe5b9060200190602002015161259b565b9050600160008c8152602001908152602001600020600201604080519081016040528061188784600081518110151561187857fe5b9060200190602002015161266e565b815260200161189e84600181518110151561187857fe5b905281546001810180845560009384526020938490208351805192956002909402909101926118d292849290910190612f61565b5060208281015180516118eb9260018501920190612f61565b5050505081600101915061181a565b5050506000978852506001602052604090962060048101929092556006820195909555600501805460ff191694151594909417909355505050565b61193d612f26565b60606000806000806000806119518a61254a565b975061195c8861259b565b965061198861198361197689600581518110151561183457fe5b8051600190811061187857fe5b6126e0565b95506119a261198361197689600281518110151561183457fe5b94506119bc61198361197689600381518110151561183457fe5b60008d8152600260209081526040808320805461ffff191661ffff8c161790556001918290529091206005015491955060ff909116935091508190505b60035481116124b05760008181526001602052604090206003015460ff1615158b1515148015611a295750808c14155b156124a857600081815260016020526040812060020180549091908110611a4c57fe5b90600052602060002090600202016001016040518082805460018160011615610100020316600290048015611ab85780601f10611a96576101008083540402835291820191611ab8565b820191906000526020600020905b815481529060010190602001808311611aa4575b5050915050604051809103902060001916611ade61197689600081518110151561183457fe5b6040518082805190602001908083835b60208310611b0d5780518252601f199092019160209182019101611aee565b6001836020036101000a038019825116818451168082178552505050505050905001915050604051809103902060001916148015611c2b5750600081815260016020526040902060029081018054611c1792908110611b6857fe5b90600052602060002090600202016001018054600181600116156101000203166002900480601f016020809104026020016040519081016040528092919081815260200182805460018160011615610100020316600290048015611c0d5780601f10611be257610100808354040283529160200191611c0d565b820191906000526020600020905b815481529060010190602001808311611bf057829003601f168201915b50505050506126e0565b65ffffffffffff168465ffffffffffff1610155b8015611c69575060008181526001602052604090206002018054611c5591906003908110611b6857fe5b65ffffffffffff168565ffffffffffff1611155b156124a857611d53611c8661197689600481518110151561183457fe5b600083815260016020526040902060020180546004908110611ca457fe5b90600052602060002090600202016001018054600181600116156101000203166002900480601f016020809104026020016040519081016040528092919081815260200182805460018160011615610100020316600290048015611d495780601f10611d1e57610100808354040283529160200191611d49565b820191906000526020600020905b815481529060010190602001808311611d2c57829003601f168201915b5050505050612762565b60045460ff16156124a857611d97611d7661197689600181518110151561183457fe5b600083815260016020819052604090912060020180549091908110611ca457fe5b60045460ff16156124a85788156121a057600081815260026020526040902054606461ffff9182168801909116118015611de2575060008181526002602052604090205461ffff1615155b8015611df1575061ffff861615155b15611f7a57821515611ebd576001925060018060008e815260200190815260200160002060050160006101000a81548160ff0219169083151502179055506000809054906101000a9004600160a060020a0316600160a060020a03166374853239600160008f8152602001908152602001600020600401548e6040518363ffffffff1660e060020a028152600401611e8a9291906138a0565b600060405180830381600087803b158015611ea457600080fd5b505af1158015611eb8573d6000803e3d6000fd5b505050505b60008181526001602052604090206005015460ff161515611f7a57600081815260016020819052604080832060058101805460ff1916841790559254600480850154949093015491517f74853239000000000000000000000000000000000000000000000000000000008152600160a060020a0390911693637485323993611f47939192016138a0565b600060405180830381600087803b158015611f6157600080fd5b505af1158015611f75573d6000803e3d6000fd5b505050505b61ffff8616158015611f895750825b1561204f57600092506000600160008e815260200190815260200160002060050160006101000a81548160ff0219169083151502179055506000809054906101000a9004600160a060020a0316600160a060020a0316638b92892b600160008f8152602001908152602001600020600401548e6040518363ffffffff1660e060020a02815260040161201c9291906138a0565b600060405180830381600087803b15801561203657600080fd5b505af115801561204a573d6000803e3d6000fd5b505050505b60008181526002602052604090205461ffff161561208b576000818152600260205260409020805461ffff80821689011661ffff199091161790555b8180156120a9575060008181526002602052604090205461ffff1615155b80156120b8575061ffff861615155b156120e957600081815260026020526040808220548e8352908220805461ffff191661ffff90921691909117905591505b7fcc69885fda6bcc1a4ace058b4a62bf5e179ea78fd58a1ccd71c22cc9b688793680546001818101835560108083047f29738be296375cd8b9d50c7633d5efbca2468f7bcc2abfa74afc7ff07447a847908101805461ffff808e166002600f988916810261010090810a928302928402199094169190911790935560008981526020849052604081205489549788018a5598905293850490920180549490951602900a938116840293021916919091179055612477565b81156121c65760008c8152600260205260408120805461ffff191661ffff891617905591505b821561228d576000600160008e815260200190815260200160002060050160006101000a81548160ff0219169083151502179055506000809054906101000a9004600160a060020a0316600160a060020a0316638b92892b600160008f8152602001908152602001600020600401548e6040518363ffffffff1660e060020a0281526004016122569291906138a0565b600060405180830381600087803b15801561227057600080fd5b505af1158015612284573d6000803e3d6000fd5b50505050600092505b600081815260026020526040902054606461ffff9182168890039091161115806122c7575060008181526002602052604090205461ffff16155b156123865760008181526001602052604090206005015460ff161561238657600081815260016020819052604080832060058101805460ff191690559254600480850154949093015491517f8b92892b000000000000000000000000000000000000000000000000000000008152600160a060020a0390911693638b92892b93612353939192016138a0565b600060405180830381600087803b15801561236d57600080fd5b505af1158015612381573d6000803e3d6000fd5b505050505b60008181526002602052604090205461ffff16156123c3576000818152600260205260409020805461ffff8082168990031661ffff199091161790555b7fd9d16d34ffb15ba3a3d852f0d403e2ce1d691fb54de27ac87cd2f993f3ec331680546001818101835560108083047f7dc3c3fd58e05b20637dc07eb76e4004c234578ea6f56d29de554f11205e0741908101805461ffff808e16600f978816600290810261010090810a928302928402199094169190911790935560008981526020849052604081205489549788018a5598905293850490920180549490951602900a9381168402930219169190911790555b6000818152600260209081526040808320546001909252909120600801805461ffff191661ffff9092169190911790555b6001016119f9565b50505060009889525050600260209081526040808920546001909252909720600801805461ffff191661ffff90981697909717909655505050505050565b6000808315156125015760009150612520565b5082820282848281151561251157fe5b041461251c57600080fd5b8091505b5092915050565b60008080831161253657600080fd5b828481151561254157fe5b04949350505050565b612552612f26565b60008251600014156125795760408051808201909152600080825260208201529150612595565b5050604080518082019091528151815260208281019082018190525b50919050565b60606000806000806125ac86612a42565b15156125b757600080fd5b6125c086612a71565b9350836040519080825280602002602001820160405280156125fc57816020015b6125e9612f26565b8152602001906001900390816125e15790505b50945061260c8660200151612ac1565b8660200151019250600090505b838110156126655761262a83612b24565b9150604080519081016040528083815260200184815250858281518110151561264f57fe5b6020908102909101015291810191600101612619565b50505050919050565b6060600080606060006126848660200151612ac1565b9350838660000151039250826040519080825280601f01601f1916602001820160405280156126bd578160200160208202803883390190505b5091508160200190506126d7848760200151018285612bb5565b50949350505050565b60008181805b825182101561275a5782828151811015156126fd57fe5b01602001517f01000000000000000000000000000000000000000000000000000000000000009081900481020490506030811080159061273e575060398111155b1561274f576030810384600a020193505b6001909101906126e6565b505050919050565b61276a612f26565b612772612f26565b6060600061277e612f26565b6004805460ff1916905560408051808201909152600181527f2c0000000000000000000000000000000000000000000000000000000000000060208201526060906000906127cb90612bfc565b96506127d689612bfc565b95506127e8868863ffffffff612c2216565b60010160405190808252806020026020018201604052801561281e57816020015b60608152602001906001900390816128095790505b509450600093505b845184101561286a57612847612842878963ffffffff612c8816565b612c9b565b858581518110151561285557fe5b60209081029091010152600190930192612826565b61287388612bfc565b9250612885838863ffffffff612c2216565b6001016040519080825280602002602001820160405280156128bb57816020015b60608152602001906001900390816128a65790505b509150600090505b81518110156128ff576128df612842848963ffffffff612c8816565b82828151811015156128ed57fe5b602090810290910101526001016128c3565b600093505b8451841015610489575060005b8151811015612a2757818181518110151561292857fe5b906020019060200201516040518082805190602001908083835b602083106129615780518252601f199092019160209182019101612942565b5181516020939093036101000a600019018019909116921691909117905260405192018290039091208851909350889250879150811061299d57fe5b906020019060200201516040518082805190602001908083835b602083106129d65780518252601f1990920191602091820191016129b7565b6001836020036101000a0380198251168184511680821785525050505050509050019150506040518091039020600019161415612a1f576004805460ff19166001179055612a27565b600101612911565b60045460ff1615612a3757610489565b600190930192612904565b6020810151805160009190821a9060c060ff83161015612a655760009250612a6a565b600192505b5050919050565b60008060008060009250612a888560200151612ac1565b6020860151865191810193500190505b80821015612ab857612aa982612b24565b60019093019290910190612a98565b50909392505050565b8051600090811a6080811015612ada5760009150612595565b60b8811080612af5575060c08110801590612af5575060f881105b15612b035760019150612595565b60c0811015612b185760b51981019150612595565b60f51981019150612595565b8051600090811a6080811015612b3d5760019150612595565b60b8811015612b5257607e1981019150612595565b60c0811015612b7f5760b78103600184019350806020036101000a84510460018201810193505050612595565b60f8811015612b945760be1981019150612595565b60019290920151602083900360f7016101000a900490910160f51901919050565b60005b60208210612bda578351835260209384019390920191601f1990910190612bb8565b50915181516020939093036101000a6000190180199091169216919091179052565b612c04612f26565b50604080518082019091528151815260209182019181019190915290565b6000808260000151612c468560000151866020015186600001518760200151612cee565b0190505b83516020850151018111612520578251602080860151865191860151600190950194612c80929185039091039084908490612cee565b019050612c4a565b612c90612f26565b612520838383612dae565b606080600083600001516040519080825280601f01601f191660200182016040528015612cd2578160200160208202803883390190505b5091506020820190506125208185602001518660000151612e1e565b600083818080808080808c8b11612d985760208b11612d615760018b60200360080260020a03196001029550858a511694508a8d8d010393508588511692505b828514612d5957838810612d46578c8c019850612d9e565b8780600101985050858851169250612d2e565b879850612d9e565b8a8a209150600096505b8a8d038711612d98575089872081811415612d8857879850612d9e565b6001978801979690960195612d6b565b8c8c0198505b5050505050505050949350505050565b612db6612f26565b6000612dd48560000151866020015186600001518760200151612cee565b60208087018051918601919091528051820385528651905191925001811415612e005760008552612ab8565b83518351865191019003855283518101602086015250909392505050565b60005b60208210612e43578251845260209384019390920191601f1990910190612e21565b50905182516020929092036101000a6000190180199091169116179052565b6101606040519081016040528060008152602001606081526020016060815260200160008152602001600081526020016060815260200160006002811115612ea657fe5b81526020016000600160a060020a031681526020016060815260200160608152602001600081525090565b61012060405190810160405280600081526020016000815260200160608152602001600015158152602001600081526020016000151581526020016000815260200160608152602001600061ffff1681525090565b604080518082019091526000808252602082015290565b5080546000825560020290600052602060002090810190612f5e9190612fdf565b50565b828054600181600116156101000203166002900490600052602060002090601f016020900481019282601f10612fa257805160ff1916838001178555612fcf565b82800160010185558215612fcf579182015b82811115612fcf578251825591602001919060010190612fb4565b50612fdb929150613010565b5090565b610b2091905b80821115612fdb576000612ff9828261302a565b61300760018301600061302a565b50600201612fe5565b610b2091905b80821115612fdb5760008155600101613016565b50805460018160011615610100020316600290046000825580601f106130505750612f5e565b601f016020900490600052602060002090810190612f5e9190613010565b600061307a8251613928565b9392505050565b6000601f8201831361309257600080fd5b81516130a56130a0826138d5565b6138ae565b81815260209384019390925082018360005b838110156130e357815186016130cd88826131d0565b84525060209283019291909101906001016130b7565b5050505092915050565b6000601f820183136130fe57600080fd5b815161310c6130a0826138d5565b9150818183526020840193506020810190508385602084028201111561313157600080fd5b60005b838110156130e35781613147888261339d565b8452506020928301929190910190600101613134565b600061307a8235613934565b600061307a8251613934565b6000601f8201831361318657600080fd5b81356131946130a0826138f6565b915080825260208301602083018583830111156131b057600080fd5b6131bb83828461394f565b50505092915050565b600061307a8251613940565b6000601f820183136131e157600080fd5b81516131ef6130a0826138f6565b9150808252602083016020830185838301111561320b57600080fd5b6131bb83828461395b565b6000610160828403121561322957600080fd5b6132346101606138ae565b90506000613242848461339d565b825250602082015167ffffffffffffffff81111561325f57600080fd5b61326b848285016131d0565b602083015250604082015167ffffffffffffffff81111561328b57600080fd5b613297848285016131d0565b60408301525060606132ab8482850161339d565b60608301525060806132bf8482850161339d565b60808301525060a082015167ffffffffffffffff8111156132df57600080fd5b6132eb848285016131d0565b60a08301525060c06132ff848285016131c4565b60c08301525060e06133138482850161306e565b60e08301525061010082015167ffffffffffffffff81111561333457600080fd5b613340848285016131d0565b6101008301525061012082015167ffffffffffffffff81111561336257600080fd5b61336e84828501613081565b610120830152506101406133848482850161339d565b6101408301525092915050565b600061307a8235610b20565b600061307a8251610b20565b6000602082840312156133bb57600080fd5b815167ffffffffffffffff8111156133d257600080fd5b6133de848285016130ed565b949350505050565b6000602082840312156133f857600080fd5b60006133de8484613169565b60006020828403121561341657600080fd5b815167ffffffffffffffff81111561342d57600080fd5b6133de84828501613216565b60006020828403121561344b57600080fd5b60006133de8484613391565b60006020828403121561346957600080fd5b60006133de848461339d565b60008060008060008060008060006101208a8c03121561349457600080fd5b60006134a08c8c613391565b99505060208a013567ffffffffffffffff8111156134bd57600080fd5b6134c98c828d01613175565b98505060406134da8c828d0161315d565b97505060606134eb8c828d01613391565b96505060806134fc8c828d0161315d565b95505060a061350d8c828d01613391565b94505060c08a013567ffffffffffffffff81111561352a57600080fd5b6135368c828d01613175565b93505060e06135478c828d01613391565b9250506101006135598c828d0161315d565b9150509295985092959850929598565b61357281613928565b82525050565b600061358382613924565b8084526020840193508360208202850161359c8561391e565b60005b848110156135d35783830388526135b78383516136ff565b92506135c28261391e565b60209890980197915060010161359f565b50909695505050505050565b60006135ea82613924565b808452602084019350836020820285016136038561391e565b60005b848110156135d357838303885261361e8383516137c4565b92506136298261391e565b602098909801979150600101613606565b600061364582613924565b8084526020840193506136578361391e565b60005b828110156136875761366d8683516137ff565b6136768261391e565b60209690960195915060010161365a565b5093949350505050565b61357281613934565b60006136a582613924565b8084526136b981602086016020860161395b565b6136c28161398b565b9093016020019392505050565b601481527f4d656d62657220646f206e6f7420657869737473000000000000000000000000602082015260400190565b80516000906101208401906137148582613808565b5060208301516137276020860182613808565b506040830151848203604086015261373f82826135df565b91505060608301516137546060860182613691565b5060808301516137676080860182613808565b5060a083015161377a60a0860182613691565b5060c083015161378d60c0860182613808565b5060e083015184820360e08601526137a5828261363a565b9150506101008301516137bc6101008601826137ff565b509392505050565b80516040808452600091908401906137dc828261369a565b915050602083015184820360208601526137f6828261369a565b95945050505050565b61357281613939565b61357281610b20565b6020810161381f8284613569565b92915050565b604081016138338285613569565b61307a6020830184613808565b6020808252810161307a8184613578565b60408082528101613862818561369a565b905061307a6020830184613808565b6020808252810161381f816136cf565b6020808252810161307a81846136ff565b6020810161381f8284613808565b604081016138338285613808565b60405181810167ffffffffffffffff811182821017156138cd57600080fd5b604052919050565b600067ffffffffffffffff8211156138ec57600080fd5b5060209081020190565b600067ffffffffffffffff82111561390d57600080fd5b506020601f91909101601f19160190565b60200190565b5190565b600160a060020a031690565b151590565b61ffff1690565b600060038210612fdb57600080fd5b82818337506000910152565b60005b8381101561397657818101518382015260200161395e565b83811115613985576000848401525b50505050565b601f01601f1916905600a265627a7a72305820a9c4885516c938a72b80a489859437780c33f193872d55ca55dd5c17f768d3fc6c6578706572696d656e74616cf50037",
  "source": "pragma solidity ^0.4.24;\npragma experimental ABIEncoderV2;\n\nimport \"./SafeMath.sol\";\nimport \"./RLPReader.sol\";\nimport \"./Users.sol\";\nimport \"./strings.sol\";\n\ncontract Claims {\n\n  Users private _Users;\n//  Users.User private currentUser;\n\n  constructor (address _UsersAddr) public {\n    _Users = Users(_UsersAddr);\n//    currentUser = _Users.getUserByAddress(msg.sender);\n  }\n\n  using RLPReader for bytes;\n  using RLPReader for uint;\n  using RLPReader for RLPReader.RLPItem;\n\n  struct NameValue{\n    string name;\n    string value;\n  }\n\n  struct Claim {\n    uint256 creationDate;\n    uint256 claimId;        // should be 2^48 ~ 100 trillion claims\n    NameValue[] claimData;\n    bool claimType;\n    uint256 memberOwner;    // should be 2^24 ~ 16 million members\n    bool status;\n    uint256 lastChange;\n    uint16[] log;\n    uint16 maxSplit;\n  }\n\n  mapping (uint256 => Claim) private claims_;\n  mapping (uint256 => uint16) private maxSplits_;\n  uint256 constant private PAGE_SIZE = 50;\n  uint256 constant private transactionPrice = 1;\n\n  uint256 private claimIdCounter_ = 0; // has the number of claims ever inserted, including the deleted ones\n  //   uint256[] private claimIdIndex;\n  bool private hasOverlapResult;\n  using strings for *;\n\n  function computeClaim(uint256 _creationDate, bytes _claimData, bool _claimType, uint256 _memberOwner, bool register_or_update,\n    uint256 _claimId, bytes _oldClaimData, uint _lastChange, bool _updateClaimId) public {\n\n//    Users.User memory currentUser = _Users.getUserByAddress(msg.sender);\n//    if (currentUser.tokens > transactionPrice) {\n    if (_Users.getUserTokensByAddress(msg.sender) > transactionPrice) {\n      _Users.updateUserTokens(msg.sender, transactionPrice);\n      if (register_or_update) {             // Register new claim.\n        _claimId = ++claimIdCounter_;\n        //    require(claims_[_claimId].claimId == 0, \"Claim already exists\");\n        require(_Users._memberExists(_memberOwner), \"Member do not exists\");\n  //      _memberOwner = _Users._memberIdFromCurrentAddress(msg.sender);\n\n        _saveClaim(_claimId, _creationDate, _claimData, _claimType, _memberOwner, false, _creationDate);\n        _Users._addClaimIdToMemberOwner(_memberOwner, _claimId);\n\n        checkClaimStatus(_claimId, _claimType, _claimData, true);\n      } else {                     // Update existing claim.\n\n          checkClaimStatus(_claimId, _claimType, _oldClaimData, false);\n    //      if (_updateClaimId) {\n    //        checkClaimStatus(updateClaimId(_claimId, _claimData, _memberOwner, _claimType), _claimType, _claimData, true);\n    //        _saveClaim(updateClaimId(_claimId, _claimData, _memberOwner, _claimType), _creationDate, _claimData, _claimType,\n    //          _memberOwner, claims_[_claimId].status, _lastChange);\n    //      } else {\n          checkClaimStatus(_claimId, _claimType, _claimData, true);\n          _saveClaim(_claimId, _creationDate, _claimData, _claimType, _memberOwner, claims_[_claimId].status, _lastChange);\n\n          if (_creationDate == 0) {  // Delete claim.\n            _Users._removeClaimIdFromMember(_memberOwner, _claimId);\n//            _removeClaimFromMapping(_claimId);\n          }\n      }\n    } else {\n      // USER DOES NOT HAVE ENOUGH TOKENS TO SUBMIT THE TRANSACTION.\n    }\n  }\n\n//  function _removeClaimFromMapping(uint claimId) private {\n    // maybe do split = 0% -> already in sound & musical components.OnDelete()\n//  }\n\n  function getTransactionPrice() pure public returns (uint) {\n    return transactionPrice;\n  }\n\n  function getClaim(uint256 _claimId) view public returns (Claim) {\n    return claims_[_claimId];\n  }\n\n  function getClaimsByMemberId(uint _page) view public returns (Claim[] memory) {\n\n    uint256 pageIndex = SafeMath.mul(PAGE_SIZE, _page);\n    Users.User memory currentUser = _Users.getUserByAddress(msg.sender);\n    if (keccak256(currentUser.role) != keccak256(\"Super admin\")) { // If user IS NOT \"Super admin\".\n      uint256 _memberId = _Users._memberIdFromCurrentAddress(msg.sender);\n      uint count = _Users._getClaimsCountByMember(_memberId);\n      uint256 pageNumber = SafeMath.div(count, PAGE_SIZE);\n\n      if (count == 0 || pageIndex > count - 1 || _page > pageNumber) {\n        return;\n      }\n\n      uint256[] memory claimsId = _Users._getClaimsIdByMember(_memberId);\n\n      Claim[] memory _claims = new Claim[](PAGE_SIZE);\n      uint256 returnCounter = 0;\n      for (uint i = pageIndex; i < claimsId.length; ++i) {\n        if(returnCounter < PAGE_SIZE) {\n          _claims[returnCounter] = claims_[claimsId[i]];\n          ++returnCounter;\n        } else {\n          break;\n        }\n      }\n      return _claims;\n    } else {  // If user IS \"Super admin\".\n\n      uint[] memory memberIds = _Users._getMemberIdsOfCurrentCMO(currentUser.cmo, currentUser.memberId);\n      count = 0;\n      for (uint j = 0; j < memberIds.length; ++j) {\n        count += _Users._getClaimsCountByMember(memberIds[j]); // count+count+...+count\n      }\n      pageNumber = SafeMath.div(count, PAGE_SIZE);\n\n      if (count == 0 || pageIndex > count - 1 || _page > pageNumber) {\n        return;\n      }\n\n      uint[] memory allClaimsId = new uint[](count);\n      count = 0;  // now, use it for iterator\n      for (j = 0; j < memberIds.length; ++j) {\n        claimsId = _Users._getClaimsIdByMember(memberIds[j]);\n        for (i=0; i < claimsId.length; ++i) {\n          allClaimsId[count++] = claimsId[i];\n        }\n      }\n\n      _claims = new Claim[](PAGE_SIZE);\n      returnCounter = 0;\n      for (i = pageIndex; i < allClaimsId.length; ++i) {\n        if(returnCounter < PAGE_SIZE) {\n          _claims[returnCounter] = claims_[allClaimsId[i]];\n          ++returnCounter;\n        } else {\n          break;\n        }\n      }\n      return _claims;\n    }\n  }\n\n  function getClaimsCountByMemberId() view public returns (uint) {\n    Users.User memory currentUser = _Users.getUserByAddress(msg.sender);\n    if (keccak256(currentUser.role) != keccak256(\"Super admin\")) { // If user IS NOT \"Super admin\".\n      uint256 _memberId = _Users._memberIdFromCurrentAddress(msg.sender);\n      return _Users._getClaimsCountByMember(_memberId);\n    } else {                                                       // If user IS \"Super admin\".\n      uint[] memory memberIds = _Users._getMemberIdsOfCurrentCMO(currentUser.cmo, currentUser.memberId);\n      uint count = 0;\n      for (uint j = 0; j < memberIds.length; ++j) {\n        count += _Users._getClaimsCountByMember(memberIds[j]); // count+count+...+count\n      }\n      return count;\n    }\n  }\n\n  function _saveClaim(uint256 _claimId, uint256 _creationDate, bytes _claimData, bool _claimType,\n    uint _memberOwner, bool _status, uint256 _lastChange) private {\n\n    RLPReader.RLPItem memory item = _claimData.toRlpItem();\n    RLPReader.RLPItem[] memory itemList = item.toList(); // ((name, value), (name, value), (name, value), ...)\n\n    claims_[_claimId].claimId = _claimId;\n    claims_[_claimId].creationDate = _creationDate;\n    claims_[_claimId].claimType = _claimType;\n\n    delete claims_[_claimId].claimData;\n    for(uint i = 0; i < itemList.length; ++i) {\n      RLPReader.RLPItem[] memory itemListClaim = itemList[i].toList(); // (name, value)\n      claims_[_claimId].claimData.push(NameValue(string(itemListClaim[0].toBytes()), string(itemListClaim[1].toBytes())));\n    }\n\n    claims_[_claimId].memberOwner = _memberOwner;\n    claims_[_claimId].lastChange = _lastChange;\n    claims_[_claimId].status = _status;\n  }\n\n  // Old Lib.sol\n//\n//  using RLPReader for bytes;\n//  using RLPReader for uint;\n//  using RLPReader for RLPReader.RLPItem;\n//\n//  struct NameValue{\n//    string name;\n//    string value;\n//  }\n//\n//  struct Claim {\n//    uint256 creationDate;\n//    uint256 claimId;        // should be 2^48 ~ 100 trillion claims\n//    NameValue[] claimData;\n//    bool claimType;\n//    uint256 memberOwner;    // should be 2^24 ~ 16 million members\n//    bool status;\n//    uint256 lastChange;\n//    //    string[] log;\n//    //    uint16 log2;\n//  }\n//\n//  mapping (uint256 => Claim) internal claims_;\n//  mapping (uint256 => uint16) internal maxSplits_;\n//  uint256 constant internal PAGE_SIZE = 10;\n//\n//  uint256 internal claimIdCounter_ = 0; // has the number of claims ever inserted, including the deleted ones\n//  //  uint256[] private claimIdIndex;\n\n  function checkClaimStatus(uint256 _claimId, bool _claimType, bytes _claimData, bool newClaim) private {\n\n    //    if (newClaim) {\n    //      claimIdIndex.push(_claimId);\n    //    }\n    RLPReader.RLPItem memory item = _claimData.toRlpItem();\n    RLPReader.RLPItem[] memory itemList = item.toList();  // ((name0, value0), (name, value), (name, value), ...)\n    uint16 split = uint16(bytesToUint(itemList[5].toList()[1].toBytes()));\n    uint48 startDate = uint48(bytesToUint(itemList[2].toList()[1].toBytes()));\n    uint48 endDate = uint48(bytesToUint(itemList[3].toList()[1].toBytes()));\n\n    maxSplits_[_claimId] = split;\n//    claims_[_claimId].maxSplit.push(maxSplits_[_claimId]);\n    bool prevStatus = claims_[_claimId].status;\n    bool tempMaxSplitOnce = true;\n    for(uint256 i = 1; i <= claimIdCounter_; i++) {\n      if (_claimType == claims_[i].claimType && _claimId != i) {\n        if(keccak256(itemList[0].toList()[1].toBytes()) == keccak256(claims_[i].claimData[0].value) // same ISRC/ISWC\n        && endDate >= uint48(bytesToUint(bytes(claims_[i].claimData[2].value))) // end1 >= start2\n        && startDate <= uint48(bytesToUint(bytes(claims_[i].claimData[3].value))) // start1 <= end2\n        ){\n          if (newClaim) {\n            // claims_[2].log.push('CHECK STATUS TRUE');\n          } else {\n            // claims_[2].log.push('CHECK STATUS FALSE');\n          }\n          // claims_[2].log.push(string(itemList[4].toList()[1].toBytes()));\n          // claims_[2].log.push(string(bytes(claims_[i].claimData[4].value)));\n          hasOverlap(itemList[4].toList()[1].toBytes(), bytes(claims_[i].claimData[4].value)); // useTypes/rightTypes: have at least one common\n          if (hasOverlapResult) {\n            hasOverlap(itemList[1].toList()[1].toBytes(), bytes(claims_[i].claimData[1].value)); // territory: contain at least one common\n            if (hasOverlapResult) {\n              if (newClaim) {\n                if (maxSplits_[i] + split > 100 && maxSplits_[i] != 0 && split != 0) { // set it CONFLICT\n                  if (!prevStatus) {\n                    prevStatus = true;\n                    claims_[_claimId].status = true; // true, means there IS a CONFLICT\n                    _Users._addClaimFromInbox(claims_[_claimId].memberOwner, _claimId);\n                  }\n                  if (!claims_[i].status) {\n                    claims_[i].status = true;\n                    _Users._addClaimFromInbox(claims_[i].memberOwner, claims_[i].claimId);\n                  }\n                }\n//                if (maxSplits_[i] == 0) {      // claims_[i].claimData[5].value = split = 0\n//                  claims_[i].status = false;\n//                  _Users._removeClaimFromInbox(claims_[i].memberOwner, claims_[i].claimId);\n//                }\n                if (split == 0 && prevStatus) {\n                  prevStatus = false;\n                  claims_[_claimId].status = false;\n                  _Users._removeClaimFromInbox(claims_[_claimId].memberOwner, _claimId);\n                }\n                if (maxSplits_[i] != 0) maxSplits_[i]+=split;                // build maxSplits_[i]\n                if (tempMaxSplitOnce && maxSplits_[i] != 0 && split != 0) {\n                  tempMaxSplitOnce=false;\n                  maxSplits_[_claimId] = maxSplits_[i];\n                }\n                claims_[1].log.push(split);\n                claims_[1].log.push(maxSplits_[i]);\n              } else {\n                if (tempMaxSplitOnce) {\n                  maxSplits_[_claimId]=split;\n                  tempMaxSplitOnce=false;\n                }\n                if (prevStatus) {                                        // set it CLAIMED\n                  claims_[_claimId].status = false;\n                  _Users._removeClaimFromInbox(claims_[_claimId].memberOwner, _claimId);\n                  prevStatus = false;\n                }\n                if (maxSplits_[i] - split <= 100 || maxSplits_[i] == 0) {     // split != 0 here is redundant\n                  if (claims_[i].status) {\n                    claims_[i].status = false;\n                    _Users._removeClaimFromInbox(claims_[i].memberOwner, claims_[i].claimId);\n                  }\n                }\n                if (maxSplits_[i] != 0) maxSplits_[i]-=split;                // recalculate maxSplits_[i]\n                claims_[2].log.push(split);\n                claims_[2].log.push(maxSplits_[i]);\n              }\n              claims_[i].maxSplit = maxSplits_[i];\n            }  // hasOverlapResult territory\n          } // hasOverlapResult: useTypes/rightTypes\n        } // if ISC/start/endDate\n      } // if claimId<>i\n    } // for\n    claims_[_claimId].maxSplit = maxSplits_[_claimId];\n    //    } // if (split == 0)\n  }\n\n  function bytesToUint(bytes s) private pure returns (uint result) {\n    bytes memory b = s;\n    uint i;\n    result = 0;\n    for (i = 0; i < b.length; i++) {\n      uint c = uint(b[i]);\n      if (c >= 48 && c <= 57) {\n        result = result * 10 + (c - 48);\n      }\n    }\n  }\n\n  function hasOverlap(bytes _b1, bytes _b2) private {\n\n    hasOverlapResult = false;\n    var delim = \",\".toSlice();\n    var s1 = string(_b1).toSlice();\n    var parts1 = new string[](s1.count(delim) + 1);\n    for(uint i = 0; i < parts1.length; i++) {\n      parts1[i] = s1.split(delim).toString();\n    }\n    var s2 = string(_b2).toSlice();\n    var parts2 = new string[](s2.count(delim) + 1);\n    for(uint j = 0; j < parts2.length; j++) {\n      parts2[j] = s2.split(delim).toString();\n    }\n\n    for(i = 0; i < parts1.length; i++) {\n      for(j = 0; j < parts2.length; j++) {\n        if (keccak256(parts1[i]) == keccak256(parts2[j])) {\n          hasOverlapResult = true;\n          break;\n        }\n      }\n      if (hasOverlapResult) {\n        break;\n      }\n    }\n\n  }\n\n  function updateClaimId(uint _claimId, bytes _claimData, uint _memberOwner, bool _claimType) private returns (uint) {\n    RLPReader.RLPItem memory item = _claimData.toRlpItem();\n    RLPReader.RLPItem[] memory itemList = item.toList();\n\n    for(uint256 i = 1; i <= claimIdCounter_; i++) {\n      if (_claimType == claims_[i].claimType && _claimId != i) {\n        if(keccak256(abi.encodePacked(itemList[0].toList()[1].toBytes())) == keccak256(abi.encodePacked(claims_[i].claimData[0].value)) // same ISRC/ISWC\n        && keccak256(abi.encodePacked(itemList[1].toList()[1].toBytes())) == keccak256(abi.encodePacked(claims_[i].claimData[1].value)) // same countries\n        && keccak256(abi.encodePacked(itemList[2].toList()[1].toBytes())) == keccak256(abi.encodePacked(claims_[i].claimData[2].value)) // same startDate\n        && keccak256(abi.encodePacked(itemList[3].toList()[1].toBytes())) == keccak256(abi.encodePacked(claims_[i].claimData[3].value)) // same endDate\n        && keccak256(abi.encodePacked(itemList[4].toList()[1].toBytes())) == keccak256(abi.encodePacked(claims_[i].claimData[4].value)) // same use/right-Types\n        && keccak256(abi.encodePacked(itemList[5].toList()[1].toBytes())) == keccak256(abi.encodePacked(claims_[i].claimData[5].value)) // same split\n        && _memberOwner == claims_[i].memberOwner                                                                                       // same memberOwner\n        ){\n          return i;\n        }\n      }\n    }\n    return ++claimIdCounter_;\n  }\n}",
  "sourcePath": "/home/komodo/newUI2/bloomen-decentralized-rights-management-v2/truffle/contracts/registry/Claims.sol",
  "compiler": {
    "name": "solc",
    "version": "0.4.24+commit.e67f0147.Emscripten.clang"
  },
  "schemaVersion": "2.0.1",
  "updatedAt": "2020-03-03T22:12:48.459Z"
}