{
  "contractName": "Claims",
  "abi": [
    {
      "inputs": [
        {
          "name": "_UsersAddr",
          "type": "address"
        }
      ],
      "payable": false,
      "stateMutability": "nonpayable",
      "type": "constructor"
    },
    {
      "constant": false,
      "inputs": [
        {
          "name": "_creationDate",
          "type": "uint256"
        },
        {
          "name": "_claimData",
          "type": "bytes"
        },
        {
          "name": "_claimType",
          "type": "bool"
        },
        {
          "name": "_memberOwner",
          "type": "uint256"
        },
        {
          "name": "register_or_update",
          "type": "bool"
        },
        {
          "name": "_claimId",
          "type": "uint256"
        },
        {
          "name": "_oldClaimData",
          "type": "bytes"
        },
        {
          "name": "_lastChange",
          "type": "uint256"
        },
        {
          "name": "_updateClaimId",
          "type": "bool"
        }
      ],
      "name": "computeClaim",
      "outputs": [],
      "payable": false,
      "stateMutability": "nonpayable",
      "type": "function"
    },
    {
      "constant": true,
      "inputs": [
        {
          "name": "_claimId",
          "type": "uint256"
        }
      ],
      "name": "getClaim",
      "outputs": [
        {
          "components": [
            {
              "name": "creationDate",
              "type": "uint256"
            },
            {
              "name": "claimId",
              "type": "uint256"
            },
            {
              "components": [
                {
                  "name": "name",
                  "type": "string"
                },
                {
                  "name": "value",
                  "type": "string"
                }
              ],
              "name": "claimData",
              "type": "tuple[]"
            },
            {
              "name": "claimType",
              "type": "bool"
            },
            {
              "name": "memberOwner",
              "type": "uint256"
            },
            {
              "name": "status",
              "type": "bool"
            },
            {
              "name": "lastChange",
              "type": "uint256"
            },
            {
              "name": "log",
              "type": "uint16[]"
            },
            {
              "name": "maxSplit",
              "type": "uint16"
            }
          ],
          "name": "",
          "type": "tuple"
        }
      ],
      "payable": false,
      "stateMutability": "view",
      "type": "function"
    },
    {
      "constant": true,
      "inputs": [
        {
          "name": "_page",
          "type": "uint256"
        }
      ],
      "name": "getClaimsByMemberId",
      "outputs": [
        {
          "components": [
            {
              "name": "creationDate",
              "type": "uint256"
            },
            {
              "name": "claimId",
              "type": "uint256"
            },
            {
              "components": [
                {
                  "name": "name",
                  "type": "string"
                },
                {
                  "name": "value",
                  "type": "string"
                }
              ],
              "name": "claimData",
              "type": "tuple[]"
            },
            {
              "name": "claimType",
              "type": "bool"
            },
            {
              "name": "memberOwner",
              "type": "uint256"
            },
            {
              "name": "status",
              "type": "bool"
            },
            {
              "name": "lastChange",
              "type": "uint256"
            },
            {
              "name": "log",
              "type": "uint16[]"
            },
            {
              "name": "maxSplit",
              "type": "uint16"
            }
          ],
          "name": "",
          "type": "tuple[]"
        }
      ],
      "payable": false,
      "stateMutability": "view",
      "type": "function"
    },
    {
      "constant": true,
      "inputs": [],
      "name": "getClaimsCountByMemberId",
      "outputs": [
        {
          "name": "",
          "type": "uint256"
        }
      ],
      "payable": false,
      "stateMutability": "view",
      "type": "function"
    }
  ],
  "bytecode": "0x608060405260006003553480156200001657600080fd5b5060405160208062002b99833981018060405262000038919081019062000073565b60008054600160a060020a031916600160a060020a0392909216919091179055620000a8565b60006200006c82516200009c565b9392505050565b6000602082840312156200008657600080fd5b60006200009484846200005e565b949350505050565b600160a060020a031690565b612ae180620000b86000396000f3006080604052600436106100485763ffffffff60e060020a6000350416630e606cef811461004d5780631be8850b1461006f5780635aef24471461009a578063b6bc3812146100c7575b600080fd5b34801561005957600080fd5b5061006d6100683660046125c4565b6100f4565b005b34801561007b57600080fd5b506100846102cf565b60405161009191906129a6565b60405180910390f35b3480156100a657600080fd5b506100ba6100b5366004612588565b61040e565b6040516100919190612995565b3480156100d357600080fd5b506100e76100e2366004612588565b610693565b6040516100919190612974565b84156102815760038054600101908190556000546040517ff8380733000000000000000000000000000000000000000000000000000000008152919550600160a060020a03169063f83807339061014f9089906004016129a6565b602060405180830381600087803b15801561016957600080fd5b505af115801561017d573d6000803e3d6000fd5b505050506040513d601f19601f820116820180604052506101a1919081019061256a565b15156101e2576040517f08c379a00000000000000000000000000000000000000000000000000000000081526004016101d990612985565b60405180910390fd5b6101f2848a8a8a8a60008f610be4565b6000546040517fe2c11f9e000000000000000000000000000000000000000000000000000000008152600160a060020a039091169063e2c11f9e9061023d90899088906004016129b4565b600060405180830381600087803b15801561025757600080fd5b505af115801561026b573d6000803e3d6000fd5b5050505061027c84888a6001610d5f565b6102c4565b61028e8488856000610d5f565b61029b84888a6001610d5f565b6000848152600160205260409020600501546102c49085908b908b908b908b9060ff1688610be4565b505050505050505050565b600080546040517feff34e590000000000000000000000000000000000000000000000000000000081528291600160a060020a03169063eff34e5990610319903390600401612960565b602060405180830381600087803b15801561033357600080fd5b505af1158015610347573d6000803e3d6000fd5b505050506040513d601f19601f8201168201806040525061036b91908101906125a6565b6000546040517faffccd84000000000000000000000000000000000000000000000000000000008152919250600160a060020a03169063affccd84906103b59084906004016129a6565b602060405180830381600087803b1580156103cf57600080fd5b505af11580156103e3573d6000803e3d6000fd5b505050506040513d601f19601f8201168201806040525061040791908101906125a6565b91505b5090565b61041661228c565b6000828152600160208181526040808420815161012081018352815481529381015484840152600281018054835181860281018601855281815295969295938701949192909184015b828210156105bd5760008481526020908190206040805160028681029093018054600181161561010002600019011693909304601f8101859004909402810160609081018352918101848152909384928491908401828280156105035780601f106104d857610100808354040283529160200191610503565b820191906000526020600020905b8154815290600101906020018083116104e657829003601f168201915b50505050508152602001600182018054600181600116156101000203166002900480601f0160208091040260200160405190810160405280929190818152602001828054600181600116156101000203166002900480156105a55780601f1061057a576101008083540402835291602001916105a5565b820191906000526020600020905b81548152906001019060200180831161058857829003601f168201915b5050505050815250508152602001906001019061045f565b50505090825250600382015460ff908116151560208084019190915260048401546040808501919091526005850154909216151560608401526006840154608084015260078401805483518184028101840190945280845260a090940193909183018282801561067457602002820191906000526020600020906000905b82829054906101000a900461ffff1661ffff168152602001906002019060208260010104928301926001038202915080841161063b5790505b50505091835250506008919091015461ffff1660209091015292915050565b60606000806000806060806000806106ac60328b611918565b6000546040517feff34e59000000000000000000000000000000000000000000000000000000008152919950600160a060020a03169063eff34e59906106f6903390600401612960565b602060405180830381600087803b15801561071057600080fd5b505af1158015610724573d6000803e3d6000fd5b505050506040513d601f19601f8201168201806040525061074891908101906125a6565b6000546040517faffccd84000000000000000000000000000000000000000000000000000000008152919850600160a060020a03169063affccd8490610792908a906004016129a6565b602060405180830381600087803b1580156107ac57600080fd5b505af11580156107c0573d6000803e3d6000fd5b505050506040513d601f19601f820116820180604052506107e491908101906125a6565b95506107f1866032611951565b945085158061080257506001860388115b8061080c5750848a115b1561081657610bd7565b6000546040517f6262dff6000000000000000000000000000000000000000000000000000000008152600160a060020a0390911690636262dff69061085f908a906004016129a6565b600060405180830381600087803b15801561087957600080fd5b505af115801561088d573d6000803e3d6000fd5b505050506040513d6000823e601f3d908101601f191682016040526108b5919081019061252d565b6040805160328082526106608201909252919550816020015b6108d661228c565b8152602001906001900390816108ce579050509250600091508790505b8351811015610bd3576032821015610bc65760016000858381518110151561091757fe5b9060200190602002015181526020019081526020016000206101206040519081016040529081600082015481526020016001820154815260200160028201805480602002602001604051908101604052809291908181526020016000905b82821015610ad35760008481526020908190206040805160028681029093018054600181161561010002600019011693909304601f810185900490940281016060908101835291810184815290938492849190840182828015610a195780601f106109ee57610100808354040283529160200191610a19565b820191906000526020600020905b8154815290600101906020018083116109fc57829003601f168201915b50505050508152602001600182018054600181600116156101000203166002900480601f016020809104026020016040519081016040528092919081815260200182805460018160011615610100020316600290048015610abb5780601f10610a9057610100808354040283529160200191610abb565b820191906000526020600020905b815481529060010190602001808311610a9e57829003601f168201915b50505050508152505081526020019060010190610975565b50505090825250600382015460ff908116151560208084019190915260048401546040808501919091526005850154909216151560608401526006840154608084015260078401805483518184028101840190945280845260a0909401939091830182828015610b8a57602002820191906000526020600020906000905b82829054906101000a900461ffff1661ffff1681526020019060020190602082600101049283019260010382029150808411610b515790505b50505091835250506008919091015461ffff166020909101528351849084908110610bb157fe5b60209081029091010152600190910190610bcb565b610bd3565b6001016108f3565b8298505b5050505050505050919050565b610bec6122e1565b606060006060610bfb89611974565b9350610c06846119c5565b60008c815260016020819052604082209081018e90558c815560038101805460ff19168c1515179055919450610c3f91600201906122f8565b600091505b8251821015610d2457610c6d8383815181101515610c5e57fe5b906020019060200201516119c5565b9050600160008c81526020019081526020016000206002016040805190810160405280610cb1846000815181101515610ca257fe5b90602001906020020151611a98565b8152602001610cc8846001815181101515610ca257fe5b90528154600181018084556000938452602093849020835180519295600290940290910192610cfc9284929091019061231c565b506020828101518051610d15926001850192019061231c565b50505050816001019150610c44565b5050506000978852506001602052604090962060048101929092556006820195909555600501805460ff191694151594909417909355505050565b610d676122e1565b6060600080600080600080610d7b8a611974565b9750610d86886119c5565b9650610db2610dad610da0896005815181101515610c5e57fe5b80516001908110610ca257fe5b611b0a565b9550610dcc610dad610da0896002815181101515610c5e57fe5b9450610de6610dad610da0896003815181101515610c5e57fe5b60008d8152600260209081526040808320805461ffff191661ffff8c161790556001918290529091206005015491955060ff909116935091508190505b60035481116118da5760008181526001602052604090206003015460ff1615158b1515148015610e535750808c14155b156118d257600081815260016020526040812060020180549091908110610e7657fe5b90600052602060002090600202016001016040518082805460018160011615610100020316600290048015610ee25780601f10610ec0576101008083540402835291820191610ee2565b820191906000526020600020905b815481529060010190602001808311610ece575b5050915050604051809103902060001916610f08610da0896000815181101515610c5e57fe5b6040518082805190602001908083835b60208310610f375780518252601f199092019160209182019101610f18565b6001836020036101000a038019825116818451168082178552505050505050905001915050604051809103902060001916148015611055575060008181526001602052604090206002908101805461104192908110610f9257fe5b90600052602060002090600202016001018054600181600116156101000203166002900480601f0160208091040260200160405190810160405280929190818152602001828054600181600116156101000203166002900480156110375780601f1061100c57610100808354040283529160200191611037565b820191906000526020600020905b81548152906001019060200180831161101a57829003601f168201915b5050505050611b0a565b65ffffffffffff168465ffffffffffff1610155b801561109357506000818152600160205260409020600201805461107f91906003908110610f9257fe5b65ffffffffffff168565ffffffffffff1611155b156118d25761117d6110b0610da0896004815181101515610c5e57fe5b6000838152600160205260409020600201805460049081106110ce57fe5b90600052602060002090600202016001018054600181600116156101000203166002900480601f0160208091040260200160405190810160405280929190818152602001828054600181600116156101000203166002900480156111735780601f1061114857610100808354040283529160200191611173565b820191906000526020600020905b81548152906001019060200180831161115657829003601f168201915b5050505050611b8c565b60045460ff16156118d2576111c16111a0610da0896001815181101515610c5e57fe5b6000838152600160208190526040909120600201805490919081106110ce57fe5b60045460ff16156118d25788156115ca57600081815260026020526040902054606461ffff918216880190911611801561120c575060008181526002602052604090205461ffff1615155b801561121b575061ffff861615155b156113a4578215156112e7576001925060018060008e815260200190815260200160002060050160006101000a81548160ff0219169083151502179055506000809054906101000a9004600160a060020a0316600160a060020a03166374853239600160008f8152602001908152602001600020600401548e6040518363ffffffff1660e060020a0281526004016112b49291906129b4565b600060405180830381600087803b1580156112ce57600080fd5b505af11580156112e2573d6000803e3d6000fd5b505050505b60008181526001602052604090206005015460ff1615156113a457600081815260016020819052604080832060058101805460ff1916841790559254600480850154949093015491517f74853239000000000000000000000000000000000000000000000000000000008152600160a060020a0390911693637485323993611371939192016129b4565b600060405180830381600087803b15801561138b57600080fd5b505af115801561139f573d6000803e3d6000fd5b505050505b61ffff86161580156113b35750825b1561147957600092506000600160008e815260200190815260200160002060050160006101000a81548160ff0219169083151502179055506000809054906101000a9004600160a060020a0316600160a060020a0316638b92892b600160008f8152602001908152602001600020600401548e6040518363ffffffff1660e060020a0281526004016114469291906129b4565b600060405180830381600087803b15801561146057600080fd5b505af1158015611474573d6000803e3d6000fd5b505050505b60008181526002602052604090205461ffff16156114b5576000818152600260205260409020805461ffff80821689011661ffff199091161790555b8180156114d3575060008181526002602052604090205461ffff1615155b80156114e2575061ffff861615155b1561151357600081815260026020526040808220548e8352908220805461ffff191661ffff90921691909117905591505b7fcc69885fda6bcc1a4ace058b4a62bf5e179ea78fd58a1ccd71c22cc9b688793680546001818101835560108083047f29738be296375cd8b9d50c7633d5efbca2468f7bcc2abfa74afc7ff07447a847908101805461ffff808e166002600f988916810261010090810a928302928402199094169190911790935560008981526020849052604081205489549788018a5598905293850490920180549490951602900a9381168402930219169190911790556118a1565b81156115f05760008c8152600260205260408120805461ffff191661ffff891617905591505b82156116b7576000600160008e815260200190815260200160002060050160006101000a81548160ff0219169083151502179055506000809054906101000a9004600160a060020a0316600160a060020a0316638b92892b600160008f8152602001908152602001600020600401548e6040518363ffffffff1660e060020a0281526004016116809291906129b4565b600060405180830381600087803b15801561169a57600080fd5b505af11580156116ae573d6000803e3d6000fd5b50505050600092505b600081815260026020526040902054606461ffff9182168890039091161115806116f1575060008181526002602052604090205461ffff16155b156117b05760008181526001602052604090206005015460ff16156117b057600081815260016020819052604080832060058101805460ff191690559254600480850154949093015491517f8b92892b000000000000000000000000000000000000000000000000000000008152600160a060020a0390911693638b92892b9361177d939192016129b4565b600060405180830381600087803b15801561179757600080fd5b505af11580156117ab573d6000803e3d6000fd5b505050505b60008181526002602052604090205461ffff16156117ed576000818152600260205260409020805461ffff8082168990031661ffff199091161790555b7fd9d16d34ffb15ba3a3d852f0d403e2ce1d691fb54de27ac87cd2f993f3ec331680546001818101835560108083047f7dc3c3fd58e05b20637dc07eb76e4004c234578ea6f56d29de554f11205e0741908101805461ffff808e16600f978816600290810261010090810a928302928402199094169190911790935560008981526020849052604081205489549788018a5598905293850490920180549490951602900a9381168402930219169190911790555b6000818152600260209081526040808320546001909252909120600801805461ffff191661ffff9092169190911790555b600101610e23565b50505060009889525050600260209081526040808920546001909252909720600801805461ffff191661ffff90981697909717909655505050505050565b60008083151561192b576000915061194a565b5082820282848281151561193b57fe5b041461194657600080fd5b8091505b5092915050565b60008080831161196057600080fd5b828481151561196b57fe5b04949350505050565b61197c6122e1565b60008251600014156119a357604080518082019091526000808252602082015291506119bf565b5050604080518082019091528151815260208281019082018190525b50919050565b60606000806000806119d686611e6c565b15156119e157600080fd5b6119ea86611e9b565b935083604051908082528060200260200182016040528015611a2657816020015b611a136122e1565b815260200190600190039081611a0b5790505b509450611a368660200151611eeb565b8660200151019250600090505b83811015611a8f57611a5483611f4e565b91506040805190810160405280838152602001848152508582815181101515611a7957fe5b6020908102909101015291810191600101611a43565b50505050919050565b606060008060606000611aae8660200151611eeb565b9350838660000151039250826040519080825280601f01601f191660200182016040528015611ae7578160200160208202803883390190505b509150816020019050611b01848760200151018285611fdf565b50949350505050565b60008181805b8251821015611b84578282815181101515611b2757fe5b01602001517f010000000000000000000000000000000000000000000000000000000000000090819004810204905060308110801590611b68575060398111155b15611b79576030810384600a020193505b600190910190611b10565b505050919050565b611b946122e1565b611b9c6122e1565b60606000611ba86122e1565b6004805460ff1916905560408051808201909152600181527f2c000000000000000000000000000000000000000000000000000000000000006020820152606090600090611bf590612026565b9650611c0089612026565b9550611c12868863ffffffff61204c16565b600101604051908082528060200260200182016040528015611c4857816020015b6060815260200190600190039081611c335790505b509450600093505b8451841015611c9457611c71611c6c878963ffffffff6120b216565b6120c5565b8585815181101515611c7f57fe5b60209081029091010152600190930192611c50565b611c9d88612026565b9250611caf838863ffffffff61204c16565b600101604051908082528060200260200182016040528015611ce557816020015b6060815260200190600190039081611cd05790505b509150600090505b8151811015611d2957611d09611c6c848963ffffffff6120b216565b8282815181101515611d1757fe5b60209081029091010152600101611ced565b600093505b84518410156102c4575060005b8151811015611e51578181815181101515611d5257fe5b906020019060200201516040518082805190602001908083835b60208310611d8b5780518252601f199092019160209182019101611d6c565b5181516020939093036101000a6000190180199091169216919091179052604051920182900390912088519093508892508791508110611dc757fe5b906020019060200201516040518082805190602001908083835b60208310611e005780518252601f199092019160209182019101611de1565b6001836020036101000a0380198251168184511680821785525050505050509050019150506040518091039020600019161415611e49576004805460ff19166001179055611e51565b600101611d3b565b60045460ff1615611e61576102c4565b600190930192611d2e565b6020810151805160009190821a9060c060ff83161015611e8f5760009250611e94565b600192505b5050919050565b60008060008060009250611eb28560200151611eeb565b6020860151865191810193500190505b80821015611ee257611ed382611f4e565b60019093019290910190611ec2565b50909392505050565b8051600090811a6080811015611f0457600091506119bf565b60b8811080611f1f575060c08110801590611f1f575060f881105b15611f2d57600191506119bf565b60c0811015611f425760b519810191506119bf565b60f519810191506119bf565b8051600090811a6080811015611f6757600191506119bf565b60b8811015611f7c57607e19810191506119bf565b60c0811015611fa95760b78103600184019350806020036101000a845104600182018101935050506119bf565b60f8811015611fbe5760be19810191506119bf565b60019290920151602083900360f7016101000a900490910160f51901919050565b60005b60208210612004578351835260209384019390920191601f1990910190611fe2565b50915181516020939093036101000a6000190180199091169216919091179052565b61202e6122e1565b50604080518082019091528151815260209182019181019190915290565b60008082600001516120708560000151866020015186600001518760200151612118565b0190505b8351602085015101811161194a5782516020808601518651918601516001909501946120aa929185039091039084908490612118565b019050612074565b6120ba6122e1565b61194a8383836121d8565b606080600083600001516040519080825280601f01601f1916602001820160405280156120fc578160200160208202803883390190505b50915060208201905061194a8185602001518660000151612248565b600083818080808080808c8b116121c25760208b1161218b5760018b60200360080260020a03196001029550858a511694508a8d8d010393508588511692505b82851461218357838810612170578c8c0198506121c8565b8780600101985050858851169250612158565b8798506121c8565b8a8a209150600096505b8a8d0387116121c25750898720818114156121b2578798506121c8565b6001978801979690960195612195565b8c8c0198505b5050505050505050949350505050565b6121e06122e1565b60006121fe8560000151866020015186600001518760200151612118565b6020808701805191860191909152805182038552865190519192500181141561222a5760008552611ee2565b83518351865191019003855283518101602086015250909392505050565b60005b6020821061226d578251845260209384019390920191601f199091019061224b565b50905182516020929092036101000a6000190180199091169116179052565b61012060405190810160405280600081526020016000815260200160608152602001600015158152602001600081526020016000151581526020016000815260200160608152602001600061ffff1681525090565b604080518082019091526000808252602082015290565b50805460008255600202906000526020600020908101906123199190612396565b50565b828054600181600116156101000203166002900490600052602060002090601f016020900481019282601f1061235d57805160ff191683800117855561238a565b8280016001018555821561238a579182015b8281111561238a57825182559160200191906001019061236f565b5061040a9291506123ca565b6123c791905b8082111561040a5760006123b082826123e4565b6123be6001830160006123e4565b5060020161239c565b90565b6123c791905b8082111561040a57600081556001016123d0565b50805460018160011615610100020316600290046000825580601f1061240a5750612319565b601f01602090049060005260206000209081019061231991906123ca565b6000601f8201831361243957600080fd5b815161244c612447826129f6565b6129cf565b9150818183526020840193506020810190508385602084028201111561247157600080fd5b60005b8381101561249d57816124878882612521565b8452506020928301929190910190600101612474565b5050505092915050565b60006124b38235612a55565b9392505050565b60006124b38251612a55565b6000601f820183136124d757600080fd5b81356124e561244782612a17565b9150808252602083016020830185838301111561250157600080fd5b61250c838284612a61565b50505092915050565b60006124b382356123c7565b60006124b382516123c7565b60006020828403121561253f57600080fd5b815167ffffffffffffffff81111561255657600080fd5b61256284828501612428565b949350505050565b60006020828403121561257c57600080fd5b600061256284846124ba565b60006020828403121561259a57600080fd5b60006125628484612515565b6000602082840312156125b857600080fd5b60006125628484612521565b60008060008060008060008060006101208a8c0312156125e357600080fd5b60006125ef8c8c612515565b99505060208a013567ffffffffffffffff81111561260c57600080fd5b6126188c828d016124c6565b98505060406126298c828d016124a7565b975050606061263a8c828d01612515565b965050608061264b8c828d016124a7565b95505060a061265c8c828d01612515565b94505060c08a013567ffffffffffffffff81111561267957600080fd5b6126858c828d016124c6565b93505060e06126968c828d01612515565b9250506101006126a88c828d016124a7565b9150509295985092959850929598565b6126c181612a49565b82525050565b60006126d282612a45565b808452602084019350836020820285016126eb85612a3f565b60005b8481101561272257838303885261270683835161284e565b925061271182612a3f565b6020989098019791506001016126ee565b50909695505050505050565b600061273982612a45565b8084526020840193508360208202850161275285612a3f565b60005b8481101561272257838303885261276d838351612913565b925061277882612a3f565b602098909801979150600101612755565b600061279482612a45565b8084526020840193506127a683612a3f565b60005b828110156127d6576127bc86835161294e565b6127c582612a3f565b6020969096019591506001016127a9565b5093949350505050565b6126c181612a55565b60006127f482612a45565b808452612808816020860160208601612a6d565b61281181612a9d565b9093016020019392505050565b601481527f4d656d62657220646f206e6f7420657869737473000000000000000000000000602082015260400190565b80516000906101208401906128638582612957565b5060208301516128766020860182612957565b506040830151848203604086015261288e828261272e565b91505060608301516128a360608601826127e0565b5060808301516128b66080860182612957565b5060a08301516128c960a08601826127e0565b5060c08301516128dc60c0860182612957565b5060e083015184820360e08601526128f48282612789565b91505061010083015161290b61010086018261294e565b509392505050565b805160408084526000919084019061292b82826127e9565b9150506020830151848203602086015261294582826127e9565b95945050505050565b6126c181612a5a565b6126c1816123c7565b6020810161296e82846126b8565b92915050565b602080825281016124b381846126c7565b6020808252810161296e8161281e565b602080825281016124b3818461284e565b6020810161296e8284612957565b604081016129c28285612957565b6124b36020830184612957565b60405181810167ffffffffffffffff811182821017156129ee57600080fd5b604052919050565b600067ffffffffffffffff821115612a0d57600080fd5b5060209081020190565b600067ffffffffffffffff821115612a2e57600080fd5b506020601f91909101601f19160190565b60200190565b5190565b600160a060020a031690565b151590565b61ffff1690565b82818337506000910152565b60005b83811015612a88578181015183820152602001612a70565b83811115612a97576000848401525b50505050565b601f01601f1916905600a265627a7a72305820e262f10bc1f3de1e73b908ef256e06b14e055d8ad2b89750ee97eb8d6341092b6c6578706572696d656e74616cf50037",
  "source": "pragma solidity ^0.4.24;\npragma experimental ABIEncoderV2;\n\nimport \"./SafeMath.sol\";\nimport \"./RLPReader.sol\";\nimport \"./Users.sol\";\nimport \"./strings.sol\";\n\n\ncontract Claims {\n\n  Users private _Users;\n\n  constructor (address _UsersAddr) public {\n    _Users = Users(_UsersAddr);\n  }\n\n  using RLPReader for bytes;\n  using RLPReader for uint;\n  using RLPReader for RLPReader.RLPItem;\n\n  struct NameValue{\n    string name;\n    string value;\n  }\n\n  struct Claim {\n    uint256 creationDate;\n    uint256 claimId;        // should be 2^48 ~ 100 trillion claims\n    NameValue[] claimData;\n    bool claimType;\n    uint256 memberOwner;    // should be 2^24 ~ 16 million members\n    bool status;\n    uint256 lastChange;\n    uint16[] log;\n    uint16 maxSplit;\n  }\n\n  mapping (uint256 => Claim) private claims_;\n  mapping (uint256 => uint16) private maxSplits_;\n  uint256 constant private PAGE_SIZE = 50;\n\n  uint256 private claimIdCounter_ = 0; // has the number of claims ever inserted, including the deleted ones\n  //   uint256[] private claimIdIndex;\n  bool private hasOverlapResult;\n  using strings for *;\n\n  function computeClaim(uint256 _creationDate, bytes _claimData, bool _claimType, uint256 _memberOwner, bool register_or_update,\n    uint256 _claimId, bytes _oldClaimData, uint _lastChange, bool _updateClaimId) public {\n\n    if (register_or_update) {             // Register new claim.\n      _claimId = ++claimIdCounter_;\n      //    require(claims_[_claimId].claimId == 0, \"Claim already exists\");\n      require(_Users._memberExists(_memberOwner), \"Member do not exists\");\n//      _memberOwner = _Users._memberIdFromCurrentAddress(msg.sender);\n\n      _saveClaim(_claimId, _creationDate, _claimData, _claimType, _memberOwner, false, _creationDate);\n      _Users._addClaimIdToMemberOwner(_memberOwner, _claimId);\n\n      checkClaimStatus(_claimId, _claimType, _claimData, true);\n    } else {                     // Update existing claim.\n\n      checkClaimStatus(_claimId, _claimType, _oldClaimData, false);\n//      if (_updateClaimId) {\n//        checkClaimStatus(updateClaimId(_claimId, _claimData, _memberOwner, _claimType), _claimType, _claimData, true);\n//        _saveClaim(updateClaimId(_claimId, _claimData, _memberOwner, _claimType), _creationDate, _claimData, _claimType,\n//          _memberOwner, claims_[_claimId].status, _lastChange);\n//      } else {\n        checkClaimStatus(_claimId, _claimType, _claimData, true);\n        _saveClaim(_claimId, _creationDate, _claimData, _claimType, _memberOwner, claims_[_claimId].status, _lastChange);\n//      }\n\n      if (_creationDate == 0) {  // Delete claim.\n//        _removeClaimIdFromMember(_memberOwner, _claimId);\n//        _removeClaim(_claimId);\n      }\n    }\n  }\n\n  function getClaim(uint256 _claimId) view public returns (Claim) {\n    return claims_[_claimId];\n  }\n\n\n  function getClaimsByMemberId(uint _page) view public returns (Claim[] memory) {\n\n    uint256 pageIndex = SafeMath.mul(PAGE_SIZE, _page);\n    uint256 _memberId = _Users._memberIdFromCurrentAddress(msg.sender);\n    uint count = _Users._getClaimsCountByMember(_memberId);\n    uint256 pageNumber = SafeMath.div(count, PAGE_SIZE);\n\n    if (count == 0 || pageIndex > count - 1 || _page > pageNumber) {\n      return;\n    }\n\n    uint256[] memory claimsId = _Users._getClaimsIdByMember(_memberId);\n\n    Claim[] memory _claims = new Claim[](PAGE_SIZE);\n    uint256 returnCounter = 0;\n    for (uint i = pageIndex; i < claimsId.length; ++i) {\n      if(returnCounter < PAGE_SIZE) {\n        _claims[returnCounter] = claims_[claimsId[i]];\n        ++returnCounter;\n      } else {\n        break;\n      }\n    }\n    return _claims;\n  }\n\n  function getClaimsCountByMemberId() view public returns (uint) {\n    uint256 _memberId = _Users._memberIdFromCurrentAddress(msg.sender);\n    return _Users._getClaimsCountByMember(_memberId);\n  }\n\n  function _saveClaim(uint256 _claimId, uint256 _creationDate, bytes _claimData, bool _claimType,\n    uint _memberOwner, bool _status, uint256 _lastChange) private {\n\n    RLPReader.RLPItem memory item = _claimData.toRlpItem();\n    RLPReader.RLPItem[] memory itemList = item.toList(); // ((name, value), (name, value), (name, value), ...)\n\n    claims_[_claimId].claimId = _claimId;\n    claims_[_claimId].creationDate = _creationDate;\n    claims_[_claimId].claimType = _claimType;\n\n    delete claims_[_claimId].claimData;\n    for(uint i = 0; i < itemList.length; ++i) {\n      RLPReader.RLPItem[] memory itemListClaim = itemList[i].toList(); // (name, value)\n      claims_[_claimId].claimData.push(NameValue(string(itemListClaim[0].toBytes()), string(itemListClaim[1].toBytes())));\n    }\n\n    claims_[_claimId].memberOwner = _memberOwner;\n    claims_[_claimId].lastChange = _lastChange;\n    claims_[_claimId].status = _status;\n  }\n\n  // Old Lib.sol\n//\n//  using RLPReader for bytes;\n//  using RLPReader for uint;\n//  using RLPReader for RLPReader.RLPItem;\n//\n//  struct NameValue{\n//    string name;\n//    string value;\n//  }\n//\n//  struct Claim {\n//    uint256 creationDate;\n//    uint256 claimId;        // should be 2^48 ~ 100 trillion claims\n//    NameValue[] claimData;\n//    bool claimType;\n//    uint256 memberOwner;    // should be 2^24 ~ 16 million members\n//    bool status;\n//    uint256 lastChange;\n//    //    string[] log;\n//    //    uint16 log2;\n//  }\n//\n//  mapping (uint256 => Claim) internal claims_;\n//  mapping (uint256 => uint16) internal maxSplits_;\n//  uint256 constant internal PAGE_SIZE = 10;\n//\n//  uint256 internal claimIdCounter_ = 0; // has the number of claims ever inserted, including the deleted ones\n//  //  uint256[] private claimIdIndex;\n\n  function checkClaimStatus(uint256 _claimId, bool _claimType, bytes _claimData, bool newClaim) private {\n\n    //    if (newClaim) {\n    //      claimIdIndex.push(_claimId);\n    //    }\n    RLPReader.RLPItem memory item = _claimData.toRlpItem();\n    RLPReader.RLPItem[] memory itemList = item.toList();  // ((name0, value0), (name, value), (name, value), ...)\n    uint16 split = uint16(bytesToUint(itemList[5].toList()[1].toBytes()));\n    uint48 startDate = uint48(bytesToUint(itemList[2].toList()[1].toBytes()));\n    uint48 endDate = uint48(bytesToUint(itemList[3].toList()[1].toBytes()));\n\n    maxSplits_[_claimId] = split;\n//    claims_[_claimId].maxSplit.push(maxSplits_[_claimId]);\n    bool prevStatus = claims_[_claimId].status;\n    bool tempMaxSplitOnce = true;\n    for(uint256 i = 1; i <= claimIdCounter_; i++) {\n      if (_claimType == claims_[i].claimType && _claimId != i) {\n        if(keccak256(itemList[0].toList()[1].toBytes()) == keccak256(claims_[i].claimData[0].value) // same ISRC/ISWC\n        && endDate >= uint48(bytesToUint(bytes(claims_[i].claimData[2].value))) // end1 >= start2\n        && startDate <= uint48(bytesToUint(bytes(claims_[i].claimData[3].value))) // start1 <= end2\n        ){\n          if (newClaim) {\n            // claims_[2].log.push('CHECK STATUS TRUE');\n          } else {\n            // claims_[2].log.push('CHECK STATUS FALSE');\n          }\n          // claims_[2].log.push(string(itemList[4].toList()[1].toBytes()));\n          // claims_[2].log.push(string(bytes(claims_[i].claimData[4].value)));\n          hasOverlap(itemList[4].toList()[1].toBytes(), bytes(claims_[i].claimData[4].value)); // useTypes/rightTypes: have at least one common\n          if (hasOverlapResult) {\n            hasOverlap(itemList[1].toList()[1].toBytes(), bytes(claims_[i].claimData[1].value)); // territory: contain at least one common\n            if (hasOverlapResult) {\n              if (newClaim) {\n                if (maxSplits_[i] + split > 100 && maxSplits_[i] != 0 && split != 0) { // set it CONFLICT\n                  if (!prevStatus) {\n                    prevStatus = true;\n                    claims_[_claimId].status = true; // true, means there IS a CONFLICT\n                    _Users._addClaimFromInbox(claims_[_claimId].memberOwner, _claimId);\n                  }\n                  if (!claims_[i].status) {\n                    claims_[i].status = true;\n                    _Users._addClaimFromInbox(claims_[i].memberOwner, claims_[i].claimId);\n                  }\n                }\n//                if (maxSplits_[i] == 0) {      // claims_[i].claimData[5].value = split = 0\n//                  claims_[i].status = false;\n//                  _Users._removeClaimFromInbox(claims_[i].memberOwner, claims_[i].claimId);\n//                }\n                if (split == 0 && prevStatus) {\n                  prevStatus = false;\n                  claims_[_claimId].status = false;\n                  _Users._removeClaimFromInbox(claims_[_claimId].memberOwner, _claimId);\n                }\n                if (maxSplits_[i] != 0) maxSplits_[i]+=split;                // build maxSplits_[i]\n                if (tempMaxSplitOnce && maxSplits_[i] != 0 && split != 0) {\n                  tempMaxSplitOnce=false;\n                  maxSplits_[_claimId] = maxSplits_[i];\n                }\n                claims_[1].log.push(split);\n                claims_[1].log.push(maxSplits_[i]);\n              } else {\n                if (tempMaxSplitOnce) {\n                  maxSplits_[_claimId]=split;\n                  tempMaxSplitOnce=false;\n                }\n                if (prevStatus) {                                        // set it CLAIMED\n                  claims_[_claimId].status = false;\n                  _Users._removeClaimFromInbox(claims_[_claimId].memberOwner, _claimId);\n                  prevStatus = false;\n                }\n                if (maxSplits_[i] - split <= 100 || maxSplits_[i] == 0) {     // split != 0 here is redundant\n                  if (claims_[i].status) {\n                    claims_[i].status = false;\n                    _Users._removeClaimFromInbox(claims_[i].memberOwner, claims_[i].claimId);\n                  }\n                }\n                if (maxSplits_[i] != 0) maxSplits_[i]-=split;                // recalculate maxSplits_[i]\n                claims_[2].log.push(split);\n                claims_[2].log.push(maxSplits_[i]);\n              }\n              claims_[i].maxSplit = maxSplits_[i];\n            }  // hasOverlapResult territory\n          } // hasOverlapResult: useTypes/rightTypes\n        } // if ISC/start/endDate\n      } // if claimId<>i\n    } // for\n    claims_[_claimId].maxSplit = maxSplits_[_claimId];\n    //    } // if (split == 0)\n  }\n\n  function bytesToUint(bytes s) private pure returns (uint result) {\n    bytes memory b = s;\n    uint i;\n    result = 0;\n    for (i = 0; i < b.length; i++) {\n      uint c = uint(b[i]);\n      if (c >= 48 && c <= 57) {\n        result = result * 10 + (c - 48);\n      }\n    }\n  }\n\n  function hasOverlap(bytes _b1, bytes _b2) private {\n\n    hasOverlapResult = false;\n    var delim = \",\".toSlice();\n    var s1 = string(_b1).toSlice();\n    var parts1 = new string[](s1.count(delim) + 1);\n    for(uint i = 0; i < parts1.length; i++) {\n      parts1[i] = s1.split(delim).toString();\n    }\n    var s2 = string(_b2).toSlice();\n    var parts2 = new string[](s2.count(delim) + 1);\n    for(uint j = 0; j < parts2.length; j++) {\n      parts2[j] = s2.split(delim).toString();\n    }\n\n    for(i = 0; i < parts1.length; i++) {\n      for(j = 0; j < parts2.length; j++) {\n        if (keccak256(parts1[i]) == keccak256(parts2[j])) {\n          hasOverlapResult = true;\n          break;\n        }\n      }\n      if (hasOverlapResult) {\n        break;\n      }\n    }\n\n  }\n\n  function updateClaimId(uint _claimId, bytes _claimData, uint _memberOwner, bool _claimType) private returns (uint) {\n    RLPReader.RLPItem memory item = _claimData.toRlpItem();\n    RLPReader.RLPItem[] memory itemList = item.toList();\n\n    for(uint256 i = 1; i <= claimIdCounter_; i++) {\n      if (_claimType == claims_[i].claimType && _claimId != i) {\n        if(keccak256(abi.encodePacked(itemList[0].toList()[1].toBytes())) == keccak256(abi.encodePacked(claims_[i].claimData[0].value)) // same ISRC/ISWC\n        && keccak256(abi.encodePacked(itemList[1].toList()[1].toBytes())) == keccak256(abi.encodePacked(claims_[i].claimData[1].value)) // same countries\n        && keccak256(abi.encodePacked(itemList[2].toList()[1].toBytes())) == keccak256(abi.encodePacked(claims_[i].claimData[2].value)) // same startDate\n        && keccak256(abi.encodePacked(itemList[3].toList()[1].toBytes())) == keccak256(abi.encodePacked(claims_[i].claimData[3].value)) // same endDate\n        && keccak256(abi.encodePacked(itemList[4].toList()[1].toBytes())) == keccak256(abi.encodePacked(claims_[i].claimData[4].value)) // same use/right-Types\n        && keccak256(abi.encodePacked(itemList[5].toList()[1].toBytes())) == keccak256(abi.encodePacked(claims_[i].claimData[5].value)) // same split\n        && _memberOwner == claims_[i].memberOwner                                                                                       // same memberOwner\n        ){\n          return i;\n        }\n      }\n    }\n    return ++claimIdCounter_;\n  }\n}",
  "sourcePath": "/home/komodo/newUI2/bloomen-decentralized-rights-management-v2/truffle/contracts/registry/Claims.sol",
  "compiler": {
    "name": "solc",
    "version": "0.4.24+commit.e67f0147.Emscripten.clang"
  },
  "schemaVersion": "2.0.1",
  "updatedAt": "2020-02-04T06:57:55.725Z"
}