{
  "contractName": "Claims",
  "abi": [
    {
      "constant": false,
      "inputs": [
        {
          "name": "_userToAccept",
          "type": "address"
        }
      ],
      "name": "acceptUser",
      "outputs": [],
      "payable": false,
      "stateMutability": "nonpayable",
      "type": "function"
    },
    {
      "constant": false,
      "inputs": [
        {
          "name": "_userToReject",
          "type": "address"
        }
      ],
      "name": "rejectUser",
      "outputs": [],
      "payable": false,
      "stateMutability": "nonpayable",
      "type": "function"
    },
    {
      "constant": true,
      "inputs": [
        {
          "name": "_page",
          "type": "uint256"
        }
      ],
      "name": "getUsers",
      "outputs": [
        {
          "components": [
            {
              "name": "creationDate",
              "type": "uint256"
            },
            {
              "name": "firstName",
              "type": "string"
            },
            {
              "name": "lastName",
              "type": "string"
            },
            {
              "name": "memberId",
              "type": "uint256"
            },
            {
              "name": "requestId",
              "type": "uint256"
            },
            {
              "name": "role",
              "type": "string"
            },
            {
              "name": "status",
              "type": "uint8"
            },
            {
              "name": "owner",
              "type": "address"
            }
          ],
          "name": "",
          "type": "tuple[]"
        }
      ],
      "payable": false,
      "stateMutability": "view",
      "type": "function"
    },
    {
      "constant": false,
      "inputs": [
        {
          "name": "_memberId",
          "type": "uint256"
        },
        {
          "name": "_creationDate",
          "type": "uint256"
        },
        {
          "name": "_name",
          "type": "string"
        },
        {
          "name": "_logo",
          "type": "string"
        },
        {
          "name": "_country",
          "type": "string"
        },
        {
          "name": "_cmo",
          "type": "string"
        },
        {
          "name": "_theme",
          "type": "string"
        }
      ],
      "name": "updateMember",
      "outputs": [],
      "payable": false,
      "stateMutability": "nonpayable",
      "type": "function"
    },
    {
      "constant": true,
      "inputs": [
        {
          "name": "userAddress",
          "type": "address"
        }
      ],
      "name": "getUserByAddress",
      "outputs": [
        {
          "components": [
            {
              "name": "creationDate",
              "type": "uint256"
            },
            {
              "name": "firstName",
              "type": "string"
            },
            {
              "name": "lastName",
              "type": "string"
            },
            {
              "name": "memberId",
              "type": "uint256"
            },
            {
              "name": "requestId",
              "type": "uint256"
            },
            {
              "name": "role",
              "type": "string"
            },
            {
              "name": "status",
              "type": "uint8"
            },
            {
              "name": "owner",
              "type": "address"
            }
          ],
          "name": "",
          "type": "tuple"
        }
      ],
      "payable": false,
      "stateMutability": "view",
      "type": "function"
    },
    {
      "constant": true,
      "inputs": [
        {
          "name": "account",
          "type": "address"
        }
      ],
      "name": "isSigner",
      "outputs": [
        {
          "name": "",
          "type": "bool"
        }
      ],
      "payable": false,
      "stateMutability": "view",
      "type": "function"
    },
    {
      "constant": true,
      "inputs": [],
      "name": "getUsersOwner",
      "outputs": [
        {
          "components": [
            {
              "name": "creationDate",
              "type": "uint256"
            },
            {
              "name": "firstName",
              "type": "string"
            },
            {
              "name": "lastName",
              "type": "string"
            },
            {
              "name": "memberId",
              "type": "uint256"
            },
            {
              "name": "requestId",
              "type": "uint256"
            },
            {
              "name": "role",
              "type": "string"
            },
            {
              "name": "status",
              "type": "uint8"
            },
            {
              "name": "owner",
              "type": "address"
            }
          ],
          "name": "",
          "type": "tuple[]"
        }
      ],
      "payable": false,
      "stateMutability": "view",
      "type": "function"
    },
    {
      "constant": true,
      "inputs": [],
      "name": "getMembers",
      "outputs": [
        {
          "components": [
            {
              "name": "memberId",
              "type": "uint256"
            },
            {
              "name": "creationDate",
              "type": "uint256"
            },
            {
              "name": "name",
              "type": "string"
            },
            {
              "name": "logo",
              "type": "string"
            },
            {
              "name": "country",
              "type": "string"
            },
            {
              "name": "cmo",
              "type": "string"
            },
            {
              "name": "theme",
              "type": "string"
            },
            {
              "name": "claimInbox",
              "type": "uint256[]"
            },
            {
              "name": "claims",
              "type": "uint256[]"
            },
            {
              "name": "userRequests",
              "type": "address[]"
            }
          ],
          "name": "",
          "type": "tuple[]"
        }
      ],
      "payable": false,
      "stateMutability": "view",
      "type": "function"
    },
    {
      "constant": true,
      "inputs": [],
      "name": "getcountUsers",
      "outputs": [
        {
          "name": "",
          "type": "uint256"
        }
      ],
      "payable": false,
      "stateMutability": "view",
      "type": "function"
    },
    {
      "constant": false,
      "inputs": [
        {
          "name": "_creationDate",
          "type": "uint256"
        },
        {
          "name": "_firstName",
          "type": "string"
        },
        {
          "name": "_lastName",
          "type": "string"
        },
        {
          "name": "_role",
          "type": "string"
        },
        {
          "name": "_memberId",
          "type": "uint256"
        }
      ],
      "name": "registerUserRequest",
      "outputs": [],
      "payable": false,
      "stateMutability": "nonpayable",
      "type": "function"
    },
    {
      "constant": true,
      "inputs": [],
      "name": "getCount",
      "outputs": [
        {
          "name": "",
          "type": "uint256"
        }
      ],
      "payable": false,
      "stateMutability": "view",
      "type": "function"
    },
    {
      "constant": true,
      "inputs": [],
      "name": "getMe",
      "outputs": [
        {
          "components": [
            {
              "name": "creationDate",
              "type": "uint256"
            },
            {
              "name": "firstName",
              "type": "string"
            },
            {
              "name": "lastName",
              "type": "string"
            },
            {
              "name": "memberId",
              "type": "uint256"
            },
            {
              "name": "requestId",
              "type": "uint256"
            },
            {
              "name": "role",
              "type": "string"
            },
            {
              "name": "status",
              "type": "uint8"
            },
            {
              "name": "owner",
              "type": "address"
            }
          ],
          "name": "",
          "type": "tuple"
        }
      ],
      "payable": false,
      "stateMutability": "view",
      "type": "function"
    },
    {
      "constant": true,
      "inputs": [
        {
          "name": "_page",
          "type": "uint256"
        }
      ],
      "name": "getMembers",
      "outputs": [
        {
          "components": [
            {
              "name": "memberId",
              "type": "uint256"
            },
            {
              "name": "creationDate",
              "type": "uint256"
            },
            {
              "name": "name",
              "type": "string"
            },
            {
              "name": "logo",
              "type": "string"
            },
            {
              "name": "country",
              "type": "string"
            },
            {
              "name": "cmo",
              "type": "string"
            },
            {
              "name": "theme",
              "type": "string"
            },
            {
              "name": "claimInbox",
              "type": "uint256[]"
            },
            {
              "name": "claims",
              "type": "uint256[]"
            },
            {
              "name": "userRequests",
              "type": "address[]"
            }
          ],
          "name": "",
          "type": "tuple[]"
        }
      ],
      "payable": false,
      "stateMutability": "view",
      "type": "function"
    },
    {
      "constant": false,
      "inputs": [],
      "name": "renounceSigner",
      "outputs": [],
      "payable": false,
      "stateMutability": "nonpayable",
      "type": "function"
    },
    {
      "constant": false,
      "inputs": [
        {
          "name": "account",
          "type": "address"
        }
      ],
      "name": "addSigner",
      "outputs": [],
      "payable": false,
      "stateMutability": "nonpayable",
      "type": "function"
    },
    {
      "constant": false,
      "inputs": [
        {
          "name": "_creationDate",
          "type": "uint256"
        },
        {
          "name": "_name",
          "type": "string"
        },
        {
          "name": "_logo",
          "type": "string"
        },
        {
          "name": "_country",
          "type": "string"
        },
        {
          "name": "_cmo",
          "type": "string"
        },
        {
          "name": "_theme",
          "type": "string"
        }
      ],
      "name": "addMember",
      "outputs": [
        {
          "name": "",
          "type": "uint256"
        }
      ],
      "payable": false,
      "stateMutability": "nonpayable",
      "type": "function"
    },
    {
      "constant": false,
      "inputs": [
        {
          "name": "_firstName",
          "type": "string"
        },
        {
          "name": "_lastName",
          "type": "string"
        },
        {
          "name": "_memberId",
          "type": "uint256"
        },
        {
          "name": "_role",
          "type": "string"
        },
        {
          "name": "owner",
          "type": "address"
        }
      ],
      "name": "updateUser",
      "outputs": [],
      "payable": false,
      "stateMutability": "nonpayable",
      "type": "function"
    },
    {
      "constant": false,
      "inputs": [
        {
          "name": "account",
          "type": "address"
        }
      ],
      "name": "whitelistAdmin",
      "outputs": [],
      "payable": false,
      "stateMutability": "nonpayable",
      "type": "function"
    },
    {
      "anonymous": false,
      "inputs": [
        {
          "indexed": true,
          "name": "account",
          "type": "address"
        }
      ],
      "name": "SignerAdded",
      "type": "event"
    },
    {
      "anonymous": false,
      "inputs": [
        {
          "indexed": true,
          "name": "account",
          "type": "address"
        }
      ],
      "name": "SignerRemoved",
      "type": "event"
    },
    {
      "constant": false,
      "inputs": [
        {
          "name": "_creationDate",
          "type": "uint256"
        },
        {
          "name": "_claimData",
          "type": "bytes"
        },
        {
          "name": "_claimType",
          "type": "bool"
        },
        {
          "name": "_memberOwner",
          "type": "uint256"
        }
      ],
      "name": "registerClaim",
      "outputs": [],
      "payable": false,
      "stateMutability": "nonpayable",
      "type": "function"
    },
    {
      "constant": false,
      "inputs": [
        {
          "name": "_claimId",
          "type": "uint256"
        },
        {
          "name": "_claimData",
          "type": "bytes"
        },
        {
          "name": "_lastChange",
          "type": "uint256"
        }
      ],
      "name": "updateClaim",
      "outputs": [],
      "payable": false,
      "stateMutability": "nonpayable",
      "type": "function"
    },
    {
      "constant": true,
      "inputs": [
        {
          "name": "_claimId",
          "type": "uint256"
        }
      ],
      "name": "getClaim",
      "outputs": [
        {
          "components": [
            {
              "name": "creationDate",
              "type": "uint256"
            },
            {
              "name": "claimId",
              "type": "uint256"
            },
            {
              "components": [
                {
                  "name": "name",
                  "type": "string"
                },
                {
                  "name": "value",
                  "type": "string"
                }
              ],
              "name": "claimData",
              "type": "tuple[]"
            },
            {
              "name": "claimType",
              "type": "bool"
            },
            {
              "name": "memberOwner",
              "type": "uint256"
            },
            {
              "name": "status",
              "type": "bool"
            },
            {
              "name": "lastChange",
              "type": "uint256"
            }
          ],
          "name": "",
          "type": "tuple"
        }
      ],
      "payable": false,
      "stateMutability": "view",
      "type": "function"
    },
    {
      "constant": true,
      "inputs": [
        {
          "name": "_page",
          "type": "uint256"
        }
      ],
      "name": "getClaimsByMemberId",
      "outputs": [
        {
          "components": [
            {
              "name": "creationDate",
              "type": "uint256"
            },
            {
              "name": "claimId",
              "type": "uint256"
            },
            {
              "components": [
                {
                  "name": "name",
                  "type": "string"
                },
                {
                  "name": "value",
                  "type": "string"
                }
              ],
              "name": "claimData",
              "type": "tuple[]"
            },
            {
              "name": "claimType",
              "type": "bool"
            },
            {
              "name": "memberOwner",
              "type": "uint256"
            },
            {
              "name": "status",
              "type": "bool"
            },
            {
              "name": "lastChange",
              "type": "uint256"
            }
          ],
          "name": "",
          "type": "tuple[]"
        }
      ],
      "payable": false,
      "stateMutability": "view",
      "type": "function"
    },
    {
      "constant": true,
      "inputs": [],
      "name": "getClaimsCountByMemberId",
      "outputs": [
        {
          "name": "",
          "type": "uint256"
        }
      ],
      "payable": false,
      "stateMutability": "view",
      "type": "function"
    }
  ],
  "bytecode": "0x608060405260006006556200001d3364010000000062000023810204565b62000108565b6200003e600082640100000000620043dd6200007582021704565b604051600160a060020a038216907f47d1c22a25bb3a5d4e481b9b1e6944c2eade3181a0a20b495ed61d35b5323f2490600090a250565b600160a060020a03811615156200008b57600080fd5b620000a08282640100000000620000d0810204565b15620000ab57600080fd5b600160a060020a0316600090815260209190915260409020805460ff19166001179055565b6000600160a060020a0382161515620000e857600080fd5b50600160a060020a03166000908152602091909152604090205460ff1690565b61599c80620001186000396000f3006080604052600436106101325763ffffffff7c010000000000000000000000000000000000000000000000000000000060003504166308bdc24d81146101375780631be8850b14610159578063373cfbb9146101845780634dc92885146101a45780635aef2447146101c45780635d73ab9a146101f157806365ff0c481461021e57806369c212f61461023e5780637df73e271461026b578063932191be146102985780639eab5253146102ad578063a4fdc594146102cf578063a7ed1fe4146102e4578063a87d942c14610304578063b6bc381214610319578063c11e1ff314610346578063c477ecab1461035b578063cb68b9e81461037b578063e5c8b03d1461039b578063eb12d61e146103b0578063fa1188c6146103d0578063fcfbde5b146103f0578063ff240fce14610410575b600080fd5b34801561014357600080fd5b50610157610152366004614989565b610430565b005b34801561016557600080fd5b5061016e6105cc565b60405161017b919061588d565b60405180910390f35b34801561019057600080fd5b5061015761019f366004614a89565b6105e9565b3480156101b057600080fd5b506101576101bf366004614989565b6106a9565b3480156101d057600080fd5b506101e46101df366004614a6b565b61080d565b60405161017b919061586b565b3480156101fd57600080fd5b5061021161020c366004614a6b565b610a0c565b60405161017b919061571c565b34801561022a57600080fd5b50610157610239366004614d16565b610de7565b34801561024a57600080fd5b5061025e610259366004614989565b610e76565b60405161017b919061587c565b34801561027757600080fd5b5061028b610286366004614989565b6110ca565b60405161017b919061572d565b3480156102a457600080fd5b506102116110e2565b3480156102b957600080fd5b506102c26113d3565b60405161017b919061570b565b3480156102db57600080fd5b5061016e61189a565b3480156102f057600080fd5b506101576102ff366004614c66565b61195f565b34801561031057600080fd5b5061016e611a26565b34801561032557600080fd5b50610339610334366004614a6b565b611a44565b60405161017b91906156fa565b34801561035257600080fd5b5061025e611d46565b34801561036757600080fd5b506102c2610376366004614a6b565b611dd7565b34801561038757600080fd5b50610157610396366004614b02565b6122f2565b3480156103a757600080fd5b5061015761232e565b3480156103bc57600080fd5b506101576103cb366004614989565b612339565b3480156103dc57600080fd5b5061016e6103eb366004614b67565b612356565b3480156103fc57600080fd5b5061015761040b3660046149af565b6123e5565b34801561041c57600080fd5b5061015761042b366004614989565b6124d3565b600160a060020a0381811660009081526003602052604081206006015461010090049091161161047e5760405160e560020a62461bcd0281526004016104759061577b565b60405180910390fd5b600160a060020a03811660009081526003602081905260408083208201543384529220015414806104b357506104b3336110ca565b15156104d45760405160e560020a62461bcd0281526004016104759061578b565b60023360009081526003602052604090206006015460ff1660028111156104f757fe5b14806105075750610507336110ca565b15156105285760405160e560020a62461bcd0281526004016104759061582b565b6001600160a060020a03821660009081526003602052604090206006015460ff16600281111561055457fe5b146105745760405160e560020a62461bcd0281526004016104759061575b565b600160a060020a038116600090815260036020526040902060060180546002919060ff19166001835b0217905550600160a060020a038116600090815260036020819052604090912001546105c990826125a7565b50565b6000806105d761270f565b90506105e281612726565b91505b5090565b600080851161060d5760405160e560020a62461bcd0281526004016104759061585b565b5060068054600101908190556106228261273b565b15156106435760405160e560020a62461bcd028152600401610475906157cb565b61064b61270f565b915061065d818686868660008b61274e565b61066782826128c6565b6001600654111561067d5761067d8184866128eb565b6000818152600560208190526040909120015460ff16156106a2576106a282826133a6565b5050505050565b600160a060020a038181166000908152600360205260408120600601546101009004909116116106ee5760405160e560020a62461bcd0281526004016104759061577b565b600160a060020a03811660009081526003602081905260408083208201543384529220015414806107235750610723336110ca565b15156107445760405160e560020a62461bcd0281526004016104759061578b565b60023360009081526003602052604090206006015460ff16600281111561076757fe5b14806107775750610777336110ca565b15156107985760405160e560020a62461bcd0281526004016104759061582b565b6001600160a060020a03821660009081526003602052604090206006015460ff1660028111156107c457fe5b146107e45760405160e560020a62461bcd0281526004016104759061579b565b600160a060020a0381166000908152600360205260408120600601805460ff191660018361059d565b6108156145e5565b6005600083815260200190815260200160002060e06040519081016040529081600082015481526020016001820154815260200160028201805480602002602001604051908101604052809291908181526020016000905b828210156109cb5760008481526020908190206040805160028681029093018054600181161561010002600019011693909304601f8101859004909402810160609081018352918101848152909384928491908401828280156109115780601f106108e657610100808354040283529160200191610911565b820191906000526020600020905b8154815290600101906020018083116108f457829003601f168201915b50505050508152602001600182018054600181600116156101000203166002900480601f0160208091040260200160405190810160405280929190818152602001828054600181600116156101000203166002900480156109b35780601f10610988576101008083540402835291602001916109b3565b820191906000526020600020905b81548152906001019060200180831161099657829003601f168201915b5050505050815250508152602001906001019061086d565b50505090825250600382015460ff90811615156020830152600483015460408301526005830154161515606082015260069091015460809091015292915050565b606060008060006060600080610a2061189a565b9550610a2d600a896133cb565b600454909550610a3e90600a613404565b9350851580610a4c57508585115b80610a5657508388115b15610a6057610ddc565b60408051600a808252610160820190925290816020015b610a7f614627565b815260200190600190039081610a77579050509250600091508490505b600454811015610dd85733600090815260036020819052604082208101546004805491939185908110610acb57fe5b6000918252602080832090910154600160a060020a03168352820192909252604001902060030154148015610b485750600260036000600484815481101515610b1057fe5b6000918252602080832090910154600160a060020a0316835282019290925260400190206006015460ff166002811115610b4657fe5b145b15610dd05760036000600483815481101515610b6057fe5b600091825260208083209190910154600160a060020a0316835282810193909352604091820190208151610100808201845282548252600180840180548651600293821615909402600019011691909104601f81018790048702830187019095528482529194929385840193919291830182828015610c205780601f10610bf557610100808354040283529160200191610c20565b820191906000526020600020905b815481529060010190602001808311610c0357829003601f168201915b5050509183525050600282810180546040805160206001841615610100026000190190931694909404601f81018390048302850183019091528084529381019390830182828015610cb25780601f10610c8757610100808354040283529160200191610cb2565b820191906000526020600020905b815481529060010190602001808311610c9557829003601f168201915b505050505081526020016003820154815260200160048201548152602001600582018054600181600116156101000203166002900480601f016020809104026020016040519081016040528092919081815260200182805460018160011615610100020316600290048015610d685780601f10610d3d57610100808354040283529160200191610d68565b820191906000526020600020905b815481529060010190602001808311610d4b57829003601f168201915b5050509183525050600682015460209091019060ff166002811115610d8957fe5b6002811115610d9457fe5b8152600691909101546101009004600160a060020a03166020909101528351849084908110610dbf57fe5b602090810290910101526001909101905b600101610a9c565b8296505b505050505050919050565b610df0336110ca565b1515610dfb57600080fd5b60008781526001602052604081205411610e2a5760405160e560020a62461bcd028152600401610475906157fb565b600087815260016020819052604090912001548614610e5e5760405160e560020a62461bcd0281526004016104759061573b565b610e6d87878787878787613427565b50505050505050565b610e7e614627565b600160a060020a0382166000908152600360209081526040918290208251610100808201855282548252600180840180548751600293821615909402600019011691909104601f8101869004860283018601909652858252919492938581019391929190830182828015610f335780601f10610f0857610100808354040283529160200191610f33565b820191906000526020600020905b815481529060010190602001808311610f1657829003601f168201915b5050509183525050600282810180546040805160206001841615610100026000190190931694909404601f81018390048302850183019091528084529381019390830182828015610fc55780601f10610f9a57610100808354040283529160200191610fc5565b820191906000526020600020905b815481529060010190602001808311610fa857829003601f168201915b505050505081526020016003820154815260200160048201548152602001600582018054600181600116156101000203166002900480601f01602080910402602001604051908101604052809291908181526020018280546001816001161561010002031660029004801561107b5780601f106110505761010080835404028352916020019161107b565b820191906000526020600020905b81548152906001019060200180831161105e57829003601f168201915b5050509183525050600682015460209091019060ff16600281111561109c57fe5b60028111156110a757fe5b8152600691909101546101009004600160a060020a031660209091015292915050565b60006110dc818363ffffffff613a2016565b92915050565b60608060006110f0336110ca565b15156110fb57600080fd5b60045460408051828152602080840282010190915290801561113757816020015b611124614627565b81526020019060019003908161111c5790505b509150600090505b6004548110156113cd576003600060048381548110151561115c57fe5b600091825260208083209190910154600160a060020a0316835282810193909352604091820190208151610100808201845282548252600180840180548651600293821615909402600019011691909104601f8101879004870283018701909552848252919492938584019391929183018282801561121c5780601f106111f15761010080835404028352916020019161121c565b820191906000526020600020905b8154815290600101906020018083116111ff57829003601f168201915b5050509183525050600282810180546040805160206001841615610100026000190190931694909404601f810183900483028501830190915280845293810193908301828280156112ae5780601f10611283576101008083540402835291602001916112ae565b820191906000526020600020905b81548152906001019060200180831161129157829003601f168201915b505050505081526020016003820154815260200160048201548152602001600582018054600181600116156101000203166002900480601f0160208091040260200160405190810160405280929190818152602001828054600181600116156101000203166002900480156113645780601f1061133957610100808354040283529160200191611364565b820191906000526020600020905b81548152906001019060200180831161134757829003601f168201915b5050509183525050600682015460209091019060ff16600281111561138557fe5b600281111561139057fe5b8152600691909101546101009004600160a060020a031660209091015282518390839081106113bb57fe5b6020908102909101015260010161113f565b50919050565b606080600060028054905060405190808252806020026020018201604052801561141757816020015b611404614678565b8152602001906001900390816113fc5790505b509150600090505b6002548110156113cd576001600060028381548110151561143c57fe5b9060005260206000200154815260200190815260200160002061014060405190810160405290816000820154815260200160018201548152602001600282018054600181600116156101000203166002900480601f01602080910402602001604051908101604052809291908181526020018280546001816001161561010002031660029004801561150f5780601f106114e45761010080835404028352916020019161150f565b820191906000526020600020905b8154815290600101906020018083116114f257829003601f168201915b505050918352505060038201805460408051602060026001851615610100026000190190941693909304601f81018490048402820184019092528181529382019392918301828280156115a35780601f10611578576101008083540402835291602001916115a3565b820191906000526020600020905b81548152906001019060200180831161158657829003601f168201915b505050918352505060048201805460408051602060026001851615610100026000190190941693909304601f81018490048402820184019092528181529382019392918301828280156116375780601f1061160c57610100808354040283529160200191611637565b820191906000526020600020905b81548152906001019060200180831161161a57829003601f168201915b505050918352505060058201805460408051602060026001851615610100026000190190941693909304601f81018490048402820184019092528181529382019392918301828280156116cb5780601f106116a0576101008083540402835291602001916116cb565b820191906000526020600020905b8154815290600101906020018083116116ae57829003601f168201915b505050918352505060068201805460408051602060026001851615610100026000190190941693909304601f810184900484028201840190925281815293820193929183018282801561175f5780601f106117345761010080835404028352916020019161175f565b820191906000526020600020905b81548152906001019060200180831161174257829003601f168201915b50505050508152602001600782018054806020026020016040519081016040528092919081815260200182805480156117b757602002820191906000526020600020905b8154815260200190600101908083116117a3575b505050505081526020016008820180548060200260200160405190810160405280929190818152602001828054801561180f57602002820191906000526020600020905b8154815260200190600101908083116117fb575b505050505081526020016009820180548060200260200160405190810160405280929190818152602001828054801561187157602002820191906000526020600020905b8154600160a060020a03168152600190910190602001808311611853575b505050505081525050828281518110151561188857fe5b6020908102909101015260010161141f565b600080805b6004548110156113cd57336000908152600360208190526040822081015460048054919391859081106118ce57fe5b6000918252602080832090910154600160a060020a0316835282019290925260400190206003015414801561194b575060026003600060048481548110151561191357fe5b6000918252602080832090910154600160a060020a0316835282019290925260400190206006015460ff16600281111561194957fe5b145b15611957576001909101905b60010161189f565b60008115156119835760405160e560020a62461bcd0281526004016104759061584b565b600086116119a65760405160e560020a62461bcd0281526004016104759061585b565b33600090815260036020526040902054156119d65760405160e560020a62461bcd0281526004016104759061576b565b6119df8261273b565b1515611a005760405160e560020a62461bcd028152600401610475906157fb565b611a0986613a57565b9050611a1e8686868585886001336000613c46565b505050505050565b6000611a31336110ca565b1515611a3c57600080fd5b506002545b90565b6060600080600080606080600080611a5d600a8b6133cb565b9750611a6761270f565b9650611a7287612726565b9550611a7f86600a613404565b9450851580611a9057506001860388115b80611a9a5750848a115b15611aa457611d39565b611aad8761409a565b60408051600a8082526101608201909252919550816020015b611ace6145e5565b815260200190600190039081611ac6579050509250600091508790505b8351811015611d3557600a821015611d2857600560008583815181101515611b0f57fe5b90602001906020020151815260200190815260200160002060e06040519081016040529081600082015481526020016001820154815260200160028201805480602002602001604051908101604052809291908181526020016000905b82821015611cca5760008481526020908190206040805160028681029093018054600181161561010002600019011693909304601f810185900490940281016060908101835291810184815290938492849190840182828015611c105780601f10611be557610100808354040283529160200191611c10565b820191906000526020600020905b815481529060010190602001808311611bf357829003601f168201915b50505050508152602001600182018054600181600116156101000203166002900480601f016020809104026020016040519081016040528092919081815260200182805460018160011615610100020316600290048015611cb25780601f10611c8757610100808354040283529160200191611cb2565b820191906000526020600020905b815481529060010190602001808311611c9557829003601f168201915b50505050508152505081526020019060010190611b6c565b50505090825250600382015460ff9081161515602083015260048301546040830152600583015416151560608201526006909101546080909101528351849084908110611d1357fe5b60209081029091010152600190910190611d2d565b611d35565b600101611aeb565b8298505b5050505050505050919050565b611d4e614627565b611d56614627565b336000908152600360209081526040918290208251610100808201855282548252600180840180548751600293821615909402600019011691909104601f8101869004860283018601909652858252919492938581019391929190830182828015610f335780601f10610f0857610100808354040283529160200191610f33565b6060600080600060606000611ded600a886133cb565b600254909550611dfe90600a613404565b6002549094501580611e1557506002546000190185115b80611e1f57508387115b15611e29576122e8565b60408051600a80825261016082019092526000945090816020015b611e4c614678565b815260200190600190039081611e445790505091508490505b6002548110156122e45760016000600283815481101515611e8257fe5b9060005260206000200154815260200190815260200160002061014060405190810160405290816000820154815260200160018201548152602001600282018054600181600116156101000203166002900480601f016020809104026020016040519081016040528092919081815260200182805460018160011615610100020316600290048015611f555780601f10611f2a57610100808354040283529160200191611f55565b820191906000526020600020905b815481529060010190602001808311611f3857829003601f168201915b505050918352505060038201805460408051602060026001851615610100026000190190941693909304601f8101849004840282018401909252818152938201939291830182828015611fe95780601f10611fbe57610100808354040283529160200191611fe9565b820191906000526020600020905b815481529060010190602001808311611fcc57829003601f168201915b505050918352505060048201805460408051602060026001851615610100026000190190941693909304601f810184900484028201840190925281815293820193929183018282801561207d5780601f106120525761010080835404028352916020019161207d565b820191906000526020600020905b81548152906001019060200180831161206057829003601f168201915b505050918352505060058201805460408051602060026001851615610100026000190190941693909304601f81018490048402820184019092528181529382019392918301828280156121115780601f106120e657610100808354040283529160200191612111565b820191906000526020600020905b8154815290600101906020018083116120f457829003601f168201915b505050918352505060068201805460408051602060026001851615610100026000190190941693909304601f81018490048402820184019092528181529382019392918301828280156121a55780601f1061217a576101008083540402835291602001916121a5565b820191906000526020600020905b81548152906001019060200180831161218857829003601f168201915b50505050508152602001600782018054806020026020016040519081016040528092919081815260200182805480156121fd57602002820191906000526020600020905b8154815260200190600101908083116121e9575b505050505081526020016008820180548060200260200160405190810160405280929190818152602001828054801561225557602002820191906000526020600020905b815481526020019060010190808311612241575b50505050508152602001600982018054806020026020016040519081016040528092919081815260200182805480156122b757602002820191906000526020600020905b8154600160a060020a03168152600190910190602001808311612299575b50505050508152505082848151811015156122ce57fe5b6020908102909101015260019283019201611e65565b8195505b5050505050919050565b60008381526005602081905260409091208054600382015460048301549290930154612329938793879260ff92831692168761274e565b505050565b6123373361412f565b565b612342336110ca565b151561234d57600080fd5b6105c981614177565b600080612362336110ca565b151561236d57600080fd5b600088116123905760405160e560020a62461bcd0281526004016104759061585b565b61239988613a57565b600081815260016020526040902054909150156123cb5760405160e560020a62461bcd028152600401610475906157db565b6123da81898989898989613427565b979650505050505050565b600160a060020a038181166000908152600360205260408120600601549091829182916101009091041681106124305760405160e560020a62461bcd0281526004016104759061577b565b6002600160a060020a03851660009081526003602052604090206006015460ff16600281111561245c57fe5b1461247c5760405160e560020a62461bcd0281526004016104759061582b565b600160a060020a03841660009081526003602052604090206004810154815460069092015490945090925060ff1660028111156124b557fe5b90506124c982898989878a878b6001613c46565b5050505050505050565b6124dc336110ca565b15156124e757600080fd5b600160a060020a0381166000908152600360208190526040909120015461250e90826125a7565b604080518082018252600b81527f53757065722061646d696e0000000000000000000000000000000000000000006020808301918252600160a060020a0385166000908152600390915292909220905161256e92600590920191906146cc565b50600160a060020a0381166000908152600360208190526040822090810191909155600601805460ff191660021790556105c981612339565b6000805b600084815260016020526040902060090154600019018110156126a75760008481526001602052604090206009018054600160a060020a0385169190839081106125f157fe5b600091825260209091200154600160a060020a0316141561261157600191505b811561269f57600084815260016020819052604090912060090180549091830190811061263a57fe5b6000918252602080832090910154868352600190915260409091206009018054600160a060020a03909216918390811061267057fe5b9060005260206000200160006101000a815481600160a060020a030219169083600160a060020a031602179055505b6001016125ab565b6000848152600160205260409020600901805460001981019081106126c857fe5b60009182526020808320909101805473ffffffffffffffffffffffffffffffffffffffff1916905585825260019052604090206009018054906106a2906000198301614746565b336000908152600360208190526040909120015490565b60009081526001602052604090206008015490565b6000908152600160205260408120541190565b61275661476a565b606060006060612765896141bf565b93506127708461420d565b60008c8152600560205260408120600181018e90558c815560038101805460ff19168c15151790559194506127a89160020190614781565b600091505b825182101561288d576127d683838151811015156127c757fe5b9060200190602002015161420d565b9050600560008c8152602001908152602001600020600201604080519081016040528061281a84600081518110151561280b57fe5b906020019060200201516142e0565b815260200161283184600181518110151561280b57fe5b90528154600181018084556000938452602093849020835180519295600290940290910192612865928492909101906146cc565b50602082810151805161287e92600185019201906146cc565b505050508160010191506127ad565b505050600097885250600560208190526040909720600481019390935560068301559401805460ff191694151594909417909355505050565b6000918252600160208181526040842060080180549283018155845290922090910155565b6128f361476a565b6060600080600060065411151561291f5760405160e560020a62461bcd028152600401610475906157eb565b612928856141bf565b93506129338461420d565b9250600190505b6006548111610e6d5760008181526005602052604090206003015460ff16151586151514801561296a5750808714155b1561339e5760008181526005602052604081206002018054909190811061298d57fe5b906000526020600020906002020160010160405160200180828054600181600116156101000203166002900480156129fc5780601f106129da5761010080835404028352918201916129fc565b820191906000526020600020905b8154815290600101906020018083116129e8575b50509150506040516020818303038152906040526040518082805190602001908083835b60208310612a3f5780518252601f199092019160209182019101612a20565b6001836020036101000a038019825116818451168082178552505050505050905001915050604051809103902060001916612a92612a858560008151811015156127c757fe5b8051600190811061280b57fe5b6040516020018082805190602001908083835b60208310612ac45780518252601f199092019160209182019101612aa5565b6001836020036101000a0380198251168184511680821785525050505050509050019150506040516020818303038152906040526040518082805190602001908083835b60208310612b275780518252601f199092019160209182019101612b08565b6001836020036101000a038019825116818451168082178552505050505050905001915050604051809103902060001916148015612d3e5750600081815260056020526040902060020180546001908110612b7e57fe5b90600052602060002090600202016001016040516020018082805460018160011615610100020316600290048015612bed5780601f10612bcb576101008083540402835291820191612bed565b820191906000526020600020905b815481529060010190602001808311612bd9575b50509150506040516020818303038152906040526040518082805190602001908083835b60208310612c305780518252601f199092019160209182019101612c11565b6001836020036101000a038019825116818451168082178552505050505050905001915050604051809103902060001916612c76612a858560018151811015156127c757fe5b6040516020018082805190602001908083835b60208310612ca85780518252601f199092019160209182019101612c89565b6001836020036101000a0380198251168184511680821785525050505050509050019150506040516020818303038152906040526040518082805190602001908083835b60208310612d0b5780518252601f199092019160209182019101612cec565b6001836020036101000a038019825116818451168082178552505050505050905001915050604051809103902060001916145b8015612f2557506000818152600560205260409020600290810180549091908110612d6557fe5b90600052602060002090600202016001016040516020018082805460018160011615610100020316600290048015612dd45780601f10612db2576101008083540402835291820191612dd4565b820191906000526020600020905b815481529060010190602001808311612dc0575b50509150506040516020818303038152906040526040518082805190602001908083835b60208310612e175780518252601f199092019160209182019101612df8565b6001836020036101000a038019825116818451168082178552505050505050905001915050604051809103902060001916612e5d612a858560028151811015156127c757fe5b6040516020018082805190602001908083835b60208310612e8f5780518252601f199092019160209182019101612e70565b6001836020036101000a0380198251168184511680821785525050505050509050019150506040516020818303038152906040526040518082805190602001908083835b60208310612ef25780518252601f199092019160209182019101612ed3565b6001836020036101000a038019825116818451168082178552505050505050905001915050604051809103902060001916145b801561310a5750600081815260056020526040902060020180546003908110612f4a57fe5b90600052602060002090600202016001016040516020018082805460018160011615610100020316600290048015612fb95780601f10612f97576101008083540402835291820191612fb9565b820191906000526020600020905b815481529060010190602001808311612fa5575b50509150506040516020818303038152906040526040518082805190602001908083835b60208310612ffc5780518252601f199092019160209182019101612fdd565b6001836020036101000a038019825116818451168082178552505050505050905001915050604051809103902060001916613042612a858560038151811015156127c757fe5b6040516020018082805190602001908083835b602083106130745780518252601f199092019160209182019101613055565b6001836020036101000a0380198251168184511680821785525050505050509050019150506040516020818303038152906040526040518082805190602001908083835b602083106130d75780518252601f1990920191602091820191016130b8565b6001836020036101000a038019825116818451168082178552505050505050905001915050604051809103902060001916145b80156132ef575060008181526005602052604090206002018054600490811061312f57fe5b9060005260206000209060020201600101604051602001808280546001816001161561010002031660029004801561319e5780601f1061317c57610100808354040283529182019161319e565b820191906000526020600020905b81548152906001019060200180831161318a575b50509150506040516020818303038152906040526040518082805190602001908083835b602083106131e15780518252601f1990920191602091820191016131c2565b6001836020036101000a038019825116818451168082178552505050505050905001915050604051809103902060001916613227612a858560048151811015156127c757fe5b6040516020018082805190602001908083835b602083106132595780518252601f19909201916020918201910161323a565b6001836020036101000a0380198251168184511680821785525050505050509050019150506040516020818303038152906040526040518082805190602001908083835b602083106132bc5780518252601f19909201916020918201910161329d565b6001836020036101000a038019825116818451168082178552505050505050905001915050604051809103902060001916145b1561339e5785156133675760008781526005602081905260408083208201805460ff19166001179055838352909120015460ff1615156133455760008181526005602052604090206004015461334590886133a6565b600081815260056020819052604090912001805460ff1916600117905561339e565b600087815260056020819052604080832082018054600160ff19918216811790925585855291909320909101805490911690911790555b60010161293a565b6000918252600160208181526040842060070180549283018155845290922090910155565b6000808315156133de57600091506133fd565b508282028284828115156133ee57fe5b04146133f957600080fd5b8091505b5092915050565b60008080831161341357600080fd5b828481151561341e57fe5b04949350505050565b61342f614678565b855115156134525760405160e560020a62461bcd0281526004016104759061583b565b825115156134755760405160e560020a62461bcd0281526004016104759061581b565b815115156134985760405160e560020a62461bcd0281526004016104759061580b565b6000888152600160208181526040928390208351610140810185528154815281840154818401526002808301805487519681161561010002600019011691909104601f8101859004850286018501875280865291959294928601939091908301828280156135475780601f1061351c57610100808354040283529160200191613547565b820191906000526020600020905b81548152906001019060200180831161352a57829003601f168201915b505050918352505060038201805460408051602060026001851615610100026000190190941693909304601f81018490048402820184019092528181529382019392918301828280156135db5780601f106135b0576101008083540402835291602001916135db565b820191906000526020600020905b8154815290600101906020018083116135be57829003601f168201915b505050918352505060048201805460408051602060026001851615610100026000190190941693909304601f810184900484028201840190925281815293820193929183018282801561366f5780601f106136445761010080835404028352916020019161366f565b820191906000526020600020905b81548152906001019060200180831161365257829003601f168201915b505050918352505060058201805460408051602060026001851615610100026000190190941693909304601f81018490048402820184019092528181529382019392918301828280156137035780601f106136d857610100808354040283529160200191613703565b820191906000526020600020905b8154815290600101906020018083116136e657829003601f168201915b505050918352505060068201805460408051602060026001851615610100026000190190941693909304601f81018490048402820184019092528181529382019392918301828280156137975780601f1061376c57610100808354040283529160200191613797565b820191906000526020600020905b81548152906001019060200180831161377a57829003601f168201915b50505050508152602001600782018054806020026020016040519081016040528092919081815260200182805480156137ef57602002820191906000526020600020905b8154815260200190600101908083116137db575b505050505081526020016008820180548060200260200160405190810160405280929190818152602001828054801561384757602002820191906000526020600020905b815481526020019060010190808311613833575b50505050508152602001600982018054806020026020016040519081016040528092919081815260200182805480156138a957602002820191906000526020600020905b8154600160a060020a0316815260019091019060200180831161388b575b50505091909252505050888152602080820189815260408084018a8152606085018a90526080850189905260a0850188905260c0850187905260008d815260018086529290208551815592519183019190915551805193945084939192613918926002850192909101906146cc565b50606082015180516139349160038401916020909101906146cc565b50608082015180516139509160048401916020909101906146cc565b5060a0820151805161396c9160058401916020909101906146cc565b5060c082015180516139889160068401916020909101906146cc565b5060e082015180516139a49160078401916020909101906147a2565b5061010082015180516139c19160088401916020909101906147a2565b5061012082015180516139de9160098401916020909101906147dc565b5050600280546001810182556000919091527f405787fa12a823e0f2b7631cc41b3ba8828b3321ca811111fa75cd3aa3bb5ace01989098555050505050505050565b6000600160a060020a0382161515613a3757600080fd5b50600160a060020a03166000908152602091909152604090205460ff1690565b6000808080600285061515613ae95784604051602001808281526020019150506040516020818303038152906040526040518082805190602001908083835b60208310613ab55780518252601f199092019160209182019101613a96565b6001836020036101000a03801982511681845116808217855250505050505090500191505060405180910390209250613bd4565b84604051602001808281526020019150506040516020818303038152906040526040518082805190602001908083835b60208310613b385780518252601f199092019160209182019101613b19565b51815160209384036101000a600019018019909216911617905260408051929094018290038220828201528351808303820181529184019384905281519195509293508392850191508083835b60208310613ba45780518252601f199092019160209182019101613b85565b6001836020036101000a038019825116818451168082178552505050505050905001915050604051809103902092505b6020811015613c0157828160208110613be957fe5b60f860020a91901a8102049190910190600101613bd4565b826020600284010660208110613c1357fe5b60f860020a91901a810204836020840660208110613c2d57fe5b1a60f860020a0260f860020a9004029350505050919050565b613c4e614627565b600084101580613c5f575060028411155b1515613c805760405160e560020a62461bcd028152600401610475906157ab565b84511515613ca35760405160e560020a62461bcd0281526004016104759061574b565b600160a060020a0383166000908152600360209081526040918290208251610100808201855282548252600180840180548751600293821615909402600019011691909104601f8101869004860283018601909652858252919492938581019391929190830182828015613d585780601f10613d2d57610100808354040283529160200191613d58565b820191906000526020600020905b815481529060010190602001808311613d3b57829003601f168201915b5050509183525050600282810180546040805160206001841615610100026000190190931694909404601f81018390048302850183019091528084529381019390830182828015613dea5780601f10613dbf57610100808354040283529160200191613dea565b820191906000526020600020905b815481529060010190602001808311613dcd57829003601f168201915b505050505081526020016003820154815260200160048201548152602001600582018054600181600116156101000203166002900480601f016020809104026020016040519081016040528092919081815260200182805460018160011615610100020316600290048015613ea05780601f10613e7557610100808354040283529160200191613ea0565b820191906000526020600020905b815481529060010190602001808311613e8357829003601f168201915b5050509183525050600682015460209091019060ff166002811115613ec157fe5b6002811115613ecc57fe5b8152600691909101546101009004600160a060020a03166020918201528b825281018a905260408101899052606081018890526080810187905260a081018690529050836002811115613f1b57fe5b8160c001906002811115613f2b57fe5b90816002811115613f3857fe5b905250600160a060020a03831660e082018190526000908152600360209081526040909120825181558183015180518493613f7a9260018501929101906146cc565b5060408201518051613f969160028401916020909101906146cc565b50606082015160038201556080820151600482015560a08201518051613fc69160058401916020909101906146cc565b5060c082015160068201805460ff19166001836002811115613fe457fe5b021790555060e0919091015160069091018054600160a060020a039092166101000274ffffffffffffffffffffffffffffffffffffffff001990921691909117905581151561408e57600480546001810182556000919091527f8a35acfbc15ff81a39ae7d344fd709f28e8600b4aa8c65c6b64bfe7fe36bd19b01805473ffffffffffffffffffffffffffffffffffffffff1916600160a060020a03851617905561408e87614352565b50505050505050505050565b600081815260016020526040812054606091106140cc5760405160e560020a62461bcd028152600401610475906157bb565b6000828152600160209081526040918290206008018054835181840281018401909452808452909183018282801561412357602002820191906000526020600020905b81548152602001906001019080831161410f575b50505050509050919050565b61414060008263ffffffff61439116565b604051600160a060020a038216907f3525e22824a8a7df2c9a6029941c824cf95b6447f1e13d5128fd3826d35afe8b90600090a250565b61418860008263ffffffff6143dd16565b604051600160a060020a038216907f47d1c22a25bb3a5d4e481b9b1e6944c2eade3181a0a20b495ed61d35b5323f2490600090a250565b6141c761476a565b60008251600014156141ee57604080518082019091526000808252602082015291506113cd565b5050604080518082019091528151815260209182019181019190915290565b606060008060008061421e8661442b565b151561422957600080fd5b6142328661445a565b93508360405190808252806020026020018201604052801561426e57816020015b61425b61476a565b8152602001906001900390816142535790505b50945061427e86602001516144aa565b8660200151019250600090505b838110156142d75761429c8361450d565b915060408051908101604052808381526020018481525085828151811015156142c157fe5b602090810290910101529181019160010161428b565b50505050919050565b6060600080606060006142f686602001516144aa565b9350838660000151039250826040519080825280601f01601f19166020018201604052801561432f578160200160208202803883390190505b50915081602001905061434984876020015101828561459e565b50949350505050565b6000908152600160208181526040832060090180549283018155835290912001805473ffffffffffffffffffffffffffffffffffffffff191633179055565b600160a060020a03811615156143a657600080fd5b6143b08282613a20565b15156143bb57600080fd5b600160a060020a0316600090815260209190915260409020805460ff19169055565b600160a060020a03811615156143f257600080fd5b6143fc8282613a20565b1561440657600080fd5b600160a060020a0316600090815260209190915260409020805460ff19166001179055565b6020810151805160009190821a9060c060ff8316101561444e5760009250614453565b600192505b5050919050565b6000806000806000925061447185602001516144aa565b6020860151865191810193500190505b808210156144a1576144928261450d565b60019093019290910190614481565b50909392505050565b8051600090811a60808110156144c357600091506113cd565b60b88110806144de575060c081108015906144de575060f881105b156144ec57600191506113cd565b60c08110156145015760b519810191506113cd565b60f519810191506113cd565b8051600090811a608081101561452657600191506113cd565b60b881101561453b57607e19810191506113cd565b60c08110156145685760b78103600184019350806020036101000a845104600182018101935050506113cd565b60f881101561457d5760be19810191506113cd565b60019290920151602083900360f7016101000a900490910160f51901919050565b60005b602082106145c3578351835260209384019390920191601f19909101906145a1565b50915181516020939093036101000a6000190180199091169216919091179052565b60e06040519081016040528060008152602001600081526020016060815260200160001515815260200160008152602001600015158152602001600081525090565b610100604051908101604052806000815260200160608152602001606081526020016000815260200160008152602001606081526020016000600281111561466b57fe5b8152600060209091015290565b61014060405190810160405280600081526020016000815260200160608152602001606081526020016060815260200160608152602001606081526020016060815260200160608152602001606081525090565b828054600181600116156101000203166002900490600052602060002090601f016020900481019282601f1061470d57805160ff191683800117855561473a565b8280016001018555821561473a579182015b8281111561473a57825182559160200191906001019061471f565b506105e592915061484a565b8154818355818111156123295760008381526020902061232991810190830161484a565b604080518082019091526000808252602082015290565b50805460008255600202906000526020600020908101906105c99190614864565b82805482825590600052602060002090810192821561473a579160200282018281111561473a57825182559160200191906001019061471f565b82805482825590600052602060002090810192821561483e579160200282015b8281111561483e578251825473ffffffffffffffffffffffffffffffffffffffff1916600160a060020a039091161782556020909201916001909101906147fc565b506105e5929150614895565b611a4191905b808211156105e55760008155600101614850565b611a4191905b808211156105e557600061487e82826148c6565b61488c6001830160006148c6565b5060020161486a565b611a4191905b808211156105e557805473ffffffffffffffffffffffffffffffffffffffff1916815560010161489b565b50805460018160011615610100020316600290046000825580601f106148ec57506105c9565b601f0160209004906000526020600020908101906105c9919061484a565b600061491682356158f4565b9392505050565b60006149168235615900565b6000601f8201831361493a57600080fd5b813561494d614948826158c2565b61589b565b9150808252602083016020830185838301111561496957600080fd5b61497483828461591c565b50505092915050565b60006149168235611a41565b60006020828403121561499b57600080fd5b60006149a7848461490a565b949350505050565b600080600080600060a086880312156149c757600080fd5b853567ffffffffffffffff8111156149de57600080fd5b6149ea88828901614929565b955050602086013567ffffffffffffffff811115614a0757600080fd5b614a1388828901614929565b9450506040614a248882890161497d565b935050606086013567ffffffffffffffff811115614a4157600080fd5b614a4d88828901614929565b9250506080614a5e8882890161490a565b9150509295509295909350565b600060208284031215614a7d57600080fd5b60006149a7848461497d565b60008060008060808587031215614a9f57600080fd5b6000614aab878761497d565b945050602085013567ffffffffffffffff811115614ac857600080fd5b614ad487828801614929565b9350506040614ae58782880161491d565b9250506060614af68782880161497d565b91505092959194509250565b600080600060608486031215614b1757600080fd5b6000614b23868661497d565b935050602084013567ffffffffffffffff811115614b4057600080fd5b614b4c86828701614929565b9250506040614b5d8682870161497d565b9150509250925092565b60008060008060008060c08789031215614b8057600080fd5b6000614b8c898961497d565b965050602087013567ffffffffffffffff811115614ba957600080fd5b614bb589828a01614929565b955050604087013567ffffffffffffffff811115614bd257600080fd5b614bde89828a01614929565b945050606087013567ffffffffffffffff811115614bfb57600080fd5b614c0789828a01614929565b935050608087013567ffffffffffffffff811115614c2457600080fd5b614c3089828a01614929565b92505060a087013567ffffffffffffffff811115614c4d57600080fd5b614c5989828a01614929565b9150509295509295509295565b600080600080600060a08688031215614c7e57600080fd5b6000614c8a888861497d565b955050602086013567ffffffffffffffff811115614ca757600080fd5b614cb388828901614929565b945050604086013567ffffffffffffffff811115614cd057600080fd5b614cdc88828901614929565b935050606086013567ffffffffffffffff811115614cf957600080fd5b614d0588828901614929565b9250506080614a5e8882890161497d565b600080600080600080600060e0888a031215614d3157600080fd5b6000614d3d8a8a61497d565b9750506020614d4e8a828b0161497d565b965050604088013567ffffffffffffffff811115614d6b57600080fd5b614d778a828b01614929565b955050606088013567ffffffffffffffff811115614d9457600080fd5b614da08a828b01614929565b945050608088013567ffffffffffffffff811115614dbd57600080fd5b614dc98a828b01614929565b93505060a088013567ffffffffffffffff811115614de657600080fd5b614df28a828b01614929565b92505060c088013567ffffffffffffffff811115614e0f57600080fd5b614e1b8a828b01614929565b91505092959891949750929550565b614e33816158f4565b82525050565b6000614e44826158f0565b808452602084019350614e56836158ea565b60005b82811015614e8657614e6c868351614e2a565b614e75826158ea565b602096909601959150600101614e59565b5093949350505050565b6000614e9b826158f0565b80845260208401935083602082028501614eb4856158ea565b60005b84811015614eeb578383038852614ecf838351615478565b9250614eda826158ea565b602098909801979150600101614eb7565b50909695505050505050565b6000614f02826158f0565b80845260208401935083602082028501614f1b856158ea565b60005b84811015614eeb578383038852614f3683835161550d565b9250614f41826158ea565b602098909801979150600101614f1e565b6000614f5d826158f0565b80845260208401935083602082028501614f76856158ea565b60005b84811015614eeb578383038852614f91838351615610565b9250614f9c826158ea565b602098909801979150600101614f79565b6000614fb8826158f0565b80845260208401935083602082028501614fd1856158ea565b60005b84811015614eeb578383038852614fec838351615642565b9250614ff7826158ea565b602098909801979150600101614fd4565b6000615013826158f0565b808452602084019350615025836158ea565b60005b82811015614e865761503b8683516156f1565b615044826158ea565b602096909601959150600101615028565b614e3381615900565b614e3381615911565b6000615072826158f0565b808452615086816020860160208601615928565b61508f81615958565b9093016020019392505050565b601a81527f4372656174696f6e204461746520697320696e6d757461626c65000000000000602082015260400190565b601181527f726f6c65206973206d616e6461746f7279000000000000000000000000000000602082015260400190565b602281527f4f6e6c792070656e64696e672075736572732063616e2062652061636365707460208201527f6564000000000000000000000000000000000000000000000000000000000000604082015260600190565b601381527f5573657220616c72656164792065786973747300000000000000000000000000602082015260400190565b601481527f546869732075736572206e6f7420657869737473000000000000000000000000602082015260400190565b601b81527f596f752063616e6e6f7420616363657074207468697320757365720000000000602082015260400190565b602281527f4f6e6c792070656e64696e672075736572732063616e2062652072656a65637460208201527f6564000000000000000000000000000000000000000000000000000000000000604082015260600190565b601381527f737461747573206973206e6f742076616c696400000000000000000000000000602082015260400190565b601181527f6d656d626572206e6f7420657869737473000000000000000000000000000000602082015260400190565b601481527f4d656d62657220646f206e6f7420657869737473000000000000000000000000602082015260400190565b601581527f4d656d62657220616c7265616479206578697374730000000000000000000000602082015260400190565b601f81527f5468657265206973206e6f20636c61696d20696e207468652073797374656d00602082015260400190565b601181527f4d656d626572206e6f7420657869737473000000000000000000000000000000602082015260400190565b601281527f5468656d65206973206d616e6461746f72790000000000000000000000000000602082015260400190565b601081527f434d4f206973206d616e6461746f727900000000000000000000000000000000602082015260400190565b601481527f596f7520617265206e6f74206163636570746564000000000000000000000000602082015260400190565b601181527f4e616d65206973206d616e6461746f7279000000000000000000000000000000602082015260400190565b601181527f4e6f2076616c6964206d656d6265724964000000000000000000000000000000602082015260400190565b601981527f4372656174696f6e44617465206973206d616e6461746f727900000000000000602082015260400190565b805160009060e084019061548c85826156f1565b50602083015161549f60208601826156f1565b50604083015184820360408601526154b78282614f52565b91505060608301516154cc6060860182615055565b5060808301516154df60808601826156f1565b5060a08301516154f260a0860182615055565b5060c083015161550560c08601826156f1565b509392505050565b805160009061014084019061552285826156f1565b50602083015161553560208601826156f1565b506040830151848203604086015261554d8282615067565b915050606083015184820360608601526155678282615067565b915050608083015184820360808601526155818282615067565b91505060a083015184820360a086015261559b8282615067565b91505060c083015184820360c08601526155b58282615067565b91505060e083015184820360e08601526155cf8282615008565b9150506101008301518482036101008601526155eb8282615008565b9150506101208301518482036101208601526156078282614e39565b95945050505050565b80516040808452600091908401906156288282615067565b915050602083015184820360208601526156078282615067565b805160009061010084019061565785826156f1565b506020830151848203602086015261566f8282615067565b915050604083015184820360408601526156898282615067565b915050606083015161569e60608601826156f1565b5060808301516156b160808601826156f1565b5060a083015184820360a08601526156c98282615067565b91505060c08301516156de60c086018261505e565b5060e083015161550560e0860182614e2a565b614e3381611a41565b602080825281016149168184614e90565b602080825281016149168184614ef7565b602080825281016149168184614fad565b602081016110dc8284615055565b602080825281016110dc8161509c565b602080825281016110dc816150cc565b602080825281016110dc816150fc565b602080825281016110dc81615152565b602080825281016110dc81615182565b602080825281016110dc816151b2565b602080825281016110dc816151e2565b602080825281016110dc81615238565b602080825281016110dc81615268565b602080825281016110dc81615298565b602080825281016110dc816152c8565b602080825281016110dc816152f8565b602080825281016110dc81615328565b602080825281016110dc81615358565b602080825281016110dc81615388565b602080825281016110dc816153b8565b602080825281016110dc816153e8565b602080825281016110dc81615418565b602080825281016110dc81615448565b602080825281016149168184615478565b602080825281016149168184615642565b602081016110dc82846156f1565b60405181810167ffffffffffffffff811182821017156158ba57600080fd5b604052919050565b600067ffffffffffffffff8211156158d957600080fd5b506020601f91909101601f19160190565b60200190565b5190565b600160a060020a031690565b151590565b6000600382106105e557fe5b60006110dc82615905565b82818337506000910152565b60005b8381101561594357818101518382015260200161592b565b83811115615952576000848401525b50505050565b601f01601f1916905600a265627a7a72305820f5162ce6eb935704e7eaa09b7cc15f6b3dc542e627ff9cd1101ed6855d630c856c6578706572696d656e74616cf50037",
  "source": "pragma solidity ^0.4.24;\npragma experimental ABIEncoderV2;\n\nimport \"../../node_modules/solidity-rlp/contracts/RLPReader.sol\";\nimport \"./Users.sol\";\n//import * as theLib from \"./TheLib.sol\";\n\ncontract Claims is Users {\n\n  using RLPReader for bytes;\n  using RLPReader for uint;\n  using RLPReader for RLPReader.RLPItem;\n\n//  enum StatusClaimEnum {\n//    CLAIMED, // = false, means there is NO CONFLICT\n//    CONFLICT // = true, means there IS a CONFLICT\n//  }\n\n//  enum ClaimTypeEnum {\n//    MUSICAL_WORK,   // false for Musical Works\n//    SOUND_RECORDING // true for Sound Recordings\n//  }\n  \n  struct NameValue{ \n    string name;\n    string value;\n  }\n\n  struct Claim {   \n    uint256 creationDate;\n    uint256 claimId;\n    NameValue[] claimData;\n    bool claimType;\n    uint256 memberOwner;    //  replace with 'member'\n//    uint256 memberReceptor; // remove\n//    string[] messageLog;\n    bool status;\n    uint256 lastChange;\n  }\n\n  uint256 constant private PAGE_SIZE = 10;\n\n  mapping (uint256 => Claim) private claims_;\n  uint256 private claimIdCounter_ = 0;\n  // METHODS\n\n  // Public\n  function checkClaimStatus(uint256 _claimId, bool _claimType, bytes _claimData) internal {\n//     -browse all (getClaimsByISRC or ISWC) = claims_\n//     -check if conflict with region, period, useTypes\n//        -if CONFLICT with split\n//            -change the status to conflict\n//            -and if found is not CONFLICT status, then change as well\n//            -_addClaimFromInbox(member, _claimId)\n//            -save memberId/_claimId locally (memory)\n    require(claimIdCounter_ > 0, \"There is no claim in the system\");\n\n    // Push in messageLog of _claimId==1 the _claimData of each claim that is input in this function\n    RLPReader.RLPItem memory item = _claimData.toRlpItem();\n    RLPReader.RLPItem[] memory itemList = item.toList();  // ((name0, value0), (name, value), (name, value), ...)\n//    claims_[1].claimData.push(NameValue(\"__NEXT__\", \"__CLAIM\"));\n//    for(uint j = 0; j < itemList.length; ++j) {\n//      //      RLPReader.RLPItem[] memory itemListClaim = itemList[j].toList(); // (name0, value0)\n//    string memory data = string(itemList[j].toList()[1].toBytes());\n//    claims_[1].claimData.push(NameValue(string(itemList[j].toList()[0].toBytes()), string(itemList[j].toList()[1].toBytes())));\n//    }\n    uint8 _split;\n    for(uint256 i = 1; i <= claimIdCounter_; i++) {\n      // Sound Recording, _claimType = true\n      if (_claimType == claims_[i].claimType && _claimId != i) {\n        if (keccak256(abi.encodePacked(string(itemList[0].toList()[1].toBytes()))) == keccak256(abi.encodePacked(claims_[i].claimData[0].value)) // same ISRC/ISWC\n         && keccak256(abi.encodePacked(string(itemList[1].toList()[1].toBytes()))) == keccak256(abi.encodePacked(claims_[i].claimData[1].value)) // same countries\n         && keccak256(abi.encodePacked(string(itemList[2].toList()[1].toBytes()))) == keccak256(abi.encodePacked(claims_[i].claimData[2].value)) // same startDate\n         && keccak256(abi.encodePacked(string(itemList[3].toList()[1].toBytes()))) == keccak256(abi.encodePacked(claims_[i].claimData[3].value)) // same endDate\n         && keccak256(abi.encodePacked(string(itemList[4].toList()[1].toBytes()))) == keccak256(abi.encodePacked(claims_[i].claimData[4].value)) // same rightHolderProprietaryID\n        ){\n          if (_claimType) {   //ISRC: _claimType == true for Sound Recordings\n//            string(itemList[5].toList()[1].toBytes()); // split\n            claims_[_claimId].status = true;\n            if (!claims_[i].status) {\n              _addClaimFromInbox(claims_[i].memberOwner, _claimId);\n            }\n            claims_[i].status = true;\n//                if (uint256(parseInt(claims_[_claimId].claimData[2].value, 0)) + uint256(parseInt(claims_[i].claimData[2].value, 0)) > 100) {\n            //      // check if their splits> 100% (checking between combinations missing!)\n//\n//                }\n////              }\n          } else {\n\n            claims_[_claimId].status = true;\n            claims_[i].status = true;\n          }\n        }\n      }\n    }\n  }\n\n  function registerClaim(uint256 _creationDate, bytes _claimData, bool _claimType, uint _memberOwner) public {\n\n    require(_creationDate > 0, \"CreationDate is mandatory\");\n//    require(_claimType || !_claimType, \"Incorrect Claim Type\");\n\n    uint256 _claimId = ++claimIdCounter_;\n//    uint256 _claimId = Random.rand(_creationDate);\n\n//    require(claims_[_claimId].claimId == 0, \"Claim already exists\");\n    require(_memberExists(_memberOwner), \"Member do not exists\");\n\n//    uint256\n    _memberOwner = _memberIdFromCurrentAddress();\n\n//    string[] memory messageLog = new string[](0);\n\n    _saveClaim(_claimId, _creationDate, _claimData, _claimType, _memberOwner, false, _creationDate);\n    _addClaimIdToMemberOwner(_memberOwner, _claimId);\n\n    if (claimIdCounter_ > 1) {\n      checkClaimStatus(_claimId, _claimType, _claimData);\n    }\n\n    if (claims_[_claimId].status) {       // if status == true, which means there IS a CONFLICT\n      // addClaimFromInbox for every relevant member\n      _addClaimFromInbox(_memberOwner, _claimId);\n    }\n\n  }\n//\n  function updateClaim(uint256 _claimId, bytes _claimData, uint _lastChange) public {\n//    require(claims_[_claimId].claimId > 0, \"Claim not exists\");\n\n    _saveClaim(_claimId, claims_[_claimId].creationDate, _claimData, claims_[_claimId].claimType,\n              claims_[_claimId].memberOwner, claims_[_claimId].status, _lastChange);\n  }\n\n//  EXCLUDE FUNCTION SO THAT SIZE OF CONTRACT (AND BYTECODE) REDUCES; IF NOT ENOUGH, MOVE FUNCTIONS TO DIFFERENT CONTRACT.\n//  function changeState(uint256 _claimId, uint _status, string _messageLog, uint256 _lastChange) checkValidStatus(_status) public {\n//    require(claims_[_claimId].claimId > 0, \"Claim not exists\");\n//\n//    if(claims_[_claimId].status != StatusClaimEnum(_status)) {\n//      bool isClaimIntoReceptorInbox = _isClaimIntoReceptorInbox(claims_[_claimId].memberReceptor, _claimId);\n//      if(_status == uint(StatusClaimEnum.CONFLICT)) {\n//          if(isClaimIntoReceptorInbox) {\n//            _removeClaimFromInbox(claims_[_claimId].memberReceptor, _claimId);\n//          } else {\n//            _removeClaimFromInbox(claims_[_claimId].memberOwner, _claimId);\n//          }\n//      } else {\n//          if(isClaimIntoReceptorInbox) {\n//            _addClaimFromInbox(claims_[_claimId].memberOwner, _claimId);\n//            _removeClaimFromInbox(claims_[_claimId].memberReceptor, _claimId);\n//          } else {\n//            _addClaimFromInbox(claims_[_claimId].memberReceptor, _claimId);\n//            _removeClaimFromInbox(claims_[_claimId].memberOwner, _claimId);\n//          }\n//      }\n//      claims_[_claimId].status = StatusClaimEnum(_status);\n//    }\n//    if (keccak256(abi.encodePacked((_messageLog))) != keccak256(abi.encodePacked((\"\")))) {\n//        claims_[_claimId].messageLog.push(_messageLog);\n//    }\n//\n//    claims_[_claimId].lastChange = _lastChange;\n//  }\n\n  function getClaim(uint256 _claimId) view public returns (Claim) {\n    return claims_[_claimId];\n  }\n\n  function getClaimsByMemberId(uint _page) view public returns (Claim[] memory) {\n    uint256 pageIndex = SafeMath.mul(PAGE_SIZE, _page);\n    uint256 _memberId = _memberIdFromCurrentAddress();\n    uint count = _getClaimsCountByMember(_memberId);\n    uint256 pageNumber = SafeMath.div(count, PAGE_SIZE);\n\n    if (count == 0 || pageIndex > count - 1 || _page > pageNumber) {\n      return;\n    }\n\n    uint256[] memory claimsId = _getClaimsIdByMember(_memberId);\n\n    Claim[] memory _claims = new Claim[](PAGE_SIZE);\n    uint256 returnCounter = 0;\n    for (uint i = pageIndex; i < claimsId.length; ++i) {\n      if(returnCounter < PAGE_SIZE) {\n        _claims[returnCounter] = claims_[claimsId[i]];\n        ++returnCounter;\n      } else {\n        break;\n      }\n    }\n    return _claims;\n  }\n\n  function getClaimsCountByMemberId() view public returns (uint) {\n    uint256 _memberId = _memberIdFromCurrentAddress();\n    return _getClaimsCountByMember(_memberId);\n  }\n\n  // Private\n  function _saveClaim(uint256 _claimId, uint256 _creationDate, bytes _claimData, bool _claimType,\n    uint _memberOwner, bool _status, uint256 _lastChange) internal {\n\n    RLPReader.RLPItem memory item = _claimData.toRlpItem();\n    RLPReader.RLPItem[] memory itemList = item.toList(); // ((name, value), (name, value), (name, value), ...)\n\n    claims_[_claimId].claimId = _claimId;\n    claims_[_claimId].creationDate = _creationDate;\n    claims_[_claimId].claimType = _claimType;\n\n    delete claims_[_claimId].claimData;\n    for(uint i = 0; i < itemList.length; ++i) {\n      RLPReader.RLPItem[] memory itemListClaim = itemList[i].toList(); // (name, value)\n      claims_[_claimId].claimData.push(NameValue(string(itemListClaim[0].toBytes()), string(itemListClaim[1].toBytes())));\n    }\n\n    claims_[_claimId].memberOwner = _memberOwner;\n//    claims_[_claimId].memberReceptor = _memberReceptor;\n    claims_[_claimId].lastChange = _lastChange;\n//    claims_[_claimId].messageLog = _messageLog; // string[] memory\n    claims_[_claimId].status = _status;\n  }\n\n  // MODIFIERS\n\n  //  modifier checkValidStatus(uint256 _status) {\n//    require(_status >= 0 || _status <= 1, \"status not allowed\");\n//    _;\n//  }\n\n//  modifier checkMemberOwnership(uint256 _claimId) {\n//    require(claims_[_claimId].memberOwner == _memberIdFromCurrentAddress() || claims_[_claimId].memberReceptor == _memberIdFromCurrentAddress(),\n//      \"not allowed to get this claim\");\n//    _;\n//  }\n}\n",
  "sourcePath": "/home/komodo/newUI/bloomen-decentralized-rights-management-v2/truffle/contracts/registry/Claims.sol",
  "compiler": {
    "name": "solc",
    "version": "0.4.24+commit.e67f0147.Emscripten.clang"
  },
  "schemaVersion": "2.0.1",
  "updatedAt": "2019-11-11T11:46:34.540Z"
}