{
  "contractName": "Claims",
  "abi": [
    {
      "constant": false,
      "inputs": [
        {
          "name": "_userToAccept",
          "type": "address"
        }
      ],
      "name": "acceptUser",
      "outputs": [],
      "payable": false,
      "stateMutability": "nonpayable",
      "type": "function"
    },
    {
      "constant": false,
      "inputs": [
        {
          "name": "_userToReject",
          "type": "address"
        }
      ],
      "name": "rejectUser",
      "outputs": [],
      "payable": false,
      "stateMutability": "nonpayable",
      "type": "function"
    },
    {
      "constant": true,
      "inputs": [
        {
          "name": "_page",
          "type": "uint256"
        }
      ],
      "name": "getUsers",
      "outputs": [
        {
          "components": [
            {
              "name": "creationDate",
              "type": "uint256"
            },
            {
              "name": "firstName",
              "type": "string"
            },
            {
              "name": "lastName",
              "type": "string"
            },
            {
              "name": "memberId",
              "type": "uint256"
            },
            {
              "name": "requestId",
              "type": "uint256"
            },
            {
              "name": "role",
              "type": "string"
            },
            {
              "name": "status",
              "type": "uint8"
            },
            {
              "name": "owner",
              "type": "address"
            }
          ],
          "name": "",
          "type": "tuple[]"
        }
      ],
      "payable": false,
      "stateMutability": "view",
      "type": "function"
    },
    {
      "constant": false,
      "inputs": [
        {
          "name": "_memberId",
          "type": "uint256"
        },
        {
          "name": "_creationDate",
          "type": "uint256"
        },
        {
          "name": "_name",
          "type": "string"
        },
        {
          "name": "_logo",
          "type": "string"
        },
        {
          "name": "_country",
          "type": "string"
        },
        {
          "name": "_cmo",
          "type": "string"
        },
        {
          "name": "_theme",
          "type": "string"
        }
      ],
      "name": "updateMember",
      "outputs": [],
      "payable": false,
      "stateMutability": "nonpayable",
      "type": "function"
    },
    {
      "constant": true,
      "inputs": [
        {
          "name": "userAddress",
          "type": "address"
        }
      ],
      "name": "getUserByAddress",
      "outputs": [
        {
          "components": [
            {
              "name": "creationDate",
              "type": "uint256"
            },
            {
              "name": "firstName",
              "type": "string"
            },
            {
              "name": "lastName",
              "type": "string"
            },
            {
              "name": "memberId",
              "type": "uint256"
            },
            {
              "name": "requestId",
              "type": "uint256"
            },
            {
              "name": "role",
              "type": "string"
            },
            {
              "name": "status",
              "type": "uint8"
            },
            {
              "name": "owner",
              "type": "address"
            }
          ],
          "name": "",
          "type": "tuple"
        }
      ],
      "payable": false,
      "stateMutability": "view",
      "type": "function"
    },
    {
      "constant": true,
      "inputs": [
        {
          "name": "account",
          "type": "address"
        }
      ],
      "name": "isSigner",
      "outputs": [
        {
          "name": "",
          "type": "bool"
        }
      ],
      "payable": false,
      "stateMutability": "view",
      "type": "function"
    },
    {
      "constant": true,
      "inputs": [],
      "name": "getUsersOwner",
      "outputs": [
        {
          "components": [
            {
              "name": "creationDate",
              "type": "uint256"
            },
            {
              "name": "firstName",
              "type": "string"
            },
            {
              "name": "lastName",
              "type": "string"
            },
            {
              "name": "memberId",
              "type": "uint256"
            },
            {
              "name": "requestId",
              "type": "uint256"
            },
            {
              "name": "role",
              "type": "string"
            },
            {
              "name": "status",
              "type": "uint8"
            },
            {
              "name": "owner",
              "type": "address"
            }
          ],
          "name": "",
          "type": "tuple[]"
        }
      ],
      "payable": false,
      "stateMutability": "view",
      "type": "function"
    },
    {
      "constant": true,
      "inputs": [],
      "name": "getMembers",
      "outputs": [
        {
          "components": [
            {
              "name": "memberId",
              "type": "uint256"
            },
            {
              "name": "creationDate",
              "type": "uint256"
            },
            {
              "name": "name",
              "type": "string"
            },
            {
              "name": "logo",
              "type": "string"
            },
            {
              "name": "country",
              "type": "string"
            },
            {
              "name": "cmo",
              "type": "string"
            },
            {
              "name": "theme",
              "type": "string"
            },
            {
              "name": "claimInbox",
              "type": "uint256[]"
            },
            {
              "name": "claims",
              "type": "uint256[]"
            },
            {
              "name": "userRequests",
              "type": "address[]"
            }
          ],
          "name": "",
          "type": "tuple[]"
        }
      ],
      "payable": false,
      "stateMutability": "view",
      "type": "function"
    },
    {
      "constant": true,
      "inputs": [],
      "name": "getcountUsers",
      "outputs": [
        {
          "name": "",
          "type": "uint256"
        }
      ],
      "payable": false,
      "stateMutability": "view",
      "type": "function"
    },
    {
      "constant": false,
      "inputs": [
        {
          "name": "_creationDate",
          "type": "uint256"
        },
        {
          "name": "_firstName",
          "type": "string"
        },
        {
          "name": "_lastName",
          "type": "string"
        },
        {
          "name": "_role",
          "type": "string"
        },
        {
          "name": "_memberId",
          "type": "uint256"
        }
      ],
      "name": "registerUserRequest",
      "outputs": [],
      "payable": false,
      "stateMutability": "nonpayable",
      "type": "function"
    },
    {
      "constant": true,
      "inputs": [],
      "name": "getCount",
      "outputs": [
        {
          "name": "",
          "type": "uint256"
        }
      ],
      "payable": false,
      "stateMutability": "view",
      "type": "function"
    },
    {
      "constant": true,
      "inputs": [],
      "name": "getMe",
      "outputs": [
        {
          "components": [
            {
              "name": "creationDate",
              "type": "uint256"
            },
            {
              "name": "firstName",
              "type": "string"
            },
            {
              "name": "lastName",
              "type": "string"
            },
            {
              "name": "memberId",
              "type": "uint256"
            },
            {
              "name": "requestId",
              "type": "uint256"
            },
            {
              "name": "role",
              "type": "string"
            },
            {
              "name": "status",
              "type": "uint8"
            },
            {
              "name": "owner",
              "type": "address"
            }
          ],
          "name": "",
          "type": "tuple"
        }
      ],
      "payable": false,
      "stateMutability": "view",
      "type": "function"
    },
    {
      "constant": true,
      "inputs": [
        {
          "name": "_page",
          "type": "uint256"
        }
      ],
      "name": "getMembers",
      "outputs": [
        {
          "components": [
            {
              "name": "memberId",
              "type": "uint256"
            },
            {
              "name": "creationDate",
              "type": "uint256"
            },
            {
              "name": "name",
              "type": "string"
            },
            {
              "name": "logo",
              "type": "string"
            },
            {
              "name": "country",
              "type": "string"
            },
            {
              "name": "cmo",
              "type": "string"
            },
            {
              "name": "theme",
              "type": "string"
            },
            {
              "name": "claimInbox",
              "type": "uint256[]"
            },
            {
              "name": "claims",
              "type": "uint256[]"
            },
            {
              "name": "userRequests",
              "type": "address[]"
            }
          ],
          "name": "",
          "type": "tuple[]"
        }
      ],
      "payable": false,
      "stateMutability": "view",
      "type": "function"
    },
    {
      "constant": false,
      "inputs": [],
      "name": "renounceSigner",
      "outputs": [],
      "payable": false,
      "stateMutability": "nonpayable",
      "type": "function"
    },
    {
      "constant": false,
      "inputs": [
        {
          "name": "account",
          "type": "address"
        }
      ],
      "name": "addSigner",
      "outputs": [],
      "payable": false,
      "stateMutability": "nonpayable",
      "type": "function"
    },
    {
      "constant": false,
      "inputs": [
        {
          "name": "_creationDate",
          "type": "uint256"
        },
        {
          "name": "_name",
          "type": "string"
        },
        {
          "name": "_logo",
          "type": "string"
        },
        {
          "name": "_country",
          "type": "string"
        },
        {
          "name": "_cmo",
          "type": "string"
        },
        {
          "name": "_theme",
          "type": "string"
        }
      ],
      "name": "addMember",
      "outputs": [
        {
          "name": "",
          "type": "uint256"
        }
      ],
      "payable": false,
      "stateMutability": "nonpayable",
      "type": "function"
    },
    {
      "constant": false,
      "inputs": [
        {
          "name": "_firstName",
          "type": "string"
        },
        {
          "name": "_lastName",
          "type": "string"
        },
        {
          "name": "_memberId",
          "type": "uint256"
        },
        {
          "name": "_role",
          "type": "string"
        },
        {
          "name": "owner",
          "type": "address"
        }
      ],
      "name": "updateUser",
      "outputs": [],
      "payable": false,
      "stateMutability": "nonpayable",
      "type": "function"
    },
    {
      "constant": false,
      "inputs": [
        {
          "name": "account",
          "type": "address"
        }
      ],
      "name": "whitelistAdmin",
      "outputs": [],
      "payable": false,
      "stateMutability": "nonpayable",
      "type": "function"
    },
    {
      "anonymous": false,
      "inputs": [
        {
          "indexed": true,
          "name": "account",
          "type": "address"
        }
      ],
      "name": "SignerAdded",
      "type": "event"
    },
    {
      "anonymous": false,
      "inputs": [
        {
          "indexed": true,
          "name": "account",
          "type": "address"
        }
      ],
      "name": "SignerRemoved",
      "type": "event"
    },
    {
      "constant": false,
      "inputs": [
        {
          "name": "_creationDate",
          "type": "uint256"
        },
        {
          "name": "_claimData",
          "type": "bytes"
        },
        {
          "name": "_claimType",
          "type": "bool"
        },
        {
          "name": "_memberOwner",
          "type": "uint256"
        }
      ],
      "name": "registerClaim",
      "outputs": [],
      "payable": false,
      "stateMutability": "nonpayable",
      "type": "function"
    },
    {
      "constant": false,
      "inputs": [
        {
          "name": "_claimId",
          "type": "uint256"
        },
        {
          "name": "_claimData",
          "type": "bytes"
        },
        {
          "name": "_lastChange",
          "type": "uint256"
        }
      ],
      "name": "updateClaim",
      "outputs": [],
      "payable": false,
      "stateMutability": "nonpayable",
      "type": "function"
    },
    {
      "constant": true,
      "inputs": [
        {
          "name": "_claimId",
          "type": "uint256"
        }
      ],
      "name": "getClaim",
      "outputs": [
        {
          "components": [
            {
              "name": "creationDate",
              "type": "uint256"
            },
            {
              "name": "claimId",
              "type": "uint256"
            },
            {
              "components": [
                {
                  "name": "name",
                  "type": "string"
                },
                {
                  "name": "value",
                  "type": "string"
                }
              ],
              "name": "claimData",
              "type": "tuple[]"
            },
            {
              "name": "claimType",
              "type": "bool"
            },
            {
              "name": "memberOwner",
              "type": "uint256"
            },
            {
              "name": "messageLog",
              "type": "string[]"
            },
            {
              "name": "status",
              "type": "bool"
            },
            {
              "name": "lastChange",
              "type": "uint256"
            }
          ],
          "name": "",
          "type": "tuple"
        }
      ],
      "payable": false,
      "stateMutability": "view",
      "type": "function"
    },
    {
      "constant": true,
      "inputs": [
        {
          "name": "_page",
          "type": "uint256"
        }
      ],
      "name": "getClaimsByMemberId",
      "outputs": [
        {
          "components": [
            {
              "name": "creationDate",
              "type": "uint256"
            },
            {
              "name": "claimId",
              "type": "uint256"
            },
            {
              "components": [
                {
                  "name": "name",
                  "type": "string"
                },
                {
                  "name": "value",
                  "type": "string"
                }
              ],
              "name": "claimData",
              "type": "tuple[]"
            },
            {
              "name": "claimType",
              "type": "bool"
            },
            {
              "name": "memberOwner",
              "type": "uint256"
            },
            {
              "name": "messageLog",
              "type": "string[]"
            },
            {
              "name": "status",
              "type": "bool"
            },
            {
              "name": "lastChange",
              "type": "uint256"
            }
          ],
          "name": "",
          "type": "tuple[]"
        }
      ],
      "payable": false,
      "stateMutability": "view",
      "type": "function"
    },
    {
      "constant": true,
      "inputs": [],
      "name": "getClaimsCountByMemberId",
      "outputs": [
        {
          "name": "",
          "type": "uint256"
        }
      ],
      "payable": false,
      "stateMutability": "view",
      "type": "function"
    }
  ],
  "bytecode": "0x608060405260006006556200001d3364010000000062000023810204565b62000108565b6200003e600082640100000000620044b76200007582021704565b604051600160a060020a038216907f47d1c22a25bb3a5d4e481b9b1e6944c2eade3181a0a20b495ed61d35b5323f2490600090a250565b600160a060020a03811615156200008b57600080fd5b620000a08282640100000000620000d0810204565b15620000ab57600080fd5b600160a060020a0316600090815260209190915260409020805460ff19166001179055565b6000600160a060020a0382161515620000e857600080fd5b50600160a060020a03166000908152602091909152604090205460ff1690565b615bb080620001186000396000f3006080604052600436106101325763ffffffff7c010000000000000000000000000000000000000000000000000000000060003504166308bdc24d81146101375780631be8850b14610159578063373cfbb9146101845780634dc92885146101a45780635aef2447146101c45780635d73ab9a146101f157806365ff0c481461021e57806369c212f61461023e5780637df73e271461026b578063932191be146102985780639eab5253146102ad578063a4fdc594146102cf578063a7ed1fe4146102e4578063a87d942c14610304578063b6bc381214610319578063c11e1ff314610346578063c477ecab1461035b578063cb68b9e81461037b578063e5c8b03d1461039b578063eb12d61e146103b0578063fa1188c6146103d0578063fcfbde5b146103f0578063ff240fce14610410575b600080fd5b34801561014357600080fd5b50610157610152366004614ae7565b610430565b005b34801561016557600080fd5b5061016e6105cc565b60405161017b9190615aa1565b60405180910390f35b34801561019057600080fd5b5061015761019f366004614be7565b6105e9565b3480156101b057600080fd5b506101576101bf366004614ae7565b6106db565b3480156101d057600080fd5b506101e46101df366004614bc9565b61083f565b60405161017b9190615a7f565b3480156101fd57600080fd5b5061021161020c366004614bc9565b610b23565b60405161017b9190615920565b34801561022a57600080fd5b50610157610239366004614e74565b610efe565b34801561024a57600080fd5b5061025e610259366004614ae7565b610f8d565b60405161017b9190615a90565b34801561027757600080fd5b5061028b610286366004614ae7565b6111e1565b60405161017b9190615931565b3480156102a457600080fd5b506102116111f9565b3480156102b957600080fd5b506102c26114ea565b60405161017b919061590f565b3480156102db57600080fd5b5061016e6119b1565b3480156102f057600080fd5b506101576102ff366004614dc4565b611a76565b34801561031057600080fd5b5061016e611b35565b34801561032557600080fd5b50610339610334366004614bc9565b611b53565b60405161017b91906158fe565b34801561035257600080fd5b5061025e611f3a565b34801561036757600080fd5b506102c2610376366004614bc9565b611fcb565b34801561038757600080fd5b50610157610396366004614c60565b6124e6565b3480156103a757600080fd5b50610157612632565b3480156103bc57600080fd5b506101576103cb366004614ae7565b61263d565b3480156103dc57600080fd5b5061016e6103eb366004614cc5565b61265a565b3480156103fc57600080fd5b5061015761040b366004614b0d565b6126e9565b34801561041c57600080fd5b5061015761042b366004614ae7565b6127d7565b600160a060020a0381811660009081526003602052604081206006015461010090049091161161047e5760405160e560020a62461bcd0281526004016104759061597f565b60405180910390fd5b600160a060020a03811660009081526003602081905260408083208201543384529220015414806104b357506104b3336111e1565b15156104d45760405160e560020a62461bcd0281526004016104759061598f565b60023360009081526003602052604090206006015460ff1660028111156104f757fe5b14806105075750610507336111e1565b15156105285760405160e560020a62461bcd02815260040161047590615a3f565b6001600160a060020a03821660009081526003602052604090206006015460ff16600281111561055457fe5b146105745760405160e560020a62461bcd0281526004016104759061595f565b600160a060020a038116600090815260036020526040902060060180546002919060ff19166001835b0217905550600160a060020a038116600090815260036020819052604090912001546105c990826128ab565b50565b6000806105d7612a1a565b90506105e281612a31565b91505b5090565b6000606081861161060f5760405160e560020a62461bcd02815260040161047590615a6f565b6006805460010190819055915061062583612a46565b15156106465760405160e560020a62461bcd028152600401610475906159df565b61064e612a1a565b6040805160008082526020820190925291945061067b565b60608152602001906001900390816106665790505b50905061068f82878787878660008d612a59565b6106998383612bfa565b600160065411156106af576106af828587612c1f565b60008281526005602052604090206006015460ff16156106d3576106d38383613480565b505050505050565b600160a060020a038181166000908152600360205260408120600601546101009004909116116107205760405160e560020a62461bcd0281526004016104759061597f565b600160a060020a03811660009081526003602081905260408083208201543384529220015414806107555750610755336111e1565b15156107765760405160e560020a62461bcd0281526004016104759061598f565b60023360009081526003602052604090206006015460ff16600281111561079957fe5b14806107a957506107a9336111e1565b15156107ca5760405160e560020a62461bcd02815260040161047590615a3f565b6001600160a060020a03821660009081526003602052604090206006015460ff1660028111156107f657fe5b146108165760405160e560020a62461bcd0281526004016104759061599f565b600160a060020a0381166000908152600360205260408120600601805460ff191660018361059d565b6108476146bf565b600560008381526020019081526020016000206101006040519081016040529081600082015481526020016001820154815260200160028201805480602002602001604051908101604052809291908181526020016000905b828210156109fe5760008481526020908190206040805160028681029093018054600181161561010002600019011693909304601f8101859004909402810160609081018352918101848152909384928491908401828280156109445780601f1061091957610100808354040283529160200191610944565b820191906000526020600020905b81548152906001019060200180831161092757829003601f168201915b50505050508152602001600182018054600181600116156101000203166002900480601f0160208091040260200160405190810160405280929190818152602001828054600181600116156101000203166002900480156109e65780601f106109bb576101008083540402835291602001916109e6565b820191906000526020600020905b8154815290600101906020018083116109c957829003601f168201915b505050505081525050815260200190600101906108a0565b5050505081526020016003820160009054906101000a900460ff161515151581526020016004820154815260200160058201805480602002602001604051908101604052809291908181526020016000905b82821015610afb5760008481526020908190208301805460408051601f6002600019610100600187161502019094169390930492830185900485028101850190915281815292830182828015610ae75780601f10610abc57610100808354040283529160200191610ae7565b820191906000526020600020905b815481529060010190602001808311610aca57829003601f168201915b505050505081526020019060010190610a50565b50505090825250600682015460ff161515602082015260079091015460409091015292915050565b606060008060006060600080610b376119b1565b9550610b44600a896134a5565b600454909550610b5590600a6134de565b9350851580610b6357508585115b80610b6d57508388115b15610b7757610ef3565b60408051600a808252610160820190925290816020015b610b96614709565b815260200190600190039081610b8e579050509250600091508490505b600454811015610eef5733600090815260036020819052604082208101546004805491939185908110610be257fe5b6000918252602080832090910154600160a060020a03168352820192909252604001902060030154148015610c5f5750600260036000600484815481101515610c2757fe5b6000918252602080832090910154600160a060020a0316835282019290925260400190206006015460ff166002811115610c5d57fe5b145b15610ee75760036000600483815481101515610c7757fe5b600091825260208083209190910154600160a060020a0316835282810193909352604091820190208151610100808201845282548252600180840180548651600293821615909402600019011691909104601f81018790048702830187019095528482529194929385840193919291830182828015610d375780601f10610d0c57610100808354040283529160200191610d37565b820191906000526020600020905b815481529060010190602001808311610d1a57829003601f168201915b5050509183525050600282810180546040805160206001841615610100026000190190931694909404601f81018390048302850183019091528084529381019390830182828015610dc95780601f10610d9e57610100808354040283529160200191610dc9565b820191906000526020600020905b815481529060010190602001808311610dac57829003601f168201915b505050505081526020016003820154815260200160048201548152602001600582018054600181600116156101000203166002900480601f016020809104026020016040519081016040528092919081815260200182805460018160011615610100020316600290048015610e7f5780601f10610e5457610100808354040283529160200191610e7f565b820191906000526020600020905b815481529060010190602001808311610e6257829003601f168201915b5050509183525050600682015460209091019060ff166002811115610ea057fe5b6002811115610eab57fe5b8152600691909101546101009004600160a060020a03166020909101528351849084908110610ed657fe5b602090810290910101526001909101905b600101610bb3565b8296505b505050505050919050565b610f07336111e1565b1515610f1257600080fd5b60008781526001602052604081205411610f415760405160e560020a62461bcd02815260040161047590615a0f565b600087815260016020819052604090912001548614610f755760405160e560020a62461bcd0281526004016104759061593f565b610f8487878787878787613501565b50505050505050565b610f95614709565b600160a060020a0382166000908152600360209081526040918290208251610100808201855282548252600180840180548751600293821615909402600019011691909104601f810186900486028301860190965285825291949293858101939192919083018282801561104a5780601f1061101f5761010080835404028352916020019161104a565b820191906000526020600020905b81548152906001019060200180831161102d57829003601f168201915b5050509183525050600282810180546040805160206001841615610100026000190190931694909404601f810183900483028501830190915280845293810193908301828280156110dc5780601f106110b1576101008083540402835291602001916110dc565b820191906000526020600020905b8154815290600101906020018083116110bf57829003601f168201915b505050505081526020016003820154815260200160048201548152602001600582018054600181600116156101000203166002900480601f0160208091040260200160405190810160405280929190818152602001828054600181600116156101000203166002900480156111925780601f1061116757610100808354040283529160200191611192565b820191906000526020600020905b81548152906001019060200180831161117557829003601f168201915b5050509183525050600682015460209091019060ff1660028111156111b357fe5b60028111156111be57fe5b8152600691909101546101009004600160a060020a031660209091015292915050565b60006111f3818363ffffffff613afa16565b92915050565b6060806000611207336111e1565b151561121257600080fd5b60045460408051828152602080840282010190915290801561124e57816020015b61123b614709565b8152602001906001900390816112335790505b509150600090505b6004548110156114e4576003600060048381548110151561127357fe5b600091825260208083209190910154600160a060020a0316835282810193909352604091820190208151610100808201845282548252600180840180548651600293821615909402600019011691909104601f810187900487028301870190955284825291949293858401939192918301828280156113335780601f1061130857610100808354040283529160200191611333565b820191906000526020600020905b81548152906001019060200180831161131657829003601f168201915b5050509183525050600282810180546040805160206001841615610100026000190190931694909404601f810183900483028501830190915280845293810193908301828280156113c55780601f1061139a576101008083540402835291602001916113c5565b820191906000526020600020905b8154815290600101906020018083116113a857829003601f168201915b505050505081526020016003820154815260200160048201548152602001600582018054600181600116156101000203166002900480601f01602080910402602001604051908101604052809291908181526020018280546001816001161561010002031660029004801561147b5780601f106114505761010080835404028352916020019161147b565b820191906000526020600020905b81548152906001019060200180831161145e57829003601f168201915b5050509183525050600682015460209091019060ff16600281111561149c57fe5b60028111156114a757fe5b8152600691909101546101009004600160a060020a031660209091015282518390839081106114d257fe5b60209081029091010152600101611256565b50919050565b606080600060028054905060405190808252806020026020018201604052801561152e57816020015b61151b61475a565b8152602001906001900390816115135790505b509150600090505b6002548110156114e4576001600060028381548110151561155357fe5b9060005260206000200154815260200190815260200160002061014060405190810160405290816000820154815260200160018201548152602001600282018054600181600116156101000203166002900480601f0160208091040260200160405190810160405280929190818152602001828054600181600116156101000203166002900480156116265780601f106115fb57610100808354040283529160200191611626565b820191906000526020600020905b81548152906001019060200180831161160957829003601f168201915b505050918352505060038201805460408051602060026001851615610100026000190190941693909304601f81018490048402820184019092528181529382019392918301828280156116ba5780601f1061168f576101008083540402835291602001916116ba565b820191906000526020600020905b81548152906001019060200180831161169d57829003601f168201915b505050918352505060048201805460408051602060026001851615610100026000190190941693909304601f810184900484028201840190925281815293820193929183018282801561174e5780601f106117235761010080835404028352916020019161174e565b820191906000526020600020905b81548152906001019060200180831161173157829003601f168201915b505050918352505060058201805460408051602060026001851615610100026000190190941693909304601f81018490048402820184019092528181529382019392918301828280156117e25780601f106117b7576101008083540402835291602001916117e2565b820191906000526020600020905b8154815290600101906020018083116117c557829003601f168201915b505050918352505060068201805460408051602060026001851615610100026000190190941693909304601f81018490048402820184019092528181529382019392918301828280156118765780601f1061184b57610100808354040283529160200191611876565b820191906000526020600020905b81548152906001019060200180831161185957829003601f168201915b50505050508152602001600782018054806020026020016040519081016040528092919081815260200182805480156118ce57602002820191906000526020600020905b8154815260200190600101908083116118ba575b505050505081526020016008820180548060200260200160405190810160405280929190818152602001828054801561192657602002820191906000526020600020905b815481526020019060010190808311611912575b505050505081526020016009820180548060200260200160405190810160405280929190818152602001828054801561198857602002820191906000526020600020905b8154600160a060020a0316815260019091019060200180831161196a575b505050505081525050828281518110151561199f57fe5b60209081029091010152600101611536565b600080805b6004548110156114e457336000908152600360208190526040822081015460048054919391859081106119e557fe5b6000918252602080832090910154600160a060020a03168352820192909252604001902060030154148015611a625750600260036000600484815481101515611a2a57fe5b6000918252602080832090910154600160a060020a0316835282019290925260400190206006015460ff166002811115611a6057fe5b145b15611a6e576001909101905b6001016119b6565b6000811515611a9a5760405160e560020a62461bcd02815260040161047590615a5f565b60008611611abd5760405160e560020a62461bcd02815260040161047590615a6f565b3360009081526003602052604090205415611aed5760405160e560020a62461bcd0281526004016104759061596f565b611af682612a46565b1515611b175760405160e560020a62461bcd02815260040161047590615a0f565b611b2086613b31565b90506106d38686868585886001336000613d20565b6000611b40336111e1565b1515611b4b57600080fd5b506002545b90565b6060600080600080606080600080611b6c600a8b6134a5565b9750611b76612a1a565b9650611b8187612a31565b9550611b8e86600a6134de565b9450851580611b9f57506001860388115b80611ba95750848a115b15611bb357611f2d565b611bbc87614174565b60408051600a8082526101608201909252919550816020015b611bdd6146bf565b815260200190600190039081611bd5579050509250600091508790505b8351811015611f2957600a821015611f1c57600560008583815181101515611c1e57fe5b9060200190602002015181526020019081526020016000206101006040519081016040529081600082015481526020016001820154815260200160028201805480602002602001604051908101604052809291908181526020016000905b82821015611dda5760008481526020908190206040805160028681029093018054600181161561010002600019011693909304601f810185900490940281016060908101835291810184815290938492849190840182828015611d205780601f10611cf557610100808354040283529160200191611d20565b820191906000526020600020905b815481529060010190602001808311611d0357829003601f168201915b50505050508152602001600182018054600181600116156101000203166002900480601f016020809104026020016040519081016040528092919081815260200182805460018160011615610100020316600290048015611dc25780601f10611d9757610100808354040283529160200191611dc2565b820191906000526020600020905b815481529060010190602001808311611da557829003601f168201915b50505050508152505081526020019060010190611c7c565b5050505081526020016003820160009054906101000a900460ff161515151581526020016004820154815260200160058201805480602002602001604051908101604052809291908181526020016000905b82821015611ed75760008481526020908190208301805460408051601f6002600019610100600187161502019094169390930492830185900485028101850190915281815292830182828015611ec35780601f10611e9857610100808354040283529160200191611ec3565b820191906000526020600020905b815481529060010190602001808311611ea657829003601f168201915b505050505081526020019060010190611e2c565b50505090825250600682015460ff16151560208201526007909101546040909101528351849084908110611f0757fe5b60209081029091010152600190910190611f21565b611f29565b600101611bfa565b8298505b5050505050505050919050565b611f42614709565b611f4a614709565b336000908152600360209081526040918290208251610100808201855282548252600180840180548751600293821615909402600019011691909104601f810186900486028301860190965285825291949293858101939192919083018282801561104a5780601f1061101f5761010080835404028352916020019161104a565b6060600080600060606000611fe1600a886134a5565b600254909550611ff290600a6134de565b600254909450158061200957506002546000190185115b8061201357508387115b1561201d576124dc565b60408051600a80825261016082019092526000945090816020015b61204061475a565b8152602001906001900390816120385790505091508490505b6002548110156124d8576001600060028381548110151561207657fe5b9060005260206000200154815260200190815260200160002061014060405190810160405290816000820154815260200160018201548152602001600282018054600181600116156101000203166002900480601f0160208091040260200160405190810160405280929190818152602001828054600181600116156101000203166002900480156121495780601f1061211e57610100808354040283529160200191612149565b820191906000526020600020905b81548152906001019060200180831161212c57829003601f168201915b505050918352505060038201805460408051602060026001851615610100026000190190941693909304601f81018490048402820184019092528181529382019392918301828280156121dd5780601f106121b2576101008083540402835291602001916121dd565b820191906000526020600020905b8154815290600101906020018083116121c057829003601f168201915b505050918352505060048201805460408051602060026001851615610100026000190190941693909304601f81018490048402820184019092528181529382019392918301828280156122715780601f1061224657610100808354040283529160200191612271565b820191906000526020600020905b81548152906001019060200180831161225457829003601f168201915b505050918352505060058201805460408051602060026001851615610100026000190190941693909304601f81018490048402820184019092528181529382019392918301828280156123055780601f106122da57610100808354040283529160200191612305565b820191906000526020600020905b8154815290600101906020018083116122e857829003601f168201915b505050918352505060068201805460408051602060026001851615610100026000190190941693909304601f81018490048402820184019092528181529382019392918301828280156123995780601f1061236e57610100808354040283529160200191612399565b820191906000526020600020905b81548152906001019060200180831161237c57829003601f168201915b50505050508152602001600782018054806020026020016040519081016040528092919081815260200182805480156123f157602002820191906000526020600020905b8154815260200190600101908083116123dd575b505050505081526020016008820180548060200260200160405190810160405280929190818152602001828054801561244957602002820191906000526020600020905b815481526020019060010190808311612435575b50505050508152602001600982018054806020026020016040519081016040528092919081815260200182805480156124ab57602002820191906000526020600020905b8154600160a060020a0316815260019091019060200180831161248d575b50505050508152505082848151811015156124c257fe5b6020908102909101015260019283019201612059565b8195505b5050505050919050565b600083815260056020526040812060010154116125185760405160e560020a62461bcd028152600401610475906159bf565b600083815260056020818152604080842080546003820154600483015492909501805484518187028101870190955280855261262d978b9793968b9660ff90951695949392919084015b8282101561260d5760008481526020908190208301805460408051601f60026000196101006001871615020190941693909304928301859004850281018501909152818152928301828280156125f95780601f106125ce576101008083540402835291602001916125f9565b820191906000526020600020905b8154815290600101906020018083116125dc57829003601f168201915b505050505081526020019060010190612562565b50505060008b81526005602052604090206006015460ff16905088612a59565b505050565b61263b33614209565b565b612646336111e1565b151561265157600080fd5b6105c981614251565b600080612666336111e1565b151561267157600080fd5b600088116126945760405160e560020a62461bcd02815260040161047590615a6f565b61269d88613b31565b600081815260016020526040902054909150156126cf5760405160e560020a62461bcd028152600401610475906159ef565b6126de81898989898989613501565b979650505050505050565b600160a060020a038181166000908152600360205260408120600601549091829182916101009091041681106127345760405160e560020a62461bcd0281526004016104759061597f565b6002600160a060020a03851660009081526003602052604090206006015460ff16600281111561276057fe5b146127805760405160e560020a62461bcd02815260040161047590615a3f565b600160a060020a03841660009081526003602052604090206004810154815460069092015490945090925060ff1660028111156127b957fe5b90506127cd82898989878a878b6001613d20565b5050505050505050565b6127e0336111e1565b15156127eb57600080fd5b600160a060020a0381166000908152600360208190526040909120015461281290826128ab565b604080518082018252600b81527f53757065722061646d696e0000000000000000000000000000000000000000006020808301918252600160a060020a0385166000908152600390915292909220905161287292600590920191906147ae565b50600160a060020a0381166000908152600360208190526040822090810191909155600601805460ff191660021790556105c98161263d565b6000805b600084815260016020526040902060090154600019018110156129ab5760008481526001602052604090206009018054600160a060020a0385169190839081106128f557fe5b600091825260209091200154600160a060020a0316141561291557600191505b81156129a357600084815260016020819052604090912060090180549091830190811061293e57fe5b6000918252602080832090910154868352600190915260409091206009018054600160a060020a03909216918390811061297457fe5b9060005260206000200160006101000a815481600160a060020a030219169083600160a060020a031602179055505b6001016128af565b6000848152600160205260409020600901805460001981019081106129cc57fe5b60009182526020808320909101805473ffffffffffffffffffffffffffffffffffffffff191690558582526001905260409020600901805490612a13906000198301614828565b5050505050565b336000908152600360208190526040909120015490565b60009081526001602052604090206008015490565b6000908152600160205260408120541190565b612a6161484c565b606060006060612a708a614299565b9350612a7b846142e7565b60008d8152600560205260408120600181018f90558d815560038101805460ff19168d1515179055919450612ab39160020190614863565b600091505b8251821015612b9857612ae18383815181101515612ad257fe5b906020019060200201516142e7565b9050600560008d81526020019081526020016000206002016040805190810160405280612b25846000815181101515612b1657fe5b906020019060200201516143ba565b8152602001612b3c846001815181101515612b1657fe5b90528154600181018084556000938452602093849020835180519295600290940290910192612b70928492909101906147ae565b506020828101518051612b8992600185019201906147ae565b50505050816001019150612ab8565b60008c8152600560208181526040909220600481018b9055600781018890558951612bcb939190920191908a0190614884565b5050506000998a5250506005602052506040909620600601805460ff1916961515969096179095555050505050565b6000918252600160208181526040842060080180549283018155845290922090910155565b612c2761484c565b6060600080600654111515612c515760405160e560020a62461bcd028152600401610475906159ff565b612c5a84614299565b9250612c65836142e7565b9150600190505b60065481116106d357848015612c93575060008181526005602052604090206003015460ff165b8015612c9f5750808614155b1561347857600081815260056020526040902060020180546006908110612cc257fe5b90600052602060002090600202016001016040516020018082805460018160011615610100020316600290048015612d315780601f10612d0f576101008083540402835291820191612d31565b820191906000526020600020905b815481529060010190602001808311612d1d575b50509150506040516020818303038152906040526040518082805190602001908083835b60208310612d745780518252601f199092019160209182019101612d55565b6001836020036101000a038019825116818451168082178552505050505050905001915050604051809103902060001916612dc7612dba846006815181101515612ad257fe5b80516001908110612b1657fe5b6040516020018082805190602001908083835b60208310612df95780518252601f199092019160209182019101612dda565b6001836020036101000a0380198251168184511680821785525050505050509050019150506040516020818303038152906040526040518082805190602001908083835b60208310612e5c5780518252601f199092019160209182019101612e3d565b6001836020036101000a0380198251168184511680821785525050505050509050019150506040518091039020600019161480156130735750600081815260056020526040902060020180546003908110612eb357fe5b90600052602060002090600202016001016040516020018082805460018160011615610100020316600290048015612f225780601f10612f00576101008083540402835291820191612f22565b820191906000526020600020905b815481529060010190602001808311612f0e575b50509150506040516020818303038152906040526040518082805190602001908083835b60208310612f655780518252601f199092019160209182019101612f46565b6001836020036101000a038019825116818451168082178552505050505050905001915050604051809103902060001916612fab612dba846003815181101515612ad257fe5b6040516020018082805190602001908083835b60208310612fdd5780518252601f199092019160209182019101612fbe565b6001836020036101000a0380198251168184511680821785525050505050509050019150506040516020818303038152906040526040518082805190602001908083835b602083106130405780518252601f199092019160209182019101613021565b6001836020036101000a038019825116818451168082178552505050505050905001915050604051809103902060001916145b8015613258575060008181526005602052604090206002018054600490811061309857fe5b906000526020600020906002020160010160405160200180828054600181600116156101000203166002900480156131075780601f106130e5576101008083540402835291820191613107565b820191906000526020600020905b8154815290600101906020018083116130f3575b50509150506040516020818303038152906040526040518082805190602001908083835b6020831061314a5780518252601f19909201916020918201910161312b565b6001836020036101000a038019825116818451168082178552505050505050905001915050604051809103902060001916613190612dba846004815181101515612ad257fe5b6040516020018082805190602001908083835b602083106131c25780518252601f1990920191602091820191016131a3565b6001836020036101000a0380198251168184511680821785525050505050509050019150506040516020818303038152906040526040518082805190602001908083835b602083106132255780518252601f199092019160209182019101613206565b6001836020036101000a038019825116818451168082178552505050505050905001915050604051809103902060001916145b801561343d575060008181526005602052604081206002018054909190811061327d57fe5b906000526020600020906002020160010160405160200180828054600181600116156101000203166002900480156132ec5780601f106132ca5761010080835404028352918201916132ec565b820191906000526020600020905b8154815290600101906020018083116132d8575b50509150506040516020818303038152906040526040518082805190602001908083835b6020831061332f5780518252601f199092019160209182019101613310565b6001836020036101000a038019825116818451168082178552505050505050905001915050604051809103902060001916613375612dba846000815181101515612ad257fe5b6040516020018082805190602001908083835b602083106133a75780518252601f199092019160209182019101613388565b6001836020036101000a0380198251168184511680821785525050505050509050019150506040516020818303038152906040526040518082805190602001908083835b6020831061340a5780518252601f1990920191602091820191016133eb565b6001836020036101000a038019825116818451168082178552505050505050905001915050604051809103902060001916145b156134785760008681526005602052604080822060069081018054600160ff1991821681179092558585529290932001805490911690911790555b600101612c6c565b6000918252600160208181526040842060070180549283018155845290922090910155565b6000808315156134b857600091506134d7565b508282028284828115156134c857fe5b04146134d357600080fd5b8091505b5092915050565b6000808083116134ed57600080fd5b82848115156134f857fe5b04949350505050565b61350961475a565b8551151561352c5760405160e560020a62461bcd02815260040161047590615a4f565b8251151561354f5760405160e560020a62461bcd02815260040161047590615a2f565b815115156135725760405160e560020a62461bcd02815260040161047590615a1f565b6000888152600160208181526040928390208351610140810185528154815281840154818401526002808301805487519681161561010002600019011691909104601f8101859004850286018501875280865291959294928601939091908301828280156136215780601f106135f657610100808354040283529160200191613621565b820191906000526020600020905b81548152906001019060200180831161360457829003601f168201915b505050918352505060038201805460408051602060026001851615610100026000190190941693909304601f81018490048402820184019092528181529382019392918301828280156136b55780601f1061368a576101008083540402835291602001916136b5565b820191906000526020600020905b81548152906001019060200180831161369857829003601f168201915b505050918352505060048201805460408051602060026001851615610100026000190190941693909304601f81018490048402820184019092528181529382019392918301828280156137495780601f1061371e57610100808354040283529160200191613749565b820191906000526020600020905b81548152906001019060200180831161372c57829003601f168201915b505050918352505060058201805460408051602060026001851615610100026000190190941693909304601f81018490048402820184019092528181529382019392918301828280156137dd5780601f106137b2576101008083540402835291602001916137dd565b820191906000526020600020905b8154815290600101906020018083116137c057829003601f168201915b505050918352505060068201805460408051602060026001851615610100026000190190941693909304601f81018490048402820184019092528181529382019392918301828280156138715780601f1061384657610100808354040283529160200191613871565b820191906000526020600020905b81548152906001019060200180831161385457829003601f168201915b50505050508152602001600782018054806020026020016040519081016040528092919081815260200182805480156138c957602002820191906000526020600020905b8154815260200190600101908083116138b5575b505050505081526020016008820180548060200260200160405190810160405280929190818152602001828054801561392157602002820191906000526020600020905b81548152602001906001019080831161390d575b505050505081526020016009820180548060200260200160405190810160405280929190818152602001828054801561398357602002820191906000526020600020905b8154600160a060020a03168152600190910190602001808311613965575b50505091909252505050888152602080820189815260408084018a8152606085018a90526080850189905260a0850188905260c0850187905260008d8152600180865292902085518155925191830191909155518051939450849391926139f2926002850192909101906147ae565b5060608201518051613a0e9160038401916020909101906147ae565b5060808201518051613a2a9160048401916020909101906147ae565b5060a08201518051613a469160058401916020909101906147ae565b5060c08201518051613a629160068401916020909101906147ae565b5060e08201518051613a7e9160078401916020909101906148dd565b506101008201518051613a9b9160088401916020909101906148dd565b506101208201518051613ab8916009840191602090910190614917565b5050600280546001810182556000919091527f405787fa12a823e0f2b7631cc41b3ba8828b3321ca811111fa75cd3aa3bb5ace01989098555050505050505050565b6000600160a060020a0382161515613b1157600080fd5b50600160a060020a03166000908152602091909152604090205460ff1690565b6000808080600285061515613bc35784604051602001808281526020019150506040516020818303038152906040526040518082805190602001908083835b60208310613b8f5780518252601f199092019160209182019101613b70565b6001836020036101000a03801982511681845116808217855250505050505090500191505060405180910390209250613cae565b84604051602001808281526020019150506040516020818303038152906040526040518082805190602001908083835b60208310613c125780518252601f199092019160209182019101613bf3565b51815160209384036101000a600019018019909216911617905260408051929094018290038220828201528351808303820181529184019384905281519195509293508392850191508083835b60208310613c7e5780518252601f199092019160209182019101613c5f565b6001836020036101000a038019825116818451168082178552505050505050905001915050604051809103902092505b6020811015613cdb57828160208110613cc357fe5b60f860020a91901a8102049190910190600101613cae565b826020600284010660208110613ced57fe5b60f860020a91901a810204836020840660208110613d0757fe5b1a60f860020a0260f860020a9004029350505050919050565b613d28614709565b600084101580613d39575060028411155b1515613d5a5760405160e560020a62461bcd028152600401610475906159af565b84511515613d7d5760405160e560020a62461bcd0281526004016104759061594f565b600160a060020a0383166000908152600360209081526040918290208251610100808201855282548252600180840180548751600293821615909402600019011691909104601f8101869004860283018601909652858252919492938581019391929190830182828015613e325780601f10613e0757610100808354040283529160200191613e32565b820191906000526020600020905b815481529060010190602001808311613e1557829003601f168201915b5050509183525050600282810180546040805160206001841615610100026000190190931694909404601f81018390048302850183019091528084529381019390830182828015613ec45780601f10613e9957610100808354040283529160200191613ec4565b820191906000526020600020905b815481529060010190602001808311613ea757829003601f168201915b505050505081526020016003820154815260200160048201548152602001600582018054600181600116156101000203166002900480601f016020809104026020016040519081016040528092919081815260200182805460018160011615610100020316600290048015613f7a5780601f10613f4f57610100808354040283529160200191613f7a565b820191906000526020600020905b815481529060010190602001808311613f5d57829003601f168201915b5050509183525050600682015460209091019060ff166002811115613f9b57fe5b6002811115613fa657fe5b8152600691909101546101009004600160a060020a03166020918201528b825281018a905260408101899052606081018890526080810187905260a081018690529050836002811115613ff557fe5b8160c00190600281111561400557fe5b9081600281111561401257fe5b905250600160a060020a03831660e0820181905260009081526003602090815260409091208251815581830151805184936140549260018501929101906147ae565b50604082015180516140709160028401916020909101906147ae565b50606082015160038201556080820151600482015560a082015180516140a09160058401916020909101906147ae565b5060c082015160068201805460ff191660018360028111156140be57fe5b021790555060e0919091015160069091018054600160a060020a039092166101000274ffffffffffffffffffffffffffffffffffffffff001990921691909117905581151561416857600480546001810182556000919091527f8a35acfbc15ff81a39ae7d344fd709f28e8600b4aa8c65c6b64bfe7fe36bd19b01805473ffffffffffffffffffffffffffffffffffffffff1916600160a060020a0385161790556141688761442c565b50505050505050505050565b600081815260016020526040812054606091106141a65760405160e560020a62461bcd028152600401610475906159cf565b600082815260016020908152604091829020600801805483518184028101840190945280845290918301828280156141fd57602002820191906000526020600020905b8154815260200190600101908083116141e9575b50505050509050919050565b61421a60008263ffffffff61446b16565b604051600160a060020a038216907f3525e22824a8a7df2c9a6029941c824cf95b6447f1e13d5128fd3826d35afe8b90600090a250565b61426260008263ffffffff6144b716565b604051600160a060020a038216907f47d1c22a25bb3a5d4e481b9b1e6944c2eade3181a0a20b495ed61d35b5323f2490600090a250565b6142a161484c565b60008251600014156142c857604080518082019091526000808252602082015291506114e4565b5050604080518082019091528151815260209182019181019190915290565b60606000806000806142f886614505565b151561430357600080fd5b61430c86614534565b93508360405190808252806020026020018201604052801561434857816020015b61433561484c565b81526020019060019003908161432d5790505b5094506143588660200151614584565b8660200151019250600090505b838110156143b157614376836145e7565b9150604080519081016040528083815260200184815250858281518110151561439b57fe5b6020908102909101015291810191600101614365565b50505050919050565b6060600080606060006143d08660200151614584565b9350838660000151039250826040519080825280601f01601f191660200182016040528015614409578160200160208202803883390190505b509150816020019050614423848760200151018285614678565b50949350505050565b6000908152600160208181526040832060090180549283018155835290912001805473ffffffffffffffffffffffffffffffffffffffff191633179055565b600160a060020a038116151561448057600080fd5b61448a8282613afa565b151561449557600080fd5b600160a060020a0316600090815260209190915260409020805460ff19169055565b600160a060020a03811615156144cc57600080fd5b6144d68282613afa565b156144e057600080fd5b600160a060020a0316600090815260209190915260409020805460ff19166001179055565b6020810151805160009190821a9060c060ff83161015614528576000925061452d565b600192505b5050919050565b6000806000806000925061454b8560200151614584565b6020860151865191810193500190505b8082101561457b5761456c826145e7565b6001909301929091019061455b565b50909392505050565b8051600090811a608081101561459d57600091506114e4565b60b88110806145b8575060c081108015906145b8575060f881105b156145c657600191506114e4565b60c08110156145db5760b519810191506114e4565b60f519810191506114e4565b8051600090811a608081101561460057600191506114e4565b60b881101561461557607e19810191506114e4565b60c08110156146425760b78103600184019350806020036101000a845104600182018101935050506114e4565b60f88110156146575760be19810191506114e4565b60019290920151602083900360f7016101000a900490910160f51901919050565b60005b6020821061469d578351835260209384019390920191601f199091019061467b565b50915181516020939093036101000a6000190180199091169216919091179052565b610100604051908101604052806000815260200160008152602001606081526020016000151581526020016000815260200160608152602001600015158152602001600081525090565b610100604051908101604052806000815260200160608152602001606081526020016000815260200160008152602001606081526020016000600281111561474d57fe5b8152600060209091015290565b61014060405190810160405280600081526020016000815260200160608152602001606081526020016060815260200160608152602001606081526020016060815260200160608152602001606081525090565b828054600181600116156101000203166002900490600052602060002090601f016020900481019282601f106147ef57805160ff191683800117855561481c565b8280016001018555821561481c579182015b8281111561481c578251825591602001919060010190614801565b506105e5929150614985565b81548183558181111561262d5760008381526020902061262d918101908301614985565b604080518082019091526000808252602082015290565b50805460008255600202906000526020600020908101906105c9919061499f565b8280548282559060005260206000209081019282156148d1579160200282015b828111156148d157825180516148c19184916020909101906147ae565b50916020019190600101906148a4565b506105e59291506149d0565b82805482825590600052602060002090810192821561481c579160200282018281111561481c578251825591602001919060010190614801565b828054828255906000526020600020908101928215614979579160200282015b82811115614979578251825473ffffffffffffffffffffffffffffffffffffffff1916600160a060020a03909116178255602090920191600190910190614937565b506105e59291506149f3565b611b5091905b808211156105e5576000815560010161498b565b611b5091905b808211156105e55760006149b98282614a24565b6149c7600183016000614a24565b506002016149a5565b611b5091905b808211156105e55760006149ea8282614a24565b506001016149d6565b611b5091905b808211156105e557805473ffffffffffffffffffffffffffffffffffffffff191681556001016149f9565b50805460018160011615610100020316600290046000825580601f10614a4a57506105c9565b601f0160209004906000526020600020908101906105c99190614985565b6000614a748235615b08565b9392505050565b6000614a748235615b14565b6000601f82018313614a9857600080fd5b8135614aab614aa682615ad6565b615aaf565b91508082526020830160208301858383011115614ac757600080fd5b614ad2838284615b30565b50505092915050565b6000614a748235611b50565b600060208284031215614af957600080fd5b6000614b058484614a68565b949350505050565b600080600080600060a08688031215614b2557600080fd5b853567ffffffffffffffff811115614b3c57600080fd5b614b4888828901614a87565b955050602086013567ffffffffffffffff811115614b6557600080fd5b614b7188828901614a87565b9450506040614b8288828901614adb565b935050606086013567ffffffffffffffff811115614b9f57600080fd5b614bab88828901614a87565b9250506080614bbc88828901614a68565b9150509295509295909350565b600060208284031215614bdb57600080fd5b6000614b058484614adb565b60008060008060808587031215614bfd57600080fd5b6000614c098787614adb565b945050602085013567ffffffffffffffff811115614c2657600080fd5b614c3287828801614a87565b9350506040614c4387828801614a7b565b9250506060614c5487828801614adb565b91505092959194509250565b600080600060608486031215614c7557600080fd5b6000614c818686614adb565b935050602084013567ffffffffffffffff811115614c9e57600080fd5b614caa86828701614a87565b9250506040614cbb86828701614adb565b9150509250925092565b60008060008060008060c08789031215614cde57600080fd5b6000614cea8989614adb565b965050602087013567ffffffffffffffff811115614d0757600080fd5b614d1389828a01614a87565b955050604087013567ffffffffffffffff811115614d3057600080fd5b614d3c89828a01614a87565b945050606087013567ffffffffffffffff811115614d5957600080fd5b614d6589828a01614a87565b935050608087013567ffffffffffffffff811115614d8257600080fd5b614d8e89828a01614a87565b92505060a087013567ffffffffffffffff811115614dab57600080fd5b614db789828a01614a87565b9150509295509295509295565b600080600080600060a08688031215614ddc57600080fd5b6000614de88888614adb565b955050602086013567ffffffffffffffff811115614e0557600080fd5b614e1188828901614a87565b945050604086013567ffffffffffffffff811115614e2e57600080fd5b614e3a88828901614a87565b935050606086013567ffffffffffffffff811115614e5757600080fd5b614e6388828901614a87565b9250506080614bbc88828901614adb565b600080600080600080600060e0888a031215614e8f57600080fd5b6000614e9b8a8a614adb565b9750506020614eac8a828b01614adb565b965050604088013567ffffffffffffffff811115614ec957600080fd5b614ed58a828b01614a87565b955050606088013567ffffffffffffffff811115614ef257600080fd5b614efe8a828b01614a87565b945050608088013567ffffffffffffffff811115614f1b57600080fd5b614f278a828b01614a87565b93505060a088013567ffffffffffffffff811115614f4457600080fd5b614f508a828b01614a87565b92505060c088013567ffffffffffffffff811115614f6d57600080fd5b614f798a828b01614a87565b91505092959891949750929550565b614f9181615b08565b82525050565b6000614fa282615b04565b808452602084019350614fb483615afe565b60005b82811015614fe457614fca868351614f88565b614fd382615afe565b602096909601959150600101614fb7565b5093949350505050565b6000614ff982615b04565b8084526020840193508360208202850161501285615afe565b60005b8481101561504957838303885261502d838351615220565b925061503882615afe565b602098909801979150600101615015565b50909695505050505050565b600061506082615b04565b8084526020840193508360208202850161507985615afe565b60005b84811015615049578383038852615094838351615661565b925061509f82615afe565b60209890980197915060010161507c565b60006150bb82615b04565b808452602084019350836020820285016150d485615afe565b60005b848110156150495783830388526150ef838351615711565b92506150fa82615afe565b6020989098019791506001016150d7565b600061511682615b04565b8084526020840193508360208202850161512f85615afe565b60005b8481101561504957838303885261514a838351615814565b925061515582615afe565b602098909801979150600101615132565b600061517182615b04565b8084526020840193508360208202850161518a85615afe565b60005b848110156150495783830388526151a5838351615846565b92506151b082615afe565b60209890980197915060010161518d565b60006151cc82615b04565b8084526020840193506151de83615afe565b60005b82811015614fe4576151f48683516158f5565b6151fd82615afe565b6020969096019591506001016151e1565b614f9181615b14565b614f9181615b25565b600061522b82615b04565b80845261523f816020860160208601615b3c565b61524881615b6c565b9093016020019392505050565b601a81527f4372656174696f6e204461746520697320696e6d757461626c65000000000000602082015260400190565b601181527f726f6c65206973206d616e6461746f7279000000000000000000000000000000602082015260400190565b602281527f4f6e6c792070656e64696e672075736572732063616e2062652061636365707460208201527f6564000000000000000000000000000000000000000000000000000000000000604082015260600190565b601381527f5573657220616c72656164792065786973747300000000000000000000000000602082015260400190565b601481527f546869732075736572206e6f7420657869737473000000000000000000000000602082015260400190565b601b81527f596f752063616e6e6f7420616363657074207468697320757365720000000000602082015260400190565b602281527f4f6e6c792070656e64696e672075736572732063616e2062652072656a65637460208201527f6564000000000000000000000000000000000000000000000000000000000000604082015260600190565b601381527f737461747573206973206e6f742076616c696400000000000000000000000000602082015260400190565b601081527f436c61696d206e6f742065786973747300000000000000000000000000000000602082015260400190565b601181527f6d656d626572206e6f7420657869737473000000000000000000000000000000602082015260400190565b601481527f4d656d62657220646f206e6f7420657869737473000000000000000000000000602082015260400190565b601581527f4d656d62657220616c7265616479206578697374730000000000000000000000602082015260400190565b601f81527f5468657265206973206e6f20636c61696d20696e207468652073797374656d00602082015260400190565b601181527f4d656d626572206e6f7420657869737473000000000000000000000000000000602082015260400190565b601281527f5468656d65206973206d616e6461746f72790000000000000000000000000000602082015260400190565b601081527f434d4f206973206d616e6461746f727900000000000000000000000000000000602082015260400190565b601481527f596f7520617265206e6f74206163636570746564000000000000000000000000602082015260400190565b601181527f4e616d65206973206d616e6461746f7279000000000000000000000000000000602082015260400190565b601181527f4e6f2076616c6964206d656d6265724964000000000000000000000000000000602082015260400190565b601981527f4372656174696f6e44617465206973206d616e6461746f727900000000000000602082015260400190565b805160009061010084019061567685826158f5565b50602083015161568960208601826158f5565b50604083015184820360408601526156a1828261510b565b91505060608301516156b6606086018261520e565b5060808301516156c960808601826158f5565b5060a083015184820360a08601526156e18282614fee565b91505060c08301516156f660c086018261520e565b5060e083015161570960e08601826158f5565b509392505050565b805160009061014084019061572685826158f5565b50602083015161573960208601826158f5565b50604083015184820360408601526157518282615220565b9150506060830151848203606086015261576b8282615220565b915050608083015184820360808601526157858282615220565b91505060a083015184820360a086015261579f8282615220565b91505060c083015184820360c08601526157b98282615220565b91505060e083015184820360e08601526157d382826151c1565b9150506101008301518482036101008601526157ef82826151c1565b91505061012083015184820361012086015261580b8282614f97565b95945050505050565b805160408084526000919084019061582c8282615220565b9150506020830151848203602086015261580b8282615220565b805160009061010084019061585b85826158f5565b50602083015184820360208601526158738282615220565b9150506040830151848203604086015261588d8282615220565b91505060608301516158a260608601826158f5565b5060808301516158b560808601826158f5565b5060a083015184820360a08601526158cd8282615220565b91505060c08301516158e260c0860182615217565b5060e083015161570960e0860182614f88565b614f9181611b50565b60208082528101614a748184615055565b60208082528101614a7481846150b0565b60208082528101614a748184615166565b602081016111f3828461520e565b602080825281016111f381615255565b602080825281016111f381615285565b602080825281016111f3816152b5565b602080825281016111f38161530b565b602080825281016111f38161533b565b602080825281016111f38161536b565b602080825281016111f38161539b565b602080825281016111f3816153f1565b602080825281016111f381615421565b602080825281016111f381615451565b602080825281016111f381615481565b602080825281016111f3816154b1565b602080825281016111f3816154e1565b602080825281016111f381615511565b602080825281016111f381615541565b602080825281016111f381615571565b602080825281016111f3816155a1565b602080825281016111f3816155d1565b602080825281016111f381615601565b602080825281016111f381615631565b60208082528101614a748184615661565b60208082528101614a748184615846565b602081016111f382846158f5565b60405181810167ffffffffffffffff81118282101715615ace57600080fd5b604052919050565b600067ffffffffffffffff821115615aed57600080fd5b506020601f91909101601f19160190565b60200190565b5190565b600160a060020a031690565b151590565b6000600382106105e557fe5b60006111f382615b19565b82818337506000910152565b60005b83811015615b57578181015183820152602001615b3f565b83811115615b66576000848401525b50505050565b601f01601f1916905600a265627a7a723058204342539e3f3b4947d0d369c1a69b60450bb86455c9fc39fddd824d54f9226adb6c6578706572696d656e74616cf50037",
  "source": "pragma solidity ^0.4.24;\npragma experimental ABIEncoderV2;\n\nimport \"../../node_modules/solidity-rlp/contracts/RLPReader.sol\";\nimport \"./Users.sol\";\n//import * as theLib from \"./TheLib.sol\";\n\ncontract Claims is Users {\n\n  using RLPReader for bytes;\n  using RLPReader for uint;\n  using RLPReader for RLPReader.RLPItem;\n\n//  enum StatusClaimEnum {\n//    CLAIMED, // = false, means there is NO CONFLICT\n//    CONFLICT // = true, means there IS a CONFLICT\n//  }\n\n//  enum ClaimTypeEnum {\n//    MUSICAL_WORK,   // false for Musical Works\n//    SOUND_RECORDING // true for Sound Recordings\n//  }\n  \n  struct NameValue{ \n    string name;\n    string value;\n  }\n\n  struct Claim {   \n    uint256 creationDate;\n    uint256 claimId;\n    NameValue[] claimData;\n    bool claimType;\n    uint256 memberOwner;    //  replace with 'member'\n//    uint256 memberReceptor; // remove\n    string[] messageLog;\n    bool status;\n    uint256 lastChange;\n  }\n\n  uint256 constant private PAGE_SIZE = 10;\n\n  mapping (uint256 => Claim) private claims_;\n  uint256 private claimIdCounter_ = 0;\n  // METHODS\n\n  // Public\n  function checkClaimStatus(uint256 _claimId, bool _claimType, bytes _claimData) internal {\n//     -browse all (getClaimsByISRC or ISWC) = claims_\n//     -check if conflict with region, period, useTypes\n//        -if CONFLICT with split\n//            -change the status to conflict\n//            -and if found is not CONFLICT status, then change as well\n//            -_addClaimFromInbox(member, _claimId)\n//            -save memberId/_claimId locally (memory)\n    require(claimIdCounter_ > 0, \"There is no claim in the system\");\n\n    // Push in messageLog of _claimId==1 the _claimData of each claim that is input in this function\n    RLPReader.RLPItem memory item = _claimData.toRlpItem();\n    RLPReader.RLPItem[] memory itemList = item.toList();  // ((name0, value0), (name, value), (name, value), ...)\n//    for(uint j = 0; j < itemList.length; ++j) {\n////      RLPReader.RLPItem[] memory itemListClaim = itemList[j].toList(); // (name0, value0)\n//      string memory data = string(itemList[j].toList()[1].toBytes());\n//      claims_[1].messageLog.push(data);\n//    }\n//    claims_[1].messageLog.push(\"__NEXT__\");\n    //ISRC\n    for(uint256 i = 1; i <= claimIdCounter_; i++) {\n//      claims_[1].messageLog.push(claims_[i].claimData[0].value);\n//      claims_[1].messageLog.push(claims_[_claimId].claimData[3].value);\n      // Sound Recording, _claimType = true\n      if (_claimType && claims_[i].claimType && _claimId != i) {\n        if (keccak256(abi.encodePacked(string(itemList[6].toList()[1].toBytes()))) == keccak256(abi.encodePacked(claims_[i].claimData[6].value)) // same ISRC\n         && keccak256(abi.encodePacked(string(itemList[3].toList()[1].toBytes()))) == keccak256(abi.encodePacked(claims_[i].claimData[3].value)) // same countries\n         && keccak256(abi.encodePacked(string(itemList[4].toList()[1].toBytes()))) == keccak256(abi.encodePacked(claims_[i].claimData[4].value)) // same useTypes\n         && keccak256(abi.encodePacked(string(itemList[0].toList()[1].toBytes()))) == keccak256(abi.encodePacked(claims_[i].claimData[0].value)) // same startDate\n//         && keccak256(abi.encodePacked(string(itemList[1].toList()[1].toBytes()))) == keccak256(abi.encodePacked(claims_[i].claimData[1].value)) // same endDate\n        ){\n\n            claims_[_claimId].status = true;\n            claims_[i].status = true;\n//                if (uint256(parseInt(claims_[_claimId].claimData[2].value, 0)) + uint256(parseInt(claims_[i].claimData[2].value, 0)) > 100) {\n            //      // check if their splits> 100% (checking between combinations missing!)\n//\n//                }\n////              }\n//            }\n        }\n      }\n      // Musical Work, _claimType = false\n//      else if (!_claimType && !claims_[i].claimType && _claimId != i) {\n////        if (keccak256(abi.encodePacked(string(itemList[15].toList()[1].toBytes()))) == keccak256(abi.encodePacked(claims_[i].claimData[15].value)) // same ISWC\n////        ){\n////\n////        }\n//      }\n    }\n  }\n\n  function registerClaim(uint256 _creationDate, bytes _claimData, bool _claimType, uint _memberOwner) public {\n\n    require(_creationDate > 0, \"CreationDate is mandatory\");\n//    require(_claimType || !_claimType, \"Incorrect Claim Type\");\n\n    uint256 _claimId = ++claimIdCounter_;\n//    uint256 _claimId = Random.rand(_creationDate);\n\n//    require(claims_[_claimId].claimId == 0, \"Claim already exists\");\n    require(_memberExists(_memberOwner), \"Member do not exists\");\n\n//    uint256\n    _memberOwner = _memberIdFromCurrentAddress();\n\n    string[] memory messageLog = new string[](0);\n\n    _saveClaim(_claimId, _creationDate, _claimData, _claimType, _memberOwner, messageLog, false, _creationDate);\n    _addClaimIdToMemberOwner(_memberOwner, _claimId);\n\n    if (claimIdCounter_ > 1) {\n      checkClaimStatus(_claimId, _claimType, _claimData);\n    }\n\n    if (claims_[_claimId].status) {       // if status == true, which means there IS a CONFLICT\n      // addClaimFromInbox for every relevant member\n      _addClaimFromInbox(_memberOwner, _claimId);\n    }\n\n  }\n//\n  function updateClaim(uint256 _claimId, bytes _claimData, uint _lastChange) public {\n    require(claims_[_claimId].claimId > 0, \"Claim not exists\");\n\n    _saveClaim(_claimId, claims_[_claimId].creationDate, _claimData, claims_[_claimId].claimType,\n              claims_[_claimId].memberOwner, claims_[_claimId].messageLog, claims_[_claimId].status, _lastChange);\n  }\n\n//  EXCLUDE FUNCTION SO THAT SIZE OF CONTRACT (AND BYTECODE) REDUCES; IF NOT ENOUGH, MOVE FUNCTIONS TO DIFFERENT CONTRACT.\n//  function changeState(uint256 _claimId, uint _status, string _messageLog, uint256 _lastChange) checkValidStatus(_status) public {\n//    require(claims_[_claimId].claimId > 0, \"Claim not exists\");\n//\n//    if(claims_[_claimId].status != StatusClaimEnum(_status)) {\n//      bool isClaimIntoReceptorInbox = _isClaimIntoReceptorInbox(claims_[_claimId].memberReceptor, _claimId);\n//      if(_status == uint(StatusClaimEnum.CONFLICT)) {\n//          if(isClaimIntoReceptorInbox) {\n//            _removeClaimFromInbox(claims_[_claimId].memberReceptor, _claimId);\n//          } else {\n//            _removeClaimFromInbox(claims_[_claimId].memberOwner, _claimId);\n//          }\n//      } else {\n//          if(isClaimIntoReceptorInbox) {\n//            _addClaimFromInbox(claims_[_claimId].memberOwner, _claimId);\n//            _removeClaimFromInbox(claims_[_claimId].memberReceptor, _claimId);\n//          } else {\n//            _addClaimFromInbox(claims_[_claimId].memberReceptor, _claimId);\n//            _removeClaimFromInbox(claims_[_claimId].memberOwner, _claimId);\n//          }\n//      }\n//      claims_[_claimId].status = StatusClaimEnum(_status);\n//    }\n//    if (keccak256(abi.encodePacked((_messageLog))) != keccak256(abi.encodePacked((\"\")))) {\n//        claims_[_claimId].messageLog.push(_messageLog);\n//    }\n//\n//    claims_[_claimId].lastChange = _lastChange;\n//  }\n\n  function getClaim(uint256 _claimId) view public returns (Claim) {\n    return claims_[_claimId];\n  }\n\n  function getClaimsByMemberId(uint _page) view public returns (Claim[] memory) {\n    uint256 pageIndex = SafeMath.mul(PAGE_SIZE, _page);\n    uint256 _memberId = _memberIdFromCurrentAddress();\n    uint count = _getClaimsCountByMember(_memberId);\n    uint256 pageNumber = SafeMath.div(count, PAGE_SIZE);\n\n    if (count == 0 || pageIndex > count - 1 || _page > pageNumber) {\n      return;\n    }\n\n    uint256[] memory claimsId = _getClaimsIdByMember(_memberId);\n\n    Claim[] memory _claims = new Claim[](PAGE_SIZE);\n    uint256 returnCounter = 0;\n    for (uint i = pageIndex; i < claimsId.length; ++i) {\n      if(returnCounter < PAGE_SIZE) {\n        _claims[returnCounter] = claims_[claimsId[i]];\n        ++returnCounter;\n      } else {\n        break;\n      }\n    }\n    return _claims;\n  }\n\n  function getClaimsCountByMemberId() view public returns (uint) {\n    uint256 _memberId = _memberIdFromCurrentAddress();\n    return _getClaimsCountByMember(_memberId);\n  }\n\n  // Private\n  function _saveClaim(uint256 _claimId, uint256 _creationDate, bytes _claimData, bool _claimType,\n    uint _memberOwner, string[] memory _messageLog, bool _status, uint256 _lastChange) internal {\n\n    RLPReader.RLPItem memory item = _claimData.toRlpItem();\n    RLPReader.RLPItem[] memory itemList = item.toList(); // ((name, value), (name, value), (name, value), ...)\n\n    claims_[_claimId].claimId = _claimId;\n    claims_[_claimId].creationDate = _creationDate;\n    claims_[_claimId].claimType = _claimType;\n\n    delete claims_[_claimId].claimData;\n    for(uint i = 0; i < itemList.length; ++i) {\n      RLPReader.RLPItem[] memory itemListClaim = itemList[i].toList(); // (name, value)\n      claims_[_claimId].claimData.push(NameValue(string(itemListClaim[0].toBytes()), string(itemListClaim[1].toBytes())));\n    }\n\n    claims_[_claimId].memberOwner = _memberOwner;\n//    claims_[_claimId].memberReceptor = _memberReceptor;\n    claims_[_claimId].lastChange = _lastChange;\n    claims_[_claimId].messageLog = _messageLog;\n    claims_[_claimId].status = _status;\n  }\n\n  // MODIFIERS\n\n  //  modifier checkValidStatus(uint256 _status) {\n//    require(_status >= 0 || _status <= 1, \"status not allowed\");\n//    _;\n//  }\n\n//  modifier checkMemberOwnership(uint256 _claimId) {\n//    require(claims_[_claimId].memberOwner == _memberIdFromCurrentAddress() || claims_[_claimId].memberReceptor == _memberIdFromCurrentAddress(),\n//      \"not allowed to get this claim\");\n//    _;\n//  }\n}\n",
  "sourcePath": "/home/komodo/newUI/bloomen-decentralized-rights-management-v2/truffle/contracts/registry/Claims.sol",
  "compiler": {
    "name": "solc",
    "version": "0.4.24+commit.e67f0147.Emscripten.clang"
  },
  "schemaVersion": "2.0.1",
  "updatedAt": "2019-11-10T18:15:00.118Z"
}