{
  "contractName": "Claims",
  "abi": [
    {
      "constant": false,
      "inputs": [
        {
          "name": "_userToAccept",
          "type": "address"
        }
      ],
      "name": "acceptUser",
      "outputs": [],
      "payable": false,
      "stateMutability": "nonpayable",
      "type": "function"
    },
    {
      "constant": false,
      "inputs": [
        {
          "name": "_userToReject",
          "type": "address"
        }
      ],
      "name": "rejectUser",
      "outputs": [],
      "payable": false,
      "stateMutability": "nonpayable",
      "type": "function"
    },
    {
      "constant": true,
      "inputs": [
        {
          "name": "_page",
          "type": "uint256"
        }
      ],
      "name": "getUsers",
      "outputs": [
        {
          "components": [
            {
              "name": "creationDate",
              "type": "uint256"
            },
            {
              "name": "firstName",
              "type": "string"
            },
            {
              "name": "lastName",
              "type": "string"
            },
            {
              "name": "memberId",
              "type": "uint256"
            },
            {
              "name": "requestId",
              "type": "uint256"
            },
            {
              "name": "role",
              "type": "string"
            },
            {
              "name": "status",
              "type": "uint8"
            },
            {
              "name": "owner",
              "type": "address"
            }
          ],
          "name": "",
          "type": "tuple[]"
        }
      ],
      "payable": false,
      "stateMutability": "view",
      "type": "function"
    },
    {
      "constant": false,
      "inputs": [
        {
          "name": "_memberId",
          "type": "uint256"
        },
        {
          "name": "_creationDate",
          "type": "uint256"
        },
        {
          "name": "_name",
          "type": "string"
        },
        {
          "name": "_logo",
          "type": "string"
        },
        {
          "name": "_country",
          "type": "string"
        },
        {
          "name": "_cmo",
          "type": "string"
        },
        {
          "name": "_theme",
          "type": "string"
        }
      ],
      "name": "updateMember",
      "outputs": [],
      "payable": false,
      "stateMutability": "nonpayable",
      "type": "function"
    },
    {
      "constant": false,
      "inputs": [
        {
          "name": "_claimId",
          "type": "uint256"
        },
        {
          "name": "_claimType",
          "type": "bool"
        },
        {
          "name": "_claimData",
          "type": "bytes"
        }
      ],
      "name": "checkClaimStatus",
      "outputs": [],
      "payable": false,
      "stateMutability": "nonpayable",
      "type": "function"
    },
    {
      "constant": true,
      "inputs": [
        {
          "name": "userAddress",
          "type": "address"
        }
      ],
      "name": "getUserByAddress",
      "outputs": [
        {
          "components": [
            {
              "name": "creationDate",
              "type": "uint256"
            },
            {
              "name": "firstName",
              "type": "string"
            },
            {
              "name": "lastName",
              "type": "string"
            },
            {
              "name": "memberId",
              "type": "uint256"
            },
            {
              "name": "requestId",
              "type": "uint256"
            },
            {
              "name": "role",
              "type": "string"
            },
            {
              "name": "status",
              "type": "uint8"
            },
            {
              "name": "owner",
              "type": "address"
            }
          ],
          "name": "",
          "type": "tuple"
        }
      ],
      "payable": false,
      "stateMutability": "view",
      "type": "function"
    },
    {
      "constant": true,
      "inputs": [
        {
          "name": "account",
          "type": "address"
        }
      ],
      "name": "isSigner",
      "outputs": [
        {
          "name": "",
          "type": "bool"
        }
      ],
      "payable": false,
      "stateMutability": "view",
      "type": "function"
    },
    {
      "constant": true,
      "inputs": [],
      "name": "getUsersOwner",
      "outputs": [
        {
          "components": [
            {
              "name": "creationDate",
              "type": "uint256"
            },
            {
              "name": "firstName",
              "type": "string"
            },
            {
              "name": "lastName",
              "type": "string"
            },
            {
              "name": "memberId",
              "type": "uint256"
            },
            {
              "name": "requestId",
              "type": "uint256"
            },
            {
              "name": "role",
              "type": "string"
            },
            {
              "name": "status",
              "type": "uint8"
            },
            {
              "name": "owner",
              "type": "address"
            }
          ],
          "name": "",
          "type": "tuple[]"
        }
      ],
      "payable": false,
      "stateMutability": "view",
      "type": "function"
    },
    {
      "constant": true,
      "inputs": [],
      "name": "claimIdCounter_",
      "outputs": [
        {
          "name": "",
          "type": "uint256"
        }
      ],
      "payable": false,
      "stateMutability": "view",
      "type": "function"
    },
    {
      "constant": true,
      "inputs": [],
      "name": "getMembers",
      "outputs": [
        {
          "components": [
            {
              "name": "memberId",
              "type": "uint256"
            },
            {
              "name": "creationDate",
              "type": "uint256"
            },
            {
              "name": "name",
              "type": "string"
            },
            {
              "name": "logo",
              "type": "string"
            },
            {
              "name": "country",
              "type": "string"
            },
            {
              "name": "cmo",
              "type": "string"
            },
            {
              "name": "theme",
              "type": "string"
            },
            {
              "name": "claimInbox",
              "type": "uint256[]"
            },
            {
              "name": "claims",
              "type": "uint256[]"
            },
            {
              "name": "userRequests",
              "type": "address[]"
            }
          ],
          "name": "",
          "type": "tuple[]"
        }
      ],
      "payable": false,
      "stateMutability": "view",
      "type": "function"
    },
    {
      "constant": true,
      "inputs": [],
      "name": "getcountUsers",
      "outputs": [
        {
          "name": "",
          "type": "uint256"
        }
      ],
      "payable": false,
      "stateMutability": "view",
      "type": "function"
    },
    {
      "constant": false,
      "inputs": [
        {
          "name": "_creationDate",
          "type": "uint256"
        },
        {
          "name": "_firstName",
          "type": "string"
        },
        {
          "name": "_lastName",
          "type": "string"
        },
        {
          "name": "_role",
          "type": "string"
        },
        {
          "name": "_memberId",
          "type": "uint256"
        }
      ],
      "name": "registerUserRequest",
      "outputs": [],
      "payable": false,
      "stateMutability": "nonpayable",
      "type": "function"
    },
    {
      "constant": true,
      "inputs": [],
      "name": "getCount",
      "outputs": [
        {
          "name": "",
          "type": "uint256"
        }
      ],
      "payable": false,
      "stateMutability": "view",
      "type": "function"
    },
    {
      "constant": true,
      "inputs": [
        {
          "name": "",
          "type": "uint256"
        }
      ],
      "name": "claims_",
      "outputs": [
        {
          "name": "creationDate",
          "type": "uint256"
        },
        {
          "name": "claimId",
          "type": "uint256"
        },
        {
          "name": "claimType",
          "type": "bool"
        },
        {
          "name": "memberOwner",
          "type": "uint256"
        },
        {
          "name": "status",
          "type": "bool"
        },
        {
          "name": "lastChange",
          "type": "uint256"
        }
      ],
      "payable": false,
      "stateMutability": "view",
      "type": "function"
    },
    {
      "constant": true,
      "inputs": [],
      "name": "getMe",
      "outputs": [
        {
          "components": [
            {
              "name": "creationDate",
              "type": "uint256"
            },
            {
              "name": "firstName",
              "type": "string"
            },
            {
              "name": "lastName",
              "type": "string"
            },
            {
              "name": "memberId",
              "type": "uint256"
            },
            {
              "name": "requestId",
              "type": "uint256"
            },
            {
              "name": "role",
              "type": "string"
            },
            {
              "name": "status",
              "type": "uint8"
            },
            {
              "name": "owner",
              "type": "address"
            }
          ],
          "name": "",
          "type": "tuple"
        }
      ],
      "payable": false,
      "stateMutability": "view",
      "type": "function"
    },
    {
      "constant": true,
      "inputs": [
        {
          "name": "_page",
          "type": "uint256"
        }
      ],
      "name": "getMembers",
      "outputs": [
        {
          "components": [
            {
              "name": "memberId",
              "type": "uint256"
            },
            {
              "name": "creationDate",
              "type": "uint256"
            },
            {
              "name": "name",
              "type": "string"
            },
            {
              "name": "logo",
              "type": "string"
            },
            {
              "name": "country",
              "type": "string"
            },
            {
              "name": "cmo",
              "type": "string"
            },
            {
              "name": "theme",
              "type": "string"
            },
            {
              "name": "claimInbox",
              "type": "uint256[]"
            },
            {
              "name": "claims",
              "type": "uint256[]"
            },
            {
              "name": "userRequests",
              "type": "address[]"
            }
          ],
          "name": "",
          "type": "tuple[]"
        }
      ],
      "payable": false,
      "stateMutability": "view",
      "type": "function"
    },
    {
      "constant": false,
      "inputs": [],
      "name": "renounceSigner",
      "outputs": [],
      "payable": false,
      "stateMutability": "nonpayable",
      "type": "function"
    },
    {
      "constant": false,
      "inputs": [
        {
          "name": "account",
          "type": "address"
        }
      ],
      "name": "addSigner",
      "outputs": [],
      "payable": false,
      "stateMutability": "nonpayable",
      "type": "function"
    },
    {
      "constant": false,
      "inputs": [
        {
          "name": "_creationDate",
          "type": "uint256"
        },
        {
          "name": "_name",
          "type": "string"
        },
        {
          "name": "_logo",
          "type": "string"
        },
        {
          "name": "_country",
          "type": "string"
        },
        {
          "name": "_cmo",
          "type": "string"
        },
        {
          "name": "_theme",
          "type": "string"
        }
      ],
      "name": "addMember",
      "outputs": [
        {
          "name": "",
          "type": "uint256"
        }
      ],
      "payable": false,
      "stateMutability": "nonpayable",
      "type": "function"
    },
    {
      "constant": false,
      "inputs": [
        {
          "name": "_firstName",
          "type": "string"
        },
        {
          "name": "_lastName",
          "type": "string"
        },
        {
          "name": "_memberId",
          "type": "uint256"
        },
        {
          "name": "_role",
          "type": "string"
        },
        {
          "name": "owner",
          "type": "address"
        }
      ],
      "name": "updateUser",
      "outputs": [],
      "payable": false,
      "stateMutability": "nonpayable",
      "type": "function"
    },
    {
      "constant": false,
      "inputs": [
        {
          "name": "account",
          "type": "address"
        }
      ],
      "name": "whitelistAdmin",
      "outputs": [],
      "payable": false,
      "stateMutability": "nonpayable",
      "type": "function"
    },
    {
      "anonymous": false,
      "inputs": [
        {
          "indexed": true,
          "name": "account",
          "type": "address"
        }
      ],
      "name": "SignerAdded",
      "type": "event"
    },
    {
      "anonymous": false,
      "inputs": [
        {
          "indexed": true,
          "name": "account",
          "type": "address"
        }
      ],
      "name": "SignerRemoved",
      "type": "event"
    },
    {
      "constant": false,
      "inputs": [
        {
          "name": "_creationDate",
          "type": "uint256"
        },
        {
          "name": "_claimData",
          "type": "bytes"
        },
        {
          "name": "_claimType",
          "type": "bool"
        },
        {
          "name": "_memberOwner",
          "type": "uint256"
        }
      ],
      "name": "registerClaim",
      "outputs": [],
      "payable": false,
      "stateMutability": "nonpayable",
      "type": "function"
    },
    {
      "constant": false,
      "inputs": [
        {
          "name": "_claimId",
          "type": "uint256"
        },
        {
          "name": "_claimData",
          "type": "bytes"
        },
        {
          "name": "_lastChange",
          "type": "uint256"
        }
      ],
      "name": "updateClaim",
      "outputs": [],
      "payable": false,
      "stateMutability": "nonpayable",
      "type": "function"
    },
    {
      "constant": true,
      "inputs": [
        {
          "name": "_claimId",
          "type": "uint256"
        }
      ],
      "name": "getClaim",
      "outputs": [
        {
          "components": [
            {
              "name": "creationDate",
              "type": "uint256"
            },
            {
              "name": "claimId",
              "type": "uint256"
            },
            {
              "components": [
                {
                  "name": "name",
                  "type": "string"
                },
                {
                  "name": "value",
                  "type": "string"
                }
              ],
              "name": "claimData",
              "type": "tuple[]"
            },
            {
              "name": "claimType",
              "type": "bool"
            },
            {
              "name": "memberOwner",
              "type": "uint256"
            },
            {
              "name": "status",
              "type": "bool"
            },
            {
              "name": "lastChange",
              "type": "uint256"
            }
          ],
          "name": "",
          "type": "tuple"
        }
      ],
      "payable": false,
      "stateMutability": "view",
      "type": "function"
    },
    {
      "constant": true,
      "inputs": [
        {
          "name": "_page",
          "type": "uint256"
        }
      ],
      "name": "getClaimsByMemberId",
      "outputs": [
        {
          "components": [
            {
              "name": "creationDate",
              "type": "uint256"
            },
            {
              "name": "claimId",
              "type": "uint256"
            },
            {
              "components": [
                {
                  "name": "name",
                  "type": "string"
                },
                {
                  "name": "value",
                  "type": "string"
                }
              ],
              "name": "claimData",
              "type": "tuple[]"
            },
            {
              "name": "claimType",
              "type": "bool"
            },
            {
              "name": "memberOwner",
              "type": "uint256"
            },
            {
              "name": "status",
              "type": "bool"
            },
            {
              "name": "lastChange",
              "type": "uint256"
            }
          ],
          "name": "",
          "type": "tuple[]"
        }
      ],
      "payable": false,
      "stateMutability": "view",
      "type": "function"
    },
    {
      "constant": true,
      "inputs": [],
      "name": "getClaimsCountByMemberId",
      "outputs": [
        {
          "name": "",
          "type": "uint256"
        }
      ],
      "payable": false,
      "stateMutability": "view",
      "type": "function"
    }
  ],
  "bytecode": "0x608060405260006007556200001d3364010000000062000023810204565b62000108565b6200003e600082640100000000620046fb6200007582021704565b604051600160a060020a038216907f47d1c22a25bb3a5d4e481b9b1e6944c2eade3181a0a20b495ed61d35b5323f2490600090a250565b600160a060020a03811615156200008b57600080fd5b620000a08282640100000000620000d0810204565b15620000ab57600080fd5b600160a060020a0316600090815260209190915260409020805460ff19166001179055565b6000600160a060020a0382161515620000e857600080fd5b50600160a060020a03166000908152602091909152604090205460ff1690565b615b6a80620001186000396000f3006080604052600436106101535763ffffffff7c010000000000000000000000000000000000000000000000000000000060003504166308bdc24d81146101585780631be8850b1461017a578063373cfbb9146101a55780634dc92885146101c55780635aef2447146101e55780635d73ab9a1461021257806365ff0c481461023f57806368d3b46b1461025f57806369c212f61461027f5780637df73e27146102ac578063932191be146102d95780639c4d6e32146102ee5780639eab525314610303578063a4fdc59414610325578063a7ed1fe41461033a578063a87d942c1461035a578063b6bc38121461036f578063b90dad9a1461039c578063c11e1ff3146103ce578063c477ecab146103e3578063cb68b9e814610403578063e5c8b03d14610423578063eb12d61e14610438578063fa1188c614610458578063fcfbde5b14610478578063ff240fce14610498575b600080fd5b34801561016457600080fd5b50610178610173366004614aed565b6104b8565b005b34801561018657600080fd5b5061018f610654565b60405161019c9190615a0c565b60405180910390f35b3480156101b157600080fd5b506101786101c0366004614c52565b610671565b3480156101d157600080fd5b506101786101e0366004614aed565b610726565b3480156101f157600080fd5b50610205610200366004614bcf565b61088a565b60405161019c91906159ea565b34801561021e57600080fd5b5061023261022d366004614bcf565b610a89565b60405161019c91906158ab565b34801561024b57600080fd5b5061017861025a366004614ed5565b610e64565b34801561026b57600080fd5b5061017861027a366004614bed565b610ef3565b34801561028b57600080fd5b5061029f61029a366004614aed565b611a19565b60405161019c91906159fb565b3480156102b857600080fd5b506102cc6102c7366004614aed565b611c6d565b60405161019c91906158bc565b3480156102e557600080fd5b50610232611c85565b3480156102fa57600080fd5b5061018f611f76565b34801561030f57600080fd5b50610318611f7c565b60405161019c919061589a565b34801561033157600080fd5b5061018f612443565b34801561034657600080fd5b50610178610355366004614e25565b612508565b34801561036657600080fd5b5061018f6125cf565b34801561037b57600080fd5b5061038f61038a366004614bcf565b6125ed565b60405161019c9190615889565b3480156103a857600080fd5b506103bc6103b7366004614bcf565b6128ef565b60405161019c96959493929190615a1a565b3480156103da57600080fd5b5061029f61292b565b3480156103ef57600080fd5b506103186103fe366004614bcf565b6129bc565b34801561040f57600080fd5b5061017861041e366004614ccb565b612ed7565b34801561042f57600080fd5b50610178612f3f565b34801561044457600080fd5b50610178610453366004614aed565b612f4a565b34801561046457600080fd5b5061018f610473366004614d26565b612f67565b34801561048457600080fd5b50610178610493366004614b13565b612ff6565b3480156104a457600080fd5b506101786104b3366004614aed565b6130da565b600160a060020a038181166000908152600360205260408120600601546101009004909116116105065760405160e560020a62461bcd0281526004016104fd9061590a565b60405180910390fd5b600160a060020a038116600090815260036020819052604080832082015433845292200154148061053b575061053b33611c6d565b151561055c5760405160e560020a62461bcd0281526004016104fd9061591a565b60023360009081526003602052604090206006015460ff16600281111561057f57fe5b148061058f575061058f33611c6d565b15156105b05760405160e560020a62461bcd0281526004016104fd906159aa565b6001600160a060020a03821660009081526003602052604090206006015460ff1660028111156105dc57fe5b146105fc5760405160e560020a62461bcd0281526004016104fd906158ea565b600160a060020a038116600090815260036020526040902060060180546002919060ff19166001835b0217905550600160a060020a0381166000908152600360208190526040909120015461065190826131ae565b50565b60008061065f613316565b905061066a8161332d565b91505b5090565b60008085116106955760405160e560020a62461bcd0281526004016104fd906159da565b5060078054600101908190556106aa82613342565b15156106cb5760405160e560020a62461bcd0281526004016104fd9061595a565b6106d3613316565b91506106e5818686868660008b613355565b6106ef82826134af565b6106fa818486610ef3565b6000818152600560208190526040909120015460ff161561071f5761071f82826134d4565b5050505050565b600160a060020a0381811660009081526003602052604081206006015461010090049091161161076b5760405160e560020a62461bcd0281526004016104fd9061590a565b600160a060020a03811660009081526003602081905260408083208201543384529220015414806107a057506107a033611c6d565b15156107c15760405160e560020a62461bcd0281526004016104fd9061591a565b60023360009081526003602052604090206006015460ff1660028111156107e457fe5b14806107f457506107f433611c6d565b15156108155760405160e560020a62461bcd0281526004016104fd906159aa565b6001600160a060020a03821660009081526003602052604090206006015460ff16600281111561084157fe5b146108615760405160e560020a62461bcd0281526004016104fd9061592a565b600160a060020a0381166000908152600360205260408120600601805460ff1916600183610625565b610892614749565b6005600083815260200190815260200160002060e06040519081016040529081600082015481526020016001820154815260200160028201805480602002602001604051908101604052809291908181526020016000905b82821015610a485760008481526020908190206040805160028681029093018054600181161561010002600019011693909304601f81018590049094028101606090810183529181018481529093849284919084018282801561098e5780601f106109635761010080835404028352916020019161098e565b820191906000526020600020905b81548152906001019060200180831161097157829003601f168201915b50505050508152602001600182018054600181600116156101000203166002900480601f016020809104026020016040519081016040528092919081815260200182805460018160011615610100020316600290048015610a305780601f10610a0557610100808354040283529160200191610a30565b820191906000526020600020905b815481529060010190602001808311610a1357829003601f168201915b505050505081525050815260200190600101906108ea565b50505090825250600382015460ff90811615156020830152600483015460408301526005830154161515606082015260069091015460809091015292915050565b606060008060006060600080610a9d612443565b9550610aaa600a896134f9565b600454909550610abb90600a613532565b9350851580610ac957508585115b80610ad357508388115b15610add57610e59565b60408051600a808252610160820190925290816020015b610afc61478b565b815260200190600190039081610af4579050509250600091508490505b600454811015610e555733600090815260036020819052604082208101546004805491939185908110610b4857fe5b6000918252602080832090910154600160a060020a03168352820192909252604001902060030154148015610bc55750600260036000600484815481101515610b8d57fe5b6000918252602080832090910154600160a060020a0316835282019290925260400190206006015460ff166002811115610bc357fe5b145b15610e4d5760036000600483815481101515610bdd57fe5b600091825260208083209190910154600160a060020a0316835282810193909352604091820190208151610100808201845282548252600180840180548651600293821615909402600019011691909104601f81018790048702830187019095528482529194929385840193919291830182828015610c9d5780601f10610c7257610100808354040283529160200191610c9d565b820191906000526020600020905b815481529060010190602001808311610c8057829003601f168201915b5050509183525050600282810180546040805160206001841615610100026000190190931694909404601f81018390048302850183019091528084529381019390830182828015610d2f5780601f10610d0457610100808354040283529160200191610d2f565b820191906000526020600020905b815481529060010190602001808311610d1257829003601f168201915b505050505081526020016003820154815260200160048201548152602001600582018054600181600116156101000203166002900480601f016020809104026020016040519081016040528092919081815260200182805460018160011615610100020316600290048015610de55780601f10610dba57610100808354040283529160200191610de5565b820191906000526020600020905b815481529060010190602001808311610dc857829003601f168201915b5050509183525050600682015460209091019060ff166002811115610e0657fe5b6002811115610e1157fe5b8152600691909101546101009004600160a060020a03166020909101528351849084908110610e3c57fe5b602090810290910101526001909101905b600101610b19565b8296505b505050505050919050565b610e6d33611c6d565b1515610e7857600080fd5b60008781526001602052604081205411610ea75760405160e560020a62461bcd0281526004016104fd9061597a565b600087815260016020819052604090912001548614610edb5760405160e560020a62461bcd0281526004016104fd906158ca565b610eea87878787878787613555565b50505050505050565b610efb6147dc565b60606000806000610f0b86613b4e565b9450610f1685613b9c565b9350610f58610f3c856005815181101515610f2d57fe5b90602001906020020151613b9c565b80516001908110610f4957fe5b90602001906020020151613c6f565b925060019150600190505b6007548111611a0f5760008181526005602052604090206003015460ff161515871515148015610f935750808814155b15611a0757600081815260056020526040812060020180549091908110610fb657fe5b906000526020600020906002020160010160405160200180828054600181600116156101000203166002900480156110255780601f10611003576101008083540402835291820191611025565b820191906000526020600020905b815481529060010190602001808311611011575b50509150506040516020818303038152906040526040518082805190602001908083835b602083106110685780518252601f199092019160209182019101611049565b6001836020036101000a0380198251168184511680821785525050505050509050019150506040518091039020600019166110ca6110ae866000815181101515610f2d57fe5b805160019081106110bb57fe5b90602001906020020151613ca5565b6040516020018082805190602001908083835b602083106110fc5780518252601f1990920191602091820191016110dd565b6001836020036101000a0380198251168184511680821785525050505050509050019150506040516020818303038152906040526040518082805190602001908083835b6020831061115f5780518252601f199092019160209182019101611140565b6001836020036101000a03801982511681845116808217855250505050505090500191505060405180910390206000191614801561137657506000818152600560205260409020600201805460019081106111b657fe5b906000526020600020906002020160010160405160200180828054600181600116156101000203166002900480156112255780601f10611203576101008083540402835291820191611225565b820191906000526020600020905b815481529060010190602001808311611211575b50509150506040516020818303038152906040526040518082805190602001908083835b602083106112685780518252601f199092019160209182019101611249565b6001836020036101000a0380198251168184511680821785525050505050509050019150506040518091039020600019166112ae6110ae866001815181101515610f2d57fe5b6040516020018082805190602001908083835b602083106112e05780518252601f1990920191602091820191016112c1565b6001836020036101000a0380198251168184511680821785525050505050509050019150506040516020818303038152906040526040518082805190602001908083835b602083106113435780518252601f199092019160209182019101611324565b6001836020036101000a038019825116818451168082178552505050505050905001915050604051809103902060001916145b801561155d5750600081815260056020526040902060029081018054909190811061139d57fe5b9060005260206000209060020201600101604051602001808280546001816001161561010002031660029004801561140c5780601f106113ea57610100808354040283529182019161140c565b820191906000526020600020905b8154815290600101906020018083116113f8575b50509150506040516020818303038152906040526040518082805190602001908083835b6020831061144f5780518252601f199092019160209182019101611430565b6001836020036101000a0380198251168184511680821785525050505050509050019150506040518091039020600019166114956110ae866002815181101515610f2d57fe5b6040516020018082805190602001908083835b602083106114c75780518252601f1990920191602091820191016114a8565b6001836020036101000a0380198251168184511680821785525050505050509050019150506040516020818303038152906040526040518082805190602001908083835b6020831061152a5780518252601f19909201916020918201910161150b565b6001836020036101000a038019825116818451168082178552505050505050905001915050604051809103902060001916145b8015611742575060008181526005602052604090206002018054600390811061158257fe5b906000526020600020906002020160010160405160200180828054600181600116156101000203166002900480156115f15780601f106115cf5761010080835404028352918201916115f1565b820191906000526020600020905b8154815290600101906020018083116115dd575b50509150506040516020818303038152906040526040518082805190602001908083835b602083106116345780518252601f199092019160209182019101611615565b6001836020036101000a03801982511681845116808217855250505050505090500191505060405180910390206000191661167a6110ae866003815181101515610f2d57fe5b6040516020018082805190602001908083835b602083106116ac5780518252601f19909201916020918201910161168d565b6001836020036101000a0380198251168184511680821785525050505050509050019150506040516020818303038152906040526040518082805190602001908083835b6020831061170f5780518252601f1990920191602091820191016116f0565b6001836020036101000a038019825116818451168082178552505050505050905001915050604051809103902060001916145b8015611927575060008181526005602052604090206002018054600490811061176757fe5b906000526020600020906002020160010160405160200180828054600181600116156101000203166002900480156117d65780601f106117b45761010080835404028352918201916117d6565b820191906000526020600020905b8154815290600101906020018083116117c2575b50509150506040516020818303038152906040526040518082805190602001908083835b602083106118195780518252601f1990920191602091820191016117fa565b6001836020036101000a03801982511681845116808217855250505050505090500191505060405180910390206000191661185f6110ae866004815181101515610f2d57fe5b6040516020018082805190602001908083835b602083106118915780518252601f199092019160209182019101611872565b6001836020036101000a0380198251168184511680821785525050505050509050019150506040516020818303038152906040526040518082805190602001908083835b602083106118f45780518252601f1990920191602091820191016118d5565b6001836020036101000a038019825116818451168082178552505050505050905001915050604051809103902060001916145b15611a07576000818152600660205260409020805461ffff80821686011661ffff19909116179055811561198157600081815260066020526040808220548a8352908220805461ffff191661ffff90921691909117905591505b600081815260066020526040902054606461ffff9091161115611a075760008881526005602081905260408083208201805460ff19166001179055838352909120015460ff161515611a07576000818152600560205260409020600401546119e990896134d4565b600081815260056020819052604090912001805460ff191660011790555b600101610f63565b5050505050505050565b611a2161478b565b600160a060020a0382166000908152600360209081526040918290208251610100808201855282548252600180840180548751600293821615909402600019011691909104601f8101869004860283018601909652858252919492938581019391929190830182828015611ad65780601f10611aab57610100808354040283529160200191611ad6565b820191906000526020600020905b815481529060010190602001808311611ab957829003601f168201915b5050509183525050600282810180546040805160206001841615610100026000190190931694909404601f81018390048302850183019091528084529381019390830182828015611b685780601f10611b3d57610100808354040283529160200191611b68565b820191906000526020600020905b815481529060010190602001808311611b4b57829003601f168201915b505050505081526020016003820154815260200160048201548152602001600582018054600181600116156101000203166002900480601f016020809104026020016040519081016040528092919081815260200182805460018160011615610100020316600290048015611c1e5780601f10611bf357610100808354040283529160200191611c1e565b820191906000526020600020905b815481529060010190602001808311611c0157829003601f168201915b5050509183525050600682015460209091019060ff166002811115611c3f57fe5b6002811115611c4a57fe5b8152600691909101546101009004600160a060020a031660209091015292915050565b6000611c7f818363ffffffff613d1716565b92915050565b6060806000611c9333611c6d565b1515611c9e57600080fd5b600454604080518281526020808402820101909152908015611cda57816020015b611cc761478b565b815260200190600190039081611cbf5790505b509150600090505b600454811015611f705760036000600483815481101515611cff57fe5b600091825260208083209190910154600160a060020a0316835282810193909352604091820190208151610100808201845282548252600180840180548651600293821615909402600019011691909104601f81018790048702830187019095528482529194929385840193919291830182828015611dbf5780601f10611d9457610100808354040283529160200191611dbf565b820191906000526020600020905b815481529060010190602001808311611da257829003601f168201915b5050509183525050600282810180546040805160206001841615610100026000190190931694909404601f81018390048302850183019091528084529381019390830182828015611e515780601f10611e2657610100808354040283529160200191611e51565b820191906000526020600020905b815481529060010190602001808311611e3457829003601f168201915b505050505081526020016003820154815260200160048201548152602001600582018054600181600116156101000203166002900480601f016020809104026020016040519081016040528092919081815260200182805460018160011615610100020316600290048015611f075780601f10611edc57610100808354040283529160200191611f07565b820191906000526020600020905b815481529060010190602001808311611eea57829003601f168201915b5050509183525050600682015460209091019060ff166002811115611f2857fe5b6002811115611f3357fe5b8152600691909101546101009004600160a060020a03166020909101528251839083908110611f5e57fe5b60209081029091010152600101611ce2565b50919050565b60075481565b6060806000600280549050604051908082528060200260200182016040528015611fc057816020015b611fad6147f3565b815260200190600190039081611fa55790505b509150600090505b600254811015611f705760016000600283815481101515611fe557fe5b9060005260206000200154815260200190815260200160002061014060405190810160405290816000820154815260200160018201548152602001600282018054600181600116156101000203166002900480601f0160208091040260200160405190810160405280929190818152602001828054600181600116156101000203166002900480156120b85780601f1061208d576101008083540402835291602001916120b8565b820191906000526020600020905b81548152906001019060200180831161209b57829003601f168201915b505050918352505060038201805460408051602060026001851615610100026000190190941693909304601f810184900484028201840190925281815293820193929183018282801561214c5780601f106121215761010080835404028352916020019161214c565b820191906000526020600020905b81548152906001019060200180831161212f57829003601f168201915b505050918352505060048201805460408051602060026001851615610100026000190190941693909304601f81018490048402820184019092528181529382019392918301828280156121e05780601f106121b5576101008083540402835291602001916121e0565b820191906000526020600020905b8154815290600101906020018083116121c357829003601f168201915b505050918352505060058201805460408051602060026001851615610100026000190190941693909304601f81018490048402820184019092528181529382019392918301828280156122745780601f1061224957610100808354040283529160200191612274565b820191906000526020600020905b81548152906001019060200180831161225757829003601f168201915b505050918352505060068201805460408051602060026001851615610100026000190190941693909304601f81018490048402820184019092528181529382019392918301828280156123085780601f106122dd57610100808354040283529160200191612308565b820191906000526020600020905b8154815290600101906020018083116122eb57829003601f168201915b505050505081526020016007820180548060200260200160405190810160405280929190818152602001828054801561236057602002820191906000526020600020905b81548152602001906001019080831161234c575b50505050508152602001600882018054806020026020016040519081016040528092919081815260200182805480156123b857602002820191906000526020600020905b8154815260200190600101908083116123a4575b505050505081526020016009820180548060200260200160405190810160405280929190818152602001828054801561241a57602002820191906000526020600020905b8154600160a060020a031681526001909101906020018083116123fc575b505050505081525050828281518110151561243157fe5b60209081029091010152600101611fc8565b600080805b600454811015611f70573360009081526003602081905260408220810154600480549193918590811061247757fe5b6000918252602080832090910154600160a060020a031683528201929092526040019020600301541480156124f457506002600360006004848154811015156124bc57fe5b6000918252602080832090910154600160a060020a0316835282019290925260400190206006015460ff1660028111156124f257fe5b145b15612500576001909101905b600101612448565b600081151561252c5760405160e560020a62461bcd0281526004016104fd906159ca565b6000861161254f5760405160e560020a62461bcd0281526004016104fd906159da565b336000908152600360205260409020541561257f5760405160e560020a62461bcd0281526004016104fd906158fa565b61258882613342565b15156125a95760405160e560020a62461bcd0281526004016104fd9061597a565b6125b286613d4e565b90506125c78686868585886001336000613f3d565b505050505050565b60006125da33611c6d565b15156125e557600080fd5b506002545b90565b6060600080600080606080600080612606600a8b6134f9565b9750612610613316565b965061261b8761332d565b955061262886600a613532565b945085158061263957506001860388115b806126435750848a115b1561264d576128e2565b61265687614391565b60408051600a8082526101608201909252919550816020015b612677614749565b81526020019060019003908161266f579050509250600091508790505b83518110156128de57600a8210156128d1576005600085838151811015156126b857fe5b90602001906020020151815260200190815260200160002060e06040519081016040529081600082015481526020016001820154815260200160028201805480602002602001604051908101604052809291908181526020016000905b828210156128735760008481526020908190206040805160028681029093018054600181161561010002600019011693909304601f8101859004909402810160609081018352918101848152909384928491908401828280156127b95780601f1061278e576101008083540402835291602001916127b9565b820191906000526020600020905b81548152906001019060200180831161279c57829003601f168201915b50505050508152602001600182018054600181600116156101000203166002900480601f01602080910402602001604051908101604052809291908181526020018280546001816001161561010002031660029004801561285b5780601f106128305761010080835404028352916020019161285b565b820191906000526020600020905b81548152906001019060200180831161283e57829003601f168201915b50505050508152505081526020019060010190612715565b50505090825250600382015460ff90811615156020830152600483015460408301526005830154161515606082015260069091015460809091015283518490849081106128bc57fe5b602090810290910101526001909101906128d6565b6128de565b600101612694565b8298505b5050505050505050919050565b60056020819052600091825260409091208054600182015460038301546004840154948401546006909401549294919360ff9182169391169086565b61293361478b565b61293b61478b565b336000908152600360209081526040918290208251610100808201855282548252600180840180548751600293821615909402600019011691909104601f8101869004860283018601909652858252919492938581019391929190830182828015611ad65780601f10611aab57610100808354040283529160200191611ad6565b60606000806000606060006129d2600a886134f9565b6002549095506129e390600a613532565b60025490945015806129fa57506002546000190185115b80612a0457508387115b15612a0e57612ecd565b60408051600a80825261016082019092526000945090816020015b612a316147f3565b815260200190600190039081612a295790505091508490505b600254811015612ec95760016000600283815481101515612a6757fe5b9060005260206000200154815260200190815260200160002061014060405190810160405290816000820154815260200160018201548152602001600282018054600181600116156101000203166002900480601f016020809104026020016040519081016040528092919081815260200182805460018160011615610100020316600290048015612b3a5780601f10612b0f57610100808354040283529160200191612b3a565b820191906000526020600020905b815481529060010190602001808311612b1d57829003601f168201915b505050918352505060038201805460408051602060026001851615610100026000190190941693909304601f8101849004840282018401909252818152938201939291830182828015612bce5780601f10612ba357610100808354040283529160200191612bce565b820191906000526020600020905b815481529060010190602001808311612bb157829003601f168201915b505050918352505060048201805460408051602060026001851615610100026000190190941693909304601f8101849004840282018401909252818152938201939291830182828015612c625780601f10612c3757610100808354040283529160200191612c62565b820191906000526020600020905b815481529060010190602001808311612c4557829003601f168201915b505050918352505060058201805460408051602060026001851615610100026000190190941693909304601f8101849004840282018401909252818152938201939291830182828015612cf65780601f10612ccb57610100808354040283529160200191612cf6565b820191906000526020600020905b815481529060010190602001808311612cd957829003601f168201915b505050918352505060068201805460408051602060026001851615610100026000190190941693909304601f8101849004840282018401909252818152938201939291830182828015612d8a5780601f10612d5f57610100808354040283529160200191612d8a565b820191906000526020600020905b815481529060010190602001808311612d6d57829003601f168201915b5050505050815260200160078201805480602002602001604051908101604052809291908181526020018280548015612de257602002820191906000526020600020905b815481526020019060010190808311612dce575b5050505050815260200160088201805480602002602001604051908101604052809291908181526020018280548015612e3a57602002820191906000526020600020905b815481526020019060010190808311612e26575b5050505050815260200160098201805480602002602001604051908101604052809291908181526020018280548015612e9c57602002820191906000526020600020905b8154600160a060020a03168152600190910190602001808311612e7e575b5050505050815250508284815181101515612eb357fe5b6020908102909101015260019283019201612a4a565b8195505b5050505050919050565b60016007541115612f0357600083815260056020526040902060030154612f0390849060ff1684610ef3565b60008381526005602081905260409091208054600382015460048301549290930154612f3a938793879260ff928316921687613355565b505050565b612f4833614426565b565b612f5333611c6d565b1515612f5e57600080fd5b6106518161446e565b600080612f7333611c6d565b1515612f7e57600080fd5b60008811612fa15760405160e560020a62461bcd0281526004016104fd906159da565b612faa88613d4e565b60008181526001602052604090205490915015612fdc5760405160e560020a62461bcd0281526004016104fd9061596a565b612feb81898989898989613555565b979650505050505050565b600160a060020a038181166000908152600360205260408120600601549091829182916101009091041681106130415760405160e560020a62461bcd0281526004016104fd9061590a565b6002600160a060020a03851660009081526003602052604090206006015460ff16600281111561306d57fe5b1461308d5760405160e560020a62461bcd0281526004016104fd906159aa565b600160a060020a03841660009081526003602052604090206004810154815460069092015490945090925060ff1660028111156130c657fe5b9050611a0f82898989878a878b6001613f3d565b6130e333611c6d565b15156130ee57600080fd5b600160a060020a0381166000908152600360208190526040909120015461311590826131ae565b604080518082018252600b81527f53757065722061646d696e0000000000000000000000000000000000000000006020808301918252600160a060020a038516600090815260039091529290922090516131759260059092019190614847565b50600160a060020a0381166000908152600360208190526040822090810191909155600601805460ff1916600217905561065181612f4a565b6000805b600084815260016020526040902060090154600019018110156132ae5760008481526001602052604090206009018054600160a060020a0385169190839081106131f857fe5b600091825260209091200154600160a060020a0316141561321857600191505b81156132a657600084815260016020819052604090912060090180549091830190811061324157fe5b6000918252602080832090910154868352600190915260409091206009018054600160a060020a03909216918390811061327757fe5b9060005260206000200160006101000a815481600160a060020a030219169083600160a060020a031602179055505b6001016131b2565b6000848152600160205260409020600901805460001981019081106132cf57fe5b60009182526020808320909101805473ffffffffffffffffffffffffffffffffffffffff19169055858252600190526040902060090180549061071f9060001983016148c1565b336000908152600360208190526040909120015490565b60009081526001602052604090206008015490565b6000908152600160205260408120541190565b61335d6147dc565b60606000606061336c89613b4e565b935061337784613b9c565b60008c8152600560205260408120600181018e90558c815560038101805460ff19168c15151790559194506133af91600201906148e5565b600091505b8251821015613476576133ce8383815181101515610f2d57fe5b9050600560008c815260200190815260200160002060020160408051908101604052806134038460008151811015156110bb57fe5b815260200161341a8460018151811015156110bb57fe5b9052815460018101808455600093845260209384902083518051929560029094029091019261344e92849290910190614847565b5060208281015180516134679260018501920190614847565b505050508160010191506133b4565b505050600097885250600560208190526040909720600481019390935560068301559401805460ff191694151594909417909355505050565b6000918252600160208181526040842060080180549283018155845290922090910155565b6000918252600160208181526040842060070180549283018155845290922090910155565b60008083151561350c576000915061352b565b5082820282848281151561351c57fe5b041461352757600080fd5b8091505b5092915050565b60008080831161354157600080fd5b828481151561354c57fe5b04949350505050565b61355d6147f3565b855115156135805760405160e560020a62461bcd0281526004016104fd906159ba565b825115156135a35760405160e560020a62461bcd0281526004016104fd9061599a565b815115156135c65760405160e560020a62461bcd0281526004016104fd9061598a565b6000888152600160208181526040928390208351610140810185528154815281840154818401526002808301805487519681161561010002600019011691909104601f8101859004850286018501875280865291959294928601939091908301828280156136755780601f1061364a57610100808354040283529160200191613675565b820191906000526020600020905b81548152906001019060200180831161365857829003601f168201915b505050918352505060038201805460408051602060026001851615610100026000190190941693909304601f81018490048402820184019092528181529382019392918301828280156137095780601f106136de57610100808354040283529160200191613709565b820191906000526020600020905b8154815290600101906020018083116136ec57829003601f168201915b505050918352505060048201805460408051602060026001851615610100026000190190941693909304601f810184900484028201840190925281815293820193929183018282801561379d5780601f106137725761010080835404028352916020019161379d565b820191906000526020600020905b81548152906001019060200180831161378057829003601f168201915b505050918352505060058201805460408051602060026001851615610100026000190190941693909304601f81018490048402820184019092528181529382019392918301828280156138315780601f1061380657610100808354040283529160200191613831565b820191906000526020600020905b81548152906001019060200180831161381457829003601f168201915b505050918352505060068201805460408051602060026001851615610100026000190190941693909304601f81018490048402820184019092528181529382019392918301828280156138c55780601f1061389a576101008083540402835291602001916138c5565b820191906000526020600020905b8154815290600101906020018083116138a857829003601f168201915b505050505081526020016007820180548060200260200160405190810160405280929190818152602001828054801561391d57602002820191906000526020600020905b815481526020019060010190808311613909575b505050505081526020016008820180548060200260200160405190810160405280929190818152602001828054801561397557602002820191906000526020600020905b815481526020019060010190808311613961575b50505050508152602001600982018054806020026020016040519081016040528092919081815260200182805480156139d757602002820191906000526020600020905b8154600160a060020a031681526001909101906020018083116139b9575b50505091909252505050888152602080820189815260408084018a8152606085018a90526080850189905260a0850188905260c0850187905260008d815260018086529290208551815592519183019190915551805193945084939192613a4692600285019290910190614847565b5060608201518051613a62916003840191602090910190614847565b5060808201518051613a7e916004840191602090910190614847565b5060a08201518051613a9a916005840191602090910190614847565b5060c08201518051613ab6916006840191602090910190614847565b5060e08201518051613ad2916007840191602090910190614906565b506101008201518051613aef916008840191602090910190614906565b506101208201518051613b0c916009840191602090910190614940565b5050600280546001810182556000919091527f405787fa12a823e0f2b7631cc41b3ba8828b3321ca811111fa75cd3aa3bb5ace01989098555050505050505050565b613b566147dc565b6000825160001415613b7d5760408051808201909152600080825260208201529150611f70565b5050604080518082019091528151815260209182019181019190915290565b6060600080600080613bad866144b6565b1515613bb857600080fd5b613bc1866144e5565b935083604051908082528060200260200182016040528015613bfd57816020015b613bea6147dc565b815260200190600190039081613be25790505b509450613c0d8660200151614535565b8660200151019250600090505b83811015613c6657613c2b83614598565b91506040805190810160405280838152602001848152508582815181101515613c5057fe5b6020908102909101015291810191600101613c1a565b50505050919050565b6000806000806000613c848660200151614535565b86516020978801518201519190039096036101000a90950495945050505050565b606060008060606000613cbb8660200151614535565b9350838660000151039250826040519080825280601f01601f191660200182016040528015613cf4578160200160208202803883390190505b509150816020019050613d0e848760200151018285614629565b50949350505050565b6000600160a060020a0382161515613d2e57600080fd5b50600160a060020a03166000908152602091909152604090205460ff1690565b6000808080600285061515613de05784604051602001808281526020019150506040516020818303038152906040526040518082805190602001908083835b60208310613dac5780518252601f199092019160209182019101613d8d565b6001836020036101000a03801982511681845116808217855250505050505090500191505060405180910390209250613ecb565b84604051602001808281526020019150506040516020818303038152906040526040518082805190602001908083835b60208310613e2f5780518252601f199092019160209182019101613e10565b51815160209384036101000a600019018019909216911617905260408051929094018290038220828201528351808303820181529184019384905281519195509293508392850191508083835b60208310613e9b5780518252601f199092019160209182019101613e7c565b6001836020036101000a038019825116818451168082178552505050505050905001915050604051809103902092505b6020811015613ef857828160208110613ee057fe5b60f860020a91901a8102049190910190600101613ecb565b826020600284010660208110613f0a57fe5b60f860020a91901a810204836020840660208110613f2457fe5b1a60f860020a0260f860020a9004029350505050919050565b613f4561478b565b600084101580613f56575060028411155b1515613f775760405160e560020a62461bcd0281526004016104fd9061593a565b84511515613f9a5760405160e560020a62461bcd0281526004016104fd906158da565b600160a060020a0383166000908152600360209081526040918290208251610100808201855282548252600180840180548751600293821615909402600019011691909104601f810186900486028301860190965285825291949293858101939192919083018282801561404f5780601f106140245761010080835404028352916020019161404f565b820191906000526020600020905b81548152906001019060200180831161403257829003601f168201915b5050509183525050600282810180546040805160206001841615610100026000190190931694909404601f810183900483028501830190915280845293810193908301828280156140e15780601f106140b6576101008083540402835291602001916140e1565b820191906000526020600020905b8154815290600101906020018083116140c457829003601f168201915b505050505081526020016003820154815260200160048201548152602001600582018054600181600116156101000203166002900480601f0160208091040260200160405190810160405280929190818152602001828054600181600116156101000203166002900480156141975780601f1061416c57610100808354040283529160200191614197565b820191906000526020600020905b81548152906001019060200180831161417a57829003601f168201915b5050509183525050600682015460209091019060ff1660028111156141b857fe5b60028111156141c357fe5b8152600691909101546101009004600160a060020a03166020918201528b825281018a905260408101899052606081018890526080810187905260a08101869052905083600281111561421257fe5b8160c00190600281111561422257fe5b9081600281111561422f57fe5b905250600160a060020a03831660e082018190526000908152600360209081526040909120825181558183015180518493614271926001850192910190614847565b506040820151805161428d916002840191602090910190614847565b50606082015160038201556080820151600482015560a082015180516142bd916005840191602090910190614847565b5060c082015160068201805460ff191660018360028111156142db57fe5b021790555060e0919091015160069091018054600160a060020a039092166101000274ffffffffffffffffffffffffffffffffffffffff001990921691909117905581151561438557600480546001810182556000919091527f8a35acfbc15ff81a39ae7d344fd709f28e8600b4aa8c65c6b64bfe7fe36bd19b01805473ffffffffffffffffffffffffffffffffffffffff1916600160a060020a03851617905561438587614670565b50505050505050505050565b600081815260016020526040812054606091106143c35760405160e560020a62461bcd0281526004016104fd9061594a565b6000828152600160209081526040918290206008018054835181840281018401909452808452909183018282801561441a57602002820191906000526020600020905b815481526020019060010190808311614406575b50505050509050919050565b61443760008263ffffffff6146af16565b604051600160a060020a038216907f3525e22824a8a7df2c9a6029941c824cf95b6447f1e13d5128fd3826d35afe8b90600090a250565b61447f60008263ffffffff6146fb16565b604051600160a060020a038216907f47d1c22a25bb3a5d4e481b9b1e6944c2eade3181a0a20b495ed61d35b5323f2490600090a250565b6020810151805160009190821a9060c060ff831610156144d957600092506144de565b600192505b5050919050565b600080600080600092506144fc8560200151614535565b6020860151865191810193500190505b8082101561452c5761451d82614598565b6001909301929091019061450c565b50909392505050565b8051600090811a608081101561454e5760009150611f70565b60b8811080614569575060c08110801590614569575060f881105b156145775760019150611f70565b60c081101561458c5760b51981019150611f70565b60f51981019150611f70565b8051600090811a60808110156145b15760019150611f70565b60b88110156145c657607e1981019150611f70565b60c08110156145f35760b78103600184019350806020036101000a84510460018201810193505050611f70565b60f88110156146085760be1981019150611f70565b60019290920151602083900360f7016101000a900490910160f51901919050565b60005b6020821061464e578351835260209384019390920191601f199091019061462c565b50915181516020939093036101000a6000190180199091169216919091179052565b6000908152600160208181526040832060090180549283018155835290912001805473ffffffffffffffffffffffffffffffffffffffff191633179055565b600160a060020a03811615156146c457600080fd5b6146ce8282613d17565b15156146d957600080fd5b600160a060020a0316600090815260209190915260409020805460ff19169055565b600160a060020a038116151561471057600080fd5b61471a8282613d17565b1561472457600080fd5b600160a060020a0316600090815260209190915260409020805460ff19166001179055565b60e06040519081016040528060008152602001600081526020016060815260200160001515815260200160008152602001600015158152602001600081525090565b61010060405190810160405280600081526020016060815260200160608152602001600081526020016000815260200160608152602001600060028111156147cf57fe5b8152600060209091015290565b604080518082019091526000808252602082015290565b61014060405190810160405280600081526020016000815260200160608152602001606081526020016060815260200160608152602001606081526020016060815260200160608152602001606081525090565b828054600181600116156101000203166002900490600052602060002090601f016020900481019282601f1061488857805160ff19168380011785556148b5565b828001600101855582156148b5579182015b828111156148b557825182559160200191906001019061489a565b5061066d9291506149ae565b815481835581811115612f3a57600083815260209020612f3a9181019083016149ae565b508054600082556002029060005260206000209081019061065191906149c8565b8280548282559060005260206000209081019282156148b557916020028201828111156148b557825182559160200191906001019061489a565b8280548282559060005260206000209081019282156149a2579160200282015b828111156149a2578251825473ffffffffffffffffffffffffffffffffffffffff1916600160a060020a03909116178255602090920191600190910190614960565b5061066d9291506149f9565b6125ea91905b8082111561066d57600081556001016149b4565b6125ea91905b8082111561066d5760006149e28282614a2a565b6149f0600183016000614a2a565b506002016149ce565b6125ea91905b8082111561066d57805473ffffffffffffffffffffffffffffffffffffffff191681556001016149ff565b50805460018160011615610100020316600290046000825580601f10614a505750610651565b601f01602090049060005260206000209081019061065191906149ae565b6000614a7a8235615ac2565b9392505050565b6000614a7a8235615ace565b6000601f82018313614a9e57600080fd5b8135614ab1614aac82615a90565b615a69565b91508082526020830160208301858383011115614acd57600080fd5b614ad8838284615aea565b50505092915050565b6000614a7a82356125ea565b600060208284031215614aff57600080fd5b6000614b0b8484614a6e565b949350505050565b600080600080600060a08688031215614b2b57600080fd5b853567ffffffffffffffff811115614b4257600080fd5b614b4e88828901614a8d565b955050602086013567ffffffffffffffff811115614b6b57600080fd5b614b7788828901614a8d565b9450506040614b8888828901614ae1565b935050606086013567ffffffffffffffff811115614ba557600080fd5b614bb188828901614a8d565b9250506080614bc288828901614a6e565b9150509295509295909350565b600060208284031215614be157600080fd5b6000614b0b8484614ae1565b600080600060608486031215614c0257600080fd5b6000614c0e8686614ae1565b9350506020614c1f86828701614a81565b925050604084013567ffffffffffffffff811115614c3c57600080fd5b614c4886828701614a8d565b9150509250925092565b60008060008060808587031215614c6857600080fd5b6000614c748787614ae1565b945050602085013567ffffffffffffffff811115614c9157600080fd5b614c9d87828801614a8d565b9350506040614cae87828801614a81565b9250506060614cbf87828801614ae1565b91505092959194509250565b600080600060608486031215614ce057600080fd5b6000614cec8686614ae1565b935050602084013567ffffffffffffffff811115614d0957600080fd5b614d1586828701614a8d565b9250506040614c4886828701614ae1565b60008060008060008060c08789031215614d3f57600080fd5b6000614d4b8989614ae1565b965050602087013567ffffffffffffffff811115614d6857600080fd5b614d7489828a01614a8d565b955050604087013567ffffffffffffffff811115614d9157600080fd5b614d9d89828a01614a8d565b945050606087013567ffffffffffffffff811115614dba57600080fd5b614dc689828a01614a8d565b935050608087013567ffffffffffffffff811115614de357600080fd5b614def89828a01614a8d565b92505060a087013567ffffffffffffffff811115614e0c57600080fd5b614e1889828a01614a8d565b9150509295509295509295565b600080600080600060a08688031215614e3d57600080fd5b6000614e498888614ae1565b955050602086013567ffffffffffffffff811115614e6657600080fd5b614e7288828901614a8d565b945050604086013567ffffffffffffffff811115614e8f57600080fd5b614e9b88828901614a8d565b935050606086013567ffffffffffffffff811115614eb857600080fd5b614ec488828901614a8d565b9250506080614bc288828901614ae1565b600080600080600080600060e0888a031215614ef057600080fd5b6000614efc8a8a614ae1565b9750506020614f0d8a828b01614ae1565b965050604088013567ffffffffffffffff811115614f2a57600080fd5b614f368a828b01614a8d565b955050606088013567ffffffffffffffff811115614f5357600080fd5b614f5f8a828b01614a8d565b945050608088013567ffffffffffffffff811115614f7c57600080fd5b614f888a828b01614a8d565b93505060a088013567ffffffffffffffff811115614fa557600080fd5b614fb18a828b01614a8d565b92505060c088013567ffffffffffffffff811115614fce57600080fd5b614fda8a828b01614a8d565b91505092959891949750929550565b614ff281615ac2565b82525050565b600061500382615abe565b80845260208401935061501583615ab8565b60005b828110156150455761502b868351614fe9565b61503482615ab8565b602096909601959150600101615018565b5093949350505050565b600061505a82615abe565b8084526020840193508360208202850161507385615ab8565b60005b848110156150aa57838303885261508e838351615607565b925061509982615ab8565b602098909801979150600101615076565b50909695505050505050565b60006150c182615abe565b808452602084019350836020820285016150da85615ab8565b60005b848110156150aa5783830388526150f583835161569c565b925061510082615ab8565b6020989098019791506001016150dd565b600061511c82615abe565b8084526020840193508360208202850161513585615ab8565b60005b848110156150aa57838303885261515083835161579f565b925061515b82615ab8565b602098909801979150600101615138565b600061517782615abe565b8084526020840193508360208202850161519085615ab8565b60005b848110156150aa5783830388526151ab8383516157d1565b92506151b682615ab8565b602098909801979150600101615193565b60006151d282615abe565b8084526020840193506151e483615ab8565b60005b82811015615045576151fa868351615880565b61520382615ab8565b6020969096019591506001016151e7565b614ff281615ace565b614ff281615adf565b600061523182615abe565b808452615245816020860160208601615af6565b61524e81615b26565b9093016020019392505050565b601a81527f4372656174696f6e204461746520697320696e6d757461626c65000000000000602082015260400190565b601181527f726f6c65206973206d616e6461746f7279000000000000000000000000000000602082015260400190565b602281527f4f6e6c792070656e64696e672075736572732063616e2062652061636365707460208201527f6564000000000000000000000000000000000000000000000000000000000000604082015260600190565b601381527f5573657220616c72656164792065786973747300000000000000000000000000602082015260400190565b601481527f546869732075736572206e6f7420657869737473000000000000000000000000602082015260400190565b601b81527f596f752063616e6e6f7420616363657074207468697320757365720000000000602082015260400190565b602281527f4f6e6c792070656e64696e672075736572732063616e2062652072656a65637460208201527f6564000000000000000000000000000000000000000000000000000000000000604082015260600190565b601381527f737461747573206973206e6f742076616c696400000000000000000000000000602082015260400190565b601181527f6d656d626572206e6f7420657869737473000000000000000000000000000000602082015260400190565b601481527f4d656d62657220646f206e6f7420657869737473000000000000000000000000602082015260400190565b601581527f4d656d62657220616c7265616479206578697374730000000000000000000000602082015260400190565b601181527f4d656d626572206e6f7420657869737473000000000000000000000000000000602082015260400190565b601281527f5468656d65206973206d616e6461746f72790000000000000000000000000000602082015260400190565b601081527f434d4f206973206d616e6461746f727900000000000000000000000000000000602082015260400190565b601481527f596f7520617265206e6f74206163636570746564000000000000000000000000602082015260400190565b601181527f4e616d65206973206d616e6461746f7279000000000000000000000000000000602082015260400190565b601181527f4e6f2076616c6964206d656d6265724964000000000000000000000000000000602082015260400190565b601981527f4372656174696f6e44617465206973206d616e6461746f727900000000000000602082015260400190565b805160009060e084019061561b8582615880565b50602083015161562e6020860182615880565b50604083015184820360408601526156468282615111565b915050606083015161565b6060860182615214565b50608083015161566e6080860182615880565b5060a083015161568160a0860182615214565b5060c083015161569460c0860182615880565b509392505050565b80516000906101408401906156b18582615880565b5060208301516156c46020860182615880565b50604083015184820360408601526156dc8282615226565b915050606083015184820360608601526156f68282615226565b915050608083015184820360808601526157108282615226565b91505060a083015184820360a086015261572a8282615226565b91505060c083015184820360c08601526157448282615226565b91505060e083015184820360e086015261575e82826151c7565b91505061010083015184820361010086015261577a82826151c7565b9150506101208301518482036101208601526157968282614ff8565b95945050505050565b80516040808452600091908401906157b78282615226565b915050602083015184820360208601526157968282615226565b80516000906101008401906157e68582615880565b50602083015184820360208601526157fe8282615226565b915050604083015184820360408601526158188282615226565b915050606083015161582d6060860182615880565b5060808301516158406080860182615880565b5060a083015184820360a08601526158588282615226565b91505060c083015161586d60c086018261521d565b5060e083015161569460e0860182614fe9565b614ff2816125ea565b60208082528101614a7a818461504f565b60208082528101614a7a81846150b6565b60208082528101614a7a818461516c565b60208101611c7f8284615214565b60208082528101611c7f8161525b565b60208082528101611c7f8161528b565b60208082528101611c7f816152bb565b60208082528101611c7f81615311565b60208082528101611c7f81615341565b60208082528101611c7f81615371565b60208082528101611c7f816153a1565b60208082528101611c7f816153f7565b60208082528101611c7f81615427565b60208082528101611c7f81615457565b60208082528101611c7f81615487565b60208082528101611c7f816154b7565b60208082528101611c7f816154e7565b60208082528101611c7f81615517565b60208082528101611c7f81615547565b60208082528101611c7f81615577565b60208082528101611c7f816155a7565b60208082528101611c7f816155d7565b60208082528101614a7a8184615607565b60208082528101614a7a81846157d1565b60208101611c7f8284615880565b60c08101615a288289615880565b615a356020830188615880565b615a426040830187615214565b615a4f6060830186615880565b615a5c6080830185615214565b612feb60a0830184615880565b60405181810167ffffffffffffffff81118282101715615a8857600080fd5b604052919050565b600067ffffffffffffffff821115615aa757600080fd5b506020601f91909101601f19160190565b60200190565b5190565b600160a060020a031690565b151590565b60006003821061066d57fe5b6000611c7f82615ad3565b82818337506000910152565b60005b83811015615b11578181015183820152602001615af9565b83811115615b20576000848401525b50505050565b601f01601f1916905600a265627a7a723058200ea3081d725057281bebe405acf7b18ae0d0584afb7bcbe3c4792ce9927d5be46c6578706572696d656e74616cf50037",
  "source": "pragma solidity ^0.4.24;\npragma experimental ABIEncoderV2;\n\nimport \"../../node_modules/solidity-rlp/contracts/RLPReader.sol\";\nimport \"./Users.sol\";\nimport \"./Lib.sol\";\n\ncontract Claims is Users, Lib {\n\n  using RLPReader for bytes;\n  using RLPReader for uint;\n  using RLPReader for RLPReader.RLPItem;\n\n  uint256 constant private PAGE_SIZE = 10;\n\n  function registerClaim(uint256 _creationDate, bytes _claimData, bool _claimType, uint _memberOwner) public {\n\n    require(_creationDate > 0, \"CreationDate is mandatory\");\n    //    require(_claimType || !_claimType, \"Incorrect Claim Type\");\n\n    uint256 _claimId = ++claimIdCounter_;\n    //    uint256 _claimId = Random.rand(_creationDate);\n\n    //    require(claims_[_claimId].claimId == 0, \"Claim already exists\");\n    require(_memberExists(_memberOwner), \"Member do not exists\");\n\n    //    uint256\n    _memberOwner = _memberIdFromCurrentAddress();\n\n    _saveClaim(_claimId, _creationDate, _claimData, _claimType, _memberOwner, false, _creationDate);\n    _addClaimIdToMemberOwner(_memberOwner, _claimId);\n\n    checkClaimStatus(_claimId, _claimType, _claimData);\n\n    if (claims_[_claimId].status) {       // if status == true, which means there IS a CONFLICT\n      // addClaimFromInbox for every relevant member\n      _addClaimFromInbox(_memberOwner, _claimId);\n    }\n\n  }\n  //\n  function updateClaim(uint256 _claimId, bytes _claimData, uint _lastChange) public {\n    //    require(claims_[_claimId].claimId > 0, \"Claim not exists\");\n\n    if (claimIdCounter_ > 1) {\n      checkClaimStatus(_claimId, claims_[_claimId].claimType, _claimData);\n    }\n    _saveClaim(_claimId, claims_[_claimId].creationDate, _claimData, claims_[_claimId].claimType,\n      claims_[_claimId].memberOwner, claims_[_claimId].status, _lastChange);\n  }\n\n  function getClaim(uint256 _claimId) view public returns (Claim) {\n    return claims_[_claimId];\n  }\n\n  function getClaimsByMemberId(uint _page) view public returns (Claim[] memory) {\n    uint256 pageIndex = SafeMath.mul(PAGE_SIZE, _page);\n    uint256 _memberId = _memberIdFromCurrentAddress();\n    uint count = _getClaimsCountByMember(_memberId);\n    uint256 pageNumber = SafeMath.div(count, PAGE_SIZE);\n\n    if (count == 0 || pageIndex > count - 1 || _page > pageNumber) {\n      return;\n    }\n\n    uint256[] memory claimsId = _getClaimsIdByMember(_memberId);\n\n    Claim[] memory _claims = new Claim[](PAGE_SIZE);\n    uint256 returnCounter = 0;\n    for (uint i = pageIndex; i < claimsId.length; ++i) {\n      if(returnCounter < PAGE_SIZE) {\n        _claims[returnCounter] = claims_[claimsId[i]];\n        ++returnCounter;\n      } else {\n        break;\n      }\n    }\n    return _claims;\n  }\n\n  function getClaimsCountByMemberId() view public returns (uint) {\n    uint256 _memberId = _memberIdFromCurrentAddress();\n    return _getClaimsCountByMember(_memberId);\n  }\n\n  // Private\n  function _saveClaim(uint256 _claimId, uint256 _creationDate, bytes _claimData, bool _claimType,\n    uint _memberOwner, bool _status, uint256 _lastChange) internal {\n\n    RLPReader.RLPItem memory item = _claimData.toRlpItem();\n    RLPReader.RLPItem[] memory itemList = item.toList(); // ((name, value), (name, value), (name, value), ...)\n\n    claims_[_claimId].claimId = _claimId;\n    claims_[_claimId].creationDate = _creationDate;\n    claims_[_claimId].claimType = _claimType;\n\n    delete claims_[_claimId].claimData;\n    for(uint i = 0; i < itemList.length; ++i) {\n      RLPReader.RLPItem[] memory itemListClaim = itemList[i].toList(); // (name, value)\n      claims_[_claimId].claimData.push(NameValue(string(itemListClaim[0].toBytes()), string(itemListClaim[1].toBytes())));\n    }\n\n    claims_[_claimId].memberOwner = _memberOwner;\n    claims_[_claimId].lastChange = _lastChange;\n    claims_[_claimId].status = _status;\n  }\n\n}\n",
  "sourcePath": "/home/komodo/newUI/bloomen-decentralized-rights-management-v2/truffle/contracts/registry/Claims.sol",
  "compiler": {
    "name": "solc",
    "version": "0.4.24+commit.e67f0147.Emscripten.clang"
  },
  "schemaVersion": "2.0.1",
  "updatedAt": "2019-11-14T13:45:48.902Z"
}