{
  "contractName": "Claims",
  "abi": [
    {
      "constant": false,
      "inputs": [
        {
          "name": "_userToAccept",
          "type": "address"
        }
      ],
      "name": "acceptUser",
      "outputs": [],
      "payable": false,
      "stateMutability": "nonpayable",
      "type": "function"
    },
    {
      "constant": false,
      "inputs": [
        {
          "name": "_userToReject",
          "type": "address"
        }
      ],
      "name": "rejectUser",
      "outputs": [],
      "payable": false,
      "stateMutability": "nonpayable",
      "type": "function"
    },
    {
      "constant": true,
      "inputs": [
        {
          "name": "_page",
          "type": "uint256"
        }
      ],
      "name": "getUsers",
      "outputs": [
        {
          "components": [
            {
              "name": "creationDate",
              "type": "uint256"
            },
            {
              "name": "firstName",
              "type": "string"
            },
            {
              "name": "lastName",
              "type": "string"
            },
            {
              "name": "memberId",
              "type": "uint256"
            },
            {
              "name": "requestId",
              "type": "uint256"
            },
            {
              "name": "role",
              "type": "string"
            },
            {
              "name": "status",
              "type": "uint8"
            },
            {
              "name": "owner",
              "type": "address"
            }
          ],
          "name": "",
          "type": "tuple[]"
        }
      ],
      "payable": false,
      "stateMutability": "view",
      "type": "function"
    },
    {
      "constant": false,
      "inputs": [
        {
          "name": "_memberId",
          "type": "uint256"
        },
        {
          "name": "_creationDate",
          "type": "uint256"
        },
        {
          "name": "_name",
          "type": "string"
        },
        {
          "name": "_logo",
          "type": "string"
        },
        {
          "name": "_country",
          "type": "string"
        },
        {
          "name": "_cmo",
          "type": "string"
        },
        {
          "name": "_theme",
          "type": "string"
        }
      ],
      "name": "updateMember",
      "outputs": [],
      "payable": false,
      "stateMutability": "nonpayable",
      "type": "function"
    },
    {
      "constant": true,
      "inputs": [
        {
          "name": "userAddress",
          "type": "address"
        }
      ],
      "name": "getUserByAddress",
      "outputs": [
        {
          "components": [
            {
              "name": "creationDate",
              "type": "uint256"
            },
            {
              "name": "firstName",
              "type": "string"
            },
            {
              "name": "lastName",
              "type": "string"
            },
            {
              "name": "memberId",
              "type": "uint256"
            },
            {
              "name": "requestId",
              "type": "uint256"
            },
            {
              "name": "role",
              "type": "string"
            },
            {
              "name": "status",
              "type": "uint8"
            },
            {
              "name": "owner",
              "type": "address"
            }
          ],
          "name": "",
          "type": "tuple"
        }
      ],
      "payable": false,
      "stateMutability": "view",
      "type": "function"
    },
    {
      "constant": true,
      "inputs": [
        {
          "name": "account",
          "type": "address"
        }
      ],
      "name": "isSigner",
      "outputs": [
        {
          "name": "",
          "type": "bool"
        }
      ],
      "payable": false,
      "stateMutability": "view",
      "type": "function"
    },
    {
      "constant": true,
      "inputs": [],
      "name": "getUsersOwner",
      "outputs": [
        {
          "components": [
            {
              "name": "creationDate",
              "type": "uint256"
            },
            {
              "name": "firstName",
              "type": "string"
            },
            {
              "name": "lastName",
              "type": "string"
            },
            {
              "name": "memberId",
              "type": "uint256"
            },
            {
              "name": "requestId",
              "type": "uint256"
            },
            {
              "name": "role",
              "type": "string"
            },
            {
              "name": "status",
              "type": "uint8"
            },
            {
              "name": "owner",
              "type": "address"
            }
          ],
          "name": "",
          "type": "tuple[]"
        }
      ],
      "payable": false,
      "stateMutability": "view",
      "type": "function"
    },
    {
      "constant": true,
      "inputs": [],
      "name": "getMembers",
      "outputs": [
        {
          "components": [
            {
              "name": "memberId",
              "type": "uint256"
            },
            {
              "name": "creationDate",
              "type": "uint256"
            },
            {
              "name": "name",
              "type": "string"
            },
            {
              "name": "logo",
              "type": "string"
            },
            {
              "name": "country",
              "type": "string"
            },
            {
              "name": "cmo",
              "type": "string"
            },
            {
              "name": "theme",
              "type": "string"
            },
            {
              "name": "claimInbox",
              "type": "uint256[]"
            },
            {
              "name": "claims",
              "type": "uint256[]"
            },
            {
              "name": "userRequests",
              "type": "address[]"
            }
          ],
          "name": "",
          "type": "tuple[]"
        }
      ],
      "payable": false,
      "stateMutability": "view",
      "type": "function"
    },
    {
      "constant": true,
      "inputs": [],
      "name": "getcountUsers",
      "outputs": [
        {
          "name": "",
          "type": "uint256"
        }
      ],
      "payable": false,
      "stateMutability": "view",
      "type": "function"
    },
    {
      "constant": false,
      "inputs": [
        {
          "name": "_creationDate",
          "type": "uint256"
        },
        {
          "name": "_firstName",
          "type": "string"
        },
        {
          "name": "_lastName",
          "type": "string"
        },
        {
          "name": "_role",
          "type": "string"
        },
        {
          "name": "_memberId",
          "type": "uint256"
        }
      ],
      "name": "registerUserRequest",
      "outputs": [],
      "payable": false,
      "stateMutability": "nonpayable",
      "type": "function"
    },
    {
      "constant": true,
      "inputs": [],
      "name": "getCount",
      "outputs": [
        {
          "name": "",
          "type": "uint256"
        }
      ],
      "payable": false,
      "stateMutability": "view",
      "type": "function"
    },
    {
      "constant": true,
      "inputs": [],
      "name": "getMe",
      "outputs": [
        {
          "components": [
            {
              "name": "creationDate",
              "type": "uint256"
            },
            {
              "name": "firstName",
              "type": "string"
            },
            {
              "name": "lastName",
              "type": "string"
            },
            {
              "name": "memberId",
              "type": "uint256"
            },
            {
              "name": "requestId",
              "type": "uint256"
            },
            {
              "name": "role",
              "type": "string"
            },
            {
              "name": "status",
              "type": "uint8"
            },
            {
              "name": "owner",
              "type": "address"
            }
          ],
          "name": "",
          "type": "tuple"
        }
      ],
      "payable": false,
      "stateMutability": "view",
      "type": "function"
    },
    {
      "constant": true,
      "inputs": [
        {
          "name": "_page",
          "type": "uint256"
        }
      ],
      "name": "getMembers",
      "outputs": [
        {
          "components": [
            {
              "name": "memberId",
              "type": "uint256"
            },
            {
              "name": "creationDate",
              "type": "uint256"
            },
            {
              "name": "name",
              "type": "string"
            },
            {
              "name": "logo",
              "type": "string"
            },
            {
              "name": "country",
              "type": "string"
            },
            {
              "name": "cmo",
              "type": "string"
            },
            {
              "name": "theme",
              "type": "string"
            },
            {
              "name": "claimInbox",
              "type": "uint256[]"
            },
            {
              "name": "claims",
              "type": "uint256[]"
            },
            {
              "name": "userRequests",
              "type": "address[]"
            }
          ],
          "name": "",
          "type": "tuple[]"
        }
      ],
      "payable": false,
      "stateMutability": "view",
      "type": "function"
    },
    {
      "constant": false,
      "inputs": [],
      "name": "renounceSigner",
      "outputs": [],
      "payable": false,
      "stateMutability": "nonpayable",
      "type": "function"
    },
    {
      "constant": false,
      "inputs": [
        {
          "name": "account",
          "type": "address"
        }
      ],
      "name": "addSigner",
      "outputs": [],
      "payable": false,
      "stateMutability": "nonpayable",
      "type": "function"
    },
    {
      "constant": false,
      "inputs": [
        {
          "name": "_creationDate",
          "type": "uint256"
        },
        {
          "name": "_name",
          "type": "string"
        },
        {
          "name": "_logo",
          "type": "string"
        },
        {
          "name": "_country",
          "type": "string"
        },
        {
          "name": "_cmo",
          "type": "string"
        },
        {
          "name": "_theme",
          "type": "string"
        }
      ],
      "name": "addMember",
      "outputs": [
        {
          "name": "",
          "type": "uint256"
        }
      ],
      "payable": false,
      "stateMutability": "nonpayable",
      "type": "function"
    },
    {
      "constant": false,
      "inputs": [
        {
          "name": "_firstName",
          "type": "string"
        },
        {
          "name": "_lastName",
          "type": "string"
        },
        {
          "name": "_memberId",
          "type": "uint256"
        },
        {
          "name": "_role",
          "type": "string"
        },
        {
          "name": "owner",
          "type": "address"
        }
      ],
      "name": "updateUser",
      "outputs": [],
      "payable": false,
      "stateMutability": "nonpayable",
      "type": "function"
    },
    {
      "constant": false,
      "inputs": [
        {
          "name": "account",
          "type": "address"
        }
      ],
      "name": "whitelistAdmin",
      "outputs": [],
      "payable": false,
      "stateMutability": "nonpayable",
      "type": "function"
    },
    {
      "anonymous": false,
      "inputs": [
        {
          "indexed": true,
          "name": "account",
          "type": "address"
        }
      ],
      "name": "SignerAdded",
      "type": "event"
    },
    {
      "anonymous": false,
      "inputs": [
        {
          "indexed": true,
          "name": "account",
          "type": "address"
        }
      ],
      "name": "SignerRemoved",
      "type": "event"
    },
    {
      "constant": false,
      "inputs": [
        {
          "name": "_creationDate",
          "type": "uint256"
        },
        {
          "name": "_claimData",
          "type": "bytes"
        },
        {
          "name": "_claimType",
          "type": "bool"
        },
        {
          "name": "_memberOwner",
          "type": "uint256"
        },
        {
          "name": "reg_update",
          "type": "bool"
        },
        {
          "name": "_claimId",
          "type": "uint256"
        },
        {
          "name": "_oldClaimData",
          "type": "bytes"
        },
        {
          "name": "_lastChange",
          "type": "uint256"
        }
      ],
      "name": "computeClaim",
      "outputs": [],
      "payable": false,
      "stateMutability": "nonpayable",
      "type": "function"
    },
    {
      "constant": true,
      "inputs": [
        {
          "name": "_page",
          "type": "uint256"
        }
      ],
      "name": "getClaimsByMemberId",
      "outputs": [
        {
          "components": [
            {
              "name": "creationDate",
              "type": "uint256"
            },
            {
              "name": "claimId",
              "type": "uint256"
            },
            {
              "components": [
                {
                  "name": "name",
                  "type": "string"
                },
                {
                  "name": "value",
                  "type": "string"
                }
              ],
              "name": "claimData",
              "type": "tuple[]"
            },
            {
              "name": "claimType",
              "type": "bool"
            },
            {
              "name": "memberOwner",
              "type": "uint256"
            },
            {
              "name": "status",
              "type": "bool"
            },
            {
              "name": "lastChange",
              "type": "uint256"
            }
          ],
          "name": "",
          "type": "tuple[]"
        }
      ],
      "payable": false,
      "stateMutability": "view",
      "type": "function"
    },
    {
      "constant": true,
      "inputs": [],
      "name": "getClaimsCountByMemberId",
      "outputs": [
        {
          "name": "",
          "type": "uint256"
        }
      ],
      "payable": false,
      "stateMutability": "view",
      "type": "function"
    }
  ],
  "bytecode": "0x608060405260006008556200001d3364010000000062000023810204565b62000108565b6200003e600082640100000000620042146200007582021704565b604051600160a060020a038216907f47d1c22a25bb3a5d4e481b9b1e6944c2eade3181a0a20b495ed61d35b5323f2490600090a250565b600160a060020a03811615156200008b57600080fd5b620000a08282640100000000620000d0810204565b15620000ab57600080fd5b600160a060020a0316600090815260209190915260409020805460ff19166001179055565b6000600160a060020a0382161515620000e857600080fd5b50600160a060020a03166000908152602091909152604090205460ff1690565b615ab780620001186000396000f30060806040526004361061011c5763ffffffff7c010000000000000000000000000000000000000000000000000000000060003504166308bdc24d81146101215780631be8850b146101435780634dc928851461016e5780635d73ab9a1461018e57806365ff0c48146101bb57806369c212f6146101db5780637df73e2714610208578063932191be146102355780639eab52531461024a578063a4fdc5941461026c578063a7ed1fe414610281578063a87d942c146102a1578063aa5b3a06146102b6578063b6bc3812146102d6578063c11e1ff314610303578063c477ecab14610318578063e5c8b03d14610338578063eb12d61e1461034d578063fa1188c61461036d578063fcfbde5b1461038d578063ff240fce146103ad575b600080fd5b34801561012d57600080fd5b5061014161013c366004614af7565b6103cd565b005b34801561014f57600080fd5b50610158610569565b60405161016591906159ac565b60405180910390f35b34801561017a57600080fd5b50610141610189366004614af7565b610586565b34801561019a57600080fd5b506101ae6101a9366004614bd9565b6106ea565b604051610165919061585c565b3480156101c757600080fd5b506101416101d6366004614e86565b610ac5565b3480156101e757600080fd5b506101fb6101f6366004614af7565b610b54565b604051610165919061599b565b34801561021457600080fd5b50610228610223366004614af7565b610da8565b604051610165919061586d565b34801561024157600080fd5b506101ae610dc0565b34801561025657600080fd5b5061025f6110b1565b604051610165919061584b565b34801561027857600080fd5b50610158611578565b34801561028d57600080fd5b5061014161029c366004614dd6565b61163d565b3480156102ad57600080fd5b50610158611704565b3480156102c257600080fd5b506101416102d1366004614bf7565b611722565b3480156102e257600080fd5b506102f66102f1366004614bd9565b61182d565b604051610165919061583a565b34801561030f57600080fd5b506101fb611b2f565b34801561032457600080fd5b5061025f610333366004614bd9565b611bc0565b34801561034457600080fd5b506101416120db565b34801561035957600080fd5b50610141610368366004614af7565b6120e6565b34801561037957600080fd5b50610158610388366004614cd7565b612103565b34801561039957600080fd5b506101416103a8366004614b1d565b612192565b3480156103b957600080fd5b506101416103c8366004614af7565b612276565b600160a060020a0381811660009081526003602052604081206006015461010090049091161161041b5760405160e560020a62461bcd028152600401610412906158bb565b60405180910390fd5b600160a060020a0381166000908152600360208190526040808320820154338452922001541480610450575061045033610da8565b15156104715760405160e560020a62461bcd028152600401610412906158cb565b60023360009081526003602052604090206006015460ff16600281111561049457fe5b14806104a457506104a433610da8565b15156104c55760405160e560020a62461bcd0281526004016104129061595b565b6001600160a060020a03821660009081526003602052604090206006015460ff1660028111156104f157fe5b146105115760405160e560020a62461bcd0281526004016104129061589b565b600160a060020a038116600090815260036020526040902060060180546002919060ff19166001835b0217905550600160a060020a03811660009081526003602081905260409091200154610566908261234a565b50565b6000806105746124b9565b905061057f816124d0565b91505b5090565b600160a060020a038181166000908152600360205260408120600601546101009004909116116105cb5760405160e560020a62461bcd028152600401610412906158bb565b600160a060020a0381166000908152600360208190526040808320820154338452922001541480610600575061060033610da8565b15156106215760405160e560020a62461bcd028152600401610412906158cb565b60023360009081526003602052604090206006015460ff16600281111561064457fe5b1480610654575061065433610da8565b15156106755760405160e560020a62461bcd0281526004016104129061595b565b6001600160a060020a03821660009081526003602052604090206006015460ff1660028111156106a157fe5b146106c15760405160e560020a62461bcd028152600401610412906158db565b600160a060020a0381166000908152600360205260408120600601805460ff191660018361053a565b6060600080600060606000806106fe611578565b955061070b600a896124e5565b60045490955061071c90600a61251e565b935085158061072a57508585115b8061073457508388115b1561073e57610aba565b60408051600a808252610160820190925290816020015b61075d614753565b815260200190600190039081610755579050509250600091508490505b600454811015610ab657336000908152600360208190526040822081015460048054919391859081106107a957fe5b6000918252602080832090910154600160a060020a0316835282019290925260400190206003015414801561082657506002600360006004848154811015156107ee57fe5b6000918252602080832090910154600160a060020a0316835282019290925260400190206006015460ff16600281111561082457fe5b145b15610aae576003600060048381548110151561083e57fe5b600091825260208083209190910154600160a060020a0316835282810193909352604091820190208151610100808201845282548252600180840180548651600293821615909402600019011691909104601f810187900487028301870190955284825291949293858401939192918301828280156108fe5780601f106108d3576101008083540402835291602001916108fe565b820191906000526020600020905b8154815290600101906020018083116108e157829003601f168201915b5050509183525050600282810180546040805160206001841615610100026000190190931694909404601f810183900483028501830190915280845293810193908301828280156109905780601f1061096557610100808354040283529160200191610990565b820191906000526020600020905b81548152906001019060200180831161097357829003601f168201915b505050505081526020016003820154815260200160048201548152602001600582018054600181600116156101000203166002900480601f016020809104026020016040519081016040528092919081815260200182805460018160011615610100020316600290048015610a465780601f10610a1b57610100808354040283529160200191610a46565b820191906000526020600020905b815481529060010190602001808311610a2957829003601f168201915b5050509183525050600682015460209091019060ff166002811115610a6757fe5b6002811115610a7257fe5b8152600691909101546101009004600160a060020a03166020909101528351849084908110610a9d57fe5b602090810290910101526001909101905b60010161077a565b8296505b505050505050919050565b610ace33610da8565b1515610ad957600080fd5b60008781526001602052604081205411610b085760405160e560020a62461bcd0281526004016104129061592b565b600087815260016020819052604090912001548614610b3c5760405160e560020a62461bcd0281526004016104129061587b565b610b4b87878787878787612541565b50505050505050565b610b5c614753565b600160a060020a0382166000908152600360209081526040918290208251610100808201855282548252600180840180548751600293821615909402600019011691909104601f8101869004860283018601909652858252919492938581019391929190830182828015610c115780601f10610be657610100808354040283529160200191610c11565b820191906000526020600020905b815481529060010190602001808311610bf457829003601f168201915b5050509183525050600282810180546040805160206001841615610100026000190190931694909404601f81018390048302850183019091528084529381019390830182828015610ca35780601f10610c7857610100808354040283529160200191610ca3565b820191906000526020600020905b815481529060010190602001808311610c8657829003601f168201915b505050505081526020016003820154815260200160048201548152602001600582018054600181600116156101000203166002900480601f016020809104026020016040519081016040528092919081815260200182805460018160011615610100020316600290048015610d595780601f10610d2e57610100808354040283529160200191610d59565b820191906000526020600020905b815481529060010190602001808311610d3c57829003601f168201915b5050509183525050600682015460209091019060ff166002811115610d7a57fe5b6002811115610d8557fe5b8152600691909101546101009004600160a060020a031660209091015292915050565b6000610dba818363ffffffff612b3a16565b92915050565b6060806000610dce33610da8565b1515610dd957600080fd5b600454604080518281526020808402820101909152908015610e1557816020015b610e02614753565b815260200190600190039081610dfa5790505b509150600090505b6004548110156110ab5760036000600483815481101515610e3a57fe5b600091825260208083209190910154600160a060020a0316835282810193909352604091820190208151610100808201845282548252600180840180548651600293821615909402600019011691909104601f81018790048702830187019095528482529194929385840193919291830182828015610efa5780601f10610ecf57610100808354040283529160200191610efa565b820191906000526020600020905b815481529060010190602001808311610edd57829003601f168201915b5050509183525050600282810180546040805160206001841615610100026000190190931694909404601f81018390048302850183019091528084529381019390830182828015610f8c5780601f10610f6157610100808354040283529160200191610f8c565b820191906000526020600020905b815481529060010190602001808311610f6f57829003601f168201915b505050505081526020016003820154815260200160048201548152602001600582018054600181600116156101000203166002900480601f0160208091040260200160405190810160405280929190818152602001828054600181600116156101000203166002900480156110425780601f1061101757610100808354040283529160200191611042565b820191906000526020600020905b81548152906001019060200180831161102557829003601f168201915b5050509183525050600682015460209091019060ff16600281111561106357fe5b600281111561106e57fe5b8152600691909101546101009004600160a060020a0316602090910152825183908390811061109957fe5b60209081029091010152600101610e1d565b50919050565b60608060006002805490506040519080825280602002602001820160405280156110f557816020015b6110e26147a4565b8152602001906001900390816110da5790505b509150600090505b6002548110156110ab576001600060028381548110151561111a57fe5b9060005260206000200154815260200190815260200160002061014060405190810160405290816000820154815260200160018201548152602001600282018054600181600116156101000203166002900480601f0160208091040260200160405190810160405280929190818152602001828054600181600116156101000203166002900480156111ed5780601f106111c2576101008083540402835291602001916111ed565b820191906000526020600020905b8154815290600101906020018083116111d057829003601f168201915b505050918352505060038201805460408051602060026001851615610100026000190190941693909304601f81018490048402820184019092528181529382019392918301828280156112815780601f1061125657610100808354040283529160200191611281565b820191906000526020600020905b81548152906001019060200180831161126457829003601f168201915b505050918352505060048201805460408051602060026001851615610100026000190190941693909304601f81018490048402820184019092528181529382019392918301828280156113155780601f106112ea57610100808354040283529160200191611315565b820191906000526020600020905b8154815290600101906020018083116112f857829003601f168201915b505050918352505060058201805460408051602060026001851615610100026000190190941693909304601f81018490048402820184019092528181529382019392918301828280156113a95780601f1061137e576101008083540402835291602001916113a9565b820191906000526020600020905b81548152906001019060200180831161138c57829003601f168201915b505050918352505060068201805460408051602060026001851615610100026000190190941693909304601f810184900484028201840190925281815293820193929183018282801561143d5780601f106114125761010080835404028352916020019161143d565b820191906000526020600020905b81548152906001019060200180831161142057829003601f168201915b505050505081526020016007820180548060200260200160405190810160405280929190818152602001828054801561149557602002820191906000526020600020905b815481526020019060010190808311611481575b50505050508152602001600882018054806020026020016040519081016040528092919081815260200182805480156114ed57602002820191906000526020600020905b8154815260200190600101908083116114d9575b505050505081526020016009820180548060200260200160405190810160405280929190818152602001828054801561154f57602002820191906000526020600020905b8154600160a060020a03168152600190910190602001808311611531575b505050505081525050828281518110151561156657fe5b602090810290910101526001016110fd565b600080805b6004548110156110ab57336000908152600360208190526040822081015460048054919391859081106115ac57fe5b6000918252602080832090910154600160a060020a0316835282019290925260400190206003015414801561162957506002600360006004848154811015156115f157fe5b6000918252602080832090910154600160a060020a0316835282019290925260400190206006015460ff16600281111561162757fe5b145b15611635576001909101905b60010161157d565b60008115156116615760405160e560020a62461bcd0281526004016104129061597b565b600086116116845760405160e560020a62461bcd0281526004016104129061598b565b33600090815260036020526040902054156116b45760405160e560020a62461bcd028152600401610412906158ab565b6116bd82612b71565b15156116de5760405160e560020a62461bcd0281526004016104129061592b565b6116e786612b84565b90506116fc8686868585886001336000612d74565b505050505050565b600061170f33610da8565b151561171a57600080fd5b506002545b90565b8315611795576008805460010190819055925061173e85612b71565b151561175f5760405160e560020a62461bcd0281526004016104129061590b565b6117676124b9565b9450611779838989898960008e6131c8565b6117838584613343565b6117908387896001613368565b611823565b6000838152600660205260408120600301546117b891859160ff16908590613368565b6000838152600660205260409020600301546117db90849060ff16896001613368565b6000838152600660205260409020600381015460048201546005909201546118129286928c928c9260ff92831692909116876131c8565b8715156118235761182385846139a7565b5050505050505050565b6060600080600080606080600080611846600a8b6124e5565b97506118506124b9565b965061185b876124d0565b955061186886600a61251e565b945085158061187957506001860388115b806118835750848a115b1561188d57611b22565b611896876139b5565b60408051600a8082526101608201909252919550816020015b6118b76147f8565b8152602001906001900390816118af579050509250600091508790505b8351811015611b1e57600a821015611b11576006600085838151811015156118f857fe5b90602001906020020151815260200190815260200160002060e06040519081016040529081600082015481526020016001820154815260200160028201805480602002602001604051908101604052809291908181526020016000905b82821015611ab35760008481526020908190206040805160028681029093018054600181161561010002600019011693909304601f8101859004909402810160609081018352918101848152909384928491908401828280156119f95780601f106119ce576101008083540402835291602001916119f9565b820191906000526020600020905b8154815290600101906020018083116119dc57829003601f168201915b50505050508152602001600182018054600181600116156101000203166002900480601f016020809104026020016040519081016040528092919081815260200182805460018160011615610100020316600290048015611a9b5780601f10611a7057610100808354040283529160200191611a9b565b820191906000526020600020905b815481529060010190602001808311611a7e57829003601f168201915b50505050508152505081526020019060010190611955565b50505090825250600382015460ff9081161515602083015260048301546040830152600583015416151560608201526006909101546080909101528351849084908110611afc57fe5b60209081029091010152600190910190611b16565b611b1e565b6001016118d4565b8298505b5050505050505050919050565b611b37614753565b611b3f614753565b336000908152600360209081526040918290208251610100808201855282548252600180840180548751600293821615909402600019011691909104601f8101869004860283018601909652858252919492938581019391929190830182828015610c115780601f10610be657610100808354040283529160200191610c11565b6060600080600060606000611bd6600a886124e5565b600254909550611be790600a61251e565b6002549094501580611bfe57506002546000190185115b80611c0857508387115b15611c12576120d1565b60408051600a80825261016082019092526000945090816020015b611c356147a4565b815260200190600190039081611c2d5790505091508490505b6002548110156120cd5760016000600283815481101515611c6b57fe5b9060005260206000200154815260200190815260200160002061014060405190810160405290816000820154815260200160018201548152602001600282018054600181600116156101000203166002900480601f016020809104026020016040519081016040528092919081815260200182805460018160011615610100020316600290048015611d3e5780601f10611d1357610100808354040283529160200191611d3e565b820191906000526020600020905b815481529060010190602001808311611d2157829003601f168201915b505050918352505060038201805460408051602060026001851615610100026000190190941693909304601f8101849004840282018401909252818152938201939291830182828015611dd25780601f10611da757610100808354040283529160200191611dd2565b820191906000526020600020905b815481529060010190602001808311611db557829003601f168201915b505050918352505060048201805460408051602060026001851615610100026000190190941693909304601f8101849004840282018401909252818152938201939291830182828015611e665780601f10611e3b57610100808354040283529160200191611e66565b820191906000526020600020905b815481529060010190602001808311611e4957829003601f168201915b505050918352505060058201805460408051602060026001851615610100026000190190941693909304601f8101849004840282018401909252818152938201939291830182828015611efa5780601f10611ecf57610100808354040283529160200191611efa565b820191906000526020600020905b815481529060010190602001808311611edd57829003601f168201915b505050918352505060068201805460408051602060026001851615610100026000190190941693909304601f8101849004840282018401909252818152938201939291830182828015611f8e5780601f10611f6357610100808354040283529160200191611f8e565b820191906000526020600020905b815481529060010190602001808311611f7157829003601f168201915b5050505050815260200160078201805480602002602001604051908101604052809291908181526020018280548015611fe657602002820191906000526020600020905b815481526020019060010190808311611fd2575b505050505081526020016008820180548060200260200160405190810160405280929190818152602001828054801561203e57602002820191906000526020600020905b81548152602001906001019080831161202a575b50505050508152602001600982018054806020026020016040519081016040528092919081815260200182805480156120a057602002820191906000526020600020905b8154600160a060020a03168152600190910190602001808311612082575b50505050508152505082848151811015156120b757fe5b6020908102909101015260019283019201611c4e565b8195505b5050505050919050565b6120e433613a4a565b565b6120ef33610da8565b15156120fa57600080fd5b61056681613a92565b60008061210f33610da8565b151561211a57600080fd5b6000881161213d5760405160e560020a62461bcd0281526004016104129061598b565b61214688612b84565b600081815260016020526040902054909150156121785760405160e560020a62461bcd0281526004016104129061591b565b61218781898989898989612541565b979650505050505050565b600160a060020a038181166000908152600360205260408120600601549091829182916101009091041681106121dd5760405160e560020a62461bcd028152600401610412906158bb565b6002600160a060020a03851660009081526003602052604090206006015460ff16600281111561220957fe5b146122295760405160e560020a62461bcd0281526004016104129061595b565b600160a060020a03841660009081526003602052604090206004810154815460069092015490945090925060ff16600281111561226257fe5b905061182382898989878a878b6001612d74565b61227f33610da8565b151561228a57600080fd5b600160a060020a038116600090815260036020819052604090912001546122b1908261234a565b604080518082018252600b81527f53757065722061646d696e0000000000000000000000000000000000000000006020808301918252600160a060020a03851660009081526003909152929092209051612311926005909201919061483a565b50600160a060020a0381166000908152600360208190526040822090810191909155600601805460ff19166002179055610566816120e6565b6000805b6000848152600160205260409020600901546000190181101561244a5760008481526001602052604090206009018054600160a060020a03851691908390811061239457fe5b600091825260209091200154600160a060020a031614156123b457600191505b81156124425760008481526001602081905260409091206009018054909183019081106123dd57fe5b6000918252602080832090910154868352600190915260409091206009018054600160a060020a03909216918390811061241357fe5b9060005260206000200160006101000a815481600160a060020a030219169083600160a060020a031602179055505b60010161234e565b60008481526001602052604090206009018054600019810190811061246b57fe5b60009182526020808320909101805473ffffffffffffffffffffffffffffffffffffffff1916905585825260019052604090206009018054906124b29060001983016148b4565b5050505050565b336000908152600360208190526040909120015490565b60009081526001602052604090206008015490565b6000808315156124f85760009150612517565b5082820282848281151561250857fe5b041461251357600080fd5b8091505b5092915050565b60008080831161252d57600080fd5b828481151561253857fe5b04949350505050565b6125496147a4565b8551151561256c5760405160e560020a62461bcd0281526004016104129061596b565b8251151561258f5760405160e560020a62461bcd0281526004016104129061594b565b815115156125b25760405160e560020a62461bcd0281526004016104129061593b565b6000888152600160208181526040928390208351610140810185528154815281840154818401526002808301805487519681161561010002600019011691909104601f8101859004850286018501875280865291959294928601939091908301828280156126615780601f1061263657610100808354040283529160200191612661565b820191906000526020600020905b81548152906001019060200180831161264457829003601f168201915b505050918352505060038201805460408051602060026001851615610100026000190190941693909304601f81018490048402820184019092528181529382019392918301828280156126f55780601f106126ca576101008083540402835291602001916126f5565b820191906000526020600020905b8154815290600101906020018083116126d857829003601f168201915b505050918352505060048201805460408051602060026001851615610100026000190190941693909304601f81018490048402820184019092528181529382019392918301828280156127895780601f1061275e57610100808354040283529160200191612789565b820191906000526020600020905b81548152906001019060200180831161276c57829003601f168201915b505050918352505060058201805460408051602060026001851615610100026000190190941693909304601f810184900484028201840190925281815293820193929183018282801561281d5780601f106127f25761010080835404028352916020019161281d565b820191906000526020600020905b81548152906001019060200180831161280057829003601f168201915b505050918352505060068201805460408051602060026001851615610100026000190190941693909304601f81018490048402820184019092528181529382019392918301828280156128b15780601f10612886576101008083540402835291602001916128b1565b820191906000526020600020905b81548152906001019060200180831161289457829003601f168201915b505050505081526020016007820180548060200260200160405190810160405280929190818152602001828054801561290957602002820191906000526020600020905b8154815260200190600101908083116128f5575b505050505081526020016008820180548060200260200160405190810160405280929190818152602001828054801561296157602002820191906000526020600020905b81548152602001906001019080831161294d575b50505050508152602001600982018054806020026020016040519081016040528092919081815260200182805480156129c357602002820191906000526020600020905b8154600160a060020a031681526001909101906020018083116129a5575b50505091909252505050888152602080820189815260408084018a8152606085018a90526080850189905260a0850188905260c0850187905260008d815260018086529290208551815592519183019190915551805193945084939192612a329260028501929091019061483a565b5060608201518051612a4e91600384019160209091019061483a565b5060808201518051612a6a91600484019160209091019061483a565b5060a08201518051612a8691600584019160209091019061483a565b5060c08201518051612aa291600684019160209091019061483a565b5060e08201518051612abe9160078401916020909101906148d8565b506101008201518051612adb9160088401916020909101906148d8565b506101208201518051612af8916009840191602090910190614912565b5050600280546001810182556000919091527f405787fa12a823e0f2b7631cc41b3ba8828b3321ca811111fa75cd3aa3bb5ace01989098555050505050505050565b6000600160a060020a0382161515612b5157600080fd5b50600160a060020a03166000908152602091909152604090205460ff1690565b6000908152600160205260408120541190565b6000808080600285061515612c165784604051602001808281526020019150506040516020818303038152906040526040518082805190602001908083835b60208310612be25780518252601f199092019160209182019101612bc3565b6001836020036101000a03801982511681845116808217855250505050505090500191505060405180910390209250612d01565b84604051602001808281526020019150506040516020818303038152906040526040518082805190602001908083835b60208310612c655780518252601f199092019160209182019101612c46565b51815160209384036101000a600019018019909216911617905260408051929094018290038220828201528351808303820181529184019384905281519195509293508392850191508083835b60208310612cd15780518252601f199092019160209182019101612cb2565b6001836020036101000a038019825116818451168082178552505050505050905001915050604051809103902092505b6020811015612d2e57828160208110612d1657fe5b60f860020a91901a8102049190910190600101612d01565b826020600284010660208110612d4057fe5b60f860020a91901a810204836020840660208110612d5a57fe5b1a60f860020a0260f860020a90040293505b505050919050565b612d7c614753565b600084101580612d8d575060028411155b1515612dae5760405160e560020a62461bcd028152600401610412906158eb565b84511515612dd15760405160e560020a62461bcd0281526004016104129061588b565b600160a060020a0383166000908152600360209081526040918290208251610100808201855282548252600180840180548751600293821615909402600019011691909104601f8101869004860283018601909652858252919492938581019391929190830182828015612e865780601f10612e5b57610100808354040283529160200191612e86565b820191906000526020600020905b815481529060010190602001808311612e6957829003601f168201915b5050509183525050600282810180546040805160206001841615610100026000190190931694909404601f81018390048302850183019091528084529381019390830182828015612f185780601f10612eed57610100808354040283529160200191612f18565b820191906000526020600020905b815481529060010190602001808311612efb57829003601f168201915b505050505081526020016003820154815260200160048201548152602001600582018054600181600116156101000203166002900480601f016020809104026020016040519081016040528092919081815260200182805460018160011615610100020316600290048015612fce5780601f10612fa357610100808354040283529160200191612fce565b820191906000526020600020905b815481529060010190602001808311612fb157829003601f168201915b5050509183525050600682015460209091019060ff166002811115612fef57fe5b6002811115612ffa57fe5b8152600691909101546101009004600160a060020a03166020918201528b825281018a905260408101899052606081018890526080810187905260a08101869052905083600281111561304957fe5b8160c00190600281111561305957fe5b9081600281111561306657fe5b905250600160a060020a03831660e0820181905260009081526003602090815260409091208251815581830151805184936130a892600185019291019061483a565b50604082015180516130c491600284019160209091019061483a565b50606082015160038201556080820151600482015560a082015180516130f491600584019160209091019061483a565b5060c082015160068201805460ff1916600183600281111561311257fe5b021790555060e0919091015160069091018054600160a060020a039092166101000274ffffffffffffffffffffffffffffffffffffffff00199092169190911790558115156131bc57600480546001810182556000919091527f8a35acfbc15ff81a39ae7d344fd709f28e8600b4aa8c65c6b64bfe7fe36bd19b01805473ffffffffffffffffffffffffffffffffffffffff1916600160a060020a0385161790556131bc87613ada565b50505050505050505050565b6131d0614980565b6060600060606131df89613b19565b93506131ea84613b67565b60008c8152600660205260408120600181018e90558c815560038101805460ff19168c15151790559194506132229160020190614997565b600091505b825182101561330757613250838381518110151561324157fe5b90602001906020020151613b67565b9050600660008c8152602001908152602001600020600201604080519081016040528061329484600081518110151561328557fe5b90602001906020020151613c3a565b81526020016132ab84600181518110151561328557fe5b905281546001810180845560009384526020938490208351805192956002909402909101926132df9284929091019061483a565b5060208281015180516132f8926001850192019061483a565b50505050816001019150613227565b505050600097885250600660208190526040909720600481019390935595820195909555600501805460ff191694151594909417909355505050565b6000918252600160208181526040842060080180549283018155845290922090910155565b613370614980565b60606000806000806000806133848a613b19565b975061338f88613b67565b96506133bb6133b66133a989600581518110151561324157fe5b8051600190811061328557fe5b613cac565b95506133d56133b66133a989600281518110151561324157fe5b94506133ef6133b66133a989600381518110151561324157fe5b60008d8152600760209081526040808320805461ffff191661ffff8c16179055600690915290206005015490945060ff169250600191508190505b60085481116139995760008181526006602052604090206003015460ff1615158b151514801561345a5750808c14155b15613991576005805460ff1916905560008181526006602052604081206002018054909190811061348757fe5b906000526020600020906002020160010160405180828054600181600116156101000203166002900480156134f35780601f106134d15761010080835404028352918201916134f3565b820191906000526020600020905b8154815290600101906020018083116134df575b50509150506040518091039020600019166135196133a989600081518110151561324157fe5b6040518082805190602001908083835b602083106135485780518252601f199092019160209182019101613529565b6001836020036101000a0380198251168184511680821785525050505050509050019150506040518091039020600019161480156136665750600081815260066020526040902060029081018054613652929081106135a357fe5b90600052602060002090600202016001018054600181600116156101000203166002900480601f0160208091040260200160405190810160405280929190818152602001828054600181600116156101000203166002900480156136485780601f1061361d57610100808354040283529160200191613648565b820191906000526020600020905b81548152906001019060200180831161362b57829003601f168201915b5050505050613cac565b65ffffffffffff168465ffffffffffff1610155b80156136a4575060008181526006602052604090206002018054613690919060039081106135a357fe5b65ffffffffffff168565ffffffffffff1611155b156139915761378e6136c16133a989600481518110151561324157fe5b6000838152600660205260409020600201805460049081106136df57fe5b90600052602060002090600202016001018054600181600116156101000203166002900480601f0160208091040260200160405190810160405280929190818152602001828054600181600116156101000203166002900480156137845780601f1061375957610100808354040283529160200191613784565b820191906000526020600020905b81548152906001019060200180831161376757829003601f168201915b5050505050613d0a565b60055460ff1615613991576137cf6137b16133a989600181518110151561324157fe5b6000838152600660205260409020600201805460019081106136df57fe5b60055460ff16156139915788156138a6576000818152600760205260409020805461ffff19811661ffff9182168901821617918290556064911611156138a1578215156138465760008c815260066020526040902060058101805460ff1916600117905560040154613841908d613fba565b600192505b60008181526006602052604090206005015460ff1615156138a157600081815260066020526040902060048101546001909101546138849190613fba565b6000818152600660205260409020600501805460ff191660011790555b61395f565b6000818152600760205260409020805461ffff19811661ffff91821689900382161791829055606491161161395f5782156139085760008c815260066020526040902060058101805460ff1916905560040154613903908d613fdf565b600092505b60008181526006602052604090206005015460ff161561395f57600081815260066020526040902060048101546001909101546139459190613fdf565b6000818152600660205260409020600501805460ff191690555b811561399157600081815260076020526040808220548e8352908220805461ffff191661ffff90921691909117905591505b60010161342a565b505050505050505050505050565b6139b182826140f2565b5050565b600081815260016020526040812054606091106139e75760405160e560020a62461bcd028152600401610412906158fb565b60008281526001602090815260409182902060080180548351818402810184019094528084529091830182828015613a3e57602002820191906000526020600020905b815481526020019060010190808311613a2a575b50505050509050919050565b613a5b60008263ffffffff6141c816565b604051600160a060020a038216907f3525e22824a8a7df2c9a6029941c824cf95b6447f1e13d5128fd3826d35afe8b90600090a250565b613aa360008263ffffffff61421416565b604051600160a060020a038216907f47d1c22a25bb3a5d4e481b9b1e6944c2eade3181a0a20b495ed61d35b5323f2490600090a250565b6000908152600160208181526040832060090180549283018155835290912001805473ffffffffffffffffffffffffffffffffffffffff191633179055565b613b21614980565b6000825160001415613b4857604080518082019091526000808252602082015291506110ab565b5050604080518082019091528151815260209182019181019190915290565b6060600080600080613b7886614262565b1515613b8357600080fd5b613b8c86614291565b935083604051908082528060200260200182016040528015613bc857816020015b613bb5614980565b815260200190600190039081613bad5790505b509450613bd886602001516142e1565b8660200151019250600090505b83811015613c3157613bf683614344565b91506040805190810160405280838152602001848152508582815181101515613c1b57fe5b6020908102909101015291810191600101613be5565b50505050919050565b606060008060606000613c5086602001516142e1565b9350838660000151039250826040519080825280601f01601f191660200182016040528015613c89578160200160208202803883390190505b509150816020019050613ca38487602001510182856143d5565b50949350505050565b60008181805b8251821015612d6c578282815181101515613cc957fe5b016020015160f860020a90819004810204905060308110801590613cee575060398111155b15613cff576030810384600a020193505b600190910190613cb2565b613d12614980565b613d1a614980565b613d22614980565b606080600080613d318961441c565b9650613d3c8861441c565b9550613d7c6040805190810160405280600181526020017f2c0000000000000000000000000000000000000000000000000000000000000081525061441c565b9450613d8e878663ffffffff61444216565b600101604051908082528060200260200182016040528015613dc457816020015b6060815260200190600190039081613daf5790505b509350613dd7868663ffffffff61444216565b600101604051908082528060200260200182016040528015613e0d57816020015b6060815260200190600190039081613df85790505b509250825184511015613ead57613e2a878663ffffffff61444216565b600101604051908082528060200260200182016040528015613e6057816020015b6060815260200190600190039081613e4b5790505b509250613e73868663ffffffff61444216565b600101604051908082528060200260200182016040528015613ea957816020015b6060815260200190600190039081613e945790505b5093505b600091505b8351821015613faf57613ed3613ece888763ffffffff6144a816565b6144bb565b8483815181101515613ee157fe5b602090810290910101525060005b818111613f94578251821015613f6357613f12613ece878763ffffffff6144a816565b8383815181101515613f2057fe5b602090810290910101528351613f6390859083908110613f3c57fe5b906020019060200201518484815181101515613f5457fe5b9060200190602002015161450e565b613f8c8382815181101515613f7457fe5b906020019060200201518584815181101515613f5457fe5b600101613eef565b60055460ff1615613fa457613faf565b600190910190613eb2565b505050505050505050565b6000918252600160208181526040842060070180549283018155845290922090910155565b6000805b600084815260016020526040902060070154600019018110156140a257600084815260016020526040902060070180548491908390811061402057fe5b9060005260206000200154141561403657600191505b811561409a57600084815260016020819052604090912060070180549091830190811061405f57fe5b9060005260206000200154600160008681526020019081526020016000206007018281548110151561408d57fe5b6000918252602090912001555b600101613fe3565b6000848152600160205260409020600701805460001981019081106140c357fe5b6000918252602080832090910182905585825260019052604090206007018054906124b29060001983016148b4565b600082815260016020526040812060080154908111156141c35760008381526001602052604090206008018054600019830190811061412d57fe5b9060005260206000200154600160008581526020019081526020016000206008018381548110151561415b57fe5b906000526020600020018190555081600160008581526020019081526020016000206008016001830381548110151561419057fe5b60009182526020808320909101929092558481526001909152604090206008018054906141c19060001983016148b4565b505b505050565b600160a060020a03811615156141dd57600080fd5b6141e78282612b3a565b15156141f257600080fd5b600160a060020a0316600090815260209190915260409020805460ff19169055565b600160a060020a038116151561422957600080fd5b6142338282612b3a565b1561423d57600080fd5b600160a060020a0316600090815260209190915260409020805460ff19166001179055565b6020810151805160009190821a9060c060ff83161015614285576000925061428a565b600192505b5050919050565b600080600080600092506142a885602001516142e1565b6020860151865191810193500190505b808210156142d8576142c982614344565b600190930192909101906142b8565b50909392505050565b8051600090811a60808110156142fa57600091506110ab565b60b8811080614315575060c08110801590614315575060f881105b1561432357600191506110ab565b60c08110156143385760b519810191506110ab565b60f519810191506110ab565b8051600090811a608081101561435d57600191506110ab565b60b881101561437257607e19810191506110ab565b60c081101561439f5760b78103600184019350806020036101000a845104600182018101935050506110ab565b60f88110156143b45760be19810191506110ab565b60019290920151602083900360f7016101000a900490910160f51901919050565b60005b602082106143fa578351835260209384019390920191601f19909101906143d8565b50915181516020939093036101000a6000190180199091169216919091179052565b614424614980565b50604080518082019091528151815260209182019181019190915290565b600080826000015161446685600001518660200151866000015187602001516145df565b0190505b835160208501510181116125175782516020808601518651918601516001909501946144a09291850390910390849084906145df565b01905061446a565b6144b0614980565b61251783838361469f565b606080600083600001516040519080825280601f01601f1916602001820160405280156144f2578160200160208202803883390190505b509150602082019050612517818560200151866000015161470f565b806040518082805190602001908083835b6020831061453e5780518252601f19909201916020918201910161451f565b51815160209384036101000a6000190180199092169116179052604051919093018190038120875190955087945090928392508401908083835b602083106145975780518252601f199092019160209182019101614578565b6001836020036101000a03801982511681845116808217855250505050505090500191505060405180910390206000191614156139b1576005805460ff191660011790555050565b600083818080808080808c8b116146895760208b116146525760018b60200360080260020a03196001029550858a511694508a8d8d010393508588511692505b82851461464a57838810614637578c8c01985061468f565b878060010198505085885116925061461f565b87985061468f565b8a8a209150600096505b8a8d0387116146895750898720818114156146795787985061468f565b600197880197969096019561465c565b8c8c0198505b5050505050505050949350505050565b6146a7614980565b60006146c585600001518660200151866000015187602001516145df565b602080870180519186019190915280518203855286519051919250018114156146f157600085526142d8565b83518351865191019003855283518101602086015250909392505050565b60005b60208210614734578251845260209384019390920191601f1990910190614712565b50905182516020929092036101000a6000190180199091169116179052565b610100604051908101604052806000815260200160608152602001606081526020016000815260200160008152602001606081526020016000600281111561479757fe5b8152600060209091015290565b61014060405190810160405280600081526020016000815260200160608152602001606081526020016060815260200160608152602001606081526020016060815260200160608152602001606081525090565b60e06040519081016040528060008152602001600081526020016060815260200160001515815260200160008152602001600015158152602001600081525090565b828054600181600116156101000203166002900490600052602060002090601f016020900481019282601f1061487b57805160ff19168380011785556148a8565b828001600101855582156148a8579182015b828111156148a857825182559160200191906001019061488d565b506105829291506149b8565b8154818355818111156141c3576000838152602090206141c39181019083016149b8565b8280548282559060005260206000209081019282156148a857916020028201828111156148a857825182559160200191906001019061488d565b828054828255906000526020600020908101928215614974579160200282015b82811115614974578251825473ffffffffffffffffffffffffffffffffffffffff1916600160a060020a03909116178255602090920191600190910190614932565b506105829291506149d2565b604080518082019091526000808252602082015290565b50805460008255600202906000526020600020908101906105669190614a03565b61171f91905b8082111561058257600081556001016149be565b61171f91905b8082111561058257805473ffffffffffffffffffffffffffffffffffffffff191681556001016149d8565b61171f91905b80821115610582576000614a1d8282614a34565b614a2b600183016000614a34565b50600201614a09565b50805460018160011615610100020316600290046000825580601f10614a5a5750610566565b601f01602090049060005260206000209081019061056691906149b8565b6000614a848235615a13565b9392505050565b6000614a848235615a1f565b6000601f82018313614aa857600080fd5b8135614abb614ab6826159e1565b6159ba565b91508082526020830160208301858383011115614ad757600080fd5b614ae2838284615a3b565b50505092915050565b6000614a84823561171f565b600060208284031215614b0957600080fd5b6000614b158484614a78565b949350505050565b600080600080600060a08688031215614b3557600080fd5b853567ffffffffffffffff811115614b4c57600080fd5b614b5888828901614a97565b955050602086013567ffffffffffffffff811115614b7557600080fd5b614b8188828901614a97565b9450506040614b9288828901614aeb565b935050606086013567ffffffffffffffff811115614baf57600080fd5b614bbb88828901614a97565b9250506080614bcc88828901614a78565b9150509295509295909350565b600060208284031215614beb57600080fd5b6000614b158484614aeb565b600080600080600080600080610100898b031215614c1457600080fd5b6000614c208b8b614aeb565b985050602089013567ffffffffffffffff811115614c3d57600080fd5b614c498b828c01614a97565b9750506040614c5a8b828c01614a8b565b9650506060614c6b8b828c01614aeb565b9550506080614c7c8b828c01614a8b565b94505060a0614c8d8b828c01614aeb565b93505060c089013567ffffffffffffffff811115614caa57600080fd5b614cb68b828c01614a97565b92505060e0614cc78b828c01614aeb565b9150509295985092959890939650565b60008060008060008060c08789031215614cf057600080fd5b6000614cfc8989614aeb565b965050602087013567ffffffffffffffff811115614d1957600080fd5b614d2589828a01614a97565b955050604087013567ffffffffffffffff811115614d4257600080fd5b614d4e89828a01614a97565b945050606087013567ffffffffffffffff811115614d6b57600080fd5b614d7789828a01614a97565b935050608087013567ffffffffffffffff811115614d9457600080fd5b614da089828a01614a97565b92505060a087013567ffffffffffffffff811115614dbd57600080fd5b614dc989828a01614a97565b9150509295509295509295565b600080600080600060a08688031215614dee57600080fd5b6000614dfa8888614aeb565b955050602086013567ffffffffffffffff811115614e1757600080fd5b614e2388828901614a97565b945050604086013567ffffffffffffffff811115614e4057600080fd5b614e4c88828901614a97565b935050606086013567ffffffffffffffff811115614e6957600080fd5b614e7588828901614a97565b9250506080614bcc88828901614aeb565b600080600080600080600060e0888a031215614ea157600080fd5b6000614ead8a8a614aeb565b9750506020614ebe8a828b01614aeb565b965050604088013567ffffffffffffffff811115614edb57600080fd5b614ee78a828b01614a97565b955050606088013567ffffffffffffffff811115614f0457600080fd5b614f108a828b01614a97565b945050608088013567ffffffffffffffff811115614f2d57600080fd5b614f398a828b01614a97565b93505060a088013567ffffffffffffffff811115614f5657600080fd5b614f628a828b01614a97565b92505060c088013567ffffffffffffffff811115614f7f57600080fd5b614f8b8a828b01614a97565b91505092959891949750929550565b614fa381615a13565b82525050565b6000614fb482615a0f565b808452602084019350614fc683615a09565b60005b82811015614ff657614fdc868351614f9a565b614fe582615a09565b602096909601959150600101614fc9565b5093949350505050565b600061500b82615a0f565b8084526020840193508360208202850161502485615a09565b60005b8481101561505b57838303885261503f8383516155b8565b925061504a82615a09565b602098909801979150600101615027565b50909695505050505050565b600061507282615a0f565b8084526020840193508360208202850161508b85615a09565b60005b8481101561505b5783830388526150a683835161564d565b92506150b182615a09565b60209890980197915060010161508e565b60006150cd82615a0f565b808452602084019350836020820285016150e685615a09565b60005b8481101561505b578383038852615101838351615750565b925061510c82615a09565b6020989098019791506001016150e9565b600061512882615a0f565b8084526020840193508360208202850161514185615a09565b60005b8481101561505b57838303885261515c838351615782565b925061516782615a09565b602098909801979150600101615144565b600061518382615a0f565b80845260208401935061519583615a09565b60005b82811015614ff6576151ab868351615831565b6151b482615a09565b602096909601959150600101615198565b614fa381615a1f565b614fa381615a30565b60006151e282615a0f565b8084526151f6816020860160208601615a47565b6151ff81615a73565b9093016020019392505050565b601a81527f4372656174696f6e204461746520697320696e6d757461626c65000000000000602082015260400190565b601181527f726f6c65206973206d616e6461746f7279000000000000000000000000000000602082015260400190565b602281527f4f6e6c792070656e64696e672075736572732063616e2062652061636365707460208201527f6564000000000000000000000000000000000000000000000000000000000000604082015260600190565b601381527f5573657220616c72656164792065786973747300000000000000000000000000602082015260400190565b601481527f546869732075736572206e6f7420657869737473000000000000000000000000602082015260400190565b601b81527f596f752063616e6e6f7420616363657074207468697320757365720000000000602082015260400190565b602281527f4f6e6c792070656e64696e672075736572732063616e2062652072656a65637460208201527f6564000000000000000000000000000000000000000000000000000000000000604082015260600190565b601381527f737461747573206973206e6f742076616c696400000000000000000000000000602082015260400190565b601181527f6d656d626572206e6f7420657869737473000000000000000000000000000000602082015260400190565b601481527f4d656d62657220646f206e6f7420657869737473000000000000000000000000602082015260400190565b601581527f4d656d62657220616c7265616479206578697374730000000000000000000000602082015260400190565b601181527f4d656d626572206e6f7420657869737473000000000000000000000000000000602082015260400190565b601281527f5468656d65206973206d616e6461746f72790000000000000000000000000000602082015260400190565b601081527f434d4f206973206d616e6461746f727900000000000000000000000000000000602082015260400190565b601481527f596f7520617265206e6f74206163636570746564000000000000000000000000602082015260400190565b601181527f4e616d65206973206d616e6461746f7279000000000000000000000000000000602082015260400190565b601181527f4e6f2076616c6964206d656d6265724964000000000000000000000000000000602082015260400190565b601981527f4372656174696f6e44617465206973206d616e6461746f727900000000000000602082015260400190565b805160009060e08401906155cc8582615831565b5060208301516155df6020860182615831565b50604083015184820360408601526155f782826150c2565b915050606083015161560c60608601826151c5565b50608083015161561f6080860182615831565b5060a083015161563260a08601826151c5565b5060c083015161564560c0860182615831565b509392505050565b80516000906101408401906156628582615831565b5060208301516156756020860182615831565b506040830151848203604086015261568d82826151d7565b915050606083015184820360608601526156a782826151d7565b915050608083015184820360808601526156c182826151d7565b91505060a083015184820360a08601526156db82826151d7565b91505060c083015184820360c08601526156f582826151d7565b91505060e083015184820360e086015261570f8282615178565b91505061010083015184820361010086015261572b8282615178565b9150506101208301518482036101208601526157478282614fa9565b95945050505050565b805160408084526000919084019061576882826151d7565b9150506020830151848203602086015261574782826151d7565b80516000906101008401906157978582615831565b50602083015184820360208601526157af82826151d7565b915050604083015184820360408601526157c982826151d7565b91505060608301516157de6060860182615831565b5060808301516157f16080860182615831565b5060a083015184820360a086015261580982826151d7565b91505060c083015161581e60c08601826151ce565b5060e083015161564560e0860182614f9a565b614fa38161171f565b60208082528101614a848184615000565b60208082528101614a848184615067565b60208082528101614a84818461511d565b60208101610dba82846151c5565b60208082528101610dba8161520c565b60208082528101610dba8161523c565b60208082528101610dba8161526c565b60208082528101610dba816152c2565b60208082528101610dba816152f2565b60208082528101610dba81615322565b60208082528101610dba81615352565b60208082528101610dba816153a8565b60208082528101610dba816153d8565b60208082528101610dba81615408565b60208082528101610dba81615438565b60208082528101610dba81615468565b60208082528101610dba81615498565b60208082528101610dba816154c8565b60208082528101610dba816154f8565b60208082528101610dba81615528565b60208082528101610dba81615558565b60208082528101610dba81615588565b60208082528101614a848184615782565b60208101610dba8284615831565b60405181810167ffffffffffffffff811182821017156159d957600080fd5b604052919050565b600067ffffffffffffffff8211156159f857600080fd5b506020601f91909101601f19160190565b60200190565b5190565b600160a060020a031690565b151590565b60006003821061058257fe5b6000610dba82615a24565b82818337506000910152565b60005b83811015615a62578181015183820152602001615a4a565b838111156141c15750506000910152565b601f01601f1916905600a265627a7a723058204a5e1126744645dbf6a6a37fa87fa7ba220ba741cc0c547f86f5a1b64d8ef1aa6c6578706572696d656e74616cf50037",
  "source": "pragma solidity ^0.4.24;\npragma experimental ABIEncoderV2;\n\nimport \"../../node_modules/solidity-rlp/contracts/RLPReader.sol\";\nimport \"./Users.sol\";\nimport \"./Lib.sol\";\n\ncontract Claims is Users, Lib {\n\n  using RLPReader for bytes;\n  using RLPReader for uint;\n  using RLPReader for RLPReader.RLPItem;\n\n  function computeClaim(uint256 _creationDate, bytes _claimData, bool _claimType, uint _memberOwner, bool reg_update,\n    uint256 _claimId, bytes _oldClaimData, uint _lastChange) public {\n\n    if (reg_update) {             // Register new claim.\n      _claimId = ++claimIdCounter_;\n      //    uint256 _claimId = Random.rand(_creationDate);\n      //    require(claims_[_claimId].claimId == 0, \"Claim already exists\");\n      require(_memberExists(_memberOwner), \"Member do not exists\");\n\n      _memberOwner = _memberIdFromCurrentAddress();\n\n      _saveClaim(_claimId, _creationDate, _claimData, _claimType, _memberOwner, false, _creationDate);\n      _addClaimIdToMemberOwner(_memberOwner, _claimId);\n\n      checkClaimStatus(_claimId, _claimType, _claimData, true);\n    } else {                     // Update existing claim.\n\n      checkClaimStatus(_claimId, claims_[_claimId].claimType, _oldClaimData, false);\n      checkClaimStatus(_claimId, claims_[_claimId].claimType, _claimData, true);\n\n      _saveClaim(_claimId, _creationDate, _claimData, claims_[_claimId].claimType,\n        claims_[_claimId].memberOwner, claims_[_claimId].status, _lastChange);\n      if (_creationDate == 0) {  // Delete claim.\n        _removeClaimIdFromMember(_memberOwner, _claimId);\n      }\n    }\n  }\n\n  function getClaimsByMemberId(uint _page) view public returns (Claim[] memory) {\n\n    uint256 pageIndex = SafeMath.mul(PAGE_SIZE, _page);\n    uint256 _memberId = _memberIdFromCurrentAddress();\n    uint count = _getClaimsCountByMember(_memberId);\n    uint256 pageNumber = SafeMath.div(count, PAGE_SIZE);\n\n    if (count == 0 || pageIndex > count - 1 || _page > pageNumber) {\n      return;\n    }\n\n    uint256[] memory claimsId = _getClaimsIdByMember(_memberId);\n\n    Claim[] memory _claims = new Claim[](PAGE_SIZE);\n    uint256 returnCounter = 0;\n    for (uint i = pageIndex; i < claimsId.length; ++i) {\n      if(returnCounter < PAGE_SIZE) {\n        _claims[returnCounter] = claims_[claimsId[i]];\n        ++returnCounter;\n      } else {\n        break;\n      }\n    }\n    return _claims;\n  }\n//\n//  function getClaim(uint256 _claimId) view public returns (Claim) {\n//    return claims_[_claimId];\n//  }\n\n  function getClaimsCountByMemberId() view public returns (uint) {\n    uint256 _memberId = _memberIdFromCurrentAddress();\n    return _getClaimsCountByMember(_memberId);\n  }\n\n  function _saveClaim(uint256 _claimId, uint256 _creationDate, bytes _claimData, bool _claimType,\n    uint _memberOwner, bool _status, uint256 _lastChange) private {\n\n    RLPReader.RLPItem memory item = _claimData.toRlpItem();\n    RLPReader.RLPItem[] memory itemList = item.toList(); // ((name, value), (name, value), (name, value), ...)\n\n    claims_[_claimId].claimId = _claimId;\n    claims_[_claimId].creationDate = _creationDate;\n    claims_[_claimId].claimType = _claimType;\n\n    delete claims_[_claimId].claimData;\n    for(uint i = 0; i < itemList.length; ++i) {\n      RLPReader.RLPItem[] memory itemListClaim = itemList[i].toList(); // (name, value)\n      claims_[_claimId].claimData.push(NameValue(string(itemListClaim[0].toBytes()), string(itemListClaim[1].toBytes())));\n    }\n\n    claims_[_claimId].memberOwner = _memberOwner;\n    claims_[_claimId].lastChange = _lastChange;\n    claims_[_claimId].status = _status;\n  }\n}",
  "sourcePath": "/home/komodo/newUI/bloomen-decentralized-rights-management-v2/truffle/contracts/registry/Claims.sol",
  "compiler": {
    "name": "solc",
    "version": "0.4.24+commit.e67f0147.Emscripten.clang"
  },
  "schemaVersion": "2.0.1",
  "updatedAt": "2019-12-07T12:57:44.774Z"
}