{
  "contractName": "Claims",
  "abi": [
    {
      "constant": false,
      "inputs": [
        {
          "name": "_userToAccept",
          "type": "address"
        }
      ],
      "name": "acceptUser",
      "outputs": [],
      "payable": false,
      "stateMutability": "nonpayable",
      "type": "function"
    },
    {
      "constant": false,
      "inputs": [
        {
          "name": "_userToReject",
          "type": "address"
        }
      ],
      "name": "rejectUser",
      "outputs": [],
      "payable": false,
      "stateMutability": "nonpayable",
      "type": "function"
    },
    {
      "constant": true,
      "inputs": [
        {
          "name": "_page",
          "type": "uint256"
        }
      ],
      "name": "getUsers",
      "outputs": [
        {
          "components": [
            {
              "name": "creationDate",
              "type": "uint256"
            },
            {
              "name": "firstName",
              "type": "string"
            },
            {
              "name": "lastName",
              "type": "string"
            },
            {
              "name": "memberId",
              "type": "uint256"
            },
            {
              "name": "requestId",
              "type": "uint256"
            },
            {
              "name": "role",
              "type": "string"
            },
            {
              "name": "status",
              "type": "uint8"
            },
            {
              "name": "owner",
              "type": "address"
            }
          ],
          "name": "",
          "type": "tuple[]"
        }
      ],
      "payable": false,
      "stateMutability": "view",
      "type": "function"
    },
    {
      "constant": false,
      "inputs": [
        {
          "name": "_memberId",
          "type": "uint256"
        },
        {
          "name": "_creationDate",
          "type": "uint256"
        },
        {
          "name": "_name",
          "type": "string"
        },
        {
          "name": "_logo",
          "type": "string"
        },
        {
          "name": "_country",
          "type": "string"
        },
        {
          "name": "_cmo",
          "type": "string"
        },
        {
          "name": "_theme",
          "type": "string"
        }
      ],
      "name": "updateMember",
      "outputs": [],
      "payable": false,
      "stateMutability": "nonpayable",
      "type": "function"
    },
    {
      "constant": true,
      "inputs": [
        {
          "name": "userAddress",
          "type": "address"
        }
      ],
      "name": "getUserByAddress",
      "outputs": [
        {
          "components": [
            {
              "name": "creationDate",
              "type": "uint256"
            },
            {
              "name": "firstName",
              "type": "string"
            },
            {
              "name": "lastName",
              "type": "string"
            },
            {
              "name": "memberId",
              "type": "uint256"
            },
            {
              "name": "requestId",
              "type": "uint256"
            },
            {
              "name": "role",
              "type": "string"
            },
            {
              "name": "status",
              "type": "uint8"
            },
            {
              "name": "owner",
              "type": "address"
            }
          ],
          "name": "",
          "type": "tuple"
        }
      ],
      "payable": false,
      "stateMutability": "view",
      "type": "function"
    },
    {
      "constant": true,
      "inputs": [
        {
          "name": "account",
          "type": "address"
        }
      ],
      "name": "isSigner",
      "outputs": [
        {
          "name": "",
          "type": "bool"
        }
      ],
      "payable": false,
      "stateMutability": "view",
      "type": "function"
    },
    {
      "constant": true,
      "inputs": [],
      "name": "getUsersOwner",
      "outputs": [
        {
          "components": [
            {
              "name": "creationDate",
              "type": "uint256"
            },
            {
              "name": "firstName",
              "type": "string"
            },
            {
              "name": "lastName",
              "type": "string"
            },
            {
              "name": "memberId",
              "type": "uint256"
            },
            {
              "name": "requestId",
              "type": "uint256"
            },
            {
              "name": "role",
              "type": "string"
            },
            {
              "name": "status",
              "type": "uint8"
            },
            {
              "name": "owner",
              "type": "address"
            }
          ],
          "name": "",
          "type": "tuple[]"
        }
      ],
      "payable": false,
      "stateMutability": "view",
      "type": "function"
    },
    {
      "constant": true,
      "inputs": [],
      "name": "getMembers",
      "outputs": [
        {
          "components": [
            {
              "name": "memberId",
              "type": "uint256"
            },
            {
              "name": "creationDate",
              "type": "uint256"
            },
            {
              "name": "name",
              "type": "string"
            },
            {
              "name": "logo",
              "type": "string"
            },
            {
              "name": "country",
              "type": "string"
            },
            {
              "name": "cmo",
              "type": "string"
            },
            {
              "name": "theme",
              "type": "string"
            },
            {
              "name": "claimInbox",
              "type": "uint256[]"
            },
            {
              "name": "claims",
              "type": "uint256[]"
            },
            {
              "name": "userRequests",
              "type": "address[]"
            }
          ],
          "name": "",
          "type": "tuple[]"
        }
      ],
      "payable": false,
      "stateMutability": "view",
      "type": "function"
    },
    {
      "constant": true,
      "inputs": [],
      "name": "getcountUsers",
      "outputs": [
        {
          "name": "",
          "type": "uint256"
        }
      ],
      "payable": false,
      "stateMutability": "view",
      "type": "function"
    },
    {
      "constant": false,
      "inputs": [
        {
          "name": "_creationDate",
          "type": "uint256"
        },
        {
          "name": "_firstName",
          "type": "string"
        },
        {
          "name": "_lastName",
          "type": "string"
        },
        {
          "name": "_role",
          "type": "string"
        },
        {
          "name": "_memberId",
          "type": "uint256"
        }
      ],
      "name": "registerUserRequest",
      "outputs": [],
      "payable": false,
      "stateMutability": "nonpayable",
      "type": "function"
    },
    {
      "constant": true,
      "inputs": [],
      "name": "getCount",
      "outputs": [
        {
          "name": "",
          "type": "uint256"
        }
      ],
      "payable": false,
      "stateMutability": "view",
      "type": "function"
    },
    {
      "constant": true,
      "inputs": [],
      "name": "getMe",
      "outputs": [
        {
          "components": [
            {
              "name": "creationDate",
              "type": "uint256"
            },
            {
              "name": "firstName",
              "type": "string"
            },
            {
              "name": "lastName",
              "type": "string"
            },
            {
              "name": "memberId",
              "type": "uint256"
            },
            {
              "name": "requestId",
              "type": "uint256"
            },
            {
              "name": "role",
              "type": "string"
            },
            {
              "name": "status",
              "type": "uint8"
            },
            {
              "name": "owner",
              "type": "address"
            }
          ],
          "name": "",
          "type": "tuple"
        }
      ],
      "payable": false,
      "stateMutability": "view",
      "type": "function"
    },
    {
      "constant": true,
      "inputs": [
        {
          "name": "_page",
          "type": "uint256"
        }
      ],
      "name": "getMembers",
      "outputs": [
        {
          "components": [
            {
              "name": "memberId",
              "type": "uint256"
            },
            {
              "name": "creationDate",
              "type": "uint256"
            },
            {
              "name": "name",
              "type": "string"
            },
            {
              "name": "logo",
              "type": "string"
            },
            {
              "name": "country",
              "type": "string"
            },
            {
              "name": "cmo",
              "type": "string"
            },
            {
              "name": "theme",
              "type": "string"
            },
            {
              "name": "claimInbox",
              "type": "uint256[]"
            },
            {
              "name": "claims",
              "type": "uint256[]"
            },
            {
              "name": "userRequests",
              "type": "address[]"
            }
          ],
          "name": "",
          "type": "tuple[]"
        }
      ],
      "payable": false,
      "stateMutability": "view",
      "type": "function"
    },
    {
      "constant": false,
      "inputs": [],
      "name": "renounceSigner",
      "outputs": [],
      "payable": false,
      "stateMutability": "nonpayable",
      "type": "function"
    },
    {
      "constant": false,
      "inputs": [
        {
          "name": "account",
          "type": "address"
        }
      ],
      "name": "addSigner",
      "outputs": [],
      "payable": false,
      "stateMutability": "nonpayable",
      "type": "function"
    },
    {
      "constant": false,
      "inputs": [
        {
          "name": "_creationDate",
          "type": "uint256"
        },
        {
          "name": "_name",
          "type": "string"
        },
        {
          "name": "_logo",
          "type": "string"
        },
        {
          "name": "_country",
          "type": "string"
        },
        {
          "name": "_cmo",
          "type": "string"
        },
        {
          "name": "_theme",
          "type": "string"
        }
      ],
      "name": "addMember",
      "outputs": [
        {
          "name": "",
          "type": "uint256"
        }
      ],
      "payable": false,
      "stateMutability": "nonpayable",
      "type": "function"
    },
    {
      "constant": false,
      "inputs": [
        {
          "name": "_firstName",
          "type": "string"
        },
        {
          "name": "_lastName",
          "type": "string"
        },
        {
          "name": "_memberId",
          "type": "uint256"
        },
        {
          "name": "_role",
          "type": "string"
        },
        {
          "name": "owner",
          "type": "address"
        }
      ],
      "name": "updateUser",
      "outputs": [],
      "payable": false,
      "stateMutability": "nonpayable",
      "type": "function"
    },
    {
      "constant": false,
      "inputs": [
        {
          "name": "account",
          "type": "address"
        }
      ],
      "name": "whitelistAdmin",
      "outputs": [],
      "payable": false,
      "stateMutability": "nonpayable",
      "type": "function"
    },
    {
      "anonymous": false,
      "inputs": [
        {
          "indexed": true,
          "name": "account",
          "type": "address"
        }
      ],
      "name": "SignerAdded",
      "type": "event"
    },
    {
      "anonymous": false,
      "inputs": [
        {
          "indexed": true,
          "name": "account",
          "type": "address"
        }
      ],
      "name": "SignerRemoved",
      "type": "event"
    },
    {
      "constant": false,
      "inputs": [
        {
          "name": "_creationDate",
          "type": "uint256"
        },
        {
          "name": "_claimData",
          "type": "bytes"
        },
        {
          "name": "_claimType",
          "type": "uint256"
        },
        {
          "name": "_memberReceptor",
          "type": "uint256"
        }
      ],
      "name": "registerClaim",
      "outputs": [],
      "payable": false,
      "stateMutability": "nonpayable",
      "type": "function"
    },
    {
      "constant": false,
      "inputs": [
        {
          "name": "_claimId",
          "type": "uint256"
        },
        {
          "name": "_claimData",
          "type": "bytes"
        },
        {
          "name": "_lastChange",
          "type": "uint256"
        }
      ],
      "name": "updateClaim",
      "outputs": [],
      "payable": false,
      "stateMutability": "nonpayable",
      "type": "function"
    },
    {
      "constant": false,
      "inputs": [
        {
          "name": "_claimId",
          "type": "uint256"
        },
        {
          "name": "_status",
          "type": "uint256"
        },
        {
          "name": "_messageLog",
          "type": "string"
        },
        {
          "name": "_lastChange",
          "type": "uint256"
        }
      ],
      "name": "changeState",
      "outputs": [],
      "payable": false,
      "stateMutability": "nonpayable",
      "type": "function"
    },
    {
      "constant": true,
      "inputs": [
        {
          "name": "_claimId",
          "type": "uint256"
        }
      ],
      "name": "getClaim",
      "outputs": [
        {
          "components": [
            {
              "name": "creationDate",
              "type": "uint256"
            },
            {
              "name": "claimId",
              "type": "uint256"
            },
            {
              "components": [
                {
                  "name": "name",
                  "type": "string"
                },
                {
                  "name": "value",
                  "type": "string"
                }
              ],
              "name": "claimData",
              "type": "tuple[]"
            },
            {
              "name": "claimType",
              "type": "uint8"
            },
            {
              "name": "memberOwner",
              "type": "uint256"
            },
            {
              "name": "memberReceptor",
              "type": "uint256"
            },
            {
              "name": "messageLog",
              "type": "string[]"
            },
            {
              "name": "status",
              "type": "uint8"
            },
            {
              "name": "lastChange",
              "type": "uint256"
            }
          ],
          "name": "",
          "type": "tuple"
        }
      ],
      "payable": false,
      "stateMutability": "view",
      "type": "function"
    },
    {
      "constant": true,
      "inputs": [
        {
          "name": "_page",
          "type": "uint256"
        }
      ],
      "name": "getClaimsByMemberId",
      "outputs": [
        {
          "components": [
            {
              "name": "creationDate",
              "type": "uint256"
            },
            {
              "name": "claimId",
              "type": "uint256"
            },
            {
              "components": [
                {
                  "name": "name",
                  "type": "string"
                },
                {
                  "name": "value",
                  "type": "string"
                }
              ],
              "name": "claimData",
              "type": "tuple[]"
            },
            {
              "name": "claimType",
              "type": "uint8"
            },
            {
              "name": "memberOwner",
              "type": "uint256"
            },
            {
              "name": "memberReceptor",
              "type": "uint256"
            },
            {
              "name": "messageLog",
              "type": "string[]"
            },
            {
              "name": "status",
              "type": "uint8"
            },
            {
              "name": "lastChange",
              "type": "uint256"
            }
          ],
          "name": "",
          "type": "tuple[]"
        }
      ],
      "payable": false,
      "stateMutability": "view",
      "type": "function"
    },
    {
      "constant": true,
      "inputs": [],
      "name": "getClaimsCountByMemberId",
      "outputs": [
        {
          "name": "",
          "type": "uint256"
        }
      ],
      "payable": false,
      "stateMutability": "view",
      "type": "function"
    }
  ],
  "bytecode": "0x608060405262000018336401000000006200001e810204565b62000103565b62000039600082640100000000620043356200007082021704565b604051600160a060020a038216907f47d1c22a25bb3a5d4e481b9b1e6944c2eade3181a0a20b495ed61d35b5323f2490600090a250565b600160a060020a03811615156200008657600080fd5b6200009b8282640100000000620000cb810204565b15620000a657600080fd5b600160a060020a0316600090815260209190915260409020805460ff19166001179055565b6000600160a060020a0382161515620000e357600080fd5b50600160a060020a03166000908152602091909152604090205460ff1690565b615b8d80620001136000396000f30060806040526004361061013d5763ffffffff7c010000000000000000000000000000000000000000000000000000000060003504166308bdc24d81146101425780631be8850b146101645780634dc928851461018f5780635aef2447146101af5780635d73ab9a146101dc57806365ff0c481461020957806369c212f6146102295780637df73e2714610256578063932191be146102835780639eab525314610298578063a42e28db146102ba578063a4fdc594146102da578063a7ed1fe4146102ef578063a87d942c1461030f578063b6bc381214610324578063c11e1ff314610351578063c477ecab14610366578063cb68b9e814610386578063e5c8b03d146103a6578063e9f468bc146103bb578063eb12d61e146103db578063fa1188c6146103fb578063fcfbde5b1461041b578063ff240fce1461043b575b600080fd5b34801561014e57600080fd5b5061016261015d366004614977565b61045b565b005b34801561017057600080fd5b506101796105f7565b6040516101869190615a6b565b60405180910390f35b34801561019b57600080fd5b506101626101aa366004614977565b610614565b3480156101bb57600080fd5b506101cf6101ca366004614a59565b610778565b6040516101869190615a49565b3480156101e857600080fd5b506101fc6101f7366004614a59565b610aec565b60405161018691906158ba565b34801561021557600080fd5b50610162610224366004614d04565b610ec7565b34801561023557600080fd5b50610249610244366004614977565b610f56565b6040516101869190615a5a565b34801561026257600080fd5b50610276610271366004614977565b6111aa565b60405161018691906158cb565b34801561028f57600080fd5b506101fc6111c2565b3480156102a457600080fd5b506102ad6114ad565b60405161018691906158a9565b3480156102c657600080fd5b506101626102d5366004614adc565b611974565b3480156102e657600080fd5b50610179611a93565b3480156102fb57600080fd5b5061016261030a366004614c54565b611b58565b34801561031b57600080fd5b50610179611c1f565b34801561033057600080fd5b5061034461033f366004614a59565b611c3d565b6040516101869190615898565b34801561035d57600080fd5b50610249612051565b34801561037257600080fd5b506102ad610381366004614a59565b6120e2565b34801561039257600080fd5b506101626103a1366004614a77565b6125fd565b3480156103b257600080fd5b506101626127d4565b3480156103c757600080fd5b506101626103d6366004614e18565b6127df565b3480156103e757600080fd5b506101626103f6366004614977565b612b32565b34801561040757600080fd5b50610179610416366004614b55565b612b4f565b34801561042757600080fd5b5061016261043636600461499d565b612bde565b34801561044757600080fd5b50610162610456366004614977565b612ccc565b600160a060020a038181166000908152600360205260408120600601546101009004909116116104a95760405160e560020a62461bcd0281526004016104a090615939565b60405180910390fd5b600160a060020a03811660009081526003602081905260408083208201543384529220015414806104de57506104de336111aa565b15156104ff5760405160e560020a62461bcd0281526004016104a090615949565b60023360009081526003602052604090206006015460ff16600281111561052257fe5b14806105325750610532336111aa565b15156105535760405160e560020a62461bcd0281526004016104a0906159f9565b6001600160a060020a03821660009081526003602052604090206006015460ff16600281111561057f57fe5b1461059f5760405160e560020a62461bcd0281526004016104a090615909565b600160a060020a038116600090815260036020526040902060060180546002919060ff19166001835b0217905550600160a060020a038116600090815260036020819052604090912001546105f49082612da0565b50565b600080610602612f0f565b905061060d81612f26565b91505b5090565b600160a060020a038181166000908152600360205260408120600601546101009004909116116106595760405160e560020a62461bcd0281526004016104a090615939565b600160a060020a038116600090815260036020819052604080832082015433845292200154148061068e575061068e336111aa565b15156106af5760405160e560020a62461bcd0281526004016104a090615949565b60023360009081526003602052604090206006015460ff1660028111156106d257fe5b14806106e257506106e2336111aa565b15156107035760405160e560020a62461bcd0281526004016104a0906159f9565b6001600160a060020a03821660009081526003602052604090206006015460ff16600281111561072f57fe5b1461074f5760405160e560020a62461bcd0281526004016104a090615959565b600160a060020a0381166000908152600360205260408120600601805460ff19166001836105c8565b61078061453d565b81610789612f0f565b60008281526005602052604090206004015414806107bf57506107aa612f0f565b60008281526005602081905260409091200154145b15156107e05760405160e560020a62461bcd0281526004016104a090615999565b600560008481526020019081526020016000206101206040519081016040529081600082015481526020016001820154815260200160028201805480602002602001604051908101604052809291908181526020016000905b828210156109975760008481526020908190206040805160028681029093018054600181161561010002600019011693909304601f8101859004909402810160609081018352918101848152909384928491908401828280156108dd5780601f106108b2576101008083540402835291602001916108dd565b820191906000526020600020905b8154815290600101906020018083116108c057829003601f168201915b50505050508152602001600182018054600181600116156101000203166002900480601f01602080910402602001604051908101604052809291908181526020018280546001816001161561010002031660029004801561097f5780601f106109545761010080835404028352916020019161097f565b820191906000526020600020905b81548152906001019060200180831161096257829003601f168201915b50505050508152505081526020019060010190610839565b50505090825250600382015460209091019060ff1660018111156109b757fe5b60018111156109c257fe5b8152602001600482015481526020016005820154815260200160068201805480602002602001604051908101604052809291908181526020016000905b82821015610aaa5760008481526020908190208301805460408051601f6002600019610100600187161502019094169390930492830185900485028101850190915281815292830182828015610a965780601f10610a6b57610100808354040283529160200191610a96565b820191906000526020600020905b815481529060010190602001808311610a7957829003601f168201915b5050505050815260200190600101906109ff565b50505090825250600782015460209091019060ff166001811115610aca57fe5b6001811115610ad557fe5b815260200160088201548152505091505b50919050565b606060008060006060600080610b00611a93565b9550610b0d600a89612f3b565b600454909550610b1e90600a612f74565b9350851580610b2c57508585115b80610b3657508388115b15610b4057610ebc565b60408051600a808252610160820190925290816020015b610b5f6145a0565b815260200190600190039081610b57579050509250600091508490505b600454811015610eb85733600090815260036020819052604082208101546004805491939185908110610bab57fe5b6000918252602080832090910154600160a060020a03168352820192909252604001902060030154148015610c285750600260036000600484815481101515610bf057fe5b6000918252602080832090910154600160a060020a0316835282019290925260400190206006015460ff166002811115610c2657fe5b145b15610eb05760036000600483815481101515610c4057fe5b600091825260208083209190910154600160a060020a0316835282810193909352604091820190208151610100808201845282548252600180840180548651600293821615909402600019011691909104601f81018790048702830187019095528482529194929385840193919291830182828015610d005780601f10610cd557610100808354040283529160200191610d00565b820191906000526020600020905b815481529060010190602001808311610ce357829003601f168201915b5050509183525050600282810180546040805160206001841615610100026000190190931694909404601f81018390048302850183019091528084529381019390830182828015610d925780601f10610d6757610100808354040283529160200191610d92565b820191906000526020600020905b815481529060010190602001808311610d7557829003601f168201915b505050505081526020016003820154815260200160048201548152602001600582018054600181600116156101000203166002900480601f016020809104026020016040519081016040528092919081815260200182805460018160011615610100020316600290048015610e485780601f10610e1d57610100808354040283529160200191610e48565b820191906000526020600020905b815481529060010190602001808311610e2b57829003601f168201915b5050509183525050600682015460209091019060ff166002811115610e6957fe5b6002811115610e7457fe5b8152600691909101546101009004600160a060020a03166020909101528351849084908110610e9f57fe5b602090810290910101526001909101905b600101610b7c565b8296505b505050505050919050565b610ed0336111aa565b1515610edb57600080fd5b60008781526001602052604081205411610f0a5760405160e560020a62461bcd0281526004016104a0906159c9565b600087815260016020819052604090912001548614610f3e5760405160e560020a62461bcd0281526004016104a0906158d9565b610f4d87878787878787612f97565b50505050505050565b610f5e6145a0565b600160a060020a0382166000908152600360209081526040918290208251610100808201855282548252600180840180548751600293821615909402600019011691909104601f81018690048602830186019096528582529194929385810193919291908301828280156110135780601f10610fe857610100808354040283529160200191611013565b820191906000526020600020905b815481529060010190602001808311610ff657829003601f168201915b5050509183525050600282810180546040805160206001841615610100026000190190931694909404601f810183900483028501830190915280845293810193908301828280156110a55780601f1061107a576101008083540402835291602001916110a5565b820191906000526020600020905b81548152906001019060200180831161108857829003601f168201915b505050505081526020016003820154815260200160048201548152602001600582018054600181600116156101000203166002900480601f01602080910402602001604051908101604052809291908181526020018280546001816001161561010002031660029004801561115b5780601f106111305761010080835404028352916020019161115b565b820191906000526020600020905b81548152906001019060200180831161113e57829003601f168201915b5050509183525050600682015460209091019060ff16600281111561117c57fe5b600281111561118757fe5b8152600691909101546101009004600160a060020a031660209091015292915050565b60006111bc818363ffffffff61359016565b92915050565b60608060006111d0336111aa565b15156111db57600080fd5b60045460408051828152602080840282010190915290801561121757816020015b6112046145a0565b8152602001906001900390816111fc5790505b509150600090505b600454811015610ae6576003600060048381548110151561123c57fe5b600091825260208083209190910154600160a060020a0316835282810193909352604091820190208151610100808201845282548252600180840180548651600293821615909402600019011691909104601f810187900487028301870190955284825291949293858401939192918301828280156112fc5780601f106112d1576101008083540402835291602001916112fc565b820191906000526020600020905b8154815290600101906020018083116112df57829003601f168201915b5050509183525050600282810180546040805160206001841615610100026000190190931694909404601f8101839004830285018301909152808452938101939083018282801561138e5780601f106113635761010080835404028352916020019161138e565b820191906000526020600020905b81548152906001019060200180831161137157829003601f168201915b505050505081526020016003820154815260200160048201548152602001600582018054600181600116156101000203166002900480601f0160208091040260200160405190810160405280929190818152602001828054600181600116156101000203166002900480156114445780601f1061141957610100808354040283529160200191611444565b820191906000526020600020905b81548152906001019060200180831161142757829003601f168201915b5050509183525050600682015460209091019060ff16600281111561146557fe5b600281111561147057fe5b8152600691909101546101009004600160a060020a0316602090910152825183908390811061149b57fe5b6020908102909101015260010161121f565b60608060006002805490506040519080825280602002602001820160405280156114f157816020015b6114de6145f1565b8152602001906001900390816114d65790505b509150600090505b600254811015610ae6576001600060028381548110151561151657fe5b9060005260206000200154815260200190815260200160002061014060405190810160405290816000820154815260200160018201548152602001600282018054600181600116156101000203166002900480601f0160208091040260200160405190810160405280929190818152602001828054600181600116156101000203166002900480156115e95780601f106115be576101008083540402835291602001916115e9565b820191906000526020600020905b8154815290600101906020018083116115cc57829003601f168201915b505050918352505060038201805460408051602060026001851615610100026000190190941693909304601f810184900484028201840190925281815293820193929183018282801561167d5780601f106116525761010080835404028352916020019161167d565b820191906000526020600020905b81548152906001019060200180831161166057829003601f168201915b505050918352505060048201805460408051602060026001851615610100026000190190941693909304601f81018490048402820184019092528181529382019392918301828280156117115780601f106116e657610100808354040283529160200191611711565b820191906000526020600020905b8154815290600101906020018083116116f457829003601f168201915b505050918352505060058201805460408051602060026001851615610100026000190190941693909304601f81018490048402820184019092528181529382019392918301828280156117a55780601f1061177a576101008083540402835291602001916117a5565b820191906000526020600020905b81548152906001019060200180831161178857829003601f168201915b505050918352505060068201805460408051602060026001851615610100026000190190941693909304601f81018490048402820184019092528181529382019392918301828280156118395780601f1061180e57610100808354040283529160200191611839565b820191906000526020600020905b81548152906001019060200180831161181c57829003601f168201915b505050505081526020016007820180548060200260200160405190810160405280929190818152602001828054801561189157602002820191906000526020600020905b81548152602001906001019080831161187d575b50505050508152602001600882018054806020026020016040519081016040528092919081815260200182805480156118e957602002820191906000526020600020905b8154815260200190600101908083116118d5575b505050505081526020016009820180548060200260200160405190810160405280929190818152602001828054801561194b57602002820191906000526020600020905b8154600160a060020a0316815260019091019060200180831161192d575b505050505081525050828281518110151561196257fe5b602090810290910101526001016114f9565b600080606081871161199b5760405160e560020a62461bcd0281526004016104a090615a39565b6000851015806119ac575060018511155b15156119cd5760405160e560020a62461bcd0281526004016104a090615a29565b6119d6876135c7565b60008181526005602052604090206001015490935015611a0b5760405160e560020a62461bcd0281526004016104a0906158f9565b611a14846137b6565b1515611a355760405160e560020a62461bcd0281526004016104a0906159a9565b611a3d612f0f565b60408051600080825260208201909252919350611a6a565b6060815260200190600190039081611a555790505b509050611a7f8388888886898760018f6137c9565b611a8982846139d8565b610f4d84846139fd565b600080805b600454811015610ae65733600090815260036020819052604082208101546004805491939185908110611ac757fe5b6000918252602080832090910154600160a060020a03168352820192909252604001902060030154148015611b445750600260036000600484815481101515611b0c57fe5b6000918252602080832090910154600160a060020a0316835282019290925260400190206006015460ff166002811115611b4257fe5b145b15611b50576001909101905b600101611a98565b6000811515611b7c5760405160e560020a62461bcd0281526004016104a090615a19565b60008611611b9f5760405160e560020a62461bcd0281526004016104a090615a39565b3360009081526003602052604090205415611bcf5760405160e560020a62461bcd0281526004016104a090615929565b611bd8826137b6565b1515611bf95760405160e560020a62461bcd0281526004016104a0906159c9565b611c02866135c7565b9050611c178686868585886001336000613a22565b505050505050565b6000611c2a336111aa565b1515611c3557600080fd5b506002545b90565b6060600080600080606080600080611c56600a8b612f3b565b9750611c60612f0f565b9650611c6b87612f26565b9550611c7886600a612f74565b9450851580611c8957506001860388115b80611c935750848a115b15611c9d57612044565b611ca687613e76565b60408051600a8082526101608201909252919550816020015b611cc761453d565b815260200190600190039081611cbf579050509250600091508790505b835181101561204057600a82101561203357600560008583815181101515611d0857fe5b9060200190602002015181526020019081526020016000206101206040519081016040529081600082015481526020016001820154815260200160028201805480602002602001604051908101604052809291908181526020016000905b82821015611ec45760008481526020908190206040805160028681029093018054600181161561010002600019011693909304601f810185900490940281016060908101835291810184815290938492849190840182828015611e0a5780601f10611ddf57610100808354040283529160200191611e0a565b820191906000526020600020905b815481529060010190602001808311611ded57829003601f168201915b50505050508152602001600182018054600181600116156101000203166002900480601f016020809104026020016040519081016040528092919081815260200182805460018160011615610100020316600290048015611eac5780601f10611e8157610100808354040283529160200191611eac565b820191906000526020600020905b815481529060010190602001808311611e8f57829003601f168201915b50505050508152505081526020019060010190611d66565b50505090825250600382015460209091019060ff166001811115611ee457fe5b6001811115611eef57fe5b8152602001600482015481526020016005820154815260200160068201805480602002602001604051908101604052809291908181526020016000905b82821015611fd75760008481526020908190208301805460408051601f6002600019610100600187161502019094169390930492830185900485028101850190915281815292830182828015611fc35780601f10611f9857610100808354040283529160200191611fc3565b820191906000526020600020905b815481529060010190602001808311611fa657829003601f168201915b505050505081526020019060010190611f2c565b50505090825250600782015460209091019060ff166001811115611ff757fe5b600181111561200257fe5b8152602001600882015481525050838381518110151561201e57fe5b60209081029091010152600190910190612038565b612040565b600101611ce4565b8298505b5050505050505050919050565b6120596145a0565b6120616145a0565b336000908152600360209081526040918290208251610100808201855282548252600180840180548751600293821615909402600019011691909104601f81018690048602830186019096528582529194929385810193919291908301828280156110135780601f10610fe857610100808354040283529160200191611013565b60606000806000606060006120f8600a88612f3b565b60025490955061210990600a612f74565b600254909450158061212057506002546000190185115b8061212a57508387115b15612134576125f3565b60408051600a80825261016082019092526000945090816020015b6121576145f1565b81526020019060019003908161214f5790505091508490505b6002548110156125ef576001600060028381548110151561218d57fe5b9060005260206000200154815260200190815260200160002061014060405190810160405290816000820154815260200160018201548152602001600282018054600181600116156101000203166002900480601f0160208091040260200160405190810160405280929190818152602001828054600181600116156101000203166002900480156122605780601f1061223557610100808354040283529160200191612260565b820191906000526020600020905b81548152906001019060200180831161224357829003601f168201915b505050918352505060038201805460408051602060026001851615610100026000190190941693909304601f81018490048402820184019092528181529382019392918301828280156122f45780601f106122c9576101008083540402835291602001916122f4565b820191906000526020600020905b8154815290600101906020018083116122d757829003601f168201915b505050918352505060048201805460408051602060026001851615610100026000190190941693909304601f81018490048402820184019092528181529382019392918301828280156123885780601f1061235d57610100808354040283529160200191612388565b820191906000526020600020905b81548152906001019060200180831161236b57829003601f168201915b505050918352505060058201805460408051602060026001851615610100026000190190941693909304601f810184900484028201840190925281815293820193929183018282801561241c5780601f106123f15761010080835404028352916020019161241c565b820191906000526020600020905b8154815290600101906020018083116123ff57829003601f168201915b505050918352505060068201805460408051602060026001851615610100026000190190941693909304601f81018490048402820184019092528181529382019392918301828280156124b05780601f10612485576101008083540402835291602001916124b0565b820191906000526020600020905b81548152906001019060200180831161249357829003601f168201915b505050505081526020016007820180548060200260200160405190810160405280929190818152602001828054801561250857602002820191906000526020600020905b8154815260200190600101908083116124f4575b505050505081526020016008820180548060200260200160405190810160405280929190818152602001828054801561256057602002820191906000526020600020905b81548152602001906001019080831161254c575b50505050508152602001600982018054806020026020016040519081016040528092919081815260200182805480156125c257602002820191906000526020600020905b8154600160a060020a031681526001909101906020018083116125a4575b50505050508152505082848151811015156125d957fe5b6020908102909101015260019283019201612170565b8195505b5050505050919050565b82612606612f0f565b600082815260056020526040902060040154148061263c5750612627612f0f565b60008281526005602081905260409091200154145b151561265d5760405160e560020a62461bcd0281526004016104a090615999565b6000848152600560205260408120600101541161268f5760405160e560020a62461bcd0281526004016104a090615979565b600084815260056020526040902080546003909101546127ce918691869060ff1660018111156126bb57fe5b6000898152600560208181526040808420600481015493810154600690910180548351818602810186019094528084529495919492939092919084015b828210156127a35760008481526020908190208301805460408051601f600260001961010060018716150201909416939093049283018590048502810185019091528181529283018282801561278f5780601f106127645761010080835404028352916020019161278f565b820191906000526020600020905b81548152906001019060200180831161277257829003601f168201915b5050505050815260200190600101906126f8565b50505060008d81526005602052604090206007015460ff16905060018111156127c857fe5b8a6137c9565b50505050565b6127dd33613f0b565b565b6000836000811015806127f3575060018111155b15156128145760405160e560020a62461bcd0281526004016104a090615919565b600086815260056020526040812060010154116128465760405160e560020a62461bcd0281526004016104a090615979565b84600181111561285257fe5b600181111561285d57fe5b60008781526005602052604090206007015460ff16600181111561287d57fe5b146129aa576000868152600560208190526040909120015461289f9087613f53565b91508415806128ae5750600185145b156128fc5781156128db57600086815260056020819052604090912001546128d69087613fbc565b6128f7565b6000868152600560205260409020600401546128f79087613fbc565b612974565b811561293b5760008681526005602052604090206004015461291e90876139fd565b600086815260056020819052604090912001546128f79087613fbc565b6000868152600560208190526040909120015461295890876139fd565b6000868152600560205260409020600401546129749087613fbc565b84600181111561298057fe5b6000878152600560205260409020600701805460ff1916600183818111156129a457fe5b02179055505b604080516000815260208101918290528051909190819081908082805b602083106129e65780518252601f1990920191602091820191016129c7565b51815160209384036101000a60001901801990921691161790526040519190930181900381208951909550899450908301928392508401908083835b60208310612a415780518252601f199092019160209182019101612a22565b6001836020036101000a0380198251168184511680821785525050505050509050019150506040516020818303038152906040526040518082805190602001908083835b60208310612aa45780518252601f199092019160209182019101612a85565b6001836020036101000a038019825116818451168082178552505050505050905001915050604051809103902060001916141515612b1657600086815260056020908152604082206006018054600181018083559184529282902087519193612b139391019190880190614645565b50505b5050600093845260056020526040909320600801929092555050565b612b3b336111aa565b1515612b4657600080fd5b6105f4816140cf565b600080612b5b336111aa565b1515612b6657600080fd5b60008811612b895760405160e560020a62461bcd0281526004016104a090615a39565b612b92886135c7565b60008181526001602052604090205490915015612bc45760405160e560020a62461bcd0281526004016104a0906159b9565b612bd381898989898989612f97565b979650505050505050565b600160a060020a03818116600090815260036020526040812060060154909182918291610100909104168110612c295760405160e560020a62461bcd0281526004016104a090615939565b6002600160a060020a03851660009081526003602052604090206006015460ff166002811115612c5557fe5b14612c755760405160e560020a62461bcd0281526004016104a0906159f9565b600160a060020a03841660009081526003602052604090206004810154815460069092015490945090925060ff166002811115612cae57fe5b9050612cc282898989878a878b6001613a22565b5050505050505050565b612cd5336111aa565b1515612ce057600080fd5b600160a060020a03811660009081526003602081905260409091200154612d079082612da0565b604080518082018252600b81527f53757065722061646d696e0000000000000000000000000000000000000000006020808301918252600160a060020a03851660009081526003909152929092209051612d679260059092019190614645565b50600160a060020a0381166000908152600360208190526040822090810191909155600601805460ff191660021790556105f481612b32565b6000805b60008481526001602052604090206009015460001901811015612ea05760008481526001602052604090206009018054600160a060020a038516919083908110612dea57fe5b600091825260209091200154600160a060020a03161415612e0a57600191505b8115612e98576000848152600160208190526040909120600901805490918301908110612e3357fe5b6000918252602080832090910154868352600190915260409091206009018054600160a060020a039092169183908110612e6957fe5b9060005260206000200160006101000a815481600160a060020a030219169083600160a060020a031602179055505b600101612da4565b600084815260016020526040902060090180546000198101908110612ec157fe5b60009182526020808320909101805473ffffffffffffffffffffffffffffffffffffffff191690558582526001905260409020600901805490612f089060001983016146bf565b5050505050565b336000908152600360208190526040909120015490565b60009081526001602052604090206008015490565b600080831515612f4e5760009150612f6d565b50828202828482811515612f5e57fe5b0414612f6957600080fd5b8091505b5092915050565b600080808311612f8357600080fd5b8284811515612f8e57fe5b04949350505050565b612f9f6145f1565b85511515612fc25760405160e560020a62461bcd0281526004016104a090615a09565b82511515612fe55760405160e560020a62461bcd0281526004016104a0906159e9565b815115156130085760405160e560020a62461bcd0281526004016104a0906159d9565b6000888152600160208181526040928390208351610140810185528154815281840154818401526002808301805487519681161561010002600019011691909104601f8101859004850286018501875280865291959294928601939091908301828280156130b75780601f1061308c576101008083540402835291602001916130b7565b820191906000526020600020905b81548152906001019060200180831161309a57829003601f168201915b505050918352505060038201805460408051602060026001851615610100026000190190941693909304601f810184900484028201840190925281815293820193929183018282801561314b5780601f106131205761010080835404028352916020019161314b565b820191906000526020600020905b81548152906001019060200180831161312e57829003601f168201915b505050918352505060048201805460408051602060026001851615610100026000190190941693909304601f81018490048402820184019092528181529382019392918301828280156131df5780601f106131b4576101008083540402835291602001916131df565b820191906000526020600020905b8154815290600101906020018083116131c257829003601f168201915b505050918352505060058201805460408051602060026001851615610100026000190190941693909304601f81018490048402820184019092528181529382019392918301828280156132735780601f1061324857610100808354040283529160200191613273565b820191906000526020600020905b81548152906001019060200180831161325657829003601f168201915b505050918352505060068201805460408051602060026001851615610100026000190190941693909304601f81018490048402820184019092528181529382019392918301828280156133075780601f106132dc57610100808354040283529160200191613307565b820191906000526020600020905b8154815290600101906020018083116132ea57829003601f168201915b505050505081526020016007820180548060200260200160405190810160405280929190818152602001828054801561335f57602002820191906000526020600020905b81548152602001906001019080831161334b575b50505050508152602001600882018054806020026020016040519081016040528092919081815260200182805480156133b757602002820191906000526020600020905b8154815260200190600101908083116133a3575b505050505081526020016009820180548060200260200160405190810160405280929190818152602001828054801561341957602002820191906000526020600020905b8154600160a060020a031681526001909101906020018083116133fb575b50505091909252505050888152602080820189815260408084018a8152606085018a90526080850189905260a0850188905260c0850187905260008d81526001808652929020855181559251918301919091555180519394508493919261348892600285019290910190614645565b50606082015180516134a4916003840191602090910190614645565b50608082015180516134c0916004840191602090910190614645565b5060a082015180516134dc916005840191602090910190614645565b5060c082015180516134f8916006840191602090910190614645565b5060e082015180516135149160078401916020909101906146e8565b5061010082015180516135319160088401916020909101906146e8565b50610120820151805161354e916009840191602090910190614722565b5050600280546001810182556000919091527f405787fa12a823e0f2b7631cc41b3ba8828b3321ca811111fa75cd3aa3bb5ace01989098555050505050505050565b6000600160a060020a03821615156135a757600080fd5b50600160a060020a03166000908152602091909152604090205460ff1690565b60008080806002850615156136595784604051602001808281526020019150506040516020818303038152906040526040518082805190602001908083835b602083106136255780518252601f199092019160209182019101613606565b6001836020036101000a03801982511681845116808217855250505050505090500191505060405180910390209250613744565b84604051602001808281526020019150506040516020818303038152906040526040518082805190602001908083835b602083106136a85780518252601f199092019160209182019101613689565b51815160209384036101000a600019018019909216911617905260408051929094018290038220828201528351808303820181529184019384905281519195509293508392850191508083835b602083106137145780518252601f1990920191602091820191016136f5565b6001836020036101000a038019825116818451168082178552505050505050905001915050604051809103902092505b60208110156137715782816020811061375957fe5b60f860020a91901a8102049190910190600101613744565b82602060028401066020811061378357fe5b60f860020a91901a81020483602084066020811061379d57fe5b1a60f860020a0260f860020a9004029350505050919050565b6000908152600160205260408120541190565b6137d1614790565b6060600060606137e08b614117565b93506137eb84614165565b92508c600560008f8152602001908152602001600020600101819055508b600560008f81526020019081526020016000206000018190555089600181111561382f57fe5b60008e8152600560205260409020600301805460ff19166001838181111561385357fe5b021790555060008d8152600560205260408120613875916002909101906147a7565b600091505b825182101561395a576138a3838381518110151561389457fe5b90602001906020020151614165565b9050600560008e815260200190815260200160002060020160408051908101604052806138e78460008151811015156138d857fe5b90602001906020020151614238565b81526020016138fe8460018151811015156138d857fe5b9052815460018101808455600093845260209384902083518051929560029094029091019261393292849290910190614645565b50602082810151805161394b9260018501920190614645565b5050505081600101915061387a565b60008d8152600560208181526040909220600481018c90559081018a9055600881018790558851613993926006909201918a01906147c8565b508560018111156139a057fe5b60008e8152600560205260409020600701805460ff1916600183818111156139c457fe5b021790555050505050505050505050505050565b6000918252600160208181526040842060080180549283018155845290922090910155565b6000918252600160208181526040842060070180549283018155845290922090910155565b613a2a6145a0565b600084101580613a3b575060028411155b1515613a5c5760405160e560020a62461bcd0281526004016104a090615969565b84511515613a7f5760405160e560020a62461bcd0281526004016104a0906158e9565b600160a060020a0383166000908152600360209081526040918290208251610100808201855282548252600180840180548751600293821615909402600019011691909104601f8101869004860283018601909652858252919492938581019391929190830182828015613b345780601f10613b0957610100808354040283529160200191613b34565b820191906000526020600020905b815481529060010190602001808311613b1757829003601f168201915b5050509183525050600282810180546040805160206001841615610100026000190190931694909404601f81018390048302850183019091528084529381019390830182828015613bc65780601f10613b9b57610100808354040283529160200191613bc6565b820191906000526020600020905b815481529060010190602001808311613ba957829003601f168201915b505050505081526020016003820154815260200160048201548152602001600582018054600181600116156101000203166002900480601f016020809104026020016040519081016040528092919081815260200182805460018160011615610100020316600290048015613c7c5780601f10613c5157610100808354040283529160200191613c7c565b820191906000526020600020905b815481529060010190602001808311613c5f57829003601f168201915b5050509183525050600682015460209091019060ff166002811115613c9d57fe5b6002811115613ca857fe5b8152600691909101546101009004600160a060020a03166020918201528b825281018a905260408101899052606081018890526080810187905260a081018690529050836002811115613cf757fe5b8160c001906002811115613d0757fe5b90816002811115613d1457fe5b905250600160a060020a03831660e082018190526000908152600360209081526040909120825181558183015180518493613d56926001850192910190614645565b5060408201518051613d72916002840191602090910190614645565b50606082015160038201556080820151600482015560a08201518051613da2916005840191602090910190614645565b5060c082015160068201805460ff19166001836002811115613dc057fe5b021790555060e0919091015160069091018054600160a060020a039092166101000274ffffffffffffffffffffffffffffffffffffffff0019909216919091179055811515613e6a57600480546001810182556000919091527f8a35acfbc15ff81a39ae7d344fd709f28e8600b4aa8c65c6b64bfe7fe36bd19b01805473ffffffffffffffffffffffffffffffffffffffff1916600160a060020a038516179055613e6a876142aa565b50505050505050505050565b60008181526001602052604081205460609110613ea85760405160e560020a62461bcd0281526004016104a090615989565b60008281526001602090815260409182902060080180548351818402810184019094528084529091830182828015613eff57602002820191906000526020600020905b815481526020019060010190808311613eeb575b50505050509050919050565b613f1c60008263ffffffff6142e916565b604051600160a060020a038216907f3525e22824a8a7df2c9a6029941c824cf95b6447f1e13d5128fd3826d35afe8b90600090a250565b6000805b600084815260016020526040902060070154811015613fb2576000848152600160205260409020600701805484919083908110613f9057fe5b90600052602060002001541415613faa5760019150612f6d565b600101613f57565b5060009392505050565b6000805b6000848152600160205260409020600701546000190181101561407f576000848152600160205260409020600701805484919083908110613ffd57fe5b9060005260206000200154141561401357600191505b811561407757600084815260016020819052604090912060070180549091830190811061403c57fe5b9060005260206000200154600160008681526020019081526020016000206007018281548110151561406a57fe5b6000918252602090912001555b600101613fc0565b6000848152600160205260409020600701805460001981019081106140a057fe5b600091825260208083209091018290558582526001905260409020600701805490612f089060001983016146bf565b6140e060008263ffffffff61433516565b604051600160a060020a038216907f47d1c22a25bb3a5d4e481b9b1e6944c2eade3181a0a20b495ed61d35b5323f2490600090a250565b61411f614790565b60008251600014156141465760408051808201909152600080825260208201529150610ae6565b5050604080518082019091528151815260209182019181019190915290565b606060008060008061417686614383565b151561418157600080fd5b61418a866143b2565b9350836040519080825280602002602001820160405280156141c657816020015b6141b3614790565b8152602001906001900390816141ab5790505b5094506141d68660200151614402565b8660200151019250600090505b8381101561422f576141f483614465565b9150604080519081016040528083815260200184815250858281518110151561421957fe5b60209081029091010152918101916001016141e3565b50505050919050565b60606000806060600061424e8660200151614402565b9350838660000151039250826040519080825280601f01601f191660200182016040528015614287578160200160208202803883390190505b5091508160200190506142a18487602001510182856144f6565b50949350505050565b6000908152600160208181526040832060090180549283018155835290912001805473ffffffffffffffffffffffffffffffffffffffff191633179055565b600160a060020a03811615156142fe57600080fd5b6143088282613590565b151561431357600080fd5b600160a060020a0316600090815260209190915260409020805460ff19169055565b600160a060020a038116151561434a57600080fd5b6143548282613590565b1561435e57600080fd5b600160a060020a0316600090815260209190915260409020805460ff19166001179055565b6020810151805160009190821a9060c060ff831610156143a657600092506143ab565b600192505b5050919050565b600080600080600092506143c98560200151614402565b6020860151865191810193500190505b808210156143f9576143ea82614465565b600190930192909101906143d9565b50909392505050565b8051600090811a608081101561441b5760009150610ae6565b60b8811080614436575060c08110801590614436575060f881105b156144445760019150610ae6565b60c08110156144595760b51981019150610ae6565b60f51981019150610ae6565b8051600090811a608081101561447e5760019150610ae6565b60b881101561449357607e1981019150610ae6565b60c08110156144c05760b78103600184019350806020036101000a84510460018201810193505050610ae6565b60f88110156144d55760be1981019150610ae6565b60019290920151602083900360f7016101000a900490910160f51901919050565b60005b6020821061451b578351835260209384019390920191601f19909101906144f9565b50915181516020939093036101000a6000190180199091169216919091179052565b610120604051908101604052806000815260200160008152602001606081526020016000600181111561456c57fe5b81526020016000815260200160008152602001606081526020016000600181111561459357fe5b8152602001600081525090565b61010060405190810160405280600081526020016060815260200160608152602001600081526020016000815260200160608152602001600060028111156145e457fe5b8152600060209091015290565b61014060405190810160405280600081526020016000815260200160608152602001606081526020016060815260200160608152602001606081526020016060815260200160608152602001606081525090565b828054600181600116156101000203166002900490600052602060002090601f016020900481019282601f1061468657805160ff19168380011785556146b3565b828001600101855582156146b3579182015b828111156146b3578251825591602001919060010190614698565b50610610929150614821565b8154818355818111156146e3576000838152602090206146e3918101908301614821565b505050565b8280548282559060005260206000209081019282156146b357916020028201828111156146b3578251825591602001919060010190614698565b828054828255906000526020600020908101928215614784579160200282015b82811115614784578251825473ffffffffffffffffffffffffffffffffffffffff1916600160a060020a03909116178255602090920191600190910190614742565b5061061092915061483b565b604080518082019091526000808252602082015290565b50805460008255600202906000526020600020908101906105f4919061486c565b828054828255906000526020600020908101928215614815579160200282015b828111156148155782518051614805918491602090910190614645565b50916020019190600101906147e8565b5061061092915061489d565b611c3a91905b808211156106105760008155600101614827565b611c3a91905b8082111561061057805473ffffffffffffffffffffffffffffffffffffffff19168155600101614841565b611c3a91905b8082111561061057600061488682826148c0565b6148946001830160006148c0565b50600201614872565b611c3a91905b808211156106105760006148b782826148c0565b506001016148a3565b50805460018160011615610100020316600290046000825580601f106148e657506105f4565b601f0160209004906000526020600020908101906105f49190614821565b60006149108235615ad2565b9392505050565b6000601f8201831361492857600080fd5b813561493b61493682615aa0565b615a79565b9150808252602083016020830185838301111561495757600080fd5b614962838284615b11565b50505092915050565b60006149108235611c3a565b60006020828403121561498957600080fd5b60006149958484614904565b949350505050565b600080600080600060a086880312156149b557600080fd5b853567ffffffffffffffff8111156149cc57600080fd5b6149d888828901614917565b955050602086013567ffffffffffffffff8111156149f557600080fd5b614a0188828901614917565b9450506040614a128882890161496b565b935050606086013567ffffffffffffffff811115614a2f57600080fd5b614a3b88828901614917565b9250506080614a4c88828901614904565b9150509295509295909350565b600060208284031215614a6b57600080fd5b6000614995848461496b565b600080600060608486031215614a8c57600080fd5b6000614a98868661496b565b935050602084013567ffffffffffffffff811115614ab557600080fd5b614ac186828701614917565b9250506040614ad28682870161496b565b9150509250925092565b60008060008060808587031215614af257600080fd5b6000614afe878761496b565b945050602085013567ffffffffffffffff811115614b1b57600080fd5b614b2787828801614917565b9350506040614b388782880161496b565b9250506060614b498782880161496b565b91505092959194509250565b60008060008060008060c08789031215614b6e57600080fd5b6000614b7a898961496b565b965050602087013567ffffffffffffffff811115614b9757600080fd5b614ba389828a01614917565b955050604087013567ffffffffffffffff811115614bc057600080fd5b614bcc89828a01614917565b945050606087013567ffffffffffffffff811115614be957600080fd5b614bf589828a01614917565b935050608087013567ffffffffffffffff811115614c1257600080fd5b614c1e89828a01614917565b92505060a087013567ffffffffffffffff811115614c3b57600080fd5b614c4789828a01614917565b9150509295509295509295565b600080600080600060a08688031215614c6c57600080fd5b6000614c78888861496b565b955050602086013567ffffffffffffffff811115614c9557600080fd5b614ca188828901614917565b945050604086013567ffffffffffffffff811115614cbe57600080fd5b614cca88828901614917565b935050606086013567ffffffffffffffff811115614ce757600080fd5b614cf388828901614917565b9250506080614a4c8882890161496b565b600080600080600080600060e0888a031215614d1f57600080fd5b6000614d2b8a8a61496b565b9750506020614d3c8a828b0161496b565b965050604088013567ffffffffffffffff811115614d5957600080fd5b614d658a828b01614917565b955050606088013567ffffffffffffffff811115614d8257600080fd5b614d8e8a828b01614917565b945050608088013567ffffffffffffffff811115614dab57600080fd5b614db78a828b01614917565b93505060a088013567ffffffffffffffff811115614dd457600080fd5b614de08a828b01614917565b92505060c088013567ffffffffffffffff811115614dfd57600080fd5b614e098a828b01614917565b91505092959891949750929550565b60008060008060808587031215614e2e57600080fd5b6000614e3a878761496b565b9450506020614e4b8782880161496b565b935050604085013567ffffffffffffffff811115614e6857600080fd5b614b3887828801614917565b614e7d81615ad2565b82525050565b6000614e8e82615ace565b808452602084019350614ea083615ac8565b60005b82811015614ed057614eb6868351614e74565b614ebf82615ac8565b602096909601959150600101614ea3565b5093949350505050565b6000614ee582615ace565b80845260208401935083602082028501614efe85615ac8565b60005b84811015614f35578383038852614f19838351615115565b9250614f2482615ac8565b602098909801979150600101614f01565b50909695505050505050565b6000614f4c82615ace565b80845260208401935083602082028501614f6585615ac8565b60005b84811015614f35578383038852614f808383516155e6565b9250614f8b82615ac8565b602098909801979150600101614f68565b6000614fa782615ace565b80845260208401935083602082028501614fc085615ac8565b60005b84811015614f35578383038852614fdb8383516156ab565b9250614fe682615ac8565b602098909801979150600101614fc3565b600061500282615ace565b8084526020840193508360208202850161501b85615ac8565b60005b84811015614f355783830388526150368383516157ae565b925061504182615ac8565b60209890980197915060010161501e565b600061505d82615ace565b8084526020840193508360208202850161507685615ac8565b60005b84811015614f355783830388526150918383516157e0565b925061509c82615ac8565b602098909801979150600101615079565b60006150b882615ace565b8084526020840193506150ca83615ac8565b60005b82811015614ed0576150e086835161588f565b6150e982615ac8565b6020969096019591506001016150cd565b614e7d81615ade565b614e7d81615afb565b614e7d81615b06565b600061512082615ace565b808452615134816020860160208601615b1d565b61513d81615b49565b9093016020019392505050565b601a81527f4372656174696f6e204461746520697320696e6d757461626c65000000000000602082015260400190565b601181527f726f6c65206973206d616e6461746f7279000000000000000000000000000000602082015260400190565b601481527f436c61696d20616c726561647920657869737473000000000000000000000000602082015260400190565b602281527f4f6e6c792070656e64696e672075736572732063616e2062652061636365707460208201527f6564000000000000000000000000000000000000000000000000000000000000604082015260600190565b601281527f737461747573206e6f7420616c6c6f7765640000000000000000000000000000602082015260400190565b601381527f5573657220616c72656164792065786973747300000000000000000000000000602082015260400190565b601481527f546869732075736572206e6f7420657869737473000000000000000000000000602082015260400190565b601b81527f596f752063616e6e6f7420616363657074207468697320757365720000000000602082015260400190565b602281527f4f6e6c792070656e64696e672075736572732063616e2062652072656a65637460208201527f6564000000000000000000000000000000000000000000000000000000000000604082015260600190565b601381527f737461747573206973206e6f742076616c696400000000000000000000000000602082015260400190565b601081527f436c61696d206e6f742065786973747300000000000000000000000000000000602082015260400190565b601181527f6d656d626572206e6f7420657869737473000000000000000000000000000000602082015260400190565b601d81527f6e6f7420616c6c6f77656420746f20676574207468697320636c61696d000000602082015260400190565b601481527f4d656d62657220646f206e6f7420657869737473000000000000000000000000602082015260400190565b601581527f4d656d62657220616c7265616479206578697374730000000000000000000000602082015260400190565b601181527f4d656d626572206e6f7420657869737473000000000000000000000000000000602082015260400190565b601281527f5468656d65206973206d616e6461746f72790000000000000000000000000000602082015260400190565b601081527f434d4f206973206d616e6461746f727900000000000000000000000000000000602082015260400190565b601481527f596f7520617265206e6f74206163636570746564000000000000000000000000602082015260400190565b601181527f4e616d65206973206d616e6461746f7279000000000000000000000000000000602082015260400190565b601181527f4e6f2076616c6964206d656d6265724964000000000000000000000000000000602082015260400190565b601481527f496e636f727265637420436c61696d2054797065000000000000000000000000602082015260400190565b601981527f4372656174696f6e44617465206973206d616e6461746f727900000000000000602082015260400190565b80516000906101208401906155fb858261588f565b50602083015161560e602086018261588f565b50604083015184820360408601526156268282614ff7565b915050606083015161563b6060860182615103565b50608083015161564e608086018261588f565b5060a083015161566160a086018261588f565b5060c083015184820360c08601526156798282614eda565b91505060e083015161568e60e0860182615103565b506101008301516156a361010086018261588f565b509392505050565b80516000906101408401906156c0858261588f565b5060208301516156d3602086018261588f565b50604083015184820360408601526156eb8282615115565b915050606083015184820360608601526157058282615115565b9150506080830151848203608086015261571f8282615115565b91505060a083015184820360a08601526157398282615115565b91505060c083015184820360c08601526157538282615115565b91505060e083015184820360e086015261576d82826150ad565b91505061010083015184820361010086015261578982826150ad565b9150506101208301518482036101208601526157a58282614e83565b95945050505050565b80516040808452600091908401906157c68282615115565b915050602083015184820360208601526157a58282615115565b80516000906101008401906157f5858261588f565b506020830151848203602086015261580d8282615115565b915050604083015184820360408601526158278282615115565b915050606083015161583c606086018261588f565b50608083015161584f608086018261588f565b5060a083015184820360a08601526158678282615115565b91505060c083015161587c60c086018261510c565b5060e08301516156a360e0860182614e74565b614e7d81611c3a565b602080825281016149108184614f41565b602080825281016149108184614f9c565b602080825281016149108184615052565b602081016111bc82846150fa565b602080825281016111bc8161514a565b602080825281016111bc8161517a565b602080825281016111bc816151aa565b602080825281016111bc816151da565b602080825281016111bc81615230565b602080825281016111bc81615260565b602080825281016111bc81615290565b602080825281016111bc816152c0565b602080825281016111bc816152f0565b602080825281016111bc81615346565b602080825281016111bc81615376565b602080825281016111bc816153a6565b602080825281016111bc816153d6565b602080825281016111bc81615406565b602080825281016111bc81615436565b602080825281016111bc81615466565b602080825281016111bc81615496565b602080825281016111bc816154c6565b602080825281016111bc816154f6565b602080825281016111bc81615526565b602080825281016111bc81615556565b602080825281016111bc81615586565b602080825281016111bc816155b6565b6020808252810161491081846155e6565b6020808252810161491081846157e0565b602081016111bc828461588f565b60405181810167ffffffffffffffff81118282101715615a9857600080fd5b604052919050565b600067ffffffffffffffff821115615ab757600080fd5b506020601f91909101601f19160190565b60200190565b5190565b600160a060020a031690565b151590565b60006002821061061057fe5b60006003821061061057fe5b60006111bc82615ae3565b60006111bc82615aef565b82818337506000910152565b60005b83811015615b38578181015183820152602001615b20565b838111156127ce5750506000910152565b601f01601f1916905600a265627a7a723058202d0ea1c9e99e8e651cfcfeaa96ed3640746813bb39ee656bb7a25f7a1457ec1b6c6578706572696d656e74616cf50037",
  "source": "pragma solidity ^0.4.24;\npragma experimental ABIEncoderV2;\n\nimport \"../../node_modules/solidity-rlp/contracts/RLPReader.sol\";\nimport \"./Users.sol\";\n\ncontract Claims is Users {\n\n  using RLPReader for bytes;\n  using RLPReader for uint;\n  using RLPReader for RLPReader.RLPItem;\n\n  enum StatusClaimEnum {\n    CLAIMED,\n    CONFLICT\n  }\n\n  enum ClaimTypeEnum {\n    MUSICAL_WORK,\n    SOUND_RECORDING\n  }\n  \n  struct NameValue{ \n    string name;\n    string value;\n  }\n\n  struct Claim {   \n    uint256 creationDate;\n    uint256 claimId;\n    NameValue[] claimData;\n    ClaimTypeEnum claimType;    \n    uint256 memberOwner;\n    uint256 memberReceptor;\n    string[] messageLog;\n    StatusClaimEnum status;\n    uint256 lastChange;   \n  }\n\n  uint256 constant private PAGE_SIZE = 10;\n\n  mapping (uint256 => Claim) private claims_;\n\n  // METHODS\n\n  // Public\n  function registerClaim(uint256 _creationDate, bytes _claimData, uint256 _claimType, uint _memberReceptor) public {\n\n      require(_creationDate > 0, \"CreationDate is mandatory\");\n      require(_claimType >= 0 || _claimType <= 1, \"Incorrect Claim Type\");\n\n      uint256 _claimId = Random.rand(_creationDate);\n\n      require(claims_[_claimId].claimId == 0, \"Claim already exists\");\n      require(_memberExists(_memberReceptor), \"Member do not exists\");\n\n      uint256 _memberOwner = _memberIdFromCurrentAddress();\n\n      string[] memory messageLog = new string[](0);\n\n      _saveClaim(_claimId, _creationDate, _claimData, _claimType, _memberOwner, _memberReceptor, messageLog, uint(StatusClaimEnum.CONFLICT), _creationDate);\n      _addClaimIdToMemberOwner(_memberOwner, _claimId);\n      _addClaimFromInbox(_memberReceptor, _claimId);\n  }\n\n  function updateClaim(uint256 _claimId, bytes _claimData, uint _lastChange) checkMemberOwnership(_claimId) public {\n    require(claims_[_claimId].claimId > 0, \"Claim not exists\");\n\n    _saveClaim(_claimId, claims_[_claimId].creationDate, _claimData, uint(claims_[_claimId].claimType), \n      claims_[_claimId].memberOwner, claims_[_claimId].memberReceptor, claims_[_claimId].messageLog, uint(claims_[_claimId].status), _lastChange);\n  }\n\n  function changeState(uint256 _claimId, uint _status, string _messageLog, uint256 _lastChange) checkValidStatus(_status) public {\n    require(claims_[_claimId].claimId > 0, \"Claim not exists\");\n\n     if(claims_[_claimId].status != StatusClaimEnum(_status)) {\n\n        bool isClaimIntoReceptorInbox = _isClaimIntoReceptorInbox(claims_[_claimId].memberReceptor, _claimId);\n\n        if(_status == uint(StatusClaimEnum.CLAIMED) || _status == uint(StatusClaimEnum.CONFLICT)) {\n          if(isClaimIntoReceptorInbox) {\n            _removeClaimFromInbox(claims_[_claimId].memberReceptor, _claimId);\n          } else {\n            _removeClaimFromInbox(claims_[_claimId].memberOwner, _claimId);\n          }\n        } else {\n          if(isClaimIntoReceptorInbox) {\n            _addClaimFromInbox(claims_[_claimId].memberOwner, _claimId);\n            _removeClaimFromInbox(claims_[_claimId].memberReceptor, _claimId);\n          } else {\n            _addClaimFromInbox(claims_[_claimId].memberReceptor, _claimId);\n            _removeClaimFromInbox(claims_[_claimId].memberOwner, _claimId);\n          }\n        }\n        claims_[_claimId].status = StatusClaimEnum(_status);\n     }\n      if (keccak256(abi.encodePacked((_messageLog))) != keccak256(abi.encodePacked((\"\")))) {\n          claims_[_claimId].messageLog.push(_messageLog);\n      }\n\n      claims_[_claimId].lastChange = _lastChange;\n  }\n\n  function getClaim(uint256 _claimId) checkMemberOwnership(_claimId) view public returns (Claim) {\n    return claims_[_claimId];\n  }\n\n  function getClaimsByMemberId(uint _page) view public returns (Claim[] memory) {\n    uint256 pageIndex = SafeMath.mul(PAGE_SIZE, _page);\n    uint256 _memberId = _memberIdFromCurrentAddress();\n    uint count = _getClaimsCountByMember(_memberId);\n    uint256 pageNumber = SafeMath.div(count, PAGE_SIZE);\n\n    if (count == 0 || pageIndex > count - 1 || _page > pageNumber) {\n      return;\n    }\n\n    uint256[] memory claimsId = _getClaimsIdByMember(_memberId);\n\n    Claim[] memory _claims = new Claim[](PAGE_SIZE);\n    uint256 returnCounter = 0;\n    for (uint i = pageIndex; i < claimsId.length; ++i) {\n      if(returnCounter < PAGE_SIZE) {\n        _claims[returnCounter] = claims_[claimsId[i]];\n        ++returnCounter;\n      } else {\n        break;\n      }\n    }\n    return _claims;\n  }\n\n  function getClaimsCountByMemberId() view public returns (uint) {\n    uint256 _memberId = _memberIdFromCurrentAddress();\n    return _getClaimsCountByMember(_memberId);\n  }\n\n  // Private\n  function _saveClaim(uint256 _claimId, uint256 _creationDate, bytes _claimData, uint256 _claimType, \n    uint _memberOwner, uint _memberReceptor, string[] memory _messageLog, uint256 _status, uint256 _lastChange) internal {\n\n      RLPReader.RLPItem memory item = _claimData.toRlpItem();\n      RLPReader.RLPItem[] memory itemList = item.toList();\n\n      claims_[_claimId].claimId = _claimId;\n      claims_[_claimId].creationDate = _creationDate;\n      claims_[_claimId].claimType = ClaimTypeEnum(_claimType);\n\n      delete claims_[_claimId].claimData;\n      for(uint i = 0; i < itemList.length; ++i) {\n        RLPReader.RLPItem[] memory itemListClaim = itemList[i].toList();\n        claims_[_claimId].claimData.push(NameValue(string(itemListClaim[0].toBytes()), string(itemListClaim[1].toBytes())));\n      }\n\n      claims_[_claimId].memberOwner = _memberOwner;\n      claims_[_claimId].memberReceptor = _memberReceptor;\n      claims_[_claimId].lastChange = _lastChange;\n\n      \n\n      claims_[_claimId].messageLog = _messageLog;\n\n      claims_[_claimId].status = StatusClaimEnum(_status);\n      \n  }\n\n  // MODIFIERS\n\n  modifier checkValidStatus(uint256 _status) {\n    require(_status >= 0 || _status <= 1, \"status not allowed\");\n    _;\n  }\n\n  modifier checkMemberOwnership(uint256 _claimId) {\n    require(claims_[_claimId].memberOwner == _memberIdFromCurrentAddress() || claims_[_claimId].memberReceptor == _memberIdFromCurrentAddress(), \n      \"not allowed to get this claim\");\n    _;\n  }\n}\n",
  "sourcePath": "/home/komodo/newUI/bloomen-decentralized-rights-management-v2/truffle/contracts/registry/Claims.sol",
  "compiler": {
    "name": "solc",
    "version": "0.4.24+commit.e67f0147.Emscripten.clang"
  },
  "schemaVersion": "2.0.1",
  "updatedAt": "2019-10-11T11:25:17.625Z"
}