{
  "contractName": "Claims",
  "abi": [
    {
      "constant": false,
      "inputs": [
        {
          "name": "_userToAccept",
          "type": "address"
        }
      ],
      "name": "acceptUser",
      "outputs": [],
      "payable": false,
      "stateMutability": "nonpayable",
      "type": "function"
    },
    {
      "constant": false,
      "inputs": [
        {
          "name": "_userToReject",
          "type": "address"
        }
      ],
      "name": "rejectUser",
      "outputs": [],
      "payable": false,
      "stateMutability": "nonpayable",
      "type": "function"
    },
    {
      "constant": true,
      "inputs": [
        {
          "name": "_page",
          "type": "uint256"
        }
      ],
      "name": "getUsers",
      "outputs": [
        {
          "components": [
            {
              "name": "creationDate",
              "type": "uint256"
            },
            {
              "name": "firstName",
              "type": "string"
            },
            {
              "name": "lastName",
              "type": "string"
            },
            {
              "name": "memberId",
              "type": "uint256"
            },
            {
              "name": "requestId",
              "type": "uint256"
            },
            {
              "name": "role",
              "type": "string"
            },
            {
              "name": "status",
              "type": "uint8"
            },
            {
              "name": "owner",
              "type": "address"
            }
          ],
          "name": "",
          "type": "tuple[]"
        }
      ],
      "payable": false,
      "stateMutability": "view",
      "type": "function"
    },
    {
      "constant": false,
      "inputs": [
        {
          "name": "_memberId",
          "type": "uint256"
        },
        {
          "name": "_creationDate",
          "type": "uint256"
        },
        {
          "name": "_name",
          "type": "string"
        },
        {
          "name": "_logo",
          "type": "string"
        },
        {
          "name": "_country",
          "type": "string"
        },
        {
          "name": "_cmo",
          "type": "string"
        },
        {
          "name": "_theme",
          "type": "string"
        }
      ],
      "name": "updateMember",
      "outputs": [],
      "payable": false,
      "stateMutability": "nonpayable",
      "type": "function"
    },
    {
      "constant": false,
      "inputs": [
        {
          "name": "_claimId",
          "type": "uint256"
        },
        {
          "name": "_claimType",
          "type": "bool"
        },
        {
          "name": "_claimData",
          "type": "bytes"
        }
      ],
      "name": "checkClaimStatus",
      "outputs": [],
      "payable": false,
      "stateMutability": "nonpayable",
      "type": "function"
    },
    {
      "constant": true,
      "inputs": [
        {
          "name": "userAddress",
          "type": "address"
        }
      ],
      "name": "getUserByAddress",
      "outputs": [
        {
          "components": [
            {
              "name": "creationDate",
              "type": "uint256"
            },
            {
              "name": "firstName",
              "type": "string"
            },
            {
              "name": "lastName",
              "type": "string"
            },
            {
              "name": "memberId",
              "type": "uint256"
            },
            {
              "name": "requestId",
              "type": "uint256"
            },
            {
              "name": "role",
              "type": "string"
            },
            {
              "name": "status",
              "type": "uint8"
            },
            {
              "name": "owner",
              "type": "address"
            }
          ],
          "name": "",
          "type": "tuple"
        }
      ],
      "payable": false,
      "stateMutability": "view",
      "type": "function"
    },
    {
      "constant": true,
      "inputs": [
        {
          "name": "account",
          "type": "address"
        }
      ],
      "name": "isSigner",
      "outputs": [
        {
          "name": "",
          "type": "bool"
        }
      ],
      "payable": false,
      "stateMutability": "view",
      "type": "function"
    },
    {
      "constant": true,
      "inputs": [],
      "name": "getUsersOwner",
      "outputs": [
        {
          "components": [
            {
              "name": "creationDate",
              "type": "uint256"
            },
            {
              "name": "firstName",
              "type": "string"
            },
            {
              "name": "lastName",
              "type": "string"
            },
            {
              "name": "memberId",
              "type": "uint256"
            },
            {
              "name": "requestId",
              "type": "uint256"
            },
            {
              "name": "role",
              "type": "string"
            },
            {
              "name": "status",
              "type": "uint8"
            },
            {
              "name": "owner",
              "type": "address"
            }
          ],
          "name": "",
          "type": "tuple[]"
        }
      ],
      "payable": false,
      "stateMutability": "view",
      "type": "function"
    },
    {
      "constant": true,
      "inputs": [],
      "name": "claimIdCounter_",
      "outputs": [
        {
          "name": "",
          "type": "uint256"
        }
      ],
      "payable": false,
      "stateMutability": "view",
      "type": "function"
    },
    {
      "constant": true,
      "inputs": [],
      "name": "getMembers",
      "outputs": [
        {
          "components": [
            {
              "name": "memberId",
              "type": "uint256"
            },
            {
              "name": "creationDate",
              "type": "uint256"
            },
            {
              "name": "name",
              "type": "string"
            },
            {
              "name": "logo",
              "type": "string"
            },
            {
              "name": "country",
              "type": "string"
            },
            {
              "name": "cmo",
              "type": "string"
            },
            {
              "name": "theme",
              "type": "string"
            },
            {
              "name": "claimInbox",
              "type": "uint256[]"
            },
            {
              "name": "claims",
              "type": "uint256[]"
            },
            {
              "name": "userRequests",
              "type": "address[]"
            }
          ],
          "name": "",
          "type": "tuple[]"
        }
      ],
      "payable": false,
      "stateMutability": "view",
      "type": "function"
    },
    {
      "constant": true,
      "inputs": [],
      "name": "getcountUsers",
      "outputs": [
        {
          "name": "",
          "type": "uint256"
        }
      ],
      "payable": false,
      "stateMutability": "view",
      "type": "function"
    },
    {
      "constant": false,
      "inputs": [
        {
          "name": "_creationDate",
          "type": "uint256"
        },
        {
          "name": "_firstName",
          "type": "string"
        },
        {
          "name": "_lastName",
          "type": "string"
        },
        {
          "name": "_role",
          "type": "string"
        },
        {
          "name": "_memberId",
          "type": "uint256"
        }
      ],
      "name": "registerUserRequest",
      "outputs": [],
      "payable": false,
      "stateMutability": "nonpayable",
      "type": "function"
    },
    {
      "constant": true,
      "inputs": [],
      "name": "getCount",
      "outputs": [
        {
          "name": "",
          "type": "uint256"
        }
      ],
      "payable": false,
      "stateMutability": "view",
      "type": "function"
    },
    {
      "constant": true,
      "inputs": [
        {
          "name": "",
          "type": "uint256"
        }
      ],
      "name": "claims_",
      "outputs": [
        {
          "name": "creationDate",
          "type": "uint256"
        },
        {
          "name": "claimId",
          "type": "uint256"
        },
        {
          "name": "claimType",
          "type": "bool"
        },
        {
          "name": "memberOwner",
          "type": "uint256"
        },
        {
          "name": "status",
          "type": "bool"
        },
        {
          "name": "lastChange",
          "type": "uint256"
        }
      ],
      "payable": false,
      "stateMutability": "view",
      "type": "function"
    },
    {
      "constant": true,
      "inputs": [],
      "name": "getMe",
      "outputs": [
        {
          "components": [
            {
              "name": "creationDate",
              "type": "uint256"
            },
            {
              "name": "firstName",
              "type": "string"
            },
            {
              "name": "lastName",
              "type": "string"
            },
            {
              "name": "memberId",
              "type": "uint256"
            },
            {
              "name": "requestId",
              "type": "uint256"
            },
            {
              "name": "role",
              "type": "string"
            },
            {
              "name": "status",
              "type": "uint8"
            },
            {
              "name": "owner",
              "type": "address"
            }
          ],
          "name": "",
          "type": "tuple"
        }
      ],
      "payable": false,
      "stateMutability": "view",
      "type": "function"
    },
    {
      "constant": true,
      "inputs": [
        {
          "name": "_page",
          "type": "uint256"
        }
      ],
      "name": "getMembers",
      "outputs": [
        {
          "components": [
            {
              "name": "memberId",
              "type": "uint256"
            },
            {
              "name": "creationDate",
              "type": "uint256"
            },
            {
              "name": "name",
              "type": "string"
            },
            {
              "name": "logo",
              "type": "string"
            },
            {
              "name": "country",
              "type": "string"
            },
            {
              "name": "cmo",
              "type": "string"
            },
            {
              "name": "theme",
              "type": "string"
            },
            {
              "name": "claimInbox",
              "type": "uint256[]"
            },
            {
              "name": "claims",
              "type": "uint256[]"
            },
            {
              "name": "userRequests",
              "type": "address[]"
            }
          ],
          "name": "",
          "type": "tuple[]"
        }
      ],
      "payable": false,
      "stateMutability": "view",
      "type": "function"
    },
    {
      "constant": false,
      "inputs": [],
      "name": "renounceSigner",
      "outputs": [],
      "payable": false,
      "stateMutability": "nonpayable",
      "type": "function"
    },
    {
      "constant": false,
      "inputs": [
        {
          "name": "account",
          "type": "address"
        }
      ],
      "name": "addSigner",
      "outputs": [],
      "payable": false,
      "stateMutability": "nonpayable",
      "type": "function"
    },
    {
      "constant": false,
      "inputs": [
        {
          "name": "_creationDate",
          "type": "uint256"
        },
        {
          "name": "_name",
          "type": "string"
        },
        {
          "name": "_logo",
          "type": "string"
        },
        {
          "name": "_country",
          "type": "string"
        },
        {
          "name": "_cmo",
          "type": "string"
        },
        {
          "name": "_theme",
          "type": "string"
        }
      ],
      "name": "addMember",
      "outputs": [
        {
          "name": "",
          "type": "uint256"
        }
      ],
      "payable": false,
      "stateMutability": "nonpayable",
      "type": "function"
    },
    {
      "constant": false,
      "inputs": [
        {
          "name": "_firstName",
          "type": "string"
        },
        {
          "name": "_lastName",
          "type": "string"
        },
        {
          "name": "_memberId",
          "type": "uint256"
        },
        {
          "name": "_role",
          "type": "string"
        },
        {
          "name": "owner",
          "type": "address"
        }
      ],
      "name": "updateUser",
      "outputs": [],
      "payable": false,
      "stateMutability": "nonpayable",
      "type": "function"
    },
    {
      "constant": false,
      "inputs": [
        {
          "name": "account",
          "type": "address"
        }
      ],
      "name": "whitelistAdmin",
      "outputs": [],
      "payable": false,
      "stateMutability": "nonpayable",
      "type": "function"
    },
    {
      "anonymous": false,
      "inputs": [
        {
          "indexed": true,
          "name": "account",
          "type": "address"
        }
      ],
      "name": "SignerAdded",
      "type": "event"
    },
    {
      "anonymous": false,
      "inputs": [
        {
          "indexed": true,
          "name": "account",
          "type": "address"
        }
      ],
      "name": "SignerRemoved",
      "type": "event"
    },
    {
      "constant": false,
      "inputs": [
        {
          "name": "_creationDate",
          "type": "uint256"
        },
        {
          "name": "_claimData",
          "type": "bytes"
        },
        {
          "name": "_claimType",
          "type": "bool"
        },
        {
          "name": "_memberOwner",
          "type": "uint256"
        }
      ],
      "name": "registerClaim",
      "outputs": [],
      "payable": false,
      "stateMutability": "nonpayable",
      "type": "function"
    },
    {
      "constant": false,
      "inputs": [
        {
          "name": "_claimId",
          "type": "uint256"
        },
        {
          "name": "_claimData",
          "type": "bytes"
        },
        {
          "name": "_lastChange",
          "type": "uint256"
        }
      ],
      "name": "updateClaim",
      "outputs": [],
      "payable": false,
      "stateMutability": "nonpayable",
      "type": "function"
    },
    {
      "constant": true,
      "inputs": [
        {
          "name": "_claimId",
          "type": "uint256"
        }
      ],
      "name": "getClaim",
      "outputs": [
        {
          "components": [
            {
              "name": "creationDate",
              "type": "uint256"
            },
            {
              "name": "claimId",
              "type": "uint256"
            },
            {
              "components": [
                {
                  "name": "name",
                  "type": "string"
                },
                {
                  "name": "value",
                  "type": "string"
                }
              ],
              "name": "claimData",
              "type": "tuple[]"
            },
            {
              "name": "claimType",
              "type": "bool"
            },
            {
              "name": "memberOwner",
              "type": "uint256"
            },
            {
              "name": "status",
              "type": "bool"
            },
            {
              "name": "lastChange",
              "type": "uint256"
            }
          ],
          "name": "",
          "type": "tuple"
        }
      ],
      "payable": false,
      "stateMutability": "view",
      "type": "function"
    },
    {
      "constant": true,
      "inputs": [
        {
          "name": "_page",
          "type": "uint256"
        }
      ],
      "name": "getClaimsByMemberId",
      "outputs": [
        {
          "components": [
            {
              "name": "creationDate",
              "type": "uint256"
            },
            {
              "name": "claimId",
              "type": "uint256"
            },
            {
              "components": [
                {
                  "name": "name",
                  "type": "string"
                },
                {
                  "name": "value",
                  "type": "string"
                }
              ],
              "name": "claimData",
              "type": "tuple[]"
            },
            {
              "name": "claimType",
              "type": "bool"
            },
            {
              "name": "memberOwner",
              "type": "uint256"
            },
            {
              "name": "status",
              "type": "bool"
            },
            {
              "name": "lastChange",
              "type": "uint256"
            }
          ],
          "name": "",
          "type": "tuple[]"
        }
      ],
      "payable": false,
      "stateMutability": "view",
      "type": "function"
    },
    {
      "constant": true,
      "inputs": [],
      "name": "getClaimsCountByMemberId",
      "outputs": [
        {
          "name": "",
          "type": "uint256"
        }
      ],
      "payable": false,
      "stateMutability": "view",
      "type": "function"
    }
  ],
  "bytecode": "0x608060405260006006556200001d3364010000000062000023810204565b62000108565b6200003e6000826401000000006200477c6200007582021704565b604051600160a060020a038216907f47d1c22a25bb3a5d4e481b9b1e6944c2eade3181a0a20b495ed61d35b5323f2490600090a250565b600160a060020a03811615156200008b57600080fd5b620000a08282640100000000620000d0810204565b15620000ab57600080fd5b600160a060020a0316600090815260209190915260409020805460ff19166001179055565b6000600160a060020a0382161515620000e857600080fd5b50600160a060020a03166000908152602091909152604090205460ff1690565b615beb80620001186000396000f3006080604052600436106101535763ffffffff7c010000000000000000000000000000000000000000000000000000000060003504166308bdc24d81146101585780631be8850b1461017a578063373cfbb9146101a55780634dc92885146101c55780635aef2447146101e55780635d73ab9a1461021257806365ff0c481461023f57806368d3b46b1461025f57806369c212f61461027f5780637df73e27146102ac578063932191be146102d95780639c4d6e32146102ee5780639eab525314610303578063a4fdc59414610325578063a7ed1fe41461033a578063a87d942c1461035a578063b6bc38121461036f578063b90dad9a1461039c578063c11e1ff3146103ce578063c477ecab146103e3578063cb68b9e814610403578063e5c8b03d14610423578063eb12d61e14610438578063fa1188c614610458578063fcfbde5b14610478578063ff240fce14610498575b600080fd5b34801561016457600080fd5b50610178610173366004614b6e565b6104b8565b005b34801561018657600080fd5b5061018f610654565b60405161019c9190615a8d565b60405180910390f35b3480156101b157600080fd5b506101786101c0366004614cd3565b610671565b3480156101d157600080fd5b506101786101e0366004614b6e565b610731565b3480156101f157600080fd5b50610205610200366004614c50565b610895565b60405161019c9190615a6b565b34801561021e57600080fd5b5061023261022d366004614c50565b610a94565b60405161019c919061592c565b34801561024b57600080fd5b5061017861025a366004614f56565b610e6f565b34801561026b57600080fd5b5061017861027a366004614c6e565b610efe565b34801561028b57600080fd5b5061029f61029a366004614b6e565b611a90565b60405161019c9190615a7c565b3480156102b857600080fd5b506102cc6102c7366004614b6e565b611ce4565b60405161019c919061593d565b3480156102e557600080fd5b50610232611cfc565b3480156102fa57600080fd5b5061018f611fed565b34801561030f57600080fd5b50610318611ff3565b60405161019c919061591b565b34801561033157600080fd5b5061018f6124ba565b34801561034657600080fd5b50610178610355366004614ea6565b61257f565b34801561036657600080fd5b5061018f612646565b34801561037b57600080fd5b5061038f61038a366004614c50565b612664565b60405161019c919061590a565b3480156103a857600080fd5b506103bc6103b7366004614c50565b612966565b60405161019c96959493929190615a9b565b3480156103da57600080fd5b5061029f6129a2565b3480156103ef57600080fd5b506103186103fe366004614c50565b612a33565b34801561040f57600080fd5b5061017861041e366004614d4c565b612f4e565b34801561042f57600080fd5b50610178612fb6565b34801561044457600080fd5b50610178610453366004614b6e565b612fc1565b34801561046457600080fd5b5061018f610473366004614da7565b612fde565b34801561048457600080fd5b50610178610493366004614b94565b61306d565b3480156104a457600080fd5b506101786104b3366004614b6e565b61315b565b600160a060020a038181166000908152600360205260408120600601546101009004909116116105065760405160e560020a62461bcd0281526004016104fd9061598b565b60405180910390fd5b600160a060020a038116600090815260036020819052604080832082015433845292200154148061053b575061053b33611ce4565b151561055c5760405160e560020a62461bcd0281526004016104fd9061599b565b60023360009081526003602052604090206006015460ff16600281111561057f57fe5b148061058f575061058f33611ce4565b15156105b05760405160e560020a62461bcd0281526004016104fd90615a2b565b6001600160a060020a03821660009081526003602052604090206006015460ff1660028111156105dc57fe5b146105fc5760405160e560020a62461bcd0281526004016104fd9061596b565b600160a060020a038116600090815260036020526040902060060180546002919060ff19166001835b0217905550600160a060020a03811660009081526003602081905260409091200154610651908261322f565b50565b60008061065f613397565b905061066a816133ae565b91505b5090565b60008085116106955760405160e560020a62461bcd0281526004016104fd90615a5b565b5060068054600101908190556106aa826133c3565b15156106cb5760405160e560020a62461bcd0281526004016104fd906159db565b6106d3613397565b91506106e5818686868660008b6133d6565b6106ef8282613530565b6001600654111561070557610705818486610efe565b6000818152600560208190526040909120015460ff161561072a5761072a8282613555565b5050505050565b600160a060020a038181166000908152600360205260408120600601546101009004909116116107765760405160e560020a62461bcd0281526004016104fd9061598b565b600160a060020a03811660009081526003602081905260408083208201543384529220015414806107ab57506107ab33611ce4565b15156107cc5760405160e560020a62461bcd0281526004016104fd9061599b565b60023360009081526003602052604090206006015460ff1660028111156107ef57fe5b14806107ff57506107ff33611ce4565b15156108205760405160e560020a62461bcd0281526004016104fd90615a2b565b6001600160a060020a03821660009081526003602052604090206006015460ff16600281111561084c57fe5b1461086c5760405160e560020a62461bcd0281526004016104fd906159ab565b600160a060020a0381166000908152600360205260408120600601805460ff1916600183610625565b61089d6147ca565b6005600083815260200190815260200160002060e06040519081016040529081600082015481526020016001820154815260200160028201805480602002602001604051908101604052809291908181526020016000905b82821015610a535760008481526020908190206040805160028681029093018054600181161561010002600019011693909304601f8101859004909402810160609081018352918101848152909384928491908401828280156109995780601f1061096e57610100808354040283529160200191610999565b820191906000526020600020905b81548152906001019060200180831161097c57829003601f168201915b50505050508152602001600182018054600181600116156101000203166002900480601f016020809104026020016040519081016040528092919081815260200182805460018160011615610100020316600290048015610a3b5780601f10610a1057610100808354040283529160200191610a3b565b820191906000526020600020905b815481529060010190602001808311610a1e57829003601f168201915b505050505081525050815260200190600101906108f5565b50505090825250600382015460ff90811615156020830152600483015460408301526005830154161515606082015260069091015460809091015292915050565b606060008060006060600080610aa86124ba565b9550610ab5600a8961357a565b600454909550610ac690600a6135b3565b9350851580610ad457508585115b80610ade57508388115b15610ae857610e64565b60408051600a808252610160820190925290816020015b610b0761480c565b815260200190600190039081610aff579050509250600091508490505b600454811015610e605733600090815260036020819052604082208101546004805491939185908110610b5357fe5b6000918252602080832090910154600160a060020a03168352820192909252604001902060030154148015610bd05750600260036000600484815481101515610b9857fe5b6000918252602080832090910154600160a060020a0316835282019290925260400190206006015460ff166002811115610bce57fe5b145b15610e585760036000600483815481101515610be857fe5b600091825260208083209190910154600160a060020a0316835282810193909352604091820190208151610100808201845282548252600180840180548651600293821615909402600019011691909104601f81018790048702830187019095528482529194929385840193919291830182828015610ca85780601f10610c7d57610100808354040283529160200191610ca8565b820191906000526020600020905b815481529060010190602001808311610c8b57829003601f168201915b5050509183525050600282810180546040805160206001841615610100026000190190931694909404601f81018390048302850183019091528084529381019390830182828015610d3a5780601f10610d0f57610100808354040283529160200191610d3a565b820191906000526020600020905b815481529060010190602001808311610d1d57829003601f168201915b505050505081526020016003820154815260200160048201548152602001600582018054600181600116156101000203166002900480601f016020809104026020016040519081016040528092919081815260200182805460018160011615610100020316600290048015610df05780601f10610dc557610100808354040283529160200191610df0565b820191906000526020600020905b815481529060010190602001808311610dd357829003601f168201915b5050509183525050600682015460209091019060ff166002811115610e1157fe5b6002811115610e1c57fe5b8152600691909101546101009004600160a060020a03166020909101528351849084908110610e4757fe5b602090810290910101526001909101905b600101610b24565b8296505b505050505050919050565b610e7833611ce4565b1515610e8357600080fd5b60008781526001602052604081205411610eb25760405160e560020a62461bcd0281526004016104fd906159fb565b600087815260016020819052604090912001548614610ee65760405160e560020a62461bcd0281526004016104fd9061594b565b610ef5878787878787876135d6565b50505050505050565b610f0661485d565b606060006060600080600080610f1b89613bcf565b9750610f2688613c1d565b9650610f68610f4c886005815181101515610f3d57fe5b90602001906020020151613c1d565b80516001908110610f5957fe5b90602001906020020151613cf0565b9550600193505b6006548411611a835760008481526005602052604090206003015460ff1615158a1515148015610f9f5750838b14155b15611a7857600084815260056020526040812060020180549091908110610fc257fe5b906000526020600020906002020160010160405160200180828054600181600116156101000203166002900480156110315780601f1061100f576101008083540402835291820191611031565b820191906000526020600020905b81548152906001019060200180831161101d575b50509150506040516020818303038152906040526040518082805190602001908083835b602083106110745780518252601f199092019160209182019101611055565b6001836020036101000a0380198251168184511680821785525050505050509050019150506040518091039020600019166110d66110ba896000815181101515610f3d57fe5b805160019081106110c757fe5b90602001906020020151613d26565b6040516020018082805190602001908083835b602083106111085780518252601f1990920191602091820191016110e9565b6001836020036101000a0380198251168184511680821785525050505050509050019150506040516020818303038152906040526040518082805190602001908083835b6020831061116b5780518252601f19909201916020918201910161114c565b6001836020036101000a03801982511681845116808217855250505050505090500191505060405180910390206000191614801561138257506000848152600560205260409020600201805460019081106111c257fe5b906000526020600020906002020160010160405160200180828054600181600116156101000203166002900480156112315780601f1061120f576101008083540402835291820191611231565b820191906000526020600020905b81548152906001019060200180831161121d575b50509150506040516020818303038152906040526040518082805190602001908083835b602083106112745780518252601f199092019160209182019101611255565b6001836020036101000a0380198251168184511680821785525050505050509050019150506040518091039020600019166112ba6110ba896001815181101515610f3d57fe5b6040516020018082805190602001908083835b602083106112ec5780518252601f1990920191602091820191016112cd565b6001836020036101000a0380198251168184511680821785525050505050509050019150506040516020818303038152906040526040518082805190602001908083835b6020831061134f5780518252601f199092019160209182019101611330565b6001836020036101000a038019825116818451168082178552505050505050905001915050604051809103902060001916145b8015611569575060008481526005602052604090206002908101805490919081106113a957fe5b906000526020600020906002020160010160405160200180828054600181600116156101000203166002900480156114185780601f106113f6576101008083540402835291820191611418565b820191906000526020600020905b815481529060010190602001808311611404575b50509150506040516020818303038152906040526040518082805190602001908083835b6020831061145b5780518252601f19909201916020918201910161143c565b6001836020036101000a0380198251168184511680821785525050505050509050019150506040518091039020600019166114a16110ba896002815181101515610f3d57fe5b6040516020018082805190602001908083835b602083106114d35780518252601f1990920191602091820191016114b4565b6001836020036101000a0380198251168184511680821785525050505050509050019150506040516020818303038152906040526040518082805190602001908083835b602083106115365780518252601f199092019160209182019101611517565b6001836020036101000a038019825116818451168082178552505050505050905001915050604051809103902060001916145b801561174e575060008481526005602052604090206002018054600390811061158e57fe5b906000526020600020906002020160010160405160200180828054600181600116156101000203166002900480156115fd5780601f106115db5761010080835404028352918201916115fd565b820191906000526020600020905b8154815290600101906020018083116115e9575b50509150506040516020818303038152906040526040518082805190602001908083835b602083106116405780518252601f199092019160209182019101611621565b6001836020036101000a0380198251168184511680821785525050505050509050019150506040518091039020600019166116866110ba896003815181101515610f3d57fe5b6040516020018082805190602001908083835b602083106116b85780518252601f199092019160209182019101611699565b6001836020036101000a0380198251168184511680821785525050505050509050019150506040516020818303038152906040526040518082805190602001908083835b6020831061171b5780518252601f1990920191602091820191016116fc565b6001836020036101000a038019825116818451168082178552505050505050905001915050604051809103902060001916145b8015611933575060008481526005602052604090206002018054600490811061177357fe5b906000526020600020906002020160010160405160200180828054600181600116156101000203166002900480156117e25780601f106117c05761010080835404028352918201916117e2565b820191906000526020600020905b8154815290600101906020018083116117ce575b50509150506040516020818303038152906040526040518082805190602001908083835b602083106118255780518252601f199092019160209182019101611806565b6001836020036101000a03801982511681845116808217855250505050505090500191505060405180910390206000191661186b6110ba896004815181101515610f3d57fe5b6040516020018082805190602001908083835b6020831061189d5780518252601f19909201916020918201910161187e565b6001836020036101000a0380198251168184511680821785525050505050509050019150506040516020818303038152906040526040518082805190602001908083835b602083106119005780518252601f1990920191602091820191016118e1565b6001836020036101000a038019825116818451168082178552505050505050905001915050604051809103902060001916145b15611a785760008481526005602081905260408220600201805492955091811061195957fe5b90600052602060002090600202016001019150600090505b81546002600019610100600184161502019091160460ff8216101561199857600101611971565b606483870160ff161115611a0f5760008b81526005602081905260408083208201805460ff19166001179055868352909120015460ff1615156119f1576000848152600560205260409020600401546119f1908c613555565b600084815260056020819052604090912001805460ff191660011790555b60008b81526005602081905260408083208201805460ff19166001179055868352909120015460ff161515611a5a57600084815260056020526040902060040154611a5a908c613555565b600084815260056020819052604090912001805460ff191660011790555b600190930192610f6f565b5050505050505050505050565b611a9861480c565b600160a060020a0382166000908152600360209081526040918290208251610100808201855282548252600180840180548751600293821615909402600019011691909104601f8101869004860283018601909652858252919492938581019391929190830182828015611b4d5780601f10611b2257610100808354040283529160200191611b4d565b820191906000526020600020905b815481529060010190602001808311611b3057829003601f168201915b5050509183525050600282810180546040805160206001841615610100026000190190931694909404601f81018390048302850183019091528084529381019390830182828015611bdf5780601f10611bb457610100808354040283529160200191611bdf565b820191906000526020600020905b815481529060010190602001808311611bc257829003601f168201915b505050505081526020016003820154815260200160048201548152602001600582018054600181600116156101000203166002900480601f016020809104026020016040519081016040528092919081815260200182805460018160011615610100020316600290048015611c955780601f10611c6a57610100808354040283529160200191611c95565b820191906000526020600020905b815481529060010190602001808311611c7857829003601f168201915b5050509183525050600682015460209091019060ff166002811115611cb657fe5b6002811115611cc157fe5b8152600691909101546101009004600160a060020a031660209091015292915050565b6000611cf6818363ffffffff613d9816565b92915050565b6060806000611d0a33611ce4565b1515611d1557600080fd5b600454604080518281526020808402820101909152908015611d5157816020015b611d3e61480c565b815260200190600190039081611d365790505b509150600090505b600454811015611fe75760036000600483815481101515611d7657fe5b600091825260208083209190910154600160a060020a0316835282810193909352604091820190208151610100808201845282548252600180840180548651600293821615909402600019011691909104601f81018790048702830187019095528482529194929385840193919291830182828015611e365780601f10611e0b57610100808354040283529160200191611e36565b820191906000526020600020905b815481529060010190602001808311611e1957829003601f168201915b5050509183525050600282810180546040805160206001841615610100026000190190931694909404601f81018390048302850183019091528084529381019390830182828015611ec85780601f10611e9d57610100808354040283529160200191611ec8565b820191906000526020600020905b815481529060010190602001808311611eab57829003601f168201915b505050505081526020016003820154815260200160048201548152602001600582018054600181600116156101000203166002900480601f016020809104026020016040519081016040528092919081815260200182805460018160011615610100020316600290048015611f7e5780601f10611f5357610100808354040283529160200191611f7e565b820191906000526020600020905b815481529060010190602001808311611f6157829003601f168201915b5050509183525050600682015460209091019060ff166002811115611f9f57fe5b6002811115611faa57fe5b8152600691909101546101009004600160a060020a03166020909101528251839083908110611fd557fe5b60209081029091010152600101611d59565b50919050565b60065481565b606080600060028054905060405190808252806020026020018201604052801561203757816020015b612024614874565b81526020019060019003908161201c5790505b509150600090505b600254811015611fe7576001600060028381548110151561205c57fe5b9060005260206000200154815260200190815260200160002061014060405190810160405290816000820154815260200160018201548152602001600282018054600181600116156101000203166002900480601f01602080910402602001604051908101604052809291908181526020018280546001816001161561010002031660029004801561212f5780601f106121045761010080835404028352916020019161212f565b820191906000526020600020905b81548152906001019060200180831161211257829003601f168201915b505050918352505060038201805460408051602060026001851615610100026000190190941693909304601f81018490048402820184019092528181529382019392918301828280156121c35780601f10612198576101008083540402835291602001916121c3565b820191906000526020600020905b8154815290600101906020018083116121a657829003601f168201915b505050918352505060048201805460408051602060026001851615610100026000190190941693909304601f81018490048402820184019092528181529382019392918301828280156122575780601f1061222c57610100808354040283529160200191612257565b820191906000526020600020905b81548152906001019060200180831161223a57829003601f168201915b505050918352505060058201805460408051602060026001851615610100026000190190941693909304601f81018490048402820184019092528181529382019392918301828280156122eb5780601f106122c0576101008083540402835291602001916122eb565b820191906000526020600020905b8154815290600101906020018083116122ce57829003601f168201915b505050918352505060068201805460408051602060026001851615610100026000190190941693909304601f810184900484028201840190925281815293820193929183018282801561237f5780601f106123545761010080835404028352916020019161237f565b820191906000526020600020905b81548152906001019060200180831161236257829003601f168201915b50505050508152602001600782018054806020026020016040519081016040528092919081815260200182805480156123d757602002820191906000526020600020905b8154815260200190600101908083116123c3575b505050505081526020016008820180548060200260200160405190810160405280929190818152602001828054801561242f57602002820191906000526020600020905b81548152602001906001019080831161241b575b505050505081526020016009820180548060200260200160405190810160405280929190818152602001828054801561249157602002820191906000526020600020905b8154600160a060020a03168152600190910190602001808311612473575b50505050508152505082828151811015156124a857fe5b6020908102909101015260010161203f565b600080805b600454811015611fe757336000908152600360208190526040822081015460048054919391859081106124ee57fe5b6000918252602080832090910154600160a060020a0316835282019290925260400190206003015414801561256b575060026003600060048481548110151561253357fe5b6000918252602080832090910154600160a060020a0316835282019290925260400190206006015460ff16600281111561256957fe5b145b15612577576001909101905b6001016124bf565b60008115156125a35760405160e560020a62461bcd0281526004016104fd90615a4b565b600086116125c65760405160e560020a62461bcd0281526004016104fd90615a5b565b33600090815260036020526040902054156125f65760405160e560020a62461bcd0281526004016104fd9061597b565b6125ff826133c3565b15156126205760405160e560020a62461bcd0281526004016104fd906159fb565b61262986613dcf565b905061263e8686868585886001336000613fbe565b505050505050565b600061265133611ce4565b151561265c57600080fd5b506002545b90565b606060008060008060608060008061267d600a8b61357a565b9750612687613397565b9650612692876133ae565b955061269f86600a6135b3565b94508515806126b057506001860388115b806126ba5750848a115b156126c457612959565b6126cd87614412565b60408051600a8082526101608201909252919550816020015b6126ee6147ca565b8152602001906001900390816126e6579050509250600091508790505b835181101561295557600a8210156129485760056000858381518110151561272f57fe5b90602001906020020151815260200190815260200160002060e06040519081016040529081600082015481526020016001820154815260200160028201805480602002602001604051908101604052809291908181526020016000905b828210156128ea5760008481526020908190206040805160028681029093018054600181161561010002600019011693909304601f8101859004909402810160609081018352918101848152909384928491908401828280156128305780601f1061280557610100808354040283529160200191612830565b820191906000526020600020905b81548152906001019060200180831161281357829003601f168201915b50505050508152602001600182018054600181600116156101000203166002900480601f0160208091040260200160405190810160405280929190818152602001828054600181600116156101000203166002900480156128d25780601f106128a7576101008083540402835291602001916128d2565b820191906000526020600020905b8154815290600101906020018083116128b557829003601f168201915b5050505050815250508152602001906001019061278c565b50505090825250600382015460ff908116151560208301526004830154604083015260058301541615156060820152600690910154608090910152835184908490811061293357fe5b6020908102909101015260019091019061294d565b612955565b60010161270b565b8298505b5050505050505050919050565b60056020819052600091825260409091208054600182015460038301546004840154948401546006909401549294919360ff9182169391169086565b6129aa61480c565b6129b261480c565b336000908152600360209081526040918290208251610100808201855282548252600180840180548751600293821615909402600019011691909104601f8101869004860283018601909652858252919492938581019391929190830182828015611b4d5780601f10611b2257610100808354040283529160200191611b4d565b6060600080600060606000612a49600a8861357a565b600254909550612a5a90600a6135b3565b6002549094501580612a7157506002546000190185115b80612a7b57508387115b15612a8557612f44565b60408051600a80825261016082019092526000945090816020015b612aa8614874565b815260200190600190039081612aa05790505091508490505b600254811015612f405760016000600283815481101515612ade57fe5b9060005260206000200154815260200190815260200160002061014060405190810160405290816000820154815260200160018201548152602001600282018054600181600116156101000203166002900480601f016020809104026020016040519081016040528092919081815260200182805460018160011615610100020316600290048015612bb15780601f10612b8657610100808354040283529160200191612bb1565b820191906000526020600020905b815481529060010190602001808311612b9457829003601f168201915b505050918352505060038201805460408051602060026001851615610100026000190190941693909304601f8101849004840282018401909252818152938201939291830182828015612c455780601f10612c1a57610100808354040283529160200191612c45565b820191906000526020600020905b815481529060010190602001808311612c2857829003601f168201915b505050918352505060048201805460408051602060026001851615610100026000190190941693909304601f8101849004840282018401909252818152938201939291830182828015612cd95780601f10612cae57610100808354040283529160200191612cd9565b820191906000526020600020905b815481529060010190602001808311612cbc57829003601f168201915b505050918352505060058201805460408051602060026001851615610100026000190190941693909304601f8101849004840282018401909252818152938201939291830182828015612d6d5780601f10612d4257610100808354040283529160200191612d6d565b820191906000526020600020905b815481529060010190602001808311612d5057829003601f168201915b505050918352505060068201805460408051602060026001851615610100026000190190941693909304601f8101849004840282018401909252818152938201939291830182828015612e015780601f10612dd657610100808354040283529160200191612e01565b820191906000526020600020905b815481529060010190602001808311612de457829003601f168201915b5050505050815260200160078201805480602002602001604051908101604052809291908181526020018280548015612e5957602002820191906000526020600020905b815481526020019060010190808311612e45575b5050505050815260200160088201805480602002602001604051908101604052809291908181526020018280548015612eb157602002820191906000526020600020905b815481526020019060010190808311612e9d575b5050505050815260200160098201805480602002602001604051908101604052809291908181526020018280548015612f1357602002820191906000526020600020905b8154600160a060020a03168152600190910190602001808311612ef5575b5050505050815250508284815181101515612f2a57fe5b6020908102909101015260019283019201612ac1565b8195505b5050505050919050565b60016006541115612f7a57600083815260056020526040902060030154612f7a90849060ff1684610efe565b60008381526005602081905260409091208054600382015460048301549290930154612fb1938793879260ff9283169216876133d6565b505050565b612fbf336144a7565b565b612fca33611ce4565b1515612fd557600080fd5b610651816144ef565b600080612fea33611ce4565b1515612ff557600080fd5b600088116130185760405160e560020a62461bcd0281526004016104fd90615a5b565b61302188613dcf565b600081815260016020526040902054909150156130535760405160e560020a62461bcd0281526004016104fd906159eb565b613062818989898989896135d6565b979650505050505050565b600160a060020a038181166000908152600360205260408120600601549091829182916101009091041681106130b85760405160e560020a62461bcd0281526004016104fd9061598b565b6002600160a060020a03851660009081526003602052604090206006015460ff1660028111156130e457fe5b146131045760405160e560020a62461bcd0281526004016104fd90615a2b565b600160a060020a03841660009081526003602052604090206004810154815460069092015490945090925060ff16600281111561313d57fe5b905061315182898989878a878b6001613fbe565b5050505050505050565b61316433611ce4565b151561316f57600080fd5b600160a060020a03811660009081526003602081905260409091200154613196908261322f565b604080518082018252600b81527f53757065722061646d696e0000000000000000000000000000000000000000006020808301918252600160a060020a038516600090815260039091529290922090516131f692600590920191906148c8565b50600160a060020a0381166000908152600360208190526040822090810191909155600601805460ff1916600217905561065181612fc1565b6000805b6000848152600160205260409020600901546000190181101561332f5760008481526001602052604090206009018054600160a060020a03851691908390811061327957fe5b600091825260209091200154600160a060020a0316141561329957600191505b81156133275760008481526001602081905260409091206009018054909183019081106132c257fe5b6000918252602080832090910154868352600190915260409091206009018054600160a060020a0390921691839081106132f857fe5b9060005260206000200160006101000a815481600160a060020a030219169083600160a060020a031602179055505b600101613233565b60008481526001602052604090206009018054600019810190811061335057fe5b60009182526020808320909101805473ffffffffffffffffffffffffffffffffffffffff19169055858252600190526040902060090180549061072a906000198301614942565b336000908152600360208190526040909120015490565b60009081526001602052604090206008015490565b6000908152600160205260408120541190565b6133de61485d565b6060600060606133ed89613bcf565b93506133f884613c1d565b60008c8152600560205260408120600181018e90558c815560038101805460ff19168c15151790559194506134309160020190614966565b600091505b82518210156134f75761344f8383815181101515610f3d57fe5b9050600560008c815260200190815260200160002060020160408051908101604052806134848460008151811015156110c757fe5b815260200161349b8460018151811015156110c757fe5b905281546001810180845560009384526020938490208351805192956002909402909101926134cf928492909101906148c8565b5060208281015180516134e892600185019201906148c8565b50505050816001019150613435565b505050600097885250600560208190526040909720600481019390935560068301559401805460ff191694151594909417909355505050565b6000918252600160208181526040842060080180549283018155845290922090910155565b6000918252600160208181526040842060070180549283018155845290922090910155565b60008083151561358d57600091506135ac565b5082820282848281151561359d57fe5b04146135a857600080fd5b8091505b5092915050565b6000808083116135c257600080fd5b82848115156135cd57fe5b04949350505050565b6135de614874565b855115156136015760405160e560020a62461bcd0281526004016104fd90615a3b565b825115156136245760405160e560020a62461bcd0281526004016104fd90615a1b565b815115156136475760405160e560020a62461bcd0281526004016104fd90615a0b565b6000888152600160208181526040928390208351610140810185528154815281840154818401526002808301805487519681161561010002600019011691909104601f8101859004850286018501875280865291959294928601939091908301828280156136f65780601f106136cb576101008083540402835291602001916136f6565b820191906000526020600020905b8154815290600101906020018083116136d957829003601f168201915b505050918352505060038201805460408051602060026001851615610100026000190190941693909304601f810184900484028201840190925281815293820193929183018282801561378a5780601f1061375f5761010080835404028352916020019161378a565b820191906000526020600020905b81548152906001019060200180831161376d57829003601f168201915b505050918352505060048201805460408051602060026001851615610100026000190190941693909304601f810184900484028201840190925281815293820193929183018282801561381e5780601f106137f35761010080835404028352916020019161381e565b820191906000526020600020905b81548152906001019060200180831161380157829003601f168201915b505050918352505060058201805460408051602060026001851615610100026000190190941693909304601f81018490048402820184019092528181529382019392918301828280156138b25780601f10613887576101008083540402835291602001916138b2565b820191906000526020600020905b81548152906001019060200180831161389557829003601f168201915b505050918352505060068201805460408051602060026001851615610100026000190190941693909304601f81018490048402820184019092528181529382019392918301828280156139465780601f1061391b57610100808354040283529160200191613946565b820191906000526020600020905b81548152906001019060200180831161392957829003601f168201915b505050505081526020016007820180548060200260200160405190810160405280929190818152602001828054801561399e57602002820191906000526020600020905b81548152602001906001019080831161398a575b50505050508152602001600882018054806020026020016040519081016040528092919081815260200182805480156139f657602002820191906000526020600020905b8154815260200190600101908083116139e2575b5050505050815260200160098201805480602002602001604051908101604052809291908181526020018280548015613a5857602002820191906000526020600020905b8154600160a060020a03168152600190910190602001808311613a3a575b50505091909252505050888152602080820189815260408084018a8152606085018a90526080850189905260a0850188905260c0850187905260008d815260018086529290208551815592519183019190915551805193945084939192613ac7926002850192909101906148c8565b5060608201518051613ae39160038401916020909101906148c8565b5060808201518051613aff9160048401916020909101906148c8565b5060a08201518051613b1b9160058401916020909101906148c8565b5060c08201518051613b379160068401916020909101906148c8565b5060e08201518051613b53916007840191602090910190614987565b506101008201518051613b70916008840191602090910190614987565b506101208201518051613b8d9160098401916020909101906149c1565b5050600280546001810182556000919091527f405787fa12a823e0f2b7631cc41b3ba8828b3321ca811111fa75cd3aa3bb5ace01989098555050505050505050565b613bd761485d565b6000825160001415613bfe5760408051808201909152600080825260208201529150611fe7565b5050604080518082019091528151815260209182019181019190915290565b6060600080600080613c2e86614537565b1515613c3957600080fd5b613c4286614566565b935083604051908082528060200260200182016040528015613c7e57816020015b613c6b61485d565b815260200190600190039081613c635790505b509450613c8e86602001516145b6565b8660200151019250600090505b83811015613ce757613cac83614619565b91506040805190810160405280838152602001848152508582815181101515613cd157fe5b6020908102909101015291810191600101613c9b565b50505050919050565b6000806000806000613d0586602001516145b6565b86516020978801518201519190039096036101000a90950495945050505050565b606060008060606000613d3c86602001516145b6565b9350838660000151039250826040519080825280601f01601f191660200182016040528015613d75578160200160208202803883390190505b509150816020019050613d8f8487602001510182856146aa565b50949350505050565b6000600160a060020a0382161515613daf57600080fd5b50600160a060020a03166000908152602091909152604090205460ff1690565b6000808080600285061515613e615784604051602001808281526020019150506040516020818303038152906040526040518082805190602001908083835b60208310613e2d5780518252601f199092019160209182019101613e0e565b6001836020036101000a03801982511681845116808217855250505050505090500191505060405180910390209250613f4c565b84604051602001808281526020019150506040516020818303038152906040526040518082805190602001908083835b60208310613eb05780518252601f199092019160209182019101613e91565b51815160209384036101000a600019018019909216911617905260408051929094018290038220828201528351808303820181529184019384905281519195509293508392850191508083835b60208310613f1c5780518252601f199092019160209182019101613efd565b6001836020036101000a038019825116818451168082178552505050505050905001915050604051809103902092505b6020811015613f7957828160208110613f6157fe5b60f860020a91901a8102049190910190600101613f4c565b826020600284010660208110613f8b57fe5b60f860020a91901a810204836020840660208110613fa557fe5b1a60f860020a0260f860020a9004029350505050919050565b613fc661480c565b600084101580613fd7575060028411155b1515613ff85760405160e560020a62461bcd0281526004016104fd906159bb565b8451151561401b5760405160e560020a62461bcd0281526004016104fd9061595b565b600160a060020a0383166000908152600360209081526040918290208251610100808201855282548252600180840180548751600293821615909402600019011691909104601f81018690048602830186019096528582529194929385810193919291908301828280156140d05780601f106140a5576101008083540402835291602001916140d0565b820191906000526020600020905b8154815290600101906020018083116140b357829003601f168201915b5050509183525050600282810180546040805160206001841615610100026000190190931694909404601f810183900483028501830190915280845293810193908301828280156141625780601f1061413757610100808354040283529160200191614162565b820191906000526020600020905b81548152906001019060200180831161414557829003601f168201915b505050505081526020016003820154815260200160048201548152602001600582018054600181600116156101000203166002900480601f0160208091040260200160405190810160405280929190818152602001828054600181600116156101000203166002900480156142185780601f106141ed57610100808354040283529160200191614218565b820191906000526020600020905b8154815290600101906020018083116141fb57829003601f168201915b5050509183525050600682015460209091019060ff16600281111561423957fe5b600281111561424457fe5b8152600691909101546101009004600160a060020a03166020918201528b825281018a905260408101899052606081018890526080810187905260a08101869052905083600281111561429357fe5b8160c0019060028111156142a357fe5b908160028111156142b057fe5b905250600160a060020a03831660e0820181905260009081526003602090815260409091208251815581830151805184936142f29260018501929101906148c8565b506040820151805161430e9160028401916020909101906148c8565b50606082015160038201556080820151600482015560a0820151805161433e9160058401916020909101906148c8565b5060c082015160068201805460ff1916600183600281111561435c57fe5b021790555060e0919091015160069091018054600160a060020a039092166101000274ffffffffffffffffffffffffffffffffffffffff001990921691909117905581151561440657600480546001810182556000919091527f8a35acfbc15ff81a39ae7d344fd709f28e8600b4aa8c65c6b64bfe7fe36bd19b01805473ffffffffffffffffffffffffffffffffffffffff1916600160a060020a038516179055614406876146f1565b50505050505050505050565b600081815260016020526040812054606091106144445760405160e560020a62461bcd0281526004016104fd906159cb565b6000828152600160209081526040918290206008018054835181840281018401909452808452909183018282801561449b57602002820191906000526020600020905b815481526020019060010190808311614487575b50505050509050919050565b6144b860008263ffffffff61473016565b604051600160a060020a038216907f3525e22824a8a7df2c9a6029941c824cf95b6447f1e13d5128fd3826d35afe8b90600090a250565b61450060008263ffffffff61477c16565b604051600160a060020a038216907f47d1c22a25bb3a5d4e481b9b1e6944c2eade3181a0a20b495ed61d35b5323f2490600090a250565b6020810151805160009190821a9060c060ff8316101561455a576000925061455f565b600192505b5050919050565b6000806000806000925061457d85602001516145b6565b6020860151865191810193500190505b808210156145ad5761459e82614619565b6001909301929091019061458d565b50909392505050565b8051600090811a60808110156145cf5760009150611fe7565b60b88110806145ea575060c081108015906145ea575060f881105b156145f85760019150611fe7565b60c081101561460d5760b51981019150611fe7565b60f51981019150611fe7565b8051600090811a60808110156146325760019150611fe7565b60b881101561464757607e1981019150611fe7565b60c08110156146745760b78103600184019350806020036101000a84510460018201810193505050611fe7565b60f88110156146895760be1981019150611fe7565b60019290920151602083900360f7016101000a900490910160f51901919050565b60005b602082106146cf578351835260209384019390920191601f19909101906146ad565b50915181516020939093036101000a6000190180199091169216919091179052565b6000908152600160208181526040832060090180549283018155835290912001805473ffffffffffffffffffffffffffffffffffffffff191633179055565b600160a060020a038116151561474557600080fd5b61474f8282613d98565b151561475a57600080fd5b600160a060020a0316600090815260209190915260409020805460ff19169055565b600160a060020a038116151561479157600080fd5b61479b8282613d98565b156147a557600080fd5b600160a060020a0316600090815260209190915260409020805460ff19166001179055565b60e06040519081016040528060008152602001600081526020016060815260200160001515815260200160008152602001600015158152602001600081525090565b610100604051908101604052806000815260200160608152602001606081526020016000815260200160008152602001606081526020016000600281111561485057fe5b8152600060209091015290565b604080518082019091526000808252602082015290565b61014060405190810160405280600081526020016000815260200160608152602001606081526020016060815260200160608152602001606081526020016060815260200160608152602001606081525090565b828054600181600116156101000203166002900490600052602060002090601f016020900481019282601f1061490957805160ff1916838001178555614936565b82800160010185558215614936579182015b8281111561493657825182559160200191906001019061491b565b5061066d929150614a2f565b815481835581811115612fb157600083815260209020612fb1918101908301614a2f565b50805460008255600202906000526020600020908101906106519190614a49565b828054828255906000526020600020908101928215614936579160200282018281111561493657825182559160200191906001019061491b565b828054828255906000526020600020908101928215614a23579160200282015b82811115614a23578251825473ffffffffffffffffffffffffffffffffffffffff1916600160a060020a039091161782556020909201916001909101906149e1565b5061066d929150614a7a565b61266191905b8082111561066d5760008155600101614a35565b61266191905b8082111561066d576000614a638282614aab565b614a71600183016000614aab565b50600201614a4f565b61266191905b8082111561066d57805473ffffffffffffffffffffffffffffffffffffffff19168155600101614a80565b50805460018160011615610100020316600290046000825580601f10614ad15750610651565b601f0160209004906000526020600020908101906106519190614a2f565b6000614afb8235615b43565b9392505050565b6000614afb8235615b4f565b6000601f82018313614b1f57600080fd5b8135614b32614b2d82615b11565b615aea565b91508082526020830160208301858383011115614b4e57600080fd5b614b59838284615b6b565b50505092915050565b6000614afb8235612661565b600060208284031215614b8057600080fd5b6000614b8c8484614aef565b949350505050565b600080600080600060a08688031215614bac57600080fd5b853567ffffffffffffffff811115614bc357600080fd5b614bcf88828901614b0e565b955050602086013567ffffffffffffffff811115614bec57600080fd5b614bf888828901614b0e565b9450506040614c0988828901614b62565b935050606086013567ffffffffffffffff811115614c2657600080fd5b614c3288828901614b0e565b9250506080614c4388828901614aef565b9150509295509295909350565b600060208284031215614c6257600080fd5b6000614b8c8484614b62565b600080600060608486031215614c8357600080fd5b6000614c8f8686614b62565b9350506020614ca086828701614b02565b925050604084013567ffffffffffffffff811115614cbd57600080fd5b614cc986828701614b0e565b9150509250925092565b60008060008060808587031215614ce957600080fd5b6000614cf58787614b62565b945050602085013567ffffffffffffffff811115614d1257600080fd5b614d1e87828801614b0e565b9350506040614d2f87828801614b02565b9250506060614d4087828801614b62565b91505092959194509250565b600080600060608486031215614d6157600080fd5b6000614d6d8686614b62565b935050602084013567ffffffffffffffff811115614d8a57600080fd5b614d9686828701614b0e565b9250506040614cc986828701614b62565b60008060008060008060c08789031215614dc057600080fd5b6000614dcc8989614b62565b965050602087013567ffffffffffffffff811115614de957600080fd5b614df589828a01614b0e565b955050604087013567ffffffffffffffff811115614e1257600080fd5b614e1e89828a01614b0e565b945050606087013567ffffffffffffffff811115614e3b57600080fd5b614e4789828a01614b0e565b935050608087013567ffffffffffffffff811115614e6457600080fd5b614e7089828a01614b0e565b92505060a087013567ffffffffffffffff811115614e8d57600080fd5b614e9989828a01614b0e565b9150509295509295509295565b600080600080600060a08688031215614ebe57600080fd5b6000614eca8888614b62565b955050602086013567ffffffffffffffff811115614ee757600080fd5b614ef388828901614b0e565b945050604086013567ffffffffffffffff811115614f1057600080fd5b614f1c88828901614b0e565b935050606086013567ffffffffffffffff811115614f3957600080fd5b614f4588828901614b0e565b9250506080614c4388828901614b62565b600080600080600080600060e0888a031215614f7157600080fd5b6000614f7d8a8a614b62565b9750506020614f8e8a828b01614b62565b965050604088013567ffffffffffffffff811115614fab57600080fd5b614fb78a828b01614b0e565b955050606088013567ffffffffffffffff811115614fd457600080fd5b614fe08a828b01614b0e565b945050608088013567ffffffffffffffff811115614ffd57600080fd5b6150098a828b01614b0e565b93505060a088013567ffffffffffffffff81111561502657600080fd5b6150328a828b01614b0e565b92505060c088013567ffffffffffffffff81111561504f57600080fd5b61505b8a828b01614b0e565b91505092959891949750929550565b61507381615b43565b82525050565b600061508482615b3f565b80845260208401935061509683615b39565b60005b828110156150c6576150ac86835161506a565b6150b582615b39565b602096909601959150600101615099565b5093949350505050565b60006150db82615b3f565b808452602084019350836020820285016150f485615b39565b60005b8481101561512b57838303885261510f838351615688565b925061511a82615b39565b6020989098019791506001016150f7565b50909695505050505050565b600061514282615b3f565b8084526020840193508360208202850161515b85615b39565b60005b8481101561512b57838303885261517683835161571d565b925061518182615b39565b60209890980197915060010161515e565b600061519d82615b3f565b808452602084019350836020820285016151b685615b39565b60005b8481101561512b5783830388526151d1838351615820565b92506151dc82615b39565b6020989098019791506001016151b9565b60006151f882615b3f565b8084526020840193508360208202850161521185615b39565b60005b8481101561512b57838303885261522c838351615852565b925061523782615b39565b602098909801979150600101615214565b600061525382615b3f565b80845260208401935061526583615b39565b60005b828110156150c65761527b868351615901565b61528482615b39565b602096909601959150600101615268565b61507381615b4f565b61507381615b60565b60006152b282615b3f565b8084526152c6816020860160208601615b77565b6152cf81615ba7565b9093016020019392505050565b601a81527f4372656174696f6e204461746520697320696e6d757461626c65000000000000602082015260400190565b601181527f726f6c65206973206d616e6461746f7279000000000000000000000000000000602082015260400190565b602281527f4f6e6c792070656e64696e672075736572732063616e2062652061636365707460208201527f6564000000000000000000000000000000000000000000000000000000000000604082015260600190565b601381527f5573657220616c72656164792065786973747300000000000000000000000000602082015260400190565b601481527f546869732075736572206e6f7420657869737473000000000000000000000000602082015260400190565b601b81527f596f752063616e6e6f7420616363657074207468697320757365720000000000602082015260400190565b602281527f4f6e6c792070656e64696e672075736572732063616e2062652072656a65637460208201527f6564000000000000000000000000000000000000000000000000000000000000604082015260600190565b601381527f737461747573206973206e6f742076616c696400000000000000000000000000602082015260400190565b601181527f6d656d626572206e6f7420657869737473000000000000000000000000000000602082015260400190565b601481527f4d656d62657220646f206e6f7420657869737473000000000000000000000000602082015260400190565b601581527f4d656d62657220616c7265616479206578697374730000000000000000000000602082015260400190565b601181527f4d656d626572206e6f7420657869737473000000000000000000000000000000602082015260400190565b601281527f5468656d65206973206d616e6461746f72790000000000000000000000000000602082015260400190565b601081527f434d4f206973206d616e6461746f727900000000000000000000000000000000602082015260400190565b601481527f596f7520617265206e6f74206163636570746564000000000000000000000000602082015260400190565b601181527f4e616d65206973206d616e6461746f7279000000000000000000000000000000602082015260400190565b601181527f4e6f2076616c6964206d656d6265724964000000000000000000000000000000602082015260400190565b601981527f4372656174696f6e44617465206973206d616e6461746f727900000000000000602082015260400190565b805160009060e084019061569c8582615901565b5060208301516156af6020860182615901565b50604083015184820360408601526156c78282615192565b91505060608301516156dc6060860182615295565b5060808301516156ef6080860182615901565b5060a083015161570260a0860182615295565b5060c083015161571560c0860182615901565b509392505050565b80516000906101408401906157328582615901565b5060208301516157456020860182615901565b506040830151848203604086015261575d82826152a7565b9150506060830151848203606086015261577782826152a7565b9150506080830151848203608086015261579182826152a7565b91505060a083015184820360a08601526157ab82826152a7565b91505060c083015184820360c08601526157c582826152a7565b91505060e083015184820360e08601526157df8282615248565b9150506101008301518482036101008601526157fb8282615248565b9150506101208301518482036101208601526158178282615079565b95945050505050565b805160408084526000919084019061583882826152a7565b9150506020830151848203602086015261581782826152a7565b80516000906101008401906158678582615901565b506020830151848203602086015261587f82826152a7565b9150506040830151848203604086015261589982826152a7565b91505060608301516158ae6060860182615901565b5060808301516158c16080860182615901565b5060a083015184820360a08601526158d982826152a7565b91505060c08301516158ee60c086018261529e565b5060e083015161571560e086018261506a565b61507381612661565b60208082528101614afb81846150d0565b60208082528101614afb8184615137565b60208082528101614afb81846151ed565b60208101611cf68284615295565b60208082528101611cf6816152dc565b60208082528101611cf68161530c565b60208082528101611cf68161533c565b60208082528101611cf681615392565b60208082528101611cf6816153c2565b60208082528101611cf6816153f2565b60208082528101611cf681615422565b60208082528101611cf681615478565b60208082528101611cf6816154a8565b60208082528101611cf6816154d8565b60208082528101611cf681615508565b60208082528101611cf681615538565b60208082528101611cf681615568565b60208082528101611cf681615598565b60208082528101611cf6816155c8565b60208082528101611cf6816155f8565b60208082528101611cf681615628565b60208082528101611cf681615658565b60208082528101614afb8184615688565b60208082528101614afb8184615852565b60208101611cf68284615901565b60c08101615aa98289615901565b615ab66020830188615901565b615ac36040830187615295565b615ad06060830186615901565b615add6080830185615295565b61306260a0830184615901565b60405181810167ffffffffffffffff81118282101715615b0957600080fd5b604052919050565b600067ffffffffffffffff821115615b2857600080fd5b506020601f91909101601f19160190565b60200190565b5190565b600160a060020a031690565b151590565b60006003821061066d57fe5b6000611cf682615b54565b82818337506000910152565b60005b83811015615b92578181015183820152602001615b7a565b83811115615ba1576000848401525b50505050565b601f01601f1916905600a265627a7a72305820b930e40dd37f14ac5a4577b6366745576b18aef3fb42daab00f1f5787259b7986c6578706572696d656e74616cf50037",
  "source": "pragma solidity ^0.4.24;\npragma experimental ABIEncoderV2;\n\nimport \"../../node_modules/solidity-rlp/contracts/RLPReader.sol\";\nimport \"./Users.sol\";\nimport \"./Lib.sol\";\n\ncontract Claims is Users, Lib {\n\n  using RLPReader for bytes;\n  using RLPReader for uint;\n  using RLPReader for RLPReader.RLPItem;\n\n  uint256 constant private PAGE_SIZE = 10;\n\n  function registerClaim(uint256 _creationDate, bytes _claimData, bool _claimType, uint _memberOwner) public {\n\n    require(_creationDate > 0, \"CreationDate is mandatory\");\n    //    require(_claimType || !_claimType, \"Incorrect Claim Type\");\n\n    uint256 _claimId = ++claimIdCounter_;\n    //    uint256 _claimId = Random.rand(_creationDate);\n\n    //    require(claims_[_claimId].claimId == 0, \"Claim already exists\");\n    require(_memberExists(_memberOwner), \"Member do not exists\");\n\n    //    uint256\n    _memberOwner = _memberIdFromCurrentAddress();\n\n    _saveClaim(_claimId, _creationDate, _claimData, _claimType, _memberOwner, false, _creationDate);\n    _addClaimIdToMemberOwner(_memberOwner, _claimId);\n\n    if (claimIdCounter_ > 1) {\n      checkClaimStatus(_claimId, _claimType, _claimData);\n    }\n\n    if (claims_[_claimId].status) {       // if status == true, which means there IS a CONFLICT\n      // addClaimFromInbox for every relevant member\n      _addClaimFromInbox(_memberOwner, _claimId);\n    }\n\n  }\n  //\n  function updateClaim(uint256 _claimId, bytes _claimData, uint _lastChange) public {\n    //    require(claims_[_claimId].claimId > 0, \"Claim not exists\");\n\n    if (claimIdCounter_ > 1) {\n      checkClaimStatus(_claimId, claims_[_claimId].claimType, _claimData);\n    }\n    _saveClaim(_claimId, claims_[_claimId].creationDate, _claimData, claims_[_claimId].claimType,\n      claims_[_claimId].memberOwner, claims_[_claimId].status, _lastChange);\n  }\n\n  function getClaim(uint256 _claimId) view public returns (Claim) {\n    return claims_[_claimId];\n  }\n\n  function getClaimsByMemberId(uint _page) view public returns (Claim[] memory) {\n    uint256 pageIndex = SafeMath.mul(PAGE_SIZE, _page);\n    uint256 _memberId = _memberIdFromCurrentAddress();\n    uint count = _getClaimsCountByMember(_memberId);\n    uint256 pageNumber = SafeMath.div(count, PAGE_SIZE);\n\n    if (count == 0 || pageIndex > count - 1 || _page > pageNumber) {\n      return;\n    }\n\n    uint256[] memory claimsId = _getClaimsIdByMember(_memberId);\n\n    Claim[] memory _claims = new Claim[](PAGE_SIZE);\n    uint256 returnCounter = 0;\n    for (uint i = pageIndex; i < claimsId.length; ++i) {\n      if(returnCounter < PAGE_SIZE) {\n        _claims[returnCounter] = claims_[claimsId[i]];\n        ++returnCounter;\n      } else {\n        break;\n      }\n    }\n    return _claims;\n  }\n\n  function getClaimsCountByMemberId() view public returns (uint) {\n    uint256 _memberId = _memberIdFromCurrentAddress();\n    return _getClaimsCountByMember(_memberId);\n  }\n\n  // Private\n  function _saveClaim(uint256 _claimId, uint256 _creationDate, bytes _claimData, bool _claimType,\n    uint _memberOwner, bool _status, uint256 _lastChange) internal {\n\n    RLPReader.RLPItem memory item = _claimData.toRlpItem();\n    RLPReader.RLPItem[] memory itemList = item.toList(); // ((name, value), (name, value), (name, value), ...)\n\n    claims_[_claimId].claimId = _claimId;\n    claims_[_claimId].creationDate = _creationDate;\n    claims_[_claimId].claimType = _claimType;\n\n    delete claims_[_claimId].claimData;\n    for(uint i = 0; i < itemList.length; ++i) {\n      RLPReader.RLPItem[] memory itemListClaim = itemList[i].toList(); // (name, value)\n      claims_[_claimId].claimData.push(NameValue(string(itemListClaim[0].toBytes()), string(itemListClaim[1].toBytes())));\n    }\n\n    claims_[_claimId].memberOwner = _memberOwner;\n    //    claims_[_claimId].memberReceptor = _memberReceptor;\n    claims_[_claimId].lastChange = _lastChange;\n    //    claims_[_claimId].messageLog = _messageLog; // string[] memory\n    claims_[_claimId].status = _status;\n  }\n\n}\n",
  "sourcePath": "/home/komodo/newUI/bloomen-decentralized-rights-management-v2/truffle/contracts/registry/Claims.sol",
  "compiler": {
    "name": "solc",
    "version": "0.4.24+commit.e67f0147.Emscripten.clang"
  },
  "schemaVersion": "2.0.1",
  "updatedAt": "2019-11-12T11:55:54.635Z"
}