{
  "contractName": "Claims",
  "abi": [
    {
      "constant": false,
      "inputs": [
        {
          "name": "_userToAccept",
          "type": "address"
        }
      ],
      "name": "acceptUser",
      "outputs": [],
      "payable": false,
      "stateMutability": "nonpayable",
      "type": "function"
    },
    {
      "constant": false,
      "inputs": [
        {
          "name": "_userToReject",
          "type": "address"
        }
      ],
      "name": "rejectUser",
      "outputs": [],
      "payable": false,
      "stateMutability": "nonpayable",
      "type": "function"
    },
    {
      "constant": true,
      "inputs": [
        {
          "name": "_page",
          "type": "uint256"
        }
      ],
      "name": "getUsers",
      "outputs": [
        {
          "components": [
            {
              "name": "creationDate",
              "type": "uint256"
            },
            {
              "name": "firstName",
              "type": "string"
            },
            {
              "name": "lastName",
              "type": "string"
            },
            {
              "name": "memberId",
              "type": "uint256"
            },
            {
              "name": "requestId",
              "type": "uint256"
            },
            {
              "name": "role",
              "type": "string"
            },
            {
              "name": "status",
              "type": "uint8"
            },
            {
              "name": "owner",
              "type": "address"
            }
          ],
          "name": "",
          "type": "tuple[]"
        }
      ],
      "payable": false,
      "stateMutability": "view",
      "type": "function"
    },
    {
      "constant": false,
      "inputs": [
        {
          "name": "_memberId",
          "type": "uint256"
        },
        {
          "name": "_creationDate",
          "type": "uint256"
        },
        {
          "name": "_name",
          "type": "string"
        },
        {
          "name": "_logo",
          "type": "string"
        },
        {
          "name": "_country",
          "type": "string"
        },
        {
          "name": "_cmo",
          "type": "string"
        },
        {
          "name": "_theme",
          "type": "string"
        }
      ],
      "name": "updateMember",
      "outputs": [],
      "payable": false,
      "stateMutability": "nonpayable",
      "type": "function"
    },
    {
      "constant": true,
      "inputs": [
        {
          "name": "userAddress",
          "type": "address"
        }
      ],
      "name": "getUserByAddress",
      "outputs": [
        {
          "components": [
            {
              "name": "creationDate",
              "type": "uint256"
            },
            {
              "name": "firstName",
              "type": "string"
            },
            {
              "name": "lastName",
              "type": "string"
            },
            {
              "name": "memberId",
              "type": "uint256"
            },
            {
              "name": "requestId",
              "type": "uint256"
            },
            {
              "name": "role",
              "type": "string"
            },
            {
              "name": "status",
              "type": "uint8"
            },
            {
              "name": "owner",
              "type": "address"
            }
          ],
          "name": "",
          "type": "tuple"
        }
      ],
      "payable": false,
      "stateMutability": "view",
      "type": "function"
    },
    {
      "constant": true,
      "inputs": [
        {
          "name": "account",
          "type": "address"
        }
      ],
      "name": "isSigner",
      "outputs": [
        {
          "name": "",
          "type": "bool"
        }
      ],
      "payable": false,
      "stateMutability": "view",
      "type": "function"
    },
    {
      "constant": true,
      "inputs": [],
      "name": "getUsersOwner",
      "outputs": [
        {
          "components": [
            {
              "name": "creationDate",
              "type": "uint256"
            },
            {
              "name": "firstName",
              "type": "string"
            },
            {
              "name": "lastName",
              "type": "string"
            },
            {
              "name": "memberId",
              "type": "uint256"
            },
            {
              "name": "requestId",
              "type": "uint256"
            },
            {
              "name": "role",
              "type": "string"
            },
            {
              "name": "status",
              "type": "uint8"
            },
            {
              "name": "owner",
              "type": "address"
            }
          ],
          "name": "",
          "type": "tuple[]"
        }
      ],
      "payable": false,
      "stateMutability": "view",
      "type": "function"
    },
    {
      "constant": true,
      "inputs": [],
      "name": "getMembers",
      "outputs": [
        {
          "components": [
            {
              "name": "memberId",
              "type": "uint256"
            },
            {
              "name": "creationDate",
              "type": "uint256"
            },
            {
              "name": "name",
              "type": "string"
            },
            {
              "name": "logo",
              "type": "string"
            },
            {
              "name": "country",
              "type": "string"
            },
            {
              "name": "cmo",
              "type": "string"
            },
            {
              "name": "theme",
              "type": "string"
            },
            {
              "name": "claimInbox",
              "type": "uint256[]"
            },
            {
              "name": "claims",
              "type": "uint256[]"
            },
            {
              "name": "userRequests",
              "type": "address[]"
            }
          ],
          "name": "",
          "type": "tuple[]"
        }
      ],
      "payable": false,
      "stateMutability": "view",
      "type": "function"
    },
    {
      "constant": true,
      "inputs": [],
      "name": "getcountUsers",
      "outputs": [
        {
          "name": "",
          "type": "uint256"
        }
      ],
      "payable": false,
      "stateMutability": "view",
      "type": "function"
    },
    {
      "constant": false,
      "inputs": [
        {
          "name": "_creationDate",
          "type": "uint256"
        },
        {
          "name": "_firstName",
          "type": "string"
        },
        {
          "name": "_lastName",
          "type": "string"
        },
        {
          "name": "_role",
          "type": "string"
        },
        {
          "name": "_memberId",
          "type": "uint256"
        }
      ],
      "name": "registerUserRequest",
      "outputs": [],
      "payable": false,
      "stateMutability": "nonpayable",
      "type": "function"
    },
    {
      "constant": true,
      "inputs": [],
      "name": "getCount",
      "outputs": [
        {
          "name": "",
          "type": "uint256"
        }
      ],
      "payable": false,
      "stateMutability": "view",
      "type": "function"
    },
    {
      "constant": true,
      "inputs": [],
      "name": "getMe",
      "outputs": [
        {
          "components": [
            {
              "name": "creationDate",
              "type": "uint256"
            },
            {
              "name": "firstName",
              "type": "string"
            },
            {
              "name": "lastName",
              "type": "string"
            },
            {
              "name": "memberId",
              "type": "uint256"
            },
            {
              "name": "requestId",
              "type": "uint256"
            },
            {
              "name": "role",
              "type": "string"
            },
            {
              "name": "status",
              "type": "uint8"
            },
            {
              "name": "owner",
              "type": "address"
            }
          ],
          "name": "",
          "type": "tuple"
        }
      ],
      "payable": false,
      "stateMutability": "view",
      "type": "function"
    },
    {
      "constant": true,
      "inputs": [
        {
          "name": "_page",
          "type": "uint256"
        }
      ],
      "name": "getMembers",
      "outputs": [
        {
          "components": [
            {
              "name": "memberId",
              "type": "uint256"
            },
            {
              "name": "creationDate",
              "type": "uint256"
            },
            {
              "name": "name",
              "type": "string"
            },
            {
              "name": "logo",
              "type": "string"
            },
            {
              "name": "country",
              "type": "string"
            },
            {
              "name": "cmo",
              "type": "string"
            },
            {
              "name": "theme",
              "type": "string"
            },
            {
              "name": "claimInbox",
              "type": "uint256[]"
            },
            {
              "name": "claims",
              "type": "uint256[]"
            },
            {
              "name": "userRequests",
              "type": "address[]"
            }
          ],
          "name": "",
          "type": "tuple[]"
        }
      ],
      "payable": false,
      "stateMutability": "view",
      "type": "function"
    },
    {
      "constant": false,
      "inputs": [],
      "name": "renounceSigner",
      "outputs": [],
      "payable": false,
      "stateMutability": "nonpayable",
      "type": "function"
    },
    {
      "constant": false,
      "inputs": [
        {
          "name": "account",
          "type": "address"
        }
      ],
      "name": "addSigner",
      "outputs": [],
      "payable": false,
      "stateMutability": "nonpayable",
      "type": "function"
    },
    {
      "constant": false,
      "inputs": [
        {
          "name": "_creationDate",
          "type": "uint256"
        },
        {
          "name": "_name",
          "type": "string"
        },
        {
          "name": "_logo",
          "type": "string"
        },
        {
          "name": "_country",
          "type": "string"
        },
        {
          "name": "_cmo",
          "type": "string"
        },
        {
          "name": "_theme",
          "type": "string"
        }
      ],
      "name": "addMember",
      "outputs": [
        {
          "name": "",
          "type": "uint256"
        }
      ],
      "payable": false,
      "stateMutability": "nonpayable",
      "type": "function"
    },
    {
      "constant": false,
      "inputs": [
        {
          "name": "_firstName",
          "type": "string"
        },
        {
          "name": "_lastName",
          "type": "string"
        },
        {
          "name": "_memberId",
          "type": "uint256"
        },
        {
          "name": "_role",
          "type": "string"
        },
        {
          "name": "owner",
          "type": "address"
        }
      ],
      "name": "updateUser",
      "outputs": [],
      "payable": false,
      "stateMutability": "nonpayable",
      "type": "function"
    },
    {
      "constant": false,
      "inputs": [
        {
          "name": "account",
          "type": "address"
        }
      ],
      "name": "whitelistAdmin",
      "outputs": [],
      "payable": false,
      "stateMutability": "nonpayable",
      "type": "function"
    },
    {
      "anonymous": false,
      "inputs": [
        {
          "indexed": true,
          "name": "account",
          "type": "address"
        }
      ],
      "name": "SignerAdded",
      "type": "event"
    },
    {
      "anonymous": false,
      "inputs": [
        {
          "indexed": true,
          "name": "account",
          "type": "address"
        }
      ],
      "name": "SignerRemoved",
      "type": "event"
    },
    {
      "constant": false,
      "inputs": [
        {
          "name": "_creationDate",
          "type": "uint256"
        },
        {
          "name": "_claimData",
          "type": "bytes"
        },
        {
          "name": "_claimType",
          "type": "uint256"
        },
        {
          "name": "_memberReceptor",
          "type": "uint256"
        }
      ],
      "name": "registerClaim",
      "outputs": [],
      "payable": false,
      "stateMutability": "nonpayable",
      "type": "function"
    },
    {
      "constant": false,
      "inputs": [
        {
          "name": "_claimId",
          "type": "uint256"
        },
        {
          "name": "_claimData",
          "type": "bytes"
        },
        {
          "name": "_lastChange",
          "type": "uint256"
        }
      ],
      "name": "updateClaim",
      "outputs": [],
      "payable": false,
      "stateMutability": "nonpayable",
      "type": "function"
    },
    {
      "constant": true,
      "inputs": [
        {
          "name": "_claimId",
          "type": "uint256"
        }
      ],
      "name": "getClaim",
      "outputs": [
        {
          "components": [
            {
              "name": "creationDate",
              "type": "uint256"
            },
            {
              "name": "claimId",
              "type": "uint256"
            },
            {
              "components": [
                {
                  "name": "name",
                  "type": "string"
                },
                {
                  "name": "value",
                  "type": "string"
                }
              ],
              "name": "claimData",
              "type": "tuple[]"
            },
            {
              "name": "claimType",
              "type": "uint8"
            },
            {
              "name": "memberOwner",
              "type": "uint256"
            },
            {
              "name": "memberReceptor",
              "type": "uint256"
            },
            {
              "name": "messageLog",
              "type": "string[]"
            },
            {
              "name": "status",
              "type": "uint8"
            },
            {
              "name": "lastChange",
              "type": "uint256"
            }
          ],
          "name": "",
          "type": "tuple"
        }
      ],
      "payable": false,
      "stateMutability": "view",
      "type": "function"
    },
    {
      "constant": true,
      "inputs": [
        {
          "name": "_page",
          "type": "uint256"
        }
      ],
      "name": "getClaimsByMemberId",
      "outputs": [
        {
          "components": [
            {
              "name": "creationDate",
              "type": "uint256"
            },
            {
              "name": "claimId",
              "type": "uint256"
            },
            {
              "components": [
                {
                  "name": "name",
                  "type": "string"
                },
                {
                  "name": "value",
                  "type": "string"
                }
              ],
              "name": "claimData",
              "type": "tuple[]"
            },
            {
              "name": "claimType",
              "type": "uint8"
            },
            {
              "name": "memberOwner",
              "type": "uint256"
            },
            {
              "name": "memberReceptor",
              "type": "uint256"
            },
            {
              "name": "messageLog",
              "type": "string[]"
            },
            {
              "name": "status",
              "type": "uint8"
            },
            {
              "name": "lastChange",
              "type": "uint256"
            }
          ],
          "name": "",
          "type": "tuple[]"
        }
      ],
      "payable": false,
      "stateMutability": "view",
      "type": "function"
    },
    {
      "constant": true,
      "inputs": [],
      "name": "getClaimsCountByMemberId",
      "outputs": [
        {
          "name": "",
          "type": "uint256"
        }
      ],
      "payable": false,
      "stateMutability": "view",
      "type": "function"
    }
  ],
  "bytecode": "0x608060405260006006556200001d3364010000000062000023810204565b62000108565b6200003e600082640100000000620044566200007582021704565b604051600160a060020a038216907f47d1c22a25bb3a5d4e481b9b1e6944c2eade3181a0a20b495ed61d35b5323f2490600090a250565b600160a060020a03811615156200008b57600080fd5b620000a08282640100000000620000d0810204565b15620000ab57600080fd5b600160a060020a0316600090815260209190915260409020805460ff19166001179055565b6000600160a060020a0382161515620000e857600080fd5b50600160a060020a03166000908152602091909152604090205460ff1690565b615bd180620001186000396000f3006080604052600436106101325763ffffffff7c010000000000000000000000000000000000000000000000000000000060003504166308bdc24d81146101375780631be8850b146101595780634dc92885146101845780635aef2447146101a45780635d73ab9a146101d157806365ff0c48146101fe57806369c212f61461021e5780637df73e271461024b578063932191be146102785780639eab52531461028d578063a42e28db146102af578063a4fdc594146102cf578063a7ed1fe4146102e4578063a87d942c14610304578063b6bc381214610319578063c11e1ff314610346578063c477ecab1461035b578063cb68b9e81461037b578063e5c8b03d1461039b578063eb12d61e146103b0578063fa1188c6146103d0578063fcfbde5b146103f0578063ff240fce14610410575b600080fd5b34801561014357600080fd5b50610157610152366004614a93565b610430565b005b34801561016557600080fd5b5061016e6105cc565b60405161017b9190615aab565b60405180910390f35b34801561019057600080fd5b5061015761019f366004614a93565b6105e9565b3480156101b057600080fd5b506101c46101bf366004614b75565b61074d565b60405161017b9190615a89565b3480156101dd57600080fd5b506101f16101ec366004614b75565b610a5f565b60405161017b919061591a565b34801561020a57600080fd5b50610157610219366004614e20565b610e3a565b34801561022a57600080fd5b5061023e610239366004614a93565b610ec9565b60405161017b9190615a9a565b34801561025757600080fd5b5061026b610266366004614a93565b61111d565b60405161017b919061592b565b34801561028457600080fd5b506101f1611135565b34801561029957600080fd5b506102a2611426565b60405161017b9190615909565b3480156102bb57600080fd5b506101576102ca366004614bf8565b6118ed565b3480156102db57600080fd5b5061016e611a19565b3480156102f057600080fd5b506101576102ff366004614d70565b611ade565b34801561031057600080fd5b5061016e611ba5565b34801561032557600080fd5b50610339610334366004614b75565b611bc3565b60405161017b91906158f8565b34801561035257600080fd5b5061023e611fd7565b34801561036757600080fd5b506102a2610376366004614b75565b612068565b34801561038757600080fd5b50610157610396366004614b93565b612583565b3480156103a757600080fd5b506101576126f9565b3480156103bc57600080fd5b506101576103cb366004614a93565b612704565b3480156103dc57600080fd5b5061016e6103eb366004614c71565b612721565b3480156103fc57600080fd5b5061015761040b366004614ab9565b6127b0565b34801561041c57600080fd5b5061015761042b366004614a93565b61289e565b600160a060020a0381811660009081526003602052604081206006015461010090049091161161047e5760405160e560020a62461bcd02815260040161047590615979565b60405180910390fd5b600160a060020a03811660009081526003602081905260408083208201543384529220015414806104b357506104b33361111d565b15156104d45760405160e560020a62461bcd02815260040161047590615989565b60023360009081526003602052604090206006015460ff1660028111156104f757fe5b148061050757506105073361111d565b15156105285760405160e560020a62461bcd02815260040161047590615a39565b6001600160a060020a03821660009081526003602052604090206006015460ff16600281111561055457fe5b146105745760405160e560020a62461bcd02815260040161047590615959565b600160a060020a038116600090815260036020526040902060060180546002919060ff19166001835b0217905550600160a060020a038116600090815260036020819052604090912001546105c99082612972565b50565b6000806105d7612ae1565b90506105e281612af8565b91505b5090565b600160a060020a0381811660009081526003602052604081206006015461010090049091161161062e5760405160e560020a62461bcd02815260040161047590615979565b600160a060020a038116600090815260036020819052604080832082015433845292200154148061066357506106633361111d565b15156106845760405160e560020a62461bcd02815260040161047590615989565b60023360009081526003602052604090206006015460ff1660028111156106a757fe5b14806106b757506106b73361111d565b15156106d85760405160e560020a62461bcd02815260040161047590615a39565b6001600160a060020a03821660009081526003602052604090206006015460ff16600281111561070457fe5b146107245760405160e560020a62461bcd02815260040161047590615999565b600160a060020a0381166000908152600360205260408120600601805460ff191660018361059d565b61075561465e565b600560008381526020019081526020016000206101206040519081016040529081600082015481526020016001820154815260200160028201805480602002602001604051908101604052809291908181526020016000905b8282101561090c5760008481526020908190206040805160028681029093018054600181161561010002600019011693909304601f8101859004909402810160609081018352918101848152909384928491908401828280156108525780601f1061082757610100808354040283529160200191610852565b820191906000526020600020905b81548152906001019060200180831161083557829003601f168201915b50505050508152602001600182018054600181600116156101000203166002900480601f0160208091040260200160405190810160405280929190818152602001828054600181600116156101000203166002900480156108f45780601f106108c9576101008083540402835291602001916108f4565b820191906000526020600020905b8154815290600101906020018083116108d757829003601f168201915b505050505081525050815260200190600101906107ae565b50505090825250600382015460209091019060ff16600181111561092c57fe5b600181111561093757fe5b8152602001600482015481526020016005820154815260200160068201805480602002602001604051908101604052809291908181526020016000905b82821015610a1f5760008481526020908190208301805460408051601f6002600019610100600187161502019094169390930492830185900485028101850190915281815292830182828015610a0b5780601f106109e057610100808354040283529160200191610a0b565b820191906000526020600020905b8154815290600101906020018083116109ee57829003601f168201915b505050505081526020019060010190610974565b50505090825250600782015460209091019060ff166001811115610a3f57fe5b6001811115610a4a57fe5b81526020016008820154815250509050919050565b606060008060006060600080610a73611a19565b9550610a80600a89612b0d565b600454909550610a9190600a612b46565b9350851580610a9f57508585115b80610aa957508388115b15610ab357610e2f565b60408051600a808252610160820190925290816020015b610ad26146c1565b815260200190600190039081610aca579050509250600091508490505b600454811015610e2b5733600090815260036020819052604082208101546004805491939185908110610b1e57fe5b6000918252602080832090910154600160a060020a03168352820192909252604001902060030154148015610b9b5750600260036000600484815481101515610b6357fe5b6000918252602080832090910154600160a060020a0316835282019290925260400190206006015460ff166002811115610b9957fe5b145b15610e235760036000600483815481101515610bb357fe5b600091825260208083209190910154600160a060020a0316835282810193909352604091820190208151610100808201845282548252600180840180548651600293821615909402600019011691909104601f81018790048702830187019095528482529194929385840193919291830182828015610c735780601f10610c4857610100808354040283529160200191610c73565b820191906000526020600020905b815481529060010190602001808311610c5657829003601f168201915b5050509183525050600282810180546040805160206001841615610100026000190190931694909404601f81018390048302850183019091528084529381019390830182828015610d055780601f10610cda57610100808354040283529160200191610d05565b820191906000526020600020905b815481529060010190602001808311610ce857829003601f168201915b505050505081526020016003820154815260200160048201548152602001600582018054600181600116156101000203166002900480601f016020809104026020016040519081016040528092919081815260200182805460018160011615610100020316600290048015610dbb5780601f10610d9057610100808354040283529160200191610dbb565b820191906000526020600020905b815481529060010190602001808311610d9e57829003601f168201915b5050509183525050600682015460209091019060ff166002811115610ddc57fe5b6002811115610de757fe5b8152600691909101546101009004600160a060020a03166020909101528351849084908110610e1257fe5b602090810290910101526001909101905b600101610aef565b8296505b505050505050919050565b610e433361111d565b1515610e4e57600080fd5b60008781526001602052604081205411610e7d5760405160e560020a62461bcd02815260040161047590615a09565b600087815260016020819052604090912001548614610eb15760405160e560020a62461bcd02815260040161047590615939565b610ec087878787878787612b69565b50505050505050565b610ed16146c1565b600160a060020a0382166000908152600360209081526040918290208251610100808201855282548252600180840180548751600293821615909402600019011691909104601f8101869004860283018601909652858252919492938581019391929190830182828015610f865780601f10610f5b57610100808354040283529160200191610f86565b820191906000526020600020905b815481529060010190602001808311610f6957829003601f168201915b5050509183525050600282810180546040805160206001841615610100026000190190931694909404601f810183900483028501830190915280845293810193908301828280156110185780601f10610fed57610100808354040283529160200191611018565b820191906000526020600020905b815481529060010190602001808311610ffb57829003601f168201915b505050505081526020016003820154815260200160048201548152602001600582018054600181600116156101000203166002900480601f0160208091040260200160405190810160405280929190818152602001828054600181600116156101000203166002900480156110ce5780601f106110a3576101008083540402835291602001916110ce565b820191906000526020600020905b8154815290600101906020018083116110b157829003601f168201915b5050509183525050600682015460209091019060ff1660028111156110ef57fe5b60028111156110fa57fe5b8152600691909101546101009004600160a060020a031660209091015292915050565b600061112f818363ffffffff61316216565b92915050565b60608060006111433361111d565b151561114e57600080fd5b60045460408051828152602080840282010190915290801561118a57816020015b6111776146c1565b81526020019060019003908161116f5790505b509150600090505b60045481101561142057600360006004838154811015156111af57fe5b600091825260208083209190910154600160a060020a0316835282810193909352604091820190208151610100808201845282548252600180840180548651600293821615909402600019011691909104601f8101879004870283018701909552848252919492938584019391929183018282801561126f5780601f106112445761010080835404028352916020019161126f565b820191906000526020600020905b81548152906001019060200180831161125257829003601f168201915b5050509183525050600282810180546040805160206001841615610100026000190190931694909404601f810183900483028501830190915280845293810193908301828280156113015780601f106112d657610100808354040283529160200191611301565b820191906000526020600020905b8154815290600101906020018083116112e457829003601f168201915b505050505081526020016003820154815260200160048201548152602001600582018054600181600116156101000203166002900480601f0160208091040260200160405190810160405280929190818152602001828054600181600116156101000203166002900480156113b75780601f1061138c576101008083540402835291602001916113b7565b820191906000526020600020905b81548152906001019060200180831161139a57829003601f168201915b5050509183525050600682015460209091019060ff1660028111156113d857fe5b60028111156113e357fe5b8152600691909101546101009004600160a060020a0316602090910152825183908390811061140e57fe5b60209081029091010152600101611192565b50919050565b606080600060028054905060405190808252806020026020018201604052801561146a57816020015b611457614712565b81526020019060019003908161144f5790505b509150600090505b600254811015611420576001600060028381548110151561148f57fe5b9060005260206000200154815260200190815260200160002061014060405190810160405290816000820154815260200160018201548152602001600282018054600181600116156101000203166002900480601f0160208091040260200160405190810160405280929190818152602001828054600181600116156101000203166002900480156115625780601f1061153757610100808354040283529160200191611562565b820191906000526020600020905b81548152906001019060200180831161154557829003601f168201915b505050918352505060038201805460408051602060026001851615610100026000190190941693909304601f81018490048402820184019092528181529382019392918301828280156115f65780601f106115cb576101008083540402835291602001916115f6565b820191906000526020600020905b8154815290600101906020018083116115d957829003601f168201915b505050918352505060048201805460408051602060026001851615610100026000190190941693909304601f810184900484028201840190925281815293820193929183018282801561168a5780601f1061165f5761010080835404028352916020019161168a565b820191906000526020600020905b81548152906001019060200180831161166d57829003601f168201915b505050918352505060058201805460408051602060026001851615610100026000190190941693909304601f810184900484028201840190925281815293820193929183018282801561171e5780601f106116f35761010080835404028352916020019161171e565b820191906000526020600020905b81548152906001019060200180831161170157829003601f168201915b505050918352505060068201805460408051602060026001851615610100026000190190941693909304601f81018490048402820184019092528181529382019392918301828280156117b25780601f10611787576101008083540402835291602001916117b2565b820191906000526020600020905b81548152906001019060200180831161179557829003601f168201915b505050505081526020016007820180548060200260200160405190810160405280929190818152602001828054801561180a57602002820191906000526020600020905b8154815260200190600101908083116117f6575b505050505081526020016008820180548060200260200160405190810160405280929190818152602001828054801561186257602002820191906000526020600020905b81548152602001906001019080831161184e575b50505050508152602001600982018054806020026020016040519081016040528092919081815260200182805480156118c457602002820191906000526020600020905b8154600160a060020a031681526001909101906020018083116118a6575b50505050508152505082828151811015156118db57fe5b60209081029091010152600101611472565b60008060608187116119145760405160e560020a62461bcd02815260040161047590615a79565b600085101580611925575060018511155b15156119465760405160e560020a62461bcd02815260040161047590615a69565b6006805460010190819055925061195c84613199565b151561197d5760405160e560020a62461bcd028152600401610475906159d9565b611985612ae1565b604080516000808252602082019092529193506119b2565b606081526020019060019003908161199d5790505b5090506119c78388888886898760008f6131ac565b6119d182846133bb565b600160065411156119e7576119e78386886133e0565b600160008481526005602052604090206007015460ff166001811115611a0957fe5b1415610ec057610ec08284613aab565b600080805b6004548110156114205733600090815260036020819052604082208101546004805491939185908110611a4d57fe5b6000918252602080832090910154600160a060020a03168352820192909252604001902060030154148015611aca5750600260036000600484815481101515611a9257fe5b6000918252602080832090910154600160a060020a0316835282019290925260400190206006015460ff166002811115611ac857fe5b145b15611ad6576001909101905b600101611a1e565b6000811515611b025760405160e560020a62461bcd02815260040161047590615a59565b60008611611b255760405160e560020a62461bcd02815260040161047590615a79565b3360009081526003602052604090205415611b555760405160e560020a62461bcd02815260040161047590615969565b611b5e82613199565b1515611b7f5760405160e560020a62461bcd02815260040161047590615a09565b611b8886613ad0565b9050611b9d8686868585886001336000613cbf565b505050505050565b6000611bb03361111d565b1515611bbb57600080fd5b506002545b90565b6060600080600080606080600080611bdc600a8b612b0d565b9750611be6612ae1565b9650611bf187612af8565b9550611bfe86600a612b46565b9450851580611c0f57506001860388115b80611c195750848a115b15611c2357611fca565b611c2c87614113565b60408051600a8082526101608201909252919550816020015b611c4d61465e565b815260200190600190039081611c45579050509250600091508790505b8351811015611fc657600a821015611fb957600560008583815181101515611c8e57fe5b9060200190602002015181526020019081526020016000206101206040519081016040529081600082015481526020016001820154815260200160028201805480602002602001604051908101604052809291908181526020016000905b82821015611e4a5760008481526020908190206040805160028681029093018054600181161561010002600019011693909304601f810185900490940281016060908101835291810184815290938492849190840182828015611d905780601f10611d6557610100808354040283529160200191611d90565b820191906000526020600020905b815481529060010190602001808311611d7357829003601f168201915b50505050508152602001600182018054600181600116156101000203166002900480601f016020809104026020016040519081016040528092919081815260200182805460018160011615610100020316600290048015611e325780601f10611e0757610100808354040283529160200191611e32565b820191906000526020600020905b815481529060010190602001808311611e1557829003601f168201915b50505050508152505081526020019060010190611cec565b50505090825250600382015460209091019060ff166001811115611e6a57fe5b6001811115611e7557fe5b8152602001600482015481526020016005820154815260200160068201805480602002602001604051908101604052809291908181526020016000905b82821015611f5d5760008481526020908190208301805460408051601f6002600019610100600187161502019094169390930492830185900485028101850190915281815292830182828015611f495780601f10611f1e57610100808354040283529160200191611f49565b820191906000526020600020905b815481529060010190602001808311611f2c57829003601f168201915b505050505081526020019060010190611eb2565b50505090825250600782015460209091019060ff166001811115611f7d57fe5b6001811115611f8857fe5b81526020016008820154815250508383815181101515611fa457fe5b60209081029091010152600190910190611fbe565b611fc6565b600101611c6a565b8298505b5050505050505050919050565b611fdf6146c1565b611fe76146c1565b336000908152600360209081526040918290208251610100808201855282548252600180840180548751600293821615909402600019011691909104601f8101869004860283018601909652858252919492938581019391929190830182828015610f865780601f10610f5b57610100808354040283529160200191610f86565b606060008060006060600061207e600a88612b0d565b60025490955061208f90600a612b46565b60025490945015806120a657506002546000190185115b806120b057508387115b156120ba57612579565b60408051600a80825261016082019092526000945090816020015b6120dd614712565b8152602001906001900390816120d55790505091508490505b600254811015612575576001600060028381548110151561211357fe5b9060005260206000200154815260200190815260200160002061014060405190810160405290816000820154815260200160018201548152602001600282018054600181600116156101000203166002900480601f0160208091040260200160405190810160405280929190818152602001828054600181600116156101000203166002900480156121e65780601f106121bb576101008083540402835291602001916121e6565b820191906000526020600020905b8154815290600101906020018083116121c957829003601f168201915b505050918352505060038201805460408051602060026001851615610100026000190190941693909304601f810184900484028201840190925281815293820193929183018282801561227a5780601f1061224f5761010080835404028352916020019161227a565b820191906000526020600020905b81548152906001019060200180831161225d57829003601f168201915b505050918352505060048201805460408051602060026001851615610100026000190190941693909304601f810184900484028201840190925281815293820193929183018282801561230e5780601f106122e35761010080835404028352916020019161230e565b820191906000526020600020905b8154815290600101906020018083116122f157829003601f168201915b505050918352505060058201805460408051602060026001851615610100026000190190941693909304601f81018490048402820184019092528181529382019392918301828280156123a25780601f10612377576101008083540402835291602001916123a2565b820191906000526020600020905b81548152906001019060200180831161238557829003601f168201915b505050918352505060068201805460408051602060026001851615610100026000190190941693909304601f81018490048402820184019092528181529382019392918301828280156124365780601f1061240b57610100808354040283529160200191612436565b820191906000526020600020905b81548152906001019060200180831161241957829003601f168201915b505050505081526020016007820180548060200260200160405190810160405280929190818152602001828054801561248e57602002820191906000526020600020905b81548152602001906001019080831161247a575b50505050508152602001600882018054806020026020016040519081016040528092919081815260200182805480156124e657602002820191906000526020600020905b8154815260200190600101908083116124d2575b505050505081526020016009820180548060200260200160405190810160405280929190818152602001828054801561254857602002820191906000526020600020905b8154600160a060020a0316815260019091019060200180831161252a575b505050505081525050828481518110151561255f57fe5b60209081029091010152600192830192016120f6565b8195505b5050505050919050565b600083815260056020526040812060010154116125b55760405160e560020a62461bcd028152600401610475906159b9565b600083815260056020526040902080546003909101546126f4918591859060ff1660018111156125e157fe5b6000888152600560208181526040808420600481015493810154600690910180548351818602810186019094528084529495919492939092919084015b828210156126c95760008481526020908190208301805460408051601f60026000196101006001871615020190941693909304928301859004850281018501909152818152928301828280156126b55780601f1061268a576101008083540402835291602001916126b5565b820191906000526020600020905b81548152906001019060200180831161269857829003601f168201915b50505050508152602001906001019061261e565b50505060008c81526005602052604090206007015460ff16905060018111156126ee57fe5b896131ac565b505050565b612702336141a8565b565b61270d3361111d565b151561271857600080fd5b6105c9816141f0565b60008061272d3361111d565b151561273857600080fd5b6000881161275b5760405160e560020a62461bcd02815260040161047590615a79565b61276488613ad0565b600081815260016020526040902054909150156127965760405160e560020a62461bcd028152600401610475906159e9565b6127a581898989898989612b69565b979650505050505050565b600160a060020a038181166000908152600360205260408120600601549091829182916101009091041681106127fb5760405160e560020a62461bcd02815260040161047590615979565b6002600160a060020a03851660009081526003602052604090206006015460ff16600281111561282757fe5b146128475760405160e560020a62461bcd02815260040161047590615a39565b600160a060020a03841660009081526003602052604090206004810154815460069092015490945090925060ff16600281111561288057fe5b905061289482898989878a878b6001613cbf565b5050505050505050565b6128a73361111d565b15156128b257600080fd5b600160a060020a038116600090815260036020819052604090912001546128d99082612972565b604080518082018252600b81527f53757065722061646d696e0000000000000000000000000000000000000000006020808301918252600160a060020a038516600090815260039091529290922090516129399260059092019190614766565b50600160a060020a0381166000908152600360208190526040822090810191909155600601805460ff191660021790556105c981612704565b6000805b60008481526001602052604090206009015460001901811015612a725760008481526001602052604090206009018054600160a060020a0385169190839081106129bc57fe5b600091825260209091200154600160a060020a031614156129dc57600191505b8115612a6a576000848152600160208190526040909120600901805490918301908110612a0557fe5b6000918252602080832090910154868352600190915260409091206009018054600160a060020a039092169183908110612a3b57fe5b9060005260206000200160006101000a815481600160a060020a030219169083600160a060020a031602179055505b600101612976565b600084815260016020526040902060090180546000198101908110612a9357fe5b60009182526020808320909101805473ffffffffffffffffffffffffffffffffffffffff191690558582526001905260409020600901805490612ada9060001983016147e0565b5050505050565b336000908152600360208190526040909120015490565b60009081526001602052604090206008015490565b600080831515612b205760009150612b3f565b50828202828482811515612b3057fe5b0414612b3b57600080fd5b8091505b5092915050565b600080808311612b5557600080fd5b8284811515612b6057fe5b04949350505050565b612b71614712565b85511515612b945760405160e560020a62461bcd02815260040161047590615a49565b82511515612bb75760405160e560020a62461bcd02815260040161047590615a29565b81511515612bda5760405160e560020a62461bcd02815260040161047590615a19565b6000888152600160208181526040928390208351610140810185528154815281840154818401526002808301805487519681161561010002600019011691909104601f810185900485028601850187528086529195929492860193909190830182828015612c895780601f10612c5e57610100808354040283529160200191612c89565b820191906000526020600020905b815481529060010190602001808311612c6c57829003601f168201915b505050918352505060038201805460408051602060026001851615610100026000190190941693909304601f8101849004840282018401909252818152938201939291830182828015612d1d5780601f10612cf257610100808354040283529160200191612d1d565b820191906000526020600020905b815481529060010190602001808311612d0057829003601f168201915b505050918352505060048201805460408051602060026001851615610100026000190190941693909304601f8101849004840282018401909252818152938201939291830182828015612db15780601f10612d8657610100808354040283529160200191612db1565b820191906000526020600020905b815481529060010190602001808311612d9457829003601f168201915b505050918352505060058201805460408051602060026001851615610100026000190190941693909304601f8101849004840282018401909252818152938201939291830182828015612e455780601f10612e1a57610100808354040283529160200191612e45565b820191906000526020600020905b815481529060010190602001808311612e2857829003601f168201915b505050918352505060068201805460408051602060026001851615610100026000190190941693909304601f8101849004840282018401909252818152938201939291830182828015612ed95780601f10612eae57610100808354040283529160200191612ed9565b820191906000526020600020905b815481529060010190602001808311612ebc57829003601f168201915b5050505050815260200160078201805480602002602001604051908101604052809291908181526020018280548015612f3157602002820191906000526020600020905b815481526020019060010190808311612f1d575b5050505050815260200160088201805480602002602001604051908101604052809291908181526020018280548015612f8957602002820191906000526020600020905b815481526020019060010190808311612f75575b5050505050815260200160098201805480602002602001604051908101604052809291908181526020018280548015612feb57602002820191906000526020600020905b8154600160a060020a03168152600190910190602001808311612fcd575b50505091909252505050888152602080820189815260408084018a8152606085018a90526080850189905260a0850188905260c0850187905260008d81526001808652929020855181559251918301919091555180519394508493919261305a92600285019290910190614766565b5060608201518051613076916003840191602090910190614766565b5060808201518051613092916004840191602090910190614766565b5060a082015180516130ae916005840191602090910190614766565b5060c082015180516130ca916006840191602090910190614766565b5060e082015180516130e6916007840191602090910190614804565b506101008201518051613103916008840191602090910190614804565b50610120820151805161312091600984019160209091019061483e565b5050600280546001810182556000919091527f405787fa12a823e0f2b7631cc41b3ba8828b3321ca811111fa75cd3aa3bb5ace01989098555050505050505050565b6000600160a060020a038216151561317957600080fd5b50600160a060020a03166000908152602091909152604090205460ff1690565b6000908152600160205260408120541190565b6131b46148ac565b6060600060606131c38b614238565b93506131ce84614286565b92508c600560008f8152602001908152602001600020600101819055508b600560008f81526020019081526020016000206000018190555089600181111561321257fe5b60008e8152600560205260409020600301805460ff19166001838181111561323657fe5b021790555060008d8152600560205260408120613258916002909101906148c3565b600091505b825182101561333d57613286838381518110151561327757fe5b90602001906020020151614286565b9050600560008e815260200190815260200160002060020160408051908101604052806132ca8460008151811015156132bb57fe5b90602001906020020151614359565b81526020016132e18460018151811015156132bb57fe5b9052815460018101808455600093845260209384902083518051929560029094029091019261331592849290910190614766565b50602082810151805161332e9260018501920190614766565b5050505081600101915061325d565b60008d8152600560208181526040909220600481018c90559081018a9055600881018790558851613376926006909201918a01906148e4565b5085600181111561338357fe5b60008e8152600560205260409020600701805460ff1916600183818111156133a757fe5b021790555050505050505050505050505050565b6000918252600160208181526040842060080180549283018155845290922090910155565b6133e86148ac565b60606000806006541115156134125760405160e560020a62461bcd028152600401610475906159f9565b61341b84614238565b925061342683614286565b9150600190505b6006548111611b9d57846001148015613465575060008181526005602052604090206003015460ff16600181111561346157fe5b6001145b80156134715750808614155b15613a6a5760008181526005602052604090206002018054600690811061349457fe5b906000526020600020906002020160010160405160200180828054600181600116156101000203166002900480156135035780601f106134e1576101008083540402835291820191613503565b820191906000526020600020905b8154815290600101906020018083116134ef575b50509150506040516020818303038152906040526040518082805190602001908083835b602083106135465780518252601f199092019160209182019101613527565b6001836020036101000a03801982511681845116808217855250505050505090500191505060405180910390206000191661359961358c84600681518110151561327757fe5b805160019081106132bb57fe5b6040516020018082805190602001908083835b602083106135cb5780518252601f1990920191602091820191016135ac565b6001836020036101000a0380198251168184511680821785525050505050509050019150506040516020818303038152906040526040518082805190602001908083835b6020831061362e5780518252601f19909201916020918201910161360f565b6001836020036101000a038019825116818451168082178552505050505050905001915050604051809103902060001916148015613845575060008181526005602052604090206002018054600390811061368557fe5b906000526020600020906002020160010160405160200180828054600181600116156101000203166002900480156136f45780601f106136d25761010080835404028352918201916136f4565b820191906000526020600020905b8154815290600101906020018083116136e0575b50509150506040516020818303038152906040526040518082805190602001908083835b602083106137375780518252601f199092019160209182019101613718565b6001836020036101000a03801982511681845116808217855250505050505090500191505060405180910390206000191661377d61358c84600381518110151561327757fe5b6040516020018082805190602001908083835b602083106137af5780518252601f199092019160209182019101613790565b6001836020036101000a0380198251168184511680821785525050505050509050019150506040516020818303038152906040526040518082805190602001908083835b602083106138125780518252601f1990920191602091820191016137f3565b6001836020036101000a038019825116818451168082178552505050505050905001915050604051809103902060001916145b8015613a2a575060008181526005602052604090206002018054600490811061386a57fe5b906000526020600020906002020160010160405160200180828054600181600116156101000203166002900480156138d95780601f106138b75761010080835404028352918201916138d9565b820191906000526020600020905b8154815290600101906020018083116138c5575b50509150506040516020818303038152906040526040518082805190602001908083835b6020831061391c5780518252601f1990920191602091820191016138fd565b6001836020036101000a03801982511681845116808217855250505050505090500191505060405180910390206000191661396261358c84600481518110151561327757fe5b6040516020018082805190602001908083835b602083106139945780518252601f199092019160209182019101613975565b6001836020036101000a0380198251168184511680821785525050505050509050019150506040516020818303038152906040526040518082805190602001908083835b602083106139f75780518252601f1990920191602091820191016139d8565b6001836020036101000a038019825116818451168082178552505050505050905001915050604051809103902060001916145b15613a655760008681526005602052604080822060079081018054600160ff1991821681179092558585529290932001805490911690911790555b613aa3565b84158015613a95575060008181526005602052604090206003015460ff166001811115613a9357fe5b155b8015613aa15750808614155b505b60010161342d565b6000918252600160208181526040842060070180549283018155845290922090910155565b6000808080600285061515613b625784604051602001808281526020019150506040516020818303038152906040526040518082805190602001908083835b60208310613b2e5780518252601f199092019160209182019101613b0f565b6001836020036101000a03801982511681845116808217855250505050505090500191505060405180910390209250613c4d565b84604051602001808281526020019150506040516020818303038152906040526040518082805190602001908083835b60208310613bb15780518252601f199092019160209182019101613b92565b51815160209384036101000a600019018019909216911617905260408051929094018290038220828201528351808303820181529184019384905281519195509293508392850191508083835b60208310613c1d5780518252601f199092019160209182019101613bfe565b6001836020036101000a038019825116818451168082178552505050505050905001915050604051809103902092505b6020811015613c7a57828160208110613c6257fe5b60f860020a91901a8102049190910190600101613c4d565b826020600284010660208110613c8c57fe5b60f860020a91901a810204836020840660208110613ca657fe5b1a60f860020a0260f860020a9004029350505050919050565b613cc76146c1565b600084101580613cd8575060028411155b1515613cf95760405160e560020a62461bcd028152600401610475906159a9565b84511515613d1c5760405160e560020a62461bcd02815260040161047590615949565b600160a060020a0383166000908152600360209081526040918290208251610100808201855282548252600180840180548751600293821615909402600019011691909104601f8101869004860283018601909652858252919492938581019391929190830182828015613dd15780601f10613da657610100808354040283529160200191613dd1565b820191906000526020600020905b815481529060010190602001808311613db457829003601f168201915b5050509183525050600282810180546040805160206001841615610100026000190190931694909404601f81018390048302850183019091528084529381019390830182828015613e635780601f10613e3857610100808354040283529160200191613e63565b820191906000526020600020905b815481529060010190602001808311613e4657829003601f168201915b505050505081526020016003820154815260200160048201548152602001600582018054600181600116156101000203166002900480601f016020809104026020016040519081016040528092919081815260200182805460018160011615610100020316600290048015613f195780601f10613eee57610100808354040283529160200191613f19565b820191906000526020600020905b815481529060010190602001808311613efc57829003601f168201915b5050509183525050600682015460209091019060ff166002811115613f3a57fe5b6002811115613f4557fe5b8152600691909101546101009004600160a060020a03166020918201528b825281018a905260408101899052606081018890526080810187905260a081018690529050836002811115613f9457fe5b8160c001906002811115613fa457fe5b90816002811115613fb157fe5b905250600160a060020a03831660e082018190526000908152600360209081526040909120825181558183015180518493613ff3926001850192910190614766565b506040820151805161400f916002840191602090910190614766565b50606082015160038201556080820151600482015560a0820151805161403f916005840191602090910190614766565b5060c082015160068201805460ff1916600183600281111561405d57fe5b021790555060e0919091015160069091018054600160a060020a039092166101000274ffffffffffffffffffffffffffffffffffffffff001990921691909117905581151561410757600480546001810182556000919091527f8a35acfbc15ff81a39ae7d344fd709f28e8600b4aa8c65c6b64bfe7fe36bd19b01805473ffffffffffffffffffffffffffffffffffffffff1916600160a060020a038516179055614107876143cb565b50505050505050505050565b600081815260016020526040812054606091106141455760405160e560020a62461bcd028152600401610475906159c9565b6000828152600160209081526040918290206008018054835181840281018401909452808452909183018282801561419c57602002820191906000526020600020905b815481526020019060010190808311614188575b50505050509050919050565b6141b960008263ffffffff61440a16565b604051600160a060020a038216907f3525e22824a8a7df2c9a6029941c824cf95b6447f1e13d5128fd3826d35afe8b90600090a250565b61420160008263ffffffff61445616565b604051600160a060020a038216907f47d1c22a25bb3a5d4e481b9b1e6944c2eade3181a0a20b495ed61d35b5323f2490600090a250565b6142406148ac565b60008251600014156142675760408051808201909152600080825260208201529150611420565b5050604080518082019091528151815260209182019181019190915290565b6060600080600080614297866144a4565b15156142a257600080fd5b6142ab866144d3565b9350836040519080825280602002602001820160405280156142e757816020015b6142d46148ac565b8152602001906001900390816142cc5790505b5094506142f78660200151614523565b8660200151019250600090505b838110156143505761431583614586565b9150604080519081016040528083815260200184815250858281518110151561433a57fe5b6020908102909101015291810191600101614304565b50505050919050565b60606000806060600061436f8660200151614523565b9350838660000151039250826040519080825280601f01601f1916602001820160405280156143a8578160200160208202803883390190505b5091508160200190506143c2848760200151018285614617565b50949350505050565b6000908152600160208181526040832060090180549283018155835290912001805473ffffffffffffffffffffffffffffffffffffffff191633179055565b600160a060020a038116151561441f57600080fd5b6144298282613162565b151561443457600080fd5b600160a060020a0316600090815260209190915260409020805460ff19169055565b600160a060020a038116151561446b57600080fd5b6144758282613162565b1561447f57600080fd5b600160a060020a0316600090815260209190915260409020805460ff19166001179055565b6020810151805160009190821a9060c060ff831610156144c757600092506144cc565b600192505b5050919050565b600080600080600092506144ea8560200151614523565b6020860151865191810193500190505b8082101561451a5761450b82614586565b600190930192909101906144fa565b50909392505050565b8051600090811a608081101561453c5760009150611420565b60b8811080614557575060c08110801590614557575060f881105b156145655760019150611420565b60c081101561457a5760b51981019150611420565b60f51981019150611420565b8051600090811a608081101561459f5760019150611420565b60b88110156145b457607e1981019150611420565b60c08110156145e15760b78103600184019350806020036101000a84510460018201810193505050611420565b60f88110156145f65760be1981019150611420565b60019290920151602083900360f7016101000a900490910160f51901919050565b60005b6020821061463c578351835260209384019390920191601f199091019061461a565b50915181516020939093036101000a6000190180199091169216919091179052565b610120604051908101604052806000815260200160008152602001606081526020016000600181111561468d57fe5b8152602001600081526020016000815260200160608152602001600060018111156146b457fe5b8152602001600081525090565b610100604051908101604052806000815260200160608152602001606081526020016000815260200160008152602001606081526020016000600281111561470557fe5b8152600060209091015290565b61014060405190810160405280600081526020016000815260200160608152602001606081526020016060815260200160608152602001606081526020016060815260200160608152602001606081525090565b828054600181600116156101000203166002900490600052602060002090601f016020900481019282601f106147a757805160ff19168380011785556147d4565b828001600101855582156147d4579182015b828111156147d45782518255916020019190600101906147b9565b506105e592915061493d565b8154818355818111156126f4576000838152602090206126f491810190830161493d565b8280548282559060005260206000209081019282156147d457916020028201828111156147d45782518255916020019190600101906147b9565b8280548282559060005260206000209081019282156148a0579160200282015b828111156148a0578251825473ffffffffffffffffffffffffffffffffffffffff1916600160a060020a0390911617825560209092019160019091019061485e565b506105e5929150614957565b604080518082019091526000808252602082015290565b50805460008255600202906000526020600020908101906105c99190614988565b828054828255906000526020600020908101928215614931579160200282015b828111156149315782518051614921918491602090910190614766565b5091602001919060010190614904565b506105e59291506149b9565b611bc091905b808211156105e55760008155600101614943565b611bc091905b808211156105e557805473ffffffffffffffffffffffffffffffffffffffff1916815560010161495d565b611bc091905b808211156105e55760006149a282826149dc565b6149b06001830160006149dc565b5060020161498e565b611bc091905b808211156105e55760006149d382826149dc565b506001016149bf565b50805460018160011615610100020316600290046000825580601f10614a0257506105c9565b601f0160209004906000526020600020908101906105c9919061493d565b6000614a2c8235615b12565b9392505050565b6000601f82018313614a4457600080fd5b8135614a57614a5282615ae0565b615ab9565b91508082526020830160208301858383011115614a7357600080fd5b614a7e838284615b51565b50505092915050565b6000614a2c8235611bc0565b600060208284031215614aa557600080fd5b6000614ab18484614a20565b949350505050565b600080600080600060a08688031215614ad157600080fd5b853567ffffffffffffffff811115614ae857600080fd5b614af488828901614a33565b955050602086013567ffffffffffffffff811115614b1157600080fd5b614b1d88828901614a33565b9450506040614b2e88828901614a87565b935050606086013567ffffffffffffffff811115614b4b57600080fd5b614b5788828901614a33565b9250506080614b6888828901614a20565b9150509295509295909350565b600060208284031215614b8757600080fd5b6000614ab18484614a87565b600080600060608486031215614ba857600080fd5b6000614bb48686614a87565b935050602084013567ffffffffffffffff811115614bd157600080fd5b614bdd86828701614a33565b9250506040614bee86828701614a87565b9150509250925092565b60008060008060808587031215614c0e57600080fd5b6000614c1a8787614a87565b945050602085013567ffffffffffffffff811115614c3757600080fd5b614c4387828801614a33565b9350506040614c5487828801614a87565b9250506060614c6587828801614a87565b91505092959194509250565b60008060008060008060c08789031215614c8a57600080fd5b6000614c968989614a87565b965050602087013567ffffffffffffffff811115614cb357600080fd5b614cbf89828a01614a33565b955050604087013567ffffffffffffffff811115614cdc57600080fd5b614ce889828a01614a33565b945050606087013567ffffffffffffffff811115614d0557600080fd5b614d1189828a01614a33565b935050608087013567ffffffffffffffff811115614d2e57600080fd5b614d3a89828a01614a33565b92505060a087013567ffffffffffffffff811115614d5757600080fd5b614d6389828a01614a33565b9150509295509295509295565b600080600080600060a08688031215614d8857600080fd5b6000614d948888614a87565b955050602086013567ffffffffffffffff811115614db157600080fd5b614dbd88828901614a33565b945050604086013567ffffffffffffffff811115614dda57600080fd5b614de688828901614a33565b935050606086013567ffffffffffffffff811115614e0357600080fd5b614e0f88828901614a33565b9250506080614b6888828901614a87565b600080600080600080600060e0888a031215614e3b57600080fd5b6000614e478a8a614a87565b9750506020614e588a828b01614a87565b965050604088013567ffffffffffffffff811115614e7557600080fd5b614e818a828b01614a33565b955050606088013567ffffffffffffffff811115614e9e57600080fd5b614eaa8a828b01614a33565b945050608088013567ffffffffffffffff811115614ec757600080fd5b614ed38a828b01614a33565b93505060a088013567ffffffffffffffff811115614ef057600080fd5b614efc8a828b01614a33565b92505060c088013567ffffffffffffffff811115614f1957600080fd5b614f258a828b01614a33565b91505092959891949750929550565b614f3d81615b12565b82525050565b6000614f4e82615b0e565b808452602084019350614f6083615b08565b60005b82811015614f9057614f76868351614f34565b614f7f82615b08565b602096909601959150600101614f63565b5093949350505050565b6000614fa582615b0e565b80845260208401935083602082028501614fbe85615b08565b60005b84811015614ff5578383038852614fd98383516151d5565b9250614fe482615b08565b602098909801979150600101614fc1565b50909695505050505050565b600061500c82615b0e565b8084526020840193508360208202850161502585615b08565b60005b84811015614ff5578383038852615040838351615646565b925061504b82615b08565b602098909801979150600101615028565b600061506782615b0e565b8084526020840193508360208202850161508085615b08565b60005b84811015614ff557838303885261509b83835161570b565b92506150a682615b08565b602098909801979150600101615083565b60006150c282615b0e565b808452602084019350836020820285016150db85615b08565b60005b84811015614ff55783830388526150f683835161580e565b925061510182615b08565b6020989098019791506001016150de565b600061511d82615b0e565b8084526020840193508360208202850161513685615b08565b60005b84811015614ff5578383038852615151838351615840565b925061515c82615b08565b602098909801979150600101615139565b600061517882615b0e565b80845260208401935061518a83615b08565b60005b82811015614f90576151a08683516158ef565b6151a982615b08565b60209690960195915060010161518d565b614f3d81615b1e565b614f3d81615b3b565b614f3d81615b46565b60006151e082615b0e565b8084526151f4816020860160208601615b5d565b6151fd81615b8d565b9093016020019392505050565b601a81527f4372656174696f6e204461746520697320696e6d757461626c65000000000000602082015260400190565b601181527f726f6c65206973206d616e6461746f7279000000000000000000000000000000602082015260400190565b602281527f4f6e6c792070656e64696e672075736572732063616e2062652061636365707460208201527f6564000000000000000000000000000000000000000000000000000000000000604082015260600190565b601381527f5573657220616c72656164792065786973747300000000000000000000000000602082015260400190565b601481527f546869732075736572206e6f7420657869737473000000000000000000000000602082015260400190565b601b81527f596f752063616e6e6f7420616363657074207468697320757365720000000000602082015260400190565b602281527f4f6e6c792070656e64696e672075736572732063616e2062652072656a65637460208201527f6564000000000000000000000000000000000000000000000000000000000000604082015260600190565b601381527f737461747573206973206e6f742076616c696400000000000000000000000000602082015260400190565b601081527f436c61696d206e6f742065786973747300000000000000000000000000000000602082015260400190565b601181527f6d656d626572206e6f7420657869737473000000000000000000000000000000602082015260400190565b601481527f4d656d62657220646f206e6f7420657869737473000000000000000000000000602082015260400190565b601581527f4d656d62657220616c7265616479206578697374730000000000000000000000602082015260400190565b601f81527f5468657265206973206e6f20636c61696d20696e207468652073797374656d00602082015260400190565b601181527f4d656d626572206e6f7420657869737473000000000000000000000000000000602082015260400190565b601281527f5468656d65206973206d616e6461746f72790000000000000000000000000000602082015260400190565b601081527f434d4f206973206d616e6461746f727900000000000000000000000000000000602082015260400190565b601481527f596f7520617265206e6f74206163636570746564000000000000000000000000602082015260400190565b601181527f4e616d65206973206d616e6461746f7279000000000000000000000000000000602082015260400190565b601181527f4e6f2076616c6964206d656d6265724964000000000000000000000000000000602082015260400190565b601481527f496e636f727265637420436c61696d2054797065000000000000000000000000602082015260400190565b601981527f4372656174696f6e44617465206973206d616e6461746f727900000000000000602082015260400190565b805160009061012084019061565b85826158ef565b50602083015161566e60208601826158ef565b506040830151848203604086015261568682826150b7565b915050606083015161569b60608601826151c3565b5060808301516156ae60808601826158ef565b5060a08301516156c160a08601826158ef565b5060c083015184820360c08601526156d98282614f9a565b91505060e08301516156ee60e08601826151c3565b506101008301516157036101008601826158ef565b509392505050565b805160009061014084019061572085826158ef565b50602083015161573360208601826158ef565b506040830151848203604086015261574b82826151d5565b9150506060830151848203606086015261576582826151d5565b9150506080830151848203608086015261577f82826151d5565b91505060a083015184820360a086015261579982826151d5565b91505060c083015184820360c08601526157b382826151d5565b91505060e083015184820360e08601526157cd828261516d565b9150506101008301518482036101008601526157e9828261516d565b9150506101208301518482036101208601526158058282614f43565b95945050505050565b805160408084526000919084019061582682826151d5565b9150506020830151848203602086015261580582826151d5565b805160009061010084019061585585826158ef565b506020830151848203602086015261586d82826151d5565b9150506040830151848203604086015261588782826151d5565b915050606083015161589c60608601826158ef565b5060808301516158af60808601826158ef565b5060a083015184820360a08601526158c782826151d5565b91505060c08301516158dc60c08601826151cc565b5060e083015161570360e0860182614f34565b614f3d81611bc0565b60208082528101614a2c8184615001565b60208082528101614a2c818461505c565b60208082528101614a2c8184615112565b6020810161112f82846151ba565b6020808252810161112f8161520a565b6020808252810161112f8161523a565b6020808252810161112f8161526a565b6020808252810161112f816152c0565b6020808252810161112f816152f0565b6020808252810161112f81615320565b6020808252810161112f81615350565b6020808252810161112f816153a6565b6020808252810161112f816153d6565b6020808252810161112f81615406565b6020808252810161112f81615436565b6020808252810161112f81615466565b6020808252810161112f81615496565b6020808252810161112f816154c6565b6020808252810161112f816154f6565b6020808252810161112f81615526565b6020808252810161112f81615556565b6020808252810161112f81615586565b6020808252810161112f816155b6565b6020808252810161112f816155e6565b6020808252810161112f81615616565b60208082528101614a2c8184615646565b60208082528101614a2c8184615840565b6020810161112f82846158ef565b60405181810167ffffffffffffffff81118282101715615ad857600080fd5b604052919050565b600067ffffffffffffffff821115615af757600080fd5b506020601f91909101601f19160190565b60200190565b5190565b600160a060020a031690565b151590565b6000600282106105e557fe5b6000600382106105e557fe5b600061112f82615b23565b600061112f82615b2f565b82818337506000910152565b60005b83811015615b78578181015183820152602001615b60565b83811115615b87576000848401525b50505050565b601f01601f1916905600a265627a7a723058203a6ffaf8cea0d11993c8a12e3e256cb5d9d730a03e4d4aec7f6e4b99473ca58e6c6578706572696d656e74616cf50037",
  "source": "pragma solidity ^0.4.24;\npragma experimental ABIEncoderV2;\n\nimport \"../../node_modules/solidity-rlp/contracts/RLPReader.sol\";\nimport \"./Users.sol\";\n//import * as theLib from \"./TheLib.sol\";\n\ncontract Claims is Users {\n\n  using RLPReader for bytes;\n  using RLPReader for uint;\n  using RLPReader for RLPReader.RLPItem;\n\n  enum StatusClaimEnum {\n    CLAIMED,\n    CONFLICT\n  }\n\n  enum ClaimTypeEnum {\n    MUSICAL_WORK,\n    SOUND_RECORDING\n  }\n  \n  struct NameValue{ \n    string name;\n    string value;\n  }\n\n  struct Claim {   \n    uint256 creationDate;\n    uint256 claimId;\n    NameValue[] claimData;\n    ClaimTypeEnum claimType;    \n    uint256 memberOwner;    //  replace with 'member'\n    uint256 memberReceptor; // remove\n    string[] messageLog;\n    StatusClaimEnum status;\n    uint256 lastChange;   \n  }\n\n  uint256 constant private PAGE_SIZE = 10;\n\n  mapping (uint256 => Claim) private claims_;\n  uint256 private claimIdCounter_ = 0;\n  // METHODS\n\n  // Public\n  function checkClaimStatus(uint256 _claimId, uint256 _claimType, bytes _claimData) internal {\n//     -browse all (getClaimsByISRC or ISWC) = claims_\n//     -check if conflict with region, period, useTypes\n//        -if CONFLICT with split\n//            -change the status to conflict\n//            -and if found is not CONFLICT status, then change as well\n//            -_addClaimFromInbox(member, _claimId)\n//            -save memberId/_claimId locally (memory)\n    require(claimIdCounter_ > 0, \"There is no claim in the system\");\n\n    // Push in messageLog of _claimId==1 the _claimData of each claim that is input in this function\n    RLPReader.RLPItem memory item = _claimData.toRlpItem();\n    RLPReader.RLPItem[] memory itemList = item.toList();  // ((name0, value0), (name, value), (name, value), ...)\n//    for(uint j = 0; j < itemList.length; ++j) {\n////      RLPReader.RLPItem[] memory itemListClaim = itemList[j].toList(); // (name0, value0)\n//      string memory data = string(itemList[j].toList()[1].toBytes());\n//      claims_[1].messageLog.push(data);\n//    }\n//    claims_[1].messageLog.push(\"__NEXT__\");\n    //ISRC\n    for(uint256 i = 1; i <= claimIdCounter_; i++) {\n//      claims_[1].messageLog.push(claims_[i].claimData[0].value);\n//      claims_[1].messageLog.push(claims_[_claimId].claimData[3].value);\n      // Sound Recording\n      if (_claimType == 1 && uint256(claims_[i].claimType) == 1 && _claimId != i) {\n        if (keccak256(abi.encodePacked(string(itemList[6].toList()[1].toBytes()))) == keccak256(abi.encodePacked(claims_[i].claimData[6].value)) // same ISRC\n         && keccak256(abi.encodePacked(string(itemList[3].toList()[1].toBytes()))) == keccak256(abi.encodePacked(claims_[i].claimData[3].value)) // same countries\n         && keccak256(abi.encodePacked(string(itemList[4].toList()[1].toBytes()))) == keccak256(abi.encodePacked(claims_[i].claimData[4].value)) // same useTypes\n//         && keccak256(abi.encodePacked(string(itemList[0].toList()[1].toBytes()))) == keccak256(abi.encodePacked(claims_[i].claimData[0].value)) // same startDate\n//         && keccak256(abi.encodePacked(string(itemList[1].toList()[1].toBytes()))) == keccak256(abi.encodePacked(claims_[i].claimData[1].value)) // same endDate\n        ){\n\n            claims_[_claimId].status = StatusClaimEnum.CONFLICT;\n            claims_[i].status = StatusClaimEnum.CONFLICT;\n//                if (uint256(parseInt(claims_[_claimId].claimData[2].value, 0)) + uint256(parseInt(claims_[i].claimData[2].value, 0)) > 100) {\n            //      // check if their splits> 100% (checking between combinations missing!)\n//\n//                }\n////              }\n//            }\n        }\n      }\n      // Musical Work\n      else if (_claimType == 0 && uint256(claims_[i].claimType) == 0 && _claimId != i) {\n//        if (keccak256(abi.encodePacked(string(itemList[15].toList()[1].toBytes()))) == keccak256(abi.encodePacked(claims_[i].claimData[15].value)) // same ISWC\n//        ){\n//\n//        }\n      }\n    }\n  }\n\n  function registerClaim(uint256 _creationDate, bytes _claimData, uint256 _claimType, uint _memberReceptor) public {\n\n    require(_creationDate > 0, \"CreationDate is mandatory\");\n    require(_claimType >= 0 || _claimType <= 1, \"Incorrect Claim Type\");\n\n    uint256 _claimId = ++claimIdCounter_;\n//    uint256 _claimId = Random.rand(_creationDate);\n\n//    require(claims_[_claimId].claimId == 0, \"Claim already exists\");\n    require(_memberExists(_memberReceptor), \"Member do not exists\");\n\n    uint256 _memberOwner = _memberIdFromCurrentAddress();\n\n    string[] memory messageLog = new string[](0);\n\n    _saveClaim(_claimId, _creationDate, _claimData, _claimType, _memberOwner, _memberReceptor, messageLog, uint(StatusClaimEnum.CLAIMED), _creationDate);\n    _addClaimIdToMemberOwner(_memberOwner, _claimId);\n\n    if (claimIdCounter_ > 1) {\n      checkClaimStatus(_claimId, _claimType, _claimData);\n    }\n\n    if (claims_[_claimId].status == StatusClaimEnum.CONFLICT) {\n      // addClaimFromInbox for every relevant member\n      _addClaimFromInbox(_memberOwner, _claimId);\n    }\n\n  }\n//\n  function updateClaim(uint256 _claimId, bytes _claimData, uint _lastChange) public {\n    require(claims_[_claimId].claimId > 0, \"Claim not exists\");\n\n    _saveClaim(_claimId, claims_[_claimId].creationDate, _claimData, uint(claims_[_claimId].claimType),\n              claims_[_claimId].memberOwner, claims_[_claimId].memberReceptor, claims_[_claimId].messageLog, uint(claims_[_claimId].status), _lastChange);\n  }\n\n//  EXCLUDE FUNCTION SO THAT SIZE OF CONTRACT (AND BYTECODE) REDUCES; IF NOT ENOUGH, MOVE FUNCTIONS TO DIFFERENT CONTRACT.\n//  function changeState(uint256 _claimId, uint _status, string _messageLog, uint256 _lastChange) checkValidStatus(_status) public {\n//    require(claims_[_claimId].claimId > 0, \"Claim not exists\");\n//\n//    if(claims_[_claimId].status != StatusClaimEnum(_status)) {\n//      bool isClaimIntoReceptorInbox = _isClaimIntoReceptorInbox(claims_[_claimId].memberReceptor, _claimId);\n//      if(_status == uint(StatusClaimEnum.CONFLICT)) {\n//          if(isClaimIntoReceptorInbox) {\n//            _removeClaimFromInbox(claims_[_claimId].memberReceptor, _claimId);\n//          } else {\n//            _removeClaimFromInbox(claims_[_claimId].memberOwner, _claimId);\n//          }\n//      } else {\n//          if(isClaimIntoReceptorInbox) {\n//            _addClaimFromInbox(claims_[_claimId].memberOwner, _claimId);\n//            _removeClaimFromInbox(claims_[_claimId].memberReceptor, _claimId);\n//          } else {\n//            _addClaimFromInbox(claims_[_claimId].memberReceptor, _claimId);\n//            _removeClaimFromInbox(claims_[_claimId].memberOwner, _claimId);\n//          }\n//      }\n//      claims_[_claimId].status = StatusClaimEnum(_status);\n//    }\n//    if (keccak256(abi.encodePacked((_messageLog))) != keccak256(abi.encodePacked((\"\")))) {\n//        claims_[_claimId].messageLog.push(_messageLog);\n//    }\n//\n//    claims_[_claimId].lastChange = _lastChange;\n//  }\n\n  function getClaim(uint256 _claimId) view public returns (Claim) {\n    return claims_[_claimId];\n  }\n\n  function getClaimsByMemberId(uint _page) view public returns (Claim[] memory) {\n    uint256 pageIndex = SafeMath.mul(PAGE_SIZE, _page);\n    uint256 _memberId = _memberIdFromCurrentAddress();\n    uint count = _getClaimsCountByMember(_memberId);\n    uint256 pageNumber = SafeMath.div(count, PAGE_SIZE);\n\n    if (count == 0 || pageIndex > count - 1 || _page > pageNumber) {\n      return;\n    }\n\n    uint256[] memory claimsId = _getClaimsIdByMember(_memberId);\n\n    Claim[] memory _claims = new Claim[](PAGE_SIZE);\n    uint256 returnCounter = 0;\n    for (uint i = pageIndex; i < claimsId.length; ++i) {\n      if(returnCounter < PAGE_SIZE) {\n        _claims[returnCounter] = claims_[claimsId[i]];\n        ++returnCounter;\n      } else {\n        break;\n      }\n    }\n    return _claims;\n  }\n\n  function getClaimsCountByMemberId() view public returns (uint) {\n    uint256 _memberId = _memberIdFromCurrentAddress();\n    return _getClaimsCountByMember(_memberId);\n  }\n\n  // Private\n  function _saveClaim(uint256 _claimId, uint256 _creationDate, bytes _claimData, uint256 _claimType,\n    uint _memberOwner, uint _memberReceptor, string[] memory _messageLog, uint256 _status, uint256 _lastChange) internal {\n\n    RLPReader.RLPItem memory item = _claimData.toRlpItem();\n    RLPReader.RLPItem[] memory itemList = item.toList(); // ((name, value), (name, value), (name, value), ...)\n\n    claims_[_claimId].claimId = _claimId;\n    claims_[_claimId].creationDate = _creationDate;\n    claims_[_claimId].claimType = ClaimTypeEnum(_claimType);\n\n    delete claims_[_claimId].claimData;\n    for(uint i = 0; i < itemList.length; ++i) {\n      RLPReader.RLPItem[] memory itemListClaim = itemList[i].toList(); // (name, value)\n      claims_[_claimId].claimData.push(NameValue(string(itemListClaim[0].toBytes()), string(itemListClaim[1].toBytes())));\n    }\n\n    claims_[_claimId].memberOwner = _memberOwner;\n    claims_[_claimId].memberReceptor = _memberReceptor;\n    claims_[_claimId].lastChange = _lastChange;\n    claims_[_claimId].messageLog = _messageLog;\n    claims_[_claimId].status = StatusClaimEnum(_status);\n  }\n\n  // MODIFIERS\n\n  //  modifier checkValidStatus(uint256 _status) {\n//    require(_status >= 0 || _status <= 1, \"status not allowed\");\n//    _;\n//  }\n\n//  modifier checkMemberOwnership(uint256 _claimId) {\n//    require(claims_[_claimId].memberOwner == _memberIdFromCurrentAddress() || claims_[_claimId].memberReceptor == _memberIdFromCurrentAddress(),\n//      \"not allowed to get this claim\");\n//    _;\n//  }\n}\n",
  "sourcePath": "/home/komodo/newUI/bloomen-decentralized-rights-management-v2/truffle/contracts/registry/Claims.sol",
  "compiler": {
    "name": "solc",
    "version": "0.4.24+commit.e67f0147.Emscripten.clang"
  },
  "schemaVersion": "2.0.1",
  "updatedAt": "2019-11-10T16:02:01.384Z"
}