{
  "contractName": "Members",
  "abi": [
    {
      "constant": false,
      "inputs": [
        {
          "name": "_cmo",
          "type": "string"
        }
      ],
      "name": "addCMO",
      "outputs": [],
      "payable": false,
      "stateMutability": "nonpayable",
      "type": "function"
    },
    {
      "constant": true,
      "inputs": [],
      "name": "getCMOs",
      "outputs": [
        {
          "name": "",
          "type": "string[]"
        }
      ],
      "payable": false,
      "stateMutability": "view",
      "type": "function"
    },
    {
      "constant": true,
      "inputs": [
        {
          "name": "account",
          "type": "address"
        }
      ],
      "name": "isSigner",
      "outputs": [
        {
          "name": "",
          "type": "bool"
        }
      ],
      "payable": false,
      "stateMutability": "view",
      "type": "function"
    },
    {
      "constant": false,
      "inputs": [
        {
          "name": "_index",
          "type": "uint256"
        }
      ],
      "name": "deleteCMO",
      "outputs": [],
      "payable": false,
      "stateMutability": "nonpayable",
      "type": "function"
    },
    {
      "constant": false,
      "inputs": [],
      "name": "renounceSigner",
      "outputs": [],
      "payable": false,
      "stateMutability": "nonpayable",
      "type": "function"
    },
    {
      "constant": false,
      "inputs": [
        {
          "name": "account",
          "type": "address"
        }
      ],
      "name": "addSigner",
      "outputs": [],
      "payable": false,
      "stateMutability": "nonpayable",
      "type": "function"
    },
    {
      "anonymous": false,
      "inputs": [
        {
          "indexed": true,
          "name": "account",
          "type": "address"
        }
      ],
      "name": "SignerAdded",
      "type": "event"
    },
    {
      "anonymous": false,
      "inputs": [
        {
          "indexed": true,
          "name": "account",
          "type": "address"
        }
      ],
      "name": "SignerRemoved",
      "type": "event"
    },
    {
      "constant": false,
      "inputs": [
        {
          "name": "_creationDate",
          "type": "uint256"
        },
        {
          "name": "_name",
          "type": "string"
        },
        {
          "name": "_logo",
          "type": "string"
        },
        {
          "name": "_country",
          "type": "string"
        },
        {
          "name": "_cmo",
          "type": "string"
        },
        {
          "name": "_theme",
          "type": "string"
        }
      ],
      "name": "addMember",
      "outputs": [
        {
          "name": "",
          "type": "uint256"
        }
      ],
      "payable": false,
      "stateMutability": "nonpayable",
      "type": "function"
    },
    {
      "constant": false,
      "inputs": [
        {
          "name": "_memberId",
          "type": "uint256"
        },
        {
          "name": "_creationDate",
          "type": "uint256"
        },
        {
          "name": "_name",
          "type": "string"
        },
        {
          "name": "_logo",
          "type": "string"
        },
        {
          "name": "_country",
          "type": "string"
        },
        {
          "name": "_cmo",
          "type": "string"
        },
        {
          "name": "_theme",
          "type": "string"
        }
      ],
      "name": "updateMember",
      "outputs": [],
      "payable": false,
      "stateMutability": "nonpayable",
      "type": "function"
    },
    {
      "constant": true,
      "inputs": [
        {
          "name": "_page",
          "type": "uint256"
        }
      ],
      "name": "getMembers",
      "outputs": [
        {
          "components": [
            {
              "name": "memberId",
              "type": "uint256"
            },
            {
              "name": "creationDate",
              "type": "uint256"
            },
            {
              "name": "name",
              "type": "string"
            },
            {
              "name": "logo",
              "type": "string"
            },
            {
              "name": "country",
              "type": "string"
            },
            {
              "name": "cmo",
              "type": "string"
            },
            {
              "name": "theme",
              "type": "string"
            },
            {
              "name": "claimInbox",
              "type": "uint256[]"
            },
            {
              "name": "claims",
              "type": "uint256[]"
            },
            {
              "name": "userRequests",
              "type": "address[]"
            }
          ],
          "name": "",
          "type": "tuple[]"
        }
      ],
      "payable": false,
      "stateMutability": "view",
      "type": "function"
    },
    {
      "constant": true,
      "inputs": [],
      "name": "getMembers",
      "outputs": [
        {
          "components": [
            {
              "name": "memberId",
              "type": "uint256"
            },
            {
              "name": "creationDate",
              "type": "uint256"
            },
            {
              "name": "name",
              "type": "string"
            },
            {
              "name": "logo",
              "type": "string"
            },
            {
              "name": "country",
              "type": "string"
            },
            {
              "name": "cmo",
              "type": "string"
            },
            {
              "name": "theme",
              "type": "string"
            },
            {
              "name": "claimInbox",
              "type": "uint256[]"
            },
            {
              "name": "claims",
              "type": "uint256[]"
            },
            {
              "name": "userRequests",
              "type": "address[]"
            }
          ],
          "name": "",
          "type": "tuple[]"
        }
      ],
      "payable": false,
      "stateMutability": "view",
      "type": "function"
    },
    {
      "constant": true,
      "inputs": [],
      "name": "getCount",
      "outputs": [
        {
          "name": "",
          "type": "uint256"
        }
      ],
      "payable": false,
      "stateMutability": "view",
      "type": "function"
    },
    {
      "constant": true,
      "inputs": [
        {
          "name": "_memberId",
          "type": "uint256"
        }
      ],
      "name": "_getClaimsIdByMember",
      "outputs": [
        {
          "name": "",
          "type": "uint256[]"
        }
      ],
      "payable": false,
      "stateMutability": "view",
      "type": "function"
    },
    {
      "constant": true,
      "inputs": [
        {
          "name": "_memberId",
          "type": "uint256"
        }
      ],
      "name": "_getClaimsCountByMember",
      "outputs": [
        {
          "name": "",
          "type": "uint256"
        }
      ],
      "payable": false,
      "stateMutability": "view",
      "type": "function"
    },
    {
      "constant": false,
      "inputs": [
        {
          "name": "_memberId",
          "type": "uint256"
        },
        {
          "name": "_claimId",
          "type": "uint256"
        }
      ],
      "name": "_addClaimIdToMemberOwner",
      "outputs": [],
      "payable": false,
      "stateMutability": "nonpayable",
      "type": "function"
    },
    {
      "constant": false,
      "inputs": [
        {
          "name": "_memberId",
          "type": "uint256"
        },
        {
          "name": "_claimId",
          "type": "uint256"
        }
      ],
      "name": "_removeClaimIdFromMember",
      "outputs": [],
      "payable": false,
      "stateMutability": "nonpayable",
      "type": "function"
    },
    {
      "constant": false,
      "inputs": [
        {
          "name": "_memberId",
          "type": "uint256"
        },
        {
          "name": "_claimId",
          "type": "uint256"
        }
      ],
      "name": "_addClaimFromInbox",
      "outputs": [],
      "payable": false,
      "stateMutability": "nonpayable",
      "type": "function"
    },
    {
      "constant": true,
      "inputs": [
        {
          "name": "_memberId",
          "type": "uint256"
        }
      ],
      "name": "_memberExists",
      "outputs": [
        {
          "name": "",
          "type": "bool"
        }
      ],
      "payable": false,
      "stateMutability": "view",
      "type": "function"
    },
    {
      "constant": false,
      "inputs": [
        {
          "name": "_memberId",
          "type": "uint256"
        },
        {
          "name": "_claimId",
          "type": "uint256"
        }
      ],
      "name": "_removeClaimFromInbox",
      "outputs": [],
      "payable": false,
      "stateMutability": "nonpayable",
      "type": "function"
    }
  ],
  "bytecode": "0x608060405262000018336401000000006200001e810204565b62000103565b6200003960008264010000000062001d466200007082021704565b604051600160a060020a038216907f47d1c22a25bb3a5d4e481b9b1e6944c2eade3181a0a20b495ed61d35b5323f2490600090a250565b600160a060020a03811615156200008657600080fd5b6200009b8282640100000000620000cb810204565b15620000a657600080fd5b600160a060020a0316600090815260209190915260409020805460ff19166001179055565b6000600160a060020a0382161515620000e357600080fd5b50600160a060020a03166000908152602091909152604090205460ff1690565b6129f780620001136000396000f3006080604052600436106100fb5763ffffffff7c01000000000000000000000000000000000000000000000000000000006000350416633a59ccf181146101005780636262dff614610122578063656d561c1461015857806365ff0c481461017a578063748532391461019a5780637df73e27146101ba5780638b92892b146101e75780639eab525314610207578063a29d441f14610229578063a87d942c14610249578063affccd841461026b578063bf3d007e1461028b578063c477ecab146102ab578063e2c11f9e146102cb578063e5c8b03d146102eb578063eb12d61e14610300578063f838073314610320578063fa1188c614610340575b600080fd5b34801561010c57600080fd5b5061012061011b366004612116565b610360565b005b34801561012e57600080fd5b5061014261013d36600461214b565b6103bc565b60405161014f9190612864565b60405180910390f35b34801561016457600080fd5b5061016d61045a565b60405161014f9190612842565b34801561018657600080fd5b506101206101953660046122a2565b610533565b3480156101a657600080fd5b506101206101b5366004612268565b6105fe565b3480156101c657600080fd5b506101da6101d53660046120f0565b610624565b60405161014f9190612875565b3480156101f357600080fd5b50610120610202366004612268565b61063c565b34801561021357600080fd5b5061021c610753565b60405161014f9190612853565b34801561023557600080fd5b50610120610244366004612268565b610c20565b34801561025557600080fd5b5061025e610cf5565b60405161014f9190612903565b34801561027757600080fd5b5061025e61028636600461214b565b610d12565b34801561029757600080fd5b506101206102a636600461214b565b610d27565b3480156102b757600080fd5b5061021c6102c636600461214b565b610de4565b3480156102d757600080fd5b506101206102e6366004612268565b6112ff565b3480156102f757600080fd5b50610120611325565b34801561030c57600080fd5b5061012061031b3660046120f0565b611330565b34801561032c57600080fd5b506101da61033b36600461214b565b611350565b34801561034c57600080fd5b5061025e61035b366004612169565b611363565b61036933610624565b151561037457600080fd5b6001805480820180835560009290925282516103b7917fb10e2d527612073b26eecdfd717e6a320cf44b4afac2b0732d9fcbe2b7fa0cf601906020850190611d94565b505050565b600081815260026020526040812054606091106103f75760405160e560020a62461bcd0281526004016103ee90612893565b60405180910390fd5b6000828152600260209081526040918290206008018054835181840281018401909452808452909183018282801561044e57602002820191906000526020600020905b81548152602001906001019080831161043a575b50505050509050919050565b60606001805480602002602001604051908101604052809291908181526020016000905b828210156105295760008481526020908190208301805460408051601f60026000196101006001871615020190941693909304928301859004850281018501909152818152928301828280156105155780601f106104ea57610100808354040283529160200191610515565b820191906000526020600020905b8154815290600101906020018083116104f857829003601f168201915b50505050508152602001906001019061047e565b5050505090505b90565b61053c33610624565b151561054757600080fd5b600087815260026020526040812054116105765760405160e560020a62461bcd0281526004016103ee906128b3565b60008781526002602052604090206001015486146105a95760405160e560020a62461bcd0281526004016103ee90612883565b600087815260026020818152604090922087516105ce93919092019190880190611d94565b50600087815260026020908152604090912082516105f492600690920191840190611d94565b5050505050505050565b600091825260026020908152604083206007018054600181018255908452922090910155565b6000610636818363ffffffff6113f216565b92915050565b6000805b600084815260026020526040902060070154600019018110156106fc57600084815260026020526040902060070180548491908390811061067d57fe5b9060005260206000200154141561069357600191505b81156106f45760008481526002602052604090206007018054600183019081106106b957fe5b906000526020600020015460026000868152602001908152602001600020600701828154811015156106e757fe5b6000918252602090912001555b600101610640565b60008481526002602052604090206007018054600019810190811061071d57fe5b60009182526020808320909101829055858252600290526040902060070180549061074c906000198301611e12565b5050505050565b606080600060038054905060405190808252806020026020018201604052801561079757816020015b610784611e36565b81526020019060019003908161077c5790505b509150600090505b600354811015610c1a57600260006003838154811015156107bc57fe5b9060005260206000200154815260200190815260200160002061014060405190810160405290816000820154815260200160018201548152602001600282018054600181600116156101000203166002900480601f01602080910402602001604051908101604052809291908181526020018280546001816001161561010002031660029004801561088f5780601f106108645761010080835404028352916020019161088f565b820191906000526020600020905b81548152906001019060200180831161087257829003601f168201915b505050918352505060038201805460408051602060026001851615610100026000190190941693909304601f81018490048402820184019092528181529382019392918301828280156109235780601f106108f857610100808354040283529160200191610923565b820191906000526020600020905b81548152906001019060200180831161090657829003601f168201915b505050918352505060048201805460408051602060026001851615610100026000190190941693909304601f81018490048402820184019092528181529382019392918301828280156109b75780601f1061098c576101008083540402835291602001916109b7565b820191906000526020600020905b81548152906001019060200180831161099a57829003601f168201915b505050918352505060058201805460408051602060026001851615610100026000190190941693909304601f8101849004840282018401909252818152938201939291830182828015610a4b5780601f10610a2057610100808354040283529160200191610a4b565b820191906000526020600020905b815481529060010190602001808311610a2e57829003601f168201915b505050918352505060068201805460408051602060026001851615610100026000190190941693909304601f8101849004840282018401909252818152938201939291830182828015610adf5780601f10610ab457610100808354040283529160200191610adf565b820191906000526020600020905b815481529060010190602001808311610ac257829003601f168201915b5050505050815260200160078201805480602002602001604051908101604052809291908181526020018280548015610b3757602002820191906000526020600020905b815481526020019060010190808311610b23575b5050505050815260200160088201805480602002602001604051908101604052809291908181526020018280548015610b8f57602002820191906000526020600020905b815481526020019060010190808311610b7b575b5050505050815260200160098201805480602002602001604051908101604052809291908181526020018280548015610bf157602002820191906000526020600020905b8154600160a060020a03168152600190910190602001808311610bd3575b5050505050815250508282815181101515610c0857fe5b6020908102909101015260010161079f565b50919050565b600082815260026020526040812060080154908111156103b757600083815260026020526040902060080180546000198301908110610c5b57fe5b90600052602060002001546002600085815260200190815260200160002060080183815481101515610c8957fe5b9060005260206000200181905550816002600085815260200190815260200160002060080160018303815481101515610cbe57fe5b6000918252602080832090910192909255848152600290915260409020600801805490610cef906000198301611e12565b50505050565b6000610d0033610624565b1515610d0b57600080fd5b5060035490565b60009081526002602052604090206008015490565b6000610d3233610624565b1515610d3d57600080fd5b50805b60015460001901811015610da95760018054828201908110610d5e57fe5b90600052602060002001600182815481101515610d7757fe5b906000526020600020019080546001816001161561010002031660029004610da0929190611e8a565b50600101610d40565b600180546000198101908110610dbb57fe5b906000526020600020016000610dd19190611eff565b60018054906103b7906000198301611f43565b6060600080600060606000610dfa600a88611429565b600354909550610e0b90600a611462565b6003549094501580610e2257506003546000190185115b80610e2c57508387115b15610e36576112f5565b60408051600a80825261016082019092526000945090816020015b610e59611e36565b815260200190600190039081610e515790505091508490505b6003548110156112f15760026000600383815481101515610e8f57fe5b9060005260206000200154815260200190815260200160002061014060405190810160405290816000820154815260200160018201548152602001600282018054600181600116156101000203166002900480601f016020809104026020016040519081016040528092919081815260200182805460018160011615610100020316600290048015610f625780601f10610f3757610100808354040283529160200191610f62565b820191906000526020600020905b815481529060010190602001808311610f4557829003601f168201915b505050918352505060038201805460408051602060026001851615610100026000190190941693909304601f8101849004840282018401909252818152938201939291830182828015610ff65780601f10610fcb57610100808354040283529160200191610ff6565b820191906000526020600020905b815481529060010190602001808311610fd957829003601f168201915b505050918352505060048201805460408051602060026001851615610100026000190190941693909304601f810184900484028201840190925281815293820193929183018282801561108a5780601f1061105f5761010080835404028352916020019161108a565b820191906000526020600020905b81548152906001019060200180831161106d57829003601f168201915b505050918352505060058201805460408051602060026001851615610100026000190190941693909304601f810184900484028201840190925281815293820193929183018282801561111e5780601f106110f35761010080835404028352916020019161111e565b820191906000526020600020905b81548152906001019060200180831161110157829003601f168201915b505050918352505060068201805460408051602060026001851615610100026000190190941693909304601f81018490048402820184019092528181529382019392918301828280156111b25780601f10611187576101008083540402835291602001916111b2565b820191906000526020600020905b81548152906001019060200180831161119557829003601f168201915b505050505081526020016007820180548060200260200160405190810160405280929190818152602001828054801561120a57602002820191906000526020600020905b8154815260200190600101908083116111f6575b505050505081526020016008820180548060200260200160405190810160405280929190818152602001828054801561126257602002820191906000526020600020905b81548152602001906001019080831161124e575b50505050508152602001600982018054806020026020016040519081016040528092919081815260200182805480156112c457602002820191906000526020600020905b8154600160a060020a031681526001909101906020018083116112a6575b50505050508152505082848151811015156112db57fe5b6020908102909101015260019283019201610e72565b8195505b5050505050919050565b600091825260026020908152604083206008018054600181018255908452922090910155565b61132e33611485565b565b61133933610624565b151561134457600080fd5b61134d816114cd565b50565b6000908152600260205260408120541190565b60008061136f33610624565b151561137a57600080fd5b6000881161139d5760405160e560020a62461bcd0281526004016103ee906128f3565b6113a688611515565b600081815260026020526040902054909150156113d85760405160e560020a62461bcd0281526004016103ee906128a3565b6113e781898989898989611704565b979650505050505050565b6000600160a060020a038216151561140957600080fd5b50600160a060020a03166000908152602091909152604090205460ff1690565b60008083151561143c576000915061145b565b5082820282848281151561144c57fe5b041461145757600080fd5b8091505b5092915050565b60008080831161147157600080fd5b828481151561147c57fe5b04949350505050565b61149660008263ffffffff611cfa16565b604051600160a060020a038216907f3525e22824a8a7df2c9a6029941c824cf95b6447f1e13d5128fd3826d35afe8b90600090a250565b6114de60008263ffffffff611d4616565b604051600160a060020a038216907f47d1c22a25bb3a5d4e481b9b1e6944c2eade3181a0a20b495ed61d35b5323f2490600090a250565b60008080806002850615156115a75784604051602001808281526020019150506040516020818303038152906040526040518082805190602001908083835b602083106115735780518252601f199092019160209182019101611554565b6001836020036101000a03801982511681845116808217855250505050505090500191505060405180910390209250611692565b84604051602001808281526020019150506040516020818303038152906040526040518082805190602001908083835b602083106115f65780518252601f1990920191602091820191016115d7565b51815160209384036101000a600019018019909216911617905260408051929094018290038220828201528351808303820181529184019384905281519195509293508392850191508083835b602083106116625780518252601f199092019160209182019101611643565b6001836020036101000a038019825116818451168082178552505050505050905001915050604051809103902092505b60208110156116bf578281602081106116a757fe5b60f860020a91901a8102049190910190600101611692565b8260206002840106602081106116d157fe5b60f860020a91901a8102048360208406602081106116eb57fe5b1a60f860020a0260f860020a9004029350505050919050565b61170c611e36565b8551151561172f5760405160e560020a62461bcd0281526004016103ee906128e3565b825115156117525760405160e560020a62461bcd0281526004016103ee906128d3565b815115156117755760405160e560020a62461bcd0281526004016103ee906128c3565b6000888152600260208181526040928390208351610140810185528154815260018083015482850152828501805487519281161561010002600019011695909504601f810185900485028201850187528082529195929492860193909291908301828280156118255780601f106117fa57610100808354040283529160200191611825565b820191906000526020600020905b81548152906001019060200180831161180857829003601f168201915b505050918352505060038201805460408051602060026001851615610100026000190190941693909304601f81018490048402820184019092528181529382019392918301828280156118b95780601f1061188e576101008083540402835291602001916118b9565b820191906000526020600020905b81548152906001019060200180831161189c57829003601f168201915b505050918352505060048201805460408051602060026001851615610100026000190190941693909304601f810184900484028201840190925281815293820193929183018282801561194d5780601f106119225761010080835404028352916020019161194d565b820191906000526020600020905b81548152906001019060200180831161193057829003601f168201915b505050918352505060058201805460408051602060026001851615610100026000190190941693909304601f81018490048402820184019092528181529382019392918301828280156119e15780601f106119b6576101008083540402835291602001916119e1565b820191906000526020600020905b8154815290600101906020018083116119c457829003601f168201915b505050918352505060068201805460408051602060026001851615610100026000190190941693909304601f8101849004840282018401909252818152938201939291830182828015611a755780601f10611a4a57610100808354040283529160200191611a75565b820191906000526020600020905b815481529060010190602001808311611a5857829003601f168201915b5050505050815260200160078201805480602002602001604051908101604052809291908181526020018280548015611acd57602002820191906000526020600020905b815481526020019060010190808311611ab9575b5050505050815260200160088201805480602002602001604051908101604052809291908181526020018280548015611b2557602002820191906000526020600020905b815481526020019060010190808311611b11575b5050505050815260200160098201805480602002602001604051908101604052809291908181526020018280548015611b8757602002820191906000526020600020905b8154600160a060020a03168152600190910190602001808311611b69575b50505091909252505050888152602080820189815260408084018a8152606085018a90526080850189905260a0850188905260c0850187905260008d81526002808652929020855181559251600184015551805194955085949293611bf29392850192910190611d94565b5060608201518051611c0e916003840191602090910190611d94565b5060808201518051611c2a916004840191602090910190611d94565b5060a08201518051611c46916005840191602090910190611d94565b5060c08201518051611c62916006840191602090910190611d94565b5060e08201518051611c7e916007840191602090910190611f67565b506101008201518051611c9b916008840191602090910190611f67565b506101208201518051611cb8916009840191602090910190611fa1565b5050600380546001810182556000919091527fc2575a0e9e593c00f959f8c92f12db2869c3395a3b0502d05e2516446f71f85b01989098555050505050505050565b600160a060020a0381161515611d0f57600080fd5b611d1982826113f2565b1515611d2457600080fd5b600160a060020a0316600090815260209190915260409020805460ff19169055565b600160a060020a0381161515611d5b57600080fd5b611d6582826113f2565b15611d6f57600080fd5b600160a060020a0316600090815260209190915260409020805460ff19166001179055565b828054600181600116156101000203166002900490600052602060002090601f016020900481019282601f10611dd557805160ff1916838001178555611e02565b82800160010185558215611e02579182015b82811115611e02578251825591602001919060010190611de7565b50611e0e92915061200f565b5090565b8154818355818111156103b7576000838152602090206103b791810190830161200f565b61014060405190810160405280600081526020016000815260200160608152602001606081526020016060815260200160608152602001606081526020016060815260200160608152602001606081525090565b828054600181600116156101000203166002900490600052602060002090601f016020900481019282601f10611ec35780548555611e02565b82800160010185558215611e0257600052602060002091601f016020900482015b82811115611e02578254825591600101919060010190611ee4565b50805460018160011615610100020316600290046000825580601f10611f25575061134d565b601f01602090049060005260206000209081019061134d919061200f565b8154818355818111156103b7576000838152602090206103b7918101908301612029565b828054828255906000526020600020908101928215611e025791602002820182811115611e02578251825591602001919060010190611de7565b828054828255906000526020600020908101928215612003579160200282015b82811115612003578251825473ffffffffffffffffffffffffffffffffffffffff1916600160a060020a03909116178255602090920191600190910190611fc1565b50611e0e92915061204c565b61053091905b80821115611e0e5760008155600101612015565b61053091905b80821115611e0e5760006120438282611eff565b5060010161202f565b61053091905b80821115611e0e57805473ffffffffffffffffffffffffffffffffffffffff19168155600101612052565b6000612089823561296a565b9392505050565b6000601f820183136120a157600080fd5b81356120b46120af82612938565b612911565b915080825260208301602083018583830111156120d057600080fd5b6120db83828461297b565b50505092915050565b60006120898235610530565b60006020828403121561210257600080fd5b600061210e848461207d565b949350505050565b60006020828403121561212857600080fd5b813567ffffffffffffffff81111561213f57600080fd5b61210e84828501612090565b60006020828403121561215d57600080fd5b600061210e84846120e4565b60008060008060008060c0878903121561218257600080fd5b600061218e89896120e4565b965050602087013567ffffffffffffffff8111156121ab57600080fd5b6121b789828a01612090565b955050604087013567ffffffffffffffff8111156121d457600080fd5b6121e089828a01612090565b945050606087013567ffffffffffffffff8111156121fd57600080fd5b61220989828a01612090565b935050608087013567ffffffffffffffff81111561222657600080fd5b61223289828a01612090565b92505060a087013567ffffffffffffffff81111561224f57600080fd5b61225b89828a01612090565b9150509295509295509295565b6000806040838503121561227b57600080fd5b600061228785856120e4565b9250506020612298858286016120e4565b9150509250929050565b600080600080600080600060e0888a0312156122bd57600080fd5b60006122c98a8a6120e4565b97505060206122da8a828b016120e4565b965050604088013567ffffffffffffffff8111156122f757600080fd5b6123038a828b01612090565b955050606088013567ffffffffffffffff81111561232057600080fd5b61232c8a828b01612090565b945050608088013567ffffffffffffffff81111561234957600080fd5b6123558a828b01612090565b93505060a088013567ffffffffffffffff81111561237257600080fd5b61237e8a828b01612090565b92505060c088013567ffffffffffffffff81111561239b57600080fd5b6123a78a828b01612090565b91505092959891949750929550565b6123bf8161296a565b82525050565b60006123d082612966565b8084526020840193506123e283612960565b60005b82811015612412576123f88683516123b6565b61240182612960565b6020969096019591506001016123e5565b5093949350505050565b600061242782612966565b8084526020840193508360208202850161244085612960565b60005b8481101561247757838303885261245b838351612581565b925061246682612960565b602098909801979150600101612443565b50909695505050505050565b600061248e82612966565b808452602084019350836020820285016124a785612960565b60005b848110156124775783830388526124c2838351612736565b92506124cd82612960565b6020989098019791506001016124aa565b60006124e982612966565b8084526020840193506124fb83612960565b60005b8281101561241257612511868351612839565b61251a82612960565b6020969096019591506001016124fe565b600061253682612966565b80845260208401935061254883612960565b60005b828110156124125761255e868351612839565b61256782612960565b60209690960195915060010161254b565b6123bf81612976565b600061258c82612966565b8084526125a0816020860160208601612987565b6125a9816129b3565b9093016020019392505050565b601a81527f4372656174696f6e204461746520697320696e6d757461626c65000000000000602082015260400190565b601181527f6d656d626572206e6f7420657869737473000000000000000000000000000000602082015260400190565b601581527f4d656d62657220616c7265616479206578697374730000000000000000000000602082015260400190565b601181527f4d656d626572206e6f7420657869737473000000000000000000000000000000602082015260400190565b601281527f5468656d65206973206d616e6461746f72790000000000000000000000000000602082015260400190565b601081527f434d4f206973206d616e6461746f727900000000000000000000000000000000602082015260400190565b601181527f4e616d65206973206d616e6461746f7279000000000000000000000000000000602082015260400190565b601981527f4372656174696f6e44617465206973206d616e6461746f727900000000000000602082015260400190565b805160009061014084019061274b8582612839565b50602083015161275e6020860182612839565b50604083015184820360408601526127768282612581565b915050606083015184820360608601526127908282612581565b915050608083015184820360808601526127aa8282612581565b91505060a083015184820360a08601526127c48282612581565b91505060c083015184820360c08601526127de8282612581565b91505060e083015184820360e08601526127f8828261252b565b915050610100830151848203610100860152612814828261252b565b91505061012083015184820361012086015261283082826123c5565b95945050505050565b6123bf81610530565b60208082528101612089818461241c565b602080825281016120898184612483565b6020808252810161208981846124de565b602081016106368284612578565b60208082528101610636816125b6565b60208082528101610636816125e6565b6020808252810161063681612616565b6020808252810161063681612646565b6020808252810161063681612676565b60208082528101610636816126a6565b60208082528101610636816126d6565b6020808252810161063681612706565b602081016106368284612839565b60405181810167ffffffffffffffff8111828210171561293057600080fd5b604052919050565b600067ffffffffffffffff82111561294f57600080fd5b506020601f91909101601f19160190565b60200190565b5190565b600160a060020a031690565b151590565b82818337506000910152565b60005b838110156129a257818101518382015260200161298a565b83811115610cef5750506000910152565b601f01601f1916905600a265627a7a723058200bfeb8c87f5658c28beab454c387e2eccd98a049495fddaae0eaa0516eedc4086c6578706572696d656e74616cf50037",
  "source": "pragma solidity ^0.4.24;\npragma experimental ABIEncoderV2;\n\nimport \"./SafeMath.sol\";\nimport \"./random.sol\";\nimport \"./Registry.sol\";\n\ncontract Members is Random, Registry {\n\n  struct Member { \n    uint256 memberId;\n    uint256 creationDate;\n    string name;\n    string logo;\n    string country;\n    string cmo;\n    string theme;\n    uint256[] claimInbox;\n    uint256[] claims;\n    address[] userRequests;\n//    string group;\n  }\n\n  uint256 constant private PAGE_SIZE = 10;\n\n  mapping (uint256 => Member) private members_;\n\n  uint256[] private membersList_;\n\n  // METHODS\n\n  // Public\n\n  function addMember(uint256 _creationDate, string _name, string _logo, string _country, string _cmo, string _theme) onlySigner public returns(uint) {\n    //  string _group) onlySigner public returns(uint) {\n    require(_creationDate > 0, \"CreationDate is mandatory\");\n    uint256 _memberId = Random.rand(_creationDate);\n    require(members_[_memberId].memberId == 0, \"Member already exists\");\n    _saveMember(_memberId, _creationDate, _name, _logo, _country, _cmo, _theme);\n//    members_[_memberId].group = _group;\n    return _memberId;\n  }\n\n  function updateMember(uint256 _memberId, uint256 _creationDate, string _name, string _logo, string _country, string _cmo, string _theme) onlySigner public {\n  // , string _group) onlySigner public {\n    require(members_[_memberId].memberId > 0, \"Member not exists\");\n    require(members_[_memberId].creationDate == _creationDate, \"Creation Date is inmutable\");\n//    _saveMember(_memberId, _creationDate, _name, _logo, _country, _cmo, _theme);\n//    members_[_memberId].group = _group;\n    members_[_memberId].name = _name;\n    members_[_memberId].theme = _theme;\n  }\n\n  function getMembers() public view returns (Member[] memory) {\n    Member[] memory memberPage = new Member[](membersList_.length);\n    for (uint i = 0; i < membersList_.length; ++i) {\n        memberPage[i] = members_[membersList_[i]];\n    }\n    return memberPage;\n  }\n\n  function getMembers(uint _page) public view returns (Member[] memory) {\n    uint256 pageIndex = SafeMath.mul(PAGE_SIZE, _page);\n    uint256 pageNumber = SafeMath.div(membersList_.length, PAGE_SIZE);\n\n    if (membersList_.length == 0 || pageIndex > membersList_.length - 1 || _page > pageNumber) {\n      return;\n    }\n\n    // Insert items filtered into array.\n    uint256 resultCount = 0;\n    Member[] memory memberPage = new Member[](PAGE_SIZE);\n    for(uint j = pageIndex; j < membersList_.length; ++j) {\n        memberPage[resultCount] = members_[membersList_[j]];\n        ++resultCount;\n    }\n    return memberPage;\n  }\n\n  function getCount() onlySigner public view returns (uint256) {\n    return membersList_.length;\n  }\n\n  // Private\n\n  function _saveMember(uint256 _memberId, uint256 _creationDate, string _name, string _logo, string _country, string _cmo, string _theme) internal {\n\n    require(bytes(_name).length != 0, \"Name is mandatory\");\n    require(bytes(_cmo).length != 0, \"CMO is mandatory\");\n    require(bytes(_theme).length != 0, \"Theme is mandatory\");\n\n    Member memory member = members_[_memberId];\n    member.memberId = _memberId;\n    member.creationDate = _creationDate;\n    member.name = _name;\n    member.logo = _logo;\n    member.country = _country;\n    member.cmo = _cmo;\n    member.theme = _theme;\n\n    members_[_memberId] = member;\n    membersList_.push(_memberId);\n\n  }\n\n  function _getClaimsIdByMember(uint _memberId) public view returns(uint[])  {\n    require(members_[_memberId].memberId > 0, \"member not exists\");\n    return members_[_memberId].claims;\n  }\n\n  function _getClaimsCountByMember(uint _memberId) public view returns(uint) {\n    return members_[_memberId].claims.length;\n  }\n\n  function _addUserToMemberRequest(uint _memberId) internal {\n    members_[_memberId].userRequests.push(msg.sender);\n  }\n\n  function _addClaimIdToMemberOwner(uint _memberId, uint _claimId) public {\n    members_[_memberId].claims.push(_claimId);\n  }\n\n  function _removeClaimIdFromMember(uint _memberId, uint _claimId) public {\n//    _rP(_memberId, _claimId);\n//  }\n//\n//  function _rP(uint _memberId, uint _claimId) private {\n    uint claimCount = members_[_memberId].claims.length;\n    if (claimCount > 0) { // require(claimCount > 0, \"not enough claims in member\");\n      members_[_memberId].claims[_claimId] = members_[_memberId].claims[claimCount-1];\n      members_[_memberId].claims[claimCount-1] = _claimId;\n      members_[_memberId].claims.length--;\n    }\n  }\n\n  function _addClaimFromInbox(uint _memberId, uint _claimId) public {\n    members_[_memberId].claimInbox.push(_claimId);\n  }\n\n  function _memberExists(uint _memberId) public view returns(bool) {\n    return members_[_memberId].memberId > 0;\n  }\n\n  function _removeClaimFromInbox(uint _memberId, uint _claimId) public {\n    bool found = false;\n    // Remove index\n    for (uint j = 0; j < members_[_memberId].claimInbox.length - 1; j++) {\n      if(members_[_memberId].claimInbox[j] == _claimId) {\n        found = true;\n      }\n      if(found) {\n        members_[_memberId].claimInbox[j] = members_[_memberId].claimInbox[j + 1];\n      }\n    }\n    delete members_[_memberId].claimInbox[members_[_memberId].claimInbox.length - 1];\n    members_[_memberId].claimInbox.length--;\n  }\n\n  function _clearUserFromMemberRequest(uint _memberId, address userAddress) internal {\n     bool found = false;\n    // Remove index\n    for (uint j = 0; j < members_[_memberId].userRequests.length - 1; j++) {\n      if(members_[_memberId].userRequests[j] == userAddress) {\n        found = true;\n      }\n      if(found) {\n        members_[_memberId].userRequests[j] = members_[_memberId].userRequests[j + 1];\n      }\n    }\n    delete members_[_memberId].userRequests[members_[_memberId].userRequests.length - 1];\n    members_[_memberId].userRequests.length--;\n  }\n\n}",
  "sourcePath": "/home/komodo/newUI2/bloomen-decentralized-rights-management-v2/truffle/contracts/registry/Members.sol",
  "compiler": {
    "name": "solc",
    "version": "0.4.24+commit.e67f0147.Emscripten.clang"
  },
  "schemaVersion": "2.0.1",
  "updatedAt": "2020-01-30T14:43:45.507Z"
}