{
  "contractName": "Members",
  "abi": [
    {
      "constant": false,
      "inputs": [
        {
          "name": "_cmo",
          "type": "string"
        }
      ],
      "name": "addCMO",
      "outputs": [],
      "payable": false,
      "stateMutability": "nonpayable",
      "type": "function"
    },
    {
      "constant": true,
      "inputs": [],
      "name": "getCMOs",
      "outputs": [
        {
          "name": "",
          "type": "string[]"
        }
      ],
      "payable": false,
      "stateMutability": "view",
      "type": "function"
    },
    {
      "constant": true,
      "inputs": [
        {
          "name": "account",
          "type": "address"
        }
      ],
      "name": "isSigner",
      "outputs": [
        {
          "name": "",
          "type": "bool"
        }
      ],
      "payable": false,
      "stateMutability": "view",
      "type": "function"
    },
    {
      "constant": false,
      "inputs": [
        {
          "name": "_index",
          "type": "uint256"
        }
      ],
      "name": "deleteCMO",
      "outputs": [],
      "payable": false,
      "stateMutability": "nonpayable",
      "type": "function"
    },
    {
      "constant": false,
      "inputs": [],
      "name": "renounceSigner",
      "outputs": [],
      "payable": false,
      "stateMutability": "nonpayable",
      "type": "function"
    },
    {
      "constant": false,
      "inputs": [
        {
          "name": "account",
          "type": "address"
        }
      ],
      "name": "addSigner",
      "outputs": [],
      "payable": false,
      "stateMutability": "nonpayable",
      "type": "function"
    },
    {
      "anonymous": false,
      "inputs": [
        {
          "indexed": true,
          "name": "account",
          "type": "address"
        }
      ],
      "name": "SignerAdded",
      "type": "event"
    },
    {
      "anonymous": false,
      "inputs": [
        {
          "indexed": true,
          "name": "account",
          "type": "address"
        }
      ],
      "name": "SignerRemoved",
      "type": "event"
    },
    {
      "constant": false,
      "inputs": [
        {
          "name": "_creationDate",
          "type": "uint256"
        },
        {
          "name": "_name",
          "type": "string"
        },
        {
          "name": "_logo",
          "type": "string"
        },
        {
          "name": "_country",
          "type": "string"
        },
        {
          "name": "_cmo",
          "type": "string"
        },
        {
          "name": "_theme",
          "type": "string"
        }
      ],
      "name": "addMember",
      "outputs": [
        {
          "name": "",
          "type": "uint256"
        }
      ],
      "payable": false,
      "stateMutability": "nonpayable",
      "type": "function"
    },
    {
      "constant": false,
      "inputs": [
        {
          "name": "_memberId",
          "type": "uint256"
        },
        {
          "name": "_creationDate",
          "type": "uint256"
        },
        {
          "name": "_name",
          "type": "string"
        },
        {
          "name": "_logo",
          "type": "string"
        },
        {
          "name": "_country",
          "type": "string"
        },
        {
          "name": "_cmo",
          "type": "string"
        },
        {
          "name": "_theme",
          "type": "string"
        },
        {
          "name": "_totalTokens",
          "type": "uint256"
        }
      ],
      "name": "updateMember",
      "outputs": [],
      "payable": false,
      "stateMutability": "nonpayable",
      "type": "function"
    },
    {
      "constant": true,
      "inputs": [],
      "name": "getMembers",
      "outputs": [
        {
          "components": [
            {
              "name": "memberId",
              "type": "uint256"
            },
            {
              "name": "creationDate",
              "type": "uint256"
            },
            {
              "name": "name",
              "type": "string"
            },
            {
              "name": "logo",
              "type": "string"
            },
            {
              "name": "country",
              "type": "string"
            },
            {
              "name": "cmo",
              "type": "string"
            },
            {
              "name": "theme",
              "type": "string"
            },
            {
              "name": "claimInbox",
              "type": "uint256[]"
            },
            {
              "name": "claims",
              "type": "uint256[]"
            },
            {
              "name": "userRequests",
              "type": "address[]"
            },
            {
              "name": "totalTokens",
              "type": "uint256"
            }
          ],
          "name": "",
          "type": "tuple[]"
        }
      ],
      "payable": false,
      "stateMutability": "view",
      "type": "function"
    },
    {
      "constant": true,
      "inputs": [
        {
          "name": "_page",
          "type": "uint256"
        }
      ],
      "name": "getMembers",
      "outputs": [
        {
          "components": [
            {
              "name": "memberId",
              "type": "uint256"
            },
            {
              "name": "creationDate",
              "type": "uint256"
            },
            {
              "name": "name",
              "type": "string"
            },
            {
              "name": "logo",
              "type": "string"
            },
            {
              "name": "country",
              "type": "string"
            },
            {
              "name": "cmo",
              "type": "string"
            },
            {
              "name": "theme",
              "type": "string"
            },
            {
              "name": "claimInbox",
              "type": "uint256[]"
            },
            {
              "name": "claims",
              "type": "uint256[]"
            },
            {
              "name": "userRequests",
              "type": "address[]"
            },
            {
              "name": "totalTokens",
              "type": "uint256"
            }
          ],
          "name": "",
          "type": "tuple[]"
        }
      ],
      "payable": false,
      "stateMutability": "view",
      "type": "function"
    },
    {
      "constant": true,
      "inputs": [],
      "name": "getCount",
      "outputs": [
        {
          "name": "",
          "type": "uint256"
        }
      ],
      "payable": false,
      "stateMutability": "view",
      "type": "function"
    },
    {
      "constant": false,
      "inputs": [
        {
          "name": "currentCMO",
          "type": "string"
        },
        {
          "name": "currentCMOId",
          "type": "uint256"
        }
      ],
      "name": "_getMemberIdsOfCurrentCMO",
      "outputs": [
        {
          "name": "",
          "type": "uint256[]"
        }
      ],
      "payable": false,
      "stateMutability": "nonpayable",
      "type": "function"
    },
    {
      "constant": true,
      "inputs": [
        {
          "name": "_memberId",
          "type": "uint256"
        }
      ],
      "name": "_getClaimsIdByMember",
      "outputs": [
        {
          "name": "",
          "type": "uint256[]"
        }
      ],
      "payable": false,
      "stateMutability": "view",
      "type": "function"
    },
    {
      "constant": true,
      "inputs": [
        {
          "name": "_memberId",
          "type": "uint256"
        }
      ],
      "name": "_getClaimsCountByMember",
      "outputs": [
        {
          "name": "",
          "type": "uint256"
        }
      ],
      "payable": false,
      "stateMutability": "view",
      "type": "function"
    },
    {
      "constant": false,
      "inputs": [
        {
          "name": "_memberId",
          "type": "uint256"
        },
        {
          "name": "_claimId",
          "type": "uint256"
        }
      ],
      "name": "_addClaimIdToMemberOwner",
      "outputs": [],
      "payable": false,
      "stateMutability": "nonpayable",
      "type": "function"
    },
    {
      "constant": false,
      "inputs": [
        {
          "name": "_memberId",
          "type": "uint256"
        },
        {
          "name": "_claimId",
          "type": "uint256"
        }
      ],
      "name": "_removeClaimIdFromMember2",
      "outputs": [],
      "payable": false,
      "stateMutability": "nonpayable",
      "type": "function"
    },
    {
      "constant": false,
      "inputs": [
        {
          "name": "_memberId",
          "type": "uint256"
        },
        {
          "name": "_claimId",
          "type": "uint256"
        }
      ],
      "name": "_removeClaimIdFromMember",
      "outputs": [],
      "payable": false,
      "stateMutability": "nonpayable",
      "type": "function"
    },
    {
      "constant": false,
      "inputs": [
        {
          "name": "_memberId",
          "type": "uint256"
        },
        {
          "name": "_claimId",
          "type": "uint256"
        }
      ],
      "name": "_addClaimFromInbox",
      "outputs": [],
      "payable": false,
      "stateMutability": "nonpayable",
      "type": "function"
    },
    {
      "constant": true,
      "inputs": [
        {
          "name": "_memberId",
          "type": "uint256"
        }
      ],
      "name": "_memberExists",
      "outputs": [
        {
          "name": "",
          "type": "bool"
        }
      ],
      "payable": false,
      "stateMutability": "view",
      "type": "function"
    },
    {
      "constant": false,
      "inputs": [
        {
          "name": "_memberId",
          "type": "uint256"
        },
        {
          "name": "_claimId",
          "type": "uint256"
        }
      ],
      "name": "_removeClaimFromInbox",
      "outputs": [],
      "payable": false,
      "stateMutability": "nonpayable",
      "type": "function"
    }
  ],
  "bytecode": "0x608060405260006003556200001d3364010000000062000023810204565b62000108565b6200003e60008264010000000062001f046200007582021704565b604051600160a060020a038216907f47d1c22a25bb3a5d4e481b9b1e6944c2eade3181a0a20b495ed61d35b5323f2490600090a250565b600160a060020a03811615156200008b57600080fd5b620000a08282640100000000620000d0810204565b15620000ab57600080fd5b600160a060020a0316600090815260209190915260409020805460ff19166001179055565b6000600160a060020a0382161515620000e857600080fd5b50600160a060020a03166000908152602091909152604090205460ff1690565b612c1c80620001186000396000f3006080604052600436106101115763ffffffff7c01000000000000000000000000000000000000000000000000000000006000350416633a59ccf181146101165780636262dff614610138578063656d561c1461016e57806374853239146101905780637df73e27146101b05780638b92892b146101dd578063989359df146101fd5780639eab52531461021d578063a29d441f1461023f578063a87d942c1461025f578063abc48feb14610281578063affccd84146102a1578063bf3d007e146102c1578063c477ecab146102e1578063d68dee9d14610301578063e2c11f9e14610321578063e5c8b03d14610341578063eb12d61e14610356578063f838073314610376578063fa1188c614610396575b600080fd5b34801561012257600080fd5b506101366101313660046122db565b6103b6565b005b34801561014457600080fd5b50610158610153366004612361565b610412565b6040516101659190612a89565b60405180910390f35b34801561017a57600080fd5b506101836104b0565b6040516101659190612a67565b34801561019c57600080fd5b506101366101ab36600461247e565b610589565b3480156101bc57600080fd5b506101d06101cb3660046122b5565b6105af565b6040516101659190612a9a565b3480156101e957600080fd5b506101366101f836600461247e565b6105c7565b34801561020957600080fd5b50610158610218366004612310565b6106e5565b34801561022957600080fd5b506102326108d6565b6040516101659190612a78565b34801561024b57600080fd5b5061013661025a36600461247e565b610dad565b34801561026b57600080fd5b50610274610ebd565b6040516101659190612b28565b34801561028d57600080fd5b5061013661029c36600461247e565b610eda565b3480156102ad57600080fd5b506102746102bc366004612361565b610fa9565b3480156102cd57600080fd5b506101366102dc366004612361565b610fbe565b3480156102ed57600080fd5b506102326102fc366004612361565b61107b565b34801561030d57600080fd5b5061013661031c36600461249d565b6115a0565b34801561032d57600080fd5b5061013661033c36600461247e565b611680565b34801561034d57600080fd5b506101366116a6565b34801561036257600080fd5b506101366103713660046122b5565b6116b1565b34801561038257600080fd5b506101d0610391366004612361565b6116d1565b3480156103a257600080fd5b506102746103b136600461237f565b6116e4565b6103bf336105af565b15156103ca57600080fd5b60018054808201808355600092909252825161040d917fb10e2d527612073b26eecdfd717e6a320cf44b4afac2b0732d9fcbe2b7fa0cf601906020850190611f52565b505050565b6000818152600260205260408120546060911061044d5760405160e560020a62461bcd02815260040161044490612ab8565b60405180910390fd5b600082815260026020908152604091829020600801805483518184028101840190945280845290918301828280156104a457602002820191906000526020600020905b815481526020019060010190808311610490575b50505050509050919050565b60606001805480602002602001604051908101604052809291908181526020016000905b8282101561057f5760008481526020908190208301805460408051601f600260001961010060018716150201909416939093049283018590048502810185019091528181529283018282801561056b5780601f106105405761010080835404028352916020019161056b565b820191906000526020600020905b81548152906001019060200180831161054e57829003601f168201915b5050505050815260200190600101906104d4565b5050505090505b90565b600091825260026020908152604083206007018054600181018255908452922090910155565b60006105c1818363ffffffff61178a16565b92915050565b6000805b6000848152600260205260409020600701546000190181101561068757600084815260026020526040902060070180548491908390811061060857fe5b9060005260206000200154141561061e57600191505b811561067f57600084815260026020526040902060070180546001830190811061064457fe5b9060005260206000200154600260008681526020019081526020016000206007018281548110151561067257fe5b6000918252602090912001555b6001016105cb565b81156106df576000848152600260205260409020600701805460001981019081106106ae57fe5b6000918252602080832090910182905585825260029052604090206007018054906106dd906000198301611fd0565b505b50505050565b60606000805b60045481101561088057846040518082805190602001908083835b602083106107255780518252601f199092019160209182019101610706565b6001836020036101000a0380198251168184511680821785525050505050509050019150506040518091039020600019166002600060048481548110151561076957fe5b9060005260206000200154815260200190815260200160002060050160405180828054600181600116156101000203166002900480156107e05780601f106107be5761010080835404028352918201916107e0565b820191906000526020600020905b8154815290600101906020018083116107cc575b505091505060405180910390206000191614801561082d5750836002600060048481548110151561080d57fe5b906000526020600020015481526020019081526020016000206000015414155b1561087857816002600060048481548110151561084657fe5b600091825260208083209091015483528281019390935260409091018120548354600181018555938252919020909101555b6001016106eb565b8154604080516020808402820181019092528281529184918301828280156108c757602002820191906000526020600020905b8154815260200190600101908083116108b3575b50505050509250505092915050565b606080600060048054905060405190808252806020026020018201604052801561091a57816020015b610907611ff4565b8152602001906001900390816108ff5790505b509150600090505b600454811015610da7576002600060048381548110151561093f57fe5b9060005260206000200154815260200190815260200160002061016060405190810160405290816000820154815260200160018201548152602001600282018054600181600116156101000203166002900480601f016020809104026020016040519081016040528092919081815260200182805460018160011615610100020316600290048015610a125780601f106109e757610100808354040283529160200191610a12565b820191906000526020600020905b8154815290600101906020018083116109f557829003601f168201915b505050918352505060038201805460408051602060026001851615610100026000190190941693909304601f8101849004840282018401909252818152938201939291830182828015610aa65780601f10610a7b57610100808354040283529160200191610aa6565b820191906000526020600020905b815481529060010190602001808311610a8957829003601f168201915b505050918352505060048201805460408051602060026001851615610100026000190190941693909304601f8101849004840282018401909252818152938201939291830182828015610b3a5780601f10610b0f57610100808354040283529160200191610b3a565b820191906000526020600020905b815481529060010190602001808311610b1d57829003601f168201915b505050918352505060058201805460408051602060026001851615610100026000190190941693909304601f8101849004840282018401909252818152938201939291830182828015610bce5780601f10610ba357610100808354040283529160200191610bce565b820191906000526020600020905b815481529060010190602001808311610bb157829003601f168201915b505050918352505060068201805460408051602060026001851615610100026000190190941693909304601f8101849004840282018401909252818152938201939291830182828015610c625780601f10610c3757610100808354040283529160200191610c62565b820191906000526020600020905b815481529060010190602001808311610c4557829003601f168201915b5050505050815260200160078201805480602002602001604051908101604052809291908181526020018280548015610cba57602002820191906000526020600020905b815481526020019060010190808311610ca6575b5050505050815260200160088201805480602002602001604051908101604052809291908181526020018280548015610d1257602002820191906000526020600020905b815481526020019060010190808311610cfe575b5050505050815260200160098201805480602002602001604051908101604052809291908181526020018280548015610d7457602002820191906000526020600020905b8154600160a060020a03168152600190910190602001808311610d56575b50505050508152602001600a820154815250508282815181101515610d9557fe5b60209081029091010152600101610922565b50919050565b6000805b60008481526002602052604090206008015460001901811015610e6d576000848152600260205260409020600801805484919083908110610dee57fe5b90600052602060002001541415610e0457600191505b8115610e65576000848152600260205260409020600801805460018301908110610e2a57fe5b90600052602060002001546002600086815260200190815260200160002060080182815481101515610e5857fe5b6000918252602090912001555b600101610db1565b600084815260026020526040902060080180546000198101908110610e8e57fe5b6000918252602080832090910182905585825260029052604090206008018054906106dd906000198301611fd0565b6000610ec8336105af565b1515610ed357600080fd5b5060045490565b6000828152600260205260408120600801549081111561040d57600083815260026020526040902060080180546000198301908110610f1557fe5b90600052602060002001546002600085815260200190815260200160002060080183815481101515610f4357fe5b9060005260206000200181905550816002600085815260200190815260200160002060080160018303815481101515610f7857fe5b60009182526020808320909101929092558481526002909152604090206008018054906106df906000198301611fd0565b60009081526002602052604090206008015490565b6000610fc9336105af565b1515610fd457600080fd5b50805b600154600019018110156110405760018054828201908110610ff557fe5b9060005260206000200160018281548110151561100e57fe5b90600052602060002001908054600181600116156101000203166002900461103792919061204f565b50600101610fd7565b60018054600019810190811061105257fe5b90600052602060002001600061106891906120c4565b600180549061040d906000198301612108565b6060600080600060606000611091600a886117c1565b6004549095506110a290600a6117fa565b60045490945015806110b957506004546000190185115b806110c357508387115b156110cd57611596565b60408051600a80825261016082019092526000945090816020015b6110f0611ff4565b8152602001906001900390816110e85790505091508490505b600454811015611592576002600060048381548110151561112657fe5b9060005260206000200154815260200190815260200160002061016060405190810160405290816000820154815260200160018201548152602001600282018054600181600116156101000203166002900480601f0160208091040260200160405190810160405280929190818152602001828054600181600116156101000203166002900480156111f95780601f106111ce576101008083540402835291602001916111f9565b820191906000526020600020905b8154815290600101906020018083116111dc57829003601f168201915b505050918352505060038201805460408051602060026001851615610100026000190190941693909304601f810184900484028201840190925281815293820193929183018282801561128d5780601f106112625761010080835404028352916020019161128d565b820191906000526020600020905b81548152906001019060200180831161127057829003601f168201915b505050918352505060048201805460408051602060026001851615610100026000190190941693909304601f81018490048402820184019092528181529382019392918301828280156113215780601f106112f657610100808354040283529160200191611321565b820191906000526020600020905b81548152906001019060200180831161130457829003601f168201915b505050918352505060058201805460408051602060026001851615610100026000190190941693909304601f81018490048402820184019092528181529382019392918301828280156113b55780601f1061138a576101008083540402835291602001916113b5565b820191906000526020600020905b81548152906001019060200180831161139857829003601f168201915b505050918352505060068201805460408051602060026001851615610100026000190190941693909304601f81018490048402820184019092528181529382019392918301828280156114495780601f1061141e57610100808354040283529160200191611449565b820191906000526020600020905b81548152906001019060200180831161142c57829003601f168201915b50505050508152602001600782018054806020026020016040519081016040528092919081815260200182805480156114a157602002820191906000526020600020905b81548152602001906001019080831161148d575b50505050508152602001600882018054806020026020016040519081016040528092919081815260200182805480156114f957602002820191906000526020600020905b8154815260200190600101908083116114e5575b505050505081526020016009820180548060200260200160405190810160405280929190818152602001828054801561155b57602002820191906000526020600020905b8154600160a060020a0316815260019091019060200180831161153d575b50505050508152602001600a82015481525050828481518110151561157c57fe5b6020908102909101015260019283019201611109565b8195505b5050505050919050565b6115a9336105af565b15156115b457600080fd5b600088815260026020526040812054116115e35760405160e560020a62461bcd02815260040161044490612ad8565b60008881526002602052604090206001015487146116165760405160e560020a62461bcd02815260040161044490612aa8565b6000888152600260208181526040909220885161163b93919092019190890190611f52565b506000888152600260209081526040909120835161166192600690920191850190611f52565b50600097885260026020526040909720600a0196909655505050505050565b600091825260026020908152604083206008018054600181018255908452922090910155565b6116af3361181d565b565b6116ba336105af565b15156116c557600080fd5b6116ce81611865565b50565b6000908152600260205260408120541190565b6000806116f0336105af565b15156116fb57600080fd5b6000881161171e5760405160e560020a62461bcd02815260040161044490612b18565b506003805460010190819055600081815260026020526040902054156117595760405160e560020a62461bcd02815260040161044490612ac8565b611768818989898989896118ad565b60008181526002602052604090206103e8600a90910155979650505050505050565b6000600160a060020a03821615156117a157600080fd5b50600160a060020a03166000908152602091909152604090205460ff1690565b6000808315156117d457600091506117f3565b508282028284828115156117e457fe5b04146117ef57600080fd5b8091505b5092915050565b60008080831161180957600080fd5b828481151561181457fe5b04949350505050565b61182e60008263ffffffff611eb816565b604051600160a060020a038216907f3525e22824a8a7df2c9a6029941c824cf95b6447f1e13d5128fd3826d35afe8b90600090a250565b61187660008263ffffffff611f0416565b604051600160a060020a038216907f47d1c22a25bb3a5d4e481b9b1e6944c2eade3181a0a20b495ed61d35b5323f2490600090a250565b6118b5611ff4565b855115156118d85760405160e560020a62461bcd02815260040161044490612b08565b825115156118fb5760405160e560020a62461bcd02815260040161044490612af8565b8151151561191e5760405160e560020a62461bcd02815260040161044490612ae8565b6000888152600260208181526040928390208351610160810185528154815260018083015482850152828501805487519281161561010002600019011695909504601f810185900485028201850187528082529195929492860193909291908301828280156119ce5780601f106119a3576101008083540402835291602001916119ce565b820191906000526020600020905b8154815290600101906020018083116119b157829003601f168201915b505050918352505060038201805460408051602060026001851615610100026000190190941693909304601f8101849004840282018401909252818152938201939291830182828015611a625780601f10611a3757610100808354040283529160200191611a62565b820191906000526020600020905b815481529060010190602001808311611a4557829003601f168201915b505050918352505060048201805460408051602060026001851615610100026000190190941693909304601f8101849004840282018401909252818152938201939291830182828015611af65780601f10611acb57610100808354040283529160200191611af6565b820191906000526020600020905b815481529060010190602001808311611ad957829003601f168201915b505050918352505060058201805460408051602060026001851615610100026000190190941693909304601f8101849004840282018401909252818152938201939291830182828015611b8a5780601f10611b5f57610100808354040283529160200191611b8a565b820191906000526020600020905b815481529060010190602001808311611b6d57829003601f168201915b505050918352505060068201805460408051602060026001851615610100026000190190941693909304601f8101849004840282018401909252818152938201939291830182828015611c1e5780601f10611bf357610100808354040283529160200191611c1e565b820191906000526020600020905b815481529060010190602001808311611c0157829003601f168201915b5050505050815260200160078201805480602002602001604051908101604052809291908181526020018280548015611c7657602002820191906000526020600020905b815481526020019060010190808311611c62575b5050505050815260200160088201805480602002602001604051908101604052809291908181526020018280548015611cce57602002820191906000526020600020905b815481526020019060010190808311611cba575b5050505050815260200160098201805480602002602001604051908101604052809291908181526020018280548015611d3057602002820191906000526020600020905b8154600160a060020a03168152600190910190602001808311611d12575b5050509183525050600a919091015460209182015289825281810189815260408084018a8152606085018a90526080850189905260a0850188905260c0850187905260008d81526002808652929020855181559251600184015551805194955085949293611da49392850192910190611f52565b5060608201518051611dc0916003840191602090910190611f52565b5060808201518051611ddc916004840191602090910190611f52565b5060a08201518051611df8916005840191602090910190611f52565b5060c08201518051611e14916006840191602090910190611f52565b5060e08201518051611e3091600784019160209091019061212c565b506101008201518051611e4d91600884019160209091019061212c565b506101208201518051611e6a916009840191602090910190612166565b506101409190910151600a909101555050600480546001810182556000919091527f8a35acfbc15ff81a39ae7d344fd709f28e8600b4aa8c65c6b64bfe7fe36bd19b01959095555050505050565b600160a060020a0381161515611ecd57600080fd5b611ed7828261178a565b1515611ee257600080fd5b600160a060020a0316600090815260209190915260409020805460ff19169055565b600160a060020a0381161515611f1957600080fd5b611f23828261178a565b15611f2d57600080fd5b600160a060020a0316600090815260209190915260409020805460ff19166001179055565b828054600181600116156101000203166002900490600052602060002090601f016020900481019282601f10611f9357805160ff1916838001178555611fc0565b82800160010185558215611fc0579182015b82811115611fc0578251825591602001919060010190611fa5565b50611fcc9291506121d4565b5090565b81548183558181111561040d5760008381526020902061040d9181019083016121d4565b6101606040519081016040528060008152602001600081526020016060815260200160608152602001606081526020016060815260200160608152602001606081526020016060815260200160608152602001600081525090565b828054600181600116156101000203166002900490600052602060002090601f016020900481019282601f106120885780548555611fc0565b82800160010185558215611fc057600052602060002091601f016020900482015b82811115611fc05782548255916001019190600101906120a9565b50805460018160011615610100020316600290046000825580601f106120ea57506116ce565b601f0160209004906000526020600020908101906116ce91906121d4565b81548183558181111561040d5760008381526020902061040d9181019083016121ee565b828054828255906000526020600020908101928215611fc05791602002820182811115611fc0578251825591602001919060010190611fa5565b8280548282559060005260206000209081019282156121c8579160200282015b828111156121c8578251825473ffffffffffffffffffffffffffffffffffffffff1916600160a060020a03909116178255602090920191600190910190612186565b50611fcc929150612211565b61058691905b80821115611fcc57600081556001016121da565b61058691905b80821115611fcc57600061220882826120c4565b506001016121f4565b61058691905b80821115611fcc57805473ffffffffffffffffffffffffffffffffffffffff19168155600101612217565b600061224e8235612b8f565b9392505050565b6000601f8201831361226657600080fd5b813561227961227482612b5d565b612b36565b9150808252602083016020830185838301111561229557600080fd5b6122a0838284612ba0565b50505092915050565b600061224e8235610586565b6000602082840312156122c757600080fd5b60006122d38484612242565b949350505050565b6000602082840312156122ed57600080fd5b813567ffffffffffffffff81111561230457600080fd5b6122d384828501612255565b6000806040838503121561232357600080fd5b823567ffffffffffffffff81111561233a57600080fd5b61234685828601612255565b9250506020612357858286016122a9565b9150509250929050565b60006020828403121561237357600080fd5b60006122d384846122a9565b60008060008060008060c0878903121561239857600080fd5b60006123a489896122a9565b965050602087013567ffffffffffffffff8111156123c157600080fd5b6123cd89828a01612255565b955050604087013567ffffffffffffffff8111156123ea57600080fd5b6123f689828a01612255565b945050606087013567ffffffffffffffff81111561241357600080fd5b61241f89828a01612255565b935050608087013567ffffffffffffffff81111561243c57600080fd5b61244889828a01612255565b92505060a087013567ffffffffffffffff81111561246557600080fd5b61247189828a01612255565b9150509295509295509295565b6000806040838503121561249157600080fd5b600061234685856122a9565b600080600080600080600080610100898b0312156124ba57600080fd5b60006124c68b8b6122a9565b98505060206124d78b828c016122a9565b975050604089013567ffffffffffffffff8111156124f457600080fd5b6125008b828c01612255565b965050606089013567ffffffffffffffff81111561251d57600080fd5b6125298b828c01612255565b955050608089013567ffffffffffffffff81111561254657600080fd5b6125528b828c01612255565b94505060a089013567ffffffffffffffff81111561256f57600080fd5b61257b8b828c01612255565b93505060c089013567ffffffffffffffff81111561259857600080fd5b6125a48b828c01612255565b92505060e06125b58b828c016122a9565b9150509295985092959890939650565b6125ce81612b8f565b82525050565b60006125df82612b8b565b8084526020840193506125f183612b85565b60005b82811015612621576126078683516125c5565b61261082612b85565b6020969096019591506001016125f4565b5093949350505050565b600061263682612b8b565b8084526020840193508360208202850161264f85612b85565b60005b8481101561268657838303885261266a838351612790565b925061267582612b85565b602098909801979150600101612652565b50909695505050505050565b600061269d82612b8b565b808452602084019350836020820285016126b685612b85565b60005b848110156126865783830388526126d1838351612945565b92506126dc82612b85565b6020989098019791506001016126b9565b60006126f882612b8b565b80845260208401935061270a83612b85565b60005b8281101561262157612720868351612a5e565b61272982612b85565b60209690960195915060010161270d565b600061274582612b8b565b80845260208401935061275783612b85565b60005b828110156126215761276d868351612a5e565b61277682612b85565b60209690960195915060010161275a565b6125ce81612b9b565b600061279b82612b8b565b8084526127af816020860160208601612bac565b6127b881612bd8565b9093016020019392505050565b601a81527f4372656174696f6e204461746520697320696d6d757461626c65000000000000602082015260400190565b601181527f6d656d626572206e6f7420657869737473000000000000000000000000000000602082015260400190565b601581527f4d656d62657220616c7265616479206578697374730000000000000000000000602082015260400190565b601181527f4d656d626572206e6f7420657869737473000000000000000000000000000000602082015260400190565b601281527f5468656d65206973206d616e6461746f72790000000000000000000000000000602082015260400190565b601081527f434d4f206973206d616e6461746f727900000000000000000000000000000000602082015260400190565b601181527f4e616d65206973206d616e6461746f7279000000000000000000000000000000602082015260400190565b601981527f4372656174696f6e44617465206973206d616e6461746f727900000000000000602082015260400190565b805160009061016084019061295a8582612a5e565b50602083015161296d6020860182612a5e565b50604083015184820360408601526129858282612790565b9150506060830151848203606086015261299f8282612790565b915050608083015184820360808601526129b98282612790565b91505060a083015184820360a08601526129d38282612790565b91505060c083015184820360c08601526129ed8282612790565b91505060e083015184820360e0860152612a07828261273a565b915050610100830151848203610100860152612a23828261273a565b915050610120830151848203610120860152612a3f82826125d4565b915050610140830151612a56610140860182612a5e565b509392505050565b6125ce81610586565b6020808252810161224e818461262b565b6020808252810161224e8184612692565b6020808252810161224e81846126ed565b602081016105c18284612787565b602080825281016105c1816127c5565b602080825281016105c1816127f5565b602080825281016105c181612825565b602080825281016105c181612855565b602080825281016105c181612885565b602080825281016105c1816128b5565b602080825281016105c1816128e5565b602080825281016105c181612915565b602081016105c18284612a5e565b60405181810167ffffffffffffffff81118282101715612b5557600080fd5b604052919050565b600067ffffffffffffffff821115612b7457600080fd5b506020601f91909101601f19160190565b60200190565b5190565b600160a060020a031690565b151590565b82818337506000910152565b60005b83811015612bc7578181015183820152602001612baf565b838111156106df5750506000910152565b601f01601f1916905600a265627a7a7230582065236b2c4a3e4ce6318c87bca7f39099ce4098c40846a539db7303cc9f944b0e6c6578706572696d656e74616cf50037",
  "source": "pragma solidity ^0.4.24;\npragma experimental ABIEncoderV2;\n\nimport \"./SafeMath.sol\";\nimport \"./random.sol\";\nimport \"./Registry.sol\";\n\ncontract Members is Random, Registry {\n\n  struct Member { \n    uint256 memberId;\n    uint256 creationDate;\n    string name;\n    string logo;\n    string country;\n    string cmo;\n    string theme;\n    uint256[] claimInbox;\n    uint256[] claims;\n    address[] userRequests;\n    uint totalTokens;\n  }\n\n  uint256 constant private PAGE_SIZE = 10;\n\n  mapping (uint256 => Member) members_;\n  uint256 memberIdCounter_ = 0; // Equals the number of (members + Super Admins) ever inserted, including the deleted ones.\n\n  uint256[] private membersList_;\n\n  // METHODS\n  // Public\n\n  function addMember(uint256 _creationDate, string _name, string _logo, string _country, string _cmo, string _theme) onlySigner public returns(uint) {\n    //  string _group) onlySigner public returns(uint) {\n    require(_creationDate > 0, \"CreationDate is mandatory\");\n//    uint256 _memberId = Random.rand(_creationDate);\n    uint256 _memberId = ++memberIdCounter_;\n    require(members_[_memberId].memberId == 0, \"Member already exists\");\n    _saveMember(_memberId, _creationDate, _name, _logo, _country, _cmo, _theme);\n//    members_[_memberId].group = _group;\n    members_[_memberId].totalTokens = 1000;\n\n    return _memberId;\n  }\n\n  function updateMember(uint256 _memberId, uint256 _creationDate,\n    string _name, string _logo, string _country, string _cmo, string _theme, uint _totalTokens) onlySigner public {\n  // , string _group) onlySigner public {\n    require(members_[_memberId].memberId > 0, \"Member not exists\");\n    require(members_[_memberId].creationDate == _creationDate, \"Creation Date is immutable\");\n//    _saveMember(_memberId, _creationDate, _name, _logo, _country, _cmo, _theme);\n//    members_[_memberId].group = _group;\n    members_[_memberId].name = _name;\n    members_[_memberId].theme = _theme;\n    members_[_memberId].totalTokens = _totalTokens;\n  }\n\n  function getMembers() public view returns (Member[] memory) {\n    Member[] memory memberPage = new Member[](membersList_.length);\n    for (uint i = 0; i < membersList_.length; ++i) {\n        memberPage[i] = members_[membersList_[i]];\n    }\n    return memberPage;\n  }\n\n  function getMembers(uint _page) public view returns (Member[] memory) {\n    uint256 pageIndex = SafeMath.mul(PAGE_SIZE, _page);\n    uint256 pageNumber = SafeMath.div(membersList_.length, PAGE_SIZE);\n\n    if (membersList_.length == 0 || pageIndex > membersList_.length - 1 || _page > pageNumber) {\n      return;\n    }\n\n    // Insert items filtered into array.\n    uint256 resultCount = 0;\n    Member[] memory memberPage = new Member[](PAGE_SIZE);\n    for(uint j = pageIndex; j < membersList_.length; ++j) {\n        memberPage[resultCount] = members_[membersList_[j]];\n        ++resultCount;\n    }\n    return memberPage;\n  }\n\n  function getCount() onlySigner public view returns (uint256) {\n    return membersList_.length;\n  }\n\n  // Private\n\n  function _saveMember(uint256 _memberId, uint256 _creationDate, string _name, string _logo, string _country, string _cmo, string _theme) internal {\n\n    require(bytes(_name).length != 0, \"Name is mandatory\");\n    require(bytes(_cmo).length != 0, \"CMO is mandatory\");\n    require(bytes(_theme).length != 0, \"Theme is mandatory\");\n\n    Member memory member = members_[_memberId];\n    member.memberId = _memberId;\n    member.creationDate = _creationDate;\n    member.name = _name;\n    member.logo = _logo;\n    member.country = _country;\n    member.cmo = _cmo;\n    member.theme = _theme;\n\n    members_[_memberId] = member;\n    membersList_.push(_memberId);\n\n  }\n\n  function _getMemberIdsOfCurrentCMO(string currentCMO, uint256 currentCMOId) public returns(uint[]) {\n    uint[] memberIds;\n    for (uint j = 0; j < membersList_.length; ++j) {\n      if (keccak256(members_[membersList_[j]].cmo) == keccak256(currentCMO) && members_[membersList_[j]].memberId != currentCMOId) {\n        memberIds.push(members_[membersList_[j]].memberId);\n      }\n    }\n    return memberIds;\n  }\n\n  function _getClaimsIdByMember(uint _memberId) public view returns(uint[])  {\n    require(members_[_memberId].memberId > 0, \"member not exists\");\n    return members_[_memberId].claims;\n  }\n\n  function _getClaimsCountByMember(uint _memberId) public view returns(uint) {\n    return members_[_memberId].claims.length;\n  }\n\n  function _addUserToMemberRequest(uint _memberId) internal {\n    members_[_memberId].userRequests.push(msg.sender);\n  }\n\n  function _addClaimIdToMemberOwner(uint _memberId, uint _claimId) public {\n    members_[_memberId].claims.push(_claimId);\n  }\n\n  function _removeClaimIdFromMember2(uint _memberId, uint _claimId) public {\n//    _rP(_memberId, _claimId);\n//  }\n//\n//  function _rP(uint _memberId, uint _claimId) private {\n    uint memberClaimsLength = members_[_memberId].claims.length;\n    if (memberClaimsLength > 0) { // require(memberClaimsLength > 0, \"not enough claims in member\");\n      members_[_memberId].claims[_claimId] = members_[_memberId].claims[memberClaimsLength-1];\n      members_[_memberId].claims[memberClaimsLength-1] = _claimId;\n      members_[_memberId].claims.length--;\n    }\n  }\n\n  function _removeClaimIdFromMember(uint _memberId, uint _claimId) public {\n    bool found = false;\n    for (uint j = 0; j < members_[_memberId].claims.length - 1; j++) {\n      if(members_[_memberId].claims[j] == _claimId) {\n        found = true;\n      }\n      if(found) {\n        members_[_memberId].claims[j] = members_[_memberId].claims[j + 1];\n      }\n    }\n    //    if (found) {\n    delete members_[_memberId].claims[members_[_memberId].claims.length - 1];\n    members_[_memberId].claims.length--;\n    //    }\n  }\n\n  function _addClaimFromInbox(uint _memberId, uint _claimId) public {\n    members_[_memberId].claimInbox.push(_claimId);\n  }\n\n  function _memberExists(uint _memberId) public view returns(bool) {\n    return members_[_memberId].memberId > 0;\n  }\n\n  function _removeClaimFromInbox(uint _memberId, uint _claimId) public {\n    bool found = false;\n    // Remove index\n    for (uint j = 0; j < members_[_memberId].claimInbox.length - 1; j++) {\n      if(members_[_memberId].claimInbox[j] == _claimId) {\n        found = true;\n      }\n      if(found) {\n        members_[_memberId].claimInbox[j] = members_[_memberId].claimInbox[j + 1];\n      }\n    }\n    if (found) {\n      delete members_[_memberId].claimInbox[members_[_memberId].claimInbox.length - 1];\n      members_[_memberId].claimInbox.length--;\n    }\n  }\n\n  function _clearUserFromMemberRequest(uint _memberId, address userAddress) internal {\n     bool found = false;\n    // Remove index\n    for (uint j = 0; j < members_[_memberId].userRequests.length - 1; j++) {\n      if(members_[_memberId].userRequests[j] == userAddress) {\n        found = true;\n      }\n      if(found) {\n        members_[_memberId].userRequests[j] = members_[_memberId].userRequests[j + 1];\n      }\n    }\n//    if (found) {\n      delete members_[_memberId].userRequests[members_[_memberId].userRequests.length - 1];\n      members_[_memberId].userRequests.length--;\n//    }\n  }\n\n}",
  "sourcePath": "/home/komodo/newUI2/bloomen-decentralized-rights-management-v2/truffle/contracts/registry/Members.sol",
  "compiler": {
    "name": "solc",
    "version": "0.4.24+commit.e67f0147.Emscripten.clang"
  },
  "schemaVersion": "2.0.1",
  "updatedAt": "2020-03-03T22:12:24.913Z"
}