{
  "contractName": "Members",
  "abi": [
    {
      "constant": false,
      "inputs": [
        {
          "name": "_cmo",
          "type": "string"
        }
      ],
      "name": "addCMO",
      "outputs": [],
      "payable": false,
      "stateMutability": "nonpayable",
      "type": "function"
    },
    {
      "constant": true,
      "inputs": [],
      "name": "getCMOs",
      "outputs": [
        {
          "name": "",
          "type": "string[]"
        }
      ],
      "payable": false,
      "stateMutability": "view",
      "type": "function"
    },
    {
      "constant": true,
      "inputs": [
        {
          "name": "account",
          "type": "address"
        }
      ],
      "name": "isSigner",
      "outputs": [
        {
          "name": "",
          "type": "bool"
        }
      ],
      "payable": false,
      "stateMutability": "view",
      "type": "function"
    },
    {
      "constant": false,
      "inputs": [
        {
          "name": "_index",
          "type": "uint256"
        }
      ],
      "name": "deleteCMO",
      "outputs": [],
      "payable": false,
      "stateMutability": "nonpayable",
      "type": "function"
    },
    {
      "constant": false,
      "inputs": [],
      "name": "renounceSigner",
      "outputs": [],
      "payable": false,
      "stateMutability": "nonpayable",
      "type": "function"
    },
    {
      "constant": false,
      "inputs": [
        {
          "name": "account",
          "type": "address"
        }
      ],
      "name": "addSigner",
      "outputs": [],
      "payable": false,
      "stateMutability": "nonpayable",
      "type": "function"
    },
    {
      "anonymous": false,
      "inputs": [
        {
          "indexed": true,
          "name": "account",
          "type": "address"
        }
      ],
      "name": "SignerAdded",
      "type": "event"
    },
    {
      "anonymous": false,
      "inputs": [
        {
          "indexed": true,
          "name": "account",
          "type": "address"
        }
      ],
      "name": "SignerRemoved",
      "type": "event"
    },
    {
      "constant": false,
      "inputs": [
        {
          "name": "_creationDate",
          "type": "uint256"
        },
        {
          "name": "_name",
          "type": "string"
        },
        {
          "name": "_logo",
          "type": "string"
        },
        {
          "name": "_country",
          "type": "string"
        },
        {
          "name": "_cmo",
          "type": "string"
        },
        {
          "name": "_theme",
          "type": "string"
        }
      ],
      "name": "addMember",
      "outputs": [
        {
          "name": "",
          "type": "uint256"
        }
      ],
      "payable": false,
      "stateMutability": "nonpayable",
      "type": "function"
    },
    {
      "constant": false,
      "inputs": [
        {
          "name": "_memberId",
          "type": "uint256"
        },
        {
          "name": "_creationDate",
          "type": "uint256"
        },
        {
          "name": "_name",
          "type": "string"
        },
        {
          "name": "_logo",
          "type": "string"
        },
        {
          "name": "_country",
          "type": "string"
        },
        {
          "name": "_cmo",
          "type": "string"
        },
        {
          "name": "_theme",
          "type": "string"
        }
      ],
      "name": "updateMember",
      "outputs": [],
      "payable": false,
      "stateMutability": "nonpayable",
      "type": "function"
    },
    {
      "constant": true,
      "inputs": [
        {
          "name": "_page",
          "type": "uint256"
        }
      ],
      "name": "getMembers",
      "outputs": [
        {
          "components": [
            {
              "name": "memberId",
              "type": "uint256"
            },
            {
              "name": "creationDate",
              "type": "uint256"
            },
            {
              "name": "name",
              "type": "string"
            },
            {
              "name": "logo",
              "type": "string"
            },
            {
              "name": "country",
              "type": "string"
            },
            {
              "name": "cmo",
              "type": "string"
            },
            {
              "name": "theme",
              "type": "string"
            },
            {
              "name": "claimInbox",
              "type": "uint256[]"
            },
            {
              "name": "claims",
              "type": "uint256[]"
            },
            {
              "name": "userRequests",
              "type": "address[]"
            }
          ],
          "name": "",
          "type": "tuple[]"
        }
      ],
      "payable": false,
      "stateMutability": "view",
      "type": "function"
    },
    {
      "constant": true,
      "inputs": [],
      "name": "getMembers",
      "outputs": [
        {
          "components": [
            {
              "name": "memberId",
              "type": "uint256"
            },
            {
              "name": "creationDate",
              "type": "uint256"
            },
            {
              "name": "name",
              "type": "string"
            },
            {
              "name": "logo",
              "type": "string"
            },
            {
              "name": "country",
              "type": "string"
            },
            {
              "name": "cmo",
              "type": "string"
            },
            {
              "name": "theme",
              "type": "string"
            },
            {
              "name": "claimInbox",
              "type": "uint256[]"
            },
            {
              "name": "claims",
              "type": "uint256[]"
            },
            {
              "name": "userRequests",
              "type": "address[]"
            }
          ],
          "name": "",
          "type": "tuple[]"
        }
      ],
      "payable": false,
      "stateMutability": "view",
      "type": "function"
    },
    {
      "constant": true,
      "inputs": [],
      "name": "getCount",
      "outputs": [
        {
          "name": "",
          "type": "uint256"
        }
      ],
      "payable": false,
      "stateMutability": "view",
      "type": "function"
    },
    {
      "constant": true,
      "inputs": [
        {
          "name": "_memberId",
          "type": "uint256"
        }
      ],
      "name": "_getClaimsIdByMember",
      "outputs": [
        {
          "name": "",
          "type": "uint256[]"
        }
      ],
      "payable": false,
      "stateMutability": "view",
      "type": "function"
    },
    {
      "constant": true,
      "inputs": [
        {
          "name": "_memberId",
          "type": "uint256"
        }
      ],
      "name": "_getClaimsCountByMember",
      "outputs": [
        {
          "name": "",
          "type": "uint256"
        }
      ],
      "payable": false,
      "stateMutability": "view",
      "type": "function"
    },
    {
      "constant": false,
      "inputs": [
        {
          "name": "_memberId",
          "type": "uint256"
        },
        {
          "name": "_claimId",
          "type": "uint256"
        }
      ],
      "name": "_addClaimIdToMemberOwner",
      "outputs": [],
      "payable": false,
      "stateMutability": "nonpayable",
      "type": "function"
    },
    {
      "constant": false,
      "inputs": [
        {
          "name": "_memberId",
          "type": "uint256"
        },
        {
          "name": "_claimId",
          "type": "uint256"
        }
      ],
      "name": "_removeClaimIdFromMember",
      "outputs": [],
      "payable": false,
      "stateMutability": "nonpayable",
      "type": "function"
    },
    {
      "constant": false,
      "inputs": [
        {
          "name": "_memberId",
          "type": "uint256"
        },
        {
          "name": "_claimId",
          "type": "uint256"
        }
      ],
      "name": "_addClaimFromInbox",
      "outputs": [],
      "payable": false,
      "stateMutability": "nonpayable",
      "type": "function"
    },
    {
      "constant": true,
      "inputs": [
        {
          "name": "_memberId",
          "type": "uint256"
        }
      ],
      "name": "_memberExists",
      "outputs": [
        {
          "name": "",
          "type": "bool"
        }
      ],
      "payable": false,
      "stateMutability": "view",
      "type": "function"
    },
    {
      "constant": false,
      "inputs": [
        {
          "name": "_memberId",
          "type": "uint256"
        },
        {
          "name": "_claimId",
          "type": "uint256"
        }
      ],
      "name": "_removeClaimFromInbox",
      "outputs": [],
      "payable": false,
      "stateMutability": "nonpayable",
      "type": "function"
    }
  ],
  "bytecode": "0x608060405262000018336401000000006200001e810204565b62000103565b6200003960008264010000000062001d096200007082021704565b604051600160a060020a038216907f47d1c22a25bb3a5d4e481b9b1e6944c2eade3181a0a20b495ed61d35b5323f2490600090a250565b600160a060020a03811615156200008657600080fd5b6200009b8282640100000000620000cb810204565b15620000a657600080fd5b600160a060020a0316600090815260209190915260409020805460ff19166001179055565b6000600160a060020a0382161515620000e357600080fd5b50600160a060020a03166000908152602091909152604090205460ff1690565b6129ba80620001136000396000f3006080604052600436106100fb5763ffffffff7c01000000000000000000000000000000000000000000000000000000006000350416633a59ccf181146101005780636262dff614610122578063656d561c1461015857806365ff0c481461017a578063748532391461019a5780637df73e27146101ba5780638b92892b146101e75780639eab525314610207578063a29d441f14610229578063a87d942c14610249578063affccd841461026b578063bf3d007e1461028b578063c477ecab146102ab578063e2c11f9e146102cb578063e5c8b03d146102eb578063eb12d61e14610300578063f838073314610320578063fa1188c614610340575b600080fd5b34801561010c57600080fd5b5061012061011b3660046120d9565b610360565b005b34801561012e57600080fd5b5061014261013d36600461210e565b6103bc565b60405161014f9190612827565b60405180910390f35b34801561016457600080fd5b5061016d61045a565b60405161014f9190612805565b34801561018657600080fd5b50610120610195366004612265565b610533565b3480156101a657600080fd5b506101206101b536600461222b565b6105c1565b3480156101c657600080fd5b506101da6101d53660046120b3565b6105e7565b60405161014f9190612838565b3480156101f357600080fd5b5061012061020236600461222b565b6105ff565b34801561021357600080fd5b5061021c610716565b60405161014f9190612816565b34801561023557600080fd5b5061012061024436600461222b565b610be3565b34801561025557600080fd5b5061025e610cb8565b60405161014f91906128c6565b34801561027757600080fd5b5061025e61028636600461210e565b610cd5565b34801561029757600080fd5b506101206102a636600461210e565b610cea565b3480156102b757600080fd5b5061021c6102c636600461210e565b610da7565b3480156102d757600080fd5b506101206102e636600461222b565b6112c2565b3480156102f757600080fd5b506101206112e8565b34801561030c57600080fd5b5061012061031b3660046120b3565b6112f3565b34801561032c57600080fd5b506101da61033b36600461210e565b611313565b34801561034c57600080fd5b5061025e61035b36600461212c565b611326565b610369336105e7565b151561037457600080fd5b6001805480820180835560009290925282516103b7917fb10e2d527612073b26eecdfd717e6a320cf44b4afac2b0732d9fcbe2b7fa0cf601906020850190611d57565b505050565b600081815260026020526040812054606091106103f75760405160e560020a62461bcd0281526004016103ee90612856565b60405180910390fd5b6000828152600260209081526040918290206008018054835181840281018401909452808452909183018282801561044e57602002820191906000526020600020905b81548152602001906001019080831161043a575b50505050509050919050565b60606001805480602002602001604051908101604052809291908181526020016000905b828210156105295760008481526020908190208301805460408051601f60026000196101006001871615020190941693909304928301859004850281018501909152818152928301828280156105155780601f106104ea57610100808354040283529160200191610515565b820191906000526020600020905b8154815290600101906020018083116104f857829003601f168201915b50505050508152602001906001019061047e565b5050505090505b90565b61053c336105e7565b151561054757600080fd5b600087815260026020526040812054116105765760405160e560020a62461bcd0281526004016103ee90612876565b60008781526002602052604090206001015486146105a95760405160e560020a62461bcd0281526004016103ee90612846565b6105b8878787878787876113b5565b50505050505050565b600091825260026020908152604083206007018054600181018255908452922090910155565b60006105f9818363ffffffff6119ab16565b92915050565b6000805b600084815260026020526040902060070154600019018110156106bf57600084815260026020526040902060070180548491908390811061064057fe5b9060005260206000200154141561065657600191505b81156106b757600084815260026020526040902060070180546001830190811061067c57fe5b906000526020600020015460026000868152602001908152602001600020600701828154811015156106aa57fe5b6000918252602090912001555b600101610603565b6000848152600260205260409020600701805460001981019081106106e057fe5b60009182526020808320909101829055858252600290526040902060070180549061070f906000198301611dd5565b5050505050565b606080600060038054905060405190808252806020026020018201604052801561075a57816020015b610747611df9565b81526020019060019003908161073f5790505b509150600090505b600354811015610bdd576002600060038381548110151561077f57fe5b9060005260206000200154815260200190815260200160002061014060405190810160405290816000820154815260200160018201548152602001600282018054600181600116156101000203166002900480601f0160208091040260200160405190810160405280929190818152602001828054600181600116156101000203166002900480156108525780601f1061082757610100808354040283529160200191610852565b820191906000526020600020905b81548152906001019060200180831161083557829003601f168201915b505050918352505060038201805460408051602060026001851615610100026000190190941693909304601f81018490048402820184019092528181529382019392918301828280156108e65780601f106108bb576101008083540402835291602001916108e6565b820191906000526020600020905b8154815290600101906020018083116108c957829003601f168201915b505050918352505060048201805460408051602060026001851615610100026000190190941693909304601f810184900484028201840190925281815293820193929183018282801561097a5780601f1061094f5761010080835404028352916020019161097a565b820191906000526020600020905b81548152906001019060200180831161095d57829003601f168201915b505050918352505060058201805460408051602060026001851615610100026000190190941693909304601f8101849004840282018401909252818152938201939291830182828015610a0e5780601f106109e357610100808354040283529160200191610a0e565b820191906000526020600020905b8154815290600101906020018083116109f157829003601f168201915b505050918352505060068201805460408051602060026001851615610100026000190190941693909304601f8101849004840282018401909252818152938201939291830182828015610aa25780601f10610a7757610100808354040283529160200191610aa2565b820191906000526020600020905b815481529060010190602001808311610a8557829003601f168201915b5050505050815260200160078201805480602002602001604051908101604052809291908181526020018280548015610afa57602002820191906000526020600020905b815481526020019060010190808311610ae6575b5050505050815260200160088201805480602002602001604051908101604052809291908181526020018280548015610b5257602002820191906000526020600020905b815481526020019060010190808311610b3e575b5050505050815260200160098201805480602002602001604051908101604052809291908181526020018280548015610bb457602002820191906000526020600020905b8154600160a060020a03168152600190910190602001808311610b96575b5050505050815250508282815181101515610bcb57fe5b60209081029091010152600101610762565b50919050565b600082815260026020526040812060080154908111156103b757600083815260026020526040902060080180546000198301908110610c1e57fe5b90600052602060002001546002600085815260200190815260200160002060080183815481101515610c4c57fe5b9060005260206000200181905550816002600085815260200190815260200160002060080160018303815481101515610c8157fe5b6000918252602080832090910192909255848152600290915260409020600801805490610cb2906000198301611dd5565b50505050565b6000610cc3336105e7565b1515610cce57600080fd5b5060035490565b60009081526002602052604090206008015490565b6000610cf5336105e7565b1515610d0057600080fd5b50805b60015460001901811015610d6c5760018054828201908110610d2157fe5b90600052602060002001600182815481101515610d3a57fe5b906000526020600020019080546001816001161561010002031660029004610d63929190611e4d565b50600101610d03565b600180546000198101908110610d7e57fe5b906000526020600020016000610d949190611ec2565b60018054906103b7906000198301611f06565b6060600080600060606000610dbd600a886119e2565b600354909550610dce90600a611a1b565b6003549094501580610de557506003546000190185115b80610def57508387115b15610df9576112b8565b60408051600a80825261016082019092526000945090816020015b610e1c611df9565b815260200190600190039081610e145790505091508490505b6003548110156112b45760026000600383815481101515610e5257fe5b9060005260206000200154815260200190815260200160002061014060405190810160405290816000820154815260200160018201548152602001600282018054600181600116156101000203166002900480601f016020809104026020016040519081016040528092919081815260200182805460018160011615610100020316600290048015610f255780601f10610efa57610100808354040283529160200191610f25565b820191906000526020600020905b815481529060010190602001808311610f0857829003601f168201915b505050918352505060038201805460408051602060026001851615610100026000190190941693909304601f8101849004840282018401909252818152938201939291830182828015610fb95780601f10610f8e57610100808354040283529160200191610fb9565b820191906000526020600020905b815481529060010190602001808311610f9c57829003601f168201915b505050918352505060048201805460408051602060026001851615610100026000190190941693909304601f810184900484028201840190925281815293820193929183018282801561104d5780601f106110225761010080835404028352916020019161104d565b820191906000526020600020905b81548152906001019060200180831161103057829003601f168201915b505050918352505060058201805460408051602060026001851615610100026000190190941693909304601f81018490048402820184019092528181529382019392918301828280156110e15780601f106110b6576101008083540402835291602001916110e1565b820191906000526020600020905b8154815290600101906020018083116110c457829003601f168201915b505050918352505060068201805460408051602060026001851615610100026000190190941693909304601f81018490048402820184019092528181529382019392918301828280156111755780601f1061114a57610100808354040283529160200191611175565b820191906000526020600020905b81548152906001019060200180831161115857829003601f168201915b50505050508152602001600782018054806020026020016040519081016040528092919081815260200182805480156111cd57602002820191906000526020600020905b8154815260200190600101908083116111b9575b505050505081526020016008820180548060200260200160405190810160405280929190818152602001828054801561122557602002820191906000526020600020905b815481526020019060010190808311611211575b505050505081526020016009820180548060200260200160405190810160405280929190818152602001828054801561128757602002820191906000526020600020905b8154600160a060020a03168152600190910190602001808311611269575b505050505081525050828481518110151561129e57fe5b6020908102909101015260019283019201610e35565b8195505b5050505050919050565b600091825260026020908152604083206008018054600181018255908452922090910155565b6112f133611a3e565b565b6112fc336105e7565b151561130757600080fd5b61131081611a86565b50565b6000908152600260205260408120541190565b600080611332336105e7565b151561133d57600080fd5b600088116113605760405160e560020a62461bcd0281526004016103ee906128b6565b61136988611ace565b6000818152600260205260409020549091501561139b5760405160e560020a62461bcd0281526004016103ee90612866565b6113aa818989898989896113b5565b979650505050505050565b6113bd611df9565b855115156113e05760405160e560020a62461bcd0281526004016103ee906128a6565b825115156114035760405160e560020a62461bcd0281526004016103ee90612896565b815115156114265760405160e560020a62461bcd0281526004016103ee90612886565b6000888152600260208181526040928390208351610140810185528154815260018083015482850152828501805487519281161561010002600019011695909504601f810185900485028201850187528082529195929492860193909291908301828280156114d65780601f106114ab576101008083540402835291602001916114d6565b820191906000526020600020905b8154815290600101906020018083116114b957829003601f168201915b505050918352505060038201805460408051602060026001851615610100026000190190941693909304601f810184900484028201840190925281815293820193929183018282801561156a5780601f1061153f5761010080835404028352916020019161156a565b820191906000526020600020905b81548152906001019060200180831161154d57829003601f168201915b505050918352505060048201805460408051602060026001851615610100026000190190941693909304601f81018490048402820184019092528181529382019392918301828280156115fe5780601f106115d3576101008083540402835291602001916115fe565b820191906000526020600020905b8154815290600101906020018083116115e157829003601f168201915b505050918352505060058201805460408051602060026001851615610100026000190190941693909304601f81018490048402820184019092528181529382019392918301828280156116925780601f1061166757610100808354040283529160200191611692565b820191906000526020600020905b81548152906001019060200180831161167557829003601f168201915b505050918352505060068201805460408051602060026001851615610100026000190190941693909304601f81018490048402820184019092528181529382019392918301828280156117265780601f106116fb57610100808354040283529160200191611726565b820191906000526020600020905b81548152906001019060200180831161170957829003601f168201915b505050505081526020016007820180548060200260200160405190810160405280929190818152602001828054801561177e57602002820191906000526020600020905b81548152602001906001019080831161176a575b50505050508152602001600882018054806020026020016040519081016040528092919081815260200182805480156117d657602002820191906000526020600020905b8154815260200190600101908083116117c2575b505050505081526020016009820180548060200260200160405190810160405280929190818152602001828054801561183857602002820191906000526020600020905b8154600160a060020a0316815260019091019060200180831161181a575b50505091909252505050888152602080820189815260408084018a8152606085018a90526080850189905260a0850188905260c0850187905260008d815260028086529290208551815592516001840155518051949550859492936118a39392850192910190611d57565b50606082015180516118bf916003840191602090910190611d57565b50608082015180516118db916004840191602090910190611d57565b5060a082015180516118f7916005840191602090910190611d57565b5060c08201518051611913916006840191602090910190611d57565b5060e0820151805161192f916007840191602090910190611f2a565b50610100820151805161194c916008840191602090910190611f2a565b506101208201518051611969916009840191602090910190611f64565b5050600380546001810182556000919091527fc2575a0e9e593c00f959f8c92f12db2869c3395a3b0502d05e2516446f71f85b01989098555050505050505050565b6000600160a060020a03821615156119c257600080fd5b50600160a060020a03166000908152602091909152604090205460ff1690565b6000808315156119f55760009150611a14565b50828202828482811515611a0557fe5b0414611a1057600080fd5b8091505b5092915050565b600080808311611a2a57600080fd5b8284811515611a3557fe5b04949350505050565b611a4f60008263ffffffff611cbd16565b604051600160a060020a038216907f3525e22824a8a7df2c9a6029941c824cf95b6447f1e13d5128fd3826d35afe8b90600090a250565b611a9760008263ffffffff611d0916565b604051600160a060020a038216907f47d1c22a25bb3a5d4e481b9b1e6944c2eade3181a0a20b495ed61d35b5323f2490600090a250565b6000808080600285061515611b605784604051602001808281526020019150506040516020818303038152906040526040518082805190602001908083835b60208310611b2c5780518252601f199092019160209182019101611b0d565b6001836020036101000a03801982511681845116808217855250505050505090500191505060405180910390209250611c4b565b84604051602001808281526020019150506040516020818303038152906040526040518082805190602001908083835b60208310611baf5780518252601f199092019160209182019101611b90565b51815160209384036101000a600019018019909216911617905260408051929094018290038220828201528351808303820181529184019384905281519195509293508392850191508083835b60208310611c1b5780518252601f199092019160209182019101611bfc565b6001836020036101000a038019825116818451168082178552505050505050905001915050604051809103902092505b6020811015611c7857828160208110611c6057fe5b60f860020a91901a8102049190910190600101611c4b565b826020600284010660208110611c8a57fe5b60f860020a91901a810204836020840660208110611ca457fe5b1a60f860020a0260f860020a9004029350505050919050565b600160a060020a0381161515611cd257600080fd5b611cdc82826119ab565b1515611ce757600080fd5b600160a060020a0316600090815260209190915260409020805460ff19169055565b600160a060020a0381161515611d1e57600080fd5b611d2882826119ab565b15611d3257600080fd5b600160a060020a0316600090815260209190915260409020805460ff19166001179055565b828054600181600116156101000203166002900490600052602060002090601f016020900481019282601f10611d9857805160ff1916838001178555611dc5565b82800160010185558215611dc5579182015b82811115611dc5578251825591602001919060010190611daa565b50611dd1929150611fd2565b5090565b8154818355818111156103b7576000838152602090206103b7918101908301611fd2565b61014060405190810160405280600081526020016000815260200160608152602001606081526020016060815260200160608152602001606081526020016060815260200160608152602001606081525090565b828054600181600116156101000203166002900490600052602060002090601f016020900481019282601f10611e865780548555611dc5565b82800160010185558215611dc557600052602060002091601f016020900482015b82811115611dc5578254825591600101919060010190611ea7565b50805460018160011615610100020316600290046000825580601f10611ee85750611310565b601f0160209004906000526020600020908101906113109190611fd2565b8154818355818111156103b7576000838152602090206103b7918101908301611fec565b828054828255906000526020600020908101928215611dc55791602002820182811115611dc5578251825591602001919060010190611daa565b828054828255906000526020600020908101928215611fc6579160200282015b82811115611fc6578251825473ffffffffffffffffffffffffffffffffffffffff1916600160a060020a03909116178255602090920191600190910190611f84565b50611dd192915061200f565b61053091905b80821115611dd15760008155600101611fd8565b61053091905b80821115611dd15760006120068282611ec2565b50600101611ff2565b61053091905b80821115611dd157805473ffffffffffffffffffffffffffffffffffffffff19168155600101612015565b600061204c823561292d565b9392505050565b6000601f8201831361206457600080fd5b8135612077612072826128fb565b6128d4565b9150808252602083016020830185838301111561209357600080fd5b61209e83828461293e565b50505092915050565b600061204c8235610530565b6000602082840312156120c557600080fd5b60006120d18484612040565b949350505050565b6000602082840312156120eb57600080fd5b813567ffffffffffffffff81111561210257600080fd5b6120d184828501612053565b60006020828403121561212057600080fd5b60006120d184846120a7565b60008060008060008060c0878903121561214557600080fd5b600061215189896120a7565b965050602087013567ffffffffffffffff81111561216e57600080fd5b61217a89828a01612053565b955050604087013567ffffffffffffffff81111561219757600080fd5b6121a389828a01612053565b945050606087013567ffffffffffffffff8111156121c057600080fd5b6121cc89828a01612053565b935050608087013567ffffffffffffffff8111156121e957600080fd5b6121f589828a01612053565b92505060a087013567ffffffffffffffff81111561221257600080fd5b61221e89828a01612053565b9150509295509295509295565b6000806040838503121561223e57600080fd5b600061224a85856120a7565b925050602061225b858286016120a7565b9150509250929050565b600080600080600080600060e0888a03121561228057600080fd5b600061228c8a8a6120a7565b975050602061229d8a828b016120a7565b965050604088013567ffffffffffffffff8111156122ba57600080fd5b6122c68a828b01612053565b955050606088013567ffffffffffffffff8111156122e357600080fd5b6122ef8a828b01612053565b945050608088013567ffffffffffffffff81111561230c57600080fd5b6123188a828b01612053565b93505060a088013567ffffffffffffffff81111561233557600080fd5b6123418a828b01612053565b92505060c088013567ffffffffffffffff81111561235e57600080fd5b61236a8a828b01612053565b91505092959891949750929550565b6123828161292d565b82525050565b600061239382612929565b8084526020840193506123a583612923565b60005b828110156123d5576123bb868351612379565b6123c482612923565b6020969096019591506001016123a8565b5093949350505050565b60006123ea82612929565b8084526020840193508360208202850161240385612923565b60005b8481101561243a57838303885261241e838351612544565b925061242982612923565b602098909801979150600101612406565b50909695505050505050565b600061245182612929565b8084526020840193508360208202850161246a85612923565b60005b8481101561243a5783830388526124858383516126f9565b925061249082612923565b60209890980197915060010161246d565b60006124ac82612929565b8084526020840193506124be83612923565b60005b828110156123d5576124d48683516127fc565b6124dd82612923565b6020969096019591506001016124c1565b60006124f982612929565b80845260208401935061250b83612923565b60005b828110156123d5576125218683516127fc565b61252a82612923565b60209690960195915060010161250e565b61238281612939565b600061254f82612929565b80845261256381602086016020860161294a565b61256c81612976565b9093016020019392505050565b601a81527f4372656174696f6e204461746520697320696e6d757461626c65000000000000602082015260400190565b601181527f6d656d626572206e6f7420657869737473000000000000000000000000000000602082015260400190565b601581527f4d656d62657220616c7265616479206578697374730000000000000000000000602082015260400190565b601181527f4d656d626572206e6f7420657869737473000000000000000000000000000000602082015260400190565b601281527f5468656d65206973206d616e6461746f72790000000000000000000000000000602082015260400190565b601081527f434d4f206973206d616e6461746f727900000000000000000000000000000000602082015260400190565b601181527f4e616d65206973206d616e6461746f7279000000000000000000000000000000602082015260400190565b601981527f4372656174696f6e44617465206973206d616e6461746f727900000000000000602082015260400190565b805160009061014084019061270e85826127fc565b50602083015161272160208601826127fc565b50604083015184820360408601526127398282612544565b915050606083015184820360608601526127538282612544565b9150506080830151848203608086015261276d8282612544565b91505060a083015184820360a08601526127878282612544565b91505060c083015184820360c08601526127a18282612544565b91505060e083015184820360e08601526127bb82826124ee565b9150506101008301518482036101008601526127d782826124ee565b9150506101208301518482036101208601526127f38282612388565b95945050505050565b61238281610530565b6020808252810161204c81846123df565b6020808252810161204c8184612446565b6020808252810161204c81846124a1565b602081016105f9828461253b565b602080825281016105f981612579565b602080825281016105f9816125a9565b602080825281016105f9816125d9565b602080825281016105f981612609565b602080825281016105f981612639565b602080825281016105f981612669565b602080825281016105f981612699565b602080825281016105f9816126c9565b602081016105f982846127fc565b60405181810167ffffffffffffffff811182821017156128f357600080fd5b604052919050565b600067ffffffffffffffff82111561291257600080fd5b506020601f91909101601f19160190565b60200190565b5190565b600160a060020a031690565b151590565b82818337506000910152565b60005b8381101561296557818101518382015260200161294d565b83811115610cb25750506000910152565b601f01601f1916905600a265627a7a7230582063117aa90e87496b078f685d520ab948c24375c037b60204a6465f66172e4e7a6c6578706572696d656e74616cf50037",
  "source": "pragma solidity ^0.4.24;\npragma experimental ABIEncoderV2;\n\nimport \"./SafeMath.sol\";\nimport \"./random.sol\";\nimport \"./Registry.sol\";\n\ncontract Members is Random, Registry {\n\n  struct Member { \n    uint256 memberId;\n    uint256 creationDate;\n    string name;\n    string logo;\n    string country;\n    string cmo;\n    string theme;\n    uint256[] claimInbox;\n    uint256[] claims;\n    address[] userRequests;\n  }\n\n  uint256 constant private PAGE_SIZE = 10;\n\n  mapping (uint256 => Member) private members_;\n\n  uint256[] private membersList_;\n\n  // METHODS\n\n  // Public\n\n  function addMember(uint256 _creationDate, string _name, string _logo, string _country, string _cmo, string _theme) onlySigner public returns(uint) {\n    require(_creationDate > 0, \"CreationDate is mandatory\");\n    uint256 _memberId = Random.rand(_creationDate);\n    require(members_[_memberId].memberId == 0, \"Member already exists\");\n    _saveMember(_memberId, _creationDate, _name, _logo, _country, _cmo, _theme);\n    return _memberId;\n  }\n\n  function updateMember(uint256 _memberId, uint256 _creationDate, string _name, string _logo, string _country, string _cmo, string _theme) onlySigner public {\n    require(members_[_memberId].memberId > 0, \"Member not exists\");\n    require(members_[_memberId].creationDate == _creationDate, \"Creation Date is inmutable\");\n    _saveMember(_memberId, _creationDate, _name, _logo, _country, _cmo, _theme);\n  }\n\n  function getMembers() public view returns (Member[] memory) {\n    Member[] memory memberPage = new Member[](membersList_.length);\n    for (uint i = 0; i < membersList_.length; ++i) {\n        memberPage[i] = members_[membersList_[i]];\n    }\n    return memberPage;\n  }\n\n  function getMembers(uint _page) public view returns (Member[] memory) {\n    uint256 pageIndex = SafeMath.mul(PAGE_SIZE, _page);\n    uint256 pageNumber = SafeMath.div(membersList_.length, PAGE_SIZE);\n\n    if (membersList_.length == 0 || pageIndex > membersList_.length - 1 || _page > pageNumber) {\n      return;\n    }\n\n    // Insert items filtered into array.\n    uint256 resultCount = 0;\n    Member[] memory memberPage = new Member[](PAGE_SIZE);\n    for(uint j = pageIndex; j < membersList_.length; ++j) {\n        memberPage[resultCount] = members_[membersList_[j]];\n        ++resultCount;\n    }\n    return memberPage;\n  }\n\n  function getCount() onlySigner public view returns (uint256) {\n    return membersList_.length;\n  }\n\n  // Private\n\n  function _saveMember(uint256 _memberId, uint256 _creationDate, string _name, string _logo, string _country, string _cmo, string _theme) internal {\n\n    require(bytes(_name).length != 0, \"Name is mandatory\");\n    require(bytes(_cmo).length != 0, \"CMO is mandatory\");\n    require(bytes(_theme).length != 0, \"Theme is mandatory\");\n\n    Member memory member = members_[_memberId];\n    member.memberId = _memberId;\n    member.creationDate = _creationDate;\n    member.name = _name;\n    member.logo = _logo;\n    member.country = _country;\n    member.cmo = _cmo;\n    member.theme = _theme;\n\n    members_[_memberId] = member;\n    membersList_.push(_memberId);\n\n  }\n\n  function _getClaimsIdByMember(uint _memberId) public view returns(uint[])  {\n    require(members_[_memberId].memberId > 0, \"member not exists\");\n    return members_[_memberId].claims;\n  }\n\n  function _getClaimsCountByMember(uint _memberId) public view returns(uint) {\n    return members_[_memberId].claims.length;\n  }\n\n  function _addUserToMemberRequest(uint _memberId) internal {\n    members_[_memberId].userRequests.push(msg.sender);\n  }\n\n  function _addClaimIdToMemberOwner(uint _memberId, uint _claimId) public {\n    members_[_memberId].claims.push(_claimId);\n  }\n\n  function _removeClaimIdFromMember(uint _memberId, uint _claimId) public {\n//    _rP(_memberId, _claimId);\n//  }\n//\n//  function _rP(uint _memberId, uint _claimId) private {\n    uint claimCount = members_[_memberId].claims.length;\n    if (claimCount > 0) { // require(claimCount > 0, \"not enough claims in member\");\n      members_[_memberId].claims[_claimId] = members_[_memberId].claims[claimCount-1];\n      members_[_memberId].claims[claimCount-1] = _claimId;\n      members_[_memberId].claims.length--;\n    }\n  }\n\n  function _addClaimFromInbox(uint _memberId, uint _claimId) public {\n    members_[_memberId].claimInbox.push(_claimId);\n  }\n\n  function _memberExists(uint _memberId) public view returns(bool) {\n    return members_[_memberId].memberId > 0;\n  }\n\n  function _removeClaimFromInbox(uint _memberId, uint _claimId) public {\n    bool found = false;\n    // Remove index\n    for (uint j = 0; j < members_[_memberId].claimInbox.length - 1; j++) {\n      if(members_[_memberId].claimInbox[j] == _claimId) {\n        found = true;\n      }\n      if(found) {\n        members_[_memberId].claimInbox[j] = members_[_memberId].claimInbox[j + 1];\n      }\n    }\n    delete members_[_memberId].claimInbox[members_[_memberId].claimInbox.length - 1];\n    members_[_memberId].claimInbox.length--;\n  }\n\n  function _clearUserFromMemberRequest(uint _memberId, address userAddress) internal {\n     bool found = false;\n    // Remove index\n    for (uint j = 0; j < members_[_memberId].userRequests.length - 1; j++) {\n      if(members_[_memberId].userRequests[j] == userAddress) {\n        found = true;\n      }\n      if(found) {\n        members_[_memberId].userRequests[j] = members_[_memberId].userRequests[j + 1];\n      }\n    }\n    delete members_[_memberId].userRequests[members_[_memberId].userRequests.length - 1];\n    members_[_memberId].userRequests.length--;\n  }\n\n}",
  "sourcePath": "/home/komodo/newUI2/bloomen-decentralized-rights-management-v2/truffle/contracts/registry/Members.sol",
  "compiler": {
    "name": "solc",
    "version": "0.4.24+commit.e67f0147.Emscripten.clang"
  },
  "schemaVersion": "2.0.1",
  "updatedAt": "2020-01-17T09:53:24.150Z"
}