{
  "contractName": "Members",
  "abi": [
    {
      "constant": false,
      "inputs": [
        {
          "name": "_cmo",
          "type": "string"
        }
      ],
      "name": "addCMO",
      "outputs": [],
      "payable": false,
      "stateMutability": "nonpayable",
      "type": "function"
    },
    {
      "constant": true,
      "inputs": [],
      "name": "getCMOs",
      "outputs": [
        {
          "name": "",
          "type": "string[]"
        }
      ],
      "payable": false,
      "stateMutability": "view",
      "type": "function"
    },
    {
      "constant": true,
      "inputs": [
        {
          "name": "account",
          "type": "address"
        }
      ],
      "name": "isSigner",
      "outputs": [
        {
          "name": "",
          "type": "bool"
        }
      ],
      "payable": false,
      "stateMutability": "view",
      "type": "function"
    },
    {
      "constant": true,
      "inputs": [
        {
          "name": "",
          "type": "uint256"
        }
      ],
      "name": "membersList_",
      "outputs": [
        {
          "name": "",
          "type": "uint256"
        }
      ],
      "payable": false,
      "stateMutability": "view",
      "type": "function"
    },
    {
      "constant": false,
      "inputs": [
        {
          "name": "_index",
          "type": "uint256"
        }
      ],
      "name": "deleteCMO",
      "outputs": [],
      "payable": false,
      "stateMutability": "nonpayable",
      "type": "function"
    },
    {
      "constant": false,
      "inputs": [],
      "name": "renounceSigner",
      "outputs": [],
      "payable": false,
      "stateMutability": "nonpayable",
      "type": "function"
    },
    {
      "constant": false,
      "inputs": [
        {
          "name": "account",
          "type": "address"
        }
      ],
      "name": "addSigner",
      "outputs": [],
      "payable": false,
      "stateMutability": "nonpayable",
      "type": "function"
    },
    {
      "anonymous": false,
      "inputs": [
        {
          "indexed": true,
          "name": "account",
          "type": "address"
        }
      ],
      "name": "SignerAdded",
      "type": "event"
    },
    {
      "anonymous": false,
      "inputs": [
        {
          "indexed": true,
          "name": "account",
          "type": "address"
        }
      ],
      "name": "SignerRemoved",
      "type": "event"
    },
    {
      "constant": false,
      "inputs": [
        {
          "name": "_creationDate",
          "type": "uint256"
        },
        {
          "name": "_name",
          "type": "string"
        },
        {
          "name": "_logo",
          "type": "string"
        },
        {
          "name": "_country",
          "type": "string"
        },
        {
          "name": "_cmo",
          "type": "string"
        },
        {
          "name": "_theme",
          "type": "string"
        }
      ],
      "name": "addMember",
      "outputs": [
        {
          "name": "",
          "type": "uint256"
        }
      ],
      "payable": false,
      "stateMutability": "nonpayable",
      "type": "function"
    },
    {
      "constant": false,
      "inputs": [
        {
          "name": "_memberId",
          "type": "uint256"
        },
        {
          "name": "_creationDate",
          "type": "uint256"
        },
        {
          "name": "_name",
          "type": "string"
        },
        {
          "name": "_logo",
          "type": "string"
        },
        {
          "name": "_country",
          "type": "string"
        },
        {
          "name": "_cmo",
          "type": "string"
        },
        {
          "name": "_theme",
          "type": "string"
        },
        {
          "name": "_totalTokens",
          "type": "uint256"
        }
      ],
      "name": "updateMember",
      "outputs": [],
      "payable": false,
      "stateMutability": "nonpayable",
      "type": "function"
    },
    {
      "constant": false,
      "inputs": [
        {
          "name": "_memberId",
          "type": "uint256"
        },
        {
          "name": "newInbox",
          "type": "uint256[]"
        }
      ],
      "name": "updateMemberClaimInbox",
      "outputs": [],
      "payable": false,
      "stateMutability": "nonpayable",
      "type": "function"
    },
    {
      "constant": true,
      "inputs": [],
      "name": "getMembers",
      "outputs": [
        {
          "components": [
            {
              "name": "memberId",
              "type": "uint256"
            },
            {
              "name": "creationDate",
              "type": "uint256"
            },
            {
              "name": "name",
              "type": "string"
            },
            {
              "name": "logo",
              "type": "string"
            },
            {
              "name": "country",
              "type": "string"
            },
            {
              "name": "cmo",
              "type": "string"
            },
            {
              "name": "theme",
              "type": "string"
            },
            {
              "name": "claimInbox",
              "type": "uint256[]"
            },
            {
              "name": "claims",
              "type": "uint256[]"
            },
            {
              "name": "userRequests",
              "type": "address[]"
            },
            {
              "name": "totalTokens",
              "type": "uint256"
            }
          ],
          "name": "",
          "type": "tuple[]"
        }
      ],
      "payable": false,
      "stateMutability": "view",
      "type": "function"
    },
    {
      "constant": true,
      "inputs": [
        {
          "name": "_page",
          "type": "uint256"
        }
      ],
      "name": "getMembers",
      "outputs": [
        {
          "components": [
            {
              "name": "memberId",
              "type": "uint256"
            },
            {
              "name": "creationDate",
              "type": "uint256"
            },
            {
              "name": "name",
              "type": "string"
            },
            {
              "name": "logo",
              "type": "string"
            },
            {
              "name": "country",
              "type": "string"
            },
            {
              "name": "cmo",
              "type": "string"
            },
            {
              "name": "theme",
              "type": "string"
            },
            {
              "name": "claimInbox",
              "type": "uint256[]"
            },
            {
              "name": "claims",
              "type": "uint256[]"
            },
            {
              "name": "userRequests",
              "type": "address[]"
            },
            {
              "name": "totalTokens",
              "type": "uint256"
            }
          ],
          "name": "",
          "type": "tuple[]"
        }
      ],
      "payable": false,
      "stateMutability": "view",
      "type": "function"
    },
    {
      "constant": true,
      "inputs": [],
      "name": "getCount",
      "outputs": [
        {
          "name": "",
          "type": "uint256"
        }
      ],
      "payable": false,
      "stateMutability": "view",
      "type": "function"
    }
  ],
  "bytecode": "0x608060405260006003556200001d3364010000000062000023810204565b62000108565b6200003e600082640100000000620018176200007582021704565b604051600160a060020a038216907f47d1c22a25bb3a5d4e481b9b1e6944c2eade3181a0a20b495ed61d35b5323f2490600090a250565b600160a060020a03811615156200008b57600080fd5b620000a08282640100000000620000d0810204565b15620000ab57600080fd5b600160a060020a0316600090815260209190915260409020805460ff19166001179055565b6000600160a060020a0382161515620000e857600080fd5b50600160a060020a03166000908152602091909152604090205460ff1690565b6124ee80620001186000396000f3006080604052600436106100c45763ffffffff7c01000000000000000000000000000000000000000000000000000000006000350416633a59ccf181146100c9578063656d561c146100eb5780637df73e27146101165780637e5f3afb146101435780639eab525314610170578063a87d942c14610192578063bf3d007e146101a7578063c29c9225146101c7578063c477ecab146101e7578063d68dee9d14610207578063e5c8b03d14610227578063eb12d61e1461023c578063fa1188c61461025c575b600080fd5b3480156100d557600080fd5b506100e96100e4366004611c44565b61027c565b005b3480156100f757600080fd5b506101006102d8565b60405161010d9190612335565b60405180910390f35b34801561012257600080fd5b50610136610131366004611c1e565b6103b1565b60405161010d9190612357565b34801561014f57600080fd5b5061016361015e366004611c79565b6103c9565b60405161010d91906123d5565b34801561017c57600080fd5b506101856103e8565b60405161010d9190612346565b34801561019e57600080fd5b506101636108bf565b3480156101b357600080fd5b506100e96101c2366004611c79565b6108dc565b3480156101d357600080fd5b506100e96101e2366004611c97565b610999565b3480156101f357600080fd5b50610185610202366004611c79565b6109be565b34801561021357600080fd5b506100e9610222366004611de8565b610ee3565b34801561023357600080fd5b506100e9610fcc565b34801561024857600080fd5b506100e9610257366004611c1e565b610fd7565b34801561026857600080fd5b50610163610277366004611ce9565b610ff7565b610285336103b1565b151561029057600080fd5b6001805480820180835560009290925282516102d3917fb10e2d527612073b26eecdfd717e6a320cf44b4afac2b0732d9fcbe2b7fa0cf601906020850190611865565b505050565b60606001805480602002602001604051908101604052809291908181526020016000905b828210156103a75760008481526020908190208301805460408051601f60026000196101006001871615020190941693909304928301859004850281018501909152818152928301828280156103935780601f1061036857610100808354040283529160200191610393565b820191906000526020600020905b81548152906001019060200180831161037657829003601f168201915b5050505050815260200190600101906102fc565b5050505090505b90565b60006103c3818363ffffffff61109d16565b92915050565b60048054829081106103d757fe5b600091825260209091200154905081565b606080600060048054905060405190808252806020026020018201604052801561042c57816020015b6104196118e3565b8152602001906001900390816104115790505b509150600090505b6004548110156108b9576002600060048381548110151561045157fe5b9060005260206000200154815260200190815260200160002061016060405190810160405290816000820154815260200160018201548152602001600282018054600181600116156101000203166002900480601f0160208091040260200160405190810160405280929190818152602001828054600181600116156101000203166002900480156105245780601f106104f957610100808354040283529160200191610524565b820191906000526020600020905b81548152906001019060200180831161050757829003601f168201915b505050918352505060038201805460408051602060026001851615610100026000190190941693909304601f81018490048402820184019092528181529382019392918301828280156105b85780601f1061058d576101008083540402835291602001916105b8565b820191906000526020600020905b81548152906001019060200180831161059b57829003601f168201915b505050918352505060048201805460408051602060026001851615610100026000190190941693909304601f810184900484028201840190925281815293820193929183018282801561064c5780601f106106215761010080835404028352916020019161064c565b820191906000526020600020905b81548152906001019060200180831161062f57829003601f168201915b505050918352505060058201805460408051602060026001851615610100026000190190941693909304601f81018490048402820184019092528181529382019392918301828280156106e05780601f106106b5576101008083540402835291602001916106e0565b820191906000526020600020905b8154815290600101906020018083116106c357829003601f168201915b505050918352505060068201805460408051602060026001851615610100026000190190941693909304601f81018490048402820184019092528181529382019392918301828280156107745780601f1061074957610100808354040283529160200191610774565b820191906000526020600020905b81548152906001019060200180831161075757829003601f168201915b50505050508152602001600782018054806020026020016040519081016040528092919081815260200182805480156107cc57602002820191906000526020600020905b8154815260200190600101908083116107b8575b505050505081526020016008820180548060200260200160405190810160405280929190818152602001828054801561082457602002820191906000526020600020905b815481526020019060010190808311610810575b505050505081526020016009820180548060200260200160405190810160405280929190818152602001828054801561088657602002820191906000526020600020905b8154600160a060020a03168152600190910190602001808311610868575b50505050508152602001600a8201548152505082828151811015156108a757fe5b60209081029091010152600101610434565b50919050565b60006108ca336103b1565b15156108d557600080fd5b5060045490565b60006108e7336103b1565b15156108f257600080fd5b50805b6001546000190181101561095e576001805482820190811061091357fe5b9060005260206000200160018281548110151561092c57fe5b90600052602060002001908054600181600116156101000203166002900461095592919061193e565b506001016108f5565b60018054600019810190811061097057fe5b90600052602060002001600061098691906119b3565b60018054906102d39060001983016119f7565b600082815260026020908152604090912082516102d392600790920191840190611a1b565b60606000806000606060006109d4600a886110d4565b6004549095506109e590600a61110d565b60045490945015806109fc57506004546000190185115b80610a0657508387115b15610a1057610ed9565b60408051600a80825261016082019092526000945090816020015b610a336118e3565b815260200190600190039081610a2b5790505091508490505b600454811015610ed55760026000600483815481101515610a6957fe5b9060005260206000200154815260200190815260200160002061016060405190810160405290816000820154815260200160018201548152602001600282018054600181600116156101000203166002900480601f016020809104026020016040519081016040528092919081815260200182805460018160011615610100020316600290048015610b3c5780601f10610b1157610100808354040283529160200191610b3c565b820191906000526020600020905b815481529060010190602001808311610b1f57829003601f168201915b505050918352505060038201805460408051602060026001851615610100026000190190941693909304601f8101849004840282018401909252818152938201939291830182828015610bd05780601f10610ba557610100808354040283529160200191610bd0565b820191906000526020600020905b815481529060010190602001808311610bb357829003601f168201915b505050918352505060048201805460408051602060026001851615610100026000190190941693909304601f8101849004840282018401909252818152938201939291830182828015610c645780601f10610c3957610100808354040283529160200191610c64565b820191906000526020600020905b815481529060010190602001808311610c4757829003601f168201915b505050918352505060058201805460408051602060026001851615610100026000190190941693909304601f8101849004840282018401909252818152938201939291830182828015610cf85780601f10610ccd57610100808354040283529160200191610cf8565b820191906000526020600020905b815481529060010190602001808311610cdb57829003601f168201915b505050918352505060068201805460408051602060026001851615610100026000190190941693909304601f8101849004840282018401909252818152938201939291830182828015610d8c5780601f10610d6157610100808354040283529160200191610d8c565b820191906000526020600020905b815481529060010190602001808311610d6f57829003601f168201915b5050505050815260200160078201805480602002602001604051908101604052809291908181526020018280548015610de457602002820191906000526020600020905b815481526020019060010190808311610dd0575b5050505050815260200160088201805480602002602001604051908101604052809291908181526020018280548015610e3c57602002820191906000526020600020905b815481526020019060010190808311610e28575b5050505050815260200160098201805480602002602001604051908101604052809291908181526020018280548015610e9e57602002820191906000526020600020905b8154600160a060020a03168152600190910190602001808311610e80575b50505050508152602001600a820154815250508284815181101515610ebf57fe5b6020908102909101015260019283019201610a4c565b8195505b5050505050919050565b610eec336103b1565b1515610ef757600080fd5b60008881526002602052604081205411610f2f5760405160e560020a62461bcd028152600401610f2690612385565b60405180910390fd5b6000888152600260205260409020600101548714610f625760405160e560020a62461bcd028152600401610f2690612365565b60008881526002602081815260409092208851610f8793919092019190890190611865565b5060008881526002602090815260409091208351610fad92600690920191850190611865565b50600097885260026020526040909720600a0196909655505050505050565b610fd533611130565b565b610fe0336103b1565b1515610feb57600080fd5b610ff481611178565b50565b600080611003336103b1565b151561100e57600080fd5b600088116110315760405160e560020a62461bcd028152600401610f26906123c5565b5060038054600101908190556000818152600260205260409020541561106c5760405160e560020a62461bcd028152600401610f2690612375565b61107b818989898989896111c0565b60008181526002602052604090206103e8600a90910155979650505050505050565b6000600160a060020a03821615156110b457600080fd5b50600160a060020a03166000908152602091909152604090205460ff1690565b6000808315156110e75760009150611106565b508282028284828115156110f757fe5b041461110257600080fd5b8091505b5092915050565b60008080831161111c57600080fd5b828481151561112757fe5b04949350505050565b61114160008263ffffffff6117cb16565b604051600160a060020a038216907f3525e22824a8a7df2c9a6029941c824cf95b6447f1e13d5128fd3826d35afe8b90600090a250565b61118960008263ffffffff61181716565b604051600160a060020a038216907f47d1c22a25bb3a5d4e481b9b1e6944c2eade3181a0a20b495ed61d35b5323f2490600090a250565b6111c86118e3565b855115156111eb5760405160e560020a62461bcd028152600401610f26906123b5565b8251151561120e5760405160e560020a62461bcd028152600401610f26906123a5565b815115156112315760405160e560020a62461bcd028152600401610f2690612395565b6000888152600260208181526040928390208351610160810185528154815260018083015482850152828501805487519281161561010002600019011695909504601f810185900485028201850187528082529195929492860193909291908301828280156112e15780601f106112b6576101008083540402835291602001916112e1565b820191906000526020600020905b8154815290600101906020018083116112c457829003601f168201915b505050918352505060038201805460408051602060026001851615610100026000190190941693909304601f81018490048402820184019092528181529382019392918301828280156113755780601f1061134a57610100808354040283529160200191611375565b820191906000526020600020905b81548152906001019060200180831161135857829003601f168201915b505050918352505060048201805460408051602060026001851615610100026000190190941693909304601f81018490048402820184019092528181529382019392918301828280156114095780601f106113de57610100808354040283529160200191611409565b820191906000526020600020905b8154815290600101906020018083116113ec57829003601f168201915b505050918352505060058201805460408051602060026001851615610100026000190190941693909304601f810184900484028201840190925281815293820193929183018282801561149d5780601f106114725761010080835404028352916020019161149d565b820191906000526020600020905b81548152906001019060200180831161148057829003601f168201915b505050918352505060068201805460408051602060026001851615610100026000190190941693909304601f81018490048402820184019092528181529382019392918301828280156115315780601f1061150657610100808354040283529160200191611531565b820191906000526020600020905b81548152906001019060200180831161151457829003601f168201915b505050505081526020016007820180548060200260200160405190810160405280929190818152602001828054801561158957602002820191906000526020600020905b815481526020019060010190808311611575575b50505050508152602001600882018054806020026020016040519081016040528092919081815260200182805480156115e157602002820191906000526020600020905b8154815260200190600101908083116115cd575b505050505081526020016009820180548060200260200160405190810160405280929190818152602001828054801561164357602002820191906000526020600020905b8154600160a060020a03168152600190910190602001808311611625575b5050509183525050600a919091015460209182015289825281810189815260408084018a8152606085018a90526080850189905260a0850188905260c0850187905260008d815260028086529290208551815592516001840155518051949550859492936116b79392850192910190611865565b50606082015180516116d3916003840191602090910190611865565b50608082015180516116ef916004840191602090910190611865565b5060a0820151805161170b916005840191602090910190611865565b5060c08201518051611727916006840191602090910190611865565b5060e08201518051611743916007840191602090910190611a1b565b506101008201518051611760916008840191602090910190611a1b565b50610120820151805161177d916009840191602090910190611a55565b506101409190910151600a909101555050600480546001810182556000919091527f8a35acfbc15ff81a39ae7d344fd709f28e8600b4aa8c65c6b64bfe7fe36bd19b01959095555050505050565b600160a060020a03811615156117e057600080fd5b6117ea828261109d565b15156117f557600080fd5b600160a060020a0316600090815260209190915260409020805460ff19169055565b600160a060020a038116151561182c57600080fd5b611836828261109d565b1561184057600080fd5b600160a060020a0316600090815260209190915260409020805460ff19166001179055565b828054600181600116156101000203166002900490600052602060002090601f016020900481019282601f106118a657805160ff19168380011785556118d3565b828001600101855582156118d3579182015b828111156118d35782518255916020019190600101906118b8565b506118df929150611ac3565b5090565b6101606040519081016040528060008152602001600081526020016060815260200160608152602001606081526020016060815260200160608152602001606081526020016060815260200160608152602001600081525090565b828054600181600116156101000203166002900490600052602060002090601f016020900481019282601f1061197757805485556118d3565b828001600101855582156118d357600052602060002091601f016020900482015b828111156118d3578254825591600101919060010190611998565b50805460018160011615610100020316600290046000825580601f106119d95750610ff4565b601f016020900490600052602060002090810190610ff49190611ac3565b8154818355818111156102d3576000838152602090206102d3918101908301611add565b8280548282559060005260206000209081019282156118d357916020028201828111156118d35782518255916020019190600101906118b8565b828054828255906000526020600020908101928215611ab7579160200282015b82811115611ab7578251825473ffffffffffffffffffffffffffffffffffffffff1916600160a060020a03909116178255602090920191600190910190611a75565b506118df929150611b00565b6103ae91905b808211156118df5760008155600101611ac9565b6103ae91905b808211156118df576000611af782826119b3565b50600101611ae3565b6103ae91905b808211156118df57805473ffffffffffffffffffffffffffffffffffffffff19168155600101611b06565b6000611b3d823561245d565b9392505050565b6000601f82018313611b5557600080fd5b8135611b68611b638261240a565b6123e3565b91508181835260208401935060208101905083856020840282011115611b8d57600080fd5b60005b83811015611bb95781611ba38882611c12565b8452506020928301929190910190600101611b90565b5050505092915050565b6000601f82018313611bd457600080fd5b8135611be2611b638261242b565b91508082526020830160208301858383011115611bfe57600080fd5b611c0983828461246e565b50505092915050565b6000611b3d82356103ae565b600060208284031215611c3057600080fd5b6000611c3c8484611b31565b949350505050565b600060208284031215611c5657600080fd5b813567ffffffffffffffff811115611c6d57600080fd5b611c3c84828501611bc3565b600060208284031215611c8b57600080fd5b6000611c3c8484611c12565b60008060408385031215611caa57600080fd5b6000611cb68585611c12565b925050602083013567ffffffffffffffff811115611cd357600080fd5b611cdf85828601611b44565b9150509250929050565b60008060008060008060c08789031215611d0257600080fd5b6000611d0e8989611c12565b965050602087013567ffffffffffffffff811115611d2b57600080fd5b611d3789828a01611bc3565b955050604087013567ffffffffffffffff811115611d5457600080fd5b611d6089828a01611bc3565b945050606087013567ffffffffffffffff811115611d7d57600080fd5b611d8989828a01611bc3565b935050608087013567ffffffffffffffff811115611da657600080fd5b611db289828a01611bc3565b92505060a087013567ffffffffffffffff811115611dcf57600080fd5b611ddb89828a01611bc3565b9150509295509295509295565b600080600080600080600080610100898b031215611e0557600080fd5b6000611e118b8b611c12565b9850506020611e228b828c01611c12565b975050604089013567ffffffffffffffff811115611e3f57600080fd5b611e4b8b828c01611bc3565b965050606089013567ffffffffffffffff811115611e6857600080fd5b611e748b828c01611bc3565b955050608089013567ffffffffffffffff811115611e9157600080fd5b611e9d8b828c01611bc3565b94505060a089013567ffffffffffffffff811115611eba57600080fd5b611ec68b828c01611bc3565b93505060c089013567ffffffffffffffff811115611ee357600080fd5b611eef8b828c01611bc3565b92505060e0611f008b828c01611c12565b9150509295985092959890939650565b611f198161245d565b82525050565b6000611f2a82612459565b808452602084019350611f3c83612453565b60005b82811015611f6c57611f52868351611f10565b611f5b82612453565b602096909601959150600101611f3f565b5093949350505050565b6000611f8182612459565b80845260208401935083602082028501611f9a85612453565b60005b84811015611fd1578383038852611fb583835161208e565b9250611fc082612453565b602098909801979150600101611f9d565b50909695505050505050565b6000611fe882612459565b8084526020840193508360208202850161200185612453565b60005b84811015611fd157838303885261201c838351612213565b925061202782612453565b602098909801979150600101612004565b600061204382612459565b80845260208401935061205583612453565b60005b82811015611f6c5761206b86835161232c565b61207482612453565b602096909601959150600101612058565b611f1981612469565b600061209982612459565b8084526120ad81602086016020860161247a565b6120b6816124aa565b9093016020019392505050565b601a81527f4372656174696f6e204461746520697320696d6d757461626c65000000000000602082015260400190565b601581527f4d656d62657220616c7265616479206578697374730000000000000000000000602082015260400190565b601181527f4d656d626572206e6f7420657869737473000000000000000000000000000000602082015260400190565b601281527f5468656d65206973206d616e6461746f72790000000000000000000000000000602082015260400190565b601081527f434d4f206973206d616e6461746f727900000000000000000000000000000000602082015260400190565b601181527f4e616d65206973206d616e6461746f7279000000000000000000000000000000602082015260400190565b601981527f4372656174696f6e44617465206973206d616e6461746f727900000000000000602082015260400190565b8051600090610160840190612228858261232c565b50602083015161223b602086018261232c565b5060408301518482036040860152612253828261208e565b9150506060830151848203606086015261226d828261208e565b91505060808301518482036080860152612287828261208e565b91505060a083015184820360a08601526122a1828261208e565b91505060c083015184820360c08601526122bb828261208e565b91505060e083015184820360e08601526122d58282612038565b9150506101008301518482036101008601526122f18282612038565b91505061012083015184820361012086015261230d8282611f1f565b91505061014083015161232461014086018261232c565b509392505050565b611f19816103ae565b60208082528101611b3d8184611f76565b60208082528101611b3d8184611fdd565b602081016103c38284612085565b602080825281016103c3816120c3565b602080825281016103c3816120f3565b602080825281016103c381612123565b602080825281016103c381612153565b602080825281016103c381612183565b602080825281016103c3816121b3565b602080825281016103c3816121e3565b602081016103c3828461232c565b60405181810167ffffffffffffffff8111828210171561240257600080fd5b604052919050565b600067ffffffffffffffff82111561242157600080fd5b5060209081020190565b600067ffffffffffffffff82111561244257600080fd5b506020601f91909101601f19160190565b60200190565b5190565b600160a060020a031690565b151590565b82818337506000910152565b60005b8381101561249557818101518382015260200161247d565b838111156124a4576000848401525b50505050565b601f01601f1916905600a265627a7a72305820c93c0803fdb709c6d1141d89e7668a499223684d4ab4c5eebaa257f67ee76be56c6578706572696d656e74616cf50037",
  "source": "pragma solidity ^0.4.24;\npragma experimental ABIEncoderV2;\n\nimport \"./SafeMath.sol\";\nimport \"./random.sol\";\nimport \"./Registry.sol\";\n\ncontract Members is Random, Registry {\n\n  struct Member { \n    uint256 memberId;\n    uint256 creationDate;\n    string name;\n    string logo;\n    string country;\n    string cmo;\n    string theme;\n    uint256[] claimInbox;\n    uint256[] claims;\n    address[] userRequests;\n    uint totalTokens;\n  }\n\n  uint256 constant private PAGE_SIZE = 10;\n\n  mapping (uint256 => Member) members_;\n  uint256 internal memberIdCounter_ = 0; // Equals the number of (members + Super Admins) ever inserted, including the deleted ones.\n\n  uint256[] public membersList_;\n\n  // METHODS\n  // Public\n\n  function addMember(uint256 _creationDate, string _name, string _logo, string _country, string _cmo, string _theme)\n  onlySigner public returns(uint) {\n    //  string _group) onlySigner public returns(uint) {\n    require(_creationDate > 0, \"CreationDate is mandatory\");\n//    uint256 _memberId = Random.rand(_creationDate);\n    uint256 _memberId = ++memberIdCounter_;\n    require(members_[_memberId].memberId == 0, \"Member already exists\");\n    _saveMember(_memberId, _creationDate, _name, _logo, _country, _cmo, _theme);\n//    members_[_memberId].group = _group;\n    members_[_memberId].totalTokens = 1000;\n\n    return _memberId;\n  }\n\n  function updateMember(uint256 _memberId, uint256 _creationDate,\n    string _name, string _logo, string _country, string _cmo, string _theme, uint _totalTokens) onlySigner public {\n  // , string _group) onlySigner public {\n    require(members_[_memberId].memberId > 0, \"Member not exists\");\n    require(members_[_memberId].creationDate == _creationDate, \"Creation Date is immutable\");\n//    _saveMember(_memberId, _creationDate, _name, _logo, _country, _cmo, _theme);\n//    members_[_memberId].group = _group;\n    members_[_memberId].name = _name;\n    members_[_memberId].theme = _theme;\n    members_[_memberId].totalTokens = _totalTokens;\n  }\n\n  function updateMemberClaimInbox(uint256 _memberId, uint256[] newInbox) public {\n    members_[_memberId].claimInbox = newInbox;\n  }\n\n  function getMembers() public view returns (Member[] memory) {\n    Member[] memory memberPage = new Member[](membersList_.length);\n    for (uint i = 0; i < membersList_.length; ++i) {\n        memberPage[i] = members_[membersList_[i]];\n    }\n    return memberPage;\n  }\n\n  function getMembers(uint _page) public view returns (Member[] memory) {\n    uint256 pageIndex = SafeMath.mul(PAGE_SIZE, _page);\n    uint256 pageNumber = SafeMath.div(membersList_.length, PAGE_SIZE);\n\n    if (membersList_.length == 0 || pageIndex > membersList_.length - 1 || _page > pageNumber) {\n      return;\n    }\n\n    // Insert items filtered into array.\n    uint256 resultCount = 0;\n    Member[] memory memberPage = new Member[](PAGE_SIZE);\n    for(uint j = pageIndex; j < membersList_.length; ++j) {\n        memberPage[resultCount] = members_[membersList_[j]];\n        ++resultCount;\n    }\n    return memberPage;\n  }\n\n  function getCount() onlySigner public view returns (uint256) {\n    return membersList_.length;\n  }\n\n  // Private\n\n  function _saveMember(uint256 _memberId, uint256 _creationDate, string _name, string _logo, string _country,\n    string _cmo, string _theme) private {\n\n    require(bytes(_name).length != 0, \"Name is mandatory\");\n    require(bytes(_cmo).length != 0, \"CMO is mandatory\");\n    require(bytes(_theme).length != 0, \"Theme is mandatory\");\n\n    Member memory member = members_[_memberId];\n    member.memberId = _memberId;\n    member.creationDate = _creationDate;\n    member.name = _name;\n    member.logo = _logo;\n    member.country = _country;\n    member.cmo = _cmo;\n    member.theme = _theme;\n\n    members_[_memberId] = member;\n    membersList_.push(_memberId);\n\n  }\n\n  function _addUserToMemberRequest(uint _memberId) internal {\n    members_[_memberId].userRequests.push(msg.sender);\n  }\n\n  function _clearUserFromMemberRequest(uint _memberId, address userAddress) internal {\n     bool found = false;\n    // Remove index\n    for (uint j = 0; j < members_[_memberId].userRequests.length - 1; j++) {\n      if(members_[_memberId].userRequests[j] == userAddress) {\n        found = true;\n      }\n      if(found) {\n        members_[_memberId].userRequests[j] = members_[_memberId].userRequests[j + 1];\n      }\n    }\n//    if (found) {\n      delete members_[_memberId].userRequests[members_[_memberId].userRequests.length - 1];\n      members_[_memberId].userRequests.length--;\n//    }\n  }\n\n}\n",
  "sourcePath": "/home/komodo/newUI2/bloomen-decentralized-rights-management-v2/truffle/contracts/registry/Members.sol",
  "compiler": {
    "name": "solc",
    "version": "0.4.24+commit.e67f0147.Emscripten.clang"
  },
  "schemaVersion": "2.0.1",
  "updatedAt": "2020-06-21T15:05:01.819Z"
}