{
  "contractName": "Members",
  "abi": [
    {
      "constant": false,
      "inputs": [
        {
          "name": "_cmo",
          "type": "string"
        }
      ],
      "name": "addCMO",
      "outputs": [],
      "payable": false,
      "stateMutability": "nonpayable",
      "type": "function"
    },
    {
      "constant": true,
      "inputs": [],
      "name": "getCMOs",
      "outputs": [
        {
          "name": "",
          "type": "string[]"
        }
      ],
      "payable": false,
      "stateMutability": "view",
      "type": "function"
    },
    {
      "constant": true,
      "inputs": [
        {
          "name": "account",
          "type": "address"
        }
      ],
      "name": "isSigner",
      "outputs": [
        {
          "name": "",
          "type": "bool"
        }
      ],
      "payable": false,
      "stateMutability": "view",
      "type": "function"
    },
    {
      "constant": false,
      "inputs": [
        {
          "name": "_index",
          "type": "uint256"
        }
      ],
      "name": "deleteCMO",
      "outputs": [],
      "payable": false,
      "stateMutability": "nonpayable",
      "type": "function"
    },
    {
      "constant": false,
      "inputs": [],
      "name": "renounceSigner",
      "outputs": [],
      "payable": false,
      "stateMutability": "nonpayable",
      "type": "function"
    },
    {
      "constant": false,
      "inputs": [
        {
          "name": "account",
          "type": "address"
        }
      ],
      "name": "addSigner",
      "outputs": [],
      "payable": false,
      "stateMutability": "nonpayable",
      "type": "function"
    },
    {
      "anonymous": false,
      "inputs": [
        {
          "indexed": true,
          "name": "account",
          "type": "address"
        }
      ],
      "name": "SignerAdded",
      "type": "event"
    },
    {
      "anonymous": false,
      "inputs": [
        {
          "indexed": true,
          "name": "account",
          "type": "address"
        }
      ],
      "name": "SignerRemoved",
      "type": "event"
    },
    {
      "constant": false,
      "inputs": [
        {
          "name": "_creationDate",
          "type": "uint256"
        },
        {
          "name": "_name",
          "type": "string"
        },
        {
          "name": "_logo",
          "type": "string"
        },
        {
          "name": "_country",
          "type": "string"
        },
        {
          "name": "_cmo",
          "type": "string"
        },
        {
          "name": "_theme",
          "type": "string"
        }
      ],
      "name": "addMember",
      "outputs": [
        {
          "name": "",
          "type": "uint256"
        }
      ],
      "payable": false,
      "stateMutability": "nonpayable",
      "type": "function"
    },
    {
      "constant": false,
      "inputs": [
        {
          "name": "_memberId",
          "type": "uint256"
        },
        {
          "name": "_creationDate",
          "type": "uint256"
        },
        {
          "name": "_name",
          "type": "string"
        },
        {
          "name": "_logo",
          "type": "string"
        },
        {
          "name": "_country",
          "type": "string"
        },
        {
          "name": "_cmo",
          "type": "string"
        },
        {
          "name": "_theme",
          "type": "string"
        }
      ],
      "name": "updateMember",
      "outputs": [],
      "payable": false,
      "stateMutability": "nonpayable",
      "type": "function"
    },
    {
      "constant": true,
      "inputs": [
        {
          "name": "_page",
          "type": "uint256"
        }
      ],
      "name": "getMembers",
      "outputs": [
        {
          "components": [
            {
              "name": "memberId",
              "type": "uint256"
            },
            {
              "name": "creationDate",
              "type": "uint256"
            },
            {
              "name": "name",
              "type": "string"
            },
            {
              "name": "logo",
              "type": "string"
            },
            {
              "name": "country",
              "type": "string"
            },
            {
              "name": "cmo",
              "type": "string"
            },
            {
              "name": "theme",
              "type": "string"
            },
            {
              "name": "claimInbox",
              "type": "uint256[]"
            },
            {
              "name": "claims",
              "type": "uint256[]"
            },
            {
              "name": "userRequests",
              "type": "address[]"
            },
            {
              "name": "totalTokens",
              "type": "uint256"
            }
          ],
          "name": "",
          "type": "tuple[]"
        }
      ],
      "payable": false,
      "stateMutability": "view",
      "type": "function"
    },
    {
      "constant": true,
      "inputs": [],
      "name": "getMembers",
      "outputs": [
        {
          "components": [
            {
              "name": "memberId",
              "type": "uint256"
            },
            {
              "name": "creationDate",
              "type": "uint256"
            },
            {
              "name": "name",
              "type": "string"
            },
            {
              "name": "logo",
              "type": "string"
            },
            {
              "name": "country",
              "type": "string"
            },
            {
              "name": "cmo",
              "type": "string"
            },
            {
              "name": "theme",
              "type": "string"
            },
            {
              "name": "claimInbox",
              "type": "uint256[]"
            },
            {
              "name": "claims",
              "type": "uint256[]"
            },
            {
              "name": "userRequests",
              "type": "address[]"
            },
            {
              "name": "totalTokens",
              "type": "uint256"
            }
          ],
          "name": "",
          "type": "tuple[]"
        }
      ],
      "payable": false,
      "stateMutability": "view",
      "type": "function"
    },
    {
      "constant": true,
      "inputs": [],
      "name": "getCount",
      "outputs": [
        {
          "name": "",
          "type": "uint256"
        }
      ],
      "payable": false,
      "stateMutability": "view",
      "type": "function"
    },
    {
      "constant": false,
      "inputs": [
        {
          "name": "currentCMO",
          "type": "string"
        },
        {
          "name": "currentCMOId",
          "type": "uint256"
        }
      ],
      "name": "_getMemberIdsOfCurrentCMO",
      "outputs": [
        {
          "name": "",
          "type": "uint256[]"
        }
      ],
      "payable": false,
      "stateMutability": "nonpayable",
      "type": "function"
    },
    {
      "constant": true,
      "inputs": [
        {
          "name": "_memberId",
          "type": "uint256"
        }
      ],
      "name": "_getClaimsIdByMember",
      "outputs": [
        {
          "name": "",
          "type": "uint256[]"
        }
      ],
      "payable": false,
      "stateMutability": "view",
      "type": "function"
    },
    {
      "constant": true,
      "inputs": [
        {
          "name": "_memberId",
          "type": "uint256"
        }
      ],
      "name": "_getClaimsCountByMember",
      "outputs": [
        {
          "name": "",
          "type": "uint256"
        }
      ],
      "payable": false,
      "stateMutability": "view",
      "type": "function"
    },
    {
      "constant": false,
      "inputs": [
        {
          "name": "_memberId",
          "type": "uint256"
        },
        {
          "name": "_claimId",
          "type": "uint256"
        }
      ],
      "name": "_addClaimIdToMemberOwner",
      "outputs": [],
      "payable": false,
      "stateMutability": "nonpayable",
      "type": "function"
    },
    {
      "constant": false,
      "inputs": [
        {
          "name": "_memberId",
          "type": "uint256"
        },
        {
          "name": "_claimId",
          "type": "uint256"
        }
      ],
      "name": "_removeClaimIdFromMember",
      "outputs": [],
      "payable": false,
      "stateMutability": "nonpayable",
      "type": "function"
    },
    {
      "constant": false,
      "inputs": [
        {
          "name": "_memberId",
          "type": "uint256"
        },
        {
          "name": "_claimId",
          "type": "uint256"
        }
      ],
      "name": "_addClaimFromInbox",
      "outputs": [],
      "payable": false,
      "stateMutability": "nonpayable",
      "type": "function"
    },
    {
      "constant": true,
      "inputs": [
        {
          "name": "_memberId",
          "type": "uint256"
        }
      ],
      "name": "_memberExists",
      "outputs": [
        {
          "name": "",
          "type": "bool"
        }
      ],
      "payable": false,
      "stateMutability": "view",
      "type": "function"
    },
    {
      "constant": false,
      "inputs": [
        {
          "name": "_memberId",
          "type": "uint256"
        },
        {
          "name": "_claimId",
          "type": "uint256"
        }
      ],
      "name": "_removeClaimFromInbox",
      "outputs": [],
      "payable": false,
      "stateMutability": "nonpayable",
      "type": "function"
    }
  ],
  "bytecode": "0x608060405260006003556200001d3364010000000062000023810204565b62000108565b6200003e60008264010000000062001db46200007582021704565b604051600160a060020a038216907f47d1c22a25bb3a5d4e481b9b1e6944c2eade3181a0a20b495ed61d35b5323f2490600090a250565b600160a060020a03811615156200008b57600080fd5b620000a08282640100000000620000d0810204565b15620000ab57600080fd5b600160a060020a0316600090815260209190915260409020805460ff19166001179055565b6000600160a060020a0382161515620000e857600080fd5b50600160a060020a03166000908152602091909152604090205460ff1690565b612ab880620001186000396000f3006080604052600436106101065763ffffffff7c01000000000000000000000000000000000000000000000000000000006000350416633a59ccf1811461010b5780636262dff61461012d578063656d561c1461016357806365ff0c481461018557806374853239146101a55780637df73e27146101c55780638b92892b146101f2578063989359df146102125780639eab525314610232578063a29d441f14610254578063a87d942c14610274578063affccd8414610296578063bf3d007e146102b6578063c477ecab146102d6578063e2c11f9e146102f6578063e5c8b03d14610316578063eb12d61e1461032b578063f83807331461034b578063fa1188c61461036b575b600080fd5b34801561011757600080fd5b5061012b61012636600461218b565b61038b565b005b34801561013957600080fd5b5061014d610148366004612211565b6103e7565b60405161015a9190612925565b60405180910390f35b34801561016f57600080fd5b50610178610485565b60405161015a9190612903565b34801561019157600080fd5b5061012b6101a036600461234d565b61055e565b3480156101b157600080fd5b5061012b6101c036600461232e565b610629565b3480156101d157600080fd5b506101e56101e0366004612165565b61064f565b60405161015a9190612936565b3480156101fe57600080fd5b5061012b61020d36600461232e565b610667565b34801561021e57600080fd5b5061014d61022d3660046121c0565b610785565b34801561023e57600080fd5b50610247610976565b60405161015a9190612914565b34801561026057600080fd5b5061012b61026f36600461232e565b610e4d565b34801561028057600080fd5b50610289610f1c565b60405161015a91906129c4565b3480156102a257600080fd5b506102896102b1366004612211565b610f39565b3480156102c257600080fd5b5061012b6102d1366004612211565b610f4e565b3480156102e257600080fd5b506102476102f1366004612211565b61100b565b34801561030257600080fd5b5061012b61031136600461232e565b611530565b34801561032257600080fd5b5061012b611556565b34801561033757600080fd5b5061012b610346366004612165565b611561565b34801561035757600080fd5b506101e5610366366004612211565b611581565b34801561037757600080fd5b5061028961038636600461222f565b611594565b6103943361064f565b151561039f57600080fd5b6001805480820180835560009290925282516103e2917fb10e2d527612073b26eecdfd717e6a320cf44b4afac2b0732d9fcbe2b7fa0cf601906020850190611e02565b505050565b600081815260026020526040812054606091106104225760405160e560020a62461bcd02815260040161041990612954565b60405180910390fd5b6000828152600260209081526040918290206008018054835181840281018401909452808452909183018282801561047957602002820191906000526020600020905b815481526020019060010190808311610465575b50505050509050919050565b60606001805480602002602001604051908101604052809291908181526020016000905b828210156105545760008481526020908190208301805460408051601f60026000196101006001871615020190941693909304928301859004850281018501909152818152928301828280156105405780601f1061051557610100808354040283529160200191610540565b820191906000526020600020905b81548152906001019060200180831161052357829003601f168201915b5050505050815260200190600101906104a9565b5050505090505b90565b6105673361064f565b151561057257600080fd5b600087815260026020526040812054116105a15760405160e560020a62461bcd02815260040161041990612974565b60008781526002602052604090206001015486146105d45760405160e560020a62461bcd02815260040161041990612944565b600087815260026020818152604090922087516105f993919092019190880190611e02565b506000878152600260209081526040909120825161061f92600690920191840190611e02565b5050505050505050565b600091825260026020908152604083206007018054600181018255908452922090910155565b6000610661818363ffffffff61163a16565b92915050565b6000805b600084815260026020526040902060070154600019018110156107275760008481526002602052604090206007018054849190839081106106a857fe5b906000526020600020015414156106be57600191505b811561071f5760008481526002602052604090206007018054600183019081106106e457fe5b9060005260206000200154600260008681526020019081526020016000206007018281548110151561071257fe5b6000918252602090912001555b60010161066b565b811561077f5760008481526002602052604090206007018054600019810190811061074e57fe5b60009182526020808320909101829055858252600290526040902060070180549061077d906000198301611e80565b505b50505050565b60606000805b60045481101561092057846040518082805190602001908083835b602083106107c55780518252601f1990920191602091820191016107a6565b6001836020036101000a0380198251168184511680821785525050505050509050019150506040518091039020600019166002600060048481548110151561080957fe5b9060005260206000200154815260200190815260200160002060050160405180828054600181600116156101000203166002900480156108805780601f1061085e576101008083540402835291820191610880565b820191906000526020600020905b81548152906001019060200180831161086c575b50509150506040518091039020600019161480156108cd575083600260006004848154811015156108ad57fe5b906000526020600020015481526020019081526020016000206000015414155b156109185781600260006004848154811015156108e657fe5b600091825260208083209091015483528281019390935260409091018120548354600181018555938252919020909101555b60010161078b565b81546040805160208084028201810190925282815291849183018282801561096757602002820191906000526020600020905b815481526020019060010190808311610953575b50505050509250505092915050565b60608060006004805490506040519080825280602002602001820160405280156109ba57816020015b6109a7611ea4565b81526020019060019003908161099f5790505b509150600090505b600454811015610e4757600260006004838154811015156109df57fe5b9060005260206000200154815260200190815260200160002061016060405190810160405290816000820154815260200160018201548152602001600282018054600181600116156101000203166002900480601f016020809104026020016040519081016040528092919081815260200182805460018160011615610100020316600290048015610ab25780601f10610a8757610100808354040283529160200191610ab2565b820191906000526020600020905b815481529060010190602001808311610a9557829003601f168201915b505050918352505060038201805460408051602060026001851615610100026000190190941693909304601f8101849004840282018401909252818152938201939291830182828015610b465780601f10610b1b57610100808354040283529160200191610b46565b820191906000526020600020905b815481529060010190602001808311610b2957829003601f168201915b505050918352505060048201805460408051602060026001851615610100026000190190941693909304601f8101849004840282018401909252818152938201939291830182828015610bda5780601f10610baf57610100808354040283529160200191610bda565b820191906000526020600020905b815481529060010190602001808311610bbd57829003601f168201915b505050918352505060058201805460408051602060026001851615610100026000190190941693909304601f8101849004840282018401909252818152938201939291830182828015610c6e5780601f10610c4357610100808354040283529160200191610c6e565b820191906000526020600020905b815481529060010190602001808311610c5157829003601f168201915b505050918352505060068201805460408051602060026001851615610100026000190190941693909304601f8101849004840282018401909252818152938201939291830182828015610d025780601f10610cd757610100808354040283529160200191610d02565b820191906000526020600020905b815481529060010190602001808311610ce557829003601f168201915b5050505050815260200160078201805480602002602001604051908101604052809291908181526020018280548015610d5a57602002820191906000526020600020905b815481526020019060010190808311610d46575b5050505050815260200160088201805480602002602001604051908101604052809291908181526020018280548015610db257602002820191906000526020600020905b815481526020019060010190808311610d9e575b5050505050815260200160098201805480602002602001604051908101604052809291908181526020018280548015610e1457602002820191906000526020600020905b8154600160a060020a03168152600190910190602001808311610df6575b50505050508152602001600a820154815250508282815181101515610e3557fe5b602090810290910101526001016109c2565b50919050565b600082815260026020526040812060080154908111156103e257600083815260026020526040902060080180546000198301908110610e8857fe5b90600052602060002001546002600085815260200190815260200160002060080183815481101515610eb657fe5b9060005260206000200181905550816002600085815260200190815260200160002060080160018303815481101515610eeb57fe5b600091825260208083209091019290925584815260029091526040902060080180549061077f906000198301611e80565b6000610f273361064f565b1515610f3257600080fd5b5060045490565b60009081526002602052604090206008015490565b6000610f593361064f565b1515610f6457600080fd5b50805b60015460001901811015610fd05760018054828201908110610f8557fe5b90600052602060002001600182815481101515610f9e57fe5b906000526020600020019080546001816001161561010002031660029004610fc7929190611eff565b50600101610f67565b600180546000198101908110610fe257fe5b906000526020600020016000610ff89190611f74565b60018054906103e2906000198301611fb8565b6060600080600060606000611021600a88611671565b60045490955061103290600a6116aa565b600454909450158061104957506004546000190185115b8061105357508387115b1561105d57611526565b60408051600a80825261016082019092526000945090816020015b611080611ea4565b8152602001906001900390816110785790505091508490505b60045481101561152257600260006004838154811015156110b657fe5b9060005260206000200154815260200190815260200160002061016060405190810160405290816000820154815260200160018201548152602001600282018054600181600116156101000203166002900480601f0160208091040260200160405190810160405280929190818152602001828054600181600116156101000203166002900480156111895780601f1061115e57610100808354040283529160200191611189565b820191906000526020600020905b81548152906001019060200180831161116c57829003601f168201915b505050918352505060038201805460408051602060026001851615610100026000190190941693909304601f810184900484028201840190925281815293820193929183018282801561121d5780601f106111f25761010080835404028352916020019161121d565b820191906000526020600020905b81548152906001019060200180831161120057829003601f168201915b505050918352505060048201805460408051602060026001851615610100026000190190941693909304601f81018490048402820184019092528181529382019392918301828280156112b15780601f10611286576101008083540402835291602001916112b1565b820191906000526020600020905b81548152906001019060200180831161129457829003601f168201915b505050918352505060058201805460408051602060026001851615610100026000190190941693909304601f81018490048402820184019092528181529382019392918301828280156113455780601f1061131a57610100808354040283529160200191611345565b820191906000526020600020905b81548152906001019060200180831161132857829003601f168201915b505050918352505060068201805460408051602060026001851615610100026000190190941693909304601f81018490048402820184019092528181529382019392918301828280156113d95780601f106113ae576101008083540402835291602001916113d9565b820191906000526020600020905b8154815290600101906020018083116113bc57829003601f168201915b505050505081526020016007820180548060200260200160405190810160405280929190818152602001828054801561143157602002820191906000526020600020905b81548152602001906001019080831161141d575b505050505081526020016008820180548060200260200160405190810160405280929190818152602001828054801561148957602002820191906000526020600020905b815481526020019060010190808311611475575b50505050508152602001600982018054806020026020016040519081016040528092919081815260200182805480156114eb57602002820191906000526020600020905b8154600160a060020a031681526001909101906020018083116114cd575b50505050508152602001600a82015481525050828481518110151561150c57fe5b6020908102909101015260019283019201611099565b8195505b5050505050919050565b600091825260026020908152604083206008018054600181018255908452922090910155565b61155f336116cd565b565b61156a3361064f565b151561157557600080fd5b61157e81611715565b50565b6000908152600260205260408120541190565b6000806115a03361064f565b15156115ab57600080fd5b600088116115ce5760405160e560020a62461bcd028152600401610419906129b4565b506003805460010190819055600081815260026020526040902054156116095760405160e560020a62461bcd02815260040161041990612964565b6116188189898989898961175d565b60008181526002602052604090206103e8600a90910155979650505050505050565b6000600160a060020a038216151561165157600080fd5b50600160a060020a03166000908152602091909152604090205460ff1690565b60008083151561168457600091506116a3565b5082820282848281151561169457fe5b041461169f57600080fd5b8091505b5092915050565b6000808083116116b957600080fd5b82848115156116c457fe5b04949350505050565b6116de60008263ffffffff611d6816565b604051600160a060020a038216907f3525e22824a8a7df2c9a6029941c824cf95b6447f1e13d5128fd3826d35afe8b90600090a250565b61172660008263ffffffff611db416565b604051600160a060020a038216907f47d1c22a25bb3a5d4e481b9b1e6944c2eade3181a0a20b495ed61d35b5323f2490600090a250565b611765611ea4565b855115156117885760405160e560020a62461bcd028152600401610419906129a4565b825115156117ab5760405160e560020a62461bcd02815260040161041990612994565b815115156117ce5760405160e560020a62461bcd02815260040161041990612984565b6000888152600260208181526040928390208351610160810185528154815260018083015482850152828501805487519281161561010002600019011695909504601f8101859004850282018501875280825291959294928601939092919083018282801561187e5780601f106118535761010080835404028352916020019161187e565b820191906000526020600020905b81548152906001019060200180831161186157829003601f168201915b505050918352505060038201805460408051602060026001851615610100026000190190941693909304601f81018490048402820184019092528181529382019392918301828280156119125780601f106118e757610100808354040283529160200191611912565b820191906000526020600020905b8154815290600101906020018083116118f557829003601f168201915b505050918352505060048201805460408051602060026001851615610100026000190190941693909304601f81018490048402820184019092528181529382019392918301828280156119a65780601f1061197b576101008083540402835291602001916119a6565b820191906000526020600020905b81548152906001019060200180831161198957829003601f168201915b505050918352505060058201805460408051602060026001851615610100026000190190941693909304601f8101849004840282018401909252818152938201939291830182828015611a3a5780601f10611a0f57610100808354040283529160200191611a3a565b820191906000526020600020905b815481529060010190602001808311611a1d57829003601f168201915b505050918352505060068201805460408051602060026001851615610100026000190190941693909304601f8101849004840282018401909252818152938201939291830182828015611ace5780601f10611aa357610100808354040283529160200191611ace565b820191906000526020600020905b815481529060010190602001808311611ab157829003601f168201915b5050505050815260200160078201805480602002602001604051908101604052809291908181526020018280548015611b2657602002820191906000526020600020905b815481526020019060010190808311611b12575b5050505050815260200160088201805480602002602001604051908101604052809291908181526020018280548015611b7e57602002820191906000526020600020905b815481526020019060010190808311611b6a575b5050505050815260200160098201805480602002602001604051908101604052809291908181526020018280548015611be057602002820191906000526020600020905b8154600160a060020a03168152600190910190602001808311611bc2575b5050509183525050600a919091015460209182015289825281810189815260408084018a8152606085018a90526080850189905260a0850188905260c0850187905260008d81526002808652929020855181559251600184015551805194955085949293611c549392850192910190611e02565b5060608201518051611c70916003840191602090910190611e02565b5060808201518051611c8c916004840191602090910190611e02565b5060a08201518051611ca8916005840191602090910190611e02565b5060c08201518051611cc4916006840191602090910190611e02565b5060e08201518051611ce0916007840191602090910190611fdc565b506101008201518051611cfd916008840191602090910190611fdc565b506101208201518051611d1a916009840191602090910190612016565b506101409190910151600a909101555050600480546001810182556000919091527f8a35acfbc15ff81a39ae7d344fd709f28e8600b4aa8c65c6b64bfe7fe36bd19b01959095555050505050565b600160a060020a0381161515611d7d57600080fd5b611d87828261163a565b1515611d9257600080fd5b600160a060020a0316600090815260209190915260409020805460ff19169055565b600160a060020a0381161515611dc957600080fd5b611dd3828261163a565b15611ddd57600080fd5b600160a060020a0316600090815260209190915260409020805460ff19166001179055565b828054600181600116156101000203166002900490600052602060002090601f016020900481019282601f10611e4357805160ff1916838001178555611e70565b82800160010185558215611e70579182015b82811115611e70578251825591602001919060010190611e55565b50611e7c929150612084565b5090565b8154818355818111156103e2576000838152602090206103e2918101908301612084565b6101606040519081016040528060008152602001600081526020016060815260200160608152602001606081526020016060815260200160608152602001606081526020016060815260200160608152602001600081525090565b828054600181600116156101000203166002900490600052602060002090601f016020900481019282601f10611f385780548555611e70565b82800160010185558215611e7057600052602060002091601f016020900482015b82811115611e70578254825591600101919060010190611f59565b50805460018160011615610100020316600290046000825580601f10611f9a575061157e565b601f01602090049060005260206000209081019061157e9190612084565b8154818355818111156103e2576000838152602090206103e291810190830161209e565b828054828255906000526020600020908101928215611e705791602002820182811115611e70578251825591602001919060010190611e55565b828054828255906000526020600020908101928215612078579160200282015b82811115612078578251825473ffffffffffffffffffffffffffffffffffffffff1916600160a060020a03909116178255602090920191600190910190612036565b50611e7c9291506120c1565b61055b91905b80821115611e7c576000815560010161208a565b61055b91905b80821115611e7c5760006120b88282611f74565b506001016120a4565b61055b91905b80821115611e7c57805473ffffffffffffffffffffffffffffffffffffffff191681556001016120c7565b60006120fe8235612a2b565b9392505050565b6000601f8201831361211657600080fd5b8135612129612124826129f9565b6129d2565b9150808252602083016020830185838301111561214557600080fd5b612150838284612a3c565b50505092915050565b60006120fe823561055b565b60006020828403121561217757600080fd5b600061218384846120f2565b949350505050565b60006020828403121561219d57600080fd5b813567ffffffffffffffff8111156121b457600080fd5b61218384828501612105565b600080604083850312156121d357600080fd5b823567ffffffffffffffff8111156121ea57600080fd5b6121f685828601612105565b925050602061220785828601612159565b9150509250929050565b60006020828403121561222357600080fd5b60006121838484612159565b60008060008060008060c0878903121561224857600080fd5b60006122548989612159565b965050602087013567ffffffffffffffff81111561227157600080fd5b61227d89828a01612105565b955050604087013567ffffffffffffffff81111561229a57600080fd5b6122a689828a01612105565b945050606087013567ffffffffffffffff8111156122c357600080fd5b6122cf89828a01612105565b935050608087013567ffffffffffffffff8111156122ec57600080fd5b6122f889828a01612105565b92505060a087013567ffffffffffffffff81111561231557600080fd5b61232189828a01612105565b9150509295509295509295565b6000806040838503121561234157600080fd5b60006121f68585612159565b600080600080600080600060e0888a03121561236857600080fd5b60006123748a8a612159565b97505060206123858a828b01612159565b965050604088013567ffffffffffffffff8111156123a257600080fd5b6123ae8a828b01612105565b955050606088013567ffffffffffffffff8111156123cb57600080fd5b6123d78a828b01612105565b945050608088013567ffffffffffffffff8111156123f457600080fd5b6124008a828b01612105565b93505060a088013567ffffffffffffffff81111561241d57600080fd5b6124298a828b01612105565b92505060c088013567ffffffffffffffff81111561244657600080fd5b6124528a828b01612105565b91505092959891949750929550565b61246a81612a2b565b82525050565b600061247b82612a27565b80845260208401935061248d83612a21565b60005b828110156124bd576124a3868351612461565b6124ac82612a21565b602096909601959150600101612490565b5093949350505050565b60006124d282612a27565b808452602084019350836020820285016124eb85612a21565b60005b8481101561252257838303885261250683835161262c565b925061251182612a21565b6020989098019791506001016124ee565b50909695505050505050565b600061253982612a27565b8084526020840193508360208202850161255285612a21565b60005b8481101561252257838303885261256d8383516127e1565b925061257882612a21565b602098909801979150600101612555565b600061259482612a27565b8084526020840193506125a683612a21565b60005b828110156124bd576125bc8683516128fa565b6125c582612a21565b6020969096019591506001016125a9565b60006125e182612a27565b8084526020840193506125f383612a21565b60005b828110156124bd576126098683516128fa565b61261282612a21565b6020969096019591506001016125f6565b61246a81612a37565b600061263782612a27565b80845261264b816020860160208601612a48565b61265481612a74565b9093016020019392505050565b601a81527f4372656174696f6e204461746520697320696d6d757461626c65000000000000602082015260400190565b601181527f6d656d626572206e6f7420657869737473000000000000000000000000000000602082015260400190565b601581527f4d656d62657220616c7265616479206578697374730000000000000000000000602082015260400190565b601181527f4d656d626572206e6f7420657869737473000000000000000000000000000000602082015260400190565b601281527f5468656d65206973206d616e6461746f72790000000000000000000000000000602082015260400190565b601081527f434d4f206973206d616e6461746f727900000000000000000000000000000000602082015260400190565b601181527f4e616d65206973206d616e6461746f7279000000000000000000000000000000602082015260400190565b601981527f4372656174696f6e44617465206973206d616e6461746f727900000000000000602082015260400190565b80516000906101608401906127f685826128fa565b50602083015161280960208601826128fa565b5060408301518482036040860152612821828261262c565b9150506060830151848203606086015261283b828261262c565b91505060808301518482036080860152612855828261262c565b91505060a083015184820360a086015261286f828261262c565b91505060c083015184820360c0860152612889828261262c565b91505060e083015184820360e08601526128a382826125d6565b9150506101008301518482036101008601526128bf82826125d6565b9150506101208301518482036101208601526128db8282612470565b9150506101408301516128f26101408601826128fa565b509392505050565b61246a8161055b565b602080825281016120fe81846124c7565b602080825281016120fe818461252e565b602080825281016120fe8184612589565b602081016106618284612623565b6020808252810161066181612661565b6020808252810161066181612691565b60208082528101610661816126c1565b60208082528101610661816126f1565b6020808252810161066181612721565b6020808252810161066181612751565b6020808252810161066181612781565b60208082528101610661816127b1565b6020810161066182846128fa565b60405181810167ffffffffffffffff811182821017156129f157600080fd5b604052919050565b600067ffffffffffffffff821115612a1057600080fd5b506020601f91909101601f19160190565b60200190565b5190565b600160a060020a031690565b151590565b82818337506000910152565b60005b83811015612a63578181015183820152602001612a4b565b8381111561077f5750506000910152565b601f01601f1916905600a265627a7a7230582057b541a7dcf622f72144bdcbb4ffe133f81dccc62394a61393ee6012f24d71f46c6578706572696d656e74616cf50037",
  "source": "pragma solidity ^0.4.24;\npragma experimental ABIEncoderV2;\n\nimport \"./SafeMath.sol\";\nimport \"./random.sol\";\nimport \"./Registry.sol\";\n\ncontract Members is Random, Registry {\n\n  struct Member { \n    uint256 memberId;\n    uint256 creationDate;\n    string name;\n    string logo;\n    string country;\n    string cmo;\n    string theme;\n    uint256[] claimInbox;\n    uint256[] claims;\n    address[] userRequests;\n    uint totalTokens;\n  }\n\n  uint256 constant private PAGE_SIZE = 10;\n\n  mapping (uint256 => Member) members_;\n  uint256 memberIdCounter_ = 0; // Equals the number of (members + Super Admins) ever inserted, including the deleted ones.\n\n  uint256[] private membersList_;\n\n  // METHODS\n  // Public\n\n  function addMember(uint256 _creationDate, string _name, string _logo, string _country, string _cmo, string _theme) onlySigner public returns(uint) {\n    //  string _group) onlySigner public returns(uint) {\n    require(_creationDate > 0, \"CreationDate is mandatory\");\n//    uint256 _memberId = Random.rand(_creationDate);\n    uint256 _memberId = ++memberIdCounter_;\n    require(members_[_memberId].memberId == 0, \"Member already exists\");\n    _saveMember(_memberId, _creationDate, _name, _logo, _country, _cmo, _theme);\n//    members_[_memberId].group = _group;\n    members_[_memberId].totalTokens = 1000;\n\n    return _memberId;\n  }\n\n  function updateMember(uint256 _memberId, uint256 _creationDate, string _name, string _logo, string _country, string _cmo, string _theme) onlySigner public {\n  // , string _group) onlySigner public {\n    require(members_[_memberId].memberId > 0, \"Member not exists\");\n    require(members_[_memberId].creationDate == _creationDate, \"Creation Date is immutable\");\n//    _saveMember(_memberId, _creationDate, _name, _logo, _country, _cmo, _theme);\n//    members_[_memberId].group = _group;\n    members_[_memberId].name = _name;\n    members_[_memberId].theme = _theme;\n  }\n\n  function getMembers() public view returns (Member[] memory) {\n    Member[] memory memberPage = new Member[](membersList_.length);\n    for (uint i = 0; i < membersList_.length; ++i) {\n        memberPage[i] = members_[membersList_[i]];\n    }\n    return memberPage;\n  }\n\n  function getMembers(uint _page) public view returns (Member[] memory) {\n    uint256 pageIndex = SafeMath.mul(PAGE_SIZE, _page);\n    uint256 pageNumber = SafeMath.div(membersList_.length, PAGE_SIZE);\n\n    if (membersList_.length == 0 || pageIndex > membersList_.length - 1 || _page > pageNumber) {\n      return;\n    }\n\n    // Insert items filtered into array.\n    uint256 resultCount = 0;\n    Member[] memory memberPage = new Member[](PAGE_SIZE);\n    for(uint j = pageIndex; j < membersList_.length; ++j) {\n        memberPage[resultCount] = members_[membersList_[j]];\n        ++resultCount;\n    }\n    return memberPage;\n  }\n\n  function getCount() onlySigner public view returns (uint256) {\n    return membersList_.length;\n  }\n\n  // Private\n\n  function _saveMember(uint256 _memberId, uint256 _creationDate, string _name, string _logo, string _country, string _cmo, string _theme) internal {\n\n    require(bytes(_name).length != 0, \"Name is mandatory\");\n    require(bytes(_cmo).length != 0, \"CMO is mandatory\");\n    require(bytes(_theme).length != 0, \"Theme is mandatory\");\n\n    Member memory member = members_[_memberId];\n    member.memberId = _memberId;\n    member.creationDate = _creationDate;\n    member.name = _name;\n    member.logo = _logo;\n    member.country = _country;\n    member.cmo = _cmo;\n    member.theme = _theme;\n\n    members_[_memberId] = member;\n    membersList_.push(_memberId);\n\n  }\n\n  function _getMemberIdsOfCurrentCMO(string currentCMO, uint256 currentCMOId) public returns(uint[]) {\n    uint[] memberIds;\n    for (uint j = 0; j < membersList_.length; ++j) {\n      if (keccak256(members_[membersList_[j]].cmo) == keccak256(currentCMO) && members_[membersList_[j]].memberId != currentCMOId) {\n        memberIds.push(members_[membersList_[j]].memberId);\n      }\n    }\n    return memberIds;\n  }\n\n  function _getClaimsIdByMember(uint _memberId) public view returns(uint[])  {\n    require(members_[_memberId].memberId > 0, \"member not exists\");\n    return members_[_memberId].claims;\n  }\n\n  function _getClaimsCountByMember(uint _memberId) public view returns(uint) {\n    return members_[_memberId].claims.length;\n  }\n\n  function _addUserToMemberRequest(uint _memberId) internal {\n    members_[_memberId].userRequests.push(msg.sender);\n  }\n\n  function _addClaimIdToMemberOwner(uint _memberId, uint _claimId) public {\n    members_[_memberId].claims.push(_claimId);\n  }\n\n  function _removeClaimIdFromMember(uint _memberId, uint _claimId) public {\n//    _rP(_memberId, _claimId);\n//  }\n//\n//  function _rP(uint _memberId, uint _claimId) private {\n    uint claimCount = members_[_memberId].claims.length;\n    if (claimCount > 0) { // require(claimCount > 0, \"not enough claims in member\");\n      members_[_memberId].claims[_claimId] = members_[_memberId].claims[claimCount-1];\n      members_[_memberId].claims[claimCount-1] = _claimId;\n      members_[_memberId].claims.length--;\n    }\n  }\n\n  function _addClaimFromInbox(uint _memberId, uint _claimId) public {\n    members_[_memberId].claimInbox.push(_claimId);\n  }\n\n  function _memberExists(uint _memberId) public view returns(bool) {\n    return members_[_memberId].memberId > 0;\n  }\n\n  function _removeClaimFromInbox(uint _memberId, uint _claimId) public {\n    bool found = false;\n    // Remove index\n    for (uint j = 0; j < members_[_memberId].claimInbox.length - 1; j++) {\n      if(members_[_memberId].claimInbox[j] == _claimId) {\n        found = true;\n      }\n      if(found) {\n        members_[_memberId].claimInbox[j] = members_[_memberId].claimInbox[j + 1];\n      }\n    }\n    if (found) {\n      delete members_[_memberId].claimInbox[members_[_memberId].claimInbox.length - 1];\n      members_[_memberId].claimInbox.length--;\n    }\n  }\n\n  function _clearUserFromMemberRequest(uint _memberId, address userAddress) internal {\n     bool found = false;\n    // Remove index\n    for (uint j = 0; j < members_[_memberId].userRequests.length - 1; j++) {\n      if(members_[_memberId].userRequests[j] == userAddress) {\n        found = true;\n      }\n      if(found) {\n        members_[_memberId].userRequests[j] = members_[_memberId].userRequests[j + 1];\n      }\n    }\n//    if (found) {\n      delete members_[_memberId].userRequests[members_[_memberId].userRequests.length - 1];\n      members_[_memberId].userRequests.length--;\n//    }\n  }\n\n}",
  "sourcePath": "/home/komodo/newUI2/bloomen-decentralized-rights-management-v2/truffle/contracts/registry/Members.sol",
  "compiler": {
    "name": "solc",
    "version": "0.4.24+commit.e67f0147.Emscripten.clang"
  },
  "schemaVersion": "2.0.1",
  "updatedAt": "2020-03-01T12:34:41.192Z"
}