{
  "contractName": "Members",
  "abi": [
    {
      "constant": false,
      "inputs": [
        {
          "name": "_cmo",
          "type": "string"
        }
      ],
      "name": "addCMO",
      "outputs": [],
      "payable": false,
      "stateMutability": "nonpayable",
      "type": "function"
    },
    {
      "constant": true,
      "inputs": [],
      "name": "getCMOs",
      "outputs": [
        {
          "name": "",
          "type": "string[]"
        }
      ],
      "payable": false,
      "stateMutability": "view",
      "type": "function"
    },
    {
      "constant": true,
      "inputs": [
        {
          "name": "account",
          "type": "address"
        }
      ],
      "name": "isSigner",
      "outputs": [
        {
          "name": "",
          "type": "bool"
        }
      ],
      "payable": false,
      "stateMutability": "view",
      "type": "function"
    },
    {
      "constant": false,
      "inputs": [
        {
          "name": "_index",
          "type": "uint256"
        }
      ],
      "name": "deleteCMO",
      "outputs": [],
      "payable": false,
      "stateMutability": "nonpayable",
      "type": "function"
    },
    {
      "constant": false,
      "inputs": [],
      "name": "renounceSigner",
      "outputs": [],
      "payable": false,
      "stateMutability": "nonpayable",
      "type": "function"
    },
    {
      "constant": false,
      "inputs": [
        {
          "name": "account",
          "type": "address"
        }
      ],
      "name": "addSigner",
      "outputs": [],
      "payable": false,
      "stateMutability": "nonpayable",
      "type": "function"
    },
    {
      "anonymous": false,
      "inputs": [
        {
          "indexed": true,
          "name": "account",
          "type": "address"
        }
      ],
      "name": "SignerAdded",
      "type": "event"
    },
    {
      "anonymous": false,
      "inputs": [
        {
          "indexed": true,
          "name": "account",
          "type": "address"
        }
      ],
      "name": "SignerRemoved",
      "type": "event"
    },
    {
      "constant": false,
      "inputs": [
        {
          "name": "_creationDate",
          "type": "uint256"
        },
        {
          "name": "_name",
          "type": "string"
        },
        {
          "name": "_logo",
          "type": "string"
        },
        {
          "name": "_country",
          "type": "string"
        },
        {
          "name": "_cmo",
          "type": "string"
        },
        {
          "name": "_theme",
          "type": "string"
        }
      ],
      "name": "addMember",
      "outputs": [
        {
          "name": "",
          "type": "uint256"
        }
      ],
      "payable": false,
      "stateMutability": "nonpayable",
      "type": "function"
    },
    {
      "constant": false,
      "inputs": [
        {
          "name": "_memberId",
          "type": "uint256"
        },
        {
          "name": "_creationDate",
          "type": "uint256"
        },
        {
          "name": "_name",
          "type": "string"
        },
        {
          "name": "_logo",
          "type": "string"
        },
        {
          "name": "_country",
          "type": "string"
        },
        {
          "name": "_cmo",
          "type": "string"
        },
        {
          "name": "_theme",
          "type": "string"
        },
        {
          "name": "_totalTokens",
          "type": "uint256"
        }
      ],
      "name": "updateMember",
      "outputs": [],
      "payable": false,
      "stateMutability": "nonpayable",
      "type": "function"
    },
    {
      "constant": false,
      "inputs": [
        {
          "name": "_memberId",
          "type": "uint256"
        },
        {
          "name": "newInbox",
          "type": "uint256[]"
        }
      ],
      "name": "updateMemberClaimInbox",
      "outputs": [],
      "payable": false,
      "stateMutability": "nonpayable",
      "type": "function"
    },
    {
      "constant": true,
      "inputs": [],
      "name": "getMembers",
      "outputs": [
        {
          "components": [
            {
              "name": "memberId",
              "type": "uint256"
            },
            {
              "name": "creationDate",
              "type": "uint256"
            },
            {
              "name": "name",
              "type": "string"
            },
            {
              "name": "logo",
              "type": "string"
            },
            {
              "name": "country",
              "type": "string"
            },
            {
              "name": "cmo",
              "type": "string"
            },
            {
              "name": "theme",
              "type": "string"
            },
            {
              "name": "claimInbox",
              "type": "uint256[]"
            },
            {
              "name": "claims",
              "type": "uint256[]"
            },
            {
              "name": "userRequests",
              "type": "address[]"
            },
            {
              "name": "totalTokens",
              "type": "uint256"
            }
          ],
          "name": "",
          "type": "tuple[]"
        }
      ],
      "payable": false,
      "stateMutability": "view",
      "type": "function"
    },
    {
      "constant": true,
      "inputs": [
        {
          "name": "_page",
          "type": "uint256"
        }
      ],
      "name": "getMembers",
      "outputs": [
        {
          "components": [
            {
              "name": "memberId",
              "type": "uint256"
            },
            {
              "name": "creationDate",
              "type": "uint256"
            },
            {
              "name": "name",
              "type": "string"
            },
            {
              "name": "logo",
              "type": "string"
            },
            {
              "name": "country",
              "type": "string"
            },
            {
              "name": "cmo",
              "type": "string"
            },
            {
              "name": "theme",
              "type": "string"
            },
            {
              "name": "claimInbox",
              "type": "uint256[]"
            },
            {
              "name": "claims",
              "type": "uint256[]"
            },
            {
              "name": "userRequests",
              "type": "address[]"
            },
            {
              "name": "totalTokens",
              "type": "uint256"
            }
          ],
          "name": "",
          "type": "tuple[]"
        }
      ],
      "payable": false,
      "stateMutability": "view",
      "type": "function"
    },
    {
      "constant": true,
      "inputs": [],
      "name": "getCount",
      "outputs": [
        {
          "name": "",
          "type": "uint256"
        }
      ],
      "payable": false,
      "stateMutability": "view",
      "type": "function"
    },
    {
      "constant": false,
      "inputs": [
        {
          "name": "currentCMO",
          "type": "string"
        },
        {
          "name": "currentCMOId",
          "type": "uint256"
        }
      ],
      "name": "_getMemberIdsOfCurrentCMO",
      "outputs": [
        {
          "name": "",
          "type": "uint256[]"
        }
      ],
      "payable": false,
      "stateMutability": "nonpayable",
      "type": "function"
    },
    {
      "constant": true,
      "inputs": [
        {
          "name": "_memberId",
          "type": "uint256"
        }
      ],
      "name": "_getClaimsIdByMember",
      "outputs": [
        {
          "name": "",
          "type": "uint256[]"
        }
      ],
      "payable": false,
      "stateMutability": "view",
      "type": "function"
    },
    {
      "constant": true,
      "inputs": [
        {
          "name": "_memberId",
          "type": "uint256"
        }
      ],
      "name": "_getClaimsCountByMember",
      "outputs": [
        {
          "name": "",
          "type": "uint256"
        }
      ],
      "payable": false,
      "stateMutability": "view",
      "type": "function"
    },
    {
      "constant": false,
      "inputs": [
        {
          "name": "_memberId",
          "type": "uint256"
        },
        {
          "name": "_claimId",
          "type": "uint256"
        }
      ],
      "name": "_addClaimIdToMemberOwner",
      "outputs": [],
      "payable": false,
      "stateMutability": "nonpayable",
      "type": "function"
    },
    {
      "constant": false,
      "inputs": [
        {
          "name": "_memberId",
          "type": "uint256"
        },
        {
          "name": "_claimId",
          "type": "uint256"
        }
      ],
      "name": "_removeClaimFromMember",
      "outputs": [],
      "payable": false,
      "stateMutability": "nonpayable",
      "type": "function"
    },
    {
      "constant": false,
      "inputs": [
        {
          "name": "_memberId",
          "type": "uint256"
        },
        {
          "name": "_claimId",
          "type": "uint256"
        }
      ],
      "name": "_addClaimFromInbox",
      "outputs": [],
      "payable": false,
      "stateMutability": "nonpayable",
      "type": "function"
    },
    {
      "constant": true,
      "inputs": [
        {
          "name": "_memberId",
          "type": "uint256"
        }
      ],
      "name": "_memberExists",
      "outputs": [
        {
          "name": "",
          "type": "bool"
        }
      ],
      "payable": false,
      "stateMutability": "view",
      "type": "function"
    },
    {
      "constant": false,
      "inputs": [
        {
          "name": "_memberId",
          "type": "uint256"
        },
        {
          "name": "_claimId",
          "type": "uint256"
        }
      ],
      "name": "_removeClaimFromInbox",
      "outputs": [],
      "payable": false,
      "stateMutability": "nonpayable",
      "type": "function"
    }
  ],
  "bytecode": "0x608060405260006003556200001d3364010000000062000023810204565b62000108565b6200003e60008264010000000062001e606200007582021704565b604051600160a060020a038216907f47d1c22a25bb3a5d4e481b9b1e6944c2eade3181a0a20b495ed61d35b5323f2490600090a250565b600160a060020a03811615156200008b57600080fd5b620000a08282640100000000620000d0810204565b15620000ab57600080fd5b600160a060020a0316600090815260209190915260409020805460ff19166001179055565b6000600160a060020a0382161515620000e857600080fd5b50600160a060020a03166000908152602091909152604090205460ff1690565b612c5b80620001186000396000f3006080604052600436106101115763ffffffff7c01000000000000000000000000000000000000000000000000000000006000350416633a59ccf181146101165780636262dff614610138578063656d561c1461016e57806374853239146101905780637df73e27146101b05780638b92892b146101dd578063989359df146101fd5780639eab52531461021d578063a87d942c1461023f578063affccd8414610261578063bb03b70614610281578063bf3d007e146102a1578063c29c9225146102c1578063c477ecab146102e1578063d68dee9d14610301578063e2c11f9e14610321578063e5c8b03d14610341578063eb12d61e14610356578063f838073314610376578063fa1188c614610396575b600080fd5b34801561012257600080fd5b506101366101313660046122b1565b6103b6565b005b34801561014457600080fd5b50610158610153366004612337565b610412565b6040516101659190612aa7565b60405180910390f35b34801561017a57600080fd5b506101836104b0565b6040516101659190612a85565b34801561019c57600080fd5b506101366101ab36600461249c565b610589565b3480156101bc57600080fd5b506101d06101cb36600461228b565b6105af565b6040516101659190612ab8565b3480156101e957600080fd5b506101366101f836600461249c565b6105c7565b34801561020957600080fd5b506101586102183660046122e6565b6106e5565b34801561022957600080fd5b506102326108d6565b6040516101659190612a96565b34801561024b57600080fd5b50610254610dad565b6040516101659190612b46565b34801561026d57600080fd5b5061025461027c366004612337565b610dca565b34801561028d57600080fd5b5061013661029c36600461249c565b610ddf565b3480156102ad57600080fd5b506101366102bc366004612337565b610ef5565b3480156102cd57600080fd5b506101366102dc366004612355565b610fb2565b3480156102ed57600080fd5b506102326102fc366004612337565b610fd7565b34801561030d57600080fd5b5061013661031c3660046124bb565b6114fc565b34801561032d57600080fd5b5061013661033c36600461249c565b6115dc565b34801561034d57600080fd5b50610136611602565b34801561036257600080fd5b5061013661037136600461228b565b61160d565b34801561038257600080fd5b506101d0610391366004612337565b61162d565b3480156103a257600080fd5b506102546103b136600461239d565b611640565b6103bf336105af565b15156103ca57600080fd5b60018054808201808355600092909252825161040d917fb10e2d527612073b26eecdfd717e6a320cf44b4afac2b0732d9fcbe2b7fa0cf601906020850190611eae565b505050565b6000818152600260205260408120546060911061044d5760405160e560020a62461bcd02815260040161044490612ad6565b60405180910390fd5b600082815260026020908152604091829020600801805483518184028101840190945280845290918301828280156104a457602002820191906000526020600020905b815481526020019060010190808311610490575b50505050509050919050565b60606001805480602002602001604051908101604052809291908181526020016000905b8282101561057f5760008481526020908190208301805460408051601f600260001961010060018716150201909416939093049283018590048502810185019091528181529283018282801561056b5780601f106105405761010080835404028352916020019161056b565b820191906000526020600020905b81548152906001019060200180831161054e57829003601f168201915b5050505050815260200190600101906104d4565b5050505090505b90565b600091825260026020908152604083206007018054600181018255908452922090910155565b60006105c1818363ffffffff6116e616565b92915050565b6000805b6000848152600260205260409020600701546000190181101561068757600084815260026020526040902060070180548491908390811061060857fe5b9060005260206000200154141561061e57600191505b811561067f57600084815260026020526040902060070180546001830190811061064457fe5b9060005260206000200154600260008681526020019081526020016000206007018281548110151561067257fe5b6000918252602090912001555b6001016105cb565b81156106df576000848152600260205260409020600701805460001981019081106106ae57fe5b6000918252602080832090910182905585825260029052604090206007018054906106dd906000198301611f2c565b505b50505050565b60606000805b60045481101561088057846040518082805190602001908083835b602083106107255780518252601f199092019160209182019101610706565b6001836020036101000a0380198251168184511680821785525050505050509050019150506040518091039020600019166002600060048481548110151561076957fe5b9060005260206000200154815260200190815260200160002060050160405180828054600181600116156101000203166002900480156107e05780601f106107be5761010080835404028352918201916107e0565b820191906000526020600020905b8154815290600101906020018083116107cc575b505091505060405180910390206000191614801561082d5750836002600060048481548110151561080d57fe5b906000526020600020015481526020019081526020016000206000015414155b1561087857816002600060048481548110151561084657fe5b600091825260208083209091015483528281019390935260409091018120548354600181018555938252919020909101555b6001016106eb565b8154604080516020808402820181019092528281529184918301828280156108c757602002820191906000526020600020905b8154815260200190600101908083116108b3575b50505050509250505092915050565b606080600060048054905060405190808252806020026020018201604052801561091a57816020015b610907611f50565b8152602001906001900390816108ff5790505b509150600090505b600454811015610da7576002600060048381548110151561093f57fe5b9060005260206000200154815260200190815260200160002061016060405190810160405290816000820154815260200160018201548152602001600282018054600181600116156101000203166002900480601f016020809104026020016040519081016040528092919081815260200182805460018160011615610100020316600290048015610a125780601f106109e757610100808354040283529160200191610a12565b820191906000526020600020905b8154815290600101906020018083116109f557829003601f168201915b505050918352505060038201805460408051602060026001851615610100026000190190941693909304601f8101849004840282018401909252818152938201939291830182828015610aa65780601f10610a7b57610100808354040283529160200191610aa6565b820191906000526020600020905b815481529060010190602001808311610a8957829003601f168201915b505050918352505060048201805460408051602060026001851615610100026000190190941693909304601f8101849004840282018401909252818152938201939291830182828015610b3a5780601f10610b0f57610100808354040283529160200191610b3a565b820191906000526020600020905b815481529060010190602001808311610b1d57829003601f168201915b505050918352505060058201805460408051602060026001851615610100026000190190941693909304601f8101849004840282018401909252818152938201939291830182828015610bce5780601f10610ba357610100808354040283529160200191610bce565b820191906000526020600020905b815481529060010190602001808311610bb157829003601f168201915b505050918352505060068201805460408051602060026001851615610100026000190190941693909304601f8101849004840282018401909252818152938201939291830182828015610c625780601f10610c3757610100808354040283529160200191610c62565b820191906000526020600020905b815481529060010190602001808311610c4557829003601f168201915b5050505050815260200160078201805480602002602001604051908101604052809291908181526020018280548015610cba57602002820191906000526020600020905b815481526020019060010190808311610ca6575b5050505050815260200160088201805480602002602001604051908101604052809291908181526020018280548015610d1257602002820191906000526020600020905b815481526020019060010190808311610cfe575b5050505050815260200160098201805480602002602001604051908101604052809291908181526020018280548015610d7457602002820191906000526020600020905b8154600160a060020a03168152600190910190602001808311610d56575b50505050508152602001600a820154815250508282815181101515610d9557fe5b60209081029091010152600101610922565b50919050565b6000610db8336105af565b1515610dc357600080fd5b5060045490565b60009081526002602052604090206008015490565b6000805b60008481526002602052604090206008015460001901811015610e9f576000848152600260205260409020600801805484919083908110610e2057fe5b90600052602060002001541415610e3657600191505b8115610e97576000848152600260205260409020600801805460018301908110610e5c57fe5b90600052602060002001546002600086815260200190815260200160002060080182815481101515610e8a57fe5b6000918252602090912001555b600101610de3565b81156106df57600084815260026020526040902060080180546000198101908110610ec657fe5b6000918252602080832090910182905585825260029052604090206008018054906106dd906000198301611f2c565b6000610f00336105af565b1515610f0b57600080fd5b50805b60015460001901811015610f775760018054828201908110610f2c57fe5b90600052602060002001600182815481101515610f4557fe5b906000526020600020019080546001816001161561010002031660029004610f6e929190611fab565b50600101610f0e565b600180546000198101908110610f8957fe5b906000526020600020016000610f9f9190612020565b600180549061040d906000198301612064565b6000828152600260209081526040909120825161040d92600790920191840190612088565b6060600080600060606000610fed600a8861171d565b600454909550610ffe90600a611756565b600454909450158061101557506004546000190185115b8061101f57508387115b15611029576114f2565b60408051600a80825261016082019092526000945090816020015b61104c611f50565b8152602001906001900390816110445790505091508490505b6004548110156114ee576002600060048381548110151561108257fe5b9060005260206000200154815260200190815260200160002061016060405190810160405290816000820154815260200160018201548152602001600282018054600181600116156101000203166002900480601f0160208091040260200160405190810160405280929190818152602001828054600181600116156101000203166002900480156111555780601f1061112a57610100808354040283529160200191611155565b820191906000526020600020905b81548152906001019060200180831161113857829003601f168201915b505050918352505060038201805460408051602060026001851615610100026000190190941693909304601f81018490048402820184019092528181529382019392918301828280156111e95780601f106111be576101008083540402835291602001916111e9565b820191906000526020600020905b8154815290600101906020018083116111cc57829003601f168201915b505050918352505060048201805460408051602060026001851615610100026000190190941693909304601f810184900484028201840190925281815293820193929183018282801561127d5780601f106112525761010080835404028352916020019161127d565b820191906000526020600020905b81548152906001019060200180831161126057829003601f168201915b505050918352505060058201805460408051602060026001851615610100026000190190941693909304601f81018490048402820184019092528181529382019392918301828280156113115780601f106112e657610100808354040283529160200191611311565b820191906000526020600020905b8154815290600101906020018083116112f457829003601f168201915b505050918352505060068201805460408051602060026001851615610100026000190190941693909304601f81018490048402820184019092528181529382019392918301828280156113a55780601f1061137a576101008083540402835291602001916113a5565b820191906000526020600020905b81548152906001019060200180831161138857829003601f168201915b50505050508152602001600782018054806020026020016040519081016040528092919081815260200182805480156113fd57602002820191906000526020600020905b8154815260200190600101908083116113e9575b505050505081526020016008820180548060200260200160405190810160405280929190818152602001828054801561145557602002820191906000526020600020905b815481526020019060010190808311611441575b50505050508152602001600982018054806020026020016040519081016040528092919081815260200182805480156114b757602002820191906000526020600020905b8154600160a060020a03168152600190910190602001808311611499575b50505050508152602001600a8201548152505082848151811015156114d857fe5b6020908102909101015260019283019201611065565b8195505b5050505050919050565b611505336105af565b151561151057600080fd5b6000888152600260205260408120541161153f5760405160e560020a62461bcd02815260040161044490612af6565b60008881526002602052604090206001015487146115725760405160e560020a62461bcd02815260040161044490612ac6565b6000888152600260208181526040909220885161159793919092019190890190611eae565b50600088815260026020908152604090912083516115bd92600690920191850190611eae565b50600097885260026020526040909720600a0196909655505050505050565b600091825260026020908152604083206008018054600181018255908452922090910155565b61160b33611779565b565b611616336105af565b151561162157600080fd5b61162a816117c1565b50565b6000908152600260205260408120541190565b60008061164c336105af565b151561165757600080fd5b6000881161167a5760405160e560020a62461bcd02815260040161044490612b36565b506003805460010190819055600081815260026020526040902054156116b55760405160e560020a62461bcd02815260040161044490612ae6565b6116c481898989898989611809565b60008181526002602052604090206103e8600a90910155979650505050505050565b6000600160a060020a03821615156116fd57600080fd5b50600160a060020a03166000908152602091909152604090205460ff1690565b600080831515611730576000915061174f565b5082820282848281151561174057fe5b041461174b57600080fd5b8091505b5092915050565b60008080831161176557600080fd5b828481151561177057fe5b04949350505050565b61178a60008263ffffffff611e1416565b604051600160a060020a038216907f3525e22824a8a7df2c9a6029941c824cf95b6447f1e13d5128fd3826d35afe8b90600090a250565b6117d260008263ffffffff611e6016565b604051600160a060020a038216907f47d1c22a25bb3a5d4e481b9b1e6944c2eade3181a0a20b495ed61d35b5323f2490600090a250565b611811611f50565b855115156118345760405160e560020a62461bcd02815260040161044490612b26565b825115156118575760405160e560020a62461bcd02815260040161044490612b16565b8151151561187a5760405160e560020a62461bcd02815260040161044490612b06565b6000888152600260208181526040928390208351610160810185528154815260018083015482850152828501805487519281161561010002600019011695909504601f8101859004850282018501875280825291959294928601939092919083018282801561192a5780601f106118ff5761010080835404028352916020019161192a565b820191906000526020600020905b81548152906001019060200180831161190d57829003601f168201915b505050918352505060038201805460408051602060026001851615610100026000190190941693909304601f81018490048402820184019092528181529382019392918301828280156119be5780601f10611993576101008083540402835291602001916119be565b820191906000526020600020905b8154815290600101906020018083116119a157829003601f168201915b505050918352505060048201805460408051602060026001851615610100026000190190941693909304601f8101849004840282018401909252818152938201939291830182828015611a525780601f10611a2757610100808354040283529160200191611a52565b820191906000526020600020905b815481529060010190602001808311611a3557829003601f168201915b505050918352505060058201805460408051602060026001851615610100026000190190941693909304601f8101849004840282018401909252818152938201939291830182828015611ae65780601f10611abb57610100808354040283529160200191611ae6565b820191906000526020600020905b815481529060010190602001808311611ac957829003601f168201915b505050918352505060068201805460408051602060026001851615610100026000190190941693909304601f8101849004840282018401909252818152938201939291830182828015611b7a5780601f10611b4f57610100808354040283529160200191611b7a565b820191906000526020600020905b815481529060010190602001808311611b5d57829003601f168201915b5050505050815260200160078201805480602002602001604051908101604052809291908181526020018280548015611bd257602002820191906000526020600020905b815481526020019060010190808311611bbe575b5050505050815260200160088201805480602002602001604051908101604052809291908181526020018280548015611c2a57602002820191906000526020600020905b815481526020019060010190808311611c16575b5050505050815260200160098201805480602002602001604051908101604052809291908181526020018280548015611c8c57602002820191906000526020600020905b8154600160a060020a03168152600190910190602001808311611c6e575b5050509183525050600a919091015460209182015289825281810189815260408084018a8152606085018a90526080850189905260a0850188905260c0850187905260008d81526002808652929020855181559251600184015551805194955085949293611d009392850192910190611eae565b5060608201518051611d1c916003840191602090910190611eae565b5060808201518051611d38916004840191602090910190611eae565b5060a08201518051611d54916005840191602090910190611eae565b5060c08201518051611d70916006840191602090910190611eae565b5060e08201518051611d8c916007840191602090910190612088565b506101008201518051611da9916008840191602090910190612088565b506101208201518051611dc69160098401916020909101906120c2565b506101409190910151600a909101555050600480546001810182556000919091527f8a35acfbc15ff81a39ae7d344fd709f28e8600b4aa8c65c6b64bfe7fe36bd19b01959095555050505050565b600160a060020a0381161515611e2957600080fd5b611e3382826116e6565b1515611e3e57600080fd5b600160a060020a0316600090815260209190915260409020805460ff19169055565b600160a060020a0381161515611e7557600080fd5b611e7f82826116e6565b15611e8957600080fd5b600160a060020a0316600090815260209190915260409020805460ff19166001179055565b828054600181600116156101000203166002900490600052602060002090601f016020900481019282601f10611eef57805160ff1916838001178555611f1c565b82800160010185558215611f1c579182015b82811115611f1c578251825591602001919060010190611f01565b50611f28929150612130565b5090565b81548183558181111561040d5760008381526020902061040d918101908301612130565b6101606040519081016040528060008152602001600081526020016060815260200160608152602001606081526020016060815260200160608152602001606081526020016060815260200160608152602001600081525090565b828054600181600116156101000203166002900490600052602060002090601f016020900481019282601f10611fe45780548555611f1c565b82800160010185558215611f1c57600052602060002091601f016020900482015b82811115611f1c578254825591600101919060010190612005565b50805460018160011615610100020316600290046000825580601f10612046575061162a565b601f01602090049060005260206000209081019061162a9190612130565b81548183558181111561040d5760008381526020902061040d91810190830161214a565b828054828255906000526020600020908101928215611f1c5791602002820182811115611f1c578251825591602001919060010190611f01565b828054828255906000526020600020908101928215612124579160200282015b82811115612124578251825473ffffffffffffffffffffffffffffffffffffffff1916600160a060020a039091161782556020909201916001909101906120e2565b50611f2892915061216d565b61058691905b80821115611f285760008155600101612136565b61058691905b80821115611f285760006121648282612020565b50600101612150565b61058691905b80821115611f2857805473ffffffffffffffffffffffffffffffffffffffff19168155600101612173565b60006121aa8235612bce565b9392505050565b6000601f820183136121c257600080fd5b81356121d56121d082612b7b565b612b54565b915081818352602084019350602081019050838560208402820111156121fa57600080fd5b60005b838110156122265781612210888261227f565b84525060209283019291909101906001016121fd565b5050505092915050565b6000601f8201831361224157600080fd5b813561224f6121d082612b9c565b9150808252602083016020830185838301111561226b57600080fd5b612276838284612bdf565b50505092915050565b60006121aa8235610586565b60006020828403121561229d57600080fd5b60006122a9848461219e565b949350505050565b6000602082840312156122c357600080fd5b813567ffffffffffffffff8111156122da57600080fd5b6122a984828501612230565b600080604083850312156122f957600080fd5b823567ffffffffffffffff81111561231057600080fd5b61231c85828601612230565b925050602061232d8582860161227f565b9150509250929050565b60006020828403121561234957600080fd5b60006122a9848461227f565b6000806040838503121561236857600080fd5b6000612374858561227f565b925050602083013567ffffffffffffffff81111561239157600080fd5b61232d858286016121b1565b60008060008060008060c087890312156123b657600080fd5b60006123c2898961227f565b965050602087013567ffffffffffffffff8111156123df57600080fd5b6123eb89828a01612230565b955050604087013567ffffffffffffffff81111561240857600080fd5b61241489828a01612230565b945050606087013567ffffffffffffffff81111561243157600080fd5b61243d89828a01612230565b935050608087013567ffffffffffffffff81111561245a57600080fd5b61246689828a01612230565b92505060a087013567ffffffffffffffff81111561248357600080fd5b61248f89828a01612230565b9150509295509295509295565b600080604083850312156124af57600080fd5b600061231c858561227f565b600080600080600080600080610100898b0312156124d857600080fd5b60006124e48b8b61227f565b98505060206124f58b828c0161227f565b975050604089013567ffffffffffffffff81111561251257600080fd5b61251e8b828c01612230565b965050606089013567ffffffffffffffff81111561253b57600080fd5b6125478b828c01612230565b955050608089013567ffffffffffffffff81111561256457600080fd5b6125708b828c01612230565b94505060a089013567ffffffffffffffff81111561258d57600080fd5b6125998b828c01612230565b93505060c089013567ffffffffffffffff8111156125b657600080fd5b6125c28b828c01612230565b92505060e06125d38b828c0161227f565b9150509295985092959890939650565b6125ec81612bce565b82525050565b60006125fd82612bca565b80845260208401935061260f83612bc4565b60005b8281101561263f576126258683516125e3565b61262e82612bc4565b602096909601959150600101612612565b5093949350505050565b600061265482612bca565b8084526020840193508360208202850161266d85612bc4565b60005b848110156126a45783830388526126888383516127ae565b925061269382612bc4565b602098909801979150600101612670565b50909695505050505050565b60006126bb82612bca565b808452602084019350836020820285016126d485612bc4565b60005b848110156126a45783830388526126ef838351612963565b92506126fa82612bc4565b6020989098019791506001016126d7565b600061271682612bca565b80845260208401935061272883612bc4565b60005b8281101561263f5761273e868351612a7c565b61274782612bc4565b60209690960195915060010161272b565b600061276382612bca565b80845260208401935061277583612bc4565b60005b8281101561263f5761278b868351612a7c565b61279482612bc4565b602096909601959150600101612778565b6125ec81612bda565b60006127b982612bca565b8084526127cd816020860160208601612beb565b6127d681612c17565b9093016020019392505050565b601a81527f4372656174696f6e204461746520697320696d6d757461626c65000000000000602082015260400190565b601181527f6d656d626572206e6f7420657869737473000000000000000000000000000000602082015260400190565b601581527f4d656d62657220616c7265616479206578697374730000000000000000000000602082015260400190565b601181527f4d656d626572206e6f7420657869737473000000000000000000000000000000602082015260400190565b601281527f5468656d65206973206d616e6461746f72790000000000000000000000000000602082015260400190565b601081527f434d4f206973206d616e6461746f727900000000000000000000000000000000602082015260400190565b601181527f4e616d65206973206d616e6461746f7279000000000000000000000000000000602082015260400190565b601981527f4372656174696f6e44617465206973206d616e6461746f727900000000000000602082015260400190565b80516000906101608401906129788582612a7c565b50602083015161298b6020860182612a7c565b50604083015184820360408601526129a382826127ae565b915050606083015184820360608601526129bd82826127ae565b915050608083015184820360808601526129d782826127ae565b91505060a083015184820360a08601526129f182826127ae565b91505060c083015184820360c0860152612a0b82826127ae565b91505060e083015184820360e0860152612a258282612758565b915050610100830151848203610100860152612a418282612758565b915050610120830151848203610120860152612a5d82826125f2565b915050610140830151612a74610140860182612a7c565b509392505050565b6125ec81610586565b602080825281016121aa8184612649565b602080825281016121aa81846126b0565b602080825281016121aa818461270b565b602081016105c182846127a5565b602080825281016105c1816127e3565b602080825281016105c181612813565b602080825281016105c181612843565b602080825281016105c181612873565b602080825281016105c1816128a3565b602080825281016105c1816128d3565b602080825281016105c181612903565b602080825281016105c181612933565b602081016105c18284612a7c565b60405181810167ffffffffffffffff81118282101715612b7357600080fd5b604052919050565b600067ffffffffffffffff821115612b9257600080fd5b5060209081020190565b600067ffffffffffffffff821115612bb357600080fd5b506020601f91909101601f19160190565b60200190565b5190565b600160a060020a031690565b151590565b82818337506000910152565b60005b83811015612c06578181015183820152602001612bee565b838111156106df5750506000910152565b601f01601f1916905600a265627a7a723058201206d11dd43465aad88a27d1ef08c8adc779d2336871b4c946e853a27f4fae9a6c6578706572696d656e74616cf50037",
  "source": "pragma solidity ^0.4.24;\npragma experimental ABIEncoderV2;\n\nimport \"./SafeMath.sol\";\nimport \"./random.sol\";\nimport \"./Registry.sol\";\n\ncontract Members is Random, Registry {\n\n  struct Member { \n    uint256 memberId;\n    uint256 creationDate;\n    string name;\n    string logo;\n    string country;\n    string cmo;\n    string theme;\n    uint256[] claimInbox;\n    uint256[] claims;\n    address[] userRequests;\n    uint totalTokens;\n  }\n\n  uint256 constant private PAGE_SIZE = 10;\n\n  mapping (uint256 => Member) members_;\n  uint256 memberIdCounter_ = 0; // Equals the number of (members + Super Admins) ever inserted, including the deleted ones.\n\n  uint256[] private membersList_;\n\n  // METHODS\n  // Public\n\n  function addMember(uint256 _creationDate, string _name, string _logo, string _country, string _cmo, string _theme) onlySigner public returns(uint) {\n    //  string _group) onlySigner public returns(uint) {\n    require(_creationDate > 0, \"CreationDate is mandatory\");\n//    uint256 _memberId = Random.rand(_creationDate);\n    uint256 _memberId = ++memberIdCounter_;\n    require(members_[_memberId].memberId == 0, \"Member already exists\");\n    _saveMember(_memberId, _creationDate, _name, _logo, _country, _cmo, _theme);\n//    members_[_memberId].group = _group;\n    members_[_memberId].totalTokens = 1000;\n\n    return _memberId;\n  }\n\n  function updateMember(uint256 _memberId, uint256 _creationDate,\n    string _name, string _logo, string _country, string _cmo, string _theme, uint _totalTokens) onlySigner public {\n  // , string _group) onlySigner public {\n    require(members_[_memberId].memberId > 0, \"Member not exists\");\n    require(members_[_memberId].creationDate == _creationDate, \"Creation Date is immutable\");\n//    _saveMember(_memberId, _creationDate, _name, _logo, _country, _cmo, _theme);\n//    members_[_memberId].group = _group;\n    members_[_memberId].name = _name;\n    members_[_memberId].theme = _theme;\n    members_[_memberId].totalTokens = _totalTokens;\n  }\n\n  function updateMemberClaimInbox(uint256 _memberId, uint256[] newInbox) public {\n    members_[_memberId].claimInbox = newInbox;\n  }\n\n  function getMembers() public view returns (Member[] memory) {\n    Member[] memory memberPage = new Member[](membersList_.length);\n    for (uint i = 0; i < membersList_.length; ++i) {\n        memberPage[i] = members_[membersList_[i]];\n    }\n    return memberPage;\n  }\n\n  function getMembers(uint _page) public view returns (Member[] memory) {\n    uint256 pageIndex = SafeMath.mul(PAGE_SIZE, _page);\n    uint256 pageNumber = SafeMath.div(membersList_.length, PAGE_SIZE);\n\n    if (membersList_.length == 0 || pageIndex > membersList_.length - 1 || _page > pageNumber) {\n      return;\n    }\n\n    // Insert items filtered into array.\n    uint256 resultCount = 0;\n    Member[] memory memberPage = new Member[](PAGE_SIZE);\n    for(uint j = pageIndex; j < membersList_.length; ++j) {\n        memberPage[resultCount] = members_[membersList_[j]];\n        ++resultCount;\n    }\n    return memberPage;\n  }\n\n  function getCount() onlySigner public view returns (uint256) {\n    return membersList_.length;\n  }\n\n  // Private\n\n  function _saveMember(uint256 _memberId, uint256 _creationDate, string _name, string _logo, string _country, string _cmo, string _theme) internal {\n\n    require(bytes(_name).length != 0, \"Name is mandatory\");\n    require(bytes(_cmo).length != 0, \"CMO is mandatory\");\n    require(bytes(_theme).length != 0, \"Theme is mandatory\");\n\n    Member memory member = members_[_memberId];\n    member.memberId = _memberId;\n    member.creationDate = _creationDate;\n    member.name = _name;\n    member.logo = _logo;\n    member.country = _country;\n    member.cmo = _cmo;\n    member.theme = _theme;\n\n    members_[_memberId] = member;\n    membersList_.push(_memberId);\n\n  }\n\n  function _getMemberIdsOfCurrentCMO(string currentCMO, uint256 currentCMOId) public returns(uint[]) {\n    uint[] memberIds;\n    for (uint j = 0; j < membersList_.length; ++j) {\n      if (keccak256(members_[membersList_[j]].cmo) == keccak256(currentCMO) && members_[membersList_[j]].memberId != currentCMOId) {\n        memberIds.push(members_[membersList_[j]].memberId);\n      }\n    }\n    return memberIds;\n  }\n\n  function _getClaimsIdByMember(uint _memberId) public view returns(uint[])  {\n    require(members_[_memberId].memberId > 0, \"member not exists\");\n    return members_[_memberId].claims;\n  }\n\n  function _getClaimsCountByMember(uint _memberId) public view returns(uint) {\n    return members_[_memberId].claims.length;\n  }\n\n  function _addUserToMemberRequest(uint _memberId) internal {\n    members_[_memberId].userRequests.push(msg.sender);\n  }\n\n  function _addClaimIdToMemberOwner(uint _memberId, uint _claimId) public {\n    members_[_memberId].claims.push(_claimId);\n  }\n\n  function _removeClaimFromMember(uint _memberId, uint _claimId) public {\n    bool found = false;\n    for (uint j = 0; j < members_[_memberId].claims.length - 1; j++) {\n      if(members_[_memberId].claims[j] == _claimId) {\n        found = true;\n      }\n      if(found) {\n        members_[_memberId].claims[j] = members_[_memberId].claims[j + 1];\n      }\n    }\n    //    if (found) {\n//    delete members_[_memberId].claims[members_[_memberId].claims.length - 1];\n//    members_[_memberId].claims.length--;\n    //    }\n    if (found) {\n//      if (members_[_memberId].claims.length == 1) {\n//        delete members_[_memberId].claims;\n//      }\n//      else {\n      delete members_[_memberId].claims[members_[_memberId].claims.length - 1];\n        members_[_memberId].claims.length--;\n//      }\n    }\n  }\n\n  function _addClaimFromInbox(uint _memberId, uint _claimId) public {\n    members_[_memberId].claimInbox.push(_claimId);\n  }\n\n  function _memberExists(uint _memberId) public view returns(bool) {\n    return members_[_memberId].memberId > 0;\n  }\n\n  function _removeClaimFromInbox(uint _memberId, uint _claimId) public {\n    bool found = false;\n    // Remove index\n    for (uint j = 0; j < members_[_memberId].claimInbox.length - 1; j++) {\n      if(members_[_memberId].claimInbox[j] == _claimId) {\n        found = true;\n      }\n      if(found) {\n        members_[_memberId].claimInbox[j] = members_[_memberId].claimInbox[j + 1];\n      }\n    }\n    if (found) {\n      delete members_[_memberId].claimInbox[members_[_memberId].claimInbox.length - 1];\n      members_[_memberId].claimInbox.length--;\n    }\n  }\n\n  function _clearUserFromMemberRequest(uint _memberId, address userAddress) internal {\n     bool found = false;\n    // Remove index\n    for (uint j = 0; j < members_[_memberId].userRequests.length - 1; j++) {\n      if(members_[_memberId].userRequests[j] == userAddress) {\n        found = true;\n      }\n      if(found) {\n        members_[_memberId].userRequests[j] = members_[_memberId].userRequests[j + 1];\n      }\n    }\n//    if (found) {\n      delete members_[_memberId].userRequests[members_[_memberId].userRequests.length - 1];\n      members_[_memberId].userRequests.length--;\n//    }\n  }\n\n}\n",
  "sourcePath": "/home/komodo/newUI2/bloomen-decentralized-rights-management-v2/truffle/contracts/registry/Members.sol",
  "compiler": {
    "name": "solc",
    "version": "0.4.24+commit.e67f0147.Emscripten.clang"
  },
  "schemaVersion": "2.0.1",
  "updatedAt": "2020-06-21T14:22:06.346Z"
}