{
  "contractName": "Registry",
  "abi": [
    {
      "constant": false,
      "inputs": [
        {
          "name": "_userToAccept",
          "type": "address"
        }
      ],
      "name": "acceptUser",
      "outputs": [],
      "payable": false,
      "stateMutability": "nonpayable",
      "type": "function"
    },
    {
      "constant": true,
      "inputs": [],
      "name": "getClaimsCountByMemberId",
      "outputs": [
        {
          "name": "",
          "type": "uint256"
        }
      ],
      "payable": false,
      "stateMutability": "view",
      "type": "function"
    },
    {
      "constant": false,
      "inputs": [
        {
          "name": "_creationDate",
          "type": "uint256"
        },
        {
          "name": "_claimData",
          "type": "bytes"
        },
        {
          "name": "_claimType",
          "type": "bool"
        },
        {
          "name": "_memberOwner",
          "type": "uint256"
        }
      ],
      "name": "registerClaim",
      "outputs": [],
      "payable": false,
      "stateMutability": "nonpayable",
      "type": "function"
    },
    {
      "constant": false,
      "inputs": [
        {
          "name": "_userToReject",
          "type": "address"
        }
      ],
      "name": "rejectUser",
      "outputs": [],
      "payable": false,
      "stateMutability": "nonpayable",
      "type": "function"
    },
    {
      "constant": true,
      "inputs": [
        {
          "name": "_claimId",
          "type": "uint256"
        }
      ],
      "name": "getClaim",
      "outputs": [
        {
          "components": [
            {
              "name": "creationDate",
              "type": "uint256"
            },
            {
              "name": "claimId",
              "type": "uint256"
            },
            {
              "components": [
                {
                  "name": "name",
                  "type": "string"
                },
                {
                  "name": "value",
                  "type": "string"
                }
              ],
              "name": "claimData",
              "type": "tuple[]"
            },
            {
              "name": "claimType",
              "type": "bool"
            },
            {
              "name": "memberOwner",
              "type": "uint256"
            },
            {
              "name": "messageLog",
              "type": "string[]"
            },
            {
              "name": "status",
              "type": "bool"
            },
            {
              "name": "lastChange",
              "type": "uint256"
            }
          ],
          "name": "",
          "type": "tuple"
        }
      ],
      "payable": false,
      "stateMutability": "view",
      "type": "function"
    },
    {
      "constant": true,
      "inputs": [
        {
          "name": "_page",
          "type": "uint256"
        }
      ],
      "name": "getUsers",
      "outputs": [
        {
          "components": [
            {
              "name": "creationDate",
              "type": "uint256"
            },
            {
              "name": "firstName",
              "type": "string"
            },
            {
              "name": "lastName",
              "type": "string"
            },
            {
              "name": "memberId",
              "type": "uint256"
            },
            {
              "name": "requestId",
              "type": "uint256"
            },
            {
              "name": "role",
              "type": "string"
            },
            {
              "name": "status",
              "type": "uint8"
            },
            {
              "name": "owner",
              "type": "address"
            }
          ],
          "name": "",
          "type": "tuple[]"
        }
      ],
      "payable": false,
      "stateMutability": "view",
      "type": "function"
    },
    {
      "constant": false,
      "inputs": [
        {
          "name": "_memberId",
          "type": "uint256"
        },
        {
          "name": "_creationDate",
          "type": "uint256"
        },
        {
          "name": "_name",
          "type": "string"
        },
        {
          "name": "_logo",
          "type": "string"
        },
        {
          "name": "_country",
          "type": "string"
        },
        {
          "name": "_cmo",
          "type": "string"
        },
        {
          "name": "_theme",
          "type": "string"
        }
      ],
      "name": "updateMember",
      "outputs": [],
      "payable": false,
      "stateMutability": "nonpayable",
      "type": "function"
    },
    {
      "constant": true,
      "inputs": [
        {
          "name": "userAddress",
          "type": "address"
        }
      ],
      "name": "getUserByAddress",
      "outputs": [
        {
          "components": [
            {
              "name": "creationDate",
              "type": "uint256"
            },
            {
              "name": "firstName",
              "type": "string"
            },
            {
              "name": "lastName",
              "type": "string"
            },
            {
              "name": "memberId",
              "type": "uint256"
            },
            {
              "name": "requestId",
              "type": "uint256"
            },
            {
              "name": "role",
              "type": "string"
            },
            {
              "name": "status",
              "type": "uint8"
            },
            {
              "name": "owner",
              "type": "address"
            }
          ],
          "name": "",
          "type": "tuple"
        }
      ],
      "payable": false,
      "stateMutability": "view",
      "type": "function"
    },
    {
      "constant": true,
      "inputs": [
        {
          "name": "account",
          "type": "address"
        }
      ],
      "name": "isSigner",
      "outputs": [
        {
          "name": "",
          "type": "bool"
        }
      ],
      "payable": false,
      "stateMutability": "view",
      "type": "function"
    },
    {
      "constant": true,
      "inputs": [],
      "name": "getUsersOwner",
      "outputs": [
        {
          "components": [
            {
              "name": "creationDate",
              "type": "uint256"
            },
            {
              "name": "firstName",
              "type": "string"
            },
            {
              "name": "lastName",
              "type": "string"
            },
            {
              "name": "memberId",
              "type": "uint256"
            },
            {
              "name": "requestId",
              "type": "uint256"
            },
            {
              "name": "role",
              "type": "string"
            },
            {
              "name": "status",
              "type": "uint8"
            },
            {
              "name": "owner",
              "type": "address"
            }
          ],
          "name": "",
          "type": "tuple[]"
        }
      ],
      "payable": false,
      "stateMutability": "view",
      "type": "function"
    },
    {
      "constant": true,
      "inputs": [],
      "name": "getMembers",
      "outputs": [
        {
          "components": [
            {
              "name": "memberId",
              "type": "uint256"
            },
            {
              "name": "creationDate",
              "type": "uint256"
            },
            {
              "name": "name",
              "type": "string"
            },
            {
              "name": "logo",
              "type": "string"
            },
            {
              "name": "country",
              "type": "string"
            },
            {
              "name": "cmo",
              "type": "string"
            },
            {
              "name": "theme",
              "type": "string"
            },
            {
              "name": "claimInbox",
              "type": "uint256[]"
            },
            {
              "name": "claims",
              "type": "uint256[]"
            },
            {
              "name": "userRequests",
              "type": "address[]"
            }
          ],
          "name": "",
          "type": "tuple[]"
        }
      ],
      "payable": false,
      "stateMutability": "view",
      "type": "function"
    },
    {
      "constant": true,
      "inputs": [],
      "name": "getcountUsers",
      "outputs": [
        {
          "name": "",
          "type": "uint256"
        }
      ],
      "payable": false,
      "stateMutability": "view",
      "type": "function"
    },
    {
      "constant": false,
      "inputs": [
        {
          "name": "_creationDate",
          "type": "uint256"
        },
        {
          "name": "_firstName",
          "type": "string"
        },
        {
          "name": "_lastName",
          "type": "string"
        },
        {
          "name": "_role",
          "type": "string"
        },
        {
          "name": "_memberId",
          "type": "uint256"
        }
      ],
      "name": "registerUserRequest",
      "outputs": [],
      "payable": false,
      "stateMutability": "nonpayable",
      "type": "function"
    },
    {
      "constant": true,
      "inputs": [],
      "name": "getCount",
      "outputs": [
        {
          "name": "",
          "type": "uint256"
        }
      ],
      "payable": false,
      "stateMutability": "view",
      "type": "function"
    },
    {
      "constant": true,
      "inputs": [
        {
          "name": "_page",
          "type": "uint256"
        }
      ],
      "name": "getClaimsByMemberId",
      "outputs": [
        {
          "components": [
            {
              "name": "creationDate",
              "type": "uint256"
            },
            {
              "name": "claimId",
              "type": "uint256"
            },
            {
              "components": [
                {
                  "name": "name",
                  "type": "string"
                },
                {
                  "name": "value",
                  "type": "string"
                }
              ],
              "name": "claimData",
              "type": "tuple[]"
            },
            {
              "name": "claimType",
              "type": "bool"
            },
            {
              "name": "memberOwner",
              "type": "uint256"
            },
            {
              "name": "messageLog",
              "type": "string[]"
            },
            {
              "name": "status",
              "type": "bool"
            },
            {
              "name": "lastChange",
              "type": "uint256"
            }
          ],
          "name": "",
          "type": "tuple[]"
        }
      ],
      "payable": false,
      "stateMutability": "view",
      "type": "function"
    },
    {
      "constant": true,
      "inputs": [],
      "name": "getMe",
      "outputs": [
        {
          "components": [
            {
              "name": "creationDate",
              "type": "uint256"
            },
            {
              "name": "firstName",
              "type": "string"
            },
            {
              "name": "lastName",
              "type": "string"
            },
            {
              "name": "memberId",
              "type": "uint256"
            },
            {
              "name": "requestId",
              "type": "uint256"
            },
            {
              "name": "role",
              "type": "string"
            },
            {
              "name": "status",
              "type": "uint8"
            },
            {
              "name": "owner",
              "type": "address"
            }
          ],
          "name": "",
          "type": "tuple"
        }
      ],
      "payable": false,
      "stateMutability": "view",
      "type": "function"
    },
    {
      "constant": true,
      "inputs": [
        {
          "name": "_page",
          "type": "uint256"
        }
      ],
      "name": "getMembers",
      "outputs": [
        {
          "components": [
            {
              "name": "memberId",
              "type": "uint256"
            },
            {
              "name": "creationDate",
              "type": "uint256"
            },
            {
              "name": "name",
              "type": "string"
            },
            {
              "name": "logo",
              "type": "string"
            },
            {
              "name": "country",
              "type": "string"
            },
            {
              "name": "cmo",
              "type": "string"
            },
            {
              "name": "theme",
              "type": "string"
            },
            {
              "name": "claimInbox",
              "type": "uint256[]"
            },
            {
              "name": "claims",
              "type": "uint256[]"
            },
            {
              "name": "userRequests",
              "type": "address[]"
            }
          ],
          "name": "",
          "type": "tuple[]"
        }
      ],
      "payable": false,
      "stateMutability": "view",
      "type": "function"
    },
    {
      "constant": false,
      "inputs": [
        {
          "name": "_claimId",
          "type": "uint256"
        },
        {
          "name": "_claimData",
          "type": "bytes"
        },
        {
          "name": "_lastChange",
          "type": "uint256"
        }
      ],
      "name": "updateClaim",
      "outputs": [],
      "payable": false,
      "stateMutability": "nonpayable",
      "type": "function"
    },
    {
      "constant": false,
      "inputs": [],
      "name": "renounceSigner",
      "outputs": [],
      "payable": false,
      "stateMutability": "nonpayable",
      "type": "function"
    },
    {
      "constant": false,
      "inputs": [
        {
          "name": "account",
          "type": "address"
        }
      ],
      "name": "addSigner",
      "outputs": [],
      "payable": false,
      "stateMutability": "nonpayable",
      "type": "function"
    },
    {
      "constant": false,
      "inputs": [
        {
          "name": "_creationDate",
          "type": "uint256"
        },
        {
          "name": "_name",
          "type": "string"
        },
        {
          "name": "_logo",
          "type": "string"
        },
        {
          "name": "_country",
          "type": "string"
        },
        {
          "name": "_cmo",
          "type": "string"
        },
        {
          "name": "_theme",
          "type": "string"
        }
      ],
      "name": "addMember",
      "outputs": [
        {
          "name": "",
          "type": "uint256"
        }
      ],
      "payable": false,
      "stateMutability": "nonpayable",
      "type": "function"
    },
    {
      "constant": false,
      "inputs": [
        {
          "name": "_firstName",
          "type": "string"
        },
        {
          "name": "_lastName",
          "type": "string"
        },
        {
          "name": "_memberId",
          "type": "uint256"
        },
        {
          "name": "_role",
          "type": "string"
        },
        {
          "name": "owner",
          "type": "address"
        }
      ],
      "name": "updateUser",
      "outputs": [],
      "payable": false,
      "stateMutability": "nonpayable",
      "type": "function"
    },
    {
      "constant": false,
      "inputs": [
        {
          "name": "account",
          "type": "address"
        }
      ],
      "name": "whitelistAdmin",
      "outputs": [],
      "payable": false,
      "stateMutability": "nonpayable",
      "type": "function"
    },
    {
      "anonymous": false,
      "inputs": [
        {
          "indexed": true,
          "name": "account",
          "type": "address"
        }
      ],
      "name": "SignerAdded",
      "type": "event"
    },
    {
      "anonymous": false,
      "inputs": [
        {
          "indexed": true,
          "name": "account",
          "type": "address"
        }
      ],
      "name": "SignerRemoved",
      "type": "event"
    },
    {
      "constant": false,
      "inputs": [
        {
          "name": "_cmo",
          "type": "string"
        }
      ],
      "name": "addCMO",
      "outputs": [],
      "payable": false,
      "stateMutability": "nonpayable",
      "type": "function"
    },
    {
      "constant": false,
      "inputs": [
        {
          "name": "_index",
          "type": "uint256"
        }
      ],
      "name": "deleteCMO",
      "outputs": [],
      "payable": false,
      "stateMutability": "nonpayable",
      "type": "function"
    },
    {
      "constant": true,
      "inputs": [],
      "name": "getCMOs",
      "outputs": [
        {
          "name": "",
          "type": "string[]"
        }
      ],
      "payable": false,
      "stateMutability": "view",
      "type": "function"
    }
  ],
  "bytecode": "0x608060405260006006556200001d3364010000000062000023810204565b62000108565b6200003e600082640100000000620047286200007582021704565b604051600160a060020a038216907f47d1c22a25bb3a5d4e481b9b1e6944c2eade3181a0a20b495ed61d35b5323f2490600090a250565b600160a060020a03811615156200008b57600080fd5b620000a08282640100000000620000d0810204565b15620000ab57600080fd5b600160a060020a0316600090815260209190915260409020805460ff19166001179055565b6000600160a060020a0382161515620000e857600080fd5b50600160a060020a03166000908152602091909152604090205460ff1690565b615f5b80620001186000396000f3006080604052600436106101535763ffffffff7c010000000000000000000000000000000000000000000000000000000060003504166308bdc24d81146101585780631be8850b1461017a578063373cfbb9146101a55780633a59ccf1146101c55780634dc92885146101e55780635aef2447146102055780635d73ab9a14610232578063656d561c1461025f57806365ff0c481461028157806369c212f6146102a15780637df73e27146102ce578063932191be146102fb5780639eab525314610310578063a4fdc59414610332578063a7ed1fe414610347578063a87d942c14610367578063b6bc38121461037c578063bf3d007e146103a9578063c11e1ff3146103c9578063c477ecab146103de578063cb68b9e8146103fe578063e5c8b03d1461041e578063eb12d61e14610433578063fa1188c614610453578063fcfbde5b14610473578063ff240fce14610493575b600080fd5b34801561016457600080fd5b50610178610173366004614df1565b6104b3565b005b34801561018657600080fd5b5061018f61064f565b60405161019c9190615e4c565b60405180910390f35b3480156101b157600080fd5b506101786101c0366004614f26565b61066c565b3480156101d157600080fd5b506101786101e0366004614e17565b61075e565b3480156101f157600080fd5b50610178610200366004614df1565b6107bb565b34801561021157600080fd5b50610225610220366004614f08565b61091f565b60405161019c9190615e2a565b34801561023e57600080fd5b5061025261024d366004614f08565b610c03565b60405161019c9190615ccb565b34801561026b57600080fd5b50610274610fde565b60405161019c9190615c98565b34801561028d57600080fd5b5061017861029c3660046151b3565b6110b7565b3480156102ad57600080fd5b506102c16102bc366004614df1565b611146565b60405161019c9190615e3b565b3480156102da57600080fd5b506102ee6102e9366004614df1565b61139a565b60405161019c9190615cdc565b34801561030757600080fd5b506102526113b2565b34801561031c57600080fd5b506103256116a3565b60405161019c9190615cba565b34801561033e57600080fd5b5061018f611b6a565b34801561035357600080fd5b50610178610362366004615103565b611c2f565b34801561037357600080fd5b5061018f611cee565b34801561038857600080fd5b5061039c610397366004614f08565b611d0b565b60405161019c9190615ca9565b3480156103b557600080fd5b506101786103c4366004614f08565b6120f2565b3480156103d557600080fd5b506102c16121b0565b3480156103ea57600080fd5b506103256103f9366004614f08565b612241565b34801561040a57600080fd5b50610178610419366004614f9f565b61275c565b34801561042a57600080fd5b506101786128a3565b34801561043f57600080fd5b5061017861044e366004614df1565b6128ae565b34801561045f57600080fd5b5061018f61046e366004615004565b6128cb565b34801561047f57600080fd5b5061017861048e366004614e4c565b61295a565b34801561049f57600080fd5b506101786104ae366004614df1565b612a48565b600160a060020a038181166000908152600360205260408120600601546101009004909116116105015760405160e560020a62461bcd0281526004016104f890615d2a565b60405180910390fd5b600160a060020a038116600090815260036020819052604080832082015433845292200154148061053657506105363361139a565b15156105575760405160e560020a62461bcd0281526004016104f890615d3a565b60023360009081526003602052604090206006015460ff16600281111561057a57fe5b148061058a575061058a3361139a565b15156105ab5760405160e560020a62461bcd0281526004016104f890615dea565b6001600160a060020a03821660009081526003602052604090206006015460ff1660028111156105d757fe5b146105f75760405160e560020a62461bcd0281526004016104f890615d0a565b600160a060020a038116600090815260036020526040902060060180546002919060ff19166001835b0217905550600160a060020a0381166000908152600360208190526040909120015461064c9082612b1c565b50565b60008061065a612c8b565b905061066581612ca2565b91505b5090565b600060608186116106925760405160e560020a62461bcd0281526004016104f890615e1a565b600680546001019081905591506106a883612cb7565b15156106c95760405160e560020a62461bcd0281526004016104f890615d8a565b6106d1612c8b565b604080516000808252602082019092529194506106fe565b60608152602001906001900390816106e95790505b50905061071282878787878660008d612cca565b61071c8383612e6b565b6001600654111561073257610732828587612e90565b60008281526005602052604090206006015460ff16156107565761075683836136f1565b505050505050565b6107673361139a565b151561077257600080fd5b600780546001810180835560009290925282516107b6917fa66cc928b5edb82af9bd49922954155ab7b0942694bea4ce44661d9a8736c68801906020850190614930565b505050565b600160a060020a038181166000908152600360205260408120600601546101009004909116116108005760405160e560020a62461bcd0281526004016104f890615d2a565b600160a060020a038116600090815260036020819052604080832082015433845292200154148061083557506108353361139a565b15156108565760405160e560020a62461bcd0281526004016104f890615d3a565b60023360009081526003602052604090206006015460ff16600281111561087957fe5b148061088957506108893361139a565b15156108aa5760405160e560020a62461bcd0281526004016104f890615dea565b6001600160a060020a03821660009081526003602052604090206006015460ff1660028111156108d657fe5b146108f65760405160e560020a62461bcd0281526004016104f890615d4a565b600160a060020a0381166000908152600360205260408120600601805460ff1916600183610620565b6109276149aa565b600560008381526020019081526020016000206101006040519081016040529081600082015481526020016001820154815260200160028201805480602002602001604051908101604052809291908181526020016000905b82821015610ade5760008481526020908190206040805160028681029093018054600181161561010002600019011693909304601f810185900490940281016060908101835291810184815290938492849190840182828015610a245780601f106109f957610100808354040283529160200191610a24565b820191906000526020600020905b815481529060010190602001808311610a0757829003601f168201915b50505050508152602001600182018054600181600116156101000203166002900480601f016020809104026020016040519081016040528092919081815260200182805460018160011615610100020316600290048015610ac65780601f10610a9b57610100808354040283529160200191610ac6565b820191906000526020600020905b815481529060010190602001808311610aa957829003601f168201915b50505050508152505081526020019060010190610980565b5050505081526020016003820160009054906101000a900460ff161515151581526020016004820154815260200160058201805480602002602001604051908101604052809291908181526020016000905b82821015610bdb5760008481526020908190208301805460408051601f6002600019610100600187161502019094169390930492830185900485028101850190915281815292830182828015610bc75780601f10610b9c57610100808354040283529160200191610bc7565b820191906000526020600020905b815481529060010190602001808311610baa57829003601f168201915b505050505081526020019060010190610b30565b50505090825250600682015460ff161515602082015260079091015460409091015292915050565b606060008060006060600080610c17611b6a565b9550610c24600a89613716565b600454909550610c3590600a61374f565b9350851580610c4357508585115b80610c4d57508388115b15610c5757610fd3565b60408051600a808252610160820190925290816020015b610c766149f4565b815260200190600190039081610c6e579050509250600091508490505b600454811015610fcf5733600090815260036020819052604082208101546004805491939185908110610cc257fe5b6000918252602080832090910154600160a060020a03168352820192909252604001902060030154148015610d3f5750600260036000600484815481101515610d0757fe5b6000918252602080832090910154600160a060020a0316835282019290925260400190206006015460ff166002811115610d3d57fe5b145b15610fc75760036000600483815481101515610d5757fe5b600091825260208083209190910154600160a060020a0316835282810193909352604091820190208151610100808201845282548252600180840180548651600293821615909402600019011691909104601f81018790048702830187019095528482529194929385840193919291830182828015610e175780601f10610dec57610100808354040283529160200191610e17565b820191906000526020600020905b815481529060010190602001808311610dfa57829003601f168201915b5050509183525050600282810180546040805160206001841615610100026000190190931694909404601f81018390048302850183019091528084529381019390830182828015610ea95780601f10610e7e57610100808354040283529160200191610ea9565b820191906000526020600020905b815481529060010190602001808311610e8c57829003601f168201915b505050505081526020016003820154815260200160048201548152602001600582018054600181600116156101000203166002900480601f016020809104026020016040519081016040528092919081815260200182805460018160011615610100020316600290048015610f5f5780601f10610f3457610100808354040283529160200191610f5f565b820191906000526020600020905b815481529060010190602001808311610f4257829003601f168201915b5050509183525050600682015460209091019060ff166002811115610f8057fe5b6002811115610f8b57fe5b8152600691909101546101009004600160a060020a03166020909101528351849084908110610fb657fe5b602090810290910101526001909101905b600101610c93565b8296505b505050505050919050565b60606007805480602002602001604051908101604052809291908181526020016000905b828210156110ad5760008481526020908190208301805460408051601f60026000196101006001871615020190941693909304928301859004850281018501909152818152928301828280156110995780601f1061106e57610100808354040283529160200191611099565b820191906000526020600020905b81548152906001019060200180831161107c57829003601f168201915b505050505081526020019060010190611002565b5050505090505b90565b6110c03361139a565b15156110cb57600080fd5b600087815260016020526040812054116110fa5760405160e560020a62461bcd0281526004016104f890615dba565b60008781526001602081905260409091200154861461112e5760405160e560020a62461bcd0281526004016104f890615cea565b61113d87878787878787613772565b50505050505050565b61114e6149f4565b600160a060020a0382166000908152600360209081526040918290208251610100808201855282548252600180840180548751600293821615909402600019011691909104601f81018690048602830186019096528582529194929385810193919291908301828280156112035780601f106111d857610100808354040283529160200191611203565b820191906000526020600020905b8154815290600101906020018083116111e657829003601f168201915b5050509183525050600282810180546040805160206001841615610100026000190190931694909404601f810183900483028501830190915280845293810193908301828280156112955780601f1061126a57610100808354040283529160200191611295565b820191906000526020600020905b81548152906001019060200180831161127857829003601f168201915b505050505081526020016003820154815260200160048201548152602001600582018054600181600116156101000203166002900480601f01602080910402602001604051908101604052809291908181526020018280546001816001161561010002031660029004801561134b5780601f106113205761010080835404028352916020019161134b565b820191906000526020600020905b81548152906001019060200180831161132e57829003601f168201915b5050509183525050600682015460209091019060ff16600281111561136c57fe5b600281111561137757fe5b8152600691909101546101009004600160a060020a031660209091015292915050565b60006113ac818363ffffffff613d6b16565b92915050565b60608060006113c03361139a565b15156113cb57600080fd5b60045460408051828152602080840282010190915290801561140757816020015b6113f46149f4565b8152602001906001900390816113ec5790505b509150600090505b60045481101561169d576003600060048381548110151561142c57fe5b600091825260208083209190910154600160a060020a0316835282810193909352604091820190208151610100808201845282548252600180840180548651600293821615909402600019011691909104601f810187900487028301870190955284825291949293858401939192918301828280156114ec5780601f106114c1576101008083540402835291602001916114ec565b820191906000526020600020905b8154815290600101906020018083116114cf57829003601f168201915b5050509183525050600282810180546040805160206001841615610100026000190190931694909404601f8101839004830285018301909152808452938101939083018282801561157e5780601f106115535761010080835404028352916020019161157e565b820191906000526020600020905b81548152906001019060200180831161156157829003601f168201915b505050505081526020016003820154815260200160048201548152602001600582018054600181600116156101000203166002900480601f0160208091040260200160405190810160405280929190818152602001828054600181600116156101000203166002900480156116345780601f1061160957610100808354040283529160200191611634565b820191906000526020600020905b81548152906001019060200180831161161757829003601f168201915b5050509183525050600682015460209091019060ff16600281111561165557fe5b600281111561166057fe5b8152600691909101546101009004600160a060020a0316602090910152825183908390811061168b57fe5b6020908102909101015260010161140f565b50919050565b60608060006002805490506040519080825280602002602001820160405280156116e757816020015b6116d4614a45565b8152602001906001900390816116cc5790505b509150600090505b60025481101561169d576001600060028381548110151561170c57fe5b9060005260206000200154815260200190815260200160002061014060405190810160405290816000820154815260200160018201548152602001600282018054600181600116156101000203166002900480601f0160208091040260200160405190810160405280929190818152602001828054600181600116156101000203166002900480156117df5780601f106117b4576101008083540402835291602001916117df565b820191906000526020600020905b8154815290600101906020018083116117c257829003601f168201915b505050918352505060038201805460408051602060026001851615610100026000190190941693909304601f81018490048402820184019092528181529382019392918301828280156118735780601f1061184857610100808354040283529160200191611873565b820191906000526020600020905b81548152906001019060200180831161185657829003601f168201915b505050918352505060048201805460408051602060026001851615610100026000190190941693909304601f81018490048402820184019092528181529382019392918301828280156119075780601f106118dc57610100808354040283529160200191611907565b820191906000526020600020905b8154815290600101906020018083116118ea57829003601f168201915b505050918352505060058201805460408051602060026001851615610100026000190190941693909304601f810184900484028201840190925281815293820193929183018282801561199b5780601f106119705761010080835404028352916020019161199b565b820191906000526020600020905b81548152906001019060200180831161197e57829003601f168201915b505050918352505060068201805460408051602060026001851615610100026000190190941693909304601f8101849004840282018401909252818152938201939291830182828015611a2f5780601f10611a0457610100808354040283529160200191611a2f565b820191906000526020600020905b815481529060010190602001808311611a1257829003601f168201915b5050505050815260200160078201805480602002602001604051908101604052809291908181526020018280548015611a8757602002820191906000526020600020905b815481526020019060010190808311611a73575b5050505050815260200160088201805480602002602001604051908101604052809291908181526020018280548015611adf57602002820191906000526020600020905b815481526020019060010190808311611acb575b5050505050815260200160098201805480602002602001604051908101604052809291908181526020018280548015611b4157602002820191906000526020600020905b8154600160a060020a03168152600190910190602001808311611b23575b5050505050815250508282815181101515611b5857fe5b602090810290910101526001016116ef565b600080805b60045481101561169d5733600090815260036020819052604082208101546004805491939185908110611b9e57fe5b6000918252602080832090910154600160a060020a03168352820192909252604001902060030154148015611c1b5750600260036000600484815481101515611be357fe5b6000918252602080832090910154600160a060020a0316835282019290925260400190206006015460ff166002811115611c1957fe5b145b15611c27576001909101905b600101611b6f565b6000811515611c535760405160e560020a62461bcd0281526004016104f890615e0a565b60008611611c765760405160e560020a62461bcd0281526004016104f890615e1a565b3360009081526003602052604090205415611ca65760405160e560020a62461bcd0281526004016104f890615d1a565b611caf82612cb7565b1515611cd05760405160e560020a62461bcd0281526004016104f890615dba565b611cd986613da2565b90506107568686868585886001336000613f91565b6000611cf93361139a565b1515611d0457600080fd5b5060025490565b6060600080600080606080600080611d24600a8b613716565b9750611d2e612c8b565b9650611d3987612ca2565b9550611d4686600a61374f565b9450851580611d5757506001860388115b80611d615750848a115b15611d6b576120e5565b611d74876143e5565b60408051600a8082526101608201909252919550816020015b611d956149aa565b815260200190600190039081611d8d579050509250600091508790505b83518110156120e157600a8210156120d457600560008583815181101515611dd657fe5b9060200190602002015181526020019081526020016000206101006040519081016040529081600082015481526020016001820154815260200160028201805480602002602001604051908101604052809291908181526020016000905b82821015611f925760008481526020908190206040805160028681029093018054600181161561010002600019011693909304601f810185900490940281016060908101835291810184815290938492849190840182828015611ed85780601f10611ead57610100808354040283529160200191611ed8565b820191906000526020600020905b815481529060010190602001808311611ebb57829003601f168201915b50505050508152602001600182018054600181600116156101000203166002900480601f016020809104026020016040519081016040528092919081815260200182805460018160011615610100020316600290048015611f7a5780601f10611f4f57610100808354040283529160200191611f7a565b820191906000526020600020905b815481529060010190602001808311611f5d57829003601f168201915b50505050508152505081526020019060010190611e34565b5050505081526020016003820160009054906101000a900460ff161515151581526020016004820154815260200160058201805480602002602001604051908101604052809291908181526020016000905b8282101561208f5760008481526020908190208301805460408051601f600260001961010060018716150201909416939093049283018590048502810185019091528181529283018282801561207b5780601f106120505761010080835404028352916020019161207b565b820191906000526020600020905b81548152906001019060200180831161205e57829003601f168201915b505050505081526020019060010190611fe4565b50505090825250600682015460ff161515602082015260079091015460409091015283518490849081106120bf57fe5b602090810290910101526001909101906120d9565b6120e1565b600101611db2565b8298505b5050505050505050919050565b60006120fd3361139a565b151561210857600080fd5b50805b6007546000190181101561217557600780546001830190811061212a57fe5b9060005260206000200160078281548110151561214357fe5b90600052602060002001908054600181600116156101000203166002900461216c929190614a99565b5060010161210b565b60078054600019810190811061218757fe5b90600052602060002001600061219d9190614b0e565b60078054906107b6906000198301614b52565b6121b86149f4565b6121c06149f4565b336000908152600360209081526040918290208251610100808201855282548252600180840180548751600293821615909402600019011691909104601f81018690048602830186019096528582529194929385810193919291908301828280156112035780601f106111d857610100808354040283529160200191611203565b6060600080600060606000612257600a88613716565b60025490955061226890600a61374f565b600254909450158061227f57506002546000190185115b8061228957508387115b1561229357612752565b60408051600a80825261016082019092526000945090816020015b6122b6614a45565b8152602001906001900390816122ae5790505091508490505b60025481101561274e57600160006002838154811015156122ec57fe5b9060005260206000200154815260200190815260200160002061014060405190810160405290816000820154815260200160018201548152602001600282018054600181600116156101000203166002900480601f0160208091040260200160405190810160405280929190818152602001828054600181600116156101000203166002900480156123bf5780601f10612394576101008083540402835291602001916123bf565b820191906000526020600020905b8154815290600101906020018083116123a257829003601f168201915b505050918352505060038201805460408051602060026001851615610100026000190190941693909304601f81018490048402820184019092528181529382019392918301828280156124535780601f1061242857610100808354040283529160200191612453565b820191906000526020600020905b81548152906001019060200180831161243657829003601f168201915b505050918352505060048201805460408051602060026001851615610100026000190190941693909304601f81018490048402820184019092528181529382019392918301828280156124e75780601f106124bc576101008083540402835291602001916124e7565b820191906000526020600020905b8154815290600101906020018083116124ca57829003601f168201915b505050918352505060058201805460408051602060026001851615610100026000190190941693909304601f810184900484028201840190925281815293820193929183018282801561257b5780601f106125505761010080835404028352916020019161257b565b820191906000526020600020905b81548152906001019060200180831161255e57829003601f168201915b505050918352505060068201805460408051602060026001851615610100026000190190941693909304601f810184900484028201840190925281815293820193929183018282801561260f5780601f106125e45761010080835404028352916020019161260f565b820191906000526020600020905b8154815290600101906020018083116125f257829003601f168201915b505050505081526020016007820180548060200260200160405190810160405280929190818152602001828054801561266757602002820191906000526020600020905b815481526020019060010190808311612653575b50505050508152602001600882018054806020026020016040519081016040528092919081815260200182805480156126bf57602002820191906000526020600020905b8154815260200190600101908083116126ab575b505050505081526020016009820180548060200260200160405190810160405280929190818152602001828054801561272157602002820191906000526020600020905b8154600160a060020a03168152600190910190602001808311612703575b505050505081525050828481518110151561273857fe5b60209081029091010152600192830192016122cf565b8195505b5050505050919050565b6000838152600560205260408120600101541161278e5760405160e560020a62461bcd0281526004016104f890615d6a565b60008381526005602081815260408084208054600382015460048301549290950180548451818702810187019095528085526107b6978b9793968b9660ff90951695949392919084015b828210156128835760008481526020908190208301805460408051601f600260001961010060018716150201909416939093049283018590048502810185019091528181529283018282801561286f5780601f106128445761010080835404028352916020019161286f565b820191906000526020600020905b81548152906001019060200180831161285257829003601f168201915b5050505050815260200190600101906127d8565b50505060008b81526005602052604090206006015460ff16905088612cca565b6128ac3361447a565b565b6128b73361139a565b15156128c257600080fd5b61064c816144c2565b6000806128d73361139a565b15156128e257600080fd5b600088116129055760405160e560020a62461bcd0281526004016104f890615e1a565b61290e88613da2565b600081815260016020526040902054909150156129405760405160e560020a62461bcd0281526004016104f890615d9a565b61294f81898989898989613772565b979650505050505050565b600160a060020a038181166000908152600360205260408120600601549091829182916101009091041681106129a55760405160e560020a62461bcd0281526004016104f890615d2a565b6002600160a060020a03851660009081526003602052604090206006015460ff1660028111156129d157fe5b146129f15760405160e560020a62461bcd0281526004016104f890615dea565b600160a060020a03841660009081526003602052604090206004810154815460069092015490945090925060ff166002811115612a2a57fe5b9050612a3e82898989878a878b6001613f91565b5050505050505050565b612a513361139a565b1515612a5c57600080fd5b600160a060020a03811660009081526003602081905260409091200154612a839082612b1c565b604080518082018252600b81527f53757065722061646d696e0000000000000000000000000000000000000000006020808301918252600160a060020a03851660009081526003909152929092209051612ae39260059092019190614930565b50600160a060020a0381166000908152600360208190526040822090810191909155600601805460ff1916600217905561064c816128ae565b6000805b60008481526001602052604090206009015460001901811015612c1c5760008481526001602052604090206009018054600160a060020a038516919083908110612b6657fe5b600091825260209091200154600160a060020a03161415612b8657600191505b8115612c14576000848152600160208190526040909120600901805490918301908110612baf57fe5b6000918252602080832090910154868352600190915260409091206009018054600160a060020a039092169183908110612be557fe5b9060005260206000200160006101000a815481600160a060020a030219169083600160a060020a031602179055505b600101612b20565b600084815260016020526040902060090180546000198101908110612c3d57fe5b60009182526020808320909101805473ffffffffffffffffffffffffffffffffffffffff191690558582526001905260409020600901805490612c84906000198301614b76565b5050505050565b336000908152600360208190526040909120015490565b60009081526001602052604090206008015490565b6000908152600160205260408120541190565b612cd2614b9a565b606060006060612ce18a61450a565b9350612cec84614558565b60008d8152600560205260408120600181018f90558d815560038101805460ff19168d1515179055919450612d249160020190614bb1565b600091505b8251821015612e0957612d528383815181101515612d4357fe5b90602001906020020151614558565b9050600560008d81526020019081526020016000206002016040805190810160405280612d96846000815181101515612d8757fe5b9060200190602002015161462b565b8152602001612dad846001815181101515612d8757fe5b90528154600181018084556000938452602093849020835180519295600290940290910192612de192849290910190614930565b506020828101518051612dfa9260018501920190614930565b50505050816001019150612d29565b60008c8152600560208181526040909220600481018b9055600781018890558951612e3c939190920191908a0190614bd2565b5050506000998a5250506005602052506040909620600601805460ff1916961515969096179095555050505050565b6000918252600160208181526040842060080180549283018155845290922090910155565b612e98614b9a565b6060600080600654111515612ec25760405160e560020a62461bcd0281526004016104f890615daa565b612ecb8461450a565b9250612ed683614558565b9150600190505b600654811161075657848015612f04575060008181526005602052604090206003015460ff165b8015612f105750808614155b156136e957600081815260056020526040902060020180546006908110612f3357fe5b90600052602060002090600202016001016040516020018082805460018160011615610100020316600290048015612fa25780601f10612f80576101008083540402835291820191612fa2565b820191906000526020600020905b815481529060010190602001808311612f8e575b50509150506040516020818303038152906040526040518082805190602001908083835b60208310612fe55780518252601f199092019160209182019101612fc6565b6001836020036101000a03801982511681845116808217855250505050505090500191505060405180910390206000191661303861302b846006815181101515612d4357fe5b80516001908110612d8757fe5b6040516020018082805190602001908083835b6020831061306a5780518252601f19909201916020918201910161304b565b6001836020036101000a0380198251168184511680821785525050505050509050019150506040516020818303038152906040526040518082805190602001908083835b602083106130cd5780518252601f1990920191602091820191016130ae565b6001836020036101000a0380198251168184511680821785525050505050509050019150506040518091039020600019161480156132e4575060008181526005602052604090206002018054600390811061312457fe5b906000526020600020906002020160010160405160200180828054600181600116156101000203166002900480156131935780601f10613171576101008083540402835291820191613193565b820191906000526020600020905b81548152906001019060200180831161317f575b50509150506040516020818303038152906040526040518082805190602001908083835b602083106131d65780518252601f1990920191602091820191016131b7565b6001836020036101000a03801982511681845116808217855250505050505090500191505060405180910390206000191661321c61302b846003815181101515612d4357fe5b6040516020018082805190602001908083835b6020831061324e5780518252601f19909201916020918201910161322f565b6001836020036101000a0380198251168184511680821785525050505050509050019150506040516020818303038152906040526040518082805190602001908083835b602083106132b15780518252601f199092019160209182019101613292565b6001836020036101000a038019825116818451168082178552505050505050905001915050604051809103902060001916145b80156134c9575060008181526005602052604090206002018054600490811061330957fe5b906000526020600020906002020160010160405160200180828054600181600116156101000203166002900480156133785780601f10613356576101008083540402835291820191613378565b820191906000526020600020905b815481529060010190602001808311613364575b50509150506040516020818303038152906040526040518082805190602001908083835b602083106133bb5780518252601f19909201916020918201910161339c565b6001836020036101000a03801982511681845116808217855250505050505090500191505060405180910390206000191661340161302b846004815181101515612d4357fe5b6040516020018082805190602001908083835b602083106134335780518252601f199092019160209182019101613414565b6001836020036101000a0380198251168184511680821785525050505050509050019150506040516020818303038152906040526040518082805190602001908083835b602083106134965780518252601f199092019160209182019101613477565b6001836020036101000a038019825116818451168082178552505050505050905001915050604051809103902060001916145b80156136ae57506000818152600560205260408120600201805490919081106134ee57fe5b9060005260206000209060020201600101604051602001808280546001816001161561010002031660029004801561355d5780601f1061353b57610100808354040283529182019161355d565b820191906000526020600020905b815481529060010190602001808311613549575b50509150506040516020818303038152906040526040518082805190602001908083835b602083106135a05780518252601f199092019160209182019101613581565b6001836020036101000a0380198251168184511680821785525050505050509050019150506040518091039020600019166135e661302b846000815181101515612d4357fe5b6040516020018082805190602001908083835b602083106136185780518252601f1990920191602091820191016135f9565b6001836020036101000a0380198251168184511680821785525050505050509050019150506040516020818303038152906040526040518082805190602001908083835b6020831061367b5780518252601f19909201916020918201910161365c565b6001836020036101000a038019825116818451168082178552505050505050905001915050604051809103902060001916145b156136e95760008681526005602052604080822060069081018054600160ff1991821681179092558585529290932001805490911690911790555b600101612edd565b6000918252600160208181526040842060070180549283018155845290922090910155565b6000808315156137295760009150613748565b5082820282848281151561373957fe5b041461374457600080fd5b8091505b5092915050565b60008080831161375e57600080fd5b828481151561376957fe5b04949350505050565b61377a614a45565b8551151561379d5760405160e560020a62461bcd0281526004016104f890615dfa565b825115156137c05760405160e560020a62461bcd0281526004016104f890615dda565b815115156137e35760405160e560020a62461bcd0281526004016104f890615dca565b6000888152600160208181526040928390208351610140810185528154815281840154818401526002808301805487519681161561010002600019011691909104601f8101859004850286018501875280865291959294928601939091908301828280156138925780601f1061386757610100808354040283529160200191613892565b820191906000526020600020905b81548152906001019060200180831161387557829003601f168201915b505050918352505060038201805460408051602060026001851615610100026000190190941693909304601f81018490048402820184019092528181529382019392918301828280156139265780601f106138fb57610100808354040283529160200191613926565b820191906000526020600020905b81548152906001019060200180831161390957829003601f168201915b505050918352505060048201805460408051602060026001851615610100026000190190941693909304601f81018490048402820184019092528181529382019392918301828280156139ba5780601f1061398f576101008083540402835291602001916139ba565b820191906000526020600020905b81548152906001019060200180831161399d57829003601f168201915b505050918352505060058201805460408051602060026001851615610100026000190190941693909304601f8101849004840282018401909252818152938201939291830182828015613a4e5780601f10613a2357610100808354040283529160200191613a4e565b820191906000526020600020905b815481529060010190602001808311613a3157829003601f168201915b505050918352505060068201805460408051602060026001851615610100026000190190941693909304601f8101849004840282018401909252818152938201939291830182828015613ae25780601f10613ab757610100808354040283529160200191613ae2565b820191906000526020600020905b815481529060010190602001808311613ac557829003601f168201915b5050505050815260200160078201805480602002602001604051908101604052809291908181526020018280548015613b3a57602002820191906000526020600020905b815481526020019060010190808311613b26575b5050505050815260200160088201805480602002602001604051908101604052809291908181526020018280548015613b9257602002820191906000526020600020905b815481526020019060010190808311613b7e575b5050505050815260200160098201805480602002602001604051908101604052809291908181526020018280548015613bf457602002820191906000526020600020905b8154600160a060020a03168152600190910190602001808311613bd6575b50505091909252505050888152602080820189815260408084018a8152606085018a90526080850189905260a0850188905260c0850187905260008d815260018086529290208551815592519183019190915551805193945084939192613c6392600285019290910190614930565b5060608201518051613c7f916003840191602090910190614930565b5060808201518051613c9b916004840191602090910190614930565b5060a08201518051613cb7916005840191602090910190614930565b5060c08201518051613cd3916006840191602090910190614930565b5060e08201518051613cef916007840191602090910190614c2b565b506101008201518051613d0c916008840191602090910190614c2b565b506101208201518051613d29916009840191602090910190614c65565b5050600280546001810182556000919091527f405787fa12a823e0f2b7631cc41b3ba8828b3321ca811111fa75cd3aa3bb5ace01989098555050505050505050565b6000600160a060020a0382161515613d8257600080fd5b50600160a060020a03166000908152602091909152604090205460ff1690565b6000808080600285061515613e345784604051602001808281526020019150506040516020818303038152906040526040518082805190602001908083835b60208310613e005780518252601f199092019160209182019101613de1565b6001836020036101000a03801982511681845116808217855250505050505090500191505060405180910390209250613f1f565b84604051602001808281526020019150506040516020818303038152906040526040518082805190602001908083835b60208310613e835780518252601f199092019160209182019101613e64565b51815160209384036101000a600019018019909216911617905260408051929094018290038220828201528351808303820181529184019384905281519195509293508392850191508083835b60208310613eef5780518252601f199092019160209182019101613ed0565b6001836020036101000a038019825116818451168082178552505050505050905001915050604051809103902092505b6020811015613f4c57828160208110613f3457fe5b60f860020a91901a8102049190910190600101613f1f565b826020600284010660208110613f5e57fe5b60f860020a91901a810204836020840660208110613f7857fe5b1a60f860020a0260f860020a9004029350505050919050565b613f996149f4565b600084101580613faa575060028411155b1515613fcb5760405160e560020a62461bcd0281526004016104f890615d5a565b84511515613fee5760405160e560020a62461bcd0281526004016104f890615cfa565b600160a060020a0383166000908152600360209081526040918290208251610100808201855282548252600180840180548751600293821615909402600019011691909104601f81018690048602830186019096528582529194929385810193919291908301828280156140a35780601f10614078576101008083540402835291602001916140a3565b820191906000526020600020905b81548152906001019060200180831161408657829003601f168201915b5050509183525050600282810180546040805160206001841615610100026000190190931694909404601f810183900483028501830190915280845293810193908301828280156141355780601f1061410a57610100808354040283529160200191614135565b820191906000526020600020905b81548152906001019060200180831161411857829003601f168201915b505050505081526020016003820154815260200160048201548152602001600582018054600181600116156101000203166002900480601f0160208091040260200160405190810160405280929190818152602001828054600181600116156101000203166002900480156141eb5780601f106141c0576101008083540402835291602001916141eb565b820191906000526020600020905b8154815290600101906020018083116141ce57829003601f168201915b5050509183525050600682015460209091019060ff16600281111561420c57fe5b600281111561421757fe5b8152600691909101546101009004600160a060020a03166020918201528b825281018a905260408101899052606081018890526080810187905260a08101869052905083600281111561426657fe5b8160c00190600281111561427657fe5b9081600281111561428357fe5b905250600160a060020a03831660e0820181905260009081526003602090815260409091208251815581830151805184936142c5926001850192910190614930565b50604082015180516142e1916002840191602090910190614930565b50606082015160038201556080820151600482015560a08201518051614311916005840191602090910190614930565b5060c082015160068201805460ff1916600183600281111561432f57fe5b021790555060e0919091015160069091018054600160a060020a039092166101000274ffffffffffffffffffffffffffffffffffffffff00199092169190911790558115156143d957600480546001810182556000919091527f8a35acfbc15ff81a39ae7d344fd709f28e8600b4aa8c65c6b64bfe7fe36bd19b01805473ffffffffffffffffffffffffffffffffffffffff1916600160a060020a0385161790556143d98761469d565b50505050505050505050565b600081815260016020526040812054606091106144175760405160e560020a62461bcd0281526004016104f890615d7a565b6000828152600160209081526040918290206008018054835181840281018401909452808452909183018282801561446e57602002820191906000526020600020905b81548152602001906001019080831161445a575b50505050509050919050565b61448b60008263ffffffff6146dc16565b604051600160a060020a038216907f3525e22824a8a7df2c9a6029941c824cf95b6447f1e13d5128fd3826d35afe8b90600090a250565b6144d360008263ffffffff61472816565b604051600160a060020a038216907f47d1c22a25bb3a5d4e481b9b1e6944c2eade3181a0a20b495ed61d35b5323f2490600090a250565b614512614b9a565b6000825160001415614539576040805180820190915260008082526020820152915061169d565b5050604080518082019091528151815260209182019181019190915290565b606060008060008061456986614776565b151561457457600080fd5b61457d866147a5565b9350836040519080825280602002602001820160405280156145b957816020015b6145a6614b9a565b81526020019060019003908161459e5790505b5094506145c986602001516147f5565b8660200151019250600090505b83811015614622576145e783614858565b9150604080519081016040528083815260200184815250858281518110151561460c57fe5b60209081029091010152918101916001016145d6565b50505050919050565b60606000806060600061464186602001516147f5565b9350838660000151039250826040519080825280601f01601f19166020018201604052801561467a578160200160208202803883390190505b5091508160200190506146948487602001510182856148e9565b50949350505050565b6000908152600160208181526040832060090180549283018155835290912001805473ffffffffffffffffffffffffffffffffffffffff191633179055565b600160a060020a03811615156146f157600080fd5b6146fb8282613d6b565b151561470657600080fd5b600160a060020a0316600090815260209190915260409020805460ff19169055565b600160a060020a038116151561473d57600080fd5b6147478282613d6b565b1561475157600080fd5b600160a060020a0316600090815260209190915260409020805460ff19166001179055565b6020810151805160009190821a9060c060ff83161015614799576000925061479e565b600192505b5050919050565b600080600080600092506147bc85602001516147f5565b6020860151865191810193500190505b808210156147ec576147dd82614858565b600190930192909101906147cc565b50909392505050565b8051600090811a608081101561480e576000915061169d565b60b8811080614829575060c08110801590614829575060f881105b15614837576001915061169d565b60c081101561484c5760b5198101915061169d565b60f5198101915061169d565b8051600090811a6080811015614871576001915061169d565b60b881101561488657607e198101915061169d565b60c08110156148b35760b78103600184019350806020036101000a8451046001820181019350505061169d565b60f88110156148c85760be198101915061169d565b60019290920151602083900360f7016101000a900490910160f51901919050565b60005b6020821061490e578351835260209384019390920191601f19909101906148ec565b50915181516020939093036101000a6000190180199091169216919091179052565b828054600181600116156101000203166002900490600052602060002090601f016020900481019282601f1061497157805160ff191683800117855561499e565b8280016001018555821561499e579182015b8281111561499e578251825591602001919060010190614983565b50610668929150614cd3565b610100604051908101604052806000815260200160008152602001606081526020016000151581526020016000815260200160608152602001600015158152602001600081525090565b6101006040519081016040528060008152602001606081526020016060815260200160008152602001600081526020016060815260200160006002811115614a3857fe5b8152600060209091015290565b61014060405190810160405280600081526020016000815260200160608152602001606081526020016060815260200160608152602001606081526020016060815260200160608152602001606081525090565b828054600181600116156101000203166002900490600052602060002090601f016020900481019282601f10614ad2578054855561499e565b8280016001018555821561499e57600052602060002091601f016020900482015b8281111561499e578254825591600101919060010190614af3565b50805460018160011615610100020316600290046000825580601f10614b34575061064c565b601f01602090049060005260206000209081019061064c9190614cd3565b8154818355818111156107b6576000838152602090206107b6918101908301614ced565b8154818355818111156107b6576000838152602090206107b6918101908301614cd3565b604080518082019091526000808252602082015290565b508054600082556002029060005260206000209081019061064c9190614d10565b828054828255906000526020600020908101928215614c1f579160200282015b82811115614c1f5782518051614c0f918491602090910190614930565b5091602001919060010190614bf2565b50610668929150614ced565b82805482825590600052602060002090810192821561499e579160200282018281111561499e578251825591602001919060010190614983565b828054828255906000526020600020908101928215614cc7579160200282015b82811115614cc7578251825473ffffffffffffffffffffffffffffffffffffffff1916600160a060020a03909116178255602090920191600190910190614c85565b50610668929150614d41565b6110b491905b808211156106685760008155600101614cd9565b6110b491905b80821115610668576000614d078282614b0e565b50600101614cf3565b6110b491905b80821115610668576000614d2a8282614b0e565b614d38600183016000614b0e565b50600201614d16565b6110b491905b8082111561066857805473ffffffffffffffffffffffffffffffffffffffff19168155600101614d47565b6000614d7e8235615eb3565b9392505050565b6000614d7e8235615ebf565b6000601f82018313614da257600080fd5b8135614db5614db082615e81565b615e5a565b91508082526020830160208301858383011115614dd157600080fd5b614ddc838284615edb565b50505092915050565b6000614d7e82356110b4565b600060208284031215614e0357600080fd5b6000614e0f8484614d72565b949350505050565b600060208284031215614e2957600080fd5b813567ffffffffffffffff811115614e4057600080fd5b614e0f84828501614d91565b600080600080600060a08688031215614e6457600080fd5b853567ffffffffffffffff811115614e7b57600080fd5b614e8788828901614d91565b955050602086013567ffffffffffffffff811115614ea457600080fd5b614eb088828901614d91565b9450506040614ec188828901614de5565b935050606086013567ffffffffffffffff811115614ede57600080fd5b614eea88828901614d91565b9250506080614efb88828901614d72565b9150509295509295909350565b600060208284031215614f1a57600080fd5b6000614e0f8484614de5565b60008060008060808587031215614f3c57600080fd5b6000614f488787614de5565b945050602085013567ffffffffffffffff811115614f6557600080fd5b614f7187828801614d91565b9350506040614f8287828801614d85565b9250506060614f9387828801614de5565b91505092959194509250565b600080600060608486031215614fb457600080fd5b6000614fc08686614de5565b935050602084013567ffffffffffffffff811115614fdd57600080fd5b614fe986828701614d91565b9250506040614ffa86828701614de5565b9150509250925092565b60008060008060008060c0878903121561501d57600080fd5b60006150298989614de5565b965050602087013567ffffffffffffffff81111561504657600080fd5b61505289828a01614d91565b955050604087013567ffffffffffffffff81111561506f57600080fd5b61507b89828a01614d91565b945050606087013567ffffffffffffffff81111561509857600080fd5b6150a489828a01614d91565b935050608087013567ffffffffffffffff8111156150c157600080fd5b6150cd89828a01614d91565b92505060a087013567ffffffffffffffff8111156150ea57600080fd5b6150f689828a01614d91565b9150509295509295509295565b600080600080600060a0868803121561511b57600080fd5b60006151278888614de5565b955050602086013567ffffffffffffffff81111561514457600080fd5b61515088828901614d91565b945050604086013567ffffffffffffffff81111561516d57600080fd5b61517988828901614d91565b935050606086013567ffffffffffffffff81111561519657600080fd5b6151a288828901614d91565b9250506080614efb88828901614de5565b600080600080600080600060e0888a0312156151ce57600080fd5b60006151da8a8a614de5565b97505060206151eb8a828b01614de5565b965050604088013567ffffffffffffffff81111561520857600080fd5b6152148a828b01614d91565b955050606088013567ffffffffffffffff81111561523157600080fd5b61523d8a828b01614d91565b945050608088013567ffffffffffffffff81111561525a57600080fd5b6152668a828b01614d91565b93505060a088013567ffffffffffffffff81111561528357600080fd5b61528f8a828b01614d91565b92505060c088013567ffffffffffffffff8111156152ac57600080fd5b6152b88a828b01614d91565b91505092959891949750929550565b6152d081615eb3565b82525050565b60006152e182615eaf565b8084526020840193506152f383615ea9565b60005b82811015615323576153098683516152c7565b61531282615ea9565b6020969096019591506001016152f6565b5093949350505050565b600061533882615eaf565b8084526020840193508360208202850161535185615ea9565b60005b8481101561538857838303885261536c8383516155ba565b925061537782615ea9565b602098909801979150600101615354565b50909695505050505050565b600061539f82615eaf565b808452602084019350836020820285016153b885615ea9565b60005b848110156153885783830388526153d38383516155ba565b92506153de82615ea9565b6020989098019791506001016153bb565b60006153fa82615eaf565b8084526020840193508360208202850161541385615ea9565b60005b8481101561538857838303885261542e8383516159fb565b925061543982615ea9565b602098909801979150600101615416565b600061545582615eaf565b8084526020840193508360208202850161546e85615ea9565b60005b84811015615388578383038852615489838351615aab565b925061549482615ea9565b602098909801979150600101615471565b60006154b082615eaf565b808452602084019350836020820285016154c985615ea9565b60005b848110156153885783830388526154e4838351615bae565b92506154ef82615ea9565b6020989098019791506001016154cc565b600061550b82615eaf565b8084526020840193508360208202850161552485615ea9565b60005b8481101561538857838303885261553f838351615be0565b925061554a82615ea9565b602098909801979150600101615527565b600061556682615eaf565b80845260208401935061557883615ea9565b60005b828110156153235761558e868351615c8f565b61559782615ea9565b60209690960195915060010161557b565b6152d081615ebf565b6152d081615ed0565b60006155c582615eaf565b8084526155d9816020860160208601615ee7565b6155e281615f17565b9093016020019392505050565b601a81527f4372656174696f6e204461746520697320696e6d757461626c65000000000000602082015260400190565b601181527f726f6c65206973206d616e6461746f7279000000000000000000000000000000602082015260400190565b602281527f4f6e6c792070656e64696e672075736572732063616e2062652061636365707460208201527f6564000000000000000000000000000000000000000000000000000000000000604082015260600190565b601381527f5573657220616c72656164792065786973747300000000000000000000000000602082015260400190565b601481527f546869732075736572206e6f7420657869737473000000000000000000000000602082015260400190565b601b81527f596f752063616e6e6f7420616363657074207468697320757365720000000000602082015260400190565b602281527f4f6e6c792070656e64696e672075736572732063616e2062652072656a65637460208201527f6564000000000000000000000000000000000000000000000000000000000000604082015260600190565b601381527f737461747573206973206e6f742076616c696400000000000000000000000000602082015260400190565b601081527f436c61696d206e6f742065786973747300000000000000000000000000000000602082015260400190565b601181527f6d656d626572206e6f7420657869737473000000000000000000000000000000602082015260400190565b601481527f4d656d62657220646f206e6f7420657869737473000000000000000000000000602082015260400190565b601581527f4d656d62657220616c7265616479206578697374730000000000000000000000602082015260400190565b601f81527f5468657265206973206e6f20636c61696d20696e207468652073797374656d00602082015260400190565b601181527f4d656d626572206e6f7420657869737473000000000000000000000000000000602082015260400190565b601281527f5468656d65206973206d616e6461746f72790000000000000000000000000000602082015260400190565b601081527f434d4f206973206d616e6461746f727900000000000000000000000000000000602082015260400190565b601481527f596f7520617265206e6f74206163636570746564000000000000000000000000602082015260400190565b601181527f4e616d65206973206d616e6461746f7279000000000000000000000000000000602082015260400190565b601181527f4e6f2076616c6964206d656d6265724964000000000000000000000000000000602082015260400190565b601981527f4372656174696f6e44617465206973206d616e6461746f727900000000000000602082015260400190565b8051600090610100840190615a108582615c8f565b506020830151615a236020860182615c8f565b5060408301518482036040860152615a3b82826154a5565b9150506060830151615a5060608601826155a8565b506080830151615a636080860182615c8f565b5060a083015184820360a0860152615a7b8282615394565b91505060c0830151615a9060c08601826155a8565b5060e0830151615aa360e0860182615c8f565b509392505050565b8051600090610140840190615ac08582615c8f565b506020830151615ad36020860182615c8f565b5060408301518482036040860152615aeb82826155ba565b91505060608301518482036060860152615b0582826155ba565b91505060808301518482036080860152615b1f82826155ba565b91505060a083015184820360a0860152615b3982826155ba565b91505060c083015184820360c0860152615b5382826155ba565b91505060e083015184820360e0860152615b6d828261555b565b915050610100830151848203610100860152615b89828261555b565b915050610120830151848203610120860152615ba582826152d6565b95945050505050565b8051604080845260009190840190615bc682826155ba565b91505060208301518482036020860152615ba582826155ba565b8051600090610100840190615bf58582615c8f565b5060208301518482036020860152615c0d82826155ba565b91505060408301518482036040860152615c2782826155ba565b9150506060830151615c3c6060860182615c8f565b506080830151615c4f6080860182615c8f565b5060a083015184820360a0860152615c6782826155ba565b91505060c0830151615c7c60c08601826155b1565b5060e0830151615aa360e08601826152c7565b6152d0816110b4565b60208082528101614d7e818461532d565b60208082528101614d7e81846153ef565b60208082528101614d7e818461544a565b60208082528101614d7e8184615500565b602081016113ac82846155a8565b602080825281016113ac816155ef565b602080825281016113ac8161561f565b602080825281016113ac8161564f565b602080825281016113ac816156a5565b602080825281016113ac816156d5565b602080825281016113ac81615705565b602080825281016113ac81615735565b602080825281016113ac8161578b565b602080825281016113ac816157bb565b602080825281016113ac816157eb565b602080825281016113ac8161581b565b602080825281016113ac8161584b565b602080825281016113ac8161587b565b602080825281016113ac816158ab565b602080825281016113ac816158db565b602080825281016113ac8161590b565b602080825281016113ac8161593b565b602080825281016113ac8161596b565b602080825281016113ac8161599b565b602080825281016113ac816159cb565b60208082528101614d7e81846159fb565b60208082528101614d7e8184615be0565b602081016113ac8284615c8f565b60405181810167ffffffffffffffff81118282101715615e7957600080fd5b604052919050565b600067ffffffffffffffff821115615e9857600080fd5b506020601f91909101601f19160190565b60200190565b5190565b600160a060020a031690565b151590565b60006003821061066857fe5b60006113ac82615ec4565b82818337506000910152565b60005b83811015615f02578181015183820152602001615eea565b83811115615f11576000848401525b50505050565b601f01601f1916905600a265627a7a723058200374e72dfcfcefe4957f022ada95a06400cc4453d72e2d2ab8e086f2e80919496c6578706572696d656e74616cf50037",
  "source": "pragma solidity ^0.4.24;\npragma experimental ABIEncoderV2;\n\nimport \"./Claims.sol\";\n\ncontract Registry is Claims {\n  \n  string[] private cmos_;\n\n  function addCMO(string memory _cmo) onlySigner public {\n    cmos_.push(_cmo);\n  }\n\n  function deleteCMO(uint _index) onlySigner public {\n    for (uint i = _index; i < cmos_.length-1;i++){\n      cmos_[i] = cmos_[i+1];\n    }\n    delete cmos_[cmos_.length-1];\n    cmos_.length--;\n  }\n\n  function getCMOs() view public returns( string[] memory ) {\n    return cmos_;\n  }\n\n}",
  "sourcePath": "/home/komodo/newUI/bloomen-decentralized-rights-management-v2/truffle/contracts/registry/Registry.sol",
  "compiler": {
    "name": "solc",
    "version": "0.4.24+commit.e67f0147.Emscripten.clang"
  },
  "schemaVersion": "2.0.1",
  "updatedAt": "2019-11-10T18:15:17.371Z"
}