{
  "contractName": "Registry",
  "abi": [
    {
      "constant": false,
      "inputs": [
        {
          "name": "_userToAccept",
          "type": "address"
        }
      ],
      "name": "acceptUser",
      "outputs": [],
      "payable": false,
      "stateMutability": "nonpayable",
      "type": "function"
    },
    {
      "constant": true,
      "inputs": [],
      "name": "getClaimsCountByMemberId",
      "outputs": [
        {
          "name": "",
          "type": "uint256"
        }
      ],
      "payable": false,
      "stateMutability": "view",
      "type": "function"
    },
    {
      "constant": false,
      "inputs": [
        {
          "name": "_userToReject",
          "type": "address"
        }
      ],
      "name": "rejectUser",
      "outputs": [],
      "payable": false,
      "stateMutability": "nonpayable",
      "type": "function"
    },
    {
      "constant": true,
      "inputs": [
        {
          "name": "_page",
          "type": "uint256"
        }
      ],
      "name": "getUsers",
      "outputs": [
        {
          "components": [
            {
              "name": "creationDate",
              "type": "uint256"
            },
            {
              "name": "firstName",
              "type": "string"
            },
            {
              "name": "lastName",
              "type": "string"
            },
            {
              "name": "memberId",
              "type": "uint256"
            },
            {
              "name": "requestId",
              "type": "uint256"
            },
            {
              "name": "role",
              "type": "string"
            },
            {
              "name": "status",
              "type": "uint8"
            },
            {
              "name": "owner",
              "type": "address"
            }
          ],
          "name": "",
          "type": "tuple[]"
        }
      ],
      "payable": false,
      "stateMutability": "view",
      "type": "function"
    },
    {
      "constant": false,
      "inputs": [
        {
          "name": "_memberId",
          "type": "uint256"
        },
        {
          "name": "_creationDate",
          "type": "uint256"
        },
        {
          "name": "_name",
          "type": "string"
        },
        {
          "name": "_logo",
          "type": "string"
        },
        {
          "name": "_country",
          "type": "string"
        },
        {
          "name": "_cmo",
          "type": "string"
        },
        {
          "name": "_theme",
          "type": "string"
        }
      ],
      "name": "updateMember",
      "outputs": [],
      "payable": false,
      "stateMutability": "nonpayable",
      "type": "function"
    },
    {
      "constant": true,
      "inputs": [
        {
          "name": "userAddress",
          "type": "address"
        }
      ],
      "name": "getUserByAddress",
      "outputs": [
        {
          "components": [
            {
              "name": "creationDate",
              "type": "uint256"
            },
            {
              "name": "firstName",
              "type": "string"
            },
            {
              "name": "lastName",
              "type": "string"
            },
            {
              "name": "memberId",
              "type": "uint256"
            },
            {
              "name": "requestId",
              "type": "uint256"
            },
            {
              "name": "role",
              "type": "string"
            },
            {
              "name": "status",
              "type": "uint8"
            },
            {
              "name": "owner",
              "type": "address"
            }
          ],
          "name": "",
          "type": "tuple"
        }
      ],
      "payable": false,
      "stateMutability": "view",
      "type": "function"
    },
    {
      "constant": true,
      "inputs": [
        {
          "name": "account",
          "type": "address"
        }
      ],
      "name": "isSigner",
      "outputs": [
        {
          "name": "",
          "type": "bool"
        }
      ],
      "payable": false,
      "stateMutability": "view",
      "type": "function"
    },
    {
      "constant": true,
      "inputs": [],
      "name": "getUsersOwner",
      "outputs": [
        {
          "components": [
            {
              "name": "creationDate",
              "type": "uint256"
            },
            {
              "name": "firstName",
              "type": "string"
            },
            {
              "name": "lastName",
              "type": "string"
            },
            {
              "name": "memberId",
              "type": "uint256"
            },
            {
              "name": "requestId",
              "type": "uint256"
            },
            {
              "name": "role",
              "type": "string"
            },
            {
              "name": "status",
              "type": "uint8"
            },
            {
              "name": "owner",
              "type": "address"
            }
          ],
          "name": "",
          "type": "tuple[]"
        }
      ],
      "payable": false,
      "stateMutability": "view",
      "type": "function"
    },
    {
      "constant": true,
      "inputs": [],
      "name": "getMembers",
      "outputs": [
        {
          "components": [
            {
              "name": "memberId",
              "type": "uint256"
            },
            {
              "name": "creationDate",
              "type": "uint256"
            },
            {
              "name": "name",
              "type": "string"
            },
            {
              "name": "logo",
              "type": "string"
            },
            {
              "name": "country",
              "type": "string"
            },
            {
              "name": "cmo",
              "type": "string"
            },
            {
              "name": "theme",
              "type": "string"
            },
            {
              "name": "claimInbox",
              "type": "uint256[]"
            },
            {
              "name": "claims",
              "type": "uint256[]"
            },
            {
              "name": "userRequests",
              "type": "address[]"
            }
          ],
          "name": "",
          "type": "tuple[]"
        }
      ],
      "payable": false,
      "stateMutability": "view",
      "type": "function"
    },
    {
      "constant": true,
      "inputs": [],
      "name": "getcountUsers",
      "outputs": [
        {
          "name": "",
          "type": "uint256"
        }
      ],
      "payable": false,
      "stateMutability": "view",
      "type": "function"
    },
    {
      "constant": false,
      "inputs": [
        {
          "name": "_creationDate",
          "type": "uint256"
        },
        {
          "name": "_firstName",
          "type": "string"
        },
        {
          "name": "_lastName",
          "type": "string"
        },
        {
          "name": "_role",
          "type": "string"
        },
        {
          "name": "_memberId",
          "type": "uint256"
        }
      ],
      "name": "registerUserRequest",
      "outputs": [],
      "payable": false,
      "stateMutability": "nonpayable",
      "type": "function"
    },
    {
      "constant": true,
      "inputs": [],
      "name": "getCount",
      "outputs": [
        {
          "name": "",
          "type": "uint256"
        }
      ],
      "payable": false,
      "stateMutability": "view",
      "type": "function"
    },
    {
      "constant": false,
      "inputs": [
        {
          "name": "_creationDate",
          "type": "uint256"
        },
        {
          "name": "_claimData",
          "type": "bytes"
        },
        {
          "name": "_claimType",
          "type": "bool"
        },
        {
          "name": "_memberOwner",
          "type": "uint256"
        },
        {
          "name": "reg_update",
          "type": "bool"
        },
        {
          "name": "_claimId",
          "type": "uint256"
        },
        {
          "name": "_oldClaimData",
          "type": "bytes"
        },
        {
          "name": "_lastChange",
          "type": "uint256"
        }
      ],
      "name": "computeClaim",
      "outputs": [],
      "payable": false,
      "stateMutability": "nonpayable",
      "type": "function"
    },
    {
      "constant": true,
      "inputs": [
        {
          "name": "_page",
          "type": "uint256"
        }
      ],
      "name": "getClaimsByMemberId",
      "outputs": [
        {
          "components": [
            {
              "name": "creationDate",
              "type": "uint256"
            },
            {
              "name": "claimId",
              "type": "uint256"
            },
            {
              "components": [
                {
                  "name": "name",
                  "type": "string"
                },
                {
                  "name": "value",
                  "type": "string"
                }
              ],
              "name": "claimData",
              "type": "tuple[]"
            },
            {
              "name": "claimType",
              "type": "bool"
            },
            {
              "name": "memberOwner",
              "type": "uint256"
            },
            {
              "name": "status",
              "type": "bool"
            },
            {
              "name": "lastChange",
              "type": "uint256"
            }
          ],
          "name": "",
          "type": "tuple[]"
        }
      ],
      "payable": false,
      "stateMutability": "view",
      "type": "function"
    },
    {
      "constant": true,
      "inputs": [],
      "name": "getMe",
      "outputs": [
        {
          "components": [
            {
              "name": "creationDate",
              "type": "uint256"
            },
            {
              "name": "firstName",
              "type": "string"
            },
            {
              "name": "lastName",
              "type": "string"
            },
            {
              "name": "memberId",
              "type": "uint256"
            },
            {
              "name": "requestId",
              "type": "uint256"
            },
            {
              "name": "role",
              "type": "string"
            },
            {
              "name": "status",
              "type": "uint8"
            },
            {
              "name": "owner",
              "type": "address"
            }
          ],
          "name": "",
          "type": "tuple"
        }
      ],
      "payable": false,
      "stateMutability": "view",
      "type": "function"
    },
    {
      "constant": true,
      "inputs": [
        {
          "name": "_page",
          "type": "uint256"
        }
      ],
      "name": "getMembers",
      "outputs": [
        {
          "components": [
            {
              "name": "memberId",
              "type": "uint256"
            },
            {
              "name": "creationDate",
              "type": "uint256"
            },
            {
              "name": "name",
              "type": "string"
            },
            {
              "name": "logo",
              "type": "string"
            },
            {
              "name": "country",
              "type": "string"
            },
            {
              "name": "cmo",
              "type": "string"
            },
            {
              "name": "theme",
              "type": "string"
            },
            {
              "name": "claimInbox",
              "type": "uint256[]"
            },
            {
              "name": "claims",
              "type": "uint256[]"
            },
            {
              "name": "userRequests",
              "type": "address[]"
            }
          ],
          "name": "",
          "type": "tuple[]"
        }
      ],
      "payable": false,
      "stateMutability": "view",
      "type": "function"
    },
    {
      "constant": false,
      "inputs": [],
      "name": "renounceSigner",
      "outputs": [],
      "payable": false,
      "stateMutability": "nonpayable",
      "type": "function"
    },
    {
      "constant": false,
      "inputs": [
        {
          "name": "account",
          "type": "address"
        }
      ],
      "name": "addSigner",
      "outputs": [],
      "payable": false,
      "stateMutability": "nonpayable",
      "type": "function"
    },
    {
      "constant": false,
      "inputs": [
        {
          "name": "_creationDate",
          "type": "uint256"
        },
        {
          "name": "_name",
          "type": "string"
        },
        {
          "name": "_logo",
          "type": "string"
        },
        {
          "name": "_country",
          "type": "string"
        },
        {
          "name": "_cmo",
          "type": "string"
        },
        {
          "name": "_theme",
          "type": "string"
        }
      ],
      "name": "addMember",
      "outputs": [
        {
          "name": "",
          "type": "uint256"
        }
      ],
      "payable": false,
      "stateMutability": "nonpayable",
      "type": "function"
    },
    {
      "constant": false,
      "inputs": [
        {
          "name": "_firstName",
          "type": "string"
        },
        {
          "name": "_lastName",
          "type": "string"
        },
        {
          "name": "_memberId",
          "type": "uint256"
        },
        {
          "name": "_role",
          "type": "string"
        },
        {
          "name": "owner",
          "type": "address"
        }
      ],
      "name": "updateUser",
      "outputs": [],
      "payable": false,
      "stateMutability": "nonpayable",
      "type": "function"
    },
    {
      "constant": false,
      "inputs": [
        {
          "name": "account",
          "type": "address"
        }
      ],
      "name": "whitelistAdmin",
      "outputs": [],
      "payable": false,
      "stateMutability": "nonpayable",
      "type": "function"
    },
    {
      "anonymous": false,
      "inputs": [
        {
          "indexed": true,
          "name": "account",
          "type": "address"
        }
      ],
      "name": "SignerAdded",
      "type": "event"
    },
    {
      "anonymous": false,
      "inputs": [
        {
          "indexed": true,
          "name": "account",
          "type": "address"
        }
      ],
      "name": "SignerRemoved",
      "type": "event"
    },
    {
      "constant": false,
      "inputs": [
        {
          "name": "_cmo",
          "type": "string"
        }
      ],
      "name": "addCMO",
      "outputs": [],
      "payable": false,
      "stateMutability": "nonpayable",
      "type": "function"
    },
    {
      "constant": false,
      "inputs": [
        {
          "name": "_index",
          "type": "uint256"
        }
      ],
      "name": "deleteCMO",
      "outputs": [],
      "payable": false,
      "stateMutability": "nonpayable",
      "type": "function"
    },
    {
      "constant": true,
      "inputs": [],
      "name": "getCMOs",
      "outputs": [
        {
          "name": "",
          "type": "string[]"
        }
      ],
      "payable": false,
      "stateMutability": "view",
      "type": "function"
    }
  ],
  "bytecode": "0x608060405260006008556200001d3364010000000062000023810204565b62000108565b6200003e600082640100000000620044896200007582021704565b604051600160a060020a038216907f47d1c22a25bb3a5d4e481b9b1e6944c2eade3181a0a20b495ed61d35b5323f2490600090a250565b600160a060020a03811615156200008b57600080fd5b620000a08282640100000000620000d0810204565b15620000ab57600080fd5b600160a060020a0316600090815260209190915260409020805460ff19166001179055565b6000600160a060020a0382161515620000e857600080fd5b50600160a060020a03166000908152602091909152604090205460ff1690565b615e8980620001186000396000f30060806040526004361061013d5763ffffffff7c010000000000000000000000000000000000000000000000000000000060003504166308bdc24d81146101425780631be8850b146101645780633a59ccf11461018f5780634dc92885146101af5780635d73ab9a146101cf578063656d561c146101fc57806365ff0c481461021e57806369c212f61461023e5780637df73e271461026b578063932191be146102985780639eab5253146102ad578063a4fdc594146102cf578063a7ed1fe4146102e4578063a87d942c14610304578063aa5b3a0614610319578063b6bc381214610339578063bf3d007e14610366578063c11e1ff314610386578063c477ecab1461039b578063e5c8b03d146103bb578063eb12d61e146103d0578063fa1188c6146103f0578063fcfbde5b14610410578063ff240fce14610430575b600080fd5b34801561014e57600080fd5b5061016261015d366004614e28565b610450565b005b34801561017057600080fd5b506101796105ec565b6040516101869190615d7e565b60405180910390f35b34801561019b57600080fd5b506101626101aa366004614e4e565b610609565b3480156101bb57600080fd5b506101626101ca366004614e28565b610666565b3480156101db57600080fd5b506101ef6101ea366004614f3f565b6107ca565b6040516101869190615c2e565b34801561020857600080fd5b50610211610ba5565b6040516101869190615bfb565b34801561022a57600080fd5b506101626102393660046151ec565b610c7e565b34801561024a57600080fd5b5061025e610259366004614e28565b610d0d565b6040516101869190615d6d565b34801561027757600080fd5b5061028b610286366004614e28565b610f61565b6040516101869190615c3f565b3480156102a457600080fd5b506101ef610f79565b3480156102b957600080fd5b506102c261126a565b6040516101869190615c1d565b3480156102db57600080fd5b50610179611731565b3480156102f057600080fd5b506101626102ff36600461513c565b6117f6565b34801561031057600080fd5b506101796118bd565b34801561032557600080fd5b50610162610334366004614f5d565b6118da565b34801561034557600080fd5b50610359610354366004614f3f565b6119e5565b6040516101869190615c0c565b34801561037257600080fd5b50610162610381366004614f3f565b611ce7565b34801561039257600080fd5b5061025e611da5565b3480156103a757600080fd5b506102c26103b6366004614f3f565b611e36565b3480156103c757600080fd5b50610162612351565b3480156103dc57600080fd5b506101626103eb366004614e28565b61235c565b3480156103fc57600080fd5b5061017961040b36600461503d565b612379565b34801561041c57600080fd5b5061016261042b366004614e83565b612408565b34801561043c57600080fd5b5061016261044b366004614e28565b6124ec565b600160a060020a0381811660009081526003602052604081206006015461010090049091161161049e5760405160e560020a62461bcd02815260040161049590615c8d565b60405180910390fd5b600160a060020a03811660009081526003602081905260408083208201543384529220015414806104d357506104d333610f61565b15156104f45760405160e560020a62461bcd02815260040161049590615c9d565b60023360009081526003602052604090206006015460ff16600281111561051757fe5b1480610527575061052733610f61565b15156105485760405160e560020a62461bcd02815260040161049590615d2d565b6001600160a060020a03821660009081526003602052604090206006015460ff16600281111561057457fe5b146105945760405160e560020a62461bcd02815260040161049590615c6d565b600160a060020a038116600090815260036020526040902060060180546002919060ff19166001835b0217905550600160a060020a038116600090815260036020819052604090912001546105e990826125c0565b50565b6000806105f761272f565b905061060281612746565b91505b5090565b61061233610f61565b151561061d57600080fd5b60098054600181018083556000929092528251610661917f6e1540171b6c0c960b71a7020d9f60077f6af931a8bbf590da0223dacf75c7af019060208501906149c8565b505050565b600160a060020a038181166000908152600360205260408120600601546101009004909116116106ab5760405160e560020a62461bcd02815260040161049590615c8d565b600160a060020a03811660009081526003602081905260408083208201543384529220015414806106e057506106e033610f61565b15156107015760405160e560020a62461bcd02815260040161049590615c9d565b60023360009081526003602052604090206006015460ff16600281111561072457fe5b1480610734575061073433610f61565b15156107555760405160e560020a62461bcd02815260040161049590615d2d565b6001600160a060020a03821660009081526003602052604090206006015460ff16600281111561078157fe5b146107a15760405160e560020a62461bcd02815260040161049590615cad565b600160a060020a0381166000908152600360205260408120600601805460ff19166001836105bd565b6060600080600060606000806107de611731565b95506107eb600a8961275b565b6004549095506107fc90600a612794565b935085158061080a57508585115b8061081457508388115b1561081e57610b9a565b60408051600a808252610160820190925290816020015b61083d614a42565b815260200190600190039081610835579050509250600091508490505b600454811015610b96573360009081526003602081905260408220810154600480549193918590811061088957fe5b6000918252602080832090910154600160a060020a0316835282019290925260400190206003015414801561090657506002600360006004848154811015156108ce57fe5b6000918252602080832090910154600160a060020a0316835282019290925260400190206006015460ff16600281111561090457fe5b145b15610b8e576003600060048381548110151561091e57fe5b600091825260208083209190910154600160a060020a0316835282810193909352604091820190208151610100808201845282548252600180840180548651600293821615909402600019011691909104601f810187900487028301870190955284825291949293858401939192918301828280156109de5780601f106109b3576101008083540402835291602001916109de565b820191906000526020600020905b8154815290600101906020018083116109c157829003601f168201915b5050509183525050600282810180546040805160206001841615610100026000190190931694909404601f81018390048302850183019091528084529381019390830182828015610a705780601f10610a4557610100808354040283529160200191610a70565b820191906000526020600020905b815481529060010190602001808311610a5357829003601f168201915b505050505081526020016003820154815260200160048201548152602001600582018054600181600116156101000203166002900480601f016020809104026020016040519081016040528092919081815260200182805460018160011615610100020316600290048015610b265780601f10610afb57610100808354040283529160200191610b26565b820191906000526020600020905b815481529060010190602001808311610b0957829003601f168201915b5050509183525050600682015460209091019060ff166002811115610b4757fe5b6002811115610b5257fe5b8152600691909101546101009004600160a060020a03166020909101528351849084908110610b7d57fe5b602090810290910101526001909101905b60010161085a565b8296505b505050505050919050565b60606009805480602002602001604051908101604052809291908181526020016000905b82821015610c745760008481526020908190208301805460408051601f6002600019610100600187161502019094169390930492830185900485028101850190915281815292830182828015610c605780601f10610c3557610100808354040283529160200191610c60565b820191906000526020600020905b815481529060010190602001808311610c4357829003601f168201915b505050505081526020019060010190610bc9565b5050505090505b90565b610c8733610f61565b1515610c9257600080fd5b60008781526001602052604081205411610cc15760405160e560020a62461bcd02815260040161049590615cfd565b600087815260016020819052604090912001548614610cf55760405160e560020a62461bcd02815260040161049590615c4d565b610d04878787878787876127b7565b50505050505050565b610d15614a42565b600160a060020a0382166000908152600360209081526040918290208251610100808201855282548252600180840180548751600293821615909402600019011691909104601f8101869004860283018601909652858252919492938581019391929190830182828015610dca5780601f10610d9f57610100808354040283529160200191610dca565b820191906000526020600020905b815481529060010190602001808311610dad57829003601f168201915b5050509183525050600282810180546040805160206001841615610100026000190190931694909404601f81018390048302850183019091528084529381019390830182828015610e5c5780601f10610e3157610100808354040283529160200191610e5c565b820191906000526020600020905b815481529060010190602001808311610e3f57829003601f168201915b505050505081526020016003820154815260200160048201548152602001600582018054600181600116156101000203166002900480601f016020809104026020016040519081016040528092919081815260200182805460018160011615610100020316600290048015610f125780601f10610ee757610100808354040283529160200191610f12565b820191906000526020600020905b815481529060010190602001808311610ef557829003601f168201915b5050509183525050600682015460209091019060ff166002811115610f3357fe5b6002811115610f3e57fe5b8152600691909101546101009004600160a060020a031660209091015292915050565b6000610f73818363ffffffff612db016565b92915050565b6060806000610f8733610f61565b1515610f9257600080fd5b600454604080518281526020808402820101909152908015610fce57816020015b610fbb614a42565b815260200190600190039081610fb35790505b509150600090505b6004548110156112645760036000600483815481101515610ff357fe5b600091825260208083209190910154600160a060020a0316835282810193909352604091820190208151610100808201845282548252600180840180548651600293821615909402600019011691909104601f810187900487028301870190955284825291949293858401939192918301828280156110b35780601f10611088576101008083540402835291602001916110b3565b820191906000526020600020905b81548152906001019060200180831161109657829003601f168201915b5050509183525050600282810180546040805160206001841615610100026000190190931694909404601f810183900483028501830190915280845293810193908301828280156111455780601f1061111a57610100808354040283529160200191611145565b820191906000526020600020905b81548152906001019060200180831161112857829003601f168201915b505050505081526020016003820154815260200160048201548152602001600582018054600181600116156101000203166002900480601f0160208091040260200160405190810160405280929190818152602001828054600181600116156101000203166002900480156111fb5780601f106111d0576101008083540402835291602001916111fb565b820191906000526020600020905b8154815290600101906020018083116111de57829003601f168201915b5050509183525050600682015460209091019060ff16600281111561121c57fe5b600281111561122757fe5b8152600691909101546101009004600160a060020a0316602090910152825183908390811061125257fe5b60209081029091010152600101610fd6565b50919050565b60608060006002805490506040519080825280602002602001820160405280156112ae57816020015b61129b614a93565b8152602001906001900390816112935790505b509150600090505b60025481101561126457600160006002838154811015156112d357fe5b9060005260206000200154815260200190815260200160002061014060405190810160405290816000820154815260200160018201548152602001600282018054600181600116156101000203166002900480601f0160208091040260200160405190810160405280929190818152602001828054600181600116156101000203166002900480156113a65780601f1061137b576101008083540402835291602001916113a6565b820191906000526020600020905b81548152906001019060200180831161138957829003601f168201915b505050918352505060038201805460408051602060026001851615610100026000190190941693909304601f810184900484028201840190925281815293820193929183018282801561143a5780601f1061140f5761010080835404028352916020019161143a565b820191906000526020600020905b81548152906001019060200180831161141d57829003601f168201915b505050918352505060048201805460408051602060026001851615610100026000190190941693909304601f81018490048402820184019092528181529382019392918301828280156114ce5780601f106114a3576101008083540402835291602001916114ce565b820191906000526020600020905b8154815290600101906020018083116114b157829003601f168201915b505050918352505060058201805460408051602060026001851615610100026000190190941693909304601f81018490048402820184019092528181529382019392918301828280156115625780601f1061153757610100808354040283529160200191611562565b820191906000526020600020905b81548152906001019060200180831161154557829003601f168201915b505050918352505060068201805460408051602060026001851615610100026000190190941693909304601f81018490048402820184019092528181529382019392918301828280156115f65780601f106115cb576101008083540402835291602001916115f6565b820191906000526020600020905b8154815290600101906020018083116115d957829003601f168201915b505050505081526020016007820180548060200260200160405190810160405280929190818152602001828054801561164e57602002820191906000526020600020905b81548152602001906001019080831161163a575b50505050508152602001600882018054806020026020016040519081016040528092919081815260200182805480156116a657602002820191906000526020600020905b815481526020019060010190808311611692575b505050505081526020016009820180548060200260200160405190810160405280929190818152602001828054801561170857602002820191906000526020600020905b8154600160a060020a031681526001909101906020018083116116ea575b505050505081525050828281518110151561171f57fe5b602090810290910101526001016112b6565b600080805b600454811015611264573360009081526003602081905260408220810154600480549193918590811061176557fe5b6000918252602080832090910154600160a060020a031683528201929092526040019020600301541480156117e257506002600360006004848154811015156117aa57fe5b6000918252602080832090910154600160a060020a0316835282019290925260400190206006015460ff1660028111156117e057fe5b145b156117ee576001909101905b600101611736565b600081151561181a5760405160e560020a62461bcd02815260040161049590615d4d565b6000861161183d5760405160e560020a62461bcd02815260040161049590615d5d565b336000908152600360205260409020541561186d5760405160e560020a62461bcd02815260040161049590615c7d565b61187682612de7565b15156118975760405160e560020a62461bcd02815260040161049590615cfd565b6118a086612dfa565b90506118b58686868585886001336000612fea565b505050505050565b60006118c833610f61565b15156118d357600080fd5b5060025490565b831561194d57600880546001019081905592506118f685612de7565b15156119175760405160e560020a62461bcd02815260040161049590615cdd565b61191f61272f565b9450611931838989898960008e61343e565b61193b85846135b9565b61194883878960016135de565b6119db565b60008381526006602052604081206003015461197091859160ff169085906135de565b60008381526006602052604090206003015461199390849060ff168960016135de565b6000838152600660205260409020600381015460048201546005909201546119ca9286928c928c9260ff928316929091168761343e565b8715156119db576119db8584613c1d565b5050505050505050565b60606000806000806060806000806119fe600a8b61275b565b9750611a0861272f565b9650611a1387612746565b9550611a2086600a612794565b9450851580611a3157506001860388115b80611a3b5750848a115b15611a4557611cda565b611a4e87613c2b565b60408051600a8082526101608201909252919550816020015b611a6f614ae7565b815260200190600190039081611a67579050509250600091508790505b8351811015611cd657600a821015611cc957600660008583815181101515611ab057fe5b90602001906020020151815260200190815260200160002060e06040519081016040529081600082015481526020016001820154815260200160028201805480602002602001604051908101604052809291908181526020016000905b82821015611c6b5760008481526020908190206040805160028681029093018054600181161561010002600019011693909304601f810185900490940281016060908101835291810184815290938492849190840182828015611bb15780601f10611b8657610100808354040283529160200191611bb1565b820191906000526020600020905b815481529060010190602001808311611b9457829003601f168201915b50505050508152602001600182018054600181600116156101000203166002900480601f016020809104026020016040519081016040528092919081815260200182805460018160011615610100020316600290048015611c535780601f10611c2857610100808354040283529160200191611c53565b820191906000526020600020905b815481529060010190602001808311611c3657829003601f168201915b50505050508152505081526020019060010190611b0d565b50505090825250600382015460ff9081161515602083015260048301546040830152600583015416151560608201526006909101546080909101528351849084908110611cb457fe5b60209081029091010152600190910190611cce565b611cd6565b600101611a8c565b8298505b5050505050505050919050565b6000611cf233610f61565b1515611cfd57600080fd5b50805b60095460001901811015611d6a576009805460018301908110611d1f57fe5b90600052602060002001600982815481101515611d3857fe5b906000526020600020019080546001816001161561010002031660029004611d61929190614b29565b50600101611d00565b600980546000198101908110611d7c57fe5b906000526020600020016000611d929190614b9e565b6009805490610661906000198301614be2565b611dad614a42565b611db5614a42565b336000908152600360209081526040918290208251610100808201855282548252600180840180548751600293821615909402600019011691909104601f8101869004860283018601909652858252919492938581019391929190830182828015610dca5780601f10610d9f57610100808354040283529160200191610dca565b6060600080600060606000611e4c600a8861275b565b600254909550611e5d90600a612794565b6002549094501580611e7457506002546000190185115b80611e7e57508387115b15611e8857612347565b60408051600a80825261016082019092526000945090816020015b611eab614a93565b815260200190600190039081611ea35790505091508490505b6002548110156123435760016000600283815481101515611ee157fe5b9060005260206000200154815260200190815260200160002061014060405190810160405290816000820154815260200160018201548152602001600282018054600181600116156101000203166002900480601f016020809104026020016040519081016040528092919081815260200182805460018160011615610100020316600290048015611fb45780601f10611f8957610100808354040283529160200191611fb4565b820191906000526020600020905b815481529060010190602001808311611f9757829003601f168201915b505050918352505060038201805460408051602060026001851615610100026000190190941693909304601f81018490048402820184019092528181529382019392918301828280156120485780601f1061201d57610100808354040283529160200191612048565b820191906000526020600020905b81548152906001019060200180831161202b57829003601f168201915b505050918352505060048201805460408051602060026001851615610100026000190190941693909304601f81018490048402820184019092528181529382019392918301828280156120dc5780601f106120b1576101008083540402835291602001916120dc565b820191906000526020600020905b8154815290600101906020018083116120bf57829003601f168201915b505050918352505060058201805460408051602060026001851615610100026000190190941693909304601f81018490048402820184019092528181529382019392918301828280156121705780601f1061214557610100808354040283529160200191612170565b820191906000526020600020905b81548152906001019060200180831161215357829003601f168201915b505050918352505060068201805460408051602060026001851615610100026000190190941693909304601f81018490048402820184019092528181529382019392918301828280156122045780601f106121d957610100808354040283529160200191612204565b820191906000526020600020905b8154815290600101906020018083116121e757829003601f168201915b505050505081526020016007820180548060200260200160405190810160405280929190818152602001828054801561225c57602002820191906000526020600020905b815481526020019060010190808311612248575b50505050508152602001600882018054806020026020016040519081016040528092919081815260200182805480156122b457602002820191906000526020600020905b8154815260200190600101908083116122a0575b505050505081526020016009820180548060200260200160405190810160405280929190818152602001828054801561231657602002820191906000526020600020905b8154600160a060020a031681526001909101906020018083116122f8575b505050505081525050828481518110151561232d57fe5b6020908102909101015260019283019201611ec4565b8195505b5050505050919050565b61235a33613cc0565b565b61236533610f61565b151561237057600080fd5b6105e981613d08565b60008061238533610f61565b151561239057600080fd5b600088116123b35760405160e560020a62461bcd02815260040161049590615d5d565b6123bc88612dfa565b600081815260016020526040902054909150156123ee5760405160e560020a62461bcd02815260040161049590615ced565b6123fd818989898989896127b7565b979650505050505050565b600160a060020a038181166000908152600360205260408120600601549091829182916101009091041681106124535760405160e560020a62461bcd02815260040161049590615c8d565b6002600160a060020a03851660009081526003602052604090206006015460ff16600281111561247f57fe5b1461249f5760405160e560020a62461bcd02815260040161049590615d2d565b600160a060020a03841660009081526003602052604090206004810154815460069092015490945090925060ff1660028111156124d857fe5b90506119db82898989878a878b6001612fea565b6124f533610f61565b151561250057600080fd5b600160a060020a0381166000908152600360208190526040909120015461252790826125c0565b604080518082018252600b81527f53757065722061646d696e0000000000000000000000000000000000000000006020808301918252600160a060020a0385166000908152600390915292909220905161258792600590920191906149c8565b50600160a060020a0381166000908152600360208190526040822090810191909155600601805460ff191660021790556105e98161235c565b6000805b600084815260016020526040902060090154600019018110156126c05760008481526001602052604090206009018054600160a060020a03851691908390811061260a57fe5b600091825260209091200154600160a060020a0316141561262a57600191505b81156126b857600084815260016020819052604090912060090180549091830190811061265357fe5b6000918252602080832090910154868352600190915260409091206009018054600160a060020a03909216918390811061268957fe5b9060005260206000200160006101000a815481600160a060020a030219169083600160a060020a031602179055505b6001016125c4565b6000848152600160205260409020600901805460001981019081106126e157fe5b60009182526020808320909101805473ffffffffffffffffffffffffffffffffffffffff191690558582526001905260409020600901805490612728906000198301614c06565b5050505050565b336000908152600360208190526040909120015490565b60009081526001602052604090206008015490565b60008083151561276e576000915061278d565b5082820282848281151561277e57fe5b041461278957600080fd5b8091505b5092915050565b6000808083116127a357600080fd5b82848115156127ae57fe5b04949350505050565b6127bf614a93565b855115156127e25760405160e560020a62461bcd02815260040161049590615d3d565b825115156128055760405160e560020a62461bcd02815260040161049590615d1d565b815115156128285760405160e560020a62461bcd02815260040161049590615d0d565b6000888152600160208181526040928390208351610140810185528154815281840154818401526002808301805487519681161561010002600019011691909104601f8101859004850286018501875280865291959294928601939091908301828280156128d75780601f106128ac576101008083540402835291602001916128d7565b820191906000526020600020905b8154815290600101906020018083116128ba57829003601f168201915b505050918352505060038201805460408051602060026001851615610100026000190190941693909304601f810184900484028201840190925281815293820193929183018282801561296b5780601f106129405761010080835404028352916020019161296b565b820191906000526020600020905b81548152906001019060200180831161294e57829003601f168201915b505050918352505060048201805460408051602060026001851615610100026000190190941693909304601f81018490048402820184019092528181529382019392918301828280156129ff5780601f106129d4576101008083540402835291602001916129ff565b820191906000526020600020905b8154815290600101906020018083116129e257829003601f168201915b505050918352505060058201805460408051602060026001851615610100026000190190941693909304601f8101849004840282018401909252818152938201939291830182828015612a935780601f10612a6857610100808354040283529160200191612a93565b820191906000526020600020905b815481529060010190602001808311612a7657829003601f168201915b505050918352505060068201805460408051602060026001851615610100026000190190941693909304601f8101849004840282018401909252818152938201939291830182828015612b275780601f10612afc57610100808354040283529160200191612b27565b820191906000526020600020905b815481529060010190602001808311612b0a57829003601f168201915b5050505050815260200160078201805480602002602001604051908101604052809291908181526020018280548015612b7f57602002820191906000526020600020905b815481526020019060010190808311612b6b575b5050505050815260200160088201805480602002602001604051908101604052809291908181526020018280548015612bd757602002820191906000526020600020905b815481526020019060010190808311612bc3575b5050505050815260200160098201805480602002602001604051908101604052809291908181526020018280548015612c3957602002820191906000526020600020905b8154600160a060020a03168152600190910190602001808311612c1b575b50505091909252505050888152602080820189815260408084018a8152606085018a90526080850189905260a0850188905260c0850187905260008d815260018086529290208551815592519183019190915551805193945084939192612ca8926002850192909101906149c8565b5060608201518051612cc49160038401916020909101906149c8565b5060808201518051612ce09160048401916020909101906149c8565b5060a08201518051612cfc9160058401916020909101906149c8565b5060c08201518051612d189160068401916020909101906149c8565b5060e08201518051612d34916007840191602090910190614c2a565b506101008201518051612d51916008840191602090910190614c2a565b506101208201518051612d6e916009840191602090910190614c64565b5050600280546001810182556000919091527f405787fa12a823e0f2b7631cc41b3ba8828b3321ca811111fa75cd3aa3bb5ace01989098555050505050505050565b6000600160a060020a0382161515612dc757600080fd5b50600160a060020a03166000908152602091909152604090205460ff1690565b6000908152600160205260408120541190565b6000808080600285061515612e8c5784604051602001808281526020019150506040516020818303038152906040526040518082805190602001908083835b60208310612e585780518252601f199092019160209182019101612e39565b6001836020036101000a03801982511681845116808217855250505050505090500191505060405180910390209250612f77565b84604051602001808281526020019150506040516020818303038152906040526040518082805190602001908083835b60208310612edb5780518252601f199092019160209182019101612ebc565b51815160209384036101000a600019018019909216911617905260408051929094018290038220828201528351808303820181529184019384905281519195509293508392850191508083835b60208310612f475780518252601f199092019160209182019101612f28565b6001836020036101000a038019825116818451168082178552505050505050905001915050604051809103902092505b6020811015612fa457828160208110612f8c57fe5b60f860020a91901a8102049190910190600101612f77565b826020600284010660208110612fb657fe5b60f860020a91901a810204836020840660208110612fd057fe5b1a60f860020a0260f860020a90040293505b505050919050565b612ff2614a42565b600084101580613003575060028411155b15156130245760405160e560020a62461bcd02815260040161049590615cbd565b845115156130475760405160e560020a62461bcd02815260040161049590615c5d565b600160a060020a0383166000908152600360209081526040918290208251610100808201855282548252600180840180548751600293821615909402600019011691909104601f81018690048602830186019096528582529194929385810193919291908301828280156130fc5780601f106130d1576101008083540402835291602001916130fc565b820191906000526020600020905b8154815290600101906020018083116130df57829003601f168201915b5050509183525050600282810180546040805160206001841615610100026000190190931694909404601f8101839004830285018301909152808452938101939083018282801561318e5780601f106131635761010080835404028352916020019161318e565b820191906000526020600020905b81548152906001019060200180831161317157829003601f168201915b505050505081526020016003820154815260200160048201548152602001600582018054600181600116156101000203166002900480601f0160208091040260200160405190810160405280929190818152602001828054600181600116156101000203166002900480156132445780601f1061321957610100808354040283529160200191613244565b820191906000526020600020905b81548152906001019060200180831161322757829003601f168201915b5050509183525050600682015460209091019060ff16600281111561326557fe5b600281111561327057fe5b8152600691909101546101009004600160a060020a03166020918201528b825281018a905260408101899052606081018890526080810187905260a0810186905290508360028111156132bf57fe5b8160c0019060028111156132cf57fe5b908160028111156132dc57fe5b905250600160a060020a03831660e08201819052600090815260036020908152604090912082518155818301518051849361331e9260018501929101906149c8565b506040820151805161333a9160028401916020909101906149c8565b50606082015160038201556080820151600482015560a0820151805161336a9160058401916020909101906149c8565b5060c082015160068201805460ff1916600183600281111561338857fe5b021790555060e0919091015160069091018054600160a060020a039092166101000274ffffffffffffffffffffffffffffffffffffffff001990921691909117905581151561343257600480546001810182556000919091527f8a35acfbc15ff81a39ae7d344fd709f28e8600b4aa8c65c6b64bfe7fe36bd19b01805473ffffffffffffffffffffffffffffffffffffffff1916600160a060020a03851617905561343287613d50565b50505050505050505050565b613446614cd2565b60606000606061345589613d8f565b935061346084613ddd565b60008c8152600660205260408120600181018e90558c815560038101805460ff19168c15151790559194506134989160020190614ce9565b600091505b825182101561357d576134c683838151811015156134b757fe5b90602001906020020151613ddd565b9050600660008c8152602001908152602001600020600201604080519081016040528061350a8460008151811015156134fb57fe5b90602001906020020151613eb0565b81526020016135218460018151811015156134fb57fe5b90528154600181018084556000938452602093849020835180519295600290940290910192613555928492909101906149c8565b50602082810151805161356e92600185019201906149c8565b5050505081600101915061349d565b505050600097885250600660208190526040909720600481019390935595820195909555600501805460ff191694151594909417909355505050565b6000918252600160208181526040842060080180549283018155845290922090910155565b6135e6614cd2565b60606000806000806000806135fa8a613d8f565b975061360588613ddd565b965061363161362c61361f8960058151811015156134b757fe5b805160019081106134fb57fe5b613f22565b955061364b61362c61361f8960028151811015156134b757fe5b945061366561362c61361f8960038151811015156134b757fe5b60008d8152600760209081526040808320805461ffff191661ffff8c16179055600690915290206005015490945060ff169250600191508190505b6008548111613c0f5760008181526006602052604090206003015460ff1615158b15151480156136d05750808c14155b15613c07576005805460ff191690556000818152600660205260408120600201805490919081106136fd57fe5b906000526020600020906002020160010160405180828054600181600116156101000203166002900480156137695780601f10613747576101008083540402835291820191613769565b820191906000526020600020905b815481529060010190602001808311613755575b505091505060405180910390206000191661378f61361f8960008151811015156134b757fe5b6040518082805190602001908083835b602083106137be5780518252601f19909201916020918201910161379f565b6001836020036101000a0380198251168184511680821785525050505050509050019150506040518091039020600019161480156138dc57506000818152600660205260409020600290810180546138c89290811061381957fe5b90600052602060002090600202016001018054600181600116156101000203166002900480601f0160208091040260200160405190810160405280929190818152602001828054600181600116156101000203166002900480156138be5780601f10613893576101008083540402835291602001916138be565b820191906000526020600020905b8154815290600101906020018083116138a157829003601f168201915b5050505050613f22565b65ffffffffffff168465ffffffffffff1610155b801561391a5750600081815260066020526040902060020180546139069190600390811061381957fe5b65ffffffffffff168565ffffffffffff1611155b15613c0757613a0461393761361f8960048151811015156134b757fe5b60008381526006602052604090206002018054600490811061395557fe5b90600052602060002090600202016001018054600181600116156101000203166002900480601f0160208091040260200160405190810160405280929190818152602001828054600181600116156101000203166002900480156139fa5780601f106139cf576101008083540402835291602001916139fa565b820191906000526020600020905b8154815290600101906020018083116139dd57829003601f168201915b5050505050613f80565b60055460ff1615613c0757613a45613a2761361f8960018151811015156134b757fe5b60008381526006602052604090206002018054600190811061395557fe5b60055460ff1615613c07578815613b1c576000818152600760205260409020805461ffff19811661ffff918216890182161791829055606491161115613b1757821515613abc5760008c815260066020526040902060058101805460ff1916600117905560040154613ab7908d614230565b600192505b60008181526006602052604090206005015460ff161515613b175760008181526006602052604090206004810154600190910154613afa9190614230565b6000818152600660205260409020600501805460ff191660011790555b613bd5565b6000818152600760205260409020805461ffff19811661ffff918216899003821617918290556064911611613bd5578215613b7e5760008c815260066020526040902060058101805460ff1916905560040154613b79908d614255565b600092505b60008181526006602052604090206005015460ff1615613bd55760008181526006602052604090206004810154600190910154613bbb9190614255565b6000818152600660205260409020600501805460ff191690555b8115613c0757600081815260076020526040808220548e8352908220805461ffff191661ffff90921691909117905591505b6001016136a0565b505050505050505050505050565b613c278282614368565b5050565b60008181526001602052604081205460609110613c5d5760405160e560020a62461bcd02815260040161049590615ccd565b60008281526001602090815260409182902060080180548351818402810184019094528084529091830182828015613cb457602002820191906000526020600020905b815481526020019060010190808311613ca0575b50505050509050919050565b613cd160008263ffffffff61443d16565b604051600160a060020a038216907f3525e22824a8a7df2c9a6029941c824cf95b6447f1e13d5128fd3826d35afe8b90600090a250565b613d1960008263ffffffff61448916565b604051600160a060020a038216907f47d1c22a25bb3a5d4e481b9b1e6944c2eade3181a0a20b495ed61d35b5323f2490600090a250565b6000908152600160208181526040832060090180549283018155835290912001805473ffffffffffffffffffffffffffffffffffffffff191633179055565b613d97614cd2565b6000825160001415613dbe5760408051808201909152600080825260208201529150611264565b5050604080518082019091528151815260209182019181019190915290565b6060600080600080613dee866144d7565b1515613df957600080fd5b613e0286614506565b935083604051908082528060200260200182016040528015613e3e57816020015b613e2b614cd2565b815260200190600190039081613e235790505b509450613e4e8660200151614556565b8660200151019250600090505b83811015613ea757613e6c836145b9565b91506040805190810160405280838152602001848152508582815181101515613e9157fe5b6020908102909101015291810191600101613e5b565b50505050919050565b606060008060606000613ec68660200151614556565b9350838660000151039250826040519080825280601f01601f191660200182016040528015613eff578160200160208202803883390190505b509150816020019050613f1984876020015101828561464a565b50949350505050565b60008181805b8251821015612fe2578282815181101515613f3f57fe5b016020015160f860020a90819004810204905060308110801590613f64575060398111155b15613f75576030810384600a020193505b600190910190613f28565b613f88614cd2565b613f90614cd2565b613f98614cd2565b606080600080613fa789614691565b9650613fb288614691565b9550613ff26040805190810160405280600181526020017f2c00000000000000000000000000000000000000000000000000000000000000815250614691565b9450614004878663ffffffff6146b716565b60010160405190808252806020026020018201604052801561403a57816020015b60608152602001906001900390816140255790505b50935061404d868663ffffffff6146b716565b60010160405190808252806020026020018201604052801561408357816020015b606081526020019060019003908161406e5790505b509250825184511015614123576140a0878663ffffffff6146b716565b6001016040519080825280602002602001820160405280156140d657816020015b60608152602001906001900390816140c15790505b5092506140e9868663ffffffff6146b716565b60010160405190808252806020026020018201604052801561411f57816020015b606081526020019060019003908161410a5790505b5093505b600091505b835182101561422557614149614144888763ffffffff61471d16565b614730565b848381518110151561415757fe5b602090810290910101525060005b81811161420a5782518210156141d957614188614144878763ffffffff61471d16565b838381518110151561419657fe5b6020908102909101015283516141d9908590839081106141b257fe5b9060200190602002015184848151811015156141ca57fe5b90602001906020020151614783565b61420283828151811015156141ea57fe5b9060200190602002015185848151811015156141ca57fe5b600101614165565b60055460ff161561421a57614225565b600190910190614128565b505050505050505050565b6000918252600160208181526040842060070180549283018155845290922090910155565b6000805b6000848152600160205260409020600701546000190181101561431857600084815260016020526040902060070180548491908390811061429657fe5b906000526020600020015414156142ac57600191505b81156143105760008481526001602081905260409091206007018054909183019081106142d557fe5b9060005260206000200154600160008681526020019081526020016000206007018281548110151561430357fe5b6000918252602090912001555b600101614259565b60008481526001602052604090206007018054600019810190811061433957fe5b600091825260208083209091018290558582526001905260409020600701805490612728906000198301614c06565b60008281526001602052604081206008015490811115610661576000838152600160205260409020600801805460001983019081106143a357fe5b906000526020600020015460016000858152602001908152602001600020600801838154811015156143d157fe5b906000526020600020018190555081600160008581526020019081526020016000206008016001830381548110151561440657fe5b6000918252602080832090910192909255848152600190915260409020600801805490614437906000198301614c06565b50505050565b600160a060020a038116151561445257600080fd5b61445c8282612db0565b151561446757600080fd5b600160a060020a0316600090815260209190915260409020805460ff19169055565b600160a060020a038116151561449e57600080fd5b6144a88282612db0565b156144b257600080fd5b600160a060020a0316600090815260209190915260409020805460ff19166001179055565b6020810151805160009190821a9060c060ff831610156144fa57600092506144ff565b600192505b5050919050565b6000806000806000925061451d8560200151614556565b6020860151865191810193500190505b8082101561454d5761453e826145b9565b6001909301929091019061452d565b50909392505050565b8051600090811a608081101561456f5760009150611264565b60b881108061458a575060c0811080159061458a575060f881105b156145985760019150611264565b60c08110156145ad5760b51981019150611264565b60f51981019150611264565b8051600090811a60808110156145d25760019150611264565b60b88110156145e757607e1981019150611264565b60c08110156146145760b78103600184019350806020036101000a84510460018201810193505050611264565b60f88110156146295760be1981019150611264565b60019290920151602083900360f7016101000a900490910160f51901919050565b60005b6020821061466f578351835260209384019390920191601f199091019061464d565b50915181516020939093036101000a6000190180199091169216919091179052565b614699614cd2565b50604080518082019091528151815260209182019181019190915290565b60008082600001516146db8560000151866020015186600001518760200151614854565b0190505b8351602085015101811161278d578251602080860151865191860151600190950194614715929185039091039084908490614854565b0190506146df565b614725614cd2565b61278d838383614914565b606080600083600001516040519080825280601f01601f191660200182016040528015614767578160200160208202803883390190505b50915060208201905061278d8185602001518660000151614984565b806040518082805190602001908083835b602083106147b35780518252601f199092019160209182019101614794565b51815160209384036101000a6000190180199092169116179052604051919093018190038120875190955087945090928392508401908083835b6020831061480c5780518252601f1990920191602091820191016147ed565b6001836020036101000a0380198251168184511680821785525050505050509050019150506040518091039020600019161415613c27576005805460ff191660011790555050565b600083818080808080808c8b116148fe5760208b116148c75760018b60200360080260020a03196001029550858a511694508a8d8d010393508588511692505b8285146148bf578388106148ac578c8c019850614904565b8780600101985050858851169250614894565b879850614904565b8a8a209150600096505b8a8d0387116148fe5750898720818114156148ee57879850614904565b60019788019796909601956148d1565b8c8c0198505b5050505050505050949350505050565b61491c614cd2565b600061493a8560000151866020015186600001518760200151614854565b60208087018051918601919091528051820385528651905191925001811415614966576000855261454d565b83518351865191019003855283518101602086015250909392505050565b60005b602082106149a9578251845260209384019390920191601f1990910190614987565b50905182516020929092036101000a6000190180199091169116179052565b828054600181600116156101000203166002900490600052602060002090601f016020900481019282601f10614a0957805160ff1916838001178555614a36565b82800160010185558215614a36579182015b82811115614a36578251825591602001919060010190614a1b565b50610605929150614d0a565b6101006040519081016040528060008152602001606081526020016060815260200160008152602001600081526020016060815260200160006002811115614a8657fe5b8152600060209091015290565b61014060405190810160405280600081526020016000815260200160608152602001606081526020016060815260200160608152602001606081526020016060815260200160608152602001606081525090565b60e06040519081016040528060008152602001600081526020016060815260200160001515815260200160008152602001600015158152602001600081525090565b828054600181600116156101000203166002900490600052602060002090601f016020900481019282601f10614b625780548555614a36565b82800160010185558215614a3657600052602060002091601f016020900482015b82811115614a36578254825591600101919060010190614b83565b50805460018160011615610100020316600290046000825580601f10614bc457506105e9565b601f0160209004906000526020600020908101906105e99190614d0a565b81548183558181111561066157600083815260209020610661918101908301614d24565b81548183558181111561066157600083815260209020610661918101908301614d0a565b828054828255906000526020600020908101928215614a365791602002820182811115614a36578251825591602001919060010190614a1b565b828054828255906000526020600020908101928215614cc6579160200282015b82811115614cc6578251825473ffffffffffffffffffffffffffffffffffffffff1916600160a060020a03909116178255602090920191600190910190614c84565b50610605929150614d47565b604080518082019091526000808252602082015290565b50805460008255600202906000526020600020908101906105e99190614d78565b610c7b91905b808211156106055760008155600101614d10565b610c7b91905b80821115610605576000614d3e8282614b9e565b50600101614d2a565b610c7b91905b8082111561060557805473ffffffffffffffffffffffffffffffffffffffff19168155600101614d4d565b610c7b91905b80821115610605576000614d928282614b9e565b614da0600183016000614b9e565b50600201614d7e565b6000614db58235615de5565b9392505050565b6000614db58235615df1565b6000601f82018313614dd957600080fd5b8135614dec614de782615db3565b615d8c565b91508082526020830160208301858383011115614e0857600080fd5b614e13838284615e0d565b50505092915050565b6000614db58235610c7b565b600060208284031215614e3a57600080fd5b6000614e468484614da9565b949350505050565b600060208284031215614e6057600080fd5b813567ffffffffffffffff811115614e7757600080fd5b614e4684828501614dc8565b600080600080600060a08688031215614e9b57600080fd5b853567ffffffffffffffff811115614eb257600080fd5b614ebe88828901614dc8565b955050602086013567ffffffffffffffff811115614edb57600080fd5b614ee788828901614dc8565b9450506040614ef888828901614e1c565b935050606086013567ffffffffffffffff811115614f1557600080fd5b614f2188828901614dc8565b9250506080614f3288828901614da9565b9150509295509295909350565b600060208284031215614f5157600080fd5b6000614e468484614e1c565b600080600080600080600080610100898b031215614f7a57600080fd5b6000614f868b8b614e1c565b985050602089013567ffffffffffffffff811115614fa357600080fd5b614faf8b828c01614dc8565b9750506040614fc08b828c01614dbc565b9650506060614fd18b828c01614e1c565b9550506080614fe28b828c01614dbc565b94505060a0614ff38b828c01614e1c565b93505060c089013567ffffffffffffffff81111561501057600080fd5b61501c8b828c01614dc8565b92505060e061502d8b828c01614e1c565b9150509295985092959890939650565b60008060008060008060c0878903121561505657600080fd5b60006150628989614e1c565b965050602087013567ffffffffffffffff81111561507f57600080fd5b61508b89828a01614dc8565b955050604087013567ffffffffffffffff8111156150a857600080fd5b6150b489828a01614dc8565b945050606087013567ffffffffffffffff8111156150d157600080fd5b6150dd89828a01614dc8565b935050608087013567ffffffffffffffff8111156150fa57600080fd5b61510689828a01614dc8565b92505060a087013567ffffffffffffffff81111561512357600080fd5b61512f89828a01614dc8565b9150509295509295509295565b600080600080600060a0868803121561515457600080fd5b60006151608888614e1c565b955050602086013567ffffffffffffffff81111561517d57600080fd5b61518988828901614dc8565b945050604086013567ffffffffffffffff8111156151a657600080fd5b6151b288828901614dc8565b935050606086013567ffffffffffffffff8111156151cf57600080fd5b6151db88828901614dc8565b9250506080614f3288828901614e1c565b600080600080600080600060e0888a03121561520757600080fd5b60006152138a8a614e1c565b97505060206152248a828b01614e1c565b965050604088013567ffffffffffffffff81111561524157600080fd5b61524d8a828b01614dc8565b955050606088013567ffffffffffffffff81111561526a57600080fd5b6152768a828b01614dc8565b945050608088013567ffffffffffffffff81111561529357600080fd5b61529f8a828b01614dc8565b93505060a088013567ffffffffffffffff8111156152bc57600080fd5b6152c88a828b01614dc8565b92505060c088013567ffffffffffffffff8111156152e557600080fd5b6152f18a828b01614dc8565b91505092959891949750929550565b61530981615de5565b82525050565b600061531a82615de1565b80845260208401935061532c83615ddb565b60005b8281101561535c57615342868351615300565b61534b82615ddb565b60209690960195915060010161532f565b5093949350505050565b600061537182615de1565b8084526020840193508360208202850161538a85615ddb565b60005b848110156153c15783830388526153a5838351615598565b92506153b082615ddb565b60209890980197915060010161538d565b50909695505050505050565b60006153d882615de1565b808452602084019350836020820285016153f185615ddb565b60005b848110156153c157838303885261540c838351615979565b925061541782615ddb565b6020989098019791506001016153f4565b600061543382615de1565b8084526020840193508360208202850161544c85615ddb565b60005b848110156153c1578383038852615467838351615a0e565b925061547282615ddb565b60209890980197915060010161544f565b600061548e82615de1565b808452602084019350836020820285016154a785615ddb565b60005b848110156153c15783830388526154c2838351615b11565b92506154cd82615ddb565b6020989098019791506001016154aa565b60006154e982615de1565b8084526020840193508360208202850161550285615ddb565b60005b848110156153c157838303885261551d838351615b43565b925061552882615ddb565b602098909801979150600101615505565b600061554482615de1565b80845260208401935061555683615ddb565b60005b8281101561535c5761556c868351615bf2565b61557582615ddb565b602096909601959150600101615559565b61530981615df1565b61530981615e02565b60006155a382615de1565b8084526155b7816020860160208601615e19565b6155c081615e45565b9093016020019392505050565b601a81527f4372656174696f6e204461746520697320696e6d757461626c65000000000000602082015260400190565b601181527f726f6c65206973206d616e6461746f7279000000000000000000000000000000602082015260400190565b602281527f4f6e6c792070656e64696e672075736572732063616e2062652061636365707460208201527f6564000000000000000000000000000000000000000000000000000000000000604082015260600190565b601381527f5573657220616c72656164792065786973747300000000000000000000000000602082015260400190565b601481527f546869732075736572206e6f7420657869737473000000000000000000000000602082015260400190565b601b81527f596f752063616e6e6f7420616363657074207468697320757365720000000000602082015260400190565b602281527f4f6e6c792070656e64696e672075736572732063616e2062652072656a65637460208201527f6564000000000000000000000000000000000000000000000000000000000000604082015260600190565b601381527f737461747573206973206e6f742076616c696400000000000000000000000000602082015260400190565b601181527f6d656d626572206e6f7420657869737473000000000000000000000000000000602082015260400190565b601481527f4d656d62657220646f206e6f7420657869737473000000000000000000000000602082015260400190565b601581527f4d656d62657220616c7265616479206578697374730000000000000000000000602082015260400190565b601181527f4d656d626572206e6f7420657869737473000000000000000000000000000000602082015260400190565b601281527f5468656d65206973206d616e6461746f72790000000000000000000000000000602082015260400190565b601081527f434d4f206973206d616e6461746f727900000000000000000000000000000000602082015260400190565b601481527f596f7520617265206e6f74206163636570746564000000000000000000000000602082015260400190565b601181527f4e616d65206973206d616e6461746f7279000000000000000000000000000000602082015260400190565b601181527f4e6f2076616c6964206d656d6265724964000000000000000000000000000000602082015260400190565b601981527f4372656174696f6e44617465206973206d616e6461746f727900000000000000602082015260400190565b805160009060e084019061598d8582615bf2565b5060208301516159a06020860182615bf2565b50604083015184820360408601526159b88282615483565b91505060608301516159cd6060860182615586565b5060808301516159e06080860182615bf2565b5060a08301516159f360a0860182615586565b5060c0830151615a0660c0860182615bf2565b509392505050565b8051600090610140840190615a238582615bf2565b506020830151615a366020860182615bf2565b5060408301518482036040860152615a4e8282615598565b91505060608301518482036060860152615a688282615598565b91505060808301518482036080860152615a828282615598565b91505060a083015184820360a0860152615a9c8282615598565b91505060c083015184820360c0860152615ab68282615598565b91505060e083015184820360e0860152615ad08282615539565b915050610100830151848203610100860152615aec8282615539565b915050610120830151848203610120860152615b08828261530f565b95945050505050565b8051604080845260009190840190615b298282615598565b91505060208301518482036020860152615b088282615598565b8051600090610100840190615b588582615bf2565b5060208301518482036020860152615b708282615598565b91505060408301518482036040860152615b8a8282615598565b9150506060830151615b9f6060860182615bf2565b506080830151615bb26080860182615bf2565b5060a083015184820360a0860152615bca8282615598565b91505060c0830151615bdf60c086018261558f565b5060e0830151615a0660e0860182615300565b61530981610c7b565b60208082528101614db58184615366565b60208082528101614db581846153cd565b60208082528101614db58184615428565b60208082528101614db581846154de565b60208101610f738284615586565b60208082528101610f73816155cd565b60208082528101610f73816155fd565b60208082528101610f738161562d565b60208082528101610f7381615683565b60208082528101610f73816156b3565b60208082528101610f73816156e3565b60208082528101610f7381615713565b60208082528101610f7381615769565b60208082528101610f7381615799565b60208082528101610f73816157c9565b60208082528101610f73816157f9565b60208082528101610f7381615829565b60208082528101610f7381615859565b60208082528101610f7381615889565b60208082528101610f73816158b9565b60208082528101610f73816158e9565b60208082528101610f7381615919565b60208082528101610f7381615949565b60208082528101614db58184615b43565b60208101610f738284615bf2565b60405181810167ffffffffffffffff81118282101715615dab57600080fd5b604052919050565b600067ffffffffffffffff821115615dca57600080fd5b506020601f91909101601f19160190565b60200190565b5190565b600160a060020a031690565b151590565b60006003821061060557fe5b6000610f7382615df6565b82818337506000910152565b60005b83811015615e34578181015183820152602001615e1c565b838111156144375750506000910152565b601f01601f1916905600a265627a7a723058207dc6767cf348be6f6bab4a65da1836e41db7aefd137ff6c803a519365bf261f66c6578706572696d656e74616cf50037",
  "source": "pragma solidity ^0.4.24;\npragma experimental ABIEncoderV2;\n\nimport \"./Claims.sol\";\n\ncontract Registry is Claims {\n  \n  string[] private cmos_;\n\n  function addCMO(string memory _cmo) onlySigner public {\n    cmos_.push(_cmo);\n  }\n\n  function deleteCMO(uint _index) onlySigner public {\n    for (uint i = _index; i < cmos_.length-1;i++){\n      cmos_[i] = cmos_[i+1];\n    }\n    delete cmos_[cmos_.length-1];\n    cmos_.length--;\n  }\n\n  function getCMOs() view public returns( string[] memory ) {\n    return cmos_;\n  }\n\n}",
  "sourcePath": "/home/komodo/newUI/bloomen-decentralized-rights-management-v2/truffle/contracts/registry/Registry.sol",
  "compiler": {
    "name": "solc",
    "version": "0.4.24+commit.e67f0147.Emscripten.clang"
  },
  "schemaVersion": "2.0.1",
  "updatedAt": "2019-12-07T12:58:01.962Z"
}