{
  "contractName": "Registry",
  "abi": [
    {
      "constant": false,
      "inputs": [
        {
          "name": "_userToAccept",
          "type": "address"
        }
      ],
      "name": "acceptUser",
      "outputs": [],
      "payable": false,
      "stateMutability": "nonpayable",
      "type": "function"
    },
    {
      "constant": true,
      "inputs": [],
      "name": "getClaimsCountByMemberId",
      "outputs": [
        {
          "name": "",
          "type": "uint256"
        }
      ],
      "payable": false,
      "stateMutability": "view",
      "type": "function"
    },
    {
      "constant": false,
      "inputs": [
        {
          "name": "_userToReject",
          "type": "address"
        }
      ],
      "name": "rejectUser",
      "outputs": [],
      "payable": false,
      "stateMutability": "nonpayable",
      "type": "function"
    },
    {
      "constant": true,
      "inputs": [
        {
          "name": "_claimId",
          "type": "uint256"
        }
      ],
      "name": "getClaim",
      "outputs": [
        {
          "components": [
            {
              "name": "creationDate",
              "type": "uint256"
            },
            {
              "name": "claimId",
              "type": "uint256"
            },
            {
              "components": [
                {
                  "name": "name",
                  "type": "string"
                },
                {
                  "name": "value",
                  "type": "string"
                }
              ],
              "name": "claimData",
              "type": "tuple[]"
            },
            {
              "name": "claimType",
              "type": "bool"
            },
            {
              "name": "memberOwner",
              "type": "uint256"
            },
            {
              "name": "status",
              "type": "bool"
            },
            {
              "name": "lastChange",
              "type": "uint256"
            }
          ],
          "name": "",
          "type": "tuple"
        }
      ],
      "payable": false,
      "stateMutability": "view",
      "type": "function"
    },
    {
      "constant": true,
      "inputs": [
        {
          "name": "_page",
          "type": "uint256"
        }
      ],
      "name": "getUsers",
      "outputs": [
        {
          "components": [
            {
              "name": "creationDate",
              "type": "uint256"
            },
            {
              "name": "firstName",
              "type": "string"
            },
            {
              "name": "lastName",
              "type": "string"
            },
            {
              "name": "memberId",
              "type": "uint256"
            },
            {
              "name": "requestId",
              "type": "uint256"
            },
            {
              "name": "role",
              "type": "string"
            },
            {
              "name": "status",
              "type": "uint8"
            },
            {
              "name": "owner",
              "type": "address"
            }
          ],
          "name": "",
          "type": "tuple[]"
        }
      ],
      "payable": false,
      "stateMutability": "view",
      "type": "function"
    },
    {
      "constant": false,
      "inputs": [
        {
          "name": "_memberId",
          "type": "uint256"
        },
        {
          "name": "_creationDate",
          "type": "uint256"
        },
        {
          "name": "_name",
          "type": "string"
        },
        {
          "name": "_logo",
          "type": "string"
        },
        {
          "name": "_country",
          "type": "string"
        },
        {
          "name": "_cmo",
          "type": "string"
        },
        {
          "name": "_theme",
          "type": "string"
        }
      ],
      "name": "updateMember",
      "outputs": [],
      "payable": false,
      "stateMutability": "nonpayable",
      "type": "function"
    },
    {
      "constant": true,
      "inputs": [
        {
          "name": "userAddress",
          "type": "address"
        }
      ],
      "name": "getUserByAddress",
      "outputs": [
        {
          "components": [
            {
              "name": "creationDate",
              "type": "uint256"
            },
            {
              "name": "firstName",
              "type": "string"
            },
            {
              "name": "lastName",
              "type": "string"
            },
            {
              "name": "memberId",
              "type": "uint256"
            },
            {
              "name": "requestId",
              "type": "uint256"
            },
            {
              "name": "role",
              "type": "string"
            },
            {
              "name": "status",
              "type": "uint8"
            },
            {
              "name": "owner",
              "type": "address"
            }
          ],
          "name": "",
          "type": "tuple"
        }
      ],
      "payable": false,
      "stateMutability": "view",
      "type": "function"
    },
    {
      "constant": true,
      "inputs": [
        {
          "name": "account",
          "type": "address"
        }
      ],
      "name": "isSigner",
      "outputs": [
        {
          "name": "",
          "type": "bool"
        }
      ],
      "payable": false,
      "stateMutability": "view",
      "type": "function"
    },
    {
      "constant": true,
      "inputs": [],
      "name": "getUsersOwner",
      "outputs": [
        {
          "components": [
            {
              "name": "creationDate",
              "type": "uint256"
            },
            {
              "name": "firstName",
              "type": "string"
            },
            {
              "name": "lastName",
              "type": "string"
            },
            {
              "name": "memberId",
              "type": "uint256"
            },
            {
              "name": "requestId",
              "type": "uint256"
            },
            {
              "name": "role",
              "type": "string"
            },
            {
              "name": "status",
              "type": "uint8"
            },
            {
              "name": "owner",
              "type": "address"
            }
          ],
          "name": "",
          "type": "tuple[]"
        }
      ],
      "payable": false,
      "stateMutability": "view",
      "type": "function"
    },
    {
      "constant": true,
      "inputs": [],
      "name": "getMembers",
      "outputs": [
        {
          "components": [
            {
              "name": "memberId",
              "type": "uint256"
            },
            {
              "name": "creationDate",
              "type": "uint256"
            },
            {
              "name": "name",
              "type": "string"
            },
            {
              "name": "logo",
              "type": "string"
            },
            {
              "name": "country",
              "type": "string"
            },
            {
              "name": "cmo",
              "type": "string"
            },
            {
              "name": "theme",
              "type": "string"
            },
            {
              "name": "claimInbox",
              "type": "uint256[]"
            },
            {
              "name": "claims",
              "type": "uint256[]"
            },
            {
              "name": "userRequests",
              "type": "address[]"
            }
          ],
          "name": "",
          "type": "tuple[]"
        }
      ],
      "payable": false,
      "stateMutability": "view",
      "type": "function"
    },
    {
      "constant": true,
      "inputs": [],
      "name": "getcountUsers",
      "outputs": [
        {
          "name": "",
          "type": "uint256"
        }
      ],
      "payable": false,
      "stateMutability": "view",
      "type": "function"
    },
    {
      "constant": false,
      "inputs": [
        {
          "name": "_creationDate",
          "type": "uint256"
        },
        {
          "name": "_firstName",
          "type": "string"
        },
        {
          "name": "_lastName",
          "type": "string"
        },
        {
          "name": "_role",
          "type": "string"
        },
        {
          "name": "_memberId",
          "type": "uint256"
        }
      ],
      "name": "registerUserRequest",
      "outputs": [],
      "payable": false,
      "stateMutability": "nonpayable",
      "type": "function"
    },
    {
      "constant": true,
      "inputs": [],
      "name": "getCount",
      "outputs": [
        {
          "name": "",
          "type": "uint256"
        }
      ],
      "payable": false,
      "stateMutability": "view",
      "type": "function"
    },
    {
      "constant": false,
      "inputs": [
        {
          "name": "_creationDate",
          "type": "uint256"
        },
        {
          "name": "_claimData",
          "type": "bytes"
        },
        {
          "name": "_claimType",
          "type": "bool"
        },
        {
          "name": "_memberOwner",
          "type": "uint256"
        },
        {
          "name": "reg_update",
          "type": "bool"
        },
        {
          "name": "_claimId",
          "type": "uint256"
        },
        {
          "name": "_oldClaimData",
          "type": "bytes"
        },
        {
          "name": "_lastChange",
          "type": "uint256"
        }
      ],
      "name": "computeClaim",
      "outputs": [],
      "payable": false,
      "stateMutability": "nonpayable",
      "type": "function"
    },
    {
      "constant": true,
      "inputs": [
        {
          "name": "_page",
          "type": "uint256"
        }
      ],
      "name": "getClaimsByMemberId",
      "outputs": [
        {
          "components": [
            {
              "name": "creationDate",
              "type": "uint256"
            },
            {
              "name": "claimId",
              "type": "uint256"
            },
            {
              "components": [
                {
                  "name": "name",
                  "type": "string"
                },
                {
                  "name": "value",
                  "type": "string"
                }
              ],
              "name": "claimData",
              "type": "tuple[]"
            },
            {
              "name": "claimType",
              "type": "bool"
            },
            {
              "name": "memberOwner",
              "type": "uint256"
            },
            {
              "name": "status",
              "type": "bool"
            },
            {
              "name": "lastChange",
              "type": "uint256"
            }
          ],
          "name": "",
          "type": "tuple[]"
        }
      ],
      "payable": false,
      "stateMutability": "view",
      "type": "function"
    },
    {
      "constant": true,
      "inputs": [],
      "name": "getMe",
      "outputs": [
        {
          "components": [
            {
              "name": "creationDate",
              "type": "uint256"
            },
            {
              "name": "firstName",
              "type": "string"
            },
            {
              "name": "lastName",
              "type": "string"
            },
            {
              "name": "memberId",
              "type": "uint256"
            },
            {
              "name": "requestId",
              "type": "uint256"
            },
            {
              "name": "role",
              "type": "string"
            },
            {
              "name": "status",
              "type": "uint8"
            },
            {
              "name": "owner",
              "type": "address"
            }
          ],
          "name": "",
          "type": "tuple"
        }
      ],
      "payable": false,
      "stateMutability": "view",
      "type": "function"
    },
    {
      "constant": true,
      "inputs": [
        {
          "name": "_page",
          "type": "uint256"
        }
      ],
      "name": "getMembers",
      "outputs": [
        {
          "components": [
            {
              "name": "memberId",
              "type": "uint256"
            },
            {
              "name": "creationDate",
              "type": "uint256"
            },
            {
              "name": "name",
              "type": "string"
            },
            {
              "name": "logo",
              "type": "string"
            },
            {
              "name": "country",
              "type": "string"
            },
            {
              "name": "cmo",
              "type": "string"
            },
            {
              "name": "theme",
              "type": "string"
            },
            {
              "name": "claimInbox",
              "type": "uint256[]"
            },
            {
              "name": "claims",
              "type": "uint256[]"
            },
            {
              "name": "userRequests",
              "type": "address[]"
            }
          ],
          "name": "",
          "type": "tuple[]"
        }
      ],
      "payable": false,
      "stateMutability": "view",
      "type": "function"
    },
    {
      "constant": false,
      "inputs": [],
      "name": "renounceSigner",
      "outputs": [],
      "payable": false,
      "stateMutability": "nonpayable",
      "type": "function"
    },
    {
      "constant": false,
      "inputs": [
        {
          "name": "account",
          "type": "address"
        }
      ],
      "name": "addSigner",
      "outputs": [],
      "payable": false,
      "stateMutability": "nonpayable",
      "type": "function"
    },
    {
      "constant": false,
      "inputs": [
        {
          "name": "_creationDate",
          "type": "uint256"
        },
        {
          "name": "_name",
          "type": "string"
        },
        {
          "name": "_logo",
          "type": "string"
        },
        {
          "name": "_country",
          "type": "string"
        },
        {
          "name": "_cmo",
          "type": "string"
        },
        {
          "name": "_theme",
          "type": "string"
        }
      ],
      "name": "addMember",
      "outputs": [
        {
          "name": "",
          "type": "uint256"
        }
      ],
      "payable": false,
      "stateMutability": "nonpayable",
      "type": "function"
    },
    {
      "constant": false,
      "inputs": [
        {
          "name": "_firstName",
          "type": "string"
        },
        {
          "name": "_lastName",
          "type": "string"
        },
        {
          "name": "_memberId",
          "type": "uint256"
        },
        {
          "name": "_role",
          "type": "string"
        },
        {
          "name": "owner",
          "type": "address"
        }
      ],
      "name": "updateUser",
      "outputs": [],
      "payable": false,
      "stateMutability": "nonpayable",
      "type": "function"
    },
    {
      "constant": false,
      "inputs": [
        {
          "name": "account",
          "type": "address"
        }
      ],
      "name": "whitelistAdmin",
      "outputs": [],
      "payable": false,
      "stateMutability": "nonpayable",
      "type": "function"
    },
    {
      "anonymous": false,
      "inputs": [
        {
          "indexed": true,
          "name": "account",
          "type": "address"
        }
      ],
      "name": "SignerAdded",
      "type": "event"
    },
    {
      "anonymous": false,
      "inputs": [
        {
          "indexed": true,
          "name": "account",
          "type": "address"
        }
      ],
      "name": "SignerRemoved",
      "type": "event"
    },
    {
      "constant": false,
      "inputs": [
        {
          "name": "_cmo",
          "type": "string"
        }
      ],
      "name": "addCMO",
      "outputs": [],
      "payable": false,
      "stateMutability": "nonpayable",
      "type": "function"
    },
    {
      "constant": false,
      "inputs": [
        {
          "name": "_index",
          "type": "uint256"
        }
      ],
      "name": "deleteCMO",
      "outputs": [],
      "payable": false,
      "stateMutability": "nonpayable",
      "type": "function"
    },
    {
      "constant": true,
      "inputs": [],
      "name": "getCMOs",
      "outputs": [
        {
          "name": "",
          "type": "string[]"
        }
      ],
      "payable": false,
      "stateMutability": "view",
      "type": "function"
    }
  ],
  "bytecode": "0x608060405260006008556200001d3364010000000062000023810204565b62000108565b6200003e600082640100000000620045cc6200007582021704565b604051600160a060020a038216907f47d1c22a25bb3a5d4e481b9b1e6944c2eade3181a0a20b495ed61d35b5323f2490600090a250565b600160a060020a03811615156200008b57600080fd5b620000a08282640100000000620000d0810204565b15620000ab57600080fd5b600160a060020a0316600090815260209190915260409020805460ff19166001179055565b6000600160a060020a0382161515620000e857600080fd5b50600160a060020a03166000908152602091909152604090205460ff1690565b615fe280620001186000396000f3006080604052600436106101485763ffffffff7c010000000000000000000000000000000000000000000000000000000060003504166308bdc24d811461014d5780631be8850b1461016f5780633a59ccf11461019a5780634dc92885146101ba5780635aef2447146101da5780635d73ab9a14610207578063656d561c1461023457806365ff0c481461025657806369c212f6146102765780637df73e27146102a3578063932191be146102d05780639eab5253146102e5578063a4fdc59414610307578063a7ed1fe41461031c578063a87d942c1461033c578063aa5b3a0614610351578063b6bc381214610371578063bf3d007e1461039e578063c11e1ff3146103be578063c477ecab146103d3578063e5c8b03d146103f3578063eb12d61e14610408578063fa1188c614610428578063fcfbde5b14610448578063ff240fce14610468575b600080fd5b34801561015957600080fd5b5061016d610168366004614f6c565b610488565b005b34801561017b57600080fd5b50610184610624565b6040516101919190615ed3565b60405180910390f35b3480156101a657600080fd5b5061016d6101b5366004614f92565b610641565b3480156101c657600080fd5b5061016d6101d5366004614f6c565b61069e565b3480156101e657600080fd5b506101fa6101f5366004615083565b610802565b6040516101919190615eb1565b34801561021357600080fd5b50610227610222366004615083565b610a01565b6040516101919190615d72565b34801561024057600080fd5b50610249610ddc565b6040516101919190615d3f565b34801561026257600080fd5b5061016d610271366004615330565b610eb5565b34801561028257600080fd5b50610296610291366004614f6c565b610f44565b6040516101919190615ec2565b3480156102af57600080fd5b506102c36102be366004614f6c565b611198565b6040516101919190615d83565b3480156102dc57600080fd5b506102276111b0565b3480156102f157600080fd5b506102fa6114a1565b6040516101919190615d61565b34801561031357600080fd5b50610184611968565b34801561032857600080fd5b5061016d610337366004615280565b611a2d565b34801561034857600080fd5b50610184611af4565b34801561035d57600080fd5b5061016d61036c3660046150a1565b611b11565b34801561037d57600080fd5b5061039161038c366004615083565b611c0b565b6040516101919190615d50565b3480156103aa57600080fd5b5061016d6103b9366004615083565b611f0d565b3480156103ca57600080fd5b50610296611fcb565b3480156103df57600080fd5b506102fa6103ee366004615083565b61205c565b3480156103ff57600080fd5b5061016d612577565b34801561041457600080fd5b5061016d610423366004614f6c565b612582565b34801561043457600080fd5b50610184610443366004615181565b61259f565b34801561045457600080fd5b5061016d610463366004614fc7565b61262e565b34801561047457600080fd5b5061016d610483366004614f6c565b612712565b600160a060020a038181166000908152600360205260408120600601546101009004909116116104d65760405160e560020a62461bcd0281526004016104cd90615dd1565b60405180910390fd5b600160a060020a038116600090815260036020819052604080832082015433845292200154148061050b575061050b33611198565b151561052c5760405160e560020a62461bcd0281526004016104cd90615de1565b60023360009081526003602052604090206006015460ff16600281111561054f57fe5b148061055f575061055f33611198565b15156105805760405160e560020a62461bcd0281526004016104cd90615e71565b6001600160a060020a03821660009081526003602052604090206006015460ff1660028111156105ac57fe5b146105cc5760405160e560020a62461bcd0281526004016104cd90615db1565b600160a060020a038116600090815260036020526040902060060180546002919060ff19166001835b0217905550600160a060020a0381166000908152600360208190526040909120015461062190826127e6565b50565b60008061062f612955565b905061063a8161296c565b91505b5090565b61064a33611198565b151561065557600080fd5b60098054600181018083556000929092528251610699917f6e1540171b6c0c960b71a7020d9f60077f6af931a8bbf590da0223dacf75c7af01906020850190614b0c565b505050565b600160a060020a038181166000908152600360205260408120600601546101009004909116116106e35760405160e560020a62461bcd0281526004016104cd90615dd1565b600160a060020a0381166000908152600360208190526040808320820154338452922001541480610718575061071833611198565b15156107395760405160e560020a62461bcd0281526004016104cd90615de1565b60023360009081526003602052604090206006015460ff16600281111561075c57fe5b148061076c575061076c33611198565b151561078d5760405160e560020a62461bcd0281526004016104cd90615e71565b6001600160a060020a03821660009081526003602052604090206006015460ff1660028111156107b957fe5b146107d95760405160e560020a62461bcd0281526004016104cd90615df1565b600160a060020a0381166000908152600360205260408120600601805460ff19166001836105f5565b61080a614b86565b6006600083815260200190815260200160002060e06040519081016040529081600082015481526020016001820154815260200160028201805480602002602001604051908101604052809291908181526020016000905b828210156109c05760008481526020908190206040805160028681029093018054600181161561010002600019011693909304601f8101859004909402810160609081018352918101848152909384928491908401828280156109065780601f106108db57610100808354040283529160200191610906565b820191906000526020600020905b8154815290600101906020018083116108e957829003601f168201915b50505050508152602001600182018054600181600116156101000203166002900480601f0160208091040260200160405190810160405280929190818152602001828054600181600116156101000203166002900480156109a85780601f1061097d576101008083540402835291602001916109a8565b820191906000526020600020905b81548152906001019060200180831161098b57829003601f168201915b50505050508152505081526020019060010190610862565b50505090825250600382015460ff90811615156020830152600483015460408301526005830154161515606082015260069091015460809091015292915050565b606060008060006060600080610a15611968565b9550610a22600a89612981565b600454909550610a3390600a6129ba565b9350851580610a4157508585115b80610a4b57508388115b15610a5557610dd1565b60408051600a808252610160820190925290816020015b610a74614bc8565b815260200190600190039081610a6c579050509250600091508490505b600454811015610dcd5733600090815260036020819052604082208101546004805491939185908110610ac057fe5b6000918252602080832090910154600160a060020a03168352820192909252604001902060030154148015610b3d5750600260036000600484815481101515610b0557fe5b6000918252602080832090910154600160a060020a0316835282019290925260400190206006015460ff166002811115610b3b57fe5b145b15610dc55760036000600483815481101515610b5557fe5b600091825260208083209190910154600160a060020a0316835282810193909352604091820190208151610100808201845282548252600180840180548651600293821615909402600019011691909104601f81018790048702830187019095528482529194929385840193919291830182828015610c155780601f10610bea57610100808354040283529160200191610c15565b820191906000526020600020905b815481529060010190602001808311610bf857829003601f168201915b5050509183525050600282810180546040805160206001841615610100026000190190931694909404601f81018390048302850183019091528084529381019390830182828015610ca75780601f10610c7c57610100808354040283529160200191610ca7565b820191906000526020600020905b815481529060010190602001808311610c8a57829003601f168201915b505050505081526020016003820154815260200160048201548152602001600582018054600181600116156101000203166002900480601f016020809104026020016040519081016040528092919081815260200182805460018160011615610100020316600290048015610d5d5780601f10610d3257610100808354040283529160200191610d5d565b820191906000526020600020905b815481529060010190602001808311610d4057829003601f168201915b5050509183525050600682015460209091019060ff166002811115610d7e57fe5b6002811115610d8957fe5b8152600691909101546101009004600160a060020a03166020909101528351849084908110610db457fe5b602090810290910101526001909101905b600101610a91565b8296505b505050505050919050565b60606009805480602002602001604051908101604052809291908181526020016000905b82821015610eab5760008481526020908190208301805460408051601f6002600019610100600187161502019094169390930492830185900485028101850190915281815292830182828015610e975780601f10610e6c57610100808354040283529160200191610e97565b820191906000526020600020905b815481529060010190602001808311610e7a57829003601f168201915b505050505081526020019060010190610e00565b5050505090505b90565b610ebe33611198565b1515610ec957600080fd5b60008781526001602052604081205411610ef85760405160e560020a62461bcd0281526004016104cd90615e41565b600087815260016020819052604090912001548614610f2c5760405160e560020a62461bcd0281526004016104cd90615d91565b610f3b878787878787876129dd565b50505050505050565b610f4c614bc8565b600160a060020a0382166000908152600360209081526040918290208251610100808201855282548252600180840180548751600293821615909402600019011691909104601f81018690048602830186019096528582529194929385810193919291908301828280156110015780601f10610fd657610100808354040283529160200191611001565b820191906000526020600020905b815481529060010190602001808311610fe457829003601f168201915b5050509183525050600282810180546040805160206001841615610100026000190190931694909404601f810183900483028501830190915280845293810193908301828280156110935780601f1061106857610100808354040283529160200191611093565b820191906000526020600020905b81548152906001019060200180831161107657829003601f168201915b505050505081526020016003820154815260200160048201548152602001600582018054600181600116156101000203166002900480601f0160208091040260200160405190810160405280929190818152602001828054600181600116156101000203166002900480156111495780601f1061111e57610100808354040283529160200191611149565b820191906000526020600020905b81548152906001019060200180831161112c57829003601f168201915b5050509183525050600682015460209091019060ff16600281111561116a57fe5b600281111561117557fe5b8152600691909101546101009004600160a060020a031660209091015292915050565b60006111aa818363ffffffff612fd616565b92915050565b60608060006111be33611198565b15156111c957600080fd5b60045460408051828152602080840282010190915290801561120557816020015b6111f2614bc8565b8152602001906001900390816111ea5790505b509150600090505b60045481101561149b576003600060048381548110151561122a57fe5b600091825260208083209190910154600160a060020a0316835282810193909352604091820190208151610100808201845282548252600180840180548651600293821615909402600019011691909104601f810187900487028301870190955284825291949293858401939192918301828280156112ea5780601f106112bf576101008083540402835291602001916112ea565b820191906000526020600020905b8154815290600101906020018083116112cd57829003601f168201915b5050509183525050600282810180546040805160206001841615610100026000190190931694909404601f8101839004830285018301909152808452938101939083018282801561137c5780601f106113515761010080835404028352916020019161137c565b820191906000526020600020905b81548152906001019060200180831161135f57829003601f168201915b505050505081526020016003820154815260200160048201548152602001600582018054600181600116156101000203166002900480601f0160208091040260200160405190810160405280929190818152602001828054600181600116156101000203166002900480156114325780601f1061140757610100808354040283529160200191611432565b820191906000526020600020905b81548152906001019060200180831161141557829003601f168201915b5050509183525050600682015460209091019060ff16600281111561145357fe5b600281111561145e57fe5b8152600691909101546101009004600160a060020a0316602090910152825183908390811061148957fe5b6020908102909101015260010161120d565b50919050565b60608060006002805490506040519080825280602002602001820160405280156114e557816020015b6114d2614c19565b8152602001906001900390816114ca5790505b509150600090505b60025481101561149b576001600060028381548110151561150a57fe5b9060005260206000200154815260200190815260200160002061014060405190810160405290816000820154815260200160018201548152602001600282018054600181600116156101000203166002900480601f0160208091040260200160405190810160405280929190818152602001828054600181600116156101000203166002900480156115dd5780601f106115b2576101008083540402835291602001916115dd565b820191906000526020600020905b8154815290600101906020018083116115c057829003601f168201915b505050918352505060038201805460408051602060026001851615610100026000190190941693909304601f81018490048402820184019092528181529382019392918301828280156116715780601f1061164657610100808354040283529160200191611671565b820191906000526020600020905b81548152906001019060200180831161165457829003601f168201915b505050918352505060048201805460408051602060026001851615610100026000190190941693909304601f81018490048402820184019092528181529382019392918301828280156117055780601f106116da57610100808354040283529160200191611705565b820191906000526020600020905b8154815290600101906020018083116116e857829003601f168201915b505050918352505060058201805460408051602060026001851615610100026000190190941693909304601f81018490048402820184019092528181529382019392918301828280156117995780601f1061176e57610100808354040283529160200191611799565b820191906000526020600020905b81548152906001019060200180831161177c57829003601f168201915b505050918352505060068201805460408051602060026001851615610100026000190190941693909304601f810184900484028201840190925281815293820193929183018282801561182d5780601f106118025761010080835404028352916020019161182d565b820191906000526020600020905b81548152906001019060200180831161181057829003601f168201915b505050505081526020016007820180548060200260200160405190810160405280929190818152602001828054801561188557602002820191906000526020600020905b815481526020019060010190808311611871575b50505050508152602001600882018054806020026020016040519081016040528092919081815260200182805480156118dd57602002820191906000526020600020905b8154815260200190600101908083116118c9575b505050505081526020016009820180548060200260200160405190810160405280929190818152602001828054801561193f57602002820191906000526020600020905b8154600160a060020a03168152600190910190602001808311611921575b505050505081525050828281518110151561195657fe5b602090810290910101526001016114ed565b600080805b60045481101561149b573360009081526003602081905260408220810154600480549193918590811061199c57fe5b6000918252602080832090910154600160a060020a03168352820192909252604001902060030154148015611a1957506002600360006004848154811015156119e157fe5b6000918252602080832090910154600160a060020a0316835282019290925260400190206006015460ff166002811115611a1757fe5b145b15611a25576001909101905b60010161196d565b6000811515611a515760405160e560020a62461bcd0281526004016104cd90615e91565b60008611611a745760405160e560020a62461bcd0281526004016104cd90615ea1565b3360009081526003602052604090205415611aa45760405160e560020a62461bcd0281526004016104cd90615dc1565b611aad8261300d565b1515611ace5760405160e560020a62461bcd0281526004016104cd90615e41565b611ad786613020565b9050611aec8686868585886001336000613210565b505050505050565b6000611aff33611198565b1515611b0a57600080fd5b5060025490565b8315611b845760088054600101908190559250611b2d8561300d565b1515611b4e5760405160e560020a62461bcd0281526004016104cd90615e21565b611b56612955565b9450611b68838989898960008e613664565b611b7285846137df565b611b7f8387896001613804565b611c01565b600083815260066020526040812060030154611ba791859160ff16908590613804565b600083815260066020526040902060030154611bca90849060ff16896001613804565b6000838152600660205260409020805460038201546004830154600590930154611c01938793928c9260ff91821692911687613664565b5050505050505050565b6060600080600080606080600080611c24600a8b612981565b9750611c2e612955565b9650611c398761296c565b9550611c4686600a6129ba565b9450851580611c5757506001860388115b80611c615750848a115b15611c6b57611f00565b611c7487613e43565b60408051600a8082526101608201909252919550816020015b611c95614b86565b815260200190600190039081611c8d579050509250600091508790505b8351811015611efc57600a821015611eef57600660008583815181101515611cd657fe5b90602001906020020151815260200190815260200160002060e06040519081016040529081600082015481526020016001820154815260200160028201805480602002602001604051908101604052809291908181526020016000905b82821015611e915760008481526020908190206040805160028681029093018054600181161561010002600019011693909304601f810185900490940281016060908101835291810184815290938492849190840182828015611dd75780601f10611dac57610100808354040283529160200191611dd7565b820191906000526020600020905b815481529060010190602001808311611dba57829003601f168201915b50505050508152602001600182018054600181600116156101000203166002900480601f016020809104026020016040519081016040528092919081815260200182805460018160011615610100020316600290048015611e795780601f10611e4e57610100808354040283529160200191611e79565b820191906000526020600020905b815481529060010190602001808311611e5c57829003601f168201915b50505050508152505081526020019060010190611d33565b50505090825250600382015460ff9081161515602083015260048301546040830152600583015416151560608201526006909101546080909101528351849084908110611eda57fe5b60209081029091010152600190910190611ef4565b611efc565b600101611cb2565b8298505b5050505050505050919050565b6000611f1833611198565b1515611f2357600080fd5b50805b60095460001901811015611f90576009805460018301908110611f4557fe5b90600052602060002001600982815481101515611f5e57fe5b906000526020600020019080546001816001161561010002031660029004611f87929190614c6d565b50600101611f26565b600980546000198101908110611fa257fe5b906000526020600020016000611fb89190614ce2565b6009805490610699906000198301614d26565b611fd3614bc8565b611fdb614bc8565b336000908152600360209081526040918290208251610100808201855282548252600180840180548751600293821615909402600019011691909104601f81018690048602830186019096528582529194929385810193919291908301828280156110015780601f10610fd657610100808354040283529160200191611001565b6060600080600060606000612072600a88612981565b60025490955061208390600a6129ba565b600254909450158061209a57506002546000190185115b806120a457508387115b156120ae5761256d565b60408051600a80825261016082019092526000945090816020015b6120d1614c19565b8152602001906001900390816120c95790505091508490505b600254811015612569576001600060028381548110151561210757fe5b9060005260206000200154815260200190815260200160002061014060405190810160405290816000820154815260200160018201548152602001600282018054600181600116156101000203166002900480601f0160208091040260200160405190810160405280929190818152602001828054600181600116156101000203166002900480156121da5780601f106121af576101008083540402835291602001916121da565b820191906000526020600020905b8154815290600101906020018083116121bd57829003601f168201915b505050918352505060038201805460408051602060026001851615610100026000190190941693909304601f810184900484028201840190925281815293820193929183018282801561226e5780601f106122435761010080835404028352916020019161226e565b820191906000526020600020905b81548152906001019060200180831161225157829003601f168201915b505050918352505060048201805460408051602060026001851615610100026000190190941693909304601f81018490048402820184019092528181529382019392918301828280156123025780601f106122d757610100808354040283529160200191612302565b820191906000526020600020905b8154815290600101906020018083116122e557829003601f168201915b505050918352505060058201805460408051602060026001851615610100026000190190941693909304601f81018490048402820184019092528181529382019392918301828280156123965780601f1061236b57610100808354040283529160200191612396565b820191906000526020600020905b81548152906001019060200180831161237957829003601f168201915b505050918352505060068201805460408051602060026001851615610100026000190190941693909304601f810184900484028201840190925281815293820193929183018282801561242a5780601f106123ff5761010080835404028352916020019161242a565b820191906000526020600020905b81548152906001019060200180831161240d57829003601f168201915b505050505081526020016007820180548060200260200160405190810160405280929190818152602001828054801561248257602002820191906000526020600020905b81548152602001906001019080831161246e575b50505050508152602001600882018054806020026020016040519081016040528092919081815260200182805480156124da57602002820191906000526020600020905b8154815260200190600101908083116124c6575b505050505081526020016009820180548060200260200160405190810160405280929190818152602001828054801561253c57602002820191906000526020600020905b8154600160a060020a0316815260019091019060200180831161251e575b505050505081525050828481518110151561255357fe5b60209081029091010152600192830192016120ea565b8195505b5050505050919050565b61258033613ed8565b565b61258b33611198565b151561259657600080fd5b61062181613f20565b6000806125ab33611198565b15156125b657600080fd5b600088116125d95760405160e560020a62461bcd0281526004016104cd90615ea1565b6125e288613020565b600081815260016020526040902054909150156126145760405160e560020a62461bcd0281526004016104cd90615e31565b612623818989898989896129dd565b979650505050505050565b600160a060020a038181166000908152600360205260408120600601549091829182916101009091041681106126795760405160e560020a62461bcd0281526004016104cd90615dd1565b6002600160a060020a03851660009081526003602052604090206006015460ff1660028111156126a557fe5b146126c55760405160e560020a62461bcd0281526004016104cd90615e71565b600160a060020a03841660009081526003602052604090206004810154815460069092015490945090925060ff1660028111156126fe57fe5b9050611c0182898989878a878b6001613210565b61271b33611198565b151561272657600080fd5b600160a060020a0381166000908152600360208190526040909120015461274d90826127e6565b604080518082018252600b81527f53757065722061646d696e0000000000000000000000000000000000000000006020808301918252600160a060020a038516600090815260039091529290922090516127ad9260059092019190614b0c565b50600160a060020a0381166000908152600360208190526040822090810191909155600601805460ff1916600217905561062181612582565b6000805b600084815260016020526040902060090154600019018110156128e65760008481526001602052604090206009018054600160a060020a03851691908390811061283057fe5b600091825260209091200154600160a060020a0316141561285057600191505b81156128de57600084815260016020819052604090912060090180549091830190811061287957fe5b6000918252602080832090910154868352600190915260409091206009018054600160a060020a0390921691839081106128af57fe5b9060005260206000200160006101000a815481600160a060020a030219169083600160a060020a031602179055505b6001016127ea565b60008481526001602052604090206009018054600019810190811061290757fe5b60009182526020808320909101805473ffffffffffffffffffffffffffffffffffffffff19169055858252600190526040902060090180549061294e906000198301614d4a565b5050505050565b336000908152600360208190526040909120015490565b60009081526001602052604090206008015490565b60008083151561299457600091506129b3565b508282028284828115156129a457fe5b04146129af57600080fd5b8091505b5092915050565b6000808083116129c957600080fd5b82848115156129d457fe5b04949350505050565b6129e5614c19565b85511515612a085760405160e560020a62461bcd0281526004016104cd90615e81565b82511515612a2b5760405160e560020a62461bcd0281526004016104cd90615e61565b81511515612a4e5760405160e560020a62461bcd0281526004016104cd90615e51565b6000888152600160208181526040928390208351610140810185528154815281840154818401526002808301805487519681161561010002600019011691909104601f810185900485028601850187528086529195929492860193909190830182828015612afd5780601f10612ad257610100808354040283529160200191612afd565b820191906000526020600020905b815481529060010190602001808311612ae057829003601f168201915b505050918352505060038201805460408051602060026001851615610100026000190190941693909304601f8101849004840282018401909252818152938201939291830182828015612b915780601f10612b6657610100808354040283529160200191612b91565b820191906000526020600020905b815481529060010190602001808311612b7457829003601f168201915b505050918352505060048201805460408051602060026001851615610100026000190190941693909304601f8101849004840282018401909252818152938201939291830182828015612c255780601f10612bfa57610100808354040283529160200191612c25565b820191906000526020600020905b815481529060010190602001808311612c0857829003601f168201915b505050918352505060058201805460408051602060026001851615610100026000190190941693909304601f8101849004840282018401909252818152938201939291830182828015612cb95780601f10612c8e57610100808354040283529160200191612cb9565b820191906000526020600020905b815481529060010190602001808311612c9c57829003601f168201915b505050918352505060068201805460408051602060026001851615610100026000190190941693909304601f8101849004840282018401909252818152938201939291830182828015612d4d5780601f10612d2257610100808354040283529160200191612d4d565b820191906000526020600020905b815481529060010190602001808311612d3057829003601f168201915b5050505050815260200160078201805480602002602001604051908101604052809291908181526020018280548015612da557602002820191906000526020600020905b815481526020019060010190808311612d91575b5050505050815260200160088201805480602002602001604051908101604052809291908181526020018280548015612dfd57602002820191906000526020600020905b815481526020019060010190808311612de9575b5050505050815260200160098201805480602002602001604051908101604052809291908181526020018280548015612e5f57602002820191906000526020600020905b8154600160a060020a03168152600190910190602001808311612e41575b50505091909252505050888152602080820189815260408084018a8152606085018a90526080850189905260a0850188905260c0850187905260008d815260018086529290208551815592519183019190915551805193945084939192612ece92600285019290910190614b0c565b5060608201518051612eea916003840191602090910190614b0c565b5060808201518051612f06916004840191602090910190614b0c565b5060a08201518051612f22916005840191602090910190614b0c565b5060c08201518051612f3e916006840191602090910190614b0c565b5060e08201518051612f5a916007840191602090910190614d6e565b506101008201518051612f77916008840191602090910190614d6e565b506101208201518051612f94916009840191602090910190614da8565b5050600280546001810182556000919091527f405787fa12a823e0f2b7631cc41b3ba8828b3321ca811111fa75cd3aa3bb5ace01989098555050505050505050565b6000600160a060020a0382161515612fed57600080fd5b50600160a060020a03166000908152602091909152604090205460ff1690565b6000908152600160205260408120541190565b60008080806002850615156130b25784604051602001808281526020019150506040516020818303038152906040526040518082805190602001908083835b6020831061307e5780518252601f19909201916020918201910161305f565b6001836020036101000a0380198251168184511680821785525050505050509050019150506040518091039020925061319d565b84604051602001808281526020019150506040516020818303038152906040526040518082805190602001908083835b602083106131015780518252601f1990920191602091820191016130e2565b51815160209384036101000a600019018019909216911617905260408051929094018290038220828201528351808303820181529184019384905281519195509293508392850191508083835b6020831061316d5780518252601f19909201916020918201910161314e565b6001836020036101000a038019825116818451168082178552505050505050905001915050604051809103902092505b60208110156131ca578281602081106131b257fe5b60f860020a91901a810204919091019060010161319d565b8260206002840106602081106131dc57fe5b60f860020a91901a8102048360208406602081106131f657fe5b1a60f860020a0260f860020a90040293505b505050919050565b613218614bc8565b600084101580613229575060028411155b151561324a5760405160e560020a62461bcd0281526004016104cd90615e01565b8451151561326d5760405160e560020a62461bcd0281526004016104cd90615da1565b600160a060020a0383166000908152600360209081526040918290208251610100808201855282548252600180840180548751600293821615909402600019011691909104601f81018690048602830186019096528582529194929385810193919291908301828280156133225780601f106132f757610100808354040283529160200191613322565b820191906000526020600020905b81548152906001019060200180831161330557829003601f168201915b5050509183525050600282810180546040805160206001841615610100026000190190931694909404601f810183900483028501830190915280845293810193908301828280156133b45780601f10613389576101008083540402835291602001916133b4565b820191906000526020600020905b81548152906001019060200180831161339757829003601f168201915b505050505081526020016003820154815260200160048201548152602001600582018054600181600116156101000203166002900480601f01602080910402602001604051908101604052809291908181526020018280546001816001161561010002031660029004801561346a5780601f1061343f5761010080835404028352916020019161346a565b820191906000526020600020905b81548152906001019060200180831161344d57829003601f168201915b5050509183525050600682015460209091019060ff16600281111561348b57fe5b600281111561349657fe5b8152600691909101546101009004600160a060020a03166020918201528b825281018a905260408101899052606081018890526080810187905260a0810186905290508360028111156134e557fe5b8160c0019060028111156134f557fe5b9081600281111561350257fe5b905250600160a060020a03831660e082018190526000908152600360209081526040909120825181558183015180518493613544926001850192910190614b0c565b5060408201518051613560916002840191602090910190614b0c565b50606082015160038201556080820151600482015560a08201518051613590916005840191602090910190614b0c565b5060c082015160068201805460ff191660018360028111156135ae57fe5b021790555060e0919091015160069091018054600160a060020a039092166101000274ffffffffffffffffffffffffffffffffffffffff001990921691909117905581151561365857600480546001810182556000919091527f8a35acfbc15ff81a39ae7d344fd709f28e8600b4aa8c65c6b64bfe7fe36bd19b01805473ffffffffffffffffffffffffffffffffffffffff1916600160a060020a03851617905561365887613f68565b50505050505050505050565b61366c614e16565b60606000606061367b89613fa7565b935061368684613ff5565b60008c8152600660205260408120600181018e90558c815560038101805460ff19168c15151790559194506136be9160020190614e2d565b600091505b82518210156137a3576136ec83838151811015156136dd57fe5b90602001906020020151613ff5565b9050600660008c8152602001908152602001600020600201604080519081016040528061373084600081518110151561372157fe5b906020019060200201516140c8565b815260200161374784600181518110151561372157fe5b9052815460018101808455600093845260209384902083518051929560029094029091019261377b92849290910190614b0c565b5060208281015180516137949260018501920190614b0c565b505050508160010191506136c3565b505050600097885250600660208190526040909720600481019390935595820195909555600501805460ff191694151594909417909355505050565b6000918252600160208181526040842060080180549283018155845290922090910155565b61380c614e16565b60606000806000806000806138208a613fa7565b975061382b88613ff5565b96506138576138526138458960058151811015156136dd57fe5b8051600190811061372157fe5b61413a565b95506138716138526138458960028151811015156136dd57fe5b945061388b6138526138458960038151811015156136dd57fe5b60008d8152600760209081526040808320805461ffff191661ffff8c16179055600690915290206005015490945060ff169250600191508190505b6008548111613e355760008181526006602052604090206003015460ff1615158b15151480156138f65750808c14155b15613e2d576005805460ff1916905560008181526006602052604081206002018054909190811061392357fe5b9060005260206000209060020201600101604051808280546001816001161561010002031660029004801561398f5780601f1061396d57610100808354040283529182019161398f565b820191906000526020600020905b81548152906001019060200180831161397b575b50509150506040518091039020600019166139b56138458960008151811015156136dd57fe5b6040518082805190602001908083835b602083106139e45780518252601f1990920191602091820191016139c5565b6001836020036101000a038019825116818451168082178552505050505050905001915050604051809103902060001916148015613b025750600081815260066020526040902060029081018054613aee92908110613a3f57fe5b90600052602060002090600202016001018054600181600116156101000203166002900480601f016020809104026020016040519081016040528092919081815260200182805460018160011615610100020316600290048015613ae45780601f10613ab957610100808354040283529160200191613ae4565b820191906000526020600020905b815481529060010190602001808311613ac757829003601f168201915b505050505061413a565b65ffffffffffff168465ffffffffffff1610155b8015613b40575060008181526006602052604090206002018054613b2c91906003908110613a3f57fe5b65ffffffffffff168565ffffffffffff1611155b15613e2d57613c2a613b5d6138458960048151811015156136dd57fe5b600083815260066020526040902060020180546004908110613b7b57fe5b90600052602060002090600202016001018054600181600116156101000203166002900480601f016020809104026020016040519081016040528092919081815260200182805460018160011615610100020316600290048015613c205780601f10613bf557610100808354040283529160200191613c20565b820191906000526020600020905b815481529060010190602001808311613c0357829003601f168201915b5050505050614198565b60055460ff1615613e2d57613c6b613c4d6138458960018151811015156136dd57fe5b600083815260066020526040902060020180546001908110613b7b57fe5b60055460ff1615613e2d578815613d42576000818152600760205260409020805461ffff19811661ffff918216890182161791829055606491161115613d3d57821515613ce25760008c815260066020526040902060058101805460ff1916600117905560040154613cdd908d614448565b600192505b60008181526006602052604090206005015460ff161515613d3d5760008181526006602052604090206004810154600190910154613d209190614448565b6000818152600660205260409020600501805460ff191660011790555b613dfb565b6000818152600760205260409020805461ffff19811661ffff918216899003821617918290556064911611613dfb578215613da45760008c815260066020526040902060058101805460ff1916905560040154613d9f908d61446d565b600092505b60008181526006602052604090206005015460ff1615613dfb5760008181526006602052604090206004810154600190910154613de1919061446d565b6000818152600660205260409020600501805460ff191690555b8115613e2d57600081815260076020526040808220548e8352908220805461ffff191661ffff90921691909117905591505b6001016138c6565b505050505050505050505050565b60008181526001602052604081205460609110613e755760405160e560020a62461bcd0281526004016104cd90615e11565b60008281526001602090815260409182902060080180548351818402810184019094528084529091830182828015613ecc57602002820191906000526020600020905b815481526020019060010190808311613eb8575b50505050509050919050565b613ee960008263ffffffff61458016565b604051600160a060020a038216907f3525e22824a8a7df2c9a6029941c824cf95b6447f1e13d5128fd3826d35afe8b90600090a250565b613f3160008263ffffffff6145cc16565b604051600160a060020a038216907f47d1c22a25bb3a5d4e481b9b1e6944c2eade3181a0a20b495ed61d35b5323f2490600090a250565b6000908152600160208181526040832060090180549283018155835290912001805473ffffffffffffffffffffffffffffffffffffffff191633179055565b613faf614e16565b6000825160001415613fd6576040805180820190915260008082526020820152915061149b565b5050604080518082019091528151815260209182019181019190915290565b60606000806000806140068661461a565b151561401157600080fd5b61401a86614649565b93508360405190808252806020026020018201604052801561405657816020015b614043614e16565b81526020019060019003908161403b5790505b5094506140668660200151614699565b8660200151019250600090505b838110156140bf57614084836146fc565b915060408051908101604052808381526020018481525085828151811015156140a957fe5b6020908102909101015291810191600101614073565b50505050919050565b6060600080606060006140de8660200151614699565b9350838660000151039250826040519080825280601f01601f191660200182016040528015614117578160200160208202803883390190505b50915081602001905061413184876020015101828561478d565b50949350505050565b60008181805b825182101561320857828281518110151561415757fe5b016020015160f860020a9081900481020490506030811080159061417c575060398111155b1561418d576030810384600a020193505b600190910190614140565b6141a0614e16565b6141a8614e16565b6141b0614e16565b6060806000806141bf896147d4565b96506141ca886147d4565b955061420a6040805190810160405280600181526020017f2c000000000000000000000000000000000000000000000000000000000000008152506147d4565b945061421c878663ffffffff6147fa16565b60010160405190808252806020026020018201604052801561425257816020015b606081526020019060019003908161423d5790505b509350614265868663ffffffff6147fa16565b60010160405190808252806020026020018201604052801561429b57816020015b60608152602001906001900390816142865790505b50925082518451101561433b576142b8878663ffffffff6147fa16565b6001016040519080825280602002602001820160405280156142ee57816020015b60608152602001906001900390816142d95790505b509250614301868663ffffffff6147fa16565b60010160405190808252806020026020018201604052801561433757816020015b60608152602001906001900390816143225790505b5093505b600091505b835182101561443d5761436161435c888763ffffffff61486016565b614873565b848381518110151561436f57fe5b602090810290910101525060005b8181116144225782518210156143f1576143a061435c878763ffffffff61486016565b83838151811015156143ae57fe5b6020908102909101015283516143f1908590839081106143ca57fe5b9060200190602002015184848151811015156143e257fe5b906020019060200201516148c6565b61441a838281518110151561440257fe5b9060200190602002015185848151811015156143e257fe5b60010161437d565b60055460ff16156144325761443d565b600190910190614340565b505050505050505050565b6000918252600160208181526040842060070180549283018155845290922090910155565b6000805b600084815260016020526040902060070154600019018110156145305760008481526001602052604090206007018054849190839081106144ae57fe5b906000526020600020015414156144c457600191505b81156145285760008481526001602081905260409091206007018054909183019081106144ed57fe5b9060005260206000200154600160008681526020019081526020016000206007018281548110151561451b57fe5b6000918252602090912001555b600101614471565b60008481526001602052604090206007018054600019810190811061455157fe5b60009182526020808320909101829055858252600190526040902060070180549061294e906000198301614d4a565b600160a060020a038116151561459557600080fd5b61459f8282612fd6565b15156145aa57600080fd5b600160a060020a0316600090815260209190915260409020805460ff19169055565b600160a060020a03811615156145e157600080fd5b6145eb8282612fd6565b156145f557600080fd5b600160a060020a0316600090815260209190915260409020805460ff19166001179055565b6020810151805160009190821a9060c060ff8316101561463d5760009250614642565b600192505b5050919050565b600080600080600092506146608560200151614699565b6020860151865191810193500190505b8082101561469057614681826146fc565b60019093019290910190614670565b50909392505050565b8051600090811a60808110156146b2576000915061149b565b60b88110806146cd575060c081108015906146cd575060f881105b156146db576001915061149b565b60c08110156146f05760b5198101915061149b565b60f5198101915061149b565b8051600090811a6080811015614715576001915061149b565b60b881101561472a57607e198101915061149b565b60c08110156147575760b78103600184019350806020036101000a8451046001820181019350505061149b565b60f881101561476c5760be198101915061149b565b60019290920151602083900360f7016101000a900490910160f51901919050565b60005b602082106147b2578351835260209384019390920191601f1990910190614790565b50915181516020939093036101000a6000190180199091169216919091179052565b6147dc614e16565b50604080518082019091528151815260209182019181019190915290565b600080826000015161481e8560000151866020015186600001518760200151614998565b0190505b835160208501510181116129b3578251602080860151865191860151600190950194614858929185039091039084908490614998565b019050614822565b614868614e16565b6129b3838383614a58565b606080600083600001516040519080825280601f01601f1916602001820160405280156148aa578160200160208202803883390190505b5091506020820190506129b38185602001518660000151614ac8565b806040518082805190602001908083835b602083106148f65780518252601f1990920191602091820191016148d7565b51815160209384036101000a6000190180199092169116179052604051919093018190038120875190955087945090928392508401908083835b6020831061494f5780518252601f199092019160209182019101614930565b6001836020036101000a0380198251168184511680821785525050505050509050019150506040518091039020600019161415614994576005805460ff191660011790555b5050565b600083818080808080808c8b11614a425760208b11614a0b5760018b60200360080260020a03196001029550858a511694508a8d8d010393508588511692505b828514614a03578388106149f0578c8c019850614a48565b87806001019850508588511692506149d8565b879850614a48565b8a8a209150600096505b8a8d038711614a42575089872081811415614a3257879850614a48565b6001978801979690960195614a15565b8c8c0198505b5050505050505050949350505050565b614a60614e16565b6000614a7e8560000151866020015186600001518760200151614998565b60208087018051918601919091528051820385528651905191925001811415614aaa5760008552614690565b83518351865191019003855283518101602086015250909392505050565b60005b60208210614aed578251845260209384019390920191601f1990910190614acb565b50905182516020929092036101000a6000190180199091169116179052565b828054600181600116156101000203166002900490600052602060002090601f016020900481019282601f10614b4d57805160ff1916838001178555614b7a565b82800160010185558215614b7a579182015b82811115614b7a578251825591602001919060010190614b5f565b5061063d929150614e4e565b60e06040519081016040528060008152602001600081526020016060815260200160001515815260200160008152602001600015158152602001600081525090565b6101006040519081016040528060008152602001606081526020016060815260200160008152602001600081526020016060815260200160006002811115614c0c57fe5b8152600060209091015290565b61014060405190810160405280600081526020016000815260200160608152602001606081526020016060815260200160608152602001606081526020016060815260200160608152602001606081525090565b828054600181600116156101000203166002900490600052602060002090601f016020900481019282601f10614ca65780548555614b7a565b82800160010185558215614b7a57600052602060002091601f016020900482015b82811115614b7a578254825591600101919060010190614cc7565b50805460018160011615610100020316600290046000825580601f10614d085750610621565b601f0160209004906000526020600020908101906106219190614e4e565b81548183558181111561069957600083815260209020610699918101908301614e68565b81548183558181111561069957600083815260209020610699918101908301614e4e565b828054828255906000526020600020908101928215614b7a5791602002820182811115614b7a578251825591602001919060010190614b5f565b828054828255906000526020600020908101928215614e0a579160200282015b82811115614e0a578251825473ffffffffffffffffffffffffffffffffffffffff1916600160a060020a03909116178255602090920191600190910190614dc8565b5061063d929150614e8b565b604080518082019091526000808252602082015290565b50805460008255600202906000526020600020908101906106219190614ebc565b610eb291905b8082111561063d5760008155600101614e54565b610eb291905b8082111561063d576000614e828282614ce2565b50600101614e6e565b610eb291905b8082111561063d57805473ffffffffffffffffffffffffffffffffffffffff19168155600101614e91565b610eb291905b8082111561063d576000614ed68282614ce2565b614ee4600183016000614ce2565b50600201614ec2565b6000614ef98235615f3a565b9392505050565b6000614ef98235615f46565b6000601f82018313614f1d57600080fd5b8135614f30614f2b82615f08565b615ee1565b91508082526020830160208301858383011115614f4c57600080fd5b614f57838284615f62565b50505092915050565b6000614ef98235610eb2565b600060208284031215614f7e57600080fd5b6000614f8a8484614eed565b949350505050565b600060208284031215614fa457600080fd5b813567ffffffffffffffff811115614fbb57600080fd5b614f8a84828501614f0c565b600080600080600060a08688031215614fdf57600080fd5b853567ffffffffffffffff811115614ff657600080fd5b61500288828901614f0c565b955050602086013567ffffffffffffffff81111561501f57600080fd5b61502b88828901614f0c565b945050604061503c88828901614f60565b935050606086013567ffffffffffffffff81111561505957600080fd5b61506588828901614f0c565b925050608061507688828901614eed565b9150509295509295909350565b60006020828403121561509557600080fd5b6000614f8a8484614f60565b600080600080600080600080610100898b0312156150be57600080fd5b60006150ca8b8b614f60565b985050602089013567ffffffffffffffff8111156150e757600080fd5b6150f38b828c01614f0c565b97505060406151048b828c01614f00565b96505060606151158b828c01614f60565b95505060806151268b828c01614f00565b94505060a06151378b828c01614f60565b93505060c089013567ffffffffffffffff81111561515457600080fd5b6151608b828c01614f0c565b92505060e06151718b828c01614f60565b9150509295985092959890939650565b60008060008060008060c0878903121561519a57600080fd5b60006151a68989614f60565b965050602087013567ffffffffffffffff8111156151c357600080fd5b6151cf89828a01614f0c565b955050604087013567ffffffffffffffff8111156151ec57600080fd5b6151f889828a01614f0c565b945050606087013567ffffffffffffffff81111561521557600080fd5b61522189828a01614f0c565b935050608087013567ffffffffffffffff81111561523e57600080fd5b61524a89828a01614f0c565b92505060a087013567ffffffffffffffff81111561526757600080fd5b61527389828a01614f0c565b9150509295509295509295565b600080600080600060a0868803121561529857600080fd5b60006152a48888614f60565b955050602086013567ffffffffffffffff8111156152c157600080fd5b6152cd88828901614f0c565b945050604086013567ffffffffffffffff8111156152ea57600080fd5b6152f688828901614f0c565b935050606086013567ffffffffffffffff81111561531357600080fd5b61531f88828901614f0c565b925050608061507688828901614f60565b600080600080600080600060e0888a03121561534b57600080fd5b60006153578a8a614f60565b97505060206153688a828b01614f60565b965050604088013567ffffffffffffffff81111561538557600080fd5b6153918a828b01614f0c565b955050606088013567ffffffffffffffff8111156153ae57600080fd5b6153ba8a828b01614f0c565b945050608088013567ffffffffffffffff8111156153d757600080fd5b6153e38a828b01614f0c565b93505060a088013567ffffffffffffffff81111561540057600080fd5b61540c8a828b01614f0c565b92505060c088013567ffffffffffffffff81111561542957600080fd5b6154358a828b01614f0c565b91505092959891949750929550565b61544d81615f3a565b82525050565b600061545e82615f36565b80845260208401935061547083615f30565b60005b828110156154a057615486868351615444565b61548f82615f30565b602096909601959150600101615473565b5093949350505050565b60006154b582615f36565b808452602084019350836020820285016154ce85615f30565b60005b848110156155055783830388526154e98383516156dc565b92506154f482615f30565b6020989098019791506001016154d1565b50909695505050505050565b600061551c82615f36565b8084526020840193508360208202850161553585615f30565b60005b84811015615505578383038852615550838351615abd565b925061555b82615f30565b602098909801979150600101615538565b600061557782615f36565b8084526020840193508360208202850161559085615f30565b60005b848110156155055783830388526155ab838351615b52565b92506155b682615f30565b602098909801979150600101615593565b60006155d282615f36565b808452602084019350836020820285016155eb85615f30565b60005b84811015615505578383038852615606838351615c55565b925061561182615f30565b6020989098019791506001016155ee565b600061562d82615f36565b8084526020840193508360208202850161564685615f30565b60005b84811015615505578383038852615661838351615c87565b925061566c82615f30565b602098909801979150600101615649565b600061568882615f36565b80845260208401935061569a83615f30565b60005b828110156154a0576156b0868351615d36565b6156b982615f30565b60209690960195915060010161569d565b61544d81615f46565b61544d81615f57565b60006156e782615f36565b8084526156fb816020860160208601615f6e565b61570481615f9e565b9093016020019392505050565b601a81527f4372656174696f6e204461746520697320696e6d757461626c65000000000000602082015260400190565b601181527f726f6c65206973206d616e6461746f7279000000000000000000000000000000602082015260400190565b602281527f4f6e6c792070656e64696e672075736572732063616e2062652061636365707460208201527f6564000000000000000000000000000000000000000000000000000000000000604082015260600190565b601381527f5573657220616c72656164792065786973747300000000000000000000000000602082015260400190565b601481527f546869732075736572206e6f7420657869737473000000000000000000000000602082015260400190565b601b81527f596f752063616e6e6f7420616363657074207468697320757365720000000000602082015260400190565b602281527f4f6e6c792070656e64696e672075736572732063616e2062652072656a65637460208201527f6564000000000000000000000000000000000000000000000000000000000000604082015260600190565b601381527f737461747573206973206e6f742076616c696400000000000000000000000000602082015260400190565b601181527f6d656d626572206e6f7420657869737473000000000000000000000000000000602082015260400190565b601481527f4d656d62657220646f206e6f7420657869737473000000000000000000000000602082015260400190565b601581527f4d656d62657220616c7265616479206578697374730000000000000000000000602082015260400190565b601181527f4d656d626572206e6f7420657869737473000000000000000000000000000000602082015260400190565b601281527f5468656d65206973206d616e6461746f72790000000000000000000000000000602082015260400190565b601081527f434d4f206973206d616e6461746f727900000000000000000000000000000000602082015260400190565b601481527f596f7520617265206e6f74206163636570746564000000000000000000000000602082015260400190565b601181527f4e616d65206973206d616e6461746f7279000000000000000000000000000000602082015260400190565b601181527f4e6f2076616c6964206d656d6265724964000000000000000000000000000000602082015260400190565b601981527f4372656174696f6e44617465206973206d616e6461746f727900000000000000602082015260400190565b805160009060e0840190615ad18582615d36565b506020830151615ae46020860182615d36565b5060408301518482036040860152615afc82826155c7565b9150506060830151615b1160608601826156ca565b506080830151615b246080860182615d36565b5060a0830151615b3760a08601826156ca565b5060c0830151615b4a60c0860182615d36565b509392505050565b8051600090610140840190615b678582615d36565b506020830151615b7a6020860182615d36565b5060408301518482036040860152615b9282826156dc565b91505060608301518482036060860152615bac82826156dc565b91505060808301518482036080860152615bc682826156dc565b91505060a083015184820360a0860152615be082826156dc565b91505060c083015184820360c0860152615bfa82826156dc565b91505060e083015184820360e0860152615c14828261567d565b915050610100830151848203610100860152615c30828261567d565b915050610120830151848203610120860152615c4c8282615453565b95945050505050565b8051604080845260009190840190615c6d82826156dc565b91505060208301518482036020860152615c4c82826156dc565b8051600090610100840190615c9c8582615d36565b5060208301518482036020860152615cb482826156dc565b91505060408301518482036040860152615cce82826156dc565b9150506060830151615ce36060860182615d36565b506080830151615cf66080860182615d36565b5060a083015184820360a0860152615d0e82826156dc565b91505060c0830151615d2360c08601826156d3565b5060e0830151615b4a60e0860182615444565b61544d81610eb2565b60208082528101614ef981846154aa565b60208082528101614ef98184615511565b60208082528101614ef9818461556c565b60208082528101614ef98184615622565b602081016111aa82846156ca565b602080825281016111aa81615711565b602080825281016111aa81615741565b602080825281016111aa81615771565b602080825281016111aa816157c7565b602080825281016111aa816157f7565b602080825281016111aa81615827565b602080825281016111aa81615857565b602080825281016111aa816158ad565b602080825281016111aa816158dd565b602080825281016111aa8161590d565b602080825281016111aa8161593d565b602080825281016111aa8161596d565b602080825281016111aa8161599d565b602080825281016111aa816159cd565b602080825281016111aa816159fd565b602080825281016111aa81615a2d565b602080825281016111aa81615a5d565b602080825281016111aa81615a8d565b60208082528101614ef98184615abd565b60208082528101614ef98184615c87565b602081016111aa8284615d36565b60405181810167ffffffffffffffff81118282101715615f0057600080fd5b604052919050565b600067ffffffffffffffff821115615f1f57600080fd5b506020601f91909101601f19160190565b60200190565b5190565b600160a060020a031690565b151590565b60006003821061063d57fe5b60006111aa82615f4b565b82818337506000910152565b60005b83811015615f89578181015183820152602001615f71565b83811115615f98576000848401525b50505050565b601f01601f1916905600a265627a7a7230582069ea6236cc767900f67510c987a20042adc10a23ad9446ec22d177deb5fcea606c6578706572696d656e74616cf50037",
  "source": "pragma solidity ^0.4.24;\npragma experimental ABIEncoderV2;\n\nimport \"./Claims.sol\";\n\ncontract Registry is Claims {\n  \n  string[] private cmos_;\n\n  function addCMO(string memory _cmo) onlySigner public {\n    cmos_.push(_cmo);\n  }\n\n  function deleteCMO(uint _index) onlySigner public {\n    for (uint i = _index; i < cmos_.length-1;i++){\n      cmos_[i] = cmos_[i+1];\n    }\n    delete cmos_[cmos_.length-1];\n    cmos_.length--;\n  }\n\n  function getCMOs() view public returns( string[] memory ) {\n    return cmos_;\n  }\n\n}",
  "sourcePath": "/home/komodo/newUI/bloomen-decentralized-rights-management-v2/truffle/contracts/registry/Registry.sol",
  "compiler": {
    "name": "solc",
    "version": "0.4.24+commit.e67f0147.Emscripten.clang"
  },
  "schemaVersion": "2.0.1",
  "updatedAt": "2019-11-29T19:17:12.517Z"
}