{
  "contractName": "Registry",
  "abi": [
    {
      "constant": true,
      "inputs": [
        {
          "name": "account",
          "type": "address"
        }
      ],
      "name": "isSigner",
      "outputs": [
        {
          "name": "",
          "type": "bool"
        }
      ],
      "payable": false,
      "stateMutability": "view",
      "type": "function"
    },
    {
      "constant": false,
      "inputs": [],
      "name": "renounceSigner",
      "outputs": [],
      "payable": false,
      "stateMutability": "nonpayable",
      "type": "function"
    },
    {
      "constant": false,
      "inputs": [
        {
          "name": "account",
          "type": "address"
        }
      ],
      "name": "addSigner",
      "outputs": [],
      "payable": false,
      "stateMutability": "nonpayable",
      "type": "function"
    },
    {
      "anonymous": false,
      "inputs": [
        {
          "indexed": true,
          "name": "account",
          "type": "address"
        }
      ],
      "name": "SignerAdded",
      "type": "event"
    },
    {
      "anonymous": false,
      "inputs": [
        {
          "indexed": true,
          "name": "account",
          "type": "address"
        }
      ],
      "name": "SignerRemoved",
      "type": "event"
    },
    {
      "constant": false,
      "inputs": [
        {
          "name": "_cmo",
          "type": "string"
        }
      ],
      "name": "addCMO",
      "outputs": [],
      "payable": false,
      "stateMutability": "nonpayable",
      "type": "function"
    },
    {
      "constant": false,
      "inputs": [
        {
          "name": "_index",
          "type": "uint256"
        }
      ],
      "name": "deleteCMO",
      "outputs": [],
      "payable": false,
      "stateMutability": "nonpayable",
      "type": "function"
    },
    {
      "constant": true,
      "inputs": [],
      "name": "getCMOs",
      "outputs": [
        {
          "name": "",
          "type": "string[]"
        }
      ],
      "payable": false,
      "stateMutability": "view",
      "type": "function"
    }
  ],
  "bytecode": "0x60806040526100163364010000000061001b810204565b6100f8565b61003360008264010000000061049361006a82021704565b604051600160a060020a038216907f47d1c22a25bb3a5d4e481b9b1e6944c2eade3181a0a20b495ed61d35b5323f2490600090a250565b600160a060020a038116151561007f57600080fd5b61009282826401000000006100c1810204565b1561009c57600080fd5b600160a060020a0316600090815260209190915260409020805460ff19166001179055565b6000600160a060020a03821615156100d857600080fd5b50600160a060020a03166000908152602091909152604090205460ff1690565b610919806101076000396000f3006080604052600436106100775763ffffffff7c01000000000000000000000000000000000000000000000000000000006000350416633a59ccf1811461007c578063656d561c1461009e5780637df73e27146100c9578063bf3d007e146100f6578063e5c8b03d14610116578063eb12d61e1461012b575b600080fd5b34801561008857600080fd5b5061009c610097366004610712565b61014b565b005b3480156100aa57600080fd5b506100b36101a7565b6040516100c09190610810565b60405180910390f35b3480156100d557600080fd5b506100e96100e43660046106ec565b610280565b6040516100c09190610821565b34801561010257600080fd5b5061009c610111366004610747565b610298565b34801561012257600080fd5b5061009c610355565b34801561013757600080fd5b5061009c6101463660046106ec565b610360565b61015433610280565b151561015f57600080fd5b6001805480820180835560009290925282516101a2917fb10e2d527612073b26eecdfd717e6a320cf44b4afac2b0732d9fcbe2b7fa0cf6019060208501906104e1565b505050565b60606001805480602002602001604051908101604052809291908181526020016000905b828210156102765760008481526020908190208301805460408051601f60026000196101006001871615020190941693909304928301859004850281018501909152818152928301828280156102625780601f1061023757610100808354040283529160200191610262565b820191906000526020600020905b81548152906001019060200180831161024557829003601f168201915b5050505050815260200190600101906101cb565b5050505090505b90565b6000610292818363ffffffff61038016565b92915050565b60006102a333610280565b15156102ae57600080fd5b50805b6001546000190181101561031a57600180548282019081106102cf57fe5b906000526020600020016001828154811015156102e857fe5b90600052602060002001908054600181600116156101000203166002900461031192919061055f565b506001016102b1565b60018054600019810190811061032c57fe5b90600052602060002001600061034291906105d4565b60018054906101a2906000198301610618565b61035e336103b7565b565b61036933610280565b151561037457600080fd5b61037d816103ff565b50565b6000600160a060020a038216151561039757600080fd5b50600160a060020a03166000908152602091909152604090205460ff1690565b6103c860008263ffffffff61044716565b604051600160a060020a038216907f3525e22824a8a7df2c9a6029941c824cf95b6447f1e13d5128fd3826d35afe8b90600090a250565b61041060008263ffffffff61049316565b604051600160a060020a038216907f47d1c22a25bb3a5d4e481b9b1e6944c2eade3181a0a20b495ed61d35b5323f2490600090a250565b600160a060020a038116151561045c57600080fd5b6104668282610380565b151561047157600080fd5b600160a060020a0316600090815260209190915260409020805460ff19169055565b600160a060020a03811615156104a857600080fd5b6104b28282610380565b156104bc57600080fd5b600160a060020a0316600090815260209190915260409020805460ff19166001179055565b828054600181600116156101000203166002900490600052602060002090601f016020900481019282601f1061052257805160ff191683800117855561054f565b8280016001018555821561054f579182015b8281111561054f578251825591602001919060010190610534565b5061055b92915061063c565b5090565b828054600181600116156101000203166002900490600052602060002090601f016020900481019282601f10610598578054855561054f565b8280016001018555821561054f57600052602060002091601f016020900482015b8281111561054f5782548255916001019190600101906105b9565b50805460018160011615610100020316600290046000825580601f106105fa575061037d565b601f01602090049060005260206000209081019061037d919061063c565b8154818355818111156101a2576000838152602090206101a2918101908301610656565b61027d91905b8082111561055b5760008155600101610642565b61027d91905b8082111561055b57600061067082826105d4565b5060010161065c565b6000610685823561088d565b9392505050565b6000601f8201831361069d57600080fd5b81356106b06106ab82610856565b61082f565b915080825260208301602083018583830111156106cc57600080fd5b6106d7838284610899565b50505092915050565b6000610685823561027d565b6000602082840312156106fe57600080fd5b600061070a8484610679565b949350505050565b60006020828403121561072457600080fd5b813567ffffffffffffffff81111561073b57600080fd5b61070a8482850161068c565b60006020828403121561075957600080fd5b600061070a84846106e0565b600061077082610884565b808452602084019350836020820285016107898561087e565b60005b848110156107c05783830388526107a48383516107db565b92506107af8261087e565b60209890980197915060010161078c565b50909695505050505050565b6107d581610888565b82525050565b60006107e682610884565b8084526107fa8160208601602086016108a5565b610803816108d5565b9093016020019392505050565b602080825281016106858184610765565b6020810161029282846107cc565b60405181810167ffffffffffffffff8111828210171561084e57600080fd5b604052919050565b600067ffffffffffffffff82111561086d57600080fd5b506020601f91909101601f19160190565b60200190565b5190565b151590565b600160a060020a031690565b82818337506000910152565b60005b838110156108c05781810151838201526020016108a8565b838111156108cf576000848401525b50505050565b601f01601f1916905600a265627a7a723058206a6ae6f7c248d1d6ef9ced13d6ff6a406783e6bd68a498b8c17e1d80d5f93df46c6578706572696d656e74616cf50037",
  "source": "pragma solidity ^0.4.24;\npragma experimental ABIEncoderV2;\n\nimport \"./SignerRole.sol\";\n\ncontract Registry is SignerRole {\n\n  string[] private cmos_;\n\n  function addCMO(string memory _cmo) onlySigner public {\n    cmos_.push(_cmo);\n  }\n\n  function deleteCMO(uint _index) onlySigner public {\n    for (uint i = _index; i < cmos_.length-1;i++){\n      cmos_[i] = cmos_[i+1];\n    }\n    delete cmos_[cmos_.length-1];\n    cmos_.length--;\n  }\n\n  function getCMOs() view public returns( string[] memory ) {\n    return cmos_;\n  }\n\n}",
  "sourcePath": "/home/komodo/newUI2/bloomen-decentralized-rights-management-v2/truffle/contracts/registry/Registry.sol",
  "compiler": {
    "name": "solc",
    "version": "0.4.24+commit.e67f0147.Emscripten.clang"
  },
  "schemaVersion": "2.0.1",
  "updatedAt": "2020-02-15T12:53:43.965Z"
}