{
  "contractName": "Registry",
  "abi": [
    {
      "constant": false,
      "inputs": [
        {
          "name": "_userToAccept",
          "type": "address"
        }
      ],
      "name": "acceptUser",
      "outputs": [],
      "payable": false,
      "stateMutability": "nonpayable",
      "type": "function"
    },
    {
      "constant": true,
      "inputs": [],
      "name": "getClaimsCountByMemberId",
      "outputs": [
        {
          "name": "",
          "type": "uint256"
        }
      ],
      "payable": false,
      "stateMutability": "view",
      "type": "function"
    },
    {
      "constant": false,
      "inputs": [
        {
          "name": "_userToReject",
          "type": "address"
        }
      ],
      "name": "rejectUser",
      "outputs": [],
      "payable": false,
      "stateMutability": "nonpayable",
      "type": "function"
    },
    {
      "constant": true,
      "inputs": [
        {
          "name": "_claimId",
          "type": "uint256"
        }
      ],
      "name": "getClaim",
      "outputs": [
        {
          "components": [
            {
              "name": "creationDate",
              "type": "uint256"
            },
            {
              "name": "claimId",
              "type": "uint256"
            },
            {
              "components": [
                {
                  "name": "name",
                  "type": "string"
                },
                {
                  "name": "value",
                  "type": "string"
                }
              ],
              "name": "claimData",
              "type": "tuple[]"
            },
            {
              "name": "claimType",
              "type": "uint8"
            },
            {
              "name": "memberOwner",
              "type": "uint256"
            },
            {
              "name": "memberReceptor",
              "type": "uint256"
            },
            {
              "name": "messageLog",
              "type": "string[]"
            },
            {
              "name": "status",
              "type": "uint8"
            },
            {
              "name": "lastChange",
              "type": "uint256"
            }
          ],
          "name": "",
          "type": "tuple"
        }
      ],
      "payable": false,
      "stateMutability": "view",
      "type": "function"
    },
    {
      "constant": true,
      "inputs": [
        {
          "name": "_page",
          "type": "uint256"
        }
      ],
      "name": "getUsers",
      "outputs": [
        {
          "components": [
            {
              "name": "creationDate",
              "type": "uint256"
            },
            {
              "name": "firstName",
              "type": "string"
            },
            {
              "name": "lastName",
              "type": "string"
            },
            {
              "name": "memberId",
              "type": "uint256"
            },
            {
              "name": "requestId",
              "type": "uint256"
            },
            {
              "name": "role",
              "type": "string"
            },
            {
              "name": "status",
              "type": "uint8"
            },
            {
              "name": "owner",
              "type": "address"
            }
          ],
          "name": "",
          "type": "tuple[]"
        }
      ],
      "payable": false,
      "stateMutability": "view",
      "type": "function"
    },
    {
      "constant": false,
      "inputs": [
        {
          "name": "_memberId",
          "type": "uint256"
        },
        {
          "name": "_creationDate",
          "type": "uint256"
        },
        {
          "name": "_name",
          "type": "string"
        },
        {
          "name": "_logo",
          "type": "string"
        },
        {
          "name": "_country",
          "type": "string"
        },
        {
          "name": "_cmo",
          "type": "string"
        },
        {
          "name": "_theme",
          "type": "string"
        }
      ],
      "name": "updateMember",
      "outputs": [],
      "payable": false,
      "stateMutability": "nonpayable",
      "type": "function"
    },
    {
      "constant": true,
      "inputs": [
        {
          "name": "userAddress",
          "type": "address"
        }
      ],
      "name": "getUserByAddress",
      "outputs": [
        {
          "components": [
            {
              "name": "creationDate",
              "type": "uint256"
            },
            {
              "name": "firstName",
              "type": "string"
            },
            {
              "name": "lastName",
              "type": "string"
            },
            {
              "name": "memberId",
              "type": "uint256"
            },
            {
              "name": "requestId",
              "type": "uint256"
            },
            {
              "name": "role",
              "type": "string"
            },
            {
              "name": "status",
              "type": "uint8"
            },
            {
              "name": "owner",
              "type": "address"
            }
          ],
          "name": "",
          "type": "tuple"
        }
      ],
      "payable": false,
      "stateMutability": "view",
      "type": "function"
    },
    {
      "constant": true,
      "inputs": [
        {
          "name": "account",
          "type": "address"
        }
      ],
      "name": "isSigner",
      "outputs": [
        {
          "name": "",
          "type": "bool"
        }
      ],
      "payable": false,
      "stateMutability": "view",
      "type": "function"
    },
    {
      "constant": true,
      "inputs": [],
      "name": "getUsersOwner",
      "outputs": [
        {
          "components": [
            {
              "name": "creationDate",
              "type": "uint256"
            },
            {
              "name": "firstName",
              "type": "string"
            },
            {
              "name": "lastName",
              "type": "string"
            },
            {
              "name": "memberId",
              "type": "uint256"
            },
            {
              "name": "requestId",
              "type": "uint256"
            },
            {
              "name": "role",
              "type": "string"
            },
            {
              "name": "status",
              "type": "uint8"
            },
            {
              "name": "owner",
              "type": "address"
            }
          ],
          "name": "",
          "type": "tuple[]"
        }
      ],
      "payable": false,
      "stateMutability": "view",
      "type": "function"
    },
    {
      "constant": true,
      "inputs": [],
      "name": "getMembers",
      "outputs": [
        {
          "components": [
            {
              "name": "memberId",
              "type": "uint256"
            },
            {
              "name": "creationDate",
              "type": "uint256"
            },
            {
              "name": "name",
              "type": "string"
            },
            {
              "name": "logo",
              "type": "string"
            },
            {
              "name": "country",
              "type": "string"
            },
            {
              "name": "cmo",
              "type": "string"
            },
            {
              "name": "theme",
              "type": "string"
            },
            {
              "name": "claimInbox",
              "type": "uint256[]"
            },
            {
              "name": "claims",
              "type": "uint256[]"
            },
            {
              "name": "userRequests",
              "type": "address[]"
            }
          ],
          "name": "",
          "type": "tuple[]"
        }
      ],
      "payable": false,
      "stateMutability": "view",
      "type": "function"
    },
    {
      "constant": false,
      "inputs": [
        {
          "name": "_creationDate",
          "type": "uint256"
        },
        {
          "name": "_claimData",
          "type": "bytes"
        },
        {
          "name": "_claimType",
          "type": "uint256"
        },
        {
          "name": "_memberReceptor",
          "type": "uint256"
        }
      ],
      "name": "registerClaim",
      "outputs": [],
      "payable": false,
      "stateMutability": "nonpayable",
      "type": "function"
    },
    {
      "constant": true,
      "inputs": [],
      "name": "getcountUsers",
      "outputs": [
        {
          "name": "",
          "type": "uint256"
        }
      ],
      "payable": false,
      "stateMutability": "view",
      "type": "function"
    },
    {
      "constant": false,
      "inputs": [
        {
          "name": "_creationDate",
          "type": "uint256"
        },
        {
          "name": "_firstName",
          "type": "string"
        },
        {
          "name": "_lastName",
          "type": "string"
        },
        {
          "name": "_role",
          "type": "string"
        },
        {
          "name": "_memberId",
          "type": "uint256"
        }
      ],
      "name": "registerUserRequest",
      "outputs": [],
      "payable": false,
      "stateMutability": "nonpayable",
      "type": "function"
    },
    {
      "constant": true,
      "inputs": [],
      "name": "getCount",
      "outputs": [
        {
          "name": "",
          "type": "uint256"
        }
      ],
      "payable": false,
      "stateMutability": "view",
      "type": "function"
    },
    {
      "constant": true,
      "inputs": [
        {
          "name": "_page",
          "type": "uint256"
        }
      ],
      "name": "getClaimsByMemberId",
      "outputs": [
        {
          "components": [
            {
              "name": "creationDate",
              "type": "uint256"
            },
            {
              "name": "claimId",
              "type": "uint256"
            },
            {
              "components": [
                {
                  "name": "name",
                  "type": "string"
                },
                {
                  "name": "value",
                  "type": "string"
                }
              ],
              "name": "claimData",
              "type": "tuple[]"
            },
            {
              "name": "claimType",
              "type": "uint8"
            },
            {
              "name": "memberOwner",
              "type": "uint256"
            },
            {
              "name": "memberReceptor",
              "type": "uint256"
            },
            {
              "name": "messageLog",
              "type": "string[]"
            },
            {
              "name": "status",
              "type": "uint8"
            },
            {
              "name": "lastChange",
              "type": "uint256"
            }
          ],
          "name": "",
          "type": "tuple[]"
        }
      ],
      "payable": false,
      "stateMutability": "view",
      "type": "function"
    },
    {
      "constant": true,
      "inputs": [],
      "name": "getMe",
      "outputs": [
        {
          "components": [
            {
              "name": "creationDate",
              "type": "uint256"
            },
            {
              "name": "firstName",
              "type": "string"
            },
            {
              "name": "lastName",
              "type": "string"
            },
            {
              "name": "memberId",
              "type": "uint256"
            },
            {
              "name": "requestId",
              "type": "uint256"
            },
            {
              "name": "role",
              "type": "string"
            },
            {
              "name": "status",
              "type": "uint8"
            },
            {
              "name": "owner",
              "type": "address"
            }
          ],
          "name": "",
          "type": "tuple"
        }
      ],
      "payable": false,
      "stateMutability": "view",
      "type": "function"
    },
    {
      "constant": true,
      "inputs": [
        {
          "name": "_page",
          "type": "uint256"
        }
      ],
      "name": "getMembers",
      "outputs": [
        {
          "components": [
            {
              "name": "memberId",
              "type": "uint256"
            },
            {
              "name": "creationDate",
              "type": "uint256"
            },
            {
              "name": "name",
              "type": "string"
            },
            {
              "name": "logo",
              "type": "string"
            },
            {
              "name": "country",
              "type": "string"
            },
            {
              "name": "cmo",
              "type": "string"
            },
            {
              "name": "theme",
              "type": "string"
            },
            {
              "name": "claimInbox",
              "type": "uint256[]"
            },
            {
              "name": "claims",
              "type": "uint256[]"
            },
            {
              "name": "userRequests",
              "type": "address[]"
            }
          ],
          "name": "",
          "type": "tuple[]"
        }
      ],
      "payable": false,
      "stateMutability": "view",
      "type": "function"
    },
    {
      "constant": false,
      "inputs": [
        {
          "name": "_claimId",
          "type": "uint256"
        },
        {
          "name": "_claimData",
          "type": "bytes"
        },
        {
          "name": "_lastChange",
          "type": "uint256"
        }
      ],
      "name": "updateClaim",
      "outputs": [],
      "payable": false,
      "stateMutability": "nonpayable",
      "type": "function"
    },
    {
      "constant": false,
      "inputs": [],
      "name": "renounceSigner",
      "outputs": [],
      "payable": false,
      "stateMutability": "nonpayable",
      "type": "function"
    },
    {
      "constant": false,
      "inputs": [
        {
          "name": "_claimId",
          "type": "uint256"
        },
        {
          "name": "_status",
          "type": "uint256"
        },
        {
          "name": "_messageLog",
          "type": "string"
        },
        {
          "name": "_lastChange",
          "type": "uint256"
        }
      ],
      "name": "changeState",
      "outputs": [],
      "payable": false,
      "stateMutability": "nonpayable",
      "type": "function"
    },
    {
      "constant": false,
      "inputs": [
        {
          "name": "account",
          "type": "address"
        }
      ],
      "name": "addSigner",
      "outputs": [],
      "payable": false,
      "stateMutability": "nonpayable",
      "type": "function"
    },
    {
      "constant": false,
      "inputs": [
        {
          "name": "_creationDate",
          "type": "uint256"
        },
        {
          "name": "_name",
          "type": "string"
        },
        {
          "name": "_logo",
          "type": "string"
        },
        {
          "name": "_country",
          "type": "string"
        },
        {
          "name": "_cmo",
          "type": "string"
        },
        {
          "name": "_theme",
          "type": "string"
        }
      ],
      "name": "addMember",
      "outputs": [
        {
          "name": "",
          "type": "uint256"
        }
      ],
      "payable": false,
      "stateMutability": "nonpayable",
      "type": "function"
    },
    {
      "constant": false,
      "inputs": [
        {
          "name": "_firstName",
          "type": "string"
        },
        {
          "name": "_lastName",
          "type": "string"
        },
        {
          "name": "_memberId",
          "type": "uint256"
        },
        {
          "name": "_role",
          "type": "string"
        },
        {
          "name": "owner",
          "type": "address"
        }
      ],
      "name": "updateUser",
      "outputs": [],
      "payable": false,
      "stateMutability": "nonpayable",
      "type": "function"
    },
    {
      "constant": false,
      "inputs": [
        {
          "name": "account",
          "type": "address"
        }
      ],
      "name": "whitelistAdmin",
      "outputs": [],
      "payable": false,
      "stateMutability": "nonpayable",
      "type": "function"
    },
    {
      "anonymous": false,
      "inputs": [
        {
          "indexed": true,
          "name": "account",
          "type": "address"
        }
      ],
      "name": "SignerAdded",
      "type": "event"
    },
    {
      "anonymous": false,
      "inputs": [
        {
          "indexed": true,
          "name": "account",
          "type": "address"
        }
      ],
      "name": "SignerRemoved",
      "type": "event"
    },
    {
      "constant": false,
      "inputs": [
        {
          "name": "_cmo",
          "type": "string"
        }
      ],
      "name": "addCMO",
      "outputs": [],
      "payable": false,
      "stateMutability": "nonpayable",
      "type": "function"
    },
    {
      "constant": false,
      "inputs": [
        {
          "name": "_index",
          "type": "uint256"
        }
      ],
      "name": "deleteCMO",
      "outputs": [],
      "payable": false,
      "stateMutability": "nonpayable",
      "type": "function"
    },
    {
      "constant": true,
      "inputs": [],
      "name": "getCMOs",
      "outputs": [
        {
          "name": "",
          "type": "string[]"
        }
      ],
      "payable": false,
      "stateMutability": "view",
      "type": "function"
    }
  ],
  "bytecode": "0x608060405262000018336401000000006200001e810204565b62000103565b62000039600082640100000000620044916200007082021704565b604051600160a060020a038216907f47d1c22a25bb3a5d4e481b9b1e6944c2eade3181a0a20b495ed61d35b5323f2490600090a250565b600160a060020a03811615156200008657600080fd5b6200009b8282640100000000620000cb810204565b15620000a657600080fd5b600160a060020a0316600090815260209190915260409020805460ff19166001179055565b6000600160a060020a0382161515620000e357600080fd5b50600160a060020a03166000908152602091909152604090205460ff1690565b615e1e80620001136000396000f30060806040526004361061015e5763ffffffff7c010000000000000000000000000000000000000000000000000000000060003504166308bdc24d81146101635780631be8850b146101855780633a59ccf1146101b05780634dc92885146101d05780635aef2447146101f05780635d73ab9a1461021d578063656d561c1461024a57806365ff0c481461026c57806369c212f61461028c5780637df73e27146102b9578063932191be146102e65780639eab5253146102fb578063a42e28db1461031d578063a4fdc5941461033d578063a7ed1fe414610352578063a87d942c14610372578063b6bc381214610387578063bf3d007e146103b4578063c11e1ff3146103d4578063c477ecab146103e9578063cb68b9e814610409578063e5c8b03d14610429578063e9f468bc1461043e578063eb12d61e1461045e578063fa1188c61461047e578063fcfbde5b1461049e578063ff240fce146104be575b600080fd5b34801561016f57600080fd5b5061018361017e366004614b67565b6104de565b005b34801561019157600080fd5b5061019a61067a565b6040516101a79190615cfc565b60405180910390f35b3480156101bc57600080fd5b506101836101cb366004614b8d565b610697565b3480156101dc57600080fd5b506101836101eb366004614b67565b6106f4565b3480156101fc57600080fd5b5061021061020b366004614c7e565b610858565b6040516101a79190615cda565b34801561022957600080fd5b5061023d610238366004614c7e565b610bcc565b6040516101a79190615b4b565b34801561025657600080fd5b5061025f610fa7565b6040516101a79190615b18565b34801561027857600080fd5b50610183610287366004614f29565b611080565b34801561029857600080fd5b506102ac6102a7366004614b67565b61110f565b6040516101a79190615ceb565b3480156102c557600080fd5b506102d96102d4366004614b67565b611363565b6040516101a79190615b5c565b3480156102f257600080fd5b5061023d61137b565b34801561030757600080fd5b50610310611666565b6040516101a79190615b3a565b34801561032957600080fd5b50610183610338366004614d01565b611b2d565b34801561034957600080fd5b5061019a611c4c565b34801561035e57600080fd5b5061018361036d366004614e79565b611d11565b34801561037e57600080fd5b5061019a611dd8565b34801561039357600080fd5b506103a76103a2366004614c7e565b611df5565b6040516101a79190615b29565b3480156103c057600080fd5b506101836103cf366004614c7e565b612209565b3480156103e057600080fd5b506102ac6122c7565b3480156103f557600080fd5b50610310610404366004614c7e565b612358565b34801561041557600080fd5b50610183610424366004614c9c565b612873565b34801561043557600080fd5b50610183612a4a565b34801561044a57600080fd5b5061018361045936600461503d565b612a55565b34801561046a57600080fd5b50610183610479366004614b67565b612cf7565b34801561048a57600080fd5b5061019a610499366004614d7a565b612d14565b3480156104aa57600080fd5b506101836104b9366004614bc2565b612da3565b3480156104ca57600080fd5b506101836104d9366004614b67565b612e91565b600160a060020a0381811660009081526003602052604081206006015461010090049091161161052c5760405160e560020a62461bcd02815260040161052390615bca565b60405180910390fd5b600160a060020a0381166000908152600360208190526040808320820154338452922001541480610561575061056133611363565b15156105825760405160e560020a62461bcd02815260040161052390615bda565b60023360009081526003602052604090206006015460ff1660028111156105a557fe5b14806105b557506105b533611363565b15156105d65760405160e560020a62461bcd02815260040161052390615c8a565b6001600160a060020a03821660009081526003602052604090206006015460ff16600281111561060257fe5b146106225760405160e560020a62461bcd02815260040161052390615b9a565b600160a060020a038116600090815260036020526040902060060180546002919060ff19166001835b0217905550600160a060020a038116600090815260036020819052604090912001546106779082612f65565b50565b6000806106856130d4565b9050610690816130eb565b91505b5090565b6106a033611363565b15156106ab57600080fd5b600680546001810180835560009290925282516106ef917ff652222313e28459528d920b65115c16c04f3efc82aaedc97be59f3f377c0d3f01906020850190614699565b505050565b600160a060020a038181166000908152600360205260408120600601546101009004909116116107395760405160e560020a62461bcd02815260040161052390615bca565b600160a060020a038116600090815260036020819052604080832082015433845292200154148061076e575061076e33611363565b151561078f5760405160e560020a62461bcd02815260040161052390615bda565b60023360009081526003602052604090206006015460ff1660028111156107b257fe5b14806107c257506107c233611363565b15156107e35760405160e560020a62461bcd02815260040161052390615c8a565b6001600160a060020a03821660009081526003602052604090206006015460ff16600281111561080f57fe5b1461082f5760405160e560020a62461bcd02815260040161052390615bea565b600160a060020a0381166000908152600360205260408120600601805460ff191660018361064b565b610860614713565b816108696130d4565b600082815260056020526040902060040154148061089f575061088a6130d4565b60008281526005602081905260409091200154145b15156108c05760405160e560020a62461bcd02815260040161052390615c2a565b600560008481526020019081526020016000206101206040519081016040529081600082015481526020016001820154815260200160028201805480602002602001604051908101604052809291908181526020016000905b82821015610a775760008481526020908190206040805160028681029093018054600181161561010002600019011693909304601f8101859004909402810160609081018352918101848152909384928491908401828280156109bd5780601f10610992576101008083540402835291602001916109bd565b820191906000526020600020905b8154815290600101906020018083116109a057829003601f168201915b50505050508152602001600182018054600181600116156101000203166002900480601f016020809104026020016040519081016040528092919081815260200182805460018160011615610100020316600290048015610a5f5780601f10610a3457610100808354040283529160200191610a5f565b820191906000526020600020905b815481529060010190602001808311610a4257829003601f168201915b50505050508152505081526020019060010190610919565b50505090825250600382015460209091019060ff166001811115610a9757fe5b6001811115610aa257fe5b8152602001600482015481526020016005820154815260200160068201805480602002602001604051908101604052809291908181526020016000905b82821015610b8a5760008481526020908190208301805460408051601f6002600019610100600187161502019094169390930492830185900485028101850190915281815292830182828015610b765780601f10610b4b57610100808354040283529160200191610b76565b820191906000526020600020905b815481529060010190602001808311610b5957829003601f168201915b505050505081526020019060010190610adf565b50505090825250600782015460209091019060ff166001811115610baa57fe5b6001811115610bb557fe5b815260200160088201548152505091505b50919050565b606060008060006060600080610be0611c4c565b9550610bed600a89613100565b600454909550610bfe90600a613139565b9350851580610c0c57508585115b80610c1657508388115b15610c2057610f9c565b60408051600a808252610160820190925290816020015b610c3f614776565b815260200190600190039081610c37579050509250600091508490505b600454811015610f985733600090815260036020819052604082208101546004805491939185908110610c8b57fe5b6000918252602080832090910154600160a060020a03168352820192909252604001902060030154148015610d085750600260036000600484815481101515610cd057fe5b6000918252602080832090910154600160a060020a0316835282019290925260400190206006015460ff166002811115610d0657fe5b145b15610f905760036000600483815481101515610d2057fe5b600091825260208083209190910154600160a060020a0316835282810193909352604091820190208151610100808201845282548252600180840180548651600293821615909402600019011691909104601f81018790048702830187019095528482529194929385840193919291830182828015610de05780601f10610db557610100808354040283529160200191610de0565b820191906000526020600020905b815481529060010190602001808311610dc357829003601f168201915b5050509183525050600282810180546040805160206001841615610100026000190190931694909404601f81018390048302850183019091528084529381019390830182828015610e725780601f10610e4757610100808354040283529160200191610e72565b820191906000526020600020905b815481529060010190602001808311610e5557829003601f168201915b505050505081526020016003820154815260200160048201548152602001600582018054600181600116156101000203166002900480601f016020809104026020016040519081016040528092919081815260200182805460018160011615610100020316600290048015610f285780601f10610efd57610100808354040283529160200191610f28565b820191906000526020600020905b815481529060010190602001808311610f0b57829003601f168201915b5050509183525050600682015460209091019060ff166002811115610f4957fe5b6002811115610f5457fe5b8152600691909101546101009004600160a060020a03166020909101528351849084908110610f7f57fe5b602090810290910101526001909101905b600101610c5c565b8296505b505050505050919050565b60606006805480602002602001604051908101604052809291908181526020016000905b828210156110765760008481526020908190208301805460408051601f60026000196101006001871615020190941693909304928301859004850281018501909152818152928301828280156110625780601f1061103757610100808354040283529160200191611062565b820191906000526020600020905b81548152906001019060200180831161104557829003601f168201915b505050505081526020019060010190610fcb565b5050505090505b90565b61108933611363565b151561109457600080fd5b600087815260016020526040812054116110c35760405160e560020a62461bcd02815260040161052390615c5a565b6000878152600160208190526040909120015486146110f75760405160e560020a62461bcd02815260040161052390615b6a565b6111068787878787878761315c565b50505050505050565b611117614776565b600160a060020a0382166000908152600360209081526040918290208251610100808201855282548252600180840180548751600293821615909402600019011691909104601f81018690048602830186019096528582529194929385810193919291908301828280156111cc5780601f106111a1576101008083540402835291602001916111cc565b820191906000526020600020905b8154815290600101906020018083116111af57829003601f168201915b5050509183525050600282810180546040805160206001841615610100026000190190931694909404601f8101839004830285018301909152808452938101939083018282801561125e5780601f106112335761010080835404028352916020019161125e565b820191906000526020600020905b81548152906001019060200180831161124157829003601f168201915b505050505081526020016003820154815260200160048201548152602001600582018054600181600116156101000203166002900480601f0160208091040260200160405190810160405280929190818152602001828054600181600116156101000203166002900480156113145780601f106112e957610100808354040283529160200191611314565b820191906000526020600020905b8154815290600101906020018083116112f757829003601f168201915b5050509183525050600682015460209091019060ff16600281111561133557fe5b600281111561134057fe5b8152600691909101546101009004600160a060020a031660209091015292915050565b6000611375818363ffffffff61375516565b92915050565b606080600061138933611363565b151561139457600080fd5b6004546040805182815260208084028201019091529080156113d057816020015b6113bd614776565b8152602001906001900390816113b55790505b509150600090505b600454811015610bc657600360006004838154811015156113f557fe5b600091825260208083209190910154600160a060020a0316835282810193909352604091820190208151610100808201845282548252600180840180548651600293821615909402600019011691909104601f810187900487028301870190955284825291949293858401939192918301828280156114b55780601f1061148a576101008083540402835291602001916114b5565b820191906000526020600020905b81548152906001019060200180831161149857829003601f168201915b5050509183525050600282810180546040805160206001841615610100026000190190931694909404601f810183900483028501830190915280845293810193908301828280156115475780601f1061151c57610100808354040283529160200191611547565b820191906000526020600020905b81548152906001019060200180831161152a57829003601f168201915b505050505081526020016003820154815260200160048201548152602001600582018054600181600116156101000203166002900480601f0160208091040260200160405190810160405280929190818152602001828054600181600116156101000203166002900480156115fd5780601f106115d2576101008083540402835291602001916115fd565b820191906000526020600020905b8154815290600101906020018083116115e057829003601f168201915b5050509183525050600682015460209091019060ff16600281111561161e57fe5b600281111561162957fe5b8152600691909101546101009004600160a060020a0316602090910152825183908390811061165457fe5b602090810290910101526001016113d8565b60608060006002805490506040519080825280602002602001820160405280156116aa57816020015b6116976147c7565b81526020019060019003908161168f5790505b509150600090505b600254811015610bc657600160006002838154811015156116cf57fe5b9060005260206000200154815260200190815260200160002061014060405190810160405290816000820154815260200160018201548152602001600282018054600181600116156101000203166002900480601f0160208091040260200160405190810160405280929190818152602001828054600181600116156101000203166002900480156117a25780601f10611777576101008083540402835291602001916117a2565b820191906000526020600020905b81548152906001019060200180831161178557829003601f168201915b505050918352505060038201805460408051602060026001851615610100026000190190941693909304601f81018490048402820184019092528181529382019392918301828280156118365780601f1061180b57610100808354040283529160200191611836565b820191906000526020600020905b81548152906001019060200180831161181957829003601f168201915b505050918352505060048201805460408051602060026001851615610100026000190190941693909304601f81018490048402820184019092528181529382019392918301828280156118ca5780601f1061189f576101008083540402835291602001916118ca565b820191906000526020600020905b8154815290600101906020018083116118ad57829003601f168201915b505050918352505060058201805460408051602060026001851615610100026000190190941693909304601f810184900484028201840190925281815293820193929183018282801561195e5780601f106119335761010080835404028352916020019161195e565b820191906000526020600020905b81548152906001019060200180831161194157829003601f168201915b505050918352505060068201805460408051602060026001851615610100026000190190941693909304601f81018490048402820184019092528181529382019392918301828280156119f25780601f106119c7576101008083540402835291602001916119f2565b820191906000526020600020905b8154815290600101906020018083116119d557829003601f168201915b5050505050815260200160078201805480602002602001604051908101604052809291908181526020018280548015611a4a57602002820191906000526020600020905b815481526020019060010190808311611a36575b5050505050815260200160088201805480602002602001604051908101604052809291908181526020018280548015611aa257602002820191906000526020600020905b815481526020019060010190808311611a8e575b5050505050815260200160098201805480602002602001604051908101604052809291908181526020018280548015611b0457602002820191906000526020600020905b8154600160a060020a03168152600190910190602001808311611ae6575b5050505050815250508282815181101515611b1b57fe5b602090810290910101526001016116b2565b6000806060818711611b545760405160e560020a62461bcd02815260040161052390615cca565b600085101580611b65575060018511155b1515611b865760405160e560020a62461bcd02815260040161052390615cba565b611b8f8761378c565b60008181526005602052604090206001015490935015611bc45760405160e560020a62461bcd02815260040161052390615b8a565b611bcd8461397b565b1515611bee5760405160e560020a62461bcd02815260040161052390615c3a565b611bf66130d4565b60408051600080825260208201909252919350611c23565b6060815260200190600190039081611c0e5790505b509050611c388388888886898760018f61398e565b611c428284613b9d565b6111068484613bc2565b600080805b600454811015610bc65733600090815260036020819052604082208101546004805491939185908110611c8057fe5b6000918252602080832090910154600160a060020a03168352820192909252604001902060030154148015611cfd5750600260036000600484815481101515611cc557fe5b6000918252602080832090910154600160a060020a0316835282019290925260400190206006015460ff166002811115611cfb57fe5b145b15611d09576001909101905b600101611c51565b6000811515611d355760405160e560020a62461bcd02815260040161052390615caa565b60008611611d585760405160e560020a62461bcd02815260040161052390615cca565b3360009081526003602052604090205415611d885760405160e560020a62461bcd02815260040161052390615bba565b611d918261397b565b1515611db25760405160e560020a62461bcd02815260040161052390615c5a565b611dbb8661378c565b9050611dd08686868585886001336000613be7565b505050505050565b6000611de333611363565b1515611dee57600080fd5b5060025490565b6060600080600080606080600080611e0e600a8b613100565b9750611e186130d4565b9650611e23876130eb565b9550611e3086600a613139565b9450851580611e4157506001860388115b80611e4b5750848a115b15611e55576121fc565b611e5e8761403b565b60408051600a8082526101608201909252919550816020015b611e7f614713565b815260200190600190039081611e77579050509250600091508790505b83518110156121f857600a8210156121eb57600560008583815181101515611ec057fe5b9060200190602002015181526020019081526020016000206101206040519081016040529081600082015481526020016001820154815260200160028201805480602002602001604051908101604052809291908181526020016000905b8282101561207c5760008481526020908190206040805160028681029093018054600181161561010002600019011693909304601f810185900490940281016060908101835291810184815290938492849190840182828015611fc25780601f10611f9757610100808354040283529160200191611fc2565b820191906000526020600020905b815481529060010190602001808311611fa557829003601f168201915b50505050508152602001600182018054600181600116156101000203166002900480601f0160208091040260200160405190810160405280929190818152602001828054600181600116156101000203166002900480156120645780601f1061203957610100808354040283529160200191612064565b820191906000526020600020905b81548152906001019060200180831161204757829003601f168201915b50505050508152505081526020019060010190611f1e565b50505090825250600382015460209091019060ff16600181111561209c57fe5b60018111156120a757fe5b8152602001600482015481526020016005820154815260200160068201805480602002602001604051908101604052809291908181526020016000905b8282101561218f5760008481526020908190208301805460408051601f600260001961010060018716150201909416939093049283018590048502810185019091528181529283018282801561217b5780601f106121505761010080835404028352916020019161217b565b820191906000526020600020905b81548152906001019060200180831161215e57829003601f168201915b5050505050815260200190600101906120e4565b50505090825250600782015460209091019060ff1660018111156121af57fe5b60018111156121ba57fe5b815260200160088201548152505083838151811015156121d657fe5b602090810290910101526001909101906121f0565b6121f8565b600101611e9c565b8298505b5050505050505050919050565b600061221433611363565b151561221f57600080fd5b50805b6006546000190181101561228c57600680546001830190811061224157fe5b9060005260206000200160068281548110151561225a57fe5b90600052602060002001908054600181600116156101000203166002900461228392919061481b565b50600101612222565b60068054600019810190811061229e57fe5b9060005260206000200160006122b49190614890565b60068054906106ef9060001983016148d4565b6122cf614776565b6122d7614776565b336000908152600360209081526040918290208251610100808201855282548252600180840180548751600293821615909402600019011691909104601f81018690048602830186019096528582529194929385810193919291908301828280156111cc5780601f106111a1576101008083540402835291602001916111cc565b606060008060006060600061236e600a88613100565b60025490955061237f90600a613139565b600254909450158061239657506002546000190185115b806123a057508387115b156123aa57612869565b60408051600a80825261016082019092526000945090816020015b6123cd6147c7565b8152602001906001900390816123c55790505091508490505b600254811015612865576001600060028381548110151561240357fe5b9060005260206000200154815260200190815260200160002061014060405190810160405290816000820154815260200160018201548152602001600282018054600181600116156101000203166002900480601f0160208091040260200160405190810160405280929190818152602001828054600181600116156101000203166002900480156124d65780601f106124ab576101008083540402835291602001916124d6565b820191906000526020600020905b8154815290600101906020018083116124b957829003601f168201915b505050918352505060038201805460408051602060026001851615610100026000190190941693909304601f810184900484028201840190925281815293820193929183018282801561256a5780601f1061253f5761010080835404028352916020019161256a565b820191906000526020600020905b81548152906001019060200180831161254d57829003601f168201915b505050918352505060048201805460408051602060026001851615610100026000190190941693909304601f81018490048402820184019092528181529382019392918301828280156125fe5780601f106125d3576101008083540402835291602001916125fe565b820191906000526020600020905b8154815290600101906020018083116125e157829003601f168201915b505050918352505060058201805460408051602060026001851615610100026000190190941693909304601f81018490048402820184019092528181529382019392918301828280156126925780601f1061266757610100808354040283529160200191612692565b820191906000526020600020905b81548152906001019060200180831161267557829003601f168201915b505050918352505060068201805460408051602060026001851615610100026000190190941693909304601f81018490048402820184019092528181529382019392918301828280156127265780601f106126fb57610100808354040283529160200191612726565b820191906000526020600020905b81548152906001019060200180831161270957829003601f168201915b505050505081526020016007820180548060200260200160405190810160405280929190818152602001828054801561277e57602002820191906000526020600020905b81548152602001906001019080831161276a575b50505050508152602001600882018054806020026020016040519081016040528092919081815260200182805480156127d657602002820191906000526020600020905b8154815260200190600101908083116127c2575b505050505081526020016009820180548060200260200160405190810160405280929190818152602001828054801561283857602002820191906000526020600020905b8154600160a060020a0316815260019091019060200180831161281a575b505050505081525050828481518110151561284f57fe5b60209081029091010152600192830192016123e6565b8195505b5050505050919050565b8261287c6130d4565b60008281526005602052604090206004015414806128b2575061289d6130d4565b60008281526005602081905260409091200154145b15156128d35760405160e560020a62461bcd02815260040161052390615c2a565b600084815260056020526040812060010154116129055760405160e560020a62461bcd02815260040161052390615c0a565b60008481526005602052604090208054600390910154612a44918691869060ff16600181111561293157fe5b6000898152600560208181526040808420600481015493810154600690910180548351818602810186019094528084529495919492939092919084015b82821015612a195760008481526020908190208301805460408051601f6002600019610100600187161502019094169390930492830185900485028101850190915281815292830182828015612a055780601f106129da57610100808354040283529160200191612a05565b820191906000526020600020905b8154815290600101906020018083116129e857829003601f168201915b50505050508152602001906001019061296e565b50505060008d81526005602052604090206007015460ff1690506001811115612a3e57fe5b8a61398e565b50505050565b612a53336140d0565b565b82600081101580612a67575060018111155b1515612a885760405160e560020a62461bcd02815260040161052390615baa565b60008581526005602052604081206001015411612aba5760405160e560020a62461bcd02815260040161052390615c0a565b836001811115612ac657fe5b6001811115612ad157fe5b60008681526005602052604090206007015460ff166001811115612af157fe5b14612b7057831515612b1e57600085815260056020526040902060040154612b199086614118565b612b3a565b600085815260056020526040902060040154612b3a9086613bc2565b836001811115612b4657fe5b6000868152600560205260409020600701805460ff191660018381811115612b6a57fe5b02179055505b604080516000815260208101918290528051909190819081908082805b60208310612bac5780518252601f199092019160209182019101612b8d565b51815160209384036101000a60001901801990921691161790526040519190930181900381208851909550889450908301928392508401908083835b60208310612c075780518252601f199092019160209182019101612be8565b6001836020036101000a0380198251168184511680821785525050505050509050019150506040516020818303038152906040526040518082805190602001908083835b60208310612c6a5780518252601f199092019160209182019101612c4b565b6001836020036101000a038019825116818451168082178552505050505050905001915050604051809103902060001916141515612cdc57600085815260056020908152604082206006018054600181018083559184529282902086519193612cd99391019190870190614699565b50505b50600093845260056020526040909320600801929092555050565b612d0033611363565b1515612d0b57600080fd5b6106778161422b565b600080612d2033611363565b1515612d2b57600080fd5b60008811612d4e5760405160e560020a62461bcd02815260040161052390615cca565b612d578861378c565b60008181526001602052604090205490915015612d895760405160e560020a62461bcd02815260040161052390615c4a565b612d988189898989898961315c565b979650505050505050565b600160a060020a03818116600090815260036020526040812060060154909182918291610100909104168110612dee5760405160e560020a62461bcd02815260040161052390615bca565b6002600160a060020a03851660009081526003602052604090206006015460ff166002811115612e1a57fe5b14612e3a5760405160e560020a62461bcd02815260040161052390615c8a565b600160a060020a03841660009081526003602052604090206004810154815460069092015490945090925060ff166002811115612e7357fe5b9050612e8782898989878a878b6001613be7565b5050505050505050565b612e9a33611363565b1515612ea557600080fd5b600160a060020a03811660009081526003602081905260409091200154612ecc9082612f65565b604080518082018252600b81527f53757065722061646d696e0000000000000000000000000000000000000000006020808301918252600160a060020a03851660009081526003909152929092209051612f2c9260059092019190614699565b50600160a060020a0381166000908152600360208190526040822090810191909155600601805460ff1916600217905561067781612cf7565b6000805b600084815260016020526040902060090154600019018110156130655760008481526001602052604090206009018054600160a060020a038516919083908110612faf57fe5b600091825260209091200154600160a060020a03161415612fcf57600191505b811561305d576000848152600160208190526040909120600901805490918301908110612ff857fe5b6000918252602080832090910154868352600190915260409091206009018054600160a060020a03909216918390811061302e57fe5b9060005260206000200160006101000a815481600160a060020a030219169083600160a060020a031602179055505b600101612f69565b60008481526001602052604090206009018054600019810190811061308657fe5b60009182526020808320909101805473ffffffffffffffffffffffffffffffffffffffff1916905585825260019052604090206009018054906130cd9060001983016148f8565b5050505050565b336000908152600360208190526040909120015490565b60009081526001602052604090206008015490565b6000808315156131135760009150613132565b5082820282848281151561312357fe5b041461312e57600080fd5b8091505b5092915050565b60008080831161314857600080fd5b828481151561315357fe5b04949350505050565b6131646147c7565b855115156131875760405160e560020a62461bcd02815260040161052390615c9a565b825115156131aa5760405160e560020a62461bcd02815260040161052390615c7a565b815115156131cd5760405160e560020a62461bcd02815260040161052390615c6a565b6000888152600160208181526040928390208351610140810185528154815281840154818401526002808301805487519681161561010002600019011691909104601f81018590048502860185018752808652919592949286019390919083018282801561327c5780601f106132515761010080835404028352916020019161327c565b820191906000526020600020905b81548152906001019060200180831161325f57829003601f168201915b505050918352505060038201805460408051602060026001851615610100026000190190941693909304601f81018490048402820184019092528181529382019392918301828280156133105780601f106132e557610100808354040283529160200191613310565b820191906000526020600020905b8154815290600101906020018083116132f357829003601f168201915b505050918352505060048201805460408051602060026001851615610100026000190190941693909304601f81018490048402820184019092528181529382019392918301828280156133a45780601f10613379576101008083540402835291602001916133a4565b820191906000526020600020905b81548152906001019060200180831161338757829003601f168201915b505050918352505060058201805460408051602060026001851615610100026000190190941693909304601f81018490048402820184019092528181529382019392918301828280156134385780601f1061340d57610100808354040283529160200191613438565b820191906000526020600020905b81548152906001019060200180831161341b57829003601f168201915b505050918352505060068201805460408051602060026001851615610100026000190190941693909304601f81018490048402820184019092528181529382019392918301828280156134cc5780601f106134a1576101008083540402835291602001916134cc565b820191906000526020600020905b8154815290600101906020018083116134af57829003601f168201915b505050505081526020016007820180548060200260200160405190810160405280929190818152602001828054801561352457602002820191906000526020600020905b815481526020019060010190808311613510575b505050505081526020016008820180548060200260200160405190810160405280929190818152602001828054801561357c57602002820191906000526020600020905b815481526020019060010190808311613568575b50505050508152602001600982018054806020026020016040519081016040528092919081815260200182805480156135de57602002820191906000526020600020905b8154600160a060020a031681526001909101906020018083116135c0575b50505091909252505050888152602080820189815260408084018a8152606085018a90526080850189905260a0850188905260c0850187905260008d81526001808652929020855181559251918301919091555180519394508493919261364d92600285019290910190614699565b5060608201518051613669916003840191602090910190614699565b5060808201518051613685916004840191602090910190614699565b5060a082015180516136a1916005840191602090910190614699565b5060c082015180516136bd916006840191602090910190614699565b5060e082015180516136d991600784019160209091019061491c565b5061010082015180516136f691600884019160209091019061491c565b506101208201518051613713916009840191602090910190614956565b5050600280546001810182556000919091527f405787fa12a823e0f2b7631cc41b3ba8828b3321ca811111fa75cd3aa3bb5ace01989098555050505050505050565b6000600160a060020a038216151561376c57600080fd5b50600160a060020a03166000908152602091909152604090205460ff1690565b600080808060028506151561381e5784604051602001808281526020019150506040516020818303038152906040526040518082805190602001908083835b602083106137ea5780518252601f1990920191602091820191016137cb565b6001836020036101000a03801982511681845116808217855250505050505090500191505060405180910390209250613909565b84604051602001808281526020019150506040516020818303038152906040526040518082805190602001908083835b6020831061386d5780518252601f19909201916020918201910161384e565b51815160209384036101000a600019018019909216911617905260408051929094018290038220828201528351808303820181529184019384905281519195509293508392850191508083835b602083106138d95780518252601f1990920191602091820191016138ba565b6001836020036101000a038019825116818451168082178552505050505050905001915050604051809103902092505b60208110156139365782816020811061391e57fe5b60f860020a91901a8102049190910190600101613909565b82602060028401066020811061394857fe5b60f860020a91901a81020483602084066020811061396257fe5b1a60f860020a0260f860020a9004029350505050919050565b6000908152600160205260408120541190565b6139966149c4565b6060600060606139a58b614273565b93506139b0846142c1565b92508c600560008f8152602001908152602001600020600101819055508b600560008f8152602001908152602001600020600001819055508960018111156139f457fe5b60008e8152600560205260409020600301805460ff191660018381811115613a1857fe5b021790555060008d8152600560205260408120613a3a916002909101906149db565b600091505b8251821015613b1f57613a688383815181101515613a5957fe5b906020019060200201516142c1565b9050600560008e81526020019081526020016000206002016040805190810160405280613aac846000815181101515613a9d57fe5b90602001906020020151614394565b8152602001613ac3846001815181101515613a9d57fe5b90528154600181018084556000938452602093849020835180519295600290940290910192613af792849290910190614699565b506020828101518051613b109260018501920190614699565b50505050816001019150613a3f565b60008d8152600560208181526040909220600481018c90559081018a9055600881018790558851613b58926006909201918a01906149fc565b50856001811115613b6557fe5b60008e8152600560205260409020600701805460ff191660018381811115613b8957fe5b021790555050505050505050505050505050565b6000918252600160208181526040842060080180549283018155845290922090910155565b6000918252600160208181526040842060070180549283018155845290922090910155565b613bef614776565b600084101580613c00575060028411155b1515613c215760405160e560020a62461bcd02815260040161052390615bfa565b84511515613c445760405160e560020a62461bcd02815260040161052390615b7a565b600160a060020a0383166000908152600360209081526040918290208251610100808201855282548252600180840180548751600293821615909402600019011691909104601f8101869004860283018601909652858252919492938581019391929190830182828015613cf95780601f10613cce57610100808354040283529160200191613cf9565b820191906000526020600020905b815481529060010190602001808311613cdc57829003601f168201915b5050509183525050600282810180546040805160206001841615610100026000190190931694909404601f81018390048302850183019091528084529381019390830182828015613d8b5780601f10613d6057610100808354040283529160200191613d8b565b820191906000526020600020905b815481529060010190602001808311613d6e57829003601f168201915b505050505081526020016003820154815260200160048201548152602001600582018054600181600116156101000203166002900480601f016020809104026020016040519081016040528092919081815260200182805460018160011615610100020316600290048015613e415780601f10613e1657610100808354040283529160200191613e41565b820191906000526020600020905b815481529060010190602001808311613e2457829003601f168201915b5050509183525050600682015460209091019060ff166002811115613e6257fe5b6002811115613e6d57fe5b8152600691909101546101009004600160a060020a03166020918201528b825281018a905260408101899052606081018890526080810187905260a081018690529050836002811115613ebc57fe5b8160c001906002811115613ecc57fe5b90816002811115613ed957fe5b905250600160a060020a03831660e082018190526000908152600360209081526040909120825181558183015180518493613f1b926001850192910190614699565b5060408201518051613f37916002840191602090910190614699565b50606082015160038201556080820151600482015560a08201518051613f67916005840191602090910190614699565b5060c082015160068201805460ff19166001836002811115613f8557fe5b021790555060e0919091015160069091018054600160a060020a039092166101000274ffffffffffffffffffffffffffffffffffffffff001990921691909117905581151561402f57600480546001810182556000919091527f8a35acfbc15ff81a39ae7d344fd709f28e8600b4aa8c65c6b64bfe7fe36bd19b01805473ffffffffffffffffffffffffffffffffffffffff1916600160a060020a03851617905561402f87614406565b50505050505050505050565b6000818152600160205260408120546060911061406d5760405160e560020a62461bcd02815260040161052390615c1a565b600082815260016020908152604091829020600801805483518184028101840190945280845290918301828280156140c457602002820191906000526020600020905b8154815260200190600101908083116140b0575b50505050509050919050565b6140e160008263ffffffff61444516565b604051600160a060020a038216907f3525e22824a8a7df2c9a6029941c824cf95b6447f1e13d5128fd3826d35afe8b90600090a250565b6000805b600084815260016020526040902060070154600019018110156141db57600084815260016020526040902060070180548491908390811061415957fe5b9060005260206000200154141561416f57600191505b81156141d357600084815260016020819052604090912060070180549091830190811061419857fe5b906000526020600020015460016000868152602001908152602001600020600701828154811015156141c657fe5b6000918252602090912001555b60010161411c565b6000848152600160205260409020600701805460001981019081106141fc57fe5b6000918252602080832090910182905585825260019052604090206007018054906130cd9060001983016148f8565b61423c60008263ffffffff61449116565b604051600160a060020a038216907f47d1c22a25bb3a5d4e481b9b1e6944c2eade3181a0a20b495ed61d35b5323f2490600090a250565b61427b6149c4565b60008251600014156142a25760408051808201909152600080825260208201529150610bc6565b5050604080518082019091528151815260209182019181019190915290565b60606000806000806142d2866144df565b15156142dd57600080fd5b6142e68661450e565b93508360405190808252806020026020018201604052801561432257816020015b61430f6149c4565b8152602001906001900390816143075790505b509450614332866020015161455e565b8660200151019250600090505b8381101561438b57614350836145c1565b9150604080519081016040528083815260200184815250858281518110151561437557fe5b602090810290910101529181019160010161433f565b50505050919050565b6060600080606060006143aa866020015161455e565b9350838660000151039250826040519080825280601f01601f1916602001820160405280156143e3578160200160208202803883390190505b5091508160200190506143fd848760200151018285614652565b50949350505050565b6000908152600160208181526040832060090180549283018155835290912001805473ffffffffffffffffffffffffffffffffffffffff191633179055565b600160a060020a038116151561445a57600080fd5b6144648282613755565b151561446f57600080fd5b600160a060020a0316600090815260209190915260409020805460ff19169055565b600160a060020a03811615156144a657600080fd5b6144b08282613755565b156144ba57600080fd5b600160a060020a0316600090815260209190915260409020805460ff19166001179055565b6020810151805160009190821a9060c060ff831610156145025760009250614507565b600192505b5050919050565b60008060008060009250614525856020015161455e565b6020860151865191810193500190505b8082101561455557614546826145c1565b60019093019290910190614535565b50909392505050565b8051600090811a60808110156145775760009150610bc6565b60b8811080614592575060c08110801590614592575060f881105b156145a05760019150610bc6565b60c08110156145b55760b51981019150610bc6565b60f51981019150610bc6565b8051600090811a60808110156145da5760019150610bc6565b60b88110156145ef57607e1981019150610bc6565b60c081101561461c5760b78103600184019350806020036101000a84510460018201810193505050610bc6565b60f88110156146315760be1981019150610bc6565b60019290920151602083900360f7016101000a900490910160f51901919050565b60005b60208210614677578351835260209384019390920191601f1990910190614655565b50915181516020939093036101000a6000190180199091169216919091179052565b828054600181600116156101000203166002900490600052602060002090601f016020900481019282601f106146da57805160ff1916838001178555614707565b82800160010185558215614707579182015b828111156147075782518255916020019190600101906146ec565b50610693929150614a55565b610120604051908101604052806000815260200160008152602001606081526020016000600181111561474257fe5b81526020016000815260200160008152602001606081526020016000600181111561476957fe5b8152602001600081525090565b61010060405190810160405280600081526020016060815260200160608152602001600081526020016000815260200160608152602001600060028111156147ba57fe5b8152600060209091015290565b61014060405190810160405280600081526020016000815260200160608152602001606081526020016060815260200160608152602001606081526020016060815260200160608152602001606081525090565b828054600181600116156101000203166002900490600052602060002090601f016020900481019282601f106148545780548555614707565b8280016001018555821561470757600052602060002091601f016020900482015b82811115614707578254825591600101919060010190614875565b50805460018160011615610100020316600290046000825580601f106148b65750610677565b601f0160209004906000526020600020908101906106779190614a55565b8154818355818111156106ef576000838152602090206106ef918101908301614a6f565b8154818355818111156106ef576000838152602090206106ef918101908301614a55565b82805482825590600052602060002090810192821561470757916020028201828111156147075782518255916020019190600101906146ec565b8280548282559060005260206000209081019282156149b8579160200282015b828111156149b8578251825473ffffffffffffffffffffffffffffffffffffffff1916600160a060020a03909116178255602090920191600190910190614976565b50610693929150614a92565b604080518082019091526000808252602082015290565b50805460008255600202906000526020600020908101906106779190614ac3565b828054828255906000526020600020908101928215614a49579160200282015b82811115614a495782518051614a39918491602090910190614699565b5091602001919060010190614a1c565b50610693929150614a6f565b61107d91905b808211156106935760008155600101614a5b565b61107d91905b80821115610693576000614a898282614890565b50600101614a75565b61107d91905b8082111561069357805473ffffffffffffffffffffffffffffffffffffffff19168155600101614a98565b61107d91905b80821115610693576000614add8282614890565b614aeb600183016000614890565b50600201614ac9565b6000614b008235615d63565b9392505050565b6000601f82018313614b1857600080fd5b8135614b2b614b2682615d31565b615d0a565b91508082526020830160208301858383011115614b4757600080fd5b614b52838284615da2565b50505092915050565b6000614b00823561107d565b600060208284031215614b7957600080fd5b6000614b858484614af4565b949350505050565b600060208284031215614b9f57600080fd5b813567ffffffffffffffff811115614bb657600080fd5b614b8584828501614b07565b600080600080600060a08688031215614bda57600080fd5b853567ffffffffffffffff811115614bf157600080fd5b614bfd88828901614b07565b955050602086013567ffffffffffffffff811115614c1a57600080fd5b614c2688828901614b07565b9450506040614c3788828901614b5b565b935050606086013567ffffffffffffffff811115614c5457600080fd5b614c6088828901614b07565b9250506080614c7188828901614af4565b9150509295509295909350565b600060208284031215614c9057600080fd5b6000614b858484614b5b565b600080600060608486031215614cb157600080fd5b6000614cbd8686614b5b565b935050602084013567ffffffffffffffff811115614cda57600080fd5b614ce686828701614b07565b9250506040614cf786828701614b5b565b9150509250925092565b60008060008060808587031215614d1757600080fd5b6000614d238787614b5b565b945050602085013567ffffffffffffffff811115614d4057600080fd5b614d4c87828801614b07565b9350506040614d5d87828801614b5b565b9250506060614d6e87828801614b5b565b91505092959194509250565b60008060008060008060c08789031215614d9357600080fd5b6000614d9f8989614b5b565b965050602087013567ffffffffffffffff811115614dbc57600080fd5b614dc889828a01614b07565b955050604087013567ffffffffffffffff811115614de557600080fd5b614df189828a01614b07565b945050606087013567ffffffffffffffff811115614e0e57600080fd5b614e1a89828a01614b07565b935050608087013567ffffffffffffffff811115614e3757600080fd5b614e4389828a01614b07565b92505060a087013567ffffffffffffffff811115614e6057600080fd5b614e6c89828a01614b07565b9150509295509295509295565b600080600080600060a08688031215614e9157600080fd5b6000614e9d8888614b5b565b955050602086013567ffffffffffffffff811115614eba57600080fd5b614ec688828901614b07565b945050604086013567ffffffffffffffff811115614ee357600080fd5b614eef88828901614b07565b935050606086013567ffffffffffffffff811115614f0c57600080fd5b614f1888828901614b07565b9250506080614c7188828901614b5b565b600080600080600080600060e0888a031215614f4457600080fd5b6000614f508a8a614b5b565b9750506020614f618a828b01614b5b565b965050604088013567ffffffffffffffff811115614f7e57600080fd5b614f8a8a828b01614b07565b955050606088013567ffffffffffffffff811115614fa757600080fd5b614fb38a828b01614b07565b945050608088013567ffffffffffffffff811115614fd057600080fd5b614fdc8a828b01614b07565b93505060a088013567ffffffffffffffff811115614ff957600080fd5b6150058a828b01614b07565b92505060c088013567ffffffffffffffff81111561502257600080fd5b61502e8a828b01614b07565b91505092959891949750929550565b6000806000806080858703121561505357600080fd5b600061505f8787614b5b565b945050602061507087828801614b5b565b935050604085013567ffffffffffffffff81111561508d57600080fd5b614d5d87828801614b07565b6150a281615d63565b82525050565b60006150b382615d5f565b8084526020840193506150c583615d59565b60005b828110156150f5576150db868351615099565b6150e482615d59565b6020969096019591506001016150c8565b5093949350505050565b600061510a82615d5f565b8084526020840193508360208202850161512385615d59565b60005b8481101561515a57838303885261513e838351615395565b925061514982615d59565b602098909801979150600101615126565b50909695505050505050565b600061517182615d5f565b8084526020840193508360208202850161518a85615d59565b60005b8481101561515a5783830388526151a5838351615395565b92506151b082615d59565b60209890980197915060010161518d565b60006151cc82615d5f565b808452602084019350836020820285016151e585615d59565b60005b8481101561515a578383038852615200838351615866565b925061520b82615d59565b6020989098019791506001016151e8565b600061522782615d5f565b8084526020840193508360208202850161524085615d59565b60005b8481101561515a57838303885261525b83835161592b565b925061526682615d59565b602098909801979150600101615243565b600061528282615d5f565b8084526020840193508360208202850161529b85615d59565b60005b8481101561515a5783830388526152b6838351615a2e565b92506152c182615d59565b60209890980197915060010161529e565b60006152dd82615d5f565b808452602084019350836020820285016152f685615d59565b60005b8481101561515a578383038852615311838351615a60565b925061531c82615d59565b6020989098019791506001016152f9565b600061533882615d5f565b80845260208401935061534a83615d59565b60005b828110156150f557615360868351615b0f565b61536982615d59565b60209690960195915060010161534d565b6150a281615d6f565b6150a281615d8c565b6150a281615d97565b60006153a082615d5f565b8084526153b4816020860160208601615dae565b6153bd81615dda565b9093016020019392505050565b601a81527f4372656174696f6e204461746520697320696e6d757461626c65000000000000602082015260400190565b601181527f726f6c65206973206d616e6461746f7279000000000000000000000000000000602082015260400190565b601481527f436c61696d20616c726561647920657869737473000000000000000000000000602082015260400190565b602281527f4f6e6c792070656e64696e672075736572732063616e2062652061636365707460208201527f6564000000000000000000000000000000000000000000000000000000000000604082015260600190565b601281527f737461747573206e6f7420616c6c6f7765640000000000000000000000000000602082015260400190565b601381527f5573657220616c72656164792065786973747300000000000000000000000000602082015260400190565b601481527f546869732075736572206e6f7420657869737473000000000000000000000000602082015260400190565b601b81527f596f752063616e6e6f7420616363657074207468697320757365720000000000602082015260400190565b602281527f4f6e6c792070656e64696e672075736572732063616e2062652072656a65637460208201527f6564000000000000000000000000000000000000000000000000000000000000604082015260600190565b601381527f737461747573206973206e6f742076616c696400000000000000000000000000602082015260400190565b601081527f436c61696d206e6f742065786973747300000000000000000000000000000000602082015260400190565b601181527f6d656d626572206e6f7420657869737473000000000000000000000000000000602082015260400190565b601d81527f6e6f7420616c6c6f77656420746f20676574207468697320636c61696d000000602082015260400190565b601481527f4d656d62657220646f206e6f7420657869737473000000000000000000000000602082015260400190565b601581527f4d656d62657220616c7265616479206578697374730000000000000000000000602082015260400190565b601181527f4d656d626572206e6f7420657869737473000000000000000000000000000000602082015260400190565b601281527f5468656d65206973206d616e6461746f72790000000000000000000000000000602082015260400190565b601081527f434d4f206973206d616e6461746f727900000000000000000000000000000000602082015260400190565b601481527f596f7520617265206e6f74206163636570746564000000000000000000000000602082015260400190565b601181527f4e616d65206973206d616e6461746f7279000000000000000000000000000000602082015260400190565b601181527f4e6f2076616c6964206d656d6265724964000000000000000000000000000000602082015260400190565b601481527f496e636f727265637420436c61696d2054797065000000000000000000000000602082015260400190565b601981527f4372656174696f6e44617465206973206d616e6461746f727900000000000000602082015260400190565b805160009061012084019061587b8582615b0f565b50602083015161588e6020860182615b0f565b50604083015184820360408601526158a68282615277565b91505060608301516158bb6060860182615383565b5060808301516158ce6080860182615b0f565b5060a08301516158e160a0860182615b0f565b5060c083015184820360c08601526158f98282615166565b91505060e083015161590e60e0860182615383565b50610100830151615923610100860182615b0f565b509392505050565b80516000906101408401906159408582615b0f565b5060208301516159536020860182615b0f565b506040830151848203604086015261596b8282615395565b915050606083015184820360608601526159858282615395565b9150506080830151848203608086015261599f8282615395565b91505060a083015184820360a08601526159b98282615395565b91505060c083015184820360c08601526159d38282615395565b91505060e083015184820360e08601526159ed828261532d565b915050610100830151848203610100860152615a09828261532d565b915050610120830151848203610120860152615a2582826150a8565b95945050505050565b8051604080845260009190840190615a468282615395565b91505060208301518482036020860152615a258282615395565b8051600090610100840190615a758582615b0f565b5060208301518482036020860152615a8d8282615395565b91505060408301518482036040860152615aa78282615395565b9150506060830151615abc6060860182615b0f565b506080830151615acf6080860182615b0f565b5060a083015184820360a0860152615ae78282615395565b91505060c0830151615afc60c086018261538c565b5060e083015161592360e0860182615099565b6150a28161107d565b60208082528101614b0081846150ff565b60208082528101614b0081846151c1565b60208082528101614b00818461521c565b60208082528101614b0081846152d2565b60208101611375828461537a565b60208082528101611375816153ca565b60208082528101611375816153fa565b602080825281016113758161542a565b602080825281016113758161545a565b60208082528101611375816154b0565b60208082528101611375816154e0565b6020808252810161137581615510565b6020808252810161137581615540565b6020808252810161137581615570565b60208082528101611375816155c6565b60208082528101611375816155f6565b6020808252810161137581615626565b6020808252810161137581615656565b6020808252810161137581615686565b60208082528101611375816156b6565b60208082528101611375816156e6565b6020808252810161137581615716565b6020808252810161137581615746565b6020808252810161137581615776565b60208082528101611375816157a6565b60208082528101611375816157d6565b6020808252810161137581615806565b6020808252810161137581615836565b60208082528101614b008184615866565b60208082528101614b008184615a60565b602081016113758284615b0f565b60405181810167ffffffffffffffff81118282101715615d2957600080fd5b604052919050565b600067ffffffffffffffff821115615d4857600080fd5b506020601f91909101601f19160190565b60200190565b5190565b600160a060020a031690565b151590565b60006002821061069357fe5b60006003821061069357fe5b600061137582615d74565b600061137582615d80565b82818337506000910152565b60005b83811015615dc9578181015183820152602001615db1565b83811115612a445750506000910152565b601f01601f1916905600a265627a7a72305820ff054ffe018ff620ef99c489d8b31a2a1ddab121b2c15f60a302db7d1de5c2666c6578706572696d656e74616cf50037",
  "source": "pragma solidity ^0.4.24;\npragma experimental ABIEncoderV2;\n\nimport \"./Claims.sol\";\n\ncontract Registry is Claims {\n  \n  string[] private cmos_;\n\n  function addCMO(string memory _cmo) onlySigner public {\n    cmos_.push(_cmo);\n  }\n\n  function deleteCMO(uint _index) onlySigner public {\n    for (uint i = _index; i < cmos_.length-1;i++){\n      cmos_[i] = cmos_[i+1];\n    }\n    delete cmos_[cmos_.length-1];\n    cmos_.length--;\n  }\n\n  function getCMOs() view public returns( string[] memory ) {\n    return cmos_;\n  }\n\n}",
  "sourcePath": "/home/komodo/newUI/bloomen-decentralized-rights-management-v2/truffle/contracts/registry/Registry.sol",
  "compiler": {
    "name": "solc",
    "version": "0.4.24+commit.e67f0147.Emscripten.clang"
  },
  "schemaVersion": "2.0.1",
  "updatedAt": "2019-10-11T12:35:58.785Z"
}