{
  "contractName": "Registry",
  "abi": [
    {
      "constant": false,
      "inputs": [
        {
          "name": "_userToAccept",
          "type": "address"
        }
      ],
      "name": "acceptUser",
      "outputs": [],
      "payable": false,
      "stateMutability": "nonpayable",
      "type": "function"
    },
    {
      "constant": true,
      "inputs": [],
      "name": "getClaimsCountByMemberId",
      "outputs": [
        {
          "name": "",
          "type": "uint256"
        }
      ],
      "payable": false,
      "stateMutability": "view",
      "type": "function"
    },
    {
      "constant": false,
      "inputs": [
        {
          "name": "_userToReject",
          "type": "address"
        }
      ],
      "name": "rejectUser",
      "outputs": [],
      "payable": false,
      "stateMutability": "nonpayable",
      "type": "function"
    },
    {
      "constant": true,
      "inputs": [
        {
          "name": "_claimId",
          "type": "uint256"
        }
      ],
      "name": "getClaim",
      "outputs": [
        {
          "components": [
            {
              "name": "creationDate",
              "type": "uint256"
            },
            {
              "name": "claimId",
              "type": "uint256"
            },
            {
              "components": [
                {
                  "name": "name",
                  "type": "string"
                },
                {
                  "name": "value",
                  "type": "string"
                }
              ],
              "name": "claimData",
              "type": "tuple[]"
            },
            {
              "name": "claimType",
              "type": "bool"
            },
            {
              "name": "memberOwner",
              "type": "uint256"
            },
            {
              "name": "status",
              "type": "bool"
            },
            {
              "name": "lastChange",
              "type": "uint256"
            }
          ],
          "name": "",
          "type": "tuple"
        }
      ],
      "payable": false,
      "stateMutability": "view",
      "type": "function"
    },
    {
      "constant": true,
      "inputs": [
        {
          "name": "_page",
          "type": "uint256"
        }
      ],
      "name": "getUsers",
      "outputs": [
        {
          "components": [
            {
              "name": "creationDate",
              "type": "uint256"
            },
            {
              "name": "firstName",
              "type": "string"
            },
            {
              "name": "lastName",
              "type": "string"
            },
            {
              "name": "memberId",
              "type": "uint256"
            },
            {
              "name": "requestId",
              "type": "uint256"
            },
            {
              "name": "role",
              "type": "string"
            },
            {
              "name": "status",
              "type": "uint8"
            },
            {
              "name": "owner",
              "type": "address"
            }
          ],
          "name": "",
          "type": "tuple[]"
        }
      ],
      "payable": false,
      "stateMutability": "view",
      "type": "function"
    },
    {
      "constant": false,
      "inputs": [
        {
          "name": "_memberId",
          "type": "uint256"
        },
        {
          "name": "_creationDate",
          "type": "uint256"
        },
        {
          "name": "_name",
          "type": "string"
        },
        {
          "name": "_logo",
          "type": "string"
        },
        {
          "name": "_country",
          "type": "string"
        },
        {
          "name": "_cmo",
          "type": "string"
        },
        {
          "name": "_theme",
          "type": "string"
        }
      ],
      "name": "updateMember",
      "outputs": [],
      "payable": false,
      "stateMutability": "nonpayable",
      "type": "function"
    },
    {
      "constant": true,
      "inputs": [
        {
          "name": "userAddress",
          "type": "address"
        }
      ],
      "name": "getUserByAddress",
      "outputs": [
        {
          "components": [
            {
              "name": "creationDate",
              "type": "uint256"
            },
            {
              "name": "firstName",
              "type": "string"
            },
            {
              "name": "lastName",
              "type": "string"
            },
            {
              "name": "memberId",
              "type": "uint256"
            },
            {
              "name": "requestId",
              "type": "uint256"
            },
            {
              "name": "role",
              "type": "string"
            },
            {
              "name": "status",
              "type": "uint8"
            },
            {
              "name": "owner",
              "type": "address"
            }
          ],
          "name": "",
          "type": "tuple"
        }
      ],
      "payable": false,
      "stateMutability": "view",
      "type": "function"
    },
    {
      "constant": true,
      "inputs": [
        {
          "name": "account",
          "type": "address"
        }
      ],
      "name": "isSigner",
      "outputs": [
        {
          "name": "",
          "type": "bool"
        }
      ],
      "payable": false,
      "stateMutability": "view",
      "type": "function"
    },
    {
      "constant": true,
      "inputs": [],
      "name": "getUsersOwner",
      "outputs": [
        {
          "components": [
            {
              "name": "creationDate",
              "type": "uint256"
            },
            {
              "name": "firstName",
              "type": "string"
            },
            {
              "name": "lastName",
              "type": "string"
            },
            {
              "name": "memberId",
              "type": "uint256"
            },
            {
              "name": "requestId",
              "type": "uint256"
            },
            {
              "name": "role",
              "type": "string"
            },
            {
              "name": "status",
              "type": "uint8"
            },
            {
              "name": "owner",
              "type": "address"
            }
          ],
          "name": "",
          "type": "tuple[]"
        }
      ],
      "payable": false,
      "stateMutability": "view",
      "type": "function"
    },
    {
      "constant": true,
      "inputs": [],
      "name": "getMembers",
      "outputs": [
        {
          "components": [
            {
              "name": "memberId",
              "type": "uint256"
            },
            {
              "name": "creationDate",
              "type": "uint256"
            },
            {
              "name": "name",
              "type": "string"
            },
            {
              "name": "logo",
              "type": "string"
            },
            {
              "name": "country",
              "type": "string"
            },
            {
              "name": "cmo",
              "type": "string"
            },
            {
              "name": "theme",
              "type": "string"
            },
            {
              "name": "claimInbox",
              "type": "uint256[]"
            },
            {
              "name": "claims",
              "type": "uint256[]"
            },
            {
              "name": "userRequests",
              "type": "address[]"
            }
          ],
          "name": "",
          "type": "tuple[]"
        }
      ],
      "payable": false,
      "stateMutability": "view",
      "type": "function"
    },
    {
      "constant": true,
      "inputs": [],
      "name": "getcountUsers",
      "outputs": [
        {
          "name": "",
          "type": "uint256"
        }
      ],
      "payable": false,
      "stateMutability": "view",
      "type": "function"
    },
    {
      "constant": false,
      "inputs": [
        {
          "name": "_creationDate",
          "type": "uint256"
        },
        {
          "name": "_firstName",
          "type": "string"
        },
        {
          "name": "_lastName",
          "type": "string"
        },
        {
          "name": "_role",
          "type": "string"
        },
        {
          "name": "_memberId",
          "type": "uint256"
        }
      ],
      "name": "registerUserRequest",
      "outputs": [],
      "payable": false,
      "stateMutability": "nonpayable",
      "type": "function"
    },
    {
      "constant": true,
      "inputs": [],
      "name": "getCount",
      "outputs": [
        {
          "name": "",
          "type": "uint256"
        }
      ],
      "payable": false,
      "stateMutability": "view",
      "type": "function"
    },
    {
      "constant": false,
      "inputs": [
        {
          "name": "_creationDate",
          "type": "uint256"
        },
        {
          "name": "_claimData",
          "type": "bytes"
        },
        {
          "name": "_claimType",
          "type": "bool"
        },
        {
          "name": "_memberOwner",
          "type": "uint256"
        },
        {
          "name": "reg_update",
          "type": "bool"
        },
        {
          "name": "_claimId",
          "type": "uint256"
        },
        {
          "name": "_oldClaimData",
          "type": "bytes"
        },
        {
          "name": "_lastChange",
          "type": "uint256"
        }
      ],
      "name": "computeClaim",
      "outputs": [],
      "payable": false,
      "stateMutability": "nonpayable",
      "type": "function"
    },
    {
      "constant": true,
      "inputs": [
        {
          "name": "_page",
          "type": "uint256"
        }
      ],
      "name": "getClaimsByMemberId",
      "outputs": [
        {
          "components": [
            {
              "name": "creationDate",
              "type": "uint256"
            },
            {
              "name": "claimId",
              "type": "uint256"
            },
            {
              "components": [
                {
                  "name": "name",
                  "type": "string"
                },
                {
                  "name": "value",
                  "type": "string"
                }
              ],
              "name": "claimData",
              "type": "tuple[]"
            },
            {
              "name": "claimType",
              "type": "bool"
            },
            {
              "name": "memberOwner",
              "type": "uint256"
            },
            {
              "name": "status",
              "type": "bool"
            },
            {
              "name": "lastChange",
              "type": "uint256"
            }
          ],
          "name": "",
          "type": "tuple[]"
        }
      ],
      "payable": false,
      "stateMutability": "view",
      "type": "function"
    },
    {
      "constant": true,
      "inputs": [],
      "name": "getMe",
      "outputs": [
        {
          "components": [
            {
              "name": "creationDate",
              "type": "uint256"
            },
            {
              "name": "firstName",
              "type": "string"
            },
            {
              "name": "lastName",
              "type": "string"
            },
            {
              "name": "memberId",
              "type": "uint256"
            },
            {
              "name": "requestId",
              "type": "uint256"
            },
            {
              "name": "role",
              "type": "string"
            },
            {
              "name": "status",
              "type": "uint8"
            },
            {
              "name": "owner",
              "type": "address"
            }
          ],
          "name": "",
          "type": "tuple"
        }
      ],
      "payable": false,
      "stateMutability": "view",
      "type": "function"
    },
    {
      "constant": true,
      "inputs": [
        {
          "name": "_page",
          "type": "uint256"
        }
      ],
      "name": "getMembers",
      "outputs": [
        {
          "components": [
            {
              "name": "memberId",
              "type": "uint256"
            },
            {
              "name": "creationDate",
              "type": "uint256"
            },
            {
              "name": "name",
              "type": "string"
            },
            {
              "name": "logo",
              "type": "string"
            },
            {
              "name": "country",
              "type": "string"
            },
            {
              "name": "cmo",
              "type": "string"
            },
            {
              "name": "theme",
              "type": "string"
            },
            {
              "name": "claimInbox",
              "type": "uint256[]"
            },
            {
              "name": "claims",
              "type": "uint256[]"
            },
            {
              "name": "userRequests",
              "type": "address[]"
            }
          ],
          "name": "",
          "type": "tuple[]"
        }
      ],
      "payable": false,
      "stateMutability": "view",
      "type": "function"
    },
    {
      "constant": false,
      "inputs": [],
      "name": "renounceSigner",
      "outputs": [],
      "payable": false,
      "stateMutability": "nonpayable",
      "type": "function"
    },
    {
      "constant": false,
      "inputs": [
        {
          "name": "account",
          "type": "address"
        }
      ],
      "name": "addSigner",
      "outputs": [],
      "payable": false,
      "stateMutability": "nonpayable",
      "type": "function"
    },
    {
      "constant": false,
      "inputs": [
        {
          "name": "_creationDate",
          "type": "uint256"
        },
        {
          "name": "_name",
          "type": "string"
        },
        {
          "name": "_logo",
          "type": "string"
        },
        {
          "name": "_country",
          "type": "string"
        },
        {
          "name": "_cmo",
          "type": "string"
        },
        {
          "name": "_theme",
          "type": "string"
        }
      ],
      "name": "addMember",
      "outputs": [
        {
          "name": "",
          "type": "uint256"
        }
      ],
      "payable": false,
      "stateMutability": "nonpayable",
      "type": "function"
    },
    {
      "constant": false,
      "inputs": [
        {
          "name": "_firstName",
          "type": "string"
        },
        {
          "name": "_lastName",
          "type": "string"
        },
        {
          "name": "_memberId",
          "type": "uint256"
        },
        {
          "name": "_role",
          "type": "string"
        },
        {
          "name": "owner",
          "type": "address"
        }
      ],
      "name": "updateUser",
      "outputs": [],
      "payable": false,
      "stateMutability": "nonpayable",
      "type": "function"
    },
    {
      "constant": false,
      "inputs": [
        {
          "name": "account",
          "type": "address"
        }
      ],
      "name": "whitelistAdmin",
      "outputs": [],
      "payable": false,
      "stateMutability": "nonpayable",
      "type": "function"
    },
    {
      "anonymous": false,
      "inputs": [
        {
          "indexed": true,
          "name": "account",
          "type": "address"
        }
      ],
      "name": "SignerAdded",
      "type": "event"
    },
    {
      "anonymous": false,
      "inputs": [
        {
          "indexed": true,
          "name": "account",
          "type": "address"
        }
      ],
      "name": "SignerRemoved",
      "type": "event"
    },
    {
      "constant": false,
      "inputs": [
        {
          "name": "_cmo",
          "type": "string"
        }
      ],
      "name": "addCMO",
      "outputs": [],
      "payable": false,
      "stateMutability": "nonpayable",
      "type": "function"
    },
    {
      "constant": false,
      "inputs": [
        {
          "name": "_index",
          "type": "uint256"
        }
      ],
      "name": "deleteCMO",
      "outputs": [],
      "payable": false,
      "stateMutability": "nonpayable",
      "type": "function"
    },
    {
      "constant": true,
      "inputs": [],
      "name": "getCMOs",
      "outputs": [
        {
          "name": "",
          "type": "string[]"
        }
      ],
      "payable": false,
      "stateMutability": "view",
      "type": "function"
    }
  ],
  "bytecode": "0x608060405260006007556200001d3364010000000062000023810204565b62000108565b6200003e600082640100000000620049196200007582021704565b604051600160a060020a038216907f47d1c22a25bb3a5d4e481b9b1e6944c2eade3181a0a20b495ed61d35b5323f2490600090a250565b600160a060020a03811615156200008b57600080fd5b620000a08282640100000000620000d0810204565b15620000ab57600080fd5b600160a060020a0316600090815260209190915260409020805460ff19166001179055565b6000600160a060020a0382161515620000e857600080fd5b50600160a060020a03166000908152602091909152604090205460ff1690565b615ff780620001186000396000f3006080604052600436106101485763ffffffff7c010000000000000000000000000000000000000000000000000000000060003504166308bdc24d811461014d5780631be8850b1461016f5780633a59ccf11461019a5780634dc92885146101ba5780635aef2447146101da5780635d73ab9a14610207578063656d561c1461023457806365ff0c481461025657806369c212f6146102765780637df73e27146102a3578063932191be146102d05780639eab5253146102e5578063a4fdc59414610307578063a7ed1fe41461031c578063a87d942c1461033c578063aa5b3a0614610351578063b6bc381214610371578063bf3d007e1461039e578063c11e1ff3146103be578063c477ecab146103d3578063e5c8b03d146103f3578063eb12d61e14610408578063fa1188c614610428578063fcfbde5b14610448578063ff240fce14610468575b600080fd5b34801561015957600080fd5b5061016d610168366004614f81565b610488565b005b34801561017b57600080fd5b50610184610624565b6040516101919190615ee8565b60405180910390f35b3480156101a657600080fd5b5061016d6101b5366004614fa7565b610641565b3480156101c657600080fd5b5061016d6101d5366004614f81565b61069e565b3480156101e657600080fd5b506101fa6101f5366004615098565b610802565b6040516101919190615ec6565b34801561021357600080fd5b50610227610222366004615098565b610a01565b6040516101919190615d87565b34801561024057600080fd5b50610249610ddc565b6040516101919190615d54565b34801561026257600080fd5b5061016d610271366004615345565b610eb5565b34801561028257600080fd5b50610296610291366004614f81565b610f44565b6040516101919190615ed7565b3480156102af57600080fd5b506102c36102be366004614f81565b611198565b6040516101919190615d98565b3480156102dc57600080fd5b506102276111b0565b3480156102f157600080fd5b506102fa6114a1565b6040516101919190615d76565b34801561031357600080fd5b50610184611968565b34801561032857600080fd5b5061016d610337366004615295565b611a2d565b34801561034857600080fd5b50610184611af4565b34801561035d57600080fd5b5061016d61036c3660046150b6565b611b11565b34801561037d57600080fd5b5061039161038c366004615098565b611c0b565b6040516101919190615d65565b3480156103aa57600080fd5b5061016d6103b9366004615098565b611f0d565b3480156103ca57600080fd5b50610296611fcb565b3480156103df57600080fd5b506102fa6103ee366004615098565b61205c565b3480156103ff57600080fd5b5061016d612577565b34801561041457600080fd5b5061016d610423366004614f81565b612582565b34801561043457600080fd5b50610184610443366004615196565b61259f565b34801561045457600080fd5b5061016d610463366004614fdc565b61262e565b34801561047457600080fd5b5061016d610483366004614f81565b612712565b600160a060020a038181166000908152600360205260408120600601546101009004909116116104d65760405160e560020a62461bcd0281526004016104cd90615de6565b60405180910390fd5b600160a060020a038116600090815260036020819052604080832082015433845292200154148061050b575061050b33611198565b151561052c5760405160e560020a62461bcd0281526004016104cd90615df6565b60023360009081526003602052604090206006015460ff16600281111561054f57fe5b148061055f575061055f33611198565b15156105805760405160e560020a62461bcd0281526004016104cd90615e86565b6001600160a060020a03821660009081526003602052604090206006015460ff1660028111156105ac57fe5b146105cc5760405160e560020a62461bcd0281526004016104cd90615dc6565b600160a060020a038116600090815260036020526040902060060180546002919060ff19166001835b0217905550600160a060020a0381166000908152600360208190526040909120015461062190826127e6565b50565b60008061062f612955565b905061063a8161296c565b91505b5090565b61064a33611198565b151561065557600080fd5b60088054600181018083556000929092528251610699917ff3f7a9fe364faab93b216da50a3214154f22a0a2b415b23a84c8169e8b636ee301906020850190614b21565b505050565b600160a060020a038181166000908152600360205260408120600601546101009004909116116106e35760405160e560020a62461bcd0281526004016104cd90615de6565b600160a060020a0381166000908152600360208190526040808320820154338452922001541480610718575061071833611198565b15156107395760405160e560020a62461bcd0281526004016104cd90615df6565b60023360009081526003602052604090206006015460ff16600281111561075c57fe5b148061076c575061076c33611198565b151561078d5760405160e560020a62461bcd0281526004016104cd90615e86565b6001600160a060020a03821660009081526003602052604090206006015460ff1660028111156107b957fe5b146107d95760405160e560020a62461bcd0281526004016104cd90615e06565b600160a060020a0381166000908152600360205260408120600601805460ff19166001836105f5565b61080a614b9b565b6005600083815260200190815260200160002060e06040519081016040529081600082015481526020016001820154815260200160028201805480602002602001604051908101604052809291908181526020016000905b828210156109c05760008481526020908190206040805160028681029093018054600181161561010002600019011693909304601f8101859004909402810160609081018352918101848152909384928491908401828280156109065780601f106108db57610100808354040283529160200191610906565b820191906000526020600020905b8154815290600101906020018083116108e957829003601f168201915b50505050508152602001600182018054600181600116156101000203166002900480601f0160208091040260200160405190810160405280929190818152602001828054600181600116156101000203166002900480156109a85780601f1061097d576101008083540402835291602001916109a8565b820191906000526020600020905b81548152906001019060200180831161098b57829003601f168201915b50505050508152505081526020019060010190610862565b50505090825250600382015460ff90811615156020830152600483015460408301526005830154161515606082015260069091015460809091015292915050565b606060008060006060600080610a15611968565b9550610a22600a89612981565b600454909550610a3390600a6129ba565b9350851580610a4157508585115b80610a4b57508388115b15610a5557610dd1565b60408051600a808252610160820190925290816020015b610a74614bdd565b815260200190600190039081610a6c579050509250600091508490505b600454811015610dcd5733600090815260036020819052604082208101546004805491939185908110610ac057fe5b6000918252602080832090910154600160a060020a03168352820192909252604001902060030154148015610b3d5750600260036000600484815481101515610b0557fe5b6000918252602080832090910154600160a060020a0316835282019290925260400190206006015460ff166002811115610b3b57fe5b145b15610dc55760036000600483815481101515610b5557fe5b600091825260208083209190910154600160a060020a0316835282810193909352604091820190208151610100808201845282548252600180840180548651600293821615909402600019011691909104601f81018790048702830187019095528482529194929385840193919291830182828015610c155780601f10610bea57610100808354040283529160200191610c15565b820191906000526020600020905b815481529060010190602001808311610bf857829003601f168201915b5050509183525050600282810180546040805160206001841615610100026000190190931694909404601f81018390048302850183019091528084529381019390830182828015610ca75780601f10610c7c57610100808354040283529160200191610ca7565b820191906000526020600020905b815481529060010190602001808311610c8a57829003601f168201915b505050505081526020016003820154815260200160048201548152602001600582018054600181600116156101000203166002900480601f016020809104026020016040519081016040528092919081815260200182805460018160011615610100020316600290048015610d5d5780601f10610d3257610100808354040283529160200191610d5d565b820191906000526020600020905b815481529060010190602001808311610d4057829003601f168201915b5050509183525050600682015460209091019060ff166002811115610d7e57fe5b6002811115610d8957fe5b8152600691909101546101009004600160a060020a03166020909101528351849084908110610db457fe5b602090810290910101526001909101905b600101610a91565b8296505b505050505050919050565b60606008805480602002602001604051908101604052809291908181526020016000905b82821015610eab5760008481526020908190208301805460408051601f6002600019610100600187161502019094169390930492830185900485028101850190915281815292830182828015610e975780601f10610e6c57610100808354040283529160200191610e97565b820191906000526020600020905b815481529060010190602001808311610e7a57829003601f168201915b505050505081526020019060010190610e00565b5050505090505b90565b610ebe33611198565b1515610ec957600080fd5b60008781526001602052604081205411610ef85760405160e560020a62461bcd0281526004016104cd90615e56565b600087815260016020819052604090912001548614610f2c5760405160e560020a62461bcd0281526004016104cd90615da6565b610f3b878787878787876129dd565b50505050505050565b610f4c614bdd565b600160a060020a0382166000908152600360209081526040918290208251610100808201855282548252600180840180548751600293821615909402600019011691909104601f81018690048602830186019096528582529194929385810193919291908301828280156110015780601f10610fd657610100808354040283529160200191611001565b820191906000526020600020905b815481529060010190602001808311610fe457829003601f168201915b5050509183525050600282810180546040805160206001841615610100026000190190931694909404601f810183900483028501830190915280845293810193908301828280156110935780601f1061106857610100808354040283529160200191611093565b820191906000526020600020905b81548152906001019060200180831161107657829003601f168201915b505050505081526020016003820154815260200160048201548152602001600582018054600181600116156101000203166002900480601f0160208091040260200160405190810160405280929190818152602001828054600181600116156101000203166002900480156111495780601f1061111e57610100808354040283529160200191611149565b820191906000526020600020905b81548152906001019060200180831161112c57829003601f168201915b5050509183525050600682015460209091019060ff16600281111561116a57fe5b600281111561117557fe5b8152600691909101546101009004600160a060020a031660209091015292915050565b60006111aa818363ffffffff612fd616565b92915050565b60608060006111be33611198565b15156111c957600080fd5b60045460408051828152602080840282010190915290801561120557816020015b6111f2614bdd565b8152602001906001900390816111ea5790505b509150600090505b60045481101561149b576003600060048381548110151561122a57fe5b600091825260208083209190910154600160a060020a0316835282810193909352604091820190208151610100808201845282548252600180840180548651600293821615909402600019011691909104601f810187900487028301870190955284825291949293858401939192918301828280156112ea5780601f106112bf576101008083540402835291602001916112ea565b820191906000526020600020905b8154815290600101906020018083116112cd57829003601f168201915b5050509183525050600282810180546040805160206001841615610100026000190190931694909404601f8101839004830285018301909152808452938101939083018282801561137c5780601f106113515761010080835404028352916020019161137c565b820191906000526020600020905b81548152906001019060200180831161135f57829003601f168201915b505050505081526020016003820154815260200160048201548152602001600582018054600181600116156101000203166002900480601f0160208091040260200160405190810160405280929190818152602001828054600181600116156101000203166002900480156114325780601f1061140757610100808354040283529160200191611432565b820191906000526020600020905b81548152906001019060200180831161141557829003601f168201915b5050509183525050600682015460209091019060ff16600281111561145357fe5b600281111561145e57fe5b8152600691909101546101009004600160a060020a0316602090910152825183908390811061148957fe5b6020908102909101015260010161120d565b50919050565b60608060006002805490506040519080825280602002602001820160405280156114e557816020015b6114d2614c2e565b8152602001906001900390816114ca5790505b509150600090505b60025481101561149b576001600060028381548110151561150a57fe5b9060005260206000200154815260200190815260200160002061014060405190810160405290816000820154815260200160018201548152602001600282018054600181600116156101000203166002900480601f0160208091040260200160405190810160405280929190818152602001828054600181600116156101000203166002900480156115dd5780601f106115b2576101008083540402835291602001916115dd565b820191906000526020600020905b8154815290600101906020018083116115c057829003601f168201915b505050918352505060038201805460408051602060026001851615610100026000190190941693909304601f81018490048402820184019092528181529382019392918301828280156116715780601f1061164657610100808354040283529160200191611671565b820191906000526020600020905b81548152906001019060200180831161165457829003601f168201915b505050918352505060048201805460408051602060026001851615610100026000190190941693909304601f81018490048402820184019092528181529382019392918301828280156117055780601f106116da57610100808354040283529160200191611705565b820191906000526020600020905b8154815290600101906020018083116116e857829003601f168201915b505050918352505060058201805460408051602060026001851615610100026000190190941693909304601f81018490048402820184019092528181529382019392918301828280156117995780601f1061176e57610100808354040283529160200191611799565b820191906000526020600020905b81548152906001019060200180831161177c57829003601f168201915b505050918352505060068201805460408051602060026001851615610100026000190190941693909304601f810184900484028201840190925281815293820193929183018282801561182d5780601f106118025761010080835404028352916020019161182d565b820191906000526020600020905b81548152906001019060200180831161181057829003601f168201915b505050505081526020016007820180548060200260200160405190810160405280929190818152602001828054801561188557602002820191906000526020600020905b815481526020019060010190808311611871575b50505050508152602001600882018054806020026020016040519081016040528092919081815260200182805480156118dd57602002820191906000526020600020905b8154815260200190600101908083116118c9575b505050505081526020016009820180548060200260200160405190810160405280929190818152602001828054801561193f57602002820191906000526020600020905b8154600160a060020a03168152600190910190602001808311611921575b505050505081525050828281518110151561195657fe5b602090810290910101526001016114ed565b600080805b60045481101561149b573360009081526003602081905260408220810154600480549193918590811061199c57fe5b6000918252602080832090910154600160a060020a03168352820192909252604001902060030154148015611a1957506002600360006004848154811015156119e157fe5b6000918252602080832090910154600160a060020a0316835282019290925260400190206006015460ff166002811115611a1757fe5b145b15611a25576001909101905b60010161196d565b6000811515611a515760405160e560020a62461bcd0281526004016104cd90615ea6565b60008611611a745760405160e560020a62461bcd0281526004016104cd90615eb6565b3360009081526003602052604090205415611aa45760405160e560020a62461bcd0281526004016104cd90615dd6565b611aad8261300d565b1515611ace5760405160e560020a62461bcd0281526004016104cd90615e56565b611ad786613020565b9050611aec868686858588600133600061320f565b505050505050565b6000611aff33611198565b1515611b0a57600080fd5b5060025490565b8315611b845760078054600101908190559250611b2d8561300d565b1515611b4e5760405160e560020a62461bcd0281526004016104cd90615e36565b611b56612955565b9450611b68838989898960008e613663565b611b7285846137db565b611b7f8387896001613800565b611c01565b600083815260056020526040812060030154611ba791859160ff16908590613800565b600083815260056020526040902060030154611bca90849060ff16896001613800565b60008381526005602081905260409091208054600382015460048301549290930154611c019387938c9260ff928316921687613663565b5050505050505050565b6060600080600080606080600080611c24600a8b612981565b9750611c2e612955565b9650611c398761296c565b9550611c4686600a6129ba565b9450851580611c5757506001860388115b80611c615750848a115b15611c6b57611f00565b611c7487614468565b60408051600a8082526101608201909252919550816020015b611c95614b9b565b815260200190600190039081611c8d579050509250600091508790505b8351811015611efc57600a821015611eef57600560008583815181101515611cd657fe5b90602001906020020151815260200190815260200160002060e06040519081016040529081600082015481526020016001820154815260200160028201805480602002602001604051908101604052809291908181526020016000905b82821015611e915760008481526020908190206040805160028681029093018054600181161561010002600019011693909304601f810185900490940281016060908101835291810184815290938492849190840182828015611dd75780601f10611dac57610100808354040283529160200191611dd7565b820191906000526020600020905b815481529060010190602001808311611dba57829003601f168201915b50505050508152602001600182018054600181600116156101000203166002900480601f016020809104026020016040519081016040528092919081815260200182805460018160011615610100020316600290048015611e795780601f10611e4e57610100808354040283529160200191611e79565b820191906000526020600020905b815481529060010190602001808311611e5c57829003601f168201915b50505050508152505081526020019060010190611d33565b50505090825250600382015460ff9081161515602083015260048301546040830152600583015416151560608201526006909101546080909101528351849084908110611eda57fe5b60209081029091010152600190910190611ef4565b611efc565b600101611cb2565b8298505b5050505050505050919050565b6000611f1833611198565b1515611f2357600080fd5b50805b60085460001901811015611f90576008805460018301908110611f4557fe5b90600052602060002001600882815481101515611f5e57fe5b906000526020600020019080546001816001161561010002031660029004611f87929190614c82565b50600101611f26565b600880546000198101908110611fa257fe5b906000526020600020016000611fb89190614cf7565b6008805490610699906000198301614d3b565b611fd3614bdd565b611fdb614bdd565b336000908152600360209081526040918290208251610100808201855282548252600180840180548751600293821615909402600019011691909104601f81018690048602830186019096528582529194929385810193919291908301828280156110015780601f10610fd657610100808354040283529160200191611001565b6060600080600060606000612072600a88612981565b60025490955061208390600a6129ba565b600254909450158061209a57506002546000190185115b806120a457508387115b156120ae5761256d565b60408051600a80825261016082019092526000945090816020015b6120d1614c2e565b8152602001906001900390816120c95790505091508490505b600254811015612569576001600060028381548110151561210757fe5b9060005260206000200154815260200190815260200160002061014060405190810160405290816000820154815260200160018201548152602001600282018054600181600116156101000203166002900480601f0160208091040260200160405190810160405280929190818152602001828054600181600116156101000203166002900480156121da5780601f106121af576101008083540402835291602001916121da565b820191906000526020600020905b8154815290600101906020018083116121bd57829003601f168201915b505050918352505060038201805460408051602060026001851615610100026000190190941693909304601f810184900484028201840190925281815293820193929183018282801561226e5780601f106122435761010080835404028352916020019161226e565b820191906000526020600020905b81548152906001019060200180831161225157829003601f168201915b505050918352505060048201805460408051602060026001851615610100026000190190941693909304601f81018490048402820184019092528181529382019392918301828280156123025780601f106122d757610100808354040283529160200191612302565b820191906000526020600020905b8154815290600101906020018083116122e557829003601f168201915b505050918352505060058201805460408051602060026001851615610100026000190190941693909304601f81018490048402820184019092528181529382019392918301828280156123965780601f1061236b57610100808354040283529160200191612396565b820191906000526020600020905b81548152906001019060200180831161237957829003601f168201915b505050918352505060068201805460408051602060026001851615610100026000190190941693909304601f810184900484028201840190925281815293820193929183018282801561242a5780601f106123ff5761010080835404028352916020019161242a565b820191906000526020600020905b81548152906001019060200180831161240d57829003601f168201915b505050505081526020016007820180548060200260200160405190810160405280929190818152602001828054801561248257602002820191906000526020600020905b81548152602001906001019080831161246e575b50505050508152602001600882018054806020026020016040519081016040528092919081815260200182805480156124da57602002820191906000526020600020905b8154815260200190600101908083116124c6575b505050505081526020016009820180548060200260200160405190810160405280929190818152602001828054801561253c57602002820191906000526020600020905b8154600160a060020a0316815260019091019060200180831161251e575b505050505081525050828481518110151561255357fe5b60209081029091010152600192830192016120ea565b8195505b5050505050919050565b612580336144fd565b565b61258b33611198565b151561259657600080fd5b61062181614545565b6000806125ab33611198565b15156125b657600080fd5b600088116125d95760405160e560020a62461bcd0281526004016104cd90615eb6565b6125e288613020565b600081815260016020526040902054909150156126145760405160e560020a62461bcd0281526004016104cd90615e46565b612623818989898989896129dd565b979650505050505050565b600160a060020a038181166000908152600360205260408120600601549091829182916101009091041681106126795760405160e560020a62461bcd0281526004016104cd90615de6565b6002600160a060020a03851660009081526003602052604090206006015460ff1660028111156126a557fe5b146126c55760405160e560020a62461bcd0281526004016104cd90615e86565b600160a060020a03841660009081526003602052604090206004810154815460069092015490945090925060ff1660028111156126fe57fe5b9050611c0182898989878a878b600161320f565b61271b33611198565b151561272657600080fd5b600160a060020a0381166000908152600360208190526040909120015461274d90826127e6565b604080518082018252600b81527f53757065722061646d696e0000000000000000000000000000000000000000006020808301918252600160a060020a038516600090815260039091529290922090516127ad9260059092019190614b21565b50600160a060020a0381166000908152600360208190526040822090810191909155600601805460ff1916600217905561062181612582565b6000805b600084815260016020526040902060090154600019018110156128e65760008481526001602052604090206009018054600160a060020a03851691908390811061283057fe5b600091825260209091200154600160a060020a0316141561285057600191505b81156128de57600084815260016020819052604090912060090180549091830190811061287957fe5b6000918252602080832090910154868352600190915260409091206009018054600160a060020a0390921691839081106128af57fe5b9060005260206000200160006101000a815481600160a060020a030219169083600160a060020a031602179055505b6001016127ea565b60008481526001602052604090206009018054600019810190811061290757fe5b60009182526020808320909101805473ffffffffffffffffffffffffffffffffffffffff19169055858252600190526040902060090180549061294e906000198301614d5f565b5050505050565b336000908152600360208190526040909120015490565b60009081526001602052604090206008015490565b60008083151561299457600091506129b3565b508282028284828115156129a457fe5b04146129af57600080fd5b8091505b5092915050565b6000808083116129c957600080fd5b82848115156129d457fe5b04949350505050565b6129e5614c2e565b85511515612a085760405160e560020a62461bcd0281526004016104cd90615e96565b82511515612a2b5760405160e560020a62461bcd0281526004016104cd90615e76565b81511515612a4e5760405160e560020a62461bcd0281526004016104cd90615e66565b6000888152600160208181526040928390208351610140810185528154815281840154818401526002808301805487519681161561010002600019011691909104601f810185900485028601850187528086529195929492860193909190830182828015612afd5780601f10612ad257610100808354040283529160200191612afd565b820191906000526020600020905b815481529060010190602001808311612ae057829003601f168201915b505050918352505060038201805460408051602060026001851615610100026000190190941693909304601f8101849004840282018401909252818152938201939291830182828015612b915780601f10612b6657610100808354040283529160200191612b91565b820191906000526020600020905b815481529060010190602001808311612b7457829003601f168201915b505050918352505060048201805460408051602060026001851615610100026000190190941693909304601f8101849004840282018401909252818152938201939291830182828015612c255780601f10612bfa57610100808354040283529160200191612c25565b820191906000526020600020905b815481529060010190602001808311612c0857829003601f168201915b505050918352505060058201805460408051602060026001851615610100026000190190941693909304601f8101849004840282018401909252818152938201939291830182828015612cb95780601f10612c8e57610100808354040283529160200191612cb9565b820191906000526020600020905b815481529060010190602001808311612c9c57829003601f168201915b505050918352505060068201805460408051602060026001851615610100026000190190941693909304601f8101849004840282018401909252818152938201939291830182828015612d4d5780601f10612d2257610100808354040283529160200191612d4d565b820191906000526020600020905b815481529060010190602001808311612d3057829003601f168201915b5050505050815260200160078201805480602002602001604051908101604052809291908181526020018280548015612da557602002820191906000526020600020905b815481526020019060010190808311612d91575b5050505050815260200160088201805480602002602001604051908101604052809291908181526020018280548015612dfd57602002820191906000526020600020905b815481526020019060010190808311612de9575b5050505050815260200160098201805480602002602001604051908101604052809291908181526020018280548015612e5f57602002820191906000526020600020905b8154600160a060020a03168152600190910190602001808311612e41575b50505091909252505050888152602080820189815260408084018a8152606085018a90526080850189905260a0850188905260c0850187905260008d815260018086529290208551815592519183019190915551805193945084939192612ece92600285019290910190614b21565b5060608201518051612eea916003840191602090910190614b21565b5060808201518051612f06916004840191602090910190614b21565b5060a08201518051612f22916005840191602090910190614b21565b5060c08201518051612f3e916006840191602090910190614b21565b5060e08201518051612f5a916007840191602090910190614d83565b506101008201518051612f77916008840191602090910190614d83565b506101208201518051612f94916009840191602090910190614dbd565b5050600280546001810182556000919091527f405787fa12a823e0f2b7631cc41b3ba8828b3321ca811111fa75cd3aa3bb5ace01989098555050505050505050565b6000600160a060020a0382161515612fed57600080fd5b50600160a060020a03166000908152602091909152604090205460ff1690565b6000908152600160205260408120541190565b60008080806002850615156130b25784604051602001808281526020019150506040516020818303038152906040526040518082805190602001908083835b6020831061307e5780518252601f19909201916020918201910161305f565b6001836020036101000a0380198251168184511680821785525050505050509050019150506040518091039020925061319d565b84604051602001808281526020019150506040516020818303038152906040526040518082805190602001908083835b602083106131015780518252601f1990920191602091820191016130e2565b51815160209384036101000a600019018019909216911617905260408051929094018290038220828201528351808303820181529184019384905281519195509293508392850191508083835b6020831061316d5780518252601f19909201916020918201910161314e565b6001836020036101000a038019825116818451168082178552505050505050905001915050604051809103902092505b60208110156131ca578281602081106131b257fe5b60f860020a91901a810204919091019060010161319d565b8260206002840106602081106131dc57fe5b60f860020a91901a8102048360208406602081106131f657fe5b1a60f860020a0260f860020a9004029350505050919050565b613217614bdd565b600084101580613228575060028411155b15156132495760405160e560020a62461bcd0281526004016104cd90615e16565b8451151561326c5760405160e560020a62461bcd0281526004016104cd90615db6565b600160a060020a0383166000908152600360209081526040918290208251610100808201855282548252600180840180548751600293821615909402600019011691909104601f81018690048602830186019096528582529194929385810193919291908301828280156133215780601f106132f657610100808354040283529160200191613321565b820191906000526020600020905b81548152906001019060200180831161330457829003601f168201915b5050509183525050600282810180546040805160206001841615610100026000190190931694909404601f810183900483028501830190915280845293810193908301828280156133b35780601f10613388576101008083540402835291602001916133b3565b820191906000526020600020905b81548152906001019060200180831161339657829003601f168201915b505050505081526020016003820154815260200160048201548152602001600582018054600181600116156101000203166002900480601f0160208091040260200160405190810160405280929190818152602001828054600181600116156101000203166002900480156134695780601f1061343e57610100808354040283529160200191613469565b820191906000526020600020905b81548152906001019060200180831161344c57829003601f168201915b5050509183525050600682015460209091019060ff16600281111561348a57fe5b600281111561349557fe5b8152600691909101546101009004600160a060020a03166020918201528b825281018a905260408101899052606081018890526080810187905260a0810186905290508360028111156134e457fe5b8160c0019060028111156134f457fe5b9081600281111561350157fe5b905250600160a060020a03831660e082018190526000908152600360209081526040909120825181558183015180518493613543926001850192910190614b21565b506040820151805161355f916002840191602090910190614b21565b50606082015160038201556080820151600482015560a0820151805161358f916005840191602090910190614b21565b5060c082015160068201805460ff191660018360028111156135ad57fe5b021790555060e0919091015160069091018054600160a060020a039092166101000274ffffffffffffffffffffffffffffffffffffffff001990921691909117905581151561365757600480546001810182556000919091527f8a35acfbc15ff81a39ae7d344fd709f28e8600b4aa8c65c6b64bfe7fe36bd19b01805473ffffffffffffffffffffffffffffffffffffffff1916600160a060020a0385161790556136578761458d565b50505050505050505050565b61366b614e2b565b60606000606061367a896145cc565b93506136858461461a565b60008c8152600560205260408120600181018e90558c815560038101805460ff19168c15151790559194506136bd9160020190614e42565b600091505b82518210156137a2576136eb83838151811015156136dc57fe5b9060200190602002015161461a565b9050600560008c8152602001908152602001600020600201604080519081016040528061372f84600081518110151561372057fe5b906020019060200201516146ed565b815260200161374684600181518110151561372057fe5b9052815460018101808455600093845260209384902083518051929560029094029091019261377a92849290910190614b21565b5060208281015180516137939260018501920190614b21565b505050508160010191506136c2565b505050600097885250600560208190526040909720600481019390935560068301559401805460ff191694151594909417909355505050565b6000918252600160208181526040842060080180549283018155845290922090910155565b613808614e2b565b6060600080600080613819886145cc565b95506138248661461a565b945061385761383b8660058151811015156136dc57fe5b8051600190811061384857fe5b9060200190602002015161475f565b935061312f8461ffff16111561388757613030603061010061ffff602f19880116040360f60285030393506138b2565b603a8461ffff16101561389f576030840393506138b2565b8361ffff1661303014156138b257606493505b5050506000878152600660209081526040808320805461ffff191661ffff8616179055600591829052909120015460ff166001805b60075481116136575760008181526005602052604090206003015460ff1615158915151480156139175750808a14155b156144605760008181526005602052604081206002018054909190811061393a57fe5b906000526020600020906002020160010160405160200180828054600181600116156101000203166002900480156139a95780601f106139875761010080835404028352918201916139a9565b820191906000526020600020905b815481529060010190602001808311613995575b50509150506040516020818303038152906040526040518082805190602001908083835b602083106139ec5780518252601f1990920191602091820191016139cd565b6001836020036101000a038019825116818451168082178552505050505050905001915050604051809103902060001916613a3f613a328760008151811015156136dc57fe5b8051600190811061372057fe5b6040516020018082805190602001908083835b60208310613a715780518252601f199092019160209182019101613a52565b6001836020036101000a0380198251168184511680821785525050505050509050019150506040516020818303038152906040526040518082805190602001908083835b60208310613ad45780518252601f199092019160209182019101613ab5565b6001836020036101000a038019825116818451168082178552505050505050905001915050604051809103902060001916148015613ceb5750600081815260056020526040902060020180546001908110613b2b57fe5b90600052602060002090600202016001016040516020018082805460018160011615610100020316600290048015613b9a5780601f10613b78576101008083540402835291820191613b9a565b820191906000526020600020905b815481529060010190602001808311613b86575b50509150506040516020818303038152906040526040518082805190602001908083835b60208310613bdd5780518252601f199092019160209182019101613bbe565b6001836020036101000a038019825116818451168082178552505050505050905001915050604051809103902060001916613c23613a328760018151811015156136dc57fe5b6040516020018082805190602001908083835b60208310613c555780518252601f199092019160209182019101613c36565b6001836020036101000a0380198251168184511680821785525050505050509050019150506040516020818303038152906040526040518082805190602001908083835b60208310613cb85780518252601f199092019160209182019101613c99565b6001836020036101000a038019825116818451168082178552505050505050905001915050604051809103902060001916145b8015613ed257506000818152600560205260409020600290810180549091908110613d1257fe5b90600052602060002090600202016001016040516020018082805460018160011615610100020316600290048015613d815780601f10613d5f576101008083540402835291820191613d81565b820191906000526020600020905b815481529060010190602001808311613d6d575b50509150506040516020818303038152906040526040518082805190602001908083835b60208310613dc45780518252601f199092019160209182019101613da5565b6001836020036101000a038019825116818451168082178552505050505050905001915050604051809103902060001916613e0a613a328760028151811015156136dc57fe5b6040516020018082805190602001908083835b60208310613e3c5780518252601f199092019160209182019101613e1d565b6001836020036101000a0380198251168184511680821785525050505050509050019150506040516020818303038152906040526040518082805190602001908083835b60208310613e9f5780518252601f199092019160209182019101613e80565b6001836020036101000a038019825116818451168082178552505050505050905001915050604051809103902060001916145b80156140b75750600081815260056020526040902060020180546003908110613ef757fe5b90600052602060002090600202016001016040516020018082805460018160011615610100020316600290048015613f665780601f10613f44576101008083540402835291820191613f66565b820191906000526020600020905b815481529060010190602001808311613f52575b50509150506040516020818303038152906040526040518082805190602001908083835b60208310613fa95780518252601f199092019160209182019101613f8a565b6001836020036101000a038019825116818451168082178552505050505050905001915050604051809103902060001916613fef613a328760038151811015156136dc57fe5b6040516020018082805190602001908083835b602083106140215780518252601f199092019160209182019101614002565b6001836020036101000a0380198251168184511680821785525050505050509050019150506040516020818303038152906040526040518082805190602001908083835b602083106140845780518252601f199092019160209182019101614065565b6001836020036101000a038019825116818451168082178552505050505050905001915050604051809103902060001916145b801561429c57506000818152600560205260409020600201805460049081106140dc57fe5b9060005260206000209060020201600101604051602001808280546001816001161561010002031660029004801561414b5780601f1061412957610100808354040283529182019161414b565b820191906000526020600020905b815481529060010190602001808311614137575b50509150506040516020818303038152906040526040518082805190602001908083835b6020831061418e5780518252601f19909201916020918201910161416f565b6001836020036101000a0380198251168184511680821785525050505050509050019150506040518091039020600019166141d4613a328760048151811015156136dc57fe5b6040516020018082805190602001908083835b602083106142065780518252601f1990920191602091820191016141e7565b6001836020036101000a0380198251168184511680821785525050505050509050019150506040516020818303038152906040526040518082805190602001908083835b602083106142695780518252601f19909201916020918201910161424a565b6001836020036101000a038019825116818451168082178552505050505050905001915050604051809103902060001916145b15614460578615614371576000818152600660205260409020805461ffff19811661ffff91821687018216179182905560649116111561436c5782151561430f5760008a8152600560208190526040909120908101805460ff191660011790556004015461430a908b614795565b600192505b6000818152600560208190526040909120015460ff16151561436c576000818152600560205260409020600481015460019091015461434e9190614795565b600081815260056020819052604090912001805460ff191660011790555b61442e565b6000818152600660205260409020805461ffff19811661ffff91821687900382161791829055606491161161442e5782156143d55760008a8152600560208190526040909120908101805460ff19169055600401546143d0908b6147ba565b600092505b6000818152600560208190526040909120015460ff161561442e576000818152600560205260409020600481015460019091015461441391906147ba565b600081815260056020819052604090912001805460ff191690555b811561446057600081815260066020526040808220548c8352908220805461ffff191661ffff90921691909117905591505b6001016138e7565b6000818152600160205260408120546060911061449a5760405160e560020a62461bcd0281526004016104cd90615e26565b600082815260016020908152604091829020600801805483518184028101840190945280845290918301828280156144f157602002820191906000526020600020905b8154815260200190600101908083116144dd575b50505050509050919050565b61450e60008263ffffffff6148cd16565b604051600160a060020a038216907f3525e22824a8a7df2c9a6029941c824cf95b6447f1e13d5128fd3826d35afe8b90600090a250565b61455660008263ffffffff61491916565b604051600160a060020a038216907f47d1c22a25bb3a5d4e481b9b1e6944c2eade3181a0a20b495ed61d35b5323f2490600090a250565b6000908152600160208181526040832060090180549283018155835290912001805473ffffffffffffffffffffffffffffffffffffffff191633179055565b6145d4614e2b565b60008251600014156145fb576040805180820190915260008082526020820152915061149b565b5050604080518082019091528151815260209182019181019190915290565b606060008060008061462b86614967565b151561463657600080fd5b61463f86614996565b93508360405190808252806020026020018201604052801561467b57816020015b614668614e2b565b8152602001906001900390816146605790505b50945061468b86602001516149e6565b8660200151019250600090505b838110156146e4576146a983614a49565b915060408051908101604052808381526020018481525085828151811015156146ce57fe5b6020908102909101015291810191600101614698565b50505050919050565b60606000806060600061470386602001516149e6565b9350838660000151039250826040519080825280601f01601f19166020018201604052801561473c578160200160208202803883390190505b509150816020019050614756848760200151018285614ada565b50949350505050565b600080600080600061477486602001516149e6565b86516020978801518201519190039096036101000a90950495945050505050565b6000918252600160208181526040842060070180549283018155845290922090910155565b6000805b6000848152600160205260409020600701546000190181101561487d5760008481526001602052604090206007018054849190839081106147fb57fe5b9060005260206000200154141561481157600191505b811561487557600084815260016020819052604090912060070180549091830190811061483a57fe5b9060005260206000200154600160008681526020019081526020016000206007018281548110151561486857fe5b6000918252602090912001555b6001016147be565b60008481526001602052604090206007018054600019810190811061489e57fe5b60009182526020808320909101829055858252600190526040902060070180549061294e906000198301614d5f565b600160a060020a03811615156148e257600080fd5b6148ec8282612fd6565b15156148f757600080fd5b600160a060020a0316600090815260209190915260409020805460ff19169055565b600160a060020a038116151561492e57600080fd5b6149388282612fd6565b1561494257600080fd5b600160a060020a0316600090815260209190915260409020805460ff19166001179055565b6020810151805160009190821a9060c060ff8316101561498a576000925061498f565b600192505b5050919050565b600080600080600092506149ad85602001516149e6565b6020860151865191810193500190505b808210156149dd576149ce82614a49565b600190930192909101906149bd565b50909392505050565b8051600090811a60808110156149ff576000915061149b565b60b8811080614a1a575060c08110801590614a1a575060f881105b15614a28576001915061149b565b60c0811015614a3d5760b5198101915061149b565b60f5198101915061149b565b8051600090811a6080811015614a62576001915061149b565b60b8811015614a7757607e198101915061149b565b60c0811015614aa45760b78103600184019350806020036101000a8451046001820181019350505061149b565b60f8811015614ab95760be198101915061149b565b60019290920151602083900360f7016101000a900490910160f51901919050565b60005b60208210614aff578351835260209384019390920191601f1990910190614add565b50915181516020939093036101000a6000190180199091169216919091179052565b828054600181600116156101000203166002900490600052602060002090601f016020900481019282601f10614b6257805160ff1916838001178555614b8f565b82800160010185558215614b8f579182015b82811115614b8f578251825591602001919060010190614b74565b5061063d929150614e63565b60e06040519081016040528060008152602001600081526020016060815260200160001515815260200160008152602001600015158152602001600081525090565b6101006040519081016040528060008152602001606081526020016060815260200160008152602001600081526020016060815260200160006002811115614c2157fe5b8152600060209091015290565b61014060405190810160405280600081526020016000815260200160608152602001606081526020016060815260200160608152602001606081526020016060815260200160608152602001606081525090565b828054600181600116156101000203166002900490600052602060002090601f016020900481019282601f10614cbb5780548555614b8f565b82800160010185558215614b8f57600052602060002091601f016020900482015b82811115614b8f578254825591600101919060010190614cdc565b50805460018160011615610100020316600290046000825580601f10614d1d5750610621565b601f0160209004906000526020600020908101906106219190614e63565b81548183558181111561069957600083815260209020610699918101908301614e7d565b81548183558181111561069957600083815260209020610699918101908301614e63565b828054828255906000526020600020908101928215614b8f5791602002820182811115614b8f578251825591602001919060010190614b74565b828054828255906000526020600020908101928215614e1f579160200282015b82811115614e1f578251825473ffffffffffffffffffffffffffffffffffffffff1916600160a060020a03909116178255602090920191600190910190614ddd565b5061063d929150614ea0565b604080518082019091526000808252602082015290565b50805460008255600202906000526020600020908101906106219190614ed1565b610eb291905b8082111561063d5760008155600101614e69565b610eb291905b8082111561063d576000614e978282614cf7565b50600101614e83565b610eb291905b8082111561063d57805473ffffffffffffffffffffffffffffffffffffffff19168155600101614ea6565b610eb291905b8082111561063d576000614eeb8282614cf7565b614ef9600183016000614cf7565b50600201614ed7565b6000614f0e8235615f4f565b9392505050565b6000614f0e8235615f5b565b6000601f82018313614f3257600080fd5b8135614f45614f4082615f1d565b615ef6565b91508082526020830160208301858383011115614f6157600080fd5b614f6c838284615f77565b50505092915050565b6000614f0e8235610eb2565b600060208284031215614f9357600080fd5b6000614f9f8484614f02565b949350505050565b600060208284031215614fb957600080fd5b813567ffffffffffffffff811115614fd057600080fd5b614f9f84828501614f21565b600080600080600060a08688031215614ff457600080fd5b853567ffffffffffffffff81111561500b57600080fd5b61501788828901614f21565b955050602086013567ffffffffffffffff81111561503457600080fd5b61504088828901614f21565b945050604061505188828901614f75565b935050606086013567ffffffffffffffff81111561506e57600080fd5b61507a88828901614f21565b925050608061508b88828901614f02565b9150509295509295909350565b6000602082840312156150aa57600080fd5b6000614f9f8484614f75565b600080600080600080600080610100898b0312156150d357600080fd5b60006150df8b8b614f75565b985050602089013567ffffffffffffffff8111156150fc57600080fd5b6151088b828c01614f21565b97505060406151198b828c01614f15565b965050606061512a8b828c01614f75565b955050608061513b8b828c01614f15565b94505060a061514c8b828c01614f75565b93505060c089013567ffffffffffffffff81111561516957600080fd5b6151758b828c01614f21565b92505060e06151868b828c01614f75565b9150509295985092959890939650565b60008060008060008060c087890312156151af57600080fd5b60006151bb8989614f75565b965050602087013567ffffffffffffffff8111156151d857600080fd5b6151e489828a01614f21565b955050604087013567ffffffffffffffff81111561520157600080fd5b61520d89828a01614f21565b945050606087013567ffffffffffffffff81111561522a57600080fd5b61523689828a01614f21565b935050608087013567ffffffffffffffff81111561525357600080fd5b61525f89828a01614f21565b92505060a087013567ffffffffffffffff81111561527c57600080fd5b61528889828a01614f21565b9150509295509295509295565b600080600080600060a086880312156152ad57600080fd5b60006152b98888614f75565b955050602086013567ffffffffffffffff8111156152d657600080fd5b6152e288828901614f21565b945050604086013567ffffffffffffffff8111156152ff57600080fd5b61530b88828901614f21565b935050606086013567ffffffffffffffff81111561532857600080fd5b61533488828901614f21565b925050608061508b88828901614f75565b600080600080600080600060e0888a03121561536057600080fd5b600061536c8a8a614f75565b975050602061537d8a828b01614f75565b965050604088013567ffffffffffffffff81111561539a57600080fd5b6153a68a828b01614f21565b955050606088013567ffffffffffffffff8111156153c357600080fd5b6153cf8a828b01614f21565b945050608088013567ffffffffffffffff8111156153ec57600080fd5b6153f88a828b01614f21565b93505060a088013567ffffffffffffffff81111561541557600080fd5b6154218a828b01614f21565b92505060c088013567ffffffffffffffff81111561543e57600080fd5b61544a8a828b01614f21565b91505092959891949750929550565b61546281615f4f565b82525050565b600061547382615f4b565b80845260208401935061548583615f45565b60005b828110156154b55761549b868351615459565b6154a482615f45565b602096909601959150600101615488565b5093949350505050565b60006154ca82615f4b565b808452602084019350836020820285016154e385615f45565b60005b8481101561551a5783830388526154fe8383516156f1565b925061550982615f45565b6020989098019791506001016154e6565b50909695505050505050565b600061553182615f4b565b8084526020840193508360208202850161554a85615f45565b60005b8481101561551a578383038852615565838351615ad2565b925061557082615f45565b60209890980197915060010161554d565b600061558c82615f4b565b808452602084019350836020820285016155a585615f45565b60005b8481101561551a5783830388526155c0838351615b67565b92506155cb82615f45565b6020989098019791506001016155a8565b60006155e782615f4b565b8084526020840193508360208202850161560085615f45565b60005b8481101561551a57838303885261561b838351615c6a565b925061562682615f45565b602098909801979150600101615603565b600061564282615f4b565b8084526020840193508360208202850161565b85615f45565b60005b8481101561551a578383038852615676838351615c9c565b925061568182615f45565b60209890980197915060010161565e565b600061569d82615f4b565b8084526020840193506156af83615f45565b60005b828110156154b5576156c5868351615d4b565b6156ce82615f45565b6020969096019591506001016156b2565b61546281615f5b565b61546281615f6c565b60006156fc82615f4b565b808452615710816020860160208601615f83565b61571981615fb3565b9093016020019392505050565b601a81527f4372656174696f6e204461746520697320696e6d757461626c65000000000000602082015260400190565b601181527f726f6c65206973206d616e6461746f7279000000000000000000000000000000602082015260400190565b602281527f4f6e6c792070656e64696e672075736572732063616e2062652061636365707460208201527f6564000000000000000000000000000000000000000000000000000000000000604082015260600190565b601381527f5573657220616c72656164792065786973747300000000000000000000000000602082015260400190565b601481527f546869732075736572206e6f7420657869737473000000000000000000000000602082015260400190565b601b81527f596f752063616e6e6f7420616363657074207468697320757365720000000000602082015260400190565b602281527f4f6e6c792070656e64696e672075736572732063616e2062652072656a65637460208201527f6564000000000000000000000000000000000000000000000000000000000000604082015260600190565b601381527f737461747573206973206e6f742076616c696400000000000000000000000000602082015260400190565b601181527f6d656d626572206e6f7420657869737473000000000000000000000000000000602082015260400190565b601481527f4d656d62657220646f206e6f7420657869737473000000000000000000000000602082015260400190565b601581527f4d656d62657220616c7265616479206578697374730000000000000000000000602082015260400190565b601181527f4d656d626572206e6f7420657869737473000000000000000000000000000000602082015260400190565b601281527f5468656d65206973206d616e6461746f72790000000000000000000000000000602082015260400190565b601081527f434d4f206973206d616e6461746f727900000000000000000000000000000000602082015260400190565b601481527f596f7520617265206e6f74206163636570746564000000000000000000000000602082015260400190565b601181527f4e616d65206973206d616e6461746f7279000000000000000000000000000000602082015260400190565b601181527f4e6f2076616c6964206d656d6265724964000000000000000000000000000000602082015260400190565b601981527f4372656174696f6e44617465206973206d616e6461746f727900000000000000602082015260400190565b805160009060e0840190615ae68582615d4b565b506020830151615af96020860182615d4b565b5060408301518482036040860152615b1182826155dc565b9150506060830151615b2660608601826156df565b506080830151615b396080860182615d4b565b5060a0830151615b4c60a08601826156df565b5060c0830151615b5f60c0860182615d4b565b509392505050565b8051600090610140840190615b7c8582615d4b565b506020830151615b8f6020860182615d4b565b5060408301518482036040860152615ba782826156f1565b91505060608301518482036060860152615bc182826156f1565b91505060808301518482036080860152615bdb82826156f1565b91505060a083015184820360a0860152615bf582826156f1565b91505060c083015184820360c0860152615c0f82826156f1565b91505060e083015184820360e0860152615c298282615692565b915050610100830151848203610100860152615c458282615692565b915050610120830151848203610120860152615c618282615468565b95945050505050565b8051604080845260009190840190615c8282826156f1565b91505060208301518482036020860152615c6182826156f1565b8051600090610100840190615cb18582615d4b565b5060208301518482036020860152615cc982826156f1565b91505060408301518482036040860152615ce382826156f1565b9150506060830151615cf86060860182615d4b565b506080830151615d0b6080860182615d4b565b5060a083015184820360a0860152615d2382826156f1565b91505060c0830151615d3860c08601826156e8565b5060e0830151615b5f60e0860182615459565b61546281610eb2565b60208082528101614f0e81846154bf565b60208082528101614f0e8184615526565b60208082528101614f0e8184615581565b60208082528101614f0e8184615637565b602081016111aa82846156df565b602080825281016111aa81615726565b602080825281016111aa81615756565b602080825281016111aa81615786565b602080825281016111aa816157dc565b602080825281016111aa8161580c565b602080825281016111aa8161583c565b602080825281016111aa8161586c565b602080825281016111aa816158c2565b602080825281016111aa816158f2565b602080825281016111aa81615922565b602080825281016111aa81615952565b602080825281016111aa81615982565b602080825281016111aa816159b2565b602080825281016111aa816159e2565b602080825281016111aa81615a12565b602080825281016111aa81615a42565b602080825281016111aa81615a72565b602080825281016111aa81615aa2565b60208082528101614f0e8184615ad2565b60208082528101614f0e8184615c9c565b602081016111aa8284615d4b565b60405181810167ffffffffffffffff81118282101715615f1557600080fd5b604052919050565b600067ffffffffffffffff821115615f3457600080fd5b506020601f91909101601f19160190565b60200190565b5190565b600160a060020a031690565b151590565b60006003821061063d57fe5b60006111aa82615f60565b82818337506000910152565b60005b83811015615f9e578181015183820152602001615f86565b83811115615fad576000848401525b50505050565b601f01601f1916905600a265627a7a723058200b1251d4dd65f288a57f71c80b2df97f742d1a02421e744cc9b36bc2c3108ec46c6578706572696d656e74616cf50037",
  "source": "pragma solidity ^0.4.24;\npragma experimental ABIEncoderV2;\n\nimport \"./Claims.sol\";\n\ncontract Registry is Claims {\n  \n  string[] private cmos_;\n\n  function addCMO(string memory _cmo) onlySigner public {\n    cmos_.push(_cmo);\n  }\n\n  function deleteCMO(uint _index) onlySigner public {\n    for (uint i = _index; i < cmos_.length-1;i++){\n      cmos_[i] = cmos_[i+1];\n    }\n    delete cmos_[cmos_.length-1];\n    cmos_.length--;\n  }\n\n  function getCMOs() view public returns( string[] memory ) {\n    return cmos_;\n  }\n\n}",
  "sourcePath": "/home/komodo/newUI/bloomen-decentralized-rights-management-v2/truffle/contracts/registry/Registry.sol",
  "compiler": {
    "name": "solc",
    "version": "0.4.24+commit.e67f0147.Emscripten.clang"
  },
  "schemaVersion": "2.0.1",
  "updatedAt": "2019-11-28T12:15:30.682Z"
}