{
  "contractName": "Registry",
  "abi": [
    {
      "constant": false,
      "inputs": [
        {
          "name": "_userToAccept",
          "type": "address"
        }
      ],
      "name": "acceptUser",
      "outputs": [],
      "payable": false,
      "stateMutability": "nonpayable",
      "type": "function"
    },
    {
      "constant": true,
      "inputs": [],
      "name": "getClaimsCountByMemberId",
      "outputs": [
        {
          "name": "",
          "type": "uint256"
        }
      ],
      "payable": false,
      "stateMutability": "view",
      "type": "function"
    },
    {
      "constant": false,
      "inputs": [
        {
          "name": "_userToReject",
          "type": "address"
        }
      ],
      "name": "rejectUser",
      "outputs": [],
      "payable": false,
      "stateMutability": "nonpayable",
      "type": "function"
    },
    {
      "constant": true,
      "inputs": [
        {
          "name": "_claimId",
          "type": "uint256"
        }
      ],
      "name": "getClaim",
      "outputs": [
        {
          "components": [
            {
              "name": "creationDate",
              "type": "uint256"
            },
            {
              "name": "claimId",
              "type": "uint256"
            },
            {
              "components": [
                {
                  "name": "name",
                  "type": "string"
                },
                {
                  "name": "value",
                  "type": "string"
                }
              ],
              "name": "claimData",
              "type": "tuple[]"
            },
            {
              "name": "claimType",
              "type": "uint8"
            },
            {
              "name": "memberOwner",
              "type": "uint256"
            },
            {
              "name": "memberReceptor",
              "type": "uint256"
            },
            {
              "name": "messageLog",
              "type": "string[]"
            },
            {
              "name": "status",
              "type": "uint8"
            },
            {
              "name": "lastChange",
              "type": "uint256"
            }
          ],
          "name": "",
          "type": "tuple"
        }
      ],
      "payable": false,
      "stateMutability": "view",
      "type": "function"
    },
    {
      "constant": true,
      "inputs": [
        {
          "name": "_page",
          "type": "uint256"
        }
      ],
      "name": "getUsers",
      "outputs": [
        {
          "components": [
            {
              "name": "creationDate",
              "type": "uint256"
            },
            {
              "name": "firstName",
              "type": "string"
            },
            {
              "name": "lastName",
              "type": "string"
            },
            {
              "name": "memberId",
              "type": "uint256"
            },
            {
              "name": "requestId",
              "type": "uint256"
            },
            {
              "name": "role",
              "type": "string"
            },
            {
              "name": "status",
              "type": "uint8"
            },
            {
              "name": "owner",
              "type": "address"
            }
          ],
          "name": "",
          "type": "tuple[]"
        }
      ],
      "payable": false,
      "stateMutability": "view",
      "type": "function"
    },
    {
      "constant": false,
      "inputs": [
        {
          "name": "_memberId",
          "type": "uint256"
        },
        {
          "name": "_creationDate",
          "type": "uint256"
        },
        {
          "name": "_name",
          "type": "string"
        },
        {
          "name": "_logo",
          "type": "string"
        },
        {
          "name": "_country",
          "type": "string"
        },
        {
          "name": "_cmo",
          "type": "string"
        },
        {
          "name": "_theme",
          "type": "string"
        }
      ],
      "name": "updateMember",
      "outputs": [],
      "payable": false,
      "stateMutability": "nonpayable",
      "type": "function"
    },
    {
      "constant": true,
      "inputs": [
        {
          "name": "userAddress",
          "type": "address"
        }
      ],
      "name": "getUserByAddress",
      "outputs": [
        {
          "components": [
            {
              "name": "creationDate",
              "type": "uint256"
            },
            {
              "name": "firstName",
              "type": "string"
            },
            {
              "name": "lastName",
              "type": "string"
            },
            {
              "name": "memberId",
              "type": "uint256"
            },
            {
              "name": "requestId",
              "type": "uint256"
            },
            {
              "name": "role",
              "type": "string"
            },
            {
              "name": "status",
              "type": "uint8"
            },
            {
              "name": "owner",
              "type": "address"
            }
          ],
          "name": "",
          "type": "tuple"
        }
      ],
      "payable": false,
      "stateMutability": "view",
      "type": "function"
    },
    {
      "constant": true,
      "inputs": [
        {
          "name": "account",
          "type": "address"
        }
      ],
      "name": "isSigner",
      "outputs": [
        {
          "name": "",
          "type": "bool"
        }
      ],
      "payable": false,
      "stateMutability": "view",
      "type": "function"
    },
    {
      "constant": true,
      "inputs": [],
      "name": "getUsersOwner",
      "outputs": [
        {
          "components": [
            {
              "name": "creationDate",
              "type": "uint256"
            },
            {
              "name": "firstName",
              "type": "string"
            },
            {
              "name": "lastName",
              "type": "string"
            },
            {
              "name": "memberId",
              "type": "uint256"
            },
            {
              "name": "requestId",
              "type": "uint256"
            },
            {
              "name": "role",
              "type": "string"
            },
            {
              "name": "status",
              "type": "uint8"
            },
            {
              "name": "owner",
              "type": "address"
            }
          ],
          "name": "",
          "type": "tuple[]"
        }
      ],
      "payable": false,
      "stateMutability": "view",
      "type": "function"
    },
    {
      "constant": true,
      "inputs": [],
      "name": "getMembers",
      "outputs": [
        {
          "components": [
            {
              "name": "memberId",
              "type": "uint256"
            },
            {
              "name": "creationDate",
              "type": "uint256"
            },
            {
              "name": "name",
              "type": "string"
            },
            {
              "name": "logo",
              "type": "string"
            },
            {
              "name": "country",
              "type": "string"
            },
            {
              "name": "cmo",
              "type": "string"
            },
            {
              "name": "theme",
              "type": "string"
            },
            {
              "name": "claimInbox",
              "type": "uint256[]"
            },
            {
              "name": "claims",
              "type": "uint256[]"
            },
            {
              "name": "userRequests",
              "type": "address[]"
            }
          ],
          "name": "",
          "type": "tuple[]"
        }
      ],
      "payable": false,
      "stateMutability": "view",
      "type": "function"
    },
    {
      "constant": false,
      "inputs": [
        {
          "name": "_creationDate",
          "type": "uint256"
        },
        {
          "name": "_claimData",
          "type": "bytes"
        },
        {
          "name": "_claimType",
          "type": "uint256"
        },
        {
          "name": "_memberReceptor",
          "type": "uint256"
        }
      ],
      "name": "registerClaim",
      "outputs": [],
      "payable": false,
      "stateMutability": "nonpayable",
      "type": "function"
    },
    {
      "constant": true,
      "inputs": [],
      "name": "getcountUsers",
      "outputs": [
        {
          "name": "",
          "type": "uint256"
        }
      ],
      "payable": false,
      "stateMutability": "view",
      "type": "function"
    },
    {
      "constant": false,
      "inputs": [
        {
          "name": "_creationDate",
          "type": "uint256"
        },
        {
          "name": "_firstName",
          "type": "string"
        },
        {
          "name": "_lastName",
          "type": "string"
        },
        {
          "name": "_role",
          "type": "string"
        },
        {
          "name": "_memberId",
          "type": "uint256"
        }
      ],
      "name": "registerUserRequest",
      "outputs": [],
      "payable": false,
      "stateMutability": "nonpayable",
      "type": "function"
    },
    {
      "constant": true,
      "inputs": [],
      "name": "getCount",
      "outputs": [
        {
          "name": "",
          "type": "uint256"
        }
      ],
      "payable": false,
      "stateMutability": "view",
      "type": "function"
    },
    {
      "constant": true,
      "inputs": [
        {
          "name": "_page",
          "type": "uint256"
        }
      ],
      "name": "getClaimsByMemberId",
      "outputs": [
        {
          "components": [
            {
              "name": "creationDate",
              "type": "uint256"
            },
            {
              "name": "claimId",
              "type": "uint256"
            },
            {
              "components": [
                {
                  "name": "name",
                  "type": "string"
                },
                {
                  "name": "value",
                  "type": "string"
                }
              ],
              "name": "claimData",
              "type": "tuple[]"
            },
            {
              "name": "claimType",
              "type": "uint8"
            },
            {
              "name": "memberOwner",
              "type": "uint256"
            },
            {
              "name": "memberReceptor",
              "type": "uint256"
            },
            {
              "name": "messageLog",
              "type": "string[]"
            },
            {
              "name": "status",
              "type": "uint8"
            },
            {
              "name": "lastChange",
              "type": "uint256"
            }
          ],
          "name": "",
          "type": "tuple[]"
        }
      ],
      "payable": false,
      "stateMutability": "view",
      "type": "function"
    },
    {
      "constant": true,
      "inputs": [],
      "name": "getMe",
      "outputs": [
        {
          "components": [
            {
              "name": "creationDate",
              "type": "uint256"
            },
            {
              "name": "firstName",
              "type": "string"
            },
            {
              "name": "lastName",
              "type": "string"
            },
            {
              "name": "memberId",
              "type": "uint256"
            },
            {
              "name": "requestId",
              "type": "uint256"
            },
            {
              "name": "role",
              "type": "string"
            },
            {
              "name": "status",
              "type": "uint8"
            },
            {
              "name": "owner",
              "type": "address"
            }
          ],
          "name": "",
          "type": "tuple"
        }
      ],
      "payable": false,
      "stateMutability": "view",
      "type": "function"
    },
    {
      "constant": true,
      "inputs": [
        {
          "name": "_page",
          "type": "uint256"
        }
      ],
      "name": "getMembers",
      "outputs": [
        {
          "components": [
            {
              "name": "memberId",
              "type": "uint256"
            },
            {
              "name": "creationDate",
              "type": "uint256"
            },
            {
              "name": "name",
              "type": "string"
            },
            {
              "name": "logo",
              "type": "string"
            },
            {
              "name": "country",
              "type": "string"
            },
            {
              "name": "cmo",
              "type": "string"
            },
            {
              "name": "theme",
              "type": "string"
            },
            {
              "name": "claimInbox",
              "type": "uint256[]"
            },
            {
              "name": "claims",
              "type": "uint256[]"
            },
            {
              "name": "userRequests",
              "type": "address[]"
            }
          ],
          "name": "",
          "type": "tuple[]"
        }
      ],
      "payable": false,
      "stateMutability": "view",
      "type": "function"
    },
    {
      "constant": false,
      "inputs": [
        {
          "name": "_claimId",
          "type": "uint256"
        },
        {
          "name": "_claimData",
          "type": "bytes"
        },
        {
          "name": "_lastChange",
          "type": "uint256"
        }
      ],
      "name": "updateClaim",
      "outputs": [],
      "payable": false,
      "stateMutability": "nonpayable",
      "type": "function"
    },
    {
      "constant": false,
      "inputs": [],
      "name": "renounceSigner",
      "outputs": [],
      "payable": false,
      "stateMutability": "nonpayable",
      "type": "function"
    },
    {
      "constant": false,
      "inputs": [
        {
          "name": "account",
          "type": "address"
        }
      ],
      "name": "addSigner",
      "outputs": [],
      "payable": false,
      "stateMutability": "nonpayable",
      "type": "function"
    },
    {
      "constant": false,
      "inputs": [
        {
          "name": "_creationDate",
          "type": "uint256"
        },
        {
          "name": "_name",
          "type": "string"
        },
        {
          "name": "_logo",
          "type": "string"
        },
        {
          "name": "_country",
          "type": "string"
        },
        {
          "name": "_cmo",
          "type": "string"
        },
        {
          "name": "_theme",
          "type": "string"
        }
      ],
      "name": "addMember",
      "outputs": [
        {
          "name": "",
          "type": "uint256"
        }
      ],
      "payable": false,
      "stateMutability": "nonpayable",
      "type": "function"
    },
    {
      "constant": false,
      "inputs": [
        {
          "name": "_firstName",
          "type": "string"
        },
        {
          "name": "_lastName",
          "type": "string"
        },
        {
          "name": "_memberId",
          "type": "uint256"
        },
        {
          "name": "_role",
          "type": "string"
        },
        {
          "name": "owner",
          "type": "address"
        }
      ],
      "name": "updateUser",
      "outputs": [],
      "payable": false,
      "stateMutability": "nonpayable",
      "type": "function"
    },
    {
      "constant": false,
      "inputs": [
        {
          "name": "account",
          "type": "address"
        }
      ],
      "name": "whitelistAdmin",
      "outputs": [],
      "payable": false,
      "stateMutability": "nonpayable",
      "type": "function"
    },
    {
      "anonymous": false,
      "inputs": [
        {
          "indexed": true,
          "name": "account",
          "type": "address"
        }
      ],
      "name": "SignerAdded",
      "type": "event"
    },
    {
      "anonymous": false,
      "inputs": [
        {
          "indexed": true,
          "name": "account",
          "type": "address"
        }
      ],
      "name": "SignerRemoved",
      "type": "event"
    },
    {
      "constant": false,
      "inputs": [
        {
          "name": "_cmo",
          "type": "string"
        }
      ],
      "name": "addCMO",
      "outputs": [],
      "payable": false,
      "stateMutability": "nonpayable",
      "type": "function"
    },
    {
      "constant": false,
      "inputs": [
        {
          "name": "_index",
          "type": "uint256"
        }
      ],
      "name": "deleteCMO",
      "outputs": [],
      "payable": false,
      "stateMutability": "nonpayable",
      "type": "function"
    },
    {
      "constant": true,
      "inputs": [],
      "name": "getCMOs",
      "outputs": [
        {
          "name": "",
          "type": "string[]"
        }
      ],
      "payable": false,
      "stateMutability": "view",
      "type": "function"
    }
  ],
  "bytecode": "0x608060405260006006556200001d3364010000000062000023810204565b62000108565b6200003e600082640100000000620046c76200007582021704565b604051600160a060020a038216907f47d1c22a25bb3a5d4e481b9b1e6944c2eade3181a0a20b495ed61d35b5323f2490600090a250565b600160a060020a03811615156200008b57600080fd5b620000a08282640100000000620000d0810204565b15620000ab57600080fd5b600160a060020a0316600090815260209190915260409020805460ff19166001179055565b6000600160a060020a0382161515620000e857600080fd5b50600160a060020a03166000908152602091909152604090205460ff1690565b615f7c80620001186000396000f3006080604052600436106101535763ffffffff7c010000000000000000000000000000000000000000000000000000000060003504166308bdc24d81146101585780631be8850b1461017a5780633a59ccf1146101a55780634dc92885146101c55780635aef2447146101e55780635d73ab9a14610212578063656d561c1461023f57806365ff0c481461026157806369c212f6146102815780637df73e27146102ae578063932191be146102db5780639eab5253146102f0578063a42e28db14610312578063a4fdc59414610332578063a7ed1fe414610347578063a87d942c14610367578063b6bc38121461037c578063bf3d007e146103a9578063c11e1ff3146103c9578063c477ecab146103de578063cb68b9e8146103fe578063e5c8b03d1461041e578063eb12d61e14610433578063fa1188c614610453578063fcfbde5b14610473578063ff240fce14610493575b600080fd5b34801561016457600080fd5b50610178610173366004614d9d565b6104b3565b005b34801561018657600080fd5b5061018f61064f565b60405161019c9190615e56565b60405180910390f35b3480156101b157600080fd5b506101786101c0366004614dc3565b61066c565b3480156101d157600080fd5b506101786101e0366004614d9d565b6106c9565b3480156101f157600080fd5b50610205610200366004614eb4565b61082d565b60405161019c9190615e34565b34801561021e57600080fd5b5061023261022d366004614eb4565b610b3f565b60405161019c9190615cc5565b34801561024b57600080fd5b50610254610f1a565b60405161019c9190615c92565b34801561026d57600080fd5b5061017861027c36600461515f565b610ff3565b34801561028d57600080fd5b506102a161029c366004614d9d565b611082565b60405161019c9190615e45565b3480156102ba57600080fd5b506102ce6102c9366004614d9d565b6112d6565b60405161019c9190615cd6565b3480156102e757600080fd5b506102326112ee565b3480156102fc57600080fd5b506103056115df565b60405161019c9190615cb4565b34801561031e57600080fd5b5061017861032d366004614f37565b611aa6565b34801561033e57600080fd5b5061018f611bd2565b34801561035357600080fd5b506101786103623660046150af565b611c97565b34801561037357600080fd5b5061018f611d5e565b34801561038857600080fd5b5061039c610397366004614eb4565b611d7b565b60405161019c9190615ca3565b3480156103b557600080fd5b506101786103c4366004614eb4565b61218f565b3480156103d557600080fd5b506102a161224d565b3480156103ea57600080fd5b506103056103f9366004614eb4565b6122de565b34801561040a57600080fd5b50610178610419366004614ed2565b6127f9565b34801561042a57600080fd5b5061017861296a565b34801561043f57600080fd5b5061017861044e366004614d9d565b612975565b34801561045f57600080fd5b5061018f61046e366004614fb0565b612992565b34801561047f57600080fd5b5061017861048e366004614df8565b612a21565b34801561049f57600080fd5b506101786104ae366004614d9d565b612b0f565b600160a060020a038181166000908152600360205260408120600601546101009004909116116105015760405160e560020a62461bcd0281526004016104f890615d24565b60405180910390fd5b600160a060020a03811660009081526003602081905260408083208201543384529220015414806105365750610536336112d6565b15156105575760405160e560020a62461bcd0281526004016104f890615d34565b60023360009081526003602052604090206006015460ff16600281111561057a57fe5b148061058a575061058a336112d6565b15156105ab5760405160e560020a62461bcd0281526004016104f890615de4565b6001600160a060020a03821660009081526003602052604090206006015460ff1660028111156105d757fe5b146105f75760405160e560020a62461bcd0281526004016104f890615d04565b600160a060020a038116600090815260036020526040902060060180546002919060ff19166001835b0217905550600160a060020a0381166000908152600360208190526040909120015461064c9082612be3565b50565b60008061065a612d52565b905061066581612d69565b91505b5090565b610675336112d6565b151561068057600080fd5b600780546001810180835560009290925282516106c4917fa66cc928b5edb82af9bd49922954155ab7b0942694bea4ce44661d9a8736c688019060208501906148cf565b505050565b600160a060020a0381811660009081526003602052604081206006015461010090049091161161070e5760405160e560020a62461bcd0281526004016104f890615d24565b600160a060020a03811660009081526003602081905260408083208201543384529220015414806107435750610743336112d6565b15156107645760405160e560020a62461bcd0281526004016104f890615d34565b60023360009081526003602052604090206006015460ff16600281111561078757fe5b14806107975750610797336112d6565b15156107b85760405160e560020a62461bcd0281526004016104f890615de4565b6001600160a060020a03821660009081526003602052604090206006015460ff1660028111156107e457fe5b146108045760405160e560020a62461bcd0281526004016104f890615d44565b600160a060020a0381166000908152600360205260408120600601805460ff1916600183610620565b610835614949565b600560008381526020019081526020016000206101206040519081016040529081600082015481526020016001820154815260200160028201805480602002602001604051908101604052809291908181526020016000905b828210156109ec5760008481526020908190206040805160028681029093018054600181161561010002600019011693909304601f8101859004909402810160609081018352918101848152909384928491908401828280156109325780601f1061090757610100808354040283529160200191610932565b820191906000526020600020905b81548152906001019060200180831161091557829003601f168201915b50505050508152602001600182018054600181600116156101000203166002900480601f0160208091040260200160405190810160405280929190818152602001828054600181600116156101000203166002900480156109d45780601f106109a9576101008083540402835291602001916109d4565b820191906000526020600020905b8154815290600101906020018083116109b757829003601f168201915b5050505050815250508152602001906001019061088e565b50505090825250600382015460209091019060ff166001811115610a0c57fe5b6001811115610a1757fe5b8152602001600482015481526020016005820154815260200160068201805480602002602001604051908101604052809291908181526020016000905b82821015610aff5760008481526020908190208301805460408051601f6002600019610100600187161502019094169390930492830185900485028101850190915281815292830182828015610aeb5780601f10610ac057610100808354040283529160200191610aeb565b820191906000526020600020905b815481529060010190602001808311610ace57829003601f168201915b505050505081526020019060010190610a54565b50505090825250600782015460209091019060ff166001811115610b1f57fe5b6001811115610b2a57fe5b81526020016008820154815250509050919050565b606060008060006060600080610b53611bd2565b9550610b60600a89612d7e565b600454909550610b7190600a612db7565b9350851580610b7f57508585115b80610b8957508388115b15610b9357610f0f565b60408051600a808252610160820190925290816020015b610bb26149ac565b815260200190600190039081610baa579050509250600091508490505b600454811015610f0b5733600090815260036020819052604082208101546004805491939185908110610bfe57fe5b6000918252602080832090910154600160a060020a03168352820192909252604001902060030154148015610c7b5750600260036000600484815481101515610c4357fe5b6000918252602080832090910154600160a060020a0316835282019290925260400190206006015460ff166002811115610c7957fe5b145b15610f035760036000600483815481101515610c9357fe5b600091825260208083209190910154600160a060020a0316835282810193909352604091820190208151610100808201845282548252600180840180548651600293821615909402600019011691909104601f81018790048702830187019095528482529194929385840193919291830182828015610d535780601f10610d2857610100808354040283529160200191610d53565b820191906000526020600020905b815481529060010190602001808311610d3657829003601f168201915b5050509183525050600282810180546040805160206001841615610100026000190190931694909404601f81018390048302850183019091528084529381019390830182828015610de55780601f10610dba57610100808354040283529160200191610de5565b820191906000526020600020905b815481529060010190602001808311610dc857829003601f168201915b505050505081526020016003820154815260200160048201548152602001600582018054600181600116156101000203166002900480601f016020809104026020016040519081016040528092919081815260200182805460018160011615610100020316600290048015610e9b5780601f10610e7057610100808354040283529160200191610e9b565b820191906000526020600020905b815481529060010190602001808311610e7e57829003601f168201915b5050509183525050600682015460209091019060ff166002811115610ebc57fe5b6002811115610ec757fe5b8152600691909101546101009004600160a060020a03166020909101528351849084908110610ef257fe5b602090810290910101526001909101905b600101610bcf565b8296505b505050505050919050565b60606007805480602002602001604051908101604052809291908181526020016000905b82821015610fe95760008481526020908190208301805460408051601f6002600019610100600187161502019094169390930492830185900485028101850190915281815292830182828015610fd55780601f10610faa57610100808354040283529160200191610fd5565b820191906000526020600020905b815481529060010190602001808311610fb857829003601f168201915b505050505081526020019060010190610f3e565b5050505090505b90565b610ffc336112d6565b151561100757600080fd5b600087815260016020526040812054116110365760405160e560020a62461bcd0281526004016104f890615db4565b60008781526001602081905260409091200154861461106a5760405160e560020a62461bcd0281526004016104f890615ce4565b61107987878787878787612dda565b50505050505050565b61108a6149ac565b600160a060020a0382166000908152600360209081526040918290208251610100808201855282548252600180840180548751600293821615909402600019011691909104601f810186900486028301860190965285825291949293858101939192919083018282801561113f5780601f106111145761010080835404028352916020019161113f565b820191906000526020600020905b81548152906001019060200180831161112257829003601f168201915b5050509183525050600282810180546040805160206001841615610100026000190190931694909404601f810183900483028501830190915280845293810193908301828280156111d15780601f106111a6576101008083540402835291602001916111d1565b820191906000526020600020905b8154815290600101906020018083116111b457829003601f168201915b505050505081526020016003820154815260200160048201548152602001600582018054600181600116156101000203166002900480601f0160208091040260200160405190810160405280929190818152602001828054600181600116156101000203166002900480156112875780601f1061125c57610100808354040283529160200191611287565b820191906000526020600020905b81548152906001019060200180831161126a57829003601f168201915b5050509183525050600682015460209091019060ff1660028111156112a857fe5b60028111156112b357fe5b8152600691909101546101009004600160a060020a031660209091015292915050565b60006112e8818363ffffffff6133d316565b92915050565b60608060006112fc336112d6565b151561130757600080fd5b60045460408051828152602080840282010190915290801561134357816020015b6113306149ac565b8152602001906001900390816113285790505b509150600090505b6004548110156115d9576003600060048381548110151561136857fe5b600091825260208083209190910154600160a060020a0316835282810193909352604091820190208151610100808201845282548252600180840180548651600293821615909402600019011691909104601f810187900487028301870190955284825291949293858401939192918301828280156114285780601f106113fd57610100808354040283529160200191611428565b820191906000526020600020905b81548152906001019060200180831161140b57829003601f168201915b5050509183525050600282810180546040805160206001841615610100026000190190931694909404601f810183900483028501830190915280845293810193908301828280156114ba5780601f1061148f576101008083540402835291602001916114ba565b820191906000526020600020905b81548152906001019060200180831161149d57829003601f168201915b505050505081526020016003820154815260200160048201548152602001600582018054600181600116156101000203166002900480601f0160208091040260200160405190810160405280929190818152602001828054600181600116156101000203166002900480156115705780601f1061154557610100808354040283529160200191611570565b820191906000526020600020905b81548152906001019060200180831161155357829003601f168201915b5050509183525050600682015460209091019060ff16600281111561159157fe5b600281111561159c57fe5b8152600691909101546101009004600160a060020a031660209091015282518390839081106115c757fe5b6020908102909101015260010161134b565b50919050565b606080600060028054905060405190808252806020026020018201604052801561162357816020015b6116106149fd565b8152602001906001900390816116085790505b509150600090505b6002548110156115d9576001600060028381548110151561164857fe5b9060005260206000200154815260200190815260200160002061014060405190810160405290816000820154815260200160018201548152602001600282018054600181600116156101000203166002900480601f01602080910402602001604051908101604052809291908181526020018280546001816001161561010002031660029004801561171b5780601f106116f05761010080835404028352916020019161171b565b820191906000526020600020905b8154815290600101906020018083116116fe57829003601f168201915b505050918352505060038201805460408051602060026001851615610100026000190190941693909304601f81018490048402820184019092528181529382019392918301828280156117af5780601f10611784576101008083540402835291602001916117af565b820191906000526020600020905b81548152906001019060200180831161179257829003601f168201915b505050918352505060048201805460408051602060026001851615610100026000190190941693909304601f81018490048402820184019092528181529382019392918301828280156118435780601f1061181857610100808354040283529160200191611843565b820191906000526020600020905b81548152906001019060200180831161182657829003601f168201915b505050918352505060058201805460408051602060026001851615610100026000190190941693909304601f81018490048402820184019092528181529382019392918301828280156118d75780601f106118ac576101008083540402835291602001916118d7565b820191906000526020600020905b8154815290600101906020018083116118ba57829003601f168201915b505050918352505060068201805460408051602060026001851615610100026000190190941693909304601f810184900484028201840190925281815293820193929183018282801561196b5780601f106119405761010080835404028352916020019161196b565b820191906000526020600020905b81548152906001019060200180831161194e57829003601f168201915b50505050508152602001600782018054806020026020016040519081016040528092919081815260200182805480156119c357602002820191906000526020600020905b8154815260200190600101908083116119af575b5050505050815260200160088201805480602002602001604051908101604052809291908181526020018280548015611a1b57602002820191906000526020600020905b815481526020019060010190808311611a07575b5050505050815260200160098201805480602002602001604051908101604052809291908181526020018280548015611a7d57602002820191906000526020600020905b8154600160a060020a03168152600190910190602001808311611a5f575b5050505050815250508282815181101515611a9457fe5b6020908102909101015260010161162b565b6000806060818711611acd5760405160e560020a62461bcd0281526004016104f890615e24565b600085101580611ade575060018511155b1515611aff5760405160e560020a62461bcd0281526004016104f890615e14565b60068054600101908190559250611b158461340a565b1515611b365760405160e560020a62461bcd0281526004016104f890615d84565b611b3e612d52565b60408051600080825260208201909252919350611b6b565b6060815260200190600190039081611b565790505b509050611b808388888886898760008f61341d565b611b8a828461362c565b60016006541115611ba057611ba0838688613651565b600160008481526005602052604090206007015460ff166001811115611bc257fe5b1415611079576110798284613d1c565b600080805b6004548110156115d95733600090815260036020819052604082208101546004805491939185908110611c0657fe5b6000918252602080832090910154600160a060020a03168352820192909252604001902060030154148015611c835750600260036000600484815481101515611c4b57fe5b6000918252602080832090910154600160a060020a0316835282019290925260400190206006015460ff166002811115611c8157fe5b145b15611c8f576001909101905b600101611bd7565b6000811515611cbb5760405160e560020a62461bcd0281526004016104f890615e04565b60008611611cde5760405160e560020a62461bcd0281526004016104f890615e24565b3360009081526003602052604090205415611d0e5760405160e560020a62461bcd0281526004016104f890615d14565b611d178261340a565b1515611d385760405160e560020a62461bcd0281526004016104f890615db4565b611d4186613d41565b9050611d568686868585886001336000613f30565b505050505050565b6000611d69336112d6565b1515611d7457600080fd5b5060025490565b6060600080600080606080600080611d94600a8b612d7e565b9750611d9e612d52565b9650611da987612d69565b9550611db686600a612db7565b9450851580611dc757506001860388115b80611dd15750848a115b15611ddb57612182565b611de487614384565b60408051600a8082526101608201909252919550816020015b611e05614949565b815260200190600190039081611dfd579050509250600091508790505b835181101561217e57600a82101561217157600560008583815181101515611e4657fe5b9060200190602002015181526020019081526020016000206101206040519081016040529081600082015481526020016001820154815260200160028201805480602002602001604051908101604052809291908181526020016000905b828210156120025760008481526020908190206040805160028681029093018054600181161561010002600019011693909304601f810185900490940281016060908101835291810184815290938492849190840182828015611f485780601f10611f1d57610100808354040283529160200191611f48565b820191906000526020600020905b815481529060010190602001808311611f2b57829003601f168201915b50505050508152602001600182018054600181600116156101000203166002900480601f016020809104026020016040519081016040528092919081815260200182805460018160011615610100020316600290048015611fea5780601f10611fbf57610100808354040283529160200191611fea565b820191906000526020600020905b815481529060010190602001808311611fcd57829003601f168201915b50505050508152505081526020019060010190611ea4565b50505090825250600382015460209091019060ff16600181111561202257fe5b600181111561202d57fe5b8152602001600482015481526020016005820154815260200160068201805480602002602001604051908101604052809291908181526020016000905b828210156121155760008481526020908190208301805460408051601f60026000196101006001871615020190941693909304928301859004850281018501909152818152928301828280156121015780601f106120d657610100808354040283529160200191612101565b820191906000526020600020905b8154815290600101906020018083116120e457829003601f168201915b50505050508152602001906001019061206a565b50505090825250600782015460209091019060ff16600181111561213557fe5b600181111561214057fe5b8152602001600882015481525050838381518110151561215c57fe5b60209081029091010152600190910190612176565b61217e565b600101611e22565b8298505b5050505050505050919050565b600061219a336112d6565b15156121a557600080fd5b50805b600754600019018110156122125760078054600183019081106121c757fe5b906000526020600020016007828154811015156121e057fe5b906000526020600020019080546001816001161561010002031660029004612209929190614a51565b506001016121a8565b60078054600019810190811061222457fe5b90600052602060002001600061223a9190614ac6565b60078054906106c4906000198301614b0a565b6122556149ac565b61225d6149ac565b336000908152600360209081526040918290208251610100808201855282548252600180840180548751600293821615909402600019011691909104601f810186900486028301860190965285825291949293858101939192919083018282801561113f5780601f106111145761010080835404028352916020019161113f565b60606000806000606060006122f4600a88612d7e565b60025490955061230590600a612db7565b600254909450158061231c57506002546000190185115b8061232657508387115b15612330576127ef565b60408051600a80825261016082019092526000945090816020015b6123536149fd565b81526020019060019003908161234b5790505091508490505b6002548110156127eb576001600060028381548110151561238957fe5b9060005260206000200154815260200190815260200160002061014060405190810160405290816000820154815260200160018201548152602001600282018054600181600116156101000203166002900480601f01602080910402602001604051908101604052809291908181526020018280546001816001161561010002031660029004801561245c5780601f106124315761010080835404028352916020019161245c565b820191906000526020600020905b81548152906001019060200180831161243f57829003601f168201915b505050918352505060038201805460408051602060026001851615610100026000190190941693909304601f81018490048402820184019092528181529382019392918301828280156124f05780601f106124c5576101008083540402835291602001916124f0565b820191906000526020600020905b8154815290600101906020018083116124d357829003601f168201915b505050918352505060048201805460408051602060026001851615610100026000190190941693909304601f81018490048402820184019092528181529382019392918301828280156125845780601f1061255957610100808354040283529160200191612584565b820191906000526020600020905b81548152906001019060200180831161256757829003601f168201915b505050918352505060058201805460408051602060026001851615610100026000190190941693909304601f81018490048402820184019092528181529382019392918301828280156126185780601f106125ed57610100808354040283529160200191612618565b820191906000526020600020905b8154815290600101906020018083116125fb57829003601f168201915b505050918352505060068201805460408051602060026001851615610100026000190190941693909304601f81018490048402820184019092528181529382019392918301828280156126ac5780601f10612681576101008083540402835291602001916126ac565b820191906000526020600020905b81548152906001019060200180831161268f57829003601f168201915b505050505081526020016007820180548060200260200160405190810160405280929190818152602001828054801561270457602002820191906000526020600020905b8154815260200190600101908083116126f0575b505050505081526020016008820180548060200260200160405190810160405280929190818152602001828054801561275c57602002820191906000526020600020905b815481526020019060010190808311612748575b50505050508152602001600982018054806020026020016040519081016040528092919081815260200182805480156127be57602002820191906000526020600020905b8154600160a060020a031681526001909101906020018083116127a0575b50505050508152505082848151811015156127d557fe5b602090810290910101526001928301920161236c565b8195505b5050505050919050565b6000838152600560205260408120600101541161282b5760405160e560020a62461bcd0281526004016104f890615d64565b600083815260056020526040902080546003909101546106c4918591859060ff16600181111561285757fe5b6000888152600560208181526040808420600481015493810154600690910180548351818602810186019094528084529495919492939092919084015b8282101561293f5760008481526020908190208301805460408051601f600260001961010060018716150201909416939093049283018590048502810185019091528181529283018282801561292b5780601f106129005761010080835404028352916020019161292b565b820191906000526020600020905b81548152906001019060200180831161290e57829003601f168201915b505050505081526020019060010190612894565b50505060008c81526005602052604090206007015460ff169050600181111561296457fe5b8961341d565b61297333614419565b565b61297e336112d6565b151561298957600080fd5b61064c81614461565b60008061299e336112d6565b15156129a957600080fd5b600088116129cc5760405160e560020a62461bcd0281526004016104f890615e24565b6129d588613d41565b60008181526001602052604090205490915015612a075760405160e560020a62461bcd0281526004016104f890615d94565b612a1681898989898989612dda565b979650505050505050565b600160a060020a03818116600090815260036020526040812060060154909182918291610100909104168110612a6c5760405160e560020a62461bcd0281526004016104f890615d24565b6002600160a060020a03851660009081526003602052604090206006015460ff166002811115612a9857fe5b14612ab85760405160e560020a62461bcd0281526004016104f890615de4565b600160a060020a03841660009081526003602052604090206004810154815460069092015490945090925060ff166002811115612af157fe5b9050612b0582898989878a878b6001613f30565b5050505050505050565b612b18336112d6565b1515612b2357600080fd5b600160a060020a03811660009081526003602081905260409091200154612b4a9082612be3565b604080518082018252600b81527f53757065722061646d696e0000000000000000000000000000000000000000006020808301918252600160a060020a03851660009081526003909152929092209051612baa92600590920191906148cf565b50600160a060020a0381166000908152600360208190526040822090810191909155600601805460ff1916600217905561064c81612975565b6000805b60008481526001602052604090206009015460001901811015612ce35760008481526001602052604090206009018054600160a060020a038516919083908110612c2d57fe5b600091825260209091200154600160a060020a03161415612c4d57600191505b8115612cdb576000848152600160208190526040909120600901805490918301908110612c7657fe5b6000918252602080832090910154868352600190915260409091206009018054600160a060020a039092169183908110612cac57fe5b9060005260206000200160006101000a815481600160a060020a030219169083600160a060020a031602179055505b600101612be7565b600084815260016020526040902060090180546000198101908110612d0457fe5b60009182526020808320909101805473ffffffffffffffffffffffffffffffffffffffff191690558582526001905260409020600901805490612d4b906000198301614b2e565b5050505050565b336000908152600360208190526040909120015490565b60009081526001602052604090206008015490565b600080831515612d915760009150612db0565b50828202828482811515612da157fe5b0414612dac57600080fd5b8091505b5092915050565b600080808311612dc657600080fd5b8284811515612dd157fe5b04949350505050565b612de26149fd565b85511515612e055760405160e560020a62461bcd0281526004016104f890615df4565b82511515612e285760405160e560020a62461bcd0281526004016104f890615dd4565b81511515612e4b5760405160e560020a62461bcd0281526004016104f890615dc4565b6000888152600160208181526040928390208351610140810185528154815281840154818401526002808301805487519681161561010002600019011691909104601f810185900485028601850187528086529195929492860193909190830182828015612efa5780601f10612ecf57610100808354040283529160200191612efa565b820191906000526020600020905b815481529060010190602001808311612edd57829003601f168201915b505050918352505060038201805460408051602060026001851615610100026000190190941693909304601f8101849004840282018401909252818152938201939291830182828015612f8e5780601f10612f6357610100808354040283529160200191612f8e565b820191906000526020600020905b815481529060010190602001808311612f7157829003601f168201915b505050918352505060048201805460408051602060026001851615610100026000190190941693909304601f81018490048402820184019092528181529382019392918301828280156130225780601f10612ff757610100808354040283529160200191613022565b820191906000526020600020905b81548152906001019060200180831161300557829003601f168201915b505050918352505060058201805460408051602060026001851615610100026000190190941693909304601f81018490048402820184019092528181529382019392918301828280156130b65780601f1061308b576101008083540402835291602001916130b6565b820191906000526020600020905b81548152906001019060200180831161309957829003601f168201915b505050918352505060068201805460408051602060026001851615610100026000190190941693909304601f810184900484028201840190925281815293820193929183018282801561314a5780601f1061311f5761010080835404028352916020019161314a565b820191906000526020600020905b81548152906001019060200180831161312d57829003601f168201915b50505050508152602001600782018054806020026020016040519081016040528092919081815260200182805480156131a257602002820191906000526020600020905b81548152602001906001019080831161318e575b50505050508152602001600882018054806020026020016040519081016040528092919081815260200182805480156131fa57602002820191906000526020600020905b8154815260200190600101908083116131e6575b505050505081526020016009820180548060200260200160405190810160405280929190818152602001828054801561325c57602002820191906000526020600020905b8154600160a060020a0316815260019091019060200180831161323e575b50505091909252505050888152602080820189815260408084018a8152606085018a90526080850189905260a0850188905260c0850187905260008d8152600180865292902085518155925191830191909155518051939450849391926132cb926002850192909101906148cf565b50606082015180516132e79160038401916020909101906148cf565b50608082015180516133039160048401916020909101906148cf565b5060a0820151805161331f9160058401916020909101906148cf565b5060c0820151805161333b9160068401916020909101906148cf565b5060e08201518051613357916007840191602090910190614b52565b506101008201518051613374916008840191602090910190614b52565b506101208201518051613391916009840191602090910190614b8c565b5050600280546001810182556000919091527f405787fa12a823e0f2b7631cc41b3ba8828b3321ca811111fa75cd3aa3bb5ace01989098555050505050505050565b6000600160a060020a03821615156133ea57600080fd5b50600160a060020a03166000908152602091909152604090205460ff1690565b6000908152600160205260408120541190565b613425614bfa565b6060600060606134348b6144a9565b935061343f846144f7565b92508c600560008f8152602001908152602001600020600101819055508b600560008f81526020019081526020016000206000018190555089600181111561348357fe5b60008e8152600560205260409020600301805460ff1916600183818111156134a757fe5b021790555060008d81526005602052604081206134c991600290910190614c11565b600091505b82518210156135ae576134f783838151811015156134e857fe5b906020019060200201516144f7565b9050600560008e8152602001908152602001600020600201604080519081016040528061353b84600081518110151561352c57fe5b906020019060200201516145ca565b815260200161355284600181518110151561352c57fe5b90528154600181018084556000938452602093849020835180519295600290940290910192613586928492909101906148cf565b50602082810151805161359f92600185019201906148cf565b505050508160010191506134ce565b60008d8152600560208181526040909220600481018c90559081018a90556008810187905588516135e7926006909201918a0190614c32565b508560018111156135f457fe5b60008e8152600560205260409020600701805460ff19166001838181111561361857fe5b021790555050505050505050505050505050565b6000918252600160208181526040842060080180549283018155845290922090910155565b613659614bfa565b60606000806006541115156136835760405160e560020a62461bcd0281526004016104f890615da4565b61368c846144a9565b9250613697836144f7565b9150600190505b6006548111611d56578460011480156136d6575060008181526005602052604090206003015460ff1660018111156136d257fe5b6001145b80156136e25750808614155b15613cdb5760008181526005602052604090206002018054600690811061370557fe5b906000526020600020906002020160010160405160200180828054600181600116156101000203166002900480156137745780601f10613752576101008083540402835291820191613774565b820191906000526020600020905b815481529060010190602001808311613760575b50509150506040516020818303038152906040526040518082805190602001908083835b602083106137b75780518252601f199092019160209182019101613798565b6001836020036101000a03801982511681845116808217855250505050505090500191505060405180910390206000191661380a6137fd8460068151811015156134e857fe5b8051600190811061352c57fe5b6040516020018082805190602001908083835b6020831061383c5780518252601f19909201916020918201910161381d565b6001836020036101000a0380198251168184511680821785525050505050509050019150506040516020818303038152906040526040518082805190602001908083835b6020831061389f5780518252601f199092019160209182019101613880565b6001836020036101000a038019825116818451168082178552505050505050905001915050604051809103902060001916148015613ab657506000818152600560205260409020600201805460039081106138f657fe5b906000526020600020906002020160010160405160200180828054600181600116156101000203166002900480156139655780601f10613943576101008083540402835291820191613965565b820191906000526020600020905b815481529060010190602001808311613951575b50509150506040516020818303038152906040526040518082805190602001908083835b602083106139a85780518252601f199092019160209182019101613989565b6001836020036101000a0380198251168184511680821785525050505050509050019150506040518091039020600019166139ee6137fd8460038151811015156134e857fe5b6040516020018082805190602001908083835b60208310613a205780518252601f199092019160209182019101613a01565b6001836020036101000a0380198251168184511680821785525050505050509050019150506040516020818303038152906040526040518082805190602001908083835b60208310613a835780518252601f199092019160209182019101613a64565b6001836020036101000a038019825116818451168082178552505050505050905001915050604051809103902060001916145b8015613c9b5750600081815260056020526040902060020180546004908110613adb57fe5b90600052602060002090600202016001016040516020018082805460018160011615610100020316600290048015613b4a5780601f10613b28576101008083540402835291820191613b4a565b820191906000526020600020905b815481529060010190602001808311613b36575b50509150506040516020818303038152906040526040518082805190602001908083835b60208310613b8d5780518252601f199092019160209182019101613b6e565b6001836020036101000a038019825116818451168082178552505050505050905001915050604051809103902060001916613bd36137fd8460048151811015156134e857fe5b6040516020018082805190602001908083835b60208310613c055780518252601f199092019160209182019101613be6565b6001836020036101000a0380198251168184511680821785525050505050509050019150506040516020818303038152906040526040518082805190602001908083835b60208310613c685780518252601f199092019160209182019101613c49565b6001836020036101000a038019825116818451168082178552505050505050905001915050604051809103902060001916145b15613cd65760008681526005602052604080822060079081018054600160ff1991821681179092558585529290932001805490911690911790555b613d14565b84158015613d06575060008181526005602052604090206003015460ff166001811115613d0457fe5b155b8015613d125750808614155b505b60010161369e565b6000918252600160208181526040842060070180549283018155845290922090910155565b6000808080600285061515613dd35784604051602001808281526020019150506040516020818303038152906040526040518082805190602001908083835b60208310613d9f5780518252601f199092019160209182019101613d80565b6001836020036101000a03801982511681845116808217855250505050505090500191505060405180910390209250613ebe565b84604051602001808281526020019150506040516020818303038152906040526040518082805190602001908083835b60208310613e225780518252601f199092019160209182019101613e03565b51815160209384036101000a600019018019909216911617905260408051929094018290038220828201528351808303820181529184019384905281519195509293508392850191508083835b60208310613e8e5780518252601f199092019160209182019101613e6f565b6001836020036101000a038019825116818451168082178552505050505050905001915050604051809103902092505b6020811015613eeb57828160208110613ed357fe5b60f860020a91901a8102049190910190600101613ebe565b826020600284010660208110613efd57fe5b60f860020a91901a810204836020840660208110613f1757fe5b1a60f860020a0260f860020a9004029350505050919050565b613f386149ac565b600084101580613f49575060028411155b1515613f6a5760405160e560020a62461bcd0281526004016104f890615d54565b84511515613f8d5760405160e560020a62461bcd0281526004016104f890615cf4565b600160a060020a0383166000908152600360209081526040918290208251610100808201855282548252600180840180548751600293821615909402600019011691909104601f81018690048602830186019096528582529194929385810193919291908301828280156140425780601f1061401757610100808354040283529160200191614042565b820191906000526020600020905b81548152906001019060200180831161402557829003601f168201915b5050509183525050600282810180546040805160206001841615610100026000190190931694909404601f810183900483028501830190915280845293810193908301828280156140d45780601f106140a9576101008083540402835291602001916140d4565b820191906000526020600020905b8154815290600101906020018083116140b757829003601f168201915b505050505081526020016003820154815260200160048201548152602001600582018054600181600116156101000203166002900480601f01602080910402602001604051908101604052809291908181526020018280546001816001161561010002031660029004801561418a5780601f1061415f5761010080835404028352916020019161418a565b820191906000526020600020905b81548152906001019060200180831161416d57829003601f168201915b5050509183525050600682015460209091019060ff1660028111156141ab57fe5b60028111156141b657fe5b8152600691909101546101009004600160a060020a03166020918201528b825281018a905260408101899052606081018890526080810187905260a08101869052905083600281111561420557fe5b8160c00190600281111561421557fe5b9081600281111561422257fe5b905250600160a060020a03831660e0820181905260009081526003602090815260409091208251815581830151805184936142649260018501929101906148cf565b50604082015180516142809160028401916020909101906148cf565b50606082015160038201556080820151600482015560a082015180516142b09160058401916020909101906148cf565b5060c082015160068201805460ff191660018360028111156142ce57fe5b021790555060e0919091015160069091018054600160a060020a039092166101000274ffffffffffffffffffffffffffffffffffffffff001990921691909117905581151561437857600480546001810182556000919091527f8a35acfbc15ff81a39ae7d344fd709f28e8600b4aa8c65c6b64bfe7fe36bd19b01805473ffffffffffffffffffffffffffffffffffffffff1916600160a060020a0385161790556143788761463c565b50505050505050505050565b600081815260016020526040812054606091106143b65760405160e560020a62461bcd0281526004016104f890615d74565b6000828152600160209081526040918290206008018054835181840281018401909452808452909183018282801561440d57602002820191906000526020600020905b8154815260200190600101908083116143f9575b50505050509050919050565b61442a60008263ffffffff61467b16565b604051600160a060020a038216907f3525e22824a8a7df2c9a6029941c824cf95b6447f1e13d5128fd3826d35afe8b90600090a250565b61447260008263ffffffff6146c716565b604051600160a060020a038216907f47d1c22a25bb3a5d4e481b9b1e6944c2eade3181a0a20b495ed61d35b5323f2490600090a250565b6144b1614bfa565b60008251600014156144d857604080518082019091526000808252602082015291506115d9565b5050604080518082019091528151815260209182019181019190915290565b606060008060008061450886614715565b151561451357600080fd5b61451c86614744565b93508360405190808252806020026020018201604052801561455857816020015b614545614bfa565b81526020019060019003908161453d5790505b5094506145688660200151614794565b8660200151019250600090505b838110156145c157614586836147f7565b915060408051908101604052808381526020018481525085828151811015156145ab57fe5b6020908102909101015291810191600101614575565b50505050919050565b6060600080606060006145e08660200151614794565b9350838660000151039250826040519080825280601f01601f191660200182016040528015614619578160200160208202803883390190505b509150816020019050614633848760200151018285614888565b50949350505050565b6000908152600160208181526040832060090180549283018155835290912001805473ffffffffffffffffffffffffffffffffffffffff191633179055565b600160a060020a038116151561469057600080fd5b61469a82826133d3565b15156146a557600080fd5b600160a060020a0316600090815260209190915260409020805460ff19169055565b600160a060020a03811615156146dc57600080fd5b6146e682826133d3565b156146f057600080fd5b600160a060020a0316600090815260209190915260409020805460ff19166001179055565b6020810151805160009190821a9060c060ff83161015614738576000925061473d565b600192505b5050919050565b6000806000806000925061475b8560200151614794565b6020860151865191810193500190505b8082101561478b5761477c826147f7565b6001909301929091019061476b565b50909392505050565b8051600090811a60808110156147ad57600091506115d9565b60b88110806147c8575060c081108015906147c8575060f881105b156147d657600191506115d9565b60c08110156147eb5760b519810191506115d9565b60f519810191506115d9565b8051600090811a608081101561481057600191506115d9565b60b881101561482557607e19810191506115d9565b60c08110156148525760b78103600184019350806020036101000a845104600182018101935050506115d9565b60f88110156148675760be19810191506115d9565b60019290920151602083900360f7016101000a900490910160f51901919050565b60005b602082106148ad578351835260209384019390920191601f199091019061488b565b50915181516020939093036101000a6000190180199091169216919091179052565b828054600181600116156101000203166002900490600052602060002090601f016020900481019282601f1061491057805160ff191683800117855561493d565b8280016001018555821561493d579182015b8281111561493d578251825591602001919060010190614922565b50610668929150614c8b565b610120604051908101604052806000815260200160008152602001606081526020016000600181111561497857fe5b81526020016000815260200160008152602001606081526020016000600181111561499f57fe5b8152602001600081525090565b61010060405190810160405280600081526020016060815260200160608152602001600081526020016000815260200160608152602001600060028111156149f057fe5b8152600060209091015290565b61014060405190810160405280600081526020016000815260200160608152602001606081526020016060815260200160608152602001606081526020016060815260200160608152602001606081525090565b828054600181600116156101000203166002900490600052602060002090601f016020900481019282601f10614a8a578054855561493d565b8280016001018555821561493d57600052602060002091601f016020900482015b8281111561493d578254825591600101919060010190614aab565b50805460018160011615610100020316600290046000825580601f10614aec575061064c565b601f01602090049060005260206000209081019061064c9190614c8b565b8154818355818111156106c4576000838152602090206106c4918101908301614ca5565b8154818355818111156106c4576000838152602090206106c4918101908301614c8b565b82805482825590600052602060002090810192821561493d579160200282018281111561493d578251825591602001919060010190614922565b828054828255906000526020600020908101928215614bee579160200282015b82811115614bee578251825473ffffffffffffffffffffffffffffffffffffffff1916600160a060020a03909116178255602090920191600190910190614bac565b50610668929150614cc8565b604080518082019091526000808252602082015290565b508054600082556002029060005260206000209081019061064c9190614cf9565b828054828255906000526020600020908101928215614c7f579160200282015b82811115614c7f5782518051614c6f9184916020909101906148cf565b5091602001919060010190614c52565b50610668929150614ca5565b610ff091905b808211156106685760008155600101614c91565b610ff091905b80821115610668576000614cbf8282614ac6565b50600101614cab565b610ff091905b8082111561066857805473ffffffffffffffffffffffffffffffffffffffff19168155600101614cce565b610ff091905b80821115610668576000614d138282614ac6565b614d21600183016000614ac6565b50600201614cff565b6000614d368235615ebd565b9392505050565b6000601f82018313614d4e57600080fd5b8135614d61614d5c82615e8b565b615e64565b91508082526020830160208301858383011115614d7d57600080fd5b614d88838284615efc565b50505092915050565b6000614d368235610ff0565b600060208284031215614daf57600080fd5b6000614dbb8484614d2a565b949350505050565b600060208284031215614dd557600080fd5b813567ffffffffffffffff811115614dec57600080fd5b614dbb84828501614d3d565b600080600080600060a08688031215614e1057600080fd5b853567ffffffffffffffff811115614e2757600080fd5b614e3388828901614d3d565b955050602086013567ffffffffffffffff811115614e5057600080fd5b614e5c88828901614d3d565b9450506040614e6d88828901614d91565b935050606086013567ffffffffffffffff811115614e8a57600080fd5b614e9688828901614d3d565b9250506080614ea788828901614d2a565b9150509295509295909350565b600060208284031215614ec657600080fd5b6000614dbb8484614d91565b600080600060608486031215614ee757600080fd5b6000614ef38686614d91565b935050602084013567ffffffffffffffff811115614f1057600080fd5b614f1c86828701614d3d565b9250506040614f2d86828701614d91565b9150509250925092565b60008060008060808587031215614f4d57600080fd5b6000614f598787614d91565b945050602085013567ffffffffffffffff811115614f7657600080fd5b614f8287828801614d3d565b9350506040614f9387828801614d91565b9250506060614fa487828801614d91565b91505092959194509250565b60008060008060008060c08789031215614fc957600080fd5b6000614fd58989614d91565b965050602087013567ffffffffffffffff811115614ff257600080fd5b614ffe89828a01614d3d565b955050604087013567ffffffffffffffff81111561501b57600080fd5b61502789828a01614d3d565b945050606087013567ffffffffffffffff81111561504457600080fd5b61505089828a01614d3d565b935050608087013567ffffffffffffffff81111561506d57600080fd5b61507989828a01614d3d565b92505060a087013567ffffffffffffffff81111561509657600080fd5b6150a289828a01614d3d565b9150509295509295509295565b600080600080600060a086880312156150c757600080fd5b60006150d38888614d91565b955050602086013567ffffffffffffffff8111156150f057600080fd5b6150fc88828901614d3d565b945050604086013567ffffffffffffffff81111561511957600080fd5b61512588828901614d3d565b935050606086013567ffffffffffffffff81111561514257600080fd5b61514e88828901614d3d565b9250506080614ea788828901614d91565b600080600080600080600060e0888a03121561517a57600080fd5b60006151868a8a614d91565b97505060206151978a828b01614d91565b965050604088013567ffffffffffffffff8111156151b457600080fd5b6151c08a828b01614d3d565b955050606088013567ffffffffffffffff8111156151dd57600080fd5b6151e98a828b01614d3d565b945050608088013567ffffffffffffffff81111561520657600080fd5b6152128a828b01614d3d565b93505060a088013567ffffffffffffffff81111561522f57600080fd5b61523b8a828b01614d3d565b92505060c088013567ffffffffffffffff81111561525857600080fd5b6152648a828b01614d3d565b91505092959891949750929550565b61527c81615ebd565b82525050565b600061528d82615eb9565b80845260208401935061529f83615eb3565b60005b828110156152cf576152b5868351615273565b6152be82615eb3565b6020969096019591506001016152a2565b5093949350505050565b60006152e482615eb9565b808452602084019350836020820285016152fd85615eb3565b60005b8481101561533457838303885261531883835161556f565b925061532382615eb3565b602098909801979150600101615300565b50909695505050505050565b600061534b82615eb9565b8084526020840193508360208202850161536485615eb3565b60005b8481101561533457838303885261537f83835161556f565b925061538a82615eb3565b602098909801979150600101615367565b60006153a682615eb9565b808452602084019350836020820285016153bf85615eb3565b60005b848110156153345783830388526153da8383516159e0565b92506153e582615eb3565b6020989098019791506001016153c2565b600061540182615eb9565b8084526020840193508360208202850161541a85615eb3565b60005b84811015615334578383038852615435838351615aa5565b925061544082615eb3565b60209890980197915060010161541d565b600061545c82615eb9565b8084526020840193508360208202850161547585615eb3565b60005b84811015615334578383038852615490838351615ba8565b925061549b82615eb3565b602098909801979150600101615478565b60006154b782615eb9565b808452602084019350836020820285016154d085615eb3565b60005b848110156153345783830388526154eb838351615bda565b92506154f682615eb3565b6020989098019791506001016154d3565b600061551282615eb9565b80845260208401935061552483615eb3565b60005b828110156152cf5761553a868351615c89565b61554382615eb3565b602096909601959150600101615527565b61527c81615ec9565b61527c81615ee6565b61527c81615ef1565b600061557a82615eb9565b80845261558e816020860160208601615f08565b61559781615f38565b9093016020019392505050565b601a81527f4372656174696f6e204461746520697320696e6d757461626c65000000000000602082015260400190565b601181527f726f6c65206973206d616e6461746f7279000000000000000000000000000000602082015260400190565b602281527f4f6e6c792070656e64696e672075736572732063616e2062652061636365707460208201527f6564000000000000000000000000000000000000000000000000000000000000604082015260600190565b601381527f5573657220616c72656164792065786973747300000000000000000000000000602082015260400190565b601481527f546869732075736572206e6f7420657869737473000000000000000000000000602082015260400190565b601b81527f596f752063616e6e6f7420616363657074207468697320757365720000000000602082015260400190565b602281527f4f6e6c792070656e64696e672075736572732063616e2062652072656a65637460208201527f6564000000000000000000000000000000000000000000000000000000000000604082015260600190565b601381527f737461747573206973206e6f742076616c696400000000000000000000000000602082015260400190565b601081527f436c61696d206e6f742065786973747300000000000000000000000000000000602082015260400190565b601181527f6d656d626572206e6f7420657869737473000000000000000000000000000000602082015260400190565b601481527f4d656d62657220646f206e6f7420657869737473000000000000000000000000602082015260400190565b601581527f4d656d62657220616c7265616479206578697374730000000000000000000000602082015260400190565b601f81527f5468657265206973206e6f20636c61696d20696e207468652073797374656d00602082015260400190565b601181527f4d656d626572206e6f7420657869737473000000000000000000000000000000602082015260400190565b601281527f5468656d65206973206d616e6461746f72790000000000000000000000000000602082015260400190565b601081527f434d4f206973206d616e6461746f727900000000000000000000000000000000602082015260400190565b601481527f596f7520617265206e6f74206163636570746564000000000000000000000000602082015260400190565b601181527f4e616d65206973206d616e6461746f7279000000000000000000000000000000602082015260400190565b601181527f4e6f2076616c6964206d656d6265724964000000000000000000000000000000602082015260400190565b601481527f496e636f727265637420436c61696d2054797065000000000000000000000000602082015260400190565b601981527f4372656174696f6e44617465206973206d616e6461746f727900000000000000602082015260400190565b80516000906101208401906159f58582615c89565b506020830151615a086020860182615c89565b5060408301518482036040860152615a208282615451565b9150506060830151615a35606086018261555d565b506080830151615a486080860182615c89565b5060a0830151615a5b60a0860182615c89565b5060c083015184820360c0860152615a738282615340565b91505060e0830151615a8860e086018261555d565b50610100830151615a9d610100860182615c89565b509392505050565b8051600090610140840190615aba8582615c89565b506020830151615acd6020860182615c89565b5060408301518482036040860152615ae5828261556f565b91505060608301518482036060860152615aff828261556f565b91505060808301518482036080860152615b19828261556f565b91505060a083015184820360a0860152615b33828261556f565b91505060c083015184820360c0860152615b4d828261556f565b91505060e083015184820360e0860152615b678282615507565b915050610100830151848203610100860152615b838282615507565b915050610120830151848203610120860152615b9f8282615282565b95945050505050565b8051604080845260009190840190615bc0828261556f565b91505060208301518482036020860152615b9f828261556f565b8051600090610100840190615bef8582615c89565b5060208301518482036020860152615c07828261556f565b91505060408301518482036040860152615c21828261556f565b9150506060830151615c366060860182615c89565b506080830151615c496080860182615c89565b5060a083015184820360a0860152615c61828261556f565b91505060c0830151615c7660c0860182615566565b5060e0830151615a9d60e0860182615273565b61527c81610ff0565b60208082528101614d3681846152d9565b60208082528101614d36818461539b565b60208082528101614d3681846153f6565b60208082528101614d3681846154ac565b602081016112e88284615554565b602080825281016112e8816155a4565b602080825281016112e8816155d4565b602080825281016112e881615604565b602080825281016112e88161565a565b602080825281016112e88161568a565b602080825281016112e8816156ba565b602080825281016112e8816156ea565b602080825281016112e881615740565b602080825281016112e881615770565b602080825281016112e8816157a0565b602080825281016112e8816157d0565b602080825281016112e881615800565b602080825281016112e881615830565b602080825281016112e881615860565b602080825281016112e881615890565b602080825281016112e8816158c0565b602080825281016112e8816158f0565b602080825281016112e881615920565b602080825281016112e881615950565b602080825281016112e881615980565b602080825281016112e8816159b0565b60208082528101614d3681846159e0565b60208082528101614d368184615bda565b602081016112e88284615c89565b60405181810167ffffffffffffffff81118282101715615e8357600080fd5b604052919050565b600067ffffffffffffffff821115615ea257600080fd5b506020601f91909101601f19160190565b60200190565b5190565b600160a060020a031690565b151590565b60006002821061066857fe5b60006003821061066857fe5b60006112e882615ece565b60006112e882615eda565b82818337506000910152565b60005b83811015615f23578181015183820152602001615f0b565b83811115615f32576000848401525b50505050565b601f01601f1916905600a265627a7a72305820521d24dcac6b789cfdb69ade4956cc47c57037b086411efbe4e16ed07acc16d46c6578706572696d656e74616cf50037",
  "source": "pragma solidity ^0.4.24;\npragma experimental ABIEncoderV2;\n\nimport \"./Claims.sol\";\n\ncontract Registry is Claims {\n  \n  string[] private cmos_;\n\n  function addCMO(string memory _cmo) onlySigner public {\n    cmos_.push(_cmo);\n  }\n\n  function deleteCMO(uint _index) onlySigner public {\n    for (uint i = _index; i < cmos_.length-1;i++){\n      cmos_[i] = cmos_[i+1];\n    }\n    delete cmos_[cmos_.length-1];\n    cmos_.length--;\n  }\n\n  function getCMOs() view public returns( string[] memory ) {\n    return cmos_;\n  }\n\n}",
  "sourcePath": "/home/komodo/newUI/bloomen-decentralized-rights-management-v2/truffle/contracts/registry/Registry.sol",
  "compiler": {
    "name": "solc",
    "version": "0.4.24+commit.e67f0147.Emscripten.clang"
  },
  "schemaVersion": "2.0.1",
  "updatedAt": "2019-11-10T16:02:19.011Z"
}