{
  "contractName": "Registry",
  "abi": [
    {
      "constant": false,
      "inputs": [
        {
          "name": "_userToAccept",
          "type": "address"
        }
      ],
      "name": "acceptUser",
      "outputs": [],
      "payable": false,
      "stateMutability": "nonpayable",
      "type": "function"
    },
    {
      "constant": false,
      "inputs": [
        {
          "name": "_claimId",
          "type": "uint256"
        },
        {
          "name": "_claimType",
          "type": "uint256"
        },
        {
          "name": "_memberOwner",
          "type": "uint256"
        }
      ],
      "name": "checkClaimStatus",
      "outputs": [],
      "payable": false,
      "stateMutability": "nonpayable",
      "type": "function"
    },
    {
      "constant": true,
      "inputs": [],
      "name": "getClaimsCountByMemberId",
      "outputs": [
        {
          "name": "",
          "type": "uint256"
        }
      ],
      "payable": false,
      "stateMutability": "view",
      "type": "function"
    },
    {
      "constant": false,
      "inputs": [
        {
          "name": "_userToReject",
          "type": "address"
        }
      ],
      "name": "rejectUser",
      "outputs": [],
      "payable": false,
      "stateMutability": "nonpayable",
      "type": "function"
    },
    {
      "constant": true,
      "inputs": [
        {
          "name": "_claimId",
          "type": "uint256"
        }
      ],
      "name": "getClaim",
      "outputs": [
        {
          "components": [
            {
              "name": "creationDate",
              "type": "uint256"
            },
            {
              "name": "claimId",
              "type": "uint256"
            },
            {
              "components": [
                {
                  "name": "name",
                  "type": "string"
                },
                {
                  "name": "value",
                  "type": "string"
                }
              ],
              "name": "claimData",
              "type": "tuple[]"
            },
            {
              "name": "claimType",
              "type": "uint8"
            },
            {
              "name": "memberOwner",
              "type": "uint256"
            },
            {
              "name": "memberReceptor",
              "type": "uint256"
            },
            {
              "name": "messageLog",
              "type": "string[]"
            },
            {
              "name": "status",
              "type": "uint8"
            },
            {
              "name": "lastChange",
              "type": "uint256"
            }
          ],
          "name": "",
          "type": "tuple"
        }
      ],
      "payable": false,
      "stateMutability": "view",
      "type": "function"
    },
    {
      "constant": true,
      "inputs": [
        {
          "name": "_page",
          "type": "uint256"
        }
      ],
      "name": "getUsers",
      "outputs": [
        {
          "components": [
            {
              "name": "creationDate",
              "type": "uint256"
            },
            {
              "name": "firstName",
              "type": "string"
            },
            {
              "name": "lastName",
              "type": "string"
            },
            {
              "name": "memberId",
              "type": "uint256"
            },
            {
              "name": "requestId",
              "type": "uint256"
            },
            {
              "name": "role",
              "type": "string"
            },
            {
              "name": "status",
              "type": "uint8"
            },
            {
              "name": "owner",
              "type": "address"
            }
          ],
          "name": "",
          "type": "tuple[]"
        }
      ],
      "payable": false,
      "stateMutability": "view",
      "type": "function"
    },
    {
      "constant": false,
      "inputs": [
        {
          "name": "_memberId",
          "type": "uint256"
        },
        {
          "name": "_creationDate",
          "type": "uint256"
        },
        {
          "name": "_name",
          "type": "string"
        },
        {
          "name": "_logo",
          "type": "string"
        },
        {
          "name": "_country",
          "type": "string"
        },
        {
          "name": "_cmo",
          "type": "string"
        },
        {
          "name": "_theme",
          "type": "string"
        }
      ],
      "name": "updateMember",
      "outputs": [],
      "payable": false,
      "stateMutability": "nonpayable",
      "type": "function"
    },
    {
      "constant": true,
      "inputs": [
        {
          "name": "userAddress",
          "type": "address"
        }
      ],
      "name": "getUserByAddress",
      "outputs": [
        {
          "components": [
            {
              "name": "creationDate",
              "type": "uint256"
            },
            {
              "name": "firstName",
              "type": "string"
            },
            {
              "name": "lastName",
              "type": "string"
            },
            {
              "name": "memberId",
              "type": "uint256"
            },
            {
              "name": "requestId",
              "type": "uint256"
            },
            {
              "name": "role",
              "type": "string"
            },
            {
              "name": "status",
              "type": "uint8"
            },
            {
              "name": "owner",
              "type": "address"
            }
          ],
          "name": "",
          "type": "tuple"
        }
      ],
      "payable": false,
      "stateMutability": "view",
      "type": "function"
    },
    {
      "constant": true,
      "inputs": [
        {
          "name": "account",
          "type": "address"
        }
      ],
      "name": "isSigner",
      "outputs": [
        {
          "name": "",
          "type": "bool"
        }
      ],
      "payable": false,
      "stateMutability": "view",
      "type": "function"
    },
    {
      "constant": true,
      "inputs": [],
      "name": "getUsersOwner",
      "outputs": [
        {
          "components": [
            {
              "name": "creationDate",
              "type": "uint256"
            },
            {
              "name": "firstName",
              "type": "string"
            },
            {
              "name": "lastName",
              "type": "string"
            },
            {
              "name": "memberId",
              "type": "uint256"
            },
            {
              "name": "requestId",
              "type": "uint256"
            },
            {
              "name": "role",
              "type": "string"
            },
            {
              "name": "status",
              "type": "uint8"
            },
            {
              "name": "owner",
              "type": "address"
            }
          ],
          "name": "",
          "type": "tuple[]"
        }
      ],
      "payable": false,
      "stateMutability": "view",
      "type": "function"
    },
    {
      "constant": true,
      "inputs": [],
      "name": "getMembers",
      "outputs": [
        {
          "components": [
            {
              "name": "memberId",
              "type": "uint256"
            },
            {
              "name": "creationDate",
              "type": "uint256"
            },
            {
              "name": "name",
              "type": "string"
            },
            {
              "name": "logo",
              "type": "string"
            },
            {
              "name": "country",
              "type": "string"
            },
            {
              "name": "cmo",
              "type": "string"
            },
            {
              "name": "theme",
              "type": "string"
            },
            {
              "name": "claimInbox",
              "type": "uint256[]"
            },
            {
              "name": "claims",
              "type": "uint256[]"
            },
            {
              "name": "userRequests",
              "type": "address[]"
            }
          ],
          "name": "",
          "type": "tuple[]"
        }
      ],
      "payable": false,
      "stateMutability": "view",
      "type": "function"
    },
    {
      "constant": false,
      "inputs": [
        {
          "name": "_creationDate",
          "type": "uint256"
        },
        {
          "name": "_claimData",
          "type": "bytes"
        },
        {
          "name": "_claimType",
          "type": "uint256"
        },
        {
          "name": "_memberReceptor",
          "type": "uint256"
        }
      ],
      "name": "registerClaim",
      "outputs": [],
      "payable": false,
      "stateMutability": "nonpayable",
      "type": "function"
    },
    {
      "constant": true,
      "inputs": [],
      "name": "getcountUsers",
      "outputs": [
        {
          "name": "",
          "type": "uint256"
        }
      ],
      "payable": false,
      "stateMutability": "view",
      "type": "function"
    },
    {
      "constant": false,
      "inputs": [
        {
          "name": "_creationDate",
          "type": "uint256"
        },
        {
          "name": "_firstName",
          "type": "string"
        },
        {
          "name": "_lastName",
          "type": "string"
        },
        {
          "name": "_role",
          "type": "string"
        },
        {
          "name": "_memberId",
          "type": "uint256"
        }
      ],
      "name": "registerUserRequest",
      "outputs": [],
      "payable": false,
      "stateMutability": "nonpayable",
      "type": "function"
    },
    {
      "constant": true,
      "inputs": [],
      "name": "getCount",
      "outputs": [
        {
          "name": "",
          "type": "uint256"
        }
      ],
      "payable": false,
      "stateMutability": "view",
      "type": "function"
    },
    {
      "constant": true,
      "inputs": [
        {
          "name": "_page",
          "type": "uint256"
        }
      ],
      "name": "getClaimsByMemberId",
      "outputs": [
        {
          "components": [
            {
              "name": "creationDate",
              "type": "uint256"
            },
            {
              "name": "claimId",
              "type": "uint256"
            },
            {
              "components": [
                {
                  "name": "name",
                  "type": "string"
                },
                {
                  "name": "value",
                  "type": "string"
                }
              ],
              "name": "claimData",
              "type": "tuple[]"
            },
            {
              "name": "claimType",
              "type": "uint8"
            },
            {
              "name": "memberOwner",
              "type": "uint256"
            },
            {
              "name": "memberReceptor",
              "type": "uint256"
            },
            {
              "name": "messageLog",
              "type": "string[]"
            },
            {
              "name": "status",
              "type": "uint8"
            },
            {
              "name": "lastChange",
              "type": "uint256"
            }
          ],
          "name": "",
          "type": "tuple[]"
        }
      ],
      "payable": false,
      "stateMutability": "view",
      "type": "function"
    },
    {
      "constant": true,
      "inputs": [],
      "name": "getMe",
      "outputs": [
        {
          "components": [
            {
              "name": "creationDate",
              "type": "uint256"
            },
            {
              "name": "firstName",
              "type": "string"
            },
            {
              "name": "lastName",
              "type": "string"
            },
            {
              "name": "memberId",
              "type": "uint256"
            },
            {
              "name": "requestId",
              "type": "uint256"
            },
            {
              "name": "role",
              "type": "string"
            },
            {
              "name": "status",
              "type": "uint8"
            },
            {
              "name": "owner",
              "type": "address"
            }
          ],
          "name": "",
          "type": "tuple"
        }
      ],
      "payable": false,
      "stateMutability": "view",
      "type": "function"
    },
    {
      "constant": true,
      "inputs": [
        {
          "name": "_page",
          "type": "uint256"
        }
      ],
      "name": "getMembers",
      "outputs": [
        {
          "components": [
            {
              "name": "memberId",
              "type": "uint256"
            },
            {
              "name": "creationDate",
              "type": "uint256"
            },
            {
              "name": "name",
              "type": "string"
            },
            {
              "name": "logo",
              "type": "string"
            },
            {
              "name": "country",
              "type": "string"
            },
            {
              "name": "cmo",
              "type": "string"
            },
            {
              "name": "theme",
              "type": "string"
            },
            {
              "name": "claimInbox",
              "type": "uint256[]"
            },
            {
              "name": "claims",
              "type": "uint256[]"
            },
            {
              "name": "userRequests",
              "type": "address[]"
            }
          ],
          "name": "",
          "type": "tuple[]"
        }
      ],
      "payable": false,
      "stateMutability": "view",
      "type": "function"
    },
    {
      "constant": false,
      "inputs": [
        {
          "name": "_claimId",
          "type": "uint256"
        },
        {
          "name": "_claimData",
          "type": "bytes"
        },
        {
          "name": "_lastChange",
          "type": "uint256"
        }
      ],
      "name": "updateClaim",
      "outputs": [],
      "payable": false,
      "stateMutability": "nonpayable",
      "type": "function"
    },
    {
      "constant": false,
      "inputs": [],
      "name": "renounceSigner",
      "outputs": [],
      "payable": false,
      "stateMutability": "nonpayable",
      "type": "function"
    },
    {
      "constant": false,
      "inputs": [
        {
          "name": "account",
          "type": "address"
        }
      ],
      "name": "addSigner",
      "outputs": [],
      "payable": false,
      "stateMutability": "nonpayable",
      "type": "function"
    },
    {
      "constant": false,
      "inputs": [
        {
          "name": "_creationDate",
          "type": "uint256"
        },
        {
          "name": "_name",
          "type": "string"
        },
        {
          "name": "_logo",
          "type": "string"
        },
        {
          "name": "_country",
          "type": "string"
        },
        {
          "name": "_cmo",
          "type": "string"
        },
        {
          "name": "_theme",
          "type": "string"
        }
      ],
      "name": "addMember",
      "outputs": [
        {
          "name": "",
          "type": "uint256"
        }
      ],
      "payable": false,
      "stateMutability": "nonpayable",
      "type": "function"
    },
    {
      "constant": false,
      "inputs": [
        {
          "name": "_firstName",
          "type": "string"
        },
        {
          "name": "_lastName",
          "type": "string"
        },
        {
          "name": "_memberId",
          "type": "uint256"
        },
        {
          "name": "_role",
          "type": "string"
        },
        {
          "name": "owner",
          "type": "address"
        }
      ],
      "name": "updateUser",
      "outputs": [],
      "payable": false,
      "stateMutability": "nonpayable",
      "type": "function"
    },
    {
      "constant": false,
      "inputs": [
        {
          "name": "account",
          "type": "address"
        }
      ],
      "name": "whitelistAdmin",
      "outputs": [],
      "payable": false,
      "stateMutability": "nonpayable",
      "type": "function"
    },
    {
      "anonymous": false,
      "inputs": [
        {
          "indexed": true,
          "name": "account",
          "type": "address"
        }
      ],
      "name": "SignerAdded",
      "type": "event"
    },
    {
      "anonymous": false,
      "inputs": [
        {
          "indexed": true,
          "name": "account",
          "type": "address"
        }
      ],
      "name": "SignerRemoved",
      "type": "event"
    },
    {
      "constant": false,
      "inputs": [
        {
          "name": "_cmo",
          "type": "string"
        }
      ],
      "name": "addCMO",
      "outputs": [],
      "payable": false,
      "stateMutability": "nonpayable",
      "type": "function"
    },
    {
      "constant": false,
      "inputs": [
        {
          "name": "_index",
          "type": "uint256"
        }
      ],
      "name": "deleteCMO",
      "outputs": [],
      "payable": false,
      "stateMutability": "nonpayable",
      "type": "function"
    },
    {
      "constant": true,
      "inputs": [],
      "name": "getCMOs",
      "outputs": [
        {
          "name": "",
          "type": "string[]"
        }
      ],
      "payable": false,
      "stateMutability": "view",
      "type": "function"
    }
  ],
  "bytecode": "0x608060405260006006556200001d3364010000000062000023810204565b62000108565b6200003e600082640100000000620045f56200007582021704565b604051600160a060020a038216907f47d1c22a25bb3a5d4e481b9b1e6944c2eade3181a0a20b495ed61d35b5323f2490600090a250565b600160a060020a03811615156200008b57600080fd5b620000a08282640100000000620000d0810204565b15620000ab57600080fd5b600160a060020a0316600090815260209190915260409020805460ff19166001179055565b6000600160a060020a0382161515620000e857600080fd5b50600160a060020a03166000908152602091909152604090205460ff1690565b615f1c80620001186000396000f30060806040526004361061015e5763ffffffff7c010000000000000000000000000000000000000000000000000000000060003504166308bdc24d8114610163578063134c040b146101855780631be8850b146101a55780633a59ccf1146101d05780634dc92885146101f05780635aef2447146102105780635d73ab9a1461023d578063656d561c1461026a57806365ff0c481461028c57806369c212f6146102ac5780637df73e27146102d9578063932191be146103065780639eab52531461031b578063a42e28db1461033d578063a4fdc5941461035d578063a7ed1fe414610372578063a87d942c14610392578063b6bc3812146103a7578063bf3d007e146103d4578063c11e1ff3146103f4578063c477ecab14610409578063cb68b9e814610429578063e5c8b03d14610449578063eb12d61e1461045e578063fa1188c61461047e578063fcfbde5b1461049e578063ff240fce146104be575b600080fd5b34801561016f57600080fd5b5061018361017e366004614ccb565b6104de565b005b34801561019157600080fd5b506101836101a03660046151a1565b61067a565b3480156101b157600080fd5b506101ba610c1f565b6040516101c79190615df6565b60405180910390f35b3480156101dc57600080fd5b506101836101eb366004614cf1565b610c3c565b3480156101fc57600080fd5b5061018361020b366004614ccb565b610c99565b34801561021c57600080fd5b5061023061022b366004614de2565b610dfd565b6040516101c79190615dd4565b34801561024957600080fd5b5061025d610258366004614de2565b61110f565b6040516101c79190615c55565b34801561027657600080fd5b5061027f6114ea565b6040516101c79190615c22565b34801561029857600080fd5b506101836102a736600461508d565b6115c3565b3480156102b857600080fd5b506102cc6102c7366004614ccb565b611652565b6040516101c79190615de5565b3480156102e557600080fd5b506102f96102f4366004614ccb565b6118a6565b6040516101c79190615c66565b34801561031257600080fd5b5061025d6118be565b34801561032757600080fd5b50610330611baf565b6040516101c79190615c44565b34801561034957600080fd5b50610183610358366004614e65565b612076565b34801561036957600080fd5b506101ba6121d3565b34801561037e57600080fd5b5061018361038d366004614fdd565b612298565b34801561039e57600080fd5b506101ba612357565b3480156103b357600080fd5b506103c76103c2366004614de2565b612374565b6040516101c79190615c33565b3480156103e057600080fd5b506101836103ef366004614de2565b612788565b34801561040057600080fd5b506102cc612846565b34801561041557600080fd5b50610330610424366004614de2565b6128d7565b34801561043557600080fd5b50610183610444366004614e00565b612df2565b34801561045557600080fd5b50610183612f63565b34801561046a57600080fd5b50610183610479366004614ccb565b612f6e565b34801561048a57600080fd5b506101ba610499366004614ede565b612f8b565b3480156104aa57600080fd5b506101836104b9366004614d26565b61301a565b3480156104ca57600080fd5b506101836104d9366004614ccb565b613108565b600160a060020a0381811660009081526003602052604081206006015461010090049091161161052c5760405160e560020a62461bcd02815260040161052390615cc4565b60405180910390fd5b600160a060020a03811660009081526003602081905260408083208201543384529220015414806105615750610561336118a6565b15156105825760405160e560020a62461bcd02815260040161052390615cd4565b60023360009081526003602052604090206006015460ff1660028111156105a557fe5b14806105b557506105b5336118a6565b15156105d65760405160e560020a62461bcd02815260040161052390615d84565b6001600160a060020a03821660009081526003602052604090206006015460ff16600281111561060257fe5b146106225760405160e560020a62461bcd02815260040161052390615ca4565b600160a060020a038116600090815260036020526040902060060180546002919060ff19166001835b0217905550600160a060020a0381166000908152600360208190526040909120015461067790826131dc565b50565b6000806006541115156106a25760405160e560020a62461bcd02815260040161052390615d44565b5060015b6006548111610b78578260011480156106de575060008181526005602052604090206003015460ff1660018111156106da57fe5b6001145b80156106ea5750808414155b15610b375760008181526005602052604090206002018054600690811061070d57fe5b9060005260206000209060020201600101604051602001808280546001816001161561010002031660029004801561077c5780601f1061075a57610100808354040283529182019161077c565b820191906000526020600020905b815481529060010190602001808311610768575b50509150506040516020818303038152906040526040518082805190602001908083835b602083106107bf5780518252601f1990920191602091820191016107a0565b51815160209384036101000a6000190180199092169116179052604080519290940182900390912060008a81526005909252929020600201805492945092506006918210905061080b57fe5b9060005260206000209060020201600101604051602001808280546001816001161561010002031660029004801561087a5780601f1061085857610100808354040283529182019161087a565b820191906000526020600020905b815481529060010190602001808311610866575b50509150506040516020818303038152906040526040518082805190602001908083835b602083106108bd5780518252601f19909201916020918201910161089e565b6001836020036101000a038019825116818451168082178552505050505050905001915050604051809103902060001916148015610af7575060008181526005602052604090206002018054600390811061091457fe5b906000526020600020906002020160010160405160200180828054600181600116156101000203166002900480156109835780601f10610961576101008083540402835291820191610983565b820191906000526020600020905b81548152906001019060200180831161096f575b50509150506040516020818303038152906040526040518082805190602001908083835b602083106109c65780518252601f1990920191602091820191016109a7565b51815160209384036101000a6000190180199092169116179052604080519290940182900390912060008a815260059092529290206002018054929450925060039182109050610a1257fe5b90600052602060002090600202016001016040516020018082805460018160011615610100020316600290048015610a815780601f10610a5f576101008083540402835291820191610a81565b820191906000526020600020905b815481529060010190602001808311610a6d575b50509150506040516020818303038152906040526040518082805190602001908083835b60208310610ac45780518252601f199092019160209182019101610aa5565b6001836020036101000a038019825116818451168082178552505050505050905001915050604051809103902060001916145b15610b325760008481526005602052604080822060079081018054600160ff1991821681179092558585529290932001805490911690911790555b610b70565b82158015610b62575060008181526005602052604090206003015460ff166001811115610b6057fe5b155b8015610b6e5750808414155b505b6001016106a6565b600560209081527f1471eb6eb2c5e789fc3de43f8ce62938c7d1836ec861730447e2ada8fd8101818054600181018083556000929092526040805180820190915260088082527f5f5f4e4558545f5f000000000000000000000000000000000000000000000000919094019081529192610c17927f04aa8662acfacef73ca6d173857112db8fe228635d0159840ba6fea581e7cfe990920191906147fd565b505050505050565b600080610c2a61334b565b9050610c3581613362565b91505b5090565b610c45336118a6565b1515610c5057600080fd5b60078054600181018083556000929092528251610c94917fa66cc928b5edb82af9bd49922954155ab7b0942694bea4ce44661d9a8736c688019060208501906147fd565b505050565b600160a060020a03818116600090815260036020526040812060060154610100900490911611610cde5760405160e560020a62461bcd02815260040161052390615cc4565b600160a060020a0381166000908152600360208190526040808320820154338452922001541480610d135750610d13336118a6565b1515610d345760405160e560020a62461bcd02815260040161052390615cd4565b60023360009081526003602052604090206006015460ff166002811115610d5757fe5b1480610d675750610d67336118a6565b1515610d885760405160e560020a62461bcd02815260040161052390615d84565b6001600160a060020a03821660009081526003602052604090206006015460ff166002811115610db457fe5b14610dd45760405160e560020a62461bcd02815260040161052390615ce4565b600160a060020a0381166000908152600360205260408120600601805460ff191660018361064b565b610e05614877565b600560008381526020019081526020016000206101206040519081016040529081600082015481526020016001820154815260200160028201805480602002602001604051908101604052809291908181526020016000905b82821015610fbc5760008481526020908190206040805160028681029093018054600181161561010002600019011693909304601f810185900490940281016060908101835291810184815290938492849190840182828015610f025780601f10610ed757610100808354040283529160200191610f02565b820191906000526020600020905b815481529060010190602001808311610ee557829003601f168201915b50505050508152602001600182018054600181600116156101000203166002900480601f016020809104026020016040519081016040528092919081815260200182805460018160011615610100020316600290048015610fa45780601f10610f7957610100808354040283529160200191610fa4565b820191906000526020600020905b815481529060010190602001808311610f8757829003601f168201915b50505050508152505081526020019060010190610e5e565b50505090825250600382015460209091019060ff166001811115610fdc57fe5b6001811115610fe757fe5b8152602001600482015481526020016005820154815260200160068201805480602002602001604051908101604052809291908181526020016000905b828210156110cf5760008481526020908190208301805460408051601f60026000196101006001871615020190941693909304928301859004850281018501909152818152928301828280156110bb5780601f10611090576101008083540402835291602001916110bb565b820191906000526020600020905b81548152906001019060200180831161109e57829003601f168201915b505050505081526020019060010190611024565b50505090825250600782015460209091019060ff1660018111156110ef57fe5b60018111156110fa57fe5b81526020016008820154815250509050919050565b6060600080600060606000806111236121d3565b9550611130600a89613377565b60045490955061114190600a6133b0565b935085158061114f57508585115b8061115957508388115b15611163576114df565b60408051600a808252610160820190925290816020015b6111826148da565b81526020019060019003908161117a579050509250600091508490505b6004548110156114db57336000908152600360208190526040822081015460048054919391859081106111ce57fe5b6000918252602080832090910154600160a060020a0316835282019290925260400190206003015414801561124b575060026003600060048481548110151561121357fe5b6000918252602080832090910154600160a060020a0316835282019290925260400190206006015460ff16600281111561124957fe5b145b156114d3576003600060048381548110151561126357fe5b600091825260208083209190910154600160a060020a0316835282810193909352604091820190208151610100808201845282548252600180840180548651600293821615909402600019011691909104601f810187900487028301870190955284825291949293858401939192918301828280156113235780601f106112f857610100808354040283529160200191611323565b820191906000526020600020905b81548152906001019060200180831161130657829003601f168201915b5050509183525050600282810180546040805160206001841615610100026000190190931694909404601f810183900483028501830190915280845293810193908301828280156113b55780601f1061138a576101008083540402835291602001916113b5565b820191906000526020600020905b81548152906001019060200180831161139857829003601f168201915b505050505081526020016003820154815260200160048201548152602001600582018054600181600116156101000203166002900480601f01602080910402602001604051908101604052809291908181526020018280546001816001161561010002031660029004801561146b5780601f106114405761010080835404028352916020019161146b565b820191906000526020600020905b81548152906001019060200180831161144e57829003601f168201915b5050509183525050600682015460209091019060ff16600281111561148c57fe5b600281111561149757fe5b8152600691909101546101009004600160a060020a031660209091015283518490849081106114c257fe5b602090810290910101526001909101905b60010161119f565b8296505b505050505050919050565b60606007805480602002602001604051908101604052809291908181526020016000905b828210156115b95760008481526020908190208301805460408051601f60026000196101006001871615020190941693909304928301859004850281018501909152818152928301828280156115a55780601f1061157a576101008083540402835291602001916115a5565b820191906000526020600020905b81548152906001019060200180831161158857829003601f168201915b50505050508152602001906001019061150e565b5050505090505b90565b6115cc336118a6565b15156115d757600080fd5b600087815260016020526040812054116116065760405160e560020a62461bcd02815260040161052390615d54565b60008781526001602081905260409091200154861461163a5760405160e560020a62461bcd02815260040161052390615c74565b611649878787878787876133d3565b50505050505050565b61165a6148da565b600160a060020a0382166000908152600360209081526040918290208251610100808201855282548252600180840180548751600293821615909402600019011691909104601f810186900486028301860190965285825291949293858101939192919083018282801561170f5780601f106116e45761010080835404028352916020019161170f565b820191906000526020600020905b8154815290600101906020018083116116f257829003601f168201915b5050509183525050600282810180546040805160206001841615610100026000190190931694909404601f810183900483028501830190915280845293810193908301828280156117a15780601f10611776576101008083540402835291602001916117a1565b820191906000526020600020905b81548152906001019060200180831161178457829003601f168201915b505050505081526020016003820154815260200160048201548152602001600582018054600181600116156101000203166002900480601f0160208091040260200160405190810160405280929190818152602001828054600181600116156101000203166002900480156118575780601f1061182c57610100808354040283529160200191611857565b820191906000526020600020905b81548152906001019060200180831161183a57829003601f168201915b5050509183525050600682015460209091019060ff16600281111561187857fe5b600281111561188357fe5b8152600691909101546101009004600160a060020a031660209091015292915050565b60006118b8818363ffffffff6139cc16565b92915050565b60608060006118cc336118a6565b15156118d757600080fd5b60045460408051828152602080840282010190915290801561191357816020015b6119006148da565b8152602001906001900390816118f85790505b509150600090505b600454811015611ba9576003600060048381548110151561193857fe5b600091825260208083209190910154600160a060020a0316835282810193909352604091820190208151610100808201845282548252600180840180548651600293821615909402600019011691909104601f810187900487028301870190955284825291949293858401939192918301828280156119f85780601f106119cd576101008083540402835291602001916119f8565b820191906000526020600020905b8154815290600101906020018083116119db57829003601f168201915b5050509183525050600282810180546040805160206001841615610100026000190190931694909404601f81018390048302850183019091528084529381019390830182828015611a8a5780601f10611a5f57610100808354040283529160200191611a8a565b820191906000526020600020905b815481529060010190602001808311611a6d57829003601f168201915b505050505081526020016003820154815260200160048201548152602001600582018054600181600116156101000203166002900480601f016020809104026020016040519081016040528092919081815260200182805460018160011615610100020316600290048015611b405780601f10611b1557610100808354040283529160200191611b40565b820191906000526020600020905b815481529060010190602001808311611b2357829003601f168201915b5050509183525050600682015460209091019060ff166002811115611b6157fe5b6002811115611b6c57fe5b8152600691909101546101009004600160a060020a03166020909101528251839083908110611b9757fe5b6020908102909101015260010161191b565b50919050565b6060806000600280549050604051908082528060200260200182016040528015611bf357816020015b611be061492b565b815260200190600190039081611bd85790505b509150600090505b600254811015611ba95760016000600283815481101515611c1857fe5b9060005260206000200154815260200190815260200160002061014060405190810160405290816000820154815260200160018201548152602001600282018054600181600116156101000203166002900480601f016020809104026020016040519081016040528092919081815260200182805460018160011615610100020316600290048015611ceb5780601f10611cc057610100808354040283529160200191611ceb565b820191906000526020600020905b815481529060010190602001808311611cce57829003601f168201915b505050918352505060038201805460408051602060026001851615610100026000190190941693909304601f8101849004840282018401909252818152938201939291830182828015611d7f5780601f10611d5457610100808354040283529160200191611d7f565b820191906000526020600020905b815481529060010190602001808311611d6257829003601f168201915b505050918352505060048201805460408051602060026001851615610100026000190190941693909304601f8101849004840282018401909252818152938201939291830182828015611e135780601f10611de857610100808354040283529160200191611e13565b820191906000526020600020905b815481529060010190602001808311611df657829003601f168201915b505050918352505060058201805460408051602060026001851615610100026000190190941693909304601f8101849004840282018401909252818152938201939291830182828015611ea75780601f10611e7c57610100808354040283529160200191611ea7565b820191906000526020600020905b815481529060010190602001808311611e8a57829003601f168201915b505050918352505060068201805460408051602060026001851615610100026000190190941693909304601f8101849004840282018401909252818152938201939291830182828015611f3b5780601f10611f1057610100808354040283529160200191611f3b565b820191906000526020600020905b815481529060010190602001808311611f1e57829003601f168201915b5050505050815260200160078201805480602002602001604051908101604052809291908181526020018280548015611f9357602002820191906000526020600020905b815481526020019060010190808311611f7f575b5050505050815260200160088201805480602002602001604051908101604052809291908181526020018280548015611feb57602002820191906000526020600020905b815481526020019060010190808311611fd7575b505050505081526020016009820180548060200260200160405190810160405280929190818152602001828054801561204d57602002820191906000526020600020905b8154600160a060020a0316815260019091019060200180831161202f575b505050505081525050828281518110151561206457fe5b60209081029091010152600101611bfb565b600080606081871161209d5760405160e560020a62461bcd02815260040161052390615dc4565b6000851015806120ae575060018511155b15156120cf5760405160e560020a62461bcd02815260040161052390615db4565b60068054600190810191829055600082815260056020526040902001549093501561210f5760405160e560020a62461bcd02815260040161052390615c94565b61211884613a03565b15156121395760405160e560020a62461bcd02815260040161052390615d24565b61214161334b565b6040805160008082526020820190925291935061216e565b60608152602001906001900390816121595790505b5090506121838388888886898760008f613a16565b61218d8284613c25565b60018311156121a1576121a183868461067a565b600160008481526005602052604090206007015460ff1660018111156121c357fe5b1415611649576116498484613c4a565b600080805b600454811015611ba9573360009081526003602081905260408220810154600480549193918590811061220757fe5b6000918252602080832090910154600160a060020a03168352820192909252604001902060030154148015612284575060026003600060048481548110151561224c57fe5b6000918252602080832090910154600160a060020a0316835282019290925260400190206006015460ff16600281111561228257fe5b145b15612290576001909101905b6001016121d8565b60008115156122bc5760405160e560020a62461bcd02815260040161052390615da4565b600086116122df5760405160e560020a62461bcd02815260040161052390615dc4565b336000908152600360205260409020541561230f5760405160e560020a62461bcd02815260040161052390615cb4565b61231882613a03565b15156123395760405160e560020a62461bcd02815260040161052390615d54565b61234286613c6f565b9050610c178686868585886001336000613e5e565b6000612362336118a6565b151561236d57600080fd5b5060025490565b606060008060008060608060008061238d600a8b613377565b975061239761334b565b96506123a287613362565b95506123af86600a6133b0565b94508515806123c057506001860388115b806123ca5750848a115b156123d45761277b565b6123dd876142b2565b60408051600a8082526101608201909252919550816020015b6123fe614877565b8152602001906001900390816123f6579050509250600091508790505b835181101561277757600a82101561276a5760056000858381518110151561243f57fe5b9060200190602002015181526020019081526020016000206101206040519081016040529081600082015481526020016001820154815260200160028201805480602002602001604051908101604052809291908181526020016000905b828210156125fb5760008481526020908190206040805160028681029093018054600181161561010002600019011693909304601f8101859004909402810160609081018352918101848152909384928491908401828280156125415780601f1061251657610100808354040283529160200191612541565b820191906000526020600020905b81548152906001019060200180831161252457829003601f168201915b50505050508152602001600182018054600181600116156101000203166002900480601f0160208091040260200160405190810160405280929190818152602001828054600181600116156101000203166002900480156125e35780601f106125b8576101008083540402835291602001916125e3565b820191906000526020600020905b8154815290600101906020018083116125c657829003601f168201915b5050505050815250508152602001906001019061249d565b50505090825250600382015460209091019060ff16600181111561261b57fe5b600181111561262657fe5b8152602001600482015481526020016005820154815260200160068201805480602002602001604051908101604052809291908181526020016000905b8282101561270e5760008481526020908190208301805460408051601f60026000196101006001871615020190941693909304928301859004850281018501909152818152928301828280156126fa5780601f106126cf576101008083540402835291602001916126fa565b820191906000526020600020905b8154815290600101906020018083116126dd57829003601f168201915b505050505081526020019060010190612663565b50505090825250600782015460209091019060ff16600181111561272e57fe5b600181111561273957fe5b8152602001600882015481525050838381518110151561275557fe5b6020908102909101015260019091019061276f565b612777565b60010161241b565b8298505b5050505050505050919050565b6000612793336118a6565b151561279e57600080fd5b50805b6007546000190181101561280b5760078054600183019081106127c057fe5b906000526020600020016007828154811015156127d957fe5b90600052602060002001908054600181600116156101000203166002900461280292919061497f565b506001016127a1565b60078054600019810190811061281d57fe5b90600052602060002001600061283391906149f4565b6007805490610c94906000198301614a38565b61284e6148da565b6128566148da565b336000908152600360209081526040918290208251610100808201855282548252600180840180548751600293821615909402600019011691909104601f810186900486028301860190965285825291949293858101939192919083018282801561170f5780601f106116e45761010080835404028352916020019161170f565b60606000806000606060006128ed600a88613377565b6002549095506128fe90600a6133b0565b600254909450158061291557506002546000190185115b8061291f57508387115b1561292957612de8565b60408051600a80825261016082019092526000945090816020015b61294c61492b565b8152602001906001900390816129445790505091508490505b600254811015612de4576001600060028381548110151561298257fe5b9060005260206000200154815260200190815260200160002061014060405190810160405290816000820154815260200160018201548152602001600282018054600181600116156101000203166002900480601f016020809104026020016040519081016040528092919081815260200182805460018160011615610100020316600290048015612a555780601f10612a2a57610100808354040283529160200191612a55565b820191906000526020600020905b815481529060010190602001808311612a3857829003601f168201915b505050918352505060038201805460408051602060026001851615610100026000190190941693909304601f8101849004840282018401909252818152938201939291830182828015612ae95780601f10612abe57610100808354040283529160200191612ae9565b820191906000526020600020905b815481529060010190602001808311612acc57829003601f168201915b505050918352505060048201805460408051602060026001851615610100026000190190941693909304601f8101849004840282018401909252818152938201939291830182828015612b7d5780601f10612b5257610100808354040283529160200191612b7d565b820191906000526020600020905b815481529060010190602001808311612b6057829003601f168201915b505050918352505060058201805460408051602060026001851615610100026000190190941693909304601f8101849004840282018401909252818152938201939291830182828015612c115780601f10612be657610100808354040283529160200191612c11565b820191906000526020600020905b815481529060010190602001808311612bf457829003601f168201915b505050918352505060068201805460408051602060026001851615610100026000190190941693909304601f8101849004840282018401909252818152938201939291830182828015612ca55780601f10612c7a57610100808354040283529160200191612ca5565b820191906000526020600020905b815481529060010190602001808311612c8857829003601f168201915b5050505050815260200160078201805480602002602001604051908101604052809291908181526020018280548015612cfd57602002820191906000526020600020905b815481526020019060010190808311612ce9575b5050505050815260200160088201805480602002602001604051908101604052809291908181526020018280548015612d5557602002820191906000526020600020905b815481526020019060010190808311612d41575b5050505050815260200160098201805480602002602001604051908101604052809291908181526020018280548015612db757602002820191906000526020600020905b8154600160a060020a03168152600190910190602001808311612d99575b5050505050815250508284815181101515612dce57fe5b6020908102909101015260019283019201612965565b8195505b5050505050919050565b60008381526005602052604081206001015411612e245760405160e560020a62461bcd02815260040161052390615d04565b60008381526005602052604090208054600390910154610c94918591859060ff166001811115612e5057fe5b6000888152600560208181526040808420600481015493810154600690910180548351818602810186019094528084529495919492939092919084015b82821015612f385760008481526020908190208301805460408051601f6002600019610100600187161502019094169390930492830185900485028101850190915281815292830182828015612f245780601f10612ef957610100808354040283529160200191612f24565b820191906000526020600020905b815481529060010190602001808311612f0757829003601f168201915b505050505081526020019060010190612e8d565b50505060008c81526005602052604090206007015460ff1690506001811115612f5d57fe5b89613a16565b612f6c33614347565b565b612f77336118a6565b1515612f8257600080fd5b6106778161438f565b600080612f97336118a6565b1515612fa257600080fd5b60008811612fc55760405160e560020a62461bcd02815260040161052390615dc4565b612fce88613c6f565b600081815260016020526040902054909150156130005760405160e560020a62461bcd02815260040161052390615d34565b61300f818989898989896133d3565b979650505050505050565b600160a060020a038181166000908152600360205260408120600601549091829182916101009091041681106130655760405160e560020a62461bcd02815260040161052390615cc4565b6002600160a060020a03851660009081526003602052604090206006015460ff16600281111561309157fe5b146130b15760405160e560020a62461bcd02815260040161052390615d84565b600160a060020a03841660009081526003602052604090206004810154815460069092015490945090925060ff1660028111156130ea57fe5b90506130fe82898989878a878b6001613e5e565b5050505050505050565b613111336118a6565b151561311c57600080fd5b600160a060020a0381166000908152600360208190526040909120015461314390826131dc565b604080518082018252600b81527f53757065722061646d696e0000000000000000000000000000000000000000006020808301918252600160a060020a038516600090815260039091529290922090516131a392600590920191906147fd565b50600160a060020a0381166000908152600360208190526040822090810191909155600601805460ff1916600217905561067781612f6e565b6000805b600084815260016020526040902060090154600019018110156132dc5760008481526001602052604090206009018054600160a060020a03851691908390811061322657fe5b600091825260209091200154600160a060020a0316141561324657600191505b81156132d457600084815260016020819052604090912060090180549091830190811061326f57fe5b6000918252602080832090910154868352600190915260409091206009018054600160a060020a0390921691839081106132a557fe5b9060005260206000200160006101000a815481600160a060020a030219169083600160a060020a031602179055505b6001016131e0565b6000848152600160205260409020600901805460001981019081106132fd57fe5b60009182526020808320909101805473ffffffffffffffffffffffffffffffffffffffff191690558582526001905260409020600901805490613344906000198301614a5c565b5050505050565b336000908152600360208190526040909120015490565b60009081526001602052604090206008015490565b60008083151561338a57600091506133a9565b5082820282848281151561339a57fe5b04146133a557600080fd5b8091505b5092915050565b6000808083116133bf57600080fd5b82848115156133ca57fe5b04949350505050565b6133db61492b565b855115156133fe5760405160e560020a62461bcd02815260040161052390615d94565b825115156134215760405160e560020a62461bcd02815260040161052390615d74565b815115156134445760405160e560020a62461bcd02815260040161052390615d64565b6000888152600160208181526040928390208351610140810185528154815281840154818401526002808301805487519681161561010002600019011691909104601f8101859004850286018501875280865291959294928601939091908301828280156134f35780601f106134c8576101008083540402835291602001916134f3565b820191906000526020600020905b8154815290600101906020018083116134d657829003601f168201915b505050918352505060038201805460408051602060026001851615610100026000190190941693909304601f81018490048402820184019092528181529382019392918301828280156135875780601f1061355c57610100808354040283529160200191613587565b820191906000526020600020905b81548152906001019060200180831161356a57829003601f168201915b505050918352505060048201805460408051602060026001851615610100026000190190941693909304601f810184900484028201840190925281815293820193929183018282801561361b5780601f106135f05761010080835404028352916020019161361b565b820191906000526020600020905b8154815290600101906020018083116135fe57829003601f168201915b505050918352505060058201805460408051602060026001851615610100026000190190941693909304601f81018490048402820184019092528181529382019392918301828280156136af5780601f10613684576101008083540402835291602001916136af565b820191906000526020600020905b81548152906001019060200180831161369257829003601f168201915b505050918352505060068201805460408051602060026001851615610100026000190190941693909304601f81018490048402820184019092528181529382019392918301828280156137435780601f1061371857610100808354040283529160200191613743565b820191906000526020600020905b81548152906001019060200180831161372657829003601f168201915b505050505081526020016007820180548060200260200160405190810160405280929190818152602001828054801561379b57602002820191906000526020600020905b815481526020019060010190808311613787575b50505050508152602001600882018054806020026020016040519081016040528092919081815260200182805480156137f357602002820191906000526020600020905b8154815260200190600101908083116137df575b505050505081526020016009820180548060200260200160405190810160405280929190818152602001828054801561385557602002820191906000526020600020905b8154600160a060020a03168152600190910190602001808311613837575b50505091909252505050888152602080820189815260408084018a8152606085018a90526080850189905260a0850188905260c0850187905260008d8152600180865292902085518155925191830191909155518051939450849391926138c4926002850192909101906147fd565b50606082015180516138e09160038401916020909101906147fd565b50608082015180516138fc9160048401916020909101906147fd565b5060a082015180516139189160058401916020909101906147fd565b5060c082015180516139349160068401916020909101906147fd565b5060e08201518051613950916007840191602090910190614a80565b50610100820151805161396d916008840191602090910190614a80565b50610120820151805161398a916009840191602090910190614aba565b5050600280546001810182556000919091527f405787fa12a823e0f2b7631cc41b3ba8828b3321ca811111fa75cd3aa3bb5ace01989098555050505050505050565b6000600160a060020a03821615156139e357600080fd5b50600160a060020a03166000908152602091909152604090205460ff1690565b6000908152600160205260408120541190565b613a1e614b28565b606060006060613a2d8b6143d7565b9350613a3884614425565b92508c600560008f8152602001908152602001600020600101819055508b600560008f815260200190815260200160002060000181905550896001811115613a7c57fe5b60008e8152600560205260409020600301805460ff191660018381811115613aa057fe5b021790555060008d8152600560205260408120613ac291600290910190614b3f565b600091505b8251821015613ba757613af08383815181101515613ae157fe5b90602001906020020151614425565b9050600560008e81526020019081526020016000206002016040805190810160405280613b34846000815181101515613b2557fe5b906020019060200201516144f8565b8152602001613b4b846001815181101515613b2557fe5b90528154600181018084556000938452602093849020835180519295600290940290910192613b7f928492909101906147fd565b506020828101518051613b9892600185019201906147fd565b50505050816001019150613ac7565b60008d8152600560208181526040909220600481018c90559081018a9055600881018790558851613be0926006909201918a0190614b60565b50856001811115613bed57fe5b60008e8152600560205260409020600701805460ff191660018381811115613c1157fe5b021790555050505050505050505050505050565b6000918252600160208181526040842060080180549283018155845290922090910155565b6000918252600160208181526040842060070180549283018155845290922090910155565b6000808080600285061515613d015784604051602001808281526020019150506040516020818303038152906040526040518082805190602001908083835b60208310613ccd5780518252601f199092019160209182019101613cae565b6001836020036101000a03801982511681845116808217855250505050505090500191505060405180910390209250613dec565b84604051602001808281526020019150506040516020818303038152906040526040518082805190602001908083835b60208310613d505780518252601f199092019160209182019101613d31565b51815160209384036101000a600019018019909216911617905260408051929094018290038220828201528351808303820181529184019384905281519195509293508392850191508083835b60208310613dbc5780518252601f199092019160209182019101613d9d565b6001836020036101000a038019825116818451168082178552505050505050905001915050604051809103902092505b6020811015613e1957828160208110613e0157fe5b60f860020a91901a8102049190910190600101613dec565b826020600284010660208110613e2b57fe5b60f860020a91901a810204836020840660208110613e4557fe5b1a60f860020a0260f860020a9004029350505050919050565b613e666148da565b600084101580613e77575060028411155b1515613e985760405160e560020a62461bcd02815260040161052390615cf4565b84511515613ebb5760405160e560020a62461bcd02815260040161052390615c84565b600160a060020a0383166000908152600360209081526040918290208251610100808201855282548252600180840180548751600293821615909402600019011691909104601f8101869004860283018601909652858252919492938581019391929190830182828015613f705780601f10613f4557610100808354040283529160200191613f70565b820191906000526020600020905b815481529060010190602001808311613f5357829003601f168201915b5050509183525050600282810180546040805160206001841615610100026000190190931694909404601f810183900483028501830190915280845293810193908301828280156140025780601f10613fd757610100808354040283529160200191614002565b820191906000526020600020905b815481529060010190602001808311613fe557829003601f168201915b505050505081526020016003820154815260200160048201548152602001600582018054600181600116156101000203166002900480601f0160208091040260200160405190810160405280929190818152602001828054600181600116156101000203166002900480156140b85780601f1061408d576101008083540402835291602001916140b8565b820191906000526020600020905b81548152906001019060200180831161409b57829003601f168201915b5050509183525050600682015460209091019060ff1660028111156140d957fe5b60028111156140e457fe5b8152600691909101546101009004600160a060020a03166020918201528b825281018a905260408101899052606081018890526080810187905260a08101869052905083600281111561413357fe5b8160c00190600281111561414357fe5b9081600281111561415057fe5b905250600160a060020a03831660e0820181905260009081526003602090815260409091208251815581830151805184936141929260018501929101906147fd565b50604082015180516141ae9160028401916020909101906147fd565b50606082015160038201556080820151600482015560a082015180516141de9160058401916020909101906147fd565b5060c082015160068201805460ff191660018360028111156141fc57fe5b021790555060e0919091015160069091018054600160a060020a039092166101000274ffffffffffffffffffffffffffffffffffffffff00199092169190911790558115156142a657600480546001810182556000919091527f8a35acfbc15ff81a39ae7d344fd709f28e8600b4aa8c65c6b64bfe7fe36bd19b01805473ffffffffffffffffffffffffffffffffffffffff1916600160a060020a0385161790556142a68761456a565b50505050505050505050565b600081815260016020526040812054606091106142e45760405160e560020a62461bcd02815260040161052390615d14565b6000828152600160209081526040918290206008018054835181840281018401909452808452909183018282801561433b57602002820191906000526020600020905b815481526020019060010190808311614327575b50505050509050919050565b61435860008263ffffffff6145a916565b604051600160a060020a038216907f3525e22824a8a7df2c9a6029941c824cf95b6447f1e13d5128fd3826d35afe8b90600090a250565b6143a060008263ffffffff6145f516565b604051600160a060020a038216907f47d1c22a25bb3a5d4e481b9b1e6944c2eade3181a0a20b495ed61d35b5323f2490600090a250565b6143df614b28565b60008251600014156144065760408051808201909152600080825260208201529150611ba9565b5050604080518082019091528151815260209182019181019190915290565b606060008060008061443686614643565b151561444157600080fd5b61444a86614672565b93508360405190808252806020026020018201604052801561448657816020015b614473614b28565b81526020019060019003908161446b5790505b50945061449686602001516146c2565b8660200151019250600090505b838110156144ef576144b483614725565b915060408051908101604052808381526020018481525085828151811015156144d957fe5b60209081029091010152918101916001016144a3565b50505050919050565b60606000806060600061450e86602001516146c2565b9350838660000151039250826040519080825280601f01601f191660200182016040528015614547578160200160208202803883390190505b5091508160200190506145618487602001510182856147b6565b50949350505050565b6000908152600160208181526040832060090180549283018155835290912001805473ffffffffffffffffffffffffffffffffffffffff191633179055565b600160a060020a03811615156145be57600080fd5b6145c882826139cc565b15156145d357600080fd5b600160a060020a0316600090815260209190915260409020805460ff19169055565b600160a060020a038116151561460a57600080fd5b61461482826139cc565b1561461e57600080fd5b600160a060020a0316600090815260209190915260409020805460ff19166001179055565b6020810151805160009190821a9060c060ff83161015614666576000925061466b565b600192505b5050919050565b6000806000806000925061468985602001516146c2565b6020860151865191810193500190505b808210156146b9576146aa82614725565b60019093019290910190614699565b50909392505050565b8051600090811a60808110156146db5760009150611ba9565b60b88110806146f6575060c081108015906146f6575060f881105b156147045760019150611ba9565b60c08110156147195760b51981019150611ba9565b60f51981019150611ba9565b8051600090811a608081101561473e5760019150611ba9565b60b881101561475357607e1981019150611ba9565b60c08110156147805760b78103600184019350806020036101000a84510460018201810193505050611ba9565b60f88110156147955760be1981019150611ba9565b60019290920151602083900360f7016101000a900490910160f51901919050565b60005b602082106147db578351835260209384019390920191601f19909101906147b9565b50915181516020939093036101000a6000190180199091169216919091179052565b828054600181600116156101000203166002900490600052602060002090601f016020900481019282601f1061483e57805160ff191683800117855561486b565b8280016001018555821561486b579182015b8281111561486b578251825591602001919060010190614850565b50610c38929150614bb9565b61012060405190810160405280600081526020016000815260200160608152602001600060018111156148a657fe5b8152602001600081526020016000815260200160608152602001600060018111156148cd57fe5b8152602001600081525090565b610100604051908101604052806000815260200160608152602001606081526020016000815260200160008152602001606081526020016000600281111561491e57fe5b8152600060209091015290565b61014060405190810160405280600081526020016000815260200160608152602001606081526020016060815260200160608152602001606081526020016060815260200160608152602001606081525090565b828054600181600116156101000203166002900490600052602060002090601f016020900481019282601f106149b8578054855561486b565b8280016001018555821561486b57600052602060002091601f016020900482015b8281111561486b5782548255916001019190600101906149d9565b50805460018160011615610100020316600290046000825580601f10614a1a5750610677565b601f0160209004906000526020600020908101906106779190614bb9565b815481835581811115610c9457600083815260209020610c94918101908301614bd3565b815481835581811115610c9457600083815260209020610c94918101908301614bb9565b82805482825590600052602060002090810192821561486b579160200282018281111561486b578251825591602001919060010190614850565b828054828255906000526020600020908101928215614b1c579160200282015b82811115614b1c578251825473ffffffffffffffffffffffffffffffffffffffff1916600160a060020a03909116178255602090920191600190910190614ada565b50610c38929150614bf6565b604080518082019091526000808252602082015290565b50805460008255600202906000526020600020908101906106779190614c27565b828054828255906000526020600020908101928215614bad579160200282015b82811115614bad5782518051614b9d9184916020909101906147fd565b5091602001919060010190614b80565b50610c38929150614bd3565b6115c091905b80821115610c385760008155600101614bbf565b6115c091905b80821115610c38576000614bed82826149f4565b50600101614bd9565b6115c091905b80821115610c3857805473ffffffffffffffffffffffffffffffffffffffff19168155600101614bfc565b6115c091905b80821115610c38576000614c4182826149f4565b614c4f6001830160006149f4565b50600201614c2d565b6000614c648235615e5d565b9392505050565b6000601f82018313614c7c57600080fd5b8135614c8f614c8a82615e2b565b615e04565b91508082526020830160208301858383011115614cab57600080fd5b614cb6838284615e9c565b50505092915050565b6000614c6482356115c0565b600060208284031215614cdd57600080fd5b6000614ce98484614c58565b949350505050565b600060208284031215614d0357600080fd5b813567ffffffffffffffff811115614d1a57600080fd5b614ce984828501614c6b565b600080600080600060a08688031215614d3e57600080fd5b853567ffffffffffffffff811115614d5557600080fd5b614d6188828901614c6b565b955050602086013567ffffffffffffffff811115614d7e57600080fd5b614d8a88828901614c6b565b9450506040614d9b88828901614cbf565b935050606086013567ffffffffffffffff811115614db857600080fd5b614dc488828901614c6b565b9250506080614dd588828901614c58565b9150509295509295909350565b600060208284031215614df457600080fd5b6000614ce98484614cbf565b600080600060608486031215614e1557600080fd5b6000614e218686614cbf565b935050602084013567ffffffffffffffff811115614e3e57600080fd5b614e4a86828701614c6b565b9250506040614e5b86828701614cbf565b9150509250925092565b60008060008060808587031215614e7b57600080fd5b6000614e878787614cbf565b945050602085013567ffffffffffffffff811115614ea457600080fd5b614eb087828801614c6b565b9350506040614ec187828801614cbf565b9250506060614ed287828801614cbf565b91505092959194509250565b60008060008060008060c08789031215614ef757600080fd5b6000614f038989614cbf565b965050602087013567ffffffffffffffff811115614f2057600080fd5b614f2c89828a01614c6b565b955050604087013567ffffffffffffffff811115614f4957600080fd5b614f5589828a01614c6b565b945050606087013567ffffffffffffffff811115614f7257600080fd5b614f7e89828a01614c6b565b935050608087013567ffffffffffffffff811115614f9b57600080fd5b614fa789828a01614c6b565b92505060a087013567ffffffffffffffff811115614fc457600080fd5b614fd089828a01614c6b565b9150509295509295509295565b600080600080600060a08688031215614ff557600080fd5b60006150018888614cbf565b955050602086013567ffffffffffffffff81111561501e57600080fd5b61502a88828901614c6b565b945050604086013567ffffffffffffffff81111561504757600080fd5b61505388828901614c6b565b935050606086013567ffffffffffffffff81111561507057600080fd5b61507c88828901614c6b565b9250506080614dd588828901614cbf565b600080600080600080600060e0888a0312156150a857600080fd5b60006150b48a8a614cbf565b97505060206150c58a828b01614cbf565b965050604088013567ffffffffffffffff8111156150e257600080fd5b6150ee8a828b01614c6b565b955050606088013567ffffffffffffffff81111561510b57600080fd5b6151178a828b01614c6b565b945050608088013567ffffffffffffffff81111561513457600080fd5b6151408a828b01614c6b565b93505060a088013567ffffffffffffffff81111561515d57600080fd5b6151698a828b01614c6b565b92505060c088013567ffffffffffffffff81111561518657600080fd5b6151928a828b01614c6b565b91505092959891949750929550565b6000806000606084860312156151b657600080fd5b60006151c28686614cbf565b9350506020614e4a86828701614cbf565b6151dc81615e5d565b82525050565b60006151ed82615e59565b8084526020840193506151ff83615e53565b60005b8281101561522f576152158683516151d3565b61521e82615e53565b602096909601959150600101615202565b5093949350505050565b600061524482615e59565b8084526020840193508360208202850161525d85615e53565b60005b848110156152945783830388526152788383516154cf565b925061528382615e53565b602098909801979150600101615260565b50909695505050505050565b60006152ab82615e59565b808452602084019350836020820285016152c485615e53565b60005b848110156152945783830388526152df8383516154cf565b92506152ea82615e53565b6020989098019791506001016152c7565b600061530682615e59565b8084526020840193508360208202850161531f85615e53565b60005b8481101561529457838303885261533a838351615970565b925061534582615e53565b602098909801979150600101615322565b600061536182615e59565b8084526020840193508360208202850161537a85615e53565b60005b84811015615294578383038852615395838351615a35565b92506153a082615e53565b60209890980197915060010161537d565b60006153bc82615e59565b808452602084019350836020820285016153d585615e53565b60005b848110156152945783830388526153f0838351615b38565b92506153fb82615e53565b6020989098019791506001016153d8565b600061541782615e59565b8084526020840193508360208202850161543085615e53565b60005b8481101561529457838303885261544b838351615b6a565b925061545682615e53565b602098909801979150600101615433565b600061547282615e59565b80845260208401935061548483615e53565b60005b8281101561522f5761549a868351615c19565b6154a382615e53565b602096909601959150600101615487565b6151dc81615e69565b6151dc81615e86565b6151dc81615e91565b60006154da82615e59565b8084526154ee816020860160208601615ea8565b6154f781615ed8565b9093016020019392505050565b601a81527f4372656174696f6e204461746520697320696e6d757461626c65000000000000602082015260400190565b601181527f726f6c65206973206d616e6461746f7279000000000000000000000000000000602082015260400190565b601481527f436c61696d20616c726561647920657869737473000000000000000000000000602082015260400190565b602281527f4f6e6c792070656e64696e672075736572732063616e2062652061636365707460208201527f6564000000000000000000000000000000000000000000000000000000000000604082015260600190565b601381527f5573657220616c72656164792065786973747300000000000000000000000000602082015260400190565b601481527f546869732075736572206e6f7420657869737473000000000000000000000000602082015260400190565b601b81527f596f752063616e6e6f7420616363657074207468697320757365720000000000602082015260400190565b602281527f4f6e6c792070656e64696e672075736572732063616e2062652072656a65637460208201527f6564000000000000000000000000000000000000000000000000000000000000604082015260600190565b601381527f737461747573206973206e6f742076616c696400000000000000000000000000602082015260400190565b601081527f436c61696d206e6f742065786973747300000000000000000000000000000000602082015260400190565b601181527f6d656d626572206e6f7420657869737473000000000000000000000000000000602082015260400190565b601481527f4d656d62657220646f206e6f7420657869737473000000000000000000000000602082015260400190565b601581527f4d656d62657220616c7265616479206578697374730000000000000000000000602082015260400190565b601f81527f5468657265206973206e6f20636c61696d20696e207468652073797374656d00602082015260400190565b601181527f4d656d626572206e6f7420657869737473000000000000000000000000000000602082015260400190565b601281527f5468656d65206973206d616e6461746f72790000000000000000000000000000602082015260400190565b601081527f434d4f206973206d616e6461746f727900000000000000000000000000000000602082015260400190565b601481527f596f7520617265206e6f74206163636570746564000000000000000000000000602082015260400190565b601181527f4e616d65206973206d616e6461746f7279000000000000000000000000000000602082015260400190565b601181527f4e6f2076616c6964206d656d6265724964000000000000000000000000000000602082015260400190565b601481527f496e636f727265637420436c61696d2054797065000000000000000000000000602082015260400190565b601981527f4372656174696f6e44617465206973206d616e6461746f727900000000000000602082015260400190565b80516000906101208401906159858582615c19565b5060208301516159986020860182615c19565b50604083015184820360408601526159b082826153b1565b91505060608301516159c560608601826154bd565b5060808301516159d86080860182615c19565b5060a08301516159eb60a0860182615c19565b5060c083015184820360c0860152615a0382826152a0565b91505060e0830151615a1860e08601826154bd565b50610100830151615a2d610100860182615c19565b509392505050565b8051600090610140840190615a4a8582615c19565b506020830151615a5d6020860182615c19565b5060408301518482036040860152615a7582826154cf565b91505060608301518482036060860152615a8f82826154cf565b91505060808301518482036080860152615aa982826154cf565b91505060a083015184820360a0860152615ac382826154cf565b91505060c083015184820360c0860152615add82826154cf565b91505060e083015184820360e0860152615af78282615467565b915050610100830151848203610100860152615b138282615467565b915050610120830151848203610120860152615b2f82826151e2565b95945050505050565b8051604080845260009190840190615b5082826154cf565b91505060208301518482036020860152615b2f82826154cf565b8051600090610100840190615b7f8582615c19565b5060208301518482036020860152615b9782826154cf565b91505060408301518482036040860152615bb182826154cf565b9150506060830151615bc66060860182615c19565b506080830151615bd96080860182615c19565b5060a083015184820360a0860152615bf182826154cf565b91505060c0830151615c0660c08601826154c6565b5060e0830151615a2d60e08601826151d3565b6151dc816115c0565b60208082528101614c648184615239565b60208082528101614c6481846152fb565b60208082528101614c648184615356565b60208082528101614c64818461540c565b602081016118b882846154b4565b602080825281016118b881615504565b602080825281016118b881615534565b602080825281016118b881615564565b602080825281016118b881615594565b602080825281016118b8816155ea565b602080825281016118b88161561a565b602080825281016118b88161564a565b602080825281016118b88161567a565b602080825281016118b8816156d0565b602080825281016118b881615700565b602080825281016118b881615730565b602080825281016118b881615760565b602080825281016118b881615790565b602080825281016118b8816157c0565b602080825281016118b8816157f0565b602080825281016118b881615820565b602080825281016118b881615850565b602080825281016118b881615880565b602080825281016118b8816158b0565b602080825281016118b8816158e0565b602080825281016118b881615910565b602080825281016118b881615940565b60208082528101614c648184615970565b60208082528101614c648184615b6a565b602081016118b88284615c19565b60405181810167ffffffffffffffff81118282101715615e2357600080fd5b604052919050565b600067ffffffffffffffff821115615e4257600080fd5b506020601f91909101601f19160190565b60200190565b5190565b600160a060020a031690565b151590565b600060028210610c3857fe5b600060038210610c3857fe5b60006118b882615e6e565b60006118b882615e7a565b82818337506000910152565b60005b83811015615ec3578181015183820152602001615eab565b83811115615ed2576000848401525b50505050565b601f01601f1916905600a265627a7a723058201af7c85ef266b51fc3a2dc064b5f369802f014ac3f80d4452838acf40bc0516d6c6578706572696d656e74616cf50037",
  "source": "pragma solidity ^0.4.24;\npragma experimental ABIEncoderV2;\n\nimport \"./Claims.sol\";\n\ncontract Registry is Claims {\n  \n  string[] private cmos_;\n\n  function addCMO(string memory _cmo) onlySigner public {\n    cmos_.push(_cmo);\n  }\n\n  function deleteCMO(uint _index) onlySigner public {\n    for (uint i = _index; i < cmos_.length-1;i++){\n      cmos_[i] = cmos_[i+1];\n    }\n    delete cmos_[cmos_.length-1];\n    cmos_.length--;\n  }\n\n  function getCMOs() view public returns( string[] memory ) {\n    return cmos_;\n  }\n\n}",
  "sourcePath": "/home/komodo/newUI/bloomen-decentralized-rights-management-v2/truffle/contracts/registry/Registry.sol",
  "compiler": {
    "name": "solc",
    "version": "0.4.24+commit.e67f0147.Emscripten.clang"
  },
  "schemaVersion": "2.0.1",
  "updatedAt": "2019-11-09T13:44:42.223Z"
}