{
  "contractName": "Registry",
  "abi": [
    {
      "constant": false,
      "inputs": [
        {
          "name": "_userToAccept",
          "type": "address"
        }
      ],
      "name": "acceptUser",
      "outputs": [],
      "payable": false,
      "stateMutability": "nonpayable",
      "type": "function"
    },
    {
      "constant": true,
      "inputs": [],
      "name": "getClaimsCountByMemberId",
      "outputs": [
        {
          "name": "",
          "type": "uint256"
        }
      ],
      "payable": false,
      "stateMutability": "view",
      "type": "function"
    },
    {
      "constant": false,
      "inputs": [
        {
          "name": "_creationDate",
          "type": "uint256"
        },
        {
          "name": "_claimData",
          "type": "bytes"
        },
        {
          "name": "_claimType",
          "type": "bool"
        },
        {
          "name": "_memberOwner",
          "type": "uint256"
        }
      ],
      "name": "registerClaim",
      "outputs": [],
      "payable": false,
      "stateMutability": "nonpayable",
      "type": "function"
    },
    {
      "constant": false,
      "inputs": [
        {
          "name": "_userToReject",
          "type": "address"
        }
      ],
      "name": "rejectUser",
      "outputs": [],
      "payable": false,
      "stateMutability": "nonpayable",
      "type": "function"
    },
    {
      "constant": true,
      "inputs": [
        {
          "name": "_claimId",
          "type": "uint256"
        }
      ],
      "name": "getClaim",
      "outputs": [
        {
          "components": [
            {
              "name": "creationDate",
              "type": "uint256"
            },
            {
              "name": "claimId",
              "type": "uint256"
            },
            {
              "components": [
                {
                  "name": "name",
                  "type": "string"
                },
                {
                  "name": "value",
                  "type": "string"
                }
              ],
              "name": "claimData",
              "type": "tuple[]"
            },
            {
              "name": "claimType",
              "type": "bool"
            },
            {
              "name": "memberOwner",
              "type": "uint256"
            },
            {
              "name": "status",
              "type": "bool"
            },
            {
              "name": "lastChange",
              "type": "uint256"
            }
          ],
          "name": "",
          "type": "tuple"
        }
      ],
      "payable": false,
      "stateMutability": "view",
      "type": "function"
    },
    {
      "constant": true,
      "inputs": [
        {
          "name": "_page",
          "type": "uint256"
        }
      ],
      "name": "getUsers",
      "outputs": [
        {
          "components": [
            {
              "name": "creationDate",
              "type": "uint256"
            },
            {
              "name": "firstName",
              "type": "string"
            },
            {
              "name": "lastName",
              "type": "string"
            },
            {
              "name": "memberId",
              "type": "uint256"
            },
            {
              "name": "requestId",
              "type": "uint256"
            },
            {
              "name": "role",
              "type": "string"
            },
            {
              "name": "status",
              "type": "uint8"
            },
            {
              "name": "owner",
              "type": "address"
            }
          ],
          "name": "",
          "type": "tuple[]"
        }
      ],
      "payable": false,
      "stateMutability": "view",
      "type": "function"
    },
    {
      "constant": false,
      "inputs": [
        {
          "name": "_memberId",
          "type": "uint256"
        },
        {
          "name": "_creationDate",
          "type": "uint256"
        },
        {
          "name": "_name",
          "type": "string"
        },
        {
          "name": "_logo",
          "type": "string"
        },
        {
          "name": "_country",
          "type": "string"
        },
        {
          "name": "_cmo",
          "type": "string"
        },
        {
          "name": "_theme",
          "type": "string"
        }
      ],
      "name": "updateMember",
      "outputs": [],
      "payable": false,
      "stateMutability": "nonpayable",
      "type": "function"
    },
    {
      "constant": true,
      "inputs": [
        {
          "name": "userAddress",
          "type": "address"
        }
      ],
      "name": "getUserByAddress",
      "outputs": [
        {
          "components": [
            {
              "name": "creationDate",
              "type": "uint256"
            },
            {
              "name": "firstName",
              "type": "string"
            },
            {
              "name": "lastName",
              "type": "string"
            },
            {
              "name": "memberId",
              "type": "uint256"
            },
            {
              "name": "requestId",
              "type": "uint256"
            },
            {
              "name": "role",
              "type": "string"
            },
            {
              "name": "status",
              "type": "uint8"
            },
            {
              "name": "owner",
              "type": "address"
            }
          ],
          "name": "",
          "type": "tuple"
        }
      ],
      "payable": false,
      "stateMutability": "view",
      "type": "function"
    },
    {
      "constant": true,
      "inputs": [
        {
          "name": "account",
          "type": "address"
        }
      ],
      "name": "isSigner",
      "outputs": [
        {
          "name": "",
          "type": "bool"
        }
      ],
      "payable": false,
      "stateMutability": "view",
      "type": "function"
    },
    {
      "constant": true,
      "inputs": [],
      "name": "getUsersOwner",
      "outputs": [
        {
          "components": [
            {
              "name": "creationDate",
              "type": "uint256"
            },
            {
              "name": "firstName",
              "type": "string"
            },
            {
              "name": "lastName",
              "type": "string"
            },
            {
              "name": "memberId",
              "type": "uint256"
            },
            {
              "name": "requestId",
              "type": "uint256"
            },
            {
              "name": "role",
              "type": "string"
            },
            {
              "name": "status",
              "type": "uint8"
            },
            {
              "name": "owner",
              "type": "address"
            }
          ],
          "name": "",
          "type": "tuple[]"
        }
      ],
      "payable": false,
      "stateMutability": "view",
      "type": "function"
    },
    {
      "constant": true,
      "inputs": [],
      "name": "getMembers",
      "outputs": [
        {
          "components": [
            {
              "name": "memberId",
              "type": "uint256"
            },
            {
              "name": "creationDate",
              "type": "uint256"
            },
            {
              "name": "name",
              "type": "string"
            },
            {
              "name": "logo",
              "type": "string"
            },
            {
              "name": "country",
              "type": "string"
            },
            {
              "name": "cmo",
              "type": "string"
            },
            {
              "name": "theme",
              "type": "string"
            },
            {
              "name": "claimInbox",
              "type": "uint256[]"
            },
            {
              "name": "claims",
              "type": "uint256[]"
            },
            {
              "name": "userRequests",
              "type": "address[]"
            }
          ],
          "name": "",
          "type": "tuple[]"
        }
      ],
      "payable": false,
      "stateMutability": "view",
      "type": "function"
    },
    {
      "constant": true,
      "inputs": [],
      "name": "getcountUsers",
      "outputs": [
        {
          "name": "",
          "type": "uint256"
        }
      ],
      "payable": false,
      "stateMutability": "view",
      "type": "function"
    },
    {
      "constant": false,
      "inputs": [
        {
          "name": "_creationDate",
          "type": "uint256"
        },
        {
          "name": "_firstName",
          "type": "string"
        },
        {
          "name": "_lastName",
          "type": "string"
        },
        {
          "name": "_role",
          "type": "string"
        },
        {
          "name": "_memberId",
          "type": "uint256"
        }
      ],
      "name": "registerUserRequest",
      "outputs": [],
      "payable": false,
      "stateMutability": "nonpayable",
      "type": "function"
    },
    {
      "constant": true,
      "inputs": [],
      "name": "getCount",
      "outputs": [
        {
          "name": "",
          "type": "uint256"
        }
      ],
      "payable": false,
      "stateMutability": "view",
      "type": "function"
    },
    {
      "constant": true,
      "inputs": [
        {
          "name": "_page",
          "type": "uint256"
        }
      ],
      "name": "getClaimsByMemberId",
      "outputs": [
        {
          "components": [
            {
              "name": "creationDate",
              "type": "uint256"
            },
            {
              "name": "claimId",
              "type": "uint256"
            },
            {
              "components": [
                {
                  "name": "name",
                  "type": "string"
                },
                {
                  "name": "value",
                  "type": "string"
                }
              ],
              "name": "claimData",
              "type": "tuple[]"
            },
            {
              "name": "claimType",
              "type": "bool"
            },
            {
              "name": "memberOwner",
              "type": "uint256"
            },
            {
              "name": "status",
              "type": "bool"
            },
            {
              "name": "lastChange",
              "type": "uint256"
            }
          ],
          "name": "",
          "type": "tuple[]"
        }
      ],
      "payable": false,
      "stateMutability": "view",
      "type": "function"
    },
    {
      "constant": true,
      "inputs": [],
      "name": "getMe",
      "outputs": [
        {
          "components": [
            {
              "name": "creationDate",
              "type": "uint256"
            },
            {
              "name": "firstName",
              "type": "string"
            },
            {
              "name": "lastName",
              "type": "string"
            },
            {
              "name": "memberId",
              "type": "uint256"
            },
            {
              "name": "requestId",
              "type": "uint256"
            },
            {
              "name": "role",
              "type": "string"
            },
            {
              "name": "status",
              "type": "uint8"
            },
            {
              "name": "owner",
              "type": "address"
            }
          ],
          "name": "",
          "type": "tuple"
        }
      ],
      "payable": false,
      "stateMutability": "view",
      "type": "function"
    },
    {
      "constant": true,
      "inputs": [
        {
          "name": "_page",
          "type": "uint256"
        }
      ],
      "name": "getMembers",
      "outputs": [
        {
          "components": [
            {
              "name": "memberId",
              "type": "uint256"
            },
            {
              "name": "creationDate",
              "type": "uint256"
            },
            {
              "name": "name",
              "type": "string"
            },
            {
              "name": "logo",
              "type": "string"
            },
            {
              "name": "country",
              "type": "string"
            },
            {
              "name": "cmo",
              "type": "string"
            },
            {
              "name": "theme",
              "type": "string"
            },
            {
              "name": "claimInbox",
              "type": "uint256[]"
            },
            {
              "name": "claims",
              "type": "uint256[]"
            },
            {
              "name": "userRequests",
              "type": "address[]"
            }
          ],
          "name": "",
          "type": "tuple[]"
        }
      ],
      "payable": false,
      "stateMutability": "view",
      "type": "function"
    },
    {
      "constant": false,
      "inputs": [
        {
          "name": "_claimId",
          "type": "uint256"
        },
        {
          "name": "_claimData",
          "type": "bytes"
        },
        {
          "name": "_lastChange",
          "type": "uint256"
        }
      ],
      "name": "updateClaim",
      "outputs": [],
      "payable": false,
      "stateMutability": "nonpayable",
      "type": "function"
    },
    {
      "constant": false,
      "inputs": [],
      "name": "renounceSigner",
      "outputs": [],
      "payable": false,
      "stateMutability": "nonpayable",
      "type": "function"
    },
    {
      "constant": false,
      "inputs": [
        {
          "name": "account",
          "type": "address"
        }
      ],
      "name": "addSigner",
      "outputs": [],
      "payable": false,
      "stateMutability": "nonpayable",
      "type": "function"
    },
    {
      "constant": false,
      "inputs": [
        {
          "name": "_creationDate",
          "type": "uint256"
        },
        {
          "name": "_name",
          "type": "string"
        },
        {
          "name": "_logo",
          "type": "string"
        },
        {
          "name": "_country",
          "type": "string"
        },
        {
          "name": "_cmo",
          "type": "string"
        },
        {
          "name": "_theme",
          "type": "string"
        }
      ],
      "name": "addMember",
      "outputs": [
        {
          "name": "",
          "type": "uint256"
        }
      ],
      "payable": false,
      "stateMutability": "nonpayable",
      "type": "function"
    },
    {
      "constant": false,
      "inputs": [
        {
          "name": "_firstName",
          "type": "string"
        },
        {
          "name": "_lastName",
          "type": "string"
        },
        {
          "name": "_memberId",
          "type": "uint256"
        },
        {
          "name": "_role",
          "type": "string"
        },
        {
          "name": "owner",
          "type": "address"
        }
      ],
      "name": "updateUser",
      "outputs": [],
      "payable": false,
      "stateMutability": "nonpayable",
      "type": "function"
    },
    {
      "constant": false,
      "inputs": [
        {
          "name": "account",
          "type": "address"
        }
      ],
      "name": "whitelistAdmin",
      "outputs": [],
      "payable": false,
      "stateMutability": "nonpayable",
      "type": "function"
    },
    {
      "anonymous": false,
      "inputs": [
        {
          "indexed": true,
          "name": "account",
          "type": "address"
        }
      ],
      "name": "SignerAdded",
      "type": "event"
    },
    {
      "anonymous": false,
      "inputs": [
        {
          "indexed": true,
          "name": "account",
          "type": "address"
        }
      ],
      "name": "SignerRemoved",
      "type": "event"
    },
    {
      "constant": false,
      "inputs": [
        {
          "name": "_cmo",
          "type": "string"
        }
      ],
      "name": "addCMO",
      "outputs": [],
      "payable": false,
      "stateMutability": "nonpayable",
      "type": "function"
    },
    {
      "constant": false,
      "inputs": [
        {
          "name": "_index",
          "type": "uint256"
        }
      ],
      "name": "deleteCMO",
      "outputs": [],
      "payable": false,
      "stateMutability": "nonpayable",
      "type": "function"
    },
    {
      "constant": true,
      "inputs": [],
      "name": "getCMOs",
      "outputs": [
        {
          "name": "",
          "type": "string[]"
        }
      ],
      "payable": false,
      "stateMutability": "view",
      "type": "function"
    }
  ],
  "bytecode": "0x608060405260006006556200001d3364010000000062000023810204565b62000108565b6200003e600082640100000000620048686200007582021704565b604051600160a060020a038216907f47d1c22a25bb3a5d4e481b9b1e6944c2eade3181a0a20b495ed61d35b5323f2490600090a250565b600160a060020a03811615156200008b57600080fd5b620000a08282640100000000620000d0810204565b15620000ab57600080fd5b600160a060020a0316600090815260209190915260409020805460ff19166001179055565b6000600160a060020a0382161515620000e857600080fd5b50600160a060020a03166000908152602091909152604090205460ff1690565b615f8480620001186000396000f3006080604052600436106101535763ffffffff7c010000000000000000000000000000000000000000000000000000000060003504166308bdc24d81146101585780631be8850b1461017a578063373cfbb9146101a55780633a59ccf1146101c55780634dc92885146101e55780635aef2447146102055780635d73ab9a14610232578063656d561c1461025f57806365ff0c481461028157806369c212f6146102a15780637df73e27146102ce578063932191be146102fb5780639eab525314610310578063a4fdc59414610332578063a7ed1fe414610347578063a87d942c14610367578063b6bc38121461037c578063bf3d007e146103a9578063c11e1ff3146103c9578063c477ecab146103de578063cb68b9e8146103fe578063e5c8b03d1461041e578063eb12d61e14610433578063fa1188c614610453578063fcfbde5b14610473578063ff240fce14610493575b600080fd5b34801561016457600080fd5b50610178610173366004614ed0565b6104b3565b005b34801561018657600080fd5b5061018f61064f565b60405161019c9190615e75565b60405180910390f35b3480156101b157600080fd5b506101786101c0366004615005565b61066c565b3480156101d157600080fd5b506101786101e0366004614ef6565b61072c565b3480156101f157600080fd5b50610178610200366004614ed0565b610789565b34801561021157600080fd5b50610225610220366004614fe7565b6108ed565b60405161019c9190615e53565b34801561023e57600080fd5b5061025261024d366004614fe7565b610aec565b60405161019c9190615d04565b34801561026b57600080fd5b50610274610ec7565b60405161019c9190615cd1565b34801561028d57600080fd5b5061017861029c366004615292565b610fa0565b3480156102ad57600080fd5b506102c16102bc366004614ed0565b61102f565b60405161019c9190615e64565b3480156102da57600080fd5b506102ee6102e9366004614ed0565b611283565b60405161019c9190615d15565b34801561030757600080fd5b5061025261129b565b34801561031c57600080fd5b5061032561158c565b60405161019c9190615cf3565b34801561033e57600080fd5b5061018f611a53565b34801561035357600080fd5b506101786103623660046151e2565b611b18565b34801561037357600080fd5b5061018f611bdf565b34801561038857600080fd5b5061039c610397366004614fe7565b611bfc565b60405161019c9190615ce2565b3480156103b557600080fd5b506101786103c4366004614fe7565b611efe565b3480156103d557600080fd5b506102c1611fbc565b3480156103ea57600080fd5b506103256103f9366004614fe7565b61204d565b34801561040a57600080fd5b5061017861041936600461507e565b612568565b34801561042a57600080fd5b5061017861259f565b34801561043f57600080fd5b5061017861044e366004614ed0565b6125aa565b34801561045f57600080fd5b5061018f61046e3660046150e3565b6125c7565b34801561047f57600080fd5b5061017861048e366004614f2b565b612656565b34801561049f57600080fd5b506101786104ae366004614ed0565b612744565b600160a060020a038181166000908152600360205260408120600601546101009004909116116105015760405160e560020a62461bcd0281526004016104f890615d63565b60405180910390fd5b600160a060020a0381166000908152600360208190526040808320820154338452922001541480610536575061053633611283565b15156105575760405160e560020a62461bcd0281526004016104f890615d73565b60023360009081526003602052604090206006015460ff16600281111561057a57fe5b148061058a575061058a33611283565b15156105ab5760405160e560020a62461bcd0281526004016104f890615e13565b6001600160a060020a03821660009081526003602052604090206006015460ff1660028111156105d757fe5b146105f75760405160e560020a62461bcd0281526004016104f890615d43565b600160a060020a038116600090815260036020526040902060060180546002919060ff19166001835b0217905550600160a060020a0381166000908152600360208190526040909120015461064c9082612818565b50565b60008061065a612980565b905061066581612997565b91505b5090565b60008085116106905760405160e560020a62461bcd0281526004016104f890615e43565b5060068054600101908190556106a5826129ac565b15156106c65760405160e560020a62461bcd0281526004016104f890615db3565b6106ce612980565b91506106e0818686868660008b6129bf565b6106ea8282612b37565b6001600654111561070057610700818486612b5c565b6000818152600560208190526040909120015460ff1615610725576107258282613831565b5050505050565b61073533611283565b151561074057600080fd5b60078054600181018083556000929092528251610784917fa66cc928b5edb82af9bd49922954155ab7b0942694bea4ce44661d9a8736c68801906020850190614a70565b505050565b600160a060020a038181166000908152600360205260408120600601546101009004909116116107ce5760405160e560020a62461bcd0281526004016104f890615d63565b600160a060020a0381166000908152600360208190526040808320820154338452922001541480610803575061080333611283565b15156108245760405160e560020a62461bcd0281526004016104f890615d73565b60023360009081526003602052604090206006015460ff16600281111561084757fe5b1480610857575061085733611283565b15156108785760405160e560020a62461bcd0281526004016104f890615e13565b6001600160a060020a03821660009081526003602052604090206006015460ff1660028111156108a457fe5b146108c45760405160e560020a62461bcd0281526004016104f890615d83565b600160a060020a0381166000908152600360205260408120600601805460ff1916600183610620565b6108f5614aea565b6005600083815260200190815260200160002060e06040519081016040529081600082015481526020016001820154815260200160028201805480602002602001604051908101604052809291908181526020016000905b82821015610aab5760008481526020908190206040805160028681029093018054600181161561010002600019011693909304601f8101859004909402810160609081018352918101848152909384928491908401828280156109f15780601f106109c6576101008083540402835291602001916109f1565b820191906000526020600020905b8154815290600101906020018083116109d457829003601f168201915b50505050508152602001600182018054600181600116156101000203166002900480601f016020809104026020016040519081016040528092919081815260200182805460018160011615610100020316600290048015610a935780601f10610a6857610100808354040283529160200191610a93565b820191906000526020600020905b815481529060010190602001808311610a7657829003601f168201915b5050505050815250508152602001906001019061094d565b50505090825250600382015460ff90811615156020830152600483015460408301526005830154161515606082015260069091015460809091015292915050565b606060008060006060600080610b00611a53565b9550610b0d600a89613856565b600454909550610b1e90600a61388f565b9350851580610b2c57508585115b80610b3657508388115b15610b4057610ebc565b60408051600a808252610160820190925290816020015b610b5f614b2c565b815260200190600190039081610b57579050509250600091508490505b600454811015610eb85733600090815260036020819052604082208101546004805491939185908110610bab57fe5b6000918252602080832090910154600160a060020a03168352820192909252604001902060030154148015610c285750600260036000600484815481101515610bf057fe5b6000918252602080832090910154600160a060020a0316835282019290925260400190206006015460ff166002811115610c2657fe5b145b15610eb05760036000600483815481101515610c4057fe5b600091825260208083209190910154600160a060020a0316835282810193909352604091820190208151610100808201845282548252600180840180548651600293821615909402600019011691909104601f81018790048702830187019095528482529194929385840193919291830182828015610d005780601f10610cd557610100808354040283529160200191610d00565b820191906000526020600020905b815481529060010190602001808311610ce357829003601f168201915b5050509183525050600282810180546040805160206001841615610100026000190190931694909404601f81018390048302850183019091528084529381019390830182828015610d925780601f10610d6757610100808354040283529160200191610d92565b820191906000526020600020905b815481529060010190602001808311610d7557829003601f168201915b505050505081526020016003820154815260200160048201548152602001600582018054600181600116156101000203166002900480601f016020809104026020016040519081016040528092919081815260200182805460018160011615610100020316600290048015610e485780601f10610e1d57610100808354040283529160200191610e48565b820191906000526020600020905b815481529060010190602001808311610e2b57829003601f168201915b5050509183525050600682015460209091019060ff166002811115610e6957fe5b6002811115610e7457fe5b8152600691909101546101009004600160a060020a03166020909101528351849084908110610e9f57fe5b602090810290910101526001909101905b600101610b7c565b8296505b505050505050919050565b60606007805480602002602001604051908101604052809291908181526020016000905b82821015610f965760008481526020908190208301805460408051601f6002600019610100600187161502019094169390930492830185900485028101850190915281815292830182828015610f825780601f10610f5757610100808354040283529160200191610f82565b820191906000526020600020905b815481529060010190602001808311610f6557829003601f168201915b505050505081526020019060010190610eeb565b5050505090505b90565b610fa933611283565b1515610fb457600080fd5b60008781526001602052604081205411610fe35760405160e560020a62461bcd0281526004016104f890615de3565b6000878152600160208190526040909120015486146110175760405160e560020a62461bcd0281526004016104f890615d23565b611026878787878787876138b2565b50505050505050565b611037614b2c565b600160a060020a0382166000908152600360209081526040918290208251610100808201855282548252600180840180548751600293821615909402600019011691909104601f81018690048602830186019096528582529194929385810193919291908301828280156110ec5780601f106110c1576101008083540402835291602001916110ec565b820191906000526020600020905b8154815290600101906020018083116110cf57829003601f168201915b5050509183525050600282810180546040805160206001841615610100026000190190931694909404601f8101839004830285018301909152808452938101939083018282801561117e5780601f106111535761010080835404028352916020019161117e565b820191906000526020600020905b81548152906001019060200180831161116157829003601f168201915b505050505081526020016003820154815260200160048201548152602001600582018054600181600116156101000203166002900480601f0160208091040260200160405190810160405280929190818152602001828054600181600116156101000203166002900480156112345780601f1061120957610100808354040283529160200191611234565b820191906000526020600020905b81548152906001019060200180831161121757829003601f168201915b5050509183525050600682015460209091019060ff16600281111561125557fe5b600281111561126057fe5b8152600691909101546101009004600160a060020a031660209091015292915050565b6000611295818363ffffffff613eab16565b92915050565b60608060006112a933611283565b15156112b457600080fd5b6004546040805182815260208084028201019091529080156112f057816020015b6112dd614b2c565b8152602001906001900390816112d55790505b509150600090505b600454811015611586576003600060048381548110151561131557fe5b600091825260208083209190910154600160a060020a0316835282810193909352604091820190208151610100808201845282548252600180840180548651600293821615909402600019011691909104601f810187900487028301870190955284825291949293858401939192918301828280156113d55780601f106113aa576101008083540402835291602001916113d5565b820191906000526020600020905b8154815290600101906020018083116113b857829003601f168201915b5050509183525050600282810180546040805160206001841615610100026000190190931694909404601f810183900483028501830190915280845293810193908301828280156114675780601f1061143c57610100808354040283529160200191611467565b820191906000526020600020905b81548152906001019060200180831161144a57829003601f168201915b505050505081526020016003820154815260200160048201548152602001600582018054600181600116156101000203166002900480601f01602080910402602001604051908101604052809291908181526020018280546001816001161561010002031660029004801561151d5780601f106114f25761010080835404028352916020019161151d565b820191906000526020600020905b81548152906001019060200180831161150057829003601f168201915b5050509183525050600682015460209091019060ff16600281111561153e57fe5b600281111561154957fe5b8152600691909101546101009004600160a060020a0316602090910152825183908390811061157457fe5b602090810290910101526001016112f8565b50919050565b60608060006002805490506040519080825280602002602001820160405280156115d057816020015b6115bd614b7d565b8152602001906001900390816115b55790505b509150600090505b60025481101561158657600160006002838154811015156115f557fe5b9060005260206000200154815260200190815260200160002061014060405190810160405290816000820154815260200160018201548152602001600282018054600181600116156101000203166002900480601f0160208091040260200160405190810160405280929190818152602001828054600181600116156101000203166002900480156116c85780601f1061169d576101008083540402835291602001916116c8565b820191906000526020600020905b8154815290600101906020018083116116ab57829003601f168201915b505050918352505060038201805460408051602060026001851615610100026000190190941693909304601f810184900484028201840190925281815293820193929183018282801561175c5780601f106117315761010080835404028352916020019161175c565b820191906000526020600020905b81548152906001019060200180831161173f57829003601f168201915b505050918352505060048201805460408051602060026001851615610100026000190190941693909304601f81018490048402820184019092528181529382019392918301828280156117f05780601f106117c5576101008083540402835291602001916117f0565b820191906000526020600020905b8154815290600101906020018083116117d357829003601f168201915b505050918352505060058201805460408051602060026001851615610100026000190190941693909304601f81018490048402820184019092528181529382019392918301828280156118845780601f1061185957610100808354040283529160200191611884565b820191906000526020600020905b81548152906001019060200180831161186757829003601f168201915b505050918352505060068201805460408051602060026001851615610100026000190190941693909304601f81018490048402820184019092528181529382019392918301828280156119185780601f106118ed57610100808354040283529160200191611918565b820191906000526020600020905b8154815290600101906020018083116118fb57829003601f168201915b505050505081526020016007820180548060200260200160405190810160405280929190818152602001828054801561197057602002820191906000526020600020905b81548152602001906001019080831161195c575b50505050508152602001600882018054806020026020016040519081016040528092919081815260200182805480156119c857602002820191906000526020600020905b8154815260200190600101908083116119b4575b5050505050815260200160098201805480602002602001604051908101604052809291908181526020018280548015611a2a57602002820191906000526020600020905b8154600160a060020a03168152600190910190602001808311611a0c575b5050505050815250508282815181101515611a4157fe5b602090810290910101526001016115d8565b600080805b6004548110156115865733600090815260036020819052604082208101546004805491939185908110611a8757fe5b6000918252602080832090910154600160a060020a03168352820192909252604001902060030154148015611b045750600260036000600484815481101515611acc57fe5b6000918252602080832090910154600160a060020a0316835282019290925260400190206006015460ff166002811115611b0257fe5b145b15611b10576001909101905b600101611a58565b6000811515611b3c5760405160e560020a62461bcd0281526004016104f890615e33565b60008611611b5f5760405160e560020a62461bcd0281526004016104f890615e43565b3360009081526003602052604090205415611b8f5760405160e560020a62461bcd0281526004016104f890615d53565b611b98826129ac565b1515611bb95760405160e560020a62461bcd0281526004016104f890615de3565b611bc286613ee2565b9050611bd786868685858860013360006140d1565b505050505050565b6000611bea33611283565b1515611bf557600080fd5b5060025490565b6060600080600080606080600080611c15600a8b613856565b9750611c1f612980565b9650611c2a87612997565b9550611c3786600a61388f565b9450851580611c4857506001860388115b80611c525750848a115b15611c5c57611ef1565b611c6587614525565b60408051600a8082526101608201909252919550816020015b611c86614aea565b815260200190600190039081611c7e579050509250600091508790505b8351811015611eed57600a821015611ee057600560008583815181101515611cc757fe5b90602001906020020151815260200190815260200160002060e06040519081016040529081600082015481526020016001820154815260200160028201805480602002602001604051908101604052809291908181526020016000905b82821015611e825760008481526020908190206040805160028681029093018054600181161561010002600019011693909304601f810185900490940281016060908101835291810184815290938492849190840182828015611dc85780601f10611d9d57610100808354040283529160200191611dc8565b820191906000526020600020905b815481529060010190602001808311611dab57829003601f168201915b50505050508152602001600182018054600181600116156101000203166002900480601f016020809104026020016040519081016040528092919081815260200182805460018160011615610100020316600290048015611e6a5780601f10611e3f57610100808354040283529160200191611e6a565b820191906000526020600020905b815481529060010190602001808311611e4d57829003601f168201915b50505050508152505081526020019060010190611d24565b50505090825250600382015460ff9081161515602083015260048301546040830152600583015416151560608201526006909101546080909101528351849084908110611ecb57fe5b60209081029091010152600190910190611ee5565b611eed565b600101611ca3565b8298505b5050505050505050919050565b6000611f0933611283565b1515611f1457600080fd5b50805b60075460001901811015611f81576007805460018301908110611f3657fe5b90600052602060002001600782815481101515611f4f57fe5b906000526020600020019080546001816001161561010002031660029004611f78929190614bd1565b50600101611f17565b600780546000198101908110611f9357fe5b906000526020600020016000611fa99190614c46565b6007805490610784906000198301614c8a565b611fc4614b2c565b611fcc614b2c565b336000908152600360209081526040918290208251610100808201855282548252600180840180548751600293821615909402600019011691909104601f81018690048602830186019096528582529194929385810193919291908301828280156110ec5780601f106110c1576101008083540402835291602001916110ec565b6060600080600060606000612063600a88613856565b60025490955061207490600a61388f565b600254909450158061208b57506002546000190185115b8061209557508387115b1561209f5761255e565b60408051600a80825261016082019092526000945090816020015b6120c2614b7d565b8152602001906001900390816120ba5790505091508490505b60025481101561255a57600160006002838154811015156120f857fe5b9060005260206000200154815260200190815260200160002061014060405190810160405290816000820154815260200160018201548152602001600282018054600181600116156101000203166002900480601f0160208091040260200160405190810160405280929190818152602001828054600181600116156101000203166002900480156121cb5780601f106121a0576101008083540402835291602001916121cb565b820191906000526020600020905b8154815290600101906020018083116121ae57829003601f168201915b505050918352505060038201805460408051602060026001851615610100026000190190941693909304601f810184900484028201840190925281815293820193929183018282801561225f5780601f106122345761010080835404028352916020019161225f565b820191906000526020600020905b81548152906001019060200180831161224257829003601f168201915b505050918352505060048201805460408051602060026001851615610100026000190190941693909304601f81018490048402820184019092528181529382019392918301828280156122f35780601f106122c8576101008083540402835291602001916122f3565b820191906000526020600020905b8154815290600101906020018083116122d657829003601f168201915b505050918352505060058201805460408051602060026001851615610100026000190190941693909304601f81018490048402820184019092528181529382019392918301828280156123875780601f1061235c57610100808354040283529160200191612387565b820191906000526020600020905b81548152906001019060200180831161236a57829003601f168201915b505050918352505060068201805460408051602060026001851615610100026000190190941693909304601f810184900484028201840190925281815293820193929183018282801561241b5780601f106123f05761010080835404028352916020019161241b565b820191906000526020600020905b8154815290600101906020018083116123fe57829003601f168201915b505050505081526020016007820180548060200260200160405190810160405280929190818152602001828054801561247357602002820191906000526020600020905b81548152602001906001019080831161245f575b50505050508152602001600882018054806020026020016040519081016040528092919081815260200182805480156124cb57602002820191906000526020600020905b8154815260200190600101908083116124b7575b505050505081526020016009820180548060200260200160405190810160405280929190818152602001828054801561252d57602002820191906000526020600020905b8154600160a060020a0316815260019091019060200180831161250f575b505050505081525050828481518110151561254457fe5b60209081029091010152600192830192016120db565b8195505b5050505050919050565b60008381526005602081905260409091208054600382015460048301549290930154610784938793879260ff9283169216876129bf565b6125a8336145ba565b565b6125b333611283565b15156125be57600080fd5b61064c81614602565b6000806125d333611283565b15156125de57600080fd5b600088116126015760405160e560020a62461bcd0281526004016104f890615e43565b61260a88613ee2565b6000818152600160205260409020549091501561263c5760405160e560020a62461bcd0281526004016104f890615dc3565b61264b818989898989896138b2565b979650505050505050565b600160a060020a038181166000908152600360205260408120600601549091829182916101009091041681106126a15760405160e560020a62461bcd0281526004016104f890615d63565b6002600160a060020a03851660009081526003602052604090206006015460ff1660028111156126cd57fe5b146126ed5760405160e560020a62461bcd0281526004016104f890615e13565b600160a060020a03841660009081526003602052604090206004810154815460069092015490945090925060ff16600281111561272657fe5b905061273a82898989878a878b60016140d1565b5050505050505050565b61274d33611283565b151561275857600080fd5b600160a060020a0381166000908152600360208190526040909120015461277f9082612818565b604080518082018252600b81527f53757065722061646d696e0000000000000000000000000000000000000000006020808301918252600160a060020a038516600090815260039091529290922090516127df9260059092019190614a70565b50600160a060020a0381166000908152600360208190526040822090810191909155600601805460ff1916600217905561064c816125aa565b6000805b600084815260016020526040902060090154600019018110156129185760008481526001602052604090206009018054600160a060020a03851691908390811061286257fe5b600091825260209091200154600160a060020a0316141561288257600191505b81156129105760008481526001602081905260409091206009018054909183019081106128ab57fe5b6000918252602080832090910154868352600190915260409091206009018054600160a060020a0390921691839081106128e157fe5b9060005260206000200160006101000a815481600160a060020a030219169083600160a060020a031602179055505b60010161281c565b60008481526001602052604090206009018054600019810190811061293957fe5b60009182526020808320909101805473ffffffffffffffffffffffffffffffffffffffff191690558582526001905260409020600901805490610725906000198301614cae565b336000908152600360208190526040909120015490565b60009081526001602052604090206008015490565b6000908152600160205260408120541190565b6129c7614cd2565b6060600060606129d68961464a565b93506129e184614698565b60008c8152600560205260408120600181018e90558c815560038101805460ff19168c1515179055919450612a199160020190614ce9565b600091505b8251821015612afe57612a478383815181101515612a3857fe5b90602001906020020151614698565b9050600560008c81526020019081526020016000206002016040805190810160405280612a8b846000815181101515612a7c57fe5b9060200190602002015161476b565b8152602001612aa2846001815181101515612a7c57fe5b90528154600181018084556000938452602093849020835180519295600290940290910192612ad692849290910190614a70565b506020828101518051612aef9260018501920190614a70565b50505050816001019150612a1e565b505050600097885250600560208190526040909720600481019390935560068301559401805460ff191694151594909417909355505050565b6000918252600160208181526040842060080180549283018155845290922090910155565b612b64614cd2565b60606000806000600654111515612b905760405160e560020a62461bcd0281526004016104f890615dd3565b612b998561464a565b9350612ba484614698565b9250600190505b60065481116110265760008181526005602052604090206003015460ff161515861515148015612bdb5750808714155b1561382957600081815260056020526040812060020180549091908110612bfe57fe5b90600052602060002090600202016001016040516020018082805460018160011615610100020316600290048015612c6d5780601f10612c4b576101008083540402835291820191612c6d565b820191906000526020600020905b815481529060010190602001808311612c59575b50509150506040516020818303038152906040526040518082805190602001908083835b60208310612cb05780518252601f199092019160209182019101612c91565b6001836020036101000a038019825116818451168082178552505050505050905001915050604051809103902060001916612d03612cf6856000815181101515612a3857fe5b80516001908110612a7c57fe5b6040516020018082805190602001908083835b60208310612d355780518252601f199092019160209182019101612d16565b6001836020036101000a0380198251168184511680821785525050505050509050019150506040516020818303038152906040526040518082805190602001908083835b60208310612d985780518252601f199092019160209182019101612d79565b6001836020036101000a038019825116818451168082178552505050505050905001915050604051809103902060001916148015612faf5750600081815260056020526040902060020180546001908110612def57fe5b90600052602060002090600202016001016040516020018082805460018160011615610100020316600290048015612e5e5780601f10612e3c576101008083540402835291820191612e5e565b820191906000526020600020905b815481529060010190602001808311612e4a575b50509150506040516020818303038152906040526040518082805190602001908083835b60208310612ea15780518252601f199092019160209182019101612e82565b6001836020036101000a038019825116818451168082178552505050505050905001915050604051809103902060001916612ee7612cf6856001815181101515612a3857fe5b6040516020018082805190602001908083835b60208310612f195780518252601f199092019160209182019101612efa565b6001836020036101000a0380198251168184511680821785525050505050509050019150506040516020818303038152906040526040518082805190602001908083835b60208310612f7c5780518252601f199092019160209182019101612f5d565b6001836020036101000a038019825116818451168082178552505050505050905001915050604051809103902060001916145b801561319657506000818152600560205260409020600290810180549091908110612fd657fe5b906000526020600020906002020160010160405160200180828054600181600116156101000203166002900480156130455780601f10613023576101008083540402835291820191613045565b820191906000526020600020905b815481529060010190602001808311613031575b50509150506040516020818303038152906040526040518082805190602001908083835b602083106130885780518252601f199092019160209182019101613069565b6001836020036101000a0380198251168184511680821785525050505050509050019150506040518091039020600019166130ce612cf6856002815181101515612a3857fe5b6040516020018082805190602001908083835b602083106131005780518252601f1990920191602091820191016130e1565b6001836020036101000a0380198251168184511680821785525050505050509050019150506040516020818303038152906040526040518082805190602001908083835b602083106131635780518252601f199092019160209182019101613144565b6001836020036101000a038019825116818451168082178552505050505050905001915050604051809103902060001916145b801561337b57506000818152600560205260409020600201805460039081106131bb57fe5b9060005260206000209060020201600101604051602001808280546001816001161561010002031660029004801561322a5780601f1061320857610100808354040283529182019161322a565b820191906000526020600020905b815481529060010190602001808311613216575b50509150506040516020818303038152906040526040518082805190602001908083835b6020831061326d5780518252601f19909201916020918201910161324e565b6001836020036101000a0380198251168184511680821785525050505050509050019150506040518091039020600019166132b3612cf6856003815181101515612a3857fe5b6040516020018082805190602001908083835b602083106132e55780518252601f1990920191602091820191016132c6565b6001836020036101000a0380198251168184511680821785525050505050509050019150506040516020818303038152906040526040518082805190602001908083835b602083106133485780518252601f199092019160209182019101613329565b6001836020036101000a038019825116818451168082178552505050505050905001915050604051809103902060001916145b801561356057506000818152600560205260409020600201805460049081106133a057fe5b9060005260206000209060020201600101604051602001808280546001816001161561010002031660029004801561340f5780601f106133ed57610100808354040283529182019161340f565b820191906000526020600020905b8154815290600101906020018083116133fb575b50509150506040516020818303038152906040526040518082805190602001908083835b602083106134525780518252601f199092019160209182019101613433565b6001836020036101000a038019825116818451168082178552505050505050905001915050604051809103902060001916613498612cf6856004815181101515612a3857fe5b6040516020018082805190602001908083835b602083106134ca5780518252601f1990920191602091820191016134ab565b6001836020036101000a0380198251168184511680821785525050505050509050019150506040516020818303038152906040526040518082805190602001908083835b6020831061352d5780518252601f19909201916020918201910161350e565b6001836020036101000a038019825116818451168082178552505050505050905001915050604051809103902060001916145b8015613748575060008181526005602081905260409091206002018054909190811061358857fe5b906000526020600020906002020160010160405160200180828054600181600116156101000203166002900480156135f75780601f106135d55761010080835404028352918201916135f7565b820191906000526020600020905b8154815290600101906020018083116135e3575b50509150506040516020818303038152906040526040518082805190602001908083835b6020831061363a5780518252601f19909201916020918201910161361b565b6001836020036101000a038019825116818451168082178552505050505050905001915050604051809103902060001916613680612cf6856005815181101515612a3857fe5b6040516020018082805190602001908083835b602083106136b25780518252601f199092019160209182019101613693565b6001836020036101000a0380198251168184511680821785525050505050509050019150506040516020818303038152906040526040518082805190602001908083835b602083106137155780518252601f1990920191602091820191016136f6565b6001836020036101000a038019825116818451168082178552505050505050905001915050604051809103902060001916145b156138295785156137c05760008781526005602081905260408083208201805460ff19166001179055838352909120015460ff16151561379e5760008181526005602052604090206004015461379e9088613831565b600081815260056020819052604090912001805460ff19166001179055613829565b60008781526005602081905260408083208201805460ff19166001179055838352909120015460ff16151561380b5760008181526005602052604090206004015461380b9088613831565b600081815260056020819052604090912001805460ff191660011790555b600101612bab565b6000918252600160208181526040842060070180549283018155845290922090910155565b6000808315156138695760009150613888565b5082820282848281151561387957fe5b041461388457600080fd5b8091505b5092915050565b60008080831161389e57600080fd5b82848115156138a957fe5b04949350505050565b6138ba614b7d565b855115156138dd5760405160e560020a62461bcd0281526004016104f890615e23565b825115156139005760405160e560020a62461bcd0281526004016104f890615e03565b815115156139235760405160e560020a62461bcd0281526004016104f890615df3565b6000888152600160208181526040928390208351610140810185528154815281840154818401526002808301805487519681161561010002600019011691909104601f8101859004850286018501875280865291959294928601939091908301828280156139d25780601f106139a7576101008083540402835291602001916139d2565b820191906000526020600020905b8154815290600101906020018083116139b557829003601f168201915b505050918352505060038201805460408051602060026001851615610100026000190190941693909304601f8101849004840282018401909252818152938201939291830182828015613a665780601f10613a3b57610100808354040283529160200191613a66565b820191906000526020600020905b815481529060010190602001808311613a4957829003601f168201915b505050918352505060048201805460408051602060026001851615610100026000190190941693909304601f8101849004840282018401909252818152938201939291830182828015613afa5780601f10613acf57610100808354040283529160200191613afa565b820191906000526020600020905b815481529060010190602001808311613add57829003601f168201915b505050918352505060058201805460408051602060026001851615610100026000190190941693909304601f8101849004840282018401909252818152938201939291830182828015613b8e5780601f10613b6357610100808354040283529160200191613b8e565b820191906000526020600020905b815481529060010190602001808311613b7157829003601f168201915b505050918352505060068201805460408051602060026001851615610100026000190190941693909304601f8101849004840282018401909252818152938201939291830182828015613c225780601f10613bf757610100808354040283529160200191613c22565b820191906000526020600020905b815481529060010190602001808311613c0557829003601f168201915b5050505050815260200160078201805480602002602001604051908101604052809291908181526020018280548015613c7a57602002820191906000526020600020905b815481526020019060010190808311613c66575b5050505050815260200160088201805480602002602001604051908101604052809291908181526020018280548015613cd257602002820191906000526020600020905b815481526020019060010190808311613cbe575b5050505050815260200160098201805480602002602001604051908101604052809291908181526020018280548015613d3457602002820191906000526020600020905b8154600160a060020a03168152600190910190602001808311613d16575b50505091909252505050888152602080820189815260408084018a8152606085018a90526080850189905260a0850188905260c0850187905260008d815260018086529290208551815592519183019190915551805193945084939192613da392600285019290910190614a70565b5060608201518051613dbf916003840191602090910190614a70565b5060808201518051613ddb916004840191602090910190614a70565b5060a08201518051613df7916005840191602090910190614a70565b5060c08201518051613e13916006840191602090910190614a70565b5060e08201518051613e2f916007840191602090910190614d0a565b506101008201518051613e4c916008840191602090910190614d0a565b506101208201518051613e69916009840191602090910190614d44565b5050600280546001810182556000919091527f405787fa12a823e0f2b7631cc41b3ba8828b3321ca811111fa75cd3aa3bb5ace01989098555050505050505050565b6000600160a060020a0382161515613ec257600080fd5b50600160a060020a03166000908152602091909152604090205460ff1690565b6000808080600285061515613f745784604051602001808281526020019150506040516020818303038152906040526040518082805190602001908083835b60208310613f405780518252601f199092019160209182019101613f21565b6001836020036101000a0380198251168184511680821785525050505050509050019150506040518091039020925061405f565b84604051602001808281526020019150506040516020818303038152906040526040518082805190602001908083835b60208310613fc35780518252601f199092019160209182019101613fa4565b51815160209384036101000a600019018019909216911617905260408051929094018290038220828201528351808303820181529184019384905281519195509293508392850191508083835b6020831061402f5780518252601f199092019160209182019101614010565b6001836020036101000a038019825116818451168082178552505050505050905001915050604051809103902092505b602081101561408c5782816020811061407457fe5b60f860020a91901a810204919091019060010161405f565b82602060028401066020811061409e57fe5b60f860020a91901a8102048360208406602081106140b857fe5b1a60f860020a0260f860020a9004029350505050919050565b6140d9614b2c565b6000841015806140ea575060028411155b151561410b5760405160e560020a62461bcd0281526004016104f890615d93565b8451151561412e5760405160e560020a62461bcd0281526004016104f890615d33565b600160a060020a0383166000908152600360209081526040918290208251610100808201855282548252600180840180548751600293821615909402600019011691909104601f81018690048602830186019096528582529194929385810193919291908301828280156141e35780601f106141b8576101008083540402835291602001916141e3565b820191906000526020600020905b8154815290600101906020018083116141c657829003601f168201915b5050509183525050600282810180546040805160206001841615610100026000190190931694909404601f810183900483028501830190915280845293810193908301828280156142755780601f1061424a57610100808354040283529160200191614275565b820191906000526020600020905b81548152906001019060200180831161425857829003601f168201915b505050505081526020016003820154815260200160048201548152602001600582018054600181600116156101000203166002900480601f01602080910402602001604051908101604052809291908181526020018280546001816001161561010002031660029004801561432b5780601f106143005761010080835404028352916020019161432b565b820191906000526020600020905b81548152906001019060200180831161430e57829003601f168201915b5050509183525050600682015460209091019060ff16600281111561434c57fe5b600281111561435757fe5b8152600691909101546101009004600160a060020a03166020918201528b825281018a905260408101899052606081018890526080810187905260a0810186905290508360028111156143a657fe5b8160c0019060028111156143b657fe5b908160028111156143c357fe5b905250600160a060020a03831660e082018190526000908152600360209081526040909120825181558183015180518493614405926001850192910190614a70565b5060408201518051614421916002840191602090910190614a70565b50606082015160038201556080820151600482015560a08201518051614451916005840191602090910190614a70565b5060c082015160068201805460ff1916600183600281111561446f57fe5b021790555060e0919091015160069091018054600160a060020a039092166101000274ffffffffffffffffffffffffffffffffffffffff001990921691909117905581151561451957600480546001810182556000919091527f8a35acfbc15ff81a39ae7d344fd709f28e8600b4aa8c65c6b64bfe7fe36bd19b01805473ffffffffffffffffffffffffffffffffffffffff1916600160a060020a038516179055614519876147dd565b50505050505050505050565b600081815260016020526040812054606091106145575760405160e560020a62461bcd0281526004016104f890615da3565b600082815260016020908152604091829020600801805483518184028101840190945280845290918301828280156145ae57602002820191906000526020600020905b81548152602001906001019080831161459a575b50505050509050919050565b6145cb60008263ffffffff61481c16565b604051600160a060020a038216907f3525e22824a8a7df2c9a6029941c824cf95b6447f1e13d5128fd3826d35afe8b90600090a250565b61461360008263ffffffff61486816565b604051600160a060020a038216907f47d1c22a25bb3a5d4e481b9b1e6944c2eade3181a0a20b495ed61d35b5323f2490600090a250565b614652614cd2565b60008251600014156146795760408051808201909152600080825260208201529150611586565b5050604080518082019091528151815260209182019181019190915290565b60606000806000806146a9866148b6565b15156146b457600080fd5b6146bd866148e5565b9350836040519080825280602002602001820160405280156146f957816020015b6146e6614cd2565b8152602001906001900390816146de5790505b5094506147098660200151614935565b8660200151019250600090505b838110156147625761472783614998565b9150604080519081016040528083815260200184815250858281518110151561474c57fe5b6020908102909101015291810191600101614716565b50505050919050565b6060600080606060006147818660200151614935565b9350838660000151039250826040519080825280601f01601f1916602001820160405280156147ba578160200160208202803883390190505b5091508160200190506147d4848760200151018285614a29565b50949350505050565b6000908152600160208181526040832060090180549283018155835290912001805473ffffffffffffffffffffffffffffffffffffffff191633179055565b600160a060020a038116151561483157600080fd5b61483b8282613eab565b151561484657600080fd5b600160a060020a0316600090815260209190915260409020805460ff19169055565b600160a060020a038116151561487d57600080fd5b6148878282613eab565b1561489157600080fd5b600160a060020a0316600090815260209190915260409020805460ff19166001179055565b6020810151805160009190821a9060c060ff831610156148d957600092506148de565b600192505b5050919050565b600080600080600092506148fc8560200151614935565b6020860151865191810193500190505b8082101561492c5761491d82614998565b6001909301929091019061490c565b50909392505050565b8051600090811a608081101561494e5760009150611586565b60b8811080614969575060c08110801590614969575060f881105b156149775760019150611586565b60c081101561498c5760b51981019150611586565b60f51981019150611586565b8051600090811a60808110156149b15760019150611586565b60b88110156149c657607e1981019150611586565b60c08110156149f35760b78103600184019350806020036101000a84510460018201810193505050611586565b60f8811015614a085760be1981019150611586565b60019290920151602083900360f7016101000a900490910160f51901919050565b60005b60208210614a4e578351835260209384019390920191601f1990910190614a2c565b50915181516020939093036101000a6000190180199091169216919091179052565b828054600181600116156101000203166002900490600052602060002090601f016020900481019282601f10614ab157805160ff1916838001178555614ade565b82800160010185558215614ade579182015b82811115614ade578251825591602001919060010190614ac3565b50610668929150614db2565b60e06040519081016040528060008152602001600081526020016060815260200160001515815260200160008152602001600015158152602001600081525090565b6101006040519081016040528060008152602001606081526020016060815260200160008152602001600081526020016060815260200160006002811115614b7057fe5b8152600060209091015290565b61014060405190810160405280600081526020016000815260200160608152602001606081526020016060815260200160608152602001606081526020016060815260200160608152602001606081525090565b828054600181600116156101000203166002900490600052602060002090601f016020900481019282601f10614c0a5780548555614ade565b82800160010185558215614ade57600052602060002091601f016020900482015b82811115614ade578254825591600101919060010190614c2b565b50805460018160011615610100020316600290046000825580601f10614c6c575061064c565b601f01602090049060005260206000209081019061064c9190614db2565b81548183558181111561078457600083815260209020610784918101908301614dcc565b81548183558181111561078457600083815260209020610784918101908301614db2565b604080518082019091526000808252602082015290565b508054600082556002029060005260206000209081019061064c9190614def565b828054828255906000526020600020908101928215614ade5791602002820182811115614ade578251825591602001919060010190614ac3565b828054828255906000526020600020908101928215614da6579160200282015b82811115614da6578251825473ffffffffffffffffffffffffffffffffffffffff1916600160a060020a03909116178255602090920191600190910190614d64565b50610668929150614e20565b610f9d91905b808211156106685760008155600101614db8565b610f9d91905b80821115610668576000614de68282614c46565b50600101614dd2565b610f9d91905b80821115610668576000614e098282614c46565b614e17600183016000614c46565b50600201614df5565b610f9d91905b8082111561066857805473ffffffffffffffffffffffffffffffffffffffff19168155600101614e26565b6000614e5d8235615edc565b9392505050565b6000614e5d8235615ee8565b6000601f82018313614e8157600080fd5b8135614e94614e8f82615eaa565b615e83565b91508082526020830160208301858383011115614eb057600080fd5b614ebb838284615f04565b50505092915050565b6000614e5d8235610f9d565b600060208284031215614ee257600080fd5b6000614eee8484614e51565b949350505050565b600060208284031215614f0857600080fd5b813567ffffffffffffffff811115614f1f57600080fd5b614eee84828501614e70565b600080600080600060a08688031215614f4357600080fd5b853567ffffffffffffffff811115614f5a57600080fd5b614f6688828901614e70565b955050602086013567ffffffffffffffff811115614f8357600080fd5b614f8f88828901614e70565b9450506040614fa088828901614ec4565b935050606086013567ffffffffffffffff811115614fbd57600080fd5b614fc988828901614e70565b9250506080614fda88828901614e51565b9150509295509295909350565b600060208284031215614ff957600080fd5b6000614eee8484614ec4565b6000806000806080858703121561501b57600080fd5b60006150278787614ec4565b945050602085013567ffffffffffffffff81111561504457600080fd5b61505087828801614e70565b935050604061506187828801614e64565b925050606061507287828801614ec4565b91505092959194509250565b60008060006060848603121561509357600080fd5b600061509f8686614ec4565b935050602084013567ffffffffffffffff8111156150bc57600080fd5b6150c886828701614e70565b92505060406150d986828701614ec4565b9150509250925092565b60008060008060008060c087890312156150fc57600080fd5b60006151088989614ec4565b965050602087013567ffffffffffffffff81111561512557600080fd5b61513189828a01614e70565b955050604087013567ffffffffffffffff81111561514e57600080fd5b61515a89828a01614e70565b945050606087013567ffffffffffffffff81111561517757600080fd5b61518389828a01614e70565b935050608087013567ffffffffffffffff8111156151a057600080fd5b6151ac89828a01614e70565b92505060a087013567ffffffffffffffff8111156151c957600080fd5b6151d589828a01614e70565b9150509295509295509295565b600080600080600060a086880312156151fa57600080fd5b60006152068888614ec4565b955050602086013567ffffffffffffffff81111561522357600080fd5b61522f88828901614e70565b945050604086013567ffffffffffffffff81111561524c57600080fd5b61525888828901614e70565b935050606086013567ffffffffffffffff81111561527557600080fd5b61528188828901614e70565b9250506080614fda88828901614ec4565b600080600080600080600060e0888a0312156152ad57600080fd5b60006152b98a8a614ec4565b97505060206152ca8a828b01614ec4565b965050604088013567ffffffffffffffff8111156152e757600080fd5b6152f38a828b01614e70565b955050606088013567ffffffffffffffff81111561531057600080fd5b61531c8a828b01614e70565b945050608088013567ffffffffffffffff81111561533957600080fd5b6153458a828b01614e70565b93505060a088013567ffffffffffffffff81111561536257600080fd5b61536e8a828b01614e70565b92505060c088013567ffffffffffffffff81111561538b57600080fd5b6153978a828b01614e70565b91505092959891949750929550565b6153af81615edc565b82525050565b60006153c082615ed8565b8084526020840193506153d283615ed2565b60005b82811015615402576153e88683516153a6565b6153f182615ed2565b6020969096019591506001016153d5565b5093949350505050565b600061541782615ed8565b8084526020840193508360208202850161543085615ed2565b60005b8481101561546757838303885261544b83835161563e565b925061545682615ed2565b602098909801979150600101615433565b50909695505050505050565b600061547e82615ed8565b8084526020840193508360208202850161549785615ed2565b60005b848110156154675783830388526154b2838351615a4f565b92506154bd82615ed2565b60209890980197915060010161549a565b60006154d982615ed8565b808452602084019350836020820285016154f285615ed2565b60005b8481101561546757838303885261550d838351615ae4565b925061551882615ed2565b6020989098019791506001016154f5565b600061553482615ed8565b8084526020840193508360208202850161554d85615ed2565b60005b84811015615467578383038852615568838351615be7565b925061557382615ed2565b602098909801979150600101615550565b600061558f82615ed8565b808452602084019350836020820285016155a885615ed2565b60005b848110156154675783830388526155c3838351615c19565b92506155ce82615ed2565b6020989098019791506001016155ab565b60006155ea82615ed8565b8084526020840193506155fc83615ed2565b60005b8281101561540257615612868351615cc8565b61561b82615ed2565b6020969096019591506001016155ff565b6153af81615ee8565b6153af81615ef9565b600061564982615ed8565b80845261565d816020860160208601615f10565b61566681615f40565b9093016020019392505050565b601a81527f4372656174696f6e204461746520697320696e6d757461626c65000000000000602082015260400190565b601181527f726f6c65206973206d616e6461746f7279000000000000000000000000000000602082015260400190565b602281527f4f6e6c792070656e64696e672075736572732063616e2062652061636365707460208201527f6564000000000000000000000000000000000000000000000000000000000000604082015260600190565b601381527f5573657220616c72656164792065786973747300000000000000000000000000602082015260400190565b601481527f546869732075736572206e6f7420657869737473000000000000000000000000602082015260400190565b601b81527f596f752063616e6e6f7420616363657074207468697320757365720000000000602082015260400190565b602281527f4f6e6c792070656e64696e672075736572732063616e2062652072656a65637460208201527f6564000000000000000000000000000000000000000000000000000000000000604082015260600190565b601381527f737461747573206973206e6f742076616c696400000000000000000000000000602082015260400190565b601181527f6d656d626572206e6f7420657869737473000000000000000000000000000000602082015260400190565b601481527f4d656d62657220646f206e6f7420657869737473000000000000000000000000602082015260400190565b601581527f4d656d62657220616c7265616479206578697374730000000000000000000000602082015260400190565b601f81527f5468657265206973206e6f20636c61696d20696e207468652073797374656d00602082015260400190565b601181527f4d656d626572206e6f7420657869737473000000000000000000000000000000602082015260400190565b601281527f5468656d65206973206d616e6461746f72790000000000000000000000000000602082015260400190565b601081527f434d4f206973206d616e6461746f727900000000000000000000000000000000602082015260400190565b601481527f596f7520617265206e6f74206163636570746564000000000000000000000000602082015260400190565b601181527f4e616d65206973206d616e6461746f7279000000000000000000000000000000602082015260400190565b601181527f4e6f2076616c6964206d656d6265724964000000000000000000000000000000602082015260400190565b601981527f4372656174696f6e44617465206973206d616e6461746f727900000000000000602082015260400190565b805160009060e0840190615a638582615cc8565b506020830151615a766020860182615cc8565b5060408301518482036040860152615a8e8282615529565b9150506060830151615aa3606086018261562c565b506080830151615ab66080860182615cc8565b5060a0830151615ac960a086018261562c565b5060c0830151615adc60c0860182615cc8565b509392505050565b8051600090610140840190615af98582615cc8565b506020830151615b0c6020860182615cc8565b5060408301518482036040860152615b24828261563e565b91505060608301518482036060860152615b3e828261563e565b91505060808301518482036080860152615b58828261563e565b91505060a083015184820360a0860152615b72828261563e565b91505060c083015184820360c0860152615b8c828261563e565b91505060e083015184820360e0860152615ba682826155df565b915050610100830151848203610100860152615bc282826155df565b915050610120830151848203610120860152615bde82826153b5565b95945050505050565b8051604080845260009190840190615bff828261563e565b91505060208301518482036020860152615bde828261563e565b8051600090610100840190615c2e8582615cc8565b5060208301518482036020860152615c46828261563e565b91505060408301518482036040860152615c60828261563e565b9150506060830151615c756060860182615cc8565b506080830151615c886080860182615cc8565b5060a083015184820360a0860152615ca0828261563e565b91505060c0830151615cb560c0860182615635565b5060e0830151615adc60e08601826153a6565b6153af81610f9d565b60208082528101614e5d818461540c565b60208082528101614e5d8184615473565b60208082528101614e5d81846154ce565b60208082528101614e5d8184615584565b60208101611295828461562c565b6020808252810161129581615673565b60208082528101611295816156a3565b60208082528101611295816156d3565b6020808252810161129581615729565b6020808252810161129581615759565b6020808252810161129581615789565b60208082528101611295816157b9565b602080825281016112958161580f565b602080825281016112958161583f565b602080825281016112958161586f565b602080825281016112958161589f565b60208082528101611295816158cf565b60208082528101611295816158ff565b602080825281016112958161592f565b602080825281016112958161595f565b602080825281016112958161598f565b60208082528101611295816159bf565b60208082528101611295816159ef565b6020808252810161129581615a1f565b60208082528101614e5d8184615a4f565b60208082528101614e5d8184615c19565b602081016112958284615cc8565b60405181810167ffffffffffffffff81118282101715615ea257600080fd5b604052919050565b600067ffffffffffffffff821115615ec157600080fd5b506020601f91909101601f19160190565b60200190565b5190565b600160a060020a031690565b151590565b60006003821061066857fe5b600061129582615eed565b82818337506000910152565b60005b83811015615f2b578181015183820152602001615f13565b83811115615f3a576000848401525b50505050565b601f01601f1916905600a265627a7a723058204657804ae927e004d5739f548fdbf92f0cc692a1480dc4c8c114b1b801edb79a6c6578706572696d656e74616cf50037",
  "source": "pragma solidity ^0.4.24;\npragma experimental ABIEncoderV2;\n\nimport \"./Claims.sol\";\n\ncontract Registry is Claims {\n  \n  string[] private cmos_;\n\n  function addCMO(string memory _cmo) onlySigner public {\n    cmos_.push(_cmo);\n  }\n\n  function deleteCMO(uint _index) onlySigner public {\n    for (uint i = _index; i < cmos_.length-1;i++){\n      cmos_[i] = cmos_[i+1];\n    }\n    delete cmos_[cmos_.length-1];\n    cmos_.length--;\n  }\n\n  function getCMOs() view public returns( string[] memory ) {\n    return cmos_;\n  }\n\n}",
  "sourcePath": "/home/komodo/newUI/bloomen-decentralized-rights-management-v2/truffle/contracts/registry/Registry.sol",
  "compiler": {
    "name": "solc",
    "version": "0.4.24+commit.e67f0147.Emscripten.clang"
  },
  "schemaVersion": "2.0.1",
  "updatedAt": "2019-11-11T12:34:59.481Z"
}