{
  "contractName": "Users",
  "abi": [
    {
      "constant": false,
      "inputs": [
        {
          "name": "_creationDate",
          "type": "uint256"
        },
        {
          "name": "_name",
          "type": "string"
        },
        {
          "name": "_logo",
          "type": "string"
        },
        {
          "name": "_country",
          "type": "string"
        },
        {
          "name": "_cmo",
          "type": "string"
        },
        {
          "name": "_theme",
          "type": "string"
        },
        {
          "name": "_group",
          "type": "string"
        }
      ],
      "name": "addMember",
      "outputs": [
        {
          "name": "",
          "type": "uint256"
        }
      ],
      "payable": false,
      "stateMutability": "nonpayable",
      "type": "function"
    },
    {
      "constant": false,
      "inputs": [
        {
          "name": "_cmo",
          "type": "string"
        }
      ],
      "name": "addCMO",
      "outputs": [],
      "payable": false,
      "stateMutability": "nonpayable",
      "type": "function"
    },
    {
      "constant": true,
      "inputs": [
        {
          "name": "_memberId",
          "type": "uint256"
        }
      ],
      "name": "_getClaimsIdByMember",
      "outputs": [
        {
          "name": "",
          "type": "uint256[]"
        }
      ],
      "payable": false,
      "stateMutability": "view",
      "type": "function"
    },
    {
      "constant": true,
      "inputs": [],
      "name": "getCMOs",
      "outputs": [
        {
          "name": "",
          "type": "string[]"
        }
      ],
      "payable": false,
      "stateMutability": "view",
      "type": "function"
    },
    {
      "constant": false,
      "inputs": [
        {
          "name": "_memberId",
          "type": "uint256"
        },
        {
          "name": "_claimId",
          "type": "uint256"
        }
      ],
      "name": "_addClaimFromInbox",
      "outputs": [],
      "payable": false,
      "stateMutability": "nonpayable",
      "type": "function"
    },
    {
      "constant": true,
      "inputs": [
        {
          "name": "account",
          "type": "address"
        }
      ],
      "name": "isSigner",
      "outputs": [
        {
          "name": "",
          "type": "bool"
        }
      ],
      "payable": false,
      "stateMutability": "view",
      "type": "function"
    },
    {
      "constant": false,
      "inputs": [
        {
          "name": "_memberId",
          "type": "uint256"
        },
        {
          "name": "_claimId",
          "type": "uint256"
        }
      ],
      "name": "_removeClaimFromInbox",
      "outputs": [],
      "payable": false,
      "stateMutability": "nonpayable",
      "type": "function"
    },
    {
      "constant": false,
      "inputs": [
        {
          "name": "_memberId",
          "type": "uint256"
        },
        {
          "name": "_creationDate",
          "type": "uint256"
        },
        {
          "name": "_name",
          "type": "string"
        },
        {
          "name": "_logo",
          "type": "string"
        },
        {
          "name": "_country",
          "type": "string"
        },
        {
          "name": "_cmo",
          "type": "string"
        },
        {
          "name": "_theme",
          "type": "string"
        },
        {
          "name": "_group",
          "type": "string"
        }
      ],
      "name": "updateMember",
      "outputs": [],
      "payable": false,
      "stateMutability": "nonpayable",
      "type": "function"
    },
    {
      "constant": true,
      "inputs": [],
      "name": "getMembers",
      "outputs": [
        {
          "components": [
            {
              "name": "memberId",
              "type": "uint256"
            },
            {
              "name": "creationDate",
              "type": "uint256"
            },
            {
              "name": "name",
              "type": "string"
            },
            {
              "name": "logo",
              "type": "string"
            },
            {
              "name": "country",
              "type": "string"
            },
            {
              "name": "cmo",
              "type": "string"
            },
            {
              "name": "theme",
              "type": "string"
            },
            {
              "name": "claimInbox",
              "type": "uint256[]"
            },
            {
              "name": "claims",
              "type": "uint256[]"
            },
            {
              "name": "userRequests",
              "type": "address[]"
            },
            {
              "name": "group",
              "type": "string"
            }
          ],
          "name": "",
          "type": "tuple[]"
        }
      ],
      "payable": false,
      "stateMutability": "view",
      "type": "function"
    },
    {
      "constant": false,
      "inputs": [
        {
          "name": "_memberId",
          "type": "uint256"
        },
        {
          "name": "_claimId",
          "type": "uint256"
        }
      ],
      "name": "_removeClaimIdFromMember",
      "outputs": [],
      "payable": false,
      "stateMutability": "nonpayable",
      "type": "function"
    },
    {
      "constant": true,
      "inputs": [],
      "name": "getCount",
      "outputs": [
        {
          "name": "",
          "type": "uint256"
        }
      ],
      "payable": false,
      "stateMutability": "view",
      "type": "function"
    },
    {
      "constant": true,
      "inputs": [
        {
          "name": "_memberId",
          "type": "uint256"
        }
      ],
      "name": "_getClaimsCountByMember",
      "outputs": [
        {
          "name": "",
          "type": "uint256"
        }
      ],
      "payable": false,
      "stateMutability": "view",
      "type": "function"
    },
    {
      "constant": false,
      "inputs": [
        {
          "name": "_index",
          "type": "uint256"
        }
      ],
      "name": "deleteCMO",
      "outputs": [],
      "payable": false,
      "stateMutability": "nonpayable",
      "type": "function"
    },
    {
      "constant": true,
      "inputs": [
        {
          "name": "_page",
          "type": "uint256"
        }
      ],
      "name": "getMembers",
      "outputs": [
        {
          "components": [
            {
              "name": "memberId",
              "type": "uint256"
            },
            {
              "name": "creationDate",
              "type": "uint256"
            },
            {
              "name": "name",
              "type": "string"
            },
            {
              "name": "logo",
              "type": "string"
            },
            {
              "name": "country",
              "type": "string"
            },
            {
              "name": "cmo",
              "type": "string"
            },
            {
              "name": "theme",
              "type": "string"
            },
            {
              "name": "claimInbox",
              "type": "uint256[]"
            },
            {
              "name": "claims",
              "type": "uint256[]"
            },
            {
              "name": "userRequests",
              "type": "address[]"
            },
            {
              "name": "group",
              "type": "string"
            }
          ],
          "name": "",
          "type": "tuple[]"
        }
      ],
      "payable": false,
      "stateMutability": "view",
      "type": "function"
    },
    {
      "constant": true,
      "inputs": [
        {
          "name": "",
          "type": "address"
        }
      ],
      "name": "users_",
      "outputs": [
        {
          "name": "creationDate",
          "type": "uint256"
        },
        {
          "name": "firstName",
          "type": "string"
        },
        {
          "name": "lastName",
          "type": "string"
        },
        {
          "name": "memberId",
          "type": "uint256"
        },
        {
          "name": "requestId",
          "type": "uint256"
        },
        {
          "name": "role",
          "type": "string"
        },
        {
          "name": "status",
          "type": "uint8"
        },
        {
          "name": "owner",
          "type": "address"
        }
      ],
      "payable": false,
      "stateMutability": "view",
      "type": "function"
    },
    {
      "constant": false,
      "inputs": [
        {
          "name": "_memberId",
          "type": "uint256"
        },
        {
          "name": "_claimId",
          "type": "uint256"
        }
      ],
      "name": "_addClaimIdToMemberOwner",
      "outputs": [],
      "payable": false,
      "stateMutability": "nonpayable",
      "type": "function"
    },
    {
      "constant": false,
      "inputs": [],
      "name": "renounceSigner",
      "outputs": [],
      "payable": false,
      "stateMutability": "nonpayable",
      "type": "function"
    },
    {
      "constant": false,
      "inputs": [
        {
          "name": "account",
          "type": "address"
        }
      ],
      "name": "addSigner",
      "outputs": [],
      "payable": false,
      "stateMutability": "nonpayable",
      "type": "function"
    },
    {
      "constant": true,
      "inputs": [
        {
          "name": "_memberId",
          "type": "uint256"
        }
      ],
      "name": "_memberExists",
      "outputs": [
        {
          "name": "",
          "type": "bool"
        }
      ],
      "payable": false,
      "stateMutability": "view",
      "type": "function"
    },
    {
      "anonymous": false,
      "inputs": [
        {
          "indexed": true,
          "name": "account",
          "type": "address"
        }
      ],
      "name": "SignerAdded",
      "type": "event"
    },
    {
      "anonymous": false,
      "inputs": [
        {
          "indexed": true,
          "name": "account",
          "type": "address"
        }
      ],
      "name": "SignerRemoved",
      "type": "event"
    },
    {
      "constant": false,
      "inputs": [
        {
          "name": "_creationDate",
          "type": "uint256"
        },
        {
          "name": "_firstName",
          "type": "string"
        },
        {
          "name": "_lastName",
          "type": "string"
        },
        {
          "name": "_role",
          "type": "string"
        },
        {
          "name": "_memberId",
          "type": "uint256"
        }
      ],
      "name": "registerUserRequest",
      "outputs": [],
      "payable": false,
      "stateMutability": "nonpayable",
      "type": "function"
    },
    {
      "constant": false,
      "inputs": [
        {
          "name": "_firstName",
          "type": "string"
        },
        {
          "name": "_lastName",
          "type": "string"
        },
        {
          "name": "_memberId",
          "type": "uint256"
        },
        {
          "name": "_role",
          "type": "string"
        },
        {
          "name": "owner",
          "type": "address"
        }
      ],
      "name": "updateUser",
      "outputs": [],
      "payable": false,
      "stateMutability": "nonpayable",
      "type": "function"
    },
    {
      "constant": false,
      "inputs": [
        {
          "name": "_userToReject",
          "type": "address"
        }
      ],
      "name": "rejectUser",
      "outputs": [],
      "payable": false,
      "stateMutability": "nonpayable",
      "type": "function"
    },
    {
      "constant": false,
      "inputs": [
        {
          "name": "_userToAccept",
          "type": "address"
        }
      ],
      "name": "acceptUser",
      "outputs": [],
      "payable": false,
      "stateMutability": "nonpayable",
      "type": "function"
    },
    {
      "constant": true,
      "inputs": [],
      "name": "getcountUsers",
      "outputs": [
        {
          "name": "",
          "type": "uint256"
        }
      ],
      "payable": false,
      "stateMutability": "view",
      "type": "function"
    },
    {
      "constant": false,
      "inputs": [
        {
          "name": "account",
          "type": "address"
        }
      ],
      "name": "whitelistAdmin",
      "outputs": [],
      "payable": false,
      "stateMutability": "nonpayable",
      "type": "function"
    },
    {
      "constant": true,
      "inputs": [
        {
          "name": "_page",
          "type": "uint256"
        }
      ],
      "name": "getUsers",
      "outputs": [
        {
          "components": [
            {
              "name": "creationDate",
              "type": "uint256"
            },
            {
              "name": "firstName",
              "type": "string"
            },
            {
              "name": "lastName",
              "type": "string"
            },
            {
              "name": "memberId",
              "type": "uint256"
            },
            {
              "name": "requestId",
              "type": "uint256"
            },
            {
              "name": "role",
              "type": "string"
            },
            {
              "name": "status",
              "type": "uint8"
            },
            {
              "name": "owner",
              "type": "address"
            }
          ],
          "name": "",
          "type": "tuple[]"
        }
      ],
      "payable": false,
      "stateMutability": "view",
      "type": "function"
    },
    {
      "constant": true,
      "inputs": [
        {
          "name": "userAddress",
          "type": "address"
        }
      ],
      "name": "getUserByAddress",
      "outputs": [
        {
          "components": [
            {
              "name": "creationDate",
              "type": "uint256"
            },
            {
              "name": "firstName",
              "type": "string"
            },
            {
              "name": "lastName",
              "type": "string"
            },
            {
              "name": "memberId",
              "type": "uint256"
            },
            {
              "name": "requestId",
              "type": "uint256"
            },
            {
              "name": "role",
              "type": "string"
            },
            {
              "name": "status",
              "type": "uint8"
            },
            {
              "name": "owner",
              "type": "address"
            }
          ],
          "name": "",
          "type": "tuple"
        }
      ],
      "payable": false,
      "stateMutability": "view",
      "type": "function"
    },
    {
      "constant": true,
      "inputs": [],
      "name": "getUsersOwner",
      "outputs": [
        {
          "components": [
            {
              "name": "creationDate",
              "type": "uint256"
            },
            {
              "name": "firstName",
              "type": "string"
            },
            {
              "name": "lastName",
              "type": "string"
            },
            {
              "name": "memberId",
              "type": "uint256"
            },
            {
              "name": "requestId",
              "type": "uint256"
            },
            {
              "name": "role",
              "type": "string"
            },
            {
              "name": "status",
              "type": "uint8"
            },
            {
              "name": "owner",
              "type": "address"
            }
          ],
          "name": "",
          "type": "tuple[]"
        }
      ],
      "payable": false,
      "stateMutability": "view",
      "type": "function"
    },
    {
      "constant": true,
      "inputs": [],
      "name": "getMe",
      "outputs": [
        {
          "components": [
            {
              "name": "creationDate",
              "type": "uint256"
            },
            {
              "name": "firstName",
              "type": "string"
            },
            {
              "name": "lastName",
              "type": "string"
            },
            {
              "name": "memberId",
              "type": "uint256"
            },
            {
              "name": "requestId",
              "type": "uint256"
            },
            {
              "name": "role",
              "type": "string"
            },
            {
              "name": "status",
              "type": "uint8"
            },
            {
              "name": "owner",
              "type": "address"
            }
          ],
          "name": "",
          "type": "tuple"
        }
      ],
      "payable": false,
      "stateMutability": "view",
      "type": "function"
    },
    {
      "constant": true,
      "inputs": [
        {
          "name": "addr",
          "type": "address"
        }
      ],
      "name": "_memberIdFromCurrentAddress",
      "outputs": [
        {
          "name": "",
          "type": "uint256"
        }
      ],
      "payable": false,
      "stateMutability": "view",
      "type": "function"
    }
  ],
  "bytecode": "0x608060405262000018336401000000006200001e810204565b62000103565b6200003960008264010000000062003b506200007082021704565b604051600160a060020a038216907f47d1c22a25bb3a5d4e481b9b1e6944c2eade3181a0a20b495ed61d35b5323f2490600090a250565b600160a060020a03811615156200008657600080fd5b6200009b8282640100000000620000cb810204565b15620000a657600080fd5b600160a060020a0316600090815260209190915260409020805460ff19166001179055565b6000600160a060020a0382161515620000e357600080fd5b50600160a060020a03166000908152602091909152604090205460ff1690565b614ea280620001136000396000f30060806040526004361061017f5763ffffffff7c010000000000000000000000000000000000000000000000000000000060003504166308bdc24d81146101845780630feb866c146101a65780633a59ccf1146101dc5780634dc92885146101fc5780635d73ab9a1461021c5780636262dff614610249578063656d561c1461027657806369c212f61461029857806374853239146102c55780637df73e27146102e55780638b92892b146103125780638be5681314610332578063932191be146103525780639eab525314610367578063a29d441f14610389578063a4fdc594146103a9578063a7ed1fe4146103be578063a87d942c146103de578063affccd84146103f3578063bf3d007e14610413578063c11e1ff314610433578063c477ecab14610448578063d2105a0014610468578063e2c11f9e1461049c578063e5c8b03d146104bc578063eb12d61e146104d1578063eff34e59146104f1578063f838073314610511578063fcfbde5b14610531578063ff240fce14610551575b600080fd5b34801561019057600080fd5b506101a461019f366004613f4e565b610571565b005b3480156101b257600080fd5b506101c66101c1366004614083565b610711565b6040516101d39190614d0b565b60405180910390f35b3480156101e857600080fd5b506101a46101f7366004613f74565b6107c7565b34801561020857600080fd5b506101a4610217366004613f4e565b610823565b34801561022857600080fd5b5061023c610237366004614065565b61098c565b6040516101d39190614bba565b34801561025557600080fd5b50610269610264366004614065565b610d68565b6040516101d39190614bcb565b34801561028257600080fd5b5061028b610dfd565b6040516101d39190614b98565b3480156102a457600080fd5b506102b86102b3366004613f4e565b610ed6565b6040516101d39190614cfa565b3480156102d157600080fd5b506101a46102e036600461425f565b61112a565b3480156102f157600080fd5b50610305610300366004613f4e565b611150565b6040516101d39190614bdc565b34801561031e57600080fd5b506101a461032d36600461425f565b611168565b34801561033e57600080fd5b506101a461034d366004614299565b61127f565b34801561035e57600080fd5b5061023c611371565b34801561037357600080fd5b5061037c611662565b6040516101d39190614ba9565b34801561039557600080fd5b506101a46103a436600461425f565b611bbd565b3480156103b557600080fd5b506101c6611c92565b3480156103ca57600080fd5b506101a46103d93660046141af565b611d58565b3480156103ea57600080fd5b506101c6611e1f565b3480156103ff57600080fd5b506101c661040e366004614065565b611e3c565b34801561041f57600080fd5b506101a461042e366004614065565b611e51565b34801561043f57600080fd5b506102b8611f0e565b34801561045457600080fd5b5061037c610463366004614065565b612165565b34801561047457600080fd5b50610488610483366004613f4e565b612714565b6040516101d3989796959493929190614d19565b3480156104a857600080fd5b506101a46104b736600461425f565b612911565b3480156104c857600080fd5b506101a4612937565b3480156104dd57600080fd5b506101a46104ec366004613f4e565b612942565b3480156104fd57600080fd5b506101c661050c366004613f4e565b61295f565b34801561051d57600080fd5b5061030561052c366004614065565b61297d565b34801561053d57600080fd5b506101a461054c366004613fa9565b612990565b34801561055d57600080fd5b506101a461056c366004613f4e565b612a80565b600160a060020a038181166000908152600460205260408120600601546101009004909116116105bf5760405160e560020a62461bcd0281526004016105b690614c2a565b60405180910390fd5b600160a060020a038116600090815260046020526040808220600390810154338452919092209091015414806105f957506105f933611150565b151561061a5760405160e560020a62461bcd0281526004016105b690614c3a565b60023360009081526004602052604090206006015460ff16600281111561063d57fe5b148061064d575061064d33611150565b151561066e5760405160e560020a62461bcd0281526004016105b690614cba565b6001600160a060020a03821660009081526004602052604090206006015460ff16600281111561069a57fe5b146106ba5760405160e560020a62461bcd0281526004016105b690614c0a565b600160a060020a038116600090815260046020526040902060060180546002919060ff19166001835b0217905550600160a060020a03811660009081526004602052604090206003015461070e9082612b52565b50565b60008061071d33611150565b151561072857600080fd5b6000891161074b5760405160e560020a62461bcd0281526004016105b690614cea565b61075489612cb7565b600081815260026020526040902054909150156107865760405160e560020a62461bcd0281526004016105b690614c7a565b610795818a8a8a8a8a8a612ea6565b600081815260026020908152604090912084516107ba92600a90920191860190613b9e565b5098975050505050505050565b6107d033611150565b15156107db57600080fd5b60018054808201808355600092909252825161081e917fb10e2d527612073b26eecdfd717e6a320cf44b4afac2b0732d9fcbe2b7fa0cf601906020850190613b9e565b505050565b600160a060020a038181166000908152600460205260408120600601546101009004909116116108685760405160e560020a62461bcd0281526004016105b690614c2a565b600160a060020a038116600090815260046020526040808220600390810154338452919092209091015414806108a257506108a233611150565b15156108c35760405160e560020a62461bcd0281526004016105b690614c3a565b60023360009081526004602052604090206006015460ff1660028111156108e657fe5b14806108f657506108f633611150565b15156109175760405160e560020a62461bcd0281526004016105b690614cba565b6001600160a060020a03821660009081526004602052604090206006015460ff16600281111561094357fe5b146109635760405160e560020a62461bcd0281526004016105b690614c4a565b600160a060020a0381166000908152600460205260408120600601805460ff19166001836106e3565b6060600080600060606000806109a0611c92565b95506109ad600a8961354d565b6005549095506109be90600a613586565b93508515806109cc57508585115b806109d657508388115b156109e057610d5d565b60408051600a808252610160820190925290816020015b6109ff613c18565b8152602001906001900390816109f7579050509250600091508490505b600554811015610d59573360009081526004602081905260408220600301546005805491939185908110610a4c57fe5b6000918252602080832090910154600160a060020a03168352820192909252604001902060030154148015610ac95750600260046000600584815481101515610a9157fe5b6000918252602080832090910154600160a060020a0316835282019290925260400190206006015460ff166002811115610ac757fe5b145b15610d515760046000600583815481101515610ae157fe5b600091825260208083209190910154600160a060020a0316835282810193909352604091820190208151610100808201845282548252600180840180548651600293821615909402600019011691909104601f81018790048702830187019095528482529194929385840193919291830182828015610ba15780601f10610b7657610100808354040283529160200191610ba1565b820191906000526020600020905b815481529060010190602001808311610b8457829003601f168201915b5050509183525050600282810180546040805160206001841615610100026000190190931694909404601f81018390048302850183019091528084529381019390830182828015610c335780601f10610c0857610100808354040283529160200191610c33565b820191906000526020600020905b815481529060010190602001808311610c1657829003601f168201915b505050505081526020016003820154815260200160048201548152602001600582018054600181600116156101000203166002900480601f016020809104026020016040519081016040528092919081815260200182805460018160011615610100020316600290048015610ce95780601f10610cbe57610100808354040283529160200191610ce9565b820191906000526020600020905b815481529060010190602001808311610ccc57829003601f168201915b5050509183525050600682015460209091019060ff166002811115610d0a57fe5b6002811115610d1557fe5b8152600691909101546101009004600160a060020a03166020909101528351849084908110610d4057fe5b602090810290910101526001909101905b600101610a1c565b8296505b505050505050919050565b60008181526002602052604081205460609110610d9a5760405160e560020a62461bcd0281526004016105b690614c6a565b60008281526002602090815260409182902060080180548351818402810184019094528084529091830182828015610df157602002820191906000526020600020905b815481526020019060010190808311610ddd575b50505050509050919050565b60606001805480602002602001604051908101604052809291908181526020016000905b82821015610ecc5760008481526020908190208301805460408051601f6002600019610100600187161502019094169390930492830185900485028101850190915281815292830182828015610eb85780601f10610e8d57610100808354040283529160200191610eb8565b820191906000526020600020905b815481529060010190602001808311610e9b57829003601f168201915b505050505081526020019060010190610e21565b5050505090505b90565b610ede613c18565b600160a060020a0382166000908152600460209081526040918290208251610100808201855282548252600180840180548751600293821615909402600019011691909104601f8101869004860283018601909652858252919492938581019391929190830182828015610f935780601f10610f6857610100808354040283529160200191610f93565b820191906000526020600020905b815481529060010190602001808311610f7657829003601f168201915b5050509183525050600282810180546040805160206001841615610100026000190190931694909404601f810183900483028501830190915280845293810193908301828280156110255780601f10610ffa57610100808354040283529160200191611025565b820191906000526020600020905b81548152906001019060200180831161100857829003601f168201915b505050505081526020016003820154815260200160048201548152602001600582018054600181600116156101000203166002900480601f0160208091040260200160405190810160405280929190818152602001828054600181600116156101000203166002900480156110db5780601f106110b0576101008083540402835291602001916110db565b820191906000526020600020905b8154815290600101906020018083116110be57829003601f168201915b5050509183525050600682015460209091019060ff1660028111156110fc57fe5b600281111561110757fe5b8152600691909101546101009004600160a060020a031660209091015292915050565b600091825260026020908152604083206007018054600181018255908452922090910155565b6000611162818363ffffffff6135a916565b92915050565b6000805b600084815260026020526040902060070154600019018110156112285760008481526002602052604090206007018054849190839081106111a957fe5b906000526020600020015414156111bf57600191505b81156112205760008481526002602052604090206007018054600183019081106111e557fe5b9060005260206000200154600260008681526020019081526020016000206007018281548110151561121357fe5b6000918252602090912001555b60010161116c565b60008481526002602052604090206007018054600019810190811061124957fe5b600091825260208083209091018290558582526002905260409020600701805490611278906000198301613c69565b5050505050565b61128833611150565b151561129357600080fd5b600088815260026020526040812054116112c25760405160e560020a62461bcd0281526004016105b690614c8a565b60008881526002602052604090206001015487146112f55760405160e560020a62461bcd0281526004016105b690614bea565b6000888152600260209081526040909120825161131a92600a90920191840190613b9e565b506000888152600260208181526040909220885161134093919092019190890190613b9e565b506000888152600260209081526040909120835161136692600690920191850190613b9e565b505050505050505050565b606080600061137f33611150565b151561138a57600080fd5b6005546040805182815260208084028201019091529080156113c657816020015b6113b3613c18565b8152602001906001900390816113ab5790505b509150600090505b60055481101561165c57600460006005838154811015156113eb57fe5b600091825260208083209190910154600160a060020a0316835282810193909352604091820190208151610100808201845282548252600180840180548651600293821615909402600019011691909104601f810187900487028301870190955284825291949293858401939192918301828280156114ab5780601f10611480576101008083540402835291602001916114ab565b820191906000526020600020905b81548152906001019060200180831161148e57829003601f168201915b5050509183525050600282810180546040805160206001841615610100026000190190931694909404601f8101839004830285018301909152808452938101939083018282801561153d5780601f106115125761010080835404028352916020019161153d565b820191906000526020600020905b81548152906001019060200180831161152057829003601f168201915b505050505081526020016003820154815260200160048201548152602001600582018054600181600116156101000203166002900480601f0160208091040260200160405190810160405280929190818152602001828054600181600116156101000203166002900480156115f35780601f106115c8576101008083540402835291602001916115f3565b820191906000526020600020905b8154815290600101906020018083116115d657829003601f168201915b5050509183525050600682015460209091019060ff16600281111561161457fe5b600281111561161f57fe5b8152600691909101546101009004600160a060020a0316602090910152825183908390811061164a57fe5b602090810290910101526001016113ce565b50919050565b60608060006003805490506040519080825280602002602001820160405280156116a657816020015b611693613c8d565b81526020019060019003908161168b5790505b509150600090505b60035481101561165c57600260006003838154811015156116cb57fe5b9060005260206000200154815260200190815260200160002061016060405190810160405290816000820154815260200160018201548152602001600282018054600181600116156101000203166002900480601f01602080910402602001604051908101604052809291908181526020018280546001816001161561010002031660029004801561179e5780601f106117735761010080835404028352916020019161179e565b820191906000526020600020905b81548152906001019060200180831161178157829003601f168201915b505050918352505060038201805460408051602060026001851615610100026000190190941693909304601f81018490048402820184019092528181529382019392918301828280156118325780601f1061180757610100808354040283529160200191611832565b820191906000526020600020905b81548152906001019060200180831161181557829003601f168201915b505050918352505060048201805460408051602060026001851615610100026000190190941693909304601f81018490048402820184019092528181529382019392918301828280156118c65780601f1061189b576101008083540402835291602001916118c6565b820191906000526020600020905b8154815290600101906020018083116118a957829003601f168201915b505050918352505060058201805460408051602060026001851615610100026000190190941693909304601f810184900484028201840190925281815293820193929183018282801561195a5780601f1061192f5761010080835404028352916020019161195a565b820191906000526020600020905b81548152906001019060200180831161193d57829003601f168201915b505050918352505060068201805460408051602060026001851615610100026000190190941693909304601f81018490048402820184019092528181529382019392918301828280156119ee5780601f106119c3576101008083540402835291602001916119ee565b820191906000526020600020905b8154815290600101906020018083116119d157829003601f168201915b5050505050815260200160078201805480602002602001604051908101604052809291908181526020018280548015611a4657602002820191906000526020600020905b815481526020019060010190808311611a32575b5050505050815260200160088201805480602002602001604051908101604052809291908181526020018280548015611a9e57602002820191906000526020600020905b815481526020019060010190808311611a8a575b5050505050815260200160098201805480602002602001604051908101604052809291908181526020018280548015611b0057602002820191906000526020600020905b8154600160a060020a03168152600190910190602001808311611ae2575b5050509183525050600a8201805460408051602060026001851615610100026000190190941693909304601f8101849004840282018401909252818152938201939291830182828015611b945780601f10611b6957610100808354040283529160200191611b94565b820191906000526020600020905b815481529060010190602001808311611b7757829003601f168201915b5050505050815250508282815181101515611bab57fe5b602090810290910101526001016116ae565b6000828152600260205260408120600801549081111561081e57600083815260026020526040902060080180546000198301908110611bf857fe5b90600052602060002001546002600085815260200190815260200160002060080183815481101515611c2657fe5b9060005260206000200181905550816002600085815260200190815260200160002060080160018303815481101515611c5b57fe5b6000918252602080832090910192909255848152600290915260409020600801805490611c8c906000198301613c69565b50505050565b600080805b60055481101561165c573360009081526004602081905260408220600301546005805491939185908110611cc757fe5b6000918252602080832090910154600160a060020a03168352820192909252604001902060030154148015611d445750600260046000600584815481101515611d0c57fe5b6000918252602080832090910154600160a060020a0316835282019290925260400190206006015460ff166002811115611d4257fe5b145b15611d50576001909101905b600101611c97565b6000811515611d7c5760405160e560020a62461bcd0281526004016105b690614cda565b60008611611d9f5760405160e560020a62461bcd0281526004016105b690614cea565b3360009081526004602052604090205415611dcf5760405160e560020a62461bcd0281526004016105b690614c1a565b611dd88261297d565b1515611df95760405160e560020a62461bcd0281526004016105b690614c8a565b611e0286612cb7565b9050611e1786868685858860013360006135e0565b505050505050565b6000611e2a33611150565b1515611e3557600080fd5b5060035490565b60009081526002602052604090206008015490565b6000611e5c33611150565b1515611e6757600080fd5b50805b60015460001901811015611ed35760018054828201908110611e8857fe5b90600052602060002001600182815481101515611ea157fe5b906000526020600020019080546001816001161561010002031660029004611eca929190613ce8565b50600101611e6a565b600180546000198101908110611ee557fe5b906000526020600020016000611efb9190613d5d565b600180549061081e906000198301613da1565b611f16613c18565b611f1e613c18565b336000908152600460209081526040918290208251610100808201855282548252600180840180548751600293821615909402600019011691909104601f8101869004860283018601909652858252919492938581019391929190830182828015611fca5780601f10611f9f57610100808354040283529160200191611fca565b820191906000526020600020905b815481529060010190602001808311611fad57829003601f168201915b5050509183525050600282810180546040805160206001841615610100026000190190931694909404601f8101839004830285018301909152808452938101939083018282801561205c5780601f106120315761010080835404028352916020019161205c565b820191906000526020600020905b81548152906001019060200180831161203f57829003601f168201915b505050505081526020016003820154815260200160048201548152602001600582018054600181600116156101000203166002900480601f0160208091040260200160405190810160405280929190818152602001828054600181600116156101000203166002900480156121125780601f106120e757610100808354040283529160200191612112565b820191906000526020600020905b8154815290600101906020018083116120f557829003601f168201915b5050509183525050600682015460209091019060ff16600281111561213357fe5b600281111561213e57fe5b8152600691909101546101009004600160a060020a031660209091015291508190505b5090565b606060008060006060600061217b600a8861354d565b60035490955061218c90600a613586565b60035490945015806121a357506003546000190185115b806121ad57508387115b156121b75761270a565b60408051600a80825261016082019092526000945090816020015b6121da613c8d565b8152602001906001900390816121d25790505091508490505b600354811015612706576002600060038381548110151561221057fe5b9060005260206000200154815260200190815260200160002061016060405190810160405290816000820154815260200160018201548152602001600282018054600181600116156101000203166002900480601f0160208091040260200160405190810160405280929190818152602001828054600181600116156101000203166002900480156122e35780601f106122b8576101008083540402835291602001916122e3565b820191906000526020600020905b8154815290600101906020018083116122c657829003601f168201915b505050918352505060038201805460408051602060026001851615610100026000190190941693909304601f81018490048402820184019092528181529382019392918301828280156123775780601f1061234c57610100808354040283529160200191612377565b820191906000526020600020905b81548152906001019060200180831161235a57829003601f168201915b505050918352505060048201805460408051602060026001851615610100026000190190941693909304601f810184900484028201840190925281815293820193929183018282801561240b5780601f106123e05761010080835404028352916020019161240b565b820191906000526020600020905b8154815290600101906020018083116123ee57829003601f168201915b505050918352505060058201805460408051602060026001851615610100026000190190941693909304601f810184900484028201840190925281815293820193929183018282801561249f5780601f106124745761010080835404028352916020019161249f565b820191906000526020600020905b81548152906001019060200180831161248257829003601f168201915b505050918352505060068201805460408051602060026001851615610100026000190190941693909304601f81018490048402820184019092528181529382019392918301828280156125335780601f1061250857610100808354040283529160200191612533565b820191906000526020600020905b81548152906001019060200180831161251657829003601f168201915b505050505081526020016007820180548060200260200160405190810160405280929190818152602001828054801561258b57602002820191906000526020600020905b815481526020019060010190808311612577575b50505050508152602001600882018054806020026020016040519081016040528092919081815260200182805480156125e357602002820191906000526020600020905b8154815260200190600101908083116125cf575b505050505081526020016009820180548060200260200160405190810160405280929190818152602001828054801561264557602002820191906000526020600020905b8154600160a060020a03168152600190910190602001808311612627575b5050509183525050600a8201805460408051602060026001851615610100026000190190941693909304601f81018490048402820184019092528181529382019392918301828280156126d95780601f106126ae576101008083540402835291602001916126d9565b820191906000526020600020905b8154815290600101906020018083116126bc57829003601f168201915b50505050508152505082848151811015156126f057fe5b60209081029091010152600192830192016121f3565b8195505b5050505050919050565b6004602090815260009182526040918290208054600180830180548651600293821615610100026000190190911692909204601f8101869004860283018601909652858252919492939092908301828280156127b15780601f10612786576101008083540402835291602001916127b1565b820191906000526020600020905b81548152906001019060200180831161279457829003601f168201915b50505060028085018054604080516020601f60001961010060018716150201909416959095049283018590048502810185019091528181529596959450909250908301828280156128435780601f1061281857610100808354040283529160200191612843565b820191906000526020600020905b81548152906001019060200180831161282657829003601f168201915b505050505090806003015490806004015490806005018054600181600116156101000203166002900480601f0160208091040260200160405190810160405280929190818152602001828054600181600116156101000203166002900480156128ed5780601f106128c2576101008083540402835291602001916128ed565b820191906000526020600020905b8154815290600101906020018083116128d057829003601f168201915b5050506006909301549192505060ff811690600160a060020a036101009091041688565b600091825260026020908152604083206008018054600181018255908452922090910155565b61294033613a34565b565b61294b33611150565b151561295657600080fd5b61070e81613a7c565b600160a060020a031660009081526004602052604090206003015490565b6000908152600260205260408120541190565b600160a060020a038181166000908152600460205260408120600601549091829182916101009091041681106129db5760405160e560020a62461bcd0281526004016105b690614c2a565b6002600160a060020a03851660009081526004602052604090206006015460ff166002811115612a0757fe5b14612a275760405160e560020a62461bcd0281526004016105b690614cba565b600160a060020a038416600090815260046020819052604090912090810154815460069092015490945090925060ff166002811115612a6257fe5b9050612a7682898989878a878b60016135e0565b5050505050505050565b612a8933611150565b1515612a9457600080fd5b600160a060020a038116600090815260046020526040902060030154612aba9082612b52565b604080518082018252600b81527f53757065722061646d696e0000000000000000000000000000000000000000006020808301918252600160a060020a03851660009081526004909152929092209051612b1a9260059092019190613b9e565b50600160a060020a03811660009081526004602052604081206003810191909155600601805460ff1916600217905561070e81612942565b6000805b60008481526002602052604090206009015460001901811015612c4f5760008481526002602052604090206009018054600160a060020a038516919083908110612b9c57fe5b600091825260209091200154600160a060020a03161415612bbc57600191505b8115612c47576000848152600260205260409020600901805460018301908110612be257fe5b6000918252602080832090910154868352600290915260409091206009018054600160a060020a039092169183908110612c1857fe5b9060005260206000200160006101000a815481600160a060020a030219169083600160a060020a031602179055505b600101612b56565b600084815260026020526040902060090180546000198101908110612c7057fe5b60009182526020808320909101805473ffffffffffffffffffffffffffffffffffffffff191690558582526002905260409020600901805490611278906000198301613c69565b6000808080600285061515612d495784604051602001808281526020019150506040516020818303038152906040526040518082805190602001908083835b60208310612d155780518252601f199092019160209182019101612cf6565b6001836020036101000a03801982511681845116808217855250505050505090500191505060405180910390209250612e34565b84604051602001808281526020019150506040516020818303038152906040526040518082805190602001908083835b60208310612d985780518252601f199092019160209182019101612d79565b51815160209384036101000a600019018019909216911617905260408051929094018290038220828201528351808303820181529184019384905281519195509293508392850191508083835b60208310612e045780518252601f199092019160209182019101612de5565b6001836020036101000a038019825116818451168082178552505050505050905001915050604051809103902092505b6020811015612e6157828160208110612e4957fe5b60f860020a91901a8102049190910190600101612e34565b826020600284010660208110612e7357fe5b60f860020a91901a810204836020840660208110612e8d57fe5b1a60f860020a0260f860020a9004029350505050919050565b612eae613c8d565b85511515612ed15760405160e560020a62461bcd0281526004016105b690614cca565b82511515612ef45760405160e560020a62461bcd0281526004016105b690614caa565b81511515612f175760405160e560020a62461bcd0281526004016105b690614c9a565b6000888152600260208181526040928390208351610160810185528154815260018083015482850152828501805487519281161561010002600019011695909504601f81018590048502820185018752808252919592949286019390929190830182828015612fc75780601f10612f9c57610100808354040283529160200191612fc7565b820191906000526020600020905b815481529060010190602001808311612faa57829003601f168201915b505050918352505060038201805460408051602060026001851615610100026000190190941693909304601f810184900484028201840190925281815293820193929183018282801561305b5780601f106130305761010080835404028352916020019161305b565b820191906000526020600020905b81548152906001019060200180831161303e57829003601f168201915b505050918352505060048201805460408051602060026001851615610100026000190190941693909304601f81018490048402820184019092528181529382019392918301828280156130ef5780601f106130c4576101008083540402835291602001916130ef565b820191906000526020600020905b8154815290600101906020018083116130d257829003601f168201915b505050918352505060058201805460408051602060026001851615610100026000190190941693909304601f81018490048402820184019092528181529382019392918301828280156131835780601f1061315857610100808354040283529160200191613183565b820191906000526020600020905b81548152906001019060200180831161316657829003601f168201915b505050918352505060068201805460408051602060026001851615610100026000190190941693909304601f81018490048402820184019092528181529382019392918301828280156132175780601f106131ec57610100808354040283529160200191613217565b820191906000526020600020905b8154815290600101906020018083116131fa57829003601f168201915b505050505081526020016007820180548060200260200160405190810160405280929190818152602001828054801561326f57602002820191906000526020600020905b81548152602001906001019080831161325b575b50505050508152602001600882018054806020026020016040519081016040528092919081815260200182805480156132c757602002820191906000526020600020905b8154815260200190600101908083116132b3575b505050505081526020016009820180548060200260200160405190810160405280929190818152602001828054801561332957602002820191906000526020600020905b8154600160a060020a0316815260019091019060200180831161330b575b5050509183525050600a8201805460408051602060026001851615610100026000190190941693909304601f81018490048402820184019092528181529382019392918301828280156133bd5780601f10613392576101008083540402835291602001916133bd565b820191906000526020600020905b8154815290600101906020018083116133a057829003601f168201915b50505091909252505050888152602080820189815260408084018a8152606085018a90526080850189905260a0850188905260c0850187905260008d815260028086529290208551815592516001840155518051949550859492936134289392850192910190613b9e565b5060608201518051613444916003840191602090910190613b9e565b5060808201518051613460916004840191602090910190613b9e565b5060a0820151805161347c916005840191602090910190613b9e565b5060c08201518051613498916006840191602090910190613b9e565b5060e082015180516134b4916007840191602090910190613dc5565b5061010082015180516134d1916008840191602090910190613dc5565b5061012082015180516134ee916009840191602090910190613dff565b50610140820151805161350b91600a840191602090910190613b9e565b5050600380546001810182556000919091527fc2575a0e9e593c00f959f8c92f12db2869c3395a3b0502d05e2516446f71f85b01989098555050505050505050565b600080831515613560576000915061357f565b5082820282848281151561357057fe5b041461357b57600080fd5b8091505b5092915050565b60008080831161359557600080fd5b82848115156135a057fe5b04949350505050565b6000600160a060020a03821615156135c057600080fd5b50600160a060020a03166000908152602091909152604090205460ff1690565b6135e8613c18565b6000841015806135f9575060028411155b151561361a5760405160e560020a62461bcd0281526004016105b690614c5a565b8451151561363d5760405160e560020a62461bcd0281526004016105b690614bfa565b600160a060020a0383166000908152600460209081526040918290208251610100808201855282548252600180840180548751600293821615909402600019011691909104601f81018690048602830186019096528582529194929385810193919291908301828280156136f25780601f106136c7576101008083540402835291602001916136f2565b820191906000526020600020905b8154815290600101906020018083116136d557829003601f168201915b5050509183525050600282810180546040805160206001841615610100026000190190931694909404601f810183900483028501830190915280845293810193908301828280156137845780601f1061375957610100808354040283529160200191613784565b820191906000526020600020905b81548152906001019060200180831161376757829003601f168201915b505050505081526020016003820154815260200160048201548152602001600582018054600181600116156101000203166002900480601f01602080910402602001604051908101604052809291908181526020018280546001816001161561010002031660029004801561383a5780601f1061380f5761010080835404028352916020019161383a565b820191906000526020600020905b81548152906001019060200180831161381d57829003601f168201915b5050509183525050600682015460209091019060ff16600281111561385b57fe5b600281111561386657fe5b8152600691909101546101009004600160a060020a03166020918201528b825281018a905260408101899052606081018890526080810187905260a0810186905290508360028111156138b557fe5b8160c0019060028111156138c557fe5b908160028111156138d257fe5b905250600160a060020a03831660e082018190526000908152600460209081526040909120825181558183015180518493613914926001850192910190613b9e565b5060408201518051613930916002840191602090910190613b9e565b50606082015160038201556080820151600482015560a08201518051613960916005840191602090910190613b9e565b5060c082015160068201805460ff1916600183600281111561397e57fe5b021790555060e0919091015160069091018054600160a060020a039092166101000274ffffffffffffffffffffffffffffffffffffffff0019909216919091179055811515613a2857600580546001810182556000919091527f036b6384b5eca791c62761152d0c79bb0604c104a5fb6f4eb0703f3154bb3db001805473ffffffffffffffffffffffffffffffffffffffff1916600160a060020a038516179055613a2887613ac4565b50505050505050505050565b613a4560008263ffffffff613b0416565b604051600160a060020a038216907f3525e22824a8a7df2c9a6029941c824cf95b6447f1e13d5128fd3826d35afe8b90600090a250565b613a8d60008263ffffffff613b5016565b604051600160a060020a038216907f47d1c22a25bb3a5d4e481b9b1e6944c2eade3181a0a20b495ed61d35b5323f2490600090a250565b600090815260026020908152604082206009018054600181018255908352912001805473ffffffffffffffffffffffffffffffffffffffff191633179055565b600160a060020a0381161515613b1957600080fd5b613b2382826135a9565b1515613b2e57600080fd5b600160a060020a0316600090815260209190915260409020805460ff19169055565b600160a060020a0381161515613b6557600080fd5b613b6f82826135a9565b15613b7957600080fd5b600160a060020a0316600090815260209190915260409020805460ff19166001179055565b828054600181600116156101000203166002900490600052602060002090601f016020900481019282601f10613bdf57805160ff1916838001178555613c0c565b82800160010185558215613c0c579182015b82811115613c0c578251825591602001919060010190613bf1565b50612161929150613e6d565b6101006040519081016040528060008152602001606081526020016060815260200160008152602001600081526020016060815260200160006002811115613c5c57fe5b8152600060209091015290565b81548183558181111561081e5760008381526020902061081e918101908301613e6d565b6101606040519081016040528060008152602001600081526020016060815260200160608152602001606081526020016060815260200160608152602001606081526020016060815260200160608152602001606081525090565b828054600181600116156101000203166002900490600052602060002090601f016020900481019282601f10613d215780548555613c0c565b82800160010185558215613c0c57600052602060002091601f016020900482015b82811115613c0c578254825591600101919060010190613d42565b50805460018160011615610100020316600290046000825580601f10613d83575061070e565b601f01602090049060005260206000209081019061070e9190613e6d565b81548183558181111561081e5760008381526020902061081e918101908301613e87565b828054828255906000526020600020908101928215613c0c5791602002820182811115613c0c578251825591602001919060010190613bf1565b828054828255906000526020600020908101928215613e61579160200282015b82811115613e61578251825473ffffffffffffffffffffffffffffffffffffffff1916600160a060020a03909116178255602090920191600190910190613e1f565b50612161929150613eaa565b610ed391905b808211156121615760008155600101613e73565b610ed391905b80821115612161576000613ea18282613d5d565b50600101613e8d565b610ed391905b8082111561216157805473ffffffffffffffffffffffffffffffffffffffff19168155600101613eb0565b6000613ee78235614dfe565b9392505050565b6000601f82018313613eff57600080fd5b8135613f12613f0d82614dcc565b614da5565b91508082526020830160208301858383011115613f2e57600080fd5b613f39838284614e26565b50505092915050565b6000613ee78235610ed3565b600060208284031215613f6057600080fd5b6000613f6c8484613edb565b949350505050565b600060208284031215613f8657600080fd5b813567ffffffffffffffff811115613f9d57600080fd5b613f6c84828501613eee565b600080600080600060a08688031215613fc157600080fd5b853567ffffffffffffffff811115613fd857600080fd5b613fe488828901613eee565b955050602086013567ffffffffffffffff81111561400157600080fd5b61400d88828901613eee565b945050604061401e88828901613f42565b935050606086013567ffffffffffffffff81111561403b57600080fd5b61404788828901613eee565b925050608061405888828901613edb565b9150509295509295909350565b60006020828403121561407757600080fd5b6000613f6c8484613f42565b600080600080600080600060e0888a03121561409e57600080fd5b60006140aa8a8a613f42565b975050602088013567ffffffffffffffff8111156140c757600080fd5b6140d38a828b01613eee565b965050604088013567ffffffffffffffff8111156140f057600080fd5b6140fc8a828b01613eee565b955050606088013567ffffffffffffffff81111561411957600080fd5b6141258a828b01613eee565b945050608088013567ffffffffffffffff81111561414257600080fd5b61414e8a828b01613eee565b93505060a088013567ffffffffffffffff81111561416b57600080fd5b6141778a828b01613eee565b92505060c088013567ffffffffffffffff81111561419457600080fd5b6141a08a828b01613eee565b91505092959891949750929550565b600080600080600060a086880312156141c757600080fd5b60006141d38888613f42565b955050602086013567ffffffffffffffff8111156141f057600080fd5b6141fc88828901613eee565b945050604086013567ffffffffffffffff81111561421957600080fd5b61422588828901613eee565b935050606086013567ffffffffffffffff81111561424257600080fd5b61424e88828901613eee565b925050608061405888828901613f42565b6000806040838503121561427257600080fd5b600061427e8585613f42565b925050602061428f85828601613f42565b9150509250929050565b600080600080600080600080610100898b0312156142b657600080fd5b60006142c28b8b613f42565b98505060206142d38b828c01613f42565b975050604089013567ffffffffffffffff8111156142f057600080fd5b6142fc8b828c01613eee565b965050606089013567ffffffffffffffff81111561431957600080fd5b6143258b828c01613eee565b955050608089013567ffffffffffffffff81111561434257600080fd5b61434e8b828c01613eee565b94505060a089013567ffffffffffffffff81111561436b57600080fd5b6143778b828c01613eee565b93505060c089013567ffffffffffffffff81111561439457600080fd5b6143a08b828c01613eee565b92505060e089013567ffffffffffffffff8111156143bd57600080fd5b6143c98b828c01613eee565b9150509295985092959890939650565b6143e281614dfe565b82525050565b60006143f382614dfa565b80845260208401935061440583614df4565b60005b828110156144355761441b8683516143d9565b61442482614df4565b602096909601959150600101614408565b5093949350505050565b600061444a82614dfa565b8084526020840193508360208202850161446385614df4565b60005b8481101561449a57838303885261447e838351614608565b925061448982614df4565b602098909801979150600101614466565b50909695505050505050565b60006144b182614dfa565b808452602084019350836020820285016144ca85614df4565b60005b8481101561449a5783830388526144e58383516149b9565b92506144f082614df4565b6020989098019791506001016144cd565b600061450c82614dfa565b8084526020840193508360208202850161452585614df4565b60005b8481101561449a578383038852614540838351614ad8565b925061454b82614df4565b602098909801979150600101614528565b600061456782614dfa565b80845260208401935061457983614df4565b60005b828110156144355761458f868351614b8f565b61459882614df4565b60209690960195915060010161457c565b60006145b482614dfa565b8084526020840193506145c683614df4565b60005b82811015614435576145dc868351614b8f565b6145e582614df4565b6020969096019591506001016145c9565b6143e281614e0a565b6143e281614e1b565b600061461382614dfa565b808452614627816020860160208601614e32565b61463081614e5e565b9093016020019392505050565b601a81527f4372656174696f6e204461746520697320696e6d757461626c65000000000000602082015260400190565b601181527f726f6c65206973206d616e6461746f7279000000000000000000000000000000602082015260400190565b602281527f4f6e6c792070656e64696e672075736572732063616e2062652061636365707460208201527f6564000000000000000000000000000000000000000000000000000000000000604082015260600190565b601381527f5573657220616c72656164792065786973747300000000000000000000000000602082015260400190565b601481527f546869732075736572206e6f7420657869737473000000000000000000000000602082015260400190565b601b81527f596f752063616e6e6f7420616363657074207468697320757365720000000000602082015260400190565b602281527f4f6e6c792070656e64696e672075736572732063616e2062652072656a65637460208201527f6564000000000000000000000000000000000000000000000000000000000000604082015260600190565b601381527f737461747573206973206e6f742076616c696400000000000000000000000000602082015260400190565b601181527f6d656d626572206e6f7420657869737473000000000000000000000000000000602082015260400190565b601581527f4d656d62657220616c7265616479206578697374730000000000000000000000602082015260400190565b601181527f4d656d626572206e6f7420657869737473000000000000000000000000000000602082015260400190565b601281527f5468656d65206973206d616e6461746f72790000000000000000000000000000602082015260400190565b601081527f434d4f206973206d616e6461746f727900000000000000000000000000000000602082015260400190565b601481527f596f7520617265206e6f74206163636570746564000000000000000000000000602082015260400190565b601181527f4e616d65206973206d616e6461746f7279000000000000000000000000000000602082015260400190565b601181527f4e6f2076616c6964206d656d6265724964000000000000000000000000000000602082015260400190565b601981527f4372656174696f6e44617465206973206d616e6461746f727900000000000000602082015260400190565b80516000906101608401906149ce8582614b8f565b5060208301516149e16020860182614b8f565b50604083015184820360408601526149f98282614608565b91505060608301518482036060860152614a138282614608565b91505060808301518482036080860152614a2d8282614608565b91505060a083015184820360a0860152614a478282614608565b91505060c083015184820360c0860152614a618282614608565b91505060e083015184820360e0860152614a7b82826145a9565b915050610100830151848203610100860152614a9782826145a9565b915050610120830151848203610120860152614ab382826143e8565b915050610140830151848203610140860152614acf8282614608565b95945050505050565b8051600090610100840190614aed8582614b8f565b5060208301518482036020860152614b058282614608565b91505060408301518482036040860152614b1f8282614608565b9150506060830151614b346060860182614b8f565b506080830151614b476080860182614b8f565b5060a083015184820360a0860152614b5f8282614608565b91505060c0830151614b7460c08601826145ff565b5060e0830151614b8760e08601826143d9565b509392505050565b6143e281610ed3565b60208082528101613ee7818461443f565b60208082528101613ee781846144a6565b60208082528101613ee78184614501565b60208082528101613ee7818461455c565b6020810161116282846145f6565b602080825281016111628161463d565b602080825281016111628161466d565b602080825281016111628161469d565b60208082528101611162816146f3565b6020808252810161116281614723565b6020808252810161116281614753565b6020808252810161116281614783565b60208082528101611162816147d9565b6020808252810161116281614809565b6020808252810161116281614839565b6020808252810161116281614869565b6020808252810161116281614899565b60208082528101611162816148c9565b60208082528101611162816148f9565b6020808252810161116281614929565b6020808252810161116281614959565b6020808252810161116281614989565b60208082528101613ee78184614ad8565b602081016111628284614b8f565b6101008101614d28828b614b8f565b8181036020830152614d3a818a614608565b90508181036040830152614d4e8189614608565b9050614d5d6060830188614b8f565b614d6a6080830187614b8f565b81810360a0830152614d7c8186614608565b9050614d8b60c08301856145ff565b614d9860e08301846143d9565b9998505050505050505050565b60405181810167ffffffffffffffff81118282101715614dc457600080fd5b604052919050565b600067ffffffffffffffff821115614de357600080fd5b506020601f91909101601f19160190565b60200190565b5190565b600160a060020a031690565b151590565b60006003821061216157fe5b600061116282614e0f565b82818337506000910152565b60005b83811015614e4d578181015183820152602001614e35565b83811115611c8c5750506000910152565b601f01601f1916905600a265627a7a723058207ca0fa714ddb4e1164a3d47be07f1e7a87e1dc022ec4e213d91e5678c4b9753c6c6578706572696d656e74616cf50037",
  "source": "pragma solidity ^0.4.24;\npragma experimental ABIEncoderV2;\n\nimport \"./Members.sol\";\nimport \"./Claims.sol\";\n\ncontract Users is Members {\n\n  struct User {\n    uint256 creationDate;\n    string firstName;\n    string lastName;\n    uint256 memberId;\n    uint256 requestId;\n    string role;\n    StatusUserEnum status;\n    address owner;\n  }\n\n  enum StatusUserEnum {\n    REJECTED,\n    PENDING,\n    ACCEPTED\n  }\n\n  mapping (address => User) public users_;\n  address[] private usersList_;\n\n  uint256 constant private PAGE_SIZE = 10;\n\n  // PUBLIC\n\n  function registerUserRequest(uint256 _creationDate, string _firstName, string _lastName, string _role, uint256 _memberId) public {\n\n    require(_memberId != 0, \"No valid memberId\");\n    require(_creationDate > 0, \"CreationDate is mandatory\");\n    require(users_[msg.sender].creationDate == 0, \"User already exists\");\n    require(_memberExists(_memberId), \"Member not exists\");\n\n    uint256 _requestId = Random.rand(_creationDate);\n    _saveUser(_creationDate, _firstName, _lastName, _memberId, _requestId, _role, uint256(StatusUserEnum.PENDING), msg.sender, 0);\n  }\n\n  function updateUser(string _firstName, string _lastName, uint256 _memberId, string _role, address owner) public {\n\n    require(users_[owner].owner > address(0), \"This user not exists\");\n    require(uint(users_[owner].status) == uint(StatusUserEnum.ACCEPTED), \"You are not accepted\");\n\n    uint256 _requestId = users_[owner].requestId;\n    uint256 _creationDate = users_[owner].creationDate;\n    uint256 _status = uint(users_[owner].status);\n\n    _saveUser(_creationDate, _firstName, _lastName, _memberId, _requestId, _role, _status, owner, 1);\n  }\n\n  function rejectUser(address _userToReject) public {\n\n    require(users_[_userToReject].owner > address(0), \"This user not exists\");\n    require((users_[msg.sender].memberId == users_[_userToReject].memberId) || isSigner(msg.sender), \"You cannot accept this user\");\n    require((uint(users_[msg.sender].status) == uint(StatusUserEnum.ACCEPTED)) || isSigner(msg.sender), \"You are not accepted\");\n    require(users_[_userToReject].status == StatusUserEnum.PENDING, \"Only pending users can be rejected\");\n\n    users_[_userToReject].status = StatusUserEnum.REJECTED;\n    _clearUserFromMemberRequest(users_[_userToReject].memberId, _userToReject);\n  }\n\n  function acceptUser(address _userToAccept) public {\n\n    require(users_[_userToAccept].owner > address(0), \"This user not exists\");\n    require((users_[msg.sender].memberId == users_[_userToAccept].memberId) || isSigner(msg.sender), \"You cannot accept this user\");\n    require((uint(users_[msg.sender].status) == uint(StatusUserEnum.ACCEPTED)) || isSigner(msg.sender), \"You are not accepted\");\n    require(users_[_userToAccept].status == StatusUserEnum.PENDING, \"Only pending users can be accepted\");\n\n    users_[_userToAccept].status = StatusUserEnum.ACCEPTED;\n    _clearUserFromMemberRequest(users_[_userToAccept].memberId, _userToAccept);\n  }\n\n  function getcountUsers() public view returns(uint) {\n    uint256 counter = 0;\n    for (uint i = 0; i < usersList_.length; ++i) {\n      if(users_[usersList_[i]].memberId == users_[msg.sender].memberId\n        && users_[usersList_[i]].status == StatusUserEnum.ACCEPTED) {\n        counter++;\n      }\n    }\n    return counter;\n  }\n\n  function whitelistAdmin(address account) public onlySigner {\n    _clearUserFromMemberRequest(users_[account].memberId, account);\n    users_[account].role = \"Super admin\";\n    users_[account].memberId = 0;\n    users_[account].status = StatusUserEnum.ACCEPTED;\n    addSigner(account);\n\n  }\n\n  function getUsers(uint256 _page) public view returns(User[] memory) {\n    uint256 counter = getcountUsers();\n\n    uint256 pageIndex = SafeMath.mul(PAGE_SIZE, _page);\n    uint256 pageNumber = SafeMath.div(usersList_.length, PAGE_SIZE);\n\n    if (counter == 0 || pageIndex > counter || _page > pageNumber) {\n      return;\n    }\n\n    User[] memory userPageBasic = new User[](PAGE_SIZE);\n    uint256 counterFinal = 0;\n\n    for (uint j = pageIndex; j < usersList_.length; ++j) {\n      if(users_[usersList_[j]].memberId == users_[msg.sender].memberId\n        && users_[usersList_[j]].status == StatusUserEnum.ACCEPTED) {\n        userPageBasic[counterFinal] = users_[usersList_[j]];\n        ++counterFinal;\n      }\n    }\n    return userPageBasic;\n  }\n\n  function getUserByAddress(address userAddress) public view returns(User memory) {\n    return users_[userAddress];\n  }\n\n  function getUsersOwner() onlySigner public view returns(User[] memory) {\n    User[] memory userPageOwner = new User[](usersList_.length);\n\n    for (uint i = 0; i < usersList_.length; ++i) {\n      userPageOwner[i] = users_[usersList_[i]];\n    }\n\n    return userPageOwner;\n  }\n\n  function getMe() public view returns(User) {\n    //TODO: require\n    User memory user = users_[msg.sender];\n    return user;\n  }\n\n  // PRIVATE\n\n  function _saveUser(uint256 _creationDate, string _firstName, string _lastName, uint256 _memberId,\n    uint256 _requestId, string _role, uint256 _status, address owner, uint isCreate) internal {\n\n    require(_status >= 0 || _status <=2, \"status is not valid\");\n    require(bytes(_role).length != 0, \"role is mandatory\");\n\n    User memory user = users_[owner];\n\n    user.creationDate =  _creationDate;\n    user.firstName =  _firstName;\n    user.lastName =  _lastName;\n    user.memberId =  _memberId;\n    user.requestId =  _requestId;\n    user.role = _role;\n    user.status = StatusUserEnum(_status);\n    user.owner = owner;\n\n    users_[owner] = user;\n\n    if(isCreate == 0) {\n      usersList_.push(owner);\n      _addUserToMemberRequest(_memberId);\n    }\n  }\n\n  function _memberIdFromCurrentAddress(address addr) view public returns(uint256) {\n    return users_[addr].memberId;\n  }\n\n}\n",
  "sourcePath": "/home/komodo/newUI2/bloomen-decentralized-rights-management-v2/truffle/contracts/registry/Users.sol",
  "compiler": {
    "name": "solc",
    "version": "0.4.24+commit.e67f0147.Emscripten.clang"
  },
  "schemaVersion": "2.0.1",
  "updatedAt": "2020-01-27T17:40:02.923Z"
}