{
  "contractName": "Users",
  "abi": [
    {
      "constant": false,
      "inputs": [
        {
          "name": "_cmo",
          "type": "string"
        }
      ],
      "name": "addCMO",
      "outputs": [],
      "payable": false,
      "stateMutability": "nonpayable",
      "type": "function"
    },
    {
      "constant": true,
      "inputs": [
        {
          "name": "_memberId",
          "type": "uint256"
        }
      ],
      "name": "_getClaimsIdByMember",
      "outputs": [
        {
          "name": "",
          "type": "uint256[]"
        }
      ],
      "payable": false,
      "stateMutability": "view",
      "type": "function"
    },
    {
      "constant": true,
      "inputs": [],
      "name": "getCMOs",
      "outputs": [
        {
          "name": "",
          "type": "string[]"
        }
      ],
      "payable": false,
      "stateMutability": "view",
      "type": "function"
    },
    {
      "constant": false,
      "inputs": [
        {
          "name": "_memberId",
          "type": "uint256"
        },
        {
          "name": "_creationDate",
          "type": "uint256"
        },
        {
          "name": "_name",
          "type": "string"
        },
        {
          "name": "_logo",
          "type": "string"
        },
        {
          "name": "_country",
          "type": "string"
        },
        {
          "name": "_cmo",
          "type": "string"
        },
        {
          "name": "_theme",
          "type": "string"
        }
      ],
      "name": "updateMember",
      "outputs": [],
      "payable": false,
      "stateMutability": "nonpayable",
      "type": "function"
    },
    {
      "constant": false,
      "inputs": [
        {
          "name": "_memberId",
          "type": "uint256"
        },
        {
          "name": "_claimId",
          "type": "uint256"
        }
      ],
      "name": "_addClaimFromInbox",
      "outputs": [],
      "payable": false,
      "stateMutability": "nonpayable",
      "type": "function"
    },
    {
      "constant": true,
      "inputs": [
        {
          "name": "account",
          "type": "address"
        }
      ],
      "name": "isSigner",
      "outputs": [
        {
          "name": "",
          "type": "bool"
        }
      ],
      "payable": false,
      "stateMutability": "view",
      "type": "function"
    },
    {
      "constant": false,
      "inputs": [
        {
          "name": "_memberId",
          "type": "uint256"
        },
        {
          "name": "_claimId",
          "type": "uint256"
        }
      ],
      "name": "_removeClaimFromInbox",
      "outputs": [],
      "payable": false,
      "stateMutability": "nonpayable",
      "type": "function"
    },
    {
      "constant": true,
      "inputs": [],
      "name": "getMembers",
      "outputs": [
        {
          "components": [
            {
              "name": "memberId",
              "type": "uint256"
            },
            {
              "name": "creationDate",
              "type": "uint256"
            },
            {
              "name": "name",
              "type": "string"
            },
            {
              "name": "logo",
              "type": "string"
            },
            {
              "name": "country",
              "type": "string"
            },
            {
              "name": "cmo",
              "type": "string"
            },
            {
              "name": "theme",
              "type": "string"
            },
            {
              "name": "claimInbox",
              "type": "uint256[]"
            },
            {
              "name": "claims",
              "type": "uint256[]"
            },
            {
              "name": "userRequests",
              "type": "address[]"
            }
          ],
          "name": "",
          "type": "tuple[]"
        }
      ],
      "payable": false,
      "stateMutability": "view",
      "type": "function"
    },
    {
      "constant": false,
      "inputs": [
        {
          "name": "_memberId",
          "type": "uint256"
        },
        {
          "name": "_claimId",
          "type": "uint256"
        }
      ],
      "name": "_removeClaimIdFromMember",
      "outputs": [],
      "payable": false,
      "stateMutability": "nonpayable",
      "type": "function"
    },
    {
      "constant": true,
      "inputs": [],
      "name": "getCount",
      "outputs": [
        {
          "name": "",
          "type": "uint256"
        }
      ],
      "payable": false,
      "stateMutability": "view",
      "type": "function"
    },
    {
      "constant": true,
      "inputs": [
        {
          "name": "_memberId",
          "type": "uint256"
        }
      ],
      "name": "_getClaimsCountByMember",
      "outputs": [
        {
          "name": "",
          "type": "uint256"
        }
      ],
      "payable": false,
      "stateMutability": "view",
      "type": "function"
    },
    {
      "constant": false,
      "inputs": [
        {
          "name": "_index",
          "type": "uint256"
        }
      ],
      "name": "deleteCMO",
      "outputs": [],
      "payable": false,
      "stateMutability": "nonpayable",
      "type": "function"
    },
    {
      "constant": true,
      "inputs": [
        {
          "name": "_page",
          "type": "uint256"
        }
      ],
      "name": "getMembers",
      "outputs": [
        {
          "components": [
            {
              "name": "memberId",
              "type": "uint256"
            },
            {
              "name": "creationDate",
              "type": "uint256"
            },
            {
              "name": "name",
              "type": "string"
            },
            {
              "name": "logo",
              "type": "string"
            },
            {
              "name": "country",
              "type": "string"
            },
            {
              "name": "cmo",
              "type": "string"
            },
            {
              "name": "theme",
              "type": "string"
            },
            {
              "name": "claimInbox",
              "type": "uint256[]"
            },
            {
              "name": "claims",
              "type": "uint256[]"
            },
            {
              "name": "userRequests",
              "type": "address[]"
            }
          ],
          "name": "",
          "type": "tuple[]"
        }
      ],
      "payable": false,
      "stateMutability": "view",
      "type": "function"
    },
    {
      "constant": true,
      "inputs": [
        {
          "name": "",
          "type": "address"
        }
      ],
      "name": "users_",
      "outputs": [
        {
          "name": "creationDate",
          "type": "uint256"
        },
        {
          "name": "firstName",
          "type": "string"
        },
        {
          "name": "lastName",
          "type": "string"
        },
        {
          "name": "memberId",
          "type": "uint256"
        },
        {
          "name": "requestId",
          "type": "uint256"
        },
        {
          "name": "role",
          "type": "string"
        },
        {
          "name": "status",
          "type": "uint8"
        },
        {
          "name": "owner",
          "type": "address"
        },
        {
          "name": "cmo",
          "type": "string"
        }
      ],
      "payable": false,
      "stateMutability": "view",
      "type": "function"
    },
    {
      "constant": false,
      "inputs": [
        {
          "name": "_memberId",
          "type": "uint256"
        },
        {
          "name": "_claimId",
          "type": "uint256"
        }
      ],
      "name": "_addClaimIdToMemberOwner",
      "outputs": [],
      "payable": false,
      "stateMutability": "nonpayable",
      "type": "function"
    },
    {
      "constant": false,
      "inputs": [],
      "name": "renounceSigner",
      "outputs": [],
      "payable": false,
      "stateMutability": "nonpayable",
      "type": "function"
    },
    {
      "constant": false,
      "inputs": [
        {
          "name": "account",
          "type": "address"
        }
      ],
      "name": "addSigner",
      "outputs": [],
      "payable": false,
      "stateMutability": "nonpayable",
      "type": "function"
    },
    {
      "constant": true,
      "inputs": [
        {
          "name": "_memberId",
          "type": "uint256"
        }
      ],
      "name": "_memberExists",
      "outputs": [
        {
          "name": "",
          "type": "bool"
        }
      ],
      "payable": false,
      "stateMutability": "view",
      "type": "function"
    },
    {
      "constant": false,
      "inputs": [
        {
          "name": "_creationDate",
          "type": "uint256"
        },
        {
          "name": "_name",
          "type": "string"
        },
        {
          "name": "_logo",
          "type": "string"
        },
        {
          "name": "_country",
          "type": "string"
        },
        {
          "name": "_cmo",
          "type": "string"
        },
        {
          "name": "_theme",
          "type": "string"
        }
      ],
      "name": "addMember",
      "outputs": [
        {
          "name": "",
          "type": "uint256"
        }
      ],
      "payable": false,
      "stateMutability": "nonpayable",
      "type": "function"
    },
    {
      "constant": true,
      "inputs": [],
      "name": "memberIdCounter_",
      "outputs": [
        {
          "name": "",
          "type": "uint256"
        }
      ],
      "payable": false,
      "stateMutability": "view",
      "type": "function"
    },
    {
      "anonymous": false,
      "inputs": [
        {
          "indexed": true,
          "name": "account",
          "type": "address"
        }
      ],
      "name": "SignerAdded",
      "type": "event"
    },
    {
      "anonymous": false,
      "inputs": [
        {
          "indexed": true,
          "name": "account",
          "type": "address"
        }
      ],
      "name": "SignerRemoved",
      "type": "event"
    },
    {
      "constant": false,
      "inputs": [
        {
          "name": "_creationDate",
          "type": "uint256"
        },
        {
          "name": "_firstName",
          "type": "string"
        },
        {
          "name": "_lastName",
          "type": "string"
        },
        {
          "name": "_role",
          "type": "string"
        },
        {
          "name": "_memberId",
          "type": "uint256"
        }
      ],
      "name": "registerUserRequest",
      "outputs": [],
      "payable": false,
      "stateMutability": "nonpayable",
      "type": "function"
    },
    {
      "constant": false,
      "inputs": [
        {
          "name": "_firstName",
          "type": "string"
        },
        {
          "name": "_lastName",
          "type": "string"
        },
        {
          "name": "_memberId",
          "type": "uint256"
        },
        {
          "name": "_role",
          "type": "string"
        },
        {
          "name": "owner",
          "type": "address"
        }
      ],
      "name": "updateUser",
      "outputs": [],
      "payable": false,
      "stateMutability": "nonpayable",
      "type": "function"
    },
    {
      "constant": false,
      "inputs": [
        {
          "name": "_userToReject",
          "type": "address"
        }
      ],
      "name": "rejectUser",
      "outputs": [],
      "payable": false,
      "stateMutability": "nonpayable",
      "type": "function"
    },
    {
      "constant": false,
      "inputs": [
        {
          "name": "_userToAccept",
          "type": "address"
        }
      ],
      "name": "acceptUser",
      "outputs": [],
      "payable": false,
      "stateMutability": "nonpayable",
      "type": "function"
    },
    {
      "constant": true,
      "inputs": [],
      "name": "getcountUsers",
      "outputs": [
        {
          "name": "",
          "type": "uint256"
        }
      ],
      "payable": false,
      "stateMutability": "view",
      "type": "function"
    },
    {
      "constant": false,
      "inputs": [
        {
          "name": "account",
          "type": "address"
        },
        {
          "name": "_cmo",
          "type": "string"
        }
      ],
      "name": "whitelistAdmin",
      "outputs": [],
      "payable": false,
      "stateMutability": "nonpayable",
      "type": "function"
    },
    {
      "constant": true,
      "inputs": [
        {
          "name": "_page",
          "type": "uint256"
        }
      ],
      "name": "getUsers",
      "outputs": [
        {
          "components": [
            {
              "name": "creationDate",
              "type": "uint256"
            },
            {
              "name": "firstName",
              "type": "string"
            },
            {
              "name": "lastName",
              "type": "string"
            },
            {
              "name": "memberId",
              "type": "uint256"
            },
            {
              "name": "requestId",
              "type": "uint256"
            },
            {
              "name": "role",
              "type": "string"
            },
            {
              "name": "status",
              "type": "uint8"
            },
            {
              "name": "owner",
              "type": "address"
            },
            {
              "name": "cmo",
              "type": "string"
            }
          ],
          "name": "",
          "type": "tuple[]"
        }
      ],
      "payable": false,
      "stateMutability": "view",
      "type": "function"
    },
    {
      "constant": true,
      "inputs": [
        {
          "name": "userAddress",
          "type": "address"
        }
      ],
      "name": "getUserByAddress",
      "outputs": [
        {
          "components": [
            {
              "name": "creationDate",
              "type": "uint256"
            },
            {
              "name": "firstName",
              "type": "string"
            },
            {
              "name": "lastName",
              "type": "string"
            },
            {
              "name": "memberId",
              "type": "uint256"
            },
            {
              "name": "requestId",
              "type": "uint256"
            },
            {
              "name": "role",
              "type": "string"
            },
            {
              "name": "status",
              "type": "uint8"
            },
            {
              "name": "owner",
              "type": "address"
            },
            {
              "name": "cmo",
              "type": "string"
            }
          ],
          "name": "",
          "type": "tuple"
        }
      ],
      "payable": false,
      "stateMutability": "view",
      "type": "function"
    },
    {
      "constant": true,
      "inputs": [],
      "name": "getUsersOwner",
      "outputs": [
        {
          "components": [
            {
              "name": "creationDate",
              "type": "uint256"
            },
            {
              "name": "firstName",
              "type": "string"
            },
            {
              "name": "lastName",
              "type": "string"
            },
            {
              "name": "memberId",
              "type": "uint256"
            },
            {
              "name": "requestId",
              "type": "uint256"
            },
            {
              "name": "role",
              "type": "string"
            },
            {
              "name": "status",
              "type": "uint8"
            },
            {
              "name": "owner",
              "type": "address"
            },
            {
              "name": "cmo",
              "type": "string"
            }
          ],
          "name": "",
          "type": "tuple[]"
        }
      ],
      "payable": false,
      "stateMutability": "view",
      "type": "function"
    },
    {
      "constant": true,
      "inputs": [],
      "name": "getMe",
      "outputs": [
        {
          "components": [
            {
              "name": "creationDate",
              "type": "uint256"
            },
            {
              "name": "firstName",
              "type": "string"
            },
            {
              "name": "lastName",
              "type": "string"
            },
            {
              "name": "memberId",
              "type": "uint256"
            },
            {
              "name": "requestId",
              "type": "uint256"
            },
            {
              "name": "role",
              "type": "string"
            },
            {
              "name": "status",
              "type": "uint8"
            },
            {
              "name": "owner",
              "type": "address"
            },
            {
              "name": "cmo",
              "type": "string"
            }
          ],
          "name": "",
          "type": "tuple"
        }
      ],
      "payable": false,
      "stateMutability": "view",
      "type": "function"
    },
    {
      "constant": true,
      "inputs": [
        {
          "name": "addr",
          "type": "address"
        }
      ],
      "name": "_memberIdFromCurrentAddress",
      "outputs": [
        {
          "name": "",
          "type": "uint256"
        }
      ],
      "payable": false,
      "stateMutability": "view",
      "type": "function"
    }
  ],
  "bytecode": "0x608060405260006003556200001d3364010000000062000023810204565b62000108565b6200003e60008264010000000062003d206200007582021704565b604051600160a060020a038216907f47d1c22a25bb3a5d4e481b9b1e6944c2eade3181a0a20b495ed61d35b5323f2490600090a250565b600160a060020a03811615156200008b57600080fd5b620000a08282640100000000620000d0810204565b15620000ab57600080fd5b600160a060020a0316600090815260209190915260409020805460ff19166001179055565b6000600160a060020a0382161515620000e857600080fd5b50600160a060020a03166000908152602091909152604090205460ff1690565b61506c80620001186000396000f30060806040526004361061018a5763ffffffff7c010000000000000000000000000000000000000000000000000000000060003504166308bdc24d811461018f5780633a59ccf1146101b15780634dc92885146101d15780635d73ab9a146101f15780636262dff614610227578063656d561c1461025457806365ff0c481461027657806369c212f61461029657806374853239146102c35780637df73e27146102e35780638b92892b14610310578063932191be146103305780639eab525314610345578063a29d441f14610367578063a4fdc59414610387578063a7ed1fe4146103a9578063a87d942c146103c9578063a9eff511146103de578063affccd84146103fe578063bf3d007e1461041e578063c11e1ff31461043e578063c477ecab14610453578063d2105a0014610473578063e2c11f9e146104a8578063e5c8b03d146104c8578063eb12d61e146104dd578063eff34e59146104fd578063f83807331461051d578063fa1188c61461053d578063fa92dbdf1461055d578063fcfbde5b14610572575b600080fd5b34801561019b57600080fd5b506101af6101aa36600461411e565b610592565b005b3480156101bd57600080fd5b506101af6101cc366004614196565b610732565b3480156101dd57600080fd5b506101af6101ec36600461411e565b61078e565b3480156101fd57600080fd5b5061021161020c366004614287565b6108f7565b60405161021e9190614d6f565b60405180910390f35b34801561023357600080fd5b50610247610242366004614287565b610d6e565b60405161021e9190614d80565b34801561026057600080fd5b50610269610e03565b60405161021e9190614d4d565b34801561028257600080fd5b506101af610291366004614484565b610edc565b3480156102a257600080fd5b506102b66102b136600461411e565b610fa7565b60405161021e9190614eaf565b3480156102cf57600080fd5b506101af6102de366004614454565b611294565b3480156102ef57600080fd5b506103036102fe36600461411e565b6112ba565b60405161021e9190614d91565b34801561031c57600080fd5b506101af61032b366004614454565b6112d2565b34801561033c57600080fd5b506102116113e9565b34801561035157600080fd5b5061035a611775565b60405161021e9190614d5e565b34801561037357600080fd5b506101af610382366004614454565b611c3c565b34801561039357600080fd5b5061039c611d11565b60405161021e9190614ec0565b3480156103b557600080fd5b506101af6103c43660046143a4565b611dd7565b3480156103d557600080fd5b5061039c611e9e565b3480156103ea57600080fd5b506101af6103f9366004614144565b611ebb565b34801561040a57600080fd5b5061039c610419366004614287565b611fc7565b34801561042a57600080fd5b506101af610439366004614287565b611fdc565b34801561044a57600080fd5b506102b6612099565b34801561045f57600080fd5b5061035a61046e366004614287565b612388565b34801561047f57600080fd5b5061049361048e36600461411e565b6128a3565b60405161021e99989796959493929190614ece565b3480156104b457600080fd5b506101af6104c3366004614454565b612b2b565b3480156104d457600080fd5b506101af612b51565b3480156104e957600080fd5b506101af6104f836600461411e565b612b5c565b34801561050957600080fd5b5061039c61051836600461411e565b612b79565b34801561052957600080fd5b50610303610538366004614287565b612b97565b34801561054957600080fd5b5061039c6105583660046142a5565b612baa565b34801561056957600080fd5b5061039c612c39565b34801561057e57600080fd5b506101af61058d3660046141cb565b612c3f565b600160a060020a038181166000908152600560205260408120600601546101009004909116116105e05760405160e560020a62461bcd0281526004016105d790614ddf565b60405180910390fd5b600160a060020a0381166000908152600560205260408082206003908101543384529190922090910154148061061a575061061a336112ba565b151561063b5760405160e560020a62461bcd0281526004016105d790614def565b60023360009081526005602052604090206006015460ff16600281111561065e57fe5b148061066e575061066e336112ba565b151561068f5760405160e560020a62461bcd0281526004016105d790614e6f565b6001600160a060020a03821660009081526005602052604090206006015460ff1660028111156106bb57fe5b146106db5760405160e560020a62461bcd0281526004016105d790614dbf565b600160a060020a038116600090815260056020526040902060060180546002919060ff19166001835b0217905550600160a060020a03811660009081526005602052604090206003015461072f9082612d23565b50565b61073b336112ba565b151561074657600080fd5b600180548082018083556000929092528251610789917fb10e2d527612073b26eecdfd717e6a320cf44b4afac2b0732d9fcbe2b7fa0cf601906020850190613d6e565b505050565b600160a060020a038181166000908152600560205260408120600601546101009004909116116107d35760405160e560020a62461bcd0281526004016105d790614ddf565b600160a060020a0381166000908152600560205260408082206003908101543384529190922090910154148061080d575061080d336112ba565b151561082e5760405160e560020a62461bcd0281526004016105d790614def565b60023360009081526005602052604090206006015460ff16600281111561085157fe5b14806108615750610861336112ba565b15156108825760405160e560020a62461bcd0281526004016105d790614e6f565b6001600160a060020a03821660009081526005602052604090206006015460ff1660028111156108ae57fe5b146108ce5760405160e560020a62461bcd0281526004016105d790614dff565b600160a060020a0381166000908152600560205260408120600601805460ff1916600183610704565b60606000806000606060008061090b611d11565b9550610918600a89612e88565b60065490955061092990600a612ec1565b935085158061093757508585115b8061094157508388115b1561094b57610d63565b60408051600a808252610160820190925290816020015b61096a613de8565b815260200190600190039081610962579050509250600091508490505b600654811015610d5f5733600090815260056020819052604082206003015460068054919391859081106109b757fe5b6000918252602080832090910154600160a060020a03168352820192909252604001902060030154148015610a3457506002600560006006848154811015156109fc57fe5b6000918252602080832090910154600160a060020a0316835282019290925260400190206006015460ff166002811115610a3257fe5b145b15610d575760056000600683815481101515610a4c57fe5b6000918252602080832090910154600160a060020a03168352828101939093526040918201902081516101208101835281548152600182810180548551601f6002600019958416156101000295909501909216939093049081018790048702830187019095528482529194929385840193919291830182828015610b115780601f10610ae657610100808354040283529160200191610b11565b820191906000526020600020905b815481529060010190602001808311610af457829003601f168201915b5050509183525050600282810180546040805160206001841615610100026000190190931694909404601f81018390048302850183019091528084529381019390830182828015610ba35780601f10610b7857610100808354040283529160200191610ba3565b820191906000526020600020905b815481529060010190602001808311610b8657829003601f168201915b505050505081526020016003820154815260200160048201548152602001600582018054600181600116156101000203166002900480601f016020809104026020016040519081016040528092919081815260200182805460018160011615610100020316600290048015610c595780601f10610c2e57610100808354040283529160200191610c59565b820191906000526020600020905b815481529060010190602001808311610c3c57829003601f168201915b5050509183525050600682015460209091019060ff166002811115610c7a57fe5b6002811115610c8557fe5b8152600682015461010090819004600160a060020a031660208084019190915260078401805460408051600260018416159096026000190190921694909404601f810184900484028201840185528082529390940193929091830182828015610d2f5780601f10610d0457610100808354040283529160200191610d2f565b820191906000526020600020905b815481529060010190602001808311610d1257829003601f168201915b5050505050815250508383815181101515610d4657fe5b602090810290910101526001909101905b600101610987565b8296505b505050505050919050565b60008181526002602052604081205460609110610da05760405160e560020a62461bcd0281526004016105d790614e1f565b60008281526002602090815260409182902060080180548351818402810184019094528084529091830182828015610df757602002820191906000526020600020905b815481526020019060010190808311610de3575b50505050509050919050565b60606001805480602002602001604051908101604052809291908181526020016000905b82821015610ed25760008481526020908190208301805460408051601f6002600019610100600187161502019094169390930492830185900485028101850190915281815292830182828015610ebe5780601f10610e9357610100808354040283529160200191610ebe565b820191906000526020600020905b815481529060010190602001808311610ea157829003601f168201915b505050505081526020019060010190610e27565b5050505090505b90565b610ee5336112ba565b1515610ef057600080fd5b60008781526002602052604081205411610f1f5760405160e560020a62461bcd0281526004016105d790614e3f565b6000878152600260205260409020600101548614610f525760405160e560020a62461bcd0281526004016105d790614d9f565b60008781526002602081815260409092208751610f7793919092019190880190613d6e565b5060008781526002602090815260409091208251610f9d92600690920191840190613d6e565b5050505050505050565b610faf613de8565b600160a060020a03821660009081526005602090815260409182902082516101208101845281548152600180830180548651600293821615610100026000190190911692909204601f81018690048602830186019096528582529194929385810193919291908301828280156110665780601f1061103b57610100808354040283529160200191611066565b820191906000526020600020905b81548152906001019060200180831161104957829003601f168201915b5050509183525050600282810180546040805160206001841615610100026000190190931694909404601f810183900483028501830190915280845293810193908301828280156110f85780601f106110cd576101008083540402835291602001916110f8565b820191906000526020600020905b8154815290600101906020018083116110db57829003601f168201915b505050505081526020016003820154815260200160048201548152602001600582018054600181600116156101000203166002900480601f0160208091040260200160405190810160405280929190818152602001828054600181600116156101000203166002900480156111ae5780601f10611183576101008083540402835291602001916111ae565b820191906000526020600020905b81548152906001019060200180831161119157829003601f168201915b5050509183525050600682015460209091019060ff1660028111156111cf57fe5b60028111156111da57fe5b8152600682015461010090819004600160a060020a031660208084019190915260078401805460408051600260018416159096026000190190921694909404601f8101849004840282018401855280825293909401939290918301828280156112845780601f1061125957610100808354040283529160200191611284565b820191906000526020600020905b81548152906001019060200180831161126757829003601f168201915b5050505050815250509050919050565b600091825260026020908152604083206007018054600181018255908452922090910155565b60006112cc818363ffffffff612ee416565b92915050565b6000805b6000848152600260205260409020600701546000190181101561139257600084815260026020526040902060070180548491908390811061131357fe5b9060005260206000200154141561132957600191505b811561138a57600084815260026020526040902060070180546001830190811061134f57fe5b9060005260206000200154600260008681526020019081526020016000206007018281548110151561137d57fe5b6000918252602090912001555b6001016112d6565b6000848152600260205260409020600701805460001981019081106113b357fe5b6000918252602080832090910182905585825260029052604090206007018054906113e2906000198301613e40565b5050505050565b60608060006113f7336112ba565b151561140257600080fd5b60065460408051828152602080840282010190915290801561143e57816020015b61142b613de8565b8152602001906001900390816114235790505b509150600090505b60065481101561176f576005600060068381548110151561146357fe5b6000918252602080832090910154600160a060020a03168352828101939093526040918201902081516101208101835281548152600182810180548551601f60026000199584161561010002959095019092169390930490810187900487028301870190955284825291949293858401939192918301828280156115285780601f106114fd57610100808354040283529160200191611528565b820191906000526020600020905b81548152906001019060200180831161150b57829003601f168201915b5050509183525050600282810180546040805160206001841615610100026000190190931694909404601f810183900483028501830190915280845293810193908301828280156115ba5780601f1061158f576101008083540402835291602001916115ba565b820191906000526020600020905b81548152906001019060200180831161159d57829003601f168201915b505050505081526020016003820154815260200160048201548152602001600582018054600181600116156101000203166002900480601f0160208091040260200160405190810160405280929190818152602001828054600181600116156101000203166002900480156116705780601f1061164557610100808354040283529160200191611670565b820191906000526020600020905b81548152906001019060200180831161165357829003601f168201915b5050509183525050600682015460209091019060ff16600281111561169157fe5b600281111561169c57fe5b8152600682015461010090819004600160a060020a031660208084019190915260078401805460408051600260018416159096026000190190921694909404601f8101849004840282018401855280825293909401939290918301828280156117465780601f1061171b57610100808354040283529160200191611746565b820191906000526020600020905b81548152906001019060200180831161172957829003601f168201915b505050505081525050828281518110151561175d57fe5b60209081029091010152600101611446565b50919050565b60608060006004805490506040519080825280602002602001820160405280156117b957816020015b6117a6613e64565b81526020019060019003908161179e5790505b509150600090505b60045481101561176f57600260006004838154811015156117de57fe5b9060005260206000200154815260200190815260200160002061014060405190810160405290816000820154815260200160018201548152602001600282018054600181600116156101000203166002900480601f0160208091040260200160405190810160405280929190818152602001828054600181600116156101000203166002900480156118b15780601f10611886576101008083540402835291602001916118b1565b820191906000526020600020905b81548152906001019060200180831161189457829003601f168201915b505050918352505060038201805460408051602060026001851615610100026000190190941693909304601f81018490048402820184019092528181529382019392918301828280156119455780601f1061191a57610100808354040283529160200191611945565b820191906000526020600020905b81548152906001019060200180831161192857829003601f168201915b505050918352505060048201805460408051602060026001851615610100026000190190941693909304601f81018490048402820184019092528181529382019392918301828280156119d95780601f106119ae576101008083540402835291602001916119d9565b820191906000526020600020905b8154815290600101906020018083116119bc57829003601f168201915b505050918352505060058201805460408051602060026001851615610100026000190190941693909304601f8101849004840282018401909252818152938201939291830182828015611a6d5780601f10611a4257610100808354040283529160200191611a6d565b820191906000526020600020905b815481529060010190602001808311611a5057829003601f168201915b505050918352505060068201805460408051602060026001851615610100026000190190941693909304601f8101849004840282018401909252818152938201939291830182828015611b015780601f10611ad657610100808354040283529160200191611b01565b820191906000526020600020905b815481529060010190602001808311611ae457829003601f168201915b5050505050815260200160078201805480602002602001604051908101604052809291908181526020018280548015611b5957602002820191906000526020600020905b815481526020019060010190808311611b45575b5050505050815260200160088201805480602002602001604051908101604052809291908181526020018280548015611bb157602002820191906000526020600020905b815481526020019060010190808311611b9d575b5050505050815260200160098201805480602002602001604051908101604052809291908181526020018280548015611c1357602002820191906000526020600020905b8154600160a060020a03168152600190910190602001808311611bf5575b5050505050815250508282815181101515611c2a57fe5b602090810290910101526001016117c1565b6000828152600260205260408120600801549081111561078957600083815260026020526040902060080180546000198301908110611c7757fe5b90600052602060002001546002600085815260200190815260200160002060080183815481101515611ca557fe5b9060005260206000200181905550816002600085815260200190815260200160002060080160018303815481101515611cda57fe5b6000918252602080832090910192909255848152600290915260409020600801805490611d0b906000198301613e40565b50505050565b600080805b60065481101561176f573360009081526005602081905260408220600301546006805491939185908110611d4657fe5b6000918252602080832090910154600160a060020a03168352820192909252604001902060030154148015611dc35750600260056000600684815481101515611d8b57fe5b6000918252602080832090910154600160a060020a0316835282019290925260400190206006015460ff166002811115611dc157fe5b145b15611dcf576001909101905b600101611d16565b6000811515611dfb5760405160e560020a62461bcd0281526004016105d790614e8f565b60008611611e1e5760405160e560020a62461bcd0281526004016105d790614e9f565b3360009081526005602052604090205415611e4e5760405160e560020a62461bcd0281526004016105d790614dcf565b611e5782612b97565b1515611e785760405160e560020a62461bcd0281526004016105d790614e3f565b611e8186612f1b565b9050611e96868686858588600133600061310a565b505050505050565b6000611ea9336112ba565b1515611eb457600080fd5b5060045490565b611ec4336112ba565b1515611ecf57600080fd5b600160a060020a038216600090815260056020526040902060030154611ef59083612d23565b604080518082018252600b81527f53757065722061646d696e0000000000000000000000000000000000000000006020808301918252600160a060020a0386166000908152600591829052939093209151611f54939290920191613d6e565b5060038054600101808255600160a060020a0384166000908152600560209081526040909120928301919091558251611f939260070191840190613d6e565b50600160a060020a0382166000908152600560205260409020600601805460ff19166002179055611fc382612b5c565b5050565b60009081526002602052604090206008015490565b6000611fe7336112ba565b1515611ff257600080fd5b50805b6001546000190181101561205e576001805482820190811061201357fe5b9060005260206000200160018281548110151561202c57fe5b906000526020600020019080546001816001161561010002031660029004612055929190613eb8565b50600101611ff5565b60018054600019810190811061207057fe5b9060005260206000200160006120869190613f2d565b6001805490610789906000198301613f71565b6120a1613de8565b6120a9613de8565b3360009081526005602090815260409182902082516101208101845281548152600180830180548651600293821615610100026000190190911692909204601f81018690048602830186019096528582529194929385810193919291908301828280156121575780601f1061212c57610100808354040283529160200191612157565b820191906000526020600020905b81548152906001019060200180831161213a57829003601f168201915b5050509183525050600282810180546040805160206001841615610100026000190190931694909404601f810183900483028501830190915280845293810193908301828280156121e95780601f106121be576101008083540402835291602001916121e9565b820191906000526020600020905b8154815290600101906020018083116121cc57829003601f168201915b505050505081526020016003820154815260200160048201548152602001600582018054600181600116156101000203166002900480601f01602080910402602001604051908101604052809291908181526020018280546001816001161561010002031660029004801561229f5780601f106122745761010080835404028352916020019161229f565b820191906000526020600020905b81548152906001019060200180831161228257829003601f168201915b5050509183525050600682015460209091019060ff1660028111156122c057fe5b60028111156122cb57fe5b8152600682015461010090819004600160a060020a031660208084019190915260078401805460408051600260018416159096026000190190921694909404601f8101849004840282018401855280825293909401939290918301828280156123755780601f1061234a57610100808354040283529160200191612375565b820191906000526020600020905b81548152906001019060200180831161235857829003601f168201915b50505050508152505090508091505b5090565b606060008060006060600061239e600a88612e88565b6004549095506123af90600a612ec1565b60045490945015806123c657506004546000190185115b806123d057508387115b156123da57612899565b60408051600a80825261016082019092526000945090816020015b6123fd613e64565b8152602001906001900390816123f55790505091508490505b600454811015612895576002600060048381548110151561243357fe5b9060005260206000200154815260200190815260200160002061014060405190810160405290816000820154815260200160018201548152602001600282018054600181600116156101000203166002900480601f0160208091040260200160405190810160405280929190818152602001828054600181600116156101000203166002900480156125065780601f106124db57610100808354040283529160200191612506565b820191906000526020600020905b8154815290600101906020018083116124e957829003601f168201915b505050918352505060038201805460408051602060026001851615610100026000190190941693909304601f810184900484028201840190925281815293820193929183018282801561259a5780601f1061256f5761010080835404028352916020019161259a565b820191906000526020600020905b81548152906001019060200180831161257d57829003601f168201915b505050918352505060048201805460408051602060026001851615610100026000190190941693909304601f810184900484028201840190925281815293820193929183018282801561262e5780601f106126035761010080835404028352916020019161262e565b820191906000526020600020905b81548152906001019060200180831161261157829003601f168201915b505050918352505060058201805460408051602060026001851615610100026000190190941693909304601f81018490048402820184019092528181529382019392918301828280156126c25780601f10612697576101008083540402835291602001916126c2565b820191906000526020600020905b8154815290600101906020018083116126a557829003601f168201915b505050918352505060068201805460408051602060026001851615610100026000190190941693909304601f81018490048402820184019092528181529382019392918301828280156127565780601f1061272b57610100808354040283529160200191612756565b820191906000526020600020905b81548152906001019060200180831161273957829003601f168201915b50505050508152602001600782018054806020026020016040519081016040528092919081815260200182805480156127ae57602002820191906000526020600020905b81548152602001906001019080831161279a575b505050505081526020016008820180548060200260200160405190810160405280929190818152602001828054801561280657602002820191906000526020600020905b8154815260200190600101908083116127f2575b505050505081526020016009820180548060200260200160405190810160405280929190818152602001828054801561286857602002820191906000526020600020905b8154600160a060020a0316815260019091019060200180831161284a575b505050505081525050828481518110151561287f57fe5b6020908102909101015260019283019201612416565b8195505b5050505050919050565b6005602090815260009182526040918290208054600180830180548651600293821615610100026000190190911692909204601f8101869004860283018601909652858252919492939092908301828280156129405780601f1061291557610100808354040283529160200191612940565b820191906000526020600020905b81548152906001019060200180831161292357829003601f168201915b50505060028085018054604080516020601f60001961010060018716150201909416959095049283018590048502810185019091528181529596959450909250908301828280156129d25780601f106129a7576101008083540402835291602001916129d2565b820191906000526020600020905b8154815290600101906020018083116129b557829003601f168201915b505050505090806003015490806004015490806005018054600181600116156101000203166002900480601f016020809104026020016040519081016040528092919081815260200182805460018160011615610100020316600290048015612a7c5780601f10612a5157610100808354040283529160200191612a7c565b820191906000526020600020905b815481529060010190602001808311612a5f57829003601f168201915b5050505060068301546007840180546040805160206002610100600186161581026000190190951604601f8101829004820283018201909352828252969760ff86169793909504600160a060020a031695509291830182828015612b215780601f10612af657610100808354040283529160200191612b21565b820191906000526020600020905b815481529060010190602001808311612b0457829003601f168201915b5050505050905089565b600091825260026020908152604083206008018054600181018255908452922090910155565b612b5a3361360e565b565b612b65336112ba565b1515612b7057600080fd5b61072f81613656565b600160a060020a031660009081526005602052604090206003015490565b6000908152600260205260408120541190565b600080612bb6336112ba565b1515612bc157600080fd5b60008811612be45760405160e560020a62461bcd0281526004016105d790614e9f565b50600380546001019081905560008181526002602052604090205415612c1f5760405160e560020a62461bcd0281526004016105d790614e2f565b612c2e8189898989898961369e565b979650505050505050565b60035481565b600160a060020a03818116600090815260056020526040812060060154909182918291610100909104168110612c8a5760405160e560020a62461bcd0281526004016105d790614ddf565b6002600160a060020a03851660009081526005602052604090206006015460ff166002811115612cb657fe5b14612cd65760405160e560020a62461bcd0281526004016105d790614e6f565b600160a060020a03841660009081526005602052604090206004810154815460069092015490945090925060ff166002811115612d0f57fe5b9050610f9d82898989878a878b600161310a565b6000805b60008481526002602052604090206009015460001901811015612e205760008481526002602052604090206009018054600160a060020a038516919083908110612d6d57fe5b600091825260209091200154600160a060020a03161415612d8d57600191505b8115612e18576000848152600260205260409020600901805460018301908110612db357fe5b6000918252602080832090910154868352600290915260409091206009018054600160a060020a039092169183908110612de957fe5b9060005260206000200160006101000a815481600160a060020a030219169083600160a060020a031602179055505b600101612d27565b600084815260026020526040902060090180546000198101908110612e4157fe5b60009182526020808320909101805473ffffffffffffffffffffffffffffffffffffffff1916905585825260029052604090206009018054906113e2906000198301613e40565b600080831515612e9b5760009150612eba565b50828202828482811515612eab57fe5b0414612eb657600080fd5b8091505b5092915050565b600080808311612ed057600080fd5b8284811515612edb57fe5b04949350505050565b6000600160a060020a0382161515612efb57600080fd5b50600160a060020a03166000908152602091909152604090205460ff1690565b6000808080600285061515612fad5784604051602001808281526020019150506040516020818303038152906040526040518082805190602001908083835b60208310612f795780518252601f199092019160209182019101612f5a565b6001836020036101000a03801982511681845116808217855250505050505090500191505060405180910390209250613098565b84604051602001808281526020019150506040516020818303038152906040526040518082805190602001908083835b60208310612ffc5780518252601f199092019160209182019101612fdd565b51815160209384036101000a600019018019909216911617905260408051929094018290038220828201528351808303820181529184019384905281519195509293508392850191508083835b602083106130685780518252601f199092019160209182019101613049565b6001836020036101000a038019825116818451168082178552505050505050905001915050604051809103902092505b60208110156130c5578281602081106130ad57fe5b60f860020a91901a8102049190910190600101613098565b8260206002840106602081106130d757fe5b60f860020a91901a8102048360208406602081106130f157fe5b1a60f860020a0260f860020a9004029350505050919050565b613112613de8565b600084101580613123575060028411155b15156131445760405160e560020a62461bcd0281526004016105d790614e0f565b845115156131675760405160e560020a62461bcd0281526004016105d790614daf565b600160a060020a03831660009081526005602090815260409182902082516101208101845281548152600180830180548651600293821615610100026000190190911692909204601f810186900486028301860190965285825291949293858101939192919083018282801561321e5780601f106131f35761010080835404028352916020019161321e565b820191906000526020600020905b81548152906001019060200180831161320157829003601f168201915b5050509183525050600282810180546040805160206001841615610100026000190190931694909404601f810183900483028501830190915280845293810193908301828280156132b05780601f10613285576101008083540402835291602001916132b0565b820191906000526020600020905b81548152906001019060200180831161329357829003601f168201915b505050505081526020016003820154815260200160048201548152602001600582018054600181600116156101000203166002900480601f0160208091040260200160405190810160405280929190818152602001828054600181600116156101000203166002900480156133665780601f1061333b57610100808354040283529160200191613366565b820191906000526020600020905b81548152906001019060200180831161334957829003601f168201915b5050509183525050600682015460209091019060ff16600281111561338757fe5b600281111561339257fe5b8152600682015461010090819004600160a060020a031660208084019190915260078401805460408051600260018416159096026000190190921694909404601f81018490048402820184018552808252939094019392909183018282801561343c5780601f106134115761010080835404028352916020019161343c565b820191906000526020600020905b81548152906001019060200180831161341f57829003601f168201915b505050919092525050508a8152602081018a905260408101899052606081018890526080810187905260a08101869052905083600281111561347a57fe5b8160c00190600281111561348a57fe5b9081600281111561349757fe5b905250600160a060020a03831660e0820181905260009081526005602090815260409091208251815581830151805184936134d9926001850192910190613d6e565b50604082015180516134f5916002840191602090910190613d6e565b50606082015160038201556080820151600482015560a08201518051613525916005840191602090910190613d6e565b5060c082015160068201805460ff1916600183600281111561354357fe5b021790555060e082015160068201805474ffffffffffffffffffffffffffffffffffffffff001916610100600160a060020a0390931683021790558201518051613597916007840191602090910190613d6e565b50505081151561360257600680546001810182556000919091527ff652222313e28459528d920b65115c16c04f3efc82aaedc97be59f3f377c0d3f01805473ffffffffffffffffffffffffffffffffffffffff1916600160a060020a03851617905561360287613c94565b50505050505050505050565b61361f60008263ffffffff613cd416565b604051600160a060020a038216907f3525e22824a8a7df2c9a6029941c824cf95b6447f1e13d5128fd3826d35afe8b90600090a250565b61366760008263ffffffff613d2016565b604051600160a060020a038216907f47d1c22a25bb3a5d4e481b9b1e6944c2eade3181a0a20b495ed61d35b5323f2490600090a250565b6136a6613e64565b855115156136c95760405160e560020a62461bcd0281526004016105d790614e7f565b825115156136ec5760405160e560020a62461bcd0281526004016105d790614e5f565b8151151561370f5760405160e560020a62461bcd0281526004016105d790614e4f565b6000888152600260208181526040928390208351610140810185528154815260018083015482850152828501805487519281161561010002600019011695909504601f810185900485028201850187528082529195929492860193909291908301828280156137bf5780601f10613794576101008083540402835291602001916137bf565b820191906000526020600020905b8154815290600101906020018083116137a257829003601f168201915b505050918352505060038201805460408051602060026001851615610100026000190190941693909304601f81018490048402820184019092528181529382019392918301828280156138535780601f1061382857610100808354040283529160200191613853565b820191906000526020600020905b81548152906001019060200180831161383657829003601f168201915b505050918352505060048201805460408051602060026001851615610100026000190190941693909304601f81018490048402820184019092528181529382019392918301828280156138e75780601f106138bc576101008083540402835291602001916138e7565b820191906000526020600020905b8154815290600101906020018083116138ca57829003601f168201915b505050918352505060058201805460408051602060026001851615610100026000190190941693909304601f810184900484028201840190925281815293820193929183018282801561397b5780601f106139505761010080835404028352916020019161397b565b820191906000526020600020905b81548152906001019060200180831161395e57829003601f168201915b505050918352505060068201805460408051602060026001851615610100026000190190941693909304601f8101849004840282018401909252818152938201939291830182828015613a0f5780601f106139e457610100808354040283529160200191613a0f565b820191906000526020600020905b8154815290600101906020018083116139f257829003601f168201915b5050505050815260200160078201805480602002602001604051908101604052809291908181526020018280548015613a6757602002820191906000526020600020905b815481526020019060010190808311613a53575b5050505050815260200160088201805480602002602001604051908101604052809291908181526020018280548015613abf57602002820191906000526020600020905b815481526020019060010190808311613aab575b5050505050815260200160098201805480602002602001604051908101604052809291908181526020018280548015613b2157602002820191906000526020600020905b8154600160a060020a03168152600190910190602001808311613b03575b50505091909252505050888152602080820189815260408084018a8152606085018a90526080850189905260a0850188905260c0850187905260008d81526002808652929020855181559251600184015551805194955085949293613b8c9392850192910190613d6e565b5060608201518051613ba8916003840191602090910190613d6e565b5060808201518051613bc4916004840191602090910190613d6e565b5060a08201518051613be0916005840191602090910190613d6e565b5060c08201518051613bfc916006840191602090910190613d6e565b5060e08201518051613c18916007840191602090910190613f95565b506101008201518051613c35916008840191602090910190613f95565b506101208201518051613c52916009840191602090910190613fcf565b5050600480546001810182556000919091527f8a35acfbc15ff81a39ae7d344fd709f28e8600b4aa8c65c6b64bfe7fe36bd19b01989098555050505050505050565b600090815260026020908152604082206009018054600181018255908352912001805473ffffffffffffffffffffffffffffffffffffffff191633179055565b600160a060020a0381161515613ce957600080fd5b613cf38282612ee4565b1515613cfe57600080fd5b600160a060020a0316600090815260209190915260409020805460ff19169055565b600160a060020a0381161515613d3557600080fd5b613d3f8282612ee4565b15613d4957600080fd5b600160a060020a0316600090815260209190915260409020805460ff19166001179055565b828054600181600116156101000203166002900490600052602060002090601f016020900481019282601f10613daf57805160ff1916838001178555613ddc565b82800160010185558215613ddc579182015b82811115613ddc578251825591602001919060010190613dc1565b5061238492915061403d565b6101206040519081016040528060008152602001606081526020016060815260200160008152602001600081526020016060815260200160006002811115613e2c57fe5b815260006020820152606060409091015290565b8154818355818111156107895760008381526020902061078991810190830161403d565b61014060405190810160405280600081526020016000815260200160608152602001606081526020016060815260200160608152602001606081526020016060815260200160608152602001606081525090565b828054600181600116156101000203166002900490600052602060002090601f016020900481019282601f10613ef15780548555613ddc565b82800160010185558215613ddc57600052602060002091601f016020900482015b82811115613ddc578254825591600101919060010190613f12565b50805460018160011615610100020316600290046000825580601f10613f53575061072f565b601f01602090049060005260206000209081019061072f919061403d565b81548183558181111561078957600083815260209020610789918101908301614057565b828054828255906000526020600020908101928215613ddc5791602002820182811115613ddc578251825591602001919060010190613dc1565b828054828255906000526020600020908101928215614031579160200282015b82811115614031578251825473ffffffffffffffffffffffffffffffffffffffff1916600160a060020a03909116178255602090920191600190910190613fef565b5061238492915061407a565b610ed991905b808211156123845760008155600101614043565b610ed991905b808211156123845760006140718282613f2d565b5060010161405d565b610ed991905b8082111561238457805473ffffffffffffffffffffffffffffffffffffffff19168155600101614080565b60006140b78235614fc8565b9392505050565b6000601f820183136140cf57600080fd5b81356140e26140dd82614f96565b614f6f565b915080825260208301602083018583830111156140fe57600080fd5b614109838284614ff0565b50505092915050565b60006140b78235610ed9565b60006020828403121561413057600080fd5b600061413c84846140ab565b949350505050565b6000806040838503121561415757600080fd5b600061416385856140ab565b925050602083013567ffffffffffffffff81111561418057600080fd5b61418c858286016140be565b9150509250929050565b6000602082840312156141a857600080fd5b813567ffffffffffffffff8111156141bf57600080fd5b61413c848285016140be565b600080600080600060a086880312156141e357600080fd5b853567ffffffffffffffff8111156141fa57600080fd5b614206888289016140be565b955050602086013567ffffffffffffffff81111561422357600080fd5b61422f888289016140be565b945050604061424088828901614112565b935050606086013567ffffffffffffffff81111561425d57600080fd5b614269888289016140be565b925050608061427a888289016140ab565b9150509295509295909350565b60006020828403121561429957600080fd5b600061413c8484614112565b60008060008060008060c087890312156142be57600080fd5b60006142ca8989614112565b965050602087013567ffffffffffffffff8111156142e757600080fd5b6142f389828a016140be565b955050604087013567ffffffffffffffff81111561431057600080fd5b61431c89828a016140be565b945050606087013567ffffffffffffffff81111561433957600080fd5b61434589828a016140be565b935050608087013567ffffffffffffffff81111561436257600080fd5b61436e89828a016140be565b92505060a087013567ffffffffffffffff81111561438b57600080fd5b61439789828a016140be565b9150509295509295509295565b600080600080600060a086880312156143bc57600080fd5b60006143c88888614112565b955050602086013567ffffffffffffffff8111156143e557600080fd5b6143f1888289016140be565b945050604086013567ffffffffffffffff81111561440e57600080fd5b61441a888289016140be565b935050606086013567ffffffffffffffff81111561443757600080fd5b614443888289016140be565b925050608061427a88828901614112565b6000806040838503121561446757600080fd5b60006144738585614112565b925050602061418c85828601614112565b600080600080600080600060e0888a03121561449f57600080fd5b60006144ab8a8a614112565b97505060206144bc8a828b01614112565b965050604088013567ffffffffffffffff8111156144d957600080fd5b6144e58a828b016140be565b955050606088013567ffffffffffffffff81111561450257600080fd5b61450e8a828b016140be565b945050608088013567ffffffffffffffff81111561452b57600080fd5b6145378a828b016140be565b93505060a088013567ffffffffffffffff81111561455457600080fd5b6145608a828b016140be565b92505060c088013567ffffffffffffffff81111561457d57600080fd5b6145898a828b016140be565b91505092959891949750929550565b6145a181614fc8565b82525050565b60006145b282614fc4565b8084526020840193506145c483614fbe565b60005b828110156145f4576145da868351614598565b6145e382614fbe565b6020969096019591506001016145c7565b5093949350505050565b600061460982614fc4565b8084526020840193508360208202850161462285614fbe565b60005b8481101561465957838303885261463d8383516147c7565b925061464882614fbe565b602098909801979150600101614625565b50909695505050505050565b600061467082614fc4565b8084526020840193508360208202850161468985614fbe565b60005b848110156146595783830388526146a4838351614b78565b92506146af82614fbe565b60209890980197915060010161468c565b60006146cb82614fc4565b808452602084019350836020820285016146e485614fbe565b60005b848110156146595783830388526146ff838351614c7b565b925061470a82614fbe565b6020989098019791506001016146e7565b600061472682614fc4565b80845260208401935061473883614fbe565b60005b828110156145f45761474e868351614d44565b61475782614fbe565b60209690960195915060010161473b565b600061477382614fc4565b80845260208401935061478583614fbe565b60005b828110156145f45761479b868351614d44565b6147a482614fbe565b602096909601959150600101614788565b6145a181614fd4565b6145a181614fe5565b60006147d282614fc4565b8084526147e6816020860160208601614ffc565b6147ef81615028565b9093016020019392505050565b601a81527f4372656174696f6e204461746520697320696e6d757461626c65000000000000602082015260400190565b601181527f726f6c65206973206d616e6461746f7279000000000000000000000000000000602082015260400190565b602281527f4f6e6c792070656e64696e672075736572732063616e2062652061636365707460208201527f6564000000000000000000000000000000000000000000000000000000000000604082015260600190565b601381527f5573657220616c72656164792065786973747300000000000000000000000000602082015260400190565b601481527f546869732075736572206e6f7420657869737473000000000000000000000000602082015260400190565b601b81527f596f752063616e6e6f7420616363657074207468697320757365720000000000602082015260400190565b602281527f4f6e6c792070656e64696e672075736572732063616e2062652072656a65637460208201527f6564000000000000000000000000000000000000000000000000000000000000604082015260600190565b601381527f737461747573206973206e6f742076616c696400000000000000000000000000602082015260400190565b601181527f6d656d626572206e6f7420657869737473000000000000000000000000000000602082015260400190565b601581527f4d656d62657220616c7265616479206578697374730000000000000000000000602082015260400190565b601181527f4d656d626572206e6f7420657869737473000000000000000000000000000000602082015260400190565b601281527f5468656d65206973206d616e6461746f72790000000000000000000000000000602082015260400190565b601081527f434d4f206973206d616e6461746f727900000000000000000000000000000000602082015260400190565b601481527f596f7520617265206e6f74206163636570746564000000000000000000000000602082015260400190565b601181527f4e616d65206973206d616e6461746f7279000000000000000000000000000000602082015260400190565b601181527f4e6f2076616c6964206d656d6265724964000000000000000000000000000000602082015260400190565b601981527f4372656174696f6e44617465206973206d616e6461746f727900000000000000602082015260400190565b8051600090610140840190614b8d8582614d44565b506020830151614ba06020860182614d44565b5060408301518482036040860152614bb882826147c7565b91505060608301518482036060860152614bd282826147c7565b91505060808301518482036080860152614bec82826147c7565b91505060a083015184820360a0860152614c0682826147c7565b91505060c083015184820360c0860152614c2082826147c7565b91505060e083015184820360e0860152614c3a8282614768565b915050610100830151848203610100860152614c568282614768565b915050610120830151848203610120860152614c7282826145a7565b95945050505050565b8051600090610120840190614c908582614d44565b5060208301518482036020860152614ca882826147c7565b91505060408301518482036040860152614cc282826147c7565b9150506060830151614cd76060860182614d44565b506080830151614cea6080860182614d44565b5060a083015184820360a0860152614d0282826147c7565b91505060c0830151614d1760c08601826147be565b5060e0830151614d2a60e0860182614598565b50610100830151848203610100860152614c7282826147c7565b6145a181610ed9565b602080825281016140b781846145fe565b602080825281016140b78184614665565b602080825281016140b781846146c0565b602080825281016140b7818461471b565b602081016112cc82846147b5565b602080825281016112cc816147fc565b602080825281016112cc8161482c565b602080825281016112cc8161485c565b602080825281016112cc816148b2565b602080825281016112cc816148e2565b602080825281016112cc81614912565b602080825281016112cc81614942565b602080825281016112cc81614998565b602080825281016112cc816149c8565b602080825281016112cc816149f8565b602080825281016112cc81614a28565b602080825281016112cc81614a58565b602080825281016112cc81614a88565b602080825281016112cc81614ab8565b602080825281016112cc81614ae8565b602080825281016112cc81614b18565b602080825281016112cc81614b48565b602080825281016140b78184614c7b565b602081016112cc8284614d44565b6101208101614edd828c614d44565b8181036020830152614eef818b6147c7565b90508181036040830152614f03818a6147c7565b9050614f126060830189614d44565b614f1f6080830188614d44565b81810360a0830152614f3181876147c7565b9050614f4060c08301866147be565b614f4d60e0830185614598565b818103610100830152614f6081846147c7565b9b9a5050505050505050505050565b60405181810167ffffffffffffffff81118282101715614f8e57600080fd5b604052919050565b600067ffffffffffffffff821115614fad57600080fd5b506020601f91909101601f19160190565b60200190565b5190565b600160a060020a031690565b151590565b60006003821061238457fe5b60006112cc82614fd9565b82818337506000910152565b60005b83811015615017578181015183820152602001614fff565b83811115611d0b5750506000910152565b601f01601f1916905600a265627a7a72305820db3feb5993a93689e96b4cfdca9875c25caa09982ef2204cb4b1e68d8052a1a86c6578706572696d656e74616cf50037",
  "source": "pragma solidity ^0.4.24;\npragma experimental ABIEncoderV2;\n\nimport \"./Members.sol\";\nimport \"./Claims.sol\";\n\ncontract Users is Members {\n\n  struct User {\n    uint256 creationDate;\n    string firstName;\n    string lastName;\n    uint256 memberId;\n    uint256 requestId;\n    string role;\n    StatusUserEnum status;\n    address owner;\n    string cmo;\n  }\n\n  enum StatusUserEnum {\n    REJECTED,\n    PENDING,\n    ACCEPTED\n  }\n\n  mapping (address => User) public users_;\n  address[] private usersList_;\n\n  uint256 constant private PAGE_SIZE = 10;\n\n  // PUBLIC\n\n  function registerUserRequest(uint256 _creationDate, string _firstName, string _lastName, string _role, uint256 _memberId) public {\n\n    require(_memberId != 0, \"No valid memberId\");\n    require(_creationDate > 0, \"CreationDate is mandatory\");\n    require(users_[msg.sender].creationDate == 0, \"User already exists\");\n    require(_memberExists(_memberId), \"Member not exists\");\n\n    uint256 _requestId = Random.rand(_creationDate);\n    _saveUser(_creationDate, _firstName, _lastName, _memberId, _requestId, _role, uint256(StatusUserEnum.PENDING), msg.sender, 0);\n  }\n\n  function updateUser(string _firstName, string _lastName, uint256 _memberId, string _role, address owner) public {\n\n    require(users_[owner].owner > address(0), \"This user not exists\");\n    require(uint(users_[owner].status) == uint(StatusUserEnum.ACCEPTED), \"You are not accepted\");\n\n    uint256 _requestId = users_[owner].requestId;\n    uint256 _creationDate = users_[owner].creationDate;\n    uint256 _status = uint(users_[owner].status);\n\n    _saveUser(_creationDate, _firstName, _lastName, _memberId, _requestId, _role, _status, owner, 1);\n  }\n\n  function rejectUser(address _userToReject) public {\n\n    require(users_[_userToReject].owner > address(0), \"This user not exists\");\n    require((users_[msg.sender].memberId == users_[_userToReject].memberId) || isSigner(msg.sender), \"You cannot accept this user\");\n    require((uint(users_[msg.sender].status) == uint(StatusUserEnum.ACCEPTED)) || isSigner(msg.sender), \"You are not accepted\");\n    require(users_[_userToReject].status == StatusUserEnum.PENDING, \"Only pending users can be rejected\");\n\n    users_[_userToReject].status = StatusUserEnum.REJECTED;\n    _clearUserFromMemberRequest(users_[_userToReject].memberId, _userToReject);\n  }\n\n  function acceptUser(address _userToAccept) public {\n\n    require(users_[_userToAccept].owner > address(0), \"This user not exists\");\n    require((users_[msg.sender].memberId == users_[_userToAccept].memberId) || isSigner(msg.sender), \"You cannot accept this user\");\n    require((uint(users_[msg.sender].status) == uint(StatusUserEnum.ACCEPTED)) || isSigner(msg.sender), \"You are not accepted\");\n    require(users_[_userToAccept].status == StatusUserEnum.PENDING, \"Only pending users can be accepted\");\n\n    users_[_userToAccept].status = StatusUserEnum.ACCEPTED;\n    _clearUserFromMemberRequest(users_[_userToAccept].memberId, _userToAccept);\n  }\n\n  function getcountUsers() public view returns(uint) {\n    uint256 counter = 0;\n    for (uint i = 0; i < usersList_.length; ++i) {\n      if(users_[usersList_[i]].memberId == users_[msg.sender].memberId\n        && users_[usersList_[i]].status == StatusUserEnum.ACCEPTED) {\n        counter++;\n      }\n    }\n    return counter;\n  }\n\n  function whitelistAdmin(address account, string _cmo) public onlySigner {\n    _clearUserFromMemberRequest(users_[account].memberId, account);\n    users_[account].role = \"Super admin\";\n    users_[account].memberId = ++memberIdCounter_;\n    users_[account].cmo = _cmo;\n    users_[account].status = StatusUserEnum.ACCEPTED;\n    addSigner(account);\n\n  }\n\n  function getUsers(uint256 _page) public view returns(User[] memory) {\n    uint256 counter = getcountUsers();\n\n    uint256 pageIndex = SafeMath.mul(PAGE_SIZE, _page);\n    uint256 pageNumber = SafeMath.div(usersList_.length, PAGE_SIZE);\n\n    if (counter == 0 || pageIndex > counter || _page > pageNumber) {\n      return;\n    }\n\n    User[] memory userPageBasic = new User[](PAGE_SIZE);\n    uint256 counterFinal = 0;\n\n    for (uint j = pageIndex; j < usersList_.length; ++j) {\n      if(users_[usersList_[j]].memberId == users_[msg.sender].memberId\n        && users_[usersList_[j]].status == StatusUserEnum.ACCEPTED) {\n        userPageBasic[counterFinal] = users_[usersList_[j]];\n        ++counterFinal;\n      }\n    }\n    return userPageBasic;\n  }\n\n  function getUserByAddress(address userAddress) public view returns(User memory) {\n    return users_[userAddress];\n  }\n\n  function getUsersOwner() onlySigner public view returns(User[] memory) {\n    User[] memory userPageOwner = new User[](usersList_.length);\n\n    for (uint i = 0; i < usersList_.length; ++i) {\n      userPageOwner[i] = users_[usersList_[i]];\n    }\n\n    return userPageOwner;\n  }\n\n  function getMe() public view returns(User) {\n    //TODO: require\n    User memory user = users_[msg.sender];\n    return user;\n  }\n\n  // PRIVATE\n\n  function _saveUser(uint256 _creationDate, string _firstName, string _lastName, uint256 _memberId,\n    uint256 _requestId, string _role, uint256 _status, address owner, uint isCreate) internal {\n\n    require(_status >= 0 || _status <=2, \"status is not valid\");\n    require(bytes(_role).length != 0, \"role is mandatory\");\n\n    User memory user = users_[owner];\n\n    user.creationDate =  _creationDate;\n    user.firstName =  _firstName;\n    user.lastName =  _lastName;\n    user.memberId =  _memberId;\n    user.requestId =  _requestId;\n    user.role = _role;\n    user.status = StatusUserEnum(_status);\n    user.owner = owner;\n\n    users_[owner] = user;\n\n    if(isCreate == 0) {\n      usersList_.push(owner);\n      _addUserToMemberRequest(_memberId);\n    }\n  }\n\n  function _memberIdFromCurrentAddress(address addr) view public returns(uint256) {\n    return users_[addr].memberId;\n  }\n\n}\n",
  "sourcePath": "/home/komodo/newUI2/bloomen-decentralized-rights-management-v2/truffle/contracts/registry/Users.sol",
  "compiler": {
    "name": "solc",
    "version": "0.4.24+commit.e67f0147.Emscripten.clang"
  },
  "schemaVersion": "2.0.1",
  "updatedAt": "2020-02-04T06:57:55.701Z"
}