{
  "contractName": "Users",
  "abi": [
    {
      "constant": false,
      "inputs": [
        {
          "name": "_cmo",
          "type": "string"
        }
      ],
      "name": "addCMO",
      "outputs": [],
      "payable": false,
      "stateMutability": "nonpayable",
      "type": "function"
    },
    {
      "constant": true,
      "inputs": [
        {
          "name": "_memberId",
          "type": "uint256"
        }
      ],
      "name": "_getClaimsIdByMember",
      "outputs": [
        {
          "name": "",
          "type": "uint256[]"
        }
      ],
      "payable": false,
      "stateMutability": "view",
      "type": "function"
    },
    {
      "constant": true,
      "inputs": [],
      "name": "getCMOs",
      "outputs": [
        {
          "name": "",
          "type": "string[]"
        }
      ],
      "payable": false,
      "stateMutability": "view",
      "type": "function"
    },
    {
      "constant": false,
      "inputs": [
        {
          "name": "_memberId",
          "type": "uint256"
        },
        {
          "name": "_claimId",
          "type": "uint256"
        }
      ],
      "name": "_addClaimFromInbox",
      "outputs": [],
      "payable": false,
      "stateMutability": "nonpayable",
      "type": "function"
    },
    {
      "constant": true,
      "inputs": [
        {
          "name": "account",
          "type": "address"
        }
      ],
      "name": "isSigner",
      "outputs": [
        {
          "name": "",
          "type": "bool"
        }
      ],
      "payable": false,
      "stateMutability": "view",
      "type": "function"
    },
    {
      "constant": false,
      "inputs": [
        {
          "name": "_memberId",
          "type": "uint256"
        },
        {
          "name": "_claimId",
          "type": "uint256"
        }
      ],
      "name": "_removeClaimFromInbox",
      "outputs": [],
      "payable": false,
      "stateMutability": "nonpayable",
      "type": "function"
    },
    {
      "constant": false,
      "inputs": [
        {
          "name": "currentCMO",
          "type": "string"
        },
        {
          "name": "currentCMOId",
          "type": "uint256"
        }
      ],
      "name": "_getMemberIdsOfCurrentCMO",
      "outputs": [
        {
          "name": "",
          "type": "uint256[]"
        }
      ],
      "payable": false,
      "stateMutability": "nonpayable",
      "type": "function"
    },
    {
      "constant": true,
      "inputs": [],
      "name": "getMembers",
      "outputs": [
        {
          "components": [
            {
              "name": "memberId",
              "type": "uint256"
            },
            {
              "name": "creationDate",
              "type": "uint256"
            },
            {
              "name": "name",
              "type": "string"
            },
            {
              "name": "logo",
              "type": "string"
            },
            {
              "name": "country",
              "type": "string"
            },
            {
              "name": "cmo",
              "type": "string"
            },
            {
              "name": "theme",
              "type": "string"
            },
            {
              "name": "claimInbox",
              "type": "uint256[]"
            },
            {
              "name": "claims",
              "type": "uint256[]"
            },
            {
              "name": "userRequests",
              "type": "address[]"
            },
            {
              "name": "totalTokens",
              "type": "uint256"
            }
          ],
          "name": "",
          "type": "tuple[]"
        }
      ],
      "payable": false,
      "stateMutability": "view",
      "type": "function"
    },
    {
      "constant": true,
      "inputs": [],
      "name": "getCount",
      "outputs": [
        {
          "name": "",
          "type": "uint256"
        }
      ],
      "payable": false,
      "stateMutability": "view",
      "type": "function"
    },
    {
      "constant": true,
      "inputs": [
        {
          "name": "_memberId",
          "type": "uint256"
        }
      ],
      "name": "_getClaimsCountByMember",
      "outputs": [
        {
          "name": "",
          "type": "uint256"
        }
      ],
      "payable": false,
      "stateMutability": "view",
      "type": "function"
    },
    {
      "constant": false,
      "inputs": [
        {
          "name": "_memberId",
          "type": "uint256"
        },
        {
          "name": "_claimId",
          "type": "uint256"
        }
      ],
      "name": "_removeClaimFromMember",
      "outputs": [],
      "payable": false,
      "stateMutability": "nonpayable",
      "type": "function"
    },
    {
      "constant": false,
      "inputs": [
        {
          "name": "_index",
          "type": "uint256"
        }
      ],
      "name": "deleteCMO",
      "outputs": [],
      "payable": false,
      "stateMutability": "nonpayable",
      "type": "function"
    },
    {
      "constant": false,
      "inputs": [
        {
          "name": "_memberId",
          "type": "uint256"
        },
        {
          "name": "newInbox",
          "type": "uint256[]"
        }
      ],
      "name": "updateMemberClaimInbox",
      "outputs": [],
      "payable": false,
      "stateMutability": "nonpayable",
      "type": "function"
    },
    {
      "constant": true,
      "inputs": [
        {
          "name": "_page",
          "type": "uint256"
        }
      ],
      "name": "getMembers",
      "outputs": [
        {
          "components": [
            {
              "name": "memberId",
              "type": "uint256"
            },
            {
              "name": "creationDate",
              "type": "uint256"
            },
            {
              "name": "name",
              "type": "string"
            },
            {
              "name": "logo",
              "type": "string"
            },
            {
              "name": "country",
              "type": "string"
            },
            {
              "name": "cmo",
              "type": "string"
            },
            {
              "name": "theme",
              "type": "string"
            },
            {
              "name": "claimInbox",
              "type": "uint256[]"
            },
            {
              "name": "claims",
              "type": "uint256[]"
            },
            {
              "name": "userRequests",
              "type": "address[]"
            },
            {
              "name": "totalTokens",
              "type": "uint256"
            }
          ],
          "name": "",
          "type": "tuple[]"
        }
      ],
      "payable": false,
      "stateMutability": "view",
      "type": "function"
    },
    {
      "constant": false,
      "inputs": [
        {
          "name": "_memberId",
          "type": "uint256"
        },
        {
          "name": "_creationDate",
          "type": "uint256"
        },
        {
          "name": "_name",
          "type": "string"
        },
        {
          "name": "_logo",
          "type": "string"
        },
        {
          "name": "_country",
          "type": "string"
        },
        {
          "name": "_cmo",
          "type": "string"
        },
        {
          "name": "_theme",
          "type": "string"
        },
        {
          "name": "_totalTokens",
          "type": "uint256"
        }
      ],
      "name": "updateMember",
      "outputs": [],
      "payable": false,
      "stateMutability": "nonpayable",
      "type": "function"
    },
    {
      "constant": false,
      "inputs": [
        {
          "name": "_memberId",
          "type": "uint256"
        },
        {
          "name": "_claimId",
          "type": "uint256"
        }
      ],
      "name": "_addClaimIdToMemberOwner",
      "outputs": [],
      "payable": false,
      "stateMutability": "nonpayable",
      "type": "function"
    },
    {
      "constant": false,
      "inputs": [],
      "name": "renounceSigner",
      "outputs": [],
      "payable": false,
      "stateMutability": "nonpayable",
      "type": "function"
    },
    {
      "constant": false,
      "inputs": [
        {
          "name": "account",
          "type": "address"
        }
      ],
      "name": "addSigner",
      "outputs": [],
      "payable": false,
      "stateMutability": "nonpayable",
      "type": "function"
    },
    {
      "constant": true,
      "inputs": [
        {
          "name": "_memberId",
          "type": "uint256"
        }
      ],
      "name": "_memberExists",
      "outputs": [
        {
          "name": "",
          "type": "bool"
        }
      ],
      "payable": false,
      "stateMutability": "view",
      "type": "function"
    },
    {
      "constant": false,
      "inputs": [
        {
          "name": "_creationDate",
          "type": "uint256"
        },
        {
          "name": "_name",
          "type": "string"
        },
        {
          "name": "_logo",
          "type": "string"
        },
        {
          "name": "_country",
          "type": "string"
        },
        {
          "name": "_cmo",
          "type": "string"
        },
        {
          "name": "_theme",
          "type": "string"
        }
      ],
      "name": "addMember",
      "outputs": [
        {
          "name": "",
          "type": "uint256"
        }
      ],
      "payable": false,
      "stateMutability": "nonpayable",
      "type": "function"
    },
    {
      "anonymous": false,
      "inputs": [
        {
          "indexed": true,
          "name": "account",
          "type": "address"
        }
      ],
      "name": "SignerAdded",
      "type": "event"
    },
    {
      "anonymous": false,
      "inputs": [
        {
          "indexed": true,
          "name": "account",
          "type": "address"
        }
      ],
      "name": "SignerRemoved",
      "type": "event"
    },
    {
      "constant": false,
      "inputs": [
        {
          "name": "_creationDate",
          "type": "uint256"
        },
        {
          "name": "_firstName",
          "type": "string"
        },
        {
          "name": "_lastName",
          "type": "string"
        },
        {
          "name": "_role",
          "type": "string"
        },
        {
          "name": "_memberId",
          "type": "uint256"
        },
        {
          "name": "_kycData",
          "type": "string"
        }
      ],
      "name": "registerUserRequest",
      "outputs": [],
      "payable": false,
      "stateMutability": "nonpayable",
      "type": "function"
    },
    {
      "constant": false,
      "inputs": [
        {
          "name": "_firstName",
          "type": "string"
        },
        {
          "name": "_lastName",
          "type": "string"
        },
        {
          "name": "_memberId",
          "type": "uint256"
        },
        {
          "name": "_role",
          "type": "string"
        },
        {
          "name": "owner",
          "type": "address"
        },
        {
          "name": "_tokens",
          "type": "uint256"
        },
        {
          "name": "_kycData",
          "type": "string"
        }
      ],
      "name": "updateUser",
      "outputs": [],
      "payable": false,
      "stateMutability": "nonpayable",
      "type": "function"
    },
    {
      "constant": true,
      "inputs": [
        {
          "name": "_memberId",
          "type": "uint256"
        }
      ],
      "name": "getUsedTokens",
      "outputs": [
        {
          "name": "",
          "type": "uint256"
        }
      ],
      "payable": false,
      "stateMutability": "view",
      "type": "function"
    },
    {
      "constant": false,
      "inputs": [
        {
          "name": "_firstName",
          "type": "string"
        },
        {
          "name": "_lastName",
          "type": "string"
        },
        {
          "name": "_memberId",
          "type": "uint256"
        },
        {
          "name": "_role",
          "type": "string"
        },
        {
          "name": "owner",
          "type": "address"
        },
        {
          "name": "_groups",
          "type": "string[]"
        }
      ],
      "name": "updateSuperUser",
      "outputs": [],
      "payable": false,
      "stateMutability": "nonpayable",
      "type": "function"
    },
    {
      "constant": false,
      "inputs": [
        {
          "name": "_userToReject",
          "type": "address"
        }
      ],
      "name": "rejectUser",
      "outputs": [],
      "payable": false,
      "stateMutability": "nonpayable",
      "type": "function"
    },
    {
      "constant": false,
      "inputs": [
        {
          "name": "_userToAccept",
          "type": "address"
        }
      ],
      "name": "acceptUser",
      "outputs": [],
      "payable": false,
      "stateMutability": "nonpayable",
      "type": "function"
    },
    {
      "constant": true,
      "inputs": [],
      "name": "getcountUsers",
      "outputs": [
        {
          "name": "",
          "type": "uint256"
        }
      ],
      "payable": false,
      "stateMutability": "view",
      "type": "function"
    },
    {
      "constant": false,
      "inputs": [
        {
          "name": "account",
          "type": "address"
        },
        {
          "name": "_cmo",
          "type": "string"
        }
      ],
      "name": "whitelistAdmin",
      "outputs": [],
      "payable": false,
      "stateMutability": "nonpayable",
      "type": "function"
    },
    {
      "constant": true,
      "inputs": [
        {
          "name": "_page",
          "type": "uint256"
        }
      ],
      "name": "getUsers",
      "outputs": [
        {
          "components": [
            {
              "name": "creationDate",
              "type": "uint256"
            },
            {
              "name": "firstName",
              "type": "string"
            },
            {
              "name": "lastName",
              "type": "string"
            },
            {
              "name": "memberId",
              "type": "uint256"
            },
            {
              "name": "requestId",
              "type": "uint256"
            },
            {
              "name": "role",
              "type": "string"
            },
            {
              "name": "status",
              "type": "uint8"
            },
            {
              "name": "owner",
              "type": "address"
            },
            {
              "name": "cmo",
              "type": "string"
            },
            {
              "name": "groups",
              "type": "string[]"
            },
            {
              "name": "tokens",
              "type": "uint256"
            },
            {
              "name": "kycData",
              "type": "string"
            }
          ],
          "name": "",
          "type": "tuple[]"
        }
      ],
      "payable": false,
      "stateMutability": "view",
      "type": "function"
    },
    {
      "constant": true,
      "inputs": [
        {
          "name": "userAddress",
          "type": "address"
        }
      ],
      "name": "getUserByAddress",
      "outputs": [
        {
          "components": [
            {
              "name": "creationDate",
              "type": "uint256"
            },
            {
              "name": "firstName",
              "type": "string"
            },
            {
              "name": "lastName",
              "type": "string"
            },
            {
              "name": "memberId",
              "type": "uint256"
            },
            {
              "name": "requestId",
              "type": "uint256"
            },
            {
              "name": "role",
              "type": "string"
            },
            {
              "name": "status",
              "type": "uint8"
            },
            {
              "name": "owner",
              "type": "address"
            },
            {
              "name": "cmo",
              "type": "string"
            },
            {
              "name": "groups",
              "type": "string[]"
            },
            {
              "name": "tokens",
              "type": "uint256"
            },
            {
              "name": "kycData",
              "type": "string"
            }
          ],
          "name": "",
          "type": "tuple"
        }
      ],
      "payable": false,
      "stateMutability": "view",
      "type": "function"
    },
    {
      "constant": true,
      "inputs": [],
      "name": "getUsersOwner",
      "outputs": [
        {
          "components": [
            {
              "name": "creationDate",
              "type": "uint256"
            },
            {
              "name": "firstName",
              "type": "string"
            },
            {
              "name": "lastName",
              "type": "string"
            },
            {
              "name": "memberId",
              "type": "uint256"
            },
            {
              "name": "requestId",
              "type": "uint256"
            },
            {
              "name": "role",
              "type": "string"
            },
            {
              "name": "status",
              "type": "uint8"
            },
            {
              "name": "owner",
              "type": "address"
            },
            {
              "name": "cmo",
              "type": "string"
            },
            {
              "name": "groups",
              "type": "string[]"
            },
            {
              "name": "tokens",
              "type": "uint256"
            },
            {
              "name": "kycData",
              "type": "string"
            }
          ],
          "name": "",
          "type": "tuple[]"
        }
      ],
      "payable": false,
      "stateMutability": "view",
      "type": "function"
    },
    {
      "constant": true,
      "inputs": [],
      "name": "getMe",
      "outputs": [
        {
          "components": [
            {
              "name": "creationDate",
              "type": "uint256"
            },
            {
              "name": "firstName",
              "type": "string"
            },
            {
              "name": "lastName",
              "type": "string"
            },
            {
              "name": "memberId",
              "type": "uint256"
            },
            {
              "name": "requestId",
              "type": "uint256"
            },
            {
              "name": "role",
              "type": "string"
            },
            {
              "name": "status",
              "type": "uint8"
            },
            {
              "name": "owner",
              "type": "address"
            },
            {
              "name": "cmo",
              "type": "string"
            },
            {
              "name": "groups",
              "type": "string[]"
            },
            {
              "name": "tokens",
              "type": "uint256"
            },
            {
              "name": "kycData",
              "type": "string"
            }
          ],
          "name": "",
          "type": "tuple"
        }
      ],
      "payable": false,
      "stateMutability": "view",
      "type": "function"
    },
    {
      "constant": true,
      "inputs": [
        {
          "name": "addr",
          "type": "address"
        }
      ],
      "name": "_memberIdFromCurrentAddress",
      "outputs": [
        {
          "name": "",
          "type": "uint256"
        }
      ],
      "payable": false,
      "stateMutability": "view",
      "type": "function"
    },
    {
      "constant": false,
      "inputs": [
        {
          "name": "addr",
          "type": "address"
        },
        {
          "name": "transactionPrice",
          "type": "uint256"
        }
      ],
      "name": "updateTokens",
      "outputs": [],
      "payable": false,
      "stateMutability": "nonpayable",
      "type": "function"
    },
    {
      "constant": true,
      "inputs": [
        {
          "name": "addr",
          "type": "address"
        }
      ],
      "name": "getUserTokensByAddress",
      "outputs": [
        {
          "name": "",
          "type": "uint256"
        }
      ],
      "payable": false,
      "stateMutability": "view",
      "type": "function"
    }
  ],
  "bytecode": "0x608060405260006003556200001d3364010000000062000023810204565b62000108565b6200003e60008264010000000062004b1c6200007582021704565b604051600160a060020a038216907f47d1c22a25bb3a5d4e481b9b1e6944c2eade3181a0a20b495ed61d35b5323f2490600090a250565b600160a060020a03811615156200008b57600080fd5b620000a08282640100000000620000d0810204565b15620000ab57600080fd5b600160a060020a0316600090815260209190915260409020805460ff19166001179055565b6000600160a060020a0382161515620000e857600080fd5b50600160a060020a03166000908152602091909152604090205460ff1690565b61626180620001186000396000f3006080604052600436106101b65763ffffffff7c010000000000000000000000000000000000000000000000000000000060003504166308bdc24d81146101bb578063230500de146101dd5780633a59ccf1146101fd578063499560b81461021d5780634dc928851461023d5780635d73ab9a1461025d5780636262dff614610293578063656d561c146102c057806367e482ad146102e257806369c212f614610302578063748532391461032f5780637df73e271461034f5780638b92892b1461037c5780639249d7531461039c578063932191be146103c9578063989359df146103de5780639eab5253146103fe578063a4fdc59414610420578063a87d942c14610435578063a9eff5111461044a578063affccd841461046a578063bb03b7061461048a578063bcec99a6146104aa578063bf3d007e146104ca578063c11e1ff3146104ea578063c29c9225146104ff578063c477ecab1461051f578063d68dee9d1461053f578063e2c11f9e1461055f578063e5c8b03d1461057f578063eb12d61e14610594578063eff34e59146105b4578063f8380733146105d4578063fa1188c6146105f4578063fc81b52514610614575b600080fd5b3480156101c757600080fd5b506101db6101d6366004615102565b610634565b005b3480156101e957600080fd5b506101db6101f83660046152c5565b610831565b34801561020957600080fd5b506101db6102183660046151aa565b6109fc565b34801561022957600080fd5b506101db61023836600461554e565b610a58565b34801561024957600080fd5b506101db610258366004615102565b610b20565b34801561026957600080fd5b5061027d6102783660046153f6565b610c92565b60405161028a9190615fe4565b60405180910390f35b34801561029f57600080fd5b506102b36102ae3660046153f6565b61127f565b60405161028a9190615ff5565b3480156102cc57600080fd5b506102d5611314565b60405161028a9190615fc2565b3480156102ee57600080fd5b506101db6102fd36600461517a565b6113ed565b34801561030e57600080fd5b5061032261031d366004615102565b61142e565b60405161028a9190616124565b34801561033b57600080fd5b506101db61034a3660046155ff565b611891565b34801561035b57600080fd5b5061036f61036a366004615102565b6118b7565b60405161028a9190616006565b34801561038857600080fd5b506101db6103973660046155ff565b6118cf565b3480156103a857600080fd5b506103bc6103b7366004615102565b6119ed565b60405161028a9190616135565b3480156103d557600080fd5b5061027d611a0b565b3480156103ea57600080fd5b506102b36103f93660046153c0565b611f0d565b34801561040a57600080fd5b506104136120fe565b60405161028a9190615fd3565b34801561042c57600080fd5b506103bc6125cf565b34801561044157600080fd5b506103bc612695565b34801561045657600080fd5b506101db610465366004615128565b6126b2565b34801561047657600080fd5b506103bc6104853660046153f6565b612810565b34801561049657600080fd5b506101db6104a53660046155ff565b612825565b3480156104b657600080fd5b506101db6104c53660046151df565b61293b565b3480156104d657600080fd5b506101db6104e53660046153f6565b612b8e565b3480156104f657600080fd5b50610322612c4b565b34801561050b57600080fd5b506101db61051a366004615414565b6130b0565b34801561052b57600080fd5b5061041361053a3660046153f6565b6130d5565b34801561054b57600080fd5b506101db61055a36600461561e565b6135fa565b34801561056b57600080fd5b506101db61057a3660046155ff565b6136da565b34801561058b57600080fd5b506101db613700565b3480156105a057600080fd5b506101db6105af366004615102565b61370b565b3480156105c057600080fd5b506103bc6105cf366004615102565b613728565b3480156105e057600080fd5b5061036f6105ef3660046153f6565b613746565b34801561060057600080fd5b506103bc61060f36600461545c565b613759565b34801561062057600080fd5b506103bc61062f3660046153f6565b6137ff565b600160a060020a038181166000908152600560205260408120600601546101009004909116116106825760405160e560020a62461bcd02815260040161067990616054565b60405180910390fd5b600160a060020a038116600090815260056020526040808220600390810154338452919092209091015414806106bc57506106bc336118b7565b15156106dd5760405160e560020a62461bcd02815260040161067990616064565b60023360009081526005602052604090206006015460ff16600281111561070057fe5b14806107105750610710336118b7565b15156107315760405160e560020a62461bcd028152600401610679906160e4565b6001600160a060020a03821660009081526005602052604090206006015460ff16600281111561075d57fe5b1461077d5760405160e560020a62461bcd02815260040161067990616034565b600160a060020a038116600090815260056020908152604080832060030154835260029091529020600a01546064101561082557600160a060020a038116600090815260056020526040902060068101805460ff19166002179055600301546107e690826138a0565b600160a060020a03811660009081526005602090815260408083206064600982015560030154835260029091529020600a01805460631901905561082e565b61082e81610b20565b50565b600160a060020a0383811660009081526005602052604081206006015490918291829161010090910416811061087c5760405160e560020a62461bcd02815260040161067990616054565b6002600160a060020a03871660009081526005602052604090206006015460ff1660028111156108a857fe5b146108c85760405160e560020a62461bcd028152600401610679906160e4565b600160a060020a03861660009081526005602052604090206009015485101561092e57600160a060020a0386166000908152600560209081526040808320600981015460039091015484526002909252909120600a01805491879003909101905561096c565b600160a060020a0386166000908152600560209081526040808320600981015460039091015484526002909252909120600a01805491870390910390555b600160a060020a03861660009081526005602090815260409091206009810187905585516109a292600a90920191870190614b6a565b50600160a060020a03861660009081526005602052604090206004810154815460069092015490945090925060ff1660028111156109dc57fe5b90506109f0828b8b8b878c878d6001613a05565b50505050505050505050565b610a05336118b7565b1515610a1057600080fd5b600180548082018083556000929092528251610a53917fb10e2d527612073b26eecdfd717e6a320cf44b4afac2b0732d9fcbe2b7fa0cf601906020850190614b6a565b505050565b6000821515610a7c5760405160e560020a62461bcd02815260040161067990616104565b60008711610a9f5760405160e560020a62461bcd02815260040161067990616114565b3360009081526005602052604090205415610acf5760405160e560020a62461bcd02815260040161067990616044565b610ad883613746565b1515610af95760405160e560020a62461bcd028152600401610679906160b4565b610b0287614177565b9050610b178787878685896001336000613a05565b50505050505050565b600160a060020a03818116600090815260056020526040812060060154610100900490911611610b655760405160e560020a62461bcd02815260040161067990616054565b600160a060020a03811660009081526005602052604080822060039081015433845291909220909101541480610b9f5750610b9f336118b7565b1515610bc05760405160e560020a62461bcd02815260040161067990616064565b60023360009081526005602052604090206006015460ff166002811115610be357fe5b1480610bf35750610bf3336118b7565b1515610c145760405160e560020a62461bcd028152600401610679906160e4565b6001600160a060020a03821660009081526005602052604090206006015460ff166002811115610c4057fe5b14610c605760405160e560020a62461bcd02815260040161067990616074565b600160a060020a038116600090815260056020526040902060068101805460ff191690556003015461082e90826138a0565b606060008060006060600080610ca66125cf565b9550610cb3600a89614366565b600654909550610cc490600a61439b565b9350851580610cd257508585115b80610cdc57508388115b15610ce657611274565b60408051600a808252610160820190925290816020015b610d05614be4565b815260200190600190039081610cfd579050509250600091508490505b600654811015611270573360009081526005602081905260408220600301546006805491939185908110610d5257fe5b6000918252602080832090910154600160a060020a03168352820192909252604001902060030154148015610dcf5750600260056000600684815481101515610d9757fe5b6000918252602080832090910154600160a060020a0316835282019290925260400190206006015460ff166002811115610dcd57fe5b145b156112685760056000600683815481101515610de757fe5b6000918252602080832090910154600160a060020a03168352828101939093526040918201902081516101808101835281548152600182810180548551601f6002600019958416156101000295909501909216939093049081018790048702830187019095528482529194929385840193919291830182828015610eac5780601f10610e8157610100808354040283529160200191610eac565b820191906000526020600020905b815481529060010190602001808311610e8f57829003601f168201915b5050509183525050600282810180546040805160206001841615610100026000190190931694909404601f81018390048302850183019091528084529381019390830182828015610f3e5780601f10610f1357610100808354040283529160200191610f3e565b820191906000526020600020905b815481529060010190602001808311610f2157829003601f168201915b505050505081526020016003820154815260200160048201548152602001600582018054600181600116156101000203166002900480601f016020809104026020016040519081016040528092919081815260200182805460018160011615610100020316600290048015610ff45780601f10610fc957610100808354040283529160200191610ff4565b820191906000526020600020905b815481529060010190602001808311610fd757829003601f168201915b5050509183525050600682015460209091019060ff16600281111561101557fe5b600281111561102057fe5b8152600682015461010090819004600160a060020a031660208084019190915260078401805460408051600260018416159096026000190190921694909404601f8101849004840282018401855280825293909401939290918301828280156110ca5780601f1061109f576101008083540402835291602001916110ca565b820191906000526020600020905b8154815290600101906020018083116110ad57829003601f168201915b5050505050815260200160088201805480602002602001604051908101604052809291908181526020016000905b828210156111a35760008481526020908190208301805460408051601f600260001961010060018716150201909416939093049283018590048502810185019091528181529283018282801561118f5780601f106111645761010080835404028352916020019161118f565b820191906000526020600020905b81548152906001019060200180831161117257829003601f168201915b5050505050815260200190600101906110f8565b505050908252506009820154602080830191909152600a8301805460408051601f600260001961010060018716150201909416939093049283018590048502810185018252828152940193928301828280156112405780601f1061121557610100808354040283529160200191611240565b820191906000526020600020905b81548152906001019060200180831161122357829003601f168201915b505050505081525050838381518110151561125757fe5b602090810290910101526001909101905b600101610d22565b8296505b505050505050919050565b600081815260026020526040812054606091106112b15760405160e560020a62461bcd02815260040161067990616094565b6000828152600260209081526040918290206008018054835181840281018401909452808452909183018282801561130857602002820191906000526020600020905b8154815260200190600101908083116112f4575b50505050509050919050565b60606001805480602002602001604051908101604052809291908181526020016000905b828210156113e35760008481526020908190208301805460408051601f60026000196101006001871615020190941693909304928301859004850281018501909152818152928301828280156113cf5780601f106113a4576101008083540402835291602001916113cf565b820191906000526020600020905b8154815290600101906020018083116113b257829003601f168201915b505050505081526020019060010190611338565b5050505090505b90565b600160a060020a039091166000908152600560209081526040808320600981018054869003905560030154835260029091529020600a018054919091039055565b611436614be4565b600160a060020a03821660009081526005602090815260409182902082516101808101845281548152600180830180548651600293821615610100026000190190911692909204601f81018690048602830186019096528582529194929385810193919291908301828280156114ed5780601f106114c2576101008083540402835291602001916114ed565b820191906000526020600020905b8154815290600101906020018083116114d057829003601f168201915b5050509183525050600282810180546040805160206001841615610100026000190190931694909404601f8101839004830285018301909152808452938101939083018282801561157f5780601f106115545761010080835404028352916020019161157f565b820191906000526020600020905b81548152906001019060200180831161156257829003601f168201915b505050505081526020016003820154815260200160048201548152602001600582018054600181600116156101000203166002900480601f0160208091040260200160405190810160405280929190818152602001828054600181600116156101000203166002900480156116355780601f1061160a57610100808354040283529160200191611635565b820191906000526020600020905b81548152906001019060200180831161161857829003601f168201915b5050509183525050600682015460209091019060ff16600281111561165657fe5b600281111561166157fe5b8152600682015461010090819004600160a060020a031660208084019190915260078401805460408051600260018416159096026000190190921694909404601f81018490048402820184018552808252939094019392909183018282801561170b5780601f106116e05761010080835404028352916020019161170b565b820191906000526020600020905b8154815290600101906020018083116116ee57829003601f168201915b5050505050815260200160088201805480602002602001604051908101604052809291908181526020016000905b828210156117e45760008481526020908190208301805460408051601f60026000196101006001871615020190941693909304928301859004850281018501909152818152928301828280156117d05780601f106117a5576101008083540402835291602001916117d0565b820191906000526020600020905b8154815290600101906020018083116117b357829003601f168201915b505050505081526020019060010190611739565b505050908252506009820154602080830191909152600a8301805460408051601f600260001961010060018716150201909416939093049283018590048502810185018252828152940193928301828280156118815780601f1061185657610100808354040283529160200191611881565b820191906000526020600020905b81548152906001019060200180831161186457829003601f168201915b5050505050815250509050919050565b600091825260026020908152604083206007018054600181018255908452922090910155565b60006118c9818363ffffffff6143be16565b92915050565b6000805b6000848152600260205260409020600701546000190181101561198f57600084815260026020526040902060070180548491908390811061191057fe5b9060005260206000200154141561192657600191505b811561198757600084815260026020526040902060070180546001830190811061194c57fe5b9060005260206000200154600260008681526020019081526020016000206007018281548110151561197a57fe5b6000918252602090912001555b6001016118d3565b81156119e7576000848152600260205260409020600701805460001981019081106119b657fe5b6000918252602080832090910182905585825260029052604090206007018054906119e5906000198301614c5a565b505b50505050565b600160a060020a031660009081526005602052604090206009015490565b6060806000611a19336118b7565b1515611a2457600080fd5b600654604080518281526020808402820101909152908015611a6057816020015b611a4d614be4565b815260200190600190039081611a455790505b509150600090505b600654811015611f075760056000600683815481101515611a8557fe5b6000918252602080832090910154600160a060020a03168352828101939093526040918201902081516101808101835281548152600182810180548551601f6002600019958416156101000295909501909216939093049081018790048702830187019095528482529194929385840193919291830182828015611b4a5780601f10611b1f57610100808354040283529160200191611b4a565b820191906000526020600020905b815481529060010190602001808311611b2d57829003601f168201915b5050509183525050600282810180546040805160206001841615610100026000190190931694909404601f81018390048302850183019091528084529381019390830182828015611bdc5780601f10611bb157610100808354040283529160200191611bdc565b820191906000526020600020905b815481529060010190602001808311611bbf57829003601f168201915b505050505081526020016003820154815260200160048201548152602001600582018054600181600116156101000203166002900480601f016020809104026020016040519081016040528092919081815260200182805460018160011615610100020316600290048015611c925780601f10611c6757610100808354040283529160200191611c92565b820191906000526020600020905b815481529060010190602001808311611c7557829003601f168201915b5050509183525050600682015460209091019060ff166002811115611cb357fe5b6002811115611cbe57fe5b8152600682015461010090819004600160a060020a031660208084019190915260078401805460408051600260018416159096026000190190921694909404601f810184900484028201840185528082529390940193929091830182828015611d685780601f10611d3d57610100808354040283529160200191611d68565b820191906000526020600020905b815481529060010190602001808311611d4b57829003601f168201915b5050505050815260200160088201805480602002602001604051908101604052809291908181526020016000905b82821015611e415760008481526020908190208301805460408051601f6002600019610100600187161502019094169390930492830185900485028101850190915281815292830182828015611e2d5780601f10611e0257610100808354040283529160200191611e2d565b820191906000526020600020905b815481529060010190602001808311611e1057829003601f168201915b505050505081526020019060010190611d96565b505050908252506009820154602080830191909152600a8301805460408051601f60026000196101006001871615020190941693909304928301859004850281018501825282815294019392830182828015611ede5780601f10611eb357610100808354040283529160200191611ede565b820191906000526020600020905b815481529060010190602001808311611ec157829003601f168201915b5050505050815250508282815181101515611ef557fe5b60209081029091010152600101611a68565b50919050565b60606000805b6004548110156120a857846040518082805190602001908083835b60208310611f4d5780518252601f199092019160209182019101611f2e565b6001836020036101000a03801982511681845116808217855250505050505090500191505060405180910390206000191660026000600484815481101515611f9157fe5b9060005260206000200154815260200190815260200160002060050160405180828054600181600116156101000203166002900480156120085780601f10611fe6576101008083540402835291820191612008565b820191906000526020600020905b815481529060010190602001808311611ff4575b50509150506040518091039020600019161480156120555750836002600060048481548110151561203557fe5b906000526020600020015481526020019081526020016000206000015414155b156120a057816002600060048481548110151561206e57fe5b600091825260208083209091015483528281019390935260409091018120548354600181018555938252919020909101555b600101611f13565b8154604080516020808402820181019092528281529184918301828280156120ef57602002820191906000526020600020905b8154815260200190600101908083116120db575b50505050509250505092915050565b606080600060048054905060405190808252806020026020018201604052801561214257816020015b61212f614c7e565b8152602001906001900390816121275790505b509150600090505b600454811015611f07576002600060048381548110151561216757fe5b9060005260206000200154815260200190815260200160002061016060405190810160405290816000820154815260200160018201548152602001600282018054600181600116156101000203166002900480601f01602080910402602001604051908101604052809291908181526020018280546001816001161561010002031660029004801561223a5780601f1061220f5761010080835404028352916020019161223a565b820191906000526020600020905b81548152906001019060200180831161221d57829003601f168201915b505050918352505060038201805460408051602060026001851615610100026000190190941693909304601f81018490048402820184019092528181529382019392918301828280156122ce5780601f106122a3576101008083540402835291602001916122ce565b820191906000526020600020905b8154815290600101906020018083116122b157829003601f168201915b505050918352505060048201805460408051602060026001851615610100026000190190941693909304601f81018490048402820184019092528181529382019392918301828280156123625780601f1061233757610100808354040283529160200191612362565b820191906000526020600020905b81548152906001019060200180831161234557829003601f168201915b505050918352505060058201805460408051602060026001851615610100026000190190941693909304601f81018490048402820184019092528181529382019392918301828280156123f65780601f106123cb576101008083540402835291602001916123f6565b820191906000526020600020905b8154815290600101906020018083116123d957829003601f168201915b505050918352505060068201805460408051602060026001851615610100026000190190941693909304601f810184900484028201840190925281815293820193929183018282801561248a5780601f1061245f5761010080835404028352916020019161248a565b820191906000526020600020905b81548152906001019060200180831161246d57829003601f168201915b50505050508152602001600782018054806020026020016040519081016040528092919081815260200182805480156124e257602002820191906000526020600020905b8154815260200190600101908083116124ce575b505050505081526020016008820180548060200260200160405190810160405280929190818152602001828054801561253a57602002820191906000526020600020905b815481526020019060010190808311612526575b505050505081526020016009820180548060200260200160405190810160405280929190818152602001828054801561259c57602002820191906000526020600020905b8154600160a060020a0316815260019091019060200180831161257e575b50505050508152602001600a8201548152505082828151811015156125bd57fe5b6020908102909101015260010161214a565b600080805b600654811015611f0757336000908152600560208190526040822060030154600680549193918590811061260457fe5b6000918252602080832090910154600160a060020a03168352820192909252604001902060030154148015612681575060026005600060068481548110151561264957fe5b6000918252602080832090910154600160a060020a0316835282019290925260400190206006015460ff16600281111561267f57fe5b145b1561268d576001909101905b6001016125d4565b60006126a0336118b7565b15156126ab57600080fd5b5060045490565b6126bb336118b7565b15156126c657600080fd5b600160a060020a0382166000908152600560205260409020600301546126ec90836138a0565b604080518082018252600b81527f53757065722061646d696e0000000000000000000000000000000000000000006020808301918252600160a060020a038616600090815260059182905293909320915161274b939290920191614b6a565b5060038054600101808255600160a060020a038416600090815260056020908152604090912092830191909155825161278a9260070191840190614b6a565b50600160a060020a03821660008181526005602081815260408084206006808201805460ff1916600217905582516060810184528085019182527f6469676974310000000000000000000000000000000000000000000000000000938101939093528252949093525261280291600801906001614cd9565b5061280c8261370b565b5050565b60009081526002602052604090206008015490565b6000805b600084815260026020526040902060080154600019018110156128e557600084815260026020526040902060080180548491908390811061286657fe5b9060005260206000200154141561287c57600191505b81156128dd5760008481526002602052604090206008018054600183019081106128a257fe5b906000526020600020015460026000868152602001908152602001600020600801828154811015156128d057fe5b6000918252602090912001555b600101612829565b81156119e75760008481526002602052604090206008018054600019810190811061290c57fe5b6000918252602080832090910182905585825260029052604090206008018054906119e5906000198301614c5a565b600160a060020a038216600090815260056020908152604082208851612969926001909201918a0190614b6a565b50600160a060020a0383166000908152600560209081526040909120875161299992600290920191890190614b6a565b50600160a060020a038316600090815260056020908152604090912083516129c992600890920191850190614d32565b50600090505b600654811015610b17576005600084600160a060020a0316600160a060020a031681526020019081526020016000206007016040518082805460018160011615610100020316600290048015612a5c5780601f10612a3a576101008083540402835291820191612a5c565b820191906000526020600020905b815481529060010190602001808311612a48575b505091505060405180910390206000191660056000600684815481101515612a8057fe5b9060005260206000200160009054906101000a9004600160a060020a0316600160a060020a0316600160a060020a031681526020019081526020016000206007016040518082805460018160011615610100020316600290048015612b1c5780601f10612afa576101008083540402835291820191612b1c565b820191906000526020600020905b815481529060010190602001808311612b08575b50509150506040518091039020600019161415612b86578160056000600684815481101515612b4757fe5b6000918252602080832090910154600160a060020a0316835282810193909352604090910190208251612b84936008909201929190910190614d32565b505b6001016129cf565b6000612b99336118b7565b1515612ba457600080fd5b50805b60015460001901811015612c105760018054828201908110612bc557fe5b90600052602060002001600182815481101515612bde57fe5b906000526020600020019080546001816001161561010002031660029004612c07929190614d7f565b50600101612ba7565b600180546000198101908110612c2257fe5b906000526020600020016000612c389190614df4565b6001805490610a53906000198301614e38565b612c53614be4565b612c5b614be4565b3360009081526005602090815260409182902082516101808101845281548152600180830180548651600293821615610100026000190190911692909204601f8101869004860283018601909652858252919492938581019391929190830182828015612d095780601f10612cde57610100808354040283529160200191612d09565b820191906000526020600020905b815481529060010190602001808311612cec57829003601f168201915b5050509183525050600282810180546040805160206001841615610100026000190190931694909404601f81018390048302850183019091528084529381019390830182828015612d9b5780601f10612d7057610100808354040283529160200191612d9b565b820191906000526020600020905b815481529060010190602001808311612d7e57829003601f168201915b505050505081526020016003820154815260200160048201548152602001600582018054600181600116156101000203166002900480601f016020809104026020016040519081016040528092919081815260200182805460018160011615610100020316600290048015612e515780601f10612e2657610100808354040283529160200191612e51565b820191906000526020600020905b815481529060010190602001808311612e3457829003601f168201915b5050509183525050600682015460209091019060ff166002811115612e7257fe5b6002811115612e7d57fe5b8152600682015461010090819004600160a060020a031660208084019190915260078401805460408051600260018416159096026000190190921694909404601f810184900484028201840185528082529390940193929091830182828015612f275780601f10612efc57610100808354040283529160200191612f27565b820191906000526020600020905b815481529060010190602001808311612f0a57829003601f168201915b5050505050815260200160088201805480602002602001604051908101604052809291908181526020016000905b828210156130005760008481526020908190208301805460408051601f6002600019610100600187161502019094169390930492830185900485028101850190915281815292830182828015612fec5780601f10612fc157610100808354040283529160200191612fec565b820191906000526020600020905b815481529060010190602001808311612fcf57829003601f168201915b505050505081526020019060010190612f55565b505050908252506009820154602080830191909152600a8301805460408051601f6002600019610100600187161502019094169390930492830185900485028101850182528281529401939283018282801561309d5780601f106130725761010080835404028352916020019161309d565b820191906000526020600020905b81548152906001019060200180831161308057829003601f168201915b50505050508152505090508091505b5090565b60008281526002602090815260409091208251610a5392600790920191840190614e5c565b60606000806000606060006130eb600a88614366565b6004549095506130fc90600a61439b565b600454909450158061311357506004546000190185115b8061311d57508387115b15613127576135f0565b60408051600a80825261016082019092526000945090816020015b61314a614c7e565b8152602001906001900390816131425790505091508490505b6004548110156135ec576002600060048381548110151561318057fe5b9060005260206000200154815260200190815260200160002061016060405190810160405290816000820154815260200160018201548152602001600282018054600181600116156101000203166002900480601f0160208091040260200160405190810160405280929190818152602001828054600181600116156101000203166002900480156132535780601f1061322857610100808354040283529160200191613253565b820191906000526020600020905b81548152906001019060200180831161323657829003601f168201915b505050918352505060038201805460408051602060026001851615610100026000190190941693909304601f81018490048402820184019092528181529382019392918301828280156132e75780601f106132bc576101008083540402835291602001916132e7565b820191906000526020600020905b8154815290600101906020018083116132ca57829003601f168201915b505050918352505060048201805460408051602060026001851615610100026000190190941693909304601f810184900484028201840190925281815293820193929183018282801561337b5780601f106133505761010080835404028352916020019161337b565b820191906000526020600020905b81548152906001019060200180831161335e57829003601f168201915b505050918352505060058201805460408051602060026001851615610100026000190190941693909304601f810184900484028201840190925281815293820193929183018282801561340f5780601f106133e45761010080835404028352916020019161340f565b820191906000526020600020905b8154815290600101906020018083116133f257829003601f168201915b505050918352505060068201805460408051602060026001851615610100026000190190941693909304601f81018490048402820184019092528181529382019392918301828280156134a35780601f10613478576101008083540402835291602001916134a3565b820191906000526020600020905b81548152906001019060200180831161348657829003601f168201915b50505050508152602001600782018054806020026020016040519081016040528092919081815260200182805480156134fb57602002820191906000526020600020905b8154815260200190600101908083116134e7575b505050505081526020016008820180548060200260200160405190810160405280929190818152602001828054801561355357602002820191906000526020600020905b81548152602001906001019080831161353f575b50505050508152602001600982018054806020026020016040519081016040528092919081815260200182805480156135b557602002820191906000526020600020905b8154600160a060020a03168152600190910190602001808311613597575b50505050508152602001600a8201548152505082848151811015156135d657fe5b6020908102909101015260019283019201613163565b8195505b5050505050919050565b613603336118b7565b151561360e57600080fd5b6000888152600260205260408120541161363d5760405160e560020a62461bcd028152600401610679906160b4565b60008881526002602052604090206001015487146136705760405160e560020a62461bcd02815260040161067990616014565b6000888152600260208181526040909220885161369593919092019190890190614b6a565b50600088815260026020908152604090912083516136bb92600690920191850190614b6a565b50600097885260026020526040909720600a0196909655505050505050565b600091825260026020908152604083206008018054600181018255908452922090910155565b613709336143f5565b565b613714336118b7565b151561371f57600080fd5b61082e8161443d565b600160a060020a031660009081526005602052604090206003015490565b6000908152600260205260408120541190565b600080613765336118b7565b151561377057600080fd5b600088116137935760405160e560020a62461bcd02815260040161067990616114565b506003805460010190819055600081815260026020526040902054156137ce5760405160e560020a62461bcd028152600401610679906160a4565b6137dd81898989898989614485565b60008181526002602052604090206103e8600a90910155979650505050505050565b600080805b60065481101561389957836005600060068481548110151561382257fe5b6000918252602080832090910154600160a060020a031683528201929092526040019020600301541415613891576005600060068381548110151561386357fe5b6000918252602080832090910154600160a060020a0316835282019290925260400190206009015491909101905b600101613804565b5092915050565b6000805b6000848152600260205260409020600901546000190181101561399d5760008481526002602052604090206009018054600160a060020a0385169190839081106138ea57fe5b600091825260209091200154600160a060020a0316141561390a57600191505b811561399557600084815260026020526040902060090180546001830190811061393057fe5b6000918252602080832090910154868352600290915260409091206009018054600160a060020a03909216918390811061396657fe5b9060005260206000200160006101000a815481600160a060020a030219169083600160a060020a031602179055505b6001016138a4565b6000848152600260205260409020600901805460001981019081106139be57fe5b60009182526020808320909101805473ffffffffffffffffffffffffffffffffffffffff1916905585825260029052604090206009018054906119e5906000198301614c5a565b613a0d614be4565b600084101580613a1e575060028411155b1515613a3f5760405160e560020a62461bcd02815260040161067990616084565b84511515613a625760405160e560020a62461bcd02815260040161067990616024565b600160a060020a03831660009081526005602090815260409182902082516101808101845281548152600180830180548651600293821615610100026000190190911692909204601f8101869004860283018601909652858252919492938581019391929190830182828015613b195780601f10613aee57610100808354040283529160200191613b19565b820191906000526020600020905b815481529060010190602001808311613afc57829003601f168201915b5050509183525050600282810180546040805160206001841615610100026000190190931694909404601f81018390048302850183019091528084529381019390830182828015613bab5780601f10613b8057610100808354040283529160200191613bab565b820191906000526020600020905b815481529060010190602001808311613b8e57829003601f168201915b505050505081526020016003820154815260200160048201548152602001600582018054600181600116156101000203166002900480601f016020809104026020016040519081016040528092919081815260200182805460018160011615610100020316600290048015613c615780601f10613c3657610100808354040283529160200191613c61565b820191906000526020600020905b815481529060010190602001808311613c4457829003601f168201915b5050509183525050600682015460209091019060ff166002811115613c8257fe5b6002811115613c8d57fe5b8152600682015461010090819004600160a060020a031660208084019190915260078401805460408051600260018416159096026000190190921694909404601f810184900484028201840185528082529390940193929091830182828015613d375780601f10613d0c57610100808354040283529160200191613d37565b820191906000526020600020905b815481529060010190602001808311613d1a57829003601f168201915b5050505050815260200160088201805480602002602001604051908101604052809291908181526020016000905b82821015613e105760008481526020908190208301805460408051601f6002600019610100600187161502019094169390930492830185900485028101850190915281815292830182828015613dfc5780601f10613dd157610100808354040283529160200191613dfc565b820191906000526020600020905b815481529060010190602001808311613ddf57829003601f168201915b505050505081526020019060010190613d65565b505050908252506009820154602080830191909152600a8301805460408051601f60026000196101006001871615020190941693909304928301859004850281018501825282815294019392830182828015613ead5780601f10613e8257610100808354040283529160200191613ead565b820191906000526020600020905b815481529060010190602001808311613e9057829003601f168201915b505050919092525050508a8152602081018a905260408101899052606081018890526080810187905260a081018690529050836002811115613eeb57fe5b8160c001906002811115613efb57fe5b90816002811115613f0857fe5b905250600160a060020a03831660e082018190526000908152600560209081526040909120825181558183015180518493613f4a926001850192910190614b6a565b5060408201518051613f66916002840191602090910190614b6a565b50606082015160038201556080820151600482015560a08201518051613f96916005840191602090910190614b6a565b5060c082015160068201805460ff19166001836002811115613fb457fe5b021790555060e082015160068201805474ffffffffffffffffffffffffffffffffffffffff001916610100600160a060020a0390931683021790558201518051614008916007840191602090910190614b6a565b506101208201518051614025916008840191602090910190614e96565b506101408201516009820155610160820151805161404d91600a840191602090910190614b6a565b5050508115156109f057600680546001810182556000919091527ff652222313e28459528d920b65115c16c04f3efc82aaedc97be59f3f377c0d3f01805473ffffffffffffffffffffffffffffffffffffffff1916600160a060020a0385161790556140b887614a90565b60408051606081018252600660208281019182527f646967697431000000000000000000000000000000000000000000000000000083850152908252600160a060020a038616600090815260059091529190912061411d916008909101906001614cd9565b5060608101516000908152600260208181526040808420600160a060020a038816855260059283905293209201805461416a93600701926000196101006001841615020190911604614d7f565b5050505050505050505050565b60008080806002850615156142095784604051602001808281526020019150506040516020818303038152906040526040518082805190602001908083835b602083106141d55780518252601f1990920191602091820191016141b6565b6001836020036101000a038019825116818451168082178552505050505050905001915050604051809103902092506142f4565b84604051602001808281526020019150506040516020818303038152906040526040518082805190602001908083835b602083106142585780518252601f199092019160209182019101614239565b51815160209384036101000a600019018019909216911617905260408051929094018290038220828201528351808303820181529184019384905281519195509293508392850191508083835b602083106142c45780518252601f1990920191602091820191016142a5565b6001836020036101000a038019825116818451168082178552505050505050905001915050604051809103902092505b60208110156143215782816020811061430957fe5b60f860020a91901a81020491909101906001016142f4565b82602060028401066020811061433357fe5b60f860020a91901a81020483602084066020811061434d57fe5b1a60f860020a0260f860020a9004029350505050919050565b6000808315156143795760009150613899565b5082820282848281151561438957fe5b041461439457600080fd5b9392505050565b6000808083116143aa57600080fd5b82848115156143b557fe5b04949350505050565b6000600160a060020a03821615156143d557600080fd5b50600160a060020a03166000908152602091909152604090205460ff1690565b61440660008263ffffffff614ad016565b604051600160a060020a038216907f3525e22824a8a7df2c9a6029941c824cf95b6447f1e13d5128fd3826d35afe8b90600090a250565b61444e60008263ffffffff614b1c16565b604051600160a060020a038216907f47d1c22a25bb3a5d4e481b9b1e6944c2eade3181a0a20b495ed61d35b5323f2490600090a250565b61448d614c7e565b855115156144b05760405160e560020a62461bcd028152600401610679906160f4565b825115156144d35760405160e560020a62461bcd028152600401610679906160d4565b815115156144f65760405160e560020a62461bcd028152600401610679906160c4565b6000888152600260208181526040928390208351610160810185528154815260018083015482850152828501805487519281161561010002600019011695909504601f810185900485028201850187528082529195929492860193909291908301828280156145a65780601f1061457b576101008083540402835291602001916145a6565b820191906000526020600020905b81548152906001019060200180831161458957829003601f168201915b505050918352505060038201805460408051602060026001851615610100026000190190941693909304601f810184900484028201840190925281815293820193929183018282801561463a5780601f1061460f5761010080835404028352916020019161463a565b820191906000526020600020905b81548152906001019060200180831161461d57829003601f168201915b505050918352505060048201805460408051602060026001851615610100026000190190941693909304601f81018490048402820184019092528181529382019392918301828280156146ce5780601f106146a3576101008083540402835291602001916146ce565b820191906000526020600020905b8154815290600101906020018083116146b157829003601f168201915b505050918352505060058201805460408051602060026001851615610100026000190190941693909304601f81018490048402820184019092528181529382019392918301828280156147625780601f1061473757610100808354040283529160200191614762565b820191906000526020600020905b81548152906001019060200180831161474557829003601f168201915b505050918352505060068201805460408051602060026001851615610100026000190190941693909304601f81018490048402820184019092528181529382019392918301828280156147f65780601f106147cb576101008083540402835291602001916147f6565b820191906000526020600020905b8154815290600101906020018083116147d957829003601f168201915b505050505081526020016007820180548060200260200160405190810160405280929190818152602001828054801561484e57602002820191906000526020600020905b81548152602001906001019080831161483a575b50505050508152602001600882018054806020026020016040519081016040528092919081815260200182805480156148a657602002820191906000526020600020905b815481526020019060010190808311614892575b505050505081526020016009820180548060200260200160405190810160405280929190818152602001828054801561490857602002820191906000526020600020905b8154600160a060020a031681526001909101906020018083116148ea575b5050509183525050600a919091015460209182015289825281810189815260408084018a8152606085018a90526080850189905260a0850188905260c0850187905260008d8152600280865292902085518155925160018401555180519495508594929361497c9392850192910190614b6a565b5060608201518051614998916003840191602090910190614b6a565b50608082015180516149b4916004840191602090910190614b6a565b5060a082015180516149d0916005840191602090910190614b6a565b5060c082015180516149ec916006840191602090910190614b6a565b5060e08201518051614a08916007840191602090910190614e5c565b506101008201518051614a25916008840191602090910190614e5c565b506101208201518051614a42916009840191602090910190614ee3565b506101409190910151600a909101555050600480546001810182556000919091527f8a35acfbc15ff81a39ae7d344fd709f28e8600b4aa8c65c6b64bfe7fe36bd19b01959095555050505050565b600090815260026020908152604082206009018054600181018255908352912001805473ffffffffffffffffffffffffffffffffffffffff191633179055565b600160a060020a0381161515614ae557600080fd5b614aef82826143be565b1515614afa57600080fd5b600160a060020a0316600090815260209190915260409020805460ff19169055565b600160a060020a0381161515614b3157600080fd5b614b3b82826143be565b15614b4557600080fd5b600160a060020a0316600090815260209190915260409020805460ff19166001179055565b828054600181600116156101000203166002900490600052602060002090601f016020900481019282601f10614bab57805160ff1916838001178555614bd8565b82800160010185558215614bd8579182015b82811115614bd8578251825591602001919060010190614bbd565b506130ac929150614f51565b6101806040519081016040528060008152602001606081526020016060815260200160008152602001600081526020016060815260200160006002811115614c2857fe5b81526020016000600160a060020a03168152602001606081526020016060815260200160008152602001606081525090565b815481835581811115610a5357600083815260209020610a53918101908301614f51565b6101606040519081016040528060008152602001600081526020016060815260200160608152602001606081526020016060815260200160608152602001606081526020016060815260200160608152602001600081525090565b828054828255906000526020600020908101928215614d26579160200282015b82811115614d265782518051614d16918491602090910190614b6a565b5091602001919060010190614cf9565b506130ac929150614f6b565b828054828255906000526020600020908101928215614d26579160200282015b82811115614d265782518051614d6f918491602090910190614b6a565b5091602001919060010190614d52565b828054600181600116156101000203166002900490600052602060002090601f016020900481019282601f10614db85780548555614bd8565b82800160010185558215614bd857600052602060002091601f016020900482015b82811115614bd8578254825591600101919060010190614dd9565b50805460018160011615610100020316600290046000825580601f10614e1a575061082e565b601f01602090049060005260206000209081019061082e9190614f51565b815481835581811115610a5357600083815260209020610a53918101908301614f6b565b828054828255906000526020600020908101928215614bd85791602002820182811115614bd8578251825591602001919060010190614bbd565b828054828255906000526020600020908101928215614d26579160200282015b82811115614d265782518051614ed3918491602090910190614b6a565b5091602001919060010190614eb6565b828054828255906000526020600020908101928215614f45579160200282015b82811115614f45578251825473ffffffffffffffffffffffffffffffffffffffff1916600160a060020a03909116178255602090920191600190910190614f03565b506130ac929150614f8e565b6113ea91905b808211156130ac5760008155600101614f57565b6113ea91905b808211156130ac576000614f858282614df4565b50600101614f71565b6113ea91905b808211156130ac57805473ffffffffffffffffffffffffffffffffffffffff19168155600101614f94565b600061439482356161bd565b6000601f82018313614fdc57600080fd5b8135614fef614fea8261616a565b616143565b81815260209384019390925082018360005b8381101561502d578135860161501788826150a7565b8452506020928301929190910190600101615001565b5050505092915050565b6000601f8201831361504857600080fd5b8135615056614fea8261616a565b9150818183526020840193506020810190508385602084028201111561507b57600080fd5b60005b8381101561502d578161509188826150f6565b845250602092830192919091019060010161507e565b6000601f820183136150b857600080fd5b81356150c6614fea8261618b565b915080825260208301602083018583830111156150e257600080fd5b6150ed8382846161e5565b50505092915050565b600061439482356113ea565b60006020828403121561511457600080fd5b60006151208484614fbf565b949350505050565b6000806040838503121561513b57600080fd5b60006151478585614fbf565b925050602083013567ffffffffffffffff81111561516457600080fd5b615170858286016150a7565b9150509250929050565b6000806040838503121561518d57600080fd5b60006151998585614fbf565b9250506020615170858286016150f6565b6000602082840312156151bc57600080fd5b813567ffffffffffffffff8111156151d357600080fd5b615120848285016150a7565b60008060008060008060c087890312156151f857600080fd5b863567ffffffffffffffff81111561520f57600080fd5b61521b89828a016150a7565b965050602087013567ffffffffffffffff81111561523857600080fd5b61524489828a016150a7565b955050604061525589828a016150f6565b945050606087013567ffffffffffffffff81111561527257600080fd5b61527e89828a016150a7565b935050608061528f89828a01614fbf565b92505060a087013567ffffffffffffffff8111156152ac57600080fd5b6152b889828a01614fcb565b9150509295509295509295565b600080600080600080600060e0888a0312156152e057600080fd5b873567ffffffffffffffff8111156152f757600080fd5b6153038a828b016150a7565b975050602088013567ffffffffffffffff81111561532057600080fd5b61532c8a828b016150a7565b965050604061533d8a828b016150f6565b955050606088013567ffffffffffffffff81111561535a57600080fd5b6153668a828b016150a7565b94505060806153778a828b01614fbf565b93505060a06153888a828b016150f6565b92505060c088013567ffffffffffffffff8111156153a557600080fd5b6153b18a828b016150a7565b91505092959891949750929550565b600080604083850312156153d357600080fd5b823567ffffffffffffffff8111156153ea57600080fd5b615199858286016150a7565b60006020828403121561540857600080fd5b600061512084846150f6565b6000806040838503121561542757600080fd5b600061543385856150f6565b925050602083013567ffffffffffffffff81111561545057600080fd5b61517085828601615037565b60008060008060008060c0878903121561547557600080fd5b600061548189896150f6565b965050602087013567ffffffffffffffff81111561549e57600080fd5b6154aa89828a016150a7565b955050604087013567ffffffffffffffff8111156154c757600080fd5b6154d389828a016150a7565b945050606087013567ffffffffffffffff8111156154f057600080fd5b6154fc89828a016150a7565b935050608087013567ffffffffffffffff81111561551957600080fd5b61552589828a016150a7565b92505060a087013567ffffffffffffffff81111561554257600080fd5b6152b889828a016150a7565b60008060008060008060c0878903121561556757600080fd5b600061557389896150f6565b965050602087013567ffffffffffffffff81111561559057600080fd5b61559c89828a016150a7565b955050604087013567ffffffffffffffff8111156155b957600080fd5b6155c589828a016150a7565b945050606087013567ffffffffffffffff8111156155e257600080fd5b6155ee89828a016150a7565b935050608061552589828a016150f6565b6000806040838503121561561257600080fd5b600061519985856150f6565b600080600080600080600080610100898b03121561563b57600080fd5b60006156478b8b6150f6565b98505060206156588b828c016150f6565b975050604089013567ffffffffffffffff81111561567557600080fd5b6156818b828c016150a7565b965050606089013567ffffffffffffffff81111561569e57600080fd5b6156aa8b828c016150a7565b955050608089013567ffffffffffffffff8111156156c757600080fd5b6156d38b828c016150a7565b94505060a089013567ffffffffffffffff8111156156f057600080fd5b6156fc8b828c016150a7565b93505060c089013567ffffffffffffffff81111561571957600080fd5b6157258b828c016150a7565b92505060e06157368b828c016150f6565b9150509295985092959890939650565b61574f816161bd565b82525050565b6000615760826161b9565b808452602084019350615772836161b3565b60005b828110156157a257615788868351615746565b615791826161b3565b602096909601959150600101615775565b5093949350505050565b60006157b7826161b9565b808452602084019350836020820285016157d0856161b3565b60005b848110156158075783830388526157eb8383516159d0565b92506157f6826161b3565b6020989098019791506001016157d3565b50909695505050505050565b600061581e826161b9565b80845260208401935083602082028501615837856161b3565b60005b848110156158075783830388526158528383516159d0565b925061585d826161b3565b60209890980197915060010161583a565b6000615879826161b9565b80845260208401935083602082028501615892856161b3565b60005b848110156158075783830388526158ad838351615d81565b92506158b8826161b3565b602098909801979150600101615895565b60006158d4826161b9565b808452602084019350836020820285016158ed856161b3565b60005b84811015615807578383038852615908838351615e9a565b9250615913826161b3565b6020989098019791506001016158f0565b600061592f826161b9565b808452602084019350615941836161b3565b60005b828110156157a257615957868351615fb9565b615960826161b3565b602096909601959150600101615944565b600061597c826161b9565b80845260208401935061598e836161b3565b60005b828110156157a2576159a4868351615fb9565b6159ad826161b3565b602096909601959150600101615991565b61574f816161c9565b61574f816161da565b60006159db826161b9565b8084526159ef8160208601602086016161f1565b6159f88161621d565b9093016020019392505050565b601a81527f4372656174696f6e204461746520697320696d6d757461626c65000000000000602082015260400190565b601181527f726f6c65206973206d616e6461746f7279000000000000000000000000000000602082015260400190565b602281527f4f6e6c792070656e64696e672075736572732063616e2062652061636365707460208201527f6564000000000000000000000000000000000000000000000000000000000000604082015260600190565b601381527f5573657220616c72656164792065786973747300000000000000000000000000602082015260400190565b601481527f546869732075736572206e6f7420657869737473000000000000000000000000602082015260400190565b601b81527f596f752063616e6e6f7420616363657074207468697320757365720000000000602082015260400190565b602281527f4f6e6c792070656e64696e672075736572732063616e2062652072656a65637460208201527f6564000000000000000000000000000000000000000000000000000000000000604082015260600190565b601381527f737461747573206973206e6f742076616c696400000000000000000000000000602082015260400190565b601181527f6d656d626572206e6f7420657869737473000000000000000000000000000000602082015260400190565b601581527f4d656d62657220616c7265616479206578697374730000000000000000000000602082015260400190565b601181527f4d656d626572206e6f7420657869737473000000000000000000000000000000602082015260400190565b601281527f5468656d65206973206d616e6461746f72790000000000000000000000000000602082015260400190565b601081527f434d4f206973206d616e6461746f727900000000000000000000000000000000602082015260400190565b601481527f596f7520617265206e6f74206163636570746564000000000000000000000000602082015260400190565b601181527f4e616d65206973206d616e6461746f7279000000000000000000000000000000602082015260400190565b601181527f4e6f2076616c6964206d656d6265724964000000000000000000000000000000602082015260400190565b601981527f4372656174696f6e44617465206973206d616e6461746f727900000000000000602082015260400190565b8051600090610160840190615d968582615fb9565b506020830151615da96020860182615fb9565b5060408301518482036040860152615dc182826159d0565b91505060608301518482036060860152615ddb82826159d0565b91505060808301518482036080860152615df582826159d0565b91505060a083015184820360a0860152615e0f82826159d0565b91505060c083015184820360c0860152615e2982826159d0565b91505060e083015184820360e0860152615e438282615971565b915050610100830151848203610100860152615e5f8282615971565b915050610120830151848203610120860152615e7b8282615755565b915050610140830151615e92610140860182615fb9565b509392505050565b8051600090610180840190615eaf8582615fb9565b5060208301518482036020860152615ec782826159d0565b91505060408301518482036040860152615ee182826159d0565b9150506060830151615ef66060860182615fb9565b506080830151615f096080860182615fb9565b5060a083015184820360a0860152615f2182826159d0565b91505060c0830151615f3660c08601826159c7565b5060e0830151615f4960e0860182615746565b50610100830151848203610100860152615f6382826159d0565b915050610120830151848203610120860152615f7f8282615813565b915050610140830151615f96610140860182615fb9565b50610160830151848203610160860152615fb082826159d0565b95945050505050565b61574f816113ea565b6020808252810161439481846157ac565b60208082528101614394818461586e565b6020808252810161439481846158c9565b602080825281016143948184615924565b602081016118c982846159be565b602080825281016118c981615a05565b602080825281016118c981615a35565b602080825281016118c981615a65565b602080825281016118c981615abb565b602080825281016118c981615aeb565b602080825281016118c981615b1b565b602080825281016118c981615b4b565b602080825281016118c981615ba1565b602080825281016118c981615bd1565b602080825281016118c981615c01565b602080825281016118c981615c31565b602080825281016118c981615c61565b602080825281016118c981615c91565b602080825281016118c981615cc1565b602080825281016118c981615cf1565b602080825281016118c981615d21565b602080825281016118c981615d51565b602080825281016143948184615e9a565b602081016118c98284615fb9565b60405181810167ffffffffffffffff8111828210171561616257600080fd5b604052919050565b600067ffffffffffffffff82111561618157600080fd5b5060209081020190565b600067ffffffffffffffff8211156161a257600080fd5b506020601f91909101601f19160190565b60200190565b5190565b600160a060020a031690565b151590565b6000600382106130ac57fe5b60006118c9826161ce565b82818337506000910152565b60005b8381101561620c5781810151838201526020016161f4565b838111156119e75750506000910152565b601f01601f1916905600a265627a7a72305820985b9c4367aeec0e037280405cddb994e75a8411bae446a7f3c942eab4a6927c6c6578706572696d656e74616cf50037",
  "source": "pragma solidity ^0.4.24;\npragma experimental ABIEncoderV2;\n\nimport \"./Members.sol\";\nimport \"./Claims.sol\";\n\n\ncontract Users is Members {\n\n  struct User {\n    uint256 creationDate;\n    string firstName;\n    string lastName;\n    uint256 memberId;\n    uint256 requestId;\n    string role;\n    StatusUserEnum status;\n    address owner;  // primary key\n    string cmo;\n    string[] groups;\n    uint tokens;\n    string kycData;\n  }\n\n  enum StatusUserEnum {\n    REJECTED,\n    PENDING,\n    ACCEPTED\n  }\n\n  mapping (address => User) private users_;\n  address[] private usersList_;\n  uint256 constant private PAGE_SIZE = 10;\n\n  uint256 constant private userStartTokens = 100;\n\n  // PUBLIC\n\n  function registerUserRequest(uint256 _creationDate, string _firstName, string _lastName, string _role,\n    uint256 _memberId, string _kycData) public {\n\n    require(_memberId != 0, \"No valid memberId\");\n    require(_creationDate > 0, \"CreationDate is mandatory\");\n    require(users_[msg.sender].creationDate == 0, \"User already exists\");\n    require(_memberExists(_memberId), \"Member not exists\");\n\n    uint256 _requestId = Random.rand(_creationDate);\n    _saveUser(_creationDate, _firstName, _lastName, _memberId, _requestId, _role, uint256(StatusUserEnum.PENDING),\n      msg.sender, 0);\n//    users_[msg.sender].kycData = _kycData;\n  }\n\n  function updateUser(string _firstName, string _lastName, uint256 _memberId, string _role, address owner,\n    uint _tokens, string _kycData) public {\n\n    require(users_[owner].owner > address(0), \"This user not exists\");\n    require(uint(users_[owner].status) == uint(StatusUserEnum.ACCEPTED), \"You are not accepted\");\n    if (users_[owner].tokens > _tokens) {\n      members_[users_[owner].memberId].totalTokens += users_[owner].tokens - _tokens;\n    } else {\n      members_[users_[owner].memberId].totalTokens -= _tokens - users_[owner].tokens;\n    }\n    users_[owner].tokens = _tokens;\n    users_[owner].kycData = _kycData;\n\n    uint256 _requestId = users_[owner].requestId;\n    uint256 _creationDate = users_[owner].creationDate;\n    uint256 _status = uint(users_[owner].status);\n\n    _saveUser(_creationDate, _firstName, _lastName, _memberId, _requestId, _role, _status, owner, 1);\n  }\n\n  function getUsedTokens(uint256 _memberId) public view returns (uint){\n    uint usedTokens = 0;\n    for (uint i = 0; i < usersList_.length; ++i) {\n      if (users_[usersList_[i]].memberId == _memberId) {\n        usedTokens += users_[usersList_[i]].tokens;\n      }\n    }\n    return usedTokens;\n  }\n\n  function updateSuperUser(string _firstName, string _lastName, uint256 _memberId, string _role,\n    address owner,string[] _groups) public {\n\n    users_[owner].firstName = _firstName;\n    users_[owner].lastName = _lastName;\n    users_[owner].groups = _groups;\n\n    for (uint i = 0; i < usersList_.length; ++i) {\n      if (keccak256(users_[usersList_[i]].cmo) == keccak256(users_[owner].cmo)) {\n        users_[usersList_[i]].groups = _groups;\n      }\n    }\n\n  }\n\n  function rejectUser(address _userToReject) public {\n\n    require(users_[_userToReject].owner > address(0), \"This user not exists\");\n    require((users_[msg.sender].memberId == users_[_userToReject].memberId) || isSigner(msg.sender), \"You cannot accept this user\");\n    require((uint(users_[msg.sender].status) == uint(StatusUserEnum.ACCEPTED)) || isSigner(msg.sender), \"You are not accepted\");\n    require(users_[_userToReject].status == StatusUserEnum.PENDING, \"Only pending users can be rejected\");\n\n    users_[_userToReject].status = StatusUserEnum.REJECTED;\n    _clearUserFromMemberRequest(users_[_userToReject].memberId, _userToReject);\n  }\n\n  function acceptUser(address _userToAccept) public {\n\n    require(users_[_userToAccept].owner > address(0), \"This user not exists\");\n    require((users_[msg.sender].memberId == users_[_userToAccept].memberId) || isSigner(msg.sender), \"You cannot accept this user\");\n    require((uint(users_[msg.sender].status) == uint(StatusUserEnum.ACCEPTED)) || isSigner(msg.sender), \"You are not accepted\");\n    require(users_[_userToAccept].status == StatusUserEnum.PENDING, \"Only pending users can be accepted\");\n\n    if (members_[users_[_userToAccept].memberId].totalTokens > userStartTokens) {\n      users_[_userToAccept].status = StatusUserEnum.ACCEPTED;\n      _clearUserFromMemberRequest(users_[_userToAccept].memberId, _userToAccept);\n      users_[_userToAccept].tokens = userStartTokens;\n      members_[users_[_userToAccept].memberId].totalTokens -= userStartTokens;\n    } else {\n      rejectUser(_userToAccept);\n    }\n  }\n\n  function getcountUsers() public view returns(uint) {\n    uint256 counter = 0;\n    for (uint i = 0; i < usersList_.length; ++i) {\n      if(users_[usersList_[i]].memberId == users_[msg.sender].memberId\n        && users_[usersList_[i]].status == StatusUserEnum.ACCEPTED) {\n        counter++;\n      }\n    }\n    return counter;\n  }\n\n  function whitelistAdmin(address account, string _cmo) public onlySigner {\n    _clearUserFromMemberRequest(users_[account].memberId, account);\n    users_[account].role = \"Super admin\";\n    users_[account].memberId = ++memberIdCounter_;\n    users_[account].cmo = _cmo;\n//    users_[account].tokens = 0; // should \"Super admin\" have tokens?\n    users_[account].status = StatusUserEnum.ACCEPTED;\n    users_[account].groups = [\"digit1\"];\n    addSigner(account);\n  }\n\n  function getUsers(uint256 _page) public view returns(User[] memory) {\n    uint256 counter = getcountUsers();\n\n    uint256 pageIndex = SafeMath.mul(PAGE_SIZE, _page);\n    uint256 pageNumber = SafeMath.div(usersList_.length, PAGE_SIZE);\n\n    if (counter == 0 || pageIndex > counter || _page > pageNumber) {\n      return;\n    }\n    User[] memory userPageBasic = new User[](PAGE_SIZE);\n    uint256 counterFinal = 0;\n\n    for (uint j = pageIndex; j < usersList_.length; ++j) {\n      if(users_[usersList_[j]].memberId == users_[msg.sender].memberId\n        && users_[usersList_[j]].status == StatusUserEnum.ACCEPTED) {\n        userPageBasic[counterFinal] = users_[usersList_[j]];\n        ++counterFinal;\n      }\n    }\n    return userPageBasic;\n  }\n\n  function getUserByAddress(address userAddress) public view returns(User memory) {\n    return users_[userAddress];\n  }\n\n  function getUsersOwner() onlySigner public view returns(User[] memory) {\n    User[] memory userPageOwner = new User[](usersList_.length);\n\n    for (uint i = 0; i < usersList_.length; ++i) {\n      userPageOwner[i] = users_[usersList_[i]];\n    }\n\n    return userPageOwner;\n  }\n\n  function getMe() public view returns(User) {\n    User memory user = users_[msg.sender];\n    return user;\n  }\n\n\n  function _saveUser(uint256 _creationDate, string _firstName, string _lastName, uint256 _memberId,\n    uint256 _requestId, string _role, uint256 _status, address owner, uint isCreate) internal {\n\n    require(_status >= 0 || _status <=2, \"status is not valid\");\n    require(bytes(_role).length != 0, \"role is mandatory\");\n\n    User memory user = users_[owner];\n\n    user.creationDate =  _creationDate;\n    user.firstName =  _firstName;\n    user.lastName =  _lastName;\n    user.memberId =  _memberId;\n    user.requestId =  _requestId;\n    user.role = _role;\n    user.status = StatusUserEnum(_status);\n    user.owner = owner;\n\n    users_[owner] = user;\n\n    if(isCreate == 0) {\n      usersList_.push(owner);\n//      if (users_[owner].status != StatusUserEnum.ACCEPTED) {\n      _addUserToMemberRequest(_memberId);\n//      }\n      users_[owner].groups = [\"digit1\"];                  // by default\n      users_[owner].cmo = members_[user.memberId].cmo;  // to initialize\n    }\n  }\n\n  function _memberIdFromCurrentAddress(address addr) view public returns(uint256) {\n    return users_[addr].memberId;\n  }\n\n  function updateTokens(address addr, uint transactionPrice) public {\n    users_[addr].tokens -= transactionPrice;\n    members_[users_[addr].memberId].totalTokens -= transactionPrice;\n  }\n\n  function getUserTokensByAddress(address addr) view public returns(uint) {\n    return users_[addr].tokens;\n  }\n}\n",
  "sourcePath": "/home/komodo/newUI2/bloomen-decentralized-rights-management-v2/truffle/contracts/registry/Users.sol",
  "compiler": {
    "name": "solc",
    "version": "0.4.24+commit.e67f0147.Emscripten.clang"
  },
  "schemaVersion": "2.0.1",
  "updatedAt": "2020-06-19T11:08:36.232Z"
}