{
  "contractName": "Users",
  "abi": [
    {
      "constant": false,
      "inputs": [
        {
          "name": "_cmo",
          "type": "string"
        }
      ],
      "name": "addCMO",
      "outputs": [],
      "payable": false,
      "stateMutability": "nonpayable",
      "type": "function"
    },
    {
      "constant": true,
      "inputs": [
        {
          "name": "_memberId",
          "type": "uint256"
        }
      ],
      "name": "_getClaimsIdByMember",
      "outputs": [
        {
          "name": "",
          "type": "uint256[]"
        }
      ],
      "payable": false,
      "stateMutability": "view",
      "type": "function"
    },
    {
      "constant": true,
      "inputs": [],
      "name": "getCMOs",
      "outputs": [
        {
          "name": "",
          "type": "string[]"
        }
      ],
      "payable": false,
      "stateMutability": "view",
      "type": "function"
    },
    {
      "constant": false,
      "inputs": [
        {
          "name": "_memberId",
          "type": "uint256"
        },
        {
          "name": "_creationDate",
          "type": "uint256"
        },
        {
          "name": "_name",
          "type": "string"
        },
        {
          "name": "_logo",
          "type": "string"
        },
        {
          "name": "_country",
          "type": "string"
        },
        {
          "name": "_cmo",
          "type": "string"
        },
        {
          "name": "_theme",
          "type": "string"
        }
      ],
      "name": "updateMember",
      "outputs": [],
      "payable": false,
      "stateMutability": "nonpayable",
      "type": "function"
    },
    {
      "constant": false,
      "inputs": [
        {
          "name": "_memberId",
          "type": "uint256"
        },
        {
          "name": "_claimId",
          "type": "uint256"
        }
      ],
      "name": "_addClaimFromInbox",
      "outputs": [],
      "payable": false,
      "stateMutability": "nonpayable",
      "type": "function"
    },
    {
      "constant": true,
      "inputs": [
        {
          "name": "account",
          "type": "address"
        }
      ],
      "name": "isSigner",
      "outputs": [
        {
          "name": "",
          "type": "bool"
        }
      ],
      "payable": false,
      "stateMutability": "view",
      "type": "function"
    },
    {
      "constant": false,
      "inputs": [
        {
          "name": "_memberId",
          "type": "uint256"
        },
        {
          "name": "_claimId",
          "type": "uint256"
        }
      ],
      "name": "_removeClaimFromInbox",
      "outputs": [],
      "payable": false,
      "stateMutability": "nonpayable",
      "type": "function"
    },
    {
      "constant": false,
      "inputs": [
        {
          "name": "currentCMO",
          "type": "string"
        },
        {
          "name": "currentCMOId",
          "type": "uint256"
        }
      ],
      "name": "_getMemberIdsOfCurrentCMO",
      "outputs": [
        {
          "name": "",
          "type": "uint256[]"
        }
      ],
      "payable": false,
      "stateMutability": "nonpayable",
      "type": "function"
    },
    {
      "constant": true,
      "inputs": [],
      "name": "getMembers",
      "outputs": [
        {
          "components": [
            {
              "name": "memberId",
              "type": "uint256"
            },
            {
              "name": "creationDate",
              "type": "uint256"
            },
            {
              "name": "name",
              "type": "string"
            },
            {
              "name": "logo",
              "type": "string"
            },
            {
              "name": "country",
              "type": "string"
            },
            {
              "name": "cmo",
              "type": "string"
            },
            {
              "name": "theme",
              "type": "string"
            },
            {
              "name": "claimInbox",
              "type": "uint256[]"
            },
            {
              "name": "claims",
              "type": "uint256[]"
            },
            {
              "name": "userRequests",
              "type": "address[]"
            },
            {
              "name": "totalTokens",
              "type": "uint256"
            }
          ],
          "name": "",
          "type": "tuple[]"
        }
      ],
      "payable": false,
      "stateMutability": "view",
      "type": "function"
    },
    {
      "constant": false,
      "inputs": [
        {
          "name": "_memberId",
          "type": "uint256"
        },
        {
          "name": "_claimId",
          "type": "uint256"
        }
      ],
      "name": "_removeClaimIdFromMember",
      "outputs": [],
      "payable": false,
      "stateMutability": "nonpayable",
      "type": "function"
    },
    {
      "constant": true,
      "inputs": [],
      "name": "getCount",
      "outputs": [
        {
          "name": "",
          "type": "uint256"
        }
      ],
      "payable": false,
      "stateMutability": "view",
      "type": "function"
    },
    {
      "constant": true,
      "inputs": [
        {
          "name": "_memberId",
          "type": "uint256"
        }
      ],
      "name": "_getClaimsCountByMember",
      "outputs": [
        {
          "name": "",
          "type": "uint256"
        }
      ],
      "payable": false,
      "stateMutability": "view",
      "type": "function"
    },
    {
      "constant": false,
      "inputs": [
        {
          "name": "_index",
          "type": "uint256"
        }
      ],
      "name": "deleteCMO",
      "outputs": [],
      "payable": false,
      "stateMutability": "nonpayable",
      "type": "function"
    },
    {
      "constant": true,
      "inputs": [
        {
          "name": "_page",
          "type": "uint256"
        }
      ],
      "name": "getMembers",
      "outputs": [
        {
          "components": [
            {
              "name": "memberId",
              "type": "uint256"
            },
            {
              "name": "creationDate",
              "type": "uint256"
            },
            {
              "name": "name",
              "type": "string"
            },
            {
              "name": "logo",
              "type": "string"
            },
            {
              "name": "country",
              "type": "string"
            },
            {
              "name": "cmo",
              "type": "string"
            },
            {
              "name": "theme",
              "type": "string"
            },
            {
              "name": "claimInbox",
              "type": "uint256[]"
            },
            {
              "name": "claims",
              "type": "uint256[]"
            },
            {
              "name": "userRequests",
              "type": "address[]"
            },
            {
              "name": "totalTokens",
              "type": "uint256"
            }
          ],
          "name": "",
          "type": "tuple[]"
        }
      ],
      "payable": false,
      "stateMutability": "view",
      "type": "function"
    },
    {
      "constant": false,
      "inputs": [
        {
          "name": "_memberId",
          "type": "uint256"
        },
        {
          "name": "_claimId",
          "type": "uint256"
        }
      ],
      "name": "_addClaimIdToMemberOwner",
      "outputs": [],
      "payable": false,
      "stateMutability": "nonpayable",
      "type": "function"
    },
    {
      "constant": false,
      "inputs": [],
      "name": "renounceSigner",
      "outputs": [],
      "payable": false,
      "stateMutability": "nonpayable",
      "type": "function"
    },
    {
      "constant": false,
      "inputs": [
        {
          "name": "account",
          "type": "address"
        }
      ],
      "name": "addSigner",
      "outputs": [],
      "payable": false,
      "stateMutability": "nonpayable",
      "type": "function"
    },
    {
      "constant": true,
      "inputs": [
        {
          "name": "_memberId",
          "type": "uint256"
        }
      ],
      "name": "_memberExists",
      "outputs": [
        {
          "name": "",
          "type": "bool"
        }
      ],
      "payable": false,
      "stateMutability": "view",
      "type": "function"
    },
    {
      "constant": false,
      "inputs": [
        {
          "name": "_creationDate",
          "type": "uint256"
        },
        {
          "name": "_name",
          "type": "string"
        },
        {
          "name": "_logo",
          "type": "string"
        },
        {
          "name": "_country",
          "type": "string"
        },
        {
          "name": "_cmo",
          "type": "string"
        },
        {
          "name": "_theme",
          "type": "string"
        }
      ],
      "name": "addMember",
      "outputs": [
        {
          "name": "",
          "type": "uint256"
        }
      ],
      "payable": false,
      "stateMutability": "nonpayable",
      "type": "function"
    },
    {
      "anonymous": false,
      "inputs": [
        {
          "indexed": true,
          "name": "account",
          "type": "address"
        }
      ],
      "name": "SignerAdded",
      "type": "event"
    },
    {
      "anonymous": false,
      "inputs": [
        {
          "indexed": true,
          "name": "account",
          "type": "address"
        }
      ],
      "name": "SignerRemoved",
      "type": "event"
    },
    {
      "constant": false,
      "inputs": [
        {
          "name": "_creationDate",
          "type": "uint256"
        },
        {
          "name": "_firstName",
          "type": "string"
        },
        {
          "name": "_lastName",
          "type": "string"
        },
        {
          "name": "_role",
          "type": "string"
        },
        {
          "name": "_memberId",
          "type": "uint256"
        }
      ],
      "name": "registerUserRequest",
      "outputs": [],
      "payable": false,
      "stateMutability": "nonpayable",
      "type": "function"
    },
    {
      "constant": false,
      "inputs": [
        {
          "name": "_firstName",
          "type": "string"
        },
        {
          "name": "_lastName",
          "type": "string"
        },
        {
          "name": "_memberId",
          "type": "uint256"
        },
        {
          "name": "_role",
          "type": "string"
        },
        {
          "name": "owner",
          "type": "address"
        }
      ],
      "name": "updateUser",
      "outputs": [],
      "payable": false,
      "stateMutability": "nonpayable",
      "type": "function"
    },
    {
      "constant": false,
      "inputs": [
        {
          "name": "_firstName",
          "type": "string"
        },
        {
          "name": "_lastName",
          "type": "string"
        },
        {
          "name": "_memberId",
          "type": "uint256"
        },
        {
          "name": "_role",
          "type": "string"
        },
        {
          "name": "owner",
          "type": "address"
        },
        {
          "name": "_groups",
          "type": "string[]"
        }
      ],
      "name": "updateSuperUser",
      "outputs": [],
      "payable": false,
      "stateMutability": "nonpayable",
      "type": "function"
    },
    {
      "constant": false,
      "inputs": [
        {
          "name": "_userToReject",
          "type": "address"
        }
      ],
      "name": "rejectUser",
      "outputs": [],
      "payable": false,
      "stateMutability": "nonpayable",
      "type": "function"
    },
    {
      "constant": false,
      "inputs": [
        {
          "name": "_userToAccept",
          "type": "address"
        }
      ],
      "name": "acceptUser",
      "outputs": [],
      "payable": false,
      "stateMutability": "nonpayable",
      "type": "function"
    },
    {
      "constant": true,
      "inputs": [],
      "name": "getcountUsers",
      "outputs": [
        {
          "name": "",
          "type": "uint256"
        }
      ],
      "payable": false,
      "stateMutability": "view",
      "type": "function"
    },
    {
      "constant": false,
      "inputs": [
        {
          "name": "account",
          "type": "address"
        },
        {
          "name": "_cmo",
          "type": "string"
        }
      ],
      "name": "whitelistAdmin",
      "outputs": [],
      "payable": false,
      "stateMutability": "nonpayable",
      "type": "function"
    },
    {
      "constant": true,
      "inputs": [
        {
          "name": "_page",
          "type": "uint256"
        }
      ],
      "name": "getUsers",
      "outputs": [
        {
          "components": [
            {
              "name": "creationDate",
              "type": "uint256"
            },
            {
              "name": "firstName",
              "type": "string"
            },
            {
              "name": "lastName",
              "type": "string"
            },
            {
              "name": "memberId",
              "type": "uint256"
            },
            {
              "name": "requestId",
              "type": "uint256"
            },
            {
              "name": "role",
              "type": "string"
            },
            {
              "name": "status",
              "type": "uint8"
            },
            {
              "name": "owner",
              "type": "address"
            },
            {
              "name": "cmo",
              "type": "string"
            },
            {
              "name": "groups",
              "type": "string[]"
            },
            {
              "name": "tokens",
              "type": "uint256"
            }
          ],
          "name": "",
          "type": "tuple[]"
        }
      ],
      "payable": false,
      "stateMutability": "view",
      "type": "function"
    },
    {
      "constant": true,
      "inputs": [
        {
          "name": "userAddress",
          "type": "address"
        }
      ],
      "name": "getUserByAddress",
      "outputs": [
        {
          "components": [
            {
              "name": "creationDate",
              "type": "uint256"
            },
            {
              "name": "firstName",
              "type": "string"
            },
            {
              "name": "lastName",
              "type": "string"
            },
            {
              "name": "memberId",
              "type": "uint256"
            },
            {
              "name": "requestId",
              "type": "uint256"
            },
            {
              "name": "role",
              "type": "string"
            },
            {
              "name": "status",
              "type": "uint8"
            },
            {
              "name": "owner",
              "type": "address"
            },
            {
              "name": "cmo",
              "type": "string"
            },
            {
              "name": "groups",
              "type": "string[]"
            },
            {
              "name": "tokens",
              "type": "uint256"
            }
          ],
          "name": "",
          "type": "tuple"
        }
      ],
      "payable": false,
      "stateMutability": "view",
      "type": "function"
    },
    {
      "constant": true,
      "inputs": [],
      "name": "getUsersOwner",
      "outputs": [
        {
          "components": [
            {
              "name": "creationDate",
              "type": "uint256"
            },
            {
              "name": "firstName",
              "type": "string"
            },
            {
              "name": "lastName",
              "type": "string"
            },
            {
              "name": "memberId",
              "type": "uint256"
            },
            {
              "name": "requestId",
              "type": "uint256"
            },
            {
              "name": "role",
              "type": "string"
            },
            {
              "name": "status",
              "type": "uint8"
            },
            {
              "name": "owner",
              "type": "address"
            },
            {
              "name": "cmo",
              "type": "string"
            },
            {
              "name": "groups",
              "type": "string[]"
            },
            {
              "name": "tokens",
              "type": "uint256"
            }
          ],
          "name": "",
          "type": "tuple[]"
        }
      ],
      "payable": false,
      "stateMutability": "view",
      "type": "function"
    },
    {
      "constant": true,
      "inputs": [],
      "name": "getMe",
      "outputs": [
        {
          "components": [
            {
              "name": "creationDate",
              "type": "uint256"
            },
            {
              "name": "firstName",
              "type": "string"
            },
            {
              "name": "lastName",
              "type": "string"
            },
            {
              "name": "memberId",
              "type": "uint256"
            },
            {
              "name": "requestId",
              "type": "uint256"
            },
            {
              "name": "role",
              "type": "string"
            },
            {
              "name": "status",
              "type": "uint8"
            },
            {
              "name": "owner",
              "type": "address"
            },
            {
              "name": "cmo",
              "type": "string"
            },
            {
              "name": "groups",
              "type": "string[]"
            },
            {
              "name": "tokens",
              "type": "uint256"
            }
          ],
          "name": "",
          "type": "tuple"
        }
      ],
      "payable": false,
      "stateMutability": "view",
      "type": "function"
    },
    {
      "constant": true,
      "inputs": [
        {
          "name": "addr",
          "type": "address"
        }
      ],
      "name": "_memberIdFromCurrentAddress",
      "outputs": [
        {
          "name": "",
          "type": "uint256"
        }
      ],
      "payable": false,
      "stateMutability": "view",
      "type": "function"
    }
  ],
  "bytecode": "0x608060405260006003556200001d3364010000000062000023810204565b62000108565b6200003e600082640100000000620044fa6200007582021704565b604051600160a060020a038216907f47d1c22a25bb3a5d4e481b9b1e6944c2eade3181a0a20b495ed61d35b5323f2490600090a250565b600160a060020a03811615156200008b57600080fd5b620000a08282640100000000620000d0810204565b15620000ab57600080fd5b600160a060020a0316600090815260209190915260409020805460ff19166001179055565b6000600160a060020a0382161515620000e857600080fd5b50600160a060020a03166000908152602091909152604090205460ff1690565b615ada80620001186000396000f30060806040526004361061018a5763ffffffff7c010000000000000000000000000000000000000000000000000000000060003504166308bdc24d811461018f5780633a59ccf1146101b15780634dc92885146101d15780635d73ab9a146101f15780636262dff614610227578063656d561c1461025457806365ff0c481461027657806369c212f61461029657806374853239146102c35780637df73e27146102e35780638b92892b14610310578063932191be14610330578063989359df146103455780639eab525314610365578063a29d441f14610387578063a4fdc594146103a7578063a7ed1fe4146103c9578063a87d942c146103e9578063a9eff511146103fe578063affccd841461041e578063bcec99a61461043e578063bf3d007e1461045e578063c11e1ff31461047e578063c477ecab14610493578063e2c11f9e146104b3578063e5c8b03d146104d3578063eb12d61e146104e8578063eff34e5914610508578063f838073314610528578063fa1188c614610548578063fcfbde5b14610568575b600080fd5b34801561019b57600080fd5b506101af6101aa366004614a70565b610588565b005b3480156101bd57600080fd5b506101af6101cc366004614ae8565b610769565b3480156101dd57600080fd5b506101af6101ec366004614a70565b6107c5565b3480156101fd57600080fd5b5061021161020c366004614d06565b610937565b60405161021e919061585d565b60405180910390f35b34801561023357600080fd5b50610247610242366004614d06565b610e90565b60405161021e919061586e565b34801561026057600080fd5b50610269610f25565b60405161021e919061583b565b34801561028257600080fd5b506101af610291366004614ee5565b610ffe565b3480156102a257600080fd5b506102b66102b1366004614a70565b6110c9565b60405161021e919061599d565b3480156102cf57600080fd5b506101af6102de366004614ec6565b611498565b3480156102ef57600080fd5b506103036102fe366004614a70565b6114be565b60405161021e919061587f565b34801561031c57600080fd5b506101af61032b366004614ec6565b6114d6565b34801561033c57600080fd5b506102116115f4565b34801561035157600080fd5b50610247610360366004614cbf565b611a62565b34801561037157600080fd5b5061037a611c53565b60405161021e919061584c565b34801561039357600080fd5b506101af6103a2366004614ec6565b612124565b3480156103b357600080fd5b506103bc6121f3565b60405161021e91906159ae565b3480156103d557600080fd5b506101af6103e4366004614e16565b6122b9565b3480156103f557600080fd5b506103bc612380565b34801561040a57600080fd5b506101af610419366004614a96565b61239d565b34801561042a57600080fd5b506103bc610439366004614d06565b6124fd565b34801561044a57600080fd5b506101af610459366004614bd9565b612512565b34801561046a57600080fd5b506101af610479366004614d06565b61276e565b34801561048a57600080fd5b506102b661282b565b34801561049f57600080fd5b5061037a6104ae366004614d06565b612bfc565b3480156104bf57600080fd5b506101af6104ce366004614ec6565b613121565b3480156104df57600080fd5b506101af613147565b3480156104f457600080fd5b506101af610503366004614a70565b613152565b34801561051457600080fd5b506103bc610523366004614a70565b61316f565b34801561053457600080fd5b50610303610543366004614d06565b61318d565b34801561055457600080fd5b506103bc610563366004614d24565b6131a0565b34801561057457600080fd5b506101af610583366004614b1d565b613246565b600160a060020a038181166000908152600560205260408120600601546101009004909116116105d65760405160e560020a62461bcd0281526004016105cd906158cd565b60405180910390fd5b600160a060020a038116600090815260056020526040808220600390810154338452919092209091015414806106105750610610336114be565b15156106315760405160e560020a62461bcd0281526004016105cd906158dd565b60023360009081526005602052604090206006015460ff16600281111561065457fe5b14806106645750610664336114be565b15156106855760405160e560020a62461bcd0281526004016105cd9061595d565b6001600160a060020a03821660009081526005602052604090206006015460ff1660028111156106b157fe5b146106d15760405160e560020a62461bcd0281526004016105cd906158ad565b600160a060020a038116600090815260056020908152604080832060030154835260029091528120600a015460631901111561076657600160a060020a038116600081815260056020818152604080842060068101805460ff1916600290811790915560646009830155600390910180548652908352908420600a01805460631901905593909252905254610766908261332a565b50565b610772336114be565b151561077d57600080fd5b6001805480820180835560009290925282516107c0917fb10e2d527612073b26eecdfd717e6a320cf44b4afac2b0732d9fcbe2b7fa0cf601906020850190614548565b505050565b600160a060020a0381811660009081526005602052604081206006015461010090049091161161080a5760405160e560020a62461bcd0281526004016105cd906158cd565b600160a060020a038116600090815260056020526040808220600390810154338452919092209091015414806108445750610844336114be565b15156108655760405160e560020a62461bcd0281526004016105cd906158dd565b60023360009081526005602052604090206006015460ff16600281111561088857fe5b14806108985750610898336114be565b15156108b95760405160e560020a62461bcd0281526004016105cd9061595d565b6001600160a060020a03821660009081526005602052604090206006015460ff1660028111156108e557fe5b146109055760405160e560020a62461bcd0281526004016105cd906158ed565b600160a060020a038116600090815260056020526040902060068101805460ff1916905560030154610766908261332a565b60606000806000606060008061094b6121f3565b9550610958600a8961348f565b60065490955061096990600a6134c8565b935085158061097757508585115b8061098157508388115b1561098b57610e85565b60408051600a808252610160820190925290816020015b6109aa6145c2565b8152602001906001900390816109a2579050509250600091508490505b600654811015610e815733600090815260056020819052604082206003015460068054919391859081106109f757fe5b6000918252602080832090910154600160a060020a03168352820192909252604001902060030154148015610a745750600260056000600684815481101515610a3c57fe5b6000918252602080832090910154600160a060020a0316835282019290925260400190206006015460ff166002811115610a7257fe5b145b15610e795760056000600683815481101515610a8c57fe5b6000918252602080832090910154600160a060020a03168352828101939093526040918201902081516101608101835281548152600182810180548551601f6002600019958416156101000295909501909216939093049081018790048702830187019095528482529194929385840193919291830182828015610b515780601f10610b2657610100808354040283529160200191610b51565b820191906000526020600020905b815481529060010190602001808311610b3457829003601f168201915b5050509183525050600282810180546040805160206001841615610100026000190190931694909404601f81018390048302850183019091528084529381019390830182828015610be35780601f10610bb857610100808354040283529160200191610be3565b820191906000526020600020905b815481529060010190602001808311610bc657829003601f168201915b505050505081526020016003820154815260200160048201548152602001600582018054600181600116156101000203166002900480601f016020809104026020016040519081016040528092919081815260200182805460018160011615610100020316600290048015610c995780601f10610c6e57610100808354040283529160200191610c99565b820191906000526020600020905b815481529060010190602001808311610c7c57829003601f168201915b5050509183525050600682015460209091019060ff166002811115610cba57fe5b6002811115610cc557fe5b8152600682015461010090819004600160a060020a031660208084019190915260078401805460408051600260018416159096026000190190921694909404601f810184900484028201840185528082529390940193929091830182828015610d6f5780601f10610d4457610100808354040283529160200191610d6f565b820191906000526020600020905b815481529060010190602001808311610d5257829003601f168201915b5050505050815260200160088201805480602002602001604051908101604052809291908181526020016000905b82821015610e485760008481526020908190208301805460408051601f6002600019610100600187161502019094169390930492830185900485028101850190915281815292830182828015610e345780601f10610e0957610100808354040283529160200191610e34565b820191906000526020600020905b815481529060010190602001808311610e1757829003601f168201915b505050505081526020019060010190610d9d565b5050505081526020016009820154815250508383815181101515610e6857fe5b602090810290910101526001909101905b6001016109c7565b8296505b505050505050919050565b60008181526002602052604081205460609110610ec25760405160e560020a62461bcd0281526004016105cd9061590d565b60008281526002602090815260409182902060080180548351818402810184019094528084529091830182828015610f1957602002820191906000526020600020905b815481526020019060010190808311610f05575b50505050509050919050565b60606001805480602002602001604051908101604052809291908181526020016000905b82821015610ff45760008481526020908190208301805460408051601f6002600019610100600187161502019094169390930492830185900485028101850190915281815292830182828015610fe05780601f10610fb557610100808354040283529160200191610fe0565b820191906000526020600020905b815481529060010190602001808311610fc357829003601f168201915b505050505081526020019060010190610f49565b5050505090505b90565b611007336114be565b151561101257600080fd5b600087815260026020526040812054116110415760405160e560020a62461bcd0281526004016105cd9061592d565b60008781526002602052604090206001015486146110745760405160e560020a62461bcd0281526004016105cd9061588d565b6000878152600260208181526040909220875161109993919092019190880190614548565b50600087815260026020908152604090912082516110bf92600690920191840190614548565b5050505050505050565b6110d16145c2565b600160a060020a03821660009081526005602090815260409182902082516101608101845281548152600180830180548651600293821615610100026000190190911692909204601f81018690048602830186019096528582529194929385810193919291908301828280156111885780601f1061115d57610100808354040283529160200191611188565b820191906000526020600020905b81548152906001019060200180831161116b57829003601f168201915b5050509183525050600282810180546040805160206001841615610100026000190190931694909404601f8101839004830285018301909152808452938101939083018282801561121a5780601f106111ef5761010080835404028352916020019161121a565b820191906000526020600020905b8154815290600101906020018083116111fd57829003601f168201915b505050505081526020016003820154815260200160048201548152602001600582018054600181600116156101000203166002900480601f0160208091040260200160405190810160405280929190818152602001828054600181600116156101000203166002900480156112d05780601f106112a5576101008083540402835291602001916112d0565b820191906000526020600020905b8154815290600101906020018083116112b357829003601f168201915b5050509183525050600682015460209091019060ff1660028111156112f157fe5b60028111156112fc57fe5b8152600682015461010090819004600160a060020a031660208084019190915260078401805460408051600260018416159096026000190190921694909404601f8101849004840282018401855280825293909401939290918301828280156113a65780601f1061137b576101008083540402835291602001916113a6565b820191906000526020600020905b81548152906001019060200180831161138957829003601f168201915b5050505050815260200160088201805480602002602001604051908101604052809291908181526020016000905b8282101561147f5760008481526020908190208301805460408051601f600260001961010060018716150201909416939093049283018590048502810185019091528181529283018282801561146b5780601f106114405761010080835404028352916020019161146b565b820191906000526020600020905b81548152906001019060200180831161144e57829003601f168201915b5050505050815260200190600101906113d4565b5050505081526020016009820154815250509050919050565b600091825260026020908152604083206007018054600181018255908452922090910155565b60006114d0818363ffffffff6134eb16565b92915050565b6000805b6000848152600260205260409020600701546000190181101561159657600084815260026020526040902060070180548491908390811061151757fe5b9060005260206000200154141561152d57600191505b811561158e57600084815260026020526040902060070180546001830190811061155357fe5b9060005260206000200154600260008681526020019081526020016000206007018281548110151561158157fe5b6000918252602090912001555b6001016114da565b81156115ee576000848152600260205260409020600701805460001981019081106115bd57fe5b6000918252602080832090910182905585825260029052604090206007018054906115ec906000198301614631565b505b50505050565b6060806000611602336114be565b151561160d57600080fd5b60065460408051828152602080840282010190915290801561164957816020015b6116366145c2565b81526020019060019003908161162e5790505b509150600090505b600654811015611a5c576005600060068381548110151561166e57fe5b6000918252602080832090910154600160a060020a03168352828101939093526040918201902081516101608101835281548152600182810180548551601f60026000199584161561010002959095019092169390930490810187900487028301870190955284825291949293858401939192918301828280156117335780601f1061170857610100808354040283529160200191611733565b820191906000526020600020905b81548152906001019060200180831161171657829003601f168201915b5050509183525050600282810180546040805160206001841615610100026000190190931694909404601f810183900483028501830190915280845293810193908301828280156117c55780601f1061179a576101008083540402835291602001916117c5565b820191906000526020600020905b8154815290600101906020018083116117a857829003601f168201915b505050505081526020016003820154815260200160048201548152602001600582018054600181600116156101000203166002900480601f01602080910402602001604051908101604052809291908181526020018280546001816001161561010002031660029004801561187b5780601f106118505761010080835404028352916020019161187b565b820191906000526020600020905b81548152906001019060200180831161185e57829003601f168201915b5050509183525050600682015460209091019060ff16600281111561189c57fe5b60028111156118a757fe5b8152600682015461010090819004600160a060020a031660208084019190915260078401805460408051600260018416159096026000190190921694909404601f8101849004840282018401855280825293909401939290918301828280156119515780601f1061192657610100808354040283529160200191611951565b820191906000526020600020905b81548152906001019060200180831161193457829003601f168201915b5050505050815260200160088201805480602002602001604051908101604052809291908181526020016000905b82821015611a2a5760008481526020908190208301805460408051601f6002600019610100600187161502019094169390930492830185900485028101850190915281815292830182828015611a165780601f106119eb57610100808354040283529160200191611a16565b820191906000526020600020905b8154815290600101906020018083116119f957829003601f168201915b50505050508152602001906001019061197f565b5050505081526020016009820154815250508282815181101515611a4a57fe5b60209081029091010152600101611651565b50919050565b60606000805b600454811015611bfd57846040518082805190602001908083835b60208310611aa25780518252601f199092019160209182019101611a83565b6001836020036101000a03801982511681845116808217855250505050505090500191505060405180910390206000191660026000600484815481101515611ae657fe5b906000526020600020015481526020019081526020016000206005016040518082805460018160011615610100020316600290048015611b5d5780601f10611b3b576101008083540402835291820191611b5d565b820191906000526020600020905b815481529060010190602001808311611b49575b5050915050604051809103902060001916148015611baa57508360026000600484815481101515611b8a57fe5b906000526020600020015481526020019081526020016000206000015414155b15611bf5578160026000600484815481101515611bc357fe5b600091825260208083209091015483528281019390935260409091018120548354600181018555938252919020909101555b600101611a68565b815460408051602080840282018101909252828152918491830182828015611c4457602002820191906000526020600020905b815481526020019060010190808311611c30575b50505050509250505092915050565b6060806000600480549050604051908082528060200260200182016040528015611c9757816020015b611c84614655565b815260200190600190039081611c7c5790505b509150600090505b600454811015611a5c5760026000600483815481101515611cbc57fe5b9060005260206000200154815260200190815260200160002061016060405190810160405290816000820154815260200160018201548152602001600282018054600181600116156101000203166002900480601f016020809104026020016040519081016040528092919081815260200182805460018160011615610100020316600290048015611d8f5780601f10611d6457610100808354040283529160200191611d8f565b820191906000526020600020905b815481529060010190602001808311611d7257829003601f168201915b505050918352505060038201805460408051602060026001851615610100026000190190941693909304601f8101849004840282018401909252818152938201939291830182828015611e235780601f10611df857610100808354040283529160200191611e23565b820191906000526020600020905b815481529060010190602001808311611e0657829003601f168201915b505050918352505060048201805460408051602060026001851615610100026000190190941693909304601f8101849004840282018401909252818152938201939291830182828015611eb75780601f10611e8c57610100808354040283529160200191611eb7565b820191906000526020600020905b815481529060010190602001808311611e9a57829003601f168201915b505050918352505060058201805460408051602060026001851615610100026000190190941693909304601f8101849004840282018401909252818152938201939291830182828015611f4b5780601f10611f2057610100808354040283529160200191611f4b565b820191906000526020600020905b815481529060010190602001808311611f2e57829003601f168201915b505050918352505060068201805460408051602060026001851615610100026000190190941693909304601f8101849004840282018401909252818152938201939291830182828015611fdf5780601f10611fb457610100808354040283529160200191611fdf565b820191906000526020600020905b815481529060010190602001808311611fc257829003601f168201915b505050505081526020016007820180548060200260200160405190810160405280929190818152602001828054801561203757602002820191906000526020600020905b815481526020019060010190808311612023575b505050505081526020016008820180548060200260200160405190810160405280929190818152602001828054801561208f57602002820191906000526020600020905b81548152602001906001019080831161207b575b50505050508152602001600982018054806020026020016040519081016040528092919081815260200182805480156120f157602002820191906000526020600020905b8154600160a060020a031681526001909101906020018083116120d3575b50505050508152602001600a82015481525050828281518110151561211257fe5b60209081029091010152600101611c9f565b600082815260026020526040812060080154908111156107c05760008381526002602052604090206008018054600019830190811061215f57fe5b9060005260206000200154600260008581526020019081526020016000206008018381548110151561218d57fe5b90600052602060002001819055508160026000858152602001908152602001600020600801600183038154811015156121c257fe5b60009182526020808320909101929092558481526002909152604090206008018054906115ee906000198301614631565b600080805b600654811015611a5c57336000908152600560208190526040822060030154600680549193918590811061222857fe5b6000918252602080832090910154600160a060020a031683528201929092526040019020600301541480156122a5575060026005600060068481548110151561226d57fe5b6000918252602080832090910154600160a060020a0316835282019290925260400190206006015460ff1660028111156122a357fe5b145b156122b1576001909101905b6001016121f8565b60008115156122dd5760405160e560020a62461bcd0281526004016105cd9061597d565b600086116123005760405160e560020a62461bcd0281526004016105cd9061598d565b33600090815260056020526040902054156123305760405160e560020a62461bcd0281526004016105cd906158bd565b6123398261318d565b151561235a5760405160e560020a62461bcd0281526004016105cd9061592d565b61236386613522565b90506123788686868585886001336000613711565b505050505050565b600061238b336114be565b151561239657600080fd5b5060045490565b6123a6336114be565b15156123b157600080fd5b600160a060020a0382166000908152600560205260409020600301546123d7908361332a565b604080518082018252600b81527f53757065722061646d696e0000000000000000000000000000000000000000006020808301918252600160a060020a0386166000908152600591829052939093209151612436939290920191614548565b5060038054600101808255600160a060020a03841660009081526005602090815260409091209283019190915582516124759260070191840190614548565b50600160a060020a038216600081815260056020818152604080842060068101805460ff19166002179055815160608101835260048185019081527f74657374000000000000000000000000000000000000000000000000000000009382019390935291825294909352526124ef916008019060016146b0565b506124f982613152565b5050565b60009081526002602052604090206008015490565b600160a060020a038216600090815260056020908152604082208851612540926001909201918a0190614548565b50600160a060020a0383166000908152600560209081526040909120875161257092600290920191890190614548565b50600160a060020a038316600090815260056020908152604090912083516125a092600890920191850190614709565b50600090505b600654811015612765576005600084600160a060020a0316600160a060020a0316815260200190815260200160002060070160405180828054600181600116156101000203166002900480156126335780601f10612611576101008083540402835291820191612633565b820191906000526020600020905b81548152906001019060200180831161261f575b50509150506040518091039020600019166005600060068481548110151561265757fe5b9060005260206000200160009054906101000a9004600160a060020a0316600160a060020a0316600160a060020a0316815260200190815260200160002060070160405180828054600181600116156101000203166002900480156126f35780601f106126d15761010080835404028352918201916126f3565b820191906000526020600020905b8154815290600101906020018083116126df575b5050915050604051809103902060001916141561275d57816005600060068481548110151561271e57fe5b6000918252602080832090910154600160a060020a031683528281019390935260409091019020825161275b936008909201929190910190614709565b505b6001016125a6565b50505050505050565b6000612779336114be565b151561278457600080fd5b50805b600154600019018110156127f057600180548282019081106127a557fe5b906000526020600020016001828154811015156127be57fe5b9060005260206000200190805460018160011615610100020316600290046127e7929190614756565b50600101612787565b60018054600019810190811061280257fe5b90600052602060002001600061281891906147cb565b60018054906107c090600019830161480f565b6128336145c2565b61283b6145c2565b3360009081526005602090815260409182902082516101608101845281548152600180830180548651600293821615610100026000190190911692909204601f81018690048602830186019096528582529194929385810193919291908301828280156128e95780601f106128be576101008083540402835291602001916128e9565b820191906000526020600020905b8154815290600101906020018083116128cc57829003601f168201915b5050509183525050600282810180546040805160206001841615610100026000190190931694909404601f8101839004830285018301909152808452938101939083018282801561297b5780601f106129505761010080835404028352916020019161297b565b820191906000526020600020905b81548152906001019060200180831161295e57829003601f168201915b505050505081526020016003820154815260200160048201548152602001600582018054600181600116156101000203166002900480601f016020809104026020016040519081016040528092919081815260200182805460018160011615610100020316600290048015612a315780601f10612a0657610100808354040283529160200191612a31565b820191906000526020600020905b815481529060010190602001808311612a1457829003601f168201915b5050509183525050600682015460209091019060ff166002811115612a5257fe5b6002811115612a5d57fe5b8152600682015461010090819004600160a060020a031660208084019190915260078401805460408051600260018416159096026000190190921694909404601f810184900484028201840185528082529390940193929091830182828015612b075780601f10612adc57610100808354040283529160200191612b07565b820191906000526020600020905b815481529060010190602001808311612aea57829003601f168201915b5050505050815260200160088201805480602002602001604051908101604052809291908181526020016000905b82821015612be05760008481526020908190208301805460408051601f6002600019610100600187161502019094169390930492830185900485028101850190915281815292830182828015612bcc5780601f10612ba157610100808354040283529160200191612bcc565b820191906000526020600020905b815481529060010190602001808311612baf57829003601f168201915b505050505081526020019060010190612b35565b50505050815260200160098201548152505090508091505b5090565b6060600080600060606000612c12600a8861348f565b600454909550612c2390600a6134c8565b6004549094501580612c3a57506004546000190185115b80612c4457508387115b15612c4e57613117565b60408051600a80825261016082019092526000945090816020015b612c71614655565b815260200190600190039081612c695790505091508490505b6004548110156131135760026000600483815481101515612ca757fe5b9060005260206000200154815260200190815260200160002061016060405190810160405290816000820154815260200160018201548152602001600282018054600181600116156101000203166002900480601f016020809104026020016040519081016040528092919081815260200182805460018160011615610100020316600290048015612d7a5780601f10612d4f57610100808354040283529160200191612d7a565b820191906000526020600020905b815481529060010190602001808311612d5d57829003601f168201915b505050918352505060038201805460408051602060026001851615610100026000190190941693909304601f8101849004840282018401909252818152938201939291830182828015612e0e5780601f10612de357610100808354040283529160200191612e0e565b820191906000526020600020905b815481529060010190602001808311612df157829003601f168201915b505050918352505060048201805460408051602060026001851615610100026000190190941693909304601f8101849004840282018401909252818152938201939291830182828015612ea25780601f10612e7757610100808354040283529160200191612ea2565b820191906000526020600020905b815481529060010190602001808311612e8557829003601f168201915b505050918352505060058201805460408051602060026001851615610100026000190190941693909304601f8101849004840282018401909252818152938201939291830182828015612f365780601f10612f0b57610100808354040283529160200191612f36565b820191906000526020600020905b815481529060010190602001808311612f1957829003601f168201915b505050918352505060068201805460408051602060026001851615610100026000190190941693909304601f8101849004840282018401909252818152938201939291830182828015612fca5780601f10612f9f57610100808354040283529160200191612fca565b820191906000526020600020905b815481529060010190602001808311612fad57829003601f168201915b505050505081526020016007820180548060200260200160405190810160405280929190818152602001828054801561302257602002820191906000526020600020905b81548152602001906001019080831161300e575b505050505081526020016008820180548060200260200160405190810160405280929190818152602001828054801561307a57602002820191906000526020600020905b815481526020019060010190808311613066575b50505050508152602001600982018054806020026020016040519081016040528092919081815260200182805480156130dc57602002820191906000526020600020905b8154600160a060020a031681526001909101906020018083116130be575b50505050508152602001600a8201548152505082848151811015156130fd57fe5b6020908102909101015260019283019201612c8a565b8195505b5050505050919050565b600091825260026020908152604083206008018054600181018255908452922090910155565b61315033613dd3565b565b61315b336114be565b151561316657600080fd5b61076681613e1b565b600160a060020a031660009081526005602052604090206003015490565b6000908152600260205260408120541190565b6000806131ac336114be565b15156131b757600080fd5b600088116131da5760405160e560020a62461bcd0281526004016105cd9061598d565b506003805460010190819055600081815260026020526040902054156132155760405160e560020a62461bcd0281526004016105cd9061591d565b61322481898989898989613e63565b60008181526002602052604090206103e8600a90910155979650505050505050565b600160a060020a038181166000908152600560205260408120600601549091829182916101009091041681106132915760405160e560020a62461bcd0281526004016105cd906158cd565b6002600160a060020a03851660009081526005602052604090206006015460ff1660028111156132bd57fe5b146132dd5760405160e560020a62461bcd0281526004016105cd9061595d565b600160a060020a03841660009081526005602052604090206004810154815460069092015490945090925060ff16600281111561331657fe5b90506110bf82898989878a878b6001613711565b6000805b600084815260026020526040902060090154600019018110156134275760008481526002602052604090206009018054600160a060020a03851691908390811061337457fe5b600091825260209091200154600160a060020a0316141561339457600191505b811561341f5760008481526002602052604090206009018054600183019081106133ba57fe5b6000918252602080832090910154868352600290915260409091206009018054600160a060020a0390921691839081106133f057fe5b9060005260206000200160006101000a815481600160a060020a030219169083600160a060020a031602179055505b60010161332e565b60008481526002602052604090206009018054600019810190811061344857fe5b60009182526020808320909101805473ffffffffffffffffffffffffffffffffffffffff1916905585825260029052604090206009018054906115ec906000198301614631565b6000808315156134a257600091506134c1565b508282028284828115156134b257fe5b04146134bd57600080fd5b8091505b5092915050565b6000808083116134d757600080fd5b82848115156134e257fe5b04949350505050565b6000600160a060020a038216151561350257600080fd5b50600160a060020a03166000908152602091909152604090205460ff1690565b60008080806002850615156135b45784604051602001808281526020019150506040516020818303038152906040526040518082805190602001908083835b602083106135805780518252601f199092019160209182019101613561565b6001836020036101000a0380198251168184511680821785525050505050509050019150506040518091039020925061369f565b84604051602001808281526020019150506040516020818303038152906040526040518082805190602001908083835b602083106136035780518252601f1990920191602091820191016135e4565b51815160209384036101000a600019018019909216911617905260408051929094018290038220828201528351808303820181529184019384905281519195509293508392850191508083835b6020831061366f5780518252601f199092019160209182019101613650565b6001836020036101000a038019825116818451168082178552505050505050905001915050604051809103902092505b60208110156136cc578281602081106136b457fe5b60f860020a91901a810204919091019060010161369f565b8260206002840106602081106136de57fe5b60f860020a91901a8102048360208406602081106136f857fe5b1a60f860020a0260f860020a9004029350505050919050565b6137196145c2565b60008410158061372a575060028411155b151561374b5760405160e560020a62461bcd0281526004016105cd906158fd565b8451151561376e5760405160e560020a62461bcd0281526004016105cd9061589d565b600160a060020a03831660009081526005602090815260409182902082516101608101845281548152600180830180548651600293821615610100026000190190911692909204601f81018690048602830186019096528582529194929385810193919291908301828280156138255780601f106137fa57610100808354040283529160200191613825565b820191906000526020600020905b81548152906001019060200180831161380857829003601f168201915b5050509183525050600282810180546040805160206001841615610100026000190190931694909404601f810183900483028501830190915280845293810193908301828280156138b75780601f1061388c576101008083540402835291602001916138b7565b820191906000526020600020905b81548152906001019060200180831161389a57829003601f168201915b505050505081526020016003820154815260200160048201548152602001600582018054600181600116156101000203166002900480601f01602080910402602001604051908101604052809291908181526020018280546001816001161561010002031660029004801561396d5780601f106139425761010080835404028352916020019161396d565b820191906000526020600020905b81548152906001019060200180831161395057829003601f168201915b5050509183525050600682015460209091019060ff16600281111561398e57fe5b600281111561399957fe5b8152600682015461010090819004600160a060020a031660208084019190915260078401805460408051600260018416159096026000190190921694909404601f810184900484028201840185528082529390940193929091830182828015613a435780601f10613a1857610100808354040283529160200191613a43565b820191906000526020600020905b815481529060010190602001808311613a2657829003601f168201915b5050505050815260200160088201805480602002602001604051908101604052809291908181526020016000905b82821015613b1c5760008481526020908190208301805460408051601f6002600019610100600187161502019094169390930492830185900485028101850190915281815292830182828015613b085780601f10613add57610100808354040283529160200191613b08565b820191906000526020600020905b815481529060010190602001808311613aeb57829003601f168201915b505050505081526020019060010190613a71565b50505090825250600991909101546020918201528b825281018a905260408101899052606081018890526080810187905260a081018690529050836002811115613b6257fe5b8160c001906002811115613b7257fe5b90816002811115613b7f57fe5b905250600160a060020a03831660e082018190526000908152600560209081526040909120825181558183015180518493613bc1926001850192910190614548565b5060408201518051613bdd916002840191602090910190614548565b50606082015160038201556080820151600482015560a08201518051613c0d916005840191602090910190614548565b5060c082015160068201805460ff19166001836002811115613c2b57fe5b021790555060e082015160068201805474ffffffffffffffffffffffffffffffffffffffff001916610100600160a060020a0390931683021790558201518051613c7f916007840191602090910190614548565b506101208201518051613c9c916008840191602090910190614833565b506101409190910151600990910155811515613dc757600680546001810182556000919091527ff652222313e28459528d920b65115c16c04f3efc82aaedc97be59f3f377c0d3f01805473ffffffffffffffffffffffffffffffffffffffff1916600160a060020a038516179055613d138761446e565b60408051606081018252600460208281019182527f746573740000000000000000000000000000000000000000000000000000000083850152908252600160a060020a0386166000908152600590915291909120613d789160089091019060016146b0565b5060608101516000908152600260208181526040808420600160a060020a0388168552600592839052932092018054613dc593600701926000196101006001841615020190911604614756565b505b50505050505050505050565b613de460008263ffffffff6144ae16565b604051600160a060020a038216907f3525e22824a8a7df2c9a6029941c824cf95b6447f1e13d5128fd3826d35afe8b90600090a250565b613e2c60008263ffffffff6144fa16565b604051600160a060020a038216907f47d1c22a25bb3a5d4e481b9b1e6944c2eade3181a0a20b495ed61d35b5323f2490600090a250565b613e6b614655565b85511515613e8e5760405160e560020a62461bcd0281526004016105cd9061596d565b82511515613eb15760405160e560020a62461bcd0281526004016105cd9061594d565b81511515613ed45760405160e560020a62461bcd0281526004016105cd9061593d565b6000888152600260208181526040928390208351610160810185528154815260018083015482850152828501805487519281161561010002600019011695909504601f81018590048502820185018752808252919592949286019390929190830182828015613f845780601f10613f5957610100808354040283529160200191613f84565b820191906000526020600020905b815481529060010190602001808311613f6757829003601f168201915b505050918352505060038201805460408051602060026001851615610100026000190190941693909304601f81018490048402820184019092528181529382019392918301828280156140185780601f10613fed57610100808354040283529160200191614018565b820191906000526020600020905b815481529060010190602001808311613ffb57829003601f168201915b505050918352505060048201805460408051602060026001851615610100026000190190941693909304601f81018490048402820184019092528181529382019392918301828280156140ac5780601f10614081576101008083540402835291602001916140ac565b820191906000526020600020905b81548152906001019060200180831161408f57829003601f168201915b505050918352505060058201805460408051602060026001851615610100026000190190941693909304601f81018490048402820184019092528181529382019392918301828280156141405780601f1061411557610100808354040283529160200191614140565b820191906000526020600020905b81548152906001019060200180831161412357829003601f168201915b505050918352505060068201805460408051602060026001851615610100026000190190941693909304601f81018490048402820184019092528181529382019392918301828280156141d45780601f106141a9576101008083540402835291602001916141d4565b820191906000526020600020905b8154815290600101906020018083116141b757829003601f168201915b505050505081526020016007820180548060200260200160405190810160405280929190818152602001828054801561422c57602002820191906000526020600020905b815481526020019060010190808311614218575b505050505081526020016008820180548060200260200160405190810160405280929190818152602001828054801561428457602002820191906000526020600020905b815481526020019060010190808311614270575b50505050508152602001600982018054806020026020016040519081016040528092919081815260200182805480156142e657602002820191906000526020600020905b8154600160a060020a031681526001909101906020018083116142c8575b5050509183525050600a919091015460209182015289825281810189815260408084018a8152606085018a90526080850189905260a0850188905260c0850187905260008d8152600280865292902085518155925160018401555180519495508594929361435a9392850192910190614548565b5060608201518051614376916003840191602090910190614548565b5060808201518051614392916004840191602090910190614548565b5060a082015180516143ae916005840191602090910190614548565b5060c082015180516143ca916006840191602090910190614548565b5060e082015180516143e6916007840191602090910190614880565b506101008201518051614403916008840191602090910190614880565b5061012082015180516144209160098401916020909101906148ba565b506101409190910151600a909101555050600480546001810182556000919091527f8a35acfbc15ff81a39ae7d344fd709f28e8600b4aa8c65c6b64bfe7fe36bd19b01959095555050505050565b600090815260026020908152604082206009018054600181018255908352912001805473ffffffffffffffffffffffffffffffffffffffff191633179055565b600160a060020a03811615156144c357600080fd5b6144cd82826134eb565b15156144d857600080fd5b600160a060020a0316600090815260209190915260409020805460ff19169055565b600160a060020a038116151561450f57600080fd5b61451982826134eb565b1561452357600080fd5b600160a060020a0316600090815260209190915260409020805460ff19166001179055565b828054600181600116156101000203166002900490600052602060002090601f016020900481019282601f1061458957805160ff19168380011785556145b6565b828001600101855582156145b6579182015b828111156145b657825182559160200191906001019061459b565b50612bf8929150614928565b610160604051908101604052806000815260200160608152602001606081526020016000815260200160008152602001606081526020016000600281111561460657fe5b81526020016000600160a060020a031681526020016060815260200160608152602001600081525090565b8154818355818111156107c0576000838152602090206107c0918101908301614928565b6101606040519081016040528060008152602001600081526020016060815260200160608152602001606081526020016060815260200160608152602001606081526020016060815260200160608152602001600081525090565b8280548282559060005260206000209081019282156146fd579160200282015b828111156146fd57825180516146ed918491602090910190614548565b50916020019190600101906146d0565b50612bf8929150614942565b8280548282559060005260206000209081019282156146fd579160200282015b828111156146fd5782518051614746918491602090910190614548565b5091602001919060010190614729565b828054600181600116156101000203166002900490600052602060002090601f016020900481019282601f1061478f57805485556145b6565b828001600101855582156145b657600052602060002091601f016020900482015b828111156145b65782548255916001019190600101906147b0565b50805460018160011615610100020316600290046000825580601f106147f15750610766565b601f0160209004906000526020600020908101906107669190614928565b8154818355818111156107c0576000838152602090206107c0918101908301614942565b8280548282559060005260206000209081019282156146fd579160200282015b828111156146fd5782518051614870918491602090910190614548565b5091602001919060010190614853565b8280548282559060005260206000209081019282156145b657916020028201828111156145b657825182559160200191906001019061459b565b82805482825590600052602060002090810192821561491c579160200282015b8281111561491c578251825473ffffffffffffffffffffffffffffffffffffffff1916600160a060020a039091161782556020909201916001909101906148da565b50612bf8929150614965565b610ffb91905b80821115612bf8576000815560010161492e565b610ffb91905b80821115612bf857600061495c82826147cb565b50600101614948565b610ffb91905b80821115612bf857805473ffffffffffffffffffffffffffffffffffffffff1916815560010161496b565b60006149a28235615a36565b9392505050565b6000601f820183136149ba57600080fd5b81356149cd6149c8826159e3565b6159bc565b81815260209384019390925082018360005b83811015614a0b57813586016149f58882614a15565b84525060209283019291909101906001016149df565b5050505092915050565b6000601f82018313614a2657600080fd5b8135614a346149c882615a04565b91508082526020830160208301858383011115614a5057600080fd5b614a5b838284615a5e565b50505092915050565b60006149a28235610ffb565b600060208284031215614a8257600080fd5b6000614a8e8484614996565b949350505050565b60008060408385031215614aa957600080fd5b6000614ab58585614996565b925050602083013567ffffffffffffffff811115614ad257600080fd5b614ade85828601614a15565b9150509250929050565b600060208284031215614afa57600080fd5b813567ffffffffffffffff811115614b1157600080fd5b614a8e84828501614a15565b600080600080600060a08688031215614b3557600080fd5b853567ffffffffffffffff811115614b4c57600080fd5b614b5888828901614a15565b955050602086013567ffffffffffffffff811115614b7557600080fd5b614b8188828901614a15565b9450506040614b9288828901614a64565b935050606086013567ffffffffffffffff811115614baf57600080fd5b614bbb88828901614a15565b9250506080614bcc88828901614996565b9150509295509295909350565b60008060008060008060c08789031215614bf257600080fd5b863567ffffffffffffffff811115614c0957600080fd5b614c1589828a01614a15565b965050602087013567ffffffffffffffff811115614c3257600080fd5b614c3e89828a01614a15565b9550506040614c4f89828a01614a64565b945050606087013567ffffffffffffffff811115614c6c57600080fd5b614c7889828a01614a15565b9350506080614c8989828a01614996565b92505060a087013567ffffffffffffffff811115614ca657600080fd5b614cb289828a016149a9565b9150509295509295509295565b60008060408385031215614cd257600080fd5b823567ffffffffffffffff811115614ce957600080fd5b614cf585828601614a15565b9250506020614ade85828601614a64565b600060208284031215614d1857600080fd5b6000614a8e8484614a64565b60008060008060008060c08789031215614d3d57600080fd5b6000614d498989614a64565b965050602087013567ffffffffffffffff811115614d6657600080fd5b614d7289828a01614a15565b955050604087013567ffffffffffffffff811115614d8f57600080fd5b614d9b89828a01614a15565b945050606087013567ffffffffffffffff811115614db857600080fd5b614dc489828a01614a15565b935050608087013567ffffffffffffffff811115614de157600080fd5b614ded89828a01614a15565b92505060a087013567ffffffffffffffff811115614e0a57600080fd5b614cb289828a01614a15565b600080600080600060a08688031215614e2e57600080fd5b6000614e3a8888614a64565b955050602086013567ffffffffffffffff811115614e5757600080fd5b614e6388828901614a15565b945050604086013567ffffffffffffffff811115614e8057600080fd5b614e8c88828901614a15565b935050606086013567ffffffffffffffff811115614ea957600080fd5b614eb588828901614a15565b9250506080614bcc88828901614a64565b60008060408385031215614ed957600080fd5b6000614cf58585614a64565b600080600080600080600060e0888a031215614f0057600080fd5b6000614f0c8a8a614a64565b9750506020614f1d8a828b01614a64565b965050604088013567ffffffffffffffff811115614f3a57600080fd5b614f468a828b01614a15565b955050606088013567ffffffffffffffff811115614f6357600080fd5b614f6f8a828b01614a15565b945050608088013567ffffffffffffffff811115614f8c57600080fd5b614f988a828b01614a15565b93505060a088013567ffffffffffffffff811115614fb557600080fd5b614fc18a828b01614a15565b92505060c088013567ffffffffffffffff811115614fde57600080fd5b614fea8a828b01614a15565b91505092959891949750929550565b61500281615a36565b82525050565b600061501382615a32565b80845260208401935061502583615a2c565b60005b828110156150555761503b868351614ff9565b61504482615a2c565b602096909601959150600101615028565b5093949350505050565b600061506a82615a32565b8084526020840193508360208202850161508385615a2c565b60005b848110156150ba57838303885261509e838351615283565b92506150a982615a2c565b602098909801979150600101615086565b50909695505050505050565b60006150d182615a32565b808452602084019350836020820285016150ea85615a2c565b60005b848110156150ba578383038852615105838351615283565b925061511082615a2c565b6020989098019791506001016150ed565b600061512c82615a32565b8084526020840193508360208202850161514585615a2c565b60005b848110156150ba578383038852615160838351615634565b925061516b82615a2c565b602098909801979150600101615148565b600061518782615a32565b808452602084019350836020820285016151a085615a2c565b60005b848110156150ba5783830388526151bb83835161574d565b92506151c682615a2c565b6020989098019791506001016151a3565b60006151e282615a32565b8084526020840193506151f483615a2c565b60005b828110156150555761520a868351615832565b61521382615a2c565b6020969096019591506001016151f7565b600061522f82615a32565b80845260208401935061524183615a2c565b60005b8281101561505557615257868351615832565b61526082615a2c565b602096909601959150600101615244565b61500281615a42565b61500281615a53565b600061528e82615a32565b8084526152a2816020860160208601615a6a565b6152ab81615a96565b9093016020019392505050565b601a81527f4372656174696f6e204461746520697320696d6d757461626c65000000000000602082015260400190565b601181527f726f6c65206973206d616e6461746f7279000000000000000000000000000000602082015260400190565b602281527f4f6e6c792070656e64696e672075736572732063616e2062652061636365707460208201527f6564000000000000000000000000000000000000000000000000000000000000604082015260600190565b601381527f5573657220616c72656164792065786973747300000000000000000000000000602082015260400190565b601481527f546869732075736572206e6f7420657869737473000000000000000000000000602082015260400190565b601b81527f596f752063616e6e6f7420616363657074207468697320757365720000000000602082015260400190565b602281527f4f6e6c792070656e64696e672075736572732063616e2062652072656a65637460208201527f6564000000000000000000000000000000000000000000000000000000000000604082015260600190565b601381527f737461747573206973206e6f742076616c696400000000000000000000000000602082015260400190565b601181527f6d656d626572206e6f7420657869737473000000000000000000000000000000602082015260400190565b601581527f4d656d62657220616c7265616479206578697374730000000000000000000000602082015260400190565b601181527f4d656d626572206e6f7420657869737473000000000000000000000000000000602082015260400190565b601281527f5468656d65206973206d616e6461746f72790000000000000000000000000000602082015260400190565b601081527f434d4f206973206d616e6461746f727900000000000000000000000000000000602082015260400190565b601481527f596f7520617265206e6f74206163636570746564000000000000000000000000602082015260400190565b601181527f4e616d65206973206d616e6461746f7279000000000000000000000000000000602082015260400190565b601181527f4e6f2076616c6964206d656d6265724964000000000000000000000000000000602082015260400190565b601981527f4372656174696f6e44617465206973206d616e6461746f727900000000000000602082015260400190565b80516000906101608401906156498582615832565b50602083015161565c6020860182615832565b50604083015184820360408601526156748282615283565b9150506060830151848203606086015261568e8282615283565b915050608083015184820360808601526156a88282615283565b91505060a083015184820360a08601526156c28282615283565b91505060c083015184820360c08601526156dc8282615283565b91505060e083015184820360e08601526156f68282615224565b9150506101008301518482036101008601526157128282615224565b91505061012083015184820361012086015261572e8282615008565b915050610140830151615745610140860182615832565b509392505050565b80516000906101608401906157628582615832565b506020830151848203602086015261577a8282615283565b915050604083015184820360408601526157948282615283565b91505060608301516157a96060860182615832565b5060808301516157bc6080860182615832565b5060a083015184820360a08601526157d48282615283565b91505060c08301516157e960c086018261527a565b5060e08301516157fc60e0860182614ff9565b506101008301518482036101008601526158168282615283565b91505061012083015184820361012086015261572e82826150c6565b61500281610ffb565b602080825281016149a2818461505f565b602080825281016149a28184615121565b602080825281016149a2818461517c565b602080825281016149a281846151d7565b602081016114d08284615271565b602080825281016114d0816152b8565b602080825281016114d0816152e8565b602080825281016114d081615318565b602080825281016114d08161536e565b602080825281016114d08161539e565b602080825281016114d0816153ce565b602080825281016114d0816153fe565b602080825281016114d081615454565b602080825281016114d081615484565b602080825281016114d0816154b4565b602080825281016114d0816154e4565b602080825281016114d081615514565b602080825281016114d081615544565b602080825281016114d081615574565b602080825281016114d0816155a4565b602080825281016114d0816155d4565b602080825281016114d081615604565b602080825281016149a2818461574d565b602081016114d08284615832565b60405181810167ffffffffffffffff811182821017156159db57600080fd5b604052919050565b600067ffffffffffffffff8211156159fa57600080fd5b5060209081020190565b600067ffffffffffffffff821115615a1b57600080fd5b506020601f91909101601f19160190565b60200190565b5190565b600160a060020a031690565b151590565b600060038210612bf857fe5b60006114d082615a47565b82818337506000910152565b60005b83811015615a85578181015183820152602001615a6d565b838111156115ee5750506000910152565b601f01601f1916905600a265627a7a72305820b0bcbb1f6450dd531470f9b3998bed4761aa2369e57575f2fccae66158abb7756c6578706572696d656e74616cf50037",
  "source": "pragma solidity ^0.4.24;\npragma experimental ABIEncoderV2;\n\nimport \"./Members.sol\";\nimport \"./Claims.sol\";\n\n\ncontract Users is Members {\n\n  struct User {\n    uint256 creationDate;\n    string firstName;\n    string lastName;\n    uint256 memberId;\n    uint256 requestId;\n    string role;\n    StatusUserEnum status;\n    address owner;  // primary key\n    string cmo;\n    string[] groups;\n    uint tokens;\n  }\n\n  enum StatusUserEnum {\n    REJECTED,\n    PENDING,\n    ACCEPTED\n  }\n\n  mapping (address => User) private users_;\n  address[] private usersList_;\n\n  uint256 constant private PAGE_SIZE = 10;\n\n  // PUBLIC\n\n  function registerUserRequest(uint256 _creationDate, string _firstName, string _lastName, string _role, uint256 _memberId) public {\n\n    require(_memberId != 0, \"No valid memberId\");\n    require(_creationDate > 0, \"CreationDate is mandatory\");\n    require(users_[msg.sender].creationDate == 0, \"User already exists\");\n    require(_memberExists(_memberId), \"Member not exists\");\n\n    uint256 _requestId = Random.rand(_creationDate);\n    _saveUser(_creationDate, _firstName, _lastName, _memberId, _requestId, _role, uint256(StatusUserEnum.PENDING), msg.sender, 0);\n  }\n\n  function updateUser(string _firstName, string _lastName, uint256 _memberId, string _role, address owner) public {\n\n    require(users_[owner].owner > address(0), \"This user not exists\");\n    require(uint(users_[owner].status) == uint(StatusUserEnum.ACCEPTED), \"You are not accepted\");\n\n    uint256 _requestId = users_[owner].requestId;\n    uint256 _creationDate = users_[owner].creationDate;\n    uint256 _status = uint(users_[owner].status);\n\n    _saveUser(_creationDate, _firstName, _lastName, _memberId, _requestId, _role, _status, owner, 1);\n  }\n\n  function updateSuperUser(string _firstName, string _lastName, uint256 _memberId, string _role, address owner, string[] _groups) public {\n\n    users_[owner].firstName = _firstName;\n    users_[owner].lastName = _lastName;\n    users_[owner].groups = _groups;\n\n    for (uint i = 0; i < usersList_.length; ++i) {\n      if (keccak256(users_[usersList_[i]].cmo) == keccak256(users_[owner].cmo)) {\n        users_[usersList_[i]].groups = _groups;\n      }\n    }\n\n  }\n\n  function rejectUser(address _userToReject) public {\n\n    require(users_[_userToReject].owner > address(0), \"This user not exists\");\n    require((users_[msg.sender].memberId == users_[_userToReject].memberId) || isSigner(msg.sender), \"You cannot accept this user\");\n    require((uint(users_[msg.sender].status) == uint(StatusUserEnum.ACCEPTED)) || isSigner(msg.sender), \"You are not accepted\");\n    require(users_[_userToReject].status == StatusUserEnum.PENDING, \"Only pending users can be rejected\");\n\n    users_[_userToReject].status = StatusUserEnum.REJECTED;\n    _clearUserFromMemberRequest(users_[_userToReject].memberId, _userToReject);\n  }\n\n  function acceptUser(address _userToAccept) public {\n\n    require(users_[_userToAccept].owner > address(0), \"This user not exists\");\n    require((users_[msg.sender].memberId == users_[_userToAccept].memberId) || isSigner(msg.sender), \"You cannot accept this user\");\n    require((uint(users_[msg.sender].status) == uint(StatusUserEnum.ACCEPTED)) || isSigner(msg.sender), \"You are not accepted\");\n    require(users_[_userToAccept].status == StatusUserEnum.PENDING, \"Only pending users can be accepted\");\n\n    if (    members_[users_[_userToAccept].memberId].totalTokens - 100 > 0) {\n      users_[_userToAccept].status = StatusUserEnum.ACCEPTED;\n      users_[_userToAccept].tokens = 100;\n      members_[users_[_userToAccept].memberId].totalTokens -= 100;\n      _clearUserFromMemberRequest(users_[_userToAccept].memberId, _userToAccept);\n    }\n  }\n\n  function getcountUsers() public view returns(uint) {\n    uint256 counter = 0;\n    for (uint i = 0; i < usersList_.length; ++i) {\n      if(users_[usersList_[i]].memberId == users_[msg.sender].memberId\n        && users_[usersList_[i]].status == StatusUserEnum.ACCEPTED) {\n        counter++;\n      }\n    }\n    return counter;\n  }\n\n  function whitelistAdmin(address account, string _cmo) public onlySigner {\n    _clearUserFromMemberRequest(users_[account].memberId, account);\n    users_[account].role = \"Super admin\";\n    users_[account].memberId = ++memberIdCounter_;\n    users_[account].cmo = _cmo;\n    users_[account].status = StatusUserEnum.ACCEPTED;\n    users_[account].groups = [\"test\"];\n    addSigner(account);\n  }\n\n  function getUsers(uint256 _page) public view returns(User[] memory) {\n    uint256 counter = getcountUsers();\n\n    uint256 pageIndex = SafeMath.mul(PAGE_SIZE, _page);\n    uint256 pageNumber = SafeMath.div(usersList_.length, PAGE_SIZE);\n\n    if (counter == 0 || pageIndex > counter || _page > pageNumber) {\n      return;\n    }\n\n    User[] memory userPageBasic = new User[](PAGE_SIZE);\n    uint256 counterFinal = 0;\n\n    for (uint j = pageIndex; j < usersList_.length; ++j) {\n      if(users_[usersList_[j]].memberId == users_[msg.sender].memberId\n        && users_[usersList_[j]].status == StatusUserEnum.ACCEPTED) {\n        userPageBasic[counterFinal] = users_[usersList_[j]];\n        ++counterFinal;\n      }\n    }\n    return userPageBasic;\n  }\n\n  function getUserByAddress(address userAddress) public view returns(User memory) {\n    return users_[userAddress];\n  }\n\n  function getUsersOwner() onlySigner public view returns(User[] memory) {\n    User[] memory userPageOwner = new User[](usersList_.length);\n\n    for (uint i = 0; i < usersList_.length; ++i) {\n      userPageOwner[i] = users_[usersList_[i]];\n    }\n\n    return userPageOwner;\n  }\n\n  function getMe() public view returns(User) {\n    //TODO: require\n    User memory user = users_[msg.sender];\n    return user;\n  }\n\n  // PRIVATE\n\n  function _saveUser(uint256 _creationDate, string _firstName, string _lastName, uint256 _memberId,\n    uint256 _requestId, string _role, uint256 _status, address owner, uint isCreate) internal {\n\n    require(_status >= 0 || _status <=2, \"status is not valid\");\n    require(bytes(_role).length != 0, \"role is mandatory\");\n\n    User memory user = users_[owner];\n\n    user.creationDate =  _creationDate;\n    user.firstName =  _firstName;\n    user.lastName =  _lastName;\n    user.memberId =  _memberId;\n    user.requestId =  _requestId;\n    user.role = _role;\n    user.status = StatusUserEnum(_status);\n    user.owner = owner;\n\n    users_[owner] = user;\n\n    if(isCreate == 0) {\n      usersList_.push(owner);\n//      if (users_[owner].status != StatusUserEnum.ACCEPTED) {\n      _addUserToMemberRequest(_memberId);\n//      }\n      users_[owner].groups = [\"test\"];                  // by default\n      users_[owner].cmo = members_[user.memberId].cmo;  // to initialize\n    }\n  }\n\n  function _memberIdFromCurrentAddress(address addr) view public returns(uint256) {\n    return users_[addr].memberId;\n  }\n\n}\n",
  "sourcePath": "/home/komodo/newUI2/bloomen-decentralized-rights-management-v2/truffle/contracts/registry/Users.sol",
  "compiler": {
    "name": "solc",
    "version": "0.4.24+commit.e67f0147.Emscripten.clang"
  },
  "schemaVersion": "2.0.1",
  "updatedAt": "2020-03-01T12:35:04.534Z"
}