{
  "contractName": "Users",
  "abi": [
    {
      "inputs": [
        {
          "name": "_MembersAddr",
          "type": "address"
        }
      ],
      "payable": false,
      "stateMutability": "nonpayable",
      "type": "constructor"
    },
    {
      "constant": false,
      "inputs": [
        {
          "name": "_firstName",
          "type": "string"
        },
        {
          "name": "_lastName",
          "type": "string"
        },
        {
          "name": "_role",
          "type": "string"
        },
        {
          "name": "_memberId",
          "type": "uint256"
        },
        {
          "name": "_kycData",
          "type": "string"
        }
      ],
      "name": "registerUserRequest",
      "outputs": [],
      "payable": false,
      "stateMutability": "nonpayable",
      "type": "function"
    },
    {
      "constant": false,
      "inputs": [
        {
          "name": "_firstName",
          "type": "string"
        },
        {
          "name": "_lastName",
          "type": "string"
        },
        {
          "name": "_memberId",
          "type": "uint256"
        },
        {
          "name": "_role",
          "type": "string"
        },
        {
          "name": "owner",
          "type": "address"
        },
        {
          "name": "_tokens",
          "type": "uint256"
        },
        {
          "name": "_kycData",
          "type": "string"
        }
      ],
      "name": "updateUser",
      "outputs": [],
      "payable": false,
      "stateMutability": "nonpayable",
      "type": "function"
    },
    {
      "constant": true,
      "inputs": [
        {
          "name": "_memberId",
          "type": "uint256"
        }
      ],
      "name": "getUsedTokens",
      "outputs": [
        {
          "name": "",
          "type": "uint256"
        }
      ],
      "payable": false,
      "stateMutability": "view",
      "type": "function"
    },
    {
      "constant": false,
      "inputs": [
        {
          "name": "_firstName",
          "type": "string"
        },
        {
          "name": "_lastName",
          "type": "string"
        },
        {
          "name": "_memberId",
          "type": "uint256"
        },
        {
          "name": "_role",
          "type": "string"
        },
        {
          "name": "owner",
          "type": "address"
        },
        {
          "name": "_groups",
          "type": "string[]"
        }
      ],
      "name": "updateSuperUser",
      "outputs": [],
      "payable": false,
      "stateMutability": "nonpayable",
      "type": "function"
    },
    {
      "constant": false,
      "inputs": [
        {
          "name": "_userToReject",
          "type": "address"
        }
      ],
      "name": "rejectUser",
      "outputs": [],
      "payable": false,
      "stateMutability": "nonpayable",
      "type": "function"
    },
    {
      "constant": false,
      "inputs": [
        {
          "name": "_userToAccept",
          "type": "address"
        }
      ],
      "name": "acceptUser",
      "outputs": [],
      "payable": false,
      "stateMutability": "nonpayable",
      "type": "function"
    },
    {
      "constant": true,
      "inputs": [],
      "name": "getcountUsers",
      "outputs": [
        {
          "name": "",
          "type": "uint256"
        }
      ],
      "payable": false,
      "stateMutability": "view",
      "type": "function"
    },
    {
      "constant": false,
      "inputs": [
        {
          "name": "account",
          "type": "address"
        },
        {
          "name": "_cmo",
          "type": "string"
        }
      ],
      "name": "whitelistAdmin",
      "outputs": [],
      "payable": false,
      "stateMutability": "nonpayable",
      "type": "function"
    },
    {
      "constant": true,
      "inputs": [
        {
          "name": "_page",
          "type": "uint256"
        }
      ],
      "name": "getUsers",
      "outputs": [
        {
          "components": [
            {
              "name": "owner",
              "type": "address"
            },
            {
              "name": "memberId",
              "type": "uint256"
            },
            {
              "name": "requestId",
              "type": "uint256"
            },
            {
              "name": "tokens",
              "type": "uint256"
            },
            {
              "name": "firstName",
              "type": "string"
            },
            {
              "name": "lastName",
              "type": "string"
            },
            {
              "name": "role",
              "type": "string"
            },
            {
              "name": "cmo",
              "type": "string"
            },
            {
              "name": "groups",
              "type": "string[]"
            },
            {
              "name": "kycData",
              "type": "string"
            },
            {
              "name": "status",
              "type": "uint256"
            }
          ],
          "name": "",
          "type": "tuple[]"
        }
      ],
      "payable": false,
      "stateMutability": "view",
      "type": "function"
    },
    {
      "constant": true,
      "inputs": [
        {
          "name": "userAddress",
          "type": "address"
        }
      ],
      "name": "getUserByAddress",
      "outputs": [
        {
          "components": [
            {
              "name": "owner",
              "type": "address"
            },
            {
              "name": "memberId",
              "type": "uint256"
            },
            {
              "name": "requestId",
              "type": "uint256"
            },
            {
              "name": "tokens",
              "type": "uint256"
            },
            {
              "name": "firstName",
              "type": "string"
            },
            {
              "name": "lastName",
              "type": "string"
            },
            {
              "name": "role",
              "type": "string"
            },
            {
              "name": "cmo",
              "type": "string"
            },
            {
              "name": "groups",
              "type": "string[]"
            },
            {
              "name": "kycData",
              "type": "string"
            },
            {
              "name": "status",
              "type": "uint256"
            }
          ],
          "name": "",
          "type": "tuple"
        }
      ],
      "payable": false,
      "stateMutability": "view",
      "type": "function"
    },
    {
      "constant": true,
      "inputs": [],
      "name": "getUsersOwner",
      "outputs": [
        {
          "components": [
            {
              "name": "owner",
              "type": "address"
            },
            {
              "name": "memberId",
              "type": "uint256"
            },
            {
              "name": "requestId",
              "type": "uint256"
            },
            {
              "name": "tokens",
              "type": "uint256"
            },
            {
              "name": "firstName",
              "type": "string"
            },
            {
              "name": "lastName",
              "type": "string"
            },
            {
              "name": "role",
              "type": "string"
            },
            {
              "name": "cmo",
              "type": "string"
            },
            {
              "name": "groups",
              "type": "string[]"
            },
            {
              "name": "kycData",
              "type": "string"
            },
            {
              "name": "status",
              "type": "uint256"
            }
          ],
          "name": "",
          "type": "tuple[]"
        }
      ],
      "payable": false,
      "stateMutability": "view",
      "type": "function"
    },
    {
      "constant": true,
      "inputs": [],
      "name": "getMe",
      "outputs": [
        {
          "components": [
            {
              "name": "owner",
              "type": "address"
            },
            {
              "name": "memberId",
              "type": "uint256"
            },
            {
              "name": "requestId",
              "type": "uint256"
            },
            {
              "name": "tokens",
              "type": "uint256"
            },
            {
              "name": "firstName",
              "type": "string"
            },
            {
              "name": "lastName",
              "type": "string"
            },
            {
              "name": "role",
              "type": "string"
            },
            {
              "name": "cmo",
              "type": "string"
            },
            {
              "name": "groups",
              "type": "string[]"
            },
            {
              "name": "kycData",
              "type": "string"
            },
            {
              "name": "status",
              "type": "uint256"
            }
          ],
          "name": "",
          "type": "tuple"
        }
      ],
      "payable": false,
      "stateMutability": "view",
      "type": "function"
    },
    {
      "constant": true,
      "inputs": [
        {
          "name": "addr",
          "type": "address"
        }
      ],
      "name": "_memberIdFromCurrentAddress",
      "outputs": [
        {
          "name": "",
          "type": "uint256"
        }
      ],
      "payable": false,
      "stateMutability": "view",
      "type": "function"
    },
    {
      "constant": false,
      "inputs": [
        {
          "name": "addr",
          "type": "address"
        },
        {
          "name": "transactionPrice",
          "type": "uint256"
        }
      ],
      "name": "updateTokens",
      "outputs": [],
      "payable": false,
      "stateMutability": "nonpayable",
      "type": "function"
    },
    {
      "constant": true,
      "inputs": [
        {
          "name": "addr",
          "type": "address"
        }
      ],
      "name": "getUserTokensByAddress",
      "outputs": [
        {
          "name": "",
          "type": "uint256"
        }
      ],
      "payable": false,
      "stateMutability": "view",
      "type": "function"
    }
  ],
  "bytecode": "0x6080604052650172dc26e7886003553480156200001b57600080fd5b5060405160208062003f0c83398101806040526200003d919081019062000078565b60008054600160a060020a031916600160a060020a0392909216919091179055620000ad565b6000620000718251620000a1565b9392505050565b6000602082840312156200008b57600080fd5b600062000099848462000063565b949350505050565b600160a060020a031690565b613e4f80620000bd6000396000f3006080604052600436106100da5763ffffffff7c010000000000000000000000000000000000000000000000000000000060003504166308bdc24d81146100df578063230500de146101015780634dc92885146101215780635d73ab9a1461014157806367e482ad1461017757806369c212f614610197578063884095d5146101c45780639249d753146101e4578063932191be14610211578063a4fdc59414610226578063a9eff5111461023b578063bcec99a61461025b578063c11e1ff31461027b578063eff34e5914610290578063fc81b525146102b0575b600080fd5b3480156100eb57600080fd5b506100ff6100fa366004613438565b6102d0565b005b34801561010d57600080fd5b506100ff61011c3660046136ed565b6106e4565b34801561012d57600080fd5b506100ff61013c366004613438565b610945565b34801561014d57600080fd5b5061016161015c3660046137e8565b610bf3565b60405161016e9190613c4e565b60405180910390f35b34801561018357600080fd5b506100ff6101923660046134b0565b61118d565b3480156101a357600080fd5b506101b76101b2366004613438565b611230565b60405161016e9190613cef565b3480156101d057600080fd5b506100ff6101df366004613533565b61164b565b3480156101f057600080fd5b506102046101ff366004613438565b611812565b60405161016e9190613d00565b34801561021d57600080fd5b50610161611830565b34801561023257600080fd5b50610204611d6d565b34801561024757600080fd5b506100ff61025636600461345e565b611e24565b34801561026757600080fd5b506100ff610276366004613607565b612137565b34801561028757600080fd5b506101b761238a565b34801561029c57600080fd5b506102046102ab366004613438565b6127db565b3480156102bc57600080fd5b506102046102cb3660046137e8565b6127fa565b600160a060020a03818116600090815260016020526040812054909116116103165760405160e560020a62461bcd02815260040161030d90613c7f565b60405180910390fd5b600160a060020a03811660009081526001602081905260408083208201543384529220015414806103c7575060005460405160e060020a637df73e27028152600160a060020a0390911690637df73e2790610375903390600401613c3a565b602060405180830381600087803b15801561038f57600080fd5b505af11580156103a3573d6000803e3d6000fd5b505050506040513d601f19601f820116820180604052506103c791908101906134e0565b15156103e85760405160e560020a62461bcd02815260040161030d90613c8f565b336000908152600160205260409020600a015460021480610489575060005460405160e060020a637df73e27028152600160a060020a0390911690637df73e2790610437903390600401613c3a565b602060405180830381600087803b15801561045157600080fd5b505af1158015610465573d6000803e3d6000fd5b505050506040513d601f19601f8201168201806040525061048991908101906134e0565b15156104aa5760405160e560020a62461bcd02815260040161030d90613ccf565b600160a060020a0381166000908152600160208190526040909120600a0154146104e95760405160e560020a62461bcd02815260040161030d90613c6f565b60008054600160a060020a03838116835260016020819052604093849020015492517fd8034379000000000000000000000000000000000000000000000000000000008152606493919092169163d80343799161054891600401613d00565b602060405180830381600087803b15801561056257600080fd5b505af1158015610576573d6000803e3d6000fd5b505050506040513d601f19601f8201168201806040525061059a9190810190613806565b11156106d857600160a060020a0380821660009081526001602081905260408083206002600a8201559254929091015490517fc88597c2000000000000000000000000000000000000000000000000000000008152919092169163c88597c29161060991908590600401613d0e565b600060405180830381600087803b15801561062357600080fd5b505af1158015610637573d6000803e3d6000fd5b50505050600160a060020a038181166000908152600160208190526040808320606460038201819055935492015490517ffda65156000000000000000000000000000000000000000000000000000000008152919093169263fda65156926106a192600401613d29565b600060405180830381600087803b1580156106bb57600080fd5b505af11580156106cf573d6000803e3d6000fd5b505050506106e1565b6106e181610945565b50565b600160a060020a03838116600090815260016020526040812054909182911681106107245760405160e560020a62461bcd02815260040161030d90613c7f565b600160a060020a0385166000908152600160205260409020600a01546002146107625760405160e560020a62461bcd02815260040161030d90613ccf565b600160a060020a0385166000908152600160205260409020600301548410156108265760008054600160a060020a038781168352600160208190526040938490209081015460039091015493517f6df448980000000000000000000000000000000000000000000000000000000081529190921692636df44898926107ef92909189900390600401613d29565b600060405180830381600087803b15801561080957600080fd5b505af115801561081d573d6000803e3d6000fd5b505050506108c2565b60008054600160a060020a038781168352600160208190526040938490209081015460039091015493517ffda65156000000000000000000000000000000000000000000000000000000008152919092169263fda651569261088f929091890390600401613d29565b600060405180830381600087803b1580156108a957600080fd5b505af11580156108bd573d6000803e3d6000fd5b505050505b600160a060020a03851660009081526001602090815260409091206003810186905584516108f8926009909201918601906130b2565b505050600160a060020a03831660009081526001602081905260409091206002810154600a90910154909161093a908a908a908a9086908b9087908c9061289b565b505050505050505050565b600160a060020a03818116600090815260016020526040812054909116116109825760405160e560020a62461bcd02815260040161030d90613c7f565b600160a060020a0381166000908152600160208190526040808320820154338452922001541480610a33575060005460405160e060020a637df73e27028152600160a060020a0390911690637df73e27906109e1903390600401613c3a565b602060405180830381600087803b1580156109fb57600080fd5b505af1158015610a0f573d6000803e3d6000fd5b505050506040513d601f19601f82011682018060405250610a3391908101906134e0565b1515610a545760405160e560020a62461bcd02815260040161030d90613c8f565b336000908152600160205260409020600a015460021480610af5575060005460405160e060020a637df73e27028152600160a060020a0390911690637df73e2790610aa3903390600401613c3a565b602060405180830381600087803b158015610abd57600080fd5b505af1158015610ad1573d6000803e3d6000fd5b505050506040513d601f19601f82011682018060405250610af591908101906134e0565b1515610b165760405160e560020a62461bcd02815260040161030d90613ccf565b600160a060020a0381166000908152600160208190526040909120600a015414610b555760405160e560020a62461bcd02815260040161030d90613c9f565b600160a060020a038082166000908152600160208190526040808320600a81018490559254929091015490517fc88597c2000000000000000000000000000000000000000000000000000000008152919092169163c88597c291610bbe91908590600401613d0e565b600060405180830381600087803b158015610bd857600080fd5b505af1158015610bec573d6000803e3d6000fd5b5050505050565b606060008060006060600080610c07611d6d565b9550610c14600a8961305a565b600254909550610c2590600a61308f565b9350851580610c3357508585115b80610c3d57508388115b15610c4757611182565b60408051600a808252610160820190925290816020015b610c6661312c565b815260200190600190039081610c5e579050509250600091508490505b60025481101561117e5733600090815260016020819052604082208101546002805491939185908110610cb257fe5b6000918252602080832090910154600160a060020a03168352820192909252604001902060010154148015610d21575060016000600283815481101515610cf557fe5b6000918252602080832090910154600160a060020a031683528201929092526040019020600a01546002145b156111765760016000600283815481101515610d3957fe5b600091825260208083209190910154600160a060020a0390811684528382019490945260409283019091208251610160810184528154909416845260018082015485840152600280830154868601526003830154606087015260048301805486516101009482161594909402600019011691909104601f810185900485028301850190955284825291936080860193919291830182828015610e1c5780601f10610df157610100808354040283529160200191610e1c565b820191906000526020600020905b815481529060010190602001808311610dff57829003601f168201915b505050918352505060058201805460408051602060026001851615610100026000190190941693909304601f8101849004840282018401909252818152938201939291830182828015610eb05780601f10610e8557610100808354040283529160200191610eb0565b820191906000526020600020905b815481529060010190602001808311610e9357829003601f168201915b505050918352505060068201805460408051602060026001851615610100026000190190941693909304601f8101849004840282018401909252818152938201939291830182828015610f445780601f10610f1957610100808354040283529160200191610f44565b820191906000526020600020905b815481529060010190602001808311610f2757829003601f168201915b505050918352505060078201805460408051602060026001851615610100026000190190941693909304601f8101849004840282018401909252818152938201939291830182828015610fd85780601f10610fad57610100808354040283529160200191610fd8565b820191906000526020600020905b815481529060010190602001808311610fbb57829003601f168201915b5050505050815260200160088201805480602002602001604051908101604052809291908181526020016000905b828210156110b15760008481526020908190208301805460408051601f600260001961010060018716150201909416939093049283018590048502810185019091528181529283018282801561109d5780601f106110725761010080835404028352916020019161109d565b820191906000526020600020905b81548152906001019060200180831161108057829003601f168201915b505050505081526020019060010190611006565b5050509082525060098201805460408051602060026001851615610100026000190190941693909304601f81018490048402820184019092528181529382019392918301828280156111445780601f1061111957610100808354040283529160200191611144565b820191906000526020600020905b81548152906001019060200180831161112757829003601f168201915b50505050508152602001600a82015481525050838381518110151561116557fe5b602090810290910101526001909101905b600101610c83565b8296505b505050505050919050565b600160a060020a03808316600090815260016020819052604080832060038101805487900390559254929091015490517ffda65156000000000000000000000000000000000000000000000000000000008152919092169163fda65156916111fa91908590600401613d29565b600060405180830381600087803b15801561121457600080fd5b505af1158015611228573d6000803e3d6000fd5b505050505050565b61123861312c565b600160a060020a03828116600090815260016020818152604092839020835161016081018552815490951685528083015485830152600280820154868601526003820154606087015260048201805486516101009682161596909602600019011691909104601f810184900484028501840190955284845290936080860193928301828280156113095780601f106112de57610100808354040283529160200191611309565b820191906000526020600020905b8154815290600101906020018083116112ec57829003601f168201915b505050918352505060058201805460408051602060026001851615610100026000190190941693909304601f810184900484028201840190925281815293820193929183018282801561139d5780601f106113725761010080835404028352916020019161139d565b820191906000526020600020905b81548152906001019060200180831161138057829003601f168201915b505050918352505060068201805460408051602060026001851615610100026000190190941693909304601f81018490048402820184019092528181529382019392918301828280156114315780601f1061140657610100808354040283529160200191611431565b820191906000526020600020905b81548152906001019060200180831161141457829003601f168201915b505050918352505060078201805460408051602060026001851615610100026000190190941693909304601f81018490048402820184019092528181529382019392918301828280156114c55780601f1061149a576101008083540402835291602001916114c5565b820191906000526020600020905b8154815290600101906020018083116114a857829003601f168201915b5050505050815260200160088201805480602002602001604051908101604052809291908181526020016000905b8282101561159e5760008481526020908190208301805460408051601f600260001961010060018716150201909416939093049283018590048502810185019091528181529283018282801561158a5780601f1061155f5761010080835404028352916020019161158a565b820191906000526020600020905b81548152906001019060200180831161156d57829003601f168201915b5050505050815260200190600101906114f3565b5050509082525060098201805460408051602060026001851615610100026000190190941693909304601f81018490048402820184019092528181529382019392918301828280156116315780601f1061160657610100808354040283529160200191611631565b820191906000526020600020905b81548152906001019060200180831161161457829003601f168201915b50505050508152602001600a820154815250509050919050565b600082151561166f5760405160e560020a62461bcd02815260040161030d90613cdf565b6000546040517ff8380733000000000000000000000000000000000000000000000000000000008152600160a060020a039091169063f8380733906116b8908690600401613d00565b602060405180830381600087803b1580156116d257600080fd5b505af11580156116e6573d6000803e3d6000fd5b505050506040513d601f19601f8201168201806040525061170a91908101906134e0565b151561172b5760405160e560020a62461bcd02815260040161030d90613cbf565b60005460038054600101908190556040517f6ce5e2bb000000000000000000000000000000000000000000000000000000008152600160a060020a0390921691636ce5e2bb9161177d91600401613d00565b602060405180830381600087803b15801561179757600080fd5b505af11580156117ab573d6000803e3d6000fd5b505050506040513d601f19601f820116820180604052506117cf9190810190613806565b90506117e38686858488600133600061289b565b3360009081526001602090815260409091208351611809926009909201918501906130b2565b50505050505050565b600160a060020a031660009081526001602052604090206003015490565b6000805460405160e060020a637df73e2702815260609283929091600160a060020a0390911690637df73e279061186b903390600401613c3a565b602060405180830381600087803b15801561188557600080fd5b505af1158015611899573d6000803e3d6000fd5b505050506040513d601f19601f820116820180604052506118bd91908101906134e0565b15156118c857600080fd5b60025460408051828152602080840282010190915290801561190457816020015b6118f161312c565b8152602001906001900390816118e95790505b509150600090505b600254811015611d67576001600060028381548110151561192957fe5b600091825260208083209190910154600160a060020a0390811684528382019490945260409283019091208251610160810184528154909416845260018082015485840152600280830154868601526003830154606087015260048301805486516101009482161594909402600019011691909104601f810185900485028301850190955284825291936080860193919291830182828015611a0c5780601f106119e157610100808354040283529160200191611a0c565b820191906000526020600020905b8154815290600101906020018083116119ef57829003601f168201915b505050918352505060058201805460408051602060026001851615610100026000190190941693909304601f8101849004840282018401909252818152938201939291830182828015611aa05780601f10611a7557610100808354040283529160200191611aa0565b820191906000526020600020905b815481529060010190602001808311611a8357829003601f168201915b505050918352505060068201805460408051602060026001851615610100026000190190941693909304601f8101849004840282018401909252818152938201939291830182828015611b345780601f10611b0957610100808354040283529160200191611b34565b820191906000526020600020905b815481529060010190602001808311611b1757829003601f168201915b505050918352505060078201805460408051602060026001851615610100026000190190941693909304601f8101849004840282018401909252818152938201939291830182828015611bc85780601f10611b9d57610100808354040283529160200191611bc8565b820191906000526020600020905b815481529060010190602001808311611bab57829003601f168201915b5050505050815260200160088201805480602002602001604051908101604052809291908181526020016000905b82821015611ca15760008481526020908190208301805460408051601f6002600019610100600187161502019094169390930492830185900485028101850190915281815292830182828015611c8d5780601f10611c6257610100808354040283529160200191611c8d565b820191906000526020600020905b815481529060010190602001808311611c7057829003601f168201915b505050505081526020019060010190611bf6565b5050509082525060098201805460408051602060026001851615610100026000190190941693909304601f8101849004840282018401909252818152938201939291830182828015611d345780601f10611d0957610100808354040283529160200191611d34565b820191906000526020600020905b815481529060010190602001808311611d1757829003601f168201915b50505050508152602001600a820154815250508282815181101515611d5557fe5b6020908102909101015260010161190c565b50919050565b600080805b600254811015611d675733600090815260016020819052604082208101546002805491939185908110611da157fe5b6000918252602080832090910154600160a060020a03168352820192909252604001902060010154148015611e10575060016000600283815481101515611de457fe5b6000918252602080832090910154600160a060020a031683528201929092526040019020600a01546002145b15611e1c576001909101905b600101611d72565b60005460405160e060020a637df73e27028152600160a060020a0390911690637df73e2790611e57903390600401613c3a565b602060405180830381600087803b158015611e7157600080fd5b505af1158015611e85573d6000803e3d6000fd5b505050506040513d601f19601f82011682018060405250611ea991908101906134e0565b1515611eb457600080fd5b60008054600160a060020a03848116835260016020819052604093849020015492517fc88597c200000000000000000000000000000000000000000000000000000000815291169163c88597c291611f1191908690600401613d0e565b600060405180830381600087803b158015611f2b57600080fd5b505af1158015611f3f573d6000803e3d6000fd5b5050604080518082018252600b81527f53757065722061646d696e0000000000000000000000000000000000000000006020808301918252600160a060020a03881660009081526001909152929092209051611fa29450600690910192506130b2565b506000809054906101000a9004600160a060020a0316600160a060020a031663f44a8bbe6040518163ffffffff167c0100000000000000000000000000000000000000000000000000000000028152600401602060405180830381600087803b15801561200e57600080fd5b505af1158015612022573d6000803e3d6000fd5b505050506040513d601f19601f820116820180604052506120469190810190613806565b600160a060020a038316600090815260016020818152604090922090810192909255825161207a92600701918401906130b2565b50600160a060020a03821660008181526001602081815260408084206002600a820155815160608101835260068185019081527f646967697431000000000000000000000000000000000000000000000000000093820193909352918252949093528190526120ed926008019190613190565b506000546040517feb12d61e000000000000000000000000000000000000000000000000000000008152600160a060020a039091169063eb12d61e906111fa908590600401613c3a565b600160a060020a038216600090815260016020908152604082208851612165926004909201918a01906130b2565b50600160a060020a03831660009081526001602090815260409091208751612195926005909201918901906130b2565b50600160a060020a038316600090815260016020908152604090912083516121c5926008909201918501906131e9565b50600090505b600254811015611809576001600084600160a060020a0316600160a060020a0316815260200190815260200160002060070160405180828054600181600116156101000203166002900480156122585780601f10612236576101008083540402835291820191612258565b820191906000526020600020905b815481529060010190602001808311612244575b50509150506040518091039020600019166001600060028481548110151561227c57fe5b9060005260206000200160009054906101000a9004600160a060020a0316600160a060020a0316600160a060020a0316815260200190815260200160002060070160405180828054600181600116156101000203166002900480156123185780601f106122f6576101008083540402835291820191612318565b820191906000526020600020905b815481529060010190602001808311612304575b5050915050604051809103902060001916141561238257816001600060028481548110151561234357fe5b6000918252602080832090910154600160a060020a03168352828101939093526040909101902082516123809360089092019291909101906131e9565b505b6001016121cb565b61239261312c565b61239a61312c565b3360009081526001602081905260409091206004015460029181161561010002600019011604156127d757336000908152600160208181526040928390208351610160810185528154600160a060020a031681528184015481840152600280830154828701526003830154606083015260048301805487516101009782161597909702600019011691909104601f81018590048502860185019096528585529094919360808601939092908301828280156124965780601f1061246b57610100808354040283529160200191612496565b820191906000526020600020905b81548152906001019060200180831161247957829003601f168201915b505050918352505060058201805460408051602060026001851615610100026000190190941693909304601f810184900484028201840190925281815293820193929183018282801561252a5780601f106124ff5761010080835404028352916020019161252a565b820191906000526020600020905b81548152906001019060200180831161250d57829003601f168201915b505050918352505060068201805460408051602060026001851615610100026000190190941693909304601f81018490048402820184019092528181529382019392918301828280156125be5780601f10612593576101008083540402835291602001916125be565b820191906000526020600020905b8154815290600101906020018083116125a157829003601f168201915b505050918352505060078201805460408051602060026001851615610100026000190190941693909304601f81018490048402820184019092528181529382019392918301828280156126525780601f1061262757610100808354040283529160200191612652565b820191906000526020600020905b81548152906001019060200180831161263557829003601f168201915b5050505050815260200160088201805480602002602001604051908101604052809291908181526020016000905b8282101561272b5760008481526020908190208301805460408051601f60026000196101006001871615020190941693909304928301859004850281018501909152818152928301828280156127175780601f106126ec57610100808354040283529160200191612717565b820191906000526020600020905b8154815290600101906020018083116126fa57829003601f168201915b505050505081526020019060010190612680565b5050509082525060098201805460408051602060026001851615610100026000190190941693909304601f81018490048402820184019092528181529382019392918301828280156127be5780601f10612793576101008083540402835291602001916127be565b820191906000526020600020905b8154815290600101906020018083116127a157829003601f168201915b50505050508152602001600a8201548152505090508091505b5090565b600160a060020a03166000908152600160208190526040909120015490565b600080805b60025481101561289457836001600060028481548110151561281d57fe5b6000918252602080832090910154600160a060020a03168352820192909252604001902060010154141561288c576001600060028381548110151561285e57fe5b6000918252602080832090910154600160a060020a0316835282019290925260400190206003015491909101905b6001016127ff565b5092915050565b6128a361312c565b600084101580156128b5575060028411155b15156128d65760405160e560020a62461bcd02815260040161030d90613caf565b845115156128f95760405160e560020a62461bcd02815260040161030d90613c5f565b600160a060020a03838116600090815260016020818152604092839020835161016081018552815490951685528083015485830152600280820154868601526003820154606087015260048201805486516101009682161596909602600019011691909104601f810184900484028501840190955284845290936080860193928301828280156129ca5780601f1061299f576101008083540402835291602001916129ca565b820191906000526020600020905b8154815290600101906020018083116129ad57829003601f168201915b505050918352505060058201805460408051602060026001851615610100026000190190941693909304601f8101849004840282018401909252818152938201939291830182828015612a5e5780601f10612a3357610100808354040283529160200191612a5e565b820191906000526020600020905b815481529060010190602001808311612a4157829003601f168201915b505050918352505060068201805460408051602060026001851615610100026000190190941693909304601f8101849004840282018401909252818152938201939291830182828015612af25780601f10612ac757610100808354040283529160200191612af2565b820191906000526020600020905b815481529060010190602001808311612ad557829003601f168201915b505050918352505060078201805460408051602060026001851615610100026000190190941693909304601f8101849004840282018401909252818152938201939291830182828015612b865780601f10612b5b57610100808354040283529160200191612b86565b820191906000526020600020905b815481529060010190602001808311612b6957829003601f168201915b5050505050815260200160088201805480602002602001604051908101604052809291908181526020016000905b82821015612c5f5760008481526020908190208301805460408051601f6002600019610100600187161502019094169390930492830185900485028101850190915281815292830182828015612c4b5780601f10612c2057610100808354040283529160200191612c4b565b820191906000526020600020905b815481529060010190602001808311612c2e57829003601f168201915b505050505081526020019060010190612bb4565b5050509082525060098201805460408051602060026001851615610100026000190190941693909304601f8101849004840282018401909252818152938201939291830182828015612cf25780601f10612cc757610100808354040283529160200191612cf2565b820191906000526020600020905b815481529060010190602001808311612cd557829003601f168201915b5050509183525050600a9190910154602091820152608082018b815260a083018b90528282018a815260408085018b815260c086018b905261014086018a9052600160a060020a03898116808852600090815260018088529390208751815473ffffffffffffffffffffffffffffffffffffffff19169216919091178155925191830191909155516002820155606084015160038201559051805193945084939192612da6926004850192909101906130b2565b5060a08201518051612dc29160058401916020909101906130b2565b5060c08201518051612dde9160068401916020909101906130b2565b5060e08201518051612dfa9160078401916020909101906130b2565b506101008201518051612e17916008840191602090910190613236565b506101208201518051612e349160098401916020909101906130b2565b506101409190910151600a9091015581151561093a576002805460018101825560009182527f405787fa12a823e0f2b7631cc41b3ba8828b3321ca811111fa75cd3aa3bb5ace01805473ffffffffffffffffffffffffffffffffffffffff1916600160a060020a038681169190911790915590546040517fb78c36c700000000000000000000000000000000000000000000000000000000815291169063b78c36c790612ee5908a90600401613d00565b600060405180830381600087803b158015612eff57600080fd5b505af1158015612f13573d6000803e3d6000fd5b505060408051606081018252600660208281019182527f646967697431000000000000000000000000000000000000000000000000000083850152908252600160a060020a038816600090815260019182905292909220612f7a9450600801925090613190565b5060005460208201516040517f466cc2bf000000000000000000000000000000000000000000000000000000008152600160a060020a039092169163466cc2bf91612fc791600401613d00565b600060405180830381600087803b158015612fe157600080fd5b505af1158015612ff5573d6000803e3d6000fd5b505050506040513d6000823e601f3d908101601f1916820160405261301d91908101906134fe565b600160a060020a0384166000908152600160209081526040909120825161304e9360079092019291909101906130b2565b50505050505050505050565b60008083151561306d5760009150612894565b5082820282848281151561307d57fe5b041461308857600080fd5b9392505050565b60008080831161309e57600080fd5b82848115156130a957fe5b04949350505050565b828054600181600116156101000203166002900490600052602060002090601f016020900481019282601f106130f357805160ff1916838001178555613120565b82800160010185558215613120579182015b82811115613120578251825591602001919060010190613105565b506127d7929150613283565b610160604051908101604052806000600160a060020a03168152602001600081526020016000815260200160008152602001606081526020016060815260200160608152602001606081526020016060815260200160608152602001600081525090565b8280548282559060005260206000209081019282156131dd579160200282015b828111156131dd57825180516131cd9184916020909101906130b2565b50916020019190600101906131b0565b506127d79291506132a0565b8280548282559060005260206000209081019282156131dd579160200282015b828111156131dd57825180516132269184916020909101906130b2565b5091602001919060010190613209565b8280548282559060005260206000209081019282156131dd579160200282015b828111156131dd57825180516132739184916020909101906130b2565b5091602001919060010190613256565b61329d91905b808211156127d75760008155600101613289565b90565b61329d91905b808211156127d75760006132ba82826132c3565b506001016132a6565b50805460018160011615610100020316600290046000825580601f106132e957506106e1565b601f0160209004906000526020600020908101906106e19190613283565b60006130888235613dbe565b6000601f8201831361332457600080fd5b813561333761333282613d6b565b613d44565b81815260209384019390925082018360005b83811015613375578135860161335f888261338b565b8452506020928301929190910190600101613349565b5050505092915050565b60006130888251613dca565b6000601f8201831361339c57600080fd5b81356133aa61333282613d8c565b915080825260208301602083018583830111156133c657600080fd5b6133d1838284613dcf565b50505092915050565b6000601f820183136133eb57600080fd5b81516133f961333282613d8c565b9150808252602083016020830185838301111561341557600080fd5b6133d1838284613ddb565b6000613088823561329d565b6000613088825161329d565b60006020828403121561344a57600080fd5b60006134568484613307565b949350505050565b6000806040838503121561347157600080fd5b600061347d8585613307565b925050602083013567ffffffffffffffff81111561349a57600080fd5b6134a68582860161338b565b9150509250929050565b600080604083850312156134c357600080fd5b60006134cf8585613307565b92505060206134a685828601613420565b6000602082840312156134f257600080fd5b6000613456848461337f565b60006020828403121561351057600080fd5b815167ffffffffffffffff81111561352757600080fd5b613456848285016133da565b600080600080600060a0868803121561354b57600080fd5b853567ffffffffffffffff81111561356257600080fd5b61356e8882890161338b565b955050602086013567ffffffffffffffff81111561358b57600080fd5b6135978882890161338b565b945050604086013567ffffffffffffffff8111156135b457600080fd5b6135c08882890161338b565b93505060606135d188828901613420565b925050608086013567ffffffffffffffff8111156135ee57600080fd5b6135fa8882890161338b565b9150509295509295909350565b60008060008060008060c0878903121561362057600080fd5b863567ffffffffffffffff81111561363757600080fd5b61364389828a0161338b565b965050602087013567ffffffffffffffff81111561366057600080fd5b61366c89828a0161338b565b955050604061367d89828a01613420565b945050606087013567ffffffffffffffff81111561369a57600080fd5b6136a689828a0161338b565b93505060806136b789828a01613307565b92505060a087013567ffffffffffffffff8111156136d457600080fd5b6136e089828a01613313565b9150509295509295509295565b600080600080600080600060e0888a03121561370857600080fd5b873567ffffffffffffffff81111561371f57600080fd5b61372b8a828b0161338b565b975050602088013567ffffffffffffffff81111561374857600080fd5b6137548a828b0161338b565b96505060406137658a828b01613420565b955050606088013567ffffffffffffffff81111561378257600080fd5b61378e8a828b0161338b565b945050608061379f8a828b01613307565b93505060a06137b08a828b01613420565b92505060c088013567ffffffffffffffff8111156137cd57600080fd5b6137d98a828b0161338b565b91505092959891949750929550565b6000602082840312156137fa57600080fd5b60006134568484613420565b60006020828403121561381857600080fd5b6000613456848461342c565b61382d81613dbe565b82525050565b600061383e82613dba565b8084526020840193508360208202850161385785613db4565b60005b8481101561388e5783830388526138728383516138f5565b925061387d82613db4565b60209890980197915060010161385a565b50909695505050505050565b60006138a582613dba565b808452602084019350836020820285016138be85613db4565b60005b8481101561388e5783830388526138d9838351613b26565b92506138e482613db4565b6020989098019791506001016138c1565b600061390082613dba565b808452613914816020860160208601613ddb565b61391d81613e0b565b9093016020019392505050565b601181527f726f6c65206973206d616e6461746f7279000000000000000000000000000000602082015260400190565b602281527f4f6e6c792070656e64696e672075736572732063616e2062652061636365707460208201527f6564000000000000000000000000000000000000000000000000000000000000604082015260600190565b601481527f546869732075736572206e6f7420657869737473000000000000000000000000602082015260400190565b601b81527f596f752063616e6e6f7420616363657074207468697320757365720000000000602082015260400190565b602281527f4f6e6c792070656e64696e672075736572732063616e2062652072656a65637460208201527f6564000000000000000000000000000000000000000000000000000000000000604082015260600190565b601381527f737461747573206973206e6f742076616c696400000000000000000000000000602082015260400190565b601181527f4d656d626572206e6f7420657869737473000000000000000000000000000000602082015260400190565b601481527f596f7520617265206e6f74206163636570746564000000000000000000000000602082015260400190565b601181527f4e6f2076616c6964206d656d6265724964000000000000000000000000000000602082015260400190565b8051600090610160840190613b3b8582613824565b506020830151613b4e6020860182613c31565b506040830151613b616040860182613c31565b506060830151613b746060860182613c31565b5060808301518482036080860152613b8c82826138f5565b91505060a083015184820360a0860152613ba682826138f5565b91505060c083015184820360c0860152613bc082826138f5565b91505060e083015184820360e0860152613bda82826138f5565b915050610100830151848203610100860152613bf68282613833565b915050610120830151848203610120860152613c1282826138f5565b915050610140830151613c29610140860182613c31565b509392505050565b61382d8161329d565b60208101613c488284613824565b92915050565b60208082528101613088818461389a565b60208082528101613c488161392a565b60208082528101613c488161395a565b60208082528101613c48816139b0565b60208082528101613c48816139e0565b60208082528101613c4881613a10565b60208082528101613c4881613a66565b60208082528101613c4881613a96565b60208082528101613c4881613ac6565b60208082528101613c4881613af6565b602080825281016130888184613b26565b60208101613c488284613c31565b60408101613d1c8285613c31565b6130886020830184613824565b60408101613d378285613c31565b6130886020830184613c31565b60405181810167ffffffffffffffff81118282101715613d6357600080fd5b604052919050565b600067ffffffffffffffff821115613d8257600080fd5b5060209081020190565b600067ffffffffffffffff821115613da357600080fd5b506020601f91909101601f19160190565b60200190565b5190565b600160a060020a031690565b151590565b82818337506000910152565b60005b83811015613df6578181015183820152602001613dde565b83811115613e05576000848401525b50505050565b601f01601f1916905600a265627a7a72305820e17d83fec262b98fb77ce0d6e2b43fcd0b31f0760aaaa44dcdbf04ad719e7ec86c6578706572696d656e74616cf50037",
  "source": "pragma solidity ^0.4.24;\npragma experimental ABIEncoderV2;\n\nimport \"./Members.sol\";\nimport \"./Claims.sol\";\n\ncontract Users {\n\n  Members private _Members;\n  //  Users.User private currentUser;\n\n  constructor (address _MembersAddr) public {\n    _Members = Members(_MembersAddr);\n    //    currentUser = _Users.getUserByAddress(msg.sender);\n  }\n\n  modifier onlySigner() {\n    require(_Members.isSigner(msg.sender));\n    _;\n  }\n\n  struct User {\n//    uint256 creationDate;\n//    uint256 accountExpirationDate;\n    address owner;  // primary key\n    uint256 memberId;\n    uint256 requestId;\n    uint tokens;\n    string firstName;\n    string lastName;\n    string role;\n    string cmo;\n    string[] groups;\n    string kycData;\n    uint status;\n  }\n//\n//  enum StatusUserEnum {\n//    REJECTED, // 0\n//    PENDING,  // 1\n//    ACCEPTED  // 2\n//  }\n\n  mapping (address => User) private users_;\n  address[] private usersList_;\n  uint256 constant private PAGE_SIZE = 10;\n  uint private requestIdCounter = 1592831436680;\n  uint256 constant private userStartTokens = 100;\n\n  // PUBLIC\n\n  function registerUserRequest(string _firstName, string _lastName, string _role, uint256 _memberId,\n    string _kycData) public {\n\n    require(_memberId != 0, \"No valid memberId\");\n//    require(_creationDate > 0, \"CreationDate is mandatory\");\n//    require(users_[msg.sender].creationDate == 0, \"User already exists\");\n    require(_Members._memberExists(_memberId), \"Member not exists\");\n\n    uint256 _requestId = _Members.calcRandom(++requestIdCounter);\n    _saveUser(_firstName, _lastName, _memberId, _requestId, _role, 1, msg.sender, 0);\n    users_[msg.sender].kycData = _kycData;\n  }\n\n  function updateUser(string _firstName, string _lastName, uint256 _memberId, string _role, address owner,\n    uint _tokens, string _kycData) public {\n\n    require(users_[owner].owner > address(0), \"This user not exists\");\n    require(users_[owner].status == 2, \"You are not accepted\");\n    if (users_[owner].tokens > _tokens) {\n      _Members.increaseMemberTotalTokens(users_[owner].memberId, users_[owner].tokens - _tokens);\n//      members_[users_[owner].memberId].totalTokens += users_[owner].tokens - _tokens; // add new Members function\n    } else {\n      _Members.updateMemberTotalTokens(users_[owner].memberId, _tokens - users_[owner].tokens);\n//      members_[users_[owner].memberId].totalTokens -= _tokens - users_[owner].tokens; // -//-\n    }\n    users_[owner].tokens = _tokens;\n    users_[owner].kycData = _kycData;\n\n    uint256 _requestId = users_[owner].requestId;\n//    uint256 _creationDate = users_[owner].creationDate;\n    uint256 _status = users_[owner].status;\n\n    _saveUser(_firstName, _lastName, _memberId, _requestId, _role, _status, owner, 1);\n  }\n\n  function getUsedTokens(uint256 _memberId) public view returns (uint){\n    uint usedTokens = 0;\n    for (uint i = 0; i < usersList_.length; ++i) {\n      if (users_[usersList_[i]].memberId == _memberId) {\n        usedTokens += users_[usersList_[i]].tokens;\n      }\n    }\n    return usedTokens;\n  }\n\n  function updateSuperUser(string _firstName, string _lastName, uint256 _memberId, string _role, address owner,\n    string[] _groups) public {\n\n    users_[owner].firstName = _firstName;\n    users_[owner].lastName = _lastName;\n    users_[owner].groups = _groups;\n\n    for (uint i = 0; i < usersList_.length; ++i) {\n      if (keccak256(users_[usersList_[i]].cmo) == keccak256(users_[owner].cmo)) {\n        users_[usersList_[i]].groups = _groups;\n      }\n    }\n\n  }\n\n  function rejectUser(address _userToReject) public {\n\n    require(users_[_userToReject].owner > address(0), \"This user not exists\");\n    require((users_[msg.sender].memberId == users_[_userToReject].memberId) || _Members.isSigner(msg.sender), \"You cannot accept this user\");\n    require(users_[msg.sender].status == 2 || _Members.isSigner(msg.sender), \"You are not accepted\");\n    require(users_[_userToReject].status == 1, \"Only pending users can be rejected\");\n\n    users_[_userToReject].status = 0;\n    _Members._clearUserFromMemberRequest(users_[_userToReject].memberId, _userToReject);\n  }\n\n  function acceptUser(address _userToAccept) public {\n\n    require(users_[_userToAccept].owner > address(0), \"This user not exists\");\n    require((users_[msg.sender].memberId == users_[_userToAccept].memberId) || _Members.isSigner(msg.sender), \"You cannot accept this user\");\n    require(users_[msg.sender].status == 2 || _Members.isSigner(msg.sender), \"You are not accepted\");\n    require(users_[_userToAccept].status == 1, \"Only pending users can be accepted\");\n\n    // new functions\n    if (_Members.getMemberTotalTokens(users_[_userToAccept].memberId) > userStartTokens) {\n      users_[_userToAccept].status = 2;\n      _Members._clearUserFromMemberRequest(users_[_userToAccept].memberId, _userToAccept);\n      users_[_userToAccept].tokens = userStartTokens;\n      _Members.updateMemberTotalTokens(users_[_userToAccept].memberId, userStartTokens);\n//      members_[users_[_userToAccept].memberId].totalTokens -= userStartTokens;\n    } else {\n      rejectUser(_userToAccept);\n    }\n  }\n\n  function getcountUsers() public view returns(uint) {\n    uint256 counter = 0;\n    for (uint i = 0; i < usersList_.length; ++i) {\n      if(users_[usersList_[i]].memberId == users_[msg.sender].memberId\n        && users_[usersList_[i]].status == 2) {\n        counter++;\n      }\n    }\n    return counter;\n  }\n\n  function whitelistAdmin(address account, string _cmo) public onlySigner {\n    _Members._clearUserFromMemberRequest(users_[account].memberId, account);\n    users_[account].role = \"Super admin\";\n    users_[account].memberId = _Members.returnUpdatedMemberIdCounter();\n    users_[account].cmo = _cmo;\n//    users_[account].tokens = 0; // should \"Super admin\" users have tokens?\n    users_[account].status = 2;\n    users_[account].groups = [\"digit1\"];\n    _Members.addSigner(account);\n  }\n\n  function getUsers(uint256 _page) public view returns(User[] memory) {\n    uint256 counter = getcountUsers();\n\n    uint256 pageIndex = SafeMath.mul(PAGE_SIZE, _page);\n    uint256 pageNumber = SafeMath.div(usersList_.length, PAGE_SIZE);\n\n    if (counter == 0 || pageIndex > counter || _page > pageNumber) {\n      return;\n    }\n\n    User[] memory userPageBasic = new User[](PAGE_SIZE);\n    uint256 counterFinal = 0;\n\n    for (uint j = pageIndex; j < usersList_.length; ++j) {\n      if(users_[usersList_[j]].memberId == users_[msg.sender].memberId\n        && users_[usersList_[j]].status == 2) {\n        userPageBasic[counterFinal] = users_[usersList_[j]];\n        ++counterFinal;\n      }\n    }\n    return userPageBasic;\n  }\n\n  function getUserByAddress(address userAddress) public view returns(User memory) {\n    return users_[userAddress];\n  }\n\n  function getUsersOwner() onlySigner public view returns(User[] memory) {\n    User[] memory userPageOwner = new User[](usersList_.length);\n    for (uint i = 0; i < usersList_.length; ++i) {\n      userPageOwner[i] = users_[usersList_[i]];\n    }\n    return userPageOwner;\n  }\n\n  function getMe() public view returns(User) {\n      if (bytes(users_[msg.sender].firstName).length != 0) {\n        User memory user = users_[msg.sender];\n        return user;\n      } else {\n        return;\n      }\n  }\n\n\n  function _saveUser(string _firstName, string _lastName, uint256 _memberId,\n    uint256 _requestId, string _role, uint256 _status, address owner, uint isCreate) internal {\n\n    require(_status >= 0 && _status <=2, \"status is not valid\");\n    require(bytes(_role).length != 0, \"role is mandatory\");\n\n    User memory user = users_[owner];\n\n//    user.creationDate =  _creationDate;\n    user.firstName =  _firstName;\n    user.lastName =  _lastName;\n    user.memberId =  _memberId;\n    user.requestId =  _requestId;\n    user.role = _role;\n    user.status = _status;\n    user.owner = owner;\n\n    users_[owner] = user;\n\n    if (isCreate == 0) {\n      usersList_.push(owner);\n//      if (users_[owner].status != 2) {\n      _Members._addUserToMemberRequest(_memberId);\n//      }\n      users_[owner].groups = [\"digit1\"];                  // by default\n      users_[owner].cmo = _Members.getMemberCmo(user.memberId); // to initialize\n    }\n  }\n\n  function _memberIdFromCurrentAddress(address addr) view public returns(uint256) {\n    return users_[addr].memberId;\n  }\n\n  function updateTokens(address addr, uint transactionPrice) public {\n    users_[addr].tokens -= transactionPrice;\n    _Members.updateMemberTotalTokens(users_[addr].memberId, transactionPrice);\n  }\n\n  function getUserTokensByAddress(address addr) view public returns(uint) {\n    return users_[addr].tokens;\n  }\n\n}\n",
  "sourcePath": "/home/komodo/newUI2/bloomen-decentralized-rights-management-v2/truffle/contracts/registry/Users.sol",
  "compiler": {
    "name": "solc",
    "version": "0.4.24+commit.e67f0147.Emscripten.clang"
  },
  "schemaVersion": "2.0.1",
  "updatedAt": "2020-06-25T16:41:16.320Z"
}