{
  "contractName": "Users",
  "abi": [
    {
      "inputs": [
        {
          "name": "_MembersAddr",
          "type": "address"
        }
      ],
      "payable": false,
      "stateMutability": "nonpayable",
      "type": "constructor"
    },
    {
      "constant": false,
      "inputs": [
        {
          "name": "_creationDate",
          "type": "uint256"
        },
        {
          "name": "_firstName",
          "type": "string"
        },
        {
          "name": "_lastName",
          "type": "string"
        },
        {
          "name": "_role",
          "type": "string"
        },
        {
          "name": "_memberId",
          "type": "uint256"
        },
        {
          "name": "_kycData",
          "type": "string"
        }
      ],
      "name": "registerUserRequest",
      "outputs": [],
      "payable": false,
      "stateMutability": "nonpayable",
      "type": "function"
    },
    {
      "constant": false,
      "inputs": [
        {
          "name": "_creationDate",
          "type": "uint256"
        },
        {
          "name": "_firstName",
          "type": "string"
        },
        {
          "name": "_lastName",
          "type": "string"
        },
        {
          "name": "_memberId",
          "type": "uint256"
        },
        {
          "name": "_role",
          "type": "string"
        },
        {
          "name": "owner",
          "type": "address"
        },
        {
          "name": "_tokens",
          "type": "uint256"
        },
        {
          "name": "_kycData",
          "type": "string"
        }
      ],
      "name": "updateUser",
      "outputs": [],
      "payable": false,
      "stateMutability": "nonpayable",
      "type": "function"
    },
    {
      "constant": true,
      "inputs": [
        {
          "name": "_memberId",
          "type": "uint256"
        }
      ],
      "name": "getUsedTokens",
      "outputs": [
        {
          "name": "",
          "type": "uint256"
        }
      ],
      "payable": false,
      "stateMutability": "view",
      "type": "function"
    },
    {
      "constant": false,
      "inputs": [
        {
          "name": "_firstName",
          "type": "string"
        },
        {
          "name": "_lastName",
          "type": "string"
        },
        {
          "name": "_memberId",
          "type": "uint256"
        },
        {
          "name": "_role",
          "type": "string"
        },
        {
          "name": "owner",
          "type": "address"
        },
        {
          "name": "_groups",
          "type": "string[]"
        }
      ],
      "name": "updateSuperUser",
      "outputs": [],
      "payable": false,
      "stateMutability": "nonpayable",
      "type": "function"
    },
    {
      "constant": false,
      "inputs": [
        {
          "name": "_userToReject",
          "type": "address"
        }
      ],
      "name": "rejectUser",
      "outputs": [],
      "payable": false,
      "stateMutability": "nonpayable",
      "type": "function"
    },
    {
      "constant": false,
      "inputs": [
        {
          "name": "_userToAccept",
          "type": "address"
        }
      ],
      "name": "acceptUser",
      "outputs": [],
      "payable": false,
      "stateMutability": "nonpayable",
      "type": "function"
    },
    {
      "constant": true,
      "inputs": [],
      "name": "getcountUsers",
      "outputs": [
        {
          "name": "",
          "type": "uint256"
        }
      ],
      "payable": false,
      "stateMutability": "view",
      "type": "function"
    },
    {
      "constant": false,
      "inputs": [
        {
          "name": "account",
          "type": "address"
        },
        {
          "name": "_cmo",
          "type": "string"
        }
      ],
      "name": "whitelistAdmin",
      "outputs": [],
      "payable": false,
      "stateMutability": "nonpayable",
      "type": "function"
    },
    {
      "constant": true,
      "inputs": [
        {
          "name": "_page",
          "type": "uint256"
        }
      ],
      "name": "getUsers",
      "outputs": [
        {
          "components": [
            {
              "name": "creationDate",
              "type": "uint256"
            },
            {
              "name": "accountExpirationDate",
              "type": "uint256"
            },
            {
              "name": "owner",
              "type": "address"
            },
            {
              "name": "memberId",
              "type": "uint256"
            },
            {
              "name": "requestId",
              "type": "uint256"
            },
            {
              "name": "tokens",
              "type": "uint256"
            },
            {
              "name": "firstName",
              "type": "string"
            },
            {
              "name": "lastName",
              "type": "string"
            },
            {
              "name": "role",
              "type": "string"
            },
            {
              "name": "cmo",
              "type": "string"
            },
            {
              "name": "groups",
              "type": "string[]"
            },
            {
              "name": "kycData",
              "type": "string"
            },
            {
              "name": "status",
              "type": "uint256"
            }
          ],
          "name": "",
          "type": "tuple[]"
        }
      ],
      "payable": false,
      "stateMutability": "view",
      "type": "function"
    },
    {
      "constant": true,
      "inputs": [
        {
          "name": "userAddress",
          "type": "address"
        }
      ],
      "name": "getUserByAddress",
      "outputs": [
        {
          "components": [
            {
              "name": "creationDate",
              "type": "uint256"
            },
            {
              "name": "accountExpirationDate",
              "type": "uint256"
            },
            {
              "name": "owner",
              "type": "address"
            },
            {
              "name": "memberId",
              "type": "uint256"
            },
            {
              "name": "requestId",
              "type": "uint256"
            },
            {
              "name": "tokens",
              "type": "uint256"
            },
            {
              "name": "firstName",
              "type": "string"
            },
            {
              "name": "lastName",
              "type": "string"
            },
            {
              "name": "role",
              "type": "string"
            },
            {
              "name": "cmo",
              "type": "string"
            },
            {
              "name": "groups",
              "type": "string[]"
            },
            {
              "name": "kycData",
              "type": "string"
            },
            {
              "name": "status",
              "type": "uint256"
            }
          ],
          "name": "",
          "type": "tuple"
        }
      ],
      "payable": false,
      "stateMutability": "view",
      "type": "function"
    },
    {
      "constant": true,
      "inputs": [],
      "name": "getUsersOwner",
      "outputs": [
        {
          "components": [
            {
              "name": "creationDate",
              "type": "uint256"
            },
            {
              "name": "accountExpirationDate",
              "type": "uint256"
            },
            {
              "name": "owner",
              "type": "address"
            },
            {
              "name": "memberId",
              "type": "uint256"
            },
            {
              "name": "requestId",
              "type": "uint256"
            },
            {
              "name": "tokens",
              "type": "uint256"
            },
            {
              "name": "firstName",
              "type": "string"
            },
            {
              "name": "lastName",
              "type": "string"
            },
            {
              "name": "role",
              "type": "string"
            },
            {
              "name": "cmo",
              "type": "string"
            },
            {
              "name": "groups",
              "type": "string[]"
            },
            {
              "name": "kycData",
              "type": "string"
            },
            {
              "name": "status",
              "type": "uint256"
            }
          ],
          "name": "",
          "type": "tuple[]"
        }
      ],
      "payable": false,
      "stateMutability": "view",
      "type": "function"
    },
    {
      "constant": true,
      "inputs": [],
      "name": "getMe",
      "outputs": [
        {
          "components": [
            {
              "name": "creationDate",
              "type": "uint256"
            },
            {
              "name": "accountExpirationDate",
              "type": "uint256"
            },
            {
              "name": "owner",
              "type": "address"
            },
            {
              "name": "memberId",
              "type": "uint256"
            },
            {
              "name": "requestId",
              "type": "uint256"
            },
            {
              "name": "tokens",
              "type": "uint256"
            },
            {
              "name": "firstName",
              "type": "string"
            },
            {
              "name": "lastName",
              "type": "string"
            },
            {
              "name": "role",
              "type": "string"
            },
            {
              "name": "cmo",
              "type": "string"
            },
            {
              "name": "groups",
              "type": "string[]"
            },
            {
              "name": "kycData",
              "type": "string"
            },
            {
              "name": "status",
              "type": "uint256"
            }
          ],
          "name": "",
          "type": "tuple"
        }
      ],
      "payable": false,
      "stateMutability": "view",
      "type": "function"
    },
    {
      "constant": true,
      "inputs": [
        {
          "name": "addr",
          "type": "address"
        }
      ],
      "name": "_memberIdFromCurrentAddress",
      "outputs": [
        {
          "name": "",
          "type": "uint256"
        }
      ],
      "payable": false,
      "stateMutability": "view",
      "type": "function"
    },
    {
      "constant": false,
      "inputs": [
        {
          "name": "addr",
          "type": "address"
        },
        {
          "name": "transactionPrice",
          "type": "uint256"
        }
      ],
      "name": "updateTokens",
      "outputs": [],
      "payable": false,
      "stateMutability": "nonpayable",
      "type": "function"
    },
    {
      "constant": true,
      "inputs": [
        {
          "name": "addr",
          "type": "address"
        }
      ],
      "name": "getUserTokensByAddress",
      "outputs": [
        {
          "name": "",
          "type": "uint256"
        }
      ],
      "payable": false,
      "stateMutability": "view",
      "type": "function"
    }
  ],
  "bytecode": "0x60806040523480156200001157600080fd5b5060405160208062003ff683398101806040526200003391908101906200006e565b60008054600160a060020a031916600160a060020a0392909216919091179055620000a3565b600062000067825162000097565b9392505050565b6000602082840312156200008157600080fd5b60006200008f848462000059565b949350505050565b600160a060020a031690565b613f4380620000b36000396000f3006080604052600436106100da5763ffffffff7c010000000000000000000000000000000000000000000000000000000060003504166308bdc24d81146100df578063499560b8146101015780634dc92885146101215780635d73ab9a1461014157806367e482ad1461017757806369c212f6146101975780639249d753146101c4578063932191be146101f1578063a4fdc59414610206578063a9eff5111461021b578063bcec99a61461023b578063c11e1ff31461025b578063eff34e5914610270578063f1448af814610290578063fc81b525146102b0575b600080fd5b3480156100eb57600080fd5b506100ff6100fa3660046134e7565b6102d0565b005b34801561010d57600080fd5b506100ff61011c366004613704565b6106eb565b34801561012d57600080fd5b506100ff61013c3660046134e7565b6108ab565b34801561014d57600080fd5b5061016161015c3660046136c8565b610b60565b60405161016e9190613d42565b60405180910390f35b34801561018357600080fd5b506100ff61019236600461355f565b611111565b3480156101a357600080fd5b506101b76101b23660046134e7565b6111b3565b60405161016e9190613de3565b3480156101d057600080fd5b506101e46101df3660046134e7565b6115e3565b60405161016e9190613df4565b3480156101fd57600080fd5b50610161611601565b34801561021257600080fd5b506101e4611b54565b34801561022757600080fd5b506100ff61023636600461350d565b611c0c565b34801561024757600080fd5b506100ff6102563660046135e2565b611f20565b34801561026757600080fd5b506101b761217c565b34801561027c57600080fd5b506101e461028b3660046134e7565b6125e1565b34801561029c57600080fd5b506100ff6102ab3660046137de565b6125ff565b3480156102bc57600080fd5b506101e46102cb3660046136c8565b612868565b600160a060020a03818116600090815260016020526040812060020154909116116103195760405160e560020a62461bcd02815260040161031090613d73565b60405180910390fd5b600160a060020a038116600090815260016020526040808220600390810154338452919092209091015414806103cf575060005460405160e060020a637df73e27028152600160a060020a0390911690637df73e279061037d903390600401613d2e565b602060405180830381600087803b15801561039757600080fd5b505af11580156103ab573d6000803e3d6000fd5b505050506040513d601f19601f820116820180604052506103cf919081019061358f565b15156103f05760405160e560020a62461bcd02815260040161031090613d83565b336000908152600160205260409020600c015460021480610491575060005460405160e060020a637df73e27028152600160a060020a0390911690637df73e279061043f903390600401613d2e565b602060405180830381600087803b15801561045957600080fd5b505af115801561046d573d6000803e3d6000fd5b505050506040513d601f19601f82011682018060405250610491919081019061358f565b15156104b25760405160e560020a62461bcd02815260040161031090613dc3565b600160a060020a0381166000908152600160208190526040909120600c0154146104f15760405160e560020a62461bcd02815260040161031090613d63565b60008054600160a060020a03838116835260016020526040928390206003015492517fd8034379000000000000000000000000000000000000000000000000000000008152606493919092169163d80343799161055091600401613df4565b602060405180830381600087803b15801561056a57600080fd5b505af115801561057e573d6000803e3d6000fd5b505050506040513d601f19601f820116820180604052506105a291908101906136e6565b11156106df57600160a060020a038082166000908152600160205260408082206002600c820155915460039092015490517fc88597c2000000000000000000000000000000000000000000000000000000008152919092169163c88597c29161061091908590600401613e02565b600060405180830381600087803b15801561062a57600080fd5b505af115801561063e573d6000803e3d6000fd5b505050600160a060020a03808316600090815260016020526040808220606460058201819055925460039091015491517ffda651560000000000000000000000000000000000000000000000000000000081529316935063fda65156926106a89290600401613e1d565b600060405180830381600087803b1580156106c257600080fd5b505af11580156106d6573d6000803e3d6000fd5b505050506106e8565b6106e8816108ab565b50565b600082151561070f5760405160e560020a62461bcd02815260040161031090613dd3565b6000546040517ff8380733000000000000000000000000000000000000000000000000000000008152600160a060020a039091169063f838073390610758908690600401613df4565b602060405180830381600087803b15801561077257600080fd5b505af1158015610786573d6000803e3d6000fd5b505050506040513d601f19601f820116820180604052506107aa919081019061358f565b15156107cb5760405160e560020a62461bcd02815260040161031090613db3565b6000546040517f6ce5e2bb000000000000000000000000000000000000000000000000000000008152600160a060020a0390911690636ce5e2bb90610814908a90600401613df4565b602060405180830381600087803b15801561082e57600080fd5b505af1158015610842573d6000803e3d6000fd5b505050506040513d601f19601f8201168201806040525061086691908101906136e6565b905061087b8787878685896001336000612909565b33600090815260016020908152604090912083516108a192600b90920191850190613153565b5050505050505050565b600160a060020a03818116600090815260016020526040812060020154909116116108eb5760405160e560020a62461bcd02815260040161031090613d73565b600160a060020a038116600090815260016020526040808220600390810154338452919092209091015414806109a1575060005460405160e060020a637df73e27028152600160a060020a0390911690637df73e279061094f903390600401613d2e565b602060405180830381600087803b15801561096957600080fd5b505af115801561097d573d6000803e3d6000fd5b505050506040513d601f19601f820116820180604052506109a1919081019061358f565b15156109c25760405160e560020a62461bcd02815260040161031090613d83565b336000908152600160205260409020600c015460021480610a63575060005460405160e060020a637df73e27028152600160a060020a0390911690637df73e2790610a11903390600401613d2e565b602060405180830381600087803b158015610a2b57600080fd5b505af1158015610a3f573d6000803e3d6000fd5b505050506040513d601f19601f82011682018060405250610a63919081019061358f565b1515610a845760405160e560020a62461bcd02815260040161031090613dc3565b600160a060020a0381166000908152600160208190526040909120600c015414610ac35760405160e560020a62461bcd02815260040161031090613d93565b600160a060020a03808216600090815260016020526040808220600c8101839055915460039092015490517fc88597c2000000000000000000000000000000000000000000000000000000008152919092169163c88597c291610b2b91908590600401613e02565b600060405180830381600087803b158015610b4557600080fd5b505af1158015610b59573d6000803e3d6000fd5b5050505050565b606060008060006060600080610b74611b54565b9550610b81600a896130fb565b600254909550610b9290600a613130565b9350851580610ba057508585115b80610baa57508388115b15610bb457611106565b60408051600a808252610160820190925290816020015b610bd36131cd565b815260200190600190039081610bcb579050509250600091508490505b600254811015611102573360009081526001602081905260408220600301546002805491939185908110610c2057fe5b6000918252602080832090910154600160a060020a03168352820192909252604001902060030154148015610c8f575060016000600283815481101515610c6357fe5b6000918252602080832090910154600160a060020a031683528201929092526040019020600c01546002145b156110fa5760016000600283815481101515610ca757fe5b600091825260208083209190910154600160a060020a03908116845283820194909452604092830190912082516101a0810184528154815260018083015482850152600280840154909616828601526003830154606083015260048301546080830152600583015460a083015260068301805486516101009382161593909302600019011696909604601f81018590048502820185019095528481529094919360c0860193919291830182828015610da05780601f10610d7557610100808354040283529160200191610da0565b820191906000526020600020905b815481529060010190602001808311610d8357829003601f168201915b505050918352505060078201805460408051602060026001851615610100026000190190941693909304601f8101849004840282018401909252818152938201939291830182828015610e345780601f10610e0957610100808354040283529160200191610e34565b820191906000526020600020905b815481529060010190602001808311610e1757829003601f168201915b505050918352505060088201805460408051602060026001851615610100026000190190941693909304601f8101849004840282018401909252818152938201939291830182828015610ec85780601f10610e9d57610100808354040283529160200191610ec8565b820191906000526020600020905b815481529060010190602001808311610eab57829003601f168201915b505050918352505060098201805460408051602060026001851615610100026000190190941693909304601f8101849004840282018401909252818152938201939291830182828015610f5c5780601f10610f3157610100808354040283529160200191610f5c565b820191906000526020600020905b815481529060010190602001808311610f3f57829003601f168201915b50505050508152602001600a8201805480602002602001604051908101604052809291908181526020016000905b828210156110355760008481526020908190208301805460408051601f60026000196101006001871615020190941693909304928301859004850281018501909152818152928301828280156110215780601f10610ff657610100808354040283529160200191611021565b820191906000526020600020905b81548152906001019060200180831161100457829003601f168201915b505050505081526020019060010190610f8a565b50505090825250600b8201805460408051602060026001851615610100026000190190941693909304601f81018490048402820184019092528181529382019392918301828280156110c85780601f1061109d576101008083540402835291602001916110c8565b820191906000526020600020905b8154815290600101906020018083116110ab57829003601f168201915b50505050508152602001600c8201548152505083838151811015156110e957fe5b602090810290910101526001909101905b600101610bf0565b8296505b505050505050919050565b600160a060020a038083166000908152600160205260408082206005810180548690039055915460039092015490517ffda65156000000000000000000000000000000000000000000000000000000008152919092169163fda651569161117d91908590600401613e1d565b600060405180830381600087803b15801561119757600080fd5b505af11580156111ab573d6000803e3d6000fd5b505050505050565b6111bb6131cd565b600160a060020a0382811660009081526001602081815260409283902083516101a081018552815481528184015481840152600280830154909616818601526003820154606082015260048201546080820152600582015460a082015260068201805486516101009682161596909602600019011696909604601f810184900484028501840190955284845294909360c0860193928301828280156112a15780601f10611276576101008083540402835291602001916112a1565b820191906000526020600020905b81548152906001019060200180831161128457829003601f168201915b505050918352505060078201805460408051602060026001851615610100026000190190941693909304601f81018490048402820184019092528181529382019392918301828280156113355780601f1061130a57610100808354040283529160200191611335565b820191906000526020600020905b81548152906001019060200180831161131857829003601f168201915b505050918352505060088201805460408051602060026001851615610100026000190190941693909304601f81018490048402820184019092528181529382019392918301828280156113c95780601f1061139e576101008083540402835291602001916113c9565b820191906000526020600020905b8154815290600101906020018083116113ac57829003601f168201915b505050918352505060098201805460408051602060026001851615610100026000190190941693909304601f810184900484028201840190925281815293820193929183018282801561145d5780601f106114325761010080835404028352916020019161145d565b820191906000526020600020905b81548152906001019060200180831161144057829003601f168201915b50505050508152602001600a8201805480602002602001604051908101604052809291908181526020016000905b828210156115365760008481526020908190208301805460408051601f60026000196101006001871615020190941693909304928301859004850281018501909152818152928301828280156115225780601f106114f757610100808354040283529160200191611522565b820191906000526020600020905b81548152906001019060200180831161150557829003601f168201915b50505050508152602001906001019061148b565b50505090825250600b8201805460408051602060026001851615610100026000190190941693909304601f81018490048402820184019092528181529382019392918301828280156115c95780601f1061159e576101008083540402835291602001916115c9565b820191906000526020600020905b8154815290600101906020018083116115ac57829003601f168201915b50505050508152602001600c820154815250509050919050565b600160a060020a031660009081526001602052604090206005015490565b6000805460405160e060020a637df73e2702815260609283929091600160a060020a0390911690637df73e279061163c903390600401613d2e565b602060405180830381600087803b15801561165657600080fd5b505af115801561166a573d6000803e3d6000fd5b505050506040513d601f19601f8201168201806040525061168e919081019061358f565b151561169957600080fd5b6002546040805182815260208084028201019091529080156116d557816020015b6116c26131cd565b8152602001906001900390816116ba5790505b509150600090505b600254811015611b4e57600160006002838154811015156116fa57fe5b600091825260208083209190910154600160a060020a03908116845283820194909452604092830190912082516101a0810184528154815260018083015482850152600280840154909616828601526003830154606083015260048301546080830152600583015460a083015260068301805486516101009382161593909302600019011696909604601f81018590048502820185019095528481529094919360c08601939192918301828280156117f35780601f106117c8576101008083540402835291602001916117f3565b820191906000526020600020905b8154815290600101906020018083116117d657829003601f168201915b505050918352505060078201805460408051602060026001851615610100026000190190941693909304601f81018490048402820184019092528181529382019392918301828280156118875780601f1061185c57610100808354040283529160200191611887565b820191906000526020600020905b81548152906001019060200180831161186a57829003601f168201915b505050918352505060088201805460408051602060026001851615610100026000190190941693909304601f810184900484028201840190925281815293820193929183018282801561191b5780601f106118f05761010080835404028352916020019161191b565b820191906000526020600020905b8154815290600101906020018083116118fe57829003601f168201915b505050918352505060098201805460408051602060026001851615610100026000190190941693909304601f81018490048402820184019092528181529382019392918301828280156119af5780601f10611984576101008083540402835291602001916119af565b820191906000526020600020905b81548152906001019060200180831161199257829003601f168201915b50505050508152602001600a8201805480602002602001604051908101604052809291908181526020016000905b82821015611a885760008481526020908190208301805460408051601f6002600019610100600187161502019094169390930492830185900485028101850190915281815292830182828015611a745780601f10611a4957610100808354040283529160200191611a74565b820191906000526020600020905b815481529060010190602001808311611a5757829003601f168201915b5050505050815260200190600101906119dd565b50505090825250600b8201805460408051602060026001851615610100026000190190941693909304601f8101849004840282018401909252818152938201939291830182828015611b1b5780601f10611af057610100808354040283529160200191611b1b565b820191906000526020600020905b815481529060010190602001808311611afe57829003601f168201915b50505050508152602001600c820154815250508282815181101515611b3c57fe5b602090810290910101526001016116dd565b50919050565b600080805b600254811015611b4e573360009081526001602081905260408220600301546002805491939185908110611b8957fe5b6000918252602080832090910154600160a060020a03168352820192909252604001902060030154148015611bf8575060016000600283815481101515611bcc57fe5b6000918252602080832090910154600160a060020a031683528201929092526040019020600c01546002145b15611c04576001909101905b600101611b59565b60005460405160e060020a637df73e27028152600160a060020a0390911690637df73e2790611c3f903390600401613d2e565b602060405180830381600087803b158015611c5957600080fd5b505af1158015611c6d573d6000803e3d6000fd5b505050506040513d601f19601f82011682018060405250611c91919081019061358f565b1515611c9c57600080fd5b60008054600160a060020a03848116835260016020526040928390206003015492517fc88597c200000000000000000000000000000000000000000000000000000000815291169163c88597c291611cf991908690600401613e02565b600060405180830381600087803b158015611d1357600080fd5b505af1158015611d27573d6000803e3d6000fd5b5050604080518082018252600b81527f53757065722061646d696e0000000000000000000000000000000000000000006020808301918252600160a060020a03881660009081526001909152929092209051611d8a945060089091019250613153565b506000809054906101000a9004600160a060020a0316600160a060020a031663f44a8bbe6040518163ffffffff167c0100000000000000000000000000000000000000000000000000000000028152600401602060405180830381600087803b158015611df657600080fd5b505af1158015611e0a573d6000803e3d6000fd5b505050506040513d601f19601f82011682018060405250611e2e91908101906136e6565b600160a060020a038316600090815260016020908152604090912060038101929092558251611e639260090191840190613153565b50600160a060020a03821660008181526001602081815260408084206002600c820155815160608101835260068185019081527f64696769743100000000000000000000000000000000000000000000000000009382019390935291825294909352819052611ed692600a01919061323f565b506000546040517feb12d61e000000000000000000000000000000000000000000000000000000008152600160a060020a039091169063eb12d61e9061117d908590600401613d2e565b600160a060020a038216600090815260016020908152604082208851611f4e926006909201918a0190613153565b50600160a060020a03831660009081526001602090815260409091208751611f7e92600790920191890190613153565b50600160a060020a03831660009081526001602090815260409091208351611fae92600a90920191850190613298565b50600090505b600254811015612173576001600084600160a060020a0316600160a060020a0316815260200190815260200160002060090160405180828054600181600116156101000203166002900480156120415780601f1061201f576101008083540402835291820191612041565b820191906000526020600020905b81548152906001019060200180831161202d575b50509150506040518091039020600019166001600060028481548110151561206557fe5b9060005260206000200160009054906101000a9004600160a060020a0316600160a060020a0316600160a060020a0316815260200190815260200160002060090160405180828054600181600116156101000203166002900480156121015780601f106120df576101008083540402835291820191612101565b820191906000526020600020905b8154815290600101906020018083116120ed575b5050915050604051809103902060001916141561216b57816001600060028481548110151561212c57fe5b6000918252602080832090910154600160a060020a031683528281019390935260409091019020825161216993600a909201929190910190613298565b505b600101611fb4565b50505050505050565b6121846131cd565b61218c6131cd565b3360009081526001602081905260409091206006015460029181161561010002600019011604156125dd573360009081526001602081815260409283902083516101a081018552815481528184015481840152600280830154600160a060020a0316828701526003830154606083015260048301546080830152600583015460a083015260068301805487516101009782161597909702600019011691909104601f81018590048502860185019096528585529094919360c086019390929083018282801561229c5780601f106122715761010080835404028352916020019161229c565b820191906000526020600020905b81548152906001019060200180831161227f57829003601f168201915b505050918352505060078201805460408051602060026001851615610100026000190190941693909304601f81018490048402820184019092528181529382019392918301828280156123305780601f1061230557610100808354040283529160200191612330565b820191906000526020600020905b81548152906001019060200180831161231357829003601f168201915b505050918352505060088201805460408051602060026001851615610100026000190190941693909304601f81018490048402820184019092528181529382019392918301828280156123c45780601f10612399576101008083540402835291602001916123c4565b820191906000526020600020905b8154815290600101906020018083116123a757829003601f168201915b505050918352505060098201805460408051602060026001851615610100026000190190941693909304601f81018490048402820184019092528181529382019392918301828280156124585780601f1061242d57610100808354040283529160200191612458565b820191906000526020600020905b81548152906001019060200180831161243b57829003601f168201915b50505050508152602001600a8201805480602002602001604051908101604052809291908181526020016000905b828210156125315760008481526020908190208301805460408051601f600260001961010060018716150201909416939093049283018590048502810185019091528181529283018282801561251d5780601f106124f25761010080835404028352916020019161251d565b820191906000526020600020905b81548152906001019060200180831161250057829003601f168201915b505050505081526020019060010190612486565b50505090825250600b8201805460408051602060026001851615610100026000190190941693909304601f81018490048402820184019092528181529382019392918301828280156125c45780601f10612599576101008083540402835291602001916125c4565b820191906000526020600020905b8154815290600101906020018083116125a757829003601f168201915b50505050508152602001600c8201548152505090508091505b5090565b600160a060020a031660009081526001602052604090206003015490565b600160a060020a03838116600090815260016020526040812060020154909182911681106126425760405160e560020a62461bcd02815260040161031090613d73565b600160a060020a0385166000908152600160205260409020600c01546002146126805760405160e560020a62461bcd02815260040161031090613dc3565b600160a060020a0385166000908152600160205260409020600501548410156127435760008054600160a060020a0387811683526001602052604092839020600381015460059091015493517f6df448980000000000000000000000000000000000000000000000000000000081529190921692636df448989261270c92909189900390600401613e1d565b600060405180830381600087803b15801561272657600080fd5b505af115801561273a573d6000803e3d6000fd5b505050506127de565b60008054600160a060020a0387811683526001602052604092839020600381015460059091015493517ffda65156000000000000000000000000000000000000000000000000000000008152919092169263fda65156926127ab929091890390600401613e1d565b600060405180830381600087803b1580156127c557600080fd5b505af11580156127d9573d6000803e3d6000fd5b505050505b600160a060020a038516600090815260016020908152604090912060058101869055845161281492600b90920191860190613153565b505050600160a060020a038316600090815260016020819052604090912060048101548154600c90920154919a509161285c908b908b908b908b9087908c9088908d90612909565b50505050505050505050565b600080805b60025481101561290257836001600060028481548110151561288b57fe5b6000918252602080832090910154600160a060020a0316835282019290925260400190206003015414156128fa57600160006002838154811015156128cc57fe5b6000918252602080832090910154600160a060020a0316835282019290925260400190206005015491909101905b60010161286d565b5092915050565b6129116131cd565b60008410158015612923575060028411155b15156129445760405160e560020a62461bcd02815260040161031090613da3565b845115156129675760405160e560020a62461bcd02815260040161031090613d53565b600160a060020a0383811660009081526001602081815260409283902083516101a081018552815481528184015481840152600280830154909616818601526003820154606082015260048201546080820152600582015460a082015260068201805486516101009682161596909602600019011696909604601f810184900484028501840190955284845294909360c086019392830182828015612a4d5780601f10612a2257610100808354040283529160200191612a4d565b820191906000526020600020905b815481529060010190602001808311612a3057829003601f168201915b505050918352505060078201805460408051602060026001851615610100026000190190941693909304601f8101849004840282018401909252818152938201939291830182828015612ae15780601f10612ab657610100808354040283529160200191612ae1565b820191906000526020600020905b815481529060010190602001808311612ac457829003601f168201915b505050918352505060088201805460408051602060026001851615610100026000190190941693909304601f8101849004840282018401909252818152938201939291830182828015612b755780601f10612b4a57610100808354040283529160200191612b75565b820191906000526020600020905b815481529060010190602001808311612b5857829003601f168201915b505050918352505060098201805460408051602060026001851615610100026000190190941693909304601f8101849004840282018401909252818152938201939291830182828015612c095780601f10612bde57610100808354040283529160200191612c09565b820191906000526020600020905b815481529060010190602001808311612bec57829003601f168201915b50505050508152602001600a8201805480602002602001604051908101604052809291908181526020016000905b82821015612ce25760008481526020908190208301805460408051601f6002600019610100600187161502019094169390930492830185900485028101850190915281815292830182828015612cce5780601f10612ca357610100808354040283529160200191612cce565b820191906000526020600020905b815481529060010190602001808311612cb157829003601f168201915b505050505081526020019060010190612c37565b50505090825250600b8201805460408051602060026001851615610100026000190190941693909304601f8101849004840282018401909252818152938201939291830182828015612d755780601f10612d4a57610100808354040283529160200191612d75565b820191906000526020600020905b815481529060010190602001808311612d5857829003601f168201915b5050509183525050600c91909101546020918201528b825260c082018b815260e083018b9052606083018a8152608084018a815261010085018a90526101808501899052600160a060020a0388811660408088018281526000928352600180895291909220885181558888015191810191909155905160028201805473ffffffffffffffffffffffffffffffffffffffff191691909316179091559151600383015551600482015560a084015160058201559051805193945084939192612e4492600685019290910190613153565b5060e08201518051612e60916007840191602090910190613153565b506101008201518051612e7d916008840191602090910190613153565b506101208201518051612e9a916009840191602090910190613153565b506101408201518051612eb791600a8401916020909101906132e5565b506101608201518051612ed491600b840191602090910190613153565b506101809190910151600c9091015581151561285c576002805460018101825560009182527f405787fa12a823e0f2b7631cc41b3ba8828b3321ca811111fa75cd3aa3bb5ace01805473ffffffffffffffffffffffffffffffffffffffff1916600160a060020a038681169190911790915590546040517fb78c36c700000000000000000000000000000000000000000000000000000000815291169063b78c36c790612f85908a90600401613df4565b600060405180830381600087803b158015612f9f57600080fd5b505af1158015612fb3573d6000803e3d6000fd5b505060408051606081018252600660208281019182527f646967697431000000000000000000000000000000000000000000000000000083850152908252600160a060020a03881660009081526001918290529290922061301a9450600a0192509061323f565b5060005460608201516040517f466cc2bf000000000000000000000000000000000000000000000000000000008152600160a060020a039092169163466cc2bf9161306791600401613df4565b600060405180830381600087803b15801561308157600080fd5b505af1158015613095573d6000803e3d6000fd5b505050506040513d6000823e601f3d908101601f191682016040526130bd91908101906135ad565b600160a060020a038416600090815260016020908152604090912082516130ee936009909201929190910190613153565b5050505050505050505050565b60008083151561310e5760009150612902565b5082820282848281151561311e57fe5b041461312957600080fd5b9392505050565b60008080831161313f57600080fd5b828481151561314a57fe5b04949350505050565b828054600181600116156101000203166002900490600052602060002090601f016020900481019282601f1061319457805160ff19168380011785556131c1565b828001600101855582156131c1579182015b828111156131c15782518255916020019190600101906131a6565b506125dd929150613332565b6101a06040519081016040528060008152602001600081526020016000600160a060020a03168152602001600081526020016000815260200160008152602001606081526020016060815260200160608152602001606081526020016060815260200160608152602001600081525090565b82805482825590600052602060002090810192821561328c579160200282015b8281111561328c578251805161327c918491602090910190613153565b509160200191906001019061325f565b506125dd92915061334f565b82805482825590600052602060002090810192821561328c579160200282015b8281111561328c57825180516132d5918491602090910190613153565b50916020019190600101906132b8565b82805482825590600052602060002090810192821561328c579160200282015b8281111561328c5782518051613322918491602090910190613153565b5091602001919060010190613305565b61334c91905b808211156125dd5760008155600101613338565b90565b61334c91905b808211156125dd5760006133698282613372565b50600101613355565b50805460018160011615610100020316600290046000825580601f1061339857506106e8565b601f0160209004906000526020600020908101906106e89190613332565b60006131298235613eb2565b6000601f820183136133d357600080fd5b81356133e66133e182613e5f565b613e38565b81815260209384019390925082018360005b83811015613424578135860161340e888261343a565b84525060209283019291909101906001016133f8565b5050505092915050565b60006131298251613ebe565b6000601f8201831361344b57600080fd5b81356134596133e182613e80565b9150808252602083016020830185838301111561347557600080fd5b613480838284613ec3565b50505092915050565b6000601f8201831361349a57600080fd5b81516134a86133e182613e80565b915080825260208301602083018583830111156134c457600080fd5b613480838284613ecf565b6000613129823561334c565b6000613129825161334c565b6000602082840312156134f957600080fd5b600061350584846133b6565b949350505050565b6000806040838503121561352057600080fd5b600061352c85856133b6565b925050602083013567ffffffffffffffff81111561354957600080fd5b6135558582860161343a565b9150509250929050565b6000806040838503121561357257600080fd5b600061357e85856133b6565b9250506020613555858286016134cf565b6000602082840312156135a157600080fd5b6000613505848461342e565b6000602082840312156135bf57600080fd5b815167ffffffffffffffff8111156135d657600080fd5b61350584828501613489565b60008060008060008060c087890312156135fb57600080fd5b863567ffffffffffffffff81111561361257600080fd5b61361e89828a0161343a565b965050602087013567ffffffffffffffff81111561363b57600080fd5b61364789828a0161343a565b955050604061365889828a016134cf565b945050606087013567ffffffffffffffff81111561367557600080fd5b61368189828a0161343a565b935050608061369289828a016133b6565b92505060a087013567ffffffffffffffff8111156136af57600080fd5b6136bb89828a016133c2565b9150509295509295509295565b6000602082840312156136da57600080fd5b600061350584846134cf565b6000602082840312156136f857600080fd5b600061350584846134db565b60008060008060008060c0878903121561371d57600080fd5b600061372989896134cf565b965050602087013567ffffffffffffffff81111561374657600080fd5b61375289828a0161343a565b955050604087013567ffffffffffffffff81111561376f57600080fd5b61377b89828a0161343a565b945050606087013567ffffffffffffffff81111561379857600080fd5b6137a489828a0161343a565b93505060806137b589828a016134cf565b92505060a087013567ffffffffffffffff8111156137d257600080fd5b6136bb89828a0161343a565b600080600080600080600080610100898b0312156137fb57600080fd5b60006138078b8b6134cf565b985050602089013567ffffffffffffffff81111561382457600080fd5b6138308b828c0161343a565b975050604089013567ffffffffffffffff81111561384d57600080fd5b6138598b828c0161343a565b965050606061386a8b828c016134cf565b955050608089013567ffffffffffffffff81111561388757600080fd5b6138938b828c0161343a565b94505060a06138a48b828c016133b6565b93505060c06138b58b828c016134cf565b92505060e089013567ffffffffffffffff8111156138d257600080fd5b6138de8b828c0161343a565b9150509295985092959890939650565b6138f781613eb2565b82525050565b600061390882613eae565b8084526020840193508360208202850161392185613ea8565b60005b8481101561395857838303885261393c8383516139bf565b925061394782613ea8565b602098909801979150600101613924565b50909695505050505050565b600061396f82613eae565b8084526020840193508360208202850161398885613ea8565b60005b848110156139585783830388526139a3838351613bf0565b92506139ae82613ea8565b60209890980197915060010161398b565b60006139ca82613eae565b8084526139de816020860160208601613ecf565b6139e781613eff565b9093016020019392505050565b601181527f726f6c65206973206d616e6461746f7279000000000000000000000000000000602082015260400190565b602281527f4f6e6c792070656e64696e672075736572732063616e2062652061636365707460208201527f6564000000000000000000000000000000000000000000000000000000000000604082015260600190565b601481527f546869732075736572206e6f7420657869737473000000000000000000000000602082015260400190565b601b81527f596f752063616e6e6f7420616363657074207468697320757365720000000000602082015260400190565b602281527f4f6e6c792070656e64696e672075736572732063616e2062652072656a65637460208201527f6564000000000000000000000000000000000000000000000000000000000000604082015260600190565b601381527f737461747573206973206e6f742076616c696400000000000000000000000000602082015260400190565b601181527f4d656d626572206e6f7420657869737473000000000000000000000000000000602082015260400190565b601481527f596f7520617265206e6f74206163636570746564000000000000000000000000602082015260400190565b601181527f4e6f2076616c6964206d656d6265724964000000000000000000000000000000602082015260400190565b80516000906101a0840190613c058582613d25565b506020830151613c186020860182613d25565b506040830151613c2b60408601826138ee565b506060830151613c3e6060860182613d25565b506080830151613c516080860182613d25565b5060a0830151613c6460a0860182613d25565b5060c083015184820360c0860152613c7c82826139bf565b91505060e083015184820360e0860152613c9682826139bf565b915050610100830151848203610100860152613cb282826139bf565b915050610120830151848203610120860152613cce82826139bf565b915050610140830151848203610140860152613cea82826138fd565b915050610160830151848203610160860152613d0682826139bf565b915050610180830151613d1d610180860182613d25565b509392505050565b6138f78161334c565b60208101613d3c82846138ee565b92915050565b602080825281016131298184613964565b60208082528101613d3c816139f4565b60208082528101613d3c81613a24565b60208082528101613d3c81613a7a565b60208082528101613d3c81613aaa565b60208082528101613d3c81613ada565b60208082528101613d3c81613b30565b60208082528101613d3c81613b60565b60208082528101613d3c81613b90565b60208082528101613d3c81613bc0565b602080825281016131298184613bf0565b60208101613d3c8284613d25565b60408101613e108285613d25565b61312960208301846138ee565b60408101613e2b8285613d25565b6131296020830184613d25565b60405181810167ffffffffffffffff81118282101715613e5757600080fd5b604052919050565b600067ffffffffffffffff821115613e7657600080fd5b5060209081020190565b600067ffffffffffffffff821115613e9757600080fd5b506020601f91909101601f19160190565b60200190565b5190565b600160a060020a031690565b151590565b82818337506000910152565b60005b83811015613eea578181015183820152602001613ed2565b83811115613ef9576000848401525b50505050565b601f01601f1916905600a265627a7a72305820c8697d4ade13cbb1c3a399c37d979abaa6a98bbc6bc18230b6115e6a61e34d266c6578706572696d656e74616cf50037",
  "source": "pragma solidity ^0.4.24;\npragma experimental ABIEncoderV2;\n\nimport \"./Members.sol\";\nimport \"./Claims.sol\";\n\ncontract Users {\n\n  Members private _Members;\n  //  Users.User private currentUser;\n\n  constructor (address _MembersAddr) public {\n    _Members = Members(_MembersAddr);\n    //    currentUser = _Users.getUserByAddress(msg.sender);\n  }\n\n  modifier onlySigner() {\n    require(_Members.isSigner(msg.sender));\n    _;\n  }\n\n  struct User {\n    uint256 creationDate;\n    uint256 accountExpirationDate;\n    address owner;  // primary key\n    uint256 memberId;\n    uint256 requestId;\n    uint tokens;\n    string firstName;\n    string lastName;\n    string role;\n    string cmo;\n    string[] groups;\n    string kycData;\n    uint status;\n  }\n//\n//  enum StatusUserEnum {\n//    REJECTED, // 0\n//    PENDING,  // 1\n//    ACCEPTED  // 2\n//  }\n\n  mapping (address => User) private users_;\n  address[] private usersList_;\n  uint256 constant private PAGE_SIZE = 10;\n//  uint private requestIdCounter = 1592831436681;\n  uint256 constant private userStartTokens = 100;\n\n  // PUBLIC\n\n  function registerUserRequest(uint _creationDate, string _firstName, string _lastName, string _role, uint256 _memberId,\n    string _kycData) public {\n\n    require(_memberId != 0, \"No valid memberId\");\n//    require(_creationDate > 0, \"CreationDate is mandatory\");\n//    require(users_[msg.sender].creationDate == 0, \"User already exists\");\n    require(_Members._memberExists(_memberId), \"Member not exists\");\n\n    uint256 _requestId = _Members.calcRandom(_creationDate);\n    _saveUser(_creationDate, _firstName, _lastName, _memberId, _requestId, _role, 1, msg.sender, 0);\n    users_[msg.sender].kycData = _kycData;\n  }\n\n  function updateUser(uint _creationDate, string _firstName, string _lastName, uint256 _memberId, string _role, address owner,\n    uint _tokens, string _kycData) public {\n\n    require(users_[owner].owner > address(0), \"This user not exists\");\n    require(users_[owner].status == 2, \"You are not accepted\");\n    if (users_[owner].tokens > _tokens) {\n      _Members.increaseMemberTotalTokens(users_[owner].memberId, users_[owner].tokens - _tokens);\n//      members_[users_[owner].memberId].totalTokens += users_[owner].tokens - _tokens; // add new Members function\n    } else {\n      _Members.updateMemberTotalTokens(users_[owner].memberId, _tokens - users_[owner].tokens);\n//      members_[users_[owner].memberId].totalTokens -= _tokens - users_[owner].tokens; // -//-\n    }\n    users_[owner].tokens = _tokens;\n    users_[owner].kycData = _kycData;\n\n    uint256 _requestId = users_[owner].requestId;\n    _creationDate = users_[owner].creationDate;\n    uint256 _status = users_[owner].status;\n\n    _saveUser(_creationDate, _firstName, _lastName, _memberId, _requestId, _role, _status, owner, 1);\n  }\n\n  function getUsedTokens(uint256 _memberId) public view returns (uint){\n    uint usedTokens = 0;\n    for (uint i = 0; i < usersList_.length; ++i) {\n      if (users_[usersList_[i]].memberId == _memberId) {\n        usedTokens += users_[usersList_[i]].tokens;\n      }\n    }\n    return usedTokens;\n  }\n\n  function updateSuperUser(string _firstName, string _lastName, uint256 _memberId, string _role, address owner,\n    string[] _groups) public {\n\n    users_[owner].firstName = _firstName;\n    users_[owner].lastName = _lastName;\n    users_[owner].groups = _groups;\n\n    for (uint i = 0; i < usersList_.length; ++i) {\n      if (keccak256(users_[usersList_[i]].cmo) == keccak256(users_[owner].cmo)) {\n        users_[usersList_[i]].groups = _groups;\n      }\n    }\n\n  }\n\n  function rejectUser(address _userToReject) public {\n\n    require(users_[_userToReject].owner > address(0), \"This user not exists\");\n    require((users_[msg.sender].memberId == users_[_userToReject].memberId) || _Members.isSigner(msg.sender), \"You cannot accept this user\");\n    require(users_[msg.sender].status == 2 || _Members.isSigner(msg.sender), \"You are not accepted\");\n    require(users_[_userToReject].status == 1, \"Only pending users can be rejected\");\n\n    users_[_userToReject].status = 0;\n    _Members._clearUserFromMemberRequest(users_[_userToReject].memberId, _userToReject);\n  }\n\n  function acceptUser(address _userToAccept) public {\n\n    require(users_[_userToAccept].owner > address(0), \"This user not exists\");\n    require((users_[msg.sender].memberId == users_[_userToAccept].memberId) || _Members.isSigner(msg.sender), \"You cannot accept this user\");\n    require(users_[msg.sender].status == 2 || _Members.isSigner(msg.sender), \"You are not accepted\");\n    require(users_[_userToAccept].status == 1, \"Only pending users can be accepted\");\n\n    // new functions\n    if (_Members.getMemberTotalTokens(users_[_userToAccept].memberId) > userStartTokens) {\n      users_[_userToAccept].status = 2;\n      _Members._clearUserFromMemberRequest(users_[_userToAccept].memberId, _userToAccept);\n      users_[_userToAccept].tokens = userStartTokens;\n      _Members.updateMemberTotalTokens(users_[_userToAccept].memberId, userStartTokens);\n//      members_[users_[_userToAccept].memberId].totalTokens -= userStartTokens;\n    } else {\n      rejectUser(_userToAccept);\n    }\n  }\n\n  function getcountUsers() public view returns(uint) {\n    uint256 counter = 0;\n    for (uint i = 0; i < usersList_.length; ++i) {\n      if(users_[usersList_[i]].memberId == users_[msg.sender].memberId\n        && users_[usersList_[i]].status == 2) {\n        counter++;\n      }\n    }\n    return counter;\n  }\n\n  function whitelistAdmin(address account, string _cmo) public onlySigner {\n    _Members._clearUserFromMemberRequest(users_[account].memberId, account);\n    users_[account].role = \"Super admin\"; // DO NOT MODIFY\n    users_[account].memberId = _Members.returnUpdatedMemberIdCounter();\n    users_[account].cmo = _cmo;\n//    users_[account].tokens = 0; // should \"Super admin\" users have tokens?\n    users_[account].status = 2;\n    users_[account].groups = [\"digit1\"];\n    _Members.addSigner(account);\n  }\n\n  function getUsers(uint256 _page) public view returns(User[] memory) {\n    uint256 counter = getcountUsers();\n\n    uint256 pageIndex = SafeMath.mul(PAGE_SIZE, _page);\n    uint256 pageNumber = SafeMath.div(usersList_.length, PAGE_SIZE);\n\n    if (counter == 0 || pageIndex > counter || _page > pageNumber) {\n      return;\n    }\n\n    User[] memory userPageBasic = new User[](PAGE_SIZE);\n    uint256 counterFinal = 0;\n\n    for (uint j = pageIndex; j < usersList_.length; ++j) {\n      if(users_[usersList_[j]].memberId == users_[msg.sender].memberId\n        && users_[usersList_[j]].status == 2) {\n        userPageBasic[counterFinal] = users_[usersList_[j]];\n        ++counterFinal;\n      }\n    }\n    return userPageBasic;\n  }\n\n  function getUserByAddress(address userAddress) public view returns(User memory) {\n    return users_[userAddress];\n  }\n\n  function getUsersOwner() onlySigner public view returns(User[] memory) {\n    User[] memory userPageOwner = new User[](usersList_.length);\n    for (uint i = 0; i < usersList_.length; ++i) {\n      userPageOwner[i] = users_[usersList_[i]];\n    }\n    return userPageOwner;\n  }\n\n  function getMe() public view returns(User) {\n      if (bytes(users_[msg.sender].firstName).length != 0) {\n        User memory user = users_[msg.sender];\n        return user;\n      } else {\n        return;\n      }\n  }\n\n\n  function _saveUser(uint _creationDate, string _firstName, string _lastName, uint256 _memberId,\n    uint256 _requestId, string _role, uint256 _status, address owner, uint isCreate) internal {\n\n    require(_status >= 0 && _status <=2, \"status is not valid\");\n    require(bytes(_role).length != 0, \"role is mandatory\");\n\n    User memory user = users_[owner];\n\n    user.creationDate =  _creationDate;\n    user.firstName =  _firstName;\n    user.lastName =  _lastName;\n    user.memberId =  _memberId;\n    user.requestId =  _requestId;\n    user.role = _role;\n    user.status = _status;\n    user.owner = owner;\n\n    users_[owner] = user;\n\n    if (isCreate == 0) {\n      usersList_.push(owner);\n//      if (users_[owner].status != 2) {\n      _Members._addUserToMemberRequest(_memberId);\n//      }\n      users_[owner].groups = [\"digit1\"];                  // by default\n      users_[owner].cmo = _Members.getMemberCmo(user.memberId); // to initialize\n    }\n  }\n\n  function _memberIdFromCurrentAddress(address addr) view public returns(uint256) {\n    return users_[addr].memberId;\n  }\n\n  function updateTokens(address addr, uint transactionPrice) public {\n    users_[addr].tokens -= transactionPrice;\n    _Members.updateMemberTotalTokens(users_[addr].memberId, transactionPrice);\n  }\n\n  function getUserTokensByAddress(address addr) view public returns(uint) {\n    return users_[addr].tokens;\n  }\n\n}\n",
  "sourcePath": "/home/komodo/newUI2/bloomen-decentralized-rights-management-v2/truffle/contracts/registry/Users.sol",
  "compiler": {
    "name": "solc",
    "version": "0.4.24+commit.e67f0147.Emscripten.clang"
  },
  "schemaVersion": "2.0.1",
  "updatedAt": "2020-06-26T09:29:15.468Z"
}