{
  "contractName": "Users",
  "abi": [
    {
      "constant": true,
      "inputs": [
        {
          "name": "account",
          "type": "address"
        }
      ],
      "name": "isSigner",
      "outputs": [
        {
          "name": "",
          "type": "bool"
        }
      ],
      "payable": false,
      "stateMutability": "view",
      "type": "function"
    },
    {
      "constant": false,
      "inputs": [],
      "name": "renounceSigner",
      "outputs": [],
      "payable": false,
      "stateMutability": "nonpayable",
      "type": "function"
    },
    {
      "constant": false,
      "inputs": [
        {
          "name": "account",
          "type": "address"
        }
      ],
      "name": "addSigner",
      "outputs": [],
      "payable": false,
      "stateMutability": "nonpayable",
      "type": "function"
    },
    {
      "inputs": [
        {
          "name": "_MembersAddr",
          "type": "address"
        }
      ],
      "payable": false,
      "stateMutability": "nonpayable",
      "type": "constructor"
    },
    {
      "anonymous": false,
      "inputs": [
        {
          "indexed": true,
          "name": "account",
          "type": "address"
        }
      ],
      "name": "SignerAdded",
      "type": "event"
    },
    {
      "anonymous": false,
      "inputs": [
        {
          "indexed": true,
          "name": "account",
          "type": "address"
        }
      ],
      "name": "SignerRemoved",
      "type": "event"
    },
    {
      "constant": false,
      "inputs": [
        {
          "name": "_creationDate",
          "type": "uint256"
        },
        {
          "name": "_firstName",
          "type": "string"
        },
        {
          "name": "_lastName",
          "type": "string"
        },
        {
          "name": "_role",
          "type": "string"
        },
        {
          "name": "_memberId",
          "type": "uint256"
        },
        {
          "name": "_kycData",
          "type": "string"
        },
        {
          "name": "_accountExpirationDate",
          "type": "uint256"
        }
      ],
      "name": "registerUserRequest",
      "outputs": [],
      "payable": false,
      "stateMutability": "nonpayable",
      "type": "function"
    },
    {
      "constant": false,
      "inputs": [
        {
          "name": "_creationDate",
          "type": "uint256"
        },
        {
          "name": "_firstName",
          "type": "string"
        },
        {
          "name": "_lastName",
          "type": "string"
        },
        {
          "name": "_memberId",
          "type": "uint256"
        },
        {
          "name": "_role",
          "type": "string"
        },
        {
          "name": "owner",
          "type": "address"
        },
        {
          "name": "_tokens",
          "type": "uint256"
        },
        {
          "name": "_kycData",
          "type": "string"
        },
        {
          "name": "_accountExpirationDate",
          "type": "uint256"
        }
      ],
      "name": "updateUser",
      "outputs": [],
      "payable": false,
      "stateMutability": "nonpayable",
      "type": "function"
    },
    {
      "constant": true,
      "inputs": [
        {
          "name": "_memberId",
          "type": "uint256"
        }
      ],
      "name": "getUsedTokens",
      "outputs": [
        {
          "name": "",
          "type": "uint256"
        }
      ],
      "payable": false,
      "stateMutability": "view",
      "type": "function"
    },
    {
      "constant": true,
      "inputs": [
        {
          "name": "addr",
          "type": "address"
        }
      ],
      "name": "checkKYCExpire",
      "outputs": [
        {
          "name": "",
          "type": "uint256"
        }
      ],
      "payable": false,
      "stateMutability": "view",
      "type": "function"
    },
    {
      "constant": false,
      "inputs": [
        {
          "name": "_firstName",
          "type": "string"
        },
        {
          "name": "_lastName",
          "type": "string"
        },
        {
          "name": "_memberId",
          "type": "uint256"
        },
        {
          "name": "_role",
          "type": "string"
        },
        {
          "name": "owner",
          "type": "address"
        },
        {
          "name": "_groups",
          "type": "string[]"
        }
      ],
      "name": "updateSuperUser",
      "outputs": [],
      "payable": false,
      "stateMutability": "nonpayable",
      "type": "function"
    },
    {
      "constant": false,
      "inputs": [
        {
          "name": "_userToReject",
          "type": "address"
        }
      ],
      "name": "rejectUser",
      "outputs": [],
      "payable": false,
      "stateMutability": "nonpayable",
      "type": "function"
    },
    {
      "constant": false,
      "inputs": [
        {
          "name": "_userToAccept",
          "type": "address"
        }
      ],
      "name": "acceptUser",
      "outputs": [],
      "payable": false,
      "stateMutability": "nonpayable",
      "type": "function"
    },
    {
      "constant": true,
      "inputs": [],
      "name": "getcountUsers",
      "outputs": [
        {
          "name": "",
          "type": "uint256"
        }
      ],
      "payable": false,
      "stateMutability": "view",
      "type": "function"
    },
    {
      "constant": false,
      "inputs": [
        {
          "name": "account",
          "type": "address"
        },
        {
          "name": "_cmo",
          "type": "string"
        }
      ],
      "name": "whitelistAdmin",
      "outputs": [],
      "payable": false,
      "stateMutability": "nonpayable",
      "type": "function"
    },
    {
      "constant": true,
      "inputs": [
        {
          "name": "_page",
          "type": "uint256"
        }
      ],
      "name": "getUsers",
      "outputs": [
        {
          "components": [
            {
              "name": "creationDate",
              "type": "uint256"
            },
            {
              "name": "accountExpirationDate",
              "type": "uint256"
            },
            {
              "name": "owner",
              "type": "address"
            },
            {
              "name": "memberId",
              "type": "uint256"
            },
            {
              "name": "requestId",
              "type": "uint256"
            },
            {
              "name": "tokens",
              "type": "uint256"
            },
            {
              "name": "firstName",
              "type": "string"
            },
            {
              "name": "lastName",
              "type": "string"
            },
            {
              "name": "role",
              "type": "string"
            },
            {
              "name": "cmo",
              "type": "string"
            },
            {
              "name": "groups",
              "type": "string[]"
            },
            {
              "name": "kycData",
              "type": "string"
            },
            {
              "name": "status",
              "type": "uint256"
            }
          ],
          "name": "",
          "type": "tuple[]"
        }
      ],
      "payable": false,
      "stateMutability": "view",
      "type": "function"
    },
    {
      "constant": true,
      "inputs": [
        {
          "name": "userAddress",
          "type": "address"
        }
      ],
      "name": "getUserByAddress",
      "outputs": [
        {
          "components": [
            {
              "name": "creationDate",
              "type": "uint256"
            },
            {
              "name": "accountExpirationDate",
              "type": "uint256"
            },
            {
              "name": "owner",
              "type": "address"
            },
            {
              "name": "memberId",
              "type": "uint256"
            },
            {
              "name": "requestId",
              "type": "uint256"
            },
            {
              "name": "tokens",
              "type": "uint256"
            },
            {
              "name": "firstName",
              "type": "string"
            },
            {
              "name": "lastName",
              "type": "string"
            },
            {
              "name": "role",
              "type": "string"
            },
            {
              "name": "cmo",
              "type": "string"
            },
            {
              "name": "groups",
              "type": "string[]"
            },
            {
              "name": "kycData",
              "type": "string"
            },
            {
              "name": "status",
              "type": "uint256"
            }
          ],
          "name": "",
          "type": "tuple"
        }
      ],
      "payable": false,
      "stateMutability": "view",
      "type": "function"
    },
    {
      "constant": true,
      "inputs": [],
      "name": "getUsersOwner",
      "outputs": [
        {
          "components": [
            {
              "name": "creationDate",
              "type": "uint256"
            },
            {
              "name": "accountExpirationDate",
              "type": "uint256"
            },
            {
              "name": "owner",
              "type": "address"
            },
            {
              "name": "memberId",
              "type": "uint256"
            },
            {
              "name": "requestId",
              "type": "uint256"
            },
            {
              "name": "tokens",
              "type": "uint256"
            },
            {
              "name": "firstName",
              "type": "string"
            },
            {
              "name": "lastName",
              "type": "string"
            },
            {
              "name": "role",
              "type": "string"
            },
            {
              "name": "cmo",
              "type": "string"
            },
            {
              "name": "groups",
              "type": "string[]"
            },
            {
              "name": "kycData",
              "type": "string"
            },
            {
              "name": "status",
              "type": "uint256"
            }
          ],
          "name": "",
          "type": "tuple[]"
        }
      ],
      "payable": false,
      "stateMutability": "view",
      "type": "function"
    },
    {
      "constant": true,
      "inputs": [],
      "name": "getMe",
      "outputs": [
        {
          "components": [
            {
              "name": "creationDate",
              "type": "uint256"
            },
            {
              "name": "accountExpirationDate",
              "type": "uint256"
            },
            {
              "name": "owner",
              "type": "address"
            },
            {
              "name": "memberId",
              "type": "uint256"
            },
            {
              "name": "requestId",
              "type": "uint256"
            },
            {
              "name": "tokens",
              "type": "uint256"
            },
            {
              "name": "firstName",
              "type": "string"
            },
            {
              "name": "lastName",
              "type": "string"
            },
            {
              "name": "role",
              "type": "string"
            },
            {
              "name": "cmo",
              "type": "string"
            },
            {
              "name": "groups",
              "type": "string[]"
            },
            {
              "name": "kycData",
              "type": "string"
            },
            {
              "name": "status",
              "type": "uint256"
            }
          ],
          "name": "",
          "type": "tuple"
        }
      ],
      "payable": false,
      "stateMutability": "view",
      "type": "function"
    },
    {
      "constant": true,
      "inputs": [
        {
          "name": "addr",
          "type": "address"
        }
      ],
      "name": "_memberIdFromCurrentAddress",
      "outputs": [
        {
          "name": "",
          "type": "uint256"
        }
      ],
      "payable": false,
      "stateMutability": "view",
      "type": "function"
    },
    {
      "constant": false,
      "inputs": [
        {
          "name": "addr",
          "type": "address"
        },
        {
          "name": "transactionPrice",
          "type": "uint256"
        }
      ],
      "name": "updateTokens",
      "outputs": [],
      "payable": false,
      "stateMutability": "nonpayable",
      "type": "function"
    },
    {
      "constant": true,
      "inputs": [
        {
          "name": "addr",
          "type": "address"
        }
      ],
      "name": "getUserTokensByAddress",
      "outputs": [
        {
          "name": "",
          "type": "uint256"
        }
      ],
      "payable": false,
      "stateMutability": "view",
      "type": "function"
    }
  ],
  "bytecode": "0x60806040523480156200001157600080fd5b506040516020806200418d833981018060405262000033919081019062000167565b62000047336401000000006200006d810204565b60018054600160a060020a031916600160a060020a03929092169190911790556200019c565b620000886000826401000000006200316a620000bf82021704565b604051600160a060020a038216907f47d1c22a25bb3a5d4e481b9b1e6944c2eade3181a0a20b495ed61d35b5323f2490600090a250565b600160a060020a0381161515620000d557600080fd5b620000ea82826401000000006200011a810204565b15620000f557600080fd5b600160a060020a0316600090815260209190915260409020805460ff19166001179055565b6000600160a060020a03821615156200013257600080fd5b50600160a060020a03166000908152602091909152604090205460ff1690565b600062000160825162000190565b9392505050565b6000602082840312156200017a57600080fd5b600062000188848462000152565b949350505050565b600160a060020a031690565b613fe180620001ac6000396000f3006080604052600436106101065763ffffffff7c010000000000000000000000000000000000000000000000000000000060003504166308bdc24d811461010b5780634dc928851461012d5780635463d06b1461014d5780635d73ab9a1461018357806367e482ad146101b057806369c212f6146101d05780637df73e27146101fd5780639249d7531461022a578063932191be1461024a578063a4fdc5941461025f578063a9eff51114610274578063bcec99a614610294578063c11e1ff3146102b4578063c722c4c0146102c9578063de24327a146102e9578063e5c8b03d14610309578063eb12d61e1461031e578063eff34e591461033e578063fc81b5251461035e575b600080fd5b34801561011757600080fd5b5061012b61012636600461354c565b61037e565b005b34801561013957600080fd5b5061012b61014836600461354c565b6106a9565b34801561015957600080fd5b5061016d61016836600461354c565b610868565b60405161017a9190613e92565b60405180910390f35b34801561018f57600080fd5b506101a361019e36600461372d565b610886565b60405161017a9190613dd2565b3480156101bc57600080fd5b5061012b6101cb3660046135c4565b610e38565b3480156101dc57600080fd5b506101f06101eb36600461354c565b610ed9565b60405161017a9190613e81565b34801561020957600080fd5b5061021d61021836600461354c565b61130a565b60405161017a9190613de3565b34801561023657600080fd5b5061016d61024536600461354c565b611322565b34801561025657600080fd5b506101a3611340565b34801561026b57600080fd5b5061016d611814565b34801561028057600080fd5b5061012b61028f366004613572565b6118cd565b3480156102a057600080fd5b5061012b6102af366004613647565b611b2d565b3480156102c057600080fd5b506101f0611dd4565b3480156102d557600080fd5b5061012b6102e4366004613865565b612239565b3480156102f557600080fd5b5061012b610304366004613769565b6124aa565b34801561031557600080fd5b5061012b612727565b34801561032a57600080fd5b5061012b61033936600461354c565b612732565b34801561034a57600080fd5b5061016d61035936600461354c565b61274f565b34801561036a57600080fd5b5061016d61037936600461372d565b61276d565b600160a060020a03818116600090815260026020819052604082200154909116116103c75760405160e560020a62461bcd0281526004016103be90613e11565b60405180910390fd5b600160a060020a0381166000908152600260205260408082206003908101543384529190922090910154148061040157506104013361130a565b15156104225760405160e560020a62461bcd0281526004016103be90613e21565b336000908152600260208190526040909120600c0154148061044857506104483361130a565b15156104695760405160e560020a62461bcd0281526004016103be90613e61565b600160a060020a0381166000908152600260205260409020600c01546001146104a75760405160e560020a62461bcd0281526004016103be90613e01565b600154600160a060020a03828116600090815260026020526040908190206003015490517fd8034379000000000000000000000000000000000000000000000000000000008152606493929092169163d80343799161050891600401613e92565b602060405180830381600087803b15801561052257600080fd5b505af1158015610536573d6000803e3d6000fd5b505050506040513d601f19601f8201168201806040525061055a919081019061374b565b111561069d57600160a060020a03808216600090815260026020819052604091829020600c81019190915560015460039091015491517fc88597c200000000000000000000000000000000000000000000000000000000815292169163c88597c2916105ca918590600401613ea0565b600060405180830381600087803b1580156105e457600080fd5b505af11580156105f8573d6000803e3d6000fd5b505050600160a060020a038083166000908152600260205260409081902060646005820181905560015460039092015492517ffda6515600000000000000000000000000000000000000000000000000000000815291909316935063fda65156926106669291600401613ebb565b600060405180830381600087803b15801561068057600080fd5b505af1158015610694573d6000803e3d6000fd5b505050506106a6565b6106a6816106a9565b50565b600160a060020a03818116600090815260026020819052604082200154909116116106e95760405160e560020a62461bcd0281526004016103be90613e11565b600160a060020a0381166000908152600260205260408082206003908101543384529190922090910154148061072357506107233361130a565b15156107445760405160e560020a62461bcd0281526004016103be90613e21565b336000908152600260208190526040909120600c0154148061076a575061076a3361130a565b151561078b5760405160e560020a62461bcd0281526004016103be90613e61565b600160a060020a0381166000908152600260205260409020600c01546001146107c95760405160e560020a62461bcd0281526004016103be90613e31565b600160a060020a03808216600090815260026020526040808220600c81019290925560015460039092015490517fc88597c2000000000000000000000000000000000000000000000000000000008152919092169163c88597c29161083391908590600401613ea0565b600060405180830381600087803b15801561084d57600080fd5b505af1158015610861573d6000803e3d6000fd5b5050505050565b600160a060020a031660009081526002602052604090206001015490565b60606000806000606060008061089a611814565b95506108a7600a8961280e565b6003549095506108b890600a612843565b93508515806108c657508585115b806108d057508388115b156108da57610e2d565b60408051600a808252610160820190925290816020015b6108f96131b8565b8152602001906001900390816108f1579050509250600091508490505b600354811015610e295733600090815260026020819052604082206003908101548154909391908590811061094757fe5b6000918252602080832090910154600160a060020a031683528201929092526040019020600301541480156109b657506002600060038381548110151561098a57fe5b6000918252602080832090910154600160a060020a031683528201929092526040019020600c01546002145b15610e2157600260006003838154811015156109ce57fe5b600091825260208083209190910154600160a060020a03908116845283820194909452604092830190912082516101a0810184528154815260018083015482850152600280840154909616828601526003830154606083015260048301546080830152600583015460a083015260068301805486516101009382161593909302600019011696909604601f81018590048502820185019095528481529094919360c0860193919291830182828015610ac75780601f10610a9c57610100808354040283529160200191610ac7565b820191906000526020600020905b815481529060010190602001808311610aaa57829003601f168201915b505050918352505060078201805460408051602060026001851615610100026000190190941693909304601f8101849004840282018401909252818152938201939291830182828015610b5b5780601f10610b3057610100808354040283529160200191610b5b565b820191906000526020600020905b815481529060010190602001808311610b3e57829003601f168201915b505050918352505060088201805460408051602060026001851615610100026000190190941693909304601f8101849004840282018401909252818152938201939291830182828015610bef5780601f10610bc457610100808354040283529160200191610bef565b820191906000526020600020905b815481529060010190602001808311610bd257829003601f168201915b505050918352505060098201805460408051602060026001851615610100026000190190941693909304601f8101849004840282018401909252818152938201939291830182828015610c835780601f10610c5857610100808354040283529160200191610c83565b820191906000526020600020905b815481529060010190602001808311610c6657829003601f168201915b50505050508152602001600a8201805480602002602001604051908101604052809291908181526020016000905b82821015610d5c5760008481526020908190208301805460408051601f6002600019610100600187161502019094169390930492830185900485028101850190915281815292830182828015610d485780601f10610d1d57610100808354040283529160200191610d48565b820191906000526020600020905b815481529060010190602001808311610d2b57829003601f168201915b505050505081526020019060010190610cb1565b50505090825250600b8201805460408051602060026001851615610100026000190190941693909304601f8101849004840282018401909252818152938201939291830182828015610def5780601f10610dc457610100808354040283529160200191610def565b820191906000526020600020905b815481529060010190602001808311610dd257829003601f168201915b50505050508152602001600c820154815250508383815181101515610e1057fe5b602090810290910101526001909101905b600101610916565b8296505b505050505050919050565b600160a060020a0380831660009081526002602052604090819020600581018054859003905560015460039091015491517ffda6515600000000000000000000000000000000000000000000000000000000815292169163fda6515691610ea3918590600401613ebb565b600060405180830381600087803b158015610ebd57600080fd5b505af1158015610ed1573d6000803e3d6000fd5b505050505050565b610ee16131b8565b600160a060020a0382811660009081526002602081815260409283902083516101a081018552815481526001808301548285015282850154909616818601526003820154606082015260048201546080820152600582015460a082015260068201805486516101009882161598909802600019011694909404601f810184900484028701840190955284865294909360c08601939192830182828015610fc85780601f10610f9d57610100808354040283529160200191610fc8565b820191906000526020600020905b815481529060010190602001808311610fab57829003601f168201915b505050918352505060078201805460408051602060026001851615610100026000190190941693909304601f810184900484028201840190925281815293820193929183018282801561105c5780601f106110315761010080835404028352916020019161105c565b820191906000526020600020905b81548152906001019060200180831161103f57829003601f168201915b505050918352505060088201805460408051602060026001851615610100026000190190941693909304601f81018490048402820184019092528181529382019392918301828280156110f05780601f106110c5576101008083540402835291602001916110f0565b820191906000526020600020905b8154815290600101906020018083116110d357829003601f168201915b505050918352505060098201805460408051602060026001851615610100026000190190941693909304601f81018490048402820184019092528181529382019392918301828280156111845780601f1061115957610100808354040283529160200191611184565b820191906000526020600020905b81548152906001019060200180831161116757829003601f168201915b50505050508152602001600a8201805480602002602001604051908101604052809291908181526020016000905b8282101561125d5760008481526020908190208301805460408051601f60026000196101006001871615020190941693909304928301859004850281018501909152818152928301828280156112495780601f1061121e57610100808354040283529160200191611249565b820191906000526020600020905b81548152906001019060200180831161122c57829003601f168201915b5050505050815260200190600101906111b2565b50505090825250600b8201805460408051602060026001851615610100026000190190941693909304601f81018490048402820184019092528181529382019392918301828280156112f05780601f106112c5576101008083540402835291602001916112f0565b820191906000526020600020905b8154815290600101906020018083116112d357829003601f168201915b50505050508152602001600c820154815250509050919050565b600061131c818363ffffffff61286616565b92915050565b600160a060020a031660009081526002602052604090206005015490565b606080600061134e3361130a565b151561135957600080fd5b60035460408051828152602080840282010190915290801561139557816020015b6113826131b8565b81526020019060019003908161137a5790505b509150600090505b60035481101561180e57600260006003838154811015156113ba57fe5b600091825260208083209190910154600160a060020a03908116845283820194909452604092830190912082516101a0810184528154815260018083015482850152600280840154909616828601526003830154606083015260048301546080830152600583015460a083015260068301805486516101009382161593909302600019011696909604601f81018590048502820185019095528481529094919360c08601939192918301828280156114b35780601f10611488576101008083540402835291602001916114b3565b820191906000526020600020905b81548152906001019060200180831161149657829003601f168201915b505050918352505060078201805460408051602060026001851615610100026000190190941693909304601f81018490048402820184019092528181529382019392918301828280156115475780601f1061151c57610100808354040283529160200191611547565b820191906000526020600020905b81548152906001019060200180831161152a57829003601f168201915b505050918352505060088201805460408051602060026001851615610100026000190190941693909304601f81018490048402820184019092528181529382019392918301828280156115db5780601f106115b0576101008083540402835291602001916115db565b820191906000526020600020905b8154815290600101906020018083116115be57829003601f168201915b505050918352505060098201805460408051602060026001851615610100026000190190941693909304601f810184900484028201840190925281815293820193929183018282801561166f5780601f106116445761010080835404028352916020019161166f565b820191906000526020600020905b81548152906001019060200180831161165257829003601f168201915b50505050508152602001600a8201805480602002602001604051908101604052809291908181526020016000905b828210156117485760008481526020908190208301805460408051601f60026000196101006001871615020190941693909304928301859004850281018501909152818152928301828280156117345780601f1061170957610100808354040283529160200191611734565b820191906000526020600020905b81548152906001019060200180831161171757829003601f168201915b50505050508152602001906001019061169d565b50505090825250600b8201805460408051602060026001851615610100026000190190941693909304601f81018490048402820184019092528181529382019392918301828280156117db5780601f106117b0576101008083540402835291602001916117db565b820191906000526020600020905b8154815290600101906020018083116117be57829003601f168201915b50505050508152602001600c8201548152505082828151811015156117fc57fe5b6020908102909101015260010161139d565b50919050565b600080805b60035481101561180e5733600090815260026020819052604082206003908101548154909391908590811061184a57fe5b6000918252602080832090910154600160a060020a031683528201929092526040019020600301541480156118b957506002600060038381548110151561188d57fe5b6000918252602080832090910154600160a060020a031683528201929092526040019020600c01546002145b156118c5576001909101905b600101611819565b6118d63361130a565b15156118e157600080fd5b600154600160a060020a03838116600090815260026020526040908190206003015490517fc88597c2000000000000000000000000000000000000000000000000000000008152919092169163c88597c29161194291908690600401613ea0565b600060405180830381600087803b15801561195c57600080fd5b505af1158015611970573d6000803e3d6000fd5b5050604080518082018252600b81527f53757065722061646d696e0000000000000000000000000000000000000000006020808301918252600160a060020a038816600090815260029091529290922090516119d394506008909101925061322a565b50600160009054906101000a9004600160a060020a0316600160a060020a031663f44a8bbe6040518163ffffffff167c0100000000000000000000000000000000000000000000000000000000028152600401602060405180830381600087803b158015611a4057600080fd5b505af1158015611a54573d6000803e3d6000fd5b505050506040513d601f19601f82011682018060405250611a78919081019061374b565b600160a060020a038316600090815260026020908152604090912060038101929092558251611aad926009019184019061322a565b50600160a060020a0382166000818152600260208181526040808420600c8101849055815160608101835260068185019081527f6469676974310000000000000000000000000000000000000000000000000000938201939093529182529490935252611b1f91600a019060016132a4565b50611b2982612732565b5050565b600160a060020a038216600090815260026020908152604082208851611b5b926006909201918a019061322a565b50600160a060020a03831660009081526002602090815260409091208751611b8b9260079092019189019061322a565b50600160a060020a03831660009081526002602090815260409091208351611bbb92600a909201918501906132fd565b50600160a060020a03831660009081526002602090815260409091208551611beb9260089092019187019061322a565b5050600160a060020a03821660009081526002602052604081206003018590555b600354811015611dcb576002600084600160a060020a0316600160a060020a031681526020019081526020016000206009016040518082805460018160011615610100020316600290048015611c995780601f10611c77576101008083540402835291820191611c99565b820191906000526020600020905b815481529060010190602001808311611c85575b505091505060405180910390206000191660026000600384815481101515611cbd57fe5b9060005260206000200160009054906101000a9004600160a060020a0316600160a060020a0316600160a060020a031681526020019081526020016000206009016040518082805460018160011615610100020316600290048015611d595780601f10611d37576101008083540402835291820191611d59565b820191906000526020600020905b815481529060010190602001808311611d45575b50509150506040518091039020600019161415611dc3578160026000600384815481101515611d8457fe5b6000918252602080832090910154600160a060020a0316835282810193909352604090910190208251611dc193600a9092019291909101906132fd565b505b600101611c0c565b50505050505050565b611ddc6131b8565b611de46131b8565b3360009081526002602081905260409091206006015460001961010060018316150201160415612235573360009081526002602081815260409283902083516101a081018552815481526001808301548285015282850154600160a060020a0316828701526003830154606083015260048301546080830152600583015460a083015260068301805487516101009382161593909302600019011695909504601f81018590048502820185019096528581529094919360c086019391929091830182828015611ef45780601f10611ec957610100808354040283529160200191611ef4565b820191906000526020600020905b815481529060010190602001808311611ed757829003601f168201915b505050918352505060078201805460408051602060026001851615610100026000190190941693909304601f8101849004840282018401909252818152938201939291830182828015611f885780601f10611f5d57610100808354040283529160200191611f88565b820191906000526020600020905b815481529060010190602001808311611f6b57829003601f168201915b505050918352505060088201805460408051602060026001851615610100026000190190941693909304601f810184900484028201840190925281815293820193929183018282801561201c5780601f10611ff15761010080835404028352916020019161201c565b820191906000526020600020905b815481529060010190602001808311611fff57829003601f168201915b505050918352505060098201805460408051602060026001851615610100026000190190941693909304601f81018490048402820184019092528181529382019392918301828280156120b05780601f10612085576101008083540402835291602001916120b0565b820191906000526020600020905b81548152906001019060200180831161209357829003601f168201915b50505050508152602001600a8201805480602002602001604051908101604052809291908181526020016000905b828210156121895760008481526020908190208301805460408051601f60026000196101006001871615020190941693909304928301859004850281018501909152818152928301828280156121755780601f1061214a57610100808354040283529160200191612175565b820191906000526020600020905b81548152906001019060200180831161215857829003601f168201915b5050505050815260200190600101906120de565b50505090825250600b8201805460408051602060026001851615610100026000190190941693909304601f810184900484028201840190925281815293820193929183018282801561221c5780601f106121f15761010080835404028352916020019161221c565b820191906000526020600020905b8154815290600101906020018083116121ff57829003601f168201915b50505050508152602001600c8201548152505090508091505b5090565b600160a060020a038481166000908152600260208190526040822001549091829116811061227c5760405160e560020a62461bcd0281526004016103be90613e11565b600160a060020a0386166000908152600260208190526040909120600c0154146122bb5760405160e560020a62461bcd0281526004016103be90613e61565b600160a060020a03861660009081526002602052604090206005015485101561237e57600154600160a060020a0387811660009081526002602052604090819020600381015460059091015491517f6df448980000000000000000000000000000000000000000000000000000000081529290931692636df4489892612347928a900390600401613ebb565b600060405180830381600087803b15801561236157600080fd5b505af1158015612375573d6000803e3d6000fd5b50505050612419565b600154600160a060020a0387811660009081526002602052604090819020600381015460059091015491517ffda65156000000000000000000000000000000000000000000000000000000008152929093169263fda65156926123e6928a0390600401613ebb565b600060405180830381600087803b15801561240057600080fd5b505af1158015612414573d6000803e3d6000fd5b505050505b600160a060020a038616600090815260026020908152604090912060058101879055855161244f92600b9092019187019061322a565b505050600160a060020a0384166000908152600260205260409020600180820183905560048201548254600c90930154929b50919061249d908c908c908c908c9087908d9088908e9061289d565b5050505050505050505050565b60008315156124ce5760405160e560020a62461bcd0281526004016103be90613e71565b6001546040517ff8380733000000000000000000000000000000000000000000000000000000008152600160a060020a039091169063f838073390612517908790600401613e92565b602060405180830381600087803b15801561253157600080fd5b505af1158015612545573d6000803e3d6000fd5b505050506040513d601f19601f8201168201806040525061256991908101906135f4565b151561258a5760405160e560020a62461bcd0281526004016103be90613e51565b6001546040517f6ce5e2bb000000000000000000000000000000000000000000000000000000008152600160a060020a0390911690636ce5e2bb906125d3908b90600401613e92565b602060405180830381600087803b1580156125ed57600080fd5b505af1158015612601573d6000803e3d6000fd5b505050506040513d601f19601f82011682018060405250612625919081019061374b565b3360009081526002602052604081205491925010156126d15761265188888887858a600133600161289d565b6001546040517fb78c36c7000000000000000000000000000000000000000000000000000000008152600160a060020a039091169063b78c36c79061269a908790600401613e92565b600060405180830381600087803b1580156126b457600080fd5b505af11580156126c8573d6000803e3d6000fd5b505050506126e4565b6126e488888887858a600133600061289d565b336000908152600260209081526040909120845161270a92600b9092019186019061322a565b505033600090815260026020526040902060010155505050505050565b6127303361308e565b565b61273b3361130a565b151561274657600080fd5b6106a6816130d6565b600160a060020a031660009081526002602052604090206003015490565b600080805b60035481101561280757836002600060038481548110151561279057fe5b6000918252602080832090910154600160a060020a0316835282019290925260400190206003015414156127ff57600260006003838154811015156127d157fe5b6000918252602080832090910154600160a060020a0316835282019290925260400190206005015491909101905b600101612772565b5092915050565b6000808315156128215760009150612807565b5082820282848281151561283157fe5b041461283c57600080fd5b9392505050565b60008080831161285257600080fd5b828481151561285d57fe5b04949350505050565b6000600160a060020a038216151561287d57600080fd5b50600160a060020a03166000908152602091909152604090205460ff1690565b6128a56131b8565b600084101580156128b7575060028411155b15156128d85760405160e560020a62461bcd0281526004016103be90613e41565b845115156128fb5760405160e560020a62461bcd0281526004016103be90613df1565b600160a060020a0383811660009081526002602081815260409283902083516101a081018552815481526001808301548285015282850154909616818601526003820154606082015260048201546080820152600582015460a082015260068201805486516101009882161598909802600019011694909404601f810184900484028701840190955284865294909360c086019391928301828280156129e25780601f106129b7576101008083540402835291602001916129e2565b820191906000526020600020905b8154815290600101906020018083116129c557829003601f168201915b505050918352505060078201805460408051602060026001851615610100026000190190941693909304601f8101849004840282018401909252818152938201939291830182828015612a765780601f10612a4b57610100808354040283529160200191612a76565b820191906000526020600020905b815481529060010190602001808311612a5957829003601f168201915b505050918352505060088201805460408051602060026001851615610100026000190190941693909304601f8101849004840282018401909252818152938201939291830182828015612b0a5780601f10612adf57610100808354040283529160200191612b0a565b820191906000526020600020905b815481529060010190602001808311612aed57829003601f168201915b505050918352505060098201805460408051602060026001851615610100026000190190941693909304601f8101849004840282018401909252818152938201939291830182828015612b9e5780601f10612b7357610100808354040283529160200191612b9e565b820191906000526020600020905b815481529060010190602001808311612b8157829003601f168201915b50505050508152602001600a8201805480602002602001604051908101604052809291908181526020016000905b82821015612c775760008481526020908190208301805460408051601f6002600019610100600187161502019094169390930492830185900485028101850190915281815292830182828015612c635780601f10612c3857610100808354040283529160200191612c63565b820191906000526020600020905b815481529060010190602001808311612c4657829003601f168201915b505050505081526020019060010190612bcc565b50505090825250600b8201805460408051602060026001851615610100026000190190941693909304601f8101849004840282018401909252818152938201939291830182828015612d0a5780601f10612cdf57610100808354040283529160200191612d0a565b820191906000526020600020905b815481529060010190602001808311612ced57829003601f168201915b5050509183525050600c91909101546020918201528b825260c082018b815260e083018b9052606083018a8152608084018a815261010085018a90526101808501899052600160a060020a0388811660408088018281526000928352600280895291909220885181558888015160018201559151908201805473ffffffffffffffffffffffffffffffffffffffff191691909316179091559151600383015551600482015560a084015160058201559051805193945084939192612dd69260068501929091019061322a565b5060e08201518051612df291600784019160209091019061322a565b506101008201518051612e0f91600884019160209091019061322a565b506101208201518051612e2c91600984019160209091019061322a565b506101408201518051612e4991600a84019160209091019061334a565b506101608201518051612e6691600b84019160209091019061322a565b506101809190910151600c909101558115156130825760038054600180820183556000929092527fc2575a0e9e593c00f959f8c92f12db2869c3395a3b0502d05e2516446f71f85b01805473ffffffffffffffffffffffffffffffffffffffff1916600160a060020a038681169190911790915590546040517fb78c36c700000000000000000000000000000000000000000000000000000000815291169063b78c36c790612f19908a90600401613e92565b600060405180830381600087803b158015612f3357600080fd5b505af1158015612f47573d6000803e3d6000fd5b505060408051606081018252600660208281019182527f646967697431000000000000000000000000000000000000000000000000000083850152908252600160a060020a0388166000908152600290915291909120612fae9350600a01915060016132a4565b5060015460608201516040517f466cc2bf000000000000000000000000000000000000000000000000000000008152600160a060020a039092169163466cc2bf91612ffb91600401613e92565b600060405180830381600087803b15801561301557600080fd5b505af1158015613029573d6000803e3d6000fd5b505050506040513d6000823e601f3d908101601f191682016040526130519190810190613612565b600160a060020a0384166000908152600260209081526040909120825161249d93600990920192919091019061322a565b50505050505050505050565b61309f60008263ffffffff61311e16565b604051600160a060020a038216907f3525e22824a8a7df2c9a6029941c824cf95b6447f1e13d5128fd3826d35afe8b90600090a250565b6130e760008263ffffffff61316a16565b604051600160a060020a038216907f47d1c22a25bb3a5d4e481b9b1e6944c2eade3181a0a20b495ed61d35b5323f2490600090a250565b600160a060020a038116151561313357600080fd5b61313d8282612866565b151561314857600080fd5b600160a060020a0316600090815260209190915260409020805460ff19169055565b600160a060020a038116151561317f57600080fd5b6131898282612866565b1561319357600080fd5b600160a060020a0316600090815260209190915260409020805460ff19166001179055565b6101a06040519081016040528060008152602001600081526020016000600160a060020a03168152602001600081526020016000815260200160008152602001606081526020016060815260200160608152602001606081526020016060815260200160608152602001600081525090565b828054600181600116156101000203166002900490600052602060002090601f016020900481019282601f1061326b57805160ff1916838001178555613298565b82800160010185558215613298579182015b8281111561329857825182559160200191906001019061327d565b50612235929150613397565b8280548282559060005260206000209081019282156132f1579160200282015b828111156132f157825180516132e191849160209091019061322a565b50916020019190600101906132c4565b506122359291506133b4565b8280548282559060005260206000209081019282156132f1579160200282015b828111156132f1578251805161333a91849160209091019061322a565b509160200191906001019061331d565b8280548282559060005260206000209081019282156132f1579160200282015b828111156132f1578251805161338791849160209091019061322a565b509160200191906001019061336a565b6133b191905b80821115612235576000815560010161339d565b90565b6133b191905b808211156122355760006133ce82826133d7565b506001016133ba565b50805460018160011615610100020316600290046000825580601f106133fd57506106a6565b601f0160209004906000526020600020908101906106a69190613397565b600061283c8235613f50565b6000601f8201831361343857600080fd5b813561344b61344682613efd565b613ed6565b81815260209384019390925082018360005b838110156134895781358601613473888261349f565b845250602092830192919091019060010161345d565b5050505092915050565b600061283c8251613f5c565b6000601f820183136134b057600080fd5b81356134be61344682613f1e565b915080825260208301602083018583830111156134da57600080fd5b6134e5838284613f61565b50505092915050565b6000601f820183136134ff57600080fd5b815161350d61344682613f1e565b9150808252602083016020830185838301111561352957600080fd5b6134e5838284613f6d565b600061283c82356133b1565b600061283c82516133b1565b60006020828403121561355e57600080fd5b600061356a848461341b565b949350505050565b6000806040838503121561358557600080fd5b6000613591858561341b565b925050602083013567ffffffffffffffff8111156135ae57600080fd5b6135ba8582860161349f565b9150509250929050565b600080604083850312156135d757600080fd5b60006135e3858561341b565b92505060206135ba85828601613534565b60006020828403121561360657600080fd5b600061356a8484613493565b60006020828403121561362457600080fd5b815167ffffffffffffffff81111561363b57600080fd5b61356a848285016134ee565b60008060008060008060c0878903121561366057600080fd5b863567ffffffffffffffff81111561367757600080fd5b61368389828a0161349f565b965050602087013567ffffffffffffffff8111156136a057600080fd5b6136ac89828a0161349f565b95505060406136bd89828a01613534565b945050606087013567ffffffffffffffff8111156136da57600080fd5b6136e689828a0161349f565b93505060806136f789828a0161341b565b92505060a087013567ffffffffffffffff81111561371457600080fd5b61372089828a01613427565b9150509295509295509295565b60006020828403121561373f57600080fd5b600061356a8484613534565b60006020828403121561375d57600080fd5b600061356a8484613540565b600080600080600080600060e0888a03121561378457600080fd5b60006137908a8a613534565b975050602088013567ffffffffffffffff8111156137ad57600080fd5b6137b98a828b0161349f565b965050604088013567ffffffffffffffff8111156137d657600080fd5b6137e28a828b0161349f565b955050606088013567ffffffffffffffff8111156137ff57600080fd5b61380b8a828b0161349f565b945050608061381c8a828b01613534565b93505060a088013567ffffffffffffffff81111561383957600080fd5b6138458a828b0161349f565b92505060c06138568a828b01613534565b91505092959891949750929550565b60008060008060008060008060006101208a8c03121561388457600080fd5b60006138908c8c613534565b99505060208a013567ffffffffffffffff8111156138ad57600080fd5b6138b98c828d0161349f565b98505060408a013567ffffffffffffffff8111156138d657600080fd5b6138e28c828d0161349f565b97505060606138f38c828d01613534565b96505060808a013567ffffffffffffffff81111561391057600080fd5b61391c8c828d0161349f565b95505060a061392d8c828d0161341b565b94505060c061393e8c828d01613534565b93505060e08a013567ffffffffffffffff81111561395b57600080fd5b6139678c828d0161349f565b9250506101006139798c828d01613534565b9150509295985092959850929598565b61399281613f50565b82525050565b60006139a382613f4c565b808452602084019350836020820285016139bc85613f46565b60005b848110156139f35783830388526139d7838351613a63565b92506139e282613f46565b6020989098019791506001016139bf565b50909695505050505050565b6000613a0a82613f4c565b80845260208401935083602082028501613a2385613f46565b60005b848110156139f3578383038852613a3e838351613c94565b9250613a4982613f46565b602098909801979150600101613a26565b61399281613f5c565b6000613a6e82613f4c565b808452613a82816020860160208601613f6d565b613a8b81613f9d565b9093016020019392505050565b601181527f726f6c65206973206d616e6461746f7279000000000000000000000000000000602082015260400190565b602281527f4f6e6c792070656e64696e672075736572732063616e2062652061636365707460208201527f6564000000000000000000000000000000000000000000000000000000000000604082015260600190565b601481527f546869732075736572206e6f7420657869737473000000000000000000000000602082015260400190565b601b81527f596f752063616e6e6f7420616363657074207468697320757365720000000000602082015260400190565b602281527f4f6e6c792070656e64696e672075736572732063616e2062652072656a65637460208201527f6564000000000000000000000000000000000000000000000000000000000000604082015260600190565b601381527f737461747573206973206e6f742076616c696400000000000000000000000000602082015260400190565b601181527f4d656d626572206e6f7420657869737473000000000000000000000000000000602082015260400190565b601481527f596f7520617265206e6f74206163636570746564000000000000000000000000602082015260400190565b601181527f4e6f2076616c6964206d656d6265724964000000000000000000000000000000602082015260400190565b80516000906101a0840190613ca98582613dc9565b506020830151613cbc6020860182613dc9565b506040830151613ccf6040860182613989565b506060830151613ce26060860182613dc9565b506080830151613cf56080860182613dc9565b5060a0830151613d0860a0860182613dc9565b5060c083015184820360c0860152613d208282613a63565b91505060e083015184820360e0860152613d3a8282613a63565b915050610100830151848203610100860152613d568282613a63565b915050610120830151848203610120860152613d728282613a63565b915050610140830151848203610140860152613d8e8282613998565b915050610160830151848203610160860152613daa8282613a63565b915050610180830151613dc1610180860182613dc9565b509392505050565b613992816133b1565b6020808252810161283c81846139ff565b6020810161131c8284613a5a565b6020808252810161131c81613a98565b6020808252810161131c81613ac8565b6020808252810161131c81613b1e565b6020808252810161131c81613b4e565b6020808252810161131c81613b7e565b6020808252810161131c81613bd4565b6020808252810161131c81613c04565b6020808252810161131c81613c34565b6020808252810161131c81613c64565b6020808252810161283c8184613c94565b6020810161131c8284613dc9565b60408101613eae8285613dc9565b61283c6020830184613989565b60408101613ec98285613dc9565b61283c6020830184613dc9565b60405181810167ffffffffffffffff81118282101715613ef557600080fd5b604052919050565b600067ffffffffffffffff821115613f1457600080fd5b5060209081020190565b600067ffffffffffffffff821115613f3557600080fd5b506020601f91909101601f19160190565b60200190565b5190565b600160a060020a031690565b151590565b82818337506000910152565b60005b83811015613f88578181015183820152602001613f70565b83811115613f97576000848401525b50505050565b601f01601f1916905600a265627a7a72305820958f869714914ec789be0ab82d4e16664caf1561df1b0ca9e1023ea04cd2a9b56c6578706572696d656e74616cf50037",
  "source": "pragma solidity ^0.4.24;\npragma experimental ABIEncoderV2;\n\nimport \"./Members.sol\";\nimport \"./Claims.sol\";\nimport \"./SignerRole.sol\";\n\ncontract Users is SignerRole {\n\n  Members private _Members;\n  //  Users.User private currentUser;\n\n  constructor (address _MembersAddr) public {\n    _Members = Members(_MembersAddr);\n    //    currentUser = _Users.getUserByAddress(msg.sender);\n  }\n\n  // DO NOT DO THIS! Just inherit from here ('Users is SignerRole').\n  //  modifier onlySigner() {\n  //    require(_Members.isSigner(msg.sender));\n  //    _;\n  //  }\n\n  struct User {\n    uint256 creationDate;\n    uint256 accountExpirationDate;\n    address owner;  // primary key\n    uint256 memberId;\n    uint256 requestId;\n    uint tokens;\n    string firstName;\n    string lastName;\n    string role;\n    string cmo;\n    string[] groups;\n    string kycData;\n    uint status;\n  }\n//\n//  enum StatusUserEnum {\n//    REJECTED, // 0\n//    PENDING,  // 1\n//    ACCEPTED  // 2\n//  }\n\n  mapping (address => User) private users_;\n  address[] private usersList_;\n  uint256 constant private PAGE_SIZE = 10;\n//  uint private requestIdCounter = 1592831436681;\n  uint256 constant private userStartTokens = 100;\n\n  // PUBLIC\n\n  function registerUserRequest(uint _creationDate, string _firstName, string _lastName, string _role, uint256 _memberId,\n    string _kycData, uint _accountExpirationDate) public {\n\n    require(_memberId != 0, \"No valid memberId\");\n//    require(_creationDate > 0, \"CreationDate is mandatory\");\n//    require(users_[msg.sender].creationDate == 0, \"User already exists\");\n    require(_Members._memberExists(_memberId), \"Member not exists\");\n\n    uint256 _requestId = _Members.calcRandom(_creationDate);\n    if (users_[msg.sender].creationDate > 0) { // The user already exists.\n      _saveUser(_creationDate, _firstName, _lastName, _memberId, _requestId, _role, 1, msg.sender, 1);\n      _Members._addUserToMemberRequest(_memberId);\n    } else {\n      _saveUser(_creationDate, _firstName, _lastName, _memberId, _requestId, _role, 1, msg.sender, 0);\n    }\n    users_[msg.sender].kycData = _kycData;\n    users_[msg.sender].accountExpirationDate = _accountExpirationDate;\n  }\n\n  function updateUser(uint _creationDate, string _firstName, string _lastName, uint256 _memberId, string _role, address owner,\n    uint _tokens, string _kycData, uint _accountExpirationDate) public {\n\n    require(users_[owner].owner > address(0), \"This user not exists\");\n    require(users_[owner].status == 2, \"You are not accepted\");\n    if (users_[owner].tokens > _tokens) {\n      _Members.increaseMemberTotalTokens(users_[owner].memberId, users_[owner].tokens - _tokens);\n//      members_[users_[owner].memberId].totalTokens += users_[owner].tokens - _tokens; // add new Members function\n    } else {\n      _Members.updateMemberTotalTokens(users_[owner].memberId, _tokens - users_[owner].tokens);\n//      members_[users_[owner].memberId].totalTokens -= _tokens - users_[owner].tokens; // -//-\n    }\n    users_[owner].tokens = _tokens;\n    users_[owner].kycData = _kycData;\n    users_[owner].accountExpirationDate = _accountExpirationDate;\n\n    uint256 _requestId = users_[owner].requestId;\n    _creationDate = users_[owner].creationDate;\n    uint256 _status = users_[owner].status;\n\n    _saveUser(_creationDate, _firstName, _lastName, _memberId, _requestId, _role, _status, owner, 1);\n  }\n\n  function getUsedTokens(uint256 _memberId) public view returns (uint){\n    uint usedTokens = 0;\n    for (uint i = 0; i < usersList_.length; ++i) {\n      if (users_[usersList_[i]].memberId == _memberId) {\n        usedTokens += users_[usersList_[i]].tokens;\n      }\n    }\n    return usedTokens;\n  }\n\n  function checkKYCExpire(address addr) public view returns (uint){\n    return users_[addr].accountExpirationDate;\n  }\n\n  function updateSuperUser(string _firstName, string _lastName, uint256 _memberId, string _role, address owner,\n    string[] _groups) public {\n\n    users_[owner].firstName = _firstName;\n    users_[owner].lastName = _lastName;\n    users_[owner].groups = _groups;\n    users_[owner].role = _role; // currently disabled\n    users_[owner].memberId = _memberId; // currently disabled\n\n    for (uint i = 0; i < usersList_.length; ++i) {\n      if (keccak256(users_[usersList_[i]].cmo) == keccak256(users_[owner].cmo)) {\n        users_[usersList_[i]].groups = _groups;\n      }\n    }\n\n  }\n\n  function rejectUser(address _userToReject) public {\n\n    require(users_[_userToReject].owner > address(0), \"This user not exists\");\n    require((users_[msg.sender].memberId == users_[_userToReject].memberId) || isSigner(msg.sender), \"You cannot accept this user\");\n    require(users_[msg.sender].status == 2 || isSigner(msg.sender), \"You are not accepted\");\n    require(users_[_userToReject].status == 1, \"Only pending users can be rejected\");\n\n    users_[_userToReject].status = 0;\n    _Members._clearUserFromMemberRequest(users_[_userToReject].memberId, _userToReject);\n  }\n\n  function acceptUser(address _userToAccept) public {\n\n    require(users_[_userToAccept].owner > address(0), \"This user not exists\");\n    require((users_[msg.sender].memberId == users_[_userToAccept].memberId) || isSigner(msg.sender), \"You cannot accept this user\");\n    require(users_[msg.sender].status == 2 || isSigner(msg.sender), \"You are not accepted\");\n    require(users_[_userToAccept].status == 1, \"Only pending users can be accepted\");\n\n    // new functions\n    if (_Members.getMemberTotalTokens(users_[_userToAccept].memberId) > userStartTokens) {\n      users_[_userToAccept].status = 2;\n      _Members._clearUserFromMemberRequest(users_[_userToAccept].memberId, _userToAccept);\n      users_[_userToAccept].tokens = userStartTokens;\n      _Members.updateMemberTotalTokens(users_[_userToAccept].memberId, userStartTokens);\n//      members_[users_[_userToAccept].memberId].totalTokens -= userStartTokens;\n    } else {\n      rejectUser(_userToAccept);\n    }\n  }\n\n  function getcountUsers() public view returns(uint) {\n    uint256 counter = 0;\n    for (uint i = 0; i < usersList_.length; ++i) {\n      if(users_[usersList_[i]].memberId == users_[msg.sender].memberId\n        && users_[usersList_[i]].status == 2) {\n        counter++;\n      }\n    }\n    return counter;\n  }\n\n  function whitelistAdmin(address account, string _cmo) onlySigner public {\n    _Members._clearUserFromMemberRequest(users_[account].memberId, account);\n    users_[account].role = \"Super admin\"; // DO NOT MODIFY\n    users_[account].memberId = _Members.returnUpdatedMemberIdCounter();\n    users_[account].cmo = _cmo;\n//    users_[account].tokens = 0; // should \"Super admin\" users have tokens?\n    users_[account].status = 2;\n    users_[account].groups = [\"digit1\"];\n    addSigner(account);\n  }\n\n  function getUsers(uint256 _page) public view returns(User[] memory) {\n    uint256 counter = getcountUsers();\n\n    uint256 pageIndex = SafeMath.mul(PAGE_SIZE, _page);\n    uint256 pageNumber = SafeMath.div(usersList_.length, PAGE_SIZE);\n\n    if (counter == 0 || pageIndex > counter || _page > pageNumber) {\n      return;\n    }\n\n    User[] memory userPageBasic = new User[](PAGE_SIZE);\n    uint256 counterFinal = 0;\n\n    for (uint j = pageIndex; j < usersList_.length; ++j) {\n      if(users_[usersList_[j]].memberId == users_[msg.sender].memberId\n        && users_[usersList_[j]].status == 2) {\n        userPageBasic[counterFinal] = users_[usersList_[j]];\n        ++counterFinal;\n      }\n    }\n    return userPageBasic;\n  }\n\n  function getUserByAddress(address userAddress) public view returns(User memory) {\n    return users_[userAddress];\n  }\n\n  function getUsersOwner() onlySigner public view returns(User[] memory) {\n    User[] memory userPageOwner = new User[](usersList_.length);\n    for (uint i = 0; i < usersList_.length; ++i) {\n      userPageOwner[i] = users_[usersList_[i]];\n    }\n    return userPageOwner;\n  }\n\n  function getMe() public view returns(User) {\n      if (bytes(users_[msg.sender].firstName).length != 0) {\n        User memory user = users_[msg.sender];\n        return user;\n      } else {\n        return;\n      }\n  }\n\n\n  function _saveUser(uint _creationDate, string _firstName, string _lastName, uint256 _memberId,\n    uint256 _requestId, string _role, uint256 _status, address owner, uint isCreate) internal {\n\n    require(_status >= 0 && _status <=2, \"status is not valid\");\n    require(bytes(_role).length != 0, \"role is mandatory\");\n\n    User memory user = users_[owner];\n\n    user.creationDate =  _creationDate;\n    user.firstName =  _firstName;\n    user.lastName =  _lastName;\n    user.memberId =  _memberId;\n    user.requestId =  _requestId;\n    user.role = _role;\n    user.status = _status;\n    user.owner = owner;\n\n    users_[owner] = user;\n\n    if (isCreate == 0) {\n      usersList_.push(owner);\n//      if (users_[owner].status != 2) {\n      _Members._addUserToMemberRequest(_memberId);\n//      }\n      users_[owner].groups = [\"digit1\"];                  // by default\n      users_[owner].cmo = _Members.getMemberCmo(user.memberId); // to initialize\n    }\n  }\n\n  function _memberIdFromCurrentAddress(address addr) view public returns(uint256) {\n    return users_[addr].memberId;\n  }\n\n  function updateTokens(address addr, uint transactionPrice) public {\n    users_[addr].tokens -= transactionPrice;\n    _Members.updateMemberTotalTokens(users_[addr].memberId, transactionPrice);\n  }\n\n  function getUserTokensByAddress(address addr) view public returns(uint) {\n    return users_[addr].tokens;\n  }\n\n}\n",
  "sourcePath": "/home/komodo/newUI2/bloomen-decentralized-rights-management-v2/truffle/contracts/registry/Users.sol",
  "compiler": {
    "name": "solc",
    "version": "0.4.24+commit.e67f0147.Emscripten.clang"
  },
  "schemaVersion": "2.0.1",
  "updatedAt": "2020-06-28T16:42:06.670Z"
}