{
  "contractName": "Users",
  "abi": [
    {
      "constant": false,
      "inputs": [
        {
          "name": "_cmo",
          "type": "string"
        }
      ],
      "name": "addCMO",
      "outputs": [],
      "payable": false,
      "stateMutability": "nonpayable",
      "type": "function"
    },
    {
      "constant": true,
      "inputs": [
        {
          "name": "_memberId",
          "type": "uint256"
        }
      ],
      "name": "_getClaimsIdByMember",
      "outputs": [
        {
          "name": "",
          "type": "uint256[]"
        }
      ],
      "payable": false,
      "stateMutability": "view",
      "type": "function"
    },
    {
      "constant": true,
      "inputs": [],
      "name": "getCMOs",
      "outputs": [
        {
          "name": "",
          "type": "string[]"
        }
      ],
      "payable": false,
      "stateMutability": "view",
      "type": "function"
    },
    {
      "constant": false,
      "inputs": [
        {
          "name": "_memberId",
          "type": "uint256"
        },
        {
          "name": "_claimId",
          "type": "uint256"
        }
      ],
      "name": "_addClaimFromInbox",
      "outputs": [],
      "payable": false,
      "stateMutability": "nonpayable",
      "type": "function"
    },
    {
      "constant": true,
      "inputs": [
        {
          "name": "account",
          "type": "address"
        }
      ],
      "name": "isSigner",
      "outputs": [
        {
          "name": "",
          "type": "bool"
        }
      ],
      "payable": false,
      "stateMutability": "view",
      "type": "function"
    },
    {
      "constant": false,
      "inputs": [
        {
          "name": "_memberId",
          "type": "uint256"
        },
        {
          "name": "_claimId",
          "type": "uint256"
        }
      ],
      "name": "_removeClaimFromInbox",
      "outputs": [],
      "payable": false,
      "stateMutability": "nonpayable",
      "type": "function"
    },
    {
      "constant": false,
      "inputs": [
        {
          "name": "currentCMO",
          "type": "string"
        },
        {
          "name": "currentCMOId",
          "type": "uint256"
        }
      ],
      "name": "_getMemberIdsOfCurrentCMO",
      "outputs": [
        {
          "name": "",
          "type": "uint256[]"
        }
      ],
      "payable": false,
      "stateMutability": "nonpayable",
      "type": "function"
    },
    {
      "constant": true,
      "inputs": [],
      "name": "getMembers",
      "outputs": [
        {
          "components": [
            {
              "name": "memberId",
              "type": "uint256"
            },
            {
              "name": "creationDate",
              "type": "uint256"
            },
            {
              "name": "name",
              "type": "string"
            },
            {
              "name": "logo",
              "type": "string"
            },
            {
              "name": "country",
              "type": "string"
            },
            {
              "name": "cmo",
              "type": "string"
            },
            {
              "name": "theme",
              "type": "string"
            },
            {
              "name": "claimInbox",
              "type": "uint256[]"
            },
            {
              "name": "claims",
              "type": "uint256[]"
            },
            {
              "name": "userRequests",
              "type": "address[]"
            },
            {
              "name": "totalTokens",
              "type": "uint256"
            }
          ],
          "name": "",
          "type": "tuple[]"
        }
      ],
      "payable": false,
      "stateMutability": "view",
      "type": "function"
    },
    {
      "constant": true,
      "inputs": [],
      "name": "getCount",
      "outputs": [
        {
          "name": "",
          "type": "uint256"
        }
      ],
      "payable": false,
      "stateMutability": "view",
      "type": "function"
    },
    {
      "constant": true,
      "inputs": [
        {
          "name": "_memberId",
          "type": "uint256"
        }
      ],
      "name": "_getClaimsCountByMember",
      "outputs": [
        {
          "name": "",
          "type": "uint256"
        }
      ],
      "payable": false,
      "stateMutability": "view",
      "type": "function"
    },
    {
      "constant": false,
      "inputs": [
        {
          "name": "_memberId",
          "type": "uint256"
        },
        {
          "name": "_claimId",
          "type": "uint256"
        }
      ],
      "name": "_removeClaimFromMember",
      "outputs": [],
      "payable": false,
      "stateMutability": "nonpayable",
      "type": "function"
    },
    {
      "constant": false,
      "inputs": [
        {
          "name": "_index",
          "type": "uint256"
        }
      ],
      "name": "deleteCMO",
      "outputs": [],
      "payable": false,
      "stateMutability": "nonpayable",
      "type": "function"
    },
    {
      "constant": false,
      "inputs": [
        {
          "name": "_memberId",
          "type": "uint256"
        },
        {
          "name": "newInbox",
          "type": "uint256[]"
        }
      ],
      "name": "updateMemberClaimInbox",
      "outputs": [],
      "payable": false,
      "stateMutability": "nonpayable",
      "type": "function"
    },
    {
      "constant": true,
      "inputs": [
        {
          "name": "_page",
          "type": "uint256"
        }
      ],
      "name": "getMembers",
      "outputs": [
        {
          "components": [
            {
              "name": "memberId",
              "type": "uint256"
            },
            {
              "name": "creationDate",
              "type": "uint256"
            },
            {
              "name": "name",
              "type": "string"
            },
            {
              "name": "logo",
              "type": "string"
            },
            {
              "name": "country",
              "type": "string"
            },
            {
              "name": "cmo",
              "type": "string"
            },
            {
              "name": "theme",
              "type": "string"
            },
            {
              "name": "claimInbox",
              "type": "uint256[]"
            },
            {
              "name": "claims",
              "type": "uint256[]"
            },
            {
              "name": "userRequests",
              "type": "address[]"
            },
            {
              "name": "totalTokens",
              "type": "uint256"
            }
          ],
          "name": "",
          "type": "tuple[]"
        }
      ],
      "payable": false,
      "stateMutability": "view",
      "type": "function"
    },
    {
      "constant": false,
      "inputs": [
        {
          "name": "_memberId",
          "type": "uint256"
        },
        {
          "name": "_creationDate",
          "type": "uint256"
        },
        {
          "name": "_name",
          "type": "string"
        },
        {
          "name": "_logo",
          "type": "string"
        },
        {
          "name": "_country",
          "type": "string"
        },
        {
          "name": "_cmo",
          "type": "string"
        },
        {
          "name": "_theme",
          "type": "string"
        },
        {
          "name": "_totalTokens",
          "type": "uint256"
        }
      ],
      "name": "updateMember",
      "outputs": [],
      "payable": false,
      "stateMutability": "nonpayable",
      "type": "function"
    },
    {
      "constant": false,
      "inputs": [
        {
          "name": "_memberId",
          "type": "uint256"
        },
        {
          "name": "_claimId",
          "type": "uint256"
        }
      ],
      "name": "_addClaimIdToMemberOwner",
      "outputs": [],
      "payable": false,
      "stateMutability": "nonpayable",
      "type": "function"
    },
    {
      "constant": false,
      "inputs": [],
      "name": "renounceSigner",
      "outputs": [],
      "payable": false,
      "stateMutability": "nonpayable",
      "type": "function"
    },
    {
      "constant": false,
      "inputs": [
        {
          "name": "account",
          "type": "address"
        }
      ],
      "name": "addSigner",
      "outputs": [],
      "payable": false,
      "stateMutability": "nonpayable",
      "type": "function"
    },
    {
      "constant": true,
      "inputs": [
        {
          "name": "_memberId",
          "type": "uint256"
        }
      ],
      "name": "_memberExists",
      "outputs": [
        {
          "name": "",
          "type": "bool"
        }
      ],
      "payable": false,
      "stateMutability": "view",
      "type": "function"
    },
    {
      "constant": false,
      "inputs": [
        {
          "name": "_creationDate",
          "type": "uint256"
        },
        {
          "name": "_name",
          "type": "string"
        },
        {
          "name": "_logo",
          "type": "string"
        },
        {
          "name": "_country",
          "type": "string"
        },
        {
          "name": "_cmo",
          "type": "string"
        },
        {
          "name": "_theme",
          "type": "string"
        }
      ],
      "name": "addMember",
      "outputs": [
        {
          "name": "",
          "type": "uint256"
        }
      ],
      "payable": false,
      "stateMutability": "nonpayable",
      "type": "function"
    },
    {
      "anonymous": false,
      "inputs": [
        {
          "indexed": true,
          "name": "account",
          "type": "address"
        }
      ],
      "name": "SignerAdded",
      "type": "event"
    },
    {
      "anonymous": false,
      "inputs": [
        {
          "indexed": true,
          "name": "account",
          "type": "address"
        }
      ],
      "name": "SignerRemoved",
      "type": "event"
    },
    {
      "constant": false,
      "inputs": [
        {
          "name": "_firstName",
          "type": "string"
        },
        {
          "name": "_lastName",
          "type": "string"
        },
        {
          "name": "_role",
          "type": "string"
        },
        {
          "name": "_memberId",
          "type": "uint256"
        },
        {
          "name": "_kycData",
          "type": "string"
        }
      ],
      "name": "registerUserRequest",
      "outputs": [],
      "payable": false,
      "stateMutability": "nonpayable",
      "type": "function"
    },
    {
      "constant": false,
      "inputs": [
        {
          "name": "_firstName",
          "type": "string"
        },
        {
          "name": "_lastName",
          "type": "string"
        },
        {
          "name": "_memberId",
          "type": "uint256"
        },
        {
          "name": "_role",
          "type": "string"
        },
        {
          "name": "owner",
          "type": "address"
        },
        {
          "name": "_tokens",
          "type": "uint256"
        },
        {
          "name": "_kycData",
          "type": "string"
        }
      ],
      "name": "updateUser",
      "outputs": [],
      "payable": false,
      "stateMutability": "nonpayable",
      "type": "function"
    },
    {
      "constant": true,
      "inputs": [
        {
          "name": "_memberId",
          "type": "uint256"
        }
      ],
      "name": "getUsedTokens",
      "outputs": [
        {
          "name": "",
          "type": "uint256"
        }
      ],
      "payable": false,
      "stateMutability": "view",
      "type": "function"
    },
    {
      "constant": false,
      "inputs": [
        {
          "name": "_firstName",
          "type": "string"
        },
        {
          "name": "_lastName",
          "type": "string"
        },
        {
          "name": "_memberId",
          "type": "uint256"
        },
        {
          "name": "_role",
          "type": "string"
        },
        {
          "name": "owner",
          "type": "address"
        },
        {
          "name": "_groups",
          "type": "string[]"
        }
      ],
      "name": "updateSuperUser",
      "outputs": [],
      "payable": false,
      "stateMutability": "nonpayable",
      "type": "function"
    },
    {
      "constant": false,
      "inputs": [
        {
          "name": "_userToReject",
          "type": "address"
        }
      ],
      "name": "rejectUser",
      "outputs": [],
      "payable": false,
      "stateMutability": "nonpayable",
      "type": "function"
    },
    {
      "constant": false,
      "inputs": [
        {
          "name": "_userToAccept",
          "type": "address"
        }
      ],
      "name": "acceptUser",
      "outputs": [],
      "payable": false,
      "stateMutability": "nonpayable",
      "type": "function"
    },
    {
      "constant": true,
      "inputs": [],
      "name": "getcountUsers",
      "outputs": [
        {
          "name": "",
          "type": "uint256"
        }
      ],
      "payable": false,
      "stateMutability": "view",
      "type": "function"
    },
    {
      "constant": false,
      "inputs": [
        {
          "name": "account",
          "type": "address"
        },
        {
          "name": "_cmo",
          "type": "string"
        }
      ],
      "name": "whitelistAdmin",
      "outputs": [],
      "payable": false,
      "stateMutability": "nonpayable",
      "type": "function"
    },
    {
      "constant": true,
      "inputs": [
        {
          "name": "_page",
          "type": "uint256"
        }
      ],
      "name": "getUsers",
      "outputs": [
        {
          "components": [
            {
              "name": "owner",
              "type": "address"
            },
            {
              "name": "memberId",
              "type": "uint256"
            },
            {
              "name": "requestId",
              "type": "uint256"
            },
            {
              "name": "tokens",
              "type": "uint256"
            },
            {
              "name": "firstName",
              "type": "string"
            },
            {
              "name": "lastName",
              "type": "string"
            },
            {
              "name": "role",
              "type": "string"
            },
            {
              "name": "cmo",
              "type": "string"
            },
            {
              "name": "groups",
              "type": "string[]"
            },
            {
              "name": "kycData",
              "type": "string"
            },
            {
              "name": "status",
              "type": "uint256"
            }
          ],
          "name": "",
          "type": "tuple[]"
        }
      ],
      "payable": false,
      "stateMutability": "view",
      "type": "function"
    },
    {
      "constant": true,
      "inputs": [
        {
          "name": "userAddress",
          "type": "address"
        }
      ],
      "name": "getUserByAddress",
      "outputs": [
        {
          "components": [
            {
              "name": "owner",
              "type": "address"
            },
            {
              "name": "memberId",
              "type": "uint256"
            },
            {
              "name": "requestId",
              "type": "uint256"
            },
            {
              "name": "tokens",
              "type": "uint256"
            },
            {
              "name": "firstName",
              "type": "string"
            },
            {
              "name": "lastName",
              "type": "string"
            },
            {
              "name": "role",
              "type": "string"
            },
            {
              "name": "cmo",
              "type": "string"
            },
            {
              "name": "groups",
              "type": "string[]"
            },
            {
              "name": "kycData",
              "type": "string"
            },
            {
              "name": "status",
              "type": "uint256"
            }
          ],
          "name": "",
          "type": "tuple"
        }
      ],
      "payable": false,
      "stateMutability": "view",
      "type": "function"
    },
    {
      "constant": true,
      "inputs": [],
      "name": "getUsersOwner",
      "outputs": [
        {
          "components": [
            {
              "name": "owner",
              "type": "address"
            },
            {
              "name": "memberId",
              "type": "uint256"
            },
            {
              "name": "requestId",
              "type": "uint256"
            },
            {
              "name": "tokens",
              "type": "uint256"
            },
            {
              "name": "firstName",
              "type": "string"
            },
            {
              "name": "lastName",
              "type": "string"
            },
            {
              "name": "role",
              "type": "string"
            },
            {
              "name": "cmo",
              "type": "string"
            },
            {
              "name": "groups",
              "type": "string[]"
            },
            {
              "name": "kycData",
              "type": "string"
            },
            {
              "name": "status",
              "type": "uint256"
            }
          ],
          "name": "",
          "type": "tuple[]"
        }
      ],
      "payable": false,
      "stateMutability": "view",
      "type": "function"
    },
    {
      "constant": true,
      "inputs": [],
      "name": "getMe",
      "outputs": [
        {
          "components": [
            {
              "name": "owner",
              "type": "address"
            },
            {
              "name": "memberId",
              "type": "uint256"
            },
            {
              "name": "requestId",
              "type": "uint256"
            },
            {
              "name": "tokens",
              "type": "uint256"
            },
            {
              "name": "firstName",
              "type": "string"
            },
            {
              "name": "lastName",
              "type": "string"
            },
            {
              "name": "role",
              "type": "string"
            },
            {
              "name": "cmo",
              "type": "string"
            },
            {
              "name": "groups",
              "type": "string[]"
            },
            {
              "name": "kycData",
              "type": "string"
            },
            {
              "name": "status",
              "type": "uint256"
            }
          ],
          "name": "",
          "type": "tuple"
        }
      ],
      "payable": false,
      "stateMutability": "view",
      "type": "function"
    },
    {
      "constant": true,
      "inputs": [
        {
          "name": "addr",
          "type": "address"
        }
      ],
      "name": "_memberIdFromCurrentAddress",
      "outputs": [
        {
          "name": "",
          "type": "uint256"
        }
      ],
      "payable": false,
      "stateMutability": "view",
      "type": "function"
    },
    {
      "constant": false,
      "inputs": [
        {
          "name": "addr",
          "type": "address"
        },
        {
          "name": "transactionPrice",
          "type": "uint256"
        }
      ],
      "name": "updateTokens",
      "outputs": [],
      "payable": false,
      "stateMutability": "nonpayable",
      "type": "function"
    },
    {
      "constant": true,
      "inputs": [
        {
          "name": "addr",
          "type": "address"
        }
      ],
      "name": "getUserTokensByAddress",
      "outputs": [
        {
          "name": "",
          "type": "uint256"
        }
      ],
      "payable": false,
      "stateMutability": "view",
      "type": "function"
    }
  ],
  "bytecode": "0x60806040526000600355650172dc26e78860075562000027336401000000006200002d810204565b62000112565b62000048600082640100000000620048db6200007f82021704565b604051600160a060020a038216907f47d1c22a25bb3a5d4e481b9b1e6944c2eade3181a0a20b495ed61d35b5323f2490600090a250565b600160a060020a03811615156200009557600080fd5b620000aa8282640100000000620000da810204565b15620000b557600080fd5b600160a060020a0316600090815260209190915260409020805460ff19166001179055565b6000600160a060020a0382161515620000f257600080fd5b50600160a060020a03166000908152602091909152604090205460ff1690565b615f9e80620001226000396000f3006080604052600436106101b65763ffffffff7c010000000000000000000000000000000000000000000000000000000060003504166308bdc24d81146101bb578063230500de146101dd5780633a59ccf1146101fd5780634dc928851461021d5780635d73ab9a1461023d5780636262dff614610273578063656d561c146102a057806367e482ad146102c257806369c212f6146102e2578063748532391461030f5780637df73e271461032f578063884095d51461035c5780638b92892b1461037c5780639249d7531461039c578063932191be146103c9578063989359df146103de5780639eab5253146103fe578063a4fdc59414610420578063a87d942c14610435578063a9eff5111461044a578063affccd841461046a578063bb03b7061461048a578063bcec99a6146104aa578063bf3d007e146104ca578063c11e1ff3146104ea578063c29c9225146104ff578063c477ecab1461051f578063d68dee9d1461053f578063e2c11f9e1461055f578063e5c8b03d1461057f578063eb12d61e14610594578063eff34e59146105b4578063f8380733146105d4578063fa1188c6146105f4578063fc81b52514610614575b600080fd5b3480156101c757600080fd5b506101db6101d6366004614eaf565b610634565b005b3480156101e957600080fd5b506101db6101f8366004615146565b610805565b34801561020957600080fd5b506101db610218366004614f57565b61099f565b34801561022957600080fd5b506101db610238366004614eaf565b6109fb565b34801561024957600080fd5b5061025d610258366004615277565b610b45565b60405161026a9190615d48565b60405180910390f35b34801561027f57600080fd5b5061029361028e366004615277565b6110e0565b60405161026a9190615d59565b3480156102ac57600080fd5b506102b5611175565b60405161026a9190615d26565b3480156102ce57600080fd5b506101db6102dd366004614f27565b61124e565b3480156102ee57600080fd5b506103026102fd366004614eaf565b61128f565b60405161026a9190615e78565b34801561031b57600080fd5b506101db61032a3660046153cf565b6116ae565b34801561033b57600080fd5b5061034f61034a366004614eaf565b6116d4565b60405161026a9190615d6a565b34801561036857600080fd5b506101db610377366004614f8c565b6116ec565b34801561038857600080fd5b506101db6103973660046153cf565b611791565b3480156103a857600080fd5b506103bc6103b7366004614eaf565b6118af565b60405161026a9190615e89565b3480156103d557600080fd5b5061025d6118cd565b3480156103ea57600080fd5b506102936103f9366004615241565b611d8b565b34801561040a57600080fd5b50610413611f7c565b60405161026a9190615d37565b34801561042c57600080fd5b506103bc61244d565b34801561044157600080fd5b506103bc612505565b34801561045657600080fd5b506101db610465366004614ed5565b612522565b34801561047657600080fd5b506103bc610485366004615277565b612680565b34801561049657600080fd5b506101db6104a53660046153cf565b612695565b3480156104b657600080fd5b506101db6104c5366004615060565b6127ab565b3480156104d657600080fd5b506101db6104e5366004615277565b6129fe565b3480156104f657600080fd5b50610302612abb565b34801561050b57600080fd5b506101db61051a366004615295565b612f0f565b34801561052b57600080fd5b5061041361053a366004615277565b612f34565b34801561054b57600080fd5b506101db61055a3660046153ee565b613459565b34801561056b57600080fd5b506101db61057a3660046153cf565b613539565b34801561058b57600080fd5b506101db61355f565b3480156105a057600080fd5b506101db6105af366004614eaf565b61356a565b3480156105c057600080fd5b506103bc6105cf366004614eaf565b613587565b3480156105e057600080fd5b5061034f6105ef366004615277565b6135a5565b34801561060057600080fd5b506103bc61060f3660046152dd565b6135b8565b34801561062057600080fd5b506103bc61062f366004615277565b61365e565b600160a060020a038181166000908152600560205260408120549091161161067a5760405160e560020a62461bcd02815260040161067190615da8565b60405180910390fd5b600160a060020a038116600090815260056020526040808220600190810154338452919092209091015414806106b457506106b4336116d4565b15156106d55760405160e560020a62461bcd02815260040161067190615db8565b336000908152600560205260409020600a0154600214806106fa57506106fa336116d4565b151561071b5760405160e560020a62461bcd02815260040161067190615e38565b600160a060020a0381166000908152600560205260409020600a01546001146107595760405160e560020a62461bcd02815260040161067190615d98565b600160a060020a038116600090815260056020908152604080832060010154835260029091529020600a0154606410156107f957600160a060020a03811660009081526005602052604090206002600a820155600101546107ba90826136ff565b600160a060020a03811660009081526005602090815260408083206064600382015560010154835260029091529020600a018054606319019055610802565b610802816109fb565b50565b600160a060020a03838116600090815260056020526040812054909182911681106108455760405160e560020a62461bcd02815260040161067190615da8565b600160a060020a0385166000908152600560205260409020600a01546002146108835760405160e560020a62461bcd02815260040161067190615e38565b600160a060020a0385166000908152600560205260409020600301548410156108e957600160a060020a0385166000908152600560209081526040808320600381015460019091015484526002909252909120600a018054918690039091019055610927565b600160a060020a0385166000908152600560209081526040808320600381015460019091015484526002909252909120600a01805491860390910390555b600160a060020a038516600090815260056020908152604090912060038101869055845161095d92600990920191860190614929565b505050600160a060020a03831660009081526005602052604090206002810154600a90910154610994898989858a868b6001613864565b505050505050505050565b6109a8336116d4565b15156109b357600080fd5b6001805480820180835560009290925282516109f6917fb10e2d527612073b26eecdfd717e6a320cf44b4afac2b0732d9fcbe2b7fa0cf601906020850190614929565b505050565b600160a060020a0381811660009081526005602052604081205490911611610a385760405160e560020a62461bcd02815260040161067190615da8565b600160a060020a03811660009081526005602052604080822060019081015433845291909220909101541480610a725750610a72336116d4565b1515610a935760405160e560020a62461bcd02815260040161067190615db8565b336000908152600560205260409020600a015460021480610ab85750610ab8336116d4565b1515610ad95760405160e560020a62461bcd02815260040161067190615e38565b600160a060020a0381166000908152600560205260409020600a0154600114610b175760405160e560020a62461bcd02815260040161067190615dc8565b600160a060020a0381166000908152600560205260408120600a8101919091556001015461080290826136ff565b606060008060006060600080610b5961244d565b9550610b66600a89613f36565b600654909550610b7790600a613f6b565b9350851580610b8557508585115b80610b8f57508388115b15610b99576110d5565b60408051600a808252610160820190925290816020015b610bb86149a3565b815260200190600190039081610bb0579050509250600091508490505b6006548110156110d1573360009081526005602081905260408220600101546006805491939185908110610c0557fe5b6000918252602080832090910154600160a060020a03168352820192909252604001902060010154148015610c74575060056000600683815481101515610c4857fe5b6000918252602080832090910154600160a060020a031683528201929092526040019020600a01546002145b156110c95760056000600683815481101515610c8c57fe5b600091825260208083209190910154600160a060020a0390811684528382019490945260409283019091208251610160810184528154909416845260018082015485840152600280830154868601526003830154606087015260048301805486516101009482161594909402600019011691909104601f810185900485028301850190955284825291936080860193919291830182828015610d6f5780601f10610d4457610100808354040283529160200191610d6f565b820191906000526020600020905b815481529060010190602001808311610d5257829003601f168201915b505050918352505060058201805460408051602060026001851615610100026000190190941693909304601f8101849004840282018401909252818152938201939291830182828015610e035780601f10610dd857610100808354040283529160200191610e03565b820191906000526020600020905b815481529060010190602001808311610de657829003601f168201915b505050918352505060068201805460408051602060026001851615610100026000190190941693909304601f8101849004840282018401909252818152938201939291830182828015610e975780601f10610e6c57610100808354040283529160200191610e97565b820191906000526020600020905b815481529060010190602001808311610e7a57829003601f168201915b505050918352505060078201805460408051602060026001851615610100026000190190941693909304601f8101849004840282018401909252818152938201939291830182828015610f2b5780601f10610f0057610100808354040283529160200191610f2b565b820191906000526020600020905b815481529060010190602001808311610f0e57829003601f168201915b5050505050815260200160088201805480602002602001604051908101604052809291908181526020016000905b828210156110045760008481526020908190208301805460408051601f6002600019610100600187161502019094169390930492830185900485028101850190915281815292830182828015610ff05780601f10610fc557610100808354040283529160200191610ff0565b820191906000526020600020905b815481529060010190602001808311610fd357829003601f168201915b505050505081526020019060010190610f59565b5050509082525060098201805460408051602060026001851615610100026000190190941693909304601f81018490048402820184019092528181529382019392918301828280156110975780601f1061106c57610100808354040283529160200191611097565b820191906000526020600020905b81548152906001019060200180831161107a57829003601f168201915b50505050508152602001600a8201548152505083838151811015156110b857fe5b602090810290910101526001909101905b600101610bd5565b8296505b505050505050919050565b600081815260026020526040812054606091106111125760405160e560020a62461bcd02815260040161067190615de8565b6000828152600260209081526040918290206008018054835181840281018401909452808452909183018282801561116957602002820191906000526020600020905b815481526020019060010190808311611155575b50505050509050919050565b60606001805480602002602001604051908101604052809291908181526020016000905b828210156112445760008481526020908190208301805460408051601f60026000196101006001871615020190941693909304928301859004850281018501909152818152928301828280156112305780601f1061120557610100808354040283529160200191611230565b820191906000526020600020905b81548152906001019060200180831161121357829003601f168201915b505050505081526020019060010190611199565b5050505090505b90565b600160a060020a039091166000908152600560209081526040808320600381018054869003905560010154835260029091529020600a018054919091039055565b6112976149a3565b600160a060020a038281166000908152600560209081526040918290208251610160810184528154909416845260018082015485840152600280830154868601526003830154606087015260048301805486516101009482161594909402600019011691909104601f81018590048502830185019095528482529193608086019391929183018282801561136c5780601f106113415761010080835404028352916020019161136c565b820191906000526020600020905b81548152906001019060200180831161134f57829003601f168201915b505050918352505060058201805460408051602060026001851615610100026000190190941693909304601f81018490048402820184019092528181529382019392918301828280156114005780601f106113d557610100808354040283529160200191611400565b820191906000526020600020905b8154815290600101906020018083116113e357829003601f168201915b505050918352505060068201805460408051602060026001851615610100026000190190941693909304601f81018490048402820184019092528181529382019392918301828280156114945780601f1061146957610100808354040283529160200191611494565b820191906000526020600020905b81548152906001019060200180831161147757829003601f168201915b505050918352505060078201805460408051602060026001851615610100026000190190941693909304601f81018490048402820184019092528181529382019392918301828280156115285780601f106114fd57610100808354040283529160200191611528565b820191906000526020600020905b81548152906001019060200180831161150b57829003601f168201915b5050505050815260200160088201805480602002602001604051908101604052809291908181526020016000905b828210156116015760008481526020908190208301805460408051601f60026000196101006001871615020190941693909304928301859004850281018501909152818152928301828280156115ed5780601f106115c2576101008083540402835291602001916115ed565b820191906000526020600020905b8154815290600101906020018083116115d057829003601f168201915b505050505081526020019060010190611556565b5050509082525060098201805460408051602060026001851615610100026000190190941693909304601f81018490048402820184019092528181529382019392918301828280156116945780601f1061166957610100808354040283529160200191611694565b820191906000526020600020905b81548152906001019060200180831161167757829003601f168201915b50505050508152602001600a820154815250509050919050565b600091825260026020908152604083206007018054600181018255908452922090910155565b60006116e6818363ffffffff613f8e16565b92915050565b60008215156117105760405160e560020a62461bcd02815260040161067190615e58565b611719836135a5565b151561173a5760405160e560020a62461bcd02815260040161067190615e08565b600780546001019081905561174e90613fc5565b905061176286868584886001336000613864565b336000908152600560209081526040909120835161178892600990920191850190614929565b50505050505050565b6000805b600084815260026020526040902060070154600019018110156118515760008481526002602052604090206007018054849190839081106117d257fe5b906000526020600020015414156117e857600191505b811561184957600084815260026020526040902060070180546001830190811061180e57fe5b9060005260206000200154600260008681526020019081526020016000206007018281548110151561183c57fe5b6000918252602090912001555b600101611795565b81156118a95760008481526002602052604090206007018054600019810190811061187857fe5b6000918252602080832090910182905585825260029052604090206007018054906118a7906000198301614a07565b505b50505050565b600160a060020a031660009081526005602052604090206003015490565b60608060006118db336116d4565b15156118e657600080fd5b60065460408051828152602080840282010190915290801561192257816020015b61190f6149a3565b8152602001906001900390816119075790505b509150600090505b600654811015611d85576005600060068381548110151561194757fe5b600091825260208083209190910154600160a060020a0390811684528382019490945260409283019091208251610160810184528154909416845260018082015485840152600280830154868601526003830154606087015260048301805486516101009482161594909402600019011691909104601f810185900485028301850190955284825291936080860193919291830182828015611a2a5780601f106119ff57610100808354040283529160200191611a2a565b820191906000526020600020905b815481529060010190602001808311611a0d57829003601f168201915b505050918352505060058201805460408051602060026001851615610100026000190190941693909304601f8101849004840282018401909252818152938201939291830182828015611abe5780601f10611a9357610100808354040283529160200191611abe565b820191906000526020600020905b815481529060010190602001808311611aa157829003601f168201915b505050918352505060068201805460408051602060026001851615610100026000190190941693909304601f8101849004840282018401909252818152938201939291830182828015611b525780601f10611b2757610100808354040283529160200191611b52565b820191906000526020600020905b815481529060010190602001808311611b3557829003601f168201915b505050918352505060078201805460408051602060026001851615610100026000190190941693909304601f8101849004840282018401909252818152938201939291830182828015611be65780601f10611bbb57610100808354040283529160200191611be6565b820191906000526020600020905b815481529060010190602001808311611bc957829003601f168201915b5050505050815260200160088201805480602002602001604051908101604052809291908181526020016000905b82821015611cbf5760008481526020908190208301805460408051601f6002600019610100600187161502019094169390930492830185900485028101850190915281815292830182828015611cab5780601f10611c8057610100808354040283529160200191611cab565b820191906000526020600020905b815481529060010190602001808311611c8e57829003601f168201915b505050505081526020019060010190611c14565b5050509082525060098201805460408051602060026001851615610100026000190190941693909304601f8101849004840282018401909252818152938201939291830182828015611d525780601f10611d2757610100808354040283529160200191611d52565b820191906000526020600020905b815481529060010190602001808311611d3557829003601f168201915b50505050508152602001600a820154815250508282815181101515611d7357fe5b6020908102909101015260010161192a565b50919050565b60606000805b600454811015611f2657846040518082805190602001908083835b60208310611dcb5780518252601f199092019160209182019101611dac565b6001836020036101000a03801982511681845116808217855250505050505090500191505060405180910390206000191660026000600484815481101515611e0f57fe5b906000526020600020015481526020019081526020016000206005016040518082805460018160011615610100020316600290048015611e865780601f10611e64576101008083540402835291820191611e86565b820191906000526020600020905b815481529060010190602001808311611e72575b5050915050604051809103902060001916148015611ed357508360026000600484815481101515611eb357fe5b906000526020600020015481526020019081526020016000206000015414155b15611f1e578160026000600484815481101515611eec57fe5b600091825260208083209091015483528281019390935260409091018120548354600181018555938252919020909101555b600101611d91565b815460408051602080840282018101909252828152918491830182828015611f6d57602002820191906000526020600020905b815481526020019060010190808311611f59575b50505050509250505092915050565b6060806000600480549050604051908082528060200260200182016040528015611fc057816020015b611fad614a2b565b815260200190600190039081611fa55790505b509150600090505b600454811015611d855760026000600483815481101515611fe557fe5b9060005260206000200154815260200190815260200160002061016060405190810160405290816000820154815260200160018201548152602001600282018054600181600116156101000203166002900480601f0160208091040260200160405190810160405280929190818152602001828054600181600116156101000203166002900480156120b85780601f1061208d576101008083540402835291602001916120b8565b820191906000526020600020905b81548152906001019060200180831161209b57829003601f168201915b505050918352505060038201805460408051602060026001851615610100026000190190941693909304601f810184900484028201840190925281815293820193929183018282801561214c5780601f106121215761010080835404028352916020019161214c565b820191906000526020600020905b81548152906001019060200180831161212f57829003601f168201915b505050918352505060048201805460408051602060026001851615610100026000190190941693909304601f81018490048402820184019092528181529382019392918301828280156121e05780601f106121b5576101008083540402835291602001916121e0565b820191906000526020600020905b8154815290600101906020018083116121c357829003601f168201915b505050918352505060058201805460408051602060026001851615610100026000190190941693909304601f81018490048402820184019092528181529382019392918301828280156122745780601f1061224957610100808354040283529160200191612274565b820191906000526020600020905b81548152906001019060200180831161225757829003601f168201915b505050918352505060068201805460408051602060026001851615610100026000190190941693909304601f81018490048402820184019092528181529382019392918301828280156123085780601f106122dd57610100808354040283529160200191612308565b820191906000526020600020905b8154815290600101906020018083116122eb57829003601f168201915b505050505081526020016007820180548060200260200160405190810160405280929190818152602001828054801561236057602002820191906000526020600020905b81548152602001906001019080831161234c575b50505050508152602001600882018054806020026020016040519081016040528092919081815260200182805480156123b857602002820191906000526020600020905b8154815260200190600101908083116123a4575b505050505081526020016009820180548060200260200160405190810160405280929190818152602001828054801561241a57602002820191906000526020600020905b8154600160a060020a031681526001909101906020018083116123fc575b50505050508152602001600a82015481525050828281518110151561243b57fe5b60209081029091010152600101611fc8565b600080805b600654811015611d8557336000908152600560208190526040822060010154600680549193918590811061248257fe5b6000918252602080832090910154600160a060020a031683528201929092526040019020600101541480156124f15750600560006006838154811015156124c557fe5b6000918252602080832090910154600160a060020a031683528201929092526040019020600a01546002145b156124fd576001909101905b600101612452565b6000612510336116d4565b151561251b57600080fd5b5060045490565b61252b336116d4565b151561253657600080fd5b600160a060020a03821660009081526005602052604090206001015461255c90836136ff565b604080518082018252600b81527f53757065722061646d696e0000000000000000000000000000000000000000006020808301918252600160a060020a038616600090815260059091529290922090516125bc9260069092019190614929565b5060038054600190810191829055600160a060020a038416600090815260056020908152604090912091820192909255825161260092600790920191840190614929565b50600160a060020a03821660008181526005602081815260408084206002600a820155815160608101835260068185019081527f646967697431000000000000000000000000000000000000000000000000000093820193909352918252949093525261267291600801906001614a86565b5061267c8261356a565b5050565b60009081526002602052604090206008015490565b6000805b600084815260026020526040902060080154600019018110156127555760008481526002602052604090206008018054849190839081106126d657fe5b906000526020600020015414156126ec57600191505b811561274d57600084815260026020526040902060080180546001830190811061271257fe5b9060005260206000200154600260008681526020019081526020016000206008018281548110151561274057fe5b6000918252602090912001555b600101612699565b81156118a95760008481526002602052604090206008018054600019810190811061277c57fe5b6000918252602080832090910182905585825260029052604090206008018054906118a7906000198301614a07565b600160a060020a0382166000908152600560209081526040822088516127d9926004909201918a0190614929565b50600160a060020a0383166000908152600560208181526040909220885161280993919092019190890190614929565b50600160a060020a0383166000908152600560209081526040909120835161283992600890920191850190614adf565b50600090505b600654811015611788576005600084600160a060020a0316600160a060020a0316815260200190815260200160002060070160405180828054600181600116156101000203166002900480156128cc5780601f106128aa5761010080835404028352918201916128cc565b820191906000526020600020905b8154815290600101906020018083116128b8575b5050915050604051809103902060001916600560006006848154811015156128f057fe5b9060005260206000200160009054906101000a9004600160a060020a0316600160a060020a0316600160a060020a03168152602001908152602001600020600701604051808280546001816001161561010002031660029004801561298c5780601f1061296a57610100808354040283529182019161298c565b820191906000526020600020905b815481529060010190602001808311612978575b505091505060405180910390206000191614156129f65781600560006006848154811015156129b757fe5b6000918252602080832090910154600160a060020a03168352828101939093526040909101902082516129f4936008909201929190910190614adf565b505b60010161283f565b6000612a09336116d4565b1515612a1457600080fd5b50805b60015460001901811015612a805760018054828201908110612a3557fe5b90600052602060002001600182815481101515612a4e57fe5b906000526020600020019080546001816001161561010002031660029004612a77929190614b2c565b50600101612a17565b600180546000198101908110612a9257fe5b906000526020600020016000612aa89190614ba1565b60018054906109f6906000198301614be5565b612ac36149a3565b612acb6149a3565b336000908152600560205260409020600401546002600019610100600184161502019091160415612f0b57336000908152600560209081526040918290208251610160810184528154600160a060020a0316815260018083015482850152600280840154838701526003840154606084015260048401805487516101009482161594909402600019011691909104601f810186900486028301860190965285825291949293608086019391929190830182828015612bca5780601f10612b9f57610100808354040283529160200191612bca565b820191906000526020600020905b815481529060010190602001808311612bad57829003601f168201915b505050918352505060058201805460408051602060026001851615610100026000190190941693909304601f8101849004840282018401909252818152938201939291830182828015612c5e5780601f10612c3357610100808354040283529160200191612c5e565b820191906000526020600020905b815481529060010190602001808311612c4157829003601f168201915b505050918352505060068201805460408051602060026001851615610100026000190190941693909304601f8101849004840282018401909252818152938201939291830182828015612cf25780601f10612cc757610100808354040283529160200191612cf2565b820191906000526020600020905b815481529060010190602001808311612cd557829003601f168201915b505050918352505060078201805460408051602060026001851615610100026000190190941693909304601f8101849004840282018401909252818152938201939291830182828015612d865780601f10612d5b57610100808354040283529160200191612d86565b820191906000526020600020905b815481529060010190602001808311612d6957829003601f168201915b5050505050815260200160088201805480602002602001604051908101604052809291908181526020016000905b82821015612e5f5760008481526020908190208301805460408051601f6002600019610100600187161502019094169390930492830185900485028101850190915281815292830182828015612e4b5780601f10612e2057610100808354040283529160200191612e4b565b820191906000526020600020905b815481529060010190602001808311612e2e57829003601f168201915b505050505081526020019060010190612db4565b5050509082525060098201805460408051602060026001851615610100026000190190941693909304601f8101849004840282018401909252818152938201939291830182828015612ef25780601f10612ec757610100808354040283529160200191612ef2565b820191906000526020600020905b815481529060010190602001808311612ed557829003601f168201915b50505050508152602001600a8201548152505090508091505b5090565b600082815260026020908152604090912082516109f692600790920191840190614c09565b6060600080600060606000612f4a600a88613f36565b600454909550612f5b90600a613f6b565b6004549094501580612f7257506004546000190185115b80612f7c57508387115b15612f865761344f565b60408051600a80825261016082019092526000945090816020015b612fa9614a2b565b815260200190600190039081612fa15790505091508490505b60045481101561344b5760026000600483815481101515612fdf57fe5b9060005260206000200154815260200190815260200160002061016060405190810160405290816000820154815260200160018201548152602001600282018054600181600116156101000203166002900480601f0160208091040260200160405190810160405280929190818152602001828054600181600116156101000203166002900480156130b25780601f10613087576101008083540402835291602001916130b2565b820191906000526020600020905b81548152906001019060200180831161309557829003601f168201915b505050918352505060038201805460408051602060026001851615610100026000190190941693909304601f81018490048402820184019092528181529382019392918301828280156131465780601f1061311b57610100808354040283529160200191613146565b820191906000526020600020905b81548152906001019060200180831161312957829003601f168201915b505050918352505060048201805460408051602060026001851615610100026000190190941693909304601f81018490048402820184019092528181529382019392918301828280156131da5780601f106131af576101008083540402835291602001916131da565b820191906000526020600020905b8154815290600101906020018083116131bd57829003601f168201915b505050918352505060058201805460408051602060026001851615610100026000190190941693909304601f810184900484028201840190925281815293820193929183018282801561326e5780601f106132435761010080835404028352916020019161326e565b820191906000526020600020905b81548152906001019060200180831161325157829003601f168201915b505050918352505060068201805460408051602060026001851615610100026000190190941693909304601f81018490048402820184019092528181529382019392918301828280156133025780601f106132d757610100808354040283529160200191613302565b820191906000526020600020905b8154815290600101906020018083116132e557829003601f168201915b505050505081526020016007820180548060200260200160405190810160405280929190818152602001828054801561335a57602002820191906000526020600020905b815481526020019060010190808311613346575b50505050508152602001600882018054806020026020016040519081016040528092919081815260200182805480156133b257602002820191906000526020600020905b81548152602001906001019080831161339e575b505050505081526020016009820180548060200260200160405190810160405280929190818152602001828054801561341457602002820191906000526020600020905b8154600160a060020a031681526001909101906020018083116133f6575b50505050508152602001600a82015481525050828481518110151561343557fe5b6020908102909101015260019283019201612fc2565b8195505b5050505050919050565b613462336116d4565b151561346d57600080fd5b6000888152600260205260408120541161349c5760405160e560020a62461bcd02815260040161067190615e08565b60008881526002602052604090206001015487146134cf5760405160e560020a62461bcd02815260040161067190615d78565b600088815260026020818152604090922088516134f493919092019190890190614929565b506000888152600260209081526040909120835161351a92600690920191850190614929565b50600097885260026020526040909720600a0196909655505050505050565b600091825260026020908152604083206008018054600181018255908452922090910155565b613568336141b4565b565b613573336116d4565b151561357e57600080fd5b610802816141fc565b600160a060020a031660009081526005602052604090206001015490565b6000908152600260205260408120541190565b6000806135c4336116d4565b15156135cf57600080fd5b600088116135f25760405160e560020a62461bcd02815260040161067190615e68565b5060038054600101908190556000818152600260205260409020541561362d5760405160e560020a62461bcd02815260040161067190615df8565b61363c81898989898989614244565b60008181526002602052604090206103e8600a90910155979650505050505050565b600080805b6006548110156136f857836005600060068481548110151561368157fe5b6000918252602080832090910154600160a060020a0316835282019290925260400190206001015414156136f057600560006006838154811015156136c257fe5b6000918252602080832090910154600160a060020a0316835282019290925260400190206003015491909101905b600101613663565b5092915050565b6000805b600084815260026020526040902060090154600019018110156137fc5760008481526002602052604090206009018054600160a060020a03851691908390811061374957fe5b600091825260209091200154600160a060020a0316141561376957600191505b81156137f457600084815260026020526040902060090180546001830190811061378f57fe5b6000918252602080832090910154868352600290915260409091206009018054600160a060020a0390921691839081106137c557fe5b9060005260206000200160006101000a815481600160a060020a030219169083600160a060020a031602179055505b600101613703565b60008481526002602052604090206009018054600019810190811061381d57fe5b60009182526020808320909101805473ffffffffffffffffffffffffffffffffffffffff1916905585825260029052604090206009018054906118a7906000198301614a07565b61386c6149a3565b6000841015801561387e575060028411155b151561389f5760405160e560020a62461bcd02815260040161067190615dd8565b845115156138c25760405160e560020a62461bcd02815260040161067190615d88565b600160a060020a038381166000908152600560209081526040918290208251610160810184528154909416845260018082015485840152600280830154868601526003830154606087015260048301805486516101009482161594909402600019011691909104601f8101859004850283018501909552848252919360808601939192918301828280156139975780601f1061396c57610100808354040283529160200191613997565b820191906000526020600020905b81548152906001019060200180831161397a57829003601f168201915b505050918352505060058201805460408051602060026001851615610100026000190190941693909304601f8101849004840282018401909252818152938201939291830182828015613a2b5780601f10613a0057610100808354040283529160200191613a2b565b820191906000526020600020905b815481529060010190602001808311613a0e57829003601f168201915b505050918352505060068201805460408051602060026001851615610100026000190190941693909304601f8101849004840282018401909252818152938201939291830182828015613abf5780601f10613a9457610100808354040283529160200191613abf565b820191906000526020600020905b815481529060010190602001808311613aa257829003601f168201915b505050918352505060078201805460408051602060026001851615610100026000190190941693909304601f8101849004840282018401909252818152938201939291830182828015613b535780601f10613b2857610100808354040283529160200191613b53565b820191906000526020600020905b815481529060010190602001808311613b3657829003601f168201915b5050505050815260200160088201805480602002602001604051908101604052809291908181526020016000905b82821015613c2c5760008481526020908190208301805460408051601f6002600019610100600187161502019094169390930492830185900485028101850190915281815292830182828015613c185780601f10613bed57610100808354040283529160200191613c18565b820191906000526020600020905b815481529060010190602001808311613bfb57829003601f168201915b505050505081526020019060010190613b81565b5050509082525060098201805460408051602060026001851615610100026000190190941693909304601f8101849004840282018401909252818152938201939291830182828015613cbf5780601f10613c9457610100808354040283529160200191613cbf565b820191906000526020600020905b815481529060010190602001808311613ca257829003601f168201915b5050509183525050600a9190910154602091820152608082018b815260a083018b90528282018a815260408085018b815260c086018b905261014086018a9052600160a060020a03898116808852600090815260058752929092208651815473ffffffffffffffffffffffffffffffffffffffff191693169290921782559151600182015590516002820155606084015160038201559051805193945084939192613d7292600485019290910190614929565b5060a08201518051613d8e916005840191602090910190614929565b5060c08201518051613daa916006840191602090910190614929565b5060e08201518051613dc6916007840191602090910190614929565b506101008201518051613de3916008840191602090910190614c43565b506101208201518051613e00916009840191602090910190614929565b506101409190910151600a9091015581151561099457600680546001810182556000919091527ff652222313e28459528d920b65115c16c04f3efc82aaedc97be59f3f377c0d3f01805473ffffffffffffffffffffffffffffffffffffffff1916600160a060020a038516179055613e778761484f565b60408051606081018252600660208281019182527f646967697431000000000000000000000000000000000000000000000000000083850152908252600160a060020a0386166000908152600590915291909120613edc916008909101906001614a86565b50602080820151600090815260028083526040808320600160a060020a03881684526005948590529220929091018054613f2a93600701926000196101006001841615020190911604614b2c565b50505050505050505050565b600080831515613f4957600091506136f8565b50828202828482811515613f5957fe5b0414613f6457600080fd5b9392505050565b600080808311613f7a57600080fd5b8284811515613f8557fe5b04949350505050565b6000600160a060020a0382161515613fa557600080fd5b50600160a060020a03166000908152602091909152604090205460ff1690565b60008080806002850615156140575784604051602001808281526020019150506040516020818303038152906040526040518082805190602001908083835b602083106140235780518252601f199092019160209182019101614004565b6001836020036101000a03801982511681845116808217855250505050505090500191505060405180910390209250614142565b84604051602001808281526020019150506040516020818303038152906040526040518082805190602001908083835b602083106140a65780518252601f199092019160209182019101614087565b51815160209384036101000a600019018019909216911617905260408051929094018290038220828201528351808303820181529184019384905281519195509293508392850191508083835b602083106141125780518252601f1990920191602091820191016140f3565b6001836020036101000a038019825116818451168082178552505050505050905001915050604051809103902092505b602081101561416f5782816020811061415757fe5b60f860020a91901a8102049190910190600101614142565b82602060028401066020811061418157fe5b60f860020a91901a81020483602084066020811061419b57fe5b1a60f860020a0260f860020a9004029350505050919050565b6141c560008263ffffffff61488f16565b604051600160a060020a038216907f3525e22824a8a7df2c9a6029941c824cf95b6447f1e13d5128fd3826d35afe8b90600090a250565b61420d60008263ffffffff6148db16565b604051600160a060020a038216907f47d1c22a25bb3a5d4e481b9b1e6944c2eade3181a0a20b495ed61d35b5323f2490600090a250565b61424c614a2b565b8551151561426f5760405160e560020a62461bcd02815260040161067190615e48565b825115156142925760405160e560020a62461bcd02815260040161067190615e28565b815115156142b55760405160e560020a62461bcd02815260040161067190615e18565b6000888152600260208181526040928390208351610160810185528154815260018083015482850152828501805487519281161561010002600019011695909504601f810185900485028201850187528082529195929492860193909291908301828280156143655780601f1061433a57610100808354040283529160200191614365565b820191906000526020600020905b81548152906001019060200180831161434857829003601f168201915b505050918352505060038201805460408051602060026001851615610100026000190190941693909304601f81018490048402820184019092528181529382019392918301828280156143f95780601f106143ce576101008083540402835291602001916143f9565b820191906000526020600020905b8154815290600101906020018083116143dc57829003601f168201915b505050918352505060048201805460408051602060026001851615610100026000190190941693909304601f810184900484028201840190925281815293820193929183018282801561448d5780601f106144625761010080835404028352916020019161448d565b820191906000526020600020905b81548152906001019060200180831161447057829003601f168201915b505050918352505060058201805460408051602060026001851615610100026000190190941693909304601f81018490048402820184019092528181529382019392918301828280156145215780601f106144f657610100808354040283529160200191614521565b820191906000526020600020905b81548152906001019060200180831161450457829003601f168201915b505050918352505060068201805460408051602060026001851615610100026000190190941693909304601f81018490048402820184019092528181529382019392918301828280156145b55780601f1061458a576101008083540402835291602001916145b5565b820191906000526020600020905b81548152906001019060200180831161459857829003601f168201915b505050505081526020016007820180548060200260200160405190810160405280929190818152602001828054801561460d57602002820191906000526020600020905b8154815260200190600101908083116145f9575b505050505081526020016008820180548060200260200160405190810160405280929190818152602001828054801561466557602002820191906000526020600020905b815481526020019060010190808311614651575b50505050508152602001600982018054806020026020016040519081016040528092919081815260200182805480156146c757602002820191906000526020600020905b8154600160a060020a031681526001909101906020018083116146a9575b5050509183525050600a919091015460209182015289825281810189815260408084018a8152606085018a90526080850189905260a0850188905260c0850187905260008d8152600280865292902085518155925160018401555180519495508594929361473b9392850192910190614929565b5060608201518051614757916003840191602090910190614929565b5060808201518051614773916004840191602090910190614929565b5060a0820151805161478f916005840191602090910190614929565b5060c082015180516147ab916006840191602090910190614929565b5060e082015180516147c7916007840191602090910190614c09565b5061010082015180516147e4916008840191602090910190614c09565b506101208201518051614801916009840191602090910190614c90565b506101409190910151600a909101555050600480546001810182556000919091527f8a35acfbc15ff81a39ae7d344fd709f28e8600b4aa8c65c6b64bfe7fe36bd19b01959095555050505050565b600090815260026020908152604082206009018054600181018255908352912001805473ffffffffffffffffffffffffffffffffffffffff191633179055565b600160a060020a03811615156148a457600080fd5b6148ae8282613f8e565b15156148b957600080fd5b600160a060020a0316600090815260209190915260409020805460ff19169055565b600160a060020a03811615156148f057600080fd5b6148fa8282613f8e565b1561490457600080fd5b600160a060020a0316600090815260209190915260409020805460ff19166001179055565b828054600181600116156101000203166002900490600052602060002090601f016020900481019282601f1061496a57805160ff1916838001178555614997565b82800160010185558215614997579182015b8281111561499757825182559160200191906001019061497c565b50612f0b929150614cfe565b610160604051908101604052806000600160a060020a03168152602001600081526020016000815260200160008152602001606081526020016060815260200160608152602001606081526020016060815260200160608152602001600081525090565b8154818355818111156109f6576000838152602090206109f6918101908301614cfe565b6101606040519081016040528060008152602001600081526020016060815260200160608152602001606081526020016060815260200160608152602001606081526020016060815260200160608152602001600081525090565b828054828255906000526020600020908101928215614ad3579160200282015b82811115614ad35782518051614ac3918491602090910190614929565b5091602001919060010190614aa6565b50612f0b929150614d18565b828054828255906000526020600020908101928215614ad3579160200282015b82811115614ad35782518051614b1c918491602090910190614929565b5091602001919060010190614aff565b828054600181600116156101000203166002900490600052602060002090601f016020900481019282601f10614b655780548555614997565b8280016001018555821561499757600052602060002091601f016020900482015b82811115614997578254825591600101919060010190614b86565b50805460018160011615610100020316600290046000825580601f10614bc75750610802565b601f0160209004906000526020600020908101906108029190614cfe565b8154818355818111156109f6576000838152602090206109f6918101908301614d18565b828054828255906000526020600020908101928215614997579160200282018281111561499757825182559160200191906001019061497c565b828054828255906000526020600020908101928215614ad3579160200282015b82811115614ad35782518051614c80918491602090910190614929565b5091602001919060010190614c63565b828054828255906000526020600020908101928215614cf2579160200282015b82811115614cf2578251825473ffffffffffffffffffffffffffffffffffffffff1916600160a060020a03909116178255602090920191600190910190614cb0565b50612f0b929150614d3b565b61124b91905b80821115612f0b5760008155600101614d04565b61124b91905b80821115612f0b576000614d328282614ba1565b50600101614d1e565b61124b91905b80821115612f0b57805473ffffffffffffffffffffffffffffffffffffffff19168155600101614d41565b6000613f648235615f11565b6000601f82018313614d8957600080fd5b8135614d9c614d9782615ebe565b615e97565b81815260209384019390925082018360005b83811015614dda5781358601614dc48882614e54565b8452506020928301929190910190600101614dae565b5050505092915050565b6000601f82018313614df557600080fd5b8135614e03614d9782615ebe565b91508181835260208401935060208101905083856020840282011115614e2857600080fd5b60005b83811015614dda5781614e3e8882614ea3565b8452506020928301929190910190600101614e2b565b6000601f82018313614e6557600080fd5b8135614e73614d9782615edf565b91508082526020830160208301858383011115614e8f57600080fd5b614e9a838284615f22565b50505092915050565b6000613f64823561124b565b600060208284031215614ec157600080fd5b6000614ecd8484614d6c565b949350505050565b60008060408385031215614ee857600080fd5b6000614ef48585614d6c565b925050602083013567ffffffffffffffff811115614f1157600080fd5b614f1d85828601614e54565b9150509250929050565b60008060408385031215614f3a57600080fd5b6000614f468585614d6c565b9250506020614f1d85828601614ea3565b600060208284031215614f6957600080fd5b813567ffffffffffffffff811115614f8057600080fd5b614ecd84828501614e54565b600080600080600060a08688031215614fa457600080fd5b853567ffffffffffffffff811115614fbb57600080fd5b614fc788828901614e54565b955050602086013567ffffffffffffffff811115614fe457600080fd5b614ff088828901614e54565b945050604086013567ffffffffffffffff81111561500d57600080fd5b61501988828901614e54565b935050606061502a88828901614ea3565b925050608086013567ffffffffffffffff81111561504757600080fd5b61505388828901614e54565b9150509295509295909350565b60008060008060008060c0878903121561507957600080fd5b863567ffffffffffffffff81111561509057600080fd5b61509c89828a01614e54565b965050602087013567ffffffffffffffff8111156150b957600080fd5b6150c589828a01614e54565b95505060406150d689828a01614ea3565b945050606087013567ffffffffffffffff8111156150f357600080fd5b6150ff89828a01614e54565b935050608061511089828a01614d6c565b92505060a087013567ffffffffffffffff81111561512d57600080fd5b61513989828a01614d78565b9150509295509295509295565b600080600080600080600060e0888a03121561516157600080fd5b873567ffffffffffffffff81111561517857600080fd5b6151848a828b01614e54565b975050602088013567ffffffffffffffff8111156151a157600080fd5b6151ad8a828b01614e54565b96505060406151be8a828b01614ea3565b955050606088013567ffffffffffffffff8111156151db57600080fd5b6151e78a828b01614e54565b94505060806151f88a828b01614d6c565b93505060a06152098a828b01614ea3565b92505060c088013567ffffffffffffffff81111561522657600080fd5b6152328a828b01614e54565b91505092959891949750929550565b6000806040838503121561525457600080fd5b823567ffffffffffffffff81111561526b57600080fd5b614f4685828601614e54565b60006020828403121561528957600080fd5b6000614ecd8484614ea3565b600080604083850312156152a857600080fd5b60006152b48585614ea3565b925050602083013567ffffffffffffffff8111156152d157600080fd5b614f1d85828601614de4565b60008060008060008060c087890312156152f657600080fd5b60006153028989614ea3565b965050602087013567ffffffffffffffff81111561531f57600080fd5b61532b89828a01614e54565b955050604087013567ffffffffffffffff81111561534857600080fd5b61535489828a01614e54565b945050606087013567ffffffffffffffff81111561537157600080fd5b61537d89828a01614e54565b935050608087013567ffffffffffffffff81111561539a57600080fd5b6153a689828a01614e54565b92505060a087013567ffffffffffffffff8111156153c357600080fd5b61513989828a01614e54565b600080604083850312156153e257600080fd5b6000614f468585614ea3565b600080600080600080600080610100898b03121561540b57600080fd5b60006154178b8b614ea3565b98505060206154288b828c01614ea3565b975050604089013567ffffffffffffffff81111561544557600080fd5b6154518b828c01614e54565b965050606089013567ffffffffffffffff81111561546e57600080fd5b61547a8b828c01614e54565b955050608089013567ffffffffffffffff81111561549757600080fd5b6154a38b828c01614e54565b94505060a089013567ffffffffffffffff8111156154c057600080fd5b6154cc8b828c01614e54565b93505060c089013567ffffffffffffffff8111156154e957600080fd5b6154f58b828c01614e54565b92505060e06155068b828c01614ea3565b9150509295985092959890939650565b61551f81615f11565b82525050565b600061553082615f0d565b80845260208401935061554283615f07565b60005b8281101561557257615558868351615516565b61556182615f07565b602096909601959150600101615545565b5093949350505050565b600061558782615f0d565b808452602084019350836020820285016155a085615f07565b60005b848110156155d75783830388526155bb838351615797565b92506155c682615f07565b6020989098019791506001016155a3565b50909695505050505050565b60006155ee82615f0d565b8084526020840193508360208202850161560785615f07565b60005b848110156155d7578383038852615622838351615797565b925061562d82615f07565b60209890980197915060010161560a565b600061564982615f0d565b8084526020840193508360208202850161566285615f07565b60005b848110156155d757838303885261567d838351615b18565b925061568882615f07565b602098909801979150600101615665565b60006156a482615f0d565b808452602084019350836020820285016156bd85615f07565b60005b848110156155d75783830388526156d8838351615c31565b92506156e382615f07565b6020989098019791506001016156c0565b60006156ff82615f0d565b80845260208401935061571183615f07565b60005b8281101561557257615727868351615d1d565b61573082615f07565b602096909601959150600101615714565b600061574c82615f0d565b80845260208401935061575e83615f07565b60005b8281101561557257615774868351615d1d565b61577d82615f07565b602096909601959150600101615761565b61551f81615f1d565b60006157a282615f0d565b8084526157b6816020860160208601615f2e565b6157bf81615f5a565b9093016020019392505050565b601a81527f4372656174696f6e204461746520697320696d6d757461626c65000000000000602082015260400190565b601181527f726f6c65206973206d616e6461746f7279000000000000000000000000000000602082015260400190565b602281527f4f6e6c792070656e64696e672075736572732063616e2062652061636365707460208201527f6564000000000000000000000000000000000000000000000000000000000000604082015260600190565b601481527f546869732075736572206e6f7420657869737473000000000000000000000000602082015260400190565b601b81527f596f752063616e6e6f7420616363657074207468697320757365720000000000602082015260400190565b602281527f4f6e6c792070656e64696e672075736572732063616e2062652072656a65637460208201527f6564000000000000000000000000000000000000000000000000000000000000604082015260600190565b601381527f737461747573206973206e6f742076616c696400000000000000000000000000602082015260400190565b601181527f6d656d626572206e6f7420657869737473000000000000000000000000000000602082015260400190565b601581527f4d656d62657220616c7265616479206578697374730000000000000000000000602082015260400190565b601181527f4d656d626572206e6f7420657869737473000000000000000000000000000000602082015260400190565b601281527f5468656d65206973206d616e6461746f72790000000000000000000000000000602082015260400190565b601081527f434d4f206973206d616e6461746f727900000000000000000000000000000000602082015260400190565b601481527f596f7520617265206e6f74206163636570746564000000000000000000000000602082015260400190565b601181527f4e616d65206973206d616e6461746f7279000000000000000000000000000000602082015260400190565b601181527f4e6f2076616c6964206d656d6265724964000000000000000000000000000000602082015260400190565b601981527f4372656174696f6e44617465206973206d616e6461746f727900000000000000602082015260400190565b8051600090610160840190615b2d8582615d1d565b506020830151615b406020860182615d1d565b5060408301518482036040860152615b588282615797565b91505060608301518482036060860152615b728282615797565b91505060808301518482036080860152615b8c8282615797565b91505060a083015184820360a0860152615ba68282615797565b91505060c083015184820360c0860152615bc08282615797565b91505060e083015184820360e0860152615bda8282615741565b915050610100830151848203610100860152615bf68282615741565b915050610120830151848203610120860152615c128282615525565b915050610140830151615c29610140860182615d1d565b509392505050565b8051600090610160840190615c468582615516565b506020830151615c596020860182615d1d565b506040830151615c6c6040860182615d1d565b506060830151615c7f6060860182615d1d565b5060808301518482036080860152615c978282615797565b91505060a083015184820360a0860152615cb18282615797565b91505060c083015184820360c0860152615ccb8282615797565b91505060e083015184820360e0860152615ce58282615797565b915050610100830151848203610100860152615d0182826155e3565b915050610120830151848203610120860152615c128282615797565b61551f8161124b565b60208082528101613f64818461557c565b60208082528101613f64818461563e565b60208082528101613f648184615699565b60208082528101613f6481846156f4565b602081016116e6828461578e565b602080825281016116e6816157cc565b602080825281016116e6816157fc565b602080825281016116e68161582c565b602080825281016116e681615882565b602080825281016116e6816158b2565b602080825281016116e6816158e2565b602080825281016116e681615938565b602080825281016116e681615968565b602080825281016116e681615998565b602080825281016116e6816159c8565b602080825281016116e6816159f8565b602080825281016116e681615a28565b602080825281016116e681615a58565b602080825281016116e681615a88565b602080825281016116e681615ab8565b602080825281016116e681615ae8565b60208082528101613f648184615c31565b602081016116e68284615d1d565b60405181810167ffffffffffffffff81118282101715615eb657600080fd5b604052919050565b600067ffffffffffffffff821115615ed557600080fd5b5060209081020190565b600067ffffffffffffffff821115615ef657600080fd5b506020601f91909101601f19160190565b60200190565b5190565b600160a060020a031690565b151590565b82818337506000910152565b60005b83811015615f49578181015183820152602001615f31565b838111156118a95750506000910152565b601f01601f1916905600a265627a7a723058201e1771702ff03c44e9eef4af5982664d029ada48fce1984548ba565c349e9e946c6578706572696d656e74616cf50037",
  "source": "pragma solidity ^0.4.24;\npragma experimental ABIEncoderV2;\n\nimport \"./Members.sol\";\nimport \"./Claims.sol\";\n\n\ncontract Users is Members {\n\n  struct User {\n//    uint256 creationDate;\n    address owner;  // primary key\n    uint256 memberId;\n    uint256 requestId;\n    uint tokens;\n    string firstName;\n    string lastName;\n    string role;\n    string cmo;\n    string[] groups;\n    string kycData;\n    uint status;\n  }\n//\n//  enum StatusUserEnum {\n//    REJECTED, // 0\n//    PENDING,  // 1\n//    ACCEPTED  // 2\n//  }\n\n  mapping (address => User) private users_;\n  address[] private usersList_;\n  uint256 constant private PAGE_SIZE = 10;\n  uint private requestIdCounter = 1592831436680;\n  uint256 constant private userStartTokens = 100;\n\n  // PUBLIC\n\n  function registerUserRequest(string _firstName, string _lastName, string _role, uint256 _memberId,\n    string _kycData) public {\n\n    require(_memberId != 0, \"No valid memberId\");\n//    require(_creationDate > 0, \"CreationDate is mandatory\");\n//    require(users_[msg.sender].creationDate == 0, \"User already exists\");\n    require(_memberExists(_memberId), \"Member not exists\");\n\n    uint256 _requestId = Random.rand(++requestIdCounter);\n    _saveUser(_firstName, _lastName, _memberId, _requestId, _role, 1, msg.sender, 0);\n    users_[msg.sender].kycData = _kycData;\n  }\n\n  function updateUser(string _firstName, string _lastName, uint256 _memberId, string _role, address owner,\n    uint _tokens, string _kycData) public {\n\n    require(users_[owner].owner > address(0), \"This user not exists\");\n    require(users_[owner].status == 2, \"You are not accepted\");\n    if (users_[owner].tokens > _tokens) {\n      members_[users_[owner].memberId].totalTokens += users_[owner].tokens - _tokens;\n    } else {\n      members_[users_[owner].memberId].totalTokens -= _tokens - users_[owner].tokens;\n    }\n    users_[owner].tokens = _tokens;\n    users_[owner].kycData = _kycData;\n\n    uint256 _requestId = users_[owner].requestId;\n//    uint256 _creationDate = users_[owner].creationDate;\n    uint256 _status = users_[owner].status;\n\n    _saveUser(_firstName, _lastName, _memberId, _requestId, _role, _status, owner, 1);\n  }\n\n  function getUsedTokens(uint256 _memberId) public view returns (uint){\n    uint usedTokens = 0;\n    for (uint i = 0; i < usersList_.length; ++i) {\n      if (users_[usersList_[i]].memberId == _memberId) {\n        usedTokens += users_[usersList_[i]].tokens;\n      }\n    }\n    return usedTokens;\n  }\n\n  function updateSuperUser(string _firstName, string _lastName, uint256 _memberId, string _role, address owner,\n    string[] _groups) public {\n\n    users_[owner].firstName = _firstName;\n    users_[owner].lastName = _lastName;\n    users_[owner].groups = _groups;\n\n    for (uint i = 0; i < usersList_.length; ++i) {\n      if (keccak256(users_[usersList_[i]].cmo) == keccak256(users_[owner].cmo)) {\n        users_[usersList_[i]].groups = _groups;\n      }\n    }\n\n  }\n\n  function rejectUser(address _userToReject) public {\n\n    require(users_[_userToReject].owner > address(0), \"This user not exists\");\n    require((users_[msg.sender].memberId == users_[_userToReject].memberId) || isSigner(msg.sender), \"You cannot accept this user\");\n    require(users_[msg.sender].status == 2 || isSigner(msg.sender), \"You are not accepted\");\n    require(users_[_userToReject].status == 1, \"Only pending users can be rejected\");\n\n    users_[_userToReject].status = 0;\n    _clearUserFromMemberRequest(users_[_userToReject].memberId, _userToReject);\n  }\n\n  function acceptUser(address _userToAccept) public {\n\n    require(users_[_userToAccept].owner > address(0), \"This user not exists\");\n    require((users_[msg.sender].memberId == users_[_userToAccept].memberId) || isSigner(msg.sender), \"You cannot accept this user\");\n    require(users_[msg.sender].status == 2 || isSigner(msg.sender), \"You are not accepted\");\n    require(users_[_userToAccept].status == 1, \"Only pending users can be accepted\");\n\n    if (members_[users_[_userToAccept].memberId].totalTokens > userStartTokens) {\n      users_[_userToAccept].status = 2;\n      _clearUserFromMemberRequest(users_[_userToAccept].memberId, _userToAccept);\n      users_[_userToAccept].tokens = userStartTokens;\n      members_[users_[_userToAccept].memberId].totalTokens -= userStartTokens;\n    } else {\n      rejectUser(_userToAccept);\n    }\n  }\n\n  function getcountUsers() public view returns(uint) {\n    uint256 counter = 0;\n    for (uint i = 0; i < usersList_.length; ++i) {\n      if(users_[usersList_[i]].memberId == users_[msg.sender].memberId\n        && users_[usersList_[i]].status == 2) {\n        counter++;\n      }\n    }\n    return counter;\n  }\n\n  function whitelistAdmin(address account, string _cmo) public onlySigner {\n    _clearUserFromMemberRequest(users_[account].memberId, account);\n    users_[account].role = \"Super admin\";\n    users_[account].memberId = ++memberIdCounter_;\n    users_[account].cmo = _cmo;\n//    users_[account].tokens = 0; // should \"Super admin\" have tokens?\n    users_[account].status = 2;\n    users_[account].groups = [\"digit1\"];\n    addSigner(account);\n  }\n\n  function getUsers(uint256 _page) public view returns(User[] memory) {\n    uint256 counter = getcountUsers();\n\n    uint256 pageIndex = SafeMath.mul(PAGE_SIZE, _page);\n    uint256 pageNumber = SafeMath.div(usersList_.length, PAGE_SIZE);\n\n    if (counter == 0 || pageIndex > counter || _page > pageNumber) {\n      return;\n    }\n\n    User[] memory userPageBasic = new User[](PAGE_SIZE);\n    uint256 counterFinal = 0;\n\n    for (uint j = pageIndex; j < usersList_.length; ++j) {\n      if(users_[usersList_[j]].memberId == users_[msg.sender].memberId\n        && users_[usersList_[j]].status == 2) {\n        userPageBasic[counterFinal] = users_[usersList_[j]];\n        ++counterFinal;\n      }\n    }\n    return userPageBasic;\n  }\n\n  function getUserByAddress(address userAddress) public view returns(User memory) {\n    return users_[userAddress];\n  }\n\n  function getUsersOwner() onlySigner public view returns(User[] memory) {\n    User[] memory userPageOwner = new User[](usersList_.length);\n\n    for (uint i = 0; i < usersList_.length; ++i) {\n      userPageOwner[i] = users_[usersList_[i]];\n    }\n\n    return userPageOwner;\n  }\n\n  function getMe() public view returns(User) {\n      if (bytes(users_[msg.sender].firstName).length != 0) {\n        User memory user = users_[msg.sender];\n        return user;\n      } else {\n        return;\n      }\n  }\n\n\n  function _saveUser(string _firstName, string _lastName, uint256 _memberId,\n    uint256 _requestId, string _role, uint256 _status, address owner, uint isCreate) internal {\n\n    require(_status >= 0 && _status <=2, \"status is not valid\");\n    require(bytes(_role).length != 0, \"role is mandatory\");\n\n    User memory user = users_[owner];\n\n//    user.creationDate =  _creationDate;\n    user.firstName =  _firstName;\n    user.lastName =  _lastName;\n    user.memberId =  _memberId;\n    user.requestId =  _requestId;\n    user.role = _role;\n    user.status = _status;\n    user.owner = owner;\n\n    users_[owner] = user;\n\n    if (isCreate == 0) {\n      usersList_.push(owner);\n//      if (users_[owner].status != 2) {\n      _addUserToMemberRequest(_memberId);\n//      }\n      users_[owner].groups = [\"digit1\"];                  // by default\n      users_[owner].cmo = members_[user.memberId].cmo;  // to initialize\n    }\n  }\n\n  function _memberIdFromCurrentAddress(address addr) view public returns(uint256) {\n    return users_[addr].memberId;\n  }\n\n  function updateTokens(address addr, uint transactionPrice) public {\n    users_[addr].tokens -= transactionPrice;\n    members_[users_[addr].memberId].totalTokens -= transactionPrice;\n  }\n\n  function getUserTokensByAddress(address addr) view public returns(uint) {\n    return users_[addr].tokens;\n  }\n}\n",
  "sourcePath": "/home/komodo/newUI2/bloomen-decentralized-rights-management-v2/truffle/contracts/registry/Users.sol",
  "compiler": {
    "name": "solc",
    "version": "0.4.24+commit.e67f0147.Emscripten.clang"
  },
  "schemaVersion": "2.0.1",
  "updatedAt": "2020-06-22T13:36:19.891Z"
}