{
  "contractName": "Users",
  "abi": [
    {
      "constant": false,
      "inputs": [
        {
          "name": "_cmo",
          "type": "string"
        }
      ],
      "name": "addCMO",
      "outputs": [],
      "payable": false,
      "stateMutability": "nonpayable",
      "type": "function"
    },
    {
      "constant": true,
      "inputs": [
        {
          "name": "_memberId",
          "type": "uint256"
        }
      ],
      "name": "_getClaimsIdByMember",
      "outputs": [
        {
          "name": "",
          "type": "uint256[]"
        }
      ],
      "payable": false,
      "stateMutability": "view",
      "type": "function"
    },
    {
      "constant": true,
      "inputs": [],
      "name": "getCMOs",
      "outputs": [
        {
          "name": "",
          "type": "string[]"
        }
      ],
      "payable": false,
      "stateMutability": "view",
      "type": "function"
    },
    {
      "constant": false,
      "inputs": [
        {
          "name": "_memberId",
          "type": "uint256"
        },
        {
          "name": "_creationDate",
          "type": "uint256"
        },
        {
          "name": "_name",
          "type": "string"
        },
        {
          "name": "_logo",
          "type": "string"
        },
        {
          "name": "_country",
          "type": "string"
        },
        {
          "name": "_cmo",
          "type": "string"
        },
        {
          "name": "_theme",
          "type": "string"
        }
      ],
      "name": "updateMember",
      "outputs": [],
      "payable": false,
      "stateMutability": "nonpayable",
      "type": "function"
    },
    {
      "constant": false,
      "inputs": [
        {
          "name": "_memberId",
          "type": "uint256"
        },
        {
          "name": "_claimId",
          "type": "uint256"
        }
      ],
      "name": "_addClaimFromInbox",
      "outputs": [],
      "payable": false,
      "stateMutability": "nonpayable",
      "type": "function"
    },
    {
      "constant": true,
      "inputs": [
        {
          "name": "account",
          "type": "address"
        }
      ],
      "name": "isSigner",
      "outputs": [
        {
          "name": "",
          "type": "bool"
        }
      ],
      "payable": false,
      "stateMutability": "view",
      "type": "function"
    },
    {
      "constant": false,
      "inputs": [
        {
          "name": "_memberId",
          "type": "uint256"
        },
        {
          "name": "_claimId",
          "type": "uint256"
        }
      ],
      "name": "_removeClaimFromInbox",
      "outputs": [],
      "payable": false,
      "stateMutability": "nonpayable",
      "type": "function"
    },
    {
      "constant": false,
      "inputs": [
        {
          "name": "currentCMO",
          "type": "string"
        },
        {
          "name": "currentCMOId",
          "type": "uint256"
        }
      ],
      "name": "_getMemberIdsOfCurrentCMO",
      "outputs": [
        {
          "name": "",
          "type": "uint256[]"
        }
      ],
      "payable": false,
      "stateMutability": "nonpayable",
      "type": "function"
    },
    {
      "constant": true,
      "inputs": [],
      "name": "getMembers",
      "outputs": [
        {
          "components": [
            {
              "name": "memberId",
              "type": "uint256"
            },
            {
              "name": "creationDate",
              "type": "uint256"
            },
            {
              "name": "name",
              "type": "string"
            },
            {
              "name": "logo",
              "type": "string"
            },
            {
              "name": "country",
              "type": "string"
            },
            {
              "name": "cmo",
              "type": "string"
            },
            {
              "name": "theme",
              "type": "string"
            },
            {
              "name": "claimInbox",
              "type": "uint256[]"
            },
            {
              "name": "claims",
              "type": "uint256[]"
            },
            {
              "name": "userRequests",
              "type": "address[]"
            }
          ],
          "name": "",
          "type": "tuple[]"
        }
      ],
      "payable": false,
      "stateMutability": "view",
      "type": "function"
    },
    {
      "constant": false,
      "inputs": [
        {
          "name": "_memberId",
          "type": "uint256"
        },
        {
          "name": "_claimId",
          "type": "uint256"
        }
      ],
      "name": "_removeClaimIdFromMember",
      "outputs": [],
      "payable": false,
      "stateMutability": "nonpayable",
      "type": "function"
    },
    {
      "constant": true,
      "inputs": [],
      "name": "getCount",
      "outputs": [
        {
          "name": "",
          "type": "uint256"
        }
      ],
      "payable": false,
      "stateMutability": "view",
      "type": "function"
    },
    {
      "constant": true,
      "inputs": [
        {
          "name": "_memberId",
          "type": "uint256"
        }
      ],
      "name": "_getClaimsCountByMember",
      "outputs": [
        {
          "name": "",
          "type": "uint256"
        }
      ],
      "payable": false,
      "stateMutability": "view",
      "type": "function"
    },
    {
      "constant": false,
      "inputs": [
        {
          "name": "_index",
          "type": "uint256"
        }
      ],
      "name": "deleteCMO",
      "outputs": [],
      "payable": false,
      "stateMutability": "nonpayable",
      "type": "function"
    },
    {
      "constant": true,
      "inputs": [
        {
          "name": "_page",
          "type": "uint256"
        }
      ],
      "name": "getMembers",
      "outputs": [
        {
          "components": [
            {
              "name": "memberId",
              "type": "uint256"
            },
            {
              "name": "creationDate",
              "type": "uint256"
            },
            {
              "name": "name",
              "type": "string"
            },
            {
              "name": "logo",
              "type": "string"
            },
            {
              "name": "country",
              "type": "string"
            },
            {
              "name": "cmo",
              "type": "string"
            },
            {
              "name": "theme",
              "type": "string"
            },
            {
              "name": "claimInbox",
              "type": "uint256[]"
            },
            {
              "name": "claims",
              "type": "uint256[]"
            },
            {
              "name": "userRequests",
              "type": "address[]"
            }
          ],
          "name": "",
          "type": "tuple[]"
        }
      ],
      "payable": false,
      "stateMutability": "view",
      "type": "function"
    },
    {
      "constant": false,
      "inputs": [
        {
          "name": "_memberId",
          "type": "uint256"
        },
        {
          "name": "_claimId",
          "type": "uint256"
        }
      ],
      "name": "_addClaimIdToMemberOwner",
      "outputs": [],
      "payable": false,
      "stateMutability": "nonpayable",
      "type": "function"
    },
    {
      "constant": false,
      "inputs": [],
      "name": "renounceSigner",
      "outputs": [],
      "payable": false,
      "stateMutability": "nonpayable",
      "type": "function"
    },
    {
      "constant": false,
      "inputs": [
        {
          "name": "account",
          "type": "address"
        }
      ],
      "name": "addSigner",
      "outputs": [],
      "payable": false,
      "stateMutability": "nonpayable",
      "type": "function"
    },
    {
      "constant": true,
      "inputs": [
        {
          "name": "_memberId",
          "type": "uint256"
        }
      ],
      "name": "_memberExists",
      "outputs": [
        {
          "name": "",
          "type": "bool"
        }
      ],
      "payable": false,
      "stateMutability": "view",
      "type": "function"
    },
    {
      "constant": false,
      "inputs": [
        {
          "name": "_creationDate",
          "type": "uint256"
        },
        {
          "name": "_name",
          "type": "string"
        },
        {
          "name": "_logo",
          "type": "string"
        },
        {
          "name": "_country",
          "type": "string"
        },
        {
          "name": "_cmo",
          "type": "string"
        },
        {
          "name": "_theme",
          "type": "string"
        }
      ],
      "name": "addMember",
      "outputs": [
        {
          "name": "",
          "type": "uint256"
        }
      ],
      "payable": false,
      "stateMutability": "nonpayable",
      "type": "function"
    },
    {
      "anonymous": false,
      "inputs": [
        {
          "indexed": true,
          "name": "account",
          "type": "address"
        }
      ],
      "name": "SignerAdded",
      "type": "event"
    },
    {
      "anonymous": false,
      "inputs": [
        {
          "indexed": true,
          "name": "account",
          "type": "address"
        }
      ],
      "name": "SignerRemoved",
      "type": "event"
    },
    {
      "constant": false,
      "inputs": [
        {
          "name": "_creationDate",
          "type": "uint256"
        },
        {
          "name": "_firstName",
          "type": "string"
        },
        {
          "name": "_lastName",
          "type": "string"
        },
        {
          "name": "_role",
          "type": "string"
        },
        {
          "name": "_memberId",
          "type": "uint256"
        }
      ],
      "name": "registerUserRequest",
      "outputs": [],
      "payable": false,
      "stateMutability": "nonpayable",
      "type": "function"
    },
    {
      "constant": false,
      "inputs": [
        {
          "name": "_firstName",
          "type": "string"
        },
        {
          "name": "_lastName",
          "type": "string"
        },
        {
          "name": "_memberId",
          "type": "uint256"
        },
        {
          "name": "_role",
          "type": "string"
        },
        {
          "name": "owner",
          "type": "address"
        }
      ],
      "name": "updateUser",
      "outputs": [],
      "payable": false,
      "stateMutability": "nonpayable",
      "type": "function"
    },
    {
      "constant": false,
      "inputs": [
        {
          "name": "_firstName",
          "type": "string"
        },
        {
          "name": "_lastName",
          "type": "string"
        },
        {
          "name": "_memberId",
          "type": "uint256"
        },
        {
          "name": "_role",
          "type": "string"
        },
        {
          "name": "owner",
          "type": "address"
        },
        {
          "name": "_groups",
          "type": "string[]"
        }
      ],
      "name": "updateSuperUser",
      "outputs": [],
      "payable": false,
      "stateMutability": "nonpayable",
      "type": "function"
    },
    {
      "constant": false,
      "inputs": [
        {
          "name": "_userToReject",
          "type": "address"
        }
      ],
      "name": "rejectUser",
      "outputs": [],
      "payable": false,
      "stateMutability": "nonpayable",
      "type": "function"
    },
    {
      "constant": false,
      "inputs": [
        {
          "name": "_userToAccept",
          "type": "address"
        }
      ],
      "name": "acceptUser",
      "outputs": [],
      "payable": false,
      "stateMutability": "nonpayable",
      "type": "function"
    },
    {
      "constant": true,
      "inputs": [],
      "name": "getcountUsers",
      "outputs": [
        {
          "name": "",
          "type": "uint256"
        }
      ],
      "payable": false,
      "stateMutability": "view",
      "type": "function"
    },
    {
      "constant": false,
      "inputs": [
        {
          "name": "account",
          "type": "address"
        },
        {
          "name": "_cmo",
          "type": "string"
        }
      ],
      "name": "whitelistAdmin",
      "outputs": [],
      "payable": false,
      "stateMutability": "nonpayable",
      "type": "function"
    },
    {
      "constant": true,
      "inputs": [
        {
          "name": "_page",
          "type": "uint256"
        }
      ],
      "name": "getUsers",
      "outputs": [
        {
          "components": [
            {
              "name": "creationDate",
              "type": "uint256"
            },
            {
              "name": "firstName",
              "type": "string"
            },
            {
              "name": "lastName",
              "type": "string"
            },
            {
              "name": "memberId",
              "type": "uint256"
            },
            {
              "name": "requestId",
              "type": "uint256"
            },
            {
              "name": "role",
              "type": "string"
            },
            {
              "name": "status",
              "type": "uint8"
            },
            {
              "name": "owner",
              "type": "address"
            },
            {
              "name": "cmo",
              "type": "string"
            },
            {
              "name": "groups",
              "type": "string[]"
            }
          ],
          "name": "",
          "type": "tuple[]"
        }
      ],
      "payable": false,
      "stateMutability": "view",
      "type": "function"
    },
    {
      "constant": true,
      "inputs": [
        {
          "name": "userAddress",
          "type": "address"
        }
      ],
      "name": "getUserByAddress",
      "outputs": [
        {
          "components": [
            {
              "name": "creationDate",
              "type": "uint256"
            },
            {
              "name": "firstName",
              "type": "string"
            },
            {
              "name": "lastName",
              "type": "string"
            },
            {
              "name": "memberId",
              "type": "uint256"
            },
            {
              "name": "requestId",
              "type": "uint256"
            },
            {
              "name": "role",
              "type": "string"
            },
            {
              "name": "status",
              "type": "uint8"
            },
            {
              "name": "owner",
              "type": "address"
            },
            {
              "name": "cmo",
              "type": "string"
            },
            {
              "name": "groups",
              "type": "string[]"
            }
          ],
          "name": "",
          "type": "tuple"
        }
      ],
      "payable": false,
      "stateMutability": "view",
      "type": "function"
    },
    {
      "constant": true,
      "inputs": [],
      "name": "getUsersOwner",
      "outputs": [
        {
          "components": [
            {
              "name": "creationDate",
              "type": "uint256"
            },
            {
              "name": "firstName",
              "type": "string"
            },
            {
              "name": "lastName",
              "type": "string"
            },
            {
              "name": "memberId",
              "type": "uint256"
            },
            {
              "name": "requestId",
              "type": "uint256"
            },
            {
              "name": "role",
              "type": "string"
            },
            {
              "name": "status",
              "type": "uint8"
            },
            {
              "name": "owner",
              "type": "address"
            },
            {
              "name": "cmo",
              "type": "string"
            },
            {
              "name": "groups",
              "type": "string[]"
            }
          ],
          "name": "",
          "type": "tuple[]"
        }
      ],
      "payable": false,
      "stateMutability": "view",
      "type": "function"
    },
    {
      "constant": true,
      "inputs": [],
      "name": "getMe",
      "outputs": [
        {
          "components": [
            {
              "name": "creationDate",
              "type": "uint256"
            },
            {
              "name": "firstName",
              "type": "string"
            },
            {
              "name": "lastName",
              "type": "string"
            },
            {
              "name": "memberId",
              "type": "uint256"
            },
            {
              "name": "requestId",
              "type": "uint256"
            },
            {
              "name": "role",
              "type": "string"
            },
            {
              "name": "status",
              "type": "uint8"
            },
            {
              "name": "owner",
              "type": "address"
            },
            {
              "name": "cmo",
              "type": "string"
            },
            {
              "name": "groups",
              "type": "string[]"
            }
          ],
          "name": "",
          "type": "tuple"
        }
      ],
      "payable": false,
      "stateMutability": "view",
      "type": "function"
    },
    {
      "constant": true,
      "inputs": [
        {
          "name": "addr",
          "type": "address"
        }
      ],
      "name": "_memberIdFromCurrentAddress",
      "outputs": [
        {
          "name": "",
          "type": "uint256"
        }
      ],
      "payable": false,
      "stateMutability": "view",
      "type": "function"
    }
  ],
  "bytecode": "0x608060405260006003556200001d3364010000000062000023810204565b62000108565b6200003e6000826401000000006200442e6200007582021704565b604051600160a060020a038216907f47d1c22a25bb3a5d4e481b9b1e6944c2eade3181a0a20b495ed61d35b5323f2490600090a250565b600160a060020a03811615156200008b57600080fd5b620000a08282640100000000620000d0810204565b15620000ab57600080fd5b600160a060020a0316600090815260209190915260409020805460ff19166001179055565b6000600160a060020a0382161515620000e857600080fd5b50600160a060020a03166000908152602091909152604090205460ff1690565b6159df80620001186000396000f30060806040526004361061018a5763ffffffff7c010000000000000000000000000000000000000000000000000000000060003504166308bdc24d811461018f5780633a59ccf1146101b15780634dc92885146101d15780635d73ab9a146101f15780636262dff614610227578063656d561c1461025457806365ff0c481461027657806369c212f61461029657806374853239146102c35780637df73e27146102e35780638b92892b14610310578063932191be14610330578063989359df146103455780639eab525314610365578063a29d441f14610387578063a4fdc594146103a7578063a7ed1fe4146103c9578063a87d942c146103e9578063a9eff511146103fe578063affccd841461041e578063bcec99a61461043e578063bf3d007e1461045e578063c11e1ff31461047e578063c477ecab14610493578063e2c11f9e146104b3578063e5c8b03d146104d3578063eb12d61e146104e8578063eff34e5914610508578063f838073314610528578063fa1188c614610548578063fcfbde5b14610568575b600080fd5b34801561019b57600080fd5b506101af6101aa36600461498b565b610588565b005b3480156101bd57600080fd5b506101af6101cc366004614a03565b610728565b3480156101dd57600080fd5b506101af6101ec36600461498b565b610784565b3480156101fd57600080fd5b5061021161020c366004614c21565b6108ed565b60405161021e9190615762565b60405180910390f35b34801561023357600080fd5b50610247610242366004614c21565b610e3b565b60405161021e9190615773565b34801561026057600080fd5b50610269610ed0565b60405161021e9190615740565b34801561028257600080fd5b506101af610291366004614e00565b610fa9565b3480156102a257600080fd5b506102b66102b136600461498b565b611074565b60405161021e91906158a2565b3480156102cf57600080fd5b506101af6102de366004614de1565b611438565b3480156102ef57600080fd5b506103036102fe36600461498b565b61145e565b60405161021e9190615784565b34801561031c57600080fd5b506101af61032b366004614de1565b611476565b34801561033c57600080fd5b50610211611594565b34801561035157600080fd5b50610247610360366004614bda565b6119f7565b34801561037157600080fd5b5061037a611be8565b60405161021e9190615751565b34801561039357600080fd5b506101af6103a2366004614de1565b6120af565b3480156103b357600080fd5b506103bc61217e565b60405161021e91906158b3565b3480156103d557600080fd5b506101af6103e4366004614d31565b612244565b3480156103f557600080fd5b506103bc61230b565b34801561040a57600080fd5b506101af6104193660046149b1565b612328565b34801561042a57600080fd5b506103bc610439366004614c21565b612488565b34801561044a57600080fd5b506101af610459366004614af4565b61249d565b34801561046a57600080fd5b506101af610479366004614c21565b6126f9565b34801561048a57600080fd5b506102b66127b6565b34801561049f57600080fd5b5061037a6104ae366004614c21565b612b7d565b3480156104bf57600080fd5b506101af6104ce366004614de1565b613098565b3480156104df57600080fd5b506101af6130be565b3480156104f457600080fd5b506101af61050336600461498b565b6130c9565b34801561051457600080fd5b506103bc61052336600461498b565b6130e6565b34801561053457600080fd5b50610303610543366004614c21565b613104565b34801561055457600080fd5b506103bc610563366004614c3f565b613117565b34801561057457600080fd5b506101af610583366004614a38565b6131a6565b600160a060020a038181166000908152600560205260408120600601546101009004909116116105d65760405160e560020a62461bcd0281526004016105cd906157d2565b60405180910390fd5b600160a060020a0381166000908152600560205260408082206003908101543384529190922090910154148061061057506106103361145e565b15156106315760405160e560020a62461bcd0281526004016105cd906157e2565b60023360009081526005602052604090206006015460ff16600281111561065457fe5b148061066457506106643361145e565b15156106855760405160e560020a62461bcd0281526004016105cd90615862565b6001600160a060020a03821660009081526005602052604090206006015460ff1660028111156106b157fe5b146106d15760405160e560020a62461bcd0281526004016105cd906157b2565b600160a060020a038116600090815260056020526040902060060180546002919060ff19166001835b0217905550600160a060020a038116600090815260056020526040902060030154610725908261328a565b50565b6107313361145e565b151561073c57600080fd5b60018054808201808355600092909252825161077f917fb10e2d527612073b26eecdfd717e6a320cf44b4afac2b0732d9fcbe2b7fa0cf60190602085019061447c565b505050565b600160a060020a038181166000908152600560205260408120600601546101009004909116116107c95760405160e560020a62461bcd0281526004016105cd906157d2565b600160a060020a0381166000908152600560205260408082206003908101543384529190922090910154148061080357506108033361145e565b15156108245760405160e560020a62461bcd0281526004016105cd906157e2565b60023360009081526005602052604090206006015460ff16600281111561084757fe5b148061085757506108573361145e565b15156108785760405160e560020a62461bcd0281526004016105cd90615862565b6001600160a060020a03821660009081526005602052604090206006015460ff1660028111156108a457fe5b146108c45760405160e560020a62461bcd0281526004016105cd906157f2565b600160a060020a0381166000908152600560205260408120600601805460ff19166001836106fa565b60606000806000606060008061090161217e565b955061090e600a896133ef565b60065490955061091f90600a613428565b935085158061092d57508585115b8061093757508388115b1561094157610e30565b60408051600a808252610160820190925290816020015b6109606144f6565b815260200190600190039081610958579050509250600091508490505b600654811015610e2c5733600090815260056020819052604082206003015460068054919391859081106109ad57fe5b6000918252602080832090910154600160a060020a03168352820192909252604001902060030154148015610a2a57506002600560006006848154811015156109f257fe5b6000918252602080832090910154600160a060020a0316835282019290925260400190206006015460ff166002811115610a2857fe5b145b15610e245760056000600683815481101515610a4257fe5b6000918252602080832090910154600160a060020a03168352828101939093526040918201902081516101408101835281548152600182810180548551601f6002600019958416156101000295909501909216939093049081018790048702830187019095528482529194929385840193919291830182828015610b075780601f10610adc57610100808354040283529160200191610b07565b820191906000526020600020905b815481529060010190602001808311610aea57829003601f168201915b5050509183525050600282810180546040805160206001841615610100026000190190931694909404601f81018390048302850183019091528084529381019390830182828015610b995780601f10610b6e57610100808354040283529160200191610b99565b820191906000526020600020905b815481529060010190602001808311610b7c57829003601f168201915b505050505081526020016003820154815260200160048201548152602001600582018054600181600116156101000203166002900480601f016020809104026020016040519081016040528092919081815260200182805460018160011615610100020316600290048015610c4f5780601f10610c2457610100808354040283529160200191610c4f565b820191906000526020600020905b815481529060010190602001808311610c3257829003601f168201915b5050509183525050600682015460209091019060ff166002811115610c7057fe5b6002811115610c7b57fe5b8152600682015461010090819004600160a060020a031660208084019190915260078401805460408051600260018416159096026000190190921694909404601f810184900484028201840185528082529390940193929091830182828015610d255780601f10610cfa57610100808354040283529160200191610d25565b820191906000526020600020905b815481529060010190602001808311610d0857829003601f168201915b5050505050815260200160088201805480602002602001604051908101604052809291908181526020016000905b82821015610dfe5760008481526020908190208301805460408051601f6002600019610100600187161502019094169390930492830185900485028101850190915281815292830182828015610dea5780601f10610dbf57610100808354040283529160200191610dea565b820191906000526020600020905b815481529060010190602001808311610dcd57829003601f168201915b505050505081526020019060010190610d53565b505050915250508351849084908110610e1357fe5b602090810290910101526001909101905b60010161097d565b8296505b505050505050919050565b60008181526002602052604081205460609110610e6d5760405160e560020a62461bcd0281526004016105cd90615812565b60008281526002602090815260409182902060080180548351818402810184019094528084529091830182828015610ec457602002820191906000526020600020905b815481526020019060010190808311610eb0575b50505050509050919050565b60606001805480602002602001604051908101604052809291908181526020016000905b82821015610f9f5760008481526020908190208301805460408051601f6002600019610100600187161502019094169390930492830185900485028101850190915281815292830182828015610f8b5780601f10610f6057610100808354040283529160200191610f8b565b820191906000526020600020905b815481529060010190602001808311610f6e57829003601f168201915b505050505081526020019060010190610ef4565b5050505090505b90565b610fb23361145e565b1515610fbd57600080fd5b60008781526002602052604081205411610fec5760405160e560020a62461bcd0281526004016105cd90615832565b600087815260026020526040902060010154861461101f5760405160e560020a62461bcd0281526004016105cd90615792565b600087815260026020818152604090922087516110449391909201919088019061447c565b506000878152600260209081526040909120825161106a9260069092019184019061447c565b5050505050505050565b61107c6144f6565b600160a060020a03821660009081526005602090815260409182902082516101408101845281548152600180830180548651600293821615610100026000190190911692909204601f81018690048602830186019096528582529194929385810193919291908301828280156111335780601f1061110857610100808354040283529160200191611133565b820191906000526020600020905b81548152906001019060200180831161111657829003601f168201915b5050509183525050600282810180546040805160206001841615610100026000190190931694909404601f810183900483028501830190915280845293810193908301828280156111c55780601f1061119a576101008083540402835291602001916111c5565b820191906000526020600020905b8154815290600101906020018083116111a857829003601f168201915b505050505081526020016003820154815260200160048201548152602001600582018054600181600116156101000203166002900480601f01602080910402602001604051908101604052809291908181526020018280546001816001161561010002031660029004801561127b5780601f106112505761010080835404028352916020019161127b565b820191906000526020600020905b81548152906001019060200180831161125e57829003601f168201915b5050509183525050600682015460209091019060ff16600281111561129c57fe5b60028111156112a757fe5b8152600682015461010090819004600160a060020a031660208084019190915260078401805460408051600260018416159096026000190190921694909404601f8101849004840282018401855280825293909401939290918301828280156113515780601f1061132657610100808354040283529160200191611351565b820191906000526020600020905b81548152906001019060200180831161133457829003601f168201915b5050505050815260200160088201805480602002602001604051908101604052809291908181526020016000905b8282101561142a5760008481526020908190208301805460408051601f60026000196101006001871615020190941693909304928301859004850281018501909152818152928301828280156114165780601f106113eb57610100808354040283529160200191611416565b820191906000526020600020905b8154815290600101906020018083116113f957829003601f168201915b50505050508152602001906001019061137f565b505050915250909392505050565b600091825260026020908152604083206007018054600181018255908452922090910155565b6000611470818363ffffffff61344b16565b92915050565b6000805b600084815260026020526040902060070154600019018110156115365760008481526002602052604090206007018054849190839081106114b757fe5b906000526020600020015414156114cd57600191505b811561152e5760008481526002602052604090206007018054600183019081106114f357fe5b9060005260206000200154600260008681526020019081526020016000206007018281548110151561152157fe5b6000918252602090912001555b60010161147a565b811561158e5760008481526002602052604090206007018054600019810190811061155d57fe5b60009182526020808320909101829055858252600290526040902060070180549061158c906000198301614553565b505b50505050565b60608060006115a23361145e565b15156115ad57600080fd5b6006546040805182815260208084028201019091529080156115e957816020015b6115d66144f6565b8152602001906001900390816115ce5790505b509150600090505b6006548110156119f1576005600060068381548110151561160e57fe5b6000918252602080832090910154600160a060020a03168352828101939093526040918201902081516101408101835281548152600182810180548551601f60026000199584161561010002959095019092169390930490810187900487028301870190955284825291949293858401939192918301828280156116d35780601f106116a8576101008083540402835291602001916116d3565b820191906000526020600020905b8154815290600101906020018083116116b657829003601f168201915b5050509183525050600282810180546040805160206001841615610100026000190190931694909404601f810183900483028501830190915280845293810193908301828280156117655780601f1061173a57610100808354040283529160200191611765565b820191906000526020600020905b81548152906001019060200180831161174857829003601f168201915b505050505081526020016003820154815260200160048201548152602001600582018054600181600116156101000203166002900480601f01602080910402602001604051908101604052809291908181526020018280546001816001161561010002031660029004801561181b5780601f106117f05761010080835404028352916020019161181b565b820191906000526020600020905b8154815290600101906020018083116117fe57829003601f168201915b5050509183525050600682015460209091019060ff16600281111561183c57fe5b600281111561184757fe5b8152600682015461010090819004600160a060020a031660208084019190915260078401805460408051600260018416159096026000190190921694909404601f8101849004840282018401855280825293909401939290918301828280156118f15780601f106118c6576101008083540402835291602001916118f1565b820191906000526020600020905b8154815290600101906020018083116118d457829003601f168201915b5050505050815260200160088201805480602002602001604051908101604052809291908181526020016000905b828210156119ca5760008481526020908190208301805460408051601f60026000196101006001871615020190941693909304928301859004850281018501909152818152928301828280156119b65780601f1061198b576101008083540402835291602001916119b6565b820191906000526020600020905b81548152906001019060200180831161199957829003601f168201915b50505050508152602001906001019061191f565b5050509152505082518390839081106119df57fe5b602090810290910101526001016115f1565b50919050565b60606000805b600454811015611b9257846040518082805190602001908083835b60208310611a375780518252601f199092019160209182019101611a18565b6001836020036101000a03801982511681845116808217855250505050505090500191505060405180910390206000191660026000600484815481101515611a7b57fe5b906000526020600020015481526020019081526020016000206005016040518082805460018160011615610100020316600290048015611af25780601f10611ad0576101008083540402835291820191611af2565b820191906000526020600020905b815481529060010190602001808311611ade575b5050915050604051809103902060001916148015611b3f57508360026000600484815481101515611b1f57fe5b906000526020600020015481526020019081526020016000206000015414155b15611b8a578160026000600484815481101515611b5857fe5b600091825260208083209091015483528281019390935260409091018120548354600181018555938252919020909101555b6001016119fd565b815460408051602080840282018101909252828152918491830182828015611bd957602002820191906000526020600020905b815481526020019060010190808311611bc5575b50505050509250505092915050565b6060806000600480549050604051908082528060200260200182016040528015611c2c57816020015b611c19614577565b815260200190600190039081611c115790505b509150600090505b6004548110156119f15760026000600483815481101515611c5157fe5b9060005260206000200154815260200190815260200160002061014060405190810160405290816000820154815260200160018201548152602001600282018054600181600116156101000203166002900480601f016020809104026020016040519081016040528092919081815260200182805460018160011615610100020316600290048015611d245780601f10611cf957610100808354040283529160200191611d24565b820191906000526020600020905b815481529060010190602001808311611d0757829003601f168201915b505050918352505060038201805460408051602060026001851615610100026000190190941693909304601f8101849004840282018401909252818152938201939291830182828015611db85780601f10611d8d57610100808354040283529160200191611db8565b820191906000526020600020905b815481529060010190602001808311611d9b57829003601f168201915b505050918352505060048201805460408051602060026001851615610100026000190190941693909304601f8101849004840282018401909252818152938201939291830182828015611e4c5780601f10611e2157610100808354040283529160200191611e4c565b820191906000526020600020905b815481529060010190602001808311611e2f57829003601f168201915b505050918352505060058201805460408051602060026001851615610100026000190190941693909304601f8101849004840282018401909252818152938201939291830182828015611ee05780601f10611eb557610100808354040283529160200191611ee0565b820191906000526020600020905b815481529060010190602001808311611ec357829003601f168201915b505050918352505060068201805460408051602060026001851615610100026000190190941693909304601f8101849004840282018401909252818152938201939291830182828015611f745780601f10611f4957610100808354040283529160200191611f74565b820191906000526020600020905b815481529060010190602001808311611f5757829003601f168201915b5050505050815260200160078201805480602002602001604051908101604052809291908181526020018280548015611fcc57602002820191906000526020600020905b815481526020019060010190808311611fb8575b505050505081526020016008820180548060200260200160405190810160405280929190818152602001828054801561202457602002820191906000526020600020905b815481526020019060010190808311612010575b505050505081526020016009820180548060200260200160405190810160405280929190818152602001828054801561208657602002820191906000526020600020905b8154600160a060020a03168152600190910190602001808311612068575b505050505081525050828281518110151561209d57fe5b60209081029091010152600101611c34565b6000828152600260205260408120600801549081111561077f576000838152600260205260409020600801805460001983019081106120ea57fe5b9060005260206000200154600260008581526020019081526020016000206008018381548110151561211857fe5b906000526020600020018190555081600260008581526020019081526020016000206008016001830381548110151561214d57fe5b600091825260208083209091019290925584815260029091526040902060080180549061158e906000198301614553565b600080805b6006548110156119f15733600090815260056020819052604082206003015460068054919391859081106121b357fe5b6000918252602080832090910154600160a060020a0316835282019290925260400190206003015414801561223057506002600560006006848154811015156121f857fe5b6000918252602080832090910154600160a060020a0316835282019290925260400190206006015460ff16600281111561222e57fe5b145b1561223c576001909101905b600101612183565b60008115156122685760405160e560020a62461bcd0281526004016105cd90615882565b6000861161228b5760405160e560020a62461bcd0281526004016105cd90615892565b33600090815260056020526040902054156122bb5760405160e560020a62461bcd0281526004016105cd906157c2565b6122c482613104565b15156122e55760405160e560020a62461bcd0281526004016105cd90615832565b6122ee86613482565b90506123038686868585886001336000613671565b505050505050565b60006123163361145e565b151561232157600080fd5b5060045490565b6123313361145e565b151561233c57600080fd5b600160a060020a038216600090815260056020526040902060030154612362908361328a565b604080518082018252600b81527f53757065722061646d696e0000000000000000000000000000000000000000006020808301918252600160a060020a03861660009081526005918290529390932091516123c193929092019161447c565b5060038054600101808255600160a060020a0384166000908152600560209081526040909120928301919091558251612400926007019184019061447c565b50600160a060020a038216600081815260056020818152604080842060068101805460ff19166002179055815160608101835260048185019081527f746573740000000000000000000000000000000000000000000000000000000093820193909352918252949093525261247a916008019060016145cb565b50612484826130c9565b5050565b60009081526002602052604090206008015490565b600160a060020a0382166000908152600560209081526040822088516124cb926001909201918a019061447c565b50600160a060020a038316600090815260056020908152604090912087516124fb9260029092019189019061447c565b50600160a060020a0383166000908152600560209081526040909120835161252b92600890920191850190614624565b50600090505b6006548110156126f0576005600084600160a060020a0316600160a060020a0316815260200190815260200160002060070160405180828054600181600116156101000203166002900480156125be5780601f1061259c5761010080835404028352918201916125be565b820191906000526020600020905b8154815290600101906020018083116125aa575b5050915050604051809103902060001916600560006006848154811015156125e257fe5b9060005260206000200160009054906101000a9004600160a060020a0316600160a060020a0316600160a060020a03168152602001908152602001600020600701604051808280546001816001161561010002031660029004801561267e5780601f1061265c57610100808354040283529182019161267e565b820191906000526020600020905b81548152906001019060200180831161266a575b505091505060405180910390206000191614156126e85781600560006006848154811015156126a957fe5b6000918252602080832090910154600160a060020a03168352828101939093526040909101902082516126e6936008909201929190910190614624565b505b600101612531565b50505050505050565b60006127043361145e565b151561270f57600080fd5b50805b6001546000190181101561277b576001805482820190811061273057fe5b9060005260206000200160018281548110151561274957fe5b906000526020600020019080546001816001161561010002031660029004612772929190614671565b50600101612712565b60018054600019810190811061278d57fe5b9060005260206000200160006127a391906146e6565b600180549061077f90600019830161472a565b6127be6144f6565b6127c66144f6565b3360009081526005602090815260409182902082516101408101845281548152600180830180548651600293821615610100026000190190911692909204601f81018690048602830186019096528582529194929385810193919291908301828280156128745780601f1061284957610100808354040283529160200191612874565b820191906000526020600020905b81548152906001019060200180831161285757829003601f168201915b5050509183525050600282810180546040805160206001841615610100026000190190931694909404601f810183900483028501830190915280845293810193908301828280156129065780601f106128db57610100808354040283529160200191612906565b820191906000526020600020905b8154815290600101906020018083116128e957829003601f168201915b505050505081526020016003820154815260200160048201548152602001600582018054600181600116156101000203166002900480601f0160208091040260200160405190810160405280929190818152602001828054600181600116156101000203166002900480156129bc5780601f10612991576101008083540402835291602001916129bc565b820191906000526020600020905b81548152906001019060200180831161299f57829003601f168201915b5050509183525050600682015460209091019060ff1660028111156129dd57fe5b60028111156129e857fe5b8152600682015461010090819004600160a060020a031660208084019190915260078401805460408051600260018416159096026000190190921694909404601f810184900484028201840185528082529390940193929091830182828015612a925780601f10612a6757610100808354040283529160200191612a92565b820191906000526020600020905b815481529060010190602001808311612a7557829003601f168201915b5050505050815260200160088201805480602002602001604051908101604052809291908181526020016000905b82821015612b6b5760008481526020908190208301805460408051601f6002600019610100600187161502019094169390930492830185900485028101850190915281815292830182828015612b575780601f10612b2c57610100808354040283529160200191612b57565b820191906000526020600020905b815481529060010190602001808311612b3a57829003601f168201915b505050505081526020019060010190612ac0565b505050508152505090508091505b5090565b6060600080600060606000612b93600a886133ef565b600454909550612ba490600a613428565b6004549094501580612bbb57506004546000190185115b80612bc557508387115b15612bcf5761308e565b60408051600a80825261016082019092526000945090816020015b612bf2614577565b815260200190600190039081612bea5790505091508490505b60045481101561308a5760026000600483815481101515612c2857fe5b9060005260206000200154815260200190815260200160002061014060405190810160405290816000820154815260200160018201548152602001600282018054600181600116156101000203166002900480601f016020809104026020016040519081016040528092919081815260200182805460018160011615610100020316600290048015612cfb5780601f10612cd057610100808354040283529160200191612cfb565b820191906000526020600020905b815481529060010190602001808311612cde57829003601f168201915b505050918352505060038201805460408051602060026001851615610100026000190190941693909304601f8101849004840282018401909252818152938201939291830182828015612d8f5780601f10612d6457610100808354040283529160200191612d8f565b820191906000526020600020905b815481529060010190602001808311612d7257829003601f168201915b505050918352505060048201805460408051602060026001851615610100026000190190941693909304601f8101849004840282018401909252818152938201939291830182828015612e235780601f10612df857610100808354040283529160200191612e23565b820191906000526020600020905b815481529060010190602001808311612e0657829003601f168201915b505050918352505060058201805460408051602060026001851615610100026000190190941693909304601f8101849004840282018401909252818152938201939291830182828015612eb75780601f10612e8c57610100808354040283529160200191612eb7565b820191906000526020600020905b815481529060010190602001808311612e9a57829003601f168201915b505050918352505060068201805460408051602060026001851615610100026000190190941693909304601f8101849004840282018401909252818152938201939291830182828015612f4b5780601f10612f2057610100808354040283529160200191612f4b565b820191906000526020600020905b815481529060010190602001808311612f2e57829003601f168201915b5050505050815260200160078201805480602002602001604051908101604052809291908181526020018280548015612fa357602002820191906000526020600020905b815481526020019060010190808311612f8f575b5050505050815260200160088201805480602002602001604051908101604052809291908181526020018280548015612ffb57602002820191906000526020600020905b815481526020019060010190808311612fe7575b505050505081526020016009820180548060200260200160405190810160405280929190818152602001828054801561305d57602002820191906000526020600020905b8154600160a060020a0316815260019091019060200180831161303f575b505050505081525050828481518110151561307457fe5b6020908102909101015260019283019201612c0b565b8195505b5050505050919050565b600091825260026020908152604083206008018054600181018255908452922090910155565b6130c733613d1c565b565b6130d23361145e565b15156130dd57600080fd5b61072581613d64565b600160a060020a031660009081526005602052604090206003015490565b6000908152600260205260408120541190565b6000806131233361145e565b151561312e57600080fd5b600088116131515760405160e560020a62461bcd0281526004016105cd90615892565b5060038054600101908190556000818152600260205260409020541561318c5760405160e560020a62461bcd0281526004016105cd90615822565b61319b81898989898989613dac565b979650505050505050565b600160a060020a038181166000908152600560205260408120600601549091829182916101009091041681106131f15760405160e560020a62461bcd0281526004016105cd906157d2565b6002600160a060020a03851660009081526005602052604090206006015460ff16600281111561321d57fe5b1461323d5760405160e560020a62461bcd0281526004016105cd90615862565b600160a060020a03841660009081526005602052604090206004810154815460069092015490945090925060ff16600281111561327657fe5b905061106a82898989878a878b6001613671565b6000805b600084815260026020526040902060090154600019018110156133875760008481526002602052604090206009018054600160a060020a0385169190839081106132d457fe5b600091825260209091200154600160a060020a031614156132f457600191505b811561337f57600084815260026020526040902060090180546001830190811061331a57fe5b6000918252602080832090910154868352600290915260409091206009018054600160a060020a03909216918390811061335057fe5b9060005260206000200160006101000a815481600160a060020a030219169083600160a060020a031602179055505b60010161328e565b6000848152600260205260409020600901805460001981019081106133a857fe5b60009182526020808320909101805473ffffffffffffffffffffffffffffffffffffffff19169055858252600290526040902060090180549061158c906000198301614553565b6000808315156134025760009150613421565b5082820282848281151561341257fe5b041461341d57600080fd5b8091505b5092915050565b60008080831161343757600080fd5b828481151561344257fe5b04949350505050565b6000600160a060020a038216151561346257600080fd5b50600160a060020a03166000908152602091909152604090205460ff1690565b60008080806002850615156135145784604051602001808281526020019150506040516020818303038152906040526040518082805190602001908083835b602083106134e05780518252601f1990920191602091820191016134c1565b6001836020036101000a038019825116818451168082178552505050505050905001915050604051809103902092506135ff565b84604051602001808281526020019150506040516020818303038152906040526040518082805190602001908083835b602083106135635780518252601f199092019160209182019101613544565b51815160209384036101000a600019018019909216911617905260408051929094018290038220828201528351808303820181529184019384905281519195509293508392850191508083835b602083106135cf5780518252601f1990920191602091820191016135b0565b6001836020036101000a038019825116818451168082178552505050505050905001915050604051809103902092505b602081101561362c5782816020811061361457fe5b60f860020a91901a81020491909101906001016135ff565b82602060028401066020811061363e57fe5b60f860020a91901a81020483602084066020811061365857fe5b1a60f860020a0260f860020a9004029350505050919050565b6136796144f6565b60008410158061368a575060028411155b15156136ab5760405160e560020a62461bcd0281526004016105cd90615802565b845115156136ce5760405160e560020a62461bcd0281526004016105cd906157a2565b600160a060020a03831660009081526005602090815260409182902082516101408101845281548152600180830180548651600293821615610100026000190190911692909204601f81018690048602830186019096528582529194929385810193919291908301828280156137855780601f1061375a57610100808354040283529160200191613785565b820191906000526020600020905b81548152906001019060200180831161376857829003601f168201915b5050509183525050600282810180546040805160206001841615610100026000190190931694909404601f810183900483028501830190915280845293810193908301828280156138175780601f106137ec57610100808354040283529160200191613817565b820191906000526020600020905b8154815290600101906020018083116137fa57829003601f168201915b505050505081526020016003820154815260200160048201548152602001600582018054600181600116156101000203166002900480601f0160208091040260200160405190810160405280929190818152602001828054600181600116156101000203166002900480156138cd5780601f106138a2576101008083540402835291602001916138cd565b820191906000526020600020905b8154815290600101906020018083116138b057829003601f168201915b5050509183525050600682015460209091019060ff1660028111156138ee57fe5b60028111156138f957fe5b8152600682015461010090819004600160a060020a031660208084019190915260078401805460408051600260018416159096026000190190921694909404601f8101849004840282018401855280825293909401939290918301828280156139a35780601f10613978576101008083540402835291602001916139a3565b820191906000526020600020905b81548152906001019060200180831161398657829003601f168201915b5050505050815260200160088201805480602002602001604051908101604052809291908181526020016000905b82821015613a7c5760008481526020908190208301805460408051601f6002600019610100600187161502019094169390930492830185900485028101850190915281815292830182828015613a685780601f10613a3d57610100808354040283529160200191613a68565b820191906000526020600020905b815481529060010190602001808311613a4b57829003601f168201915b5050505050815260200190600101906139d1565b505050915250508a8152602081018a905260408101899052606081018890526080810187905260a081018690529050836002811115613ab757fe5b8160c001906002811115613ac757fe5b90816002811115613ad457fe5b905250600160a060020a03831660e082018190526000908152600560209081526040909120825181558183015180518493613b1692600185019291019061447c565b5060408201518051613b3291600284019160209091019061447c565b50606082015160038201556080820151600482015560a08201518051613b6291600584019160209091019061447c565b5060c082015160068201805460ff19166001836002811115613b8057fe5b021790555060e082015160068201805474ffffffffffffffffffffffffffffffffffffffff001916610100600160a060020a0390931683021790558201518051613bd491600784019160209091019061447c565b506101208201518051613bf191600884019160209091019061474e565b505050811515613d1057600680546001810182556000919091527ff652222313e28459528d920b65115c16c04f3efc82aaedc97be59f3f377c0d3f01805473ffffffffffffffffffffffffffffffffffffffff1916600160a060020a038516179055613c5c876143a2565b60408051606081018252600460208281019182527f746573740000000000000000000000000000000000000000000000000000000083850152908252600160a060020a0386166000908152600590915291909120613cc19160089091019060016145cb565b5060608101516000908152600260208181526040808420600160a060020a0388168552600592839052932092018054613d0e93600701926000196101006001841615020190911604614671565b505b50505050505050505050565b613d2d60008263ffffffff6143e216565b604051600160a060020a038216907f3525e22824a8a7df2c9a6029941c824cf95b6447f1e13d5128fd3826d35afe8b90600090a250565b613d7560008263ffffffff61442e16565b604051600160a060020a038216907f47d1c22a25bb3a5d4e481b9b1e6944c2eade3181a0a20b495ed61d35b5323f2490600090a250565b613db4614577565b85511515613dd75760405160e560020a62461bcd0281526004016105cd90615872565b82511515613dfa5760405160e560020a62461bcd0281526004016105cd90615852565b81511515613e1d5760405160e560020a62461bcd0281526004016105cd90615842565b6000888152600260208181526040928390208351610140810185528154815260018083015482850152828501805487519281161561010002600019011695909504601f81018590048502820185018752808252919592949286019390929190830182828015613ecd5780601f10613ea257610100808354040283529160200191613ecd565b820191906000526020600020905b815481529060010190602001808311613eb057829003601f168201915b505050918352505060038201805460408051602060026001851615610100026000190190941693909304601f8101849004840282018401909252818152938201939291830182828015613f615780601f10613f3657610100808354040283529160200191613f61565b820191906000526020600020905b815481529060010190602001808311613f4457829003601f168201915b505050918352505060048201805460408051602060026001851615610100026000190190941693909304601f8101849004840282018401909252818152938201939291830182828015613ff55780601f10613fca57610100808354040283529160200191613ff5565b820191906000526020600020905b815481529060010190602001808311613fd857829003601f168201915b505050918352505060058201805460408051602060026001851615610100026000190190941693909304601f81018490048402820184019092528181529382019392918301828280156140895780601f1061405e57610100808354040283529160200191614089565b820191906000526020600020905b81548152906001019060200180831161406c57829003601f168201915b505050918352505060068201805460408051602060026001851615610100026000190190941693909304601f810184900484028201840190925281815293820193929183018282801561411d5780601f106140f25761010080835404028352916020019161411d565b820191906000526020600020905b81548152906001019060200180831161410057829003601f168201915b505050505081526020016007820180548060200260200160405190810160405280929190818152602001828054801561417557602002820191906000526020600020905b815481526020019060010190808311614161575b50505050508152602001600882018054806020026020016040519081016040528092919081815260200182805480156141cd57602002820191906000526020600020905b8154815260200190600101908083116141b9575b505050505081526020016009820180548060200260200160405190810160405280929190818152602001828054801561422f57602002820191906000526020600020905b8154600160a060020a03168152600190910190602001808311614211575b50505091909252505050888152602080820189815260408084018a8152606085018a90526080850189905260a0850188905260c0850187905260008d8152600280865292902085518155925160018401555180519495508594929361429a939285019291019061447c565b50606082015180516142b691600384019160209091019061447c565b50608082015180516142d291600484019160209091019061447c565b5060a082015180516142ee91600584019160209091019061447c565b5060c0820151805161430a91600684019160209091019061447c565b5060e0820151805161432691600784019160209091019061479b565b50610100820151805161434391600884019160209091019061479b565b5061012082015180516143609160098401916020909101906147d5565b5050600480546001810182556000919091527f8a35acfbc15ff81a39ae7d344fd709f28e8600b4aa8c65c6b64bfe7fe36bd19b01989098555050505050505050565b600090815260026020908152604082206009018054600181018255908352912001805473ffffffffffffffffffffffffffffffffffffffff191633179055565b600160a060020a03811615156143f757600080fd5b614401828261344b565b151561440c57600080fd5b600160a060020a0316600090815260209190915260409020805460ff19169055565b600160a060020a038116151561444357600080fd5b61444d828261344b565b1561445757600080fd5b600160a060020a0316600090815260209190915260409020805460ff19166001179055565b828054600181600116156101000203166002900490600052602060002090601f016020900481019282601f106144bd57805160ff19168380011785556144ea565b828001600101855582156144ea579182015b828111156144ea5782518255916020019190600101906144cf565b50612b79929150614843565b610140604051908101604052806000815260200160608152602001606081526020016000815260200160008152602001606081526020016000600281111561453a57fe5b8152600060208201526060604082018190529081015290565b81548183558181111561077f5760008381526020902061077f918101908301614843565b61014060405190810160405280600081526020016000815260200160608152602001606081526020016060815260200160608152602001606081526020016060815260200160608152602001606081525090565b828054828255906000526020600020908101928215614618579160200282015b82811115614618578251805161460891849160209091019061447c565b50916020019190600101906145eb565b50612b7992915061485d565b828054828255906000526020600020908101928215614618579160200282015b82811115614618578251805161466191849160209091019061447c565b5091602001919060010190614644565b828054600181600116156101000203166002900490600052602060002090601f016020900481019282601f106146aa57805485556144ea565b828001600101855582156144ea57600052602060002091601f016020900482015b828111156144ea5782548255916001019190600101906146cb565b50805460018160011615610100020316600290046000825580601f1061470c5750610725565b601f0160209004906000526020600020908101906107259190614843565b81548183558181111561077f5760008381526020902061077f91810190830161485d565b828054828255906000526020600020908101928215614618579160200282015b82811115614618578251805161478b91849160209091019061447c565b509160200191906001019061476e565b8280548282559060005260206000209081019282156144ea57916020028201828111156144ea5782518255916020019190600101906144cf565b828054828255906000526020600020908101928215614837579160200282015b82811115614837578251825473ffffffffffffffffffffffffffffffffffffffff1916600160a060020a039091161782556020909201916001909101906147f5565b50612b79929150614880565b610fa691905b80821115612b795760008155600101614849565b610fa691905b80821115612b7957600061487782826146e6565b50600101614863565b610fa691905b80821115612b7957805473ffffffffffffffffffffffffffffffffffffffff19168155600101614886565b60006148bd823561593b565b9392505050565b6000601f820183136148d557600080fd5b81356148e86148e3826158e8565b6158c1565b81815260209384019390925082018360005b8381101561492657813586016149108882614930565b84525060209283019291909101906001016148fa565b5050505092915050565b6000601f8201831361494157600080fd5b813561494f6148e382615909565b9150808252602083016020830185838301111561496b57600080fd5b614976838284615963565b50505092915050565b60006148bd8235610fa6565b60006020828403121561499d57600080fd5b60006149a984846148b1565b949350505050565b600080604083850312156149c457600080fd5b60006149d085856148b1565b925050602083013567ffffffffffffffff8111156149ed57600080fd5b6149f985828601614930565b9150509250929050565b600060208284031215614a1557600080fd5b813567ffffffffffffffff811115614a2c57600080fd5b6149a984828501614930565b600080600080600060a08688031215614a5057600080fd5b853567ffffffffffffffff811115614a6757600080fd5b614a7388828901614930565b955050602086013567ffffffffffffffff811115614a9057600080fd5b614a9c88828901614930565b9450506040614aad8882890161497f565b935050606086013567ffffffffffffffff811115614aca57600080fd5b614ad688828901614930565b9250506080614ae7888289016148b1565b9150509295509295909350565b60008060008060008060c08789031215614b0d57600080fd5b863567ffffffffffffffff811115614b2457600080fd5b614b3089828a01614930565b965050602087013567ffffffffffffffff811115614b4d57600080fd5b614b5989828a01614930565b9550506040614b6a89828a0161497f565b945050606087013567ffffffffffffffff811115614b8757600080fd5b614b9389828a01614930565b9350506080614ba489828a016148b1565b92505060a087013567ffffffffffffffff811115614bc157600080fd5b614bcd89828a016148c4565b9150509295509295509295565b60008060408385031215614bed57600080fd5b823567ffffffffffffffff811115614c0457600080fd5b614c1085828601614930565b92505060206149f98582860161497f565b600060208284031215614c3357600080fd5b60006149a9848461497f565b60008060008060008060c08789031215614c5857600080fd5b6000614c64898961497f565b965050602087013567ffffffffffffffff811115614c8157600080fd5b614c8d89828a01614930565b955050604087013567ffffffffffffffff811115614caa57600080fd5b614cb689828a01614930565b945050606087013567ffffffffffffffff811115614cd357600080fd5b614cdf89828a01614930565b935050608087013567ffffffffffffffff811115614cfc57600080fd5b614d0889828a01614930565b92505060a087013567ffffffffffffffff811115614d2557600080fd5b614bcd89828a01614930565b600080600080600060a08688031215614d4957600080fd5b6000614d55888861497f565b955050602086013567ffffffffffffffff811115614d7257600080fd5b614d7e88828901614930565b945050604086013567ffffffffffffffff811115614d9b57600080fd5b614da788828901614930565b935050606086013567ffffffffffffffff811115614dc457600080fd5b614dd088828901614930565b9250506080614ae78882890161497f565b60008060408385031215614df457600080fd5b6000614c10858561497f565b600080600080600080600060e0888a031215614e1b57600080fd5b6000614e278a8a61497f565b9750506020614e388a828b0161497f565b965050604088013567ffffffffffffffff811115614e5557600080fd5b614e618a828b01614930565b955050606088013567ffffffffffffffff811115614e7e57600080fd5b614e8a8a828b01614930565b945050608088013567ffffffffffffffff811115614ea757600080fd5b614eb38a828b01614930565b93505060a088013567ffffffffffffffff811115614ed057600080fd5b614edc8a828b01614930565b92505060c088013567ffffffffffffffff811115614ef957600080fd5b614f058a828b01614930565b91505092959891949750929550565b614f1d8161593b565b82525050565b6000614f2e82615937565b808452602084019350614f4083615931565b60005b82811015614f7057614f56868351614f14565b614f5f82615931565b602096909601959150600101614f43565b5093949350505050565b6000614f8582615937565b80845260208401935083602082028501614f9e85615931565b60005b84811015614fd5578383038852614fb983835161519e565b9250614fc482615931565b602098909801979150600101614fa1565b50909695505050505050565b6000614fec82615937565b8084526020840193508360208202850161500585615931565b60005b84811015614fd557838303885261502083835161519e565b925061502b82615931565b602098909801979150600101615008565b600061504782615937565b8084526020840193508360208202850161506085615931565b60005b84811015614fd557838303885261507b83835161554f565b925061508682615931565b602098909801979150600101615063565b60006150a282615937565b808452602084019350836020820285016150bb85615931565b60005b84811015614fd55783830388526150d6838351615652565b92506150e182615931565b6020989098019791506001016150be565b60006150fd82615937565b80845260208401935061510f83615931565b60005b82811015614f7057615125868351615737565b61512e82615931565b602096909601959150600101615112565b600061514a82615937565b80845260208401935061515c83615931565b60005b82811015614f7057615172868351615737565b61517b82615931565b60209690960195915060010161515f565b614f1d81615947565b614f1d81615958565b60006151a982615937565b8084526151bd81602086016020860161596f565b6151c68161599b565b9093016020019392505050565b601a81527f4372656174696f6e204461746520697320696d6d757461626c65000000000000602082015260400190565b601181527f726f6c65206973206d616e6461746f7279000000000000000000000000000000602082015260400190565b602281527f4f6e6c792070656e64696e672075736572732063616e2062652061636365707460208201527f6564000000000000000000000000000000000000000000000000000000000000604082015260600190565b601381527f5573657220616c72656164792065786973747300000000000000000000000000602082015260400190565b601481527f546869732075736572206e6f7420657869737473000000000000000000000000602082015260400190565b601b81527f596f752063616e6e6f7420616363657074207468697320757365720000000000602082015260400190565b602281527f4f6e6c792070656e64696e672075736572732063616e2062652072656a65637460208201527f6564000000000000000000000000000000000000000000000000000000000000604082015260600190565b601381527f737461747573206973206e6f742076616c696400000000000000000000000000602082015260400190565b601181527f6d656d626572206e6f7420657869737473000000000000000000000000000000602082015260400190565b601581527f4d656d62657220616c7265616479206578697374730000000000000000000000602082015260400190565b601181527f4d656d626572206e6f7420657869737473000000000000000000000000000000602082015260400190565b601281527f5468656d65206973206d616e6461746f72790000000000000000000000000000602082015260400190565b601081527f434d4f206973206d616e6461746f727900000000000000000000000000000000602082015260400190565b601481527f596f7520617265206e6f74206163636570746564000000000000000000000000602082015260400190565b601181527f4e616d65206973206d616e6461746f7279000000000000000000000000000000602082015260400190565b601181527f4e6f2076616c6964206d656d6265724964000000000000000000000000000000602082015260400190565b601981527f4372656174696f6e44617465206973206d616e6461746f727900000000000000602082015260400190565b80516000906101408401906155648582615737565b5060208301516155776020860182615737565b506040830151848203604086015261558f828261519e565b915050606083015184820360608601526155a9828261519e565b915050608083015184820360808601526155c3828261519e565b91505060a083015184820360a08601526155dd828261519e565b91505060c083015184820360c08601526155f7828261519e565b91505060e083015184820360e0860152615611828261513f565b91505061010083015184820361010086015261562d828261513f565b9150506101208301518482036101208601526156498282614f23565b95945050505050565b80516000906101408401906156678582615737565b506020830151848203602086015261567f828261519e565b91505060408301518482036040860152615699828261519e565b91505060608301516156ae6060860182615737565b5060808301516156c16080860182615737565b5060a083015184820360a08601526156d9828261519e565b91505060c08301516156ee60c0860182615195565b5060e083015161570160e0860182614f14565b5061010083015184820361010086015261571b828261519e565b9150506101208301518482036101208601526156498282614fe1565b614f1d81610fa6565b602080825281016148bd8184614f7a565b602080825281016148bd818461503c565b602080825281016148bd8184615097565b602080825281016148bd81846150f2565b60208101611470828461518c565b60208082528101611470816151d3565b6020808252810161147081615203565b6020808252810161147081615233565b6020808252810161147081615289565b60208082528101611470816152b9565b60208082528101611470816152e9565b6020808252810161147081615319565b602080825281016114708161536f565b602080825281016114708161539f565b60208082528101611470816153cf565b60208082528101611470816153ff565b602080825281016114708161542f565b602080825281016114708161545f565b602080825281016114708161548f565b60208082528101611470816154bf565b60208082528101611470816154ef565b602080825281016114708161551f565b602080825281016148bd8184615652565b602081016114708284615737565b60405181810167ffffffffffffffff811182821017156158e057600080fd5b604052919050565b600067ffffffffffffffff8211156158ff57600080fd5b5060209081020190565b600067ffffffffffffffff82111561592057600080fd5b506020601f91909101601f19160190565b60200190565b5190565b600160a060020a031690565b151590565b600060038210612b7957fe5b60006114708261594c565b82818337506000910152565b60005b8381101561598a578181015183820152602001615972565b8381111561158e5750506000910152565b601f01601f1916905600a265627a7a72305820880f6dab0b15911eadd83ad7170c6c08882b0fb45728a71d09f48900240662bc6c6578706572696d656e74616cf50037",
  "source": "pragma solidity ^0.4.24;\npragma experimental ABIEncoderV2;\n\nimport \"./Members.sol\";\nimport \"./Claims.sol\";\n\ncontract Users is Members {\n\n  struct User {\n    uint256 creationDate;\n    string firstName;\n    string lastName;\n    uint256 memberId;\n    uint256 requestId;\n    string role;\n    StatusUserEnum status;\n    address owner;  // primary key\n    string cmo;\n    string[] groups;\n  }\n\n  enum StatusUserEnum {\n    REJECTED,\n    PENDING,\n    ACCEPTED\n  }\n\n  mapping (address => User) private users_;\n  address[] private usersList_;\n\n  uint256 constant private PAGE_SIZE = 10;\n\n  // PUBLIC\n\n  function registerUserRequest(uint256 _creationDate, string _firstName, string _lastName, string _role, uint256 _memberId) public {\n\n    require(_memberId != 0, \"No valid memberId\");\n    require(_creationDate > 0, \"CreationDate is mandatory\");\n    require(users_[msg.sender].creationDate == 0, \"User already exists\");\n    require(_memberExists(_memberId), \"Member not exists\");\n\n    uint256 _requestId = Random.rand(_creationDate);\n    _saveUser(_creationDate, _firstName, _lastName, _memberId, _requestId, _role, uint256(StatusUserEnum.PENDING), msg.sender, 0);\n  }\n\n  function updateUser(string _firstName, string _lastName, uint256 _memberId, string _role, address owner) public {\n\n    require(users_[owner].owner > address(0), \"This user not exists\");\n    require(uint(users_[owner].status) == uint(StatusUserEnum.ACCEPTED), \"You are not accepted\");\n\n    uint256 _requestId = users_[owner].requestId;\n    uint256 _creationDate = users_[owner].creationDate;\n    uint256 _status = uint(users_[owner].status);\n\n    _saveUser(_creationDate, _firstName, _lastName, _memberId, _requestId, _role, _status, owner, 1);\n  }\n\n  function updateSuperUser(string _firstName, string _lastName, uint256 _memberId, string _role, address owner, string[] _groups) public {\n\n    users_[owner].firstName = _firstName;\n    users_[owner].lastName = _lastName;\n    users_[owner].groups = _groups;\n\n    for (uint i = 0; i < usersList_.length; ++i) {\n      if (keccak256(users_[usersList_[i]].cmo) == keccak256(users_[owner].cmo)) {\n        users_[usersList_[i]].groups = _groups;\n      }\n    }\n\n  }\n\n  function rejectUser(address _userToReject) public {\n\n    require(users_[_userToReject].owner > address(0), \"This user not exists\");\n    require((users_[msg.sender].memberId == users_[_userToReject].memberId) || isSigner(msg.sender), \"You cannot accept this user\");\n    require((uint(users_[msg.sender].status) == uint(StatusUserEnum.ACCEPTED)) || isSigner(msg.sender), \"You are not accepted\");\n    require(users_[_userToReject].status == StatusUserEnum.PENDING, \"Only pending users can be rejected\");\n\n    users_[_userToReject].status = StatusUserEnum.REJECTED;\n    _clearUserFromMemberRequest(users_[_userToReject].memberId, _userToReject);\n  }\n\n  function acceptUser(address _userToAccept) public {\n\n    require(users_[_userToAccept].owner > address(0), \"This user not exists\");\n    require((users_[msg.sender].memberId == users_[_userToAccept].memberId) || isSigner(msg.sender), \"You cannot accept this user\");\n    require((uint(users_[msg.sender].status) == uint(StatusUserEnum.ACCEPTED)) || isSigner(msg.sender), \"You are not accepted\");\n    require(users_[_userToAccept].status == StatusUserEnum.PENDING, \"Only pending users can be accepted\");\n\n    users_[_userToAccept].status = StatusUserEnum.ACCEPTED;\n    _clearUserFromMemberRequest(users_[_userToAccept].memberId, _userToAccept);\n  }\n\n  function getcountUsers() public view returns(uint) {\n    uint256 counter = 0;\n    for (uint i = 0; i < usersList_.length; ++i) {\n      if(users_[usersList_[i]].memberId == users_[msg.sender].memberId\n        && users_[usersList_[i]].status == StatusUserEnum.ACCEPTED) {\n        counter++;\n      }\n    }\n    return counter;\n  }\n\n  function whitelistAdmin(address account, string _cmo) public onlySigner {\n    _clearUserFromMemberRequest(users_[account].memberId, account);\n    users_[account].role = \"Super admin\";\n    users_[account].memberId = ++memberIdCounter_;\n    users_[account].cmo = _cmo;\n    users_[account].status = StatusUserEnum.ACCEPTED;\n    users_[account].groups = [\"test\"];\n    addSigner(account);\n  }\n\n  function getUsers(uint256 _page) public view returns(User[] memory) {\n    uint256 counter = getcountUsers();\n\n    uint256 pageIndex = SafeMath.mul(PAGE_SIZE, _page);\n    uint256 pageNumber = SafeMath.div(usersList_.length, PAGE_SIZE);\n\n    if (counter == 0 || pageIndex > counter || _page > pageNumber) {\n      return;\n    }\n\n    User[] memory userPageBasic = new User[](PAGE_SIZE);\n    uint256 counterFinal = 0;\n\n    for (uint j = pageIndex; j < usersList_.length; ++j) {\n      if(users_[usersList_[j]].memberId == users_[msg.sender].memberId\n        && users_[usersList_[j]].status == StatusUserEnum.ACCEPTED) {\n        userPageBasic[counterFinal] = users_[usersList_[j]];\n        ++counterFinal;\n      }\n    }\n    return userPageBasic;\n  }\n\n  function getUserByAddress(address userAddress) public view returns(User memory) {\n    return users_[userAddress];\n  }\n\n  function getUsersOwner() onlySigner public view returns(User[] memory) {\n    User[] memory userPageOwner = new User[](usersList_.length);\n\n    for (uint i = 0; i < usersList_.length; ++i) {\n      userPageOwner[i] = users_[usersList_[i]];\n    }\n\n    return userPageOwner;\n  }\n\n  function getMe() public view returns(User) {\n    //TODO: require\n    User memory user = users_[msg.sender];\n    return user;\n  }\n\n  // PRIVATE\n\n  function _saveUser(uint256 _creationDate, string _firstName, string _lastName, uint256 _memberId,\n    uint256 _requestId, string _role, uint256 _status, address owner, uint isCreate) internal {\n\n    require(_status >= 0 || _status <=2, \"status is not valid\");\n    require(bytes(_role).length != 0, \"role is mandatory\");\n\n    User memory user = users_[owner];\n\n    user.creationDate =  _creationDate;\n    user.firstName =  _firstName;\n    user.lastName =  _lastName;\n    user.memberId =  _memberId;\n    user.requestId =  _requestId;\n    user.role = _role;\n    user.status = StatusUserEnum(_status);\n    user.owner = owner;\n\n    users_[owner] = user;\n\n    if(isCreate == 0) {\n      usersList_.push(owner);\n//      if (users_[owner].status != StatusUserEnum.ACCEPTED) {\n      _addUserToMemberRequest(_memberId);\n//      }\n      users_[owner].groups = [\"test\"];                  // by default\n      users_[owner].cmo = members_[user.memberId].cmo;  // to initialize\n    }\n  }\n\n  function _memberIdFromCurrentAddress(address addr) view public returns(uint256) {\n    return users_[addr].memberId;\n  }\n\n}\n",
  "sourcePath": "/home/komodo/newUI2/bloomen-decentralized-rights-management-v2/truffle/contracts/registry/Users.sol",
  "compiler": {
    "name": "solc",
    "version": "0.4.24+commit.e67f0147.Emscripten.clang"
  },
  "schemaVersion": "2.0.1",
  "updatedAt": "2020-02-16T12:45:09.879Z"
}