{
  "contractName": "Users",
  "abi": [
    {
      "constant": false,
      "inputs": [
        {
          "name": "_cmo",
          "type": "string"
        }
      ],
      "name": "addCMO",
      "outputs": [],
      "payable": false,
      "stateMutability": "nonpayable",
      "type": "function"
    },
    {
      "constant": true,
      "inputs": [
        {
          "name": "_memberId",
          "type": "uint256"
        }
      ],
      "name": "_getClaimsIdByMember",
      "outputs": [
        {
          "name": "",
          "type": "uint256[]"
        }
      ],
      "payable": false,
      "stateMutability": "view",
      "type": "function"
    },
    {
      "constant": true,
      "inputs": [],
      "name": "getCMOs",
      "outputs": [
        {
          "name": "",
          "type": "string[]"
        }
      ],
      "payable": false,
      "stateMutability": "view",
      "type": "function"
    },
    {
      "constant": false,
      "inputs": [
        {
          "name": "_memberId",
          "type": "uint256"
        },
        {
          "name": "_claimId",
          "type": "uint256"
        }
      ],
      "name": "_addClaimFromInbox",
      "outputs": [],
      "payable": false,
      "stateMutability": "nonpayable",
      "type": "function"
    },
    {
      "constant": true,
      "inputs": [
        {
          "name": "account",
          "type": "address"
        }
      ],
      "name": "isSigner",
      "outputs": [
        {
          "name": "",
          "type": "bool"
        }
      ],
      "payable": false,
      "stateMutability": "view",
      "type": "function"
    },
    {
      "constant": false,
      "inputs": [
        {
          "name": "_memberId",
          "type": "uint256"
        },
        {
          "name": "_claimId",
          "type": "uint256"
        }
      ],
      "name": "_removeClaimFromInbox",
      "outputs": [],
      "payable": false,
      "stateMutability": "nonpayable",
      "type": "function"
    },
    {
      "constant": false,
      "inputs": [
        {
          "name": "currentCMO",
          "type": "string"
        },
        {
          "name": "currentCMOId",
          "type": "uint256"
        }
      ],
      "name": "_getMemberIdsOfCurrentCMO",
      "outputs": [
        {
          "name": "",
          "type": "uint256[]"
        }
      ],
      "payable": false,
      "stateMutability": "nonpayable",
      "type": "function"
    },
    {
      "constant": true,
      "inputs": [],
      "name": "getMembers",
      "outputs": [
        {
          "components": [
            {
              "name": "memberId",
              "type": "uint256"
            },
            {
              "name": "creationDate",
              "type": "uint256"
            },
            {
              "name": "name",
              "type": "string"
            },
            {
              "name": "logo",
              "type": "string"
            },
            {
              "name": "country",
              "type": "string"
            },
            {
              "name": "cmo",
              "type": "string"
            },
            {
              "name": "theme",
              "type": "string"
            },
            {
              "name": "claimInbox",
              "type": "uint256[]"
            },
            {
              "name": "claims",
              "type": "uint256[]"
            },
            {
              "name": "userRequests",
              "type": "address[]"
            },
            {
              "name": "totalTokens",
              "type": "uint256"
            }
          ],
          "name": "",
          "type": "tuple[]"
        }
      ],
      "payable": false,
      "stateMutability": "view",
      "type": "function"
    },
    {
      "constant": false,
      "inputs": [
        {
          "name": "_memberId",
          "type": "uint256"
        },
        {
          "name": "_claimId",
          "type": "uint256"
        }
      ],
      "name": "_removeClaimIdFromMember",
      "outputs": [],
      "payable": false,
      "stateMutability": "nonpayable",
      "type": "function"
    },
    {
      "constant": true,
      "inputs": [],
      "name": "getCount",
      "outputs": [
        {
          "name": "",
          "type": "uint256"
        }
      ],
      "payable": false,
      "stateMutability": "view",
      "type": "function"
    },
    {
      "constant": false,
      "inputs": [
        {
          "name": "_memberId",
          "type": "uint256"
        },
        {
          "name": "_claimId",
          "type": "uint256"
        }
      ],
      "name": "_removeClaimIdFromMember2",
      "outputs": [],
      "payable": false,
      "stateMutability": "nonpayable",
      "type": "function"
    },
    {
      "constant": true,
      "inputs": [
        {
          "name": "_memberId",
          "type": "uint256"
        }
      ],
      "name": "_getClaimsCountByMember",
      "outputs": [
        {
          "name": "",
          "type": "uint256"
        }
      ],
      "payable": false,
      "stateMutability": "view",
      "type": "function"
    },
    {
      "constant": false,
      "inputs": [
        {
          "name": "_index",
          "type": "uint256"
        }
      ],
      "name": "deleteCMO",
      "outputs": [],
      "payable": false,
      "stateMutability": "nonpayable",
      "type": "function"
    },
    {
      "constant": true,
      "inputs": [
        {
          "name": "_page",
          "type": "uint256"
        }
      ],
      "name": "getMembers",
      "outputs": [
        {
          "components": [
            {
              "name": "memberId",
              "type": "uint256"
            },
            {
              "name": "creationDate",
              "type": "uint256"
            },
            {
              "name": "name",
              "type": "string"
            },
            {
              "name": "logo",
              "type": "string"
            },
            {
              "name": "country",
              "type": "string"
            },
            {
              "name": "cmo",
              "type": "string"
            },
            {
              "name": "theme",
              "type": "string"
            },
            {
              "name": "claimInbox",
              "type": "uint256[]"
            },
            {
              "name": "claims",
              "type": "uint256[]"
            },
            {
              "name": "userRequests",
              "type": "address[]"
            },
            {
              "name": "totalTokens",
              "type": "uint256"
            }
          ],
          "name": "",
          "type": "tuple[]"
        }
      ],
      "payable": false,
      "stateMutability": "view",
      "type": "function"
    },
    {
      "constant": false,
      "inputs": [
        {
          "name": "_memberId",
          "type": "uint256"
        },
        {
          "name": "_creationDate",
          "type": "uint256"
        },
        {
          "name": "_name",
          "type": "string"
        },
        {
          "name": "_logo",
          "type": "string"
        },
        {
          "name": "_country",
          "type": "string"
        },
        {
          "name": "_cmo",
          "type": "string"
        },
        {
          "name": "_theme",
          "type": "string"
        },
        {
          "name": "_totalTokens",
          "type": "uint256"
        }
      ],
      "name": "updateMember",
      "outputs": [],
      "payable": false,
      "stateMutability": "nonpayable",
      "type": "function"
    },
    {
      "constant": false,
      "inputs": [
        {
          "name": "_memberId",
          "type": "uint256"
        },
        {
          "name": "_claimId",
          "type": "uint256"
        }
      ],
      "name": "_addClaimIdToMemberOwner",
      "outputs": [],
      "payable": false,
      "stateMutability": "nonpayable",
      "type": "function"
    },
    {
      "constant": false,
      "inputs": [],
      "name": "renounceSigner",
      "outputs": [],
      "payable": false,
      "stateMutability": "nonpayable",
      "type": "function"
    },
    {
      "constant": false,
      "inputs": [
        {
          "name": "account",
          "type": "address"
        }
      ],
      "name": "addSigner",
      "outputs": [],
      "payable": false,
      "stateMutability": "nonpayable",
      "type": "function"
    },
    {
      "constant": true,
      "inputs": [
        {
          "name": "_memberId",
          "type": "uint256"
        }
      ],
      "name": "_memberExists",
      "outputs": [
        {
          "name": "",
          "type": "bool"
        }
      ],
      "payable": false,
      "stateMutability": "view",
      "type": "function"
    },
    {
      "constant": false,
      "inputs": [
        {
          "name": "_creationDate",
          "type": "uint256"
        },
        {
          "name": "_name",
          "type": "string"
        },
        {
          "name": "_logo",
          "type": "string"
        },
        {
          "name": "_country",
          "type": "string"
        },
        {
          "name": "_cmo",
          "type": "string"
        },
        {
          "name": "_theme",
          "type": "string"
        }
      ],
      "name": "addMember",
      "outputs": [
        {
          "name": "",
          "type": "uint256"
        }
      ],
      "payable": false,
      "stateMutability": "nonpayable",
      "type": "function"
    },
    {
      "anonymous": false,
      "inputs": [
        {
          "indexed": true,
          "name": "account",
          "type": "address"
        }
      ],
      "name": "SignerAdded",
      "type": "event"
    },
    {
      "anonymous": false,
      "inputs": [
        {
          "indexed": true,
          "name": "account",
          "type": "address"
        }
      ],
      "name": "SignerRemoved",
      "type": "event"
    },
    {
      "constant": false,
      "inputs": [
        {
          "name": "_creationDate",
          "type": "uint256"
        },
        {
          "name": "_firstName",
          "type": "string"
        },
        {
          "name": "_lastName",
          "type": "string"
        },
        {
          "name": "_role",
          "type": "string"
        },
        {
          "name": "_memberId",
          "type": "uint256"
        }
      ],
      "name": "registerUserRequest",
      "outputs": [],
      "payable": false,
      "stateMutability": "nonpayable",
      "type": "function"
    },
    {
      "constant": false,
      "inputs": [
        {
          "name": "_firstName",
          "type": "string"
        },
        {
          "name": "_lastName",
          "type": "string"
        },
        {
          "name": "_memberId",
          "type": "uint256"
        },
        {
          "name": "_role",
          "type": "string"
        },
        {
          "name": "owner",
          "type": "address"
        },
        {
          "name": "_tokens",
          "type": "uint256"
        }
      ],
      "name": "updateUser",
      "outputs": [],
      "payable": false,
      "stateMutability": "nonpayable",
      "type": "function"
    },
    {
      "constant": false,
      "inputs": [
        {
          "name": "_memberId",
          "type": "uint256"
        }
      ],
      "name": "getUsedTokens",
      "outputs": [
        {
          "name": "",
          "type": "uint256"
        }
      ],
      "payable": false,
      "stateMutability": "nonpayable",
      "type": "function"
    },
    {
      "constant": false,
      "inputs": [
        {
          "name": "_firstName",
          "type": "string"
        },
        {
          "name": "_lastName",
          "type": "string"
        },
        {
          "name": "_memberId",
          "type": "uint256"
        },
        {
          "name": "_role",
          "type": "string"
        },
        {
          "name": "owner",
          "type": "address"
        },
        {
          "name": "_groups",
          "type": "string[]"
        }
      ],
      "name": "updateSuperUser",
      "outputs": [],
      "payable": false,
      "stateMutability": "nonpayable",
      "type": "function"
    },
    {
      "constant": false,
      "inputs": [
        {
          "name": "_userToReject",
          "type": "address"
        }
      ],
      "name": "rejectUser",
      "outputs": [],
      "payable": false,
      "stateMutability": "nonpayable",
      "type": "function"
    },
    {
      "constant": false,
      "inputs": [
        {
          "name": "_userToAccept",
          "type": "address"
        }
      ],
      "name": "acceptUser",
      "outputs": [],
      "payable": false,
      "stateMutability": "nonpayable",
      "type": "function"
    },
    {
      "constant": true,
      "inputs": [],
      "name": "getcountUsers",
      "outputs": [
        {
          "name": "",
          "type": "uint256"
        }
      ],
      "payable": false,
      "stateMutability": "view",
      "type": "function"
    },
    {
      "constant": false,
      "inputs": [
        {
          "name": "account",
          "type": "address"
        },
        {
          "name": "_cmo",
          "type": "string"
        }
      ],
      "name": "whitelistAdmin",
      "outputs": [],
      "payable": false,
      "stateMutability": "nonpayable",
      "type": "function"
    },
    {
      "constant": true,
      "inputs": [
        {
          "name": "_page",
          "type": "uint256"
        }
      ],
      "name": "getUsers",
      "outputs": [
        {
          "components": [
            {
              "name": "creationDate",
              "type": "uint256"
            },
            {
              "name": "firstName",
              "type": "string"
            },
            {
              "name": "lastName",
              "type": "string"
            },
            {
              "name": "memberId",
              "type": "uint256"
            },
            {
              "name": "requestId",
              "type": "uint256"
            },
            {
              "name": "role",
              "type": "string"
            },
            {
              "name": "status",
              "type": "uint8"
            },
            {
              "name": "owner",
              "type": "address"
            },
            {
              "name": "cmo",
              "type": "string"
            },
            {
              "name": "groups",
              "type": "string[]"
            },
            {
              "name": "tokens",
              "type": "uint256"
            }
          ],
          "name": "",
          "type": "tuple[]"
        }
      ],
      "payable": false,
      "stateMutability": "view",
      "type": "function"
    },
    {
      "constant": true,
      "inputs": [
        {
          "name": "userAddress",
          "type": "address"
        }
      ],
      "name": "getUserByAddress",
      "outputs": [
        {
          "components": [
            {
              "name": "creationDate",
              "type": "uint256"
            },
            {
              "name": "firstName",
              "type": "string"
            },
            {
              "name": "lastName",
              "type": "string"
            },
            {
              "name": "memberId",
              "type": "uint256"
            },
            {
              "name": "requestId",
              "type": "uint256"
            },
            {
              "name": "role",
              "type": "string"
            },
            {
              "name": "status",
              "type": "uint8"
            },
            {
              "name": "owner",
              "type": "address"
            },
            {
              "name": "cmo",
              "type": "string"
            },
            {
              "name": "groups",
              "type": "string[]"
            },
            {
              "name": "tokens",
              "type": "uint256"
            }
          ],
          "name": "",
          "type": "tuple"
        }
      ],
      "payable": false,
      "stateMutability": "view",
      "type": "function"
    },
    {
      "constant": true,
      "inputs": [],
      "name": "getUsersOwner",
      "outputs": [
        {
          "components": [
            {
              "name": "creationDate",
              "type": "uint256"
            },
            {
              "name": "firstName",
              "type": "string"
            },
            {
              "name": "lastName",
              "type": "string"
            },
            {
              "name": "memberId",
              "type": "uint256"
            },
            {
              "name": "requestId",
              "type": "uint256"
            },
            {
              "name": "role",
              "type": "string"
            },
            {
              "name": "status",
              "type": "uint8"
            },
            {
              "name": "owner",
              "type": "address"
            },
            {
              "name": "cmo",
              "type": "string"
            },
            {
              "name": "groups",
              "type": "string[]"
            },
            {
              "name": "tokens",
              "type": "uint256"
            }
          ],
          "name": "",
          "type": "tuple[]"
        }
      ],
      "payable": false,
      "stateMutability": "view",
      "type": "function"
    },
    {
      "constant": true,
      "inputs": [],
      "name": "getMe",
      "outputs": [
        {
          "components": [
            {
              "name": "creationDate",
              "type": "uint256"
            },
            {
              "name": "firstName",
              "type": "string"
            },
            {
              "name": "lastName",
              "type": "string"
            },
            {
              "name": "memberId",
              "type": "uint256"
            },
            {
              "name": "requestId",
              "type": "uint256"
            },
            {
              "name": "role",
              "type": "string"
            },
            {
              "name": "status",
              "type": "uint8"
            },
            {
              "name": "owner",
              "type": "address"
            },
            {
              "name": "cmo",
              "type": "string"
            },
            {
              "name": "groups",
              "type": "string[]"
            },
            {
              "name": "tokens",
              "type": "uint256"
            }
          ],
          "name": "",
          "type": "tuple"
        }
      ],
      "payable": false,
      "stateMutability": "view",
      "type": "function"
    },
    {
      "constant": true,
      "inputs": [
        {
          "name": "addr",
          "type": "address"
        }
      ],
      "name": "_memberIdFromCurrentAddress",
      "outputs": [
        {
          "name": "",
          "type": "uint256"
        }
      ],
      "payable": false,
      "stateMutability": "view",
      "type": "function"
    },
    {
      "constant": false,
      "inputs": [
        {
          "name": "addr",
          "type": "address"
        },
        {
          "name": "transactionPrice",
          "type": "uint256"
        }
      ],
      "name": "updateUserTokens",
      "outputs": [],
      "payable": false,
      "stateMutability": "nonpayable",
      "type": "function"
    },
    {
      "constant": true,
      "inputs": [
        {
          "name": "addr",
          "type": "address"
        }
      ],
      "name": "getUserTokensByAddress",
      "outputs": [
        {
          "name": "",
          "type": "uint256"
        }
      ],
      "payable": false,
      "stateMutability": "view",
      "type": "function"
    }
  ],
  "bytecode": "0x608060405260006003556200001d3364010000000062000023810204565b62000108565b6200003e6000826401000000006200487e6200007582021704565b604051600160a060020a038216907f47d1c22a25bb3a5d4e481b9b1e6944c2eade3181a0a20b495ed61d35b5323f2490600090a250565b600160a060020a03811615156200008b57600080fd5b620000a08282640100000000620000d0810204565b15620000ab57600080fd5b600160a060020a0316600090815260209190915260409020805460ff19166001179055565b6000600160a060020a0382161515620000e857600080fd5b50600160a060020a03166000908152602091909152604090205460ff1690565b615e9c80620001186000396000f3006080604052600436106101b65763ffffffff7c010000000000000000000000000000000000000000000000000000000060003504166308bdc24d81146101bb57806325f0473b146101dd5780633a59ccf1146101fd5780634dc928851461021d5780635d73ab9a1461023d5780636262dff614610273578063656d561c146102a057806369c212f6146102c257806374853239146102ef57806378e973541461030f5780637df73e271461032f5780638b92892b1461035c5780639249d7531461037c578063932191be146103a9578063989359df146103be5780639eab5253146103de578063a29d441f14610400578063a4fdc59414610420578063a7ed1fe414610435578063a87d942c14610455578063a9eff5111461046a578063abc48feb1461048a578063affccd84146104aa578063bcec99a6146104ca578063bf3d007e146104ea578063c11e1ff31461050a578063c477ecab1461051f578063d68dee9d1461053f578063e2c11f9e1461055f578063e5c8b03d1461057f578063eb12d61e14610594578063eff34e59146105b4578063f8380733146105d4578063fa1188c6146105f4578063fc81b52514610614575b600080fd5b3480156101c757600080fd5b506101db6101d6366004614ded565b610634565b005b3480156101e957600080fd5b506101db6101f8366004614fb0565b610831565b34801561020957600080fd5b506101db610218366004614e95565b6109cb565b34801561022957600080fd5b506101db610238366004614ded565b610a27565b34801561024957600080fd5b5061025d6102583660046150a7565b610b99565b60405161026a9190615c1f565b60405180910390f35b34801561027f57600080fd5b5061029361028e3660046150a7565b6110f2565b60405161026a9190615c30565b3480156102ac57600080fd5b506102b5611187565b60405161026a9190615bfd565b3480156102ce57600080fd5b506102e26102dd366004614ded565b611260565b60405161026a9190615d5f565b3480156102fb57600080fd5b506101db61030a366004615274565b61162f565b34801561031b57600080fd5b506101db61032a366004614e65565b611655565b34801561033b57600080fd5b5061034f61034a366004614ded565b61167b565b60405161026a9190615c41565b34801561036857600080fd5b506101db610377366004615274565b611693565b34801561038857600080fd5b5061039c610397366004614ded565b6117b1565b60405161026a9190615d70565b3480156103b557600080fd5b5061025d6117cf565b3480156103ca57600080fd5b506102936103d9366004615071565b611c3d565b3480156103ea57600080fd5b506103f3611e2e565b60405161026a9190615c0e565b34801561040c57600080fd5b506101db61041b366004615274565b6122ff565b34801561042c57600080fd5b5061039c61240f565b34801561044157600080fd5b506101db6104503660046151b7565b6124d5565b34801561046157600080fd5b5061039c61259c565b34801561047657600080fd5b506101db610485366004614e13565b6125b9565b34801561049657600080fd5b506101db6104a5366004615274565b612719565b3480156104b657600080fd5b5061039c6104c53660046150a7565b6127e8565b3480156104d657600080fd5b506101db6104e5366004614eca565b6127fd565b3480156104f657600080fd5b506101db6105053660046150a7565b612a59565b34801561051657600080fd5b506102e2612b16565b34801561052b57600080fd5b506103f361053a3660046150a7565b612ee7565b34801561054b57600080fd5b506101db61055a366004615293565b61340c565b34801561056b57600080fd5b506101db61057a366004615274565b6134ec565b34801561058b57600080fd5b506101db613512565b3480156105a057600080fd5b506101db6105af366004614ded565b61351d565b3480156105c057600080fd5b5061039c6105cf366004614ded565b61353a565b3480156105e057600080fd5b5061034f6105ef3660046150a7565b613558565b34801561060057600080fd5b5061039c61060f3660046150c5565b61356b565b34801561062057600080fd5b5061039c61062f3660046150a7565b613611565b600160a060020a038181166000908152600560205260408120600601546101009004909116116106825760405160e560020a62461bcd02815260040161067990615c8f565b60405180910390fd5b600160a060020a038116600090815260056020526040808220600390810154338452919092209091015414806106bc57506106bc3361167b565b15156106dd5760405160e560020a62461bcd02815260040161067990615c9f565b60023360009081526005602052604090206006015460ff16600281111561070057fe5b148061071057506107103361167b565b15156107315760405160e560020a62461bcd02815260040161067990615d1f565b6001600160a060020a03821660009081526005602052604090206006015460ff16600281111561075d57fe5b1461077d5760405160e560020a62461bcd02815260040161067990615c6f565b600160a060020a038116600090815260056020908152604080832060030154835260029091529020600a01546064101561082557600160a060020a038116600090815260056020526040902060068101805460ff19166002179055600301546107e690826136b2565b600160a060020a03811660009081526005602090815260408083206064600982015560030154835260029091529020600a01805460631901905561082e565b61082e81610a27565b50565b600160a060020a0382811660009081526005602052604081206006015490918291829161010090910416811061087c5760405160e560020a62461bcd02815260040161067990615c8f565b6002600160a060020a03861660009081526005602052604090206006015460ff1660028111156108a857fe5b146108c85760405160e560020a62461bcd02815260040161067990615d1f565b600160a060020a03851660009081526005602052604090206009015484101561092e57600160a060020a0385166000908152600560209081526040808320600981015460039091015484526002909252909120600a01805491869003909101905561096c565b600160a060020a0385166000908152600560209081526040808320600981015460039091015484526002909252909120600a01805491860390910390555b600160a060020a0385166000908152600560205260409020600981018590556004810154815460069092015490945090925060ff1660028111156109ac57fe5b90506109c0828a8a8a878b878c6001613817565b505050505050505050565b6109d43361167b565b15156109df57600080fd5b600180548082018083556000929092528251610a22917fb10e2d527612073b26eecdfd717e6a320cf44b4afac2b0732d9fcbe2b7fa0cf6019060208501906148cc565b505050565b600160a060020a03818116600090815260056020526040812060060154610100900490911611610a6c5760405160e560020a62461bcd02815260040161067990615c8f565b600160a060020a03811660009081526005602052604080822060039081015433845291909220909101541480610aa65750610aa63361167b565b1515610ac75760405160e560020a62461bcd02815260040161067990615c9f565b60023360009081526005602052604090206006015460ff166002811115610aea57fe5b1480610afa5750610afa3361167b565b1515610b1b5760405160e560020a62461bcd02815260040161067990615d1f565b6001600160a060020a03821660009081526005602052604090206006015460ff166002811115610b4757fe5b14610b675760405160e560020a62461bcd02815260040161067990615caf565b600160a060020a038116600090815260056020526040902060068101805460ff191690556003015461082e90826136b2565b606060008060006060600080610bad61240f565b9550610bba600a89613ed9565b600654909550610bcb90600a613f0e565b9350851580610bd957508585115b80610be357508388115b15610bed576110e7565b60408051600a808252610160820190925290816020015b610c0c614946565b815260200190600190039081610c04579050509250600091508490505b6006548110156110e3573360009081526005602081905260408220600301546006805491939185908110610c5957fe5b6000918252602080832090910154600160a060020a03168352820192909252604001902060030154148015610cd65750600260056000600684815481101515610c9e57fe5b6000918252602080832090910154600160a060020a0316835282019290925260400190206006015460ff166002811115610cd457fe5b145b156110db5760056000600683815481101515610cee57fe5b6000918252602080832090910154600160a060020a03168352828101939093526040918201902081516101608101835281548152600182810180548551601f6002600019958416156101000295909501909216939093049081018790048702830187019095528482529194929385840193919291830182828015610db35780601f10610d8857610100808354040283529160200191610db3565b820191906000526020600020905b815481529060010190602001808311610d9657829003601f168201915b5050509183525050600282810180546040805160206001841615610100026000190190931694909404601f81018390048302850183019091528084529381019390830182828015610e455780601f10610e1a57610100808354040283529160200191610e45565b820191906000526020600020905b815481529060010190602001808311610e2857829003601f168201915b505050505081526020016003820154815260200160048201548152602001600582018054600181600116156101000203166002900480601f016020809104026020016040519081016040528092919081815260200182805460018160011615610100020316600290048015610efb5780601f10610ed057610100808354040283529160200191610efb565b820191906000526020600020905b815481529060010190602001808311610ede57829003601f168201915b5050509183525050600682015460209091019060ff166002811115610f1c57fe5b6002811115610f2757fe5b8152600682015461010090819004600160a060020a031660208084019190915260078401805460408051600260018416159096026000190190921694909404601f810184900484028201840185528082529390940193929091830182828015610fd15780601f10610fa657610100808354040283529160200191610fd1565b820191906000526020600020905b815481529060010190602001808311610fb457829003601f168201915b5050505050815260200160088201805480602002602001604051908101604052809291908181526020016000905b828210156110aa5760008481526020908190208301805460408051601f60026000196101006001871615020190941693909304928301859004850281018501909152818152928301828280156110965780601f1061106b57610100808354040283529160200191611096565b820191906000526020600020905b81548152906001019060200180831161107957829003601f168201915b505050505081526020019060010190610fff565b50505050815260200160098201548152505083838151811015156110ca57fe5b602090810290910101526001909101905b600101610c29565b8296505b505050505050919050565b600081815260026020526040812054606091106111245760405160e560020a62461bcd02815260040161067990615ccf565b6000828152600260209081526040918290206008018054835181840281018401909452808452909183018282801561117b57602002820191906000526020600020905b815481526020019060010190808311611167575b50505050509050919050565b60606001805480602002602001604051908101604052809291908181526020016000905b828210156112565760008481526020908190208301805460408051601f60026000196101006001871615020190941693909304928301859004850281018501909152818152928301828280156112425780601f1061121757610100808354040283529160200191611242565b820191906000526020600020905b81548152906001019060200180831161122557829003601f168201915b5050505050815260200190600101906111ab565b5050505090505b90565b611268614946565b600160a060020a03821660009081526005602090815260409182902082516101608101845281548152600180830180548651600293821615610100026000190190911692909204601f810186900486028301860190965285825291949293858101939192919083018282801561131f5780601f106112f45761010080835404028352916020019161131f565b820191906000526020600020905b81548152906001019060200180831161130257829003601f168201915b5050509183525050600282810180546040805160206001841615610100026000190190931694909404601f810183900483028501830190915280845293810193908301828280156113b15780601f10611386576101008083540402835291602001916113b1565b820191906000526020600020905b81548152906001019060200180831161139457829003601f168201915b505050505081526020016003820154815260200160048201548152602001600582018054600181600116156101000203166002900480601f0160208091040260200160405190810160405280929190818152602001828054600181600116156101000203166002900480156114675780601f1061143c57610100808354040283529160200191611467565b820191906000526020600020905b81548152906001019060200180831161144a57829003601f168201915b5050509183525050600682015460209091019060ff16600281111561148857fe5b600281111561149357fe5b8152600682015461010090819004600160a060020a031660208084019190915260078401805460408051600260018416159096026000190190921694909404601f81018490048402820184018552808252939094019392909183018282801561153d5780601f106115125761010080835404028352916020019161153d565b820191906000526020600020905b81548152906001019060200180831161152057829003601f168201915b5050505050815260200160088201805480602002602001604051908101604052809291908181526020016000905b828210156116165760008481526020908190208301805460408051601f60026000196101006001871615020190941693909304928301859004850281018501909152818152928301828280156116025780601f106115d757610100808354040283529160200191611602565b820191906000526020600020905b8154815290600101906020018083116115e557829003601f168201915b50505050508152602001906001019061156b565b5050505081526020016009820154815250509050919050565b600091825260026020908152604083206007018054600181018255908452922090910155565b600160a060020a0390911660009081526005602052604090206009018054919091039055565b600061168d818363ffffffff613f3116565b92915050565b6000805b600084815260026020526040902060070154600019018110156117535760008481526002602052604090206007018054849190839081106116d457fe5b906000526020600020015414156116ea57600191505b811561174b57600084815260026020526040902060070180546001830190811061171057fe5b9060005260206000200154600260008681526020019081526020016000206007018281548110151561173e57fe5b6000918252602090912001555b600101611697565b81156117ab5760008481526002602052604090206007018054600019810190811061177a57fe5b6000918252602080832090910182905585825260029052604090206007018054906117a99060001983016149b5565b505b50505050565b600160a060020a031660009081526005602052604090206009015490565b60608060006117dd3361167b565b15156117e857600080fd5b60065460408051828152602080840282010190915290801561182457816020015b611811614946565b8152602001906001900390816118095790505b509150600090505b600654811015611c37576005600060068381548110151561184957fe5b6000918252602080832090910154600160a060020a03168352828101939093526040918201902081516101608101835281548152600182810180548551601f600260001995841615610100029590950190921693909304908101879004870283018701909552848252919492938584019391929183018282801561190e5780601f106118e35761010080835404028352916020019161190e565b820191906000526020600020905b8154815290600101906020018083116118f157829003601f168201915b5050509183525050600282810180546040805160206001841615610100026000190190931694909404601f810183900483028501830190915280845293810193908301828280156119a05780601f10611975576101008083540402835291602001916119a0565b820191906000526020600020905b81548152906001019060200180831161198357829003601f168201915b505050505081526020016003820154815260200160048201548152602001600582018054600181600116156101000203166002900480601f016020809104026020016040519081016040528092919081815260200182805460018160011615610100020316600290048015611a565780601f10611a2b57610100808354040283529160200191611a56565b820191906000526020600020905b815481529060010190602001808311611a3957829003601f168201915b5050509183525050600682015460209091019060ff166002811115611a7757fe5b6002811115611a8257fe5b8152600682015461010090819004600160a060020a031660208084019190915260078401805460408051600260018416159096026000190190921694909404601f810184900484028201840185528082529390940193929091830182828015611b2c5780601f10611b0157610100808354040283529160200191611b2c565b820191906000526020600020905b815481529060010190602001808311611b0f57829003601f168201915b5050505050815260200160088201805480602002602001604051908101604052809291908181526020016000905b82821015611c055760008481526020908190208301805460408051601f6002600019610100600187161502019094169390930492830185900485028101850190915281815292830182828015611bf15780601f10611bc657610100808354040283529160200191611bf1565b820191906000526020600020905b815481529060010190602001808311611bd457829003601f168201915b505050505081526020019060010190611b5a565b5050505081526020016009820154815250508282815181101515611c2557fe5b6020908102909101015260010161182c565b50919050565b60606000805b600454811015611dd857846040518082805190602001908083835b60208310611c7d5780518252601f199092019160209182019101611c5e565b6001836020036101000a03801982511681845116808217855250505050505090500191505060405180910390206000191660026000600484815481101515611cc157fe5b906000526020600020015481526020019081526020016000206005016040518082805460018160011615610100020316600290048015611d385780601f10611d16576101008083540402835291820191611d38565b820191906000526020600020905b815481529060010190602001808311611d24575b5050915050604051809103902060001916148015611d8557508360026000600484815481101515611d6557fe5b906000526020600020015481526020019081526020016000206000015414155b15611dd0578160026000600484815481101515611d9e57fe5b600091825260208083209091015483528281019390935260409091018120548354600181018555938252919020909101555b600101611c43565b815460408051602080840282018101909252828152918491830182828015611e1f57602002820191906000526020600020905b815481526020019060010190808311611e0b575b50505050509250505092915050565b6060806000600480549050604051908082528060200260200182016040528015611e7257816020015b611e5f6149d9565b815260200190600190039081611e575790505b509150600090505b600454811015611c375760026000600483815481101515611e9757fe5b9060005260206000200154815260200190815260200160002061016060405190810160405290816000820154815260200160018201548152602001600282018054600181600116156101000203166002900480601f016020809104026020016040519081016040528092919081815260200182805460018160011615610100020316600290048015611f6a5780601f10611f3f57610100808354040283529160200191611f6a565b820191906000526020600020905b815481529060010190602001808311611f4d57829003601f168201915b505050918352505060038201805460408051602060026001851615610100026000190190941693909304601f8101849004840282018401909252818152938201939291830182828015611ffe5780601f10611fd357610100808354040283529160200191611ffe565b820191906000526020600020905b815481529060010190602001808311611fe157829003601f168201915b505050918352505060048201805460408051602060026001851615610100026000190190941693909304601f81018490048402820184019092528181529382019392918301828280156120925780601f1061206757610100808354040283529160200191612092565b820191906000526020600020905b81548152906001019060200180831161207557829003601f168201915b505050918352505060058201805460408051602060026001851615610100026000190190941693909304601f81018490048402820184019092528181529382019392918301828280156121265780601f106120fb57610100808354040283529160200191612126565b820191906000526020600020905b81548152906001019060200180831161210957829003601f168201915b505050918352505060068201805460408051602060026001851615610100026000190190941693909304601f81018490048402820184019092528181529382019392918301828280156121ba5780601f1061218f576101008083540402835291602001916121ba565b820191906000526020600020905b81548152906001019060200180831161219d57829003601f168201915b505050505081526020016007820180548060200260200160405190810160405280929190818152602001828054801561221257602002820191906000526020600020905b8154815260200190600101908083116121fe575b505050505081526020016008820180548060200260200160405190810160405280929190818152602001828054801561226a57602002820191906000526020600020905b815481526020019060010190808311612256575b50505050508152602001600982018054806020026020016040519081016040528092919081815260200182805480156122cc57602002820191906000526020600020905b8154600160a060020a031681526001909101906020018083116122ae575b50505050508152602001600a8201548152505082828151811015156122ed57fe5b60209081029091010152600101611e7a565b6000805b600084815260026020526040902060080154600019018110156123bf57600084815260026020526040902060080180548491908390811061234057fe5b9060005260206000200154141561235657600191505b81156123b757600084815260026020526040902060080180546001830190811061237c57fe5b906000526020600020015460026000868152602001908152602001600020600801828154811015156123aa57fe5b6000918252602090912001555b600101612303565b6000848152600260205260409020600801805460001981019081106123e057fe5b6000918252602080832090910182905585825260029052604090206008018054906117a99060001983016149b5565b600080805b600654811015611c3757336000908152600560208190526040822060030154600680549193918590811061244457fe5b6000918252602080832090910154600160a060020a031683528201929092526040019020600301541480156124c1575060026005600060068481548110151561248957fe5b6000918252602080832090910154600160a060020a0316835282019290925260400190206006015460ff1660028111156124bf57fe5b145b156124cd576001909101905b600101612414565b60008115156124f95760405160e560020a62461bcd02815260040161067990615d3f565b6000861161251c5760405160e560020a62461bcd02815260040161067990615d4f565b336000908152600560205260409020541561254c5760405160e560020a62461bcd02815260040161067990615c7f565b61255582613558565b15156125765760405160e560020a62461bcd02815260040161067990615cef565b61257f86613f68565b90506125948686868585886001336000613817565b505050505050565b60006125a73361167b565b15156125b257600080fd5b5060045490565b6125c23361167b565b15156125cd57600080fd5b600160a060020a0382166000908152600560205260409020600301546125f390836136b2565b604080518082018252600b81527f53757065722061646d696e0000000000000000000000000000000000000000006020808301918252600160a060020a03861660009081526005918290529390932091516126529392909201916148cc565b5060038054600101808255600160a060020a038416600090815260056020908152604090912092830191909155825161269192600701918401906148cc565b50600160a060020a038216600081815260056020818152604080842060068101805460ff19166002179055815160608101835260048185019081527f746573740000000000000000000000000000000000000000000000000000000093820193909352918252949093525261270b91600801906001614a34565b506127158261351d565b5050565b60008281526002602052604081206008015490811115610a225760008381526002602052604090206008018054600019830190811061275457fe5b9060005260206000200154600260008581526020019081526020016000206008018381548110151561278257fe5b90600052602060002001819055508160026000858152602001908152602001600020600801600183038154811015156127b757fe5b60009182526020808320909101929092558481526002909152604090206008018054906117ab9060001983016149b5565b60009081526002602052604090206008015490565b600160a060020a03821660009081526005602090815260408220885161282b926001909201918a01906148cc565b50600160a060020a0383166000908152600560209081526040909120875161285b926002909201918901906148cc565b50600160a060020a0383166000908152600560209081526040909120835161288b92600890920191850190614a8d565b50600090505b600654811015612a50576005600084600160a060020a0316600160a060020a03168152602001908152602001600020600701604051808280546001816001161561010002031660029004801561291e5780601f106128fc57610100808354040283529182019161291e565b820191906000526020600020905b81548152906001019060200180831161290a575b50509150506040518091039020600019166005600060068481548110151561294257fe5b9060005260206000200160009054906101000a9004600160a060020a0316600160a060020a0316600160a060020a0316815260200190815260200160002060070160405180828054600181600116156101000203166002900480156129de5780601f106129bc5761010080835404028352918201916129de565b820191906000526020600020905b8154815290600101906020018083116129ca575b50509150506040518091039020600019161415612a48578160056000600684815481101515612a0957fe5b6000918252602080832090910154600160a060020a0316835282810193909352604090910190208251612a46936008909201929190910190614a8d565b505b600101612891565b50505050505050565b6000612a643361167b565b1515612a6f57600080fd5b50805b60015460001901811015612adb5760018054828201908110612a9057fe5b90600052602060002001600182815481101515612aa957fe5b906000526020600020019080546001816001161561010002031660029004612ad2929190614ada565b50600101612a72565b600180546000198101908110612aed57fe5b906000526020600020016000612b039190614b4f565b6001805490610a22906000198301614b93565b612b1e614946565b612b26614946565b3360009081526005602090815260409182902082516101608101845281548152600180830180548651600293821615610100026000190190911692909204601f8101869004860283018601909652858252919492938581019391929190830182828015612bd45780601f10612ba957610100808354040283529160200191612bd4565b820191906000526020600020905b815481529060010190602001808311612bb757829003601f168201915b5050509183525050600282810180546040805160206001841615610100026000190190931694909404601f81018390048302850183019091528084529381019390830182828015612c665780601f10612c3b57610100808354040283529160200191612c66565b820191906000526020600020905b815481529060010190602001808311612c4957829003601f168201915b505050505081526020016003820154815260200160048201548152602001600582018054600181600116156101000203166002900480601f016020809104026020016040519081016040528092919081815260200182805460018160011615610100020316600290048015612d1c5780601f10612cf157610100808354040283529160200191612d1c565b820191906000526020600020905b815481529060010190602001808311612cff57829003601f168201915b5050509183525050600682015460209091019060ff166002811115612d3d57fe5b6002811115612d4857fe5b8152600682015461010090819004600160a060020a031660208084019190915260078401805460408051600260018416159096026000190190921694909404601f810184900484028201840185528082529390940193929091830182828015612df25780601f10612dc757610100808354040283529160200191612df2565b820191906000526020600020905b815481529060010190602001808311612dd557829003601f168201915b5050505050815260200160088201805480602002602001604051908101604052809291908181526020016000905b82821015612ecb5760008481526020908190208301805460408051601f6002600019610100600187161502019094169390930492830185900485028101850190915281815292830182828015612eb75780601f10612e8c57610100808354040283529160200191612eb7565b820191906000526020600020905b815481529060010190602001808311612e9a57829003601f168201915b505050505081526020019060010190612e20565b50505050815260200160098201548152505090508091505b5090565b6060600080600060606000612efd600a88613ed9565b600454909550612f0e90600a613f0e565b6004549094501580612f2557506004546000190185115b80612f2f57508387115b15612f3957613402565b60408051600a80825261016082019092526000945090816020015b612f5c6149d9565b815260200190600190039081612f545790505091508490505b6004548110156133fe5760026000600483815481101515612f9257fe5b9060005260206000200154815260200190815260200160002061016060405190810160405290816000820154815260200160018201548152602001600282018054600181600116156101000203166002900480601f0160208091040260200160405190810160405280929190818152602001828054600181600116156101000203166002900480156130655780601f1061303a57610100808354040283529160200191613065565b820191906000526020600020905b81548152906001019060200180831161304857829003601f168201915b505050918352505060038201805460408051602060026001851615610100026000190190941693909304601f81018490048402820184019092528181529382019392918301828280156130f95780601f106130ce576101008083540402835291602001916130f9565b820191906000526020600020905b8154815290600101906020018083116130dc57829003601f168201915b505050918352505060048201805460408051602060026001851615610100026000190190941693909304601f810184900484028201840190925281815293820193929183018282801561318d5780601f106131625761010080835404028352916020019161318d565b820191906000526020600020905b81548152906001019060200180831161317057829003601f168201915b505050918352505060058201805460408051602060026001851615610100026000190190941693909304601f81018490048402820184019092528181529382019392918301828280156132215780601f106131f657610100808354040283529160200191613221565b820191906000526020600020905b81548152906001019060200180831161320457829003601f168201915b505050918352505060068201805460408051602060026001851615610100026000190190941693909304601f81018490048402820184019092528181529382019392918301828280156132b55780601f1061328a576101008083540402835291602001916132b5565b820191906000526020600020905b81548152906001019060200180831161329857829003601f168201915b505050505081526020016007820180548060200260200160405190810160405280929190818152602001828054801561330d57602002820191906000526020600020905b8154815260200190600101908083116132f9575b505050505081526020016008820180548060200260200160405190810160405280929190818152602001828054801561336557602002820191906000526020600020905b815481526020019060010190808311613351575b50505050508152602001600982018054806020026020016040519081016040528092919081815260200182805480156133c757602002820191906000526020600020905b8154600160a060020a031681526001909101906020018083116133a9575b50505050508152602001600a8201548152505082848151811015156133e857fe5b6020908102909101015260019283019201612f75565b8195505b5050505050919050565b6134153361167b565b151561342057600080fd5b6000888152600260205260408120541161344f5760405160e560020a62461bcd02815260040161067990615cef565b60008881526002602052604090206001015487146134825760405160e560020a62461bcd02815260040161067990615c4f565b600088815260026020818152604090922088516134a7939190920191908901906148cc565b50600088815260026020908152604090912083516134cd926006909201918501906148cc565b50600097885260026020526040909720600a0196909655505050505050565b600091825260026020908152604083206008018054600181018255908452922090910155565b61351b33614157565b565b6135263361167b565b151561353157600080fd5b61082e8161419f565b600160a060020a031660009081526005602052604090206003015490565b6000908152600260205260408120541190565b6000806135773361167b565b151561358257600080fd5b600088116135a55760405160e560020a62461bcd02815260040161067990615d4f565b506003805460010190819055600081815260026020526040902054156135e05760405160e560020a62461bcd02815260040161067990615cdf565b6135ef818989898989896141e7565b60008181526002602052604090206103e8600a90910155979650505050505050565b600080805b6006548110156136ab57836005600060068481548110151561363457fe5b6000918252602080832090910154600160a060020a0316835282019290925260400190206003015414156136a3576005600060068381548110151561367557fe5b6000918252602080832090910154600160a060020a0316835282019290925260400190206009015491909101905b600101613616565b5092915050565b6000805b600084815260026020526040902060090154600019018110156137af5760008481526002602052604090206009018054600160a060020a0385169190839081106136fc57fe5b600091825260209091200154600160a060020a0316141561371c57600191505b81156137a757600084815260026020526040902060090180546001830190811061374257fe5b6000918252602080832090910154868352600290915260409091206009018054600160a060020a03909216918390811061377857fe5b9060005260206000200160006101000a815481600160a060020a030219169083600160a060020a031602179055505b6001016136b6565b6000848152600260205260409020600901805460001981019081106137d057fe5b60009182526020808320909101805473ffffffffffffffffffffffffffffffffffffffff1916905585825260029052604090206009018054906117a99060001983016149b5565b61381f614946565b600084101580613830575060028411155b15156138515760405160e560020a62461bcd02815260040161067990615cbf565b845115156138745760405160e560020a62461bcd02815260040161067990615c5f565b600160a060020a03831660009081526005602090815260409182902082516101608101845281548152600180830180548651600293821615610100026000190190911692909204601f810186900486028301860190965285825291949293858101939192919083018282801561392b5780601f106139005761010080835404028352916020019161392b565b820191906000526020600020905b81548152906001019060200180831161390e57829003601f168201915b5050509183525050600282810180546040805160206001841615610100026000190190931694909404601f810183900483028501830190915280845293810193908301828280156139bd5780601f10613992576101008083540402835291602001916139bd565b820191906000526020600020905b8154815290600101906020018083116139a057829003601f168201915b505050505081526020016003820154815260200160048201548152602001600582018054600181600116156101000203166002900480601f016020809104026020016040519081016040528092919081815260200182805460018160011615610100020316600290048015613a735780601f10613a4857610100808354040283529160200191613a73565b820191906000526020600020905b815481529060010190602001808311613a5657829003601f168201915b5050509183525050600682015460209091019060ff166002811115613a9457fe5b6002811115613a9f57fe5b8152600682015461010090819004600160a060020a031660208084019190915260078401805460408051600260018416159096026000190190921694909404601f810184900484028201840185528082529390940193929091830182828015613b495780601f10613b1e57610100808354040283529160200191613b49565b820191906000526020600020905b815481529060010190602001808311613b2c57829003601f168201915b5050505050815260200160088201805480602002602001604051908101604052809291908181526020016000905b82821015613c225760008481526020908190208301805460408051601f6002600019610100600187161502019094169390930492830185900485028101850190915281815292830182828015613c0e5780601f10613be357610100808354040283529160200191613c0e565b820191906000526020600020905b815481529060010190602001808311613bf157829003601f168201915b505050505081526020019060010190613b77565b50505090825250600991909101546020918201528b825281018a905260408101899052606081018890526080810187905260a081018690529050836002811115613c6857fe5b8160c001906002811115613c7857fe5b90816002811115613c8557fe5b905250600160a060020a03831660e082018190526000908152600560209081526040909120825181558183015180518493613cc79260018501929101906148cc565b5060408201518051613ce39160028401916020909101906148cc565b50606082015160038201556080820151600482015560a08201518051613d139160058401916020909101906148cc565b5060c082015160068201805460ff19166001836002811115613d3157fe5b021790555060e082015160068201805474ffffffffffffffffffffffffffffffffffffffff001916610100600160a060020a0390931683021790558201518051613d859160078401916020909101906148cc565b506101208201518051613da2916008840191602090910190614bb7565b506101409190910151600990910155811515613ecd57600680546001810182556000919091527ff652222313e28459528d920b65115c16c04f3efc82aaedc97be59f3f377c0d3f01805473ffffffffffffffffffffffffffffffffffffffff1916600160a060020a038516179055613e19876147f2565b60408051606081018252600460208281019182527f746573740000000000000000000000000000000000000000000000000000000083850152908252600160a060020a0386166000908152600590915291909120613e7e916008909101906001614a34565b5060608101516000908152600260208181526040808420600160a060020a0388168552600592839052932092018054613ecb93600701926000196101006001841615020190911604614ada565b505b50505050505050505050565b600080831515613eec57600091506136ab565b50828202828482811515613efc57fe5b0414613f0757600080fd5b9392505050565b600080808311613f1d57600080fd5b8284811515613f2857fe5b04949350505050565b6000600160a060020a0382161515613f4857600080fd5b50600160a060020a03166000908152602091909152604090205460ff1690565b6000808080600285061515613ffa5784604051602001808281526020019150506040516020818303038152906040526040518082805190602001908083835b60208310613fc65780518252601f199092019160209182019101613fa7565b6001836020036101000a038019825116818451168082178552505050505050905001915050604051809103902092506140e5565b84604051602001808281526020019150506040516020818303038152906040526040518082805190602001908083835b602083106140495780518252601f19909201916020918201910161402a565b51815160209384036101000a600019018019909216911617905260408051929094018290038220828201528351808303820181529184019384905281519195509293508392850191508083835b602083106140b55780518252601f199092019160209182019101614096565b6001836020036101000a038019825116818451168082178552505050505050905001915050604051809103902092505b6020811015614112578281602081106140fa57fe5b60f860020a91901a81020491909101906001016140e5565b82602060028401066020811061412457fe5b60f860020a91901a81020483602084066020811061413e57fe5b1a60f860020a0260f860020a9004029350505050919050565b61416860008263ffffffff61483216565b604051600160a060020a038216907f3525e22824a8a7df2c9a6029941c824cf95b6447f1e13d5128fd3826d35afe8b90600090a250565b6141b060008263ffffffff61487e16565b604051600160a060020a038216907f47d1c22a25bb3a5d4e481b9b1e6944c2eade3181a0a20b495ed61d35b5323f2490600090a250565b6141ef6149d9565b855115156142125760405160e560020a62461bcd02815260040161067990615d2f565b825115156142355760405160e560020a62461bcd02815260040161067990615d0f565b815115156142585760405160e560020a62461bcd02815260040161067990615cff565b6000888152600260208181526040928390208351610160810185528154815260018083015482850152828501805487519281161561010002600019011695909504601f810185900485028201850187528082529195929492860193909291908301828280156143085780601f106142dd57610100808354040283529160200191614308565b820191906000526020600020905b8154815290600101906020018083116142eb57829003601f168201915b505050918352505060038201805460408051602060026001851615610100026000190190941693909304601f810184900484028201840190925281815293820193929183018282801561439c5780601f106143715761010080835404028352916020019161439c565b820191906000526020600020905b81548152906001019060200180831161437f57829003601f168201915b505050918352505060048201805460408051602060026001851615610100026000190190941693909304601f81018490048402820184019092528181529382019392918301828280156144305780601f1061440557610100808354040283529160200191614430565b820191906000526020600020905b81548152906001019060200180831161441357829003601f168201915b505050918352505060058201805460408051602060026001851615610100026000190190941693909304601f81018490048402820184019092528181529382019392918301828280156144c45780601f10614499576101008083540402835291602001916144c4565b820191906000526020600020905b8154815290600101906020018083116144a757829003601f168201915b505050918352505060068201805460408051602060026001851615610100026000190190941693909304601f81018490048402820184019092528181529382019392918301828280156145585780601f1061452d57610100808354040283529160200191614558565b820191906000526020600020905b81548152906001019060200180831161453b57829003601f168201915b50505050508152602001600782018054806020026020016040519081016040528092919081815260200182805480156145b057602002820191906000526020600020905b81548152602001906001019080831161459c575b505050505081526020016008820180548060200260200160405190810160405280929190818152602001828054801561460857602002820191906000526020600020905b8154815260200190600101908083116145f4575b505050505081526020016009820180548060200260200160405190810160405280929190818152602001828054801561466a57602002820191906000526020600020905b8154600160a060020a0316815260019091019060200180831161464c575b5050509183525050600a919091015460209182015289825281810189815260408084018a8152606085018a90526080850189905260a0850188905260c0850187905260008d815260028086529290208551815592516001840155518051949550859492936146de93928501929101906148cc565b50606082015180516146fa9160038401916020909101906148cc565b50608082015180516147169160048401916020909101906148cc565b5060a082015180516147329160058401916020909101906148cc565b5060c0820151805161474e9160068401916020909101906148cc565b5060e0820151805161476a916007840191602090910190614c04565b506101008201518051614787916008840191602090910190614c04565b5061012082015180516147a4916009840191602090910190614c3e565b506101409190910151600a909101555050600480546001810182556000919091527f8a35acfbc15ff81a39ae7d344fd709f28e8600b4aa8c65c6b64bfe7fe36bd19b01959095555050505050565b600090815260026020908152604082206009018054600181018255908352912001805473ffffffffffffffffffffffffffffffffffffffff191633179055565b600160a060020a038116151561484757600080fd5b6148518282613f31565b151561485c57600080fd5b600160a060020a0316600090815260209190915260409020805460ff19169055565b600160a060020a038116151561489357600080fd5b61489d8282613f31565b156148a757600080fd5b600160a060020a0316600090815260209190915260409020805460ff19166001179055565b828054600181600116156101000203166002900490600052602060002090601f016020900481019282601f1061490d57805160ff191683800117855561493a565b8280016001018555821561493a579182015b8281111561493a57825182559160200191906001019061491f565b50612ee3929150614cac565b610160604051908101604052806000815260200160608152602001606081526020016000815260200160008152602001606081526020016000600281111561498a57fe5b81526020016000600160a060020a031681526020016060815260200160608152602001600081525090565b815481835581811115610a2257600083815260209020610a22918101908301614cac565b6101606040519081016040528060008152602001600081526020016060815260200160608152602001606081526020016060815260200160608152602001606081526020016060815260200160608152602001600081525090565b828054828255906000526020600020908101928215614a81579160200282015b82811115614a815782518051614a719184916020909101906148cc565b5091602001919060010190614a54565b50612ee3929150614cc6565b828054828255906000526020600020908101928215614a81579160200282015b82811115614a815782518051614aca9184916020909101906148cc565b5091602001919060010190614aad565b828054600181600116156101000203166002900490600052602060002090601f016020900481019282601f10614b13578054855561493a565b8280016001018555821561493a57600052602060002091601f016020900482015b8281111561493a578254825591600101919060010190614b34565b50805460018160011615610100020316600290046000825580601f10614b75575061082e565b601f01602090049060005260206000209081019061082e9190614cac565b815481835581811115610a2257600083815260209020610a22918101908301614cc6565b828054828255906000526020600020908101928215614a81579160200282015b82811115614a815782518051614bf49184916020909101906148cc565b5091602001919060010190614bd7565b82805482825590600052602060002090810192821561493a579160200282018281111561493a57825182559160200191906001019061491f565b828054828255906000526020600020908101928215614ca0579160200282015b82811115614ca0578251825473ffffffffffffffffffffffffffffffffffffffff1916600160a060020a03909116178255602090920191600190910190614c5e565b50612ee3929150614ce9565b61125d91905b80821115612ee35760008155600101614cb2565b61125d91905b80821115612ee3576000614ce08282614b4f565b50600101614ccc565b61125d91905b80821115612ee357805473ffffffffffffffffffffffffffffffffffffffff19168155600101614cef565b6000613f078235615df8565b6000601f82018313614d3757600080fd5b8135614d4a614d4582615da5565b615d7e565b81815260209384019390925082018360005b83811015614d885781358601614d728882614d92565b8452506020928301929190910190600101614d5c565b5050505092915050565b6000601f82018313614da357600080fd5b8135614db1614d4582615dc6565b91508082526020830160208301858383011115614dcd57600080fd5b614dd8838284615e20565b50505092915050565b6000613f07823561125d565b600060208284031215614dff57600080fd5b6000614e0b8484614d1a565b949350505050565b60008060408385031215614e2657600080fd5b6000614e328585614d1a565b925050602083013567ffffffffffffffff811115614e4f57600080fd5b614e5b85828601614d92565b9150509250929050565b60008060408385031215614e7857600080fd5b6000614e848585614d1a565b9250506020614e5b85828601614de1565b600060208284031215614ea757600080fd5b813567ffffffffffffffff811115614ebe57600080fd5b614e0b84828501614d92565b60008060008060008060c08789031215614ee357600080fd5b863567ffffffffffffffff811115614efa57600080fd5b614f0689828a01614d92565b965050602087013567ffffffffffffffff811115614f2357600080fd5b614f2f89828a01614d92565b9550506040614f4089828a01614de1565b945050606087013567ffffffffffffffff811115614f5d57600080fd5b614f6989828a01614d92565b9350506080614f7a89828a01614d1a565b92505060a087013567ffffffffffffffff811115614f9757600080fd5b614fa389828a01614d26565b9150509295509295509295565b60008060008060008060c08789031215614fc957600080fd5b863567ffffffffffffffff811115614fe057600080fd5b614fec89828a01614d92565b965050602087013567ffffffffffffffff81111561500957600080fd5b61501589828a01614d92565b955050604061502689828a01614de1565b945050606087013567ffffffffffffffff81111561504357600080fd5b61504f89828a01614d92565b935050608061506089828a01614d1a565b92505060a0614fa389828a01614de1565b6000806040838503121561508457600080fd5b823567ffffffffffffffff81111561509b57600080fd5b614e8485828601614d92565b6000602082840312156150b957600080fd5b6000614e0b8484614de1565b60008060008060008060c087890312156150de57600080fd5b60006150ea8989614de1565b965050602087013567ffffffffffffffff81111561510757600080fd5b61511389828a01614d92565b955050604087013567ffffffffffffffff81111561513057600080fd5b61513c89828a01614d92565b945050606087013567ffffffffffffffff81111561515957600080fd5b61516589828a01614d92565b935050608087013567ffffffffffffffff81111561518257600080fd5b61518e89828a01614d92565b92505060a087013567ffffffffffffffff8111156151ab57600080fd5b614fa389828a01614d92565b600080600080600060a086880312156151cf57600080fd5b60006151db8888614de1565b955050602086013567ffffffffffffffff8111156151f857600080fd5b61520488828901614d92565b945050604086013567ffffffffffffffff81111561522157600080fd5b61522d88828901614d92565b935050606086013567ffffffffffffffff81111561524a57600080fd5b61525688828901614d92565b925050608061526788828901614de1565b9150509295509295909350565b6000806040838503121561528757600080fd5b6000614e848585614de1565b600080600080600080600080610100898b0312156152b057600080fd5b60006152bc8b8b614de1565b98505060206152cd8b828c01614de1565b975050604089013567ffffffffffffffff8111156152ea57600080fd5b6152f68b828c01614d92565b965050606089013567ffffffffffffffff81111561531357600080fd5b61531f8b828c01614d92565b955050608089013567ffffffffffffffff81111561533c57600080fd5b6153488b828c01614d92565b94505060a089013567ffffffffffffffff81111561536557600080fd5b6153718b828c01614d92565b93505060c089013567ffffffffffffffff81111561538e57600080fd5b61539a8b828c01614d92565b92505060e06153ab8b828c01614de1565b9150509295985092959890939650565b6153c481615df8565b82525050565b60006153d582615df4565b8084526020840193506153e783615dee565b60005b82811015615417576153fd8683516153bb565b61540682615dee565b6020969096019591506001016153ea565b5093949350505050565b600061542c82615df4565b8084526020840193508360208202850161544585615dee565b60005b8481101561547c578383038852615460838351615645565b925061546b82615dee565b602098909801979150600101615448565b50909695505050505050565b600061549382615df4565b808452602084019350836020820285016154ac85615dee565b60005b8481101561547c5783830388526154c7838351615645565b92506154d282615dee565b6020989098019791506001016154af565b60006154ee82615df4565b8084526020840193508360208202850161550785615dee565b60005b8481101561547c5783830388526155228383516159f6565b925061552d82615dee565b60209890980197915060010161550a565b600061554982615df4565b8084526020840193508360208202850161556285615dee565b60005b8481101561547c57838303885261557d838351615b0f565b925061558882615dee565b602098909801979150600101615565565b60006155a482615df4565b8084526020840193506155b683615dee565b60005b82811015615417576155cc868351615bf4565b6155d582615dee565b6020969096019591506001016155b9565b60006155f182615df4565b80845260208401935061560383615dee565b60005b8281101561541757615619868351615bf4565b61562282615dee565b602096909601959150600101615606565b6153c481615e04565b6153c481615e15565b600061565082615df4565b808452615664816020860160208601615e2c565b61566d81615e58565b9093016020019392505050565b601a81527f4372656174696f6e204461746520697320696d6d757461626c65000000000000602082015260400190565b601181527f726f6c65206973206d616e6461746f7279000000000000000000000000000000602082015260400190565b602281527f4f6e6c792070656e64696e672075736572732063616e2062652061636365707460208201527f6564000000000000000000000000000000000000000000000000000000000000604082015260600190565b601381527f5573657220616c72656164792065786973747300000000000000000000000000602082015260400190565b601481527f546869732075736572206e6f7420657869737473000000000000000000000000602082015260400190565b601b81527f596f752063616e6e6f7420616363657074207468697320757365720000000000602082015260400190565b602281527f4f6e6c792070656e64696e672075736572732063616e2062652072656a65637460208201527f6564000000000000000000000000000000000000000000000000000000000000604082015260600190565b601381527f737461747573206973206e6f742076616c696400000000000000000000000000602082015260400190565b601181527f6d656d626572206e6f7420657869737473000000000000000000000000000000602082015260400190565b601581527f4d656d62657220616c7265616479206578697374730000000000000000000000602082015260400190565b601181527f4d656d626572206e6f7420657869737473000000000000000000000000000000602082015260400190565b601281527f5468656d65206973206d616e6461746f72790000000000000000000000000000602082015260400190565b601081527f434d4f206973206d616e6461746f727900000000000000000000000000000000602082015260400190565b601481527f596f7520617265206e6f74206163636570746564000000000000000000000000602082015260400190565b601181527f4e616d65206973206d616e6461746f7279000000000000000000000000000000602082015260400190565b601181527f4e6f2076616c6964206d656d6265724964000000000000000000000000000000602082015260400190565b601981527f4372656174696f6e44617465206973206d616e6461746f727900000000000000602082015260400190565b8051600090610160840190615a0b8582615bf4565b506020830151615a1e6020860182615bf4565b5060408301518482036040860152615a368282615645565b91505060608301518482036060860152615a508282615645565b91505060808301518482036080860152615a6a8282615645565b91505060a083015184820360a0860152615a848282615645565b91505060c083015184820360c0860152615a9e8282615645565b91505060e083015184820360e0860152615ab882826155e6565b915050610100830151848203610100860152615ad482826155e6565b915050610120830151848203610120860152615af082826153ca565b915050610140830151615b07610140860182615bf4565b509392505050565b8051600090610160840190615b248582615bf4565b5060208301518482036020860152615b3c8282615645565b91505060408301518482036040860152615b568282615645565b9150506060830151615b6b6060860182615bf4565b506080830151615b7e6080860182615bf4565b5060a083015184820360a0860152615b968282615645565b91505060c0830151615bab60c086018261563c565b5060e0830151615bbe60e08601826153bb565b50610100830151848203610100860152615bd88282615645565b915050610120830151848203610120860152615af08282615488565b6153c48161125d565b60208082528101613f078184615421565b60208082528101613f0781846154e3565b60208082528101613f07818461553e565b60208082528101613f078184615599565b6020810161168d8284615633565b6020808252810161168d8161567a565b6020808252810161168d816156aa565b6020808252810161168d816156da565b6020808252810161168d81615730565b6020808252810161168d81615760565b6020808252810161168d81615790565b6020808252810161168d816157c0565b6020808252810161168d81615816565b6020808252810161168d81615846565b6020808252810161168d81615876565b6020808252810161168d816158a6565b6020808252810161168d816158d6565b6020808252810161168d81615906565b6020808252810161168d81615936565b6020808252810161168d81615966565b6020808252810161168d81615996565b6020808252810161168d816159c6565b60208082528101613f078184615b0f565b6020810161168d8284615bf4565b60405181810167ffffffffffffffff81118282101715615d9d57600080fd5b604052919050565b600067ffffffffffffffff821115615dbc57600080fd5b5060209081020190565b600067ffffffffffffffff821115615ddd57600080fd5b506020601f91909101601f19160190565b60200190565b5190565b600160a060020a031690565b151590565b600060038210612ee357fe5b600061168d82615e09565b82818337506000910152565b60005b83811015615e47578181015183820152602001615e2f565b838111156117ab5750506000910152565b601f01601f1916905600a265627a7a72305820e707fe306162d94897b9b1d2d6cdaf195a7db97c5348ac2e9bd0a06bc53a7fd46c6578706572696d656e74616cf50037",
  "source": "pragma solidity ^0.4.24;\npragma experimental ABIEncoderV2;\n\nimport \"./Members.sol\";\nimport \"./Claims.sol\";\n\n\ncontract Users is Members {\n\n  struct User {\n    uint256 creationDate;\n    string firstName;\n    string lastName;\n    uint256 memberId;\n    uint256 requestId;\n    string role;\n    StatusUserEnum status;\n    address owner;  // primary key\n    string cmo;\n    string[] groups;\n    uint tokens;\n  }\n\n  enum StatusUserEnum {\n    REJECTED,\n    PENDING,\n    ACCEPTED\n  }\n\n  mapping (address => User) private users_;\n  address[] private usersList_;\n  uint256 constant private PAGE_SIZE = 10;\n\n  uint256 constant private userStartTokens = 100;\n\n  // PUBLIC\n\n  function registerUserRequest(uint256 _creationDate, string _firstName, string _lastName, string _role, uint256 _memberId) public {\n\n    require(_memberId != 0, \"No valid memberId\");\n    require(_creationDate > 0, \"CreationDate is mandatory\");\n    require(users_[msg.sender].creationDate == 0, \"User already exists\");\n    require(_memberExists(_memberId), \"Member not exists\");\n\n    uint256 _requestId = Random.rand(_creationDate);\n    _saveUser(_creationDate, _firstName, _lastName, _memberId, _requestId, _role, uint256(StatusUserEnum.PENDING), msg.sender, 0);\n  }\n\n  function updateUser(string _firstName, string _lastName, uint256 _memberId, string _role, address owner, uint _tokens) public {\n\n    require(users_[owner].owner > address(0), \"This user not exists\");\n    require(uint(users_[owner].status) == uint(StatusUserEnum.ACCEPTED), \"You are not accepted\");\n    if (users_[owner].tokens > _tokens) {\n      members_[users_[owner].memberId].totalTokens += users_[owner].tokens - _tokens;\n    } else {\n      members_[users_[owner].memberId].totalTokens -= _tokens - users_[owner].tokens;\n    }\n    users_[owner].tokens = _tokens;\n\n    uint256 _requestId = users_[owner].requestId;\n    uint256 _creationDate = users_[owner].creationDate;\n    uint256 _status = uint(users_[owner].status);\n\n    _saveUser(_creationDate, _firstName, _lastName, _memberId, _requestId, _role, _status, owner, 1);\n  }\n\n  function getUsedTokens(uint256 _memberId) public returns (uint){\n    uint usedTokens = 0;\n    for (uint i = 0; i < usersList_.length; ++i) {\n      if (users_[usersList_[i]].memberId == _memberId) {\n        usedTokens += users_[usersList_[i]].tokens;\n      }\n    }\n    return usedTokens;\n  }\n\n  function updateSuperUser(string _firstName, string _lastName, uint256 _memberId, string _role, address owner, string[] _groups) public {\n\n    users_[owner].firstName = _firstName;\n    users_[owner].lastName = _lastName;\n    users_[owner].groups = _groups;\n\n    for (uint i = 0; i < usersList_.length; ++i) {\n      if (keccak256(users_[usersList_[i]].cmo) == keccak256(users_[owner].cmo)) {\n        users_[usersList_[i]].groups = _groups;\n      }\n    }\n\n  }\n\n  function rejectUser(address _userToReject) public {\n\n    require(users_[_userToReject].owner > address(0), \"This user not exists\");\n    require((users_[msg.sender].memberId == users_[_userToReject].memberId) || isSigner(msg.sender), \"You cannot accept this user\");\n    require((uint(users_[msg.sender].status) == uint(StatusUserEnum.ACCEPTED)) || isSigner(msg.sender), \"You are not accepted\");\n    require(users_[_userToReject].status == StatusUserEnum.PENDING, \"Only pending users can be rejected\");\n\n    users_[_userToReject].status = StatusUserEnum.REJECTED;\n    _clearUserFromMemberRequest(users_[_userToReject].memberId, _userToReject);\n  }\n\n  function acceptUser(address _userToAccept) public {\n\n    require(users_[_userToAccept].owner > address(0), \"This user not exists\");\n    require((users_[msg.sender].memberId == users_[_userToAccept].memberId) || isSigner(msg.sender), \"You cannot accept this user\");\n    require((uint(users_[msg.sender].status) == uint(StatusUserEnum.ACCEPTED)) || isSigner(msg.sender), \"You are not accepted\");\n    require(users_[_userToAccept].status == StatusUserEnum.PENDING, \"Only pending users can be accepted\");\n\n    if (members_[users_[_userToAccept].memberId].totalTokens > userStartTokens) {\n      users_[_userToAccept].status = StatusUserEnum.ACCEPTED;\n      _clearUserFromMemberRequest(users_[_userToAccept].memberId, _userToAccept);\n      users_[_userToAccept].tokens = userStartTokens;\n      members_[users_[_userToAccept].memberId].totalTokens -= userStartTokens;\n    } else {\n      rejectUser(_userToAccept);\n    }\n  }\n\n  function getcountUsers() public view returns(uint) {\n    uint256 counter = 0;\n    for (uint i = 0; i < usersList_.length; ++i) {\n      if(users_[usersList_[i]].memberId == users_[msg.sender].memberId\n        && users_[usersList_[i]].status == StatusUserEnum.ACCEPTED) {\n        counter++;\n      }\n    }\n    return counter;\n  }\n\n  function whitelistAdmin(address account, string _cmo) public onlySigner {\n    _clearUserFromMemberRequest(users_[account].memberId, account);\n    users_[account].role = \"Super admin\";\n    users_[account].memberId = ++memberIdCounter_;\n    users_[account].cmo = _cmo;\n//    users_[account].tokens = 0; // should \"Super admin\" have tokens?\n    users_[account].status = StatusUserEnum.ACCEPTED;\n    users_[account].groups = [\"test\"];\n    addSigner(account);\n  }\n\n  function getUsers(uint256 _page) public view returns(User[] memory) {\n    uint256 counter = getcountUsers();\n\n    uint256 pageIndex = SafeMath.mul(PAGE_SIZE, _page);\n    uint256 pageNumber = SafeMath.div(usersList_.length, PAGE_SIZE);\n\n    if (counter == 0 || pageIndex > counter || _page > pageNumber) {\n      return;\n    }\n\n    User[] memory userPageBasic = new User[](PAGE_SIZE);\n    uint256 counterFinal = 0;\n\n    for (uint j = pageIndex; j < usersList_.length; ++j) {\n      if(users_[usersList_[j]].memberId == users_[msg.sender].memberId\n        && users_[usersList_[j]].status == StatusUserEnum.ACCEPTED) {\n        userPageBasic[counterFinal] = users_[usersList_[j]];\n        ++counterFinal;\n      }\n    }\n    return userPageBasic;\n  }\n\n  function getUserByAddress(address userAddress) public view returns(User memory) {\n    return users_[userAddress];\n  }\n\n  function getUsersOwner() onlySigner public view returns(User[] memory) {\n    User[] memory userPageOwner = new User[](usersList_.length);\n\n    for (uint i = 0; i < usersList_.length; ++i) {\n      userPageOwner[i] = users_[usersList_[i]];\n    }\n\n    return userPageOwner;\n  }\n\n  function getMe() public view returns(User) {\n    //TODO: require\n    User memory user = users_[msg.sender];\n    return user;\n  }\n\n  // PRIVATE\n\n  function _saveUser(uint256 _creationDate, string _firstName, string _lastName, uint256 _memberId,\n    uint256 _requestId, string _role, uint256 _status, address owner, uint isCreate) internal {\n\n    require(_status >= 0 || _status <=2, \"status is not valid\");\n    require(bytes(_role).length != 0, \"role is mandatory\");\n\n    User memory user = users_[owner];\n\n    user.creationDate =  _creationDate;\n    user.firstName =  _firstName;\n    user.lastName =  _lastName;\n    user.memberId =  _memberId;\n    user.requestId =  _requestId;\n    user.role = _role;\n    user.status = StatusUserEnum(_status);\n    user.owner = owner;\n\n    users_[owner] = user;\n\n    if(isCreate == 0) {\n      usersList_.push(owner);\n//      if (users_[owner].status != StatusUserEnum.ACCEPTED) {\n      _addUserToMemberRequest(_memberId);\n//      }\n      users_[owner].groups = [\"test\"];                  // by default\n      users_[owner].cmo = members_[user.memberId].cmo;  // to initialize\n    }\n  }\n\n  function _memberIdFromCurrentAddress(address addr) view public returns(uint256) {\n    return users_[addr].memberId;\n  }\n\n  function updateUserTokens(address addr, uint transactionPrice) public {\n    users_[addr].tokens -= transactionPrice;\n  }\n\n  function getUserTokensByAddress(address addr) view public returns(uint) {\n    return users_[addr].tokens;\n  }\n}\n",
  "sourcePath": "/home/komodo/newUI2/bloomen-decentralized-rights-management-v2/truffle/contracts/registry/Users.sol",
  "compiler": {
    "name": "solc",
    "version": "0.4.24+commit.e67f0147.Emscripten.clang"
  },
  "schemaVersion": "2.0.1",
  "updatedAt": "2020-03-03T22:12:48.267Z"
}