{
  "contractName": "Users",
  "abi": [
    {
      "constant": false,
      "inputs": [
        {
          "name": "_cmo",
          "type": "string"
        }
      ],
      "name": "addCMO",
      "outputs": [],
      "payable": false,
      "stateMutability": "nonpayable",
      "type": "function"
    },
    {
      "constant": true,
      "inputs": [
        {
          "name": "_memberId",
          "type": "uint256"
        }
      ],
      "name": "_getClaimsIdByMember",
      "outputs": [
        {
          "name": "",
          "type": "uint256[]"
        }
      ],
      "payable": false,
      "stateMutability": "view",
      "type": "function"
    },
    {
      "constant": true,
      "inputs": [],
      "name": "getCMOs",
      "outputs": [
        {
          "name": "",
          "type": "string[]"
        }
      ],
      "payable": false,
      "stateMutability": "view",
      "type": "function"
    },
    {
      "constant": false,
      "inputs": [
        {
          "name": "_memberId",
          "type": "uint256"
        },
        {
          "name": "_creationDate",
          "type": "uint256"
        },
        {
          "name": "_name",
          "type": "string"
        },
        {
          "name": "_logo",
          "type": "string"
        },
        {
          "name": "_country",
          "type": "string"
        },
        {
          "name": "_cmo",
          "type": "string"
        },
        {
          "name": "_theme",
          "type": "string"
        }
      ],
      "name": "updateMember",
      "outputs": [],
      "payable": false,
      "stateMutability": "nonpayable",
      "type": "function"
    },
    {
      "constant": false,
      "inputs": [
        {
          "name": "_memberId",
          "type": "uint256"
        },
        {
          "name": "_claimId",
          "type": "uint256"
        }
      ],
      "name": "_addClaimFromInbox",
      "outputs": [],
      "payable": false,
      "stateMutability": "nonpayable",
      "type": "function"
    },
    {
      "constant": true,
      "inputs": [
        {
          "name": "account",
          "type": "address"
        }
      ],
      "name": "isSigner",
      "outputs": [
        {
          "name": "",
          "type": "bool"
        }
      ],
      "payable": false,
      "stateMutability": "view",
      "type": "function"
    },
    {
      "constant": false,
      "inputs": [
        {
          "name": "_memberId",
          "type": "uint256"
        },
        {
          "name": "_claimId",
          "type": "uint256"
        }
      ],
      "name": "_removeClaimFromInbox",
      "outputs": [],
      "payable": false,
      "stateMutability": "nonpayable",
      "type": "function"
    },
    {
      "constant": true,
      "inputs": [],
      "name": "getMembers",
      "outputs": [
        {
          "components": [
            {
              "name": "memberId",
              "type": "uint256"
            },
            {
              "name": "creationDate",
              "type": "uint256"
            },
            {
              "name": "name",
              "type": "string"
            },
            {
              "name": "logo",
              "type": "string"
            },
            {
              "name": "country",
              "type": "string"
            },
            {
              "name": "cmo",
              "type": "string"
            },
            {
              "name": "theme",
              "type": "string"
            },
            {
              "name": "claimInbox",
              "type": "uint256[]"
            },
            {
              "name": "claims",
              "type": "uint256[]"
            },
            {
              "name": "userRequests",
              "type": "address[]"
            }
          ],
          "name": "",
          "type": "tuple[]"
        }
      ],
      "payable": false,
      "stateMutability": "view",
      "type": "function"
    },
    {
      "constant": false,
      "inputs": [
        {
          "name": "_memberId",
          "type": "uint256"
        },
        {
          "name": "_claimId",
          "type": "uint256"
        }
      ],
      "name": "_removeClaimIdFromMember",
      "outputs": [],
      "payable": false,
      "stateMutability": "nonpayable",
      "type": "function"
    },
    {
      "constant": true,
      "inputs": [],
      "name": "getCount",
      "outputs": [
        {
          "name": "",
          "type": "uint256"
        }
      ],
      "payable": false,
      "stateMutability": "view",
      "type": "function"
    },
    {
      "constant": true,
      "inputs": [
        {
          "name": "_memberId",
          "type": "uint256"
        }
      ],
      "name": "_getClaimsCountByMember",
      "outputs": [
        {
          "name": "",
          "type": "uint256"
        }
      ],
      "payable": false,
      "stateMutability": "view",
      "type": "function"
    },
    {
      "constant": false,
      "inputs": [
        {
          "name": "_index",
          "type": "uint256"
        }
      ],
      "name": "deleteCMO",
      "outputs": [],
      "payable": false,
      "stateMutability": "nonpayable",
      "type": "function"
    },
    {
      "constant": true,
      "inputs": [
        {
          "name": "_page",
          "type": "uint256"
        }
      ],
      "name": "getMembers",
      "outputs": [
        {
          "components": [
            {
              "name": "memberId",
              "type": "uint256"
            },
            {
              "name": "creationDate",
              "type": "uint256"
            },
            {
              "name": "name",
              "type": "string"
            },
            {
              "name": "logo",
              "type": "string"
            },
            {
              "name": "country",
              "type": "string"
            },
            {
              "name": "cmo",
              "type": "string"
            },
            {
              "name": "theme",
              "type": "string"
            },
            {
              "name": "claimInbox",
              "type": "uint256[]"
            },
            {
              "name": "claims",
              "type": "uint256[]"
            },
            {
              "name": "userRequests",
              "type": "address[]"
            }
          ],
          "name": "",
          "type": "tuple[]"
        }
      ],
      "payable": false,
      "stateMutability": "view",
      "type": "function"
    },
    {
      "constant": true,
      "inputs": [
        {
          "name": "",
          "type": "address"
        }
      ],
      "name": "users_",
      "outputs": [
        {
          "name": "creationDate",
          "type": "uint256"
        },
        {
          "name": "firstName",
          "type": "string"
        },
        {
          "name": "lastName",
          "type": "string"
        },
        {
          "name": "memberId",
          "type": "uint256"
        },
        {
          "name": "requestId",
          "type": "uint256"
        },
        {
          "name": "role",
          "type": "string"
        },
        {
          "name": "status",
          "type": "uint8"
        },
        {
          "name": "owner",
          "type": "address"
        }
      ],
      "payable": false,
      "stateMutability": "view",
      "type": "function"
    },
    {
      "constant": false,
      "inputs": [
        {
          "name": "_memberId",
          "type": "uint256"
        },
        {
          "name": "_claimId",
          "type": "uint256"
        }
      ],
      "name": "_addClaimIdToMemberOwner",
      "outputs": [],
      "payable": false,
      "stateMutability": "nonpayable",
      "type": "function"
    },
    {
      "constant": false,
      "inputs": [],
      "name": "renounceSigner",
      "outputs": [],
      "payable": false,
      "stateMutability": "nonpayable",
      "type": "function"
    },
    {
      "constant": false,
      "inputs": [
        {
          "name": "account",
          "type": "address"
        }
      ],
      "name": "addSigner",
      "outputs": [],
      "payable": false,
      "stateMutability": "nonpayable",
      "type": "function"
    },
    {
      "constant": true,
      "inputs": [
        {
          "name": "_memberId",
          "type": "uint256"
        }
      ],
      "name": "_memberExists",
      "outputs": [
        {
          "name": "",
          "type": "bool"
        }
      ],
      "payable": false,
      "stateMutability": "view",
      "type": "function"
    },
    {
      "constant": false,
      "inputs": [
        {
          "name": "_creationDate",
          "type": "uint256"
        },
        {
          "name": "_name",
          "type": "string"
        },
        {
          "name": "_logo",
          "type": "string"
        },
        {
          "name": "_country",
          "type": "string"
        },
        {
          "name": "_cmo",
          "type": "string"
        },
        {
          "name": "_theme",
          "type": "string"
        }
      ],
      "name": "addMember",
      "outputs": [
        {
          "name": "",
          "type": "uint256"
        }
      ],
      "payable": false,
      "stateMutability": "nonpayable",
      "type": "function"
    },
    {
      "anonymous": false,
      "inputs": [
        {
          "indexed": true,
          "name": "account",
          "type": "address"
        }
      ],
      "name": "SignerAdded",
      "type": "event"
    },
    {
      "anonymous": false,
      "inputs": [
        {
          "indexed": true,
          "name": "account",
          "type": "address"
        }
      ],
      "name": "SignerRemoved",
      "type": "event"
    },
    {
      "constant": false,
      "inputs": [
        {
          "name": "_creationDate",
          "type": "uint256"
        },
        {
          "name": "_firstName",
          "type": "string"
        },
        {
          "name": "_lastName",
          "type": "string"
        },
        {
          "name": "_role",
          "type": "string"
        },
        {
          "name": "_memberId",
          "type": "uint256"
        }
      ],
      "name": "registerUserRequest",
      "outputs": [],
      "payable": false,
      "stateMutability": "nonpayable",
      "type": "function"
    },
    {
      "constant": false,
      "inputs": [
        {
          "name": "_firstName",
          "type": "string"
        },
        {
          "name": "_lastName",
          "type": "string"
        },
        {
          "name": "_memberId",
          "type": "uint256"
        },
        {
          "name": "_role",
          "type": "string"
        },
        {
          "name": "owner",
          "type": "address"
        }
      ],
      "name": "updateUser",
      "outputs": [],
      "payable": false,
      "stateMutability": "nonpayable",
      "type": "function"
    },
    {
      "constant": false,
      "inputs": [
        {
          "name": "_userToReject",
          "type": "address"
        }
      ],
      "name": "rejectUser",
      "outputs": [],
      "payable": false,
      "stateMutability": "nonpayable",
      "type": "function"
    },
    {
      "constant": false,
      "inputs": [
        {
          "name": "_userToAccept",
          "type": "address"
        }
      ],
      "name": "acceptUser",
      "outputs": [],
      "payable": false,
      "stateMutability": "nonpayable",
      "type": "function"
    },
    {
      "constant": true,
      "inputs": [],
      "name": "getcountUsers",
      "outputs": [
        {
          "name": "",
          "type": "uint256"
        }
      ],
      "payable": false,
      "stateMutability": "view",
      "type": "function"
    },
    {
      "constant": false,
      "inputs": [
        {
          "name": "account",
          "type": "address"
        }
      ],
      "name": "whitelistAdmin",
      "outputs": [],
      "payable": false,
      "stateMutability": "nonpayable",
      "type": "function"
    },
    {
      "constant": true,
      "inputs": [
        {
          "name": "_page",
          "type": "uint256"
        }
      ],
      "name": "getUsers",
      "outputs": [
        {
          "components": [
            {
              "name": "creationDate",
              "type": "uint256"
            },
            {
              "name": "firstName",
              "type": "string"
            },
            {
              "name": "lastName",
              "type": "string"
            },
            {
              "name": "memberId",
              "type": "uint256"
            },
            {
              "name": "requestId",
              "type": "uint256"
            },
            {
              "name": "role",
              "type": "string"
            },
            {
              "name": "status",
              "type": "uint8"
            },
            {
              "name": "owner",
              "type": "address"
            }
          ],
          "name": "",
          "type": "tuple[]"
        }
      ],
      "payable": false,
      "stateMutability": "view",
      "type": "function"
    },
    {
      "constant": true,
      "inputs": [
        {
          "name": "userAddress",
          "type": "address"
        }
      ],
      "name": "getUserByAddress",
      "outputs": [
        {
          "components": [
            {
              "name": "creationDate",
              "type": "uint256"
            },
            {
              "name": "firstName",
              "type": "string"
            },
            {
              "name": "lastName",
              "type": "string"
            },
            {
              "name": "memberId",
              "type": "uint256"
            },
            {
              "name": "requestId",
              "type": "uint256"
            },
            {
              "name": "role",
              "type": "string"
            },
            {
              "name": "status",
              "type": "uint8"
            },
            {
              "name": "owner",
              "type": "address"
            }
          ],
          "name": "",
          "type": "tuple"
        }
      ],
      "payable": false,
      "stateMutability": "view",
      "type": "function"
    },
    {
      "constant": true,
      "inputs": [],
      "name": "getUsersOwner",
      "outputs": [
        {
          "components": [
            {
              "name": "creationDate",
              "type": "uint256"
            },
            {
              "name": "firstName",
              "type": "string"
            },
            {
              "name": "lastName",
              "type": "string"
            },
            {
              "name": "memberId",
              "type": "uint256"
            },
            {
              "name": "requestId",
              "type": "uint256"
            },
            {
              "name": "role",
              "type": "string"
            },
            {
              "name": "status",
              "type": "uint8"
            },
            {
              "name": "owner",
              "type": "address"
            }
          ],
          "name": "",
          "type": "tuple[]"
        }
      ],
      "payable": false,
      "stateMutability": "view",
      "type": "function"
    },
    {
      "constant": true,
      "inputs": [],
      "name": "getMe",
      "outputs": [
        {
          "components": [
            {
              "name": "creationDate",
              "type": "uint256"
            },
            {
              "name": "firstName",
              "type": "string"
            },
            {
              "name": "lastName",
              "type": "string"
            },
            {
              "name": "memberId",
              "type": "uint256"
            },
            {
              "name": "requestId",
              "type": "uint256"
            },
            {
              "name": "role",
              "type": "string"
            },
            {
              "name": "status",
              "type": "uint8"
            },
            {
              "name": "owner",
              "type": "address"
            }
          ],
          "name": "",
          "type": "tuple"
        }
      ],
      "payable": false,
      "stateMutability": "view",
      "type": "function"
    },
    {
      "constant": true,
      "inputs": [
        {
          "name": "addr",
          "type": "address"
        }
      ],
      "name": "_memberIdFromCurrentAddress",
      "outputs": [
        {
          "name": "",
          "type": "uint256"
        }
      ],
      "payable": false,
      "stateMutability": "view",
      "type": "function"
    }
  ],
  "bytecode": "0x608060405262000018336401000000006200001e810204565b62000103565b62000039600082640100000000620038ec6200007082021704565b604051600160a060020a038216907f47d1c22a25bb3a5d4e481b9b1e6944c2eade3181a0a20b495ed61d35b5323f2490600090a250565b600160a060020a03811615156200008657600080fd5b6200009b8282640100000000620000cb810204565b15620000a657600080fd5b600160a060020a0316600090815260209190915260409020805460ff19166001179055565b6000600160a060020a0382161515620000e357600080fd5b50600160a060020a03166000908152602091909152604090205460ff1690565b614bc280620001136000396000f30060806040526004361061017f5763ffffffff7c010000000000000000000000000000000000000000000000000000000060003504166308bdc24d81146101845780633a59ccf1146101a65780634dc92885146101c65780635d73ab9a146101e65780636262dff61461021c578063656d561c1461024957806365ff0c481461026b57806369c212f61461028b57806374853239146102b85780637df73e27146102d85780638b92892b14610305578063932191be146103255780639eab52531461033a578063a29d441f1461035c578063a4fdc5941461037c578063a7ed1fe41461039e578063a87d942c146103be578063affccd84146103d3578063bf3d007e146103f3578063c11e1ff314610413578063c477ecab14610428578063d2105a0014610448578063e2c11f9e1461047c578063e5c8b03d1461049c578063eb12d61e146104b1578063eff34e59146104d1578063f8380733146104f1578063fa1188c614610511578063fcfbde5b14610531578063ff240fce14610551575b600080fd5b34801561019057600080fd5b506101a461019f366004613ce3565b610571565b005b3480156101b257600080fd5b506101a46101c1366004613d09565b610711565b3480156101d257600080fd5b506101a46101e1366004613ce3565b61076d565b3480156101f257600080fd5b50610206610201366004613dfa565b6108d6565b60405161021391906148da565b60405180910390f35b34801561022857600080fd5b5061023c610237366004613dfa565b610cb2565b60405161021391906148eb565b34801561025557600080fd5b5061025e610d47565b60405161021391906148b8565b34801561027757600080fd5b506101a4610286366004614001565b610e20565b34801561029757600080fd5b506102ab6102a6366004613ce3565b610eae565b6040516102139190614a1a565b3480156102c457600080fd5b506101a46102d3366004613fc7565b611102565b3480156102e457600080fd5b506102f86102f3366004613ce3565b611128565b60405161021391906148fc565b34801561031157600080fd5b506101a4610320366004613fc7565b611140565b34801561033157600080fd5b50610206611257565b34801561034657600080fd5b5061034f611548565b60405161021391906148c9565b34801561036857600080fd5b506101a4610377366004613fc7565b611a0f565b34801561038857600080fd5b50610391611ae4565b6040516102139190614a2b565b3480156103aa57600080fd5b506101a46103b9366004613f17565b611baa565b3480156103ca57600080fd5b50610391611c71565b3480156103df57600080fd5b506103916103ee366004613dfa565b611c8e565b3480156103ff57600080fd5b506101a461040e366004613dfa565b611ca3565b34801561041f57600080fd5b506102ab611d60565b34801561043457600080fd5b5061034f610443366004613dfa565b611fb7565b34801561045457600080fd5b50610468610463366004613ce3565b6124d2565b604051610213989796959493929190614a39565b34801561048857600080fd5b506101a4610497366004613fc7565b6126cf565b3480156104a857600080fd5b506101a46126f5565b3480156104bd57600080fd5b506101a46104cc366004613ce3565b612700565b3480156104dd57600080fd5b506103916104ec366004613ce3565b61271d565b3480156104fd57600080fd5b506102f861050c366004613dfa565b61273b565b34801561051d57600080fd5b5061039161052c366004613e18565b61274e565b34801561053d57600080fd5b506101a461054c366004613d3e565b6127dd565b34801561055d57600080fd5b506101a461056c366004613ce3565b6128cd565b600160a060020a038181166000908152600460205260408120600601546101009004909116116105bf5760405160e560020a62461bcd0281526004016105b69061494a565b60405180910390fd5b600160a060020a038116600090815260046020526040808220600390810154338452919092209091015414806105f957506105f933611128565b151561061a5760405160e560020a62461bcd0281526004016105b69061495a565b60023360009081526004602052604090206006015460ff16600281111561063d57fe5b148061064d575061064d33611128565b151561066e5760405160e560020a62461bcd0281526004016105b6906149da565b6001600160a060020a03821660009081526004602052604090206006015460ff16600281111561069a57fe5b146106ba5760405160e560020a62461bcd0281526004016105b69061492a565b600160a060020a038116600090815260046020526040902060060180546002919060ff19166001835b0217905550600160a060020a03811660009081526004602052604090206003015461070e908261299f565b50565b61071a33611128565b151561072557600080fd5b600180548082018083556000929092528251610768917fb10e2d527612073b26eecdfd717e6a320cf44b4afac2b0732d9fcbe2b7fa0cf60190602085019061393a565b505050565b600160a060020a038181166000908152600460205260408120600601546101009004909116116107b25760405160e560020a62461bcd0281526004016105b69061494a565b600160a060020a038116600090815260046020526040808220600390810154338452919092209091015414806107ec57506107ec33611128565b151561080d5760405160e560020a62461bcd0281526004016105b69061495a565b60023360009081526004602052604090206006015460ff16600281111561083057fe5b1480610840575061084033611128565b15156108615760405160e560020a62461bcd0281526004016105b6906149da565b6001600160a060020a03821660009081526004602052604090206006015460ff16600281111561088d57fe5b146108ad5760405160e560020a62461bcd0281526004016105b69061496a565b600160a060020a0381166000908152600460205260408120600601805460ff19166001836106e3565b6060600080600060606000806108ea611ae4565b95506108f7600a89612b04565b60055490955061090890600a612b3d565b935085158061091657508585115b8061092057508388115b1561092a57610ca7565b60408051600a808252610160820190925290816020015b6109496139b4565b815260200190600190039081610941579050509250600091508490505b600554811015610ca357336000908152600460208190526040822060030154600580549193918590811061099657fe5b6000918252602080832090910154600160a060020a03168352820192909252604001902060030154148015610a1357506002600460006005848154811015156109db57fe5b6000918252602080832090910154600160a060020a0316835282019290925260400190206006015460ff166002811115610a1157fe5b145b15610c9b5760046000600583815481101515610a2b57fe5b600091825260208083209190910154600160a060020a0316835282810193909352604091820190208151610100808201845282548252600180840180548651600293821615909402600019011691909104601f81018790048702830187019095528482529194929385840193919291830182828015610aeb5780601f10610ac057610100808354040283529160200191610aeb565b820191906000526020600020905b815481529060010190602001808311610ace57829003601f168201915b5050509183525050600282810180546040805160206001841615610100026000190190931694909404601f81018390048302850183019091528084529381019390830182828015610b7d5780601f10610b5257610100808354040283529160200191610b7d565b820191906000526020600020905b815481529060010190602001808311610b6057829003601f168201915b505050505081526020016003820154815260200160048201548152602001600582018054600181600116156101000203166002900480601f016020809104026020016040519081016040528092919081815260200182805460018160011615610100020316600290048015610c335780601f10610c0857610100808354040283529160200191610c33565b820191906000526020600020905b815481529060010190602001808311610c1657829003601f168201915b5050509183525050600682015460209091019060ff166002811115610c5457fe5b6002811115610c5f57fe5b8152600691909101546101009004600160a060020a03166020909101528351849084908110610c8a57fe5b602090810290910101526001909101905b600101610966565b8296505b505050505050919050565b60008181526002602052604081205460609110610ce45760405160e560020a62461bcd0281526004016105b69061498a565b60008281526002602090815260409182902060080180548351818402810184019094528084529091830182828015610d3b57602002820191906000526020600020905b815481526020019060010190808311610d27575b50505050509050919050565b60606001805480602002602001604051908101604052809291908181526020016000905b82821015610e165760008481526020908190208301805460408051601f6002600019610100600187161502019094169390930492830185900485028101850190915281815292830182828015610e025780601f10610dd757610100808354040283529160200191610e02565b820191906000526020600020905b815481529060010190602001808311610de557829003601f168201915b505050505081526020019060010190610d6b565b5050505090505b90565b610e2933611128565b1515610e3457600080fd5b60008781526002602052604081205411610e635760405160e560020a62461bcd0281526004016105b6906149aa565b6000878152600260205260409020600101548614610e965760405160e560020a62461bcd0281526004016105b69061490a565b610ea587878787878787612b60565b50505050505050565b610eb66139b4565b600160a060020a0382166000908152600460209081526040918290208251610100808201855282548252600180840180548751600293821615909402600019011691909104601f8101869004860283018601909652858252919492938581019391929190830182828015610f6b5780601f10610f4057610100808354040283529160200191610f6b565b820191906000526020600020905b815481529060010190602001808311610f4e57829003601f168201915b5050509183525050600282810180546040805160206001841615610100026000190190931694909404601f81018390048302850183019091528084529381019390830182828015610ffd5780601f10610fd257610100808354040283529160200191610ffd565b820191906000526020600020905b815481529060010190602001808311610fe057829003601f168201915b505050505081526020016003820154815260200160048201548152602001600582018054600181600116156101000203166002900480601f0160208091040260200160405190810160405280929190818152602001828054600181600116156101000203166002900480156110b35780601f10611088576101008083540402835291602001916110b3565b820191906000526020600020905b81548152906001019060200180831161109657829003601f168201915b5050509183525050600682015460209091019060ff1660028111156110d457fe5b60028111156110df57fe5b8152600691909101546101009004600160a060020a031660209091015292915050565b600091825260026020908152604083206007018054600181018255908452922090910155565b600061113a818363ffffffff61315616565b92915050565b6000805b6000848152600260205260409020600701546000190181101561120057600084815260026020526040902060070180548491908390811061118157fe5b9060005260206000200154141561119757600191505b81156111f85760008481526002602052604090206007018054600183019081106111bd57fe5b906000526020600020015460026000868152602001908152602001600020600701828154811015156111eb57fe5b6000918252602090912001555b600101611144565b60008481526002602052604090206007018054600019810190811061122157fe5b600091825260208083209091018290558582526002905260409020600701805490611250906000198301613a05565b5050505050565b606080600061126533611128565b151561127057600080fd5b6005546040805182815260208084028201019091529080156112ac57816020015b6112996139b4565b8152602001906001900390816112915790505b509150600090505b60055481101561154257600460006005838154811015156112d157fe5b600091825260208083209190910154600160a060020a0316835282810193909352604091820190208151610100808201845282548252600180840180548651600293821615909402600019011691909104601f810187900487028301870190955284825291949293858401939192918301828280156113915780601f1061136657610100808354040283529160200191611391565b820191906000526020600020905b81548152906001019060200180831161137457829003601f168201915b5050509183525050600282810180546040805160206001841615610100026000190190931694909404601f810183900483028501830190915280845293810193908301828280156114235780601f106113f857610100808354040283529160200191611423565b820191906000526020600020905b81548152906001019060200180831161140657829003601f168201915b505050505081526020016003820154815260200160048201548152602001600582018054600181600116156101000203166002900480601f0160208091040260200160405190810160405280929190818152602001828054600181600116156101000203166002900480156114d95780601f106114ae576101008083540402835291602001916114d9565b820191906000526020600020905b8154815290600101906020018083116114bc57829003601f168201915b5050509183525050600682015460209091019060ff1660028111156114fa57fe5b600281111561150557fe5b8152600691909101546101009004600160a060020a0316602090910152825183908390811061153057fe5b602090810290910101526001016112b4565b50919050565b606080600060038054905060405190808252806020026020018201604052801561158c57816020015b611579613a29565b8152602001906001900390816115715790505b509150600090505b60035481101561154257600260006003838154811015156115b157fe5b9060005260206000200154815260200190815260200160002061014060405190810160405290816000820154815260200160018201548152602001600282018054600181600116156101000203166002900480601f0160208091040260200160405190810160405280929190818152602001828054600181600116156101000203166002900480156116845780601f1061165957610100808354040283529160200191611684565b820191906000526020600020905b81548152906001019060200180831161166757829003601f168201915b505050918352505060038201805460408051602060026001851615610100026000190190941693909304601f81018490048402820184019092528181529382019392918301828280156117185780601f106116ed57610100808354040283529160200191611718565b820191906000526020600020905b8154815290600101906020018083116116fb57829003601f168201915b505050918352505060048201805460408051602060026001851615610100026000190190941693909304601f81018490048402820184019092528181529382019392918301828280156117ac5780601f10611781576101008083540402835291602001916117ac565b820191906000526020600020905b81548152906001019060200180831161178f57829003601f168201915b505050918352505060058201805460408051602060026001851615610100026000190190941693909304601f81018490048402820184019092528181529382019392918301828280156118405780601f1061181557610100808354040283529160200191611840565b820191906000526020600020905b81548152906001019060200180831161182357829003601f168201915b505050918352505060068201805460408051602060026001851615610100026000190190941693909304601f81018490048402820184019092528181529382019392918301828280156118d45780601f106118a9576101008083540402835291602001916118d4565b820191906000526020600020905b8154815290600101906020018083116118b757829003601f168201915b505050505081526020016007820180548060200260200160405190810160405280929190818152602001828054801561192c57602002820191906000526020600020905b815481526020019060010190808311611918575b505050505081526020016008820180548060200260200160405190810160405280929190818152602001828054801561198457602002820191906000526020600020905b815481526020019060010190808311611970575b50505050508152602001600982018054806020026020016040519081016040528092919081815260200182805480156119e657602002820191906000526020600020905b8154600160a060020a031681526001909101906020018083116119c8575b50505050508152505082828151811015156119fd57fe5b60209081029091010152600101611594565b6000828152600260205260408120600801549081111561076857600083815260026020526040902060080180546000198301908110611a4a57fe5b90600052602060002001546002600085815260200190815260200160002060080183815481101515611a7857fe5b9060005260206000200181905550816002600085815260200190815260200160002060080160018303815481101515611aad57fe5b6000918252602080832090910192909255848152600290915260409020600801805490611ade906000198301613a05565b50505050565b600080805b600554811015611542573360009081526004602081905260408220600301546005805491939185908110611b1957fe5b6000918252602080832090910154600160a060020a03168352820192909252604001902060030154148015611b965750600260046000600584815481101515611b5e57fe5b6000918252602080832090910154600160a060020a0316835282019290925260400190206006015460ff166002811115611b9457fe5b145b15611ba2576001909101905b600101611ae9565b6000811515611bce5760405160e560020a62461bcd0281526004016105b6906149fa565b60008611611bf15760405160e560020a62461bcd0281526004016105b690614a0a565b3360009081526004602052604090205415611c215760405160e560020a62461bcd0281526004016105b69061493a565b611c2a8261273b565b1515611c4b5760405160e560020a62461bcd0281526004016105b6906149aa565b611c548661318d565b9050611c69868686858588600133600061337c565b505050505050565b6000611c7c33611128565b1515611c8757600080fd5b5060035490565b60009081526002602052604090206008015490565b6000611cae33611128565b1515611cb957600080fd5b50805b60015460001901811015611d255760018054828201908110611cda57fe5b90600052602060002001600182815481101515611cf357fe5b906000526020600020019080546001816001161561010002031660029004611d1c929190613a7d565b50600101611cbc565b600180546000198101908110611d3757fe5b906000526020600020016000611d4d9190613af2565b6001805490610768906000198301613b36565b611d686139b4565b611d706139b4565b336000908152600460209081526040918290208251610100808201855282548252600180840180548751600293821615909402600019011691909104601f8101869004860283018601909652858252919492938581019391929190830182828015611e1c5780601f10611df157610100808354040283529160200191611e1c565b820191906000526020600020905b815481529060010190602001808311611dff57829003601f168201915b5050509183525050600282810180546040805160206001841615610100026000190190931694909404601f81018390048302850183019091528084529381019390830182828015611eae5780601f10611e8357610100808354040283529160200191611eae565b820191906000526020600020905b815481529060010190602001808311611e9157829003601f168201915b505050505081526020016003820154815260200160048201548152602001600582018054600181600116156101000203166002900480601f016020809104026020016040519081016040528092919081815260200182805460018160011615610100020316600290048015611f645780601f10611f3957610100808354040283529160200191611f64565b820191906000526020600020905b815481529060010190602001808311611f4757829003601f168201915b5050509183525050600682015460209091019060ff166002811115611f8557fe5b6002811115611f9057fe5b8152600691909101546101009004600160a060020a031660209091015291508190505b5090565b6060600080600060606000611fcd600a88612b04565b600354909550611fde90600a612b3d565b6003549094501580611ff557506003546000190185115b80611fff57508387115b15612009576124c8565b60408051600a80825261016082019092526000945090816020015b61202c613a29565b8152602001906001900390816120245790505091508490505b6003548110156124c4576002600060038381548110151561206257fe5b9060005260206000200154815260200190815260200160002061014060405190810160405290816000820154815260200160018201548152602001600282018054600181600116156101000203166002900480601f0160208091040260200160405190810160405280929190818152602001828054600181600116156101000203166002900480156121355780601f1061210a57610100808354040283529160200191612135565b820191906000526020600020905b81548152906001019060200180831161211857829003601f168201915b505050918352505060038201805460408051602060026001851615610100026000190190941693909304601f81018490048402820184019092528181529382019392918301828280156121c95780601f1061219e576101008083540402835291602001916121c9565b820191906000526020600020905b8154815290600101906020018083116121ac57829003601f168201915b505050918352505060048201805460408051602060026001851615610100026000190190941693909304601f810184900484028201840190925281815293820193929183018282801561225d5780601f106122325761010080835404028352916020019161225d565b820191906000526020600020905b81548152906001019060200180831161224057829003601f168201915b505050918352505060058201805460408051602060026001851615610100026000190190941693909304601f81018490048402820184019092528181529382019392918301828280156122f15780601f106122c6576101008083540402835291602001916122f1565b820191906000526020600020905b8154815290600101906020018083116122d457829003601f168201915b505050918352505060068201805460408051602060026001851615610100026000190190941693909304601f81018490048402820184019092528181529382019392918301828280156123855780601f1061235a57610100808354040283529160200191612385565b820191906000526020600020905b81548152906001019060200180831161236857829003601f168201915b50505050508152602001600782018054806020026020016040519081016040528092919081815260200182805480156123dd57602002820191906000526020600020905b8154815260200190600101908083116123c9575b505050505081526020016008820180548060200260200160405190810160405280929190818152602001828054801561243557602002820191906000526020600020905b815481526020019060010190808311612421575b505050505081526020016009820180548060200260200160405190810160405280929190818152602001828054801561249757602002820191906000526020600020905b8154600160a060020a03168152600190910190602001808311612479575b50505050508152505082848151811015156124ae57fe5b6020908102909101015260019283019201612045565b8195505b5050505050919050565b6004602090815260009182526040918290208054600180830180548651600293821615610100026000190190911692909204601f81018690048602830186019096528582529194929390929083018282801561256f5780601f106125445761010080835404028352916020019161256f565b820191906000526020600020905b81548152906001019060200180831161255257829003601f168201915b50505060028085018054604080516020601f60001961010060018716150201909416959095049283018590048502810185019091528181529596959450909250908301828280156126015780601f106125d657610100808354040283529160200191612601565b820191906000526020600020905b8154815290600101906020018083116125e457829003601f168201915b505050505090806003015490806004015490806005018054600181600116156101000203166002900480601f0160208091040260200160405190810160405280929190818152602001828054600181600116156101000203166002900480156126ab5780601f10612680576101008083540402835291602001916126ab565b820191906000526020600020905b81548152906001019060200180831161268e57829003601f168201915b5050506006909301549192505060ff811690600160a060020a036101009091041688565b600091825260026020908152604083206008018054600181018255908452922090910155565b6126fe336137d0565b565b61270933611128565b151561271457600080fd5b61070e81613818565b600160a060020a031660009081526004602052604090206003015490565b6000908152600260205260408120541190565b60008061275a33611128565b151561276557600080fd5b600088116127885760405160e560020a62461bcd0281526004016105b690614a0a565b6127918861318d565b600081815260026020526040902054909150156127c35760405160e560020a62461bcd0281526004016105b69061499a565b6127d281898989898989612b60565b979650505050505050565b600160a060020a038181166000908152600460205260408120600601549091829182916101009091041681106128285760405160e560020a62461bcd0281526004016105b69061494a565b6002600160a060020a03851660009081526004602052604090206006015460ff16600281111561285457fe5b146128745760405160e560020a62461bcd0281526004016105b6906149da565b600160a060020a038416600090815260046020819052604090912090810154815460069092015490945090925060ff1660028111156128af57fe5b90506128c382898989878a878b600161337c565b5050505050505050565b6128d633611128565b15156128e157600080fd5b600160a060020a038116600090815260046020526040902060030154612907908261299f565b604080518082018252600b81527f53757065722061646d696e0000000000000000000000000000000000000000006020808301918252600160a060020a03851660009081526004909152929092209051612967926005909201919061393a565b50600160a060020a03811660009081526004602052604081206003810191909155600601805460ff1916600217905561070e81612700565b6000805b60008481526002602052604090206009015460001901811015612a9c5760008481526002602052604090206009018054600160a060020a0385169190839081106129e957fe5b600091825260209091200154600160a060020a03161415612a0957600191505b8115612a94576000848152600260205260409020600901805460018301908110612a2f57fe5b6000918252602080832090910154868352600290915260409091206009018054600160a060020a039092169183908110612a6557fe5b9060005260206000200160006101000a815481600160a060020a030219169083600160a060020a031602179055505b6001016129a3565b600084815260026020526040902060090180546000198101908110612abd57fe5b60009182526020808320909101805473ffffffffffffffffffffffffffffffffffffffff191690558582526002905260409020600901805490611250906000198301613a05565b600080831515612b175760009150612b36565b50828202828482811515612b2757fe5b0414612b3257600080fd5b8091505b5092915050565b600080808311612b4c57600080fd5b8284811515612b5757fe5b04949350505050565b612b68613a29565b85511515612b8b5760405160e560020a62461bcd0281526004016105b6906149ea565b82511515612bae5760405160e560020a62461bcd0281526004016105b6906149ca565b81511515612bd15760405160e560020a62461bcd0281526004016105b6906149ba565b6000888152600260208181526040928390208351610140810185528154815260018083015482850152828501805487519281161561010002600019011695909504601f81018590048502820185018752808252919592949286019390929190830182828015612c815780601f10612c5657610100808354040283529160200191612c81565b820191906000526020600020905b815481529060010190602001808311612c6457829003601f168201915b505050918352505060038201805460408051602060026001851615610100026000190190941693909304601f8101849004840282018401909252818152938201939291830182828015612d155780601f10612cea57610100808354040283529160200191612d15565b820191906000526020600020905b815481529060010190602001808311612cf857829003601f168201915b505050918352505060048201805460408051602060026001851615610100026000190190941693909304601f8101849004840282018401909252818152938201939291830182828015612da95780601f10612d7e57610100808354040283529160200191612da9565b820191906000526020600020905b815481529060010190602001808311612d8c57829003601f168201915b505050918352505060058201805460408051602060026001851615610100026000190190941693909304601f8101849004840282018401909252818152938201939291830182828015612e3d5780601f10612e1257610100808354040283529160200191612e3d565b820191906000526020600020905b815481529060010190602001808311612e2057829003601f168201915b505050918352505060068201805460408051602060026001851615610100026000190190941693909304601f8101849004840282018401909252818152938201939291830182828015612ed15780601f10612ea657610100808354040283529160200191612ed1565b820191906000526020600020905b815481529060010190602001808311612eb457829003601f168201915b5050505050815260200160078201805480602002602001604051908101604052809291908181526020018280548015612f2957602002820191906000526020600020905b815481526020019060010190808311612f15575b5050505050815260200160088201805480602002602001604051908101604052809291908181526020018280548015612f8157602002820191906000526020600020905b815481526020019060010190808311612f6d575b5050505050815260200160098201805480602002602001604051908101604052809291908181526020018280548015612fe357602002820191906000526020600020905b8154600160a060020a03168152600190910190602001808311612fc5575b50505091909252505050888152602080820189815260408084018a8152606085018a90526080850189905260a0850188905260c0850187905260008d8152600280865292902085518155925160018401555180519495508594929361304e939285019291019061393a565b506060820151805161306a91600384019160209091019061393a565b506080820151805161308691600484019160209091019061393a565b5060a082015180516130a291600584019160209091019061393a565b5060c082015180516130be91600684019160209091019061393a565b5060e082015180516130da916007840191602090910190613b5a565b5061010082015180516130f7916008840191602090910190613b5a565b506101208201518051613114916009840191602090910190613b94565b5050600380546001810182556000919091527fc2575a0e9e593c00f959f8c92f12db2869c3395a3b0502d05e2516446f71f85b01989098555050505050505050565b6000600160a060020a038216151561316d57600080fd5b50600160a060020a03166000908152602091909152604090205460ff1690565b600080808060028506151561321f5784604051602001808281526020019150506040516020818303038152906040526040518082805190602001908083835b602083106131eb5780518252601f1990920191602091820191016131cc565b6001836020036101000a0380198251168184511680821785525050505050509050019150506040518091039020925061330a565b84604051602001808281526020019150506040516020818303038152906040526040518082805190602001908083835b6020831061326e5780518252601f19909201916020918201910161324f565b51815160209384036101000a600019018019909216911617905260408051929094018290038220828201528351808303820181529184019384905281519195509293508392850191508083835b602083106132da5780518252601f1990920191602091820191016132bb565b6001836020036101000a038019825116818451168082178552505050505050905001915050604051809103902092505b60208110156133375782816020811061331f57fe5b60f860020a91901a810204919091019060010161330a565b82602060028401066020811061334957fe5b60f860020a91901a81020483602084066020811061336357fe5b1a60f860020a0260f860020a9004029350505050919050565b6133846139b4565b600084101580613395575060028411155b15156133b65760405160e560020a62461bcd0281526004016105b69061497a565b845115156133d95760405160e560020a62461bcd0281526004016105b69061491a565b600160a060020a0383166000908152600460209081526040918290208251610100808201855282548252600180840180548751600293821615909402600019011691909104601f810186900486028301860190965285825291949293858101939192919083018282801561348e5780601f106134635761010080835404028352916020019161348e565b820191906000526020600020905b81548152906001019060200180831161347157829003601f168201915b5050509183525050600282810180546040805160206001841615610100026000190190931694909404601f810183900483028501830190915280845293810193908301828280156135205780601f106134f557610100808354040283529160200191613520565b820191906000526020600020905b81548152906001019060200180831161350357829003601f168201915b505050505081526020016003820154815260200160048201548152602001600582018054600181600116156101000203166002900480601f0160208091040260200160405190810160405280929190818152602001828054600181600116156101000203166002900480156135d65780601f106135ab576101008083540402835291602001916135d6565b820191906000526020600020905b8154815290600101906020018083116135b957829003601f168201915b5050509183525050600682015460209091019060ff1660028111156135f757fe5b600281111561360257fe5b8152600691909101546101009004600160a060020a03166020918201528b825281018a905260408101899052606081018890526080810187905260a08101869052905083600281111561365157fe5b8160c00190600281111561366157fe5b9081600281111561366e57fe5b905250600160a060020a03831660e0820181905260009081526004602090815260409091208251815581830151805184936136b092600185019291019061393a565b50604082015180516136cc91600284019160209091019061393a565b50606082015160038201556080820151600482015560a082015180516136fc91600584019160209091019061393a565b5060c082015160068201805460ff1916600183600281111561371a57fe5b021790555060e0919091015160069091018054600160a060020a039092166101000274ffffffffffffffffffffffffffffffffffffffff00199092169190911790558115156137c457600580546001810182556000919091527f036b6384b5eca791c62761152d0c79bb0604c104a5fb6f4eb0703f3154bb3db001805473ffffffffffffffffffffffffffffffffffffffff1916600160a060020a0385161790556137c487613860565b50505050505050505050565b6137e160008263ffffffff6138a016565b604051600160a060020a038216907f3525e22824a8a7df2c9a6029941c824cf95b6447f1e13d5128fd3826d35afe8b90600090a250565b61382960008263ffffffff6138ec16565b604051600160a060020a038216907f47d1c22a25bb3a5d4e481b9b1e6944c2eade3181a0a20b495ed61d35b5323f2490600090a250565b600090815260026020908152604082206009018054600181018255908352912001805473ffffffffffffffffffffffffffffffffffffffff191633179055565b600160a060020a03811615156138b557600080fd5b6138bf8282613156565b15156138ca57600080fd5b600160a060020a0316600090815260209190915260409020805460ff19169055565b600160a060020a038116151561390157600080fd5b61390b8282613156565b1561391557600080fd5b600160a060020a0316600090815260209190915260409020805460ff19166001179055565b828054600181600116156101000203166002900490600052602060002090601f016020900481019282601f1061397b57805160ff19168380011785556139a8565b828001600101855582156139a8579182015b828111156139a857825182559160200191906001019061398d565b50611fb3929150613c02565b61010060405190810160405280600081526020016060815260200160608152602001600081526020016000815260200160608152602001600060028111156139f857fe5b8152600060209091015290565b81548183558181111561076857600083815260209020610768918101908301613c02565b61014060405190810160405280600081526020016000815260200160608152602001606081526020016060815260200160608152602001606081526020016060815260200160608152602001606081525090565b828054600181600116156101000203166002900490600052602060002090601f016020900481019282601f10613ab657805485556139a8565b828001600101855582156139a857600052602060002091601f016020900482015b828111156139a8578254825591600101919060010190613ad7565b50805460018160011615610100020316600290046000825580601f10613b18575061070e565b601f01602090049060005260206000209081019061070e9190613c02565b81548183558181111561076857600083815260209020610768918101908301613c1c565b8280548282559060005260206000209081019282156139a857916020028201828111156139a857825182559160200191906001019061398d565b828054828255906000526020600020908101928215613bf6579160200282015b82811115613bf6578251825473ffffffffffffffffffffffffffffffffffffffff1916600160a060020a03909116178255602090920191600190910190613bb4565b50611fb3929150613c3f565b610e1d91905b80821115611fb35760008155600101613c08565b610e1d91905b80821115611fb3576000613c368282613af2565b50600101613c22565b610e1d91905b80821115611fb357805473ffffffffffffffffffffffffffffffffffffffff19168155600101613c45565b6000613c7c8235614b1e565b9392505050565b6000601f82018313613c9457600080fd5b8135613ca7613ca282614aec565b614ac5565b91508082526020830160208301858383011115613cc357600080fd5b613cce838284614b46565b50505092915050565b6000613c7c8235610e1d565b600060208284031215613cf557600080fd5b6000613d018484613c70565b949350505050565b600060208284031215613d1b57600080fd5b813567ffffffffffffffff811115613d3257600080fd5b613d0184828501613c83565b600080600080600060a08688031215613d5657600080fd5b853567ffffffffffffffff811115613d6d57600080fd5b613d7988828901613c83565b955050602086013567ffffffffffffffff811115613d9657600080fd5b613da288828901613c83565b9450506040613db388828901613cd7565b935050606086013567ffffffffffffffff811115613dd057600080fd5b613ddc88828901613c83565b9250506080613ded88828901613c70565b9150509295509295909350565b600060208284031215613e0c57600080fd5b6000613d018484613cd7565b60008060008060008060c08789031215613e3157600080fd5b6000613e3d8989613cd7565b965050602087013567ffffffffffffffff811115613e5a57600080fd5b613e6689828a01613c83565b955050604087013567ffffffffffffffff811115613e8357600080fd5b613e8f89828a01613c83565b945050606087013567ffffffffffffffff811115613eac57600080fd5b613eb889828a01613c83565b935050608087013567ffffffffffffffff811115613ed557600080fd5b613ee189828a01613c83565b92505060a087013567ffffffffffffffff811115613efe57600080fd5b613f0a89828a01613c83565b9150509295509295509295565b600080600080600060a08688031215613f2f57600080fd5b6000613f3b8888613cd7565b955050602086013567ffffffffffffffff811115613f5857600080fd5b613f6488828901613c83565b945050604086013567ffffffffffffffff811115613f8157600080fd5b613f8d88828901613c83565b935050606086013567ffffffffffffffff811115613faa57600080fd5b613fb688828901613c83565b9250506080613ded88828901613cd7565b60008060408385031215613fda57600080fd5b6000613fe68585613cd7565b9250506020613ff785828601613cd7565b9150509250929050565b600080600080600080600060e0888a03121561401c57600080fd5b60006140288a8a613cd7565b97505060206140398a828b01613cd7565b965050604088013567ffffffffffffffff81111561405657600080fd5b6140628a828b01613c83565b955050606088013567ffffffffffffffff81111561407f57600080fd5b61408b8a828b01613c83565b945050608088013567ffffffffffffffff8111156140a857600080fd5b6140b48a828b01613c83565b93505060a088013567ffffffffffffffff8111156140d157600080fd5b6140dd8a828b01613c83565b92505060c088013567ffffffffffffffff8111156140fa57600080fd5b6141068a828b01613c83565b91505092959891949750929550565b61411e81614b1e565b82525050565b600061412f82614b1a565b80845260208401935061414183614b14565b60005b8281101561417157614157868351614115565b61416082614b14565b602096909601959150600101614144565b5093949350505050565b600061418682614b1a565b8084526020840193508360208202850161419f85614b14565b60005b848110156141d65783830388526141ba838351614344565b92506141c582614b14565b6020989098019791506001016141a2565b50909695505050505050565b60006141ed82614b1a565b8084526020840193508360208202850161420685614b14565b60005b848110156141d65783830388526142218383516146f5565b925061422c82614b14565b602098909801979150600101614209565b600061424882614b1a565b8084526020840193508360208202850161426185614b14565b60005b848110156141d657838303885261427c8383516147f8565b925061428782614b14565b602098909801979150600101614264565b60006142a382614b1a565b8084526020840193506142b583614b14565b60005b82811015614171576142cb8683516148af565b6142d482614b14565b6020969096019591506001016142b8565b60006142f082614b1a565b80845260208401935061430283614b14565b60005b82811015614171576143188683516148af565b61432182614b14565b602096909601959150600101614305565b61411e81614b2a565b61411e81614b3b565b600061434f82614b1a565b808452614363816020860160208601614b52565b61436c81614b7e565b9093016020019392505050565b601a81527f4372656174696f6e204461746520697320696e6d757461626c65000000000000602082015260400190565b601181527f726f6c65206973206d616e6461746f7279000000000000000000000000000000602082015260400190565b602281527f4f6e6c792070656e64696e672075736572732063616e2062652061636365707460208201527f6564000000000000000000000000000000000000000000000000000000000000604082015260600190565b601381527f5573657220616c72656164792065786973747300000000000000000000000000602082015260400190565b601481527f546869732075736572206e6f7420657869737473000000000000000000000000602082015260400190565b601b81527f596f752063616e6e6f7420616363657074207468697320757365720000000000602082015260400190565b602281527f4f6e6c792070656e64696e672075736572732063616e2062652072656a65637460208201527f6564000000000000000000000000000000000000000000000000000000000000604082015260600190565b601381527f737461747573206973206e6f742076616c696400000000000000000000000000602082015260400190565b601181527f6d656d626572206e6f7420657869737473000000000000000000000000000000602082015260400190565b601581527f4d656d62657220616c7265616479206578697374730000000000000000000000602082015260400190565b601181527f4d656d626572206e6f7420657869737473000000000000000000000000000000602082015260400190565b601281527f5468656d65206973206d616e6461746f72790000000000000000000000000000602082015260400190565b601081527f434d4f206973206d616e6461746f727900000000000000000000000000000000602082015260400190565b601481527f596f7520617265206e6f74206163636570746564000000000000000000000000602082015260400190565b601181527f4e616d65206973206d616e6461746f7279000000000000000000000000000000602082015260400190565b601181527f4e6f2076616c6964206d656d6265724964000000000000000000000000000000602082015260400190565b601981527f4372656174696f6e44617465206973206d616e6461746f727900000000000000602082015260400190565b805160009061014084019061470a85826148af565b50602083015161471d60208601826148af565b50604083015184820360408601526147358282614344565b9150506060830151848203606086015261474f8282614344565b915050608083015184820360808601526147698282614344565b91505060a083015184820360a08601526147838282614344565b91505060c083015184820360c086015261479d8282614344565b91505060e083015184820360e08601526147b782826142e5565b9150506101008301518482036101008601526147d382826142e5565b9150506101208301518482036101208601526147ef8282614124565b95945050505050565b805160009061010084019061480d85826148af565b50602083015184820360208601526148258282614344565b9150506040830151848203604086015261483f8282614344565b915050606083015161485460608601826148af565b50608083015161486760808601826148af565b5060a083015184820360a086015261487f8282614344565b91505060c083015161489460c086018261433b565b5060e08301516148a760e0860182614115565b509392505050565b61411e81610e1d565b60208082528101613c7c818461417b565b60208082528101613c7c81846141e2565b60208082528101613c7c818461423d565b60208082528101613c7c8184614298565b6020810161113a8284614332565b6020808252810161113a81614379565b6020808252810161113a816143a9565b6020808252810161113a816143d9565b6020808252810161113a8161442f565b6020808252810161113a8161445f565b6020808252810161113a8161448f565b6020808252810161113a816144bf565b6020808252810161113a81614515565b6020808252810161113a81614545565b6020808252810161113a81614575565b6020808252810161113a816145a5565b6020808252810161113a816145d5565b6020808252810161113a81614605565b6020808252810161113a81614635565b6020808252810161113a81614665565b6020808252810161113a81614695565b6020808252810161113a816146c5565b60208082528101613c7c81846147f8565b6020810161113a82846148af565b6101008101614a48828b6148af565b8181036020830152614a5a818a614344565b90508181036040830152614a6e8189614344565b9050614a7d60608301886148af565b614a8a60808301876148af565b81810360a0830152614a9c8186614344565b9050614aab60c083018561433b565b614ab860e0830184614115565b9998505050505050505050565b60405181810167ffffffffffffffff81118282101715614ae457600080fd5b604052919050565b600067ffffffffffffffff821115614b0357600080fd5b506020601f91909101601f19160190565b60200190565b5190565b600160a060020a031690565b151590565b600060038210611fb357fe5b600061113a82614b2f565b82818337506000910152565b60005b83811015614b6d578181015183820152602001614b55565b83811115611ade5750506000910152565b601f01601f1916905600a265627a7a72305820d2b5a50b49e6c27e7f5ed3a2a1d45420af4c8c7ec85f5955a7b794c1bc2bd8086c6578706572696d656e74616cf50037",
  "source": "pragma solidity ^0.4.24;\npragma experimental ABIEncoderV2;\n\nimport \"./Members.sol\";\nimport \"./Claims.sol\";\n\ncontract Users is Members {\n\n  struct User {\n    uint256 creationDate;\n    string firstName;\n    string lastName;\n    uint256 memberId;\n    uint256 requestId;\n    string role;\n    StatusUserEnum status;\n    address owner;\n  }\n\n  enum StatusUserEnum {\n    REJECTED,\n    PENDING,\n    ACCEPTED\n  }\n\n  mapping (address => User) public users_;\n  address[] private usersList_;\n\n  uint256 constant private PAGE_SIZE = 10;\n\n  // PUBLIC\n\n  function registerUserRequest(uint256 _creationDate, string _firstName, string _lastName, string _role, uint256 _memberId) public {\n\n    require(_memberId != 0, \"No valid memberId\");\n    require(_creationDate > 0, \"CreationDate is mandatory\");\n    require(users_[msg.sender].creationDate == 0, \"User already exists\");\n    require(_memberExists(_memberId), \"Member not exists\");\n\n    uint256 _requestId = Random.rand(_creationDate);\n    _saveUser(_creationDate, _firstName, _lastName, _memberId, _requestId, _role, uint256(StatusUserEnum.PENDING), msg.sender, 0);\n  }\n\n  function updateUser(string _firstName, string _lastName, uint256 _memberId, string _role, address owner) public {\n\n    require(users_[owner].owner > address(0), \"This user not exists\");\n    require(uint(users_[owner].status) == uint(StatusUserEnum.ACCEPTED), \"You are not accepted\");\n\n    uint256 _requestId = users_[owner].requestId;\n    uint256 _creationDate = users_[owner].creationDate;\n    uint256 _status = uint(users_[owner].status);\n\n    _saveUser(_creationDate, _firstName, _lastName, _memberId, _requestId, _role, _status, owner, 1);\n  }\n\n  function rejectUser(address _userToReject) public {\n\n    require(users_[_userToReject].owner > address(0), \"This user not exists\");\n    require((users_[msg.sender].memberId == users_[_userToReject].memberId) || isSigner(msg.sender), \"You cannot accept this user\");\n    require((uint(users_[msg.sender].status) == uint(StatusUserEnum.ACCEPTED)) || isSigner(msg.sender), \"You are not accepted\");\n    require(users_[_userToReject].status == StatusUserEnum.PENDING, \"Only pending users can be rejected\");\n\n    users_[_userToReject].status = StatusUserEnum.REJECTED;\n    _clearUserFromMemberRequest(users_[_userToReject].memberId, _userToReject);\n  }\n\n  function acceptUser(address _userToAccept) public {\n\n    require(users_[_userToAccept].owner > address(0), \"This user not exists\");\n    require((users_[msg.sender].memberId == users_[_userToAccept].memberId) || isSigner(msg.sender), \"You cannot accept this user\");\n    require((uint(users_[msg.sender].status) == uint(StatusUserEnum.ACCEPTED)) || isSigner(msg.sender), \"You are not accepted\");\n    require(users_[_userToAccept].status == StatusUserEnum.PENDING, \"Only pending users can be accepted\");\n\n    users_[_userToAccept].status = StatusUserEnum.ACCEPTED;\n    _clearUserFromMemberRequest(users_[_userToAccept].memberId, _userToAccept);\n  }\n\n  function getcountUsers() public view returns(uint) {\n    uint256 counter = 0;\n    for (uint i = 0; i < usersList_.length; ++i) {\n      if(users_[usersList_[i]].memberId == users_[msg.sender].memberId\n        && users_[usersList_[i]].status == StatusUserEnum.ACCEPTED) {\n        counter++;\n      }\n    }\n    return counter;\n  }\n\n  function whitelistAdmin(address account) public onlySigner {\n    _clearUserFromMemberRequest(users_[account].memberId, account);\n    users_[account].role = \"Super admin\";\n    users_[account].memberId = 0;\n    users_[account].status = StatusUserEnum.ACCEPTED;\n    addSigner(account);\n\n  }\n\n  function getUsers(uint256 _page) public view returns(User[] memory) {\n    uint256 counter = getcountUsers();\n\n    uint256 pageIndex = SafeMath.mul(PAGE_SIZE, _page);\n    uint256 pageNumber = SafeMath.div(usersList_.length, PAGE_SIZE);\n\n    if (counter == 0 || pageIndex > counter || _page > pageNumber) {\n      return;\n    }\n\n    User[] memory userPageBasic = new User[](PAGE_SIZE);\n    uint256 counterFinal = 0;\n\n    for (uint j = pageIndex; j < usersList_.length; ++j) {\n      if(users_[usersList_[j]].memberId == users_[msg.sender].memberId\n        && users_[usersList_[j]].status == StatusUserEnum.ACCEPTED) {\n        userPageBasic[counterFinal] = users_[usersList_[j]];\n        ++counterFinal;\n      }\n    }\n    return userPageBasic;\n  }\n\n  function getUserByAddress(address userAddress) public view returns(User memory) {\n    return users_[userAddress];\n  }\n\n  function getUsersOwner() onlySigner public view returns(User[] memory) {\n    User[] memory userPageOwner = new User[](usersList_.length);\n\n    for (uint i = 0; i < usersList_.length; ++i) {\n      userPageOwner[i] = users_[usersList_[i]];\n    }\n\n    return userPageOwner;\n  }\n\n  function getMe() public view returns(User) {\n    //TODO: require\n    User memory user = users_[msg.sender];\n    return user;\n  }\n\n  // PRIVATE\n\n  function _saveUser(uint256 _creationDate, string _firstName, string _lastName, uint256 _memberId,\n    uint256 _requestId, string _role, uint256 _status, address owner, uint isCreate) internal {\n\n    require(_status >= 0 || _status <=2, \"status is not valid\");\n    require(bytes(_role).length != 0, \"role is mandatory\");\n\n    User memory user = users_[owner];\n\n    user.creationDate =  _creationDate;\n    user.firstName =  _firstName;\n    user.lastName =  _lastName;\n    user.memberId =  _memberId;\n    user.requestId =  _requestId;\n    user.role = _role;\n    user.status = StatusUserEnum(_status);\n    user.owner = owner;\n\n    users_[owner] = user;\n\n    if(isCreate == 0) {\n      usersList_.push(owner);\n      _addUserToMemberRequest(_memberId);\n    }\n  }\n\n  function _memberIdFromCurrentAddress(address addr) view public returns(uint256) {\n    return users_[addr].memberId;\n  }\n\n}\n",
  "sourcePath": "/home/komodo/newUI2/bloomen-decentralized-rights-management-v2/truffle/contracts/registry/Users.sol",
  "compiler": {
    "name": "solc",
    "version": "0.4.24+commit.e67f0147.Emscripten.clang"
  },
  "schemaVersion": "2.0.1",
  "updatedAt": "2020-01-20T09:28:20.021Z"
}