{
  "contractName": "Users",
  "abi": [
    {
      "constant": false,
      "inputs": [
        {
          "name": "_cmo",
          "type": "string"
        }
      ],
      "name": "addCMO",
      "outputs": [],
      "payable": false,
      "stateMutability": "nonpayable",
      "type": "function"
    },
    {
      "constant": true,
      "inputs": [
        {
          "name": "_memberId",
          "type": "uint256"
        }
      ],
      "name": "_getClaimsIdByMember",
      "outputs": [
        {
          "name": "",
          "type": "uint256[]"
        }
      ],
      "payable": false,
      "stateMutability": "view",
      "type": "function"
    },
    {
      "constant": true,
      "inputs": [],
      "name": "getCMOs",
      "outputs": [
        {
          "name": "",
          "type": "string[]"
        }
      ],
      "payable": false,
      "stateMutability": "view",
      "type": "function"
    },
    {
      "constant": false,
      "inputs": [
        {
          "name": "_memberId",
          "type": "uint256"
        },
        {
          "name": "_creationDate",
          "type": "uint256"
        },
        {
          "name": "_name",
          "type": "string"
        },
        {
          "name": "_logo",
          "type": "string"
        },
        {
          "name": "_country",
          "type": "string"
        },
        {
          "name": "_cmo",
          "type": "string"
        },
        {
          "name": "_theme",
          "type": "string"
        }
      ],
      "name": "updateMember",
      "outputs": [],
      "payable": false,
      "stateMutability": "nonpayable",
      "type": "function"
    },
    {
      "constant": false,
      "inputs": [
        {
          "name": "_memberId",
          "type": "uint256"
        },
        {
          "name": "_claimId",
          "type": "uint256"
        }
      ],
      "name": "_addClaimFromInbox",
      "outputs": [],
      "payable": false,
      "stateMutability": "nonpayable",
      "type": "function"
    },
    {
      "constant": true,
      "inputs": [
        {
          "name": "account",
          "type": "address"
        }
      ],
      "name": "isSigner",
      "outputs": [
        {
          "name": "",
          "type": "bool"
        }
      ],
      "payable": false,
      "stateMutability": "view",
      "type": "function"
    },
    {
      "constant": false,
      "inputs": [
        {
          "name": "_memberId",
          "type": "uint256"
        },
        {
          "name": "_claimId",
          "type": "uint256"
        }
      ],
      "name": "_removeClaimFromInbox",
      "outputs": [],
      "payable": false,
      "stateMutability": "nonpayable",
      "type": "function"
    },
    {
      "constant": true,
      "inputs": [],
      "name": "getMembers",
      "outputs": [
        {
          "components": [
            {
              "name": "memberId",
              "type": "uint256"
            },
            {
              "name": "creationDate",
              "type": "uint256"
            },
            {
              "name": "name",
              "type": "string"
            },
            {
              "name": "logo",
              "type": "string"
            },
            {
              "name": "country",
              "type": "string"
            },
            {
              "name": "cmo",
              "type": "string"
            },
            {
              "name": "theme",
              "type": "string"
            },
            {
              "name": "claimInbox",
              "type": "uint256[]"
            },
            {
              "name": "claims",
              "type": "uint256[]"
            },
            {
              "name": "userRequests",
              "type": "address[]"
            }
          ],
          "name": "",
          "type": "tuple[]"
        }
      ],
      "payable": false,
      "stateMutability": "view",
      "type": "function"
    },
    {
      "constant": false,
      "inputs": [
        {
          "name": "_memberId",
          "type": "uint256"
        },
        {
          "name": "_claimId",
          "type": "uint256"
        }
      ],
      "name": "_removeClaimIdFromMember",
      "outputs": [],
      "payable": false,
      "stateMutability": "nonpayable",
      "type": "function"
    },
    {
      "constant": true,
      "inputs": [],
      "name": "getCount",
      "outputs": [
        {
          "name": "",
          "type": "uint256"
        }
      ],
      "payable": false,
      "stateMutability": "view",
      "type": "function"
    },
    {
      "constant": true,
      "inputs": [
        {
          "name": "_memberId",
          "type": "uint256"
        }
      ],
      "name": "_getClaimsCountByMember",
      "outputs": [
        {
          "name": "",
          "type": "uint256"
        }
      ],
      "payable": false,
      "stateMutability": "view",
      "type": "function"
    },
    {
      "constant": false,
      "inputs": [
        {
          "name": "_index",
          "type": "uint256"
        }
      ],
      "name": "deleteCMO",
      "outputs": [],
      "payable": false,
      "stateMutability": "nonpayable",
      "type": "function"
    },
    {
      "constant": true,
      "inputs": [
        {
          "name": "_page",
          "type": "uint256"
        }
      ],
      "name": "getMembers",
      "outputs": [
        {
          "components": [
            {
              "name": "memberId",
              "type": "uint256"
            },
            {
              "name": "creationDate",
              "type": "uint256"
            },
            {
              "name": "name",
              "type": "string"
            },
            {
              "name": "logo",
              "type": "string"
            },
            {
              "name": "country",
              "type": "string"
            },
            {
              "name": "cmo",
              "type": "string"
            },
            {
              "name": "theme",
              "type": "string"
            },
            {
              "name": "claimInbox",
              "type": "uint256[]"
            },
            {
              "name": "claims",
              "type": "uint256[]"
            },
            {
              "name": "userRequests",
              "type": "address[]"
            }
          ],
          "name": "",
          "type": "tuple[]"
        }
      ],
      "payable": false,
      "stateMutability": "view",
      "type": "function"
    },
    {
      "constant": true,
      "inputs": [
        {
          "name": "",
          "type": "address"
        }
      ],
      "name": "users_",
      "outputs": [
        {
          "name": "creationDate",
          "type": "uint256"
        },
        {
          "name": "firstName",
          "type": "string"
        },
        {
          "name": "lastName",
          "type": "string"
        },
        {
          "name": "memberId",
          "type": "uint256"
        },
        {
          "name": "requestId",
          "type": "uint256"
        },
        {
          "name": "role",
          "type": "string"
        },
        {
          "name": "status",
          "type": "uint8"
        },
        {
          "name": "owner",
          "type": "address"
        }
      ],
      "payable": false,
      "stateMutability": "view",
      "type": "function"
    },
    {
      "constant": false,
      "inputs": [
        {
          "name": "_memberId",
          "type": "uint256"
        },
        {
          "name": "_claimId",
          "type": "uint256"
        }
      ],
      "name": "_addClaimIdToMemberOwner",
      "outputs": [],
      "payable": false,
      "stateMutability": "nonpayable",
      "type": "function"
    },
    {
      "constant": false,
      "inputs": [],
      "name": "renounceSigner",
      "outputs": [],
      "payable": false,
      "stateMutability": "nonpayable",
      "type": "function"
    },
    {
      "constant": false,
      "inputs": [
        {
          "name": "account",
          "type": "address"
        }
      ],
      "name": "addSigner",
      "outputs": [],
      "payable": false,
      "stateMutability": "nonpayable",
      "type": "function"
    },
    {
      "constant": true,
      "inputs": [
        {
          "name": "_memberId",
          "type": "uint256"
        }
      ],
      "name": "_memberExists",
      "outputs": [
        {
          "name": "",
          "type": "bool"
        }
      ],
      "payable": false,
      "stateMutability": "view",
      "type": "function"
    },
    {
      "constant": false,
      "inputs": [
        {
          "name": "_creationDate",
          "type": "uint256"
        },
        {
          "name": "_name",
          "type": "string"
        },
        {
          "name": "_logo",
          "type": "string"
        },
        {
          "name": "_country",
          "type": "string"
        },
        {
          "name": "_cmo",
          "type": "string"
        },
        {
          "name": "_theme",
          "type": "string"
        }
      ],
      "name": "addMember",
      "outputs": [
        {
          "name": "",
          "type": "uint256"
        }
      ],
      "payable": false,
      "stateMutability": "nonpayable",
      "type": "function"
    },
    {
      "anonymous": false,
      "inputs": [
        {
          "indexed": true,
          "name": "account",
          "type": "address"
        }
      ],
      "name": "SignerAdded",
      "type": "event"
    },
    {
      "anonymous": false,
      "inputs": [
        {
          "indexed": true,
          "name": "account",
          "type": "address"
        }
      ],
      "name": "SignerRemoved",
      "type": "event"
    },
    {
      "constant": false,
      "inputs": [
        {
          "name": "_creationDate",
          "type": "uint256"
        },
        {
          "name": "_firstName",
          "type": "string"
        },
        {
          "name": "_lastName",
          "type": "string"
        },
        {
          "name": "_role",
          "type": "string"
        },
        {
          "name": "_memberId",
          "type": "uint256"
        }
      ],
      "name": "registerUserRequest",
      "outputs": [],
      "payable": false,
      "stateMutability": "nonpayable",
      "type": "function"
    },
    {
      "constant": false,
      "inputs": [
        {
          "name": "_firstName",
          "type": "string"
        },
        {
          "name": "_lastName",
          "type": "string"
        },
        {
          "name": "_memberId",
          "type": "uint256"
        },
        {
          "name": "_role",
          "type": "string"
        },
        {
          "name": "owner",
          "type": "address"
        }
      ],
      "name": "updateUser",
      "outputs": [],
      "payable": false,
      "stateMutability": "nonpayable",
      "type": "function"
    },
    {
      "constant": false,
      "inputs": [
        {
          "name": "_userToReject",
          "type": "address"
        }
      ],
      "name": "rejectUser",
      "outputs": [],
      "payable": false,
      "stateMutability": "nonpayable",
      "type": "function"
    },
    {
      "constant": false,
      "inputs": [
        {
          "name": "_userToAccept",
          "type": "address"
        }
      ],
      "name": "acceptUser",
      "outputs": [],
      "payable": false,
      "stateMutability": "nonpayable",
      "type": "function"
    },
    {
      "constant": true,
      "inputs": [],
      "name": "getcountUsers",
      "outputs": [
        {
          "name": "",
          "type": "uint256"
        }
      ],
      "payable": false,
      "stateMutability": "view",
      "type": "function"
    },
    {
      "constant": false,
      "inputs": [
        {
          "name": "account",
          "type": "address"
        }
      ],
      "name": "whitelistAdmin",
      "outputs": [],
      "payable": false,
      "stateMutability": "nonpayable",
      "type": "function"
    },
    {
      "constant": true,
      "inputs": [
        {
          "name": "_page",
          "type": "uint256"
        }
      ],
      "name": "getUsers",
      "outputs": [
        {
          "components": [
            {
              "name": "creationDate",
              "type": "uint256"
            },
            {
              "name": "firstName",
              "type": "string"
            },
            {
              "name": "lastName",
              "type": "string"
            },
            {
              "name": "memberId",
              "type": "uint256"
            },
            {
              "name": "requestId",
              "type": "uint256"
            },
            {
              "name": "role",
              "type": "string"
            },
            {
              "name": "status",
              "type": "uint8"
            },
            {
              "name": "owner",
              "type": "address"
            }
          ],
          "name": "",
          "type": "tuple[]"
        }
      ],
      "payable": false,
      "stateMutability": "view",
      "type": "function"
    },
    {
      "constant": true,
      "inputs": [
        {
          "name": "userAddress",
          "type": "address"
        }
      ],
      "name": "getUserByAddress",
      "outputs": [
        {
          "components": [
            {
              "name": "creationDate",
              "type": "uint256"
            },
            {
              "name": "firstName",
              "type": "string"
            },
            {
              "name": "lastName",
              "type": "string"
            },
            {
              "name": "memberId",
              "type": "uint256"
            },
            {
              "name": "requestId",
              "type": "uint256"
            },
            {
              "name": "role",
              "type": "string"
            },
            {
              "name": "status",
              "type": "uint8"
            },
            {
              "name": "owner",
              "type": "address"
            }
          ],
          "name": "",
          "type": "tuple"
        }
      ],
      "payable": false,
      "stateMutability": "view",
      "type": "function"
    },
    {
      "constant": true,
      "inputs": [],
      "name": "getUsersOwner",
      "outputs": [
        {
          "components": [
            {
              "name": "creationDate",
              "type": "uint256"
            },
            {
              "name": "firstName",
              "type": "string"
            },
            {
              "name": "lastName",
              "type": "string"
            },
            {
              "name": "memberId",
              "type": "uint256"
            },
            {
              "name": "requestId",
              "type": "uint256"
            },
            {
              "name": "role",
              "type": "string"
            },
            {
              "name": "status",
              "type": "uint8"
            },
            {
              "name": "owner",
              "type": "address"
            }
          ],
          "name": "",
          "type": "tuple[]"
        }
      ],
      "payable": false,
      "stateMutability": "view",
      "type": "function"
    },
    {
      "constant": true,
      "inputs": [],
      "name": "getMe",
      "outputs": [
        {
          "components": [
            {
              "name": "creationDate",
              "type": "uint256"
            },
            {
              "name": "firstName",
              "type": "string"
            },
            {
              "name": "lastName",
              "type": "string"
            },
            {
              "name": "memberId",
              "type": "uint256"
            },
            {
              "name": "requestId",
              "type": "uint256"
            },
            {
              "name": "role",
              "type": "string"
            },
            {
              "name": "status",
              "type": "uint8"
            },
            {
              "name": "owner",
              "type": "address"
            }
          ],
          "name": "",
          "type": "tuple"
        }
      ],
      "payable": false,
      "stateMutability": "view",
      "type": "function"
    },
    {
      "constant": true,
      "inputs": [
        {
          "name": "addr",
          "type": "address"
        }
      ],
      "name": "_memberIdFromCurrentAddress",
      "outputs": [
        {
          "name": "",
          "type": "uint256"
        }
      ],
      "payable": false,
      "stateMutability": "view",
      "type": "function"
    }
  ],
  "bytecode": "0x608060405262000018336401000000006200001e810204565b62000103565b620000396000826401000000006200391f6200007082021704565b604051600160a060020a038216907f47d1c22a25bb3a5d4e481b9b1e6944c2eade3181a0a20b495ed61d35b5323f2490600090a250565b600160a060020a03811615156200008657600080fd5b6200009b8282640100000000620000cb810204565b15620000a657600080fd5b600160a060020a0316600090815260209190915260409020805460ff19166001179055565b6000600160a060020a0382161515620000e357600080fd5b50600160a060020a03166000908152602091909152604090205460ff1690565b614bf580620001136000396000f30060806040526004361061017f5763ffffffff7c010000000000000000000000000000000000000000000000000000000060003504166308bdc24d81146101845780633a59ccf1146101a65780634dc92885146101c65780635d73ab9a146101e65780636262dff61461021c578063656d561c1461024957806365ff0c481461026b57806369c212f61461028b57806374853239146102b85780637df73e27146102d85780638b92892b14610305578063932191be146103255780639eab52531461033a578063a29d441f1461035c578063a4fdc5941461037c578063a7ed1fe41461039e578063a87d942c146103be578063affccd84146103d3578063bf3d007e146103f3578063c11e1ff314610413578063c477ecab14610428578063d2105a0014610448578063e2c11f9e1461047c578063e5c8b03d1461049c578063eb12d61e146104b1578063eff34e59146104d1578063f8380733146104f1578063fa1188c614610511578063fcfbde5b14610531578063ff240fce14610551575b600080fd5b34801561019057600080fd5b506101a461019f366004613d16565b610571565b005b3480156101b257600080fd5b506101a46101c1366004613d3c565b610711565b3480156101d257600080fd5b506101a46101e1366004613d16565b61076d565b3480156101f257600080fd5b50610206610201366004613e2d565b6108d6565b604051610213919061490d565b60405180910390f35b34801561022857600080fd5b5061023c610237366004613e2d565b610cb2565b604051610213919061491e565b34801561025557600080fd5b5061025e610d47565b60405161021391906148eb565b34801561027757600080fd5b506101a4610286366004614034565b610e20565b34801561029757600080fd5b506102ab6102a6366004613d16565b610eeb565b6040516102139190614a4d565b3480156102c457600080fd5b506101a46102d3366004613ffa565b61113f565b3480156102e457600080fd5b506102f86102f3366004613d16565b611165565b604051610213919061492f565b34801561031157600080fd5b506101a4610320366004613ffa565b61117d565b34801561033157600080fd5b50610206611294565b34801561034657600080fd5b5061034f611585565b60405161021391906148fc565b34801561036857600080fd5b506101a4610377366004613ffa565b611a4c565b34801561038857600080fd5b50610391611b21565b6040516102139190614a5e565b3480156103aa57600080fd5b506101a46103b9366004613f4a565b611be7565b3480156103ca57600080fd5b50610391611cae565b3480156103df57600080fd5b506103916103ee366004613e2d565b611ccb565b3480156103ff57600080fd5b506101a461040e366004613e2d565b611ce0565b34801561041f57600080fd5b506102ab611d9d565b34801561043457600080fd5b5061034f610443366004613e2d565b611ff4565b34801561045457600080fd5b50610468610463366004613d16565b61250f565b604051610213989796959493929190614a6c565b34801561048857600080fd5b506101a4610497366004613ffa565b61270c565b3480156104a857600080fd5b506101a4612732565b3480156104bd57600080fd5b506101a46104cc366004613d16565b61273d565b3480156104dd57600080fd5b506103916104ec366004613d16565b61275a565b3480156104fd57600080fd5b506102f861050c366004613e2d565b612778565b34801561051d57600080fd5b5061039161052c366004613e4b565b61278b565b34801561053d57600080fd5b506101a461054c366004613d71565b61281a565b34801561055d57600080fd5b506101a461056c366004613d16565b612900565b600160a060020a038181166000908152600460205260408120600601546101009004909116116105bf5760405160e560020a62461bcd0281526004016105b69061497d565b60405180910390fd5b600160a060020a038116600090815260046020526040808220600390810154338452919092209091015414806105f957506105f933611165565b151561061a5760405160e560020a62461bcd0281526004016105b69061498d565b60023360009081526004602052604090206006015460ff16600281111561063d57fe5b148061064d575061064d33611165565b151561066e5760405160e560020a62461bcd0281526004016105b690614a0d565b6001600160a060020a03821660009081526004602052604090206006015460ff16600281111561069a57fe5b146106ba5760405160e560020a62461bcd0281526004016105b69061495d565b600160a060020a038116600090815260046020526040902060060180546002919060ff19166001835b0217905550600160a060020a03811660009081526004602052604090206003015461070e90826129d2565b50565b61071a33611165565b151561072557600080fd5b600180548082018083556000929092528251610768917fb10e2d527612073b26eecdfd717e6a320cf44b4afac2b0732d9fcbe2b7fa0cf60190602085019061396d565b505050565b600160a060020a038181166000908152600460205260408120600601546101009004909116116107b25760405160e560020a62461bcd0281526004016105b69061497d565b600160a060020a038116600090815260046020526040808220600390810154338452919092209091015414806107ec57506107ec33611165565b151561080d5760405160e560020a62461bcd0281526004016105b69061498d565b60023360009081526004602052604090206006015460ff16600281111561083057fe5b1480610840575061084033611165565b15156108615760405160e560020a62461bcd0281526004016105b690614a0d565b6001600160a060020a03821660009081526004602052604090206006015460ff16600281111561088d57fe5b146108ad5760405160e560020a62461bcd0281526004016105b69061499d565b600160a060020a0381166000908152600460205260408120600601805460ff19166001836106e3565b6060600080600060606000806108ea611b21565b95506108f7600a89612b37565b60055490955061090890600a612b70565b935085158061091657508585115b8061092057508388115b1561092a57610ca7565b60408051600a808252610160820190925290816020015b6109496139e7565b815260200190600190039081610941579050509250600091508490505b600554811015610ca357336000908152600460208190526040822060030154600580549193918590811061099657fe5b6000918252602080832090910154600160a060020a03168352820192909252604001902060030154148015610a1357506002600460006005848154811015156109db57fe5b6000918252602080832090910154600160a060020a0316835282019290925260400190206006015460ff166002811115610a1157fe5b145b15610c9b5760046000600583815481101515610a2b57fe5b600091825260208083209190910154600160a060020a0316835282810193909352604091820190208151610100808201845282548252600180840180548651600293821615909402600019011691909104601f81018790048702830187019095528482529194929385840193919291830182828015610aeb5780601f10610ac057610100808354040283529160200191610aeb565b820191906000526020600020905b815481529060010190602001808311610ace57829003601f168201915b5050509183525050600282810180546040805160206001841615610100026000190190931694909404601f81018390048302850183019091528084529381019390830182828015610b7d5780601f10610b5257610100808354040283529160200191610b7d565b820191906000526020600020905b815481529060010190602001808311610b6057829003601f168201915b505050505081526020016003820154815260200160048201548152602001600582018054600181600116156101000203166002900480601f016020809104026020016040519081016040528092919081815260200182805460018160011615610100020316600290048015610c335780601f10610c0857610100808354040283529160200191610c33565b820191906000526020600020905b815481529060010190602001808311610c1657829003601f168201915b5050509183525050600682015460209091019060ff166002811115610c5457fe5b6002811115610c5f57fe5b8152600691909101546101009004600160a060020a03166020909101528351849084908110610c8a57fe5b602090810290910101526001909101905b600101610966565b8296505b505050505050919050565b60008181526002602052604081205460609110610ce45760405160e560020a62461bcd0281526004016105b6906149bd565b60008281526002602090815260409182902060080180548351818402810184019094528084529091830182828015610d3b57602002820191906000526020600020905b815481526020019060010190808311610d27575b50505050509050919050565b60606001805480602002602001604051908101604052809291908181526020016000905b82821015610e165760008481526020908190208301805460408051601f6002600019610100600187161502019094169390930492830185900485028101850190915281815292830182828015610e025780601f10610dd757610100808354040283529160200191610e02565b820191906000526020600020905b815481529060010190602001808311610de557829003601f168201915b505050505081526020019060010190610d6b565b5050505090505b90565b610e2933611165565b1515610e3457600080fd5b60008781526002602052604081205411610e635760405160e560020a62461bcd0281526004016105b6906149dd565b6000878152600260205260409020600101548614610e965760405160e560020a62461bcd0281526004016105b69061493d565b60008781526002602081815260409092208751610ebb9391909201919088019061396d565b5060008781526002602090815260409091208251610ee19260069092019184019061396d565b5050505050505050565b610ef36139e7565b600160a060020a0382166000908152600460209081526040918290208251610100808201855282548252600180840180548751600293821615909402600019011691909104601f8101869004860283018601909652858252919492938581019391929190830182828015610fa85780601f10610f7d57610100808354040283529160200191610fa8565b820191906000526020600020905b815481529060010190602001808311610f8b57829003601f168201915b5050509183525050600282810180546040805160206001841615610100026000190190931694909404601f8101839004830285018301909152808452938101939083018282801561103a5780601f1061100f5761010080835404028352916020019161103a565b820191906000526020600020905b81548152906001019060200180831161101d57829003601f168201915b505050505081526020016003820154815260200160048201548152602001600582018054600181600116156101000203166002900480601f0160208091040260200160405190810160405280929190818152602001828054600181600116156101000203166002900480156110f05780601f106110c5576101008083540402835291602001916110f0565b820191906000526020600020905b8154815290600101906020018083116110d357829003601f168201915b5050509183525050600682015460209091019060ff16600281111561111157fe5b600281111561111c57fe5b8152600691909101546101009004600160a060020a031660209091015292915050565b600091825260026020908152604083206007018054600181018255908452922090910155565b6000611177818363ffffffff612b9316565b92915050565b6000805b6000848152600260205260409020600701546000190181101561123d5760008481526002602052604090206007018054849190839081106111be57fe5b906000526020600020015414156111d457600191505b81156112355760008481526002602052604090206007018054600183019081106111fa57fe5b9060005260206000200154600260008681526020019081526020016000206007018281548110151561122857fe5b6000918252602090912001555b600101611181565b60008481526002602052604090206007018054600019810190811061125e57fe5b60009182526020808320909101829055858252600290526040902060070180549061128d906000198301613a38565b5050505050565b60608060006112a233611165565b15156112ad57600080fd5b6005546040805182815260208084028201019091529080156112e957816020015b6112d66139e7565b8152602001906001900390816112ce5790505b509150600090505b60055481101561157f576004600060058381548110151561130e57fe5b600091825260208083209190910154600160a060020a0316835282810193909352604091820190208151610100808201845282548252600180840180548651600293821615909402600019011691909104601f810187900487028301870190955284825291949293858401939192918301828280156113ce5780601f106113a3576101008083540402835291602001916113ce565b820191906000526020600020905b8154815290600101906020018083116113b157829003601f168201915b5050509183525050600282810180546040805160206001841615610100026000190190931694909404601f810183900483028501830190915280845293810193908301828280156114605780601f1061143557610100808354040283529160200191611460565b820191906000526020600020905b81548152906001019060200180831161144357829003601f168201915b505050505081526020016003820154815260200160048201548152602001600582018054600181600116156101000203166002900480601f0160208091040260200160405190810160405280929190818152602001828054600181600116156101000203166002900480156115165780601f106114eb57610100808354040283529160200191611516565b820191906000526020600020905b8154815290600101906020018083116114f957829003601f168201915b5050509183525050600682015460209091019060ff16600281111561153757fe5b600281111561154257fe5b8152600691909101546101009004600160a060020a0316602090910152825183908390811061156d57fe5b602090810290910101526001016112f1565b50919050565b60608060006003805490506040519080825280602002602001820160405280156115c957816020015b6115b6613a5c565b8152602001906001900390816115ae5790505b509150600090505b60035481101561157f57600260006003838154811015156115ee57fe5b9060005260206000200154815260200190815260200160002061014060405190810160405290816000820154815260200160018201548152602001600282018054600181600116156101000203166002900480601f0160208091040260200160405190810160405280929190818152602001828054600181600116156101000203166002900480156116c15780601f10611696576101008083540402835291602001916116c1565b820191906000526020600020905b8154815290600101906020018083116116a457829003601f168201915b505050918352505060038201805460408051602060026001851615610100026000190190941693909304601f81018490048402820184019092528181529382019392918301828280156117555780601f1061172a57610100808354040283529160200191611755565b820191906000526020600020905b81548152906001019060200180831161173857829003601f168201915b505050918352505060048201805460408051602060026001851615610100026000190190941693909304601f81018490048402820184019092528181529382019392918301828280156117e95780601f106117be576101008083540402835291602001916117e9565b820191906000526020600020905b8154815290600101906020018083116117cc57829003601f168201915b505050918352505060058201805460408051602060026001851615610100026000190190941693909304601f810184900484028201840190925281815293820193929183018282801561187d5780601f106118525761010080835404028352916020019161187d565b820191906000526020600020905b81548152906001019060200180831161186057829003601f168201915b505050918352505060068201805460408051602060026001851615610100026000190190941693909304601f81018490048402820184019092528181529382019392918301828280156119115780601f106118e657610100808354040283529160200191611911565b820191906000526020600020905b8154815290600101906020018083116118f457829003601f168201915b505050505081526020016007820180548060200260200160405190810160405280929190818152602001828054801561196957602002820191906000526020600020905b815481526020019060010190808311611955575b50505050508152602001600882018054806020026020016040519081016040528092919081815260200182805480156119c157602002820191906000526020600020905b8154815260200190600101908083116119ad575b5050505050815260200160098201805480602002602001604051908101604052809291908181526020018280548015611a2357602002820191906000526020600020905b8154600160a060020a03168152600190910190602001808311611a05575b5050505050815250508282815181101515611a3a57fe5b602090810290910101526001016115d1565b6000828152600260205260408120600801549081111561076857600083815260026020526040902060080180546000198301908110611a8757fe5b90600052602060002001546002600085815260200190815260200160002060080183815481101515611ab557fe5b9060005260206000200181905550816002600085815260200190815260200160002060080160018303815481101515611aea57fe5b6000918252602080832090910192909255848152600290915260409020600801805490611b1b906000198301613a38565b50505050565b600080805b60055481101561157f573360009081526004602081905260408220600301546005805491939185908110611b5657fe5b6000918252602080832090910154600160a060020a03168352820192909252604001902060030154148015611bd35750600260046000600584815481101515611b9b57fe5b6000918252602080832090910154600160a060020a0316835282019290925260400190206006015460ff166002811115611bd157fe5b145b15611bdf576001909101905b600101611b26565b6000811515611c0b5760405160e560020a62461bcd0281526004016105b690614a2d565b60008611611c2e5760405160e560020a62461bcd0281526004016105b690614a3d565b3360009081526004602052604090205415611c5e5760405160e560020a62461bcd0281526004016105b69061496d565b611c6782612778565b1515611c885760405160e560020a62461bcd0281526004016105b6906149dd565b611c9186612bca565b9050611ca68686868585886001336000612db9565b505050505050565b6000611cb933611165565b1515611cc457600080fd5b5060035490565b60009081526002602052604090206008015490565b6000611ceb33611165565b1515611cf657600080fd5b50805b60015460001901811015611d625760018054828201908110611d1757fe5b90600052602060002001600182815481101515611d3057fe5b906000526020600020019080546001816001161561010002031660029004611d59929190613ab0565b50600101611cf9565b600180546000198101908110611d7457fe5b906000526020600020016000611d8a9190613b25565b6001805490610768906000198301613b69565b611da56139e7565b611dad6139e7565b336000908152600460209081526040918290208251610100808201855282548252600180840180548751600293821615909402600019011691909104601f8101869004860283018601909652858252919492938581019391929190830182828015611e595780601f10611e2e57610100808354040283529160200191611e59565b820191906000526020600020905b815481529060010190602001808311611e3c57829003601f168201915b5050509183525050600282810180546040805160206001841615610100026000190190931694909404601f81018390048302850183019091528084529381019390830182828015611eeb5780601f10611ec057610100808354040283529160200191611eeb565b820191906000526020600020905b815481529060010190602001808311611ece57829003601f168201915b505050505081526020016003820154815260200160048201548152602001600582018054600181600116156101000203166002900480601f016020809104026020016040519081016040528092919081815260200182805460018160011615610100020316600290048015611fa15780601f10611f7657610100808354040283529160200191611fa1565b820191906000526020600020905b815481529060010190602001808311611f8457829003601f168201915b5050509183525050600682015460209091019060ff166002811115611fc257fe5b6002811115611fcd57fe5b8152600691909101546101009004600160a060020a031660209091015291508190505b5090565b606060008060006060600061200a600a88612b37565b60035490955061201b90600a612b70565b600354909450158061203257506003546000190185115b8061203c57508387115b1561204657612505565b60408051600a80825261016082019092526000945090816020015b612069613a5c565b8152602001906001900390816120615790505091508490505b600354811015612501576002600060038381548110151561209f57fe5b9060005260206000200154815260200190815260200160002061014060405190810160405290816000820154815260200160018201548152602001600282018054600181600116156101000203166002900480601f0160208091040260200160405190810160405280929190818152602001828054600181600116156101000203166002900480156121725780601f1061214757610100808354040283529160200191612172565b820191906000526020600020905b81548152906001019060200180831161215557829003601f168201915b505050918352505060038201805460408051602060026001851615610100026000190190941693909304601f81018490048402820184019092528181529382019392918301828280156122065780601f106121db57610100808354040283529160200191612206565b820191906000526020600020905b8154815290600101906020018083116121e957829003601f168201915b505050918352505060048201805460408051602060026001851615610100026000190190941693909304601f810184900484028201840190925281815293820193929183018282801561229a5780601f1061226f5761010080835404028352916020019161229a565b820191906000526020600020905b81548152906001019060200180831161227d57829003601f168201915b505050918352505060058201805460408051602060026001851615610100026000190190941693909304601f810184900484028201840190925281815293820193929183018282801561232e5780601f106123035761010080835404028352916020019161232e565b820191906000526020600020905b81548152906001019060200180831161231157829003601f168201915b505050918352505060068201805460408051602060026001851615610100026000190190941693909304601f81018490048402820184019092528181529382019392918301828280156123c25780601f10612397576101008083540402835291602001916123c2565b820191906000526020600020905b8154815290600101906020018083116123a557829003601f168201915b505050505081526020016007820180548060200260200160405190810160405280929190818152602001828054801561241a57602002820191906000526020600020905b815481526020019060010190808311612406575b505050505081526020016008820180548060200260200160405190810160405280929190818152602001828054801561247257602002820191906000526020600020905b81548152602001906001019080831161245e575b50505050508152602001600982018054806020026020016040519081016040528092919081815260200182805480156124d457602002820191906000526020600020905b8154600160a060020a031681526001909101906020018083116124b6575b50505050508152505082848151811015156124eb57fe5b6020908102909101015260019283019201612082565b8195505b5050505050919050565b6004602090815260009182526040918290208054600180830180548651600293821615610100026000190190911692909204601f8101869004860283018601909652858252919492939092908301828280156125ac5780601f10612581576101008083540402835291602001916125ac565b820191906000526020600020905b81548152906001019060200180831161258f57829003601f168201915b50505060028085018054604080516020601f600019610100600187161502019094169590950492830185900485028101850190915281815295969594509092509083018282801561263e5780601f106126135761010080835404028352916020019161263e565b820191906000526020600020905b81548152906001019060200180831161262157829003601f168201915b505050505090806003015490806004015490806005018054600181600116156101000203166002900480601f0160208091040260200160405190810160405280929190818152602001828054600181600116156101000203166002900480156126e85780601f106126bd576101008083540402835291602001916126e8565b820191906000526020600020905b8154815290600101906020018083116126cb57829003601f168201915b5050506006909301549192505060ff811690600160a060020a036101009091041688565b600091825260026020908152604083206008018054600181018255908452922090910155565b61273b3361320d565b565b61274633611165565b151561275157600080fd5b61070e81613255565b600160a060020a031660009081526004602052604090206003015490565b6000908152600260205260408120541190565b60008061279733611165565b15156127a257600080fd5b600088116127c55760405160e560020a62461bcd0281526004016105b690614a3d565b6127ce88612bca565b600081815260026020526040902054909150156128005760405160e560020a62461bcd0281526004016105b6906149cd565b61280f8189898989898961329d565b979650505050505050565b600160a060020a038181166000908152600460205260408120600601549091829182916101009091041681106128655760405160e560020a62461bcd0281526004016105b69061497d565b6002600160a060020a03851660009081526004602052604090206006015460ff16600281111561289157fe5b146128b15760405160e560020a62461bcd0281526004016105b690614a0d565b600160a060020a038416600090815260046020819052604090912090810154815460069092015490945090925060ff1660028111156128ec57fe5b9050610ee182898989878a878b6001612db9565b61290933611165565b151561291457600080fd5b600160a060020a03811660009081526004602052604090206003015461293a90826129d2565b604080518082018252600b81527f53757065722061646d696e0000000000000000000000000000000000000000006020808301918252600160a060020a0385166000908152600490915292909220905161299a926005909201919061396d565b50600160a060020a03811660009081526004602052604081206003810191909155600601805460ff1916600217905561070e8161273d565b6000805b60008481526002602052604090206009015460001901811015612acf5760008481526002602052604090206009018054600160a060020a038516919083908110612a1c57fe5b600091825260209091200154600160a060020a03161415612a3c57600191505b8115612ac7576000848152600260205260409020600901805460018301908110612a6257fe5b6000918252602080832090910154868352600290915260409091206009018054600160a060020a039092169183908110612a9857fe5b9060005260206000200160006101000a815481600160a060020a030219169083600160a060020a031602179055505b6001016129d6565b600084815260026020526040902060090180546000198101908110612af057fe5b60009182526020808320909101805473ffffffffffffffffffffffffffffffffffffffff19169055858252600290526040902060090180549061128d906000198301613a38565b600080831515612b4a5760009150612b69565b50828202828482811515612b5a57fe5b0414612b6557600080fd5b8091505b5092915050565b600080808311612b7f57600080fd5b8284811515612b8a57fe5b04949350505050565b6000600160a060020a0382161515612baa57600080fd5b50600160a060020a03166000908152602091909152604090205460ff1690565b6000808080600285061515612c5c5784604051602001808281526020019150506040516020818303038152906040526040518082805190602001908083835b60208310612c285780518252601f199092019160209182019101612c09565b6001836020036101000a03801982511681845116808217855250505050505090500191505060405180910390209250612d47565b84604051602001808281526020019150506040516020818303038152906040526040518082805190602001908083835b60208310612cab5780518252601f199092019160209182019101612c8c565b51815160209384036101000a600019018019909216911617905260408051929094018290038220828201528351808303820181529184019384905281519195509293508392850191508083835b60208310612d175780518252601f199092019160209182019101612cf8565b6001836020036101000a038019825116818451168082178552505050505050905001915050604051809103902092505b6020811015612d7457828160208110612d5c57fe5b60f860020a91901a8102049190910190600101612d47565b826020600284010660208110612d8657fe5b60f860020a91901a810204836020840660208110612da057fe5b1a60f860020a0260f860020a9004029350505050919050565b612dc16139e7565b600084101580612dd2575060028411155b1515612df35760405160e560020a62461bcd0281526004016105b6906149ad565b84511515612e165760405160e560020a62461bcd0281526004016105b69061494d565b600160a060020a0383166000908152600460209081526040918290208251610100808201855282548252600180840180548751600293821615909402600019011691909104601f8101869004860283018601909652858252919492938581019391929190830182828015612ecb5780601f10612ea057610100808354040283529160200191612ecb565b820191906000526020600020905b815481529060010190602001808311612eae57829003601f168201915b5050509183525050600282810180546040805160206001841615610100026000190190931694909404601f81018390048302850183019091528084529381019390830182828015612f5d5780601f10612f3257610100808354040283529160200191612f5d565b820191906000526020600020905b815481529060010190602001808311612f4057829003601f168201915b505050505081526020016003820154815260200160048201548152602001600582018054600181600116156101000203166002900480601f0160208091040260200160405190810160405280929190818152602001828054600181600116156101000203166002900480156130135780601f10612fe857610100808354040283529160200191613013565b820191906000526020600020905b815481529060010190602001808311612ff657829003601f168201915b5050509183525050600682015460209091019060ff16600281111561303457fe5b600281111561303f57fe5b8152600691909101546101009004600160a060020a03166020918201528b825281018a905260408101899052606081018890526080810187905260a08101869052905083600281111561308e57fe5b8160c00190600281111561309e57fe5b908160028111156130ab57fe5b905250600160a060020a03831660e0820181905260009081526004602090815260409091208251815581830151805184936130ed92600185019291019061396d565b506040820151805161310991600284019160209091019061396d565b50606082015160038201556080820151600482015560a0820151805161313991600584019160209091019061396d565b5060c082015160068201805460ff1916600183600281111561315757fe5b021790555060e0919091015160069091018054600160a060020a039092166101000274ffffffffffffffffffffffffffffffffffffffff001990921691909117905581151561320157600580546001810182556000919091527f036b6384b5eca791c62761152d0c79bb0604c104a5fb6f4eb0703f3154bb3db001805473ffffffffffffffffffffffffffffffffffffffff1916600160a060020a03851617905561320187613893565b50505050505050505050565b61321e60008263ffffffff6138d316565b604051600160a060020a038216907f3525e22824a8a7df2c9a6029941c824cf95b6447f1e13d5128fd3826d35afe8b90600090a250565b61326660008263ffffffff61391f16565b604051600160a060020a038216907f47d1c22a25bb3a5d4e481b9b1e6944c2eade3181a0a20b495ed61d35b5323f2490600090a250565b6132a5613a5c565b855115156132c85760405160e560020a62461bcd0281526004016105b690614a1d565b825115156132eb5760405160e560020a62461bcd0281526004016105b6906149fd565b8151151561330e5760405160e560020a62461bcd0281526004016105b6906149ed565b6000888152600260208181526040928390208351610140810185528154815260018083015482850152828501805487519281161561010002600019011695909504601f810185900485028201850187528082529195929492860193909291908301828280156133be5780601f10613393576101008083540402835291602001916133be565b820191906000526020600020905b8154815290600101906020018083116133a157829003601f168201915b505050918352505060038201805460408051602060026001851615610100026000190190941693909304601f81018490048402820184019092528181529382019392918301828280156134525780601f1061342757610100808354040283529160200191613452565b820191906000526020600020905b81548152906001019060200180831161343557829003601f168201915b505050918352505060048201805460408051602060026001851615610100026000190190941693909304601f81018490048402820184019092528181529382019392918301828280156134e65780601f106134bb576101008083540402835291602001916134e6565b820191906000526020600020905b8154815290600101906020018083116134c957829003601f168201915b505050918352505060058201805460408051602060026001851615610100026000190190941693909304601f810184900484028201840190925281815293820193929183018282801561357a5780601f1061354f5761010080835404028352916020019161357a565b820191906000526020600020905b81548152906001019060200180831161355d57829003601f168201915b505050918352505060068201805460408051602060026001851615610100026000190190941693909304601f810184900484028201840190925281815293820193929183018282801561360e5780601f106135e35761010080835404028352916020019161360e565b820191906000526020600020905b8154815290600101906020018083116135f157829003601f168201915b505050505081526020016007820180548060200260200160405190810160405280929190818152602001828054801561366657602002820191906000526020600020905b815481526020019060010190808311613652575b50505050508152602001600882018054806020026020016040519081016040528092919081815260200182805480156136be57602002820191906000526020600020905b8154815260200190600101908083116136aa575b505050505081526020016009820180548060200260200160405190810160405280929190818152602001828054801561372057602002820191906000526020600020905b8154600160a060020a03168152600190910190602001808311613702575b50505091909252505050888152602080820189815260408084018a8152606085018a90526080850189905260a0850188905260c0850187905260008d8152600280865292902085518155925160018401555180519495508594929361378b939285019291019061396d565b50606082015180516137a791600384019160209091019061396d565b50608082015180516137c391600484019160209091019061396d565b5060a082015180516137df91600584019160209091019061396d565b5060c082015180516137fb91600684019160209091019061396d565b5060e08201518051613817916007840191602090910190613b8d565b506101008201518051613834916008840191602090910190613b8d565b506101208201518051613851916009840191602090910190613bc7565b5050600380546001810182556000919091527fc2575a0e9e593c00f959f8c92f12db2869c3395a3b0502d05e2516446f71f85b01989098555050505050505050565b600090815260026020908152604082206009018054600181018255908352912001805473ffffffffffffffffffffffffffffffffffffffff191633179055565b600160a060020a03811615156138e857600080fd5b6138f28282612b93565b15156138fd57600080fd5b600160a060020a0316600090815260209190915260409020805460ff19169055565b600160a060020a038116151561393457600080fd5b61393e8282612b93565b1561394857600080fd5b600160a060020a0316600090815260209190915260409020805460ff19166001179055565b828054600181600116156101000203166002900490600052602060002090601f016020900481019282601f106139ae57805160ff19168380011785556139db565b828001600101855582156139db579182015b828111156139db5782518255916020019190600101906139c0565b50611ff0929150613c35565b6101006040519081016040528060008152602001606081526020016060815260200160008152602001600081526020016060815260200160006002811115613a2b57fe5b8152600060209091015290565b81548183558181111561076857600083815260209020610768918101908301613c35565b61014060405190810160405280600081526020016000815260200160608152602001606081526020016060815260200160608152602001606081526020016060815260200160608152602001606081525090565b828054600181600116156101000203166002900490600052602060002090601f016020900481019282601f10613ae957805485556139db565b828001600101855582156139db57600052602060002091601f016020900482015b828111156139db578254825591600101919060010190613b0a565b50805460018160011615610100020316600290046000825580601f10613b4b575061070e565b601f01602090049060005260206000209081019061070e9190613c35565b81548183558181111561076857600083815260209020610768918101908301613c4f565b8280548282559060005260206000209081019282156139db57916020028201828111156139db5782518255916020019190600101906139c0565b828054828255906000526020600020908101928215613c29579160200282015b82811115613c29578251825473ffffffffffffffffffffffffffffffffffffffff1916600160a060020a03909116178255602090920191600190910190613be7565b50611ff0929150613c72565b610e1d91905b80821115611ff05760008155600101613c3b565b610e1d91905b80821115611ff0576000613c698282613b25565b50600101613c55565b610e1d91905b80821115611ff057805473ffffffffffffffffffffffffffffffffffffffff19168155600101613c78565b6000613caf8235614b51565b9392505050565b6000601f82018313613cc757600080fd5b8135613cda613cd582614b1f565b614af8565b91508082526020830160208301858383011115613cf657600080fd5b613d01838284614b79565b50505092915050565b6000613caf8235610e1d565b600060208284031215613d2857600080fd5b6000613d348484613ca3565b949350505050565b600060208284031215613d4e57600080fd5b813567ffffffffffffffff811115613d6557600080fd5b613d3484828501613cb6565b600080600080600060a08688031215613d8957600080fd5b853567ffffffffffffffff811115613da057600080fd5b613dac88828901613cb6565b955050602086013567ffffffffffffffff811115613dc957600080fd5b613dd588828901613cb6565b9450506040613de688828901613d0a565b935050606086013567ffffffffffffffff811115613e0357600080fd5b613e0f88828901613cb6565b9250506080613e2088828901613ca3565b9150509295509295909350565b600060208284031215613e3f57600080fd5b6000613d348484613d0a565b60008060008060008060c08789031215613e6457600080fd5b6000613e708989613d0a565b965050602087013567ffffffffffffffff811115613e8d57600080fd5b613e9989828a01613cb6565b955050604087013567ffffffffffffffff811115613eb657600080fd5b613ec289828a01613cb6565b945050606087013567ffffffffffffffff811115613edf57600080fd5b613eeb89828a01613cb6565b935050608087013567ffffffffffffffff811115613f0857600080fd5b613f1489828a01613cb6565b92505060a087013567ffffffffffffffff811115613f3157600080fd5b613f3d89828a01613cb6565b9150509295509295509295565b600080600080600060a08688031215613f6257600080fd5b6000613f6e8888613d0a565b955050602086013567ffffffffffffffff811115613f8b57600080fd5b613f9788828901613cb6565b945050604086013567ffffffffffffffff811115613fb457600080fd5b613fc088828901613cb6565b935050606086013567ffffffffffffffff811115613fdd57600080fd5b613fe988828901613cb6565b9250506080613e2088828901613d0a565b6000806040838503121561400d57600080fd5b60006140198585613d0a565b925050602061402a85828601613d0a565b9150509250929050565b600080600080600080600060e0888a03121561404f57600080fd5b600061405b8a8a613d0a565b975050602061406c8a828b01613d0a565b965050604088013567ffffffffffffffff81111561408957600080fd5b6140958a828b01613cb6565b955050606088013567ffffffffffffffff8111156140b257600080fd5b6140be8a828b01613cb6565b945050608088013567ffffffffffffffff8111156140db57600080fd5b6140e78a828b01613cb6565b93505060a088013567ffffffffffffffff81111561410457600080fd5b6141108a828b01613cb6565b92505060c088013567ffffffffffffffff81111561412d57600080fd5b6141398a828b01613cb6565b91505092959891949750929550565b61415181614b51565b82525050565b600061416282614b4d565b80845260208401935061417483614b47565b60005b828110156141a45761418a868351614148565b61419382614b47565b602096909601959150600101614177565b5093949350505050565b60006141b982614b4d565b808452602084019350836020820285016141d285614b47565b60005b848110156142095783830388526141ed838351614377565b92506141f882614b47565b6020989098019791506001016141d5565b50909695505050505050565b600061422082614b4d565b8084526020840193508360208202850161423985614b47565b60005b84811015614209578383038852614254838351614728565b925061425f82614b47565b60209890980197915060010161423c565b600061427b82614b4d565b8084526020840193508360208202850161429485614b47565b60005b848110156142095783830388526142af83835161482b565b92506142ba82614b47565b602098909801979150600101614297565b60006142d682614b4d565b8084526020840193506142e883614b47565b60005b828110156141a4576142fe8683516148e2565b61430782614b47565b6020969096019591506001016142eb565b600061432382614b4d565b80845260208401935061433583614b47565b60005b828110156141a45761434b8683516148e2565b61435482614b47565b602096909601959150600101614338565b61415181614b5d565b61415181614b6e565b600061438282614b4d565b808452614396816020860160208601614b85565b61439f81614bb1565b9093016020019392505050565b601a81527f4372656174696f6e204461746520697320696e6d757461626c65000000000000602082015260400190565b601181527f726f6c65206973206d616e6461746f7279000000000000000000000000000000602082015260400190565b602281527f4f6e6c792070656e64696e672075736572732063616e2062652061636365707460208201527f6564000000000000000000000000000000000000000000000000000000000000604082015260600190565b601381527f5573657220616c72656164792065786973747300000000000000000000000000602082015260400190565b601481527f546869732075736572206e6f7420657869737473000000000000000000000000602082015260400190565b601b81527f596f752063616e6e6f7420616363657074207468697320757365720000000000602082015260400190565b602281527f4f6e6c792070656e64696e672075736572732063616e2062652072656a65637460208201527f6564000000000000000000000000000000000000000000000000000000000000604082015260600190565b601381527f737461747573206973206e6f742076616c696400000000000000000000000000602082015260400190565b601181527f6d656d626572206e6f7420657869737473000000000000000000000000000000602082015260400190565b601581527f4d656d62657220616c7265616479206578697374730000000000000000000000602082015260400190565b601181527f4d656d626572206e6f7420657869737473000000000000000000000000000000602082015260400190565b601281527f5468656d65206973206d616e6461746f72790000000000000000000000000000602082015260400190565b601081527f434d4f206973206d616e6461746f727900000000000000000000000000000000602082015260400190565b601481527f596f7520617265206e6f74206163636570746564000000000000000000000000602082015260400190565b601181527f4e616d65206973206d616e6461746f7279000000000000000000000000000000602082015260400190565b601181527f4e6f2076616c6964206d656d6265724964000000000000000000000000000000602082015260400190565b601981527f4372656174696f6e44617465206973206d616e6461746f727900000000000000602082015260400190565b805160009061014084019061473d85826148e2565b50602083015161475060208601826148e2565b50604083015184820360408601526147688282614377565b915050606083015184820360608601526147828282614377565b9150506080830151848203608086015261479c8282614377565b91505060a083015184820360a08601526147b68282614377565b91505060c083015184820360c08601526147d08282614377565b91505060e083015184820360e08601526147ea8282614318565b9150506101008301518482036101008601526148068282614318565b9150506101208301518482036101208601526148228282614157565b95945050505050565b805160009061010084019061484085826148e2565b50602083015184820360208601526148588282614377565b915050604083015184820360408601526148728282614377565b915050606083015161488760608601826148e2565b50608083015161489a60808601826148e2565b5060a083015184820360a08601526148b28282614377565b91505060c08301516148c760c086018261436e565b5060e08301516148da60e0860182614148565b509392505050565b61415181610e1d565b60208082528101613caf81846141ae565b60208082528101613caf8184614215565b60208082528101613caf8184614270565b60208082528101613caf81846142cb565b602081016111778284614365565b60208082528101611177816143ac565b60208082528101611177816143dc565b602080825281016111778161440c565b6020808252810161117781614462565b6020808252810161117781614492565b60208082528101611177816144c2565b60208082528101611177816144f2565b6020808252810161117781614548565b6020808252810161117781614578565b60208082528101611177816145a8565b60208082528101611177816145d8565b6020808252810161117781614608565b6020808252810161117781614638565b6020808252810161117781614668565b6020808252810161117781614698565b60208082528101611177816146c8565b60208082528101611177816146f8565b60208082528101613caf818461482b565b6020810161117782846148e2565b6101008101614a7b828b6148e2565b8181036020830152614a8d818a614377565b90508181036040830152614aa18189614377565b9050614ab060608301886148e2565b614abd60808301876148e2565b81810360a0830152614acf8186614377565b9050614ade60c083018561436e565b614aeb60e0830184614148565b9998505050505050505050565b60405181810167ffffffffffffffff81118282101715614b1757600080fd5b604052919050565b600067ffffffffffffffff821115614b3657600080fd5b506020601f91909101601f19160190565b60200190565b5190565b600160a060020a031690565b151590565b600060038210611ff057fe5b600061117782614b62565b82818337506000910152565b60005b83811015614ba0578181015183820152602001614b88565b83811115611b1b5750506000910152565b601f01601f1916905600a265627a7a7230582086db838b7d65261022281cb8edee53be064d47a689bea5f119262a0cd0fe07d26c6578706572696d656e74616cf50037",
  "source": "pragma solidity ^0.4.24;\npragma experimental ABIEncoderV2;\n\nimport \"./Members.sol\";\nimport \"./Claims.sol\";\n\ncontract Users is Members {\n\n  struct User {\n    uint256 creationDate;\n    string firstName;\n    string lastName;\n    uint256 memberId;\n    uint256 requestId;\n    string role;\n    StatusUserEnum status;\n    address owner;\n  }\n\n  enum StatusUserEnum {\n    REJECTED,\n    PENDING,\n    ACCEPTED\n  }\n\n  mapping (address => User) public users_;\n  address[] private usersList_;\n\n  uint256 constant private PAGE_SIZE = 10;\n\n  // PUBLIC\n\n  function registerUserRequest(uint256 _creationDate, string _firstName, string _lastName, string _role, uint256 _memberId) public {\n\n    require(_memberId != 0, \"No valid memberId\");\n    require(_creationDate > 0, \"CreationDate is mandatory\");\n    require(users_[msg.sender].creationDate == 0, \"User already exists\");\n    require(_memberExists(_memberId), \"Member not exists\");\n\n    uint256 _requestId = Random.rand(_creationDate);\n    _saveUser(_creationDate, _firstName, _lastName, _memberId, _requestId, _role, uint256(StatusUserEnum.PENDING), msg.sender, 0);\n  }\n\n  function updateUser(string _firstName, string _lastName, uint256 _memberId, string _role, address owner) public {\n\n    require(users_[owner].owner > address(0), \"This user not exists\");\n    require(uint(users_[owner].status) == uint(StatusUserEnum.ACCEPTED), \"You are not accepted\");\n\n    uint256 _requestId = users_[owner].requestId;\n    uint256 _creationDate = users_[owner].creationDate;\n    uint256 _status = uint(users_[owner].status);\n\n    _saveUser(_creationDate, _firstName, _lastName, _memberId, _requestId, _role, _status, owner, 1);\n  }\n\n  function rejectUser(address _userToReject) public {\n\n    require(users_[_userToReject].owner > address(0), \"This user not exists\");\n    require((users_[msg.sender].memberId == users_[_userToReject].memberId) || isSigner(msg.sender), \"You cannot accept this user\");\n    require((uint(users_[msg.sender].status) == uint(StatusUserEnum.ACCEPTED)) || isSigner(msg.sender), \"You are not accepted\");\n    require(users_[_userToReject].status == StatusUserEnum.PENDING, \"Only pending users can be rejected\");\n\n    users_[_userToReject].status = StatusUserEnum.REJECTED;\n    _clearUserFromMemberRequest(users_[_userToReject].memberId, _userToReject);\n  }\n\n  function acceptUser(address _userToAccept) public {\n\n    require(users_[_userToAccept].owner > address(0), \"This user not exists\");\n    require((users_[msg.sender].memberId == users_[_userToAccept].memberId) || isSigner(msg.sender), \"You cannot accept this user\");\n    require((uint(users_[msg.sender].status) == uint(StatusUserEnum.ACCEPTED)) || isSigner(msg.sender), \"You are not accepted\");\n    require(users_[_userToAccept].status == StatusUserEnum.PENDING, \"Only pending users can be accepted\");\n\n    users_[_userToAccept].status = StatusUserEnum.ACCEPTED;\n    _clearUserFromMemberRequest(users_[_userToAccept].memberId, _userToAccept);\n  }\n\n  function getcountUsers() public view returns(uint) {\n    uint256 counter = 0;\n    for (uint i = 0; i < usersList_.length; ++i) {\n      if(users_[usersList_[i]].memberId == users_[msg.sender].memberId\n        && users_[usersList_[i]].status == StatusUserEnum.ACCEPTED) {\n        counter++;\n      }\n    }\n    return counter;\n  }\n\n  function whitelistAdmin(address account) public onlySigner {\n    _clearUserFromMemberRequest(users_[account].memberId, account);\n    users_[account].role = \"Super admin\";\n    users_[account].memberId = 0;\n    users_[account].status = StatusUserEnum.ACCEPTED;\n    addSigner(account);\n\n  }\n\n  function getUsers(uint256 _page) public view returns(User[] memory) {\n    uint256 counter = getcountUsers();\n\n    uint256 pageIndex = SafeMath.mul(PAGE_SIZE, _page);\n    uint256 pageNumber = SafeMath.div(usersList_.length, PAGE_SIZE);\n\n    if (counter == 0 || pageIndex > counter || _page > pageNumber) {\n      return;\n    }\n\n    User[] memory userPageBasic = new User[](PAGE_SIZE);\n    uint256 counterFinal = 0;\n\n    for (uint j = pageIndex; j < usersList_.length; ++j) {\n      if(users_[usersList_[j]].memberId == users_[msg.sender].memberId\n        && users_[usersList_[j]].status == StatusUserEnum.ACCEPTED) {\n        userPageBasic[counterFinal] = users_[usersList_[j]];\n        ++counterFinal;\n      }\n    }\n    return userPageBasic;\n  }\n\n  function getUserByAddress(address userAddress) public view returns(User memory) {\n    return users_[userAddress];\n  }\n\n  function getUsersOwner() onlySigner public view returns(User[] memory) {\n    User[] memory userPageOwner = new User[](usersList_.length);\n\n    for (uint i = 0; i < usersList_.length; ++i) {\n      userPageOwner[i] = users_[usersList_[i]];\n    }\n\n    return userPageOwner;\n  }\n\n  function getMe() public view returns(User) {\n    //TODO: require\n    User memory user = users_[msg.sender];\n    return user;\n  }\n\n  // PRIVATE\n\n  function _saveUser(uint256 _creationDate, string _firstName, string _lastName, uint256 _memberId,\n    uint256 _requestId, string _role, uint256 _status, address owner, uint isCreate) internal {\n\n    require(_status >= 0 || _status <=2, \"status is not valid\");\n    require(bytes(_role).length != 0, \"role is mandatory\");\n\n    User memory user = users_[owner];\n\n    user.creationDate =  _creationDate;\n    user.firstName =  _firstName;\n    user.lastName =  _lastName;\n    user.memberId =  _memberId;\n    user.requestId =  _requestId;\n    user.role = _role;\n    user.status = StatusUserEnum(_status);\n    user.owner = owner;\n\n    users_[owner] = user;\n\n    if(isCreate == 0) {\n      usersList_.push(owner);\n      _addUserToMemberRequest(_memberId);\n    }\n  }\n\n  function _memberIdFromCurrentAddress(address addr) view public returns(uint256) {\n    return users_[addr].memberId;\n  }\n\n}\n",
  "sourcePath": "/home/komodo/newUI2/bloomen-decentralized-rights-management-v2/truffle/contracts/registry/Users.sol",
  "compiler": {
    "name": "solc",
    "version": "0.4.24+commit.e67f0147.Emscripten.clang"
  },
  "schemaVersion": "2.0.1",
  "updatedAt": "2020-01-30T14:44:08.078Z"
}