{
  "contractName": "Users",
  "abi": [
    {
      "constant": false,
      "inputs": [
        {
          "name": "_cmo",
          "type": "string"
        }
      ],
      "name": "addCMO",
      "outputs": [],
      "payable": false,
      "stateMutability": "nonpayable",
      "type": "function"
    },
    {
      "constant": true,
      "inputs": [
        {
          "name": "_memberId",
          "type": "uint256"
        }
      ],
      "name": "_getClaimsIdByMember",
      "outputs": [
        {
          "name": "",
          "type": "uint256[]"
        }
      ],
      "payable": false,
      "stateMutability": "view",
      "type": "function"
    },
    {
      "constant": true,
      "inputs": [],
      "name": "getCMOs",
      "outputs": [
        {
          "name": "",
          "type": "string[]"
        }
      ],
      "payable": false,
      "stateMutability": "view",
      "type": "function"
    },
    {
      "constant": false,
      "inputs": [
        {
          "name": "_memberId",
          "type": "uint256"
        },
        {
          "name": "_claimId",
          "type": "uint256"
        }
      ],
      "name": "_addClaimFromInbox",
      "outputs": [],
      "payable": false,
      "stateMutability": "nonpayable",
      "type": "function"
    },
    {
      "constant": true,
      "inputs": [
        {
          "name": "account",
          "type": "address"
        }
      ],
      "name": "isSigner",
      "outputs": [
        {
          "name": "",
          "type": "bool"
        }
      ],
      "payable": false,
      "stateMutability": "view",
      "type": "function"
    },
    {
      "constant": false,
      "inputs": [
        {
          "name": "_memberId",
          "type": "uint256"
        },
        {
          "name": "_claimId",
          "type": "uint256"
        }
      ],
      "name": "_removeClaimFromInbox",
      "outputs": [],
      "payable": false,
      "stateMutability": "nonpayable",
      "type": "function"
    },
    {
      "constant": false,
      "inputs": [
        {
          "name": "currentCMO",
          "type": "string"
        },
        {
          "name": "currentCMOId",
          "type": "uint256"
        }
      ],
      "name": "_getMemberIdsOfCurrentCMO",
      "outputs": [
        {
          "name": "",
          "type": "uint256[]"
        }
      ],
      "payable": false,
      "stateMutability": "nonpayable",
      "type": "function"
    },
    {
      "constant": true,
      "inputs": [],
      "name": "getMembers",
      "outputs": [
        {
          "components": [
            {
              "name": "memberId",
              "type": "uint256"
            },
            {
              "name": "creationDate",
              "type": "uint256"
            },
            {
              "name": "name",
              "type": "string"
            },
            {
              "name": "logo",
              "type": "string"
            },
            {
              "name": "country",
              "type": "string"
            },
            {
              "name": "cmo",
              "type": "string"
            },
            {
              "name": "theme",
              "type": "string"
            },
            {
              "name": "claimInbox",
              "type": "uint256[]"
            },
            {
              "name": "claims",
              "type": "uint256[]"
            },
            {
              "name": "userRequests",
              "type": "address[]"
            },
            {
              "name": "totalTokens",
              "type": "uint256"
            }
          ],
          "name": "",
          "type": "tuple[]"
        }
      ],
      "payable": false,
      "stateMutability": "view",
      "type": "function"
    },
    {
      "constant": true,
      "inputs": [],
      "name": "getCount",
      "outputs": [
        {
          "name": "",
          "type": "uint256"
        }
      ],
      "payable": false,
      "stateMutability": "view",
      "type": "function"
    },
    {
      "constant": true,
      "inputs": [
        {
          "name": "_memberId",
          "type": "uint256"
        }
      ],
      "name": "_getClaimsCountByMember",
      "outputs": [
        {
          "name": "",
          "type": "uint256"
        }
      ],
      "payable": false,
      "stateMutability": "view",
      "type": "function"
    },
    {
      "constant": false,
      "inputs": [
        {
          "name": "_memberId",
          "type": "uint256"
        },
        {
          "name": "_claimId",
          "type": "uint256"
        }
      ],
      "name": "_removeClaimFromMember",
      "outputs": [],
      "payable": false,
      "stateMutability": "nonpayable",
      "type": "function"
    },
    {
      "constant": false,
      "inputs": [
        {
          "name": "_index",
          "type": "uint256"
        }
      ],
      "name": "deleteCMO",
      "outputs": [],
      "payable": false,
      "stateMutability": "nonpayable",
      "type": "function"
    },
    {
      "constant": false,
      "inputs": [
        {
          "name": "_memberId",
          "type": "uint256"
        },
        {
          "name": "newInbox",
          "type": "uint256[]"
        }
      ],
      "name": "updateMemberClaimInbox",
      "outputs": [],
      "payable": false,
      "stateMutability": "nonpayable",
      "type": "function"
    },
    {
      "constant": true,
      "inputs": [
        {
          "name": "_page",
          "type": "uint256"
        }
      ],
      "name": "getMembers",
      "outputs": [
        {
          "components": [
            {
              "name": "memberId",
              "type": "uint256"
            },
            {
              "name": "creationDate",
              "type": "uint256"
            },
            {
              "name": "name",
              "type": "string"
            },
            {
              "name": "logo",
              "type": "string"
            },
            {
              "name": "country",
              "type": "string"
            },
            {
              "name": "cmo",
              "type": "string"
            },
            {
              "name": "theme",
              "type": "string"
            },
            {
              "name": "claimInbox",
              "type": "uint256[]"
            },
            {
              "name": "claims",
              "type": "uint256[]"
            },
            {
              "name": "userRequests",
              "type": "address[]"
            },
            {
              "name": "totalTokens",
              "type": "uint256"
            }
          ],
          "name": "",
          "type": "tuple[]"
        }
      ],
      "payable": false,
      "stateMutability": "view",
      "type": "function"
    },
    {
      "constant": false,
      "inputs": [
        {
          "name": "_memberId",
          "type": "uint256"
        },
        {
          "name": "_creationDate",
          "type": "uint256"
        },
        {
          "name": "_name",
          "type": "string"
        },
        {
          "name": "_logo",
          "type": "string"
        },
        {
          "name": "_country",
          "type": "string"
        },
        {
          "name": "_cmo",
          "type": "string"
        },
        {
          "name": "_theme",
          "type": "string"
        },
        {
          "name": "_totalTokens",
          "type": "uint256"
        }
      ],
      "name": "updateMember",
      "outputs": [],
      "payable": false,
      "stateMutability": "nonpayable",
      "type": "function"
    },
    {
      "constant": false,
      "inputs": [
        {
          "name": "_memberId",
          "type": "uint256"
        },
        {
          "name": "_claimId",
          "type": "uint256"
        }
      ],
      "name": "_addClaimIdToMemberOwner",
      "outputs": [],
      "payable": false,
      "stateMutability": "nonpayable",
      "type": "function"
    },
    {
      "constant": false,
      "inputs": [],
      "name": "renounceSigner",
      "outputs": [],
      "payable": false,
      "stateMutability": "nonpayable",
      "type": "function"
    },
    {
      "constant": false,
      "inputs": [
        {
          "name": "account",
          "type": "address"
        }
      ],
      "name": "addSigner",
      "outputs": [],
      "payable": false,
      "stateMutability": "nonpayable",
      "type": "function"
    },
    {
      "constant": true,
      "inputs": [
        {
          "name": "_memberId",
          "type": "uint256"
        }
      ],
      "name": "_memberExists",
      "outputs": [
        {
          "name": "",
          "type": "bool"
        }
      ],
      "payable": false,
      "stateMutability": "view",
      "type": "function"
    },
    {
      "constant": false,
      "inputs": [
        {
          "name": "_creationDate",
          "type": "uint256"
        },
        {
          "name": "_name",
          "type": "string"
        },
        {
          "name": "_logo",
          "type": "string"
        },
        {
          "name": "_country",
          "type": "string"
        },
        {
          "name": "_cmo",
          "type": "string"
        },
        {
          "name": "_theme",
          "type": "string"
        }
      ],
      "name": "addMember",
      "outputs": [
        {
          "name": "",
          "type": "uint256"
        }
      ],
      "payable": false,
      "stateMutability": "nonpayable",
      "type": "function"
    },
    {
      "anonymous": false,
      "inputs": [
        {
          "indexed": true,
          "name": "account",
          "type": "address"
        }
      ],
      "name": "SignerAdded",
      "type": "event"
    },
    {
      "anonymous": false,
      "inputs": [
        {
          "indexed": true,
          "name": "account",
          "type": "address"
        }
      ],
      "name": "SignerRemoved",
      "type": "event"
    },
    {
      "constant": false,
      "inputs": [
        {
          "name": "_creationDate",
          "type": "uint256"
        },
        {
          "name": "_firstName",
          "type": "string"
        },
        {
          "name": "_lastName",
          "type": "string"
        },
        {
          "name": "_role",
          "type": "string"
        },
        {
          "name": "_memberId",
          "type": "uint256"
        },
        {
          "name": "_kycData",
          "type": "string"
        }
      ],
      "name": "registerUserRequest",
      "outputs": [],
      "payable": false,
      "stateMutability": "nonpayable",
      "type": "function"
    },
    {
      "constant": false,
      "inputs": [
        {
          "name": "_firstName",
          "type": "string"
        },
        {
          "name": "_lastName",
          "type": "string"
        },
        {
          "name": "_memberId",
          "type": "uint256"
        },
        {
          "name": "_role",
          "type": "string"
        },
        {
          "name": "owner",
          "type": "address"
        },
        {
          "name": "_tokens",
          "type": "uint256"
        },
        {
          "name": "_kycData",
          "type": "string"
        }
      ],
      "name": "updateUser",
      "outputs": [],
      "payable": false,
      "stateMutability": "nonpayable",
      "type": "function"
    },
    {
      "constant": true,
      "inputs": [
        {
          "name": "_memberId",
          "type": "uint256"
        }
      ],
      "name": "getUsedTokens",
      "outputs": [
        {
          "name": "",
          "type": "uint256"
        }
      ],
      "payable": false,
      "stateMutability": "view",
      "type": "function"
    },
    {
      "constant": false,
      "inputs": [
        {
          "name": "_firstName",
          "type": "string"
        },
        {
          "name": "_lastName",
          "type": "string"
        },
        {
          "name": "_memberId",
          "type": "uint256"
        },
        {
          "name": "_role",
          "type": "string"
        },
        {
          "name": "owner",
          "type": "address"
        },
        {
          "name": "_groups",
          "type": "string[]"
        }
      ],
      "name": "updateSuperUser",
      "outputs": [],
      "payable": false,
      "stateMutability": "nonpayable",
      "type": "function"
    },
    {
      "constant": false,
      "inputs": [
        {
          "name": "_userToReject",
          "type": "address"
        }
      ],
      "name": "rejectUser",
      "outputs": [],
      "payable": false,
      "stateMutability": "nonpayable",
      "type": "function"
    },
    {
      "constant": false,
      "inputs": [
        {
          "name": "_userToAccept",
          "type": "address"
        }
      ],
      "name": "acceptUser",
      "outputs": [],
      "payable": false,
      "stateMutability": "nonpayable",
      "type": "function"
    },
    {
      "constant": true,
      "inputs": [],
      "name": "getcountUsers",
      "outputs": [
        {
          "name": "",
          "type": "uint256"
        }
      ],
      "payable": false,
      "stateMutability": "view",
      "type": "function"
    },
    {
      "constant": false,
      "inputs": [
        {
          "name": "account",
          "type": "address"
        },
        {
          "name": "_cmo",
          "type": "string"
        }
      ],
      "name": "whitelistAdmin",
      "outputs": [],
      "payable": false,
      "stateMutability": "nonpayable",
      "type": "function"
    },
    {
      "constant": true,
      "inputs": [
        {
          "name": "_page",
          "type": "uint256"
        }
      ],
      "name": "getUsers",
      "outputs": [
        {
          "components": [
            {
              "name": "creationDate",
              "type": "uint256"
            },
            {
              "name": "firstName",
              "type": "string"
            },
            {
              "name": "lastName",
              "type": "string"
            },
            {
              "name": "memberId",
              "type": "uint256"
            },
            {
              "name": "requestId",
              "type": "uint256"
            },
            {
              "name": "role",
              "type": "string"
            },
            {
              "name": "status",
              "type": "uint8"
            },
            {
              "name": "owner",
              "type": "address"
            },
            {
              "name": "cmo",
              "type": "string"
            },
            {
              "name": "groups",
              "type": "string[]"
            },
            {
              "name": "tokens",
              "type": "uint256"
            },
            {
              "name": "kycData",
              "type": "string"
            }
          ],
          "name": "",
          "type": "tuple[]"
        }
      ],
      "payable": false,
      "stateMutability": "view",
      "type": "function"
    },
    {
      "constant": true,
      "inputs": [
        {
          "name": "userAddress",
          "type": "address"
        }
      ],
      "name": "getUserByAddress",
      "outputs": [
        {
          "components": [
            {
              "name": "creationDate",
              "type": "uint256"
            },
            {
              "name": "firstName",
              "type": "string"
            },
            {
              "name": "lastName",
              "type": "string"
            },
            {
              "name": "memberId",
              "type": "uint256"
            },
            {
              "name": "requestId",
              "type": "uint256"
            },
            {
              "name": "role",
              "type": "string"
            },
            {
              "name": "status",
              "type": "uint8"
            },
            {
              "name": "owner",
              "type": "address"
            },
            {
              "name": "cmo",
              "type": "string"
            },
            {
              "name": "groups",
              "type": "string[]"
            },
            {
              "name": "tokens",
              "type": "uint256"
            },
            {
              "name": "kycData",
              "type": "string"
            }
          ],
          "name": "",
          "type": "tuple"
        }
      ],
      "payable": false,
      "stateMutability": "view",
      "type": "function"
    },
    {
      "constant": true,
      "inputs": [],
      "name": "getUsersOwner",
      "outputs": [
        {
          "components": [
            {
              "name": "creationDate",
              "type": "uint256"
            },
            {
              "name": "firstName",
              "type": "string"
            },
            {
              "name": "lastName",
              "type": "string"
            },
            {
              "name": "memberId",
              "type": "uint256"
            },
            {
              "name": "requestId",
              "type": "uint256"
            },
            {
              "name": "role",
              "type": "string"
            },
            {
              "name": "status",
              "type": "uint8"
            },
            {
              "name": "owner",
              "type": "address"
            },
            {
              "name": "cmo",
              "type": "string"
            },
            {
              "name": "groups",
              "type": "string[]"
            },
            {
              "name": "tokens",
              "type": "uint256"
            },
            {
              "name": "kycData",
              "type": "string"
            }
          ],
          "name": "",
          "type": "tuple[]"
        }
      ],
      "payable": false,
      "stateMutability": "view",
      "type": "function"
    },
    {
      "constant": true,
      "inputs": [],
      "name": "getMe",
      "outputs": [
        {
          "components": [
            {
              "name": "creationDate",
              "type": "uint256"
            },
            {
              "name": "firstName",
              "type": "string"
            },
            {
              "name": "lastName",
              "type": "string"
            },
            {
              "name": "memberId",
              "type": "uint256"
            },
            {
              "name": "requestId",
              "type": "uint256"
            },
            {
              "name": "role",
              "type": "string"
            },
            {
              "name": "status",
              "type": "uint8"
            },
            {
              "name": "owner",
              "type": "address"
            },
            {
              "name": "cmo",
              "type": "string"
            },
            {
              "name": "groups",
              "type": "string[]"
            },
            {
              "name": "tokens",
              "type": "uint256"
            },
            {
              "name": "kycData",
              "type": "string"
            }
          ],
          "name": "",
          "type": "tuple"
        }
      ],
      "payable": false,
      "stateMutability": "view",
      "type": "function"
    },
    {
      "constant": true,
      "inputs": [
        {
          "name": "addr",
          "type": "address"
        }
      ],
      "name": "_memberIdFromCurrentAddress",
      "outputs": [
        {
          "name": "",
          "type": "uint256"
        }
      ],
      "payable": false,
      "stateMutability": "view",
      "type": "function"
    },
    {
      "constant": false,
      "inputs": [
        {
          "name": "addr",
          "type": "address"
        },
        {
          "name": "transactionPrice",
          "type": "uint256"
        }
      ],
      "name": "updateTokens",
      "outputs": [],
      "payable": false,
      "stateMutability": "nonpayable",
      "type": "function"
    },
    {
      "constant": true,
      "inputs": [
        {
          "name": "addr",
          "type": "address"
        }
      ],
      "name": "getUserTokensByAddress",
      "outputs": [
        {
          "name": "",
          "type": "uint256"
        }
      ],
      "payable": false,
      "stateMutability": "view",
      "type": "function"
    }
  ],
  "bytecode": "0x608060405260006003556200001d3364010000000062000023810204565b62000108565b6200003e60008264010000000062004b4c6200007582021704565b604051600160a060020a038216907f47d1c22a25bb3a5d4e481b9b1e6944c2eade3181a0a20b495ed61d35b5323f2490600090a250565b600160a060020a03811615156200008b57600080fd5b620000a08282640100000000620000d0810204565b15620000ab57600080fd5b600160a060020a0316600090815260209190915260409020805460ff19166001179055565b6000600160a060020a0382161515620000e857600080fd5b50600160a060020a03166000908152602091909152604090205460ff1690565b61629180620001186000396000f3006080604052600436106101b65763ffffffff7c010000000000000000000000000000000000000000000000000000000060003504166308bdc24d81146101bb578063230500de146101dd5780633a59ccf1146101fd578063499560b81461021d5780634dc928851461023d5780635d73ab9a1461025d5780636262dff614610293578063656d561c146102c057806367e482ad146102e257806369c212f614610302578063748532391461032f5780637df73e271461034f5780638b92892b1461037c5780639249d7531461039c578063932191be146103c9578063989359df146103de5780639eab5253146103fe578063a4fdc59414610420578063a87d942c14610435578063a9eff5111461044a578063affccd841461046a578063bb03b7061461048a578063bcec99a6146104aa578063bf3d007e146104ca578063c11e1ff3146104ea578063c29c9225146104ff578063c477ecab1461051f578063d68dee9d1461053f578063e2c11f9e1461055f578063e5c8b03d1461057f578063eb12d61e14610594578063eff34e59146105b4578063f8380733146105d4578063fa1188c6146105f4578063fc81b52514610614575b600080fd5b3480156101c757600080fd5b506101db6101d6366004615132565b610634565b005b3480156101e957600080fd5b506101db6101f83660046152f5565b610831565b34801561020957600080fd5b506101db6102183660046151da565b6109fc565b34801561022957600080fd5b506101db61023836600461557e565b610a58565b34801561024957600080fd5b506101db610258366004615132565b610b47565b34801561026957600080fd5b5061027d610278366004615426565b610cb9565b60405161028a9190616014565b60405180910390f35b34801561029f57600080fd5b506102b36102ae366004615426565b6112a6565b60405161028a9190616025565b3480156102cc57600080fd5b506102d561133b565b60405161028a9190615ff2565b3480156102ee57600080fd5b506101db6102fd3660046151aa565b611414565b34801561030e57600080fd5b5061032261031d366004615132565b611455565b60405161028a9190616154565b34801561033b57600080fd5b506101db61034a36600461562f565b6118b8565b34801561035b57600080fd5b5061036f61036a366004615132565b6118de565b60405161028a9190616036565b34801561038857600080fd5b506101db61039736600461562f565b6118f6565b3480156103a857600080fd5b506103bc6103b7366004615132565b611a14565b60405161028a9190616165565b3480156103d557600080fd5b5061027d611a32565b3480156103ea57600080fd5b506102b36103f93660046153f0565b611f34565b34801561040a57600080fd5b50610413612125565b60405161028a9190616003565b34801561042c57600080fd5b506103bc6125f6565b34801561044157600080fd5b506103bc6126bc565b34801561045657600080fd5b506101db610465366004615158565b6126d9565b34801561047657600080fd5b506103bc610485366004615426565b612837565b34801561049657600080fd5b506101db6104a536600461562f565b61284c565b3480156104b657600080fd5b506101db6104c536600461520f565b612962565b3480156104d657600080fd5b506101db6104e5366004615426565b612bbe565b3480156104f657600080fd5b50610322612c7b565b34801561050b57600080fd5b506101db61051a366004615444565b6130e0565b34801561052b57600080fd5b5061041361053a366004615426565b613105565b34801561054b57600080fd5b506101db61055a36600461564e565b61362a565b34801561056b57600080fd5b506101db61057a36600461562f565b61370a565b34801561058b57600080fd5b506101db613730565b3480156105a057600080fd5b506101db6105af366004615132565b61373b565b3480156105c057600080fd5b506103bc6105cf366004615132565b613758565b3480156105e057600080fd5b5061036f6105ef366004615426565b613776565b34801561060057600080fd5b506103bc61060f36600461548c565b613789565b34801561062057600080fd5b506103bc61062f366004615426565b61382f565b600160a060020a038181166000908152600560205260408120600601546101009004909116116106825760405160e560020a62461bcd02815260040161067990616084565b60405180910390fd5b600160a060020a038116600090815260056020526040808220600390810154338452919092209091015414806106bc57506106bc336118de565b15156106dd5760405160e560020a62461bcd02815260040161067990616094565b60023360009081526005602052604090206006015460ff16600281111561070057fe5b14806107105750610710336118de565b15156107315760405160e560020a62461bcd02815260040161067990616114565b6001600160a060020a03821660009081526005602052604090206006015460ff16600281111561075d57fe5b1461077d5760405160e560020a62461bcd02815260040161067990616064565b600160a060020a038116600090815260056020908152604080832060030154835260029091529020600a01546064101561082557600160a060020a038116600090815260056020526040902060068101805460ff19166002179055600301546107e690826138d0565b600160a060020a03811660009081526005602090815260408083206064600982015560030154835260029091529020600a01805460631901905561082e565b61082e81610b47565b50565b600160a060020a0383811660009081526005602052604081206006015490918291829161010090910416811061087c5760405160e560020a62461bcd02815260040161067990616084565b6002600160a060020a03871660009081526005602052604090206006015460ff1660028111156108a857fe5b146108c85760405160e560020a62461bcd02815260040161067990616114565b600160a060020a03861660009081526005602052604090206009015485101561092e57600160a060020a0386166000908152600560209081526040808320600981015460039091015484526002909252909120600a01805491879003909101905561096c565b600160a060020a0386166000908152600560209081526040808320600981015460039091015484526002909252909120600a01805491870390910390555b600160a060020a03861660009081526005602090815260409091206009810187905585516109a292600a90920191870190614b9a565b50600160a060020a03861660009081526005602052604090206004810154815460069092015490945090925060ff1660028111156109dc57fe5b90506109f0828b8b8b878c878d6001613a35565b50505050505050505050565b610a05336118de565b1515610a1057600080fd5b600180548082018083556000929092528251610a53917fb10e2d527612073b26eecdfd717e6a320cf44b4afac2b0732d9fcbe2b7fa0cf601906020850190614b9a565b505050565b6000821515610a7c5760405160e560020a62461bcd02815260040161067990616134565b60008711610a9f5760405160e560020a62461bcd02815260040161067990616144565b3360009081526005602052604090205415610acf5760405160e560020a62461bcd02815260040161067990616074565b610ad883613776565b1515610af95760405160e560020a62461bcd028152600401610679906160e4565b610b02876141a7565b9050610b178787878685896001336000613a35565b3360009081526005602090815260409091208351610b3d92600a90920191850190614b9a565b5050505050505050565b600160a060020a03818116600090815260056020526040812060060154610100900490911611610b8c5760405160e560020a62461bcd02815260040161067990616084565b600160a060020a03811660009081526005602052604080822060039081015433845291909220909101541480610bc65750610bc6336118de565b1515610be75760405160e560020a62461bcd02815260040161067990616094565b60023360009081526005602052604090206006015460ff166002811115610c0a57fe5b1480610c1a5750610c1a336118de565b1515610c3b5760405160e560020a62461bcd02815260040161067990616114565b6001600160a060020a03821660009081526005602052604090206006015460ff166002811115610c6757fe5b14610c875760405160e560020a62461bcd028152600401610679906160a4565b600160a060020a038116600090815260056020526040902060068101805460ff191690556003015461082e90826138d0565b606060008060006060600080610ccd6125f6565b9550610cda600a89614396565b600654909550610ceb90600a6143cb565b9350851580610cf957508585115b80610d0357508388115b15610d0d5761129b565b60408051600a808252610160820190925290816020015b610d2c614c14565b815260200190600190039081610d24579050509250600091508490505b600654811015611297573360009081526005602081905260408220600301546006805491939185908110610d7957fe5b6000918252602080832090910154600160a060020a03168352820192909252604001902060030154148015610df65750600260056000600684815481101515610dbe57fe5b6000918252602080832090910154600160a060020a0316835282019290925260400190206006015460ff166002811115610df457fe5b145b1561128f5760056000600683815481101515610e0e57fe5b6000918252602080832090910154600160a060020a03168352828101939093526040918201902081516101808101835281548152600182810180548551601f6002600019958416156101000295909501909216939093049081018790048702830187019095528482529194929385840193919291830182828015610ed35780601f10610ea857610100808354040283529160200191610ed3565b820191906000526020600020905b815481529060010190602001808311610eb657829003601f168201915b5050509183525050600282810180546040805160206001841615610100026000190190931694909404601f81018390048302850183019091528084529381019390830182828015610f655780601f10610f3a57610100808354040283529160200191610f65565b820191906000526020600020905b815481529060010190602001808311610f4857829003601f168201915b505050505081526020016003820154815260200160048201548152602001600582018054600181600116156101000203166002900480601f01602080910402602001604051908101604052809291908181526020018280546001816001161561010002031660029004801561101b5780601f10610ff05761010080835404028352916020019161101b565b820191906000526020600020905b815481529060010190602001808311610ffe57829003601f168201915b5050509183525050600682015460209091019060ff16600281111561103c57fe5b600281111561104757fe5b8152600682015461010090819004600160a060020a031660208084019190915260078401805460408051600260018416159096026000190190921694909404601f8101849004840282018401855280825293909401939290918301828280156110f15780601f106110c6576101008083540402835291602001916110f1565b820191906000526020600020905b8154815290600101906020018083116110d457829003601f168201915b5050505050815260200160088201805480602002602001604051908101604052809291908181526020016000905b828210156111ca5760008481526020908190208301805460408051601f60026000196101006001871615020190941693909304928301859004850281018501909152818152928301828280156111b65780601f1061118b576101008083540402835291602001916111b6565b820191906000526020600020905b81548152906001019060200180831161119957829003601f168201915b50505050508152602001906001019061111f565b505050908252506009820154602080830191909152600a8301805460408051601f600260001961010060018716150201909416939093049283018590048502810185018252828152940193928301828280156112675780601f1061123c57610100808354040283529160200191611267565b820191906000526020600020905b81548152906001019060200180831161124a57829003601f168201915b505050505081525050838381518110151561127e57fe5b602090810290910101526001909101905b600101610d49565b8296505b505050505050919050565b600081815260026020526040812054606091106112d85760405160e560020a62461bcd028152600401610679906160c4565b6000828152600260209081526040918290206008018054835181840281018401909452808452909183018282801561132f57602002820191906000526020600020905b81548152602001906001019080831161131b575b50505050509050919050565b60606001805480602002602001604051908101604052809291908181526020016000905b8282101561140a5760008481526020908190208301805460408051601f60026000196101006001871615020190941693909304928301859004850281018501909152818152928301828280156113f65780601f106113cb576101008083540402835291602001916113f6565b820191906000526020600020905b8154815290600101906020018083116113d957829003601f168201915b50505050508152602001906001019061135f565b5050505090505b90565b600160a060020a039091166000908152600560209081526040808320600981018054869003905560030154835260029091529020600a018054919091039055565b61145d614c14565b600160a060020a03821660009081526005602090815260409182902082516101808101845281548152600180830180548651600293821615610100026000190190911692909204601f81018690048602830186019096528582529194929385810193919291908301828280156115145780601f106114e957610100808354040283529160200191611514565b820191906000526020600020905b8154815290600101906020018083116114f757829003601f168201915b5050509183525050600282810180546040805160206001841615610100026000190190931694909404601f810183900483028501830190915280845293810193908301828280156115a65780601f1061157b576101008083540402835291602001916115a6565b820191906000526020600020905b81548152906001019060200180831161158957829003601f168201915b505050505081526020016003820154815260200160048201548152602001600582018054600181600116156101000203166002900480601f01602080910402602001604051908101604052809291908181526020018280546001816001161561010002031660029004801561165c5780601f106116315761010080835404028352916020019161165c565b820191906000526020600020905b81548152906001019060200180831161163f57829003601f168201915b5050509183525050600682015460209091019060ff16600281111561167d57fe5b600281111561168857fe5b8152600682015461010090819004600160a060020a031660208084019190915260078401805460408051600260018416159096026000190190921694909404601f8101849004840282018401855280825293909401939290918301828280156117325780601f1061170757610100808354040283529160200191611732565b820191906000526020600020905b81548152906001019060200180831161171557829003601f168201915b5050505050815260200160088201805480602002602001604051908101604052809291908181526020016000905b8282101561180b5760008481526020908190208301805460408051601f60026000196101006001871615020190941693909304928301859004850281018501909152818152928301828280156117f75780601f106117cc576101008083540402835291602001916117f7565b820191906000526020600020905b8154815290600101906020018083116117da57829003601f168201915b505050505081526020019060010190611760565b505050908252506009820154602080830191909152600a8301805460408051601f600260001961010060018716150201909416939093049283018590048502810185018252828152940193928301828280156118a85780601f1061187d576101008083540402835291602001916118a8565b820191906000526020600020905b81548152906001019060200180831161188b57829003601f168201915b5050505050815250509050919050565b600091825260026020908152604083206007018054600181018255908452922090910155565b60006118f0818363ffffffff6143ee16565b92915050565b6000805b600084815260026020526040902060070154600019018110156119b657600084815260026020526040902060070180548491908390811061193757fe5b9060005260206000200154141561194d57600191505b81156119ae57600084815260026020526040902060070180546001830190811061197357fe5b906000526020600020015460026000868152602001908152602001600020600701828154811015156119a157fe5b6000918252602090912001555b6001016118fa565b8115611a0e576000848152600260205260409020600701805460001981019081106119dd57fe5b600091825260208083209091018290558582526002905260409020600701805490611a0c906000198301614c8a565b505b50505050565b600160a060020a031660009081526005602052604090206009015490565b6060806000611a40336118de565b1515611a4b57600080fd5b600654604080518281526020808402820101909152908015611a8757816020015b611a74614c14565b815260200190600190039081611a6c5790505b509150600090505b600654811015611f2e5760056000600683815481101515611aac57fe5b6000918252602080832090910154600160a060020a03168352828101939093526040918201902081516101808101835281548152600182810180548551601f6002600019958416156101000295909501909216939093049081018790048702830187019095528482529194929385840193919291830182828015611b715780601f10611b4657610100808354040283529160200191611b71565b820191906000526020600020905b815481529060010190602001808311611b5457829003601f168201915b5050509183525050600282810180546040805160206001841615610100026000190190931694909404601f81018390048302850183019091528084529381019390830182828015611c035780601f10611bd857610100808354040283529160200191611c03565b820191906000526020600020905b815481529060010190602001808311611be657829003601f168201915b505050505081526020016003820154815260200160048201548152602001600582018054600181600116156101000203166002900480601f016020809104026020016040519081016040528092919081815260200182805460018160011615610100020316600290048015611cb95780601f10611c8e57610100808354040283529160200191611cb9565b820191906000526020600020905b815481529060010190602001808311611c9c57829003601f168201915b5050509183525050600682015460209091019060ff166002811115611cda57fe5b6002811115611ce557fe5b8152600682015461010090819004600160a060020a031660208084019190915260078401805460408051600260018416159096026000190190921694909404601f810184900484028201840185528082529390940193929091830182828015611d8f5780601f10611d6457610100808354040283529160200191611d8f565b820191906000526020600020905b815481529060010190602001808311611d7257829003601f168201915b5050505050815260200160088201805480602002602001604051908101604052809291908181526020016000905b82821015611e685760008481526020908190208301805460408051601f6002600019610100600187161502019094169390930492830185900485028101850190915281815292830182828015611e545780601f10611e2957610100808354040283529160200191611e54565b820191906000526020600020905b815481529060010190602001808311611e3757829003601f168201915b505050505081526020019060010190611dbd565b505050908252506009820154602080830191909152600a8301805460408051601f60026000196101006001871615020190941693909304928301859004850281018501825282815294019392830182828015611f055780601f10611eda57610100808354040283529160200191611f05565b820191906000526020600020905b815481529060010190602001808311611ee857829003601f168201915b5050505050815250508282815181101515611f1c57fe5b60209081029091010152600101611a8f565b50919050565b60606000805b6004548110156120cf57846040518082805190602001908083835b60208310611f745780518252601f199092019160209182019101611f55565b6001836020036101000a03801982511681845116808217855250505050505090500191505060405180910390206000191660026000600484815481101515611fb857fe5b90600052602060002001548152602001908152602001600020600501604051808280546001816001161561010002031660029004801561202f5780601f1061200d57610100808354040283529182019161202f565b820191906000526020600020905b81548152906001019060200180831161201b575b505091505060405180910390206000191614801561207c5750836002600060048481548110151561205c57fe5b906000526020600020015481526020019081526020016000206000015414155b156120c757816002600060048481548110151561209557fe5b600091825260208083209091015483528281019390935260409091018120548354600181018555938252919020909101555b600101611f3a565b81546040805160208084028201810190925282815291849183018282801561211657602002820191906000526020600020905b815481526020019060010190808311612102575b50505050509250505092915050565b606080600060048054905060405190808252806020026020018201604052801561216957816020015b612156614cae565b81526020019060019003908161214e5790505b509150600090505b600454811015611f2e576002600060048381548110151561218e57fe5b9060005260206000200154815260200190815260200160002061016060405190810160405290816000820154815260200160018201548152602001600282018054600181600116156101000203166002900480601f0160208091040260200160405190810160405280929190818152602001828054600181600116156101000203166002900480156122615780601f1061223657610100808354040283529160200191612261565b820191906000526020600020905b81548152906001019060200180831161224457829003601f168201915b505050918352505060038201805460408051602060026001851615610100026000190190941693909304601f81018490048402820184019092528181529382019392918301828280156122f55780601f106122ca576101008083540402835291602001916122f5565b820191906000526020600020905b8154815290600101906020018083116122d857829003601f168201915b505050918352505060048201805460408051602060026001851615610100026000190190941693909304601f81018490048402820184019092528181529382019392918301828280156123895780601f1061235e57610100808354040283529160200191612389565b820191906000526020600020905b81548152906001019060200180831161236c57829003601f168201915b505050918352505060058201805460408051602060026001851615610100026000190190941693909304601f810184900484028201840190925281815293820193929183018282801561241d5780601f106123f25761010080835404028352916020019161241d565b820191906000526020600020905b81548152906001019060200180831161240057829003601f168201915b505050918352505060068201805460408051602060026001851615610100026000190190941693909304601f81018490048402820184019092528181529382019392918301828280156124b15780601f10612486576101008083540402835291602001916124b1565b820191906000526020600020905b81548152906001019060200180831161249457829003601f168201915b505050505081526020016007820180548060200260200160405190810160405280929190818152602001828054801561250957602002820191906000526020600020905b8154815260200190600101908083116124f5575b505050505081526020016008820180548060200260200160405190810160405280929190818152602001828054801561256157602002820191906000526020600020905b81548152602001906001019080831161254d575b50505050508152602001600982018054806020026020016040519081016040528092919081815260200182805480156125c357602002820191906000526020600020905b8154600160a060020a031681526001909101906020018083116125a5575b50505050508152602001600a8201548152505082828151811015156125e457fe5b60209081029091010152600101612171565b600080805b600654811015611f2e57336000908152600560208190526040822060030154600680549193918590811061262b57fe5b6000918252602080832090910154600160a060020a031683528201929092526040019020600301541480156126a8575060026005600060068481548110151561267057fe5b6000918252602080832090910154600160a060020a0316835282019290925260400190206006015460ff1660028111156126a657fe5b145b156126b4576001909101905b6001016125fb565b60006126c7336118de565b15156126d257600080fd5b5060045490565b6126e2336118de565b15156126ed57600080fd5b600160a060020a03821660009081526005602052604090206003015461271390836138d0565b604080518082018252600b81527f53757065722061646d696e0000000000000000000000000000000000000000006020808301918252600160a060020a0386166000908152600591829052939093209151612772939290920191614b9a565b5060038054600101808255600160a060020a03841660009081526005602090815260409091209283019190915582516127b19260070191840190614b9a565b50600160a060020a03821660008181526005602081815260408084206006808201805460ff1916600217905582516060810184528085019182527f6469676974310000000000000000000000000000000000000000000000000000938101939093528252949093525261282991600801906001614d09565b506128338261373b565b5050565b60009081526002602052604090206008015490565b6000805b6000848152600260205260409020600801546000190181101561290c57600084815260026020526040902060080180548491908390811061288d57fe5b906000526020600020015414156128a357600191505b81156129045760008481526002602052604090206008018054600183019081106128c957fe5b906000526020600020015460026000868152602001908152602001600020600801828154811015156128f757fe5b6000918252602090912001555b600101612850565b8115611a0e5760008481526002602052604090206008018054600019810190811061293357fe5b600091825260208083209091018290558582526002905260409020600801805490611a0c906000198301614c8a565b600160a060020a038216600090815260056020908152604082208851612990926001909201918a0190614b9a565b50600160a060020a038316600090815260056020908152604090912087516129c092600290920191890190614b9a565b50600160a060020a038316600090815260056020908152604090912083516129f092600890920191850190614d62565b50600090505b600654811015612bb5576005600084600160a060020a0316600160a060020a031681526020019081526020016000206007016040518082805460018160011615610100020316600290048015612a835780601f10612a61576101008083540402835291820191612a83565b820191906000526020600020905b815481529060010190602001808311612a6f575b505091505060405180910390206000191660056000600684815481101515612aa757fe5b9060005260206000200160009054906101000a9004600160a060020a0316600160a060020a0316600160a060020a031681526020019081526020016000206007016040518082805460018160011615610100020316600290048015612b435780601f10612b21576101008083540402835291820191612b43565b820191906000526020600020905b815481529060010190602001808311612b2f575b50509150506040518091039020600019161415612bad578160056000600684815481101515612b6e57fe5b6000918252602080832090910154600160a060020a0316835282810193909352604090910190208251612bab936008909201929190910190614d62565b505b6001016129f6565b50505050505050565b6000612bc9336118de565b1515612bd457600080fd5b50805b60015460001901811015612c405760018054828201908110612bf557fe5b90600052602060002001600182815481101515612c0e57fe5b906000526020600020019080546001816001161561010002031660029004612c37929190614daf565b50600101612bd7565b600180546000198101908110612c5257fe5b906000526020600020016000612c689190614e24565b6001805490610a53906000198301614e68565b612c83614c14565b612c8b614c14565b3360009081526005602090815260409182902082516101808101845281548152600180830180548651600293821615610100026000190190911692909204601f8101869004860283018601909652858252919492938581019391929190830182828015612d395780601f10612d0e57610100808354040283529160200191612d39565b820191906000526020600020905b815481529060010190602001808311612d1c57829003601f168201915b5050509183525050600282810180546040805160206001841615610100026000190190931694909404601f81018390048302850183019091528084529381019390830182828015612dcb5780601f10612da057610100808354040283529160200191612dcb565b820191906000526020600020905b815481529060010190602001808311612dae57829003601f168201915b505050505081526020016003820154815260200160048201548152602001600582018054600181600116156101000203166002900480601f016020809104026020016040519081016040528092919081815260200182805460018160011615610100020316600290048015612e815780601f10612e5657610100808354040283529160200191612e81565b820191906000526020600020905b815481529060010190602001808311612e6457829003601f168201915b5050509183525050600682015460209091019060ff166002811115612ea257fe5b6002811115612ead57fe5b8152600682015461010090819004600160a060020a031660208084019190915260078401805460408051600260018416159096026000190190921694909404601f810184900484028201840185528082529390940193929091830182828015612f575780601f10612f2c57610100808354040283529160200191612f57565b820191906000526020600020905b815481529060010190602001808311612f3a57829003601f168201915b5050505050815260200160088201805480602002602001604051908101604052809291908181526020016000905b828210156130305760008481526020908190208301805460408051601f600260001961010060018716150201909416939093049283018590048502810185019091528181529283018282801561301c5780601f10612ff15761010080835404028352916020019161301c565b820191906000526020600020905b815481529060010190602001808311612fff57829003601f168201915b505050505081526020019060010190612f85565b505050908252506009820154602080830191909152600a8301805460408051601f600260001961010060018716150201909416939093049283018590048502810185018252828152940193928301828280156130cd5780601f106130a2576101008083540402835291602001916130cd565b820191906000526020600020905b8154815290600101906020018083116130b057829003601f168201915b50505050508152505090508091505b5090565b60008281526002602090815260409091208251610a5392600790920191840190614e8c565b606060008060006060600061311b600a88614396565b60045490955061312c90600a6143cb565b600454909450158061314357506004546000190185115b8061314d57508387115b1561315757613620565b60408051600a80825261016082019092526000945090816020015b61317a614cae565b8152602001906001900390816131725790505091508490505b60045481101561361c57600260006004838154811015156131b057fe5b9060005260206000200154815260200190815260200160002061016060405190810160405290816000820154815260200160018201548152602001600282018054600181600116156101000203166002900480601f0160208091040260200160405190810160405280929190818152602001828054600181600116156101000203166002900480156132835780601f1061325857610100808354040283529160200191613283565b820191906000526020600020905b81548152906001019060200180831161326657829003601f168201915b505050918352505060038201805460408051602060026001851615610100026000190190941693909304601f81018490048402820184019092528181529382019392918301828280156133175780601f106132ec57610100808354040283529160200191613317565b820191906000526020600020905b8154815290600101906020018083116132fa57829003601f168201915b505050918352505060048201805460408051602060026001851615610100026000190190941693909304601f81018490048402820184019092528181529382019392918301828280156133ab5780601f10613380576101008083540402835291602001916133ab565b820191906000526020600020905b81548152906001019060200180831161338e57829003601f168201915b505050918352505060058201805460408051602060026001851615610100026000190190941693909304601f810184900484028201840190925281815293820193929183018282801561343f5780601f106134145761010080835404028352916020019161343f565b820191906000526020600020905b81548152906001019060200180831161342257829003601f168201915b505050918352505060068201805460408051602060026001851615610100026000190190941693909304601f81018490048402820184019092528181529382019392918301828280156134d35780601f106134a8576101008083540402835291602001916134d3565b820191906000526020600020905b8154815290600101906020018083116134b657829003601f168201915b505050505081526020016007820180548060200260200160405190810160405280929190818152602001828054801561352b57602002820191906000526020600020905b815481526020019060010190808311613517575b505050505081526020016008820180548060200260200160405190810160405280929190818152602001828054801561358357602002820191906000526020600020905b81548152602001906001019080831161356f575b50505050508152602001600982018054806020026020016040519081016040528092919081815260200182805480156135e557602002820191906000526020600020905b8154600160a060020a031681526001909101906020018083116135c7575b50505050508152602001600a82015481525050828481518110151561360657fe5b6020908102909101015260019283019201613193565b8195505b5050505050919050565b613633336118de565b151561363e57600080fd5b6000888152600260205260408120541161366d5760405160e560020a62461bcd028152600401610679906160e4565b60008881526002602052604090206001015487146136a05760405160e560020a62461bcd02815260040161067990616044565b600088815260026020818152604090922088516136c593919092019190890190614b9a565b50600088815260026020908152604090912083516136eb92600690920191850190614b9a565b50600097885260026020526040909720600a0196909655505050505050565b600091825260026020908152604083206008018054600181018255908452922090910155565b61373933614425565b565b613744336118de565b151561374f57600080fd5b61082e8161446d565b600160a060020a031660009081526005602052604090206003015490565b6000908152600260205260408120541190565b600080613795336118de565b15156137a057600080fd5b600088116137c35760405160e560020a62461bcd02815260040161067990616144565b506003805460010190819055600081815260026020526040902054156137fe5760405160e560020a62461bcd028152600401610679906160d4565b61380d818989898989896144b5565b60008181526002602052604090206103e8600a90910155979650505050505050565b600080805b6006548110156138c957836005600060068481548110151561385257fe5b6000918252602080832090910154600160a060020a0316835282019290925260400190206003015414156138c1576005600060068381548110151561389357fe5b6000918252602080832090910154600160a060020a0316835282019290925260400190206009015491909101905b600101613834565b5092915050565b6000805b600084815260026020526040902060090154600019018110156139cd5760008481526002602052604090206009018054600160a060020a03851691908390811061391a57fe5b600091825260209091200154600160a060020a0316141561393a57600191505b81156139c557600084815260026020526040902060090180546001830190811061396057fe5b6000918252602080832090910154868352600290915260409091206009018054600160a060020a03909216918390811061399657fe5b9060005260206000200160006101000a815481600160a060020a030219169083600160a060020a031602179055505b6001016138d4565b6000848152600260205260409020600901805460001981019081106139ee57fe5b60009182526020808320909101805473ffffffffffffffffffffffffffffffffffffffff191690558582526002905260409020600901805490611a0c906000198301614c8a565b613a3d614c14565b600084101580613a4e575060028411155b1515613a6f5760405160e560020a62461bcd028152600401610679906160b4565b84511515613a925760405160e560020a62461bcd02815260040161067990616054565b600160a060020a03831660009081526005602090815260409182902082516101808101845281548152600180830180548651600293821615610100026000190190911692909204601f8101869004860283018601909652858252919492938581019391929190830182828015613b495780601f10613b1e57610100808354040283529160200191613b49565b820191906000526020600020905b815481529060010190602001808311613b2c57829003601f168201915b5050509183525050600282810180546040805160206001841615610100026000190190931694909404601f81018390048302850183019091528084529381019390830182828015613bdb5780601f10613bb057610100808354040283529160200191613bdb565b820191906000526020600020905b815481529060010190602001808311613bbe57829003601f168201915b505050505081526020016003820154815260200160048201548152602001600582018054600181600116156101000203166002900480601f016020809104026020016040519081016040528092919081815260200182805460018160011615610100020316600290048015613c915780601f10613c6657610100808354040283529160200191613c91565b820191906000526020600020905b815481529060010190602001808311613c7457829003601f168201915b5050509183525050600682015460209091019060ff166002811115613cb257fe5b6002811115613cbd57fe5b8152600682015461010090819004600160a060020a031660208084019190915260078401805460408051600260018416159096026000190190921694909404601f810184900484028201840185528082529390940193929091830182828015613d675780601f10613d3c57610100808354040283529160200191613d67565b820191906000526020600020905b815481529060010190602001808311613d4a57829003601f168201915b5050505050815260200160088201805480602002602001604051908101604052809291908181526020016000905b82821015613e405760008481526020908190208301805460408051601f6002600019610100600187161502019094169390930492830185900485028101850190915281815292830182828015613e2c5780601f10613e0157610100808354040283529160200191613e2c565b820191906000526020600020905b815481529060010190602001808311613e0f57829003601f168201915b505050505081526020019060010190613d95565b505050908252506009820154602080830191909152600a8301805460408051601f60026000196101006001871615020190941693909304928301859004850281018501825282815294019392830182828015613edd5780601f10613eb257610100808354040283529160200191613edd565b820191906000526020600020905b815481529060010190602001808311613ec057829003601f168201915b505050919092525050508a8152602081018a905260408101899052606081018890526080810187905260a081018690529050836002811115613f1b57fe5b8160c001906002811115613f2b57fe5b90816002811115613f3857fe5b905250600160a060020a03831660e082018190526000908152600560209081526040909120825181558183015180518493613f7a926001850192910190614b9a565b5060408201518051613f96916002840191602090910190614b9a565b50606082015160038201556080820151600482015560a08201518051613fc6916005840191602090910190614b9a565b5060c082015160068201805460ff19166001836002811115613fe457fe5b021790555060e082015160068201805474ffffffffffffffffffffffffffffffffffffffff001916610100600160a060020a0390931683021790558201518051614038916007840191602090910190614b9a565b506101208201518051614055916008840191602090910190614ec6565b506101408201516009820155610160820151805161407d91600a840191602090910190614b9a565b5050508115156109f057600680546001810182556000919091527ff652222313e28459528d920b65115c16c04f3efc82aaedc97be59f3f377c0d3f01805473ffffffffffffffffffffffffffffffffffffffff1916600160a060020a0385161790556140e887614ac0565b60408051606081018252600660208281019182527f646967697431000000000000000000000000000000000000000000000000000083850152908252600160a060020a038616600090815260059091529190912061414d916008909101906001614d09565b5060608101516000908152600260208181526040808420600160a060020a038816855260059283905293209201805461419a93600701926000196101006001841615020190911604614daf565b5050505050505050505050565b60008080806002850615156142395784604051602001808281526020019150506040516020818303038152906040526040518082805190602001908083835b602083106142055780518252601f1990920191602091820191016141e6565b6001836020036101000a03801982511681845116808217855250505050505090500191505060405180910390209250614324565b84604051602001808281526020019150506040516020818303038152906040526040518082805190602001908083835b602083106142885780518252601f199092019160209182019101614269565b51815160209384036101000a600019018019909216911617905260408051929094018290038220828201528351808303820181529184019384905281519195509293508392850191508083835b602083106142f45780518252601f1990920191602091820191016142d5565b6001836020036101000a038019825116818451168082178552505050505050905001915050604051809103902092505b60208110156143515782816020811061433957fe5b60f860020a91901a8102049190910190600101614324565b82602060028401066020811061436357fe5b60f860020a91901a81020483602084066020811061437d57fe5b1a60f860020a0260f860020a9004029350505050919050565b6000808315156143a957600091506138c9565b508282028284828115156143b957fe5b04146143c457600080fd5b9392505050565b6000808083116143da57600080fd5b82848115156143e557fe5b04949350505050565b6000600160a060020a038216151561440557600080fd5b50600160a060020a03166000908152602091909152604090205460ff1690565b61443660008263ffffffff614b0016565b604051600160a060020a038216907f3525e22824a8a7df2c9a6029941c824cf95b6447f1e13d5128fd3826d35afe8b90600090a250565b61447e60008263ffffffff614b4c16565b604051600160a060020a038216907f47d1c22a25bb3a5d4e481b9b1e6944c2eade3181a0a20b495ed61d35b5323f2490600090a250565b6144bd614cae565b855115156144e05760405160e560020a62461bcd02815260040161067990616124565b825115156145035760405160e560020a62461bcd02815260040161067990616104565b815115156145265760405160e560020a62461bcd028152600401610679906160f4565b6000888152600260208181526040928390208351610160810185528154815260018083015482850152828501805487519281161561010002600019011695909504601f810185900485028201850187528082529195929492860193909291908301828280156145d65780601f106145ab576101008083540402835291602001916145d6565b820191906000526020600020905b8154815290600101906020018083116145b957829003601f168201915b505050918352505060038201805460408051602060026001851615610100026000190190941693909304601f810184900484028201840190925281815293820193929183018282801561466a5780601f1061463f5761010080835404028352916020019161466a565b820191906000526020600020905b81548152906001019060200180831161464d57829003601f168201915b505050918352505060048201805460408051602060026001851615610100026000190190941693909304601f81018490048402820184019092528181529382019392918301828280156146fe5780601f106146d3576101008083540402835291602001916146fe565b820191906000526020600020905b8154815290600101906020018083116146e157829003601f168201915b505050918352505060058201805460408051602060026001851615610100026000190190941693909304601f81018490048402820184019092528181529382019392918301828280156147925780601f1061476757610100808354040283529160200191614792565b820191906000526020600020905b81548152906001019060200180831161477557829003601f168201915b505050918352505060068201805460408051602060026001851615610100026000190190941693909304601f81018490048402820184019092528181529382019392918301828280156148265780601f106147fb57610100808354040283529160200191614826565b820191906000526020600020905b81548152906001019060200180831161480957829003601f168201915b505050505081526020016007820180548060200260200160405190810160405280929190818152602001828054801561487e57602002820191906000526020600020905b81548152602001906001019080831161486a575b50505050508152602001600882018054806020026020016040519081016040528092919081815260200182805480156148d657602002820191906000526020600020905b8154815260200190600101908083116148c2575b505050505081526020016009820180548060200260200160405190810160405280929190818152602001828054801561493857602002820191906000526020600020905b8154600160a060020a0316815260019091019060200180831161491a575b5050509183525050600a919091015460209182015289825281810189815260408084018a8152606085018a90526080850189905260a0850188905260c0850187905260008d815260028086529290208551815592516001840155518051949550859492936149ac9392850192910190614b9a565b50606082015180516149c8916003840191602090910190614b9a565b50608082015180516149e4916004840191602090910190614b9a565b5060a08201518051614a00916005840191602090910190614b9a565b5060c08201518051614a1c916006840191602090910190614b9a565b5060e08201518051614a38916007840191602090910190614e8c565b506101008201518051614a55916008840191602090910190614e8c565b506101208201518051614a72916009840191602090910190614f13565b506101409190910151600a909101555050600480546001810182556000919091527f8a35acfbc15ff81a39ae7d344fd709f28e8600b4aa8c65c6b64bfe7fe36bd19b01959095555050505050565b600090815260026020908152604082206009018054600181018255908352912001805473ffffffffffffffffffffffffffffffffffffffff191633179055565b600160a060020a0381161515614b1557600080fd5b614b1f82826143ee565b1515614b2a57600080fd5b600160a060020a0316600090815260209190915260409020805460ff19169055565b600160a060020a0381161515614b6157600080fd5b614b6b82826143ee565b15614b7557600080fd5b600160a060020a0316600090815260209190915260409020805460ff19166001179055565b828054600181600116156101000203166002900490600052602060002090601f016020900481019282601f10614bdb57805160ff1916838001178555614c08565b82800160010185558215614c08579182015b82811115614c08578251825591602001919060010190614bed565b506130dc929150614f81565b6101806040519081016040528060008152602001606081526020016060815260200160008152602001600081526020016060815260200160006002811115614c5857fe5b81526020016000600160a060020a03168152602001606081526020016060815260200160008152602001606081525090565b815481835581811115610a5357600083815260209020610a53918101908301614f81565b6101606040519081016040528060008152602001600081526020016060815260200160608152602001606081526020016060815260200160608152602001606081526020016060815260200160608152602001600081525090565b828054828255906000526020600020908101928215614d56579160200282015b82811115614d565782518051614d46918491602090910190614b9a565b5091602001919060010190614d29565b506130dc929150614f9b565b828054828255906000526020600020908101928215614d56579160200282015b82811115614d565782518051614d9f918491602090910190614b9a565b5091602001919060010190614d82565b828054600181600116156101000203166002900490600052602060002090601f016020900481019282601f10614de85780548555614c08565b82800160010185558215614c0857600052602060002091601f016020900482015b82811115614c08578254825591600101919060010190614e09565b50805460018160011615610100020316600290046000825580601f10614e4a575061082e565b601f01602090049060005260206000209081019061082e9190614f81565b815481835581811115610a5357600083815260209020610a53918101908301614f9b565b828054828255906000526020600020908101928215614c085791602002820182811115614c08578251825591602001919060010190614bed565b828054828255906000526020600020908101928215614d56579160200282015b82811115614d565782518051614f03918491602090910190614b9a565b5091602001919060010190614ee6565b828054828255906000526020600020908101928215614f75579160200282015b82811115614f75578251825473ffffffffffffffffffffffffffffffffffffffff1916600160a060020a03909116178255602090920191600190910190614f33565b506130dc929150614fbe565b61141191905b808211156130dc5760008155600101614f87565b61141191905b808211156130dc576000614fb58282614e24565b50600101614fa1565b61141191905b808211156130dc57805473ffffffffffffffffffffffffffffffffffffffff19168155600101614fc4565b60006143c482356161ed565b6000601f8201831361500c57600080fd5b813561501f61501a8261619a565b616173565b81815260209384019390925082018360005b8381101561505d578135860161504788826150d7565b8452506020928301929190910190600101615031565b5050505092915050565b6000601f8201831361507857600080fd5b813561508661501a8261619a565b915081818352602084019350602081019050838560208402820111156150ab57600080fd5b60005b8381101561505d57816150c18882615126565b84525060209283019291909101906001016150ae565b6000601f820183136150e857600080fd5b81356150f661501a826161bb565b9150808252602083016020830185838301111561511257600080fd5b61511d838284616215565b50505092915050565b60006143c48235611411565b60006020828403121561514457600080fd5b60006151508484614fef565b949350505050565b6000806040838503121561516b57600080fd5b60006151778585614fef565b925050602083013567ffffffffffffffff81111561519457600080fd5b6151a0858286016150d7565b9150509250929050565b600080604083850312156151bd57600080fd5b60006151c98585614fef565b92505060206151a085828601615126565b6000602082840312156151ec57600080fd5b813567ffffffffffffffff81111561520357600080fd5b615150848285016150d7565b60008060008060008060c0878903121561522857600080fd5b863567ffffffffffffffff81111561523f57600080fd5b61524b89828a016150d7565b965050602087013567ffffffffffffffff81111561526857600080fd5b61527489828a016150d7565b955050604061528589828a01615126565b945050606087013567ffffffffffffffff8111156152a257600080fd5b6152ae89828a016150d7565b93505060806152bf89828a01614fef565b92505060a087013567ffffffffffffffff8111156152dc57600080fd5b6152e889828a01614ffb565b9150509295509295509295565b600080600080600080600060e0888a03121561531057600080fd5b873567ffffffffffffffff81111561532757600080fd5b6153338a828b016150d7565b975050602088013567ffffffffffffffff81111561535057600080fd5b61535c8a828b016150d7565b965050604061536d8a828b01615126565b955050606088013567ffffffffffffffff81111561538a57600080fd5b6153968a828b016150d7565b94505060806153a78a828b01614fef565b93505060a06153b88a828b01615126565b92505060c088013567ffffffffffffffff8111156153d557600080fd5b6153e18a828b016150d7565b91505092959891949750929550565b6000806040838503121561540357600080fd5b823567ffffffffffffffff81111561541a57600080fd5b6151c9858286016150d7565b60006020828403121561543857600080fd5b60006151508484615126565b6000806040838503121561545757600080fd5b60006154638585615126565b925050602083013567ffffffffffffffff81111561548057600080fd5b6151a085828601615067565b60008060008060008060c087890312156154a557600080fd5b60006154b18989615126565b965050602087013567ffffffffffffffff8111156154ce57600080fd5b6154da89828a016150d7565b955050604087013567ffffffffffffffff8111156154f757600080fd5b61550389828a016150d7565b945050606087013567ffffffffffffffff81111561552057600080fd5b61552c89828a016150d7565b935050608087013567ffffffffffffffff81111561554957600080fd5b61555589828a016150d7565b92505060a087013567ffffffffffffffff81111561557257600080fd5b6152e889828a016150d7565b60008060008060008060c0878903121561559757600080fd5b60006155a38989615126565b965050602087013567ffffffffffffffff8111156155c057600080fd5b6155cc89828a016150d7565b955050604087013567ffffffffffffffff8111156155e957600080fd5b6155f589828a016150d7565b945050606087013567ffffffffffffffff81111561561257600080fd5b61561e89828a016150d7565b935050608061555589828a01615126565b6000806040838503121561564257600080fd5b60006151c98585615126565b600080600080600080600080610100898b03121561566b57600080fd5b60006156778b8b615126565b98505060206156888b828c01615126565b975050604089013567ffffffffffffffff8111156156a557600080fd5b6156b18b828c016150d7565b965050606089013567ffffffffffffffff8111156156ce57600080fd5b6156da8b828c016150d7565b955050608089013567ffffffffffffffff8111156156f757600080fd5b6157038b828c016150d7565b94505060a089013567ffffffffffffffff81111561572057600080fd5b61572c8b828c016150d7565b93505060c089013567ffffffffffffffff81111561574957600080fd5b6157558b828c016150d7565b92505060e06157668b828c01615126565b9150509295985092959890939650565b61577f816161ed565b82525050565b6000615790826161e9565b8084526020840193506157a2836161e3565b60005b828110156157d2576157b8868351615776565b6157c1826161e3565b6020969096019591506001016157a5565b5093949350505050565b60006157e7826161e9565b80845260208401935083602082028501615800856161e3565b60005b8481101561583757838303885261581b838351615a00565b9250615826826161e3565b602098909801979150600101615803565b50909695505050505050565b600061584e826161e9565b80845260208401935083602082028501615867856161e3565b60005b84811015615837578383038852615882838351615a00565b925061588d826161e3565b60209890980197915060010161586a565b60006158a9826161e9565b808452602084019350836020820285016158c2856161e3565b60005b848110156158375783830388526158dd838351615db1565b92506158e8826161e3565b6020989098019791506001016158c5565b6000615904826161e9565b8084526020840193508360208202850161591d856161e3565b60005b84811015615837578383038852615938838351615eca565b9250615943826161e3565b602098909801979150600101615920565b600061595f826161e9565b808452602084019350615971836161e3565b60005b828110156157d257615987868351615fe9565b615990826161e3565b602096909601959150600101615974565b60006159ac826161e9565b8084526020840193506159be836161e3565b60005b828110156157d2576159d4868351615fe9565b6159dd826161e3565b6020969096019591506001016159c1565b61577f816161f9565b61577f8161620a565b6000615a0b826161e9565b808452615a1f816020860160208601616221565b615a288161624d565b9093016020019392505050565b601a81527f4372656174696f6e204461746520697320696d6d757461626c65000000000000602082015260400190565b601181527f726f6c65206973206d616e6461746f7279000000000000000000000000000000602082015260400190565b602281527f4f6e6c792070656e64696e672075736572732063616e2062652061636365707460208201527f6564000000000000000000000000000000000000000000000000000000000000604082015260600190565b601381527f5573657220616c72656164792065786973747300000000000000000000000000602082015260400190565b601481527f546869732075736572206e6f7420657869737473000000000000000000000000602082015260400190565b601b81527f596f752063616e6e6f7420616363657074207468697320757365720000000000602082015260400190565b602281527f4f6e6c792070656e64696e672075736572732063616e2062652072656a65637460208201527f6564000000000000000000000000000000000000000000000000000000000000604082015260600190565b601381527f737461747573206973206e6f742076616c696400000000000000000000000000602082015260400190565b601181527f6d656d626572206e6f7420657869737473000000000000000000000000000000602082015260400190565b601581527f4d656d62657220616c7265616479206578697374730000000000000000000000602082015260400190565b601181527f4d656d626572206e6f7420657869737473000000000000000000000000000000602082015260400190565b601281527f5468656d65206973206d616e6461746f72790000000000000000000000000000602082015260400190565b601081527f434d4f206973206d616e6461746f727900000000000000000000000000000000602082015260400190565b601481527f596f7520617265206e6f74206163636570746564000000000000000000000000602082015260400190565b601181527f4e616d65206973206d616e6461746f7279000000000000000000000000000000602082015260400190565b601181527f4e6f2076616c6964206d656d6265724964000000000000000000000000000000602082015260400190565b601981527f4372656174696f6e44617465206973206d616e6461746f727900000000000000602082015260400190565b8051600090610160840190615dc68582615fe9565b506020830151615dd96020860182615fe9565b5060408301518482036040860152615df18282615a00565b91505060608301518482036060860152615e0b8282615a00565b91505060808301518482036080860152615e258282615a00565b91505060a083015184820360a0860152615e3f8282615a00565b91505060c083015184820360c0860152615e598282615a00565b91505060e083015184820360e0860152615e7382826159a1565b915050610100830151848203610100860152615e8f82826159a1565b915050610120830151848203610120860152615eab8282615785565b915050610140830151615ec2610140860182615fe9565b509392505050565b8051600090610180840190615edf8582615fe9565b5060208301518482036020860152615ef78282615a00565b91505060408301518482036040860152615f118282615a00565b9150506060830151615f266060860182615fe9565b506080830151615f396080860182615fe9565b5060a083015184820360a0860152615f518282615a00565b91505060c0830151615f6660c08601826159f7565b5060e0830151615f7960e0860182615776565b50610100830151848203610100860152615f938282615a00565b915050610120830151848203610120860152615faf8282615843565b915050610140830151615fc6610140860182615fe9565b50610160830151848203610160860152615fe08282615a00565b95945050505050565b61577f81611411565b602080825281016143c481846157dc565b602080825281016143c4818461589e565b602080825281016143c481846158f9565b602080825281016143c48184615954565b602081016118f082846159ee565b602080825281016118f081615a35565b602080825281016118f081615a65565b602080825281016118f081615a95565b602080825281016118f081615aeb565b602080825281016118f081615b1b565b602080825281016118f081615b4b565b602080825281016118f081615b7b565b602080825281016118f081615bd1565b602080825281016118f081615c01565b602080825281016118f081615c31565b602080825281016118f081615c61565b602080825281016118f081615c91565b602080825281016118f081615cc1565b602080825281016118f081615cf1565b602080825281016118f081615d21565b602080825281016118f081615d51565b602080825281016118f081615d81565b602080825281016143c48184615eca565b602081016118f08284615fe9565b60405181810167ffffffffffffffff8111828210171561619257600080fd5b604052919050565b600067ffffffffffffffff8211156161b157600080fd5b5060209081020190565b600067ffffffffffffffff8211156161d257600080fd5b506020601f91909101601f19160190565b60200190565b5190565b600160a060020a031690565b151590565b6000600382106130dc57fe5b60006118f0826161fe565b82818337506000910152565b60005b8381101561623c578181015183820152602001616224565b83811115611a0e5750506000910152565b601f01601f1916905600a265627a7a7230582084d52c0ec28c4e4fcdc53c3c313a384870aa5d83fd95687aac1078f248c04c0e6c6578706572696d656e74616cf50037",
  "source": "pragma solidity ^0.4.24;\npragma experimental ABIEncoderV2;\n\nimport \"./Members.sol\";\nimport \"./Claims.sol\";\n\n\ncontract Users is Members {\n\n  struct User {\n    uint256 creationDate;\n    string firstName;\n    string lastName;\n    uint256 memberId;\n    uint256 requestId;\n    string role;\n    StatusUserEnum status;\n    address owner;  // primary key\n    string cmo;\n    string[] groups;\n    uint tokens;\n    string kycData;\n  }\n\n  enum StatusUserEnum {\n    REJECTED,\n    PENDING,\n    ACCEPTED\n  }\n\n  mapping (address => User) private users_;\n  address[] private usersList_;\n  uint256 constant private PAGE_SIZE = 10;\n\n  uint256 constant private userStartTokens = 100;\n\n  // PUBLIC\n\n  function registerUserRequest(uint256 _creationDate, string _firstName, string _lastName, string _role,\n    uint256 _memberId, string _kycData) public {\n\n    require(_memberId != 0, \"No valid memberId\");\n    require(_creationDate > 0, \"CreationDate is mandatory\");\n    require(users_[msg.sender].creationDate == 0, \"User already exists\");\n    require(_memberExists(_memberId), \"Member not exists\");\n\n    uint256 _requestId = Random.rand(_creationDate);\n    _saveUser(_creationDate, _firstName, _lastName, _memberId, _requestId, _role, uint256(StatusUserEnum.PENDING),\n      msg.sender, 0);\n    users_[msg.sender].kycData = _kycData;\n  }\n\n  function updateUser(string _firstName, string _lastName, uint256 _memberId, string _role, address owner,\n    uint _tokens, string _kycData) public {\n\n    require(users_[owner].owner > address(0), \"This user not exists\");\n    require(uint(users_[owner].status) == uint(StatusUserEnum.ACCEPTED), \"You are not accepted\");\n    if (users_[owner].tokens > _tokens) {\n      members_[users_[owner].memberId].totalTokens += users_[owner].tokens - _tokens;\n    } else {\n      members_[users_[owner].memberId].totalTokens -= _tokens - users_[owner].tokens;\n    }\n    users_[owner].tokens = _tokens;\n    users_[owner].kycData = _kycData;\n\n    uint256 _requestId = users_[owner].requestId;\n    uint256 _creationDate = users_[owner].creationDate;\n    uint256 _status = uint(users_[owner].status);\n\n    _saveUser(_creationDate, _firstName, _lastName, _memberId, _requestId, _role, _status, owner, 1);\n  }\n\n  function getUsedTokens(uint256 _memberId) public view returns (uint){\n    uint usedTokens = 0;\n    for (uint i = 0; i < usersList_.length; ++i) {\n      if (users_[usersList_[i]].memberId == _memberId) {\n        usedTokens += users_[usersList_[i]].tokens;\n      }\n    }\n    return usedTokens;\n  }\n\n  function updateSuperUser(string _firstName, string _lastName, uint256 _memberId, string _role,\n    address owner,string[] _groups) public {\n\n    users_[owner].firstName = _firstName;\n    users_[owner].lastName = _lastName;\n    users_[owner].groups = _groups;\n\n    for (uint i = 0; i < usersList_.length; ++i) {\n      if (keccak256(users_[usersList_[i]].cmo) == keccak256(users_[owner].cmo)) {\n        users_[usersList_[i]].groups = _groups;\n      }\n    }\n\n  }\n\n  function rejectUser(address _userToReject) public {\n\n    require(users_[_userToReject].owner > address(0), \"This user not exists\");\n    require((users_[msg.sender].memberId == users_[_userToReject].memberId) || isSigner(msg.sender), \"You cannot accept this user\");\n    require((uint(users_[msg.sender].status) == uint(StatusUserEnum.ACCEPTED)) || isSigner(msg.sender), \"You are not accepted\");\n    require(users_[_userToReject].status == StatusUserEnum.PENDING, \"Only pending users can be rejected\");\n\n    users_[_userToReject].status = StatusUserEnum.REJECTED;\n    _clearUserFromMemberRequest(users_[_userToReject].memberId, _userToReject);\n  }\n\n  function acceptUser(address _userToAccept) public {\n\n    require(users_[_userToAccept].owner > address(0), \"This user not exists\");\n    require((users_[msg.sender].memberId == users_[_userToAccept].memberId) || isSigner(msg.sender), \"You cannot accept this user\");\n    require((uint(users_[msg.sender].status) == uint(StatusUserEnum.ACCEPTED)) || isSigner(msg.sender), \"You are not accepted\");\n    require(users_[_userToAccept].status == StatusUserEnum.PENDING, \"Only pending users can be accepted\");\n\n    if (members_[users_[_userToAccept].memberId].totalTokens > userStartTokens) {\n      users_[_userToAccept].status = StatusUserEnum.ACCEPTED;\n      _clearUserFromMemberRequest(users_[_userToAccept].memberId, _userToAccept);\n      users_[_userToAccept].tokens = userStartTokens;\n      members_[users_[_userToAccept].memberId].totalTokens -= userStartTokens;\n    } else {\n      rejectUser(_userToAccept);\n    }\n  }\n\n  function getcountUsers() public view returns(uint) {\n    uint256 counter = 0;\n    for (uint i = 0; i < usersList_.length; ++i) {\n      if(users_[usersList_[i]].memberId == users_[msg.sender].memberId\n        && users_[usersList_[i]].status == StatusUserEnum.ACCEPTED) {\n        counter++;\n      }\n    }\n    return counter;\n  }\n\n  function whitelistAdmin(address account, string _cmo) public onlySigner {\n    _clearUserFromMemberRequest(users_[account].memberId, account);\n    users_[account].role = \"Super admin\";\n    users_[account].memberId = ++memberIdCounter_;\n    users_[account].cmo = _cmo;\n//    users_[account].tokens = 0; // should \"Super admin\" have tokens?\n    users_[account].status = StatusUserEnum.ACCEPTED;\n    users_[account].groups = [\"digit1\"];\n    addSigner(account);\n  }\n\n  function getUsers(uint256 _page) public view returns(User[] memory) {\n    uint256 counter = getcountUsers();\n\n    uint256 pageIndex = SafeMath.mul(PAGE_SIZE, _page);\n    uint256 pageNumber = SafeMath.div(usersList_.length, PAGE_SIZE);\n\n    if (counter == 0 || pageIndex > counter || _page > pageNumber) {\n      return;\n    }\n    User[] memory userPageBasic = new User[](PAGE_SIZE);\n    uint256 counterFinal = 0;\n\n    for (uint j = pageIndex; j < usersList_.length; ++j) {\n      if(users_[usersList_[j]].memberId == users_[msg.sender].memberId\n        && users_[usersList_[j]].status == StatusUserEnum.ACCEPTED) {\n        userPageBasic[counterFinal] = users_[usersList_[j]];\n        ++counterFinal;\n      }\n    }\n    return userPageBasic;\n  }\n\n  function getUserByAddress(address userAddress) public view returns(User memory) {\n    return users_[userAddress];\n  }\n\n  function getUsersOwner() onlySigner public view returns(User[] memory) {\n    User[] memory userPageOwner = new User[](usersList_.length);\n\n    for (uint i = 0; i < usersList_.length; ++i) {\n      userPageOwner[i] = users_[usersList_[i]];\n    }\n\n    return userPageOwner;\n  }\n\n  function getMe() public view returns(User) {\n    User memory user = users_[msg.sender];\n    return user;\n  }\n\n\n  function _saveUser(uint256 _creationDate, string _firstName, string _lastName, uint256 _memberId,\n    uint256 _requestId, string _role, uint256 _status, address owner, uint isCreate) private {\n\n    require(_status >= 0 || _status <=2, \"status is not valid\");\n    require(bytes(_role).length != 0, \"role is mandatory\");\n\n    User memory user = users_[owner];\n\n    user.creationDate =  _creationDate;\n    user.firstName =  _firstName;\n    user.lastName =  _lastName;\n    user.memberId =  _memberId;\n    user.requestId =  _requestId;\n    user.role = _role;\n    user.status = StatusUserEnum(_status);\n    user.owner = owner;\n\n    users_[owner] = user;\n\n    if(isCreate == 0) {\n      usersList_.push(owner);\n//      if (users_[owner].status != StatusUserEnum.ACCEPTED) {\n      _addUserToMemberRequest(_memberId);\n//      }\n      users_[owner].groups = [\"digit1\"];                  // by default\n      users_[owner].cmo = members_[user.memberId].cmo;  // to initialize\n    }\n  }\n\n  function _memberIdFromCurrentAddress(address addr) view public returns(uint256) {\n    return users_[addr].memberId;\n  }\n\n  function updateTokens(address addr, uint transactionPrice) public {\n    users_[addr].tokens -= transactionPrice;\n    members_[users_[addr].memberId].totalTokens -= transactionPrice;\n  }\n\n  function getUserTokensByAddress(address addr) view public returns(uint) {\n    return users_[addr].tokens;\n  }\n}\n",
  "sourcePath": "/home/komodo/newUI2/bloomen-decentralized-rights-management-v2/truffle/contracts/registry/Users.sol",
  "compiler": {
    "name": "solc",
    "version": "0.4.24+commit.e67f0147.Emscripten.clang"
  },
  "schemaVersion": "2.0.1",
  "updatedAt": "2020-06-19T11:23:44.849Z"
}