{
  "contractName": "Users",
  "abi": [
    {
      "constant": false,
      "inputs": [
        {
          "name": "_cmo",
          "type": "string"
        }
      ],
      "name": "addCMO",
      "outputs": [],
      "payable": false,
      "stateMutability": "nonpayable",
      "type": "function"
    },
    {
      "constant": true,
      "inputs": [],
      "name": "getCMOs",
      "outputs": [
        {
          "name": "",
          "type": "string[]"
        }
      ],
      "payable": false,
      "stateMutability": "view",
      "type": "function"
    },
    {
      "constant": true,
      "inputs": [
        {
          "name": "account",
          "type": "address"
        }
      ],
      "name": "isSigner",
      "outputs": [
        {
          "name": "",
          "type": "bool"
        }
      ],
      "payable": false,
      "stateMutability": "view",
      "type": "function"
    },
    {
      "constant": true,
      "inputs": [
        {
          "name": "",
          "type": "uint256"
        }
      ],
      "name": "membersList_",
      "outputs": [
        {
          "name": "",
          "type": "uint256"
        }
      ],
      "payable": false,
      "stateMutability": "view",
      "type": "function"
    },
    {
      "constant": true,
      "inputs": [],
      "name": "getMembers",
      "outputs": [
        {
          "components": [
            {
              "name": "memberId",
              "type": "uint256"
            },
            {
              "name": "creationDate",
              "type": "uint256"
            },
            {
              "name": "name",
              "type": "string"
            },
            {
              "name": "logo",
              "type": "string"
            },
            {
              "name": "country",
              "type": "string"
            },
            {
              "name": "cmo",
              "type": "string"
            },
            {
              "name": "theme",
              "type": "string"
            },
            {
              "name": "claimInbox",
              "type": "uint256[]"
            },
            {
              "name": "claims",
              "type": "uint256[]"
            },
            {
              "name": "userRequests",
              "type": "address[]"
            },
            {
              "name": "totalTokens",
              "type": "uint256"
            }
          ],
          "name": "",
          "type": "tuple[]"
        }
      ],
      "payable": false,
      "stateMutability": "view",
      "type": "function"
    },
    {
      "constant": true,
      "inputs": [],
      "name": "getCount",
      "outputs": [
        {
          "name": "",
          "type": "uint256"
        }
      ],
      "payable": false,
      "stateMutability": "view",
      "type": "function"
    },
    {
      "constant": false,
      "inputs": [
        {
          "name": "_index",
          "type": "uint256"
        }
      ],
      "name": "deleteCMO",
      "outputs": [],
      "payable": false,
      "stateMutability": "nonpayable",
      "type": "function"
    },
    {
      "constant": false,
      "inputs": [
        {
          "name": "_memberId",
          "type": "uint256"
        },
        {
          "name": "newInbox",
          "type": "uint256[]"
        }
      ],
      "name": "updateMemberClaimInbox",
      "outputs": [],
      "payable": false,
      "stateMutability": "nonpayable",
      "type": "function"
    },
    {
      "constant": true,
      "inputs": [
        {
          "name": "_page",
          "type": "uint256"
        }
      ],
      "name": "getMembers",
      "outputs": [
        {
          "components": [
            {
              "name": "memberId",
              "type": "uint256"
            },
            {
              "name": "creationDate",
              "type": "uint256"
            },
            {
              "name": "name",
              "type": "string"
            },
            {
              "name": "logo",
              "type": "string"
            },
            {
              "name": "country",
              "type": "string"
            },
            {
              "name": "cmo",
              "type": "string"
            },
            {
              "name": "theme",
              "type": "string"
            },
            {
              "name": "claimInbox",
              "type": "uint256[]"
            },
            {
              "name": "claims",
              "type": "uint256[]"
            },
            {
              "name": "userRequests",
              "type": "address[]"
            },
            {
              "name": "totalTokens",
              "type": "uint256"
            }
          ],
          "name": "",
          "type": "tuple[]"
        }
      ],
      "payable": false,
      "stateMutability": "view",
      "type": "function"
    },
    {
      "constant": false,
      "inputs": [
        {
          "name": "_memberId",
          "type": "uint256"
        },
        {
          "name": "_creationDate",
          "type": "uint256"
        },
        {
          "name": "_name",
          "type": "string"
        },
        {
          "name": "_logo",
          "type": "string"
        },
        {
          "name": "_country",
          "type": "string"
        },
        {
          "name": "_cmo",
          "type": "string"
        },
        {
          "name": "_theme",
          "type": "string"
        },
        {
          "name": "_totalTokens",
          "type": "uint256"
        }
      ],
      "name": "updateMember",
      "outputs": [],
      "payable": false,
      "stateMutability": "nonpayable",
      "type": "function"
    },
    {
      "constant": false,
      "inputs": [],
      "name": "renounceSigner",
      "outputs": [],
      "payable": false,
      "stateMutability": "nonpayable",
      "type": "function"
    },
    {
      "constant": false,
      "inputs": [
        {
          "name": "account",
          "type": "address"
        }
      ],
      "name": "addSigner",
      "outputs": [],
      "payable": false,
      "stateMutability": "nonpayable",
      "type": "function"
    },
    {
      "constant": false,
      "inputs": [
        {
          "name": "_creationDate",
          "type": "uint256"
        },
        {
          "name": "_name",
          "type": "string"
        },
        {
          "name": "_logo",
          "type": "string"
        },
        {
          "name": "_country",
          "type": "string"
        },
        {
          "name": "_cmo",
          "type": "string"
        },
        {
          "name": "_theme",
          "type": "string"
        }
      ],
      "name": "addMember",
      "outputs": [
        {
          "name": "",
          "type": "uint256"
        }
      ],
      "payable": false,
      "stateMutability": "nonpayable",
      "type": "function"
    },
    {
      "anonymous": false,
      "inputs": [
        {
          "indexed": true,
          "name": "account",
          "type": "address"
        }
      ],
      "name": "SignerAdded",
      "type": "event"
    },
    {
      "anonymous": false,
      "inputs": [
        {
          "indexed": true,
          "name": "account",
          "type": "address"
        }
      ],
      "name": "SignerRemoved",
      "type": "event"
    },
    {
      "constant": false,
      "inputs": [
        {
          "name": "_creationDate",
          "type": "uint256"
        },
        {
          "name": "_firstName",
          "type": "string"
        },
        {
          "name": "_lastName",
          "type": "string"
        },
        {
          "name": "_role",
          "type": "string"
        },
        {
          "name": "_memberId",
          "type": "uint256"
        },
        {
          "name": "_kycData",
          "type": "string"
        }
      ],
      "name": "registerUserRequest",
      "outputs": [],
      "payable": false,
      "stateMutability": "nonpayable",
      "type": "function"
    },
    {
      "constant": false,
      "inputs": [
        {
          "name": "_firstName",
          "type": "string"
        },
        {
          "name": "_lastName",
          "type": "string"
        },
        {
          "name": "_memberId",
          "type": "uint256"
        },
        {
          "name": "_role",
          "type": "string"
        },
        {
          "name": "owner",
          "type": "address"
        },
        {
          "name": "_tokens",
          "type": "uint256"
        },
        {
          "name": "_kycData",
          "type": "string"
        }
      ],
      "name": "updateUser",
      "outputs": [],
      "payable": false,
      "stateMutability": "nonpayable",
      "type": "function"
    },
    {
      "constant": true,
      "inputs": [
        {
          "name": "_memberId",
          "type": "uint256"
        }
      ],
      "name": "getUsedTokens",
      "outputs": [
        {
          "name": "",
          "type": "uint256"
        }
      ],
      "payable": false,
      "stateMutability": "view",
      "type": "function"
    },
    {
      "constant": false,
      "inputs": [
        {
          "name": "_firstName",
          "type": "string"
        },
        {
          "name": "_lastName",
          "type": "string"
        },
        {
          "name": "_memberId",
          "type": "uint256"
        },
        {
          "name": "_role",
          "type": "string"
        },
        {
          "name": "owner",
          "type": "address"
        },
        {
          "name": "_groups",
          "type": "string[]"
        }
      ],
      "name": "updateSuperUser",
      "outputs": [],
      "payable": false,
      "stateMutability": "nonpayable",
      "type": "function"
    },
    {
      "constant": false,
      "inputs": [
        {
          "name": "_userToReject",
          "type": "address"
        }
      ],
      "name": "rejectUser",
      "outputs": [],
      "payable": false,
      "stateMutability": "nonpayable",
      "type": "function"
    },
    {
      "constant": false,
      "inputs": [
        {
          "name": "_userToAccept",
          "type": "address"
        }
      ],
      "name": "acceptUser",
      "outputs": [],
      "payable": false,
      "stateMutability": "nonpayable",
      "type": "function"
    },
    {
      "constant": true,
      "inputs": [],
      "name": "getcountUsers",
      "outputs": [
        {
          "name": "",
          "type": "uint256"
        }
      ],
      "payable": false,
      "stateMutability": "view",
      "type": "function"
    },
    {
      "constant": false,
      "inputs": [
        {
          "name": "account",
          "type": "address"
        },
        {
          "name": "_cmo",
          "type": "string"
        }
      ],
      "name": "whitelistAdmin",
      "outputs": [],
      "payable": false,
      "stateMutability": "nonpayable",
      "type": "function"
    },
    {
      "constant": true,
      "inputs": [
        {
          "name": "_page",
          "type": "uint256"
        }
      ],
      "name": "getUsers",
      "outputs": [
        {
          "components": [
            {
              "name": "creationDate",
              "type": "uint256"
            },
            {
              "name": "firstName",
              "type": "string"
            },
            {
              "name": "lastName",
              "type": "string"
            },
            {
              "name": "memberId",
              "type": "uint256"
            },
            {
              "name": "requestId",
              "type": "uint256"
            },
            {
              "name": "role",
              "type": "string"
            },
            {
              "name": "status",
              "type": "uint8"
            },
            {
              "name": "owner",
              "type": "address"
            },
            {
              "name": "cmo",
              "type": "string"
            },
            {
              "name": "groups",
              "type": "string[]"
            },
            {
              "name": "tokens",
              "type": "uint256"
            }
          ],
          "name": "",
          "type": "tuple[]"
        }
      ],
      "payable": false,
      "stateMutability": "view",
      "type": "function"
    },
    {
      "constant": true,
      "inputs": [
        {
          "name": "userAddress",
          "type": "address"
        }
      ],
      "name": "getUserByAddress",
      "outputs": [
        {
          "components": [
            {
              "name": "creationDate",
              "type": "uint256"
            },
            {
              "name": "firstName",
              "type": "string"
            },
            {
              "name": "lastName",
              "type": "string"
            },
            {
              "name": "memberId",
              "type": "uint256"
            },
            {
              "name": "requestId",
              "type": "uint256"
            },
            {
              "name": "role",
              "type": "string"
            },
            {
              "name": "status",
              "type": "uint8"
            },
            {
              "name": "owner",
              "type": "address"
            },
            {
              "name": "cmo",
              "type": "string"
            },
            {
              "name": "groups",
              "type": "string[]"
            },
            {
              "name": "tokens",
              "type": "uint256"
            }
          ],
          "name": "",
          "type": "tuple"
        }
      ],
      "payable": false,
      "stateMutability": "view",
      "type": "function"
    },
    {
      "constant": true,
      "inputs": [],
      "name": "getUsersOwner",
      "outputs": [
        {
          "components": [
            {
              "name": "creationDate",
              "type": "uint256"
            },
            {
              "name": "firstName",
              "type": "string"
            },
            {
              "name": "lastName",
              "type": "string"
            },
            {
              "name": "memberId",
              "type": "uint256"
            },
            {
              "name": "requestId",
              "type": "uint256"
            },
            {
              "name": "role",
              "type": "string"
            },
            {
              "name": "status",
              "type": "uint8"
            },
            {
              "name": "owner",
              "type": "address"
            },
            {
              "name": "cmo",
              "type": "string"
            },
            {
              "name": "groups",
              "type": "string[]"
            },
            {
              "name": "tokens",
              "type": "uint256"
            }
          ],
          "name": "",
          "type": "tuple[]"
        }
      ],
      "payable": false,
      "stateMutability": "view",
      "type": "function"
    },
    {
      "constant": true,
      "inputs": [],
      "name": "getMe",
      "outputs": [
        {
          "components": [
            {
              "name": "creationDate",
              "type": "uint256"
            },
            {
              "name": "firstName",
              "type": "string"
            },
            {
              "name": "lastName",
              "type": "string"
            },
            {
              "name": "memberId",
              "type": "uint256"
            },
            {
              "name": "requestId",
              "type": "uint256"
            },
            {
              "name": "role",
              "type": "string"
            },
            {
              "name": "status",
              "type": "uint8"
            },
            {
              "name": "owner",
              "type": "address"
            },
            {
              "name": "cmo",
              "type": "string"
            },
            {
              "name": "groups",
              "type": "string[]"
            },
            {
              "name": "tokens",
              "type": "uint256"
            }
          ],
          "name": "",
          "type": "tuple"
        }
      ],
      "payable": false,
      "stateMutability": "view",
      "type": "function"
    },
    {
      "constant": true,
      "inputs": [
        {
          "name": "addr",
          "type": "address"
        }
      ],
      "name": "_memberIdFromCurrentAddress",
      "outputs": [
        {
          "name": "",
          "type": "uint256"
        }
      ],
      "payable": false,
      "stateMutability": "view",
      "type": "function"
    },
    {
      "constant": false,
      "inputs": [
        {
          "name": "addr",
          "type": "address"
        },
        {
          "name": "transactionPrice",
          "type": "uint256"
        }
      ],
      "name": "updateTokens",
      "outputs": [],
      "payable": false,
      "stateMutability": "nonpayable",
      "type": "function"
    },
    {
      "constant": true,
      "inputs": [
        {
          "name": "addr",
          "type": "address"
        }
      ],
      "name": "getUserTokensByAddress",
      "outputs": [
        {
          "name": "",
          "type": "uint256"
        }
      ],
      "payable": false,
      "stateMutability": "view",
      "type": "function"
    },
    {
      "constant": true,
      "inputs": [
        {
          "name": "_memberId",
          "type": "uint256"
        }
      ],
      "name": "_memberExists",
      "outputs": [
        {
          "name": "",
          "type": "bool"
        }
      ],
      "payable": false,
      "stateMutability": "view",
      "type": "function"
    },
    {
      "constant": false,
      "inputs": [
        {
          "name": "_memberId",
          "type": "uint256"
        },
        {
          "name": "_claimId",
          "type": "uint256"
        }
      ],
      "name": "_addClaimIdToMemberOwner",
      "outputs": [],
      "payable": false,
      "stateMutability": "nonpayable",
      "type": "function"
    },
    {
      "constant": false,
      "inputs": [
        {
          "name": "_memberId",
          "type": "uint256"
        },
        {
          "name": "_claimId",
          "type": "uint256"
        }
      ],
      "name": "_removeClaimFromMember",
      "outputs": [],
      "payable": false,
      "stateMutability": "nonpayable",
      "type": "function"
    },
    {
      "constant": false,
      "inputs": [
        {
          "name": "_memberId",
          "type": "uint256"
        },
        {
          "name": "_claimId",
          "type": "uint256"
        }
      ],
      "name": "_removeClaimFromInbox",
      "outputs": [],
      "payable": false,
      "stateMutability": "nonpayable",
      "type": "function"
    },
    {
      "constant": true,
      "inputs": [
        {
          "name": "_memberId",
          "type": "uint256"
        }
      ],
      "name": "_getClaimsCountByMember",
      "outputs": [
        {
          "name": "",
          "type": "uint256"
        }
      ],
      "payable": false,
      "stateMutability": "view",
      "type": "function"
    },
    {
      "constant": true,
      "inputs": [
        {
          "name": "_memberId",
          "type": "uint256"
        }
      ],
      "name": "_getClaimsIdByMember",
      "outputs": [
        {
          "name": "",
          "type": "uint256[]"
        }
      ],
      "payable": false,
      "stateMutability": "view",
      "type": "function"
    },
    {
      "constant": false,
      "inputs": [
        {
          "name": "currentCMO",
          "type": "string"
        },
        {
          "name": "currentCMOId",
          "type": "uint256"
        }
      ],
      "name": "_getMemberIdsOfCurrentCMO",
      "outputs": [
        {
          "name": "",
          "type": "uint256[]"
        }
      ],
      "payable": false,
      "stateMutability": "nonpayable",
      "type": "function"
    },
    {
      "constant": false,
      "inputs": [
        {
          "name": "_memberId",
          "type": "uint256"
        },
        {
          "name": "_claimId",
          "type": "uint256"
        }
      ],
      "name": "_addClaimFromInbox",
      "outputs": [],
      "payable": false,
      "stateMutability": "nonpayable",
      "type": "function"
    }
  ],
  "bytecode": "0x608060405260006003556200001d3364010000000062000023810204565b62000108565b6200003e600082640100000000620048356200007582021704565b604051600160a060020a038216907f47d1c22a25bb3a5d4e481b9b1e6944c2eade3181a0a20b495ed61d35b5323f2490600090a250565b600160a060020a03811615156200008b57600080fd5b620000a08282640100000000620000d0810204565b15620000ab57600080fd5b600160a060020a0316600090815260209190915260409020805460ff19166001179055565b6000600160a060020a0382161515620000e857600080fd5b50600160a060020a03166000908152602091909152604090205460ff1690565b615f3980620001186000396000f3006080604052600436106101c15763ffffffff7c010000000000000000000000000000000000000000000000000000000060003504166308bdc24d81146101c6578063230500de146101e85780633a59ccf114610208578063499560b8146102285780634dc92885146102485780635d73ab9a146102685780636262dff61461029e578063656d561c146102cb57806367e482ad146102ed57806369c212f61461030d578063748532391461033a5780637df73e271461035a5780637e5f3afb146103875780638b92892b146103b45780639249d753146103d4578063932191be146103f4578063989359df146104095780639eab525314610429578063a4fdc5941461044b578063a87d942c14610460578063a9eff51114610475578063affccd8414610495578063bb03b706146104b5578063bcec99a6146104d5578063bf3d007e146104f5578063c11e1ff314610515578063c29c92251461052a578063c477ecab1461054a578063d68dee9d1461056a578063e2c11f9e1461058a578063e5c8b03d146105aa578063eb12d61e146105bf578063eff34e59146105df578063f8380733146105ff578063fa1188c61461061f578063fc81b5251461063f575b600080fd5b3480156101d257600080fd5b506101e66101e1366004614e14565b61065f565b005b3480156101f457600080fd5b506101e6610203366004614fd7565b61085c565b34801561021457600080fd5b506101e6610223366004614ebc565b6109f7565b34801561023457600080fd5b506101e6610243366004615260565b610a53565b34801561025457600080fd5b506101e6610263366004614e14565b610b1b565b34801561027457600080fd5b50610288610283366004615108565b610c8d565b6040516102959190615cbc565b60405180910390f35b3480156102aa57600080fd5b506102be6102b9366004615108565b6111e6565b6040516102959190615ccd565b3480156102d757600080fd5b506102e061127b565b6040516102959190615c9a565b3480156102f957600080fd5b506101e6610308366004614e8c565b611354565b34801561031957600080fd5b5061032d610328366004614e14565b611395565b6040516102959190615dfc565b34801561034657600080fd5b506101e6610355366004615311565b611764565b34801561036657600080fd5b5061037a610375366004614e14565b61178a565b6040516102959190615cde565b34801561039357600080fd5b506103a76103a2366004615108565b6117a2565b6040516102959190615e0d565b3480156103c057600080fd5b506101e66103cf366004615311565b6117c1565b3480156103e057600080fd5b506103a76103ef366004614e14565b6118df565b34801561040057600080fd5b506102886118fd565b34801561041557600080fd5b506102be6104243660046150d2565b611d6b565b34801561043557600080fd5b5061043e611f5c565b6040516102959190615cab565b34801561045757600080fd5b506103a761242d565b34801561046c57600080fd5b506103a76124f3565b34801561048157600080fd5b506101e6610490366004614e3a565b612510565b3480156104a157600080fd5b506103a76104b0366004615108565b61266e565b3480156104c157600080fd5b506101e66104d0366004615311565b612683565b3480156104e157600080fd5b506101e66104f0366004614ef1565b612799565b34801561050157600080fd5b506101e6610510366004615108565b6129ec565b34801561052157600080fd5b5061032d612aa9565b34801561053657600080fd5b506101e6610545366004615126565b612e7a565b34801561055657600080fd5b5061043e610565366004615108565b612e9f565b34801561057657600080fd5b506101e6610585366004615330565b6133c4565b34801561059657600080fd5b506101e66105a5366004615311565b6134a4565b3480156105b657600080fd5b506101e66134ca565b3480156105cb57600080fd5b506101e66105da366004614e14565b6134d5565b3480156105eb57600080fd5b506103a76105fa366004614e14565b6134f2565b34801561060b57600080fd5b5061037a61061a366004615108565b613510565b34801561062b57600080fd5b506103a761063a36600461516e565b613523565b34801561064b57600080fd5b506103a761065a366004615108565b6135c9565b600160a060020a038181166000908152600560205260408120600601546101009004909116116106ad5760405160e560020a62461bcd0281526004016106a490615d2c565b60405180910390fd5b600160a060020a038116600090815260056020526040808220600390810154338452919092209091015414806106e757506106e73361178a565b15156107085760405160e560020a62461bcd0281526004016106a490615d3c565b60023360009081526005602052604090206006015460ff16600281111561072b57fe5b148061073b575061073b3361178a565b151561075c5760405160e560020a62461bcd0281526004016106a490615dbc565b6001600160a060020a03821660009081526005602052604090206006015460ff16600281111561078857fe5b146107a85760405160e560020a62461bcd0281526004016106a490615d0c565b600160a060020a038116600090815260056020908152604080832060030154835260029091529020600a01546064101561085057600160a060020a038116600090815260056020526040902060068101805460ff1916600217905560030154610811908261366a565b600160a060020a03811660009081526005602090815260408083206064600982015560030154835260029091529020600a018054606319019055610859565b61085981610b1b565b50565b600160a060020a038381166000908152600560205260408120600601549091829182916101009091041681106108a75760405160e560020a62461bcd0281526004016106a490615d2c565b6002600160a060020a03871660009081526005602052604090206006015460ff1660028111156108d357fe5b146108f35760405160e560020a62461bcd0281526004016106a490615dbc565b600160a060020a03861660009081526005602052604090206009015485101561095957600160a060020a0386166000908152600560209081526040808320600981015460039091015484526002909252909120600a018054918790039091019055610997565b600160a060020a0386166000908152600560209081526040808320600981015460039091015484526002909252909120600a01805491870390910390555b600160a060020a0386166000908152600560205260409020600981018690556004810154815460069092015490945090925060ff1660028111156109d757fe5b90506109eb828b8b8b878c878d60016137cf565b50505050505050505050565b610a003361178a565b1515610a0b57600080fd5b600180548082018083556000929092528251610a4e917fb10e2d527612073b26eecdfd717e6a320cf44b4afac2b0732d9fcbe2b7fa0cf601906020850190614883565b505050565b6000821515610a775760405160e560020a62461bcd0281526004016106a490615ddc565b60008711610a9a5760405160e560020a62461bcd0281526004016106a490615dec565b3360009081526005602052604090205415610aca5760405160e560020a62461bcd0281526004016106a490615d1c565b610ad383613510565b1515610af45760405160e560020a62461bcd0281526004016106a490615d8c565b610afd87613e90565b9050610b1287878786858960013360006137cf565b50505050505050565b600160a060020a03818116600090815260056020526040812060060154610100900490911611610b605760405160e560020a62461bcd0281526004016106a490615d2c565b600160a060020a03811660009081526005602052604080822060039081015433845291909220909101541480610b9a5750610b9a3361178a565b1515610bbb5760405160e560020a62461bcd0281526004016106a490615d3c565b60023360009081526005602052604090206006015460ff166002811115610bde57fe5b1480610bee5750610bee3361178a565b1515610c0f5760405160e560020a62461bcd0281526004016106a490615dbc565b6001600160a060020a03821660009081526005602052604090206006015460ff166002811115610c3b57fe5b14610c5b5760405160e560020a62461bcd0281526004016106a490615d4c565b600160a060020a038116600090815260056020526040902060068101805460ff1916905560030154610859908261366a565b606060008060006060600080610ca161242d565b9550610cae600a8961407f565b600654909550610cbf90600a6140b4565b9350851580610ccd57508585115b80610cd757508388115b15610ce1576111db565b60408051600a808252610160820190925290816020015b610d006148fd565b815260200190600190039081610cf8579050509250600091508490505b6006548110156111d7573360009081526005602081905260408220600301546006805491939185908110610d4d57fe5b6000918252602080832090910154600160a060020a03168352820192909252604001902060030154148015610dca5750600260056000600684815481101515610d9257fe5b6000918252602080832090910154600160a060020a0316835282019290925260400190206006015460ff166002811115610dc857fe5b145b156111cf5760056000600683815481101515610de257fe5b6000918252602080832090910154600160a060020a03168352828101939093526040918201902081516101608101835281548152600182810180548551601f6002600019958416156101000295909501909216939093049081018790048702830187019095528482529194929385840193919291830182828015610ea75780601f10610e7c57610100808354040283529160200191610ea7565b820191906000526020600020905b815481529060010190602001808311610e8a57829003601f168201915b5050509183525050600282810180546040805160206001841615610100026000190190931694909404601f81018390048302850183019091528084529381019390830182828015610f395780601f10610f0e57610100808354040283529160200191610f39565b820191906000526020600020905b815481529060010190602001808311610f1c57829003601f168201915b505050505081526020016003820154815260200160048201548152602001600582018054600181600116156101000203166002900480601f016020809104026020016040519081016040528092919081815260200182805460018160011615610100020316600290048015610fef5780601f10610fc457610100808354040283529160200191610fef565b820191906000526020600020905b815481529060010190602001808311610fd257829003601f168201915b5050509183525050600682015460209091019060ff16600281111561101057fe5b600281111561101b57fe5b8152600682015461010090819004600160a060020a031660208084019190915260078401805460408051600260018416159096026000190190921694909404601f8101849004840282018401855280825293909401939290918301828280156110c55780601f1061109a576101008083540402835291602001916110c5565b820191906000526020600020905b8154815290600101906020018083116110a857829003601f168201915b5050505050815260200160088201805480602002602001604051908101604052809291908181526020016000905b8282101561119e5760008481526020908190208301805460408051601f600260001961010060018716150201909416939093049283018590048502810185019091528181529283018282801561118a5780601f1061115f5761010080835404028352916020019161118a565b820191906000526020600020905b81548152906001019060200180831161116d57829003601f168201915b5050505050815260200190600101906110f3565b50505050815260200160098201548152505083838151811015156111be57fe5b602090810290910101526001909101905b600101610d1d565b8296505b505050505050919050565b600081815260026020526040812054606091106112185760405160e560020a62461bcd0281526004016106a490615d6c565b6000828152600260209081526040918290206008018054835181840281018401909452808452909183018282801561126f57602002820191906000526020600020905b81548152602001906001019080831161125b575b50505050509050919050565b60606001805480602002602001604051908101604052809291908181526020016000905b8282101561134a5760008481526020908190208301805460408051601f60026000196101006001871615020190941693909304928301859004850281018501909152818152928301828280156113365780601f1061130b57610100808354040283529160200191611336565b820191906000526020600020905b81548152906001019060200180831161131957829003601f168201915b50505050508152602001906001019061129f565b5050505090505b90565b600160a060020a039091166000908152600560209081526040808320600981018054869003905560030154835260029091529020600a018054919091039055565b61139d6148fd565b600160a060020a03821660009081526005602090815260409182902082516101608101845281548152600180830180548651600293821615610100026000190190911692909204601f81018690048602830186019096528582529194929385810193919291908301828280156114545780601f1061142957610100808354040283529160200191611454565b820191906000526020600020905b81548152906001019060200180831161143757829003601f168201915b5050509183525050600282810180546040805160206001841615610100026000190190931694909404601f810183900483028501830190915280845293810193908301828280156114e65780601f106114bb576101008083540402835291602001916114e6565b820191906000526020600020905b8154815290600101906020018083116114c957829003601f168201915b505050505081526020016003820154815260200160048201548152602001600582018054600181600116156101000203166002900480601f01602080910402602001604051908101604052809291908181526020018280546001816001161561010002031660029004801561159c5780601f106115715761010080835404028352916020019161159c565b820191906000526020600020905b81548152906001019060200180831161157f57829003601f168201915b5050509183525050600682015460209091019060ff1660028111156115bd57fe5b60028111156115c857fe5b8152600682015461010090819004600160a060020a031660208084019190915260078401805460408051600260018416159096026000190190921694909404601f8101849004840282018401855280825293909401939290918301828280156116725780601f1061164757610100808354040283529160200191611672565b820191906000526020600020905b81548152906001019060200180831161165557829003601f168201915b5050505050815260200160088201805480602002602001604051908101604052809291908181526020016000905b8282101561174b5760008481526020908190208301805460408051601f60026000196101006001871615020190941693909304928301859004850281018501909152818152928301828280156117375780601f1061170c57610100808354040283529160200191611737565b820191906000526020600020905b81548152906001019060200180831161171a57829003601f168201915b5050505050815260200190600101906116a0565b5050505081526020016009820154815250509050919050565b600091825260026020908152604083206007018054600181018255908452922090910155565b600061179c818363ffffffff6140d716565b92915050565b60048054829081106117b057fe5b600091825260209091200154905081565b6000805b6000848152600260205260409020600701546000190181101561188157600084815260026020526040902060070180548491908390811061180257fe5b9060005260206000200154141561181857600191505b811561187957600084815260026020526040902060070180546001830190811061183e57fe5b9060005260206000200154600260008681526020019081526020016000206007018281548110151561186c57fe5b6000918252602090912001555b6001016117c5565b81156118d9576000848152600260205260409020600701805460001981019081106118a857fe5b6000918252602080832090910182905585825260029052604090206007018054906118d790600019830161496c565b505b50505050565b600160a060020a031660009081526005602052604090206009015490565b606080600061190b3361178a565b151561191657600080fd5b60065460408051828152602080840282010190915290801561195257816020015b61193f6148fd565b8152602001906001900390816119375790505b509150600090505b600654811015611d65576005600060068381548110151561197757fe5b6000918252602080832090910154600160a060020a03168352828101939093526040918201902081516101608101835281548152600182810180548551601f6002600019958416156101000295909501909216939093049081018790048702830187019095528482529194929385840193919291830182828015611a3c5780601f10611a1157610100808354040283529160200191611a3c565b820191906000526020600020905b815481529060010190602001808311611a1f57829003601f168201915b5050509183525050600282810180546040805160206001841615610100026000190190931694909404601f81018390048302850183019091528084529381019390830182828015611ace5780601f10611aa357610100808354040283529160200191611ace565b820191906000526020600020905b815481529060010190602001808311611ab157829003601f168201915b505050505081526020016003820154815260200160048201548152602001600582018054600181600116156101000203166002900480601f016020809104026020016040519081016040528092919081815260200182805460018160011615610100020316600290048015611b845780601f10611b5957610100808354040283529160200191611b84565b820191906000526020600020905b815481529060010190602001808311611b6757829003601f168201915b5050509183525050600682015460209091019060ff166002811115611ba557fe5b6002811115611bb057fe5b8152600682015461010090819004600160a060020a031660208084019190915260078401805460408051600260018416159096026000190190921694909404601f810184900484028201840185528082529390940193929091830182828015611c5a5780601f10611c2f57610100808354040283529160200191611c5a565b820191906000526020600020905b815481529060010190602001808311611c3d57829003601f168201915b5050505050815260200160088201805480602002602001604051908101604052809291908181526020016000905b82821015611d335760008481526020908190208301805460408051601f6002600019610100600187161502019094169390930492830185900485028101850190915281815292830182828015611d1f5780601f10611cf457610100808354040283529160200191611d1f565b820191906000526020600020905b815481529060010190602001808311611d0257829003601f168201915b505050505081526020019060010190611c88565b5050505081526020016009820154815250508282815181101515611d5357fe5b6020908102909101015260010161195a565b50919050565b60606000805b600454811015611f0657846040518082805190602001908083835b60208310611dab5780518252601f199092019160209182019101611d8c565b6001836020036101000a03801982511681845116808217855250505050505090500191505060405180910390206000191660026000600484815481101515611def57fe5b906000526020600020015481526020019081526020016000206005016040518082805460018160011615610100020316600290048015611e665780601f10611e44576101008083540402835291820191611e66565b820191906000526020600020905b815481529060010190602001808311611e52575b5050915050604051809103902060001916148015611eb357508360026000600484815481101515611e9357fe5b906000526020600020015481526020019081526020016000206000015414155b15611efe578160026000600484815481101515611ecc57fe5b600091825260208083209091015483528281019390935260409091018120548354600181018555938252919020909101555b600101611d71565b815460408051602080840282018101909252828152918491830182828015611f4d57602002820191906000526020600020905b815481526020019060010190808311611f39575b50505050509250505092915050565b6060806000600480549050604051908082528060200260200182016040528015611fa057816020015b611f8d614990565b815260200190600190039081611f855790505b509150600090505b600454811015611d655760026000600483815481101515611fc557fe5b9060005260206000200154815260200190815260200160002061016060405190810160405290816000820154815260200160018201548152602001600282018054600181600116156101000203166002900480601f0160208091040260200160405190810160405280929190818152602001828054600181600116156101000203166002900480156120985780601f1061206d57610100808354040283529160200191612098565b820191906000526020600020905b81548152906001019060200180831161207b57829003601f168201915b505050918352505060038201805460408051602060026001851615610100026000190190941693909304601f810184900484028201840190925281815293820193929183018282801561212c5780601f106121015761010080835404028352916020019161212c565b820191906000526020600020905b81548152906001019060200180831161210f57829003601f168201915b505050918352505060048201805460408051602060026001851615610100026000190190941693909304601f81018490048402820184019092528181529382019392918301828280156121c05780601f10612195576101008083540402835291602001916121c0565b820191906000526020600020905b8154815290600101906020018083116121a357829003601f168201915b505050918352505060058201805460408051602060026001851615610100026000190190941693909304601f81018490048402820184019092528181529382019392918301828280156122545780601f1061222957610100808354040283529160200191612254565b820191906000526020600020905b81548152906001019060200180831161223757829003601f168201915b505050918352505060068201805460408051602060026001851615610100026000190190941693909304601f81018490048402820184019092528181529382019392918301828280156122e85780601f106122bd576101008083540402835291602001916122e8565b820191906000526020600020905b8154815290600101906020018083116122cb57829003601f168201915b505050505081526020016007820180548060200260200160405190810160405280929190818152602001828054801561234057602002820191906000526020600020905b81548152602001906001019080831161232c575b505050505081526020016008820180548060200260200160405190810160405280929190818152602001828054801561239857602002820191906000526020600020905b815481526020019060010190808311612384575b50505050508152602001600982018054806020026020016040519081016040528092919081815260200182805480156123fa57602002820191906000526020600020905b8154600160a060020a031681526001909101906020018083116123dc575b50505050508152602001600a82015481525050828281518110151561241b57fe5b60209081029091010152600101611fa8565b600080805b600654811015611d6557336000908152600560208190526040822060030154600680549193918590811061246257fe5b6000918252602080832090910154600160a060020a031683528201929092526040019020600301541480156124df57506002600560006006848154811015156124a757fe5b6000918252602080832090910154600160a060020a0316835282019290925260400190206006015460ff1660028111156124dd57fe5b145b156124eb576001909101905b600101612432565b60006124fe3361178a565b151561250957600080fd5b5060045490565b6125193361178a565b151561252457600080fd5b600160a060020a03821660009081526005602052604090206003015461254a908361366a565b604080518082018252600b81527f53757065722061646d696e0000000000000000000000000000000000000000006020808301918252600160a060020a03861660009081526005918290529390932091516125a9939290920191614883565b5060038054600101808255600160a060020a03841660009081526005602090815260409091209283019190915582516125e89260070191840190614883565b50600160a060020a03821660008181526005602081815260408084206006808201805460ff1916600217905582516060810184528085019182527f64696769743100000000000000000000000000000000000000000000000000009381019390935282529490935252612660916008019060016149eb565b5061266a826134d5565b5050565b60009081526002602052604090206008015490565b6000805b600084815260026020526040902060080154600019018110156127435760008481526002602052604090206008018054849190839081106126c457fe5b906000526020600020015414156126da57600191505b811561273b57600084815260026020526040902060080180546001830190811061270057fe5b9060005260206000200154600260008681526020019081526020016000206008018281548110151561272e57fe5b6000918252602090912001555b600101612687565b81156118d95760008481526002602052604090206008018054600019810190811061276a57fe5b6000918252602080832090910182905585825260029052604090206008018054906118d790600019830161496c565b600160a060020a0382166000908152600560209081526040822088516127c7926001909201918a0190614883565b50600160a060020a038316600090815260056020908152604090912087516127f792600290920191890190614883565b50600160a060020a0383166000908152600560209081526040909120835161282792600890920191850190614a44565b50600090505b600654811015610b12576005600084600160a060020a0316600160a060020a0316815260200190815260200160002060070160405180828054600181600116156101000203166002900480156128ba5780601f106128985761010080835404028352918201916128ba565b820191906000526020600020905b8154815290600101906020018083116128a6575b5050915050604051809103902060001916600560006006848154811015156128de57fe5b9060005260206000200160009054906101000a9004600160a060020a0316600160a060020a0316600160a060020a03168152602001908152602001600020600701604051808280546001816001161561010002031660029004801561297a5780601f1061295857610100808354040283529182019161297a565b820191906000526020600020905b815481529060010190602001808311612966575b505091505060405180910390206000191614156129e45781600560006006848154811015156129a557fe5b6000918252602080832090910154600160a060020a03168352828101939093526040909101902082516129e2936008909201929190910190614a44565b505b60010161282d565b60006129f73361178a565b1515612a0257600080fd5b50805b60015460001901811015612a6e5760018054828201908110612a2357fe5b90600052602060002001600182815481101515612a3c57fe5b906000526020600020019080546001816001161561010002031660029004612a65929190614a91565b50600101612a05565b600180546000198101908110612a8057fe5b906000526020600020016000612a969190614b06565b6001805490610a4e906000198301614b4a565b612ab16148fd565b612ab96148fd565b3360009081526005602090815260409182902082516101608101845281548152600180830180548651600293821615610100026000190190911692909204601f8101869004860283018601909652858252919492938581019391929190830182828015612b675780601f10612b3c57610100808354040283529160200191612b67565b820191906000526020600020905b815481529060010190602001808311612b4a57829003601f168201915b5050509183525050600282810180546040805160206001841615610100026000190190931694909404601f81018390048302850183019091528084529381019390830182828015612bf95780601f10612bce57610100808354040283529160200191612bf9565b820191906000526020600020905b815481529060010190602001808311612bdc57829003601f168201915b505050505081526020016003820154815260200160048201548152602001600582018054600181600116156101000203166002900480601f016020809104026020016040519081016040528092919081815260200182805460018160011615610100020316600290048015612caf5780601f10612c8457610100808354040283529160200191612caf565b820191906000526020600020905b815481529060010190602001808311612c9257829003601f168201915b5050509183525050600682015460209091019060ff166002811115612cd057fe5b6002811115612cdb57fe5b8152600682015461010090819004600160a060020a031660208084019190915260078401805460408051600260018416159096026000190190921694909404601f810184900484028201840185528082529390940193929091830182828015612d855780601f10612d5a57610100808354040283529160200191612d85565b820191906000526020600020905b815481529060010190602001808311612d6857829003601f168201915b5050505050815260200160088201805480602002602001604051908101604052809291908181526020016000905b82821015612e5e5760008481526020908190208301805460408051601f6002600019610100600187161502019094169390930492830185900485028101850190915281815292830182828015612e4a5780601f10612e1f57610100808354040283529160200191612e4a565b820191906000526020600020905b815481529060010190602001808311612e2d57829003601f168201915b505050505081526020019060010190612db3565b50505050815260200160098201548152505090508091505b5090565b60008281526002602090815260409091208251610a4e92600790920191840190614b6e565b6060600080600060606000612eb5600a8861407f565b600454909550612ec690600a6140b4565b6004549094501580612edd57506004546000190185115b80612ee757508387115b15612ef1576133ba565b60408051600a80825261016082019092526000945090816020015b612f14614990565b815260200190600190039081612f0c5790505091508490505b6004548110156133b65760026000600483815481101515612f4a57fe5b9060005260206000200154815260200190815260200160002061016060405190810160405290816000820154815260200160018201548152602001600282018054600181600116156101000203166002900480601f01602080910402602001604051908101604052809291908181526020018280546001816001161561010002031660029004801561301d5780601f10612ff25761010080835404028352916020019161301d565b820191906000526020600020905b81548152906001019060200180831161300057829003601f168201915b505050918352505060038201805460408051602060026001851615610100026000190190941693909304601f81018490048402820184019092528181529382019392918301828280156130b15780601f10613086576101008083540402835291602001916130b1565b820191906000526020600020905b81548152906001019060200180831161309457829003601f168201915b505050918352505060048201805460408051602060026001851615610100026000190190941693909304601f81018490048402820184019092528181529382019392918301828280156131455780601f1061311a57610100808354040283529160200191613145565b820191906000526020600020905b81548152906001019060200180831161312857829003601f168201915b505050918352505060058201805460408051602060026001851615610100026000190190941693909304601f81018490048402820184019092528181529382019392918301828280156131d95780601f106131ae576101008083540402835291602001916131d9565b820191906000526020600020905b8154815290600101906020018083116131bc57829003601f168201915b505050918352505060068201805460408051602060026001851615610100026000190190941693909304601f810184900484028201840190925281815293820193929183018282801561326d5780601f106132425761010080835404028352916020019161326d565b820191906000526020600020905b81548152906001019060200180831161325057829003601f168201915b50505050508152602001600782018054806020026020016040519081016040528092919081815260200182805480156132c557602002820191906000526020600020905b8154815260200190600101908083116132b1575b505050505081526020016008820180548060200260200160405190810160405280929190818152602001828054801561331d57602002820191906000526020600020905b815481526020019060010190808311613309575b505050505081526020016009820180548060200260200160405190810160405280929190818152602001828054801561337f57602002820191906000526020600020905b8154600160a060020a03168152600190910190602001808311613361575b50505050508152602001600a8201548152505082848151811015156133a057fe5b6020908102909101015260019283019201612f2d565b8195505b5050505050919050565b6133cd3361178a565b15156133d857600080fd5b600088815260026020526040812054116134075760405160e560020a62461bcd0281526004016106a490615d8c565b600088815260026020526040902060010154871461343a5760405160e560020a62461bcd0281526004016106a490615cec565b6000888152600260208181526040909220885161345f93919092019190890190614883565b506000888152600260209081526040909120835161348592600690920191850190614883565b50600097885260026020526040909720600a0196909655505050505050565b600091825260026020908152604083206008018054600181018255908452922090910155565b6134d33361410e565b565b6134de3361178a565b15156134e957600080fd5b61085981614156565b600160a060020a031660009081526005602052604090206003015490565b6000908152600260205260408120541190565b60008061352f3361178a565b151561353a57600080fd5b6000881161355d5760405160e560020a62461bcd0281526004016106a490615dec565b506003805460010190819055600081815260026020526040902054156135985760405160e560020a62461bcd0281526004016106a490615d7c565b6135a78189898989898961419e565b60008181526002602052604090206103e8600a90910155979650505050505050565b600080805b6006548110156136635783600560006006848154811015156135ec57fe5b6000918252602080832090910154600160a060020a03168352820192909252604001902060030154141561365b576005600060068381548110151561362d57fe5b6000918252602080832090910154600160a060020a0316835282019290925260400190206009015491909101905b6001016135ce565b5092915050565b6000805b600084815260026020526040902060090154600019018110156137675760008481526002602052604090206009018054600160a060020a0385169190839081106136b457fe5b600091825260209091200154600160a060020a031614156136d457600191505b811561375f5760008481526002602052604090206009018054600183019081106136fa57fe5b6000918252602080832090910154868352600290915260409091206009018054600160a060020a03909216918390811061373057fe5b9060005260206000200160006101000a815481600160a060020a030219169083600160a060020a031602179055505b60010161366e565b60008481526002602052604090206009018054600019810190811061378857fe5b60009182526020808320909101805473ffffffffffffffffffffffffffffffffffffffff1916905585825260029052604090206009018054906118d790600019830161496c565b6137d76148fd565b6000841015806137e8575060028411155b15156138095760405160e560020a62461bcd0281526004016106a490615d5c565b8451151561382c5760405160e560020a62461bcd0281526004016106a490615cfc565b600160a060020a03831660009081526005602090815260409182902082516101608101845281548152600180830180548651600293821615610100026000190190911692909204601f81018690048602830186019096528582529194929385810193919291908301828280156138e35780601f106138b8576101008083540402835291602001916138e3565b820191906000526020600020905b8154815290600101906020018083116138c657829003601f168201915b5050509183525050600282810180546040805160206001841615610100026000190190931694909404601f810183900483028501830190915280845293810193908301828280156139755780601f1061394a57610100808354040283529160200191613975565b820191906000526020600020905b81548152906001019060200180831161395857829003601f168201915b505050505081526020016003820154815260200160048201548152602001600582018054600181600116156101000203166002900480601f016020809104026020016040519081016040528092919081815260200182805460018160011615610100020316600290048015613a2b5780601f10613a0057610100808354040283529160200191613a2b565b820191906000526020600020905b815481529060010190602001808311613a0e57829003601f168201915b5050509183525050600682015460209091019060ff166002811115613a4c57fe5b6002811115613a5757fe5b8152600682015461010090819004600160a060020a031660208084019190915260078401805460408051600260018416159096026000190190921694909404601f810184900484028201840185528082529390940193929091830182828015613b015780601f10613ad657610100808354040283529160200191613b01565b820191906000526020600020905b815481529060010190602001808311613ae457829003601f168201915b5050505050815260200160088201805480602002602001604051908101604052809291908181526020016000905b82821015613bda5760008481526020908190208301805460408051601f6002600019610100600187161502019094169390930492830185900485028101850190915281815292830182828015613bc65780601f10613b9b57610100808354040283529160200191613bc6565b820191906000526020600020905b815481529060010190602001808311613ba957829003601f168201915b505050505081526020019060010190613b2f565b50505090825250600991909101546020918201528b825281018a905260408101899052606081018890526080810187905260a081018690529050836002811115613c2057fe5b8160c001906002811115613c3057fe5b90816002811115613c3d57fe5b905250600160a060020a03831660e082018190526000908152600560209081526040909120825181558183015180518493613c7f926001850192910190614883565b5060408201518051613c9b916002840191602090910190614883565b50606082015160038201556080820151600482015560a08201518051613ccb916005840191602090910190614883565b5060c082015160068201805460ff19166001836002811115613ce957fe5b021790555060e082015160068201805474ffffffffffffffffffffffffffffffffffffffff001916610100600160a060020a0390931683021790558201518051613d3d916007840191602090910190614883565b506101208201518051613d5a916008840191602090910190614ba8565b5061014091909101516009909101558115156109eb57600680546001810182556000919091527ff652222313e28459528d920b65115c16c04f3efc82aaedc97be59f3f377c0d3f01805473ffffffffffffffffffffffffffffffffffffffff1916600160a060020a038516179055613dd1876147a9565b60408051606081018252600660208281019182527f646967697431000000000000000000000000000000000000000000000000000083850152908252600160a060020a0386166000908152600590915291909120613e369160089091019060016149eb565b5060608101516000908152600260208181526040808420600160a060020a0388168552600592839052932092018054613e8393600701926000196101006001841615020190911604614a91565b5050505050505050505050565b6000808080600285061515613f225784604051602001808281526020019150506040516020818303038152906040526040518082805190602001908083835b60208310613eee5780518252601f199092019160209182019101613ecf565b6001836020036101000a0380198251168184511680821785525050505050509050019150506040518091039020925061400d565b84604051602001808281526020019150506040516020818303038152906040526040518082805190602001908083835b60208310613f715780518252601f199092019160209182019101613f52565b51815160209384036101000a600019018019909216911617905260408051929094018290038220828201528351808303820181529184019384905281519195509293508392850191508083835b60208310613fdd5780518252601f199092019160209182019101613fbe565b6001836020036101000a038019825116818451168082178552505050505050905001915050604051809103902092505b602081101561403a5782816020811061402257fe5b60f860020a91901a810204919091019060010161400d565b82602060028401066020811061404c57fe5b60f860020a91901a81020483602084066020811061406657fe5b1a60f860020a0260f860020a9004029350505050919050565b6000808315156140925760009150613663565b508282028284828115156140a257fe5b04146140ad57600080fd5b9392505050565b6000808083116140c357600080fd5b82848115156140ce57fe5b04949350505050565b6000600160a060020a03821615156140ee57600080fd5b50600160a060020a03166000908152602091909152604090205460ff1690565b61411f60008263ffffffff6147e916565b604051600160a060020a038216907f3525e22824a8a7df2c9a6029941c824cf95b6447f1e13d5128fd3826d35afe8b90600090a250565b61416760008263ffffffff61483516565b604051600160a060020a038216907f47d1c22a25bb3a5d4e481b9b1e6944c2eade3181a0a20b495ed61d35b5323f2490600090a250565b6141a6614990565b855115156141c95760405160e560020a62461bcd0281526004016106a490615dcc565b825115156141ec5760405160e560020a62461bcd0281526004016106a490615dac565b8151151561420f5760405160e560020a62461bcd0281526004016106a490615d9c565b6000888152600260208181526040928390208351610160810185528154815260018083015482850152828501805487519281161561010002600019011695909504601f810185900485028201850187528082529195929492860193909291908301828280156142bf5780601f10614294576101008083540402835291602001916142bf565b820191906000526020600020905b8154815290600101906020018083116142a257829003601f168201915b505050918352505060038201805460408051602060026001851615610100026000190190941693909304601f81018490048402820184019092528181529382019392918301828280156143535780601f1061432857610100808354040283529160200191614353565b820191906000526020600020905b81548152906001019060200180831161433657829003601f168201915b505050918352505060048201805460408051602060026001851615610100026000190190941693909304601f81018490048402820184019092528181529382019392918301828280156143e75780601f106143bc576101008083540402835291602001916143e7565b820191906000526020600020905b8154815290600101906020018083116143ca57829003601f168201915b505050918352505060058201805460408051602060026001851615610100026000190190941693909304601f810184900484028201840190925281815293820193929183018282801561447b5780601f106144505761010080835404028352916020019161447b565b820191906000526020600020905b81548152906001019060200180831161445e57829003601f168201915b505050918352505060068201805460408051602060026001851615610100026000190190941693909304601f810184900484028201840190925281815293820193929183018282801561450f5780601f106144e45761010080835404028352916020019161450f565b820191906000526020600020905b8154815290600101906020018083116144f257829003601f168201915b505050505081526020016007820180548060200260200160405190810160405280929190818152602001828054801561456757602002820191906000526020600020905b815481526020019060010190808311614553575b50505050508152602001600882018054806020026020016040519081016040528092919081815260200182805480156145bf57602002820191906000526020600020905b8154815260200190600101908083116145ab575b505050505081526020016009820180548060200260200160405190810160405280929190818152602001828054801561462157602002820191906000526020600020905b8154600160a060020a03168152600190910190602001808311614603575b5050509183525050600a919091015460209182015289825281810189815260408084018a8152606085018a90526080850189905260a0850188905260c0850187905260008d815260028086529290208551815592516001840155518051949550859492936146959392850192910190614883565b50606082015180516146b1916003840191602090910190614883565b50608082015180516146cd916004840191602090910190614883565b5060a082015180516146e9916005840191602090910190614883565b5060c08201518051614705916006840191602090910190614883565b5060e08201518051614721916007840191602090910190614b6e565b50610100820151805161473e916008840191602090910190614b6e565b50610120820151805161475b916009840191602090910190614bf5565b506101409190910151600a909101555050600480546001810182556000919091527f8a35acfbc15ff81a39ae7d344fd709f28e8600b4aa8c65c6b64bfe7fe36bd19b01959095555050505050565b600090815260026020908152604082206009018054600181018255908352912001805473ffffffffffffffffffffffffffffffffffffffff191633179055565b600160a060020a03811615156147fe57600080fd5b61480882826140d7565b151561481357600080fd5b600160a060020a0316600090815260209190915260409020805460ff19169055565b600160a060020a038116151561484a57600080fd5b61485482826140d7565b1561485e57600080fd5b600160a060020a0316600090815260209190915260409020805460ff19166001179055565b828054600181600116156101000203166002900490600052602060002090601f016020900481019282601f106148c457805160ff19168380011785556148f1565b828001600101855582156148f1579182015b828111156148f15782518255916020019190600101906148d6565b50612e76929150614c63565b610160604051908101604052806000815260200160608152602001606081526020016000815260200160008152602001606081526020016000600281111561494157fe5b81526020016000600160a060020a031681526020016060815260200160608152602001600081525090565b815481835581811115610a4e57600083815260209020610a4e918101908301614c63565b6101606040519081016040528060008152602001600081526020016060815260200160608152602001606081526020016060815260200160608152602001606081526020016060815260200160608152602001600081525090565b828054828255906000526020600020908101928215614a38579160200282015b82811115614a385782518051614a28918491602090910190614883565b5091602001919060010190614a0b565b50612e76929150614c7d565b828054828255906000526020600020908101928215614a38579160200282015b82811115614a385782518051614a81918491602090910190614883565b5091602001919060010190614a64565b828054600181600116156101000203166002900490600052602060002090601f016020900481019282601f10614aca57805485556148f1565b828001600101855582156148f157600052602060002091601f016020900482015b828111156148f1578254825591600101919060010190614aeb565b50805460018160011615610100020316600290046000825580601f10614b2c5750610859565b601f0160209004906000526020600020908101906108599190614c63565b815481835581811115610a4e57600083815260209020610a4e918101908301614c7d565b8280548282559060005260206000209081019282156148f157916020028201828111156148f15782518255916020019190600101906148d6565b828054828255906000526020600020908101928215614a38579160200282015b82811115614a385782518051614be5918491602090910190614883565b5091602001919060010190614bc8565b828054828255906000526020600020908101928215614c57579160200282015b82811115614c57578251825473ffffffffffffffffffffffffffffffffffffffff1916600160a060020a03909116178255602090920191600190910190614c15565b50612e76929150614ca0565b61135191905b80821115612e765760008155600101614c69565b61135191905b80821115612e76576000614c978282614b06565b50600101614c83565b61135191905b80821115612e7657805473ffffffffffffffffffffffffffffffffffffffff19168155600101614ca6565b60006140ad8235615e95565b6000601f82018313614cee57600080fd5b8135614d01614cfc82615e42565b615e1b565b81815260209384019390925082018360005b83811015614d3f5781358601614d298882614db9565b8452506020928301929190910190600101614d13565b5050505092915050565b6000601f82018313614d5a57600080fd5b8135614d68614cfc82615e42565b91508181835260208401935060208101905083856020840282011115614d8d57600080fd5b60005b83811015614d3f5781614da38882614e08565b8452506020928301929190910190600101614d90565b6000601f82018313614dca57600080fd5b8135614dd8614cfc82615e63565b91508082526020830160208301858383011115614df457600080fd5b614dff838284615ebd565b50505092915050565b60006140ad8235611351565b600060208284031215614e2657600080fd5b6000614e328484614cd1565b949350505050565b60008060408385031215614e4d57600080fd5b6000614e598585614cd1565b925050602083013567ffffffffffffffff811115614e7657600080fd5b614e8285828601614db9565b9150509250929050565b60008060408385031215614e9f57600080fd5b6000614eab8585614cd1565b9250506020614e8285828601614e08565b600060208284031215614ece57600080fd5b813567ffffffffffffffff811115614ee557600080fd5b614e3284828501614db9565b60008060008060008060c08789031215614f0a57600080fd5b863567ffffffffffffffff811115614f2157600080fd5b614f2d89828a01614db9565b965050602087013567ffffffffffffffff811115614f4a57600080fd5b614f5689828a01614db9565b9550506040614f6789828a01614e08565b945050606087013567ffffffffffffffff811115614f8457600080fd5b614f9089828a01614db9565b9350506080614fa189828a01614cd1565b92505060a087013567ffffffffffffffff811115614fbe57600080fd5b614fca89828a01614cdd565b9150509295509295509295565b600080600080600080600060e0888a031215614ff257600080fd5b873567ffffffffffffffff81111561500957600080fd5b6150158a828b01614db9565b975050602088013567ffffffffffffffff81111561503257600080fd5b61503e8a828b01614db9565b965050604061504f8a828b01614e08565b955050606088013567ffffffffffffffff81111561506c57600080fd5b6150788a828b01614db9565b94505060806150898a828b01614cd1565b93505060a061509a8a828b01614e08565b92505060c088013567ffffffffffffffff8111156150b757600080fd5b6150c38a828b01614db9565b91505092959891949750929550565b600080604083850312156150e557600080fd5b823567ffffffffffffffff8111156150fc57600080fd5b614eab85828601614db9565b60006020828403121561511a57600080fd5b6000614e328484614e08565b6000806040838503121561513957600080fd5b60006151458585614e08565b925050602083013567ffffffffffffffff81111561516257600080fd5b614e8285828601614d49565b60008060008060008060c0878903121561518757600080fd5b60006151938989614e08565b965050602087013567ffffffffffffffff8111156151b057600080fd5b6151bc89828a01614db9565b955050604087013567ffffffffffffffff8111156151d957600080fd5b6151e589828a01614db9565b945050606087013567ffffffffffffffff81111561520257600080fd5b61520e89828a01614db9565b935050608087013567ffffffffffffffff81111561522b57600080fd5b61523789828a01614db9565b92505060a087013567ffffffffffffffff81111561525457600080fd5b614fca89828a01614db9565b60008060008060008060c0878903121561527957600080fd5b60006152858989614e08565b965050602087013567ffffffffffffffff8111156152a257600080fd5b6152ae89828a01614db9565b955050604087013567ffffffffffffffff8111156152cb57600080fd5b6152d789828a01614db9565b945050606087013567ffffffffffffffff8111156152f457600080fd5b61530089828a01614db9565b935050608061523789828a01614e08565b6000806040838503121561532457600080fd5b6000614eab8585614e08565b600080600080600080600080610100898b03121561534d57600080fd5b60006153598b8b614e08565b985050602061536a8b828c01614e08565b975050604089013567ffffffffffffffff81111561538757600080fd5b6153938b828c01614db9565b965050606089013567ffffffffffffffff8111156153b057600080fd5b6153bc8b828c01614db9565b955050608089013567ffffffffffffffff8111156153d957600080fd5b6153e58b828c01614db9565b94505060a089013567ffffffffffffffff81111561540257600080fd5b61540e8b828c01614db9565b93505060c089013567ffffffffffffffff81111561542b57600080fd5b6154378b828c01614db9565b92505060e06154488b828c01614e08565b9150509295985092959890939650565b61546181615e95565b82525050565b600061547282615e91565b80845260208401935061548483615e8b565b60005b828110156154b45761549a868351615458565b6154a382615e8b565b602096909601959150600101615487565b5093949350505050565b60006154c982615e91565b808452602084019350836020820285016154e285615e8b565b60005b848110156155195783830388526154fd8383516156e2565b925061550882615e8b565b6020989098019791506001016154e5565b50909695505050505050565b600061553082615e91565b8084526020840193508360208202850161554985615e8b565b60005b848110156155195783830388526155648383516156e2565b925061556f82615e8b565b60209890980197915060010161554c565b600061558b82615e91565b808452602084019350836020820285016155a485615e8b565b60005b848110156155195783830388526155bf838351615a93565b92506155ca82615e8b565b6020989098019791506001016155a7565b60006155e682615e91565b808452602084019350836020820285016155ff85615e8b565b60005b8481101561551957838303885261561a838351615bac565b925061562582615e8b565b602098909801979150600101615602565b600061564182615e91565b80845260208401935061565383615e8b565b60005b828110156154b457615669868351615c91565b61567282615e8b565b602096909601959150600101615656565b600061568e82615e91565b8084526020840193506156a083615e8b565b60005b828110156154b4576156b6868351615c91565b6156bf82615e8b565b6020969096019591506001016156a3565b61546181615ea1565b61546181615eb2565b60006156ed82615e91565b808452615701816020860160208601615ec9565b61570a81615ef5565b9093016020019392505050565b601a81527f4372656174696f6e204461746520697320696d6d757461626c65000000000000602082015260400190565b601181527f726f6c65206973206d616e6461746f7279000000000000000000000000000000602082015260400190565b602281527f4f6e6c792070656e64696e672075736572732063616e2062652061636365707460208201527f6564000000000000000000000000000000000000000000000000000000000000604082015260600190565b601381527f5573657220616c72656164792065786973747300000000000000000000000000602082015260400190565b601481527f546869732075736572206e6f7420657869737473000000000000000000000000602082015260400190565b601b81527f596f752063616e6e6f7420616363657074207468697320757365720000000000602082015260400190565b602281527f4f6e6c792070656e64696e672075736572732063616e2062652072656a65637460208201527f6564000000000000000000000000000000000000000000000000000000000000604082015260600190565b601381527f737461747573206973206e6f742076616c696400000000000000000000000000602082015260400190565b601181527f6d656d626572206e6f7420657869737473000000000000000000000000000000602082015260400190565b601581527f4d656d62657220616c7265616479206578697374730000000000000000000000602082015260400190565b601181527f4d656d626572206e6f7420657869737473000000000000000000000000000000602082015260400190565b601281527f5468656d65206973206d616e6461746f72790000000000000000000000000000602082015260400190565b601081527f434d4f206973206d616e6461746f727900000000000000000000000000000000602082015260400190565b601481527f596f7520617265206e6f74206163636570746564000000000000000000000000602082015260400190565b601181527f4e616d65206973206d616e6461746f7279000000000000000000000000000000602082015260400190565b601181527f4e6f2076616c6964206d656d6265724964000000000000000000000000000000602082015260400190565b601981527f4372656174696f6e44617465206973206d616e6461746f727900000000000000602082015260400190565b8051600090610160840190615aa88582615c91565b506020830151615abb6020860182615c91565b5060408301518482036040860152615ad382826156e2565b91505060608301518482036060860152615aed82826156e2565b91505060808301518482036080860152615b0782826156e2565b91505060a083015184820360a0860152615b2182826156e2565b91505060c083015184820360c0860152615b3b82826156e2565b91505060e083015184820360e0860152615b558282615683565b915050610100830151848203610100860152615b718282615683565b915050610120830151848203610120860152615b8d8282615467565b915050610140830151615ba4610140860182615c91565b509392505050565b8051600090610160840190615bc18582615c91565b5060208301518482036020860152615bd982826156e2565b91505060408301518482036040860152615bf382826156e2565b9150506060830151615c086060860182615c91565b506080830151615c1b6080860182615c91565b5060a083015184820360a0860152615c3382826156e2565b91505060c0830151615c4860c08601826156d9565b5060e0830151615c5b60e0860182615458565b50610100830151848203610100860152615c7582826156e2565b915050610120830151848203610120860152615b8d8282615525565b61546181611351565b602080825281016140ad81846154be565b602080825281016140ad8184615580565b602080825281016140ad81846155db565b602080825281016140ad8184615636565b6020810161179c82846156d0565b6020808252810161179c81615717565b6020808252810161179c81615747565b6020808252810161179c81615777565b6020808252810161179c816157cd565b6020808252810161179c816157fd565b6020808252810161179c8161582d565b6020808252810161179c8161585d565b6020808252810161179c816158b3565b6020808252810161179c816158e3565b6020808252810161179c81615913565b6020808252810161179c81615943565b6020808252810161179c81615973565b6020808252810161179c816159a3565b6020808252810161179c816159d3565b6020808252810161179c81615a03565b6020808252810161179c81615a33565b6020808252810161179c81615a63565b602080825281016140ad8184615bac565b6020810161179c8284615c91565b60405181810167ffffffffffffffff81118282101715615e3a57600080fd5b604052919050565b600067ffffffffffffffff821115615e5957600080fd5b5060209081020190565b600067ffffffffffffffff821115615e7a57600080fd5b506020601f91909101601f19160190565b60200190565b5190565b600160a060020a031690565b151590565b600060038210612e7657fe5b600061179c82615ea6565b82818337506000910152565b60005b83811015615ee4578181015183820152602001615ecc565b838111156118d95750506000910152565b601f01601f1916905600a265627a7a723058202572d33cf9a34a8e108dde9d306368af125033eacd0929601ca58bda186f50916c6578706572696d656e74616cf50037",
  "source": "pragma solidity ^0.4.24;\npragma experimental ABIEncoderV2;\n\nimport \"./Members.sol\";\nimport \"./Claims.sol\";\n\n\ncontract Users is Members {\n\n  struct User {\n    uint256 creationDate;\n    string firstName;\n    string lastName;\n    uint256 memberId;\n    uint256 requestId;\n    string role;\n    StatusUserEnum status;\n    address owner;  // primary key\n    string cmo;\n    string[] groups;\n    uint tokens;\n//    string kycData;\n  }\n\n  enum StatusUserEnum {\n    REJECTED, // 0\n    PENDING,  // 1\n    ACCEPTED  // 2\n  }\n\n  mapping (address => User) private users_;\n  address[] private usersList_;\n  uint256 constant private PAGE_SIZE = 10;\n\n  uint256 constant private userStartTokens = 100;\n\n  // PUBLIC\n\n  function registerUserRequest(uint256 _creationDate, string _firstName, string _lastName, string _role,\n    uint256 _memberId, string _kycData) public {\n\n    require(_memberId != 0, \"No valid memberId\");\n    require(_creationDate > 0, \"CreationDate is mandatory\");\n    require(users_[msg.sender].creationDate == 0, \"User already exists\");\n    require(_memberExists(_memberId), \"Member not exists\");\n\n    uint256 _requestId = Random.rand(_creationDate);\n    _saveUser(_creationDate, _firstName, _lastName, _memberId, _requestId, _role, uint256(StatusUserEnum.PENDING),\n      msg.sender, 0);\n//    users_[msg.sender].kycData = _kycData;\n  }\n\n  function updateUser(string _firstName, string _lastName, uint256 _memberId, string _role, address owner,\n    uint _tokens, string _kycData) public {\n\n    require(users_[owner].owner > address(0), \"This user not exists\");\n    require(uint(users_[owner].status) == uint(StatusUserEnum.ACCEPTED), \"You are not accepted\");\n    if (users_[owner].tokens > _tokens) {\n      members_[users_[owner].memberId].totalTokens += users_[owner].tokens - _tokens;\n    } else {\n      members_[users_[owner].memberId].totalTokens -= _tokens - users_[owner].tokens;\n    }\n    users_[owner].tokens = _tokens;\n//    users_[owner].kycData = _kycData;\n\n    uint256 _requestId = users_[owner].requestId;\n    uint256 _creationDate = users_[owner].creationDate;\n    uint256 _status = uint(users_[owner].status);\n\n    _saveUser(_creationDate, _firstName, _lastName, _memberId, _requestId, _role, _status, owner, 1);\n  }\n\n  function getUsedTokens(uint256 _memberId) public view returns (uint){\n    uint usedTokens = 0;\n    for (uint i = 0; i < usersList_.length; ++i) {\n      if (users_[usersList_[i]].memberId == _memberId) {\n        usedTokens += users_[usersList_[i]].tokens;\n      }\n    }\n    return usedTokens;\n  }\n\n  function updateSuperUser(string _firstName, string _lastName, uint256 _memberId, string _role,\n    address owner, string[] _groups) public {\n\n    users_[owner].firstName = _firstName;\n    users_[owner].lastName = _lastName;\n    users_[owner].groups = _groups;\n\n    for (uint i = 0; i < usersList_.length; ++i) {\n      if (keccak256(users_[usersList_[i]].cmo) == keccak256(users_[owner].cmo)) {\n        users_[usersList_[i]].groups = _groups;\n      }\n    }\n\n  }\n\n  function rejectUser(address _userToReject) public {\n\n    require(users_[_userToReject].owner > address(0), \"This user not exists\");\n    require((users_[msg.sender].memberId == users_[_userToReject].memberId) || isSigner(msg.sender), \"You cannot accept this user\");\n    require((uint(users_[msg.sender].status) == uint(StatusUserEnum.ACCEPTED)) || isSigner(msg.sender), \"You are not accepted\");\n    require(users_[_userToReject].status == StatusUserEnum.PENDING, \"Only pending users can be rejected\");\n\n    users_[_userToReject].status = StatusUserEnum.REJECTED;\n    _clearUserFromMemberRequest(users_[_userToReject].memberId, _userToReject);\n  }\n\n  function acceptUser(address _userToAccept) public {\n\n    require(users_[_userToAccept].owner > address(0), \"This user not exists\");\n    require((users_[msg.sender].memberId == users_[_userToAccept].memberId) || isSigner(msg.sender), \"You cannot accept this user\");\n    require((uint(users_[msg.sender].status) == uint(StatusUserEnum.ACCEPTED)) || isSigner(msg.sender), \"You are not accepted\");\n    require(users_[_userToAccept].status == StatusUserEnum.PENDING, \"Only pending users can be accepted\");\n\n    if (members_[users_[_userToAccept].memberId].totalTokens > userStartTokens) {\n      users_[_userToAccept].status = StatusUserEnum.ACCEPTED;\n      _clearUserFromMemberRequest(users_[_userToAccept].memberId, _userToAccept);\n      users_[_userToAccept].tokens = userStartTokens;\n      members_[users_[_userToAccept].memberId].totalTokens -= userStartTokens;\n    } else {\n      rejectUser(_userToAccept);\n    }\n  }\n\n  function getcountUsers() public view returns(uint) {\n    uint256 counter = 0;\n    for (uint i = 0; i < usersList_.length; ++i) {\n      if(users_[usersList_[i]].memberId == users_[msg.sender].memberId\n        && users_[usersList_[i]].status == StatusUserEnum.ACCEPTED) {\n        counter++;\n      }\n    }\n    return counter;\n  }\n\n  function whitelistAdmin(address account, string _cmo) public onlySigner {\n    _clearUserFromMemberRequest(users_[account].memberId, account);\n    users_[account].role = \"Super admin\";\n    users_[account].memberId = ++memberIdCounter_;\n    users_[account].cmo = _cmo;\n//    users_[account].tokens = 0; // should \"Super admin\" have tokens?\n    users_[account].status = StatusUserEnum.ACCEPTED;\n    users_[account].groups = [\"digit1\"];\n    addSigner(account);\n  }\n\n  function getUsers(uint256 _page) public view returns(User[] memory) {\n    uint256 counter = getcountUsers();\n\n    uint256 pageIndex = SafeMath.mul(PAGE_SIZE, _page);\n    uint256 pageNumber = SafeMath.div(usersList_.length, PAGE_SIZE);\n\n    if (counter == 0 || pageIndex > counter || _page > pageNumber) {\n      return;\n    }\n    User[] memory userPageBasic = new User[](PAGE_SIZE);\n    uint256 counterFinal = 0;\n\n    for (uint j = pageIndex; j < usersList_.length; ++j) {\n      if(users_[usersList_[j]].memberId == users_[msg.sender].memberId\n        && users_[usersList_[j]].status == StatusUserEnum.ACCEPTED) {\n        userPageBasic[counterFinal] = users_[usersList_[j]];\n        ++counterFinal;\n      }\n    }\n    return userPageBasic;\n  }\n\n  function getUserByAddress(address userAddress) public view returns(User memory) {\n    return users_[userAddress];\n  }\n\n  function getUsersOwner() onlySigner public view returns(User[] memory) {\n    User[] memory userPageOwner = new User[](usersList_.length);\n\n    for (uint i = 0; i < usersList_.length; ++i) {\n      userPageOwner[i] = users_[usersList_[i]];\n    }\n\n    return userPageOwner;\n  }\n\n  function getMe() public view returns(User) {\n    User memory user = users_[msg.sender];\n    return user;\n  }\n\n\n  function _saveUser(uint256 _creationDate, string _firstName, string _lastName, uint256 _memberId,\n    uint256 _requestId, string _role, uint256 _status, address owner, uint isCreate) private {\n\n    require(_status >= 0 || _status <=2, \"status is not valid\");\n    require(bytes(_role).length != 0, \"role is mandatory\");\n\n    User memory user = users_[owner];\n\n    user.creationDate =  _creationDate;\n    user.firstName =  _firstName;\n    user.lastName =  _lastName;\n    user.memberId =  _memberId;\n    user.requestId =  _requestId;\n    user.role = _role;\n    user.status = StatusUserEnum(_status);\n    user.owner = owner;\n\n    users_[owner] = user;\n\n    if(isCreate == 0) {\n      usersList_.push(owner);\n//      if (users_[owner].status != StatusUserEnum.ACCEPTED) {\n      _addUserToMemberRequest(_memberId);\n//      }\n      users_[owner].groups = [\"digit1\"];                  // by default\n      users_[owner].cmo = members_[user.memberId].cmo;  // to initialize\n    }\n  }\n\n  function _memberIdFromCurrentAddress(address addr) view public returns(uint256) {\n    return users_[addr].memberId;\n  }\n\n  function updateTokens(address addr, uint transactionPrice) public {\n    users_[addr].tokens -= transactionPrice;\n    members_[users_[addr].memberId].totalTokens -= transactionPrice;\n  }\n\n  function getUserTokensByAddress(address addr) view public returns(uint) {\n    return users_[addr].tokens;\n  }\n\n  // Moved from Members.sol\n  function _memberExists(uint _memberId) public view returns(bool) {\n    return members_[_memberId].memberId > 0;\n  }\n\n  function _addClaimIdToMemberOwner(uint _memberId, uint _claimId) public {\n    members_[_memberId].claims.push(_claimId);\n  }\n\n  function _removeClaimFromMember(uint _memberId, uint _claimId) public {\n    bool found = false;\n    for (uint j = 0; j < members_[_memberId].claims.length - 1; j++) {\n      if(members_[_memberId].claims[j] == _claimId) {\n        found = true;\n      }\n      if(found) {\n        members_[_memberId].claims[j] = members_[_memberId].claims[j + 1];\n      }\n    }\n    //    if (found) {\n    //    delete members_[_memberId].claims[members_[_memberId].claims.length - 1];\n    //    members_[_memberId].claims.length--;\n    //    }\n    if (found) {\n      //      if (members_[_memberId].claims.length == 1) {\n      //        delete members_[_memberId].claims;\n      //      }\n      //      else {\n      delete members_[_memberId].claims[members_[_memberId].claims.length - 1];\n      members_[_memberId].claims.length--;\n      //      }\n    }\n  }\n\n  function _removeClaimFromInbox(uint _memberId, uint _claimId) public {\n    bool found = false;\n    // Remove index\n    for (uint j = 0; j < members_[_memberId].claimInbox.length - 1; j++) {\n      if(members_[_memberId].claimInbox[j] == _claimId) {\n        found = true;\n      }\n      if(found) {\n        members_[_memberId].claimInbox[j] = members_[_memberId].claimInbox[j + 1];\n      }\n    }\n    if (found) {\n      delete members_[_memberId].claimInbox[members_[_memberId].claimInbox.length - 1];\n      members_[_memberId].claimInbox.length--;\n    }\n  }\n\n  function _getClaimsCountByMember(uint _memberId) public view returns(uint) {\n    return members_[_memberId].claims.length;\n  }\n\n  function _getClaimsIdByMember(uint _memberId) public view returns(uint[])  {\n    require(members_[_memberId].memberId > 0, \"member not exists\");\n    return members_[_memberId].claims;\n  }\n\n  function _getMemberIdsOfCurrentCMO(string currentCMO, uint256 currentCMOId) public returns(uint[]) {\n    uint[] memberIds;\n    for (uint j = 0; j < membersList_.length; ++j) {\n      if (keccak256(members_[membersList_[j]].cmo) == keccak256(currentCMO) && members_[membersList_[j]].memberId != currentCMOId) {\n        memberIds.push(members_[membersList_[j]].memberId);\n      }\n    }\n    return memberIds;\n  }\n\n  function _addClaimFromInbox(uint _memberId, uint _claimId) public {\n    members_[_memberId].claimInbox.push(_claimId);\n  }\n\n}\n\n",
  "sourcePath": "/home/komodo/newUI2/bloomen-decentralized-rights-management-v2/truffle/contracts/registry/Users.sol",
  "compiler": {
    "name": "solc",
    "version": "0.4.24+commit.e67f0147.Emscripten.clang"
  },
  "schemaVersion": "2.0.1",
  "updatedAt": "2020-06-21T15:05:27.261Z"
}