{
  "contractName": "Claims",
  "abi": [
    {
      "inputs": [
        {
          "name": "_UsersAddr",
          "type": "address"
        }
      ],
      "payable": false,
      "stateMutability": "nonpayable",
      "type": "constructor"
    },
    {
      "constant": false,
      "inputs": [
        {
          "name": "_creationDate",
          "type": "uint256"
        },
        {
          "name": "_claimData",
          "type": "bytes"
        },
        {
          "name": "_claimType",
          "type": "bool"
        },
        {
          "name": "_memberOwner",
          "type": "uint256"
        },
        {
          "name": "register_or_update",
          "type": "bool"
        },
        {
          "name": "_claimId",
          "type": "uint256"
        },
        {
          "name": "_oldClaimData",
          "type": "bytes"
        },
        {
          "name": "_lastChange",
          "type": "uint256"
        }
      ],
      "name": "computeClaim",
      "outputs": [],
      "payable": false,
      "stateMutability": "nonpayable",
      "type": "function"
    },
    {
      "constant": true,
      "inputs": [],
      "name": "getTransactionPrice",
      "outputs": [
        {
          "name": "",
          "type": "uint256"
        }
      ],
      "payable": false,
      "stateMutability": "pure",
      "type": "function"
    },
    {
      "constant": true,
      "inputs": [],
      "name": "getPageSize",
      "outputs": [
        {
          "name": "",
          "type": "uint256"
        }
      ],
      "payable": false,
      "stateMutability": "pure",
      "type": "function"
    },
    {
      "constant": true,
      "inputs": [
        {
          "name": "_claimId",
          "type": "uint256"
        }
      ],
      "name": "getClaim",
      "outputs": [
        {
          "components": [
            {
              "name": "creationDate",
              "type": "uint256"
            },
            {
              "name": "claimId",
              "type": "uint256"
            },
            {
              "components": [
                {
                  "name": "name",
                  "type": "string"
                },
                {
                  "name": "value",
                  "type": "string"
                }
              ],
              "name": "claimData",
              "type": "tuple[]"
            },
            {
              "name": "claimType",
              "type": "bool"
            },
            {
              "name": "memberOwner",
              "type": "uint256"
            },
            {
              "name": "status",
              "type": "bool"
            },
            {
              "name": "lastChange",
              "type": "uint256"
            },
            {
              "name": "maxSplit",
              "type": "uint16"
            }
          ],
          "name": "",
          "type": "tuple"
        }
      ],
      "payable": false,
      "stateMutability": "view",
      "type": "function"
    },
    {
      "constant": false,
      "inputs": [
        {
          "name": "_page",
          "type": "uint256"
        }
      ],
      "name": "getClaimsByMemberId",
      "outputs": [
        {
          "components": [
            {
              "name": "creationDate",
              "type": "uint256"
            },
            {
              "name": "claimId",
              "type": "uint256"
            },
            {
              "components": [
                {
                  "name": "name",
                  "type": "string"
                },
                {
                  "name": "value",
                  "type": "string"
                }
              ],
              "name": "claimData",
              "type": "tuple[]"
            },
            {
              "name": "claimType",
              "type": "bool"
            },
            {
              "name": "memberOwner",
              "type": "uint256"
            },
            {
              "name": "status",
              "type": "bool"
            },
            {
              "name": "lastChange",
              "type": "uint256"
            },
            {
              "name": "maxSplit",
              "type": "uint16"
            }
          ],
          "name": "",
          "type": "tuple[]"
        }
      ],
      "payable": false,
      "stateMutability": "nonpayable",
      "type": "function"
    },
    {
      "constant": false,
      "inputs": [],
      "name": "getClaimsCountByMemberId",
      "outputs": [
        {
          "name": "",
          "type": "uint256"
        }
      ],
      "payable": false,
      "stateMutability": "nonpayable",
      "type": "function"
    }
  ],
  "bytecode": "0x608060405260006003553480156200001657600080fd5b506040516020806200381b833981018060405262000038919081019062000073565b60008054600160a060020a031916600160a060020a0392909216919091179055620000a8565b60006200006c82516200009c565b9392505050565b6000602082840312156200008657600080fd5b60006200009484846200005e565b949350505050565b600160a060020a031690565b61376380620000b86000396000f30060806040526004361061005e5763ffffffff60e060020a6000350416631be8850b81146100635780635aef24471461008e5780636a0c8730146100bb578063aa5b3a06146100d0578063b6bc3812146100f2578063d7662d5d1461011f575b600080fd5b34801561006f57600080fd5b50610078610134565b6040516100859190613626565b60405180910390f35b34801561009a57600080fd5b506100ae6100a9366004613254565b610538565b6040516100859190613615565b3480156100c757600080fd5b50610078610736565b3480156100dc57600080fd5b506100f06100eb366004613290565b61073c565b005b3480156100fe57600080fd5b5061011261010d366004613254565b610b52565b60405161008591906135d4565b34801561012b57600080fd5b506100786116db565b600061013e612c84565b600080546040517f69c212f600000000000000000000000000000000000000000000000000000000815260609183918291600160a060020a0316906369c212f69061018d9033906004016135a5565b600060405180830381600087803b1580156101a757600080fd5b505af11580156101bb573d6000803e3d6000fd5b505050506040513d6000823e601f3d908101601f191682016040526101e3919081019061321f565b604080517f53757065722061646d696e0000000000000000000000000000000000000000008152905190819003600b01812060a083015180519398509092909190819060208401908083835b6020831061024e5780518252601f19909201916020918201910161022f565b6001836020036101000a0380198251168184511680821785525050505050509050019150506040518091039020600019161415156103c4576000546040517feff34e59000000000000000000000000000000000000000000000000000000008152600160a060020a039091169063eff34e59906102cf9033906004016135a5565b602060405180830381600087803b1580156102e957600080fd5b505af11580156102fd573d6000803e3d6000fd5b505050506040513d601f19601f820116820180604052506103219190810190613272565b6000546040517faffccd84000000000000000000000000000000000000000000000000000000008152919550600160a060020a03169063affccd849061036b908790600401613626565b602060405180830381600087803b15801561038557600080fd5b505af1158015610399573d6000803e3d6000fd5b505050506040513d601f19601f820116820180604052506103bd9190810190613272565b9550610530565b60005461010086015160608701516040517f989359df000000000000000000000000000000000000000000000000000000008152600160a060020a039093169263989359df926104189290916004016135e5565b600060405180830381600087803b15801561043257600080fd5b505af1158015610446573d6000803e3d6000fd5b505050506040513d6000823e601f3d908101601f1916820160405261046e91908101906131c4565b925060009150600090505b825181101561052c576000548351600160a060020a039091169063affccd84908590849081106104a557fe5b906020019060200201516040518263ffffffff1660e060020a0281526004016104ce9190613626565b602060405180830381600087803b1580156104e857600080fd5b505af11580156104fc573d6000803e3d6000fd5b505050506040513d601f19601f820116820180604052506105209190810190613272565b90910190600101610479565b8195505b505050505090565b610540612cf3565b6000828152600160208181526040808420815161010081018352815481529381015484840152600281018054835181860281018601855281815295969295938701949192909184015b828210156106e75760008481526020908190206040805160028681029093018054600181161561010002600019011693909304601f81018590049094028101606090810183529181018481529093849284919084018282801561062d5780601f106106025761010080835404028352916020019161062d565b820191906000526020600020905b81548152906001019060200180831161061057829003601f168201915b50505050508152602001600182018054600181600116156101000203166002900480601f0160208091040260200160405190810160405280929190818152602001828054600181600116156101000203166002900480156106cf5780601f106106a4576101008083540402835291602001916106cf565b820191906000526020600020905b8154815290600101906020018083116106b257829003601f168201915b50505050508152505081526020019060010190610589565b50505090825250600382015460ff9081161515602083015260048301546040830152600583015416151560608201526006820154608082015260079091015461ffff1660a09091015292915050565b60015b90565b6000546040517f9249d753000000000000000000000000000000000000000000000000000000008152600191600160a060020a031690639249d753906107869033906004016135a5565b602060405180830381600087803b1580156107a057600080fd5b505af11580156107b4573d6000803e3d6000fd5b505050506040513d601f19601f820116820180604052506107d89190810190613272565b10610b48576000546040517f67e482ad000000000000000000000000000000000000000000000000000000008152600160a060020a03909116906367e482ad906108299033906001906004016135b9565b600060405180830381600087803b15801561084357600080fd5b505af1158015610857573d6000803e3d6000fd5b5050505083156109e85760038054600101908190556000546040517ff8380733000000000000000000000000000000000000000000000000000000008152919450600160a060020a03169063f8380733906108b6908890600401613626565b602060405180830381600087803b1580156108d057600080fd5b505af11580156108e4573d6000803e3d6000fd5b505050506040513d601f19601f820116820180604052506109089190810190613201565b1515610949576040517f08c379a000000000000000000000000000000000000000000000000000000000815260040161094090613605565b60405180910390fd5b610959838989898960008e6116e0565b6000546040517fe2c11f9e000000000000000000000000000000000000000000000000000000008152600160a060020a039091169063e2c11f9e906109a49088908790600401613634565b600060405180830381600087803b1580156109be57600080fd5b505af11580156109d2573d6000803e3d6000fd5b505050506109e3838789600161185b565b610b48565b6109f5838784600061185b565b610a02838789600161185b565b600083815260016020526040902060050154610a2b9084908a908a908a908a9060ff16876116e0565b871515610b48576000546040517fbb03b706000000000000000000000000000000000000000000000000000000008152600160a060020a039091169063bb03b70690610a7d9088908790600401613634565b600060405180830381600087803b158015610a9757600080fd5b505af1158015610aab573d6000803e3d6000fd5b50505060008481526001602052604090206005015460ff16159050610b48576000546040517f8b92892b000000000000000000000000000000000000000000000000000000008152600160a060020a0390911690638b92892b90610b159088908790600401613634565b600060405180830381600087803b158015610b2f57600080fd5b505af1158015610b43573d6000803e3d6000fd5b505050505b5050505050505050565b60606000610b5e612c84565b6000806000606080600080606060006060610b7a600a8f612305565b6000546040517f69c212f6000000000000000000000000000000000000000000000000000000008152919d50600160a060020a0316906369c212f690610bc49033906004016135a5565b600060405180830381600087803b158015610bde57600080fd5b505af1158015610bf2573d6000803e3d6000fd5b505050506040513d6000823e601f3d908101601f19168201604052610c1a919081019061321f565b604080517f53757065722061646d696e0000000000000000000000000000000000000000008152905190819003600b01812060a08301518051939e509092909190819060208401908083835b60208310610c855780518252601f199092019160209182019101610c66565b6001836020036101000a038019825116818451168082178552505050505050905001915050604051809103902060001916141515611167576000546040517feff34e59000000000000000000000000000000000000000000000000000000008152600160a060020a039091169063eff34e5990610d069033906004016135a5565b602060405180830381600087803b158015610d2057600080fd5b505af1158015610d34573d6000803e3d6000fd5b505050506040513d601f19601f82011682018060405250610d589190810190613272565b6000546040517faffccd84000000000000000000000000000000000000000000000000000000008152919b50600160a060020a03169063affccd8490610da2908d90600401613626565b602060405180830381600087803b158015610dbc57600080fd5b505af1158015610dd0573d6000803e3d6000fd5b505050506040513d601f19601f82011682018060405250610df49190810190613272565b9850610e0189600a61233e565b9750881580610e125750600189038c115b80610e1c5750878e115b15610e26576116ca565b6000546040517f6262dff6000000000000000000000000000000000000000000000000000000008152600160a060020a0390911690636262dff690610e6f908d90600401613626565b600060405180830381600087803b158015610e8957600080fd5b505af1158015610e9d573d6000803e3d6000fd5b505050506040513d6000823e601f3d908101601f19168201604052610ec591908101906131c4565b60408051600a8082526101608201909252919850816020015b610ee6612cf3565b815260200190600190039081610ede579050509550600094508b93505b865184101561115f57600a85101561114f57600160008886815181101515610f2757fe5b9060200190602002015181526020019081526020016000206101006040519081016040529081600082015481526020016001820154815260200160028201805480602002602001604051908101604052809291908181526020016000905b828210156110e35760008481526020908190206040805160028681029093018054600181161561010002600019011693909304601f8101859004909402810160609081018352918101848152909384928491908401828280156110295780601f10610ffe57610100808354040283529160200191611029565b820191906000526020600020905b81548152906001019060200180831161100c57829003601f168201915b50505050508152602001600182018054600181600116156101000203166002900480601f0160208091040260200160405190810160405280929190818152602001828054600181600116156101000203166002900480156110cb5780601f106110a0576101008083540402835291602001916110cb565b820191906000526020600020905b8154815290600101906020018083116110ae57829003601f168201915b50505050508152505081526020019060010190610f85565b50505090825250600382015460ff9081161515602083015260048301546040830152600583015416151560608201526006820154608082015260079091015461ffff1660a090910152865187908790811061113a57fe5b60209081029091010152600190940193611154565b61115f565b836001019350610f03565b859c506116ca565b6000546101008c015160608d01516040517f989359df000000000000000000000000000000000000000000000000000000008152600160a060020a039093169263989359df926111bb9290916004016135e5565b600060405180830381600087803b1580156111d557600080fd5b505af11580156111e9573d6000803e3d6000fd5b505050506040513d6000823e601f3d908101601f1916820160405261121191908101906131c4565b925060009850600091505b82518210156112d2576000548351600160a060020a039091169063affccd849085908590811061124857fe5b906020019060200201516040518263ffffffff1660e060020a0281526004016112719190613626565b602060405180830381600087803b15801561128b57600080fd5b505af115801561129f573d6000803e3d6000fd5b505050506040513d601f19601f820116820180604052506112c39190810190613272565b8901985081600101915061121c565b6112dd89600a61233e565b97508815806112ee5750600189038c115b806112f85750878e115b15611302576116ca565b8860405190808252806020026020018201604052801561132c578160200160208202803883390190505b50905060009850600091505b825182101561143c576000548351600160a060020a0390911690636262dff69085908590811061136457fe5b906020019060200201516040518263ffffffff1660e060020a02815260040161138d9190613626565b600060405180830381600087803b1580156113a757600080fd5b505af11580156113bb573d6000803e3d6000fd5b505050506040513d6000823e601f3d908101601f191682016040526113e391908101906131c4565b9650600093505b865184101561143157868481518110151561140157fe5b60209081029091010151815160018b019a8391811061141c57fe5b602090810290910101526001909301926113ea565b816001019150611338565b60408051600a808252610160820190925290816020015b61145b612cf3565b815260200190600190039081611453579050509550600094508b93505b805184101561115f57600a85101561114f5760016000828681518110151561149c57fe5b9060200190602002015181526020019081526020016000206101006040519081016040529081600082015481526020016001820154815260200160028201805480602002602001604051908101604052809291908181526020016000905b828210156116585760008481526020908190206040805160028681029093018054600181161561010002600019011693909304601f81018590049094028101606090810183529181018481529093849284919084018282801561159e5780601f106115735761010080835404028352916020019161159e565b820191906000526020600020905b81548152906001019060200180831161158157829003601f168201915b50505050508152602001600182018054600181600116156101000203166002900480601f0160208091040260200160405190810160405280929190818152602001828054600181600116156101000203166002900480156116405780601f1061161557610100808354040283529160200191611640565b820191906000526020600020905b81548152906001019060200180831161162357829003601f168201915b505050505081525050815260200190600101906114fa565b50505090825250600382015460ff9081161515602083015260048301546040830152600583015416151560608201526006820154608082015260079091015461ffff1660a09091015286518790879081106116af57fe5b60209081029091010152600190940193836001019350611478565b505050505050505050505050919050565b600a90565b6116e8612d41565b6060600060606116f789612361565b9350611702846123b2565b60008c815260016020819052604082209081018e90558c815560038101805460ff19168c151517905591945061173b9160020190612d58565b600091505b825182101561182057611769838381518110151561175a57fe5b906020019060200201516123b2565b9050600160008c815260200190815260200160002060020160408051908101604052806117ad84600081518110151561179e57fe5b90602001906020020151612485565b81526020016117c484600181518110151561179e57fe5b905281546001810180845560009384526020938490208351805192956002909402909101926117f892849290910190612d7c565b5060208281015180516118119260018501920190612d7c565b50505050816001019150611740565b5050506000978852506001602052604090962060048101929092556006820195909555600501805460ff191694151594909417909355505050565b611863612d41565b60606000806000806000806118778a612361565b9750611882886123b2565b96506118ae6118a961189c89600581518110151561175a57fe5b8051600190811061179e57fe5b6124f7565b95506118c86118a961189c89600281518110151561175a57fe5b94506118e26118a961189c89600381518110151561175a57fe5b60008d8152600260209081526040808320805461ffff191661ffff8c161790556001918290529091206005015491955060ff909116935091508190505b60035481116122c75760008181526001602052604090206003015460ff1615158b151514801561194f5750808c14155b156122bf5760008181526001602052604081206002018054909190811061197257fe5b906000526020600020906002020160010160405180828054600181600116156101000203166002900480156119de5780601f106119bc5761010080835404028352918201916119de565b820191906000526020600020905b8154815290600101906020018083116119ca575b5050915050604051809103902060001916611a0461189c89600081518110151561175a57fe5b6040518082805190602001908083835b60208310611a335780518252601f199092019160209182019101611a14565b6001836020036101000a038019825116818451168082178552505050505050905001915050604051809103902060001916148015611b515750600081815260016020526040902060029081018054611b3d92908110611a8e57fe5b90600052602060002090600202016001018054600181600116156101000203166002900480601f016020809104026020016040519081016040528092919081815260200182805460018160011615610100020316600290048015611b335780601f10611b0857610100808354040283529160200191611b33565b820191906000526020600020905b815481529060010190602001808311611b1657829003601f168201915b50505050506124f7565b65ffffffffffff168465ffffffffffff1610155b8015611b8f575060008181526001602052604090206002018054611b7b91906003908110611a8e57fe5b65ffffffffffff168565ffffffffffff1611155b156122bf57611c79611bac61189c89600481518110151561175a57fe5b600083815260016020526040902060020180546004908110611bca57fe5b90600052602060002090600202016001018054600181600116156101000203166002900480601f016020809104026020016040519081016040528092919081815260200182805460018160011615610100020316600290048015611c6f5780601f10611c4457610100808354040283529160200191611c6f565b820191906000526020600020905b815481529060010190602001808311611c5257829003601f168201915b5050505050612579565b60045460ff16156122bf57611cbd611c9c61189c89600181518110151561175a57fe5b600083815260016020819052604090912060020180549091908110611bca57fe5b60045460ff16156122bf57881561206b57600081815260026020526040902054606461ffff9182168801909116118015611d08575060008181526002602052604090205461ffff1615155b8015611d17575061ffff861615155b15611ea557821515611de3576001925060018060008e815260200190815260200160002060050160006101000a81548160ff0219169083151502179055506000809054906101000a9004600160a060020a0316600160a060020a03166374853239600160008f8152602001908152602001600020600401548e6040518363ffffffff1660e060020a028152600401611db0929190613634565b600060405180830381600087803b158015611dca57600080fd5b505af1158015611dde573d6000803e3d6000fd5b505050505b60008181526001602052604090206005015460ff161515611ea057600081815260016020819052604080832060058101805460ff1916841790559254600480850154949093015491517f74853239000000000000000000000000000000000000000000000000000000008152600160a060020a0390911693637485323993611e6d93919201613634565b600060405180830381600087803b158015611e8757600080fd5b505af1158015611e9b573d6000803e3d6000fd5b505050505b611ef7565b600081815260026020526040902054606461ffff918216880190911611611ef75760008c8152600160205260408082206005908101805460ff1990811690915584845291909220909101805490911690555b61ffff8616158015611f065750825b15611fcc57600092506000600160008e815260200190815260200160002060050160006101000a81548160ff0219169083151502179055506000809054906101000a9004600160a060020a0316600160a060020a0316638b92892b600160008f8152602001908152602001600020600401548e6040518363ffffffff1660e060020a028152600401611f99929190613634565b600060405180830381600087803b158015611fb357600080fd5b505af1158015611fc7573d6000803e3d6000fd5b505050505b60008181526002602052604090205461ffff1615612008576000818152600260205260409020805461ffff80821689011661ffff199091161790555b818015612026575060008181526002602052604090205461ffff1615155b8015612035575061ffff861615155b1561206657600081815260026020526040808220548e8352908220805461ffff191661ffff90921691909117905591505b61228e565b81156120915760008c8152600260205260408120805461ffff191661ffff891617905591505b8215612158576000600160008e815260200190815260200160002060050160006101000a81548160ff0219169083151502179055506000809054906101000a9004600160a060020a0316600160a060020a0316638b92892b600160008f8152602001908152602001600020600401548e6040518363ffffffff1660e060020a028152600401612121929190613634565b600060405180830381600087803b15801561213b57600080fd5b505af115801561214f573d6000803e3d6000fd5b50505050600092505b600081815260026020526040902054606461ffff918216889003909116111580612192575060008181526002602052604090205461ffff16155b156122515760008181526001602052604090206005015460ff161561225157600081815260016020819052604080832060058101805460ff191690559254600480850154949093015491517f8b92892b000000000000000000000000000000000000000000000000000000008152600160a060020a0390911693638b92892b9361221e93919201613634565b600060405180830381600087803b15801561223857600080fd5b505af115801561224c573d6000803e3d6000fd5b505050505b60008181526002602052604090205461ffff161561228e576000818152600260205260409020805461ffff8082168990031661ffff199091161790555b6000818152600260209081526040808320546001909252909120600701805461ffff191661ffff9092169190911790555b60010161191f565b50505060009889525050600260209081526040808920546001909252909720600701805461ffff191661ffff90981697909717909655505050505050565b6000808315156123185760009150612337565b5082820282848281151561232857fe5b041461233357600080fd5b8091505b5092915050565b60008080831161234d57600080fd5b828481151561235857fe5b04949350505050565b612369612d41565b600082516000141561239057604080518082019091526000808252602082015291506123ac565b5050604080518082019091528151815260208281019082018190525b50919050565b60606000806000806123c386612864565b15156123ce57600080fd5b6123d786612893565b93508360405190808252806020026020018201604052801561241357816020015b612400612d41565b8152602001906001900390816123f85790505b50945061242386602001516128e3565b8660200151019250600090505b8381101561247c5761244183612946565b9150604080519081016040528083815260200184815250858281518110151561246657fe5b6020908102909101015291810191600101612430565b50505050919050565b60606000806060600061249b86602001516128e3565b9350838660000151039250826040519080825280601f01601f1916602001820160405280156124d4578160200160208202803883390190505b5091508160200190506124ee8487602001510182856129d7565b50949350505050565b60008181805b825182101561257157828281518110151561251457fe5b01602001517f010000000000000000000000000000000000000000000000000000000000000090819004810204905060308110801590612555575060398111155b15612566576030810384600a020193505b6001909101906124fd565b505050919050565b612581612d41565b612589612d41565b60606000612595612d41565b6004805460ff1916905560408051808201909152600181527f2c0000000000000000000000000000000000000000000000000000000000000060208201526060906000906125e290612a1e565b96506125ed89612a1e565b95506125ff868863ffffffff612a4416565b60010160405190808252806020026020018201604052801561263557816020015b60608152602001906001900390816126205790505b509450600093505b84518410156126815761265e612659878963ffffffff612aaa16565b612abd565b858581518110151561266c57fe5b6020908102909101015260019093019261263d565b61268a88612a1e565b925061269c838863ffffffff612a4416565b6001016040519080825280602002602001820160405280156126d257816020015b60608152602001906001900390816126bd5790505b509150600090505b8151811015612716576126f6612659848963ffffffff612aaa16565b828281518110151561270457fe5b602090810290910101526001016126da565b600093505b8451841015612859575060005b815181101561283e57818181518110151561273f57fe5b906020019060200201516040518082805190602001908083835b602083106127785780518252601f199092019160209182019101612759565b5181516020939093036101000a60001901801990911692169190911790526040519201829003909120885190935088925087915081106127b457fe5b906020019060200201516040518082805190602001908083835b602083106127ed5780518252601f1990920191602091820191016127ce565b6001836020036101000a0380198251168184511680821785525050505050509050019150506040518091039020600019161415612836576004805460ff1916600117905561283e565b600101612728565b60045460ff161561284e57612859565b60019093019261271b565b505050505050505050565b6020810151805160009190821a9060c060ff83161015612887576000925061288c565b600192505b5050919050565b600080600080600092506128aa85602001516128e3565b6020860151865191810193500190505b808210156128da576128cb82612946565b600190930192909101906128ba565b50909392505050565b8051600090811a60808110156128fc57600091506123ac565b60b8811080612917575060c08110801590612917575060f881105b1561292557600191506123ac565b60c081101561293a5760b519810191506123ac565b60f519810191506123ac565b8051600090811a608081101561295f57600191506123ac565b60b881101561297457607e19810191506123ac565b60c08110156129a15760b78103600184019350806020036101000a845104600182018101935050506123ac565b60f88110156129b65760be19810191506123ac565b60019290920151602083900360f7016101000a900490910160f51901919050565b60005b602082106129fc578351835260209384019390920191601f19909101906129da565b50915181516020939093036101000a6000190180199091169216919091179052565b612a26612d41565b50604080518082019091528151815260209182019181019190915290565b6000808260000151612a688560000151866020015186600001518760200151612b10565b0190505b83516020850151018111612337578251602080860151865191860151600190950194612aa2929185039091039084908490612b10565b019050612a6c565b612ab2612d41565b612337838383612bd0565b606080600083600001516040519080825280601f01601f191660200182016040528015612af4578160200160208202803883390190505b5091506020820190506123378185602001518660000151612c40565b600083818080808080808c8b11612bba5760208b11612b835760018b60200360080260020a03196001029550858a511694508a8d8d010393508588511692505b828514612b7b57838810612b68578c8c019850612bc0565b8780600101985050858851169250612b50565b879850612bc0565b8a8a209150600096505b8a8d038711612bba575089872081811415612baa57879850612bc0565b6001978801979690960195612b8d565b8c8c0198505b5050505050505050949350505050565b612bd8612d41565b6000612bf68560000151866020015186600001518760200151612b10565b60208087018051918601919091528051820385528651905191925001811415612c2257600085526128da565b83518351865191019003855283518101602086015250909392505050565b60005b60208210612c65578251845260209384019390920191601f1990910190612c43565b50905182516020929092036101000a6000190180199091169116179052565b6101606040519081016040528060008152602001606081526020016060815260200160008152602001600081526020016060815260200160006002811115612cc857fe5b81526020016000600160a060020a031681526020016060815260200160608152602001600081525090565b610100604051908101604052806000815260200160008152602001606081526020016000151581526020016000815260200160001515815260200160008152602001600061ffff1681525090565b604080518082019091526000808252602082015290565b5080546000825560020290600052602060002090810190612d799190612dfa565b50565b828054600181600116156101000203166002900490600052602060002090601f016020900481019282601f10612dbd57805160ff1916838001178555612dea565b82800160010185558215612dea579182015b82811115612dea578251825591602001919060010190612dcf565b50612df6929150612e2b565b5090565b61073991905b80821115612df6576000612e148282612e45565b612e22600183016000612e45565b50600201612e00565b61073991905b80821115612df65760008155600101612e31565b50805460018160011615610100020316600290046000825580601f10612e6b5750612d79565b601f016020900490600052602060002090810190612d799190612e2b565b6000612e9582516136bc565b9392505050565b6000601f82018313612ead57600080fd5b8151612ec0612ebb82613669565b613642565b81815260209384019390925082018360005b83811015612efe5781518601612ee88882612feb565b8452506020928301929190910190600101612ed2565b5050505092915050565b6000601f82018313612f1957600080fd5b8151612f27612ebb82613669565b91508181835260208401935060208101905083856020840282011115612f4c57600080fd5b60005b83811015612efe5781612f6288826131b8565b8452506020928301929190910190600101612f4f565b6000612e9582356136c8565b6000612e9582516136c8565b6000601f82018313612fa157600080fd5b8135612faf612ebb8261368a565b91508082526020830160208301858383011115612fcb57600080fd5b612fd68382846136e3565b50505092915050565b6000612e9582516136d4565b6000601f82018313612ffc57600080fd5b815161300a612ebb8261368a565b9150808252602083016020830185838301111561302657600080fd5b612fd68382846136ef565b6000610160828403121561304457600080fd5b61304f610160613642565b9050600061305d84846131b8565b825250602082015167ffffffffffffffff81111561307a57600080fd5b61308684828501612feb565b602083015250604082015167ffffffffffffffff8111156130a657600080fd5b6130b284828501612feb565b60408301525060606130c6848285016131b8565b60608301525060806130da848285016131b8565b60808301525060a082015167ffffffffffffffff8111156130fa57600080fd5b61310684828501612feb565b60a08301525060c061311a84828501612fdf565b60c08301525060e061312e84828501612e89565b60e08301525061010082015167ffffffffffffffff81111561314f57600080fd5b61315b84828501612feb565b6101008301525061012082015167ffffffffffffffff81111561317d57600080fd5b61318984828501612e9c565b6101208301525061014061319f848285016131b8565b6101408301525092915050565b6000612e958235610739565b6000612e958251610739565b6000602082840312156131d657600080fd5b815167ffffffffffffffff8111156131ed57600080fd5b6131f984828501612f08565b949350505050565b60006020828403121561321357600080fd5b60006131f98484612f84565b60006020828403121561323157600080fd5b815167ffffffffffffffff81111561324857600080fd5b6131f984828501613031565b60006020828403121561326657600080fd5b60006131f984846131ac565b60006020828403121561328457600080fd5b60006131f984846131b8565b600080600080600080600080610100898b0312156132ad57600080fd5b60006132b98b8b6131ac565b985050602089013567ffffffffffffffff8111156132d657600080fd5b6132e28b828c01612f90565b97505060406132f38b828c01612f78565b96505060606133048b828c016131ac565b95505060806133158b828c01612f78565b94505060a06133268b828c016131ac565b93505060c089013567ffffffffffffffff81111561334357600080fd5b61334f8b828c01612f90565b92505060e06133608b828c016131ac565b9150509295985092959890939650565b613379816136bc565b82525050565b600061338a826136b8565b808452602084019350836020820285016133a3856136b2565b60005b848110156133da5783830388526133be8383516134af565b92506133c9826136b2565b6020989098019791506001016133a6565b50909695505050505050565b60006133f1826136b8565b8084526020840193508360208202850161340a856136b2565b60005b848110156133da578383038852613425838351613558565b9250613430826136b2565b60209890980197915060010161340d565b613379816136c8565b6000613455826136b8565b8084526134698160208601602086016136ef565b6134728161371f565b9093016020019392505050565b601481527f4d656d62657220646f206e6f7420657869737473000000000000000000000000602082015260400190565b80516000906101008401906134c4858261359c565b5060208301516134d7602086018261359c565b50604083015184820360408601526134ef82826133e6565b91505060608301516135046060860182613441565b506080830151613517608086018261359c565b5060a083015161352a60a0860182613441565b5060c083015161353d60c086018261359c565b5060e083015161355060e0860182613593565b509392505050565b8051604080845260009190840190613570828261344a565b9150506020830151848203602086015261358a828261344a565b95945050505050565b613379816136cd565b61337981610739565b602081016135b38284613370565b92915050565b604081016135c78285613370565b612e95602083018461359c565b60208082528101612e95818461337f565b604080825281016135f6818561344a565b9050612e95602083018461359c565b602080825281016135b38161347f565b60208082528101612e9581846134af565b602081016135b3828461359c565b604081016135c7828561359c565b60405181810167ffffffffffffffff8111828210171561366157600080fd5b604052919050565b600067ffffffffffffffff82111561368057600080fd5b5060209081020190565b600067ffffffffffffffff8211156136a157600080fd5b506020601f91909101601f19160190565b60200190565b5190565b600160a060020a031690565b151590565b61ffff1690565b600060038210612df657600080fd5b82818337506000910152565b60005b8381101561370a5781810151838201526020016136f2565b83811115613719576000848401525b50505050565b601f01601f1916905600a265627a7a72305820b329e9532915271842f8e79b47e41d721c476b734fe5f384651fed7a7626494b6c6578706572696d656e74616cf50037",
  "source": "pragma solidity ^0.4.24;\npragma experimental ABIEncoderV2;\n\nimport \"./SafeMath.sol\";\nimport \"./RLPReader.sol\";\nimport \"./Users.sol\";\nimport \"./strings.sol\";\n\ncontract Claims {\n\n  Users private _Users;\n//  Users.User private currentUser;\n\n  constructor (address _UsersAddr) public {\n    _Users = Users(_UsersAddr);\n//    currentUser = _Users.getUserByAddress(msg.sender);\n  }\n\n\n  using RLPReader for bytes;\n  using RLPReader for uint;\n  using RLPReader for RLPReader.RLPItem;\n\n  struct NameValue{\n    string name;\n    string value;\n  }\n\n  struct Claim {\n    uint256 creationDate;\n    uint256 claimId;        // should be 2^48 ~ 100 trillion claims\n    NameValue[] claimData;\n    bool claimType;\n    uint256 memberOwner;    // should be 2^24 ~ 16 million members\n    bool status;\n    uint256 lastChange;\n//    uint16[] log;\n    uint16 maxSplit;\n  }\n\n  mapping (uint256 => Claim) private claims_;\n  mapping (uint256 => uint16) private maxSplits_;\n  uint256 constant private PAGE_SIZE = 10; // 999;\n  uint256 constant private transactionPrice = 1;\n\n  uint256 private claimIdCounter_ = 0; // has the number of claims ever inserted, including the deleted ones\n  //   uint256[] private claimIdIndex;\n  bool private hasOverlapResult;\n  using strings for *;\n\n  function computeClaim(uint256 _creationDate, bytes _claimData, bool _claimType, uint256 _memberOwner, bool register_or_update,\n    uint256 _claimId, bytes _oldClaimData, uint _lastChange) public {\n\n//    Users.User memory currentUser = _Users.getUserByAddress(msg.sender);\n//    if (currentUser.tokens > transactionPrice) {\n    if (_Users.getUserTokensByAddress(msg.sender) >= transactionPrice) {\n      _Users.updateTokens(msg.sender, transactionPrice);\n      if (register_or_update) {             // Register new claim.\n        _claimId = ++claimIdCounter_;\n        //    require(claims_[_claimId].claimId == 0, \"Claim already exists\");\n        require(_Users._memberExists(_memberOwner), \"Member do not exists\");\n  //      _memberOwner = _Users._memberIdFromCurrentAddress(msg.sender);\n\n        _saveClaim(_claimId, _creationDate, _claimData, _claimType, _memberOwner, false, _creationDate);\n        _Users._addClaimIdToMemberOwner(_memberOwner, _claimId);\n\n        checkClaimStatus(_claimId, _claimType, _claimData, true);\n      } else {                     // Update existing claim.\n\n        checkClaimStatus(_claimId, _claimType, _oldClaimData, false);\n  //      if (_updateClaimId) {\n  //        checkClaimStatus(updateClaimId(_claimId, _claimData, _memberOwner, _claimType), _claimType, _claimData, true);\n  //        _saveClaim(updateClaimId(_claimId, _claimData, _memberOwner, _claimType), _creationDate, _claimData, _claimType,\n  //          _memberOwner, claims_[_claimId].status, _lastChange);\n  //      } else {\n        checkClaimStatus(_claimId, _claimType, _claimData, true);\n        _saveClaim(_claimId, _creationDate, _claimData, _claimType, _memberOwner, claims_[_claimId].status, _lastChange);\n\n        if (_creationDate == 0) {  // Delete claim.\n          _Users._removeClaimFromMember(_memberOwner, _claimId);\n          if (claims_[_claimId].status) {\n            _Users._removeClaimFromInbox(_memberOwner, _claimId);\n          }\n//          _saveClaim(_claimId, 0, \"\", false, 0, false, 0);\n//            _removeClaimFromMapping(_claimId);\n//            _saveClaim(_claimId, _creationDate, _claimData, _claimType, _memberOwner, claims_[_claimId].status, _lastChange);\n        }\n      }\n    } else {\n      // USER DOES NOT HAVE ENOUGH TOKENS TO SUBMIT THE TRANSACTION.\n    }\n  }\n\n//  function _removeClaimFromMapping(uint claimId) private {\n    // maybe do split = 0% -> already in sound & musical components.OnDelete()\n//  }\n\n  function getTransactionPrice() pure public returns (uint) {\n    return transactionPrice;\n  }\n\n  function getPageSize() pure public returns (uint) {\n    return PAGE_SIZE;\n  }\n\n  function getClaim(uint256 _claimId) view public returns (Claim) {\n    return claims_[_claimId];\n  }\n\n  function getClaimsByMemberId(uint _page) public returns (Claim[] memory) {\n\n    uint256 pageIndex = SafeMath.mul(PAGE_SIZE, _page);\n    Users.User memory currentUser = _Users.getUserByAddress(msg.sender);\n    if (keccak256(currentUser.role) != keccak256(\"Super admin\")) { // If user IS NOT \"Super admin\".\n      uint256 _memberId = _Users._memberIdFromCurrentAddress(msg.sender);\n      uint count = _Users._getClaimsCountByMember(_memberId);\n      uint256 pageNumber = SafeMath.div(count, PAGE_SIZE);\n\n      if (count == 0 || pageIndex > count - 1 || _page > pageNumber) {\n        return;\n      }\n\n      uint256[] memory claimsId = _Users._getClaimsIdByMember(_memberId);\n\n      Claim[] memory _claims = new Claim[](PAGE_SIZE);\n      uint256 returnCounter = 0;\n      for (uint i = pageIndex; i < claimsId.length; ++i) {\n        if(returnCounter < PAGE_SIZE) {\n          _claims[returnCounter] = claims_[claimsId[i]];\n          ++returnCounter;\n        } else {\n          break;\n        }\n      }\n      return _claims;\n    } else {  // If user IS \"Super admin\".\n\n      uint[] memory memberIds = _Users._getMemberIdsOfCurrentCMO(currentUser.cmo, currentUser.memberId);\n      count = 0;\n      for (uint j = 0; j < memberIds.length; ++j) {\n        count += _Users._getClaimsCountByMember(memberIds[j]); // count+count+...+count\n      }\n      pageNumber = SafeMath.div(count, PAGE_SIZE);\n\n      if (count == 0 || pageIndex > count - 1 || _page > pageNumber) {\n        return;\n      }\n\n      uint[] memory allClaimsId = new uint[](count);\n      count = 0;  // now, use it for iterator\n      for (j = 0; j < memberIds.length; ++j) {\n        claimsId = _Users._getClaimsIdByMember(memberIds[j]);\n        for (i=0; i < claimsId.length; ++i) {\n          allClaimsId[count++] = claimsId[i];\n        }\n      }\n\n      _claims = new Claim[](PAGE_SIZE);\n      returnCounter = 0;\n      for (i = pageIndex; i < allClaimsId.length; ++i) {\n        if(returnCounter < PAGE_SIZE) {\n          _claims[returnCounter] = claims_[allClaimsId[i]];\n          ++returnCounter;\n        } else {\n          break;\n        }\n      }\n      return _claims;\n    }\n  }\n\n  function getClaimsCountByMemberId() public returns (uint) {\n    Users.User memory currentUser = _Users.getUserByAddress(msg.sender);\n    if (keccak256(currentUser.role) != keccak256(\"Super admin\")) { // If user IS NOT \"Super admin\".\n      uint256 _memberId = _Users._memberIdFromCurrentAddress(msg.sender);\n      return _Users._getClaimsCountByMember(_memberId);\n    } else {                                                       // If user IS \"Super admin\".\n      uint[] memory memberIds = _Users._getMemberIdsOfCurrentCMO(currentUser.cmo, currentUser.memberId);\n      uint count = 0;\n      for (uint j = 0; j < memberIds.length; ++j) {\n        count += _Users._getClaimsCountByMember(memberIds[j]); // count+count+...+count\n      }\n      return count;\n    }\n  }\n\n  function _saveClaim(uint256 _claimId, uint256 _creationDate, bytes _claimData, bool _claimType,\n    uint _memberOwner, bool _status, uint256 _lastChange) private {\n\n    RLPReader.RLPItem memory item = _claimData.toRlpItem();\n    RLPReader.RLPItem[] memory itemList = item.toList(); // ((name, value), (name, value), (name, value), ...)\n\n    claims_[_claimId].claimId = _claimId;\n    claims_[_claimId].creationDate = _creationDate;\n    claims_[_claimId].claimType = _claimType;\n\n    delete claims_[_claimId].claimData;\n    for(uint i = 0; i < itemList.length; ++i) {\n      RLPReader.RLPItem[] memory itemListClaim = itemList[i].toList(); // (name, value)\n      claims_[_claimId].claimData.push(NameValue(string(itemListClaim[0].toBytes()), string(itemListClaim[1].toBytes())));\n    }\n\n    claims_[_claimId].memberOwner = _memberOwner;\n    claims_[_claimId].lastChange = _lastChange;\n    claims_[_claimId].status = _status;\n  }\n\n  // Old Lib.sol\n//\n//  using RLPReader for bytes;\n//  using RLPReader for uint;\n//  using RLPReader for RLPReader.RLPItem;\n//\n//  struct NameValue{\n//    string name;\n//    string value;\n//  }\n//\n//  struct Claim {\n//    uint256 creationDate;\n//    uint256 claimId;        // should be 2^48 ~ 100 trillion claims\n//    NameValue[] claimData;\n//    bool claimType;\n//    uint256 memberOwner;    // should be 2^24 ~ 16 million members\n//    bool status;\n//    uint256 lastChange;\n//    //    string[] log;\n//    //    uint16 log2;\n//  }\n//\n//  mapping (uint256 => Claim) internal claims_;\n//  mapping (uint256 => uint16) internal maxSplits_;\n//  uint256 constant internal PAGE_SIZE = 10;\n//\n//  uint256 internal claimIdCounter_ = 0; // has the number of claims ever inserted, including the deleted ones\n//  //  uint256[] private claimIdIndex;\n\n  function checkClaimStatus(uint256 _claimId, bool _claimType, bytes _claimData, bool newClaim) private {\n\n    //    if (newClaim) {\n    //      claimIdIndex.push(_claimId);\n    //    }\n    RLPReader.RLPItem memory item = _claimData.toRlpItem();\n    RLPReader.RLPItem[] memory itemList = item.toList();  // ((name0, value0), (name, value), (name, value), ...)\n    uint16 split = uint16(bytesToUint(itemList[5].toList()[1].toBytes()));\n    uint48 startDate = uint48(bytesToUint(itemList[2].toList()[1].toBytes()));\n    uint48 endDate = uint48(bytesToUint(itemList[3].toList()[1].toBytes()));\n\n    maxSplits_[_claimId] = split;\n//    claims_[_claimId].maxSplit.push(maxSplits_[_claimId]);\n    bool prevStatus = claims_[_claimId].status;\n    bool tempMaxSplitOnce = true;\n    for(uint256 i = 1; i <= claimIdCounter_; i++) {\n      if (_claimType == claims_[i].claimType && _claimId != i) {\n        if(keccak256(itemList[0].toList()[1].toBytes()) == keccak256(claims_[i].claimData[0].value) // same ISRC/ISWC\n        && endDate >= uint48(bytesToUint(bytes(claims_[i].claimData[2].value))) // end1 >= start2\n        && startDate <= uint48(bytesToUint(bytes(claims_[i].claimData[3].value))) // start1 <= end2\n        ){\n          if (newClaim) {\n            // claims_[2].log.push('CHECK STATUS TRUE');\n          } else {\n            // claims_[2].log.push('CHECK STATUS FALSE');\n          }\n          // claims_[2].log.push(string(itemList[4].toList()[1].toBytes()));\n          // claims_[2].log.push(string(bytes(claims_[i].claimData[4].value)));\n          hasOverlap(itemList[4].toList()[1].toBytes(), bytes(claims_[i].claimData[4].value)); // useTypes/rightTypes: have at least one common\n          if (hasOverlapResult) {\n            hasOverlap(itemList[1].toList()[1].toBytes(), bytes(claims_[i].claimData[1].value)); // territory: contain at least one common\n            if (hasOverlapResult) {\n              if (newClaim) {\n                if (maxSplits_[i] + split > 100 && maxSplits_[i] != 0 && split != 0) { // set it CONFLICT\n                  if (!prevStatus) {\n                    prevStatus = true;\n                    claims_[_claimId].status = true; // true, means there IS a CONFLICT\n                    _Users._addClaimFromInbox(claims_[_claimId].memberOwner, _claimId);\n                  }\n                  if (!claims_[i].status) {\n                    claims_[i].status = true;\n                    _Users._addClaimFromInbox(claims_[i].memberOwner, claims_[i].claimId);\n                  }\n                } else if (maxSplits_[i] + split <= 100) {\n                  claims_[_claimId].status = false;\n                  claims_[i].status = false;\n                }\n//                if (maxSplits_[i] == 0) {      // claims_[i].claimData[5].value = split = 0\n//                  claims_[i].status = false;\n//                  _Users._removeClaimFromInbox(claims_[i].memberOwner, claims_[i].claimId);\n//                }\n                if (split == 0 && prevStatus) {\n                  prevStatus = false;\n                  claims_[_claimId].status = false;\n                  _Users._removeClaimFromInbox(claims_[_claimId].memberOwner, _claimId);\n                }\n                if (maxSplits_[i] != 0) maxSplits_[i]+=split;                // build maxSplits_[i]\n                if (tempMaxSplitOnce && maxSplits_[i] != 0 && split != 0) {\n                  tempMaxSplitOnce=false;\n                  maxSplits_[_claimId] = maxSplits_[i];\n                }\n//                claims_[1].log.push(split);\n//                claims_[1].log.push(maxSplits_[i]);\n              } else {\n                if (tempMaxSplitOnce) {\n                  maxSplits_[_claimId]=split;\n                  tempMaxSplitOnce=false;\n                }\n                if (prevStatus) {                                        // set it CLAIMED\n                  claims_[_claimId].status = false;\n                  _Users._removeClaimFromInbox(claims_[_claimId].memberOwner, _claimId);\n                  prevStatus = false;\n                }\n                if (maxSplits_[i] - split <= 100 || maxSplits_[i] == 0) {     // split != 0 here is redundant\n                  if (claims_[i].status) {\n                    claims_[i].status = false;\n                    _Users._removeClaimFromInbox(claims_[i].memberOwner, claims_[i].claimId);\n                  }\n                }\n                if (maxSplits_[i] != 0) maxSplits_[i]-=split;                // recalculate maxSplits_[i]\n//                claims_[2].log.push(split);\n//                claims_[2].log.push(maxSplits_[i]);\n              }\n              claims_[i].maxSplit = maxSplits_[i];\n            }  // hasOverlapResult territory\n          } // hasOverlapResult: useTypes/rightTypes\n        } // if ISC/start/endDate\n      } // if claimId<>i\n    } // for\n    claims_[_claimId].maxSplit = maxSplits_[_claimId];\n    //    } // if (split == 0)\n  }\n\n  function bytesToUint(bytes s) private pure returns (uint result) {\n    bytes memory b = s;\n    uint i;\n    result = 0;\n    for (i = 0; i < b.length; i++) {\n      uint c = uint(b[i]);\n      if (c >= 48 && c <= 57) {\n        result = result * 10 + (c - 48);\n      }\n    }\n  }\n\n  function hasOverlap(bytes _b1, bytes _b2) private {\n\n    hasOverlapResult = false;\n    var delim = \",\".toSlice();\n    var s1 = string(_b1).toSlice();\n    var parts1 = new string[](s1.count(delim) + 1);\n    for(uint i = 0; i < parts1.length; i++) {\n      parts1[i] = s1.split(delim).toString();\n    }\n    var s2 = string(_b2).toSlice();\n    var parts2 = new string[](s2.count(delim) + 1);\n    for(uint j = 0; j < parts2.length; j++) {\n      parts2[j] = s2.split(delim).toString();\n    }\n\n    for(i = 0; i < parts1.length; i++) {\n      for(j = 0; j < parts2.length; j++) {\n        if (keccak256(parts1[i]) == keccak256(parts2[j])) {\n          hasOverlapResult = true;\n          break;\n        }\n      }\n      if (hasOverlapResult) {\n        break;\n      }\n    }\n\n  }\n\n  function updateClaimId(uint _claimId, bytes _claimData, uint _memberOwner, bool _claimType) private returns (uint) {\n    RLPReader.RLPItem memory item = _claimData.toRlpItem();\n    RLPReader.RLPItem[] memory itemList = item.toList();\n\n    for(uint256 i = 1; i <= claimIdCounter_; i++) {\n      if (_claimType == claims_[i].claimType && _claimId != i) {\n        if(keccak256(abi.encodePacked(itemList[0].toList()[1].toBytes())) == keccak256(abi.encodePacked(claims_[i].claimData[0].value)) // same ISRC/ISWC\n        && keccak256(abi.encodePacked(itemList[1].toList()[1].toBytes())) == keccak256(abi.encodePacked(claims_[i].claimData[1].value)) // same countries\n        && keccak256(abi.encodePacked(itemList[2].toList()[1].toBytes())) == keccak256(abi.encodePacked(claims_[i].claimData[2].value)) // same startDate\n        && keccak256(abi.encodePacked(itemList[3].toList()[1].toBytes())) == keccak256(abi.encodePacked(claims_[i].claimData[3].value)) // same endDate\n        && keccak256(abi.encodePacked(itemList[4].toList()[1].toBytes())) == keccak256(abi.encodePacked(claims_[i].claimData[4].value)) // same use/right-Types\n        && keccak256(abi.encodePacked(itemList[5].toList()[1].toBytes())) == keccak256(abi.encodePacked(claims_[i].claimData[5].value)) // same split\n        && _memberOwner == claims_[i].memberOwner                                                                                       // same memberOwner\n        ){\n          return i;\n        }\n      }\n    }\n    return ++claimIdCounter_;\n  }\n}\n",
  "sourcePath": "/home/komodo/newUI3/bloomen-decentralized-rights-management-v2/truffle/contracts/registry/Claims.sol",
  "compiler": {
    "name": "solc",
    "version": "0.4.24+commit.e67f0147.Emscripten.clang"
  },
  "schemaVersion": "2.0.1",
  "updatedAt": "2020-09-10T07:07:13.973Z"
}