{
  "contractName": "Claims",
  "abi": [
    {
      "inputs": [
        {
          "name": "_UsersAddr",
          "type": "address"
        }
      ],
      "payable": false,
      "stateMutability": "nonpayable",
      "type": "constructor"
    },
    {
      "constant": false,
      "inputs": [
        {
          "name": "_creationDate",
          "type": "uint256"
        },
        {
          "name": "_claimData",
          "type": "bytes"
        },
        {
          "name": "_claimType",
          "type": "bool"
        },
        {
          "name": "_memberOwner",
          "type": "uint256"
        },
        {
          "name": "register_or_update",
          "type": "bool"
        },
        {
          "name": "_claimId",
          "type": "uint256"
        },
        {
          "name": "_oldClaimData",
          "type": "bytes"
        },
        {
          "name": "_lastChange",
          "type": "uint256"
        },
        {
          "name": "_updateClaimId",
          "type": "bool"
        }
      ],
      "name": "computeClaim",
      "outputs": [],
      "payable": false,
      "stateMutability": "nonpayable",
      "type": "function"
    },
    {
      "constant": true,
      "inputs": [],
      "name": "getTransactionPrice",
      "outputs": [
        {
          "name": "",
          "type": "uint256"
        }
      ],
      "payable": false,
      "stateMutability": "pure",
      "type": "function"
    },
    {
      "constant": true,
      "inputs": [],
      "name": "getPageSize",
      "outputs": [
        {
          "name": "",
          "type": "uint256"
        }
      ],
      "payable": false,
      "stateMutability": "pure",
      "type": "function"
    },
    {
      "constant": true,
      "inputs": [
        {
          "name": "_claimId",
          "type": "uint256"
        }
      ],
      "name": "getClaim",
      "outputs": [
        {
          "components": [
            {
              "name": "creationDate",
              "type": "uint256"
            },
            {
              "name": "claimId",
              "type": "uint256"
            },
            {
              "components": [
                {
                  "name": "name",
                  "type": "string"
                },
                {
                  "name": "value",
                  "type": "string"
                }
              ],
              "name": "claimData",
              "type": "tuple[]"
            },
            {
              "name": "claimType",
              "type": "bool"
            },
            {
              "name": "memberOwner",
              "type": "uint256"
            },
            {
              "name": "status",
              "type": "bool"
            },
            {
              "name": "lastChange",
              "type": "uint256"
            },
            {
              "name": "log",
              "type": "uint16[]"
            },
            {
              "name": "maxSplit",
              "type": "uint16"
            }
          ],
          "name": "",
          "type": "tuple"
        }
      ],
      "payable": false,
      "stateMutability": "view",
      "type": "function"
    },
    {
      "constant": false,
      "inputs": [
        {
          "name": "_page",
          "type": "uint256"
        }
      ],
      "name": "getClaimsByMemberId",
      "outputs": [
        {
          "components": [
            {
              "name": "creationDate",
              "type": "uint256"
            },
            {
              "name": "claimId",
              "type": "uint256"
            },
            {
              "components": [
                {
                  "name": "name",
                  "type": "string"
                },
                {
                  "name": "value",
                  "type": "string"
                }
              ],
              "name": "claimData",
              "type": "tuple[]"
            },
            {
              "name": "claimType",
              "type": "bool"
            },
            {
              "name": "memberOwner",
              "type": "uint256"
            },
            {
              "name": "status",
              "type": "bool"
            },
            {
              "name": "lastChange",
              "type": "uint256"
            },
            {
              "name": "log",
              "type": "uint16[]"
            },
            {
              "name": "maxSplit",
              "type": "uint16"
            }
          ],
          "name": "",
          "type": "tuple[]"
        }
      ],
      "payable": false,
      "stateMutability": "nonpayable",
      "type": "function"
    },
    {
      "constant": false,
      "inputs": [],
      "name": "getClaimsCountByMemberId",
      "outputs": [
        {
          "name": "",
          "type": "uint256"
        }
      ],
      "payable": false,
      "stateMutability": "nonpayable",
      "type": "function"
    }
  ],
  "bytecode": "0x608060405260006003553480156200001657600080fd5b5060405160208062003b94833981018060405262000038919081019062000073565b60008054600160a060020a031916600160a060020a0392909216919091179055620000a8565b60006200006c82516200009c565b9392505050565b6000602082840312156200008657600080fd5b60006200009484846200005e565b949350505050565b600160a060020a031690565b613adc80620000b86000396000f30060806040526004361061005e5763ffffffff60e060020a6000350416630e606cef81146100635780631be8850b146100855780635aef2447146100b05780636a0c8730146100dd578063b6bc3812146100f2578063d7662d5d1461011f575b600080fd5b34801561006f57600080fd5b5061008361007e366004613591565b610134565b005b34801561009157600080fd5b5061009a61054d565b6040516100a791906139ae565b60405180910390f35b3480156100bc57600080fd5b506100d06100cb366004613555565b610950565b6040516100a7919061399d565b3480156100e957600080fd5b5061009a610bd5565b3480156100fe57600080fd5b5061011261010d366004613555565b610bdb565b6040516100a7919061395c565b34801561012b57600080fd5b5061009a611878565b6000546040517f9249d753000000000000000000000000000000000000000000000000000000008152600191600160a060020a031690639249d7539061017e90339060040161392d565b602060405180830381600087803b15801561019857600080fd5b505af11580156101ac573d6000803e3d6000fd5b505050506040513d601f19601f820116820180604052506101d09190810190613573565b10610542576000546040517f67e482ad000000000000000000000000000000000000000000000000000000008152600160a060020a03909116906367e482ad90610221903390600190600401613941565b600060405180830381600087803b15801561023b57600080fd5b505af115801561024f573d6000803e3d6000fd5b5050505084156103e05760038054600101908190556000546040517ff8380733000000000000000000000000000000000000000000000000000000008152919550600160a060020a03169063f8380733906102ae9089906004016139ae565b602060405180830381600087803b1580156102c857600080fd5b505af11580156102dc573d6000803e3d6000fd5b505050506040513d601f19601f820116820180604052506103009190810190613502565b1515610341576040517f08c379a00000000000000000000000000000000000000000000000000000000081526004016103389061398d565b60405180910390fd5b610351848a8a8a8a60008f61187e565b6000546040517fe2c11f9e000000000000000000000000000000000000000000000000000000008152600160a060020a039091169063e2c11f9e9061039c90899088906004016139bc565b600060405180830381600087803b1580156103b657600080fd5b505af11580156103ca573d6000803e3d6000fd5b505050506103db84888a60016119f9565b610542565b6103ed84888560006119f9565b6103fa84888a60016119f9565b6000848152600160205260409020600501546104239085908b908b908b908b9060ff168861187e565b8860011415610542576000546040517fbb03b706000000000000000000000000000000000000000000000000000000008152600160a060020a039091169063bb03b7069061047790899088906004016139bc565b600060405180830381600087803b15801561049157600080fd5b505af11580156104a5573d6000803e3d6000fd5b50505060008581526001602052604090206005015460ff16159050610542576000546040517f8b92892b000000000000000000000000000000000000000000000000000000008152600160a060020a0390911690638b92892b9061050f90899088906004016139bc565b600060405180830381600087803b15801561052957600080fd5b505af115801561053d573d6000803e3d6000fd5b505050505b505050505050505050565b6000610557612f7d565b600080546040517f69c212f600000000000000000000000000000000000000000000000000000000815260609183918291600160a060020a0316906369c212f6906105a690339060040161392d565b600060405180830381600087803b1580156105c057600080fd5b505af11580156105d4573d6000803e3d6000fd5b505050506040513d6000823e601f3d908101601f191682016040526105fc9190810190613520565b604080517f53757065722061646d696e0000000000000000000000000000000000000000008152905190819003600b01812060c083015180519398509092909190819060208401908083835b602083106106675780518252601f199092019160209182019101610648565b6001836020036101000a0380198251168184511680821785525050505050509050019150506040518091039020600019161415156107dd576000546040517feff34e59000000000000000000000000000000000000000000000000000000008152600160a060020a039091169063eff34e59906106e890339060040161392d565b602060405180830381600087803b15801561070257600080fd5b505af1158015610716573d6000803e3d6000fd5b505050506040513d601f19601f8201168201806040525061073a9190810190613573565b6000546040517faffccd84000000000000000000000000000000000000000000000000000000008152919550600160a060020a03169063affccd84906107849087906004016139ae565b602060405180830381600087803b15801561079e57600080fd5b505af11580156107b2573d6000803e3d6000fd5b505050506040513d601f19601f820116820180604052506107d69190810190613573565b9550610948565b60005460e086015160208701516040517f989359df000000000000000000000000000000000000000000000000000000008152600160a060020a039093169263989359df9261083092909160040161396d565b600060405180830381600087803b15801561084a57600080fd5b505af115801561085e573d6000803e3d6000fd5b505050506040513d6000823e601f3d908101601f1916820160405261088691908101906134c5565b925060009150600090505b8251811015610944576000548351600160a060020a039091169063affccd84908590849081106108bd57fe5b906020019060200201516040518263ffffffff1660e060020a0281526004016108e691906139ae565b602060405180830381600087803b15801561090057600080fd5b505af1158015610914573d6000803e3d6000fd5b505050506040513d601f19601f820116820180604052506109389190810190613573565b90910190600101610891565b8195505b505050505090565b610958612fe1565b6000828152600160208181526040808420815161012081018352815481529381015484840152600281018054835181860281018601855281815295969295938701949192909184015b82821015610aff5760008481526020908190206040805160028681029093018054600181161561010002600019011693909304601f810185900490940281016060908101835291810184815290938492849190840182828015610a455780601f10610a1a57610100808354040283529160200191610a45565b820191906000526020600020905b815481529060010190602001808311610a2857829003601f168201915b50505050508152602001600182018054600181600116156101000203166002900480601f016020809104026020016040519081016040528092919081815260200182805460018160011615610100020316600290048015610ae75780601f10610abc57610100808354040283529160200191610ae7565b820191906000526020600020905b815481529060010190602001808311610aca57829003601f168201915b505050505081525050815260200190600101906109a1565b50505090825250600382015460ff908116151560208084019190915260048401546040808501919091526005850154909216151560608401526006840154608084015260078401805483518184028101840190945280845260a0909401939091830182828015610bb657602002820191906000526020600020906000905b82829054906101000a900461ffff1661ffff1681526020019060020190602082600101049283019260010382029150808411610b7d5790505b50505091835250506008919091015461ffff1660209091015292915050565b60015b90565b60606000610be7612f7d565b6000806000606080600080606060006060610c046103e78f612609565b6000546040517f69c212f6000000000000000000000000000000000000000000000000000000008152919d50600160a060020a0316906369c212f690610c4e90339060040161392d565b600060405180830381600087803b158015610c6857600080fd5b505af1158015610c7c573d6000803e3d6000fd5b505050506040513d6000823e601f3d908101601f19168201604052610ca49190810190613520565b604080517f53757065722061646d696e0000000000000000000000000000000000000000008152905190819003600b01812060c08301518051939e509092909190819060208401908083835b60208310610d0f5780518252601f199092019160209182019101610cf0565b6001836020036101000a03801982511681845116808217855250505050505090500191505060405180910390206000191614151561127b576000546040517feff34e59000000000000000000000000000000000000000000000000000000008152600160a060020a039091169063eff34e5990610d9090339060040161392d565b602060405180830381600087803b158015610daa57600080fd5b505af1158015610dbe573d6000803e3d6000fd5b505050506040513d601f19601f82011682018060405250610de29190810190613573565b6000546040517faffccd84000000000000000000000000000000000000000000000000000000008152919b50600160a060020a03169063affccd8490610e2c908d906004016139ae565b602060405180830381600087803b158015610e4657600080fd5b505af1158015610e5a573d6000803e3d6000fd5b505050506040513d601f19601f82011682018060405250610e7e9190810190613573565b9850610e8c896103e7612642565b9750881580610e9d5750600189038c115b80610ea75750878e115b15610eb157611867565b6000546040517f6262dff6000000000000000000000000000000000000000000000000000000008152600160a060020a0390911690636262dff690610efa908d906004016139ae565b600060405180830381600087803b158015610f1457600080fd5b505af1158015610f28573d6000803e3d6000fd5b505050506040513d6000823e601f3d908101601f19168201604052610f5091908101906134c5565b604080516103e7808252617d008201909252919850816020015b610f72612fe1565b815260200190600190039081610f6a579050509550600094508b93505b8651841015611273576103e785101561126357600160008886815181101515610fb457fe5b9060200190602002015181526020019081526020016000206101206040519081016040529081600082015481526020016001820154815260200160028201805480602002602001604051908101604052809291908181526020016000905b828210156111705760008481526020908190206040805160028681029093018054600181161561010002600019011693909304601f8101859004909402810160609081018352918101848152909384928491908401828280156110b65780601f1061108b576101008083540402835291602001916110b6565b820191906000526020600020905b81548152906001019060200180831161109957829003601f168201915b50505050508152602001600182018054600181600116156101000203166002900480601f0160208091040260200160405190810160405280929190818152602001828054600181600116156101000203166002900480156111585780601f1061112d57610100808354040283529160200191611158565b820191906000526020600020905b81548152906001019060200180831161113b57829003601f168201915b50505050508152505081526020019060010190611012565b50505090825250600382015460ff908116151560208084019190915260048401546040808501919091526005850154909216151560608401526006840154608084015260078401805483518184028101840190945280845260a090940193909183018282801561122757602002820191906000526020600020906000905b82829054906101000a900461ffff1661ffff16815260200190600201906020826001010492830192600103820291508084116111ee5790505b50505091835250506008919091015461ffff16602090910152865187908790811061124e57fe5b60209081029091010152600190940193611268565b611273565b836001019350610f8f565b859c50611867565b60005460e08c015160208d01516040517f989359df000000000000000000000000000000000000000000000000000000008152600160a060020a039093169263989359df926112ce92909160040161396d565b600060405180830381600087803b1580156112e857600080fd5b505af11580156112fc573d6000803e3d6000fd5b505050506040513d6000823e601f3d908101601f1916820160405261132491908101906134c5565b925060009850600091505b82518210156113e5576000548351600160a060020a039091169063affccd849085908590811061135b57fe5b906020019060200201516040518263ffffffff1660e060020a02815260040161138491906139ae565b602060405180830381600087803b15801561139e57600080fd5b505af11580156113b2573d6000803e3d6000fd5b505050506040513d601f19601f820116820180604052506113d69190810190613573565b8901985081600101915061132f565b6113f1896103e7612642565b97508815806114025750600189038c115b8061140c5750878e115b1561141657611867565b88604051908082528060200260200182016040528015611440578160200160208202803883390190505b50905060009850600091505b8251821015611550576000548351600160a060020a0390911690636262dff69085908590811061147857fe5b906020019060200201516040518263ffffffff1660e060020a0281526004016114a191906139ae565b600060405180830381600087803b1580156114bb57600080fd5b505af11580156114cf573d6000803e3d6000fd5b505050506040513d6000823e601f3d908101601f191682016040526114f791908101906134c5565b9650600093505b865184101561154557868481518110151561151557fe5b60209081029091010151815160018b019a8391811061153057fe5b602090810290910101526001909301926114fe565b81600101915061144c565b604080516103e7808252617d00820190925290816020015b611570612fe1565b815260200190600190039081611568579050509550600094508b93505b8051841015611273576103e7851015611263576001600082868151811015156115b257fe5b9060200190602002015181526020019081526020016000206101206040519081016040529081600082015481526020016001820154815260200160028201805480602002602001604051908101604052809291908181526020016000905b8282101561176e5760008481526020908190206040805160028681029093018054600181161561010002600019011693909304601f8101859004909402810160609081018352918101848152909384928491908401828280156116b45780601f10611689576101008083540402835291602001916116b4565b820191906000526020600020905b81548152906001019060200180831161169757829003601f168201915b50505050508152602001600182018054600181600116156101000203166002900480601f0160208091040260200160405190810160405280929190818152602001828054600181600116156101000203166002900480156117565780601f1061172b57610100808354040283529160200191611756565b820191906000526020600020905b81548152906001019060200180831161173957829003601f168201915b50505050508152505081526020019060010190611610565b50505090825250600382015460ff908116151560208084019190915260048401546040808501919091526005850154909216151560608401526006840154608084015260078401805483518184028101840190945280845260a090940193909183018282801561182557602002820191906000526020600020906000905b82829054906101000a900461ffff1661ffff16815260200190600201906020826001010492830192600103820291508084116117ec5790505b50505091835250506008919091015461ffff16602090910152865187908790811061184c57fe5b6020908102909101015260019094019383600101935061158d565b505050505050505050505050919050565b6103e790565b611886613036565b60606000606061189589612665565b93506118a0846126b6565b60008c815260016020819052604082209081018e90558c815560038101805460ff19168c15151790559194506118d9916002019061304d565b600091505b82518210156119be5761190783838151811015156118f857fe5b906020019060200201516126b6565b9050600160008c8152602001908152602001600020600201604080519081016040528061194b84600081518110151561193c57fe5b90602001906020020151612789565b815260200161196284600181518110151561193c57fe5b9052815460018101808455600093845260209384902083518051929560029094029091019261199692849290910190613071565b5060208281015180516119af9260018501920190613071565b505050508160010191506118de565b5050506000978852506001602052604090962060048101929092556006820195909555600501805460ff191694151594909417909355505050565b611a01613036565b6060600080600080600080611a158a612665565b9750611a20886126b6565b9650611a4c611a47611a3a8960058151811015156118f857fe5b8051600190811061193c57fe5b6127fb565b9550611a66611a47611a3a8960028151811015156118f857fe5b9450611a80611a47611a3a8960038151811015156118f857fe5b60008d8152600260209081526040808320805461ffff191661ffff8c161790556001918290529091206005015491955060ff909116935091508190505b60035481116125cb5760008181526001602052604090206003015460ff1615158b1515148015611aed5750808c14155b156125c357600081815260016020526040812060020180549091908110611b1057fe5b90600052602060002090600202016001016040518082805460018160011615610100020316600290048015611b7c5780601f10611b5a576101008083540402835291820191611b7c565b820191906000526020600020905b815481529060010190602001808311611b68575b5050915050604051809103902060001916611ba2611a3a8960008151811015156118f857fe5b6040518082805190602001908083835b60208310611bd15780518252601f199092019160209182019101611bb2565b6001836020036101000a038019825116818451168082178552505050505050905001915050604051809103902060001916148015611cef5750600081815260016020526040902060029081018054611cdb92908110611c2c57fe5b90600052602060002090600202016001018054600181600116156101000203166002900480601f016020809104026020016040519081016040528092919081815260200182805460018160011615610100020316600290048015611cd15780601f10611ca657610100808354040283529160200191611cd1565b820191906000526020600020905b815481529060010190602001808311611cb457829003601f168201915b50505050506127fb565b65ffffffffffff168465ffffffffffff1610155b8015611d2d575060008181526001602052604090206002018054611d1991906003908110611c2c57fe5b65ffffffffffff168565ffffffffffff1611155b156125c357611e17611d4a611a3a8960048151811015156118f857fe5b600083815260016020526040902060020180546004908110611d6857fe5b90600052602060002090600202016001018054600181600116156101000203166002900480601f016020809104026020016040519081016040528092919081815260200182805460018160011615610100020316600290048015611e0d5780601f10611de257610100808354040283529160200191611e0d565b820191906000526020600020905b815481529060010190602001808311611df057829003601f168201915b505050505061287d565b60045460ff16156125c357611e5b611e3a611a3a8960018151811015156118f857fe5b600083815260016020819052604090912060020180549091908110611d6857fe5b60045460ff16156125c35788156122bb57600081815260026020526040902054606461ffff9182168801909116118015611ea6575060008181526002602052604090205461ffff1615155b8015611eb5575061ffff861615155b1561204357821515611f81576001925060018060008e815260200190815260200160002060050160006101000a81548160ff0219169083151502179055506000809054906101000a9004600160a060020a0316600160a060020a03166374853239600160008f8152602001908152602001600020600401548e6040518363ffffffff1660e060020a028152600401611f4e9291906139bc565b600060405180830381600087803b158015611f6857600080fd5b505af1158015611f7c573d6000803e3d6000fd5b505050505b60008181526001602052604090206005015460ff16151561203e57600081815260016020819052604080832060058101805460ff1916841790559254600480850154949093015491517f74853239000000000000000000000000000000000000000000000000000000008152600160a060020a039091169363748532399361200b939192016139bc565b600060405180830381600087803b15801561202557600080fd5b505af1158015612039573d6000803e3d6000fd5b505050505b612095565b600081815260026020526040902054606461ffff9182168801909116116120955760008c8152600160205260408082206005908101805460ff1990811690915584845291909220909101805490911690555b61ffff86161580156120a45750825b1561216a57600092506000600160008e815260200190815260200160002060050160006101000a81548160ff0219169083151502179055506000809054906101000a9004600160a060020a0316600160a060020a0316638b92892b600160008f8152602001908152602001600020600401548e6040518363ffffffff1660e060020a0281526004016121379291906139bc565b600060405180830381600087803b15801561215157600080fd5b505af1158015612165573d6000803e3d6000fd5b505050505b60008181526002602052604090205461ffff16156121a6576000818152600260205260409020805461ffff80821689011661ffff199091161790555b8180156121c4575060008181526002602052604090205461ffff1615155b80156121d3575061ffff861615155b1561220457600081815260026020526040808220548e8352908220805461ffff191661ffff90921691909117905591505b7fcc69885fda6bcc1a4ace058b4a62bf5e179ea78fd58a1ccd71c22cc9b688793680546001818101835560108083047f29738be296375cd8b9d50c7633d5efbca2468f7bcc2abfa74afc7ff07447a847908101805461ffff808e166002600f988916810261010090810a928302928402199094169190911790935560008981526020849052604081205489549788018a5598905293850490920180549490951602900a938116840293021916919091179055612592565b81156122e15760008c8152600260205260408120805461ffff191661ffff891617905591505b82156123a8576000600160008e815260200190815260200160002060050160006101000a81548160ff0219169083151502179055506000809054906101000a9004600160a060020a0316600160a060020a0316638b92892b600160008f8152602001908152602001600020600401548e6040518363ffffffff1660e060020a0281526004016123719291906139bc565b600060405180830381600087803b15801561238b57600080fd5b505af115801561239f573d6000803e3d6000fd5b50505050600092505b600081815260026020526040902054606461ffff9182168890039091161115806123e2575060008181526002602052604090205461ffff16155b156124a15760008181526001602052604090206005015460ff16156124a157600081815260016020819052604080832060058101805460ff191690559254600480850154949093015491517f8b92892b000000000000000000000000000000000000000000000000000000008152600160a060020a0390911693638b92892b9361246e939192016139bc565b600060405180830381600087803b15801561248857600080fd5b505af115801561249c573d6000803e3d6000fd5b505050505b60008181526002602052604090205461ffff16156124de576000818152600260205260409020805461ffff8082168990031661ffff199091161790555b7fd9d16d34ffb15ba3a3d852f0d403e2ce1d691fb54de27ac87cd2f993f3ec331680546001818101835560108083047f7dc3c3fd58e05b20637dc07eb76e4004c234578ea6f56d29de554f11205e0741908101805461ffff808e16600f978816600290810261010090810a928302928402199094169190911790935560008981526020849052604081205489549788018a5598905293850490920180549490951602900a9381168402930219169190911790555b6000818152600260209081526040808320546001909252909120600801805461ffff191661ffff9092169190911790555b600101611abd565b50505060009889525050600260209081526040808920546001909252909720600801805461ffff191661ffff90981697909717909655505050505050565b60008083151561261c576000915061263b565b5082820282848281151561262c57fe5b041461263757600080fd5b8091505b5092915050565b60008080831161265157600080fd5b828481151561265c57fe5b04949350505050565b61266d613036565b600082516000141561269457604080518082019091526000808252602082015291506126b0565b5050604080518082019091528151815260208281019082018190525b50919050565b60606000806000806126c786612b5d565b15156126d257600080fd5b6126db86612b8c565b93508360405190808252806020026020018201604052801561271757816020015b612704613036565b8152602001906001900390816126fc5790505b5094506127278660200151612bdc565b8660200151019250600090505b838110156127805761274583612c3f565b9150604080519081016040528083815260200184815250858281518110151561276a57fe5b6020908102909101015291810191600101612734565b50505050919050565b60606000806060600061279f8660200151612bdc565b9350838660000151039250826040519080825280601f01601f1916602001820160405280156127d8578160200160208202803883390190505b5091508160200190506127f2848760200151018285612cd0565b50949350505050565b60008181805b825182101561287557828281518110151561281857fe5b01602001517f010000000000000000000000000000000000000000000000000000000000000090819004810204905060308110801590612859575060398111155b1561286a576030810384600a020193505b600190910190612801565b505050919050565b612885613036565b61288d613036565b60606000612899613036565b6004805460ff1916905560408051808201909152600181527f2c0000000000000000000000000000000000000000000000000000000000000060208201526060906000906128e690612d17565b96506128f189612d17565b9550612903868863ffffffff612d3d16565b60010160405190808252806020026020018201604052801561293957816020015b60608152602001906001900390816129245790505b509450600093505b84518410156129855761296261295d878963ffffffff612da316565b612db6565b858581518110151561297057fe5b60209081029091010152600190930192612941565b61298e88612d17565b92506129a0838863ffffffff612d3d16565b6001016040519080825280602002602001820160405280156129d657816020015b60608152602001906001900390816129c15790505b509150600090505b8151811015612a1a576129fa61295d848963ffffffff612da316565b8282815181101515612a0857fe5b602090810290910101526001016129de565b600093505b8451841015610542575060005b8151811015612b42578181815181101515612a4357fe5b906020019060200201516040518082805190602001908083835b60208310612a7c5780518252601f199092019160209182019101612a5d565b5181516020939093036101000a6000190180199091169216919091179052604051920182900390912088519093508892508791508110612ab857fe5b906020019060200201516040518082805190602001908083835b60208310612af15780518252601f199092019160209182019101612ad2565b6001836020036101000a0380198251168184511680821785525050505050509050019150506040518091039020600019161415612b3a576004805460ff19166001179055612b42565b600101612a2c565b60045460ff1615612b5257610542565b600190930192612a1f565b6020810151805160009190821a9060c060ff83161015612b805760009250612b85565b600192505b5050919050565b60008060008060009250612ba38560200151612bdc565b6020860151865191810193500190505b80821015612bd357612bc482612c3f565b60019093019290910190612bb3565b50909392505050565b8051600090811a6080811015612bf557600091506126b0565b60b8811080612c10575060c08110801590612c10575060f881105b15612c1e57600191506126b0565b60c0811015612c335760b519810191506126b0565b60f519810191506126b0565b8051600090811a6080811015612c5857600191506126b0565b60b8811015612c6d57607e19810191506126b0565b60c0811015612c9a5760b78103600184019350806020036101000a845104600182018101935050506126b0565b60f8811015612caf5760be19810191506126b0565b60019290920151602083900360f7016101000a900490910160f51901919050565b60005b60208210612cf5578351835260209384019390920191601f1990910190612cd3565b50915181516020939093036101000a6000190180199091169216919091179052565b612d1f613036565b50604080518082019091528151815260209182019181019190915290565b6000808260000151612d618560000151866020015186600001518760200151612e09565b0190505b8351602085015101811161263b578251602080860151865191860151600190950194612d9b929185039091039084908490612e09565b019050612d65565b612dab613036565b61263b838383612ec9565b606080600083600001516040519080825280601f01601f191660200182016040528015612ded578160200160208202803883390190505b50915060208201905061263b8185602001518660000151612f39565b600083818080808080808c8b11612eb35760208b11612e7c5760018b60200360080260020a03196001029550858a511694508a8d8d010393508588511692505b828514612e7457838810612e61578c8c019850612eb9565b8780600101985050858851169250612e49565b879850612eb9565b8a8a209150600096505b8a8d038711612eb3575089872081811415612ea357879850612eb9565b6001978801979690960195612e86565b8c8c0198505b5050505050505050949350505050565b612ed1613036565b6000612eef8560000151866020015186600001518760200151612e09565b60208087018051918601919091528051820385528651905191925001811415612f1b5760008552612bd3565b83518351865191019003855283518101602086015250909392505050565b60005b60208210612f5e578251845260209384019390920191601f1990910190612f3c565b50905182516020929092036101000a6000190180199091169116179052565b610160604051908101604052806000600160a060020a03168152602001600081526020016000815260200160008152602001606081526020016060815260200160608152602001606081526020016060815260200160608152602001600081525090565b61012060405190810160405280600081526020016000815260200160608152602001600015158152602001600081526020016000151581526020016000815260200160608152602001600061ffff1681525090565b604080518082019091526000808252602082015290565b508054600082556002029060005260206000209081019061306e91906130ef565b50565b828054600181600116156101000203166002900490600052602060002090601f016020900481019282601f106130b257805160ff19168380011785556130df565b828001600101855582156130df579182015b828111156130df5782518255916020019190600101906130c4565b506130eb929150613120565b5090565b610bd891905b808211156130eb576000613109828261313a565b61311760018301600061313a565b506002016130f5565b610bd891905b808211156130eb5760008155600101613126565b50805460018160011615610100020316600290046000825580601f10613160575061306e565b601f01602090049060005260206000209081019061306e9190613120565b600061318a8251613a44565b9392505050565b6000601f820183136131a257600080fd5b81516131b56131b0826139f1565b6139ca565b81815260209384019390925082018360005b838110156131f357815186016131dd88826132d4565b84525060209283019291909101906001016131c7565b5050505092915050565b6000601f8201831361320e57600080fd5b815161321c6131b0826139f1565b9150818183526020840193506020810190508385602084028201111561324157600080fd5b60005b838110156131f3578161325788826134b9565b8452506020928301929190910190600101613244565b600061318a8235613a50565b600061318a8251613a50565b6000601f8201831361329657600080fd5b81356132a46131b082613a12565b915080825260208301602083018583830111156132c057600080fd5b6132cb838284613a5c565b50505092915050565b6000601f820183136132e557600080fd5b81516132f36131b082613a12565b9150808252602083016020830185838301111561330f57600080fd5b6132cb838284613a68565b6000610160828403121561332d57600080fd5b6133386101606139ca565b90506000613346848461317e565b8252506020613357848483016134b9565b602083015250604061336b848285016134b9565b604083015250606061337f848285016134b9565b606083015250608082015167ffffffffffffffff81111561339f57600080fd5b6133ab848285016132d4565b60808301525060a082015167ffffffffffffffff8111156133cb57600080fd5b6133d7848285016132d4565b60a08301525060c082015167ffffffffffffffff8111156133f757600080fd5b613403848285016132d4565b60c08301525060e082015167ffffffffffffffff81111561342357600080fd5b61342f848285016132d4565b60e08301525061010082015167ffffffffffffffff81111561345057600080fd5b61345c84828501613191565b6101008301525061012082015167ffffffffffffffff81111561347e57600080fd5b61348a848285016132d4565b610120830152506101406134a0848285016134b9565b6101408301525092915050565b600061318a8235610bd8565b600061318a8251610bd8565b6000602082840312156134d757600080fd5b815167ffffffffffffffff8111156134ee57600080fd5b6134fa848285016131fd565b949350505050565b60006020828403121561351457600080fd5b60006134fa8484613279565b60006020828403121561353257600080fd5b815167ffffffffffffffff81111561354957600080fd5b6134fa8482850161331a565b60006020828403121561356757600080fd5b60006134fa84846134ad565b60006020828403121561358557600080fd5b60006134fa84846134b9565b60008060008060008060008060006101208a8c0312156135b057600080fd5b60006135bc8c8c6134ad565b99505060208a013567ffffffffffffffff8111156135d957600080fd5b6135e58c828d01613285565b98505060406135f68c828d0161326d565b97505060606136078c828d016134ad565b96505060806136188c828d0161326d565b95505060a06136298c828d016134ad565b94505060c08a013567ffffffffffffffff81111561364657600080fd5b6136528c828d01613285565b93505060e06136638c828d016134ad565b9250506101006136758c828d0161326d565b9150509295985092959850929598565b61368e81613a44565b82525050565b600061369f82613a40565b808452602084019350836020820285016136b885613a3a565b60005b848110156136ef5783830388526136d383835161381b565b92506136de82613a3a565b6020989098019791506001016136bb565b50909695505050505050565b600061370682613a40565b8084526020840193508360208202850161371f85613a3a565b60005b848110156136ef57838303885261373a8383516138e0565b925061374582613a3a565b602098909801979150600101613722565b600061376182613a40565b80845260208401935061377383613a3a565b60005b828110156137a35761378986835161391b565b61379282613a3a565b602096909601959150600101613776565b5093949350505050565b61368e81613a50565b60006137c182613a40565b8084526137d5816020860160208601613a68565b6137de81613a98565b9093016020019392505050565b601481527f4d656d62657220646f206e6f7420657869737473000000000000000000000000602082015260400190565b80516000906101208401906138308582613924565b5060208301516138436020860182613924565b506040830151848203604086015261385b82826136fb565b915050606083015161387060608601826137ad565b5060808301516138836080860182613924565b5060a083015161389660a08601826137ad565b5060c08301516138a960c0860182613924565b5060e083015184820360e08601526138c18282613756565b9150506101008301516138d861010086018261391b565b509392505050565b80516040808452600091908401906138f882826137b6565b9150506020830151848203602086015261391282826137b6565b95945050505050565b61368e81613a55565b61368e81610bd8565b6020810161393b8284613685565b92915050565b6040810161394f8285613685565b61318a6020830184613924565b6020808252810161318a8184613694565b6040808252810161397e81856137b6565b905061318a6020830184613924565b6020808252810161393b816137eb565b6020808252810161318a818461381b565b6020810161393b8284613924565b6040810161394f8285613924565b60405181810167ffffffffffffffff811182821017156139e957600080fd5b604052919050565b600067ffffffffffffffff821115613a0857600080fd5b5060209081020190565b600067ffffffffffffffff821115613a2957600080fd5b506020601f91909101601f19160190565b60200190565b5190565b600160a060020a031690565b151590565b61ffff1690565b82818337506000910152565b60005b83811015613a83578181015183820152602001613a6b565b83811115613a92576000848401525b50505050565b601f01601f1916905600a265627a7a723058202ad1228a8f056e36f79705dc630ec28c8906b6900cd36e5ad5e8af39f3729aff6c6578706572696d656e74616cf50037",
  "source": "pragma solidity ^0.4.24;\npragma experimental ABIEncoderV2;\n\nimport \"./SafeMath.sol\";\nimport \"./RLPReader.sol\";\nimport \"./Users.sol\";\nimport \"./strings.sol\";\n\ncontract Claims {\n\n  Users private _Users;\n//  Users.User private currentUser;\n\n  constructor (address _UsersAddr) public {\n    _Users = Users(_UsersAddr);\n//    currentUser = _Users.getUserByAddress(msg.sender);\n  }\n\n\n  using RLPReader for bytes;\n  using RLPReader for uint;\n  using RLPReader for RLPReader.RLPItem;\n\n  struct NameValue{\n    string name;\n    string value;\n  }\n\n  struct Claim {\n    uint256 creationDate;\n    uint256 claimId;        // should be 2^48 ~ 100 trillion claims\n    NameValue[] claimData;\n    bool claimType;\n    uint256 memberOwner;    // should be 2^24 ~ 16 million members\n    bool status;\n    uint256 lastChange;\n    uint16[] log;\n    uint16 maxSplit;\n  }\n\n  mapping (uint256 => Claim) private claims_;\n  mapping (uint256 => uint16) private maxSplits_;\n  uint256 constant private PAGE_SIZE = 999;\n  uint256 constant private transactionPrice = 1;\n\n  uint256 private claimIdCounter_ = 0; // has the number of claims ever inserted, including the deleted ones\n  //   uint256[] private claimIdIndex;\n  bool private hasOverlapResult;\n  using strings for *;\n\n  function computeClaim(uint256 _creationDate, bytes _claimData, bool _claimType, uint256 _memberOwner, bool register_or_update,\n    uint256 _claimId, bytes _oldClaimData, uint _lastChange, bool _updateClaimId) public {\n\n//    Users.User memory currentUser = _Users.getUserByAddress(msg.sender);\n//    if (currentUser.tokens > transactionPrice) {\n    if (_Users.getUserTokensByAddress(msg.sender) >= transactionPrice) {\n      _Users.updateTokens(msg.sender, transactionPrice);\n      if (register_or_update) {             // Register new claim.\n        _claimId = ++claimIdCounter_;\n        //    require(claims_[_claimId].claimId == 0, \"Claim already exists\");\n        require(_Users._memberExists(_memberOwner), \"Member do not exists\");\n  //      _memberOwner = _Users._memberIdFromCurrentAddress(msg.sender);\n\n        _saveClaim(_claimId, _creationDate, _claimData, _claimType, _memberOwner, false, _creationDate);\n        _Users._addClaimIdToMemberOwner(_memberOwner, _claimId);\n\n        checkClaimStatus(_claimId, _claimType, _claimData, true);\n      } else {                     // Update existing claim.\n\n        checkClaimStatus(_claimId, _claimType, _oldClaimData, false);\n  //      if (_updateClaimId) {\n  //        checkClaimStatus(updateClaimId(_claimId, _claimData, _memberOwner, _claimType), _claimType, _claimData, true);\n  //        _saveClaim(updateClaimId(_claimId, _claimData, _memberOwner, _claimType), _creationDate, _claimData, _claimType,\n  //          _memberOwner, claims_[_claimId].status, _lastChange);\n  //      } else {\n        checkClaimStatus(_claimId, _claimType, _claimData, true);\n        _saveClaim(_claimId, _creationDate, _claimData, _claimType, _memberOwner, claims_[_claimId].status, _lastChange);\n\n        if (_creationDate == 1) {  // Delete claim.\n          _Users._removeClaimFromMember(_memberOwner, _claimId);\n          if (claims_[_claimId].status) {\n            _Users._removeClaimFromInbox(_memberOwner, _claimId);\n          }\n//            _removeClaimFromMapping(_claimId);\n//            _saveClaim(_claimId, _creationDate, _claimData, _claimType, _memberOwner, claims_[_claimId].status, _lastChange);\n        }\n      }\n    } else {\n      // USER DOES NOT HAVE ENOUGH TOKENS TO SUBMIT THE TRANSACTION.\n    }\n  }\n\n//  function _removeClaimFromMapping(uint claimId) private {\n    // maybe do split = 0% -> already in sound & musical components.OnDelete()\n//  }\n\n  function getTransactionPrice() pure public returns (uint) {\n    return transactionPrice;\n  }\n\n  function getPageSize() pure public returns (uint) {\n    return PAGE_SIZE;\n  }\n\n  function getClaim(uint256 _claimId) view public returns (Claim) {\n    return claims_[_claimId];\n  }\n\n  function getClaimsByMemberId(uint _page) public returns (Claim[] memory) {\n\n    uint256 pageIndex = SafeMath.mul(PAGE_SIZE, _page);\n    Users.User memory currentUser = _Users.getUserByAddress(msg.sender);\n    if (keccak256(currentUser.role) != keccak256(\"Super admin\")) { // If user IS NOT \"Super admin\".\n      uint256 _memberId = _Users._memberIdFromCurrentAddress(msg.sender);\n      uint count = _Users._getClaimsCountByMember(_memberId);\n      uint256 pageNumber = SafeMath.div(count, PAGE_SIZE);\n\n      if (count == 0 || pageIndex > count - 1 || _page > pageNumber) {\n        return;\n      }\n\n      uint256[] memory claimsId = _Users._getClaimsIdByMember(_memberId);\n\n      Claim[] memory _claims = new Claim[](PAGE_SIZE);\n      uint256 returnCounter = 0;\n      for (uint i = pageIndex; i < claimsId.length; ++i) {\n        if(returnCounter < PAGE_SIZE) {\n          _claims[returnCounter] = claims_[claimsId[i]];\n          ++returnCounter;\n        } else {\n          break;\n        }\n      }\n      return _claims;\n    } else {  // If user IS \"Super admin\".\n\n      uint[] memory memberIds = _Users._getMemberIdsOfCurrentCMO(currentUser.cmo, currentUser.memberId);\n      count = 0;\n      for (uint j = 0; j < memberIds.length; ++j) {\n        count += _Users._getClaimsCountByMember(memberIds[j]); // count+count+...+count\n      }\n      pageNumber = SafeMath.div(count, PAGE_SIZE);\n\n      if (count == 0 || pageIndex > count - 1 || _page > pageNumber) {\n        return;\n      }\n\n      uint[] memory allClaimsId = new uint[](count);\n      count = 0;  // now, use it for iterator\n      for (j = 0; j < memberIds.length; ++j) {\n        claimsId = _Users._getClaimsIdByMember(memberIds[j]);\n        for (i=0; i < claimsId.length; ++i) {\n          allClaimsId[count++] = claimsId[i];\n        }\n      }\n\n      _claims = new Claim[](PAGE_SIZE);\n      returnCounter = 0;\n      for (i = pageIndex; i < allClaimsId.length; ++i) {\n        if(returnCounter < PAGE_SIZE) {\n          _claims[returnCounter] = claims_[allClaimsId[i]];\n          ++returnCounter;\n        } else {\n          break;\n        }\n      }\n      return _claims;\n    }\n  }\n\n  function getClaimsCountByMemberId() public returns (uint) {\n    Users.User memory currentUser = _Users.getUserByAddress(msg.sender);\n    if (keccak256(currentUser.role) != keccak256(\"Super admin\")) { // If user IS NOT \"Super admin\".\n      uint256 _memberId = _Users._memberIdFromCurrentAddress(msg.sender);\n      return _Users._getClaimsCountByMember(_memberId);\n    } else {                                                       // If user IS \"Super admin\".\n      uint[] memory memberIds = _Users._getMemberIdsOfCurrentCMO(currentUser.cmo, currentUser.memberId);\n      uint count = 0;\n      for (uint j = 0; j < memberIds.length; ++j) {\n        count += _Users._getClaimsCountByMember(memberIds[j]); // count+count+...+count\n      }\n      return count;\n    }\n  }\n\n  function _saveClaim(uint256 _claimId, uint256 _creationDate, bytes _claimData, bool _claimType,\n    uint _memberOwner, bool _status, uint256 _lastChange) private {\n\n    RLPReader.RLPItem memory item = _claimData.toRlpItem();\n    RLPReader.RLPItem[] memory itemList = item.toList(); // ((name, value), (name, value), (name, value), ...)\n\n    claims_[_claimId].claimId = _claimId;\n    claims_[_claimId].creationDate = _creationDate;\n    claims_[_claimId].claimType = _claimType;\n\n    delete claims_[_claimId].claimData;\n    for(uint i = 0; i < itemList.length; ++i) {\n      RLPReader.RLPItem[] memory itemListClaim = itemList[i].toList(); // (name, value)\n      claims_[_claimId].claimData.push(NameValue(string(itemListClaim[0].toBytes()), string(itemListClaim[1].toBytes())));\n    }\n\n    claims_[_claimId].memberOwner = _memberOwner;\n    claims_[_claimId].lastChange = _lastChange;\n    claims_[_claimId].status = _status;\n  }\n\n  // Old Lib.sol\n//\n//  using RLPReader for bytes;\n//  using RLPReader for uint;\n//  using RLPReader for RLPReader.RLPItem;\n//\n//  struct NameValue{\n//    string name;\n//    string value;\n//  }\n//\n//  struct Claim {\n//    uint256 creationDate;\n//    uint256 claimId;        // should be 2^48 ~ 100 trillion claims\n//    NameValue[] claimData;\n//    bool claimType;\n//    uint256 memberOwner;    // should be 2^24 ~ 16 million members\n//    bool status;\n//    uint256 lastChange;\n//    //    string[] log;\n//    //    uint16 log2;\n//  }\n//\n//  mapping (uint256 => Claim) internal claims_;\n//  mapping (uint256 => uint16) internal maxSplits_;\n//  uint256 constant internal PAGE_SIZE = 10;\n//\n//  uint256 internal claimIdCounter_ = 0; // has the number of claims ever inserted, including the deleted ones\n//  //  uint256[] private claimIdIndex;\n\n  function checkClaimStatus(uint256 _claimId, bool _claimType, bytes _claimData, bool newClaim) private {\n\n    //    if (newClaim) {\n    //      claimIdIndex.push(_claimId);\n    //    }\n    RLPReader.RLPItem memory item = _claimData.toRlpItem();\n    RLPReader.RLPItem[] memory itemList = item.toList();  // ((name0, value0), (name, value), (name, value), ...)\n    uint16 split = uint16(bytesToUint(itemList[5].toList()[1].toBytes()));\n    uint48 startDate = uint48(bytesToUint(itemList[2].toList()[1].toBytes()));\n    uint48 endDate = uint48(bytesToUint(itemList[3].toList()[1].toBytes()));\n\n    maxSplits_[_claimId] = split;\n//    claims_[_claimId].maxSplit.push(maxSplits_[_claimId]);\n    bool prevStatus = claims_[_claimId].status;\n    bool tempMaxSplitOnce = true;\n    for(uint256 i = 1; i <= claimIdCounter_; i++) {\n      if (_claimType == claims_[i].claimType && _claimId != i) {\n        if(keccak256(itemList[0].toList()[1].toBytes()) == keccak256(claims_[i].claimData[0].value) // same ISRC/ISWC\n        && endDate >= uint48(bytesToUint(bytes(claims_[i].claimData[2].value))) // end1 >= start2\n        && startDate <= uint48(bytesToUint(bytes(claims_[i].claimData[3].value))) // start1 <= end2\n        ){\n          if (newClaim) {\n            // claims_[2].log.push('CHECK STATUS TRUE');\n          } else {\n            // claims_[2].log.push('CHECK STATUS FALSE');\n          }\n          // claims_[2].log.push(string(itemList[4].toList()[1].toBytes()));\n          // claims_[2].log.push(string(bytes(claims_[i].claimData[4].value)));\n          hasOverlap(itemList[4].toList()[1].toBytes(), bytes(claims_[i].claimData[4].value)); // useTypes/rightTypes: have at least one common\n          if (hasOverlapResult) {\n            hasOverlap(itemList[1].toList()[1].toBytes(), bytes(claims_[i].claimData[1].value)); // territory: contain at least one common\n            if (hasOverlapResult) {\n              if (newClaim) {\n                if (maxSplits_[i] + split > 100 && maxSplits_[i] != 0 && split != 0) { // set it CONFLICT\n                  if (!prevStatus) {\n                    prevStatus = true;\n                    claims_[_claimId].status = true; // true, means there IS a CONFLICT\n                    _Users._addClaimFromInbox(claims_[_claimId].memberOwner, _claimId);\n                  }\n                  if (!claims_[i].status) {\n                    claims_[i].status = true;\n                    _Users._addClaimFromInbox(claims_[i].memberOwner, claims_[i].claimId);\n                  }\n                } else if (maxSplits_[i] + split <= 100) {\n                  claims_[_claimId].status = false;\n                  claims_[i].status = false;\n                }\n//                if (maxSplits_[i] == 0) {      // claims_[i].claimData[5].value = split = 0\n//                  claims_[i].status = false;\n//                  _Users._removeClaimFromInbox(claims_[i].memberOwner, claims_[i].claimId);\n//                }\n                if (split == 0 && prevStatus) {\n                  prevStatus = false;\n                  claims_[_claimId].status = false;\n                  _Users._removeClaimFromInbox(claims_[_claimId].memberOwner, _claimId);\n                }\n                if (maxSplits_[i] != 0) maxSplits_[i]+=split;                // build maxSplits_[i]\n                if (tempMaxSplitOnce && maxSplits_[i] != 0 && split != 0) {\n                  tempMaxSplitOnce=false;\n                  maxSplits_[_claimId] = maxSplits_[i];\n                }\n                claims_[1].log.push(split);\n                claims_[1].log.push(maxSplits_[i]);\n              } else {\n                if (tempMaxSplitOnce) {\n                  maxSplits_[_claimId]=split;\n                  tempMaxSplitOnce=false;\n                }\n                if (prevStatus) {                                        // set it CLAIMED\n                  claims_[_claimId].status = false;\n                  _Users._removeClaimFromInbox(claims_[_claimId].memberOwner, _claimId);\n                  prevStatus = false;\n                }\n                if (maxSplits_[i] - split <= 100 || maxSplits_[i] == 0) {     // split != 0 here is redundant\n                  if (claims_[i].status) {\n                    claims_[i].status = false;\n                    _Users._removeClaimFromInbox(claims_[i].memberOwner, claims_[i].claimId);\n                  }\n                }\n                if (maxSplits_[i] != 0) maxSplits_[i]-=split;                // recalculate maxSplits_[i]\n                claims_[2].log.push(split);\n                claims_[2].log.push(maxSplits_[i]);\n              }\n              claims_[i].maxSplit = maxSplits_[i];\n            }  // hasOverlapResult territory\n          } // hasOverlapResult: useTypes/rightTypes\n        } // if ISC/start/endDate\n      } // if claimId<>i\n    } // for\n    claims_[_claimId].maxSplit = maxSplits_[_claimId];\n    //    } // if (split == 0)\n  }\n\n  function bytesToUint(bytes s) private pure returns (uint result) {\n    bytes memory b = s;\n    uint i;\n    result = 0;\n    for (i = 0; i < b.length; i++) {\n      uint c = uint(b[i]);\n      if (c >= 48 && c <= 57) {\n        result = result * 10 + (c - 48);\n      }\n    }\n  }\n\n  function hasOverlap(bytes _b1, bytes _b2) private {\n\n    hasOverlapResult = false;\n    var delim = \",\".toSlice();\n    var s1 = string(_b1).toSlice();\n    var parts1 = new string[](s1.count(delim) + 1);\n    for(uint i = 0; i < parts1.length; i++) {\n      parts1[i] = s1.split(delim).toString();\n    }\n    var s2 = string(_b2).toSlice();\n    var parts2 = new string[](s2.count(delim) + 1);\n    for(uint j = 0; j < parts2.length; j++) {\n      parts2[j] = s2.split(delim).toString();\n    }\n\n    for(i = 0; i < parts1.length; i++) {\n      for(j = 0; j < parts2.length; j++) {\n        if (keccak256(parts1[i]) == keccak256(parts2[j])) {\n          hasOverlapResult = true;\n          break;\n        }\n      }\n      if (hasOverlapResult) {\n        break;\n      }\n    }\n\n  }\n\n  function updateClaimId(uint _claimId, bytes _claimData, uint _memberOwner, bool _claimType) private returns (uint) {\n    RLPReader.RLPItem memory item = _claimData.toRlpItem();\n    RLPReader.RLPItem[] memory itemList = item.toList();\n\n    for(uint256 i = 1; i <= claimIdCounter_; i++) {\n      if (_claimType == claims_[i].claimType && _claimId != i) {\n        if(keccak256(abi.encodePacked(itemList[0].toList()[1].toBytes())) == keccak256(abi.encodePacked(claims_[i].claimData[0].value)) // same ISRC/ISWC\n        && keccak256(abi.encodePacked(itemList[1].toList()[1].toBytes())) == keccak256(abi.encodePacked(claims_[i].claimData[1].value)) // same countries\n        && keccak256(abi.encodePacked(itemList[2].toList()[1].toBytes())) == keccak256(abi.encodePacked(claims_[i].claimData[2].value)) // same startDate\n        && keccak256(abi.encodePacked(itemList[3].toList()[1].toBytes())) == keccak256(abi.encodePacked(claims_[i].claimData[3].value)) // same endDate\n        && keccak256(abi.encodePacked(itemList[4].toList()[1].toBytes())) == keccak256(abi.encodePacked(claims_[i].claimData[4].value)) // same use/right-Types\n        && keccak256(abi.encodePacked(itemList[5].toList()[1].toBytes())) == keccak256(abi.encodePacked(claims_[i].claimData[5].value)) // same split\n        && _memberOwner == claims_[i].memberOwner                                                                                       // same memberOwner\n        ){\n          return i;\n        }\n      }\n    }\n    return ++claimIdCounter_;\n  }\n}\n",
  "sourcePath": "/home/komodo/newUI2/bloomen-decentralized-rights-management-v2/truffle/contracts/registry/Claims.sol",
  "compiler": {
    "name": "solc",
    "version": "0.4.24+commit.e67f0147.Emscripten.clang"
  },
  "schemaVersion": "2.0.1",
  "updatedAt": "2020-06-22T13:36:20.018Z"
}