{
  "contractName": "Claims",
  "abi": [
    {
      "inputs": [
        {
          "name": "_UsersAddr",
          "type": "address"
        }
      ],
      "payable": false,
      "stateMutability": "nonpayable",
      "type": "constructor"
    },
    {
      "constant": false,
      "inputs": [
        {
          "name": "_creationDate",
          "type": "uint256"
        },
        {
          "name": "_claimData",
          "type": "bytes"
        },
        {
          "name": "_claimType",
          "type": "bool"
        },
        {
          "name": "_memberOwner",
          "type": "uint256"
        },
        {
          "name": "register_or_update",
          "type": "bool"
        },
        {
          "name": "_claimId",
          "type": "uint256"
        },
        {
          "name": "_oldClaimData",
          "type": "bytes"
        },
        {
          "name": "_lastChange",
          "type": "uint256"
        },
        {
          "name": "_updateClaimId",
          "type": "bool"
        }
      ],
      "name": "computeClaim",
      "outputs": [],
      "payable": false,
      "stateMutability": "nonpayable",
      "type": "function"
    },
    {
      "constant": true,
      "inputs": [],
      "name": "getTransactionPrice",
      "outputs": [
        {
          "name": "",
          "type": "uint256"
        }
      ],
      "payable": false,
      "stateMutability": "pure",
      "type": "function"
    },
    {
      "constant": true,
      "inputs": [
        {
          "name": "_claimId",
          "type": "uint256"
        }
      ],
      "name": "getClaim",
      "outputs": [
        {
          "components": [
            {
              "name": "creationDate",
              "type": "uint256"
            },
            {
              "name": "claimId",
              "type": "uint256"
            },
            {
              "components": [
                {
                  "name": "name",
                  "type": "string"
                },
                {
                  "name": "value",
                  "type": "string"
                }
              ],
              "name": "claimData",
              "type": "tuple[]"
            },
            {
              "name": "claimType",
              "type": "bool"
            },
            {
              "name": "memberOwner",
              "type": "uint256"
            },
            {
              "name": "status",
              "type": "bool"
            },
            {
              "name": "lastChange",
              "type": "uint256"
            },
            {
              "name": "log",
              "type": "uint16[]"
            },
            {
              "name": "maxSplit",
              "type": "uint16"
            }
          ],
          "name": "",
          "type": "tuple"
        }
      ],
      "payable": false,
      "stateMutability": "view",
      "type": "function"
    },
    {
      "constant": false,
      "inputs": [
        {
          "name": "_page",
          "type": "uint256"
        }
      ],
      "name": "getClaimsByMemberId",
      "outputs": [
        {
          "components": [
            {
              "name": "creationDate",
              "type": "uint256"
            },
            {
              "name": "claimId",
              "type": "uint256"
            },
            {
              "components": [
                {
                  "name": "name",
                  "type": "string"
                },
                {
                  "name": "value",
                  "type": "string"
                }
              ],
              "name": "claimData",
              "type": "tuple[]"
            },
            {
              "name": "claimType",
              "type": "bool"
            },
            {
              "name": "memberOwner",
              "type": "uint256"
            },
            {
              "name": "status",
              "type": "bool"
            },
            {
              "name": "lastChange",
              "type": "uint256"
            },
            {
              "name": "log",
              "type": "uint16[]"
            },
            {
              "name": "maxSplit",
              "type": "uint16"
            }
          ],
          "name": "",
          "type": "tuple[]"
        }
      ],
      "payable": false,
      "stateMutability": "nonpayable",
      "type": "function"
    },
    {
      "constant": false,
      "inputs": [],
      "name": "getClaimsCountByMemberId",
      "outputs": [
        {
          "name": "",
          "type": "uint256"
        }
      ],
      "payable": false,
      "stateMutability": "nonpayable",
      "type": "function"
    }
  ],
  "bytecode": "0x608060405260006003553480156200001657600080fd5b5060405160208062003b62833981018060405262000038919081019062000073565b60008054600160a060020a031916600160a060020a0392909216919091179055620000a8565b60006200006c82516200009c565b9392505050565b6000602082840312156200008657600080fd5b60006200009484846200005e565b949350505050565b600160a060020a031690565b613aaa80620000b86000396000f3006080604052600436106100535763ffffffff60e060020a6000350416630e606cef81146100585780631be8850b1461007a5780635aef2447146100a55780636a0c8730146100d2578063b6bc3812146100e7575b600080fd5b34801561006457600080fd5b50610078610073366004613550565b610114565b005b34801561008657600080fd5b5061008f610511565b60405161009c919061396d565b60405180910390f35b3480156100b157600080fd5b506100c56100c0366004613514565b610915565b60405161009c919061395c565b3480156100de57600080fd5b5061008f610b9a565b3480156100f357600080fd5b50610107610102366004613514565b610ba0565b60405161009c919061391b565b6000546040517f9249d753000000000000000000000000000000000000000000000000000000008152600191600160a060020a031690639249d7539061015e9033906004016138ec565b602060405180830381600087803b15801561017857600080fd5b505af115801561018c573d6000803e3d6000fd5b505050506040513d601f19601f820116820180604052506101b09190810190613532565b1115610506576000546040517f67e482ad000000000000000000000000000000000000000000000000000000008152600160a060020a03909116906367e482ad90610202903390600190600401613900565b600060405180830381600087803b15801561021c57600080fd5b505af1158015610230573d6000803e3d6000fd5b5050505084156103c15760038054600101908190556000546040517ff8380733000000000000000000000000000000000000000000000000000000008152919550600160a060020a03169063f83807339061028f90899060040161396d565b602060405180830381600087803b1580156102a957600080fd5b505af11580156102bd573d6000803e3d6000fd5b505050506040513d601f19601f820116820180604052506102e191908101906134c1565b1515610322576040517f08c379a00000000000000000000000000000000000000000000000000000000081526004016103199061394c565b60405180910390fd5b610332848a8a8a8a60008f61183e565b6000546040517fe2c11f9e000000000000000000000000000000000000000000000000000000008152600160a060020a039091169063e2c11f9e9061037d908990889060040161397b565b600060405180830381600087803b15801561039757600080fd5b505af11580156103ab573d6000803e3d6000fd5b505050506103bc84888a60016119b9565b610506565b6103ce84888560006119b9565b6103db84888a60016119b9565b6000848152600160205260409020600501546104049085908b908b908b908b9060ff168861183e565b881515610506576000546040517fbb03b706000000000000000000000000000000000000000000000000000000008152600160a060020a039091169063bb03b70690610456908990889060040161397b565b600060405180830381600087803b15801561047057600080fd5b505af1158015610484573d6000803e3d6000fd5b50506000546040517f8b92892b000000000000000000000000000000000000000000000000000000008152600160a060020a039091169250638b92892b91506104d3908990889060040161397b565b600060405180830381600087803b1580156104ed57600080fd5b505af1158015610501573d6000803e3d6000fd5b505050505b505050505050505050565b600061051b612f3d565b600080546040517f69c212f600000000000000000000000000000000000000000000000000000000815260609183918291600160a060020a0316906369c212f69061056a9033906004016138ec565b600060405180830381600087803b15801561058457600080fd5b505af1158015610598573d6000803e3d6000fd5b505050506040513d6000823e601f3d908101601f191682016040526105c091908101906134df565b604080517f53757065722061646d696e0000000000000000000000000000000000000000008152905190819003600b01812060a083015180519398509092909190819060208401908083835b6020831061062b5780518252601f19909201916020918201910161060c565b6001836020036101000a0380198251168184511680821785525050505050509050019150506040518091039020600019161415156107a1576000546040517feff34e59000000000000000000000000000000000000000000000000000000008152600160a060020a039091169063eff34e59906106ac9033906004016138ec565b602060405180830381600087803b1580156106c657600080fd5b505af11580156106da573d6000803e3d6000fd5b505050506040513d601f19601f820116820180604052506106fe9190810190613532565b6000546040517faffccd84000000000000000000000000000000000000000000000000000000008152919550600160a060020a03169063affccd849061074890879060040161396d565b602060405180830381600087803b15801561076257600080fd5b505af1158015610776573d6000803e3d6000fd5b505050506040513d601f19601f8201168201806040525061079a9190810190613532565b955061090d565b60005461010086015160608701516040517f989359df000000000000000000000000000000000000000000000000000000008152600160a060020a039093169263989359df926107f592909160040161392c565b600060405180830381600087803b15801561080f57600080fd5b505af1158015610823573d6000803e3d6000fd5b505050506040513d6000823e601f3d908101601f1916820160405261084b9190810190613484565b925060009150600090505b8251811015610909576000548351600160a060020a039091169063affccd849085908490811061088257fe5b906020019060200201516040518263ffffffff1660e060020a0281526004016108ab919061396d565b602060405180830381600087803b1580156108c557600080fd5b505af11580156108d9573d6000803e3d6000fd5b505050506040513d601f19601f820116820180604052506108fd9190810190613532565b90910190600101610856565b8195505b505050505090565b61091d612fac565b6000828152600160208181526040808420815161012081018352815481529381015484840152600281018054835181860281018601855281815295969295938701949192909184015b82821015610ac45760008481526020908190206040805160028681029093018054600181161561010002600019011693909304601f810185900490940281016060908101835291810184815290938492849190840182828015610a0a5780601f106109df57610100808354040283529160200191610a0a565b820191906000526020600020905b8154815290600101906020018083116109ed57829003601f168201915b50505050508152602001600182018054600181600116156101000203166002900480601f016020809104026020016040519081016040528092919081815260200182805460018160011615610100020316600290048015610aac5780601f10610a8157610100808354040283529160200191610aac565b820191906000526020600020905b815481529060010190602001808311610a8f57829003601f168201915b50505050508152505081526020019060010190610966565b50505090825250600382015460ff908116151560208084019190915260048401546040808501919091526005850154909216151560608401526006840154608084015260078401805483518184028101840190945280845260a0909401939091830182828015610b7b57602002820191906000526020600020906000905b82829054906101000a900461ffff1661ffff1681526020019060020190602082600101049283019260010382029150808411610b425790505b50505091835250506008919091015461ffff1660209091015292915050565b60015b90565b60606000610bac612f3d565b6000806000606080600080606060006060610bc96103e78f6125c9565b6000546040517f69c212f6000000000000000000000000000000000000000000000000000000008152919d50600160a060020a0316906369c212f690610c139033906004016138ec565b600060405180830381600087803b158015610c2d57600080fd5b505af1158015610c41573d6000803e3d6000fd5b505050506040513d6000823e601f3d908101601f19168201604052610c6991908101906134df565b604080517f53757065722061646d696e0000000000000000000000000000000000000000008152905190819003600b01812060a08301518051939e509092909190819060208401908083835b60208310610cd45780518252601f199092019160209182019101610cb5565b6001836020036101000a038019825116818451168082178552505050505050905001915050604051809103902060001916141515611240576000546040517feff34e59000000000000000000000000000000000000000000000000000000008152600160a060020a039091169063eff34e5990610d559033906004016138ec565b602060405180830381600087803b158015610d6f57600080fd5b505af1158015610d83573d6000803e3d6000fd5b505050506040513d601f19601f82011682018060405250610da79190810190613532565b6000546040517faffccd84000000000000000000000000000000000000000000000000000000008152919b50600160a060020a03169063affccd8490610df1908d9060040161396d565b602060405180830381600087803b158015610e0b57600080fd5b505af1158015610e1f573d6000803e3d6000fd5b505050506040513d601f19601f82011682018060405250610e439190810190613532565b9850610e51896103e7612602565b9750881580610e625750600189038c115b80610e6c5750878e115b15610e765761182d565b6000546040517f6262dff6000000000000000000000000000000000000000000000000000000008152600160a060020a0390911690636262dff690610ebf908d9060040161396d565b600060405180830381600087803b158015610ed957600080fd5b505af1158015610eed573d6000803e3d6000fd5b505050506040513d6000823e601f3d908101601f19168201604052610f159190810190613484565b604080516103e7808252617d008201909252919850816020015b610f37612fac565b815260200190600190039081610f2f579050509550600094508b93505b8651841015611238576103e785101561122857600160008886815181101515610f7957fe5b9060200190602002015181526020019081526020016000206101206040519081016040529081600082015481526020016001820154815260200160028201805480602002602001604051908101604052809291908181526020016000905b828210156111355760008481526020908190206040805160028681029093018054600181161561010002600019011693909304601f81018590049094028101606090810183529181018481529093849284919084018282801561107b5780601f106110505761010080835404028352916020019161107b565b820191906000526020600020905b81548152906001019060200180831161105e57829003601f168201915b50505050508152602001600182018054600181600116156101000203166002900480601f01602080910402602001604051908101604052809291908181526020018280546001816001161561010002031660029004801561111d5780601f106110f25761010080835404028352916020019161111d565b820191906000526020600020905b81548152906001019060200180831161110057829003601f168201915b50505050508152505081526020019060010190610fd7565b50505090825250600382015460ff908116151560208084019190915260048401546040808501919091526005850154909216151560608401526006840154608084015260078401805483518184028101840190945280845260a09094019390918301828280156111ec57602002820191906000526020600020906000905b82829054906101000a900461ffff1661ffff16815260200190600201906020826001010492830192600103820291508084116111b35790505b50505091835250506008919091015461ffff16602090910152865187908790811061121357fe5b6020908102909101015260019094019361122d565b611238565b836001019350610f54565b859c5061182d565b6000546101008c015160608d01516040517f989359df000000000000000000000000000000000000000000000000000000008152600160a060020a039093169263989359df9261129492909160040161392c565b600060405180830381600087803b1580156112ae57600080fd5b505af11580156112c2573d6000803e3d6000fd5b505050506040513d6000823e601f3d908101601f191682016040526112ea9190810190613484565b925060009850600091505b82518210156113ab576000548351600160a060020a039091169063affccd849085908590811061132157fe5b906020019060200201516040518263ffffffff1660e060020a02815260040161134a919061396d565b602060405180830381600087803b15801561136457600080fd5b505af1158015611378573d6000803e3d6000fd5b505050506040513d601f19601f8201168201806040525061139c9190810190613532565b890198508160010191506112f5565b6113b7896103e7612602565b97508815806113c85750600189038c115b806113d25750878e115b156113dc5761182d565b88604051908082528060200260200182016040528015611406578160200160208202803883390190505b50905060009850600091505b8251821015611516576000548351600160a060020a0390911690636262dff69085908590811061143e57fe5b906020019060200201516040518263ffffffff1660e060020a028152600401611467919061396d565b600060405180830381600087803b15801561148157600080fd5b505af1158015611495573d6000803e3d6000fd5b505050506040513d6000823e601f3d908101601f191682016040526114bd9190810190613484565b9650600093505b865184101561150b5786848151811015156114db57fe5b60209081029091010151815160018b019a839181106114f657fe5b602090810290910101526001909301926114c4565b816001019150611412565b604080516103e7808252617d00820190925290816020015b611536612fac565b81526020019060019003908161152e579050509550600094508b93505b8051841015611238576103e78510156112285760016000828681518110151561157857fe5b9060200190602002015181526020019081526020016000206101206040519081016040529081600082015481526020016001820154815260200160028201805480602002602001604051908101604052809291908181526020016000905b828210156117345760008481526020908190206040805160028681029093018054600181161561010002600019011693909304601f81018590049094028101606090810183529181018481529093849284919084018282801561167a5780601f1061164f5761010080835404028352916020019161167a565b820191906000526020600020905b81548152906001019060200180831161165d57829003601f168201915b50505050508152602001600182018054600181600116156101000203166002900480601f01602080910402602001604051908101604052809291908181526020018280546001816001161561010002031660029004801561171c5780601f106116f15761010080835404028352916020019161171c565b820191906000526020600020905b8154815290600101906020018083116116ff57829003601f168201915b505050505081525050815260200190600101906115d6565b50505090825250600382015460ff908116151560208084019190915260048401546040808501919091526005850154909216151560608401526006840154608084015260078401805483518184028101840190945280845260a09094019390918301828280156117eb57602002820191906000526020600020906000905b82829054906101000a900461ffff1661ffff16815260200190600201906020826001010492830192600103820291508084116117b25790505b50505091835250506008919091015461ffff16602090910152865187908790811061181257fe5b60209081029091010152600190940193836001019350611553565b505050505050505050505050919050565b611846613001565b60606000606061185589612625565b935061186084612676565b60008c815260016020819052604082209081018e90558c815560038101805460ff19168c15151790559194506118999160020190613018565b600091505b825182101561197e576118c783838151811015156118b857fe5b90602001906020020151612676565b9050600160008c8152602001908152602001600020600201604080519081016040528061190b8460008151811015156118fc57fe5b90602001906020020151612749565b81526020016119228460018151811015156118fc57fe5b905281546001810180845560009384526020938490208351805192956002909402909101926119569284929091019061303c565b50602082810151805161196f926001850192019061303c565b5050505081600101915061189e565b5050506000978852506001602052604090962060048101929092556006820195909555600501805460ff191694151594909417909355505050565b6119c1613001565b60606000806000806000806119d58a612625565b97506119e088612676565b9650611a0c611a076119fa8960058151811015156118b857fe5b805160019081106118fc57fe5b6127bb565b9550611a26611a076119fa8960028151811015156118b857fe5b9450611a40611a076119fa8960038151811015156118b857fe5b60008d8152600260209081526040808320805461ffff191661ffff8c161790556001918290529091206005015491955060ff909116935091508190505b600354811161258b5760008181526001602052604090206003015460ff1615158b1515148015611aad5750808c14155b1561258357600081815260016020526040812060020180549091908110611ad057fe5b90600052602060002090600202016001016040518082805460018160011615610100020316600290048015611b3c5780601f10611b1a576101008083540402835291820191611b3c565b820191906000526020600020905b815481529060010190602001808311611b28575b5050915050604051809103902060001916611b626119fa8960008151811015156118b857fe5b6040518082805190602001908083835b60208310611b915780518252601f199092019160209182019101611b72565b6001836020036101000a038019825116818451168082178552505050505050905001915050604051809103902060001916148015611caf5750600081815260016020526040902060029081018054611c9b92908110611bec57fe5b90600052602060002090600202016001018054600181600116156101000203166002900480601f016020809104026020016040519081016040528092919081815260200182805460018160011615610100020316600290048015611c915780601f10611c6657610100808354040283529160200191611c91565b820191906000526020600020905b815481529060010190602001808311611c7457829003601f168201915b50505050506127bb565b65ffffffffffff168465ffffffffffff1610155b8015611ced575060008181526001602052604090206002018054611cd991906003908110611bec57fe5b65ffffffffffff168565ffffffffffff1611155b1561258357611dd7611d0a6119fa8960048151811015156118b857fe5b600083815260016020526040902060020180546004908110611d2857fe5b90600052602060002090600202016001018054600181600116156101000203166002900480601f016020809104026020016040519081016040528092919081815260200182805460018160011615610100020316600290048015611dcd5780601f10611da257610100808354040283529160200191611dcd565b820191906000526020600020905b815481529060010190602001808311611db057829003601f168201915b505050505061283d565b60045460ff161561258357611e1b611dfa6119fa8960018151811015156118b857fe5b600083815260016020819052604090912060020180549091908110611d2857fe5b60045460ff161561258357881561227b57600081815260026020526040902054606461ffff9182168801909116118015611e66575060008181526002602052604090205461ffff1615155b8015611e75575061ffff861615155b1561200357821515611f41576001925060018060008e815260200190815260200160002060050160006101000a81548160ff0219169083151502179055506000809054906101000a9004600160a060020a0316600160a060020a03166374853239600160008f8152602001908152602001600020600401548e6040518363ffffffff1660e060020a028152600401611f0e92919061397b565b600060405180830381600087803b158015611f2857600080fd5b505af1158015611f3c573d6000803e3d6000fd5b505050505b60008181526001602052604090206005015460ff161515611ffe57600081815260016020819052604080832060058101805460ff1916841790559254600480850154949093015491517f74853239000000000000000000000000000000000000000000000000000000008152600160a060020a0390911693637485323993611fcb9391920161397b565b600060405180830381600087803b158015611fe557600080fd5b505af1158015611ff9573d6000803e3d6000fd5b505050505b612055565b600081815260026020526040902054606461ffff9182168801909116116120555760008c8152600160205260408082206005908101805460ff1990811690915584845291909220909101805490911690555b61ffff86161580156120645750825b1561212a57600092506000600160008e815260200190815260200160002060050160006101000a81548160ff0219169083151502179055506000809054906101000a9004600160a060020a0316600160a060020a0316638b92892b600160008f8152602001908152602001600020600401548e6040518363ffffffff1660e060020a0281526004016120f792919061397b565b600060405180830381600087803b15801561211157600080fd5b505af1158015612125573d6000803e3d6000fd5b505050505b60008181526002602052604090205461ffff1615612166576000818152600260205260409020805461ffff80821689011661ffff199091161790555b818015612184575060008181526002602052604090205461ffff1615155b8015612193575061ffff861615155b156121c457600081815260026020526040808220548e8352908220805461ffff191661ffff90921691909117905591505b7fcc69885fda6bcc1a4ace058b4a62bf5e179ea78fd58a1ccd71c22cc9b688793680546001818101835560108083047f29738be296375cd8b9d50c7633d5efbca2468f7bcc2abfa74afc7ff07447a847908101805461ffff808e166002600f988916810261010090810a928302928402199094169190911790935560008981526020849052604081205489549788018a5598905293850490920180549490951602900a938116840293021916919091179055612552565b81156122a15760008c8152600260205260408120805461ffff191661ffff891617905591505b8215612368576000600160008e815260200190815260200160002060050160006101000a81548160ff0219169083151502179055506000809054906101000a9004600160a060020a0316600160a060020a0316638b92892b600160008f8152602001908152602001600020600401548e6040518363ffffffff1660e060020a02815260040161233192919061397b565b600060405180830381600087803b15801561234b57600080fd5b505af115801561235f573d6000803e3d6000fd5b50505050600092505b600081815260026020526040902054606461ffff9182168890039091161115806123a2575060008181526002602052604090205461ffff16155b156124615760008181526001602052604090206005015460ff161561246157600081815260016020819052604080832060058101805460ff191690559254600480850154949093015491517f8b92892b000000000000000000000000000000000000000000000000000000008152600160a060020a0390911693638b92892b9361242e9391920161397b565b600060405180830381600087803b15801561244857600080fd5b505af115801561245c573d6000803e3d6000fd5b505050505b60008181526002602052604090205461ffff161561249e576000818152600260205260409020805461ffff8082168990031661ffff199091161790555b7fd9d16d34ffb15ba3a3d852f0d403e2ce1d691fb54de27ac87cd2f993f3ec331680546001818101835560108083047f7dc3c3fd58e05b20637dc07eb76e4004c234578ea6f56d29de554f11205e0741908101805461ffff808e16600f978816600290810261010090810a928302928402199094169190911790935560008981526020849052604081205489549788018a5598905293850490920180549490951602900a9381168402930219169190911790555b6000818152600260209081526040808320546001909252909120600801805461ffff191661ffff9092169190911790555b600101611a7d565b50505060009889525050600260209081526040808920546001909252909720600801805461ffff191661ffff90981697909717909655505050505050565b6000808315156125dc57600091506125fb565b508282028284828115156125ec57fe5b04146125f757600080fd5b8091505b5092915050565b60008080831161261157600080fd5b828481151561261c57fe5b04949350505050565b61262d613001565b60008251600014156126545760408051808201909152600080825260208201529150612670565b5050604080518082019091528151815260208281019082018190525b50919050565b606060008060008061268786612b1d565b151561269257600080fd5b61269b86612b4c565b9350836040519080825280602002602001820160405280156126d757816020015b6126c4613001565b8152602001906001900390816126bc5790505b5094506126e78660200151612b9c565b8660200151019250600090505b838110156127405761270583612bff565b9150604080519081016040528083815260200184815250858281518110151561272a57fe5b60209081029091010152918101916001016126f4565b50505050919050565b60606000806060600061275f8660200151612b9c565b9350838660000151039250826040519080825280601f01601f191660200182016040528015612798578160200160208202803883390190505b5091508160200190506127b2848760200151018285612c90565b50949350505050565b60008181805b82518210156128355782828151811015156127d857fe5b01602001517f010000000000000000000000000000000000000000000000000000000000000090819004810204905060308110801590612819575060398111155b1561282a576030810384600a020193505b6001909101906127c1565b505050919050565b612845613001565b61284d613001565b60606000612859613001565b6004805460ff1916905560408051808201909152600181527f2c0000000000000000000000000000000000000000000000000000000000000060208201526060906000906128a690612cd7565b96506128b189612cd7565b95506128c3868863ffffffff612cfd16565b6001016040519080825280602002602001820160405280156128f957816020015b60608152602001906001900390816128e45790505b509450600093505b84518410156129455761292261291d878963ffffffff612d6316565b612d76565b858581518110151561293057fe5b60209081029091010152600190930192612901565b61294e88612cd7565b9250612960838863ffffffff612cfd16565b60010160405190808252806020026020018201604052801561299657816020015b60608152602001906001900390816129815790505b509150600090505b81518110156129da576129ba61291d848963ffffffff612d6316565b82828151811015156129c857fe5b6020908102909101015260010161299e565b600093505b8451841015610506575060005b8151811015612b02578181815181101515612a0357fe5b906020019060200201516040518082805190602001908083835b60208310612a3c5780518252601f199092019160209182019101612a1d565b5181516020939093036101000a6000190180199091169216919091179052604051920182900390912088519093508892508791508110612a7857fe5b906020019060200201516040518082805190602001908083835b60208310612ab15780518252601f199092019160209182019101612a92565b6001836020036101000a0380198251168184511680821785525050505050509050019150506040518091039020600019161415612afa576004805460ff19166001179055612b02565b6001016129ec565b60045460ff1615612b1257610506565b6001909301926129df565b6020810151805160009190821a9060c060ff83161015612b405760009250612b45565b600192505b5050919050565b60008060008060009250612b638560200151612b9c565b6020860151865191810193500190505b80821015612b9357612b8482612bff565b60019093019290910190612b73565b50909392505050565b8051600090811a6080811015612bb55760009150612670565b60b8811080612bd0575060c08110801590612bd0575060f881105b15612bde5760019150612670565b60c0811015612bf35760b51981019150612670565b60f51981019150612670565b8051600090811a6080811015612c185760019150612670565b60b8811015612c2d57607e1981019150612670565b60c0811015612c5a5760b78103600184019350806020036101000a84510460018201810193505050612670565b60f8811015612c6f5760be1981019150612670565b60019290920151602083900360f7016101000a900490910160f51901919050565b60005b60208210612cb5578351835260209384019390920191601f1990910190612c93565b50915181516020939093036101000a6000190180199091169216919091179052565b612cdf613001565b50604080518082019091528151815260209182019181019190915290565b6000808260000151612d218560000151866020015186600001518760200151612dc9565b0190505b835160208501510181116125fb578251602080860151865191860151600190950194612d5b929185039091039084908490612dc9565b019050612d25565b612d6b613001565b6125fb838383612e89565b606080600083600001516040519080825280601f01601f191660200182016040528015612dad578160200160208202803883390190505b5091506020820190506125fb8185602001518660000151612ef9565b600083818080808080808c8b11612e735760208b11612e3c5760018b60200360080260020a03196001029550858a511694508a8d8d010393508588511692505b828514612e3457838810612e21578c8c019850612e79565b8780600101985050858851169250612e09565b879850612e79565b8a8a209150600096505b8a8d038711612e73575089872081811415612e6357879850612e79565b6001978801979690960195612e46565b8c8c0198505b5050505050505050949350505050565b612e91613001565b6000612eaf8560000151866020015186600001518760200151612dc9565b60208087018051918601919091528051820385528651905191925001811415612edb5760008552612b93565b83518351865191019003855283518101602086015250909392505050565b60005b60208210612f1e578251845260209384019390920191601f1990910190612efc565b50905182516020929092036101000a6000190180199091169116179052565b6101606040519081016040528060008152602001606081526020016060815260200160008152602001600081526020016060815260200160006002811115612f8157fe5b81526020016000600160a060020a031681526020016060815260200160608152602001600081525090565b61012060405190810160405280600081526020016000815260200160608152602001600015158152602001600081526020016000151581526020016000815260200160608152602001600061ffff1681525090565b604080518082019091526000808252602082015290565b508054600082556002029060005260206000209081019061303991906130ba565b50565b828054600181600116156101000203166002900490600052602060002090601f016020900481019282601f1061307d57805160ff19168380011785556130aa565b828001600101855582156130aa579182015b828111156130aa57825182559160200191906001019061308f565b506130b69291506130eb565b5090565b610b9d91905b808211156130b65760006130d48282613105565b6130e2600183016000613105565b506002016130c0565b610b9d91905b808211156130b657600081556001016130f1565b50805460018160011615610100020316600290046000825580601f1061312b5750613039565b601f01602090049060005260206000209081019061303991906130eb565b60006131558251613a03565b9392505050565b6000601f8201831361316d57600080fd5b815161318061317b826139b0565b613989565b81815260209384019390925082018360005b838110156131be57815186016131a888826132ab565b8452506020928301929190910190600101613192565b5050505092915050565b6000601f820183136131d957600080fd5b81516131e761317b826139b0565b9150818183526020840193506020810190508385602084028201111561320c57600080fd5b60005b838110156131be57816132228882613478565b845250602092830192919091019060010161320f565b60006131558235613a0f565b60006131558251613a0f565b6000601f8201831361326157600080fd5b813561326f61317b826139d1565b9150808252602083016020830185838301111561328b57600080fd5b613296838284613a2a565b50505092915050565b60006131558251613a1b565b6000601f820183136132bc57600080fd5b81516132ca61317b826139d1565b915080825260208301602083018583830111156132e657600080fd5b613296838284613a36565b6000610160828403121561330457600080fd5b61330f610160613989565b9050600061331d8484613478565b825250602082015167ffffffffffffffff81111561333a57600080fd5b613346848285016132ab565b602083015250604082015167ffffffffffffffff81111561336657600080fd5b613372848285016132ab565b604083015250606061338684828501613478565b606083015250608061339a84828501613478565b60808301525060a082015167ffffffffffffffff8111156133ba57600080fd5b6133c6848285016132ab565b60a08301525060c06133da8482850161329f565b60c08301525060e06133ee84828501613149565b60e08301525061010082015167ffffffffffffffff81111561340f57600080fd5b61341b848285016132ab565b6101008301525061012082015167ffffffffffffffff81111561343d57600080fd5b6134498482850161315c565b6101208301525061014061345f84828501613478565b6101408301525092915050565b60006131558235610b9d565b60006131558251610b9d565b60006020828403121561349657600080fd5b815167ffffffffffffffff8111156134ad57600080fd5b6134b9848285016131c8565b949350505050565b6000602082840312156134d357600080fd5b60006134b98484613244565b6000602082840312156134f157600080fd5b815167ffffffffffffffff81111561350857600080fd5b6134b9848285016132f1565b60006020828403121561352657600080fd5b60006134b9848461346c565b60006020828403121561354457600080fd5b60006134b98484613478565b60008060008060008060008060006101208a8c03121561356f57600080fd5b600061357b8c8c61346c565b99505060208a013567ffffffffffffffff81111561359857600080fd5b6135a48c828d01613250565b98505060406135b58c828d01613238565b97505060606135c68c828d0161346c565b96505060806135d78c828d01613238565b95505060a06135e88c828d0161346c565b94505060c08a013567ffffffffffffffff81111561360557600080fd5b6136118c828d01613250565b93505060e06136228c828d0161346c565b9250506101006136348c828d01613238565b9150509295985092959850929598565b61364d81613a03565b82525050565b600061365e826139ff565b80845260208401935083602082028501613677856139f9565b60005b848110156136ae5783830388526136928383516137da565b925061369d826139f9565b60209890980197915060010161367a565b50909695505050505050565b60006136c5826139ff565b808452602084019350836020820285016136de856139f9565b60005b848110156136ae5783830388526136f983835161389f565b9250613704826139f9565b6020989098019791506001016136e1565b6000613720826139ff565b808452602084019350613732836139f9565b60005b82811015613762576137488683516138da565b613751826139f9565b602096909601959150600101613735565b5093949350505050565b61364d81613a0f565b6000613780826139ff565b808452613794816020860160208601613a36565b61379d81613a66565b9093016020019392505050565b601481527f4d656d62657220646f206e6f7420657869737473000000000000000000000000602082015260400190565b80516000906101208401906137ef85826138e3565b50602083015161380260208601826138e3565b506040830151848203604086015261381a82826136ba565b915050606083015161382f606086018261376c565b50608083015161384260808601826138e3565b5060a083015161385560a086018261376c565b5060c083015161386860c08601826138e3565b5060e083015184820360e08601526138808282613715565b9150506101008301516138976101008601826138da565b509392505050565b80516040808452600091908401906138b78282613775565b915050602083015184820360208601526138d18282613775565b95945050505050565b61364d81613a14565b61364d81610b9d565b602081016138fa8284613644565b92915050565b6040810161390e8285613644565b61315560208301846138e3565b602080825281016131558184613653565b6040808252810161393d8185613775565b905061315560208301846138e3565b602080825281016138fa816137aa565b6020808252810161315581846137da565b602081016138fa82846138e3565b6040810161390e82856138e3565b60405181810167ffffffffffffffff811182821017156139a857600080fd5b604052919050565b600067ffffffffffffffff8211156139c757600080fd5b5060209081020190565b600067ffffffffffffffff8211156139e857600080fd5b506020601f91909101601f19160190565b60200190565b5190565b600160a060020a031690565b151590565b61ffff1690565b6000600382106130b657600080fd5b82818337506000910152565b60005b83811015613a51578181015183820152602001613a39565b83811115613a60576000848401525b50505050565b601f01601f1916905600a265627a7a7230582083ce9bdccd9a14a344bf88b4bc999c503af88e472b003c9b6a5bf468a8f7b7676c6578706572696d656e74616cf50037",
  "source": "pragma solidity ^0.4.24;\npragma experimental ABIEncoderV2;\n\nimport \"./SafeMath.sol\";\nimport \"./RLPReader.sol\";\nimport \"./Users.sol\";\nimport \"./strings.sol\";\n\ncontract Claims {\n\n  Users private _Users;\n//  Users.User private currentUser;\n\n  constructor (address _UsersAddr) public {\n    _Users = Users(_UsersAddr);\n//    currentUser = _Users.getUserByAddress(msg.sender);\n  }\n\n\n  using RLPReader for bytes;\n  using RLPReader for uint;\n  using RLPReader for RLPReader.RLPItem;\n\n  struct NameValue{\n    string name;\n    string value;\n  }\n\n  struct Claim {\n    uint256 creationDate;\n    uint256 claimId;        // should be 2^48 ~ 100 trillion claims\n    NameValue[] claimData;\n    bool claimType;\n    uint256 memberOwner;    // should be 2^24 ~ 16 million members\n    bool status;\n    uint256 lastChange;\n    uint16[] log;\n    uint16 maxSplit;\n  }\n\n  mapping (uint256 => Claim) private claims_;\n  mapping (uint256 => uint16) private maxSplits_;\n  uint256 constant private PAGE_SIZE = 999;\n  uint256 constant private transactionPrice = 1;\n\n  uint256 private claimIdCounter_ = 0; // has the number of claims ever inserted, including the deleted ones\n  //   uint256[] private claimIdIndex;\n  bool private hasOverlapResult;\n  using strings for *;\n\n  function computeClaim(uint256 _creationDate, bytes _claimData, bool _claimType, uint256 _memberOwner, bool register_or_update,\n    uint256 _claimId, bytes _oldClaimData, uint _lastChange, bool _updateClaimId) public {\n\n//    Users.User memory currentUser = _Users.getUserByAddress(msg.sender);\n//    if (currentUser.tokens > transactionPrice) {\n    if (_Users.getUserTokensByAddress(msg.sender) > transactionPrice) {\n      _Users.updateTokens(msg.sender, transactionPrice);\n      if (register_or_update) {             // Register new claim.\n        _claimId = ++claimIdCounter_;\n        //    require(claims_[_claimId].claimId == 0, \"Claim already exists\");\n        require(_Users._memberExists(_memberOwner), \"Member do not exists\");\n  //      _memberOwner = _Users._memberIdFromCurrentAddress(msg.sender);\n\n        _saveClaim(_claimId, _creationDate, _claimData, _claimType, _memberOwner, false, _creationDate);\n        _Users._addClaimIdToMemberOwner(_memberOwner, _claimId);\n\n        checkClaimStatus(_claimId, _claimType, _claimData, true);\n      } else {                     // Update existing claim.\n\n        checkClaimStatus(_claimId, _claimType, _oldClaimData, false);\n  //      if (_updateClaimId) {\n  //        checkClaimStatus(updateClaimId(_claimId, _claimData, _memberOwner, _claimType), _claimType, _claimData, true);\n  //        _saveClaim(updateClaimId(_claimId, _claimData, _memberOwner, _claimType), _creationDate, _claimData, _claimType,\n  //          _memberOwner, claims_[_claimId].status, _lastChange);\n  //      } else {\n        checkClaimStatus(_claimId, _claimType, _claimData, true);\n        _saveClaim(_claimId, _creationDate, _claimData, _claimType, _memberOwner, claims_[_claimId].status, _lastChange);\n\n        if (_creationDate == 0) {  // Delete claim.\n          _Users._removeClaimFromMember(_memberOwner, _claimId);\n          _Users._removeClaimFromInbox(_memberOwner, _claimId);\n//            _removeClaimFromMapping(_claimId);\n//            _saveClaim(_claimId, _creationDate, _claimData, _claimType, _memberOwner, claims_[_claimId].status, _lastChange);\n        }\n      }\n    } else {\n      // USER DOES NOT HAVE ENOUGH TOKENS TO SUBMIT THE TRANSACTION.\n    }\n  }\n\n//  function _removeClaimFromMapping(uint claimId) private {\n    // maybe do split = 0% -> already in sound & musical components.OnDelete()\n//  }\n\n  function getTransactionPrice() pure public returns (uint) {\n    return transactionPrice;\n  }\n\n  function getClaim(uint256 _claimId) view public returns (Claim) {\n    return claims_[_claimId];\n  }\n\n  function getClaimsByMemberId(uint _page) public returns (Claim[] memory) {\n\n    uint256 pageIndex = SafeMath.mul(PAGE_SIZE, _page);\n    Users.User memory currentUser = _Users.getUserByAddress(msg.sender);\n    if (keccak256(currentUser.role) != keccak256(\"Super admin\")) { // If user IS NOT \"Super admin\".\n      uint256 _memberId = _Users._memberIdFromCurrentAddress(msg.sender);\n      uint count = _Users._getClaimsCountByMember(_memberId);\n      uint256 pageNumber = SafeMath.div(count, PAGE_SIZE);\n\n      if (count == 0 || pageIndex > count - 1 || _page > pageNumber) {\n        return;\n      }\n\n      uint256[] memory claimsId = _Users._getClaimsIdByMember(_memberId);\n\n      Claim[] memory _claims = new Claim[](PAGE_SIZE);\n      uint256 returnCounter = 0;\n      for (uint i = pageIndex; i < claimsId.length; ++i) {\n        if(returnCounter < PAGE_SIZE) {\n          _claims[returnCounter] = claims_[claimsId[i]];\n          ++returnCounter;\n        } else {\n          break;\n        }\n      }\n      return _claims;\n    } else {  // If user IS \"Super admin\".\n\n      uint[] memory memberIds = _Users._getMemberIdsOfCurrentCMO(currentUser.cmo, currentUser.memberId);\n      count = 0;\n      for (uint j = 0; j < memberIds.length; ++j) {\n        count += _Users._getClaimsCountByMember(memberIds[j]); // count+count+...+count\n      }\n      pageNumber = SafeMath.div(count, PAGE_SIZE);\n\n      if (count == 0 || pageIndex > count - 1 || _page > pageNumber) {\n        return;\n      }\n\n      uint[] memory allClaimsId = new uint[](count);\n      count = 0;  // now, use it for iterator\n      for (j = 0; j < memberIds.length; ++j) {\n        claimsId = _Users._getClaimsIdByMember(memberIds[j]);\n        for (i=0; i < claimsId.length; ++i) {\n          allClaimsId[count++] = claimsId[i];\n        }\n      }\n\n      _claims = new Claim[](PAGE_SIZE);\n      returnCounter = 0;\n      for (i = pageIndex; i < allClaimsId.length; ++i) {\n        if(returnCounter < PAGE_SIZE) {\n          _claims[returnCounter] = claims_[allClaimsId[i]];\n          ++returnCounter;\n        } else {\n          break;\n        }\n      }\n      return _claims;\n    }\n  }\n\n  function getClaimsCountByMemberId() public returns (uint) {\n    Users.User memory currentUser = _Users.getUserByAddress(msg.sender);\n    if (keccak256(currentUser.role) != keccak256(\"Super admin\")) { // If user IS NOT \"Super admin\".\n      uint256 _memberId = _Users._memberIdFromCurrentAddress(msg.sender);\n      return _Users._getClaimsCountByMember(_memberId);\n    } else {                                                       // If user IS \"Super admin\".\n      uint[] memory memberIds = _Users._getMemberIdsOfCurrentCMO(currentUser.cmo, currentUser.memberId);\n      uint count = 0;\n      for (uint j = 0; j < memberIds.length; ++j) {\n        count += _Users._getClaimsCountByMember(memberIds[j]); // count+count+...+count\n      }\n      return count;\n    }\n  }\n\n  function _saveClaim(uint256 _claimId, uint256 _creationDate, bytes _claimData, bool _claimType,\n    uint _memberOwner, bool _status, uint256 _lastChange) private {\n\n    RLPReader.RLPItem memory item = _claimData.toRlpItem();\n    RLPReader.RLPItem[] memory itemList = item.toList(); // ((name, value), (name, value), (name, value), ...)\n\n    claims_[_claimId].claimId = _claimId;\n    claims_[_claimId].creationDate = _creationDate;\n    claims_[_claimId].claimType = _claimType;\n\n    delete claims_[_claimId].claimData;\n    for(uint i = 0; i < itemList.length; ++i) {\n      RLPReader.RLPItem[] memory itemListClaim = itemList[i].toList(); // (name, value)\n      claims_[_claimId].claimData.push(NameValue(string(itemListClaim[0].toBytes()), string(itemListClaim[1].toBytes())));\n    }\n\n    claims_[_claimId].memberOwner = _memberOwner;\n    claims_[_claimId].lastChange = _lastChange;\n    claims_[_claimId].status = _status;\n  }\n\n  // Old Lib.sol\n//\n//  using RLPReader for bytes;\n//  using RLPReader for uint;\n//  using RLPReader for RLPReader.RLPItem;\n//\n//  struct NameValue{\n//    string name;\n//    string value;\n//  }\n//\n//  struct Claim {\n//    uint256 creationDate;\n//    uint256 claimId;        // should be 2^48 ~ 100 trillion claims\n//    NameValue[] claimData;\n//    bool claimType;\n//    uint256 memberOwner;    // should be 2^24 ~ 16 million members\n//    bool status;\n//    uint256 lastChange;\n//    //    string[] log;\n//    //    uint16 log2;\n//  }\n//\n//  mapping (uint256 => Claim) internal claims_;\n//  mapping (uint256 => uint16) internal maxSplits_;\n//  uint256 constant internal PAGE_SIZE = 10;\n//\n//  uint256 internal claimIdCounter_ = 0; // has the number of claims ever inserted, including the deleted ones\n//  //  uint256[] private claimIdIndex;\n\n  function checkClaimStatus(uint256 _claimId, bool _claimType, bytes _claimData, bool newClaim) private {\n\n    //    if (newClaim) {\n    //      claimIdIndex.push(_claimId);\n    //    }\n    RLPReader.RLPItem memory item = _claimData.toRlpItem();\n    RLPReader.RLPItem[] memory itemList = item.toList();  // ((name0, value0), (name, value), (name, value), ...)\n    uint16 split = uint16(bytesToUint(itemList[5].toList()[1].toBytes()));\n    uint48 startDate = uint48(bytesToUint(itemList[2].toList()[1].toBytes()));\n    uint48 endDate = uint48(bytesToUint(itemList[3].toList()[1].toBytes()));\n\n    maxSplits_[_claimId] = split;\n//    claims_[_claimId].maxSplit.push(maxSplits_[_claimId]);\n    bool prevStatus = claims_[_claimId].status;\n    bool tempMaxSplitOnce = true;\n    for(uint256 i = 1; i <= claimIdCounter_; i++) {\n      if (_claimType == claims_[i].claimType && _claimId != i) {\n        if(keccak256(itemList[0].toList()[1].toBytes()) == keccak256(claims_[i].claimData[0].value) // same ISRC/ISWC\n        && endDate >= uint48(bytesToUint(bytes(claims_[i].claimData[2].value))) // end1 >= start2\n        && startDate <= uint48(bytesToUint(bytes(claims_[i].claimData[3].value))) // start1 <= end2\n        ){\n          if (newClaim) {\n            // claims_[2].log.push('CHECK STATUS TRUE');\n          } else {\n            // claims_[2].log.push('CHECK STATUS FALSE');\n          }\n          // claims_[2].log.push(string(itemList[4].toList()[1].toBytes()));\n          // claims_[2].log.push(string(bytes(claims_[i].claimData[4].value)));\n          hasOverlap(itemList[4].toList()[1].toBytes(), bytes(claims_[i].claimData[4].value)); // useTypes/rightTypes: have at least one common\n          if (hasOverlapResult) {\n            hasOverlap(itemList[1].toList()[1].toBytes(), bytes(claims_[i].claimData[1].value)); // territory: contain at least one common\n            if (hasOverlapResult) {\n              if (newClaim) {\n                if (maxSplits_[i] + split > 100 && maxSplits_[i] != 0 && split != 0) { // set it CONFLICT\n                  if (!prevStatus) {\n                    prevStatus = true;\n                    claims_[_claimId].status = true; // true, means there IS a CONFLICT\n                    _Users._addClaimFromInbox(claims_[_claimId].memberOwner, _claimId);\n                  }\n                  if (!claims_[i].status) {\n                    claims_[i].status = true;\n                    _Users._addClaimFromInbox(claims_[i].memberOwner, claims_[i].claimId);\n                  }\n                } else if (maxSplits_[i] + split <= 100) {\n                  claims_[_claimId].status = false;\n                  claims_[i].status = false;\n                }\n//                if (maxSplits_[i] == 0) {      // claims_[i].claimData[5].value = split = 0\n//                  claims_[i].status = false;\n//                  _Users._removeClaimFromInbox(claims_[i].memberOwner, claims_[i].claimId);\n//                }\n                if (split == 0 && prevStatus) {\n                  prevStatus = false;\n                  claims_[_claimId].status = false;\n                  _Users._removeClaimFromInbox(claims_[_claimId].memberOwner, _claimId);\n                }\n                if (maxSplits_[i] != 0) maxSplits_[i]+=split;                // build maxSplits_[i]\n                if (tempMaxSplitOnce && maxSplits_[i] != 0 && split != 0) {\n                  tempMaxSplitOnce=false;\n                  maxSplits_[_claimId] = maxSplits_[i];\n                }\n                claims_[1].log.push(split);\n                claims_[1].log.push(maxSplits_[i]);\n              } else {\n                if (tempMaxSplitOnce) {\n                  maxSplits_[_claimId]=split;\n                  tempMaxSplitOnce=false;\n                }\n                if (prevStatus) {                                        // set it CLAIMED\n                  claims_[_claimId].status = false;\n                  _Users._removeClaimFromInbox(claims_[_claimId].memberOwner, _claimId);\n                  prevStatus = false;\n                }\n                if (maxSplits_[i] - split <= 100 || maxSplits_[i] == 0) {     // split != 0 here is redundant\n                  if (claims_[i].status) {\n                    claims_[i].status = false;\n                    _Users._removeClaimFromInbox(claims_[i].memberOwner, claims_[i].claimId);\n                  }\n                }\n                if (maxSplits_[i] != 0) maxSplits_[i]-=split;                // recalculate maxSplits_[i]\n                claims_[2].log.push(split);\n                claims_[2].log.push(maxSplits_[i]);\n              }\n              claims_[i].maxSplit = maxSplits_[i];\n            }  // hasOverlapResult territory\n          } // hasOverlapResult: useTypes/rightTypes\n        } // if ISC/start/endDate\n      } // if claimId<>i\n    } // for\n    claims_[_claimId].maxSplit = maxSplits_[_claimId];\n    //    } // if (split == 0)\n  }\n\n  function bytesToUint(bytes s) private pure returns (uint result) {\n    bytes memory b = s;\n    uint i;\n    result = 0;\n    for (i = 0; i < b.length; i++) {\n      uint c = uint(b[i]);\n      if (c >= 48 && c <= 57) {\n        result = result * 10 + (c - 48);\n      }\n    }\n  }\n\n  function hasOverlap(bytes _b1, bytes _b2) private {\n\n    hasOverlapResult = false;\n    var delim = \",\".toSlice();\n    var s1 = string(_b1).toSlice();\n    var parts1 = new string[](s1.count(delim) + 1);\n    for(uint i = 0; i < parts1.length; i++) {\n      parts1[i] = s1.split(delim).toString();\n    }\n    var s2 = string(_b2).toSlice();\n    var parts2 = new string[](s2.count(delim) + 1);\n    for(uint j = 0; j < parts2.length; j++) {\n      parts2[j] = s2.split(delim).toString();\n    }\n\n    for(i = 0; i < parts1.length; i++) {\n      for(j = 0; j < parts2.length; j++) {\n        if (keccak256(parts1[i]) == keccak256(parts2[j])) {\n          hasOverlapResult = true;\n          break;\n        }\n      }\n      if (hasOverlapResult) {\n        break;\n      }\n    }\n\n  }\n\n  function updateClaimId(uint _claimId, bytes _claimData, uint _memberOwner, bool _claimType) private returns (uint) {\n    RLPReader.RLPItem memory item = _claimData.toRlpItem();\n    RLPReader.RLPItem[] memory itemList = item.toList();\n\n    for(uint256 i = 1; i <= claimIdCounter_; i++) {\n      if (_claimType == claims_[i].claimType && _claimId != i) {\n        if(keccak256(abi.encodePacked(itemList[0].toList()[1].toBytes())) == keccak256(abi.encodePacked(claims_[i].claimData[0].value)) // same ISRC/ISWC\n        && keccak256(abi.encodePacked(itemList[1].toList()[1].toBytes())) == keccak256(abi.encodePacked(claims_[i].claimData[1].value)) // same countries\n        && keccak256(abi.encodePacked(itemList[2].toList()[1].toBytes())) == keccak256(abi.encodePacked(claims_[i].claimData[2].value)) // same startDate\n        && keccak256(abi.encodePacked(itemList[3].toList()[1].toBytes())) == keccak256(abi.encodePacked(claims_[i].claimData[3].value)) // same endDate\n        && keccak256(abi.encodePacked(itemList[4].toList()[1].toBytes())) == keccak256(abi.encodePacked(claims_[i].claimData[4].value)) // same use/right-Types\n        && keccak256(abi.encodePacked(itemList[5].toList()[1].toBytes())) == keccak256(abi.encodePacked(claims_[i].claimData[5].value)) // same split\n        && _memberOwner == claims_[i].memberOwner                                                                                       // same memberOwner\n        ){\n          return i;\n        }\n      }\n    }\n    return ++claimIdCounter_;\n  }\n}\n",
  "sourcePath": "/home/komodo/newUI2/bloomen-decentralized-rights-management-v2/truffle/contracts/registry/Claims.sol",
  "compiler": {
    "name": "solc",
    "version": "0.4.24+commit.e67f0147.Emscripten.clang"
  },
  "schemaVersion": "2.0.1",
  "updatedAt": "2020-06-20T08:04:33.405Z"
}