{
  "contractName": "Claims",
  "abi": [
    {
      "constant": false,
      "inputs": [
        {
          "name": "_userToAccept",
          "type": "address"
        }
      ],
      "name": "acceptUser",
      "outputs": [],
      "payable": false,
      "stateMutability": "nonpayable",
      "type": "function"
    },
    {
      "constant": false,
      "inputs": [
        {
          "name": "_userToReject",
          "type": "address"
        }
      ],
      "name": "rejectUser",
      "outputs": [],
      "payable": false,
      "stateMutability": "nonpayable",
      "type": "function"
    },
    {
      "constant": true,
      "inputs": [
        {
          "name": "_page",
          "type": "uint256"
        }
      ],
      "name": "getUsers",
      "outputs": [
        {
          "components": [
            {
              "name": "creationDate",
              "type": "uint256"
            },
            {
              "name": "firstName",
              "type": "string"
            },
            {
              "name": "lastName",
              "type": "string"
            },
            {
              "name": "memberId",
              "type": "uint256"
            },
            {
              "name": "requestId",
              "type": "uint256"
            },
            {
              "name": "role",
              "type": "string"
            },
            {
              "name": "status",
              "type": "uint8"
            },
            {
              "name": "owner",
              "type": "address"
            }
          ],
          "name": "",
          "type": "tuple[]"
        }
      ],
      "payable": false,
      "stateMutability": "view",
      "type": "function"
    },
    {
      "constant": false,
      "inputs": [
        {
          "name": "_memberId",
          "type": "uint256"
        },
        {
          "name": "_creationDate",
          "type": "uint256"
        },
        {
          "name": "_name",
          "type": "string"
        },
        {
          "name": "_logo",
          "type": "string"
        },
        {
          "name": "_country",
          "type": "string"
        },
        {
          "name": "_cmo",
          "type": "string"
        },
        {
          "name": "_theme",
          "type": "string"
        }
      ],
      "name": "updateMember",
      "outputs": [],
      "payable": false,
      "stateMutability": "nonpayable",
      "type": "function"
    },
    {
      "constant": true,
      "inputs": [
        {
          "name": "userAddress",
          "type": "address"
        }
      ],
      "name": "getUserByAddress",
      "outputs": [
        {
          "components": [
            {
              "name": "creationDate",
              "type": "uint256"
            },
            {
              "name": "firstName",
              "type": "string"
            },
            {
              "name": "lastName",
              "type": "string"
            },
            {
              "name": "memberId",
              "type": "uint256"
            },
            {
              "name": "requestId",
              "type": "uint256"
            },
            {
              "name": "role",
              "type": "string"
            },
            {
              "name": "status",
              "type": "uint8"
            },
            {
              "name": "owner",
              "type": "address"
            }
          ],
          "name": "",
          "type": "tuple"
        }
      ],
      "payable": false,
      "stateMutability": "view",
      "type": "function"
    },
    {
      "constant": true,
      "inputs": [
        {
          "name": "account",
          "type": "address"
        }
      ],
      "name": "isSigner",
      "outputs": [
        {
          "name": "",
          "type": "bool"
        }
      ],
      "payable": false,
      "stateMutability": "view",
      "type": "function"
    },
    {
      "constant": true,
      "inputs": [],
      "name": "getUsersOwner",
      "outputs": [
        {
          "components": [
            {
              "name": "creationDate",
              "type": "uint256"
            },
            {
              "name": "firstName",
              "type": "string"
            },
            {
              "name": "lastName",
              "type": "string"
            },
            {
              "name": "memberId",
              "type": "uint256"
            },
            {
              "name": "requestId",
              "type": "uint256"
            },
            {
              "name": "role",
              "type": "string"
            },
            {
              "name": "status",
              "type": "uint8"
            },
            {
              "name": "owner",
              "type": "address"
            }
          ],
          "name": "",
          "type": "tuple[]"
        }
      ],
      "payable": false,
      "stateMutability": "view",
      "type": "function"
    },
    {
      "constant": true,
      "inputs": [],
      "name": "getMembers",
      "outputs": [
        {
          "components": [
            {
              "name": "memberId",
              "type": "uint256"
            },
            {
              "name": "creationDate",
              "type": "uint256"
            },
            {
              "name": "name",
              "type": "string"
            },
            {
              "name": "logo",
              "type": "string"
            },
            {
              "name": "country",
              "type": "string"
            },
            {
              "name": "cmo",
              "type": "string"
            },
            {
              "name": "theme",
              "type": "string"
            },
            {
              "name": "claimInbox",
              "type": "uint256[]"
            },
            {
              "name": "claims",
              "type": "uint256[]"
            },
            {
              "name": "userRequests",
              "type": "address[]"
            }
          ],
          "name": "",
          "type": "tuple[]"
        }
      ],
      "payable": false,
      "stateMutability": "view",
      "type": "function"
    },
    {
      "constant": true,
      "inputs": [],
      "name": "getcountUsers",
      "outputs": [
        {
          "name": "",
          "type": "uint256"
        }
      ],
      "payable": false,
      "stateMutability": "view",
      "type": "function"
    },
    {
      "constant": false,
      "inputs": [
        {
          "name": "_creationDate",
          "type": "uint256"
        },
        {
          "name": "_firstName",
          "type": "string"
        },
        {
          "name": "_lastName",
          "type": "string"
        },
        {
          "name": "_role",
          "type": "string"
        },
        {
          "name": "_memberId",
          "type": "uint256"
        }
      ],
      "name": "registerUserRequest",
      "outputs": [],
      "payable": false,
      "stateMutability": "nonpayable",
      "type": "function"
    },
    {
      "constant": true,
      "inputs": [],
      "name": "getCount",
      "outputs": [
        {
          "name": "",
          "type": "uint256"
        }
      ],
      "payable": false,
      "stateMutability": "view",
      "type": "function"
    },
    {
      "constant": true,
      "inputs": [],
      "name": "getMe",
      "outputs": [
        {
          "components": [
            {
              "name": "creationDate",
              "type": "uint256"
            },
            {
              "name": "firstName",
              "type": "string"
            },
            {
              "name": "lastName",
              "type": "string"
            },
            {
              "name": "memberId",
              "type": "uint256"
            },
            {
              "name": "requestId",
              "type": "uint256"
            },
            {
              "name": "role",
              "type": "string"
            },
            {
              "name": "status",
              "type": "uint8"
            },
            {
              "name": "owner",
              "type": "address"
            }
          ],
          "name": "",
          "type": "tuple"
        }
      ],
      "payable": false,
      "stateMutability": "view",
      "type": "function"
    },
    {
      "constant": true,
      "inputs": [
        {
          "name": "_page",
          "type": "uint256"
        }
      ],
      "name": "getMembers",
      "outputs": [
        {
          "components": [
            {
              "name": "memberId",
              "type": "uint256"
            },
            {
              "name": "creationDate",
              "type": "uint256"
            },
            {
              "name": "name",
              "type": "string"
            },
            {
              "name": "logo",
              "type": "string"
            },
            {
              "name": "country",
              "type": "string"
            },
            {
              "name": "cmo",
              "type": "string"
            },
            {
              "name": "theme",
              "type": "string"
            },
            {
              "name": "claimInbox",
              "type": "uint256[]"
            },
            {
              "name": "claims",
              "type": "uint256[]"
            },
            {
              "name": "userRequests",
              "type": "address[]"
            }
          ],
          "name": "",
          "type": "tuple[]"
        }
      ],
      "payable": false,
      "stateMutability": "view",
      "type": "function"
    },
    {
      "constant": false,
      "inputs": [],
      "name": "renounceSigner",
      "outputs": [],
      "payable": false,
      "stateMutability": "nonpayable",
      "type": "function"
    },
    {
      "constant": false,
      "inputs": [
        {
          "name": "account",
          "type": "address"
        }
      ],
      "name": "addSigner",
      "outputs": [],
      "payable": false,
      "stateMutability": "nonpayable",
      "type": "function"
    },
    {
      "constant": false,
      "inputs": [
        {
          "name": "_creationDate",
          "type": "uint256"
        },
        {
          "name": "_name",
          "type": "string"
        },
        {
          "name": "_logo",
          "type": "string"
        },
        {
          "name": "_country",
          "type": "string"
        },
        {
          "name": "_cmo",
          "type": "string"
        },
        {
          "name": "_theme",
          "type": "string"
        }
      ],
      "name": "addMember",
      "outputs": [
        {
          "name": "",
          "type": "uint256"
        }
      ],
      "payable": false,
      "stateMutability": "nonpayable",
      "type": "function"
    },
    {
      "constant": false,
      "inputs": [
        {
          "name": "_firstName",
          "type": "string"
        },
        {
          "name": "_lastName",
          "type": "string"
        },
        {
          "name": "_memberId",
          "type": "uint256"
        },
        {
          "name": "_role",
          "type": "string"
        },
        {
          "name": "owner",
          "type": "address"
        }
      ],
      "name": "updateUser",
      "outputs": [],
      "payable": false,
      "stateMutability": "nonpayable",
      "type": "function"
    },
    {
      "constant": false,
      "inputs": [
        {
          "name": "account",
          "type": "address"
        }
      ],
      "name": "whitelistAdmin",
      "outputs": [],
      "payable": false,
      "stateMutability": "nonpayable",
      "type": "function"
    },
    {
      "anonymous": false,
      "inputs": [
        {
          "indexed": true,
          "name": "account",
          "type": "address"
        }
      ],
      "name": "SignerAdded",
      "type": "event"
    },
    {
      "anonymous": false,
      "inputs": [
        {
          "indexed": true,
          "name": "account",
          "type": "address"
        }
      ],
      "name": "SignerRemoved",
      "type": "event"
    },
    {
      "constant": false,
      "inputs": [
        {
          "name": "_creationDate",
          "type": "uint256"
        },
        {
          "name": "_claimData",
          "type": "bytes"
        },
        {
          "name": "_claimType",
          "type": "bool"
        },
        {
          "name": "_memberOwner",
          "type": "uint256"
        },
        {
          "name": "reg_update",
          "type": "bool"
        },
        {
          "name": "_claimId",
          "type": "uint256"
        },
        {
          "name": "_oldClaimData",
          "type": "bytes"
        },
        {
          "name": "_lastChange",
          "type": "uint256"
        }
      ],
      "name": "computeClaim",
      "outputs": [],
      "payable": false,
      "stateMutability": "nonpayable",
      "type": "function"
    },
    {
      "constant": true,
      "inputs": [
        {
          "name": "_claimId",
          "type": "uint256"
        }
      ],
      "name": "getClaim",
      "outputs": [
        {
          "components": [
            {
              "name": "creationDate",
              "type": "uint256"
            },
            {
              "name": "claimId",
              "type": "uint256"
            },
            {
              "components": [
                {
                  "name": "name",
                  "type": "string"
                },
                {
                  "name": "value",
                  "type": "string"
                }
              ],
              "name": "claimData",
              "type": "tuple[]"
            },
            {
              "name": "claimType",
              "type": "bool"
            },
            {
              "name": "memberOwner",
              "type": "uint256"
            },
            {
              "name": "status",
              "type": "bool"
            },
            {
              "name": "lastChange",
              "type": "uint256"
            }
          ],
          "name": "",
          "type": "tuple"
        }
      ],
      "payable": false,
      "stateMutability": "view",
      "type": "function"
    },
    {
      "constant": true,
      "inputs": [
        {
          "name": "_page",
          "type": "uint256"
        }
      ],
      "name": "getClaimsByMemberId",
      "outputs": [
        {
          "components": [
            {
              "name": "creationDate",
              "type": "uint256"
            },
            {
              "name": "claimId",
              "type": "uint256"
            },
            {
              "components": [
                {
                  "name": "name",
                  "type": "string"
                },
                {
                  "name": "value",
                  "type": "string"
                }
              ],
              "name": "claimData",
              "type": "tuple[]"
            },
            {
              "name": "claimType",
              "type": "bool"
            },
            {
              "name": "memberOwner",
              "type": "uint256"
            },
            {
              "name": "status",
              "type": "bool"
            },
            {
              "name": "lastChange",
              "type": "uint256"
            }
          ],
          "name": "",
          "type": "tuple[]"
        }
      ],
      "payable": false,
      "stateMutability": "view",
      "type": "function"
    },
    {
      "constant": true,
      "inputs": [],
      "name": "getClaimsCountByMemberId",
      "outputs": [
        {
          "name": "",
          "type": "uint256"
        }
      ],
      "payable": false,
      "stateMutability": "view",
      "type": "function"
    }
  ],
  "bytecode": "0x608060405260006007556200001d3364010000000062000023810204565b62000108565b6200003e600082640100000000620046a36200007582021704565b604051600160a060020a038216907f47d1c22a25bb3a5d4e481b9b1e6944c2eade3181a0a20b495ed61d35b5323f2490600090a250565b600160a060020a03811615156200008b57600080fd5b620000a08282640100000000620000d0810204565b15620000ab57600080fd5b600160a060020a0316600090815260209190915260409020805460ff19166001179055565b6000600160a060020a0382161515620000e857600080fd5b50600160a060020a03166000908152602091909152604090205460ff1690565b615c2980620001186000396000f3006080604052600436106101275763ffffffff7c010000000000000000000000000000000000000000000000000000000060003504166308bdc24d811461012c5780631be8850b1461014e5780634dc92885146101795780635aef2447146101995780635d73ab9a146101c657806365ff0c48146101f357806369c212f6146102135780637df73e2714610240578063932191be1461026d5780639eab525314610282578063a4fdc594146102a4578063a7ed1fe4146102b9578063a87d942c146102d9578063aa5b3a06146102ee578063b6bc38121461030e578063c11e1ff31461033b578063c477ecab14610350578063e5c8b03d14610370578063eb12d61e14610385578063fa1188c6146103a5578063fcfbde5b146103c5578063ff240fce146103e5575b600080fd5b34801561013857600080fd5b5061014c610147366004614c54565b610405565b005b34801561015a57600080fd5b506101636105a1565b6040516101709190615b1a565b60405180910390f35b34801561018557600080fd5b5061014c610194366004614c54565b6105be565b3480156101a557600080fd5b506101b96101b4366004614d36565b610722565b6040516101709190615af8565b3480156101d257600080fd5b506101e66101e1366004614d36565b610921565b60405161017091906159b9565b3480156101ff57600080fd5b5061014c61020e366004614fe3565b610cfc565b34801561021f57600080fd5b5061023361022e366004614c54565b610d8b565b6040516101709190615b09565b34801561024c57600080fd5b5061026061025b366004614c54565b610fdf565b60405161017091906159ca565b34801561027957600080fd5b506101e6610ff7565b34801561028e57600080fd5b506102976112e8565b60405161017091906159a8565b3480156102b057600080fd5b506101636117af565b3480156102c557600080fd5b5061014c6102d4366004614f33565b611874565b3480156102e557600080fd5b5061016361193b565b3480156102fa57600080fd5b5061014c610309366004614d54565b611959565b34801561031a57600080fd5b5061032e610329366004614d36565b611a53565b6040516101709190615997565b34801561034757600080fd5b50610233611d55565b34801561035c57600080fd5b5061029761036b366004614d36565b611de6565b34801561037c57600080fd5b5061014c612301565b34801561039157600080fd5b5061014c6103a0366004614c54565b61230c565b3480156103b157600080fd5b506101636103c0366004614e34565b612329565b3480156103d157600080fd5b5061014c6103e0366004614c7a565b6123b8565b3480156103f157600080fd5b5061014c610400366004614c54565b61249c565b600160a060020a038181166000908152600360205260408120600601546101009004909116116104535760405160e560020a62461bcd02815260040161044a90615a18565b60405180910390fd5b600160a060020a0381166000908152600360208190526040808320820154338452922001541480610488575061048833610fdf565b15156104a95760405160e560020a62461bcd02815260040161044a90615a28565b60023360009081526003602052604090206006015460ff1660028111156104cc57fe5b14806104dc57506104dc33610fdf565b15156104fd5760405160e560020a62461bcd02815260040161044a90615ab8565b6001600160a060020a03821660009081526003602052604090206006015460ff16600281111561052957fe5b146105495760405160e560020a62461bcd02815260040161044a906159f8565b600160a060020a038116600090815260036020526040902060060180546002919060ff19166001835b0217905550600160a060020a0381166000908152600360208190526040909120015461059e9082612570565b50565b6000806105ac6126df565b90506105b7816126f6565b91505b5090565b600160a060020a038181166000908152600360205260408120600601546101009004909116116106035760405160e560020a62461bcd02815260040161044a90615a18565b600160a060020a0381166000908152600360208190526040808320820154338452922001541480610638575061063833610fdf565b15156106595760405160e560020a62461bcd02815260040161044a90615a28565b60023360009081526003602052604090206006015460ff16600281111561067c57fe5b148061068c575061068c33610fdf565b15156106ad5760405160e560020a62461bcd02815260040161044a90615ab8565b6001600160a060020a03821660009081526003602052604090206006015460ff1660028111156106d957fe5b146106f95760405160e560020a62461bcd02815260040161044a90615a38565b600160a060020a0381166000908152600360205260408120600601805460ff1916600183610572565b61072a6148ab565b6005600083815260200190815260200160002060e06040519081016040529081600082015481526020016001820154815260200160028201805480602002602001604051908101604052809291908181526020016000905b828210156108e05760008481526020908190206040805160028681029093018054600181161561010002600019011693909304601f8101859004909402810160609081018352918101848152909384928491908401828280156108265780601f106107fb57610100808354040283529160200191610826565b820191906000526020600020905b81548152906001019060200180831161080957829003601f168201915b50505050508152602001600182018054600181600116156101000203166002900480601f0160208091040260200160405190810160405280929190818152602001828054600181600116156101000203166002900480156108c85780601f1061089d576101008083540402835291602001916108c8565b820191906000526020600020905b8154815290600101906020018083116108ab57829003601f168201915b50505050508152505081526020019060010190610782565b50505090825250600382015460ff90811615156020830152600483015460408301526005830154161515606082015260069091015460809091015292915050565b6060600080600060606000806109356117af565b9550610942600a8961270b565b60045490955061095390600a612744565b935085158061096157508585115b8061096b57508388115b1561097557610cf1565b60408051600a808252610160820190925290816020015b6109946148ed565b81526020019060019003908161098c579050509250600091508490505b600454811015610ced57336000908152600360208190526040822081015460048054919391859081106109e057fe5b6000918252602080832090910154600160a060020a03168352820192909252604001902060030154148015610a5d5750600260036000600484815481101515610a2557fe5b6000918252602080832090910154600160a060020a0316835282019290925260400190206006015460ff166002811115610a5b57fe5b145b15610ce55760036000600483815481101515610a7557fe5b600091825260208083209190910154600160a060020a0316835282810193909352604091820190208151610100808201845282548252600180840180548651600293821615909402600019011691909104601f81018790048702830187019095528482529194929385840193919291830182828015610b355780601f10610b0a57610100808354040283529160200191610b35565b820191906000526020600020905b815481529060010190602001808311610b1857829003601f168201915b5050509183525050600282810180546040805160206001841615610100026000190190931694909404601f81018390048302850183019091528084529381019390830182828015610bc75780601f10610b9c57610100808354040283529160200191610bc7565b820191906000526020600020905b815481529060010190602001808311610baa57829003601f168201915b505050505081526020016003820154815260200160048201548152602001600582018054600181600116156101000203166002900480601f016020809104026020016040519081016040528092919081815260200182805460018160011615610100020316600290048015610c7d5780601f10610c5257610100808354040283529160200191610c7d565b820191906000526020600020905b815481529060010190602001808311610c6057829003601f168201915b5050509183525050600682015460209091019060ff166002811115610c9e57fe5b6002811115610ca957fe5b8152600691909101546101009004600160a060020a03166020909101528351849084908110610cd457fe5b602090810290910101526001909101905b6001016109b1565b8296505b505050505050919050565b610d0533610fdf565b1515610d1057600080fd5b60008781526001602052604081205411610d3f5760405160e560020a62461bcd02815260040161044a90615a88565b600087815260016020819052604090912001548614610d735760405160e560020a62461bcd02815260040161044a906159d8565b610d8287878787878787612767565b50505050505050565b610d936148ed565b600160a060020a0382166000908152600360209081526040918290208251610100808201855282548252600180840180548751600293821615909402600019011691909104601f8101869004860283018601909652858252919492938581019391929190830182828015610e485780601f10610e1d57610100808354040283529160200191610e48565b820191906000526020600020905b815481529060010190602001808311610e2b57829003601f168201915b5050509183525050600282810180546040805160206001841615610100026000190190931694909404601f81018390048302850183019091528084529381019390830182828015610eda5780601f10610eaf57610100808354040283529160200191610eda565b820191906000526020600020905b815481529060010190602001808311610ebd57829003601f168201915b505050505081526020016003820154815260200160048201548152602001600582018054600181600116156101000203166002900480601f016020809104026020016040519081016040528092919081815260200182805460018160011615610100020316600290048015610f905780601f10610f6557610100808354040283529160200191610f90565b820191906000526020600020905b815481529060010190602001808311610f7357829003601f168201915b5050509183525050600682015460209091019060ff166002811115610fb157fe5b6002811115610fbc57fe5b8152600691909101546101009004600160a060020a031660209091015292915050565b6000610ff1818363ffffffff612d6016565b92915050565b606080600061100533610fdf565b151561101057600080fd5b60045460408051828152602080840282010190915290801561104c57816020015b6110396148ed565b8152602001906001900390816110315790505b509150600090505b6004548110156112e2576003600060048381548110151561107157fe5b600091825260208083209190910154600160a060020a0316835282810193909352604091820190208151610100808201845282548252600180840180548651600293821615909402600019011691909104601f810187900487028301870190955284825291949293858401939192918301828280156111315780601f1061110657610100808354040283529160200191611131565b820191906000526020600020905b81548152906001019060200180831161111457829003601f168201915b5050509183525050600282810180546040805160206001841615610100026000190190931694909404601f810183900483028501830190915280845293810193908301828280156111c35780601f10611198576101008083540402835291602001916111c3565b820191906000526020600020905b8154815290600101906020018083116111a657829003601f168201915b505050505081526020016003820154815260200160048201548152602001600582018054600181600116156101000203166002900480601f0160208091040260200160405190810160405280929190818152602001828054600181600116156101000203166002900480156112795780601f1061124e57610100808354040283529160200191611279565b820191906000526020600020905b81548152906001019060200180831161125c57829003601f168201915b5050509183525050600682015460209091019060ff16600281111561129a57fe5b60028111156112a557fe5b8152600691909101546101009004600160a060020a031660209091015282518390839081106112d057fe5b60209081029091010152600101611054565b50919050565b606080600060028054905060405190808252806020026020018201604052801561132c57816020015b61131961493e565b8152602001906001900390816113115790505b509150600090505b6002548110156112e2576001600060028381548110151561135157fe5b9060005260206000200154815260200190815260200160002061014060405190810160405290816000820154815260200160018201548152602001600282018054600181600116156101000203166002900480601f0160208091040260200160405190810160405280929190818152602001828054600181600116156101000203166002900480156114245780601f106113f957610100808354040283529160200191611424565b820191906000526020600020905b81548152906001019060200180831161140757829003601f168201915b505050918352505060038201805460408051602060026001851615610100026000190190941693909304601f81018490048402820184019092528181529382019392918301828280156114b85780601f1061148d576101008083540402835291602001916114b8565b820191906000526020600020905b81548152906001019060200180831161149b57829003601f168201915b505050918352505060048201805460408051602060026001851615610100026000190190941693909304601f810184900484028201840190925281815293820193929183018282801561154c5780601f106115215761010080835404028352916020019161154c565b820191906000526020600020905b81548152906001019060200180831161152f57829003601f168201915b505050918352505060058201805460408051602060026001851615610100026000190190941693909304601f81018490048402820184019092528181529382019392918301828280156115e05780601f106115b5576101008083540402835291602001916115e0565b820191906000526020600020905b8154815290600101906020018083116115c357829003601f168201915b505050918352505060068201805460408051602060026001851615610100026000190190941693909304601f81018490048402820184019092528181529382019392918301828280156116745780601f1061164957610100808354040283529160200191611674565b820191906000526020600020905b81548152906001019060200180831161165757829003601f168201915b50505050508152602001600782018054806020026020016040519081016040528092919081815260200182805480156116cc57602002820191906000526020600020905b8154815260200190600101908083116116b8575b505050505081526020016008820180548060200260200160405190810160405280929190818152602001828054801561172457602002820191906000526020600020905b815481526020019060010190808311611710575b505050505081526020016009820180548060200260200160405190810160405280929190818152602001828054801561178657602002820191906000526020600020905b8154600160a060020a03168152600190910190602001808311611768575b505050505081525050828281518110151561179d57fe5b60209081029091010152600101611334565b600080805b6004548110156112e257336000908152600360208190526040822081015460048054919391859081106117e357fe5b6000918252602080832090910154600160a060020a03168352820192909252604001902060030154148015611860575060026003600060048481548110151561182857fe5b6000918252602080832090910154600160a060020a0316835282019290925260400190206006015460ff16600281111561185e57fe5b145b1561186c576001909101905b6001016117b4565b60008115156118985760405160e560020a62461bcd02815260040161044a90615ad8565b600086116118bb5760405160e560020a62461bcd02815260040161044a90615ae8565b33600090815260036020526040902054156118eb5760405160e560020a62461bcd02815260040161044a90615a08565b6118f482612d97565b15156119155760405160e560020a62461bcd02815260040161044a90615a88565b61191e86612daa565b90506119338686868585886001336000612f99565b505050505050565b600061194633610fdf565b151561195157600080fd5b506002545b90565b83156119cc576007805460010190819055925061197585612d97565b15156119965760405160e560020a62461bcd02815260040161044a90615a68565b61199e6126df565b94506119b0838989898960008e6133ed565b6119ba8584613565565b6119c7838789600161358a565b611a49565b6000838152600560205260408120600301546119ef91859160ff1690859061358a565b600083815260056020526040902060030154611a1290849060ff1689600161358a565b60008381526005602081905260409091208054600382015460048301549290930154611a499387938c9260ff9283169216876133ed565b5050505050505050565b6060600080600080606080600080611a6c600a8b61270b565b9750611a766126df565b9650611a81876126f6565b9550611a8e86600a612744565b9450851580611a9f57506001860388115b80611aa95750848a115b15611ab357611d48565b611abc876141f2565b60408051600a8082526101608201909252919550816020015b611add6148ab565b815260200190600190039081611ad5579050509250600091508790505b8351811015611d4457600a821015611d3757600560008583815181101515611b1e57fe5b90602001906020020151815260200190815260200160002060e06040519081016040529081600082015481526020016001820154815260200160028201805480602002602001604051908101604052809291908181526020016000905b82821015611cd95760008481526020908190206040805160028681029093018054600181161561010002600019011693909304601f810185900490940281016060908101835291810184815290938492849190840182828015611c1f5780601f10611bf457610100808354040283529160200191611c1f565b820191906000526020600020905b815481529060010190602001808311611c0257829003601f168201915b50505050508152602001600182018054600181600116156101000203166002900480601f016020809104026020016040519081016040528092919081815260200182805460018160011615610100020316600290048015611cc15780601f10611c9657610100808354040283529160200191611cc1565b820191906000526020600020905b815481529060010190602001808311611ca457829003601f168201915b50505050508152505081526020019060010190611b7b565b50505090825250600382015460ff9081161515602083015260048301546040830152600583015416151560608201526006909101546080909101528351849084908110611d2257fe5b60209081029091010152600190910190611d3c565b611d44565b600101611afa565b8298505b5050505050505050919050565b611d5d6148ed565b611d656148ed565b336000908152600360209081526040918290208251610100808201855282548252600180840180548751600293821615909402600019011691909104601f8101869004860283018601909652858252919492938581019391929190830182828015610e485780601f10610e1d57610100808354040283529160200191610e48565b6060600080600060606000611dfc600a8861270b565b600254909550611e0d90600a612744565b6002549094501580611e2457506002546000190185115b80611e2e57508387115b15611e38576122f7565b60408051600a80825261016082019092526000945090816020015b611e5b61493e565b815260200190600190039081611e535790505091508490505b6002548110156122f35760016000600283815481101515611e9157fe5b9060005260206000200154815260200190815260200160002061014060405190810160405290816000820154815260200160018201548152602001600282018054600181600116156101000203166002900480601f016020809104026020016040519081016040528092919081815260200182805460018160011615610100020316600290048015611f645780601f10611f3957610100808354040283529160200191611f64565b820191906000526020600020905b815481529060010190602001808311611f4757829003601f168201915b505050918352505060038201805460408051602060026001851615610100026000190190941693909304601f8101849004840282018401909252818152938201939291830182828015611ff85780601f10611fcd57610100808354040283529160200191611ff8565b820191906000526020600020905b815481529060010190602001808311611fdb57829003601f168201915b505050918352505060048201805460408051602060026001851615610100026000190190941693909304601f810184900484028201840190925281815293820193929183018282801561208c5780601f106120615761010080835404028352916020019161208c565b820191906000526020600020905b81548152906001019060200180831161206f57829003601f168201915b505050918352505060058201805460408051602060026001851615610100026000190190941693909304601f81018490048402820184019092528181529382019392918301828280156121205780601f106120f557610100808354040283529160200191612120565b820191906000526020600020905b81548152906001019060200180831161210357829003601f168201915b505050918352505060068201805460408051602060026001851615610100026000190190941693909304601f81018490048402820184019092528181529382019392918301828280156121b45780601f10612189576101008083540402835291602001916121b4565b820191906000526020600020905b81548152906001019060200180831161219757829003601f168201915b505050505081526020016007820180548060200260200160405190810160405280929190818152602001828054801561220c57602002820191906000526020600020905b8154815260200190600101908083116121f8575b505050505081526020016008820180548060200260200160405190810160405280929190818152602001828054801561226457602002820191906000526020600020905b815481526020019060010190808311612250575b50505050508152602001600982018054806020026020016040519081016040528092919081815260200182805480156122c657602002820191906000526020600020905b8154600160a060020a031681526001909101906020018083116122a8575b50505050508152505082848151811015156122dd57fe5b6020908102909101015260019283019201611e74565b8195505b5050505050919050565b61230a33614287565b565b61231533610fdf565b151561232057600080fd5b61059e816142cf565b60008061233533610fdf565b151561234057600080fd5b600088116123635760405160e560020a62461bcd02815260040161044a90615ae8565b61236c88612daa565b6000818152600160205260409020549091501561239e5760405160e560020a62461bcd02815260040161044a90615a78565b6123ad81898989898989612767565b979650505050505050565b600160a060020a038181166000908152600360205260408120600601549091829182916101009091041681106124035760405160e560020a62461bcd02815260040161044a90615a18565b6002600160a060020a03851660009081526003602052604090206006015460ff16600281111561242f57fe5b1461244f5760405160e560020a62461bcd02815260040161044a90615ab8565b600160a060020a03841660009081526003602052604090206004810154815460069092015490945090925060ff16600281111561248857fe5b9050611a4982898989878a878b6001612f99565b6124a533610fdf565b15156124b057600080fd5b600160a060020a038116600090815260036020819052604090912001546124d79082612570565b604080518082018252600b81527f53757065722061646d696e0000000000000000000000000000000000000000006020808301918252600160a060020a038516600090815260039091529290922090516125379260059092019190614992565b50600160a060020a0381166000908152600360208190526040822090810191909155600601805460ff1916600217905561059e8161230c565b6000805b600084815260016020526040902060090154600019018110156126705760008481526001602052604090206009018054600160a060020a0385169190839081106125ba57fe5b600091825260209091200154600160a060020a031614156125da57600191505b811561266857600084815260016020819052604090912060090180549091830190811061260357fe5b6000918252602080832090910154868352600190915260409091206009018054600160a060020a03909216918390811061263957fe5b9060005260206000200160006101000a815481600160a060020a030219169083600160a060020a031602179055505b600101612574565b60008481526001602052604090206009018054600019810190811061269157fe5b60009182526020808320909101805473ffffffffffffffffffffffffffffffffffffffff1916905585825260019052604090206009018054906126d8906000198301614a0c565b5050505050565b336000908152600360208190526040909120015490565b60009081526001602052604090206008015490565b60008083151561271e576000915061273d565b5082820282848281151561272e57fe5b041461273957600080fd5b8091505b5092915050565b60008080831161275357600080fd5b828481151561275e57fe5b04949350505050565b61276f61493e565b855115156127925760405160e560020a62461bcd02815260040161044a90615ac8565b825115156127b55760405160e560020a62461bcd02815260040161044a90615aa8565b815115156127d85760405160e560020a62461bcd02815260040161044a90615a98565b6000888152600160208181526040928390208351610140810185528154815281840154818401526002808301805487519681161561010002600019011691909104601f8101859004850286018501875280865291959294928601939091908301828280156128875780601f1061285c57610100808354040283529160200191612887565b820191906000526020600020905b81548152906001019060200180831161286a57829003601f168201915b505050918352505060038201805460408051602060026001851615610100026000190190941693909304601f810184900484028201840190925281815293820193929183018282801561291b5780601f106128f05761010080835404028352916020019161291b565b820191906000526020600020905b8154815290600101906020018083116128fe57829003601f168201915b505050918352505060048201805460408051602060026001851615610100026000190190941693909304601f81018490048402820184019092528181529382019392918301828280156129af5780601f10612984576101008083540402835291602001916129af565b820191906000526020600020905b81548152906001019060200180831161299257829003601f168201915b505050918352505060058201805460408051602060026001851615610100026000190190941693909304601f8101849004840282018401909252818152938201939291830182828015612a435780601f10612a1857610100808354040283529160200191612a43565b820191906000526020600020905b815481529060010190602001808311612a2657829003601f168201915b505050918352505060068201805460408051602060026001851615610100026000190190941693909304601f8101849004840282018401909252818152938201939291830182828015612ad75780601f10612aac57610100808354040283529160200191612ad7565b820191906000526020600020905b815481529060010190602001808311612aba57829003601f168201915b5050505050815260200160078201805480602002602001604051908101604052809291908181526020018280548015612b2f57602002820191906000526020600020905b815481526020019060010190808311612b1b575b5050505050815260200160088201805480602002602001604051908101604052809291908181526020018280548015612b8757602002820191906000526020600020905b815481526020019060010190808311612b73575b5050505050815260200160098201805480602002602001604051908101604052809291908181526020018280548015612be957602002820191906000526020600020905b8154600160a060020a03168152600190910190602001808311612bcb575b50505091909252505050888152602080820189815260408084018a8152606085018a90526080850189905260a0850188905260c0850187905260008d815260018086529290208551815592519183019190915551805193945084939192612c5892600285019290910190614992565b5060608201518051612c74916003840191602090910190614992565b5060808201518051612c90916004840191602090910190614992565b5060a08201518051612cac916005840191602090910190614992565b5060c08201518051612cc8916006840191602090910190614992565b5060e08201518051612ce4916007840191602090910190614a35565b506101008201518051612d01916008840191602090910190614a35565b506101208201518051612d1e916009840191602090910190614a6f565b5050600280546001810182556000919091527f405787fa12a823e0f2b7631cc41b3ba8828b3321ca811111fa75cd3aa3bb5ace01989098555050505050505050565b6000600160a060020a0382161515612d7757600080fd5b50600160a060020a03166000908152602091909152604090205460ff1690565b6000908152600160205260408120541190565b6000808080600285061515612e3c5784604051602001808281526020019150506040516020818303038152906040526040518082805190602001908083835b60208310612e085780518252601f199092019160209182019101612de9565b6001836020036101000a03801982511681845116808217855250505050505090500191505060405180910390209250612f27565b84604051602001808281526020019150506040516020818303038152906040526040518082805190602001908083835b60208310612e8b5780518252601f199092019160209182019101612e6c565b51815160209384036101000a600019018019909216911617905260408051929094018290038220828201528351808303820181529184019384905281519195509293508392850191508083835b60208310612ef75780518252601f199092019160209182019101612ed8565b6001836020036101000a038019825116818451168082178552505050505050905001915050604051809103902092505b6020811015612f5457828160208110612f3c57fe5b60f860020a91901a8102049190910190600101612f27565b826020600284010660208110612f6657fe5b60f860020a91901a810204836020840660208110612f8057fe5b1a60f860020a0260f860020a9004029350505050919050565b612fa16148ed565b600084101580612fb2575060028411155b1515612fd35760405160e560020a62461bcd02815260040161044a90615a48565b84511515612ff65760405160e560020a62461bcd02815260040161044a906159e8565b600160a060020a0383166000908152600360209081526040918290208251610100808201855282548252600180840180548751600293821615909402600019011691909104601f81018690048602830186019096528582529194929385810193919291908301828280156130ab5780601f10613080576101008083540402835291602001916130ab565b820191906000526020600020905b81548152906001019060200180831161308e57829003601f168201915b5050509183525050600282810180546040805160206001841615610100026000190190931694909404601f8101839004830285018301909152808452938101939083018282801561313d5780601f106131125761010080835404028352916020019161313d565b820191906000526020600020905b81548152906001019060200180831161312057829003601f168201915b505050505081526020016003820154815260200160048201548152602001600582018054600181600116156101000203166002900480601f0160208091040260200160405190810160405280929190818152602001828054600181600116156101000203166002900480156131f35780601f106131c8576101008083540402835291602001916131f3565b820191906000526020600020905b8154815290600101906020018083116131d657829003601f168201915b5050509183525050600682015460209091019060ff16600281111561321457fe5b600281111561321f57fe5b8152600691909101546101009004600160a060020a03166020918201528b825281018a905260408101899052606081018890526080810187905260a08101869052905083600281111561326e57fe5b8160c00190600281111561327e57fe5b9081600281111561328b57fe5b905250600160a060020a03831660e0820181905260009081526003602090815260409091208251815581830151805184936132cd926001850192910190614992565b50604082015180516132e9916002840191602090910190614992565b50606082015160038201556080820151600482015560a08201518051613319916005840191602090910190614992565b5060c082015160068201805460ff1916600183600281111561333757fe5b021790555060e0919091015160069091018054600160a060020a039092166101000274ffffffffffffffffffffffffffffffffffffffff00199092169190911790558115156133e157600480546001810182556000919091527f8a35acfbc15ff81a39ae7d344fd709f28e8600b4aa8c65c6b64bfe7fe36bd19b01805473ffffffffffffffffffffffffffffffffffffffff1916600160a060020a0385161790556133e187614317565b50505050505050505050565b6133f5614add565b60606000606061340489614356565b935061340f846143a4565b60008c8152600560205260408120600181018e90558c815560038101805460ff19168c15151790559194506134479160020190614af4565b600091505b825182101561352c57613475838381518110151561346657fe5b906020019060200201516143a4565b9050600560008c815260200190815260200160002060020160408051908101604052806134b98460008151811015156134aa57fe5b90602001906020020151614477565b81526020016134d08460018151811015156134aa57fe5b9052815460018101808455600093845260209384902083518051929560029094029091019261350492849290910190614992565b50602082810151805161351d9260018501920190614992565b5050505081600101915061344c565b505050600097885250600560208190526040909720600481019390935560068301559401805460ff191694151594909417909355505050565b6000918252600160208181526040842060080180549283018155845290922090910155565b613592614add565b60606000806000806135a388614356565b95506135ae866143a4565b94506135e16135c586600581518110151561346657fe5b805160019081106135d257fe5b906020019060200201516144e9565b935061312f8461ffff16111561361157613030603061010061ffff602f19880116040360f602850303935061363c565b603a8461ffff1610156136295760308403935061363c565b8361ffff16613030141561363c57606493505b5050506000878152600660209081526040808320805461ffff191661ffff8616179055600591829052909120015460ff166001805b60075481116133e15760008181526005602052604090206003015460ff1615158915151480156136a15750808a14155b156141ea576000818152600560205260408120600201805490919081106136c457fe5b906000526020600020906002020160010160405160200180828054600181600116156101000203166002900480156137335780601f10613711576101008083540402835291820191613733565b820191906000526020600020905b81548152906001019060200180831161371f575b50509150506040516020818303038152906040526040518082805190602001908083835b602083106137765780518252601f199092019160209182019101613757565b6001836020036101000a0380198251168184511680821785525050505050509050019150506040518091039020600019166137c96137bc87600081518110151561346657fe5b805160019081106134aa57fe5b6040516020018082805190602001908083835b602083106137fb5780518252601f1990920191602091820191016137dc565b6001836020036101000a0380198251168184511680821785525050505050509050019150506040516020818303038152906040526040518082805190602001908083835b6020831061385e5780518252601f19909201916020918201910161383f565b6001836020036101000a038019825116818451168082178552505050505050905001915050604051809103902060001916148015613a7557506000818152600560205260409020600201805460019081106138b557fe5b906000526020600020906002020160010160405160200180828054600181600116156101000203166002900480156139245780601f10613902576101008083540402835291820191613924565b820191906000526020600020905b815481529060010190602001808311613910575b50509150506040516020818303038152906040526040518082805190602001908083835b602083106139675780518252601f199092019160209182019101613948565b6001836020036101000a0380198251168184511680821785525050505050509050019150506040518091039020600019166139ad6137bc87600181518110151561346657fe5b6040516020018082805190602001908083835b602083106139df5780518252601f1990920191602091820191016139c0565b6001836020036101000a0380198251168184511680821785525050505050509050019150506040516020818303038152906040526040518082805190602001908083835b60208310613a425780518252601f199092019160209182019101613a23565b6001836020036101000a038019825116818451168082178552505050505050905001915050604051809103902060001916145b8015613c5c57506000818152600560205260409020600290810180549091908110613a9c57fe5b90600052602060002090600202016001016040516020018082805460018160011615610100020316600290048015613b0b5780601f10613ae9576101008083540402835291820191613b0b565b820191906000526020600020905b815481529060010190602001808311613af7575b50509150506040516020818303038152906040526040518082805190602001908083835b60208310613b4e5780518252601f199092019160209182019101613b2f565b6001836020036101000a038019825116818451168082178552505050505050905001915050604051809103902060001916613b946137bc87600281518110151561346657fe5b6040516020018082805190602001908083835b60208310613bc65780518252601f199092019160209182019101613ba7565b6001836020036101000a0380198251168184511680821785525050505050509050019150506040516020818303038152906040526040518082805190602001908083835b60208310613c295780518252601f199092019160209182019101613c0a565b6001836020036101000a038019825116818451168082178552505050505050905001915050604051809103902060001916145b8015613e415750600081815260056020526040902060020180546003908110613c8157fe5b90600052602060002090600202016001016040516020018082805460018160011615610100020316600290048015613cf05780601f10613cce576101008083540402835291820191613cf0565b820191906000526020600020905b815481529060010190602001808311613cdc575b50509150506040516020818303038152906040526040518082805190602001908083835b60208310613d335780518252601f199092019160209182019101613d14565b6001836020036101000a038019825116818451168082178552505050505050905001915050604051809103902060001916613d796137bc87600381518110151561346657fe5b6040516020018082805190602001908083835b60208310613dab5780518252601f199092019160209182019101613d8c565b6001836020036101000a0380198251168184511680821785525050505050509050019150506040516020818303038152906040526040518082805190602001908083835b60208310613e0e5780518252601f199092019160209182019101613def565b6001836020036101000a038019825116818451168082178552505050505050905001915050604051809103902060001916145b80156140265750600081815260056020526040902060020180546004908110613e6657fe5b90600052602060002090600202016001016040516020018082805460018160011615610100020316600290048015613ed55780601f10613eb3576101008083540402835291820191613ed5565b820191906000526020600020905b815481529060010190602001808311613ec1575b50509150506040516020818303038152906040526040518082805190602001908083835b60208310613f185780518252601f199092019160209182019101613ef9565b6001836020036101000a038019825116818451168082178552505050505050905001915050604051809103902060001916613f5e6137bc87600481518110151561346657fe5b6040516020018082805190602001908083835b60208310613f905780518252601f199092019160209182019101613f71565b6001836020036101000a0380198251168184511680821785525050505050509050019150506040516020818303038152906040526040518082805190602001908083835b60208310613ff35780518252601f199092019160209182019101613fd4565b6001836020036101000a038019825116818451168082178552505050505050905001915050604051809103902060001916145b156141ea5786156140fb576000818152600660205260409020805461ffff19811661ffff9182168701821617918290556064911611156140f6578215156140995760008a8152600560208190526040909120908101805460ff1916600117905560040154614094908b61451f565b600192505b6000818152600560208190526040909120015460ff1615156140f657600081815260056020526040902060048101546001909101546140d8919061451f565b600081815260056020819052604090912001805460ff191660011790555b6141b8565b6000818152600660205260409020805461ffff19811661ffff9182168790038216179182905560649116116141b857821561415f5760008a8152600560208190526040909120908101805460ff191690556004015461415a908b614544565b600092505b6000818152600560208190526040909120015460ff16156141b8576000818152600560205260409020600481015460019091015461419d9190614544565b600081815260056020819052604090912001805460ff191690555b81156141ea57600081815260066020526040808220548c8352908220805461ffff191661ffff90921691909117905591505b600101613671565b600081815260016020526040812054606091106142245760405160e560020a62461bcd02815260040161044a90615a58565b6000828152600160209081526040918290206008018054835181840281018401909452808452909183018282801561427b57602002820191906000526020600020905b815481526020019060010190808311614267575b50505050509050919050565b61429860008263ffffffff61465716565b604051600160a060020a038216907f3525e22824a8a7df2c9a6029941c824cf95b6447f1e13d5128fd3826d35afe8b90600090a250565b6142e060008263ffffffff6146a316565b604051600160a060020a038216907f47d1c22a25bb3a5d4e481b9b1e6944c2eade3181a0a20b495ed61d35b5323f2490600090a250565b6000908152600160208181526040832060090180549283018155835290912001805473ffffffffffffffffffffffffffffffffffffffff191633179055565b61435e614add565b600082516000141561438557604080518082019091526000808252602082015291506112e2565b5050604080518082019091528151815260209182019181019190915290565b60606000806000806143b5866146f1565b15156143c057600080fd5b6143c986614720565b93508360405190808252806020026020018201604052801561440557816020015b6143f2614add565b8152602001906001900390816143ea5790505b5094506144158660200151614770565b8660200151019250600090505b8381101561446e57614433836147d3565b9150604080519081016040528083815260200184815250858281518110151561445857fe5b6020908102909101015291810191600101614422565b50505050919050565b60606000806060600061448d8660200151614770565b9350838660000151039250826040519080825280601f01601f1916602001820160405280156144c6578160200160208202803883390190505b5091508160200190506144e0848760200151018285614864565b50949350505050565b60008060008060006144fe8660200151614770565b86516020978801518201519190039096036101000a90950495945050505050565b6000918252600160208181526040842060070180549283018155845290922090910155565b6000805b6000848152600160205260409020600701546000190181101561460757600084815260016020526040902060070180548491908390811061458557fe5b9060005260206000200154141561459b57600191505b81156145ff5760008481526001602081905260409091206007018054909183019081106145c457fe5b906000526020600020015460016000868152602001908152602001600020600701828154811015156145f257fe5b6000918252602090912001555b600101614548565b60008481526001602052604090206007018054600019810190811061462857fe5b6000918252602080832090910182905585825260019052604090206007018054906126d8906000198301614a0c565b600160a060020a038116151561466c57600080fd5b6146768282612d60565b151561468157600080fd5b600160a060020a0316600090815260209190915260409020805460ff19169055565b600160a060020a03811615156146b857600080fd5b6146c28282612d60565b156146cc57600080fd5b600160a060020a0316600090815260209190915260409020805460ff19166001179055565b6020810151805160009190821a9060c060ff831610156147145760009250614719565b600192505b5050919050565b600080600080600092506147378560200151614770565b6020860151865191810193500190505b8082101561476757614758826147d3565b60019093019290910190614747565b50909392505050565b8051600090811a608081101561478957600091506112e2565b60b88110806147a4575060c081108015906147a4575060f881105b156147b257600191506112e2565b60c08110156147c75760b519810191506112e2565b60f519810191506112e2565b8051600090811a60808110156147ec57600191506112e2565b60b881101561480157607e19810191506112e2565b60c081101561482e5760b78103600184019350806020036101000a845104600182018101935050506112e2565b60f88110156148435760be19810191506112e2565b60019290920151602083900360f7016101000a900490910160f51901919050565b60005b60208210614889578351835260209384019390920191601f1990910190614867565b50915181516020939093036101000a6000190180199091169216919091179052565b60e06040519081016040528060008152602001600081526020016060815260200160001515815260200160008152602001600015158152602001600081525090565b610100604051908101604052806000815260200160608152602001606081526020016000815260200160008152602001606081526020016000600281111561493157fe5b8152600060209091015290565b61014060405190810160405280600081526020016000815260200160608152602001606081526020016060815260200160608152602001606081526020016060815260200160608152602001606081525090565b828054600181600116156101000203166002900490600052602060002090601f016020900481019282601f106149d357805160ff1916838001178555614a00565b82800160010185558215614a00579182015b82811115614a005782518255916020019190600101906149e5565b506105ba929150614b15565b815481835581811115614a3057600083815260209020614a30918101908301614b15565b505050565b828054828255906000526020600020908101928215614a005791602002820182811115614a005782518255916020019190600101906149e5565b828054828255906000526020600020908101928215614ad1579160200282015b82811115614ad1578251825473ffffffffffffffffffffffffffffffffffffffff1916600160a060020a03909116178255602090920191600190910190614a8f565b506105ba929150614b2f565b604080518082019091526000808252602082015290565b508054600082556002029060005260206000209081019061059e9190614b60565b61195691905b808211156105ba5760008155600101614b1b565b61195691905b808211156105ba57805473ffffffffffffffffffffffffffffffffffffffff19168155600101614b35565b61195691905b808211156105ba576000614b7a8282614b91565b614b88600183016000614b91565b50600201614b66565b50805460018160011615610100020316600290046000825580601f10614bb7575061059e565b601f01602090049060005260206000209081019061059e9190614b15565b6000614be18235615b81565b9392505050565b6000614be18235615b8d565b6000601f82018313614c0557600080fd5b8135614c18614c1382615b4f565b615b28565b91508082526020830160208301858383011115614c3457600080fd5b614c3f838284615ba9565b50505092915050565b6000614be18235611956565b600060208284031215614c6657600080fd5b6000614c728484614bd5565b949350505050565b600080600080600060a08688031215614c9257600080fd5b853567ffffffffffffffff811115614ca957600080fd5b614cb588828901614bf4565b955050602086013567ffffffffffffffff811115614cd257600080fd5b614cde88828901614bf4565b9450506040614cef88828901614c48565b935050606086013567ffffffffffffffff811115614d0c57600080fd5b614d1888828901614bf4565b9250506080614d2988828901614bd5565b9150509295509295909350565b600060208284031215614d4857600080fd5b6000614c728484614c48565b600080600080600080600080610100898b031215614d7157600080fd5b6000614d7d8b8b614c48565b985050602089013567ffffffffffffffff811115614d9a57600080fd5b614da68b828c01614bf4565b9750506040614db78b828c01614be8565b9650506060614dc88b828c01614c48565b9550506080614dd98b828c01614be8565b94505060a0614dea8b828c01614c48565b93505060c089013567ffffffffffffffff811115614e0757600080fd5b614e138b828c01614bf4565b92505060e0614e248b828c01614c48565b9150509295985092959890939650565b60008060008060008060c08789031215614e4d57600080fd5b6000614e598989614c48565b965050602087013567ffffffffffffffff811115614e7657600080fd5b614e8289828a01614bf4565b955050604087013567ffffffffffffffff811115614e9f57600080fd5b614eab89828a01614bf4565b945050606087013567ffffffffffffffff811115614ec857600080fd5b614ed489828a01614bf4565b935050608087013567ffffffffffffffff811115614ef157600080fd5b614efd89828a01614bf4565b92505060a087013567ffffffffffffffff811115614f1a57600080fd5b614f2689828a01614bf4565b9150509295509295509295565b600080600080600060a08688031215614f4b57600080fd5b6000614f578888614c48565b955050602086013567ffffffffffffffff811115614f7457600080fd5b614f8088828901614bf4565b945050604086013567ffffffffffffffff811115614f9d57600080fd5b614fa988828901614bf4565b935050606086013567ffffffffffffffff811115614fc657600080fd5b614fd288828901614bf4565b9250506080614d2988828901614c48565b600080600080600080600060e0888a031215614ffe57600080fd5b600061500a8a8a614c48565b975050602061501b8a828b01614c48565b965050604088013567ffffffffffffffff81111561503857600080fd5b6150448a828b01614bf4565b955050606088013567ffffffffffffffff81111561506157600080fd5b61506d8a828b01614bf4565b945050608088013567ffffffffffffffff81111561508a57600080fd5b6150968a828b01614bf4565b93505060a088013567ffffffffffffffff8111156150b357600080fd5b6150bf8a828b01614bf4565b92505060c088013567ffffffffffffffff8111156150dc57600080fd5b6150e88a828b01614bf4565b91505092959891949750929550565b61510081615b81565b82525050565b600061511182615b7d565b80845260208401935061512383615b77565b60005b82811015615153576151398683516150f7565b61514282615b77565b602096909601959150600101615126565b5093949350505050565b600061516882615b7d565b8084526020840193508360208202850161518185615b77565b60005b848110156151b857838303885261519c838351615715565b92506151a782615b77565b602098909801979150600101615184565b50909695505050505050565b60006151cf82615b7d565b808452602084019350836020820285016151e885615b77565b60005b848110156151b85783830388526152038383516157aa565b925061520e82615b77565b6020989098019791506001016151eb565b600061522a82615b7d565b8084526020840193508360208202850161524385615b77565b60005b848110156151b857838303885261525e8383516158ad565b925061526982615b77565b602098909801979150600101615246565b600061528582615b7d565b8084526020840193508360208202850161529e85615b77565b60005b848110156151b85783830388526152b98383516158df565b92506152c482615b77565b6020989098019791506001016152a1565b60006152e082615b7d565b8084526020840193506152f283615b77565b60005b828110156151535761530886835161598e565b61531182615b77565b6020969096019591506001016152f5565b61510081615b8d565b61510081615b9e565b600061533f82615b7d565b808452615353816020860160208601615bb5565b61535c81615be5565b9093016020019392505050565b601a81527f4372656174696f6e204461746520697320696e6d757461626c65000000000000602082015260400190565b601181527f726f6c65206973206d616e6461746f7279000000000000000000000000000000602082015260400190565b602281527f4f6e6c792070656e64696e672075736572732063616e2062652061636365707460208201527f6564000000000000000000000000000000000000000000000000000000000000604082015260600190565b601381527f5573657220616c72656164792065786973747300000000000000000000000000602082015260400190565b601481527f546869732075736572206e6f7420657869737473000000000000000000000000602082015260400190565b601b81527f596f752063616e6e6f7420616363657074207468697320757365720000000000602082015260400190565b602281527f4f6e6c792070656e64696e672075736572732063616e2062652072656a65637460208201527f6564000000000000000000000000000000000000000000000000000000000000604082015260600190565b601381527f737461747573206973206e6f742076616c696400000000000000000000000000602082015260400190565b601181527f6d656d626572206e6f7420657869737473000000000000000000000000000000602082015260400190565b601481527f4d656d62657220646f206e6f7420657869737473000000000000000000000000602082015260400190565b601581527f4d656d62657220616c7265616479206578697374730000000000000000000000602082015260400190565b601181527f4d656d626572206e6f7420657869737473000000000000000000000000000000602082015260400190565b601281527f5468656d65206973206d616e6461746f72790000000000000000000000000000602082015260400190565b601081527f434d4f206973206d616e6461746f727900000000000000000000000000000000602082015260400190565b601481527f596f7520617265206e6f74206163636570746564000000000000000000000000602082015260400190565b601181527f4e616d65206973206d616e6461746f7279000000000000000000000000000000602082015260400190565b601181527f4e6f2076616c6964206d656d6265724964000000000000000000000000000000602082015260400190565b601981527f4372656174696f6e44617465206973206d616e6461746f727900000000000000602082015260400190565b805160009060e0840190615729858261598e565b50602083015161573c602086018261598e565b5060408301518482036040860152615754828261521f565b91505060608301516157696060860182615322565b50608083015161577c608086018261598e565b5060a083015161578f60a0860182615322565b5060c08301516157a260c086018261598e565b509392505050565b80516000906101408401906157bf858261598e565b5060208301516157d2602086018261598e565b50604083015184820360408601526157ea8282615334565b915050606083015184820360608601526158048282615334565b9150506080830151848203608086015261581e8282615334565b91505060a083015184820360a08601526158388282615334565b91505060c083015184820360c08601526158528282615334565b91505060e083015184820360e086015261586c82826152d5565b91505061010083015184820361010086015261588882826152d5565b9150506101208301518482036101208601526158a48282615106565b95945050505050565b80516040808452600091908401906158c58282615334565b915050602083015184820360208601526158a48282615334565b80516000906101008401906158f4858261598e565b506020830151848203602086015261590c8282615334565b915050604083015184820360408601526159268282615334565b915050606083015161593b606086018261598e565b50608083015161594e608086018261598e565b5060a083015184820360a08601526159668282615334565b91505060c083015161597b60c086018261532b565b5060e08301516157a260e08601826150f7565b61510081611956565b60208082528101614be1818461515d565b60208082528101614be181846151c4565b60208082528101614be1818461527a565b60208101610ff18284615322565b60208082528101610ff181615369565b60208082528101610ff181615399565b60208082528101610ff1816153c9565b60208082528101610ff18161541f565b60208082528101610ff18161544f565b60208082528101610ff18161547f565b60208082528101610ff1816154af565b60208082528101610ff181615505565b60208082528101610ff181615535565b60208082528101610ff181615565565b60208082528101610ff181615595565b60208082528101610ff1816155c5565b60208082528101610ff1816155f5565b60208082528101610ff181615625565b60208082528101610ff181615655565b60208082528101610ff181615685565b60208082528101610ff1816156b5565b60208082528101610ff1816156e5565b60208082528101614be18184615715565b60208082528101614be181846158df565b60208101610ff1828461598e565b60405181810167ffffffffffffffff81118282101715615b4757600080fd5b604052919050565b600067ffffffffffffffff821115615b6657600080fd5b506020601f91909101601f19160190565b60200190565b5190565b600160a060020a031690565b151590565b6000600382106105ba57fe5b6000610ff182615b92565b82818337506000910152565b60005b83811015615bd0578181015183820152602001615bb8565b83811115615bdf576000848401525b50505050565b601f01601f1916905600a265627a7a72305820d15b2f9ee3c2d4fb97847d7b121c61fb470e34711588239dfbe10ad2c59c0d746c6578706572696d656e74616cf50037",
  "source": "pragma solidity ^0.4.24;\npragma experimental ABIEncoderV2;\n\nimport \"../../node_modules/solidity-rlp/contracts/RLPReader.sol\";\nimport \"./Users.sol\";\nimport \"./Lib.sol\";\n//import \"./Lib2.sol\";\n\ncontract Claims is Users, Lib {\n\n  using RLPReader for bytes;\n  using RLPReader for uint;\n  using RLPReader for RLPReader.RLPItem;\n\n  uint256 constant private PAGE_SIZE = 10;\n\n  function computeClaim(uint256 _creationDate, bytes _claimData, bool _claimType, uint _memberOwner, bool reg_update,\n    uint256 _claimId, bytes _oldClaimData, uint _lastChange) public {\n\n    if (reg_update) {\n  //    require(_creationDate > 0, \"CreationDate is mandatory\");\n      //    require(_claimType || !_claimType, \"Incorrect Claim Type\");\n\n      _claimId = ++claimIdCounter_;\n      //    uint256 _claimId = Random.rand(_creationDate);\n\n      //    require(claims_[_claimId].claimId == 0, \"Claim already exists\");\n      require(_memberExists(_memberOwner), \"Member do not exists\");\n\n      //    uint256\n      _memberOwner = _memberIdFromCurrentAddress();\n\n      _saveClaim(_claimId, _creationDate, _claimData, _claimType, _memberOwner, false, _creationDate);\n      _addClaimIdToMemberOwner(_memberOwner, _claimId);\n\n      checkClaimStatus(_claimId, _claimType, _claimData, true);\n    } else {\n  //  //\n  //  function updateClaim(uint256 _claimId, bytes _claimData, bytes _oldClaimData, uint _lastChange) internal {\n\n  //    updateClaimStatus(_claimId, claims_[_claimId].claimType, _oldClaimData);\n      checkClaimStatus(_claimId, claims_[_claimId].claimType, _oldClaimData, false);\n      checkClaimStatus(_claimId, claims_[_claimId].claimType, _claimData, true);\n\n      _saveClaim(_claimId, claims_[_claimId].creationDate, _claimData, claims_[_claimId].claimType,\n        claims_[_claimId].memberOwner, claims_[_claimId].status, _lastChange);\n    }\n  }\n\n  function getClaim(uint256 _claimId) view public returns (Claim) {\n    return claims_[_claimId];\n  }\n\n  function getClaimsByMemberId(uint _page) view public returns (Claim[] memory) {\n    uint256 pageIndex = SafeMath.mul(PAGE_SIZE, _page);\n    uint256 _memberId = _memberIdFromCurrentAddress();\n    uint count = _getClaimsCountByMember(_memberId);\n    uint256 pageNumber = SafeMath.div(count, PAGE_SIZE);\n\n    if (count == 0 || pageIndex > count - 1 || _page > pageNumber) {\n      return;\n    }\n\n    uint256[] memory claimsId = _getClaimsIdByMember(_memberId);\n\n    Claim[] memory _claims = new Claim[](PAGE_SIZE);\n    uint256 returnCounter = 0;\n    for (uint i = pageIndex; i < claimsId.length; ++i) {\n      if(returnCounter < PAGE_SIZE) {\n        _claims[returnCounter] = claims_[claimsId[i]];\n        ++returnCounter;\n      } else {\n        break;\n      }\n    }\n    return _claims;\n  }\n\n  function getClaimsCountByMemberId() view public returns (uint) {\n    uint256 _memberId = _memberIdFromCurrentAddress();\n    return _getClaimsCountByMember(_memberId);\n  }\n\n  // Private\n  function _saveClaim(uint256 _claimId, uint256 _creationDate, bytes _claimData, bool _claimType,\n    uint _memberOwner, bool _status, uint256 _lastChange) internal {\n\n    RLPReader.RLPItem memory item = _claimData.toRlpItem();\n    RLPReader.RLPItem[] memory itemList = item.toList(); // ((name, value), (name, value), (name, value), ...)\n\n    claims_[_claimId].claimId = _claimId;\n    claims_[_claimId].creationDate = _creationDate;\n    claims_[_claimId].claimType = _claimType;\n\n    delete claims_[_claimId].claimData;\n    for(uint i = 0; i < itemList.length; ++i) {\n      RLPReader.RLPItem[] memory itemListClaim = itemList[i].toList(); // (name, value)\n      claims_[_claimId].claimData.push(NameValue(string(itemListClaim[0].toBytes()), string(itemListClaim[1].toBytes())));\n    }\n\n    claims_[_claimId].memberOwner = _memberOwner;\n    claims_[_claimId].lastChange = _lastChange;\n    claims_[_claimId].status = _status;\n  }\n\n}\n",
  "sourcePath": "/home/komodo/newUI/bloomen-decentralized-rights-management-v2/truffle/contracts/registry/Claims.sol",
  "compiler": {
    "name": "solc",
    "version": "0.4.24+commit.e67f0147.Emscripten.clang"
  },
  "schemaVersion": "2.0.1",
  "updatedAt": "2019-11-18T12:22:50.272Z"
}