{
  "contractName": "Claims",
  "abi": [
    {
      "constant": false,
      "inputs": [
        {
          "name": "_userToAccept",
          "type": "address"
        }
      ],
      "name": "acceptUser",
      "outputs": [],
      "payable": false,
      "stateMutability": "nonpayable",
      "type": "function"
    },
    {
      "constant": false,
      "inputs": [
        {
          "name": "_userToReject",
          "type": "address"
        }
      ],
      "name": "rejectUser",
      "outputs": [],
      "payable": false,
      "stateMutability": "nonpayable",
      "type": "function"
    },
    {
      "constant": true,
      "inputs": [
        {
          "name": "_page",
          "type": "uint256"
        }
      ],
      "name": "getUsers",
      "outputs": [
        {
          "components": [
            {
              "name": "creationDate",
              "type": "uint256"
            },
            {
              "name": "firstName",
              "type": "string"
            },
            {
              "name": "lastName",
              "type": "string"
            },
            {
              "name": "memberId",
              "type": "uint256"
            },
            {
              "name": "requestId",
              "type": "uint256"
            },
            {
              "name": "role",
              "type": "string"
            },
            {
              "name": "status",
              "type": "uint8"
            },
            {
              "name": "owner",
              "type": "address"
            }
          ],
          "name": "",
          "type": "tuple[]"
        }
      ],
      "payable": false,
      "stateMutability": "view",
      "type": "function"
    },
    {
      "constant": false,
      "inputs": [
        {
          "name": "_memberId",
          "type": "uint256"
        },
        {
          "name": "_creationDate",
          "type": "uint256"
        },
        {
          "name": "_name",
          "type": "string"
        },
        {
          "name": "_logo",
          "type": "string"
        },
        {
          "name": "_country",
          "type": "string"
        },
        {
          "name": "_cmo",
          "type": "string"
        },
        {
          "name": "_theme",
          "type": "string"
        }
      ],
      "name": "updateMember",
      "outputs": [],
      "payable": false,
      "stateMutability": "nonpayable",
      "type": "function"
    },
    {
      "constant": true,
      "inputs": [
        {
          "name": "userAddress",
          "type": "address"
        }
      ],
      "name": "getUserByAddress",
      "outputs": [
        {
          "components": [
            {
              "name": "creationDate",
              "type": "uint256"
            },
            {
              "name": "firstName",
              "type": "string"
            },
            {
              "name": "lastName",
              "type": "string"
            },
            {
              "name": "memberId",
              "type": "uint256"
            },
            {
              "name": "requestId",
              "type": "uint256"
            },
            {
              "name": "role",
              "type": "string"
            },
            {
              "name": "status",
              "type": "uint8"
            },
            {
              "name": "owner",
              "type": "address"
            }
          ],
          "name": "",
          "type": "tuple"
        }
      ],
      "payable": false,
      "stateMutability": "view",
      "type": "function"
    },
    {
      "constant": true,
      "inputs": [
        {
          "name": "account",
          "type": "address"
        }
      ],
      "name": "isSigner",
      "outputs": [
        {
          "name": "",
          "type": "bool"
        }
      ],
      "payable": false,
      "stateMutability": "view",
      "type": "function"
    },
    {
      "constant": true,
      "inputs": [],
      "name": "getUsersOwner",
      "outputs": [
        {
          "components": [
            {
              "name": "creationDate",
              "type": "uint256"
            },
            {
              "name": "firstName",
              "type": "string"
            },
            {
              "name": "lastName",
              "type": "string"
            },
            {
              "name": "memberId",
              "type": "uint256"
            },
            {
              "name": "requestId",
              "type": "uint256"
            },
            {
              "name": "role",
              "type": "string"
            },
            {
              "name": "status",
              "type": "uint8"
            },
            {
              "name": "owner",
              "type": "address"
            }
          ],
          "name": "",
          "type": "tuple[]"
        }
      ],
      "payable": false,
      "stateMutability": "view",
      "type": "function"
    },
    {
      "constant": true,
      "inputs": [],
      "name": "getMembers",
      "outputs": [
        {
          "components": [
            {
              "name": "memberId",
              "type": "uint256"
            },
            {
              "name": "creationDate",
              "type": "uint256"
            },
            {
              "name": "name",
              "type": "string"
            },
            {
              "name": "logo",
              "type": "string"
            },
            {
              "name": "country",
              "type": "string"
            },
            {
              "name": "cmo",
              "type": "string"
            },
            {
              "name": "theme",
              "type": "string"
            },
            {
              "name": "claimInbox",
              "type": "uint256[]"
            },
            {
              "name": "claims",
              "type": "uint256[]"
            },
            {
              "name": "userRequests",
              "type": "address[]"
            }
          ],
          "name": "",
          "type": "tuple[]"
        }
      ],
      "payable": false,
      "stateMutability": "view",
      "type": "function"
    },
    {
      "constant": true,
      "inputs": [],
      "name": "getcountUsers",
      "outputs": [
        {
          "name": "",
          "type": "uint256"
        }
      ],
      "payable": false,
      "stateMutability": "view",
      "type": "function"
    },
    {
      "constant": false,
      "inputs": [
        {
          "name": "_creationDate",
          "type": "uint256"
        },
        {
          "name": "_firstName",
          "type": "string"
        },
        {
          "name": "_lastName",
          "type": "string"
        },
        {
          "name": "_role",
          "type": "string"
        },
        {
          "name": "_memberId",
          "type": "uint256"
        }
      ],
      "name": "registerUserRequest",
      "outputs": [],
      "payable": false,
      "stateMutability": "nonpayable",
      "type": "function"
    },
    {
      "constant": true,
      "inputs": [],
      "name": "getCount",
      "outputs": [
        {
          "name": "",
          "type": "uint256"
        }
      ],
      "payable": false,
      "stateMutability": "view",
      "type": "function"
    },
    {
      "constant": true,
      "inputs": [],
      "name": "getMe",
      "outputs": [
        {
          "components": [
            {
              "name": "creationDate",
              "type": "uint256"
            },
            {
              "name": "firstName",
              "type": "string"
            },
            {
              "name": "lastName",
              "type": "string"
            },
            {
              "name": "memberId",
              "type": "uint256"
            },
            {
              "name": "requestId",
              "type": "uint256"
            },
            {
              "name": "role",
              "type": "string"
            },
            {
              "name": "status",
              "type": "uint8"
            },
            {
              "name": "owner",
              "type": "address"
            }
          ],
          "name": "",
          "type": "tuple"
        }
      ],
      "payable": false,
      "stateMutability": "view",
      "type": "function"
    },
    {
      "constant": true,
      "inputs": [
        {
          "name": "_page",
          "type": "uint256"
        }
      ],
      "name": "getMembers",
      "outputs": [
        {
          "components": [
            {
              "name": "memberId",
              "type": "uint256"
            },
            {
              "name": "creationDate",
              "type": "uint256"
            },
            {
              "name": "name",
              "type": "string"
            },
            {
              "name": "logo",
              "type": "string"
            },
            {
              "name": "country",
              "type": "string"
            },
            {
              "name": "cmo",
              "type": "string"
            },
            {
              "name": "theme",
              "type": "string"
            },
            {
              "name": "claimInbox",
              "type": "uint256[]"
            },
            {
              "name": "claims",
              "type": "uint256[]"
            },
            {
              "name": "userRequests",
              "type": "address[]"
            }
          ],
          "name": "",
          "type": "tuple[]"
        }
      ],
      "payable": false,
      "stateMutability": "view",
      "type": "function"
    },
    {
      "constant": false,
      "inputs": [],
      "name": "renounceSigner",
      "outputs": [],
      "payable": false,
      "stateMutability": "nonpayable",
      "type": "function"
    },
    {
      "constant": false,
      "inputs": [
        {
          "name": "account",
          "type": "address"
        }
      ],
      "name": "addSigner",
      "outputs": [],
      "payable": false,
      "stateMutability": "nonpayable",
      "type": "function"
    },
    {
      "constant": false,
      "inputs": [
        {
          "name": "_creationDate",
          "type": "uint256"
        },
        {
          "name": "_name",
          "type": "string"
        },
        {
          "name": "_logo",
          "type": "string"
        },
        {
          "name": "_country",
          "type": "string"
        },
        {
          "name": "_cmo",
          "type": "string"
        },
        {
          "name": "_theme",
          "type": "string"
        }
      ],
      "name": "addMember",
      "outputs": [
        {
          "name": "",
          "type": "uint256"
        }
      ],
      "payable": false,
      "stateMutability": "nonpayable",
      "type": "function"
    },
    {
      "constant": false,
      "inputs": [
        {
          "name": "_firstName",
          "type": "string"
        },
        {
          "name": "_lastName",
          "type": "string"
        },
        {
          "name": "_memberId",
          "type": "uint256"
        },
        {
          "name": "_role",
          "type": "string"
        },
        {
          "name": "owner",
          "type": "address"
        }
      ],
      "name": "updateUser",
      "outputs": [],
      "payable": false,
      "stateMutability": "nonpayable",
      "type": "function"
    },
    {
      "constant": false,
      "inputs": [
        {
          "name": "account",
          "type": "address"
        }
      ],
      "name": "whitelistAdmin",
      "outputs": [],
      "payable": false,
      "stateMutability": "nonpayable",
      "type": "function"
    },
    {
      "anonymous": false,
      "inputs": [
        {
          "indexed": true,
          "name": "account",
          "type": "address"
        }
      ],
      "name": "SignerAdded",
      "type": "event"
    },
    {
      "anonymous": false,
      "inputs": [
        {
          "indexed": true,
          "name": "account",
          "type": "address"
        }
      ],
      "name": "SignerRemoved",
      "type": "event"
    },
    {
      "constant": false,
      "inputs": [
        {
          "name": "_claimId",
          "type": "uint256"
        },
        {
          "name": "_claimType",
          "type": "uint256"
        },
        {
          "name": "_memberOwner",
          "type": "uint256"
        }
      ],
      "name": "checkClaimStatus",
      "outputs": [],
      "payable": false,
      "stateMutability": "nonpayable",
      "type": "function"
    },
    {
      "constant": false,
      "inputs": [
        {
          "name": "_creationDate",
          "type": "uint256"
        },
        {
          "name": "_claimData",
          "type": "bytes"
        },
        {
          "name": "_claimType",
          "type": "uint256"
        },
        {
          "name": "_memberReceptor",
          "type": "uint256"
        }
      ],
      "name": "registerClaim",
      "outputs": [],
      "payable": false,
      "stateMutability": "nonpayable",
      "type": "function"
    },
    {
      "constant": false,
      "inputs": [
        {
          "name": "_claimId",
          "type": "uint256"
        },
        {
          "name": "_claimData",
          "type": "bytes"
        },
        {
          "name": "_lastChange",
          "type": "uint256"
        }
      ],
      "name": "updateClaim",
      "outputs": [],
      "payable": false,
      "stateMutability": "nonpayable",
      "type": "function"
    },
    {
      "constant": true,
      "inputs": [
        {
          "name": "_claimId",
          "type": "uint256"
        }
      ],
      "name": "getClaim",
      "outputs": [
        {
          "components": [
            {
              "name": "creationDate",
              "type": "uint256"
            },
            {
              "name": "claimId",
              "type": "uint256"
            },
            {
              "components": [
                {
                  "name": "name",
                  "type": "string"
                },
                {
                  "name": "value",
                  "type": "string"
                }
              ],
              "name": "claimData",
              "type": "tuple[]"
            },
            {
              "name": "claimType",
              "type": "uint8"
            },
            {
              "name": "memberOwner",
              "type": "uint256"
            },
            {
              "name": "memberReceptor",
              "type": "uint256"
            },
            {
              "name": "messageLog",
              "type": "string[]"
            },
            {
              "name": "status",
              "type": "uint8"
            },
            {
              "name": "lastChange",
              "type": "uint256"
            }
          ],
          "name": "",
          "type": "tuple"
        }
      ],
      "payable": false,
      "stateMutability": "view",
      "type": "function"
    },
    {
      "constant": true,
      "inputs": [
        {
          "name": "_page",
          "type": "uint256"
        }
      ],
      "name": "getClaimsByMemberId",
      "outputs": [
        {
          "components": [
            {
              "name": "creationDate",
              "type": "uint256"
            },
            {
              "name": "claimId",
              "type": "uint256"
            },
            {
              "components": [
                {
                  "name": "name",
                  "type": "string"
                },
                {
                  "name": "value",
                  "type": "string"
                }
              ],
              "name": "claimData",
              "type": "tuple[]"
            },
            {
              "name": "claimType",
              "type": "uint8"
            },
            {
              "name": "memberOwner",
              "type": "uint256"
            },
            {
              "name": "memberReceptor",
              "type": "uint256"
            },
            {
              "name": "messageLog",
              "type": "string[]"
            },
            {
              "name": "status",
              "type": "uint8"
            },
            {
              "name": "lastChange",
              "type": "uint256"
            }
          ],
          "name": "",
          "type": "tuple[]"
        }
      ],
      "payable": false,
      "stateMutability": "view",
      "type": "function"
    },
    {
      "constant": true,
      "inputs": [],
      "name": "getClaimsCountByMemberId",
      "outputs": [
        {
          "name": "",
          "type": "uint256"
        }
      ],
      "payable": false,
      "stateMutability": "view",
      "type": "function"
    }
  ],
  "bytecode": "0x608060405260006006556200001d3364010000000062000023810204565b62000108565b6200003e600082640100000000620043846200007582021704565b604051600160a060020a038216907f47d1c22a25bb3a5d4e481b9b1e6944c2eade3181a0a20b495ed61d35b5323f2490600090a250565b600160a060020a03811615156200008b57600080fd5b620000a08282640100000000620000d0810204565b15620000ab57600080fd5b600160a060020a0316600090815260209190915260409020805460ff19166001179055565b6000600160a060020a0382161515620000e857600080fd5b50600160a060020a03166000908152602091909152604090205460ff1690565b615b7180620001186000396000f30060806040526004361061013d5763ffffffff7c010000000000000000000000000000000000000000000000000000000060003504166308bdc24d8114610142578063134c040b146101645780631be8850b146101845780634dc92885146101af5780635aef2447146101cf5780635d73ab9a146101fc57806365ff0c481461022957806369c212f6146102495780637df73e2714610276578063932191be146102a35780639eab5253146102b8578063a42e28db146102da578063a4fdc594146102fa578063a7ed1fe41461030f578063a87d942c1461032f578063b6bc381214610344578063c11e1ff314610371578063c477ecab14610386578063cb68b9e8146103a6578063e5c8b03d146103c6578063eb12d61e146103db578063fa1188c6146103fb578063fcfbde5b1461041b578063ff240fce1461043b575b600080fd5b34801561014e57600080fd5b5061016261015d3660046149c1565b61045b565b005b34801561017057600080fd5b5061016261017f366004614e62565b6105f7565b34801561019057600080fd5b50610199610b9c565b6040516101a69190615a4b565b60405180910390f35b3480156101bb57600080fd5b506101626101ca3660046149c1565b610bb9565b3480156101db57600080fd5b506101ef6101ea366004614aa3565b610d1d565b6040516101a69190615a29565b34801561020857600080fd5b5061021c610217366004614aa3565b61102f565b6040516101a691906158aa565b34801561023557600080fd5b50610162610244366004614d4e565b61140a565b34801561025557600080fd5b506102696102643660046149c1565b611499565b6040516101a69190615a3a565b34801561028257600080fd5b506102966102913660046149c1565b6116ed565b6040516101a691906158bb565b3480156102af57600080fd5b5061021c611705565b3480156102c457600080fd5b506102cd6119f6565b6040516101a69190615899565b3480156102e657600080fd5b506101626102f5366004614b26565b611ebd565b34801561030657600080fd5b5061019961201a565b34801561031b57600080fd5b5061016261032a366004614c9e565b6120df565b34801561033b57600080fd5b5061019961219e565b34801561035057600080fd5b5061036461035f366004614aa3565b6121bc565b6040516101a69190615888565b34801561037d57600080fd5b506102696125d0565b34801561039257600080fd5b506102cd6103a1366004614aa3565b612661565b3480156103b257600080fd5b506101626103c1366004614ac1565b612b7c565b3480156103d257600080fd5b50610162612cf2565b3480156103e757600080fd5b506101626103f63660046149c1565b612cfd565b34801561040757600080fd5b50610199610416366004614b9f565b612d1a565b34801561042757600080fd5b506101626104363660046149e7565b612da9565b34801561044757600080fd5b506101626104563660046149c1565b612e97565b600160a060020a038181166000908152600360205260408120600601546101009004909116116104a95760405160e560020a62461bcd0281526004016104a090615919565b60405180910390fd5b600160a060020a03811660009081526003602081905260408083208201543384529220015414806104de57506104de336116ed565b15156104ff5760405160e560020a62461bcd0281526004016104a090615929565b60023360009081526003602052604090206006015460ff16600281111561052257fe5b14806105325750610532336116ed565b15156105535760405160e560020a62461bcd0281526004016104a0906159d9565b6001600160a060020a03821660009081526003602052604090206006015460ff16600281111561057f57fe5b1461059f5760405160e560020a62461bcd0281526004016104a0906158f9565b600160a060020a038116600090815260036020526040902060060180546002919060ff19166001835b0217905550600160a060020a038116600090815260036020819052604090912001546105f49082612f6b565b50565b60008060065411151561061f5760405160e560020a62461bcd0281526004016104a090615999565b5060015b6006548111610af55782600114801561065b575060008181526005602052604090206003015460ff16600181111561065757fe5b6001145b80156106675750808414155b15610ab45760008181526005602052604090206002018054600690811061068a57fe5b906000526020600020906002020160010160405160200180828054600181600116156101000203166002900480156106f95780601f106106d75761010080835404028352918201916106f9565b820191906000526020600020905b8154815290600101906020018083116106e5575b50509150506040516020818303038152906040526040518082805190602001908083835b6020831061073c5780518252601f19909201916020918201910161071d565b51815160209384036101000a6000190180199092169116179052604080519290940182900390912060008a81526005909252929020600201805492945092506006918210905061078857fe5b906000526020600020906002020160010160405160200180828054600181600116156101000203166002900480156107f75780601f106107d55761010080835404028352918201916107f7565b820191906000526020600020905b8154815290600101906020018083116107e3575b50509150506040516020818303038152906040526040518082805190602001908083835b6020831061083a5780518252601f19909201916020918201910161081b565b6001836020036101000a038019825116818451168082178552505050505050905001915050604051809103902060001916148015610a74575060008181526005602052604090206002018054600390811061089157fe5b906000526020600020906002020160010160405160200180828054600181600116156101000203166002900480156109005780601f106108de576101008083540402835291820191610900565b820191906000526020600020905b8154815290600101906020018083116108ec575b50509150506040516020818303038152906040526040518082805190602001908083835b602083106109435780518252601f199092019160209182019101610924565b51815160209384036101000a6000190180199092169116179052604080519290940182900390912060008a81526005909252929020600201805492945092506003918210905061098f57fe5b906000526020600020906002020160010160405160200180828054600181600116156101000203166002900480156109fe5780601f106109dc5761010080835404028352918201916109fe565b820191906000526020600020905b8154815290600101906020018083116109ea575b50509150506040516020818303038152906040526040518082805190602001908083835b60208310610a415780518252601f199092019160209182019101610a22565b6001836020036101000a038019825116818451168082178552505050505050905001915050604051809103902060001916145b15610aaf5760008481526005602052604080822060079081018054600160ff1991821681179092558585529290932001805490911690911790555b610aed565b82158015610adf575060008181526005602052604090206003015460ff166001811115610add57fe5b155b8015610aeb5750808414155b505b600101610623565b600560209081527f1471eb6eb2c5e789fc3de43f8ce62938c7d1836ec861730447e2ada8fd8101818054600181018083556000929092526040805180820190915260088082527f5f5f4e4558545f5f000000000000000000000000000000000000000000000000919094019081529192610b94927f04aa8662acfacef73ca6d173857112db8fe228635d0159840ba6fea581e7cfe9909201919061458c565b505050505050565b600080610ba76130da565b9050610bb2816130f1565b91505b5090565b600160a060020a03818116600090815260036020526040812060060154610100900490911611610bfe5760405160e560020a62461bcd0281526004016104a090615919565b600160a060020a0381166000908152600360208190526040808320820154338452922001541480610c335750610c33336116ed565b1515610c545760405160e560020a62461bcd0281526004016104a090615929565b60023360009081526003602052604090206006015460ff166002811115610c7757fe5b1480610c875750610c87336116ed565b1515610ca85760405160e560020a62461bcd0281526004016104a0906159d9565b6001600160a060020a03821660009081526003602052604090206006015460ff166002811115610cd457fe5b14610cf45760405160e560020a62461bcd0281526004016104a090615939565b600160a060020a0381166000908152600360205260408120600601805460ff19166001836105c8565b610d25614606565b600560008381526020019081526020016000206101206040519081016040529081600082015481526020016001820154815260200160028201805480602002602001604051908101604052809291908181526020016000905b82821015610edc5760008481526020908190206040805160028681029093018054600181161561010002600019011693909304601f810185900490940281016060908101835291810184815290938492849190840182828015610e225780601f10610df757610100808354040283529160200191610e22565b820191906000526020600020905b815481529060010190602001808311610e0557829003601f168201915b50505050508152602001600182018054600181600116156101000203166002900480601f016020809104026020016040519081016040528092919081815260200182805460018160011615610100020316600290048015610ec45780601f10610e9957610100808354040283529160200191610ec4565b820191906000526020600020905b815481529060010190602001808311610ea757829003601f168201915b50505050508152505081526020019060010190610d7e565b50505090825250600382015460209091019060ff166001811115610efc57fe5b6001811115610f0757fe5b8152602001600482015481526020016005820154815260200160068201805480602002602001604051908101604052809291908181526020016000905b82821015610fef5760008481526020908190208301805460408051601f6002600019610100600187161502019094169390930492830185900485028101850190915281815292830182828015610fdb5780601f10610fb057610100808354040283529160200191610fdb565b820191906000526020600020905b815481529060010190602001808311610fbe57829003601f168201915b505050505081526020019060010190610f44565b50505090825250600782015460209091019060ff16600181111561100f57fe5b600181111561101a57fe5b81526020016008820154815250509050919050565b60606000806000606060008061104361201a565b9550611050600a89613106565b60045490955061106190600a61313f565b935085158061106f57508585115b8061107957508388115b15611083576113ff565b60408051600a808252610160820190925290816020015b6110a2614669565b81526020019060019003908161109a579050509250600091508490505b6004548110156113fb57336000908152600360208190526040822081015460048054919391859081106110ee57fe5b6000918252602080832090910154600160a060020a0316835282019290925260400190206003015414801561116b575060026003600060048481548110151561113357fe5b6000918252602080832090910154600160a060020a0316835282019290925260400190206006015460ff16600281111561116957fe5b145b156113f3576003600060048381548110151561118357fe5b600091825260208083209190910154600160a060020a0316835282810193909352604091820190208151610100808201845282548252600180840180548651600293821615909402600019011691909104601f810187900487028301870190955284825291949293858401939192918301828280156112435780601f1061121857610100808354040283529160200191611243565b820191906000526020600020905b81548152906001019060200180831161122657829003601f168201915b5050509183525050600282810180546040805160206001841615610100026000190190931694909404601f810183900483028501830190915280845293810193908301828280156112d55780601f106112aa576101008083540402835291602001916112d5565b820191906000526020600020905b8154815290600101906020018083116112b857829003601f168201915b505050505081526020016003820154815260200160048201548152602001600582018054600181600116156101000203166002900480601f01602080910402602001604051908101604052809291908181526020018280546001816001161561010002031660029004801561138b5780601f106113605761010080835404028352916020019161138b565b820191906000526020600020905b81548152906001019060200180831161136e57829003601f168201915b5050509183525050600682015460209091019060ff1660028111156113ac57fe5b60028111156113b757fe5b8152600691909101546101009004600160a060020a031660209091015283518490849081106113e257fe5b602090810290910101526001909101905b6001016110bf565b8296505b505050505050919050565b611413336116ed565b151561141e57600080fd5b6000878152600160205260408120541161144d5760405160e560020a62461bcd0281526004016104a0906159a9565b6000878152600160208190526040909120015486146114815760405160e560020a62461bcd0281526004016104a0906158c9565b61149087878787878787613162565b50505050505050565b6114a1614669565b600160a060020a0382166000908152600360209081526040918290208251610100808201855282548252600180840180548751600293821615909402600019011691909104601f81018690048602830186019096528582529194929385810193919291908301828280156115565780601f1061152b57610100808354040283529160200191611556565b820191906000526020600020905b81548152906001019060200180831161153957829003601f168201915b5050509183525050600282810180546040805160206001841615610100026000190190931694909404601f810183900483028501830190915280845293810193908301828280156115e85780601f106115bd576101008083540402835291602001916115e8565b820191906000526020600020905b8154815290600101906020018083116115cb57829003601f168201915b505050505081526020016003820154815260200160048201548152602001600582018054600181600116156101000203166002900480601f01602080910402602001604051908101604052809291908181526020018280546001816001161561010002031660029004801561169e5780601f106116735761010080835404028352916020019161169e565b820191906000526020600020905b81548152906001019060200180831161168157829003601f168201915b5050509183525050600682015460209091019060ff1660028111156116bf57fe5b60028111156116ca57fe5b8152600691909101546101009004600160a060020a031660209091015292915050565b60006116ff818363ffffffff61375b16565b92915050565b6060806000611713336116ed565b151561171e57600080fd5b60045460408051828152602080840282010190915290801561175a57816020015b611747614669565b81526020019060019003908161173f5790505b509150600090505b6004548110156119f0576003600060048381548110151561177f57fe5b600091825260208083209190910154600160a060020a0316835282810193909352604091820190208151610100808201845282548252600180840180548651600293821615909402600019011691909104601f8101879004870283018701909552848252919492938584019391929183018282801561183f5780601f106118145761010080835404028352916020019161183f565b820191906000526020600020905b81548152906001019060200180831161182257829003601f168201915b5050509183525050600282810180546040805160206001841615610100026000190190931694909404601f810183900483028501830190915280845293810193908301828280156118d15780601f106118a6576101008083540402835291602001916118d1565b820191906000526020600020905b8154815290600101906020018083116118b457829003601f168201915b505050505081526020016003820154815260200160048201548152602001600582018054600181600116156101000203166002900480601f0160208091040260200160405190810160405280929190818152602001828054600181600116156101000203166002900480156119875780601f1061195c57610100808354040283529160200191611987565b820191906000526020600020905b81548152906001019060200180831161196a57829003601f168201915b5050509183525050600682015460209091019060ff1660028111156119a857fe5b60028111156119b357fe5b8152600691909101546101009004600160a060020a031660209091015282518390839081106119de57fe5b60209081029091010152600101611762565b50919050565b6060806000600280549050604051908082528060200260200182016040528015611a3a57816020015b611a276146ba565b815260200190600190039081611a1f5790505b509150600090505b6002548110156119f05760016000600283815481101515611a5f57fe5b9060005260206000200154815260200190815260200160002061014060405190810160405290816000820154815260200160018201548152602001600282018054600181600116156101000203166002900480601f016020809104026020016040519081016040528092919081815260200182805460018160011615610100020316600290048015611b325780601f10611b0757610100808354040283529160200191611b32565b820191906000526020600020905b815481529060010190602001808311611b1557829003601f168201915b505050918352505060038201805460408051602060026001851615610100026000190190941693909304601f8101849004840282018401909252818152938201939291830182828015611bc65780601f10611b9b57610100808354040283529160200191611bc6565b820191906000526020600020905b815481529060010190602001808311611ba957829003601f168201915b505050918352505060048201805460408051602060026001851615610100026000190190941693909304601f8101849004840282018401909252818152938201939291830182828015611c5a5780601f10611c2f57610100808354040283529160200191611c5a565b820191906000526020600020905b815481529060010190602001808311611c3d57829003601f168201915b505050918352505060058201805460408051602060026001851615610100026000190190941693909304601f8101849004840282018401909252818152938201939291830182828015611cee5780601f10611cc357610100808354040283529160200191611cee565b820191906000526020600020905b815481529060010190602001808311611cd157829003601f168201915b505050918352505060068201805460408051602060026001851615610100026000190190941693909304601f8101849004840282018401909252818152938201939291830182828015611d825780601f10611d5757610100808354040283529160200191611d82565b820191906000526020600020905b815481529060010190602001808311611d6557829003601f168201915b5050505050815260200160078201805480602002602001604051908101604052809291908181526020018280548015611dda57602002820191906000526020600020905b815481526020019060010190808311611dc6575b5050505050815260200160088201805480602002602001604051908101604052809291908181526020018280548015611e3257602002820191906000526020600020905b815481526020019060010190808311611e1e575b5050505050815260200160098201805480602002602001604051908101604052809291908181526020018280548015611e9457602002820191906000526020600020905b8154600160a060020a03168152600190910190602001808311611e76575b5050505050815250508282815181101515611eab57fe5b60209081029091010152600101611a42565b6000806060818711611ee45760405160e560020a62461bcd0281526004016104a090615a19565b600085101580611ef5575060018511155b1515611f165760405160e560020a62461bcd0281526004016104a090615a09565b600680546001908101918290556000828152600560205260409020015490935015611f565760405160e560020a62461bcd0281526004016104a0906158e9565b611f5f84613792565b1515611f805760405160e560020a62461bcd0281526004016104a090615979565b611f886130da565b60408051600080825260208201909252919350611fb5565b6060815260200190600190039081611fa05790505b509050611fca8388888886898760008f6137a5565b611fd482846139b4565b6001831115611fe857611fe88386846105f7565b600160008481526005602052604090206007015460ff16600181111561200a57fe5b14156114905761149084846139d9565b600080805b6004548110156119f0573360009081526003602081905260408220810154600480549193918590811061204e57fe5b6000918252602080832090910154600160a060020a031683528201929092526040019020600301541480156120cb575060026003600060048481548110151561209357fe5b6000918252602080832090910154600160a060020a0316835282019290925260400190206006015460ff1660028111156120c957fe5b145b156120d7576001909101905b60010161201f565b60008115156121035760405160e560020a62461bcd0281526004016104a0906159f9565b600086116121265760405160e560020a62461bcd0281526004016104a090615a19565b33600090815260036020526040902054156121565760405160e560020a62461bcd0281526004016104a090615909565b61215f82613792565b15156121805760405160e560020a62461bcd0281526004016104a0906159a9565b612189866139fe565b9050610b948686868585886001336000613bed565b60006121a9336116ed565b15156121b457600080fd5b506002545b90565b60606000806000806060806000806121d5600a8b613106565b97506121df6130da565b96506121ea876130f1565b95506121f786600a61313f565b945085158061220857506001860388115b806122125750848a115b1561221c576125c3565b61222587614041565b60408051600a8082526101608201909252919550816020015b612246614606565b81526020019060019003908161223e579050509250600091508790505b83518110156125bf57600a8210156125b25760056000858381518110151561228757fe5b9060200190602002015181526020019081526020016000206101206040519081016040529081600082015481526020016001820154815260200160028201805480602002602001604051908101604052809291908181526020016000905b828210156124435760008481526020908190206040805160028681029093018054600181161561010002600019011693909304601f8101859004909402810160609081018352918101848152909384928491908401828280156123895780601f1061235e57610100808354040283529160200191612389565b820191906000526020600020905b81548152906001019060200180831161236c57829003601f168201915b50505050508152602001600182018054600181600116156101000203166002900480601f01602080910402602001604051908101604052809291908181526020018280546001816001161561010002031660029004801561242b5780601f106124005761010080835404028352916020019161242b565b820191906000526020600020905b81548152906001019060200180831161240e57829003601f168201915b505050505081525050815260200190600101906122e5565b50505090825250600382015460209091019060ff16600181111561246357fe5b600181111561246e57fe5b8152602001600482015481526020016005820154815260200160068201805480602002602001604051908101604052809291908181526020016000905b828210156125565760008481526020908190208301805460408051601f60026000196101006001871615020190941693909304928301859004850281018501909152818152928301828280156125425780601f1061251757610100808354040283529160200191612542565b820191906000526020600020905b81548152906001019060200180831161252557829003601f168201915b5050505050815260200190600101906124ab565b50505090825250600782015460209091019060ff16600181111561257657fe5b600181111561258157fe5b8152602001600882015481525050838381518110151561259d57fe5b602090810290910101526001909101906125b7565b6125bf565b600101612263565b8298505b5050505050505050919050565b6125d8614669565b6125e0614669565b336000908152600360209081526040918290208251610100808201855282548252600180840180548751600293821615909402600019011691909104601f81018690048602830186019096528582529194929385810193919291908301828280156115565780601f1061152b57610100808354040283529160200191611556565b6060600080600060606000612677600a88613106565b60025490955061268890600a61313f565b600254909450158061269f57506002546000190185115b806126a957508387115b156126b357612b72565b60408051600a80825261016082019092526000945090816020015b6126d66146ba565b8152602001906001900390816126ce5790505091508490505b600254811015612b6e576001600060028381548110151561270c57fe5b9060005260206000200154815260200190815260200160002061014060405190810160405290816000820154815260200160018201548152602001600282018054600181600116156101000203166002900480601f0160208091040260200160405190810160405280929190818152602001828054600181600116156101000203166002900480156127df5780601f106127b4576101008083540402835291602001916127df565b820191906000526020600020905b8154815290600101906020018083116127c257829003601f168201915b505050918352505060038201805460408051602060026001851615610100026000190190941693909304601f81018490048402820184019092528181529382019392918301828280156128735780601f1061284857610100808354040283529160200191612873565b820191906000526020600020905b81548152906001019060200180831161285657829003601f168201915b505050918352505060048201805460408051602060026001851615610100026000190190941693909304601f81018490048402820184019092528181529382019392918301828280156129075780601f106128dc57610100808354040283529160200191612907565b820191906000526020600020905b8154815290600101906020018083116128ea57829003601f168201915b505050918352505060058201805460408051602060026001851615610100026000190190941693909304601f810184900484028201840190925281815293820193929183018282801561299b5780601f106129705761010080835404028352916020019161299b565b820191906000526020600020905b81548152906001019060200180831161297e57829003601f168201915b505050918352505060068201805460408051602060026001851615610100026000190190941693909304601f8101849004840282018401909252818152938201939291830182828015612a2f5780601f10612a0457610100808354040283529160200191612a2f565b820191906000526020600020905b815481529060010190602001808311612a1257829003601f168201915b5050505050815260200160078201805480602002602001604051908101604052809291908181526020018280548015612a8757602002820191906000526020600020905b815481526020019060010190808311612a73575b5050505050815260200160088201805480602002602001604051908101604052809291908181526020018280548015612adf57602002820191906000526020600020905b815481526020019060010190808311612acb575b5050505050815260200160098201805480602002602001604051908101604052809291908181526020018280548015612b4157602002820191906000526020600020905b8154600160a060020a03168152600190910190602001808311612b23575b5050505050815250508284815181101515612b5857fe5b60209081029091010152600192830192016126ef565b8195505b5050505050919050565b60008381526005602052604081206001015411612bae5760405160e560020a62461bcd0281526004016104a090615959565b60008381526005602052604090208054600390910154612ced918591859060ff166001811115612bda57fe5b6000888152600560208181526040808420600481015493810154600690910180548351818602810186019094528084529495919492939092919084015b82821015612cc25760008481526020908190208301805460408051601f6002600019610100600187161502019094169390930492830185900485028101850190915281815292830182828015612cae5780601f10612c8357610100808354040283529160200191612cae565b820191906000526020600020905b815481529060010190602001808311612c9157829003601f168201915b505050505081526020019060010190612c17565b50505060008c81526005602052604090206007015460ff1690506001811115612ce757fe5b896137a5565b505050565b612cfb336140d6565b565b612d06336116ed565b1515612d1157600080fd5b6105f48161411e565b600080612d26336116ed565b1515612d3157600080fd5b60008811612d545760405160e560020a62461bcd0281526004016104a090615a19565b612d5d886139fe565b60008181526001602052604090205490915015612d8f5760405160e560020a62461bcd0281526004016104a090615989565b612d9e81898989898989613162565b979650505050505050565b600160a060020a03818116600090815260036020526040812060060154909182918291610100909104168110612df45760405160e560020a62461bcd0281526004016104a090615919565b6002600160a060020a03851660009081526003602052604090206006015460ff166002811115612e2057fe5b14612e405760405160e560020a62461bcd0281526004016104a0906159d9565b600160a060020a03841660009081526003602052604090206004810154815460069092015490945090925060ff166002811115612e7957fe5b9050612e8d82898989878a878b6001613bed565b5050505050505050565b612ea0336116ed565b1515612eab57600080fd5b600160a060020a03811660009081526003602081905260409091200154612ed29082612f6b565b604080518082018252600b81527f53757065722061646d696e0000000000000000000000000000000000000000006020808301918252600160a060020a03851660009081526003909152929092209051612f32926005909201919061458c565b50600160a060020a0381166000908152600360208190526040822090810191909155600601805460ff191660021790556105f481612cfd565b6000805b6000848152600160205260409020600901546000190181101561306b5760008481526001602052604090206009018054600160a060020a038516919083908110612fb557fe5b600091825260209091200154600160a060020a03161415612fd557600191505b8115613063576000848152600160208190526040909120600901805490918301908110612ffe57fe5b6000918252602080832090910154868352600190915260409091206009018054600160a060020a03909216918390811061303457fe5b9060005260206000200160006101000a815481600160a060020a030219169083600160a060020a031602179055505b600101612f6f565b60008481526001602052604090206009018054600019810190811061308c57fe5b60009182526020808320909101805473ffffffffffffffffffffffffffffffffffffffff1916905585825260019052604090206009018054906130d390600019830161470e565b5050505050565b336000908152600360208190526040909120015490565b60009081526001602052604090206008015490565b6000808315156131195760009150613138565b5082820282848281151561312957fe5b041461313457600080fd5b8091505b5092915050565b60008080831161314e57600080fd5b828481151561315957fe5b04949350505050565b61316a6146ba565b8551151561318d5760405160e560020a62461bcd0281526004016104a0906159e9565b825115156131b05760405160e560020a62461bcd0281526004016104a0906159c9565b815115156131d35760405160e560020a62461bcd0281526004016104a0906159b9565b6000888152600160208181526040928390208351610140810185528154815281840154818401526002808301805487519681161561010002600019011691909104601f8101859004850286018501875280865291959294928601939091908301828280156132825780601f1061325757610100808354040283529160200191613282565b820191906000526020600020905b81548152906001019060200180831161326557829003601f168201915b505050918352505060038201805460408051602060026001851615610100026000190190941693909304601f81018490048402820184019092528181529382019392918301828280156133165780601f106132eb57610100808354040283529160200191613316565b820191906000526020600020905b8154815290600101906020018083116132f957829003601f168201915b505050918352505060048201805460408051602060026001851615610100026000190190941693909304601f81018490048402820184019092528181529382019392918301828280156133aa5780601f1061337f576101008083540402835291602001916133aa565b820191906000526020600020905b81548152906001019060200180831161338d57829003601f168201915b505050918352505060058201805460408051602060026001851615610100026000190190941693909304601f810184900484028201840190925281815293820193929183018282801561343e5780601f106134135761010080835404028352916020019161343e565b820191906000526020600020905b81548152906001019060200180831161342157829003601f168201915b505050918352505060068201805460408051602060026001851615610100026000190190941693909304601f81018490048402820184019092528181529382019392918301828280156134d25780601f106134a7576101008083540402835291602001916134d2565b820191906000526020600020905b8154815290600101906020018083116134b557829003601f168201915b505050505081526020016007820180548060200260200160405190810160405280929190818152602001828054801561352a57602002820191906000526020600020905b815481526020019060010190808311613516575b505050505081526020016008820180548060200260200160405190810160405280929190818152602001828054801561358257602002820191906000526020600020905b81548152602001906001019080831161356e575b50505050508152602001600982018054806020026020016040519081016040528092919081815260200182805480156135e457602002820191906000526020600020905b8154600160a060020a031681526001909101906020018083116135c6575b50505091909252505050888152602080820189815260408084018a8152606085018a90526080850189905260a0850188905260c0850187905260008d8152600180865292902085518155925191830191909155518051939450849391926136539260028501929091019061458c565b506060820151805161366f91600384019160209091019061458c565b506080820151805161368b91600484019160209091019061458c565b5060a082015180516136a791600584019160209091019061458c565b5060c082015180516136c391600684019160209091019061458c565b5060e082015180516136df916007840191602090910190614732565b5061010082015180516136fc916008840191602090910190614732565b50610120820151805161371991600984019160209091019061476c565b5050600280546001810182556000919091527f405787fa12a823e0f2b7631cc41b3ba8828b3321ca811111fa75cd3aa3bb5ace01989098555050505050505050565b6000600160a060020a038216151561377257600080fd5b50600160a060020a03166000908152602091909152604090205460ff1690565b6000908152600160205260408120541190565b6137ad6147da565b6060600060606137bc8b614166565b93506137c7846141b4565b92508c600560008f8152602001908152602001600020600101819055508b600560008f81526020019081526020016000206000018190555089600181111561380b57fe5b60008e8152600560205260409020600301805460ff19166001838181111561382f57fe5b021790555060008d8152600560205260408120613851916002909101906147f1565b600091505b82518210156139365761387f838381518110151561387057fe5b906020019060200201516141b4565b9050600560008e815260200190815260200160002060020160408051908101604052806138c38460008151811015156138b457fe5b90602001906020020151614287565b81526020016138da8460018151811015156138b457fe5b9052815460018101808455600093845260209384902083518051929560029094029091019261390e9284929091019061458c565b506020828101518051613927926001850192019061458c565b50505050816001019150613856565b60008d8152600560208181526040909220600481018c90559081018a905560088101879055885161396f926006909201918a0190614812565b5085600181111561397c57fe5b60008e8152600560205260409020600701805460ff1916600183818111156139a057fe5b021790555050505050505050505050505050565b6000918252600160208181526040842060080180549283018155845290922090910155565b6000918252600160208181526040842060070180549283018155845290922090910155565b6000808080600285061515613a905784604051602001808281526020019150506040516020818303038152906040526040518082805190602001908083835b60208310613a5c5780518252601f199092019160209182019101613a3d565b6001836020036101000a03801982511681845116808217855250505050505090500191505060405180910390209250613b7b565b84604051602001808281526020019150506040516020818303038152906040526040518082805190602001908083835b60208310613adf5780518252601f199092019160209182019101613ac0565b51815160209384036101000a600019018019909216911617905260408051929094018290038220828201528351808303820181529184019384905281519195509293508392850191508083835b60208310613b4b5780518252601f199092019160209182019101613b2c565b6001836020036101000a038019825116818451168082178552505050505050905001915050604051809103902092505b6020811015613ba857828160208110613b9057fe5b60f860020a91901a8102049190910190600101613b7b565b826020600284010660208110613bba57fe5b60f860020a91901a810204836020840660208110613bd457fe5b1a60f860020a0260f860020a9004029350505050919050565b613bf5614669565b600084101580613c06575060028411155b1515613c275760405160e560020a62461bcd0281526004016104a090615949565b84511515613c4a5760405160e560020a62461bcd0281526004016104a0906158d9565b600160a060020a0383166000908152600360209081526040918290208251610100808201855282548252600180840180548751600293821615909402600019011691909104601f8101869004860283018601909652858252919492938581019391929190830182828015613cff5780601f10613cd457610100808354040283529160200191613cff565b820191906000526020600020905b815481529060010190602001808311613ce257829003601f168201915b5050509183525050600282810180546040805160206001841615610100026000190190931694909404601f81018390048302850183019091528084529381019390830182828015613d915780601f10613d6657610100808354040283529160200191613d91565b820191906000526020600020905b815481529060010190602001808311613d7457829003601f168201915b505050505081526020016003820154815260200160048201548152602001600582018054600181600116156101000203166002900480601f016020809104026020016040519081016040528092919081815260200182805460018160011615610100020316600290048015613e475780601f10613e1c57610100808354040283529160200191613e47565b820191906000526020600020905b815481529060010190602001808311613e2a57829003601f168201915b5050509183525050600682015460209091019060ff166002811115613e6857fe5b6002811115613e7357fe5b8152600691909101546101009004600160a060020a03166020918201528b825281018a905260408101899052606081018890526080810187905260a081018690529050836002811115613ec257fe5b8160c001906002811115613ed257fe5b90816002811115613edf57fe5b905250600160a060020a03831660e082018190526000908152600360209081526040909120825181558183015180518493613f2192600185019291019061458c565b5060408201518051613f3d91600284019160209091019061458c565b50606082015160038201556080820151600482015560a08201518051613f6d91600584019160209091019061458c565b5060c082015160068201805460ff19166001836002811115613f8b57fe5b021790555060e0919091015160069091018054600160a060020a039092166101000274ffffffffffffffffffffffffffffffffffffffff001990921691909117905581151561403557600480546001810182556000919091527f8a35acfbc15ff81a39ae7d344fd709f28e8600b4aa8c65c6b64bfe7fe36bd19b01805473ffffffffffffffffffffffffffffffffffffffff1916600160a060020a038516179055614035876142f9565b50505050505050505050565b600081815260016020526040812054606091106140735760405160e560020a62461bcd0281526004016104a090615969565b600082815260016020908152604091829020600801805483518184028101840190945280845290918301828280156140ca57602002820191906000526020600020905b8154815260200190600101908083116140b6575b50505050509050919050565b6140e760008263ffffffff61433816565b604051600160a060020a038216907f3525e22824a8a7df2c9a6029941c824cf95b6447f1e13d5128fd3826d35afe8b90600090a250565b61412f60008263ffffffff61438416565b604051600160a060020a038216907f47d1c22a25bb3a5d4e481b9b1e6944c2eade3181a0a20b495ed61d35b5323f2490600090a250565b61416e6147da565b600082516000141561419557604080518082019091526000808252602082015291506119f0565b5050604080518082019091528151815260209182019181019190915290565b60606000806000806141c5866143d2565b15156141d057600080fd5b6141d986614401565b93508360405190808252806020026020018201604052801561421557816020015b6142026147da565b8152602001906001900390816141fa5790505b5094506142258660200151614451565b8660200151019250600090505b8381101561427e57614243836144b4565b9150604080519081016040528083815260200184815250858281518110151561426857fe5b6020908102909101015291810191600101614232565b50505050919050565b60606000806060600061429d8660200151614451565b9350838660000151039250826040519080825280601f01601f1916602001820160405280156142d6578160200160208202803883390190505b5091508160200190506142f0848760200151018285614545565b50949350505050565b6000908152600160208181526040832060090180549283018155835290912001805473ffffffffffffffffffffffffffffffffffffffff191633179055565b600160a060020a038116151561434d57600080fd5b614357828261375b565b151561436257600080fd5b600160a060020a0316600090815260209190915260409020805460ff19169055565b600160a060020a038116151561439957600080fd5b6143a3828261375b565b156143ad57600080fd5b600160a060020a0316600090815260209190915260409020805460ff19166001179055565b6020810151805160009190821a9060c060ff831610156143f557600092506143fa565b600192505b5050919050565b600080600080600092506144188560200151614451565b6020860151865191810193500190505b8082101561444857614439826144b4565b60019093019290910190614428565b50909392505050565b8051600090811a608081101561446a57600091506119f0565b60b8811080614485575060c08110801590614485575060f881105b1561449357600191506119f0565b60c08110156144a85760b519810191506119f0565b60f519810191506119f0565b8051600090811a60808110156144cd57600191506119f0565b60b88110156144e257607e19810191506119f0565b60c081101561450f5760b78103600184019350806020036101000a845104600182018101935050506119f0565b60f88110156145245760be19810191506119f0565b60019290920151602083900360f7016101000a900490910160f51901919050565b60005b6020821061456a578351835260209384019390920191601f1990910190614548565b50915181516020939093036101000a6000190180199091169216919091179052565b828054600181600116156101000203166002900490600052602060002090601f016020900481019282601f106145cd57805160ff19168380011785556145fa565b828001600101855582156145fa579182015b828111156145fa5782518255916020019190600101906145df565b50610bb592915061486b565b610120604051908101604052806000815260200160008152602001606081526020016000600181111561463557fe5b81526020016000815260200160008152602001606081526020016000600181111561465c57fe5b8152602001600081525090565b61010060405190810160405280600081526020016060815260200160608152602001600081526020016000815260200160608152602001600060028111156146ad57fe5b8152600060209091015290565b61014060405190810160405280600081526020016000815260200160608152602001606081526020016060815260200160608152602001606081526020016060815260200160608152602001606081525090565b815481835581811115612ced57600083815260209020612ced91810190830161486b565b8280548282559060005260206000209081019282156145fa57916020028201828111156145fa5782518255916020019190600101906145df565b8280548282559060005260206000209081019282156147ce579160200282015b828111156147ce578251825473ffffffffffffffffffffffffffffffffffffffff1916600160a060020a0390911617825560209092019160019091019061478c565b50610bb5929150614885565b604080518082019091526000808252602082015290565b50805460008255600202906000526020600020908101906105f491906148b6565b82805482825590600052602060002090810192821561485f579160200282015b8281111561485f578251805161484f91849160209091019061458c565b5091602001919060010190614832565b50610bb59291506148e7565b6121b991905b80821115610bb55760008155600101614871565b6121b991905b80821115610bb557805473ffffffffffffffffffffffffffffffffffffffff1916815560010161488b565b6121b991905b80821115610bb55760006148d0828261490a565b6148de60018301600061490a565b506002016148bc565b6121b991905b80821115610bb5576000614901828261490a565b506001016148ed565b50805460018160011615610100020316600290046000825580601f1061493057506105f4565b601f0160209004906000526020600020908101906105f4919061486b565b600061495a8235615ab2565b9392505050565b6000601f8201831361497257600080fd5b813561498561498082615a80565b615a59565b915080825260208301602083018583830111156149a157600080fd5b6149ac838284615af1565b50505092915050565b600061495a82356121b9565b6000602082840312156149d357600080fd5b60006149df848461494e565b949350505050565b600080600080600060a086880312156149ff57600080fd5b853567ffffffffffffffff811115614a1657600080fd5b614a2288828901614961565b955050602086013567ffffffffffffffff811115614a3f57600080fd5b614a4b88828901614961565b9450506040614a5c888289016149b5565b935050606086013567ffffffffffffffff811115614a7957600080fd5b614a8588828901614961565b9250506080614a968882890161494e565b9150509295509295909350565b600060208284031215614ab557600080fd5b60006149df84846149b5565b600080600060608486031215614ad657600080fd5b6000614ae286866149b5565b935050602084013567ffffffffffffffff811115614aff57600080fd5b614b0b86828701614961565b9250506040614b1c868287016149b5565b9150509250925092565b60008060008060808587031215614b3c57600080fd5b6000614b4887876149b5565b945050602085013567ffffffffffffffff811115614b6557600080fd5b614b7187828801614961565b9350506040614b82878288016149b5565b9250506060614b93878288016149b5565b91505092959194509250565b60008060008060008060c08789031215614bb857600080fd5b6000614bc489896149b5565b965050602087013567ffffffffffffffff811115614be157600080fd5b614bed89828a01614961565b955050604087013567ffffffffffffffff811115614c0a57600080fd5b614c1689828a01614961565b945050606087013567ffffffffffffffff811115614c3357600080fd5b614c3f89828a01614961565b935050608087013567ffffffffffffffff811115614c5c57600080fd5b614c6889828a01614961565b92505060a087013567ffffffffffffffff811115614c8557600080fd5b614c9189828a01614961565b9150509295509295509295565b600080600080600060a08688031215614cb657600080fd5b6000614cc288886149b5565b955050602086013567ffffffffffffffff811115614cdf57600080fd5b614ceb88828901614961565b945050604086013567ffffffffffffffff811115614d0857600080fd5b614d1488828901614961565b935050606086013567ffffffffffffffff811115614d3157600080fd5b614d3d88828901614961565b9250506080614a96888289016149b5565b600080600080600080600060e0888a031215614d6957600080fd5b6000614d758a8a6149b5565b9750506020614d868a828b016149b5565b965050604088013567ffffffffffffffff811115614da357600080fd5b614daf8a828b01614961565b955050606088013567ffffffffffffffff811115614dcc57600080fd5b614dd88a828b01614961565b945050608088013567ffffffffffffffff811115614df557600080fd5b614e018a828b01614961565b93505060a088013567ffffffffffffffff811115614e1e57600080fd5b614e2a8a828b01614961565b92505060c088013567ffffffffffffffff811115614e4757600080fd5b614e538a828b01614961565b91505092959891949750929550565b600080600060608486031215614e7757600080fd5b6000614e8386866149b5565b9350506020614b0b868287016149b5565b614e9d81615ab2565b82525050565b6000614eae82615aae565b808452602084019350614ec083615aa8565b60005b82811015614ef057614ed6868351614e94565b614edf82615aa8565b602096909601959150600101614ec3565b5093949350505050565b6000614f0582615aae565b80845260208401935083602082028501614f1e85615aa8565b60005b84811015614f55578383038852614f39838351615135565b9250614f4482615aa8565b602098909801979150600101614f21565b50909695505050505050565b6000614f6c82615aae565b80845260208401935083602082028501614f8585615aa8565b60005b84811015614f55578383038852614fa08383516155d6565b9250614fab82615aa8565b602098909801979150600101614f88565b6000614fc782615aae565b80845260208401935083602082028501614fe085615aa8565b60005b84811015614f55578383038852614ffb83835161569b565b925061500682615aa8565b602098909801979150600101614fe3565b600061502282615aae565b8084526020840193508360208202850161503b85615aa8565b60005b84811015614f5557838303885261505683835161579e565b925061506182615aa8565b60209890980197915060010161503e565b600061507d82615aae565b8084526020840193508360208202850161509685615aa8565b60005b84811015614f555783830388526150b18383516157d0565b92506150bc82615aa8565b602098909801979150600101615099565b60006150d882615aae565b8084526020840193506150ea83615aa8565b60005b82811015614ef05761510086835161587f565b61510982615aa8565b6020969096019591506001016150ed565b614e9d81615abe565b614e9d81615adb565b614e9d81615ae6565b600061514082615aae565b808452615154816020860160208601615afd565b61515d81615b2d565b9093016020019392505050565b601a81527f4372656174696f6e204461746520697320696e6d757461626c65000000000000602082015260400190565b601181527f726f6c65206973206d616e6461746f7279000000000000000000000000000000602082015260400190565b601481527f436c61696d20616c726561647920657869737473000000000000000000000000602082015260400190565b602281527f4f6e6c792070656e64696e672075736572732063616e2062652061636365707460208201527f6564000000000000000000000000000000000000000000000000000000000000604082015260600190565b601381527f5573657220616c72656164792065786973747300000000000000000000000000602082015260400190565b601481527f546869732075736572206e6f7420657869737473000000000000000000000000602082015260400190565b601b81527f596f752063616e6e6f7420616363657074207468697320757365720000000000602082015260400190565b602281527f4f6e6c792070656e64696e672075736572732063616e2062652072656a65637460208201527f6564000000000000000000000000000000000000000000000000000000000000604082015260600190565b601381527f737461747573206973206e6f742076616c696400000000000000000000000000602082015260400190565b601081527f436c61696d206e6f742065786973747300000000000000000000000000000000602082015260400190565b601181527f6d656d626572206e6f7420657869737473000000000000000000000000000000602082015260400190565b601481527f4d656d62657220646f206e6f7420657869737473000000000000000000000000602082015260400190565b601581527f4d656d62657220616c7265616479206578697374730000000000000000000000602082015260400190565b601f81527f5468657265206973206e6f20636c61696d20696e207468652073797374656d00602082015260400190565b601181527f4d656d626572206e6f7420657869737473000000000000000000000000000000602082015260400190565b601281527f5468656d65206973206d616e6461746f72790000000000000000000000000000602082015260400190565b601081527f434d4f206973206d616e6461746f727900000000000000000000000000000000602082015260400190565b601481527f596f7520617265206e6f74206163636570746564000000000000000000000000602082015260400190565b601181527f4e616d65206973206d616e6461746f7279000000000000000000000000000000602082015260400190565b601181527f4e6f2076616c6964206d656d6265724964000000000000000000000000000000602082015260400190565b601481527f496e636f727265637420436c61696d2054797065000000000000000000000000602082015260400190565b601981527f4372656174696f6e44617465206973206d616e6461746f727900000000000000602082015260400190565b80516000906101208401906155eb858261587f565b5060208301516155fe602086018261587f565b50604083015184820360408601526156168282615017565b915050606083015161562b6060860182615123565b50608083015161563e608086018261587f565b5060a083015161565160a086018261587f565b5060c083015184820360c08601526156698282614efa565b91505060e083015161567e60e0860182615123565b5061010083015161569361010086018261587f565b509392505050565b80516000906101408401906156b0858261587f565b5060208301516156c3602086018261587f565b50604083015184820360408601526156db8282615135565b915050606083015184820360608601526156f58282615135565b9150506080830151848203608086015261570f8282615135565b91505060a083015184820360a08601526157298282615135565b91505060c083015184820360c08601526157438282615135565b91505060e083015184820360e086015261575d82826150cd565b91505061010083015184820361010086015261577982826150cd565b9150506101208301518482036101208601526157958282614ea3565b95945050505050565b80516040808452600091908401906157b68282615135565b915050602083015184820360208601526157958282615135565b80516000906101008401906157e5858261587f565b50602083015184820360208601526157fd8282615135565b915050604083015184820360408601526158178282615135565b915050606083015161582c606086018261587f565b50608083015161583f608086018261587f565b5060a083015184820360a08601526158578282615135565b91505060c083015161586c60c086018261512c565b5060e083015161569360e0860182614e94565b614e9d816121b9565b6020808252810161495a8184614f61565b6020808252810161495a8184614fbc565b6020808252810161495a8184615072565b602081016116ff828461511a565b602080825281016116ff8161516a565b602080825281016116ff8161519a565b602080825281016116ff816151ca565b602080825281016116ff816151fa565b602080825281016116ff81615250565b602080825281016116ff81615280565b602080825281016116ff816152b0565b602080825281016116ff816152e0565b602080825281016116ff81615336565b602080825281016116ff81615366565b602080825281016116ff81615396565b602080825281016116ff816153c6565b602080825281016116ff816153f6565b602080825281016116ff81615426565b602080825281016116ff81615456565b602080825281016116ff81615486565b602080825281016116ff816154b6565b602080825281016116ff816154e6565b602080825281016116ff81615516565b602080825281016116ff81615546565b602080825281016116ff81615576565b602080825281016116ff816155a6565b6020808252810161495a81846155d6565b6020808252810161495a81846157d0565b602081016116ff828461587f565b60405181810167ffffffffffffffff81118282101715615a7857600080fd5b604052919050565b600067ffffffffffffffff821115615a9757600080fd5b506020601f91909101601f19160190565b60200190565b5190565b600160a060020a031690565b151590565b600060028210610bb557fe5b600060038210610bb557fe5b60006116ff82615ac3565b60006116ff82615acf565b82818337506000910152565b60005b83811015615b18578181015183820152602001615b00565b83811115615b27576000848401525b50505050565b601f01601f1916905600a265627a7a723058205bed5908188a167d71586d60f3574fbcea69bd87701b001abcb268575812c8b46c6578706572696d656e74616cf50037",
  "source": "pragma solidity ^0.4.24;\npragma experimental ABIEncoderV2;\n\nimport \"../../node_modules/solidity-rlp/contracts/RLPReader.sol\";\nimport \"./Users.sol\";\n//import * as theLib from \"./TheLib.sol\";\n\ncontract Claims is Users {\n\n  using RLPReader for bytes;\n  using RLPReader for uint;\n  using RLPReader for RLPReader.RLPItem;\n\n  enum StatusClaimEnum {\n    CLAIMED,\n    CONFLICT\n  }\n\n  enum ClaimTypeEnum {\n    MUSICAL_WORK,\n    SOUND_RECORDING\n  }\n  \n  struct NameValue{ \n    string name;\n    string value;\n  }\n\n  struct Claim {   \n    uint256 creationDate;\n    uint256 claimId;\n    NameValue[] claimData;\n    ClaimTypeEnum claimType;    \n    uint256 memberOwner;    //  replace with 'member'\n    uint256 memberReceptor; // remove\n    string[] messageLog;\n    StatusClaimEnum status;\n    uint256 lastChange;   \n  }\n\n  uint256 constant private PAGE_SIZE = 10;\n\n  mapping (uint256 => Claim) private claims_;\n  uint256 private claimIdCounter_ = 0;\n  // METHODS\n\n  // Public\n  function checkClaimStatus(uint256 _claimId, uint256 _claimType, uint _memberOwner) public {\n//     -browse all (getClaimsByISRC or ISWC) = claims_\n//     -check if conflict with region, period, useTypes\n//        -if CONFLICT with split\n//            -change the status to conflict\n//            -and if found is not CONFLICT status, then change as well\n//            -_addClaimFromInbox(member, _claimId)\n//            -save memberId/_claimId locally (memory)\n    require(claimIdCounter_ > 0, \"There is no claim in the system\");\n\n    // Push in messageLog of _claimId==1 the _claimData of each claim that is input in this function\n//    RLPReader.RLPItem memory item = _claimData.toRlpItem();\n//    RLPReader.RLPItem[] memory itemList = item.toList();  // ((name0, value0), (name, value), (name, value), ...)\n//    for(uint j = 0; j < itemList.length; ++j) {\n//      RLPReader.RLPItem[] memory itemListClaim = itemList[j].toList(); // (name0, value0)\n////      string memory data = string(itemListClaim[1].toBytes());\n////      claims_[1].messageLog.push(data);\n//    }\n//    claims_[1].messageLog.push(\"  \");\n    //ISRC\n    for(uint256 i = 1; i <= claimIdCounter_; i++) {\n//      claims_[1].messageLog.push(claims_[i].claimData[0].value);\n//      claims_[1].messageLog.push(claims_[_claimId].claimData[3].value);\n      // Sound Recording\n      if (_claimType == 1 && uint256(claims_[i].claimType) == 1 && _claimId != i) {\n        if (keccak256(abi.encodePacked(claims_[_claimId].claimData[6].value)) == keccak256(abi.encodePacked(claims_[i].claimData[6].value)) // same ISRC\n          && keccak256(abi.encodePacked(claims_[_claimId].claimData[3].value)) == keccak256(abi.encodePacked(claims_[i].claimData[3].value)) // same countries\n//          && keccak256(abi.encodePacked(claims_[_claimId].claimData[4].value)) == keccak256(abi.encodePacked(claims_[i].claimData[4].value))  // same useTypes\n        ){\n\n            claims_[_claimId].status = StatusClaimEnum.CONFLICT;\n            claims_[i].status = StatusClaimEnum.CONFLICT;\n////              if (keccak256(abi.encodePacked(claims_[_claimId].claimData[0].value)) == keccak256(abi.encodePacked(claims_[i].claimData[0].value))\n////               && keccak256(abi.encodePacked(claims_[_claimId].claimData[1].value)) == keccak256(abi.encodePacked(claims_[i].claimData[1].value))) { // same period\n//                if (uint256(parseInt(claims_[_claimId].claimData[2].value, 0)) + uint256(parseInt(claims_[i].claimData[2].value, 0)) > 100) { // check if their splits> 100% (checking between combinations missing!)\n//\n//                }\n////              }\n//            }\n        }\n      }\n      // Musical Work\n      else if (_claimType == 0 && uint256(claims_[i].claimType) == 0 && _claimId != i) {\n\n      }\n    }\n    claims_[1].messageLog.push(\"__NEXT__\");\n    _memberOwner=1;\n  }\n\n  function registerClaim(uint256 _creationDate, bytes _claimData, uint256 _claimType, uint _memberReceptor) public {\n\n    require(_creationDate > 0, \"CreationDate is mandatory\");\n    require(_claimType >= 0 || _claimType <= 1, \"Incorrect Claim Type\");\n\n    uint256 _claimId = ++claimIdCounter_;\n//    uint256 _claimId = Random.rand(_creationDate);\n\n    require(claims_[_claimId].claimId == 0, \"Claim already exists\");\n    require(_memberExists(_memberReceptor), \"Member do not exists\");\n\n    uint256 _memberOwner = _memberIdFromCurrentAddress();\n\n    string[] memory messageLog = new string[](0);\n\n    _saveClaim(_claimId, _creationDate, _claimData, _claimType, _memberOwner, _memberReceptor, messageLog, uint(StatusClaimEnum.CLAIMED), _creationDate);\n    _addClaimIdToMemberOwner(_memberOwner, _claimId);\n\n    if (_claimId > 1) {\n      checkClaimStatus(_claimId, _claimType, _memberOwner);\n    }\n\n    if (claims_[_claimId].status == StatusClaimEnum.CONFLICT) {\n      // addClaimFromInbox for every relevant member\n      _addClaimFromInbox(_memberReceptor, _claimId);\n    }\n\n  }\n\n  function updateClaim(uint256 _claimId, bytes _claimData, uint _lastChange) public {\n    require(claims_[_claimId].claimId > 0, \"Claim not exists\");\n\n    _saveClaim(_claimId, claims_[_claimId].creationDate, _claimData, uint(claims_[_claimId].claimType),\n              claims_[_claimId].memberOwner, claims_[_claimId].memberReceptor, claims_[_claimId].messageLog, uint(claims_[_claimId].status), _lastChange);\n  }\n\n//  EXCLUDE FUNCTION SO THAT SIZE OF CONTRACT (AND BYTECODE) REDUCES; IF NOT ENOUGH, MOVE FUNCTIONS TO DIFFERENT CONTRACT.\n//  function changeState(uint256 _claimId, uint _status, string _messageLog, uint256 _lastChange) checkValidStatus(_status) public {\n//    require(claims_[_claimId].claimId > 0, \"Claim not exists\");\n//\n//    if(claims_[_claimId].status != StatusClaimEnum(_status)) {\n//      bool isClaimIntoReceptorInbox = _isClaimIntoReceptorInbox(claims_[_claimId].memberReceptor, _claimId);\n//      if(_status == uint(StatusClaimEnum.CONFLICT)) {\n//          if(isClaimIntoReceptorInbox) {\n//            _removeClaimFromInbox(claims_[_claimId].memberReceptor, _claimId);\n//          } else {\n//            _removeClaimFromInbox(claims_[_claimId].memberOwner, _claimId);\n//          }\n//      } else {\n//          if(isClaimIntoReceptorInbox) {\n//            _addClaimFromInbox(claims_[_claimId].memberOwner, _claimId);\n//            _removeClaimFromInbox(claims_[_claimId].memberReceptor, _claimId);\n//          } else {\n//            _addClaimFromInbox(claims_[_claimId].memberReceptor, _claimId);\n//            _removeClaimFromInbox(claims_[_claimId].memberOwner, _claimId);\n//          }\n//      }\n//      claims_[_claimId].status = StatusClaimEnum(_status);\n//    }\n//    if (keccak256(abi.encodePacked((_messageLog))) != keccak256(abi.encodePacked((\"\")))) {\n//        claims_[_claimId].messageLog.push(_messageLog);\n//    }\n//\n//    claims_[_claimId].lastChange = _lastChange;\n//  }\n\n  function getClaim(uint256 _claimId) view public returns (Claim) {\n    return claims_[_claimId];\n  }\n\n  function getClaimsByMemberId(uint _page) view public returns (Claim[] memory) {\n    uint256 pageIndex = SafeMath.mul(PAGE_SIZE, _page);\n    uint256 _memberId = _memberIdFromCurrentAddress();\n    uint count = _getClaimsCountByMember(_memberId);\n    uint256 pageNumber = SafeMath.div(count, PAGE_SIZE);\n\n    if (count == 0 || pageIndex > count - 1 || _page > pageNumber) {\n      return;\n    }\n\n    uint256[] memory claimsId = _getClaimsIdByMember(_memberId);\n\n    Claim[] memory _claims = new Claim[](PAGE_SIZE);\n    uint256 returnCounter = 0;\n    for (uint i = pageIndex; i < claimsId.length; ++i) {\n      if(returnCounter < PAGE_SIZE) {\n        _claims[returnCounter] = claims_[claimsId[i]];\n        ++returnCounter;\n      } else {\n        break;\n      }\n    }\n    return _claims;\n  }\n\n  function getClaimsCountByMemberId() view public returns (uint) {\n    uint256 _memberId = _memberIdFromCurrentAddress();\n    return _getClaimsCountByMember(_memberId);\n  }\n\n  // Private\n  function _saveClaim(uint256 _claimId, uint256 _creationDate, bytes _claimData, uint256 _claimType,\n    uint _memberOwner, uint _memberReceptor, string[] memory _messageLog, uint256 _status, uint256 _lastChange) internal {\n\n    RLPReader.RLPItem memory item = _claimData.toRlpItem();\n    RLPReader.RLPItem[] memory itemList = item.toList(); // ((name, value), (name, value), (name, value), ...)\n\n    claims_[_claimId].claimId = _claimId;\n    claims_[_claimId].creationDate = _creationDate;\n    claims_[_claimId].claimType = ClaimTypeEnum(_claimType);\n\n    delete claims_[_claimId].claimData;\n    for(uint i = 0; i < itemList.length; ++i) {\n      RLPReader.RLPItem[] memory itemListClaim = itemList[i].toList(); // (name, value)\n      claims_[_claimId].claimData.push(NameValue(string(itemListClaim[0].toBytes()), string(itemListClaim[1].toBytes())));\n    }\n\n    claims_[_claimId].memberOwner = _memberOwner;\n    claims_[_claimId].memberReceptor = _memberReceptor;\n    claims_[_claimId].lastChange = _lastChange;\n    claims_[_claimId].messageLog = _messageLog;\n    claims_[_claimId].status = StatusClaimEnum(_status);\n  }\n\n  // MODIFIERS\n\n  //  modifier checkValidStatus(uint256 _status) {\n//    require(_status >= 0 || _status <= 1, \"status not allowed\");\n//    _;\n//  }\n\n//  modifier checkMemberOwnership(uint256 _claimId) {\n//    require(claims_[_claimId].memberOwner == _memberIdFromCurrentAddress() || claims_[_claimId].memberReceptor == _memberIdFromCurrentAddress(),\n//      \"not allowed to get this claim\");\n//    _;\n//  }\n}\n",
  "sourcePath": "/home/komodo/newUI/bloomen-decentralized-rights-management-v2/truffle/contracts/registry/Claims.sol",
  "compiler": {
    "name": "solc",
    "version": "0.4.24+commit.e67f0147.Emscripten.clang"
  },
  "schemaVersion": "2.0.1",
  "updatedAt": "2019-11-09T13:43:59.845Z"
}