{
  "contractName": "Functions",
  "abi": [
    {
      "constant": false,
      "inputs": [
        {
          "name": "_userToAccept",
          "type": "address"
        }
      ],
      "name": "acceptUser",
      "outputs": [],
      "payable": false,
      "stateMutability": "nonpayable",
      "type": "function"
    },
    {
      "constant": false,
      "inputs": [
        {
          "name": "_creationDate",
          "type": "uint256"
        },
        {
          "name": "_claimData",
          "type": "bytes"
        },
        {
          "name": "_claimType",
          "type": "bool"
        },
        {
          "name": "_memberOwner",
          "type": "uint256"
        },
        {
          "name": "reg_update",
          "type": "bool"
        },
        {
          "name": "_claimId",
          "type": "uint256"
        },
        {
          "name": "_oldClaimData",
          "type": "bytes"
        },
        {
          "name": "_lastChange",
          "type": "uint256"
        },
        {
          "name": "_changeClaimId",
          "type": "bool"
        }
      ],
      "name": "computeClaim",
      "outputs": [],
      "payable": false,
      "stateMutability": "nonpayable",
      "type": "function"
    },
    {
      "constant": true,
      "inputs": [],
      "name": "getClaimsCountByMemberId",
      "outputs": [
        {
          "name": "",
          "type": "uint256"
        }
      ],
      "payable": false,
      "stateMutability": "view",
      "type": "function"
    },
    {
      "constant": false,
      "inputs": [
        {
          "name": "_userToReject",
          "type": "address"
        }
      ],
      "name": "rejectUser",
      "outputs": [],
      "payable": false,
      "stateMutability": "nonpayable",
      "type": "function"
    },
    {
      "constant": true,
      "inputs": [
        {
          "name": "_claimId",
          "type": "uint256"
        }
      ],
      "name": "getClaim",
      "outputs": [
        {
          "components": [
            {
              "name": "creationDate",
              "type": "uint256"
            },
            {
              "name": "claimId",
              "type": "uint256"
            },
            {
              "components": [
                {
                  "name": "name",
                  "type": "string"
                },
                {
                  "name": "value",
                  "type": "string"
                }
              ],
              "name": "claimData",
              "type": "tuple[]"
            },
            {
              "name": "claimType",
              "type": "bool"
            },
            {
              "name": "memberOwner",
              "type": "uint256"
            },
            {
              "name": "status",
              "type": "bool"
            },
            {
              "name": "lastChange",
              "type": "uint256"
            }
          ],
          "name": "",
          "type": "tuple"
        }
      ],
      "payable": false,
      "stateMutability": "view",
      "type": "function"
    },
    {
      "constant": true,
      "inputs": [
        {
          "name": "_page",
          "type": "uint256"
        }
      ],
      "name": "getUsers",
      "outputs": [
        {
          "components": [
            {
              "name": "creationDate",
              "type": "uint256"
            },
            {
              "name": "firstName",
              "type": "string"
            },
            {
              "name": "lastName",
              "type": "string"
            },
            {
              "name": "memberId",
              "type": "uint256"
            },
            {
              "name": "requestId",
              "type": "uint256"
            },
            {
              "name": "role",
              "type": "string"
            },
            {
              "name": "status",
              "type": "uint8"
            },
            {
              "name": "owner",
              "type": "address"
            }
          ],
          "name": "",
          "type": "tuple[]"
        }
      ],
      "payable": false,
      "stateMutability": "view",
      "type": "function"
    },
    {
      "constant": false,
      "inputs": [
        {
          "name": "_memberId",
          "type": "uint256"
        },
        {
          "name": "_creationDate",
          "type": "uint256"
        },
        {
          "name": "_name",
          "type": "string"
        },
        {
          "name": "_logo",
          "type": "string"
        },
        {
          "name": "_country",
          "type": "string"
        },
        {
          "name": "_cmo",
          "type": "string"
        },
        {
          "name": "_theme",
          "type": "string"
        }
      ],
      "name": "updateMember",
      "outputs": [],
      "payable": false,
      "stateMutability": "nonpayable",
      "type": "function"
    },
    {
      "constant": true,
      "inputs": [
        {
          "name": "userAddress",
          "type": "address"
        }
      ],
      "name": "getUserByAddress",
      "outputs": [
        {
          "components": [
            {
              "name": "creationDate",
              "type": "uint256"
            },
            {
              "name": "firstName",
              "type": "string"
            },
            {
              "name": "lastName",
              "type": "string"
            },
            {
              "name": "memberId",
              "type": "uint256"
            },
            {
              "name": "requestId",
              "type": "uint256"
            },
            {
              "name": "role",
              "type": "string"
            },
            {
              "name": "status",
              "type": "uint8"
            },
            {
              "name": "owner",
              "type": "address"
            }
          ],
          "name": "",
          "type": "tuple"
        }
      ],
      "payable": false,
      "stateMutability": "view",
      "type": "function"
    },
    {
      "constant": true,
      "inputs": [
        {
          "name": "account",
          "type": "address"
        }
      ],
      "name": "isSigner",
      "outputs": [
        {
          "name": "",
          "type": "bool"
        }
      ],
      "payable": false,
      "stateMutability": "view",
      "type": "function"
    },
    {
      "constant": true,
      "inputs": [],
      "name": "getUsersOwner",
      "outputs": [
        {
          "components": [
            {
              "name": "creationDate",
              "type": "uint256"
            },
            {
              "name": "firstName",
              "type": "string"
            },
            {
              "name": "lastName",
              "type": "string"
            },
            {
              "name": "memberId",
              "type": "uint256"
            },
            {
              "name": "requestId",
              "type": "uint256"
            },
            {
              "name": "role",
              "type": "string"
            },
            {
              "name": "status",
              "type": "uint8"
            },
            {
              "name": "owner",
              "type": "address"
            }
          ],
          "name": "",
          "type": "tuple[]"
        }
      ],
      "payable": false,
      "stateMutability": "view",
      "type": "function"
    },
    {
      "constant": true,
      "inputs": [],
      "name": "getMembers",
      "outputs": [
        {
          "components": [
            {
              "name": "memberId",
              "type": "uint256"
            },
            {
              "name": "creationDate",
              "type": "uint256"
            },
            {
              "name": "name",
              "type": "string"
            },
            {
              "name": "logo",
              "type": "string"
            },
            {
              "name": "country",
              "type": "string"
            },
            {
              "name": "cmo",
              "type": "string"
            },
            {
              "name": "theme",
              "type": "string"
            },
            {
              "name": "claimInbox",
              "type": "uint256[]"
            },
            {
              "name": "claims",
              "type": "uint256[]"
            },
            {
              "name": "userRequests",
              "type": "address[]"
            }
          ],
          "name": "",
          "type": "tuple[]"
        }
      ],
      "payable": false,
      "stateMutability": "view",
      "type": "function"
    },
    {
      "constant": true,
      "inputs": [],
      "name": "getcountUsers",
      "outputs": [
        {
          "name": "",
          "type": "uint256"
        }
      ],
      "payable": false,
      "stateMutability": "view",
      "type": "function"
    },
    {
      "constant": false,
      "inputs": [
        {
          "name": "_creationDate",
          "type": "uint256"
        },
        {
          "name": "_firstName",
          "type": "string"
        },
        {
          "name": "_lastName",
          "type": "string"
        },
        {
          "name": "_role",
          "type": "string"
        },
        {
          "name": "_memberId",
          "type": "uint256"
        }
      ],
      "name": "registerUserRequest",
      "outputs": [],
      "payable": false,
      "stateMutability": "nonpayable",
      "type": "function"
    },
    {
      "constant": true,
      "inputs": [],
      "name": "getCount",
      "outputs": [
        {
          "name": "",
          "type": "uint256"
        }
      ],
      "payable": false,
      "stateMutability": "view",
      "type": "function"
    },
    {
      "constant": true,
      "inputs": [
        {
          "name": "_page",
          "type": "uint256"
        }
      ],
      "name": "getClaimsByMemberId",
      "outputs": [
        {
          "components": [
            {
              "name": "creationDate",
              "type": "uint256"
            },
            {
              "name": "claimId",
              "type": "uint256"
            },
            {
              "components": [
                {
                  "name": "name",
                  "type": "string"
                },
                {
                  "name": "value",
                  "type": "string"
                }
              ],
              "name": "claimData",
              "type": "tuple[]"
            },
            {
              "name": "claimType",
              "type": "bool"
            },
            {
              "name": "memberOwner",
              "type": "uint256"
            },
            {
              "name": "status",
              "type": "bool"
            },
            {
              "name": "lastChange",
              "type": "uint256"
            }
          ],
          "name": "",
          "type": "tuple[]"
        }
      ],
      "payable": false,
      "stateMutability": "view",
      "type": "function"
    },
    {
      "constant": true,
      "inputs": [],
      "name": "getMe",
      "outputs": [
        {
          "components": [
            {
              "name": "creationDate",
              "type": "uint256"
            },
            {
              "name": "firstName",
              "type": "string"
            },
            {
              "name": "lastName",
              "type": "string"
            },
            {
              "name": "memberId",
              "type": "uint256"
            },
            {
              "name": "requestId",
              "type": "uint256"
            },
            {
              "name": "role",
              "type": "string"
            },
            {
              "name": "status",
              "type": "uint8"
            },
            {
              "name": "owner",
              "type": "address"
            }
          ],
          "name": "",
          "type": "tuple"
        }
      ],
      "payable": false,
      "stateMutability": "view",
      "type": "function"
    },
    {
      "constant": true,
      "inputs": [
        {
          "name": "_page",
          "type": "uint256"
        }
      ],
      "name": "getMembers",
      "outputs": [
        {
          "components": [
            {
              "name": "memberId",
              "type": "uint256"
            },
            {
              "name": "creationDate",
              "type": "uint256"
            },
            {
              "name": "name",
              "type": "string"
            },
            {
              "name": "logo",
              "type": "string"
            },
            {
              "name": "country",
              "type": "string"
            },
            {
              "name": "cmo",
              "type": "string"
            },
            {
              "name": "theme",
              "type": "string"
            },
            {
              "name": "claimInbox",
              "type": "uint256[]"
            },
            {
              "name": "claims",
              "type": "uint256[]"
            },
            {
              "name": "userRequests",
              "type": "address[]"
            }
          ],
          "name": "",
          "type": "tuple[]"
        }
      ],
      "payable": false,
      "stateMutability": "view",
      "type": "function"
    },
    {
      "constant": false,
      "inputs": [],
      "name": "renounceSigner",
      "outputs": [],
      "payable": false,
      "stateMutability": "nonpayable",
      "type": "function"
    },
    {
      "constant": false,
      "inputs": [
        {
          "name": "account",
          "type": "address"
        }
      ],
      "name": "addSigner",
      "outputs": [],
      "payable": false,
      "stateMutability": "nonpayable",
      "type": "function"
    },
    {
      "constant": false,
      "inputs": [
        {
          "name": "_creationDate",
          "type": "uint256"
        },
        {
          "name": "_name",
          "type": "string"
        },
        {
          "name": "_logo",
          "type": "string"
        },
        {
          "name": "_country",
          "type": "string"
        },
        {
          "name": "_cmo",
          "type": "string"
        },
        {
          "name": "_theme",
          "type": "string"
        }
      ],
      "name": "addMember",
      "outputs": [
        {
          "name": "",
          "type": "uint256"
        }
      ],
      "payable": false,
      "stateMutability": "nonpayable",
      "type": "function"
    },
    {
      "constant": false,
      "inputs": [
        {
          "name": "_firstName",
          "type": "string"
        },
        {
          "name": "_lastName",
          "type": "string"
        },
        {
          "name": "_memberId",
          "type": "uint256"
        },
        {
          "name": "_role",
          "type": "string"
        },
        {
          "name": "owner",
          "type": "address"
        }
      ],
      "name": "updateUser",
      "outputs": [],
      "payable": false,
      "stateMutability": "nonpayable",
      "type": "function"
    },
    {
      "constant": false,
      "inputs": [
        {
          "name": "account",
          "type": "address"
        }
      ],
      "name": "whitelistAdmin",
      "outputs": [],
      "payable": false,
      "stateMutability": "nonpayable",
      "type": "function"
    },
    {
      "inputs": [
        {
          "name": "_RegistryAddr",
          "type": "address"
        }
      ],
      "payable": false,
      "stateMutability": "nonpayable",
      "type": "constructor"
    },
    {
      "anonymous": false,
      "inputs": [
        {
          "indexed": true,
          "name": "account",
          "type": "address"
        }
      ],
      "name": "SignerAdded",
      "type": "event"
    },
    {
      "anonymous": false,
      "inputs": [
        {
          "indexed": true,
          "name": "account",
          "type": "address"
        }
      ],
      "name": "SignerRemoved",
      "type": "event"
    }
  ],
  "bytecode": "0x608060405260006008553480156200001657600080fd5b50604051602080620069a683398101806040526200003891908101906200016c565b6200004c3364010000000062000072810204565b60098054600160a060020a031916600160a060020a0392909216919091179055620001a1565b6200008d60008264010000000062004f23620000c482021704565b604051600160a060020a038216907f47d1c22a25bb3a5d4e481b9b1e6944c2eade3181a0a20b495ed61d35b5323f2490600090a250565b600160a060020a0381161515620000da57600080fd5b620000ef82826401000000006200011f810204565b15620000fa57600080fd5b600160a060020a0316600090815260209190915260409020805460ff19166001179055565b6000600160a060020a03821615156200013757600080fd5b50600160a060020a03166000908152602091909152604090205460ff1690565b600062000165825162000195565b9392505050565b6000602082840312156200017f57600080fd5b60006200018d848462000157565b949350505050565b600160a060020a031690565b6167f580620001b16000396000f3006080604052600436106101275763ffffffff7c010000000000000000000000000000000000000000000000000000000060003504166308bdc24d811461012c5780630e606cef1461014e5780631be8850b1461016e5780634dc92885146101995780635aef2447146101b95780635d73ab9a146101e657806365ff0c481461021357806369c212f6146102335780637df73e2714610260578063932191be1461028d5780639eab5253146102a2578063a4fdc594146102c4578063a7ed1fe4146102d9578063a87d942c146102f9578063b6bc38121461030e578063c11e1ff31461033b578063c477ecab14610350578063e5c8b03d14610370578063eb12d61e14610385578063fa1188c6146103a5578063fcfbde5b146103c5578063ff240fce146103e5575b600080fd5b34801561013857600080fd5b5061014c61014736600461580c565b610405565b005b34801561015a57600080fd5b5061014c61016936600461590c565b6105a1565b34801561017a57600080fd5b50610183610685565b60405161019091906166e6565b60405180910390f35b3480156101a557600080fd5b5061014c6101b436600461580c565b6106a2565b3480156101c557600080fd5b506101d96101d43660046158ee565b610806565b60405161019091906166c4565b3480156101f257600080fd5b506102066102013660046158ee565b610a05565b6040516101909190616585565b34801561021f57600080fd5b5061014c61022e366004615baf565b610de0565b34801561023f57600080fd5b5061025361024e36600461580c565b610e6f565b60405161019091906166d5565b34801561026c57600080fd5b5061028061027b36600461580c565b6110c3565b6040516101909190616596565b34801561029957600080fd5b506102066110db565b3480156102ae57600080fd5b506102b76113cc565b6040516101909190616574565b3480156102d057600080fd5b50610183611893565b3480156102e557600080fd5b5061014c6102f4366004615aff565b611958565b34801561030557600080fd5b50610183611a1f565b34801561031a57600080fd5b5061032e6103293660046158ee565b611a3d565b6040516101909190616563565b34801561034757600080fd5b50610253611d3f565b34801561035c57600080fd5b506102b761036b3660046158ee565b611dd0565b34801561037c57600080fd5b5061014c6122eb565b34801561039157600080fd5b5061014c6103a036600461580c565b6122f6565b3480156103b157600080fd5b506101836103c0366004615a00565b612313565b3480156103d157600080fd5b5061014c6103e0366004615832565b6123a2565b3480156103f157600080fd5b5061014c61040036600461580c565b612490565b600160a060020a038181166000908152600360205260408120600601546101009004909116116104535760405160e560020a62461bcd02815260040161044a906165e4565b60405180910390fd5b600160a060020a03811660009081526003602081905260408083208201543384529220015414806104885750610488336110c3565b15156104a95760405160e560020a62461bcd02815260040161044a906165f4565b60023360009081526003602052604090206006015460ff1660028111156104cc57fe5b14806104dc57506104dc336110c3565b15156104fd5760405160e560020a62461bcd02815260040161044a90616684565b6001600160a060020a03821660009081526003602052604090206006015460ff16600281111561052957fe5b146105495760405160e560020a62461bcd02815260040161044a906165c4565b600160a060020a038116600090815260036020526040902060060180546002919060ff19166001835b0217905550600160a060020a0381166000908152600360208190526040909120015461059e9082612564565b50565b841561061457600880546001019081905593506105bd866126d3565b15156105de5760405160e560020a62461bcd02815260040161044a90616634565b6105e66126e6565b95506105f8848a8a8a8a60008f6126fd565b6106028685612878565b61060f84888a600161289d565b61067a565b610621848885600061289d565b80156106445761063f610636858a898b612edc565b888a600161289d565b610651565b61065184888a600161289d565b60008481526006602052604090206005015461067a9085908b908b908b908b9060ff16886126fd565b505050505050505050565b6000806106906126e6565b905061069b81613ac0565b91505b5090565b600160a060020a038181166000908152600360205260408120600601546101009004909116116106e75760405160e560020a62461bcd02815260040161044a906165e4565b600160a060020a038116600090815260036020819052604080832082015433845292200154148061071c575061071c336110c3565b151561073d5760405160e560020a62461bcd02815260040161044a906165f4565b60023360009081526003602052604090206006015460ff16600281111561076057fe5b14806107705750610770336110c3565b15156107915760405160e560020a62461bcd02815260040161044a90616684565b6001600160a060020a03821660009081526003602052604090206006015460ff1660028111156107bd57fe5b146107dd5760405160e560020a62461bcd02815260040161044a90616604565b600160a060020a0381166000908152600360205260408120600601805460ff1916600183610572565b61080e615463565b6006600083815260200190815260200160002060e06040519081016040529081600082015481526020016001820154815260200160028201805480602002602001604051908101604052809291908181526020016000905b828210156109c45760008481526020908190206040805160028681029093018054600181161561010002600019011693909304601f81018590049094028101606090810183529181018481529093849284919084018282801561090a5780601f106108df5761010080835404028352916020019161090a565b820191906000526020600020905b8154815290600101906020018083116108ed57829003601f168201915b50505050508152602001600182018054600181600116156101000203166002900480601f0160208091040260200160405190810160405280929190818152602001828054600181600116156101000203166002900480156109ac5780601f10610981576101008083540402835291602001916109ac565b820191906000526020600020905b81548152906001019060200180831161098f57829003601f168201915b50505050508152505081526020019060010190610866565b50505090825250600382015460ff90811615156020830152600483015460408301526005830154161515606082015260069091015460809091015292915050565b606060008060006060600080610a19611893565b9550610a26600a89613ad5565b600454909550610a3790600a613b0e565b9350851580610a4557508585115b80610a4f57508388115b15610a5957610dd5565b60408051600a808252610160820190925290816020015b610a786154a5565b815260200190600190039081610a70579050509250600091508490505b600454811015610dd15733600090815260036020819052604082208101546004805491939185908110610ac457fe5b6000918252602080832090910154600160a060020a03168352820192909252604001902060030154148015610b415750600260036000600484815481101515610b0957fe5b6000918252602080832090910154600160a060020a0316835282019290925260400190206006015460ff166002811115610b3f57fe5b145b15610dc95760036000600483815481101515610b5957fe5b600091825260208083209190910154600160a060020a0316835282810193909352604091820190208151610100808201845282548252600180840180548651600293821615909402600019011691909104601f81018790048702830187019095528482529194929385840193919291830182828015610c195780601f10610bee57610100808354040283529160200191610c19565b820191906000526020600020905b815481529060010190602001808311610bfc57829003601f168201915b5050509183525050600282810180546040805160206001841615610100026000190190931694909404601f81018390048302850183019091528084529381019390830182828015610cab5780601f10610c8057610100808354040283529160200191610cab565b820191906000526020600020905b815481529060010190602001808311610c8e57829003601f168201915b505050505081526020016003820154815260200160048201548152602001600582018054600181600116156101000203166002900480601f016020809104026020016040519081016040528092919081815260200182805460018160011615610100020316600290048015610d615780601f10610d3657610100808354040283529160200191610d61565b820191906000526020600020905b815481529060010190602001808311610d4457829003601f168201915b5050509183525050600682015460209091019060ff166002811115610d8257fe5b6002811115610d8d57fe5b8152600691909101546101009004600160a060020a03166020909101528351849084908110610db857fe5b602090810290910101526001909101905b600101610a95565b8296505b505050505050919050565b610de9336110c3565b1515610df457600080fd5b60008781526001602052604081205411610e235760405160e560020a62461bcd02815260040161044a90616654565b600087815260016020819052604090912001548614610e575760405160e560020a62461bcd02815260040161044a906165a4565b610e6687878787878787613b31565b50505050505050565b610e776154a5565b600160a060020a0382166000908152600360209081526040918290208251610100808201855282548252600180840180548751600293821615909402600019011691909104601f8101869004860283018601909652858252919492938581019391929190830182828015610f2c5780601f10610f0157610100808354040283529160200191610f2c565b820191906000526020600020905b815481529060010190602001808311610f0f57829003601f168201915b5050509183525050600282810180546040805160206001841615610100026000190190931694909404601f81018390048302850183019091528084529381019390830182828015610fbe5780601f10610f9357610100808354040283529160200191610fbe565b820191906000526020600020905b815481529060010190602001808311610fa157829003601f168201915b505050505081526020016003820154815260200160048201548152602001600582018054600181600116156101000203166002900480601f0160208091040260200160405190810160405280929190818152602001828054600181600116156101000203166002900480156110745780601f1061104957610100808354040283529160200191611074565b820191906000526020600020905b81548152906001019060200180831161105757829003601f168201915b5050509183525050600682015460209091019060ff16600281111561109557fe5b60028111156110a057fe5b8152600691909101546101009004600160a060020a031660209091015292915050565b60006110d5818363ffffffff61412a16565b92915050565b60608060006110e9336110c3565b15156110f457600080fd5b60045460408051828152602080840282010190915290801561113057816020015b61111d6154a5565b8152602001906001900390816111155790505b509150600090505b6004548110156113c6576003600060048381548110151561115557fe5b600091825260208083209190910154600160a060020a0316835282810193909352604091820190208151610100808201845282548252600180840180548651600293821615909402600019011691909104601f810187900487028301870190955284825291949293858401939192918301828280156112155780601f106111ea57610100808354040283529160200191611215565b820191906000526020600020905b8154815290600101906020018083116111f857829003601f168201915b5050509183525050600282810180546040805160206001841615610100026000190190931694909404601f810183900483028501830190915280845293810193908301828280156112a75780601f1061127c576101008083540402835291602001916112a7565b820191906000526020600020905b81548152906001019060200180831161128a57829003601f168201915b505050505081526020016003820154815260200160048201548152602001600582018054600181600116156101000203166002900480601f01602080910402602001604051908101604052809291908181526020018280546001816001161561010002031660029004801561135d5780601f106113325761010080835404028352916020019161135d565b820191906000526020600020905b81548152906001019060200180831161134057829003601f168201915b5050509183525050600682015460209091019060ff16600281111561137e57fe5b600281111561138957fe5b8152600691909101546101009004600160a060020a031660209091015282518390839081106113b457fe5b60209081029091010152600101611138565b50919050565b606080600060028054905060405190808252806020026020018201604052801561141057816020015b6113fd6154f6565b8152602001906001900390816113f55790505b509150600090505b6002548110156113c6576001600060028381548110151561143557fe5b9060005260206000200154815260200190815260200160002061014060405190810160405290816000820154815260200160018201548152602001600282018054600181600116156101000203166002900480601f0160208091040260200160405190810160405280929190818152602001828054600181600116156101000203166002900480156115085780601f106114dd57610100808354040283529160200191611508565b820191906000526020600020905b8154815290600101906020018083116114eb57829003601f168201915b505050918352505060038201805460408051602060026001851615610100026000190190941693909304601f810184900484028201840190925281815293820193929183018282801561159c5780601f106115715761010080835404028352916020019161159c565b820191906000526020600020905b81548152906001019060200180831161157f57829003601f168201915b505050918352505060048201805460408051602060026001851615610100026000190190941693909304601f81018490048402820184019092528181529382019392918301828280156116305780601f1061160557610100808354040283529160200191611630565b820191906000526020600020905b81548152906001019060200180831161161357829003601f168201915b505050918352505060058201805460408051602060026001851615610100026000190190941693909304601f81018490048402820184019092528181529382019392918301828280156116c45780601f10611699576101008083540402835291602001916116c4565b820191906000526020600020905b8154815290600101906020018083116116a757829003601f168201915b505050918352505060068201805460408051602060026001851615610100026000190190941693909304601f81018490048402820184019092528181529382019392918301828280156117585780601f1061172d57610100808354040283529160200191611758565b820191906000526020600020905b81548152906001019060200180831161173b57829003601f168201915b50505050508152602001600782018054806020026020016040519081016040528092919081815260200182805480156117b057602002820191906000526020600020905b81548152602001906001019080831161179c575b505050505081526020016008820180548060200260200160405190810160405280929190818152602001828054801561180857602002820191906000526020600020905b8154815260200190600101908083116117f4575b505050505081526020016009820180548060200260200160405190810160405280929190818152602001828054801561186a57602002820191906000526020600020905b8154600160a060020a0316815260019091019060200180831161184c575b505050505081525050828281518110151561188157fe5b60209081029091010152600101611418565b600080805b6004548110156113c657336000908152600360208190526040822081015460048054919391859081106118c757fe5b6000918252602080832090910154600160a060020a03168352820192909252604001902060030154148015611944575060026003600060048481548110151561190c57fe5b6000918252602080832090910154600160a060020a0316835282019290925260400190206006015460ff16600281111561194257fe5b145b15611950576001909101905b600101611898565b600081151561197c5760405160e560020a62461bcd02815260040161044a906166a4565b6000861161199f5760405160e560020a62461bcd02815260040161044a906166b4565b33600090815260036020526040902054156119cf5760405160e560020a62461bcd02815260040161044a906165d4565b6119d8826126d3565b15156119f95760405160e560020a62461bcd02815260040161044a90616654565b611a0286614161565b9050611a178686868585886001336000614351565b505050505050565b6000611a2a336110c3565b1515611a3557600080fd5b506002545b90565b6060600080600080606080600080611a56600a8b613ad5565b9750611a606126e6565b9650611a6b87613ac0565b9550611a7886600a613b0e565b9450851580611a8957506001860388115b80611a935750848a115b15611a9d57611d32565b611aa6876147a5565b60408051600a8082526101608201909252919550816020015b611ac7615463565b815260200190600190039081611abf579050509250600091508790505b8351811015611d2e57600a821015611d2157600660008583815181101515611b0857fe5b90602001906020020151815260200190815260200160002060e06040519081016040529081600082015481526020016001820154815260200160028201805480602002602001604051908101604052809291908181526020016000905b82821015611cc35760008481526020908190206040805160028681029093018054600181161561010002600019011693909304601f810185900490940281016060908101835291810184815290938492849190840182828015611c095780601f10611bde57610100808354040283529160200191611c09565b820191906000526020600020905b815481529060010190602001808311611bec57829003601f168201915b50505050508152602001600182018054600181600116156101000203166002900480601f016020809104026020016040519081016040528092919081815260200182805460018160011615610100020316600290048015611cab5780601f10611c8057610100808354040283529160200191611cab565b820191906000526020600020905b815481529060010190602001808311611c8e57829003601f168201915b50505050508152505081526020019060010190611b65565b50505090825250600382015460ff9081161515602083015260048301546040830152600583015416151560608201526006909101546080909101528351849084908110611d0c57fe5b60209081029091010152600190910190611d26565b611d2e565b600101611ae4565b8298505b5050505050505050919050565b611d476154a5565b611d4f6154a5565b336000908152600360209081526040918290208251610100808201855282548252600180840180548751600293821615909402600019011691909104601f8101869004860283018601909652858252919492938581019391929190830182828015610f2c5780601f10610f0157610100808354040283529160200191610f2c565b6060600080600060606000611de6600a88613ad5565b600254909550611df790600a613b0e565b6002549094501580611e0e57506002546000190185115b80611e1857508387115b15611e22576122e1565b60408051600a80825261016082019092526000945090816020015b611e456154f6565b815260200190600190039081611e3d5790505091508490505b6002548110156122dd5760016000600283815481101515611e7b57fe5b9060005260206000200154815260200190815260200160002061014060405190810160405290816000820154815260200160018201548152602001600282018054600181600116156101000203166002900480601f016020809104026020016040519081016040528092919081815260200182805460018160011615610100020316600290048015611f4e5780601f10611f2357610100808354040283529160200191611f4e565b820191906000526020600020905b815481529060010190602001808311611f3157829003601f168201915b505050918352505060038201805460408051602060026001851615610100026000190190941693909304601f8101849004840282018401909252818152938201939291830182828015611fe25780601f10611fb757610100808354040283529160200191611fe2565b820191906000526020600020905b815481529060010190602001808311611fc557829003601f168201915b505050918352505060048201805460408051602060026001851615610100026000190190941693909304601f81018490048402820184019092528181529382019392918301828280156120765780601f1061204b57610100808354040283529160200191612076565b820191906000526020600020905b81548152906001019060200180831161205957829003601f168201915b505050918352505060058201805460408051602060026001851615610100026000190190941693909304601f810184900484028201840190925281815293820193929183018282801561210a5780601f106120df5761010080835404028352916020019161210a565b820191906000526020600020905b8154815290600101906020018083116120ed57829003601f168201915b505050918352505060068201805460408051602060026001851615610100026000190190941693909304601f810184900484028201840190925281815293820193929183018282801561219e5780601f106121735761010080835404028352916020019161219e565b820191906000526020600020905b81548152906001019060200180831161218157829003601f168201915b50505050508152602001600782018054806020026020016040519081016040528092919081815260200182805480156121f657602002820191906000526020600020905b8154815260200190600101908083116121e2575b505050505081526020016008820180548060200260200160405190810160405280929190818152602001828054801561224e57602002820191906000526020600020905b81548152602001906001019080831161223a575b50505050508152602001600982018054806020026020016040519081016040528092919081815260200182805480156122b057602002820191906000526020600020905b8154600160a060020a03168152600190910190602001808311612292575b50505050508152505082848151811015156122c757fe5b6020908102909101015260019283019201611e5e565b8195505b5050505050919050565b6122f43361483a565b565b6122ff336110c3565b151561230a57600080fd5b61059e81614882565b60008061231f336110c3565b151561232a57600080fd5b6000881161234d5760405160e560020a62461bcd02815260040161044a906166b4565b61235688614161565b600081815260016020526040902054909150156123885760405160e560020a62461bcd02815260040161044a90616644565b61239781898989898989613b31565b979650505050505050565b600160a060020a038181166000908152600360205260408120600601549091829182916101009091041681106123ed5760405160e560020a62461bcd02815260040161044a906165e4565b6002600160a060020a03851660009081526003602052604090206006015460ff16600281111561241957fe5b146124395760405160e560020a62461bcd02815260040161044a90616684565b600160a060020a03841660009081526003602052604090206004810154815460069092015490945090925060ff16600281111561247257fe5b905061248682898989878a878b6001614351565b5050505050505050565b612499336110c3565b15156124a457600080fd5b600160a060020a038116600090815260036020819052604090912001546124cb9082612564565b604080518082018252600b81527f53757065722061646d696e0000000000000000000000000000000000000000006020808301918252600160a060020a0385166000908152600390915292909220905161252b926005909201919061554a565b50600160a060020a0381166000908152600360208190526040822090810191909155600601805460ff1916600217905561059e816122f6565b6000805b600084815260016020526040902060090154600019018110156126645760008481526001602052604090206009018054600160a060020a0385169190839081106125ae57fe5b600091825260209091200154600160a060020a031614156125ce57600191505b811561265c5760008481526001602081905260409091206009018054909183019081106125f757fe5b6000918252602080832090910154868352600190915260409091206009018054600160a060020a03909216918390811061262d57fe5b9060005260206000200160006101000a815481600160a060020a030219169083600160a060020a031602179055505b600101612568565b60008481526001602052604090206009018054600019810190811061268557fe5b60009182526020808320909101805473ffffffffffffffffffffffffffffffffffffffff1916905585825260019052604090206009018054906126cc9060001983016155c4565b5050505050565b6000908152600160205260408120541190565b336000908152600360208190526040909120015490565b6127056155ed565b606060006060612714896148ca565b935061271f84614918565b60008c8152600660205260408120600181018e90558c815560038101805460ff19168c15151790559194506127579160020190615604565b600091505b825182101561283c57612785838381518110151561277657fe5b90602001906020020151614918565b9050600660008c815260200190815260200160002060020160408051908101604052806127c98460008151811015156127ba57fe5b906020019060200201516149eb565b81526020016127e08460018151811015156127ba57fe5b905281546001810180845560009384526020938490208351805192956002909402909101926128149284929091019061554a565b50602082810151805161282d926001850192019061554a565b5050505081600101915061275c565b505050600097885250600660208190526040909720600481019390935595820195909555600501805460ff191694151594909417909355505050565b6000918252600160208181526040842060080180549283018155845290922090910155565b6128a56155ed565b60606000806000806000806128b98a6148ca565b97506128c488614918565b96506128f06128eb6128de89600581518110151561277657fe5b805160019081106127ba57fe5b614a5d565b955061290a6128eb6128de89600281518110151561277657fe5b94506129246128eb6128de89600381518110151561277657fe5b60008d8152600760209081526040808320805461ffff191661ffff8c16179055600690915290206005015490945060ff169250600191508190505b6008548111612ece5760008181526006602052604090206003015460ff1615158b151514801561298f5750808c14155b15612ec6576005805460ff191690556000818152600660205260408120600201805490919081106129bc57fe5b90600052602060002090600202016001016040518082805460018160011615610100020316600290048015612a285780601f10612a06576101008083540402835291820191612a28565b820191906000526020600020905b815481529060010190602001808311612a14575b5050915050604051809103902060001916612a4e6128de89600081518110151561277657fe5b6040518082805190602001908083835b60208310612a7d5780518252601f199092019160209182019101612a5e565b6001836020036101000a038019825116818451168082178552505050505050905001915050604051809103902060001916148015612b9b5750600081815260066020526040902060029081018054612b8792908110612ad857fe5b90600052602060002090600202016001018054600181600116156101000203166002900480601f016020809104026020016040519081016040528092919081815260200182805460018160011615610100020316600290048015612b7d5780601f10612b5257610100808354040283529160200191612b7d565b820191906000526020600020905b815481529060010190602001808311612b6057829003601f168201915b5050505050614a5d565b65ffffffffffff168465ffffffffffff1610155b8015612bd9575060008181526006602052604090206002018054612bc591906003908110612ad857fe5b65ffffffffffff168565ffffffffffff1611155b15612ec657612cc3612bf66128de89600481518110151561277657fe5b600083815260066020526040902060020180546004908110612c1457fe5b90600052602060002090600202016001018054600181600116156101000203166002900480601f016020809104026020016040519081016040528092919081815260200182805460018160011615610100020316600290048015612cb95780601f10612c8e57610100808354040283529160200191612cb9565b820191906000526020600020905b815481529060010190602001808311612c9c57829003601f168201915b5050505050614abb565b60055460ff1615612ec657612d04612ce66128de89600181518110151561277657fe5b600083815260066020526040902060020180546001908110612c1457fe5b60055460ff1615612ec6578815612ddb576000818152600760205260409020805461ffff19811661ffff918216890182161791829055606491161115612dd657821515612d7b5760008c815260066020526040902060058101805460ff1916600117905560040154612d76908d614d60565b600192505b60008181526006602052604090206005015460ff161515612dd65760008181526006602052604090206004810154600190910154612db99190614d60565b6000818152600660205260409020600501805460ff191660011790555b612e94565b6000818152600760205260409020805461ffff19811661ffff918216899003821617918290556064911611612e94578215612e3d5760008c815260066020526040902060058101805460ff1916905560040154612e38908d614d85565b600092505b60008181526006602052604090206005015460ff1615612e945760008181526006602052604090206004810154600190910154612e7a9190614d85565b6000818152600660205260409020600501805460ff191690555b8115612ec657600081815260076020526040808220548e8352908220805461ffff191661ffff90921691909117905591505b60010161295f565b505050505050505050505050565b6000612ee66155ed565b60606000612ef3876148ca565b9250612efe83614918565b9150600190505b6008548111613aa75760008181526006602052604090206003015460ff161515851515148015612f355750808814155b15613a9f57600081815260066020526040812060020180549091908110612f5857fe5b90600052602060002090600202016001016040516020018082805460018160011615610100020316600290048015612fc75780601f10612fa5576101008083540402835291820191612fc7565b820191906000526020600020905b815481529060010190602001808311612fb3575b50509150506040516020818303038152906040526040518082805190602001908083835b6020831061300a5780518252601f199092019160209182019101612feb565b6001836020036101000a0380198251168184511680821785525050505050509050019150506040518091039020600019166130506128de84600081518110151561277657fe5b6040516020018082805190602001908083835b602083106130825780518252601f199092019160209182019101613063565b6001836020036101000a0380198251168184511680821785525050505050509050019150506040516020818303038152906040526040518082805190602001908083835b602083106130e55780518252601f1990920191602091820191016130c6565b6001836020036101000a0380198251168184511680821785525050505050509050019150506040518091039020600019161480156132fc575060008181526006602052604090206002018054600190811061313c57fe5b906000526020600020906002020160010160405160200180828054600181600116156101000203166002900480156131ab5780601f106131895761010080835404028352918201916131ab565b820191906000526020600020905b815481529060010190602001808311613197575b50509150506040516020818303038152906040526040518082805190602001908083835b602083106131ee5780518252601f1990920191602091820191016131cf565b6001836020036101000a0380198251168184511680821785525050505050509050019150506040518091039020600019166132346128de84600181518110151561277657fe5b6040516020018082805190602001908083835b602083106132665780518252601f199092019160209182019101613247565b6001836020036101000a0380198251168184511680821785525050505050509050019150506040516020818303038152906040526040518082805190602001908083835b602083106132c95780518252601f1990920191602091820191016132aa565b6001836020036101000a038019825116818451168082178552505050505050905001915050604051809103902060001916145b80156134e35750600081815260066020526040902060029081018054909190811061332357fe5b906000526020600020906002020160010160405160200180828054600181600116156101000203166002900480156133925780601f10613370576101008083540402835291820191613392565b820191906000526020600020905b81548152906001019060200180831161337e575b50509150506040516020818303038152906040526040518082805190602001908083835b602083106133d55780518252601f1990920191602091820191016133b6565b6001836020036101000a03801982511681845116808217855250505050505090500191505060405180910390206000191661341b6128de84600281518110151561277657fe5b6040516020018082805190602001908083835b6020831061344d5780518252601f19909201916020918201910161342e565b6001836020036101000a0380198251168184511680821785525050505050509050019150506040516020818303038152906040526040518082805190602001908083835b602083106134b05780518252601f199092019160209182019101613491565b6001836020036101000a038019825116818451168082178552505050505050905001915050604051809103902060001916145b80156136c8575060008181526006602052604090206002018054600390811061350857fe5b906000526020600020906002020160010160405160200180828054600181600116156101000203166002900480156135775780601f10613555576101008083540402835291820191613577565b820191906000526020600020905b815481529060010190602001808311613563575b50509150506040516020818303038152906040526040518082805190602001908083835b602083106135ba5780518252601f19909201916020918201910161359b565b6001836020036101000a0380198251168184511680821785525050505050509050019150506040518091039020600019166136006128de84600381518110151561277657fe5b6040516020018082805190602001908083835b602083106136325780518252601f199092019160209182019101613613565b6001836020036101000a0380198251168184511680821785525050505050509050019150506040516020818303038152906040526040518082805190602001908083835b602083106136955780518252601f199092019160209182019101613676565b6001836020036101000a038019825116818451168082178552505050505050905001915050604051809103902060001916145b80156138ad57506000818152600660205260409020600201805460049081106136ed57fe5b9060005260206000209060020201600101604051602001808280546001816001161561010002031660029004801561375c5780601f1061373a57610100808354040283529182019161375c565b820191906000526020600020905b815481529060010190602001808311613748575b50509150506040516020818303038152906040526040518082805190602001908083835b6020831061379f5780518252601f199092019160209182019101613780565b6001836020036101000a0380198251168184511680821785525050505050509050019150506040518091039020600019166137e56128de84600481518110151561277657fe5b6040516020018082805190602001908083835b602083106138175780518252601f1990920191602091820191016137f8565b6001836020036101000a0380198251168184511680821785525050505050509050019150506040516020818303038152906040526040518082805190602001908083835b6020831061387a5780518252601f19909201916020918201910161385b565b6001836020036101000a038019825116818451168082178552505050505050905001915050604051809103902060001916145b8015613a9257506000818152600660205260409020600201805460059081106138d257fe5b906000526020600020906002020160010160405160200180828054600181600116156101000203166002900480156139415780601f1061391f576101008083540402835291820191613941565b820191906000526020600020905b81548152906001019060200180831161392d575b50509150506040516020818303038152906040526040518082805190602001908083835b602083106139845780518252601f199092019160209182019101613965565b6001836020036101000a0380198251168184511680821785525050505050509050019150506040518091039020600019166139ca6128de84600581518110151561277657fe5b6040516020018082805190602001908083835b602083106139fc5780518252601f1990920191602091820191016139dd565b6001836020036101000a0380198251168184511680821785525050505050509050019150506040516020818303038152906040526040518082805190602001908083835b60208310613a5f5780518252601f199092019160209182019101613a40565b6001836020036101000a038019825116818451168082178552505050505050905001915050604051809103902060001916145b15613a9f57809350613ab5565b600101612f05565b600880546001019081905593505b505050949350505050565b60009081526001602052604090206008015490565b600080831515613ae85760009150613b07565b50828202828482811515613af857fe5b0414613b0357600080fd5b8091505b5092915050565b600080808311613b1d57600080fd5b8284811515613b2857fe5b04949350505050565b613b396154f6565b85511515613b5c5760405160e560020a62461bcd02815260040161044a90616694565b82511515613b7f5760405160e560020a62461bcd02815260040161044a90616674565b81511515613ba25760405160e560020a62461bcd02815260040161044a90616664565b6000888152600160208181526040928390208351610140810185528154815281840154818401526002808301805487519681161561010002600019011691909104601f810185900485028601850187528086529195929492860193909190830182828015613c515780601f10613c2657610100808354040283529160200191613c51565b820191906000526020600020905b815481529060010190602001808311613c3457829003601f168201915b505050918352505060038201805460408051602060026001851615610100026000190190941693909304601f8101849004840282018401909252818152938201939291830182828015613ce55780601f10613cba57610100808354040283529160200191613ce5565b820191906000526020600020905b815481529060010190602001808311613cc857829003601f168201915b505050918352505060048201805460408051602060026001851615610100026000190190941693909304601f8101849004840282018401909252818152938201939291830182828015613d795780601f10613d4e57610100808354040283529160200191613d79565b820191906000526020600020905b815481529060010190602001808311613d5c57829003601f168201915b505050918352505060058201805460408051602060026001851615610100026000190190941693909304601f8101849004840282018401909252818152938201939291830182828015613e0d5780601f10613de257610100808354040283529160200191613e0d565b820191906000526020600020905b815481529060010190602001808311613df057829003601f168201915b505050918352505060068201805460408051602060026001851615610100026000190190941693909304601f8101849004840282018401909252818152938201939291830182828015613ea15780601f10613e7657610100808354040283529160200191613ea1565b820191906000526020600020905b815481529060010190602001808311613e8457829003601f168201915b5050505050815260200160078201805480602002602001604051908101604052809291908181526020018280548015613ef957602002820191906000526020600020905b815481526020019060010190808311613ee5575b5050505050815260200160088201805480602002602001604051908101604052809291908181526020018280548015613f5157602002820191906000526020600020905b815481526020019060010190808311613f3d575b5050505050815260200160098201805480602002602001604051908101604052809291908181526020018280548015613fb357602002820191906000526020600020905b8154600160a060020a03168152600190910190602001808311613f95575b50505091909252505050888152602080820189815260408084018a8152606085018a90526080850189905260a0850188905260c0850187905260008d8152600180865292902085518155925191830191909155518051939450849391926140229260028501929091019061554a565b506060820151805161403e91600384019160209091019061554a565b506080820151805161405a91600484019160209091019061554a565b5060a0820151805161407691600584019160209091019061554a565b5060c0820151805161409291600684019160209091019061554a565b5060e082015180516140ae916007840191602090910190615625565b5061010082015180516140cb916008840191602090910190615625565b5061012082015180516140e891600984019160209091019061565f565b5050600280546001810182556000919091527f405787fa12a823e0f2b7631cc41b3ba8828b3321ca811111fa75cd3aa3bb5ace01989098555050505050505050565b6000600160a060020a038216151561414157600080fd5b50600160a060020a03166000908152602091909152604090205460ff1690565b60008080806002850615156141f35784604051602001808281526020019150506040516020818303038152906040526040518082805190602001908083835b602083106141bf5780518252601f1990920191602091820191016141a0565b6001836020036101000a038019825116818451168082178552505050505050905001915050604051809103902092506142de565b84604051602001808281526020019150506040516020818303038152906040526040518082805190602001908083835b602083106142425780518252601f199092019160209182019101614223565b51815160209384036101000a600019018019909216911617905260408051929094018290038220828201528351808303820181529184019384905281519195509293508392850191508083835b602083106142ae5780518252601f19909201916020918201910161428f565b6001836020036101000a038019825116818451168082178552505050505050905001915050604051809103902092505b602081101561430b578281602081106142f357fe5b60f860020a91901a81020491909101906001016142de565b82602060028401066020811061431d57fe5b60f860020a91901a81020483602084066020811061433757fe5b1a60f860020a0260f860020a90040293505b505050919050565b6143596154a5565b60008410158061436a575060028411155b151561438b5760405160e560020a62461bcd02815260040161044a90616614565b845115156143ae5760405160e560020a62461bcd02815260040161044a906165b4565b600160a060020a0383166000908152600360209081526040918290208251610100808201855282548252600180840180548751600293821615909402600019011691909104601f81018690048602830186019096528582529194929385810193919291908301828280156144635780601f1061443857610100808354040283529160200191614463565b820191906000526020600020905b81548152906001019060200180831161444657829003601f168201915b5050509183525050600282810180546040805160206001841615610100026000190190931694909404601f810183900483028501830190915280845293810193908301828280156144f55780601f106144ca576101008083540402835291602001916144f5565b820191906000526020600020905b8154815290600101906020018083116144d857829003601f168201915b505050505081526020016003820154815260200160048201548152602001600582018054600181600116156101000203166002900480601f0160208091040260200160405190810160405280929190818152602001828054600181600116156101000203166002900480156145ab5780601f10614580576101008083540402835291602001916145ab565b820191906000526020600020905b81548152906001019060200180831161458e57829003601f168201915b5050509183525050600682015460209091019060ff1660028111156145cc57fe5b60028111156145d757fe5b8152600691909101546101009004600160a060020a03166020918201528b825281018a905260408101899052606081018890526080810187905260a08101869052905083600281111561462657fe5b8160c00190600281111561463657fe5b9081600281111561464357fe5b905250600160a060020a03831660e08201819052600090815260036020908152604090912082518155818301518051849361468592600185019291019061554a565b50604082015180516146a191600284019160209091019061554a565b50606082015160038201556080820151600482015560a082015180516146d191600584019160209091019061554a565b5060c082015160068201805460ff191660018360028111156146ef57fe5b021790555060e0919091015160069091018054600160a060020a039092166101000274ffffffffffffffffffffffffffffffffffffffff001990921691909117905581151561479957600480546001810182556000919091527f8a35acfbc15ff81a39ae7d344fd709f28e8600b4aa8c65c6b64bfe7fe36bd19b01805473ffffffffffffffffffffffffffffffffffffffff1916600160a060020a03851617905561479987614e98565b50505050505050505050565b600081815260016020526040812054606091106147d75760405160e560020a62461bcd02815260040161044a90616624565b6000828152600160209081526040918290206008018054835181840281018401909452808452909183018282801561482e57602002820191906000526020600020905b81548152602001906001019080831161481a575b50505050509050919050565b61484b60008263ffffffff614ed716565b604051600160a060020a038216907f3525e22824a8a7df2c9a6029941c824cf95b6447f1e13d5128fd3826d35afe8b90600090a250565b61489360008263ffffffff614f2316565b604051600160a060020a038216907f47d1c22a25bb3a5d4e481b9b1e6944c2eade3181a0a20b495ed61d35b5323f2490600090a250565b6148d26155ed565b60008251600014156148f957604080518082019091526000808252602082015291506113c6565b5050604080518082019091528151815260209182019181019190915290565b606060008060008061492986614f71565b151561493457600080fd5b61493d86614fa0565b93508360405190808252806020026020018201604052801561497957816020015b6149666155ed565b81526020019060019003908161495e5790505b5094506149898660200151614ff0565b8660200151019250600090505b838110156149e2576149a783615053565b915060408051908101604052808381526020018481525085828151811015156149cc57fe5b6020908102909101015291810191600101614996565b50505050919050565b606060008060606000614a018660200151614ff0565b9350838660000151039250826040519080825280601f01601f191660200182016040528015614a3a578160200160208202803883390190505b509150816020019050614a548487602001510182856150e4565b50949350505050565b60008181805b8251821015614349578282815181101515614a7a57fe5b016020015160f860020a90819004810204905060308110801590614a9f575060398111155b15614ab0576030810384600a020193505b600190910190614a63565b614ac36155ed565b614acb6155ed565b614ad36155ed565b606080600080614ae28961512b565b9650614aed8861512b565b9550614b2d6040805190810160405280600181526020017f2c0000000000000000000000000000000000000000000000000000000000000081525061512b565b9450614b3f878663ffffffff61515116565b600101604051908082528060200260200182016040528015614b7557816020015b6060815260200190600190039081614b605790505b509350614b88868663ffffffff61515116565b600101604051908082528060200260200182016040528015614bbe57816020015b6060815260200190600190039081614ba95790505b509250825184511015614c5e57614bdb878663ffffffff61515116565b600101604051908082528060200260200182016040528015614c1157816020015b6060815260200190600190039081614bfc5790505b509250614c24868663ffffffff61515116565b600101604051908082528060200260200182016040528015614c5a57816020015b6060815260200190600190039081614c455790505b5093505b600091505b835182101561067a57614c84614c7f888763ffffffff6151b716565b6151ca565b8483815181101515614c9257fe5b602090810290910101525060005b818111614d45578251821015614d1457614cc3614c7f878763ffffffff6151b716565b8383815181101515614cd157fe5b602090810290910101528351614d1490859083908110614ced57fe5b906020019060200201518484815181101515614d0557fe5b9060200190602002015161521d565b614d3d8382815181101515614d2557fe5b906020019060200201518584815181101515614d0557fe5b600101614ca0565b60055460ff1615614d555761067a565b600190910190614c63565b6000918252600160208181526040842060070180549283018155845290922090910155565b6000805b60008481526001602052604090206007015460001901811015614e48576000848152600160205260409020600701805484919083908110614dc657fe5b90600052602060002001541415614ddc57600191505b8115614e40576000848152600160208190526040909120600701805490918301908110614e0557fe5b90600052602060002001546001600086815260200190815260200160002060070182815481101515614e3357fe5b6000918252602090912001555b600101614d89565b600084815260016020526040902060070180546000198101908110614e6957fe5b6000918252602080832090910182905585825260019052604090206007018054906126cc9060001983016155c4565b6000908152600160208181526040832060090180549283018155835290912001805473ffffffffffffffffffffffffffffffffffffffff191633179055565b600160a060020a0381161515614eec57600080fd5b614ef6828261412a565b1515614f0157600080fd5b600160a060020a0316600090815260209190915260409020805460ff19169055565b600160a060020a0381161515614f3857600080fd5b614f42828261412a565b15614f4c57600080fd5b600160a060020a0316600090815260209190915260409020805460ff19166001179055565b6020810151805160009190821a9060c060ff83161015614f945760009250614f99565b600192505b5050919050565b60008060008060009250614fb78560200151614ff0565b6020860151865191810193500190505b80821015614fe757614fd882615053565b60019093019290910190614fc7565b50909392505050565b8051600090811a608081101561500957600091506113c6565b60b8811080615024575060c08110801590615024575060f881105b1561503257600191506113c6565b60c08110156150475760b519810191506113c6565b60f519810191506113c6565b8051600090811a608081101561506c57600191506113c6565b60b881101561508157607e19810191506113c6565b60c08110156150ae5760b78103600184019350806020036101000a845104600182018101935050506113c6565b60f88110156150c35760be19810191506113c6565b60019290920151602083900360f7016101000a900490910160f51901919050565b60005b60208210615109578351835260209384019390920191601f19909101906150e7565b50915181516020939093036101000a6000190180199091169216919091179052565b6151336155ed565b50604080518082019091528151815260209182019181019190915290565b600080826000015161517585600001518660200151866000015187602001516152ef565b0190505b83516020850151018111613b075782516020808601518651918601516001909501946151af9291850390910390849084906152ef565b019050615179565b6151bf6155ed565b613b078383836153af565b606080600083600001516040519080825280601f01601f191660200182016040528015615201578160200160208202803883390190505b509150602082019050613b07818560200151866000015161541f565b806040518082805190602001908083835b6020831061524d5780518252601f19909201916020918201910161522e565b51815160209384036101000a6000190180199092169116179052604051919093018190038120875190955087945090928392508401908083835b602083106152a65780518252601f199092019160209182019101615287565b6001836020036101000a03801982511681845116808217855250505050505090500191505060405180910390206000191614156152eb576005805460ff191660011790555b5050565b600083818080808080808c8b116153995760208b116153625760018b60200360080260020a03196001029550858a511694508a8d8d010393508588511692505b82851461535a57838810615347578c8c01985061539f565b878060010198505085885116925061532f565b87985061539f565b8a8a209150600096505b8a8d0387116153995750898720818114156153895787985061539f565b600197880197969096019561536c565b8c8c0198505b5050505050505050949350505050565b6153b76155ed565b60006153d585600001518660200151866000015187602001516152ef565b602080870180519186019190915280518203855286519051919250018114156154015760008552614fe7565b83518351865191019003855283518101602086015250909392505050565b60005b60208210615444578251845260209384019390920191601f1990910190615422565b50905182516020929092036101000a6000190180199091169116179052565b60e06040519081016040528060008152602001600081526020016060815260200160001515815260200160008152602001600015158152602001600081525090565b61010060405190810160405280600081526020016060815260200160608152602001600081526020016000815260200160608152602001600060028111156154e957fe5b8152600060209091015290565b61014060405190810160405280600081526020016000815260200160608152602001606081526020016060815260200160608152602001606081526020016060815260200160608152602001606081525090565b828054600181600116156101000203166002900490600052602060002090601f016020900481019282601f1061558b57805160ff19168380011785556155b8565b828001600101855582156155b8579182015b828111156155b857825182559160200191906001019061559d565b5061069e9291506156cd565b8154818355818111156155e8576000838152602090206155e89181019083016156cd565b505050565b604080518082019091526000808252602082015290565b508054600082556002029060005260206000209081019061059e91906156e7565b8280548282559060005260206000209081019282156155b857916020028201828111156155b857825182559160200191906001019061559d565b8280548282559060005260206000209081019282156156c1579160200282015b828111156156c1578251825473ffffffffffffffffffffffffffffffffffffffff1916600160a060020a0390911617825560209092019160019091019061567f565b5061069e929150615718565b611a3a91905b8082111561069e57600081556001016156d3565b611a3a91905b8082111561069e5760006157018282615749565b61570f600183016000615749565b506002016156ed565b611a3a91905b8082111561069e57805473ffffffffffffffffffffffffffffffffffffffff1916815560010161571e565b50805460018160011615610100020316600290046000825580601f1061576f575061059e565b601f01602090049060005260206000209081019061059e91906156cd565b6000615799823561674d565b9392505050565b60006157998235616759565b6000601f820183136157bd57600080fd5b81356157d06157cb8261671b565b6166f4565b915080825260208301602083018583830111156157ec57600080fd5b6157f7838284616775565b50505092915050565b60006157998235611a3a565b60006020828403121561581e57600080fd5b600061582a848461578d565b949350505050565b600080600080600060a0868803121561584a57600080fd5b853567ffffffffffffffff81111561586157600080fd5b61586d888289016157ac565b955050602086013567ffffffffffffffff81111561588a57600080fd5b615896888289016157ac565b94505060406158a788828901615800565b935050606086013567ffffffffffffffff8111156158c457600080fd5b6158d0888289016157ac565b92505060806158e18882890161578d565b9150509295509295909350565b60006020828403121561590057600080fd5b600061582a8484615800565b60008060008060008060008060006101208a8c03121561592b57600080fd5b60006159378c8c615800565b99505060208a013567ffffffffffffffff81111561595457600080fd5b6159608c828d016157ac565b98505060406159718c828d016157a0565b97505060606159828c828d01615800565b96505060806159938c828d016157a0565b95505060a06159a48c828d01615800565b94505060c08a013567ffffffffffffffff8111156159c157600080fd5b6159cd8c828d016157ac565b93505060e06159de8c828d01615800565b9250506101006159f08c828d016157a0565b9150509295985092959850929598565b60008060008060008060c08789031215615a1957600080fd5b6000615a258989615800565b965050602087013567ffffffffffffffff811115615a4257600080fd5b615a4e89828a016157ac565b955050604087013567ffffffffffffffff811115615a6b57600080fd5b615a7789828a016157ac565b945050606087013567ffffffffffffffff811115615a9457600080fd5b615aa089828a016157ac565b935050608087013567ffffffffffffffff811115615abd57600080fd5b615ac989828a016157ac565b92505060a087013567ffffffffffffffff811115615ae657600080fd5b615af289828a016157ac565b9150509295509295509295565b600080600080600060a08688031215615b1757600080fd5b6000615b238888615800565b955050602086013567ffffffffffffffff811115615b4057600080fd5b615b4c888289016157ac565b945050604086013567ffffffffffffffff811115615b6957600080fd5b615b75888289016157ac565b935050606086013567ffffffffffffffff811115615b9257600080fd5b615b9e888289016157ac565b92505060806158e188828901615800565b600080600080600080600060e0888a031215615bca57600080fd5b6000615bd68a8a615800565b9750506020615be78a828b01615800565b965050604088013567ffffffffffffffff811115615c0457600080fd5b615c108a828b016157ac565b955050606088013567ffffffffffffffff811115615c2d57600080fd5b615c398a828b016157ac565b945050608088013567ffffffffffffffff811115615c5657600080fd5b615c628a828b016157ac565b93505060a088013567ffffffffffffffff811115615c7f57600080fd5b615c8b8a828b016157ac565b92505060c088013567ffffffffffffffff811115615ca857600080fd5b615cb48a828b016157ac565b91505092959891949750929550565b615ccc8161674d565b82525050565b6000615cdd82616749565b808452602084019350615cef83616743565b60005b82811015615d1f57615d05868351615cc3565b615d0e82616743565b602096909601959150600101615cf2565b5093949350505050565b6000615d3482616749565b80845260208401935083602082028501615d4d85616743565b60005b84811015615d84578383038852615d688383516162e1565b9250615d7382616743565b602098909801979150600101615d50565b50909695505050505050565b6000615d9b82616749565b80845260208401935083602082028501615db485616743565b60005b84811015615d84578383038852615dcf838351616376565b9250615dda82616743565b602098909801979150600101615db7565b6000615df682616749565b80845260208401935083602082028501615e0f85616743565b60005b84811015615d84578383038852615e2a838351616479565b9250615e3582616743565b602098909801979150600101615e12565b6000615e5182616749565b80845260208401935083602082028501615e6a85616743565b60005b84811015615d84578383038852615e858383516164ab565b9250615e9082616743565b602098909801979150600101615e6d565b6000615eac82616749565b808452602084019350615ebe83616743565b60005b82811015615d1f57615ed486835161655a565b615edd82616743565b602096909601959150600101615ec1565b615ccc81616759565b615ccc8161676a565b6000615f0b82616749565b808452615f1f816020860160208601616781565b615f28816167b1565b9093016020019392505050565b601a81527f4372656174696f6e204461746520697320696e6d757461626c65000000000000602082015260400190565b601181527f726f6c65206973206d616e6461746f7279000000000000000000000000000000602082015260400190565b602281527f4f6e6c792070656e64696e672075736572732063616e2062652061636365707460208201527f6564000000000000000000000000000000000000000000000000000000000000604082015260600190565b601381527f5573657220616c72656164792065786973747300000000000000000000000000602082015260400190565b601481527f546869732075736572206e6f7420657869737473000000000000000000000000602082015260400190565b601b81527f596f752063616e6e6f7420616363657074207468697320757365720000000000602082015260400190565b602281527f4f6e6c792070656e64696e672075736572732063616e2062652072656a65637460208201527f6564000000000000000000000000000000000000000000000000000000000000604082015260600190565b601381527f737461747573206973206e6f742076616c696400000000000000000000000000602082015260400190565b601181527f6d656d626572206e6f7420657869737473000000000000000000000000000000602082015260400190565b601481527f4d656d62657220646f206e6f7420657869737473000000000000000000000000602082015260400190565b601581527f4d656d62657220616c7265616479206578697374730000000000000000000000602082015260400190565b601181527f4d656d626572206e6f7420657869737473000000000000000000000000000000602082015260400190565b601281527f5468656d65206973206d616e6461746f72790000000000000000000000000000602082015260400190565b601081527f434d4f206973206d616e6461746f727900000000000000000000000000000000602082015260400190565b601481527f596f7520617265206e6f74206163636570746564000000000000000000000000602082015260400190565b601181527f4e616d65206973206d616e6461746f7279000000000000000000000000000000602082015260400190565b601181527f4e6f2076616c6964206d656d6265724964000000000000000000000000000000602082015260400190565b601981527f4372656174696f6e44617465206973206d616e6461746f727900000000000000602082015260400190565b805160009060e08401906162f5858261655a565b506020830151616308602086018261655a565b50604083015184820360408601526163208282615deb565b91505060608301516163356060860182615eee565b506080830151616348608086018261655a565b5060a083015161635b60a0860182615eee565b5060c083015161636e60c086018261655a565b509392505050565b805160009061014084019061638b858261655a565b50602083015161639e602086018261655a565b50604083015184820360408601526163b68282615f00565b915050606083015184820360608601526163d08282615f00565b915050608083015184820360808601526163ea8282615f00565b91505060a083015184820360a08601526164048282615f00565b91505060c083015184820360c086015261641e8282615f00565b91505060e083015184820360e08601526164388282615ea1565b9150506101008301518482036101008601526164548282615ea1565b9150506101208301518482036101208601526164708282615cd2565b95945050505050565b80516040808452600091908401906164918282615f00565b915050602083015184820360208601526164708282615f00565b80516000906101008401906164c0858261655a565b50602083015184820360208601526164d88282615f00565b915050604083015184820360408601526164f28282615f00565b9150506060830151616507606086018261655a565b50608083015161651a608086018261655a565b5060a083015184820360a08601526165328282615f00565b91505060c083015161654760c0860182615ef7565b5060e083015161636e60e0860182615cc3565b615ccc81611a3a565b602080825281016157998184615d29565b602080825281016157998184615d90565b602080825281016157998184615e46565b602081016110d58284615eee565b602080825281016110d581615f35565b602080825281016110d581615f65565b602080825281016110d581615f95565b602080825281016110d581615feb565b602080825281016110d58161601b565b602080825281016110d58161604b565b602080825281016110d58161607b565b602080825281016110d5816160d1565b602080825281016110d581616101565b602080825281016110d581616131565b602080825281016110d581616161565b602080825281016110d581616191565b602080825281016110d5816161c1565b602080825281016110d5816161f1565b602080825281016110d581616221565b602080825281016110d581616251565b602080825281016110d581616281565b602080825281016110d5816162b1565b6020808252810161579981846162e1565b6020808252810161579981846164ab565b602081016110d5828461655a565b60405181810167ffffffffffffffff8111828210171561671357600080fd5b604052919050565b600067ffffffffffffffff82111561673257600080fd5b506020601f91909101601f19160190565b60200190565b5190565b600160a060020a031690565b151590565b60006003821061069e57fe5b60006110d58261675e565b82818337506000910152565b60005b8381101561679c578181015183820152602001616784565b838111156167ab576000848401525b50505050565b601f01601f1916905600a265627a7a723058208ca857c16b823746ad689c153e5761e3cd38369631d51818acbaf0e716e35f0e6c6578706572696d656e74616cf50037",
  "source": "pragma solidity ^0.4.24;\npragma experimental ABIEncoderV2;\n\nimport \"./Registry.sol\";\nimport \"./Claims.sol\";\n\ncontract Functions is Claims {\n\n    Registry private _Registry;\n\n    constructor (address _RegistryAddr) public {\n        _Registry = Registry(_RegistryAddr);\n    }\n\n}\n",
  "sourcePath": "/home/komodo/newUI/bloomen-decentralized-rights-management-v2/truffle/contracts/registry/Functions.sol",
  "compiler": {
    "name": "solc",
    "version": "0.4.24+commit.e67f0147.Emscripten.clang"
  },
  "schemaVersion": "2.0.1",
  "updatedAt": "2019-12-12T10:29:55.768Z"
}