{
  "contractName": "Lib",
  "abi": [
    {
      "constant": false,
      "inputs": [
        {
          "name": "_userToAccept",
          "type": "address"
        }
      ],
      "name": "acceptUser",
      "outputs": [],
      "payable": false,
      "stateMutability": "nonpayable",
      "type": "function"
    },
    {
      "constant": false,
      "inputs": [
        {
          "name": "_userToReject",
          "type": "address"
        }
      ],
      "name": "rejectUser",
      "outputs": [],
      "payable": false,
      "stateMutability": "nonpayable",
      "type": "function"
    },
    {
      "constant": true,
      "inputs": [
        {
          "name": "_page",
          "type": "uint256"
        }
      ],
      "name": "getUsers",
      "outputs": [
        {
          "components": [
            {
              "name": "creationDate",
              "type": "uint256"
            },
            {
              "name": "firstName",
              "type": "string"
            },
            {
              "name": "lastName",
              "type": "string"
            },
            {
              "name": "memberId",
              "type": "uint256"
            },
            {
              "name": "requestId",
              "type": "uint256"
            },
            {
              "name": "role",
              "type": "string"
            },
            {
              "name": "status",
              "type": "uint8"
            },
            {
              "name": "owner",
              "type": "address"
            }
          ],
          "name": "",
          "type": "tuple[]"
        }
      ],
      "payable": false,
      "stateMutability": "view",
      "type": "function"
    },
    {
      "constant": false,
      "inputs": [
        {
          "name": "_memberId",
          "type": "uint256"
        },
        {
          "name": "_creationDate",
          "type": "uint256"
        },
        {
          "name": "_name",
          "type": "string"
        },
        {
          "name": "_logo",
          "type": "string"
        },
        {
          "name": "_country",
          "type": "string"
        },
        {
          "name": "_cmo",
          "type": "string"
        },
        {
          "name": "_theme",
          "type": "string"
        }
      ],
      "name": "updateMember",
      "outputs": [],
      "payable": false,
      "stateMutability": "nonpayable",
      "type": "function"
    },
    {
      "constant": true,
      "inputs": [
        {
          "name": "userAddress",
          "type": "address"
        }
      ],
      "name": "getUserByAddress",
      "outputs": [
        {
          "components": [
            {
              "name": "creationDate",
              "type": "uint256"
            },
            {
              "name": "firstName",
              "type": "string"
            },
            {
              "name": "lastName",
              "type": "string"
            },
            {
              "name": "memberId",
              "type": "uint256"
            },
            {
              "name": "requestId",
              "type": "uint256"
            },
            {
              "name": "role",
              "type": "string"
            },
            {
              "name": "status",
              "type": "uint8"
            },
            {
              "name": "owner",
              "type": "address"
            }
          ],
          "name": "",
          "type": "tuple"
        }
      ],
      "payable": false,
      "stateMutability": "view",
      "type": "function"
    },
    {
      "constant": true,
      "inputs": [
        {
          "name": "account",
          "type": "address"
        }
      ],
      "name": "isSigner",
      "outputs": [
        {
          "name": "",
          "type": "bool"
        }
      ],
      "payable": false,
      "stateMutability": "view",
      "type": "function"
    },
    {
      "constant": true,
      "inputs": [],
      "name": "getUsersOwner",
      "outputs": [
        {
          "components": [
            {
              "name": "creationDate",
              "type": "uint256"
            },
            {
              "name": "firstName",
              "type": "string"
            },
            {
              "name": "lastName",
              "type": "string"
            },
            {
              "name": "memberId",
              "type": "uint256"
            },
            {
              "name": "requestId",
              "type": "uint256"
            },
            {
              "name": "role",
              "type": "string"
            },
            {
              "name": "status",
              "type": "uint8"
            },
            {
              "name": "owner",
              "type": "address"
            }
          ],
          "name": "",
          "type": "tuple[]"
        }
      ],
      "payable": false,
      "stateMutability": "view",
      "type": "function"
    },
    {
      "constant": true,
      "inputs": [],
      "name": "claimIdCounter_",
      "outputs": [
        {
          "name": "",
          "type": "uint256"
        }
      ],
      "payable": false,
      "stateMutability": "view",
      "type": "function"
    },
    {
      "constant": true,
      "inputs": [],
      "name": "getMembers",
      "outputs": [
        {
          "components": [
            {
              "name": "memberId",
              "type": "uint256"
            },
            {
              "name": "creationDate",
              "type": "uint256"
            },
            {
              "name": "name",
              "type": "string"
            },
            {
              "name": "logo",
              "type": "string"
            },
            {
              "name": "country",
              "type": "string"
            },
            {
              "name": "cmo",
              "type": "string"
            },
            {
              "name": "theme",
              "type": "string"
            },
            {
              "name": "claimInbox",
              "type": "uint256[]"
            },
            {
              "name": "claims",
              "type": "uint256[]"
            },
            {
              "name": "userRequests",
              "type": "address[]"
            }
          ],
          "name": "",
          "type": "tuple[]"
        }
      ],
      "payable": false,
      "stateMutability": "view",
      "type": "function"
    },
    {
      "constant": true,
      "inputs": [],
      "name": "getcountUsers",
      "outputs": [
        {
          "name": "",
          "type": "uint256"
        }
      ],
      "payable": false,
      "stateMutability": "view",
      "type": "function"
    },
    {
      "constant": false,
      "inputs": [
        {
          "name": "_creationDate",
          "type": "uint256"
        },
        {
          "name": "_firstName",
          "type": "string"
        },
        {
          "name": "_lastName",
          "type": "string"
        },
        {
          "name": "_role",
          "type": "string"
        },
        {
          "name": "_memberId",
          "type": "uint256"
        }
      ],
      "name": "registerUserRequest",
      "outputs": [],
      "payable": false,
      "stateMutability": "nonpayable",
      "type": "function"
    },
    {
      "constant": true,
      "inputs": [],
      "name": "getCount",
      "outputs": [
        {
          "name": "",
          "type": "uint256"
        }
      ],
      "payable": false,
      "stateMutability": "view",
      "type": "function"
    },
    {
      "constant": true,
      "inputs": [
        {
          "name": "",
          "type": "uint256"
        }
      ],
      "name": "claims_",
      "outputs": [
        {
          "name": "creationDate",
          "type": "uint256"
        },
        {
          "name": "claimId",
          "type": "uint256"
        },
        {
          "name": "claimType",
          "type": "bool"
        },
        {
          "name": "memberOwner",
          "type": "uint256"
        },
        {
          "name": "status",
          "type": "bool"
        },
        {
          "name": "lastChange",
          "type": "uint256"
        }
      ],
      "payable": false,
      "stateMutability": "view",
      "type": "function"
    },
    {
      "constant": true,
      "inputs": [],
      "name": "getMe",
      "outputs": [
        {
          "components": [
            {
              "name": "creationDate",
              "type": "uint256"
            },
            {
              "name": "firstName",
              "type": "string"
            },
            {
              "name": "lastName",
              "type": "string"
            },
            {
              "name": "memberId",
              "type": "uint256"
            },
            {
              "name": "requestId",
              "type": "uint256"
            },
            {
              "name": "role",
              "type": "string"
            },
            {
              "name": "status",
              "type": "uint8"
            },
            {
              "name": "owner",
              "type": "address"
            }
          ],
          "name": "",
          "type": "tuple"
        }
      ],
      "payable": false,
      "stateMutability": "view",
      "type": "function"
    },
    {
      "constant": true,
      "inputs": [
        {
          "name": "_page",
          "type": "uint256"
        }
      ],
      "name": "getMembers",
      "outputs": [
        {
          "components": [
            {
              "name": "memberId",
              "type": "uint256"
            },
            {
              "name": "creationDate",
              "type": "uint256"
            },
            {
              "name": "name",
              "type": "string"
            },
            {
              "name": "logo",
              "type": "string"
            },
            {
              "name": "country",
              "type": "string"
            },
            {
              "name": "cmo",
              "type": "string"
            },
            {
              "name": "theme",
              "type": "string"
            },
            {
              "name": "claimInbox",
              "type": "uint256[]"
            },
            {
              "name": "claims",
              "type": "uint256[]"
            },
            {
              "name": "userRequests",
              "type": "address[]"
            }
          ],
          "name": "",
          "type": "tuple[]"
        }
      ],
      "payable": false,
      "stateMutability": "view",
      "type": "function"
    },
    {
      "constant": false,
      "inputs": [],
      "name": "renounceSigner",
      "outputs": [],
      "payable": false,
      "stateMutability": "nonpayable",
      "type": "function"
    },
    {
      "constant": false,
      "inputs": [
        {
          "name": "account",
          "type": "address"
        }
      ],
      "name": "addSigner",
      "outputs": [],
      "payable": false,
      "stateMutability": "nonpayable",
      "type": "function"
    },
    {
      "constant": false,
      "inputs": [
        {
          "name": "_creationDate",
          "type": "uint256"
        },
        {
          "name": "_name",
          "type": "string"
        },
        {
          "name": "_logo",
          "type": "string"
        },
        {
          "name": "_country",
          "type": "string"
        },
        {
          "name": "_cmo",
          "type": "string"
        },
        {
          "name": "_theme",
          "type": "string"
        }
      ],
      "name": "addMember",
      "outputs": [
        {
          "name": "",
          "type": "uint256"
        }
      ],
      "payable": false,
      "stateMutability": "nonpayable",
      "type": "function"
    },
    {
      "constant": false,
      "inputs": [
        {
          "name": "_firstName",
          "type": "string"
        },
        {
          "name": "_lastName",
          "type": "string"
        },
        {
          "name": "_memberId",
          "type": "uint256"
        },
        {
          "name": "_role",
          "type": "string"
        },
        {
          "name": "owner",
          "type": "address"
        }
      ],
      "name": "updateUser",
      "outputs": [],
      "payable": false,
      "stateMutability": "nonpayable",
      "type": "function"
    },
    {
      "constant": false,
      "inputs": [
        {
          "name": "account",
          "type": "address"
        }
      ],
      "name": "whitelistAdmin",
      "outputs": [],
      "payable": false,
      "stateMutability": "nonpayable",
      "type": "function"
    },
    {
      "anonymous": false,
      "inputs": [
        {
          "indexed": true,
          "name": "account",
          "type": "address"
        }
      ],
      "name": "SignerAdded",
      "type": "event"
    },
    {
      "anonymous": false,
      "inputs": [
        {
          "indexed": true,
          "name": "account",
          "type": "address"
        }
      ],
      "name": "SignerRemoved",
      "type": "event"
    },
    {
      "constant": false,
      "inputs": [
        {
          "name": "_claimId",
          "type": "uint256"
        },
        {
          "name": "_claimType",
          "type": "bool"
        },
        {
          "name": "_claimData",
          "type": "bytes"
        }
      ],
      "name": "checkClaimStatus",
      "outputs": [],
      "payable": false,
      "stateMutability": "nonpayable",
      "type": "function"
    }
  ],
  "bytecode": "0x608060405260006007556200001d3364010000000062000023810204565b62000108565b6200003e60008264010000000062003f676200007582021704565b604051600160a060020a038216907f47d1c22a25bb3a5d4e481b9b1e6944c2eade3181a0a20b495ed61d35b5323f2490600090a250565b600160a060020a03811615156200008b57600080fd5b620000a08282640100000000620000d0810204565b15620000ab57600080fd5b600160a060020a0316600090815260209190915260409020805460ff19166001179055565b6000600160a060020a0382161515620000e857600080fd5b50600160a060020a03166000908152602091909152604090205460ff1690565b61501880620001186000396000f30060806040526004361061011c5763ffffffff7c010000000000000000000000000000000000000000000000000000000060003504166308bdc24d81146101215780634dc92885146101435780635d73ab9a1461016357806365ff0c481461019957806368d3b46b146101b957806369c212f6146101d95780637df73e2714610206578063932191be146102335780639c4d6e32146102485780639eab52531461026a578063a4fdc5941461028c578063a7ed1fe4146102a1578063a87d942c146102c1578063b90dad9a146102d6578063c11e1ff314610308578063c477ecab1461031d578063e5c8b03d1461033d578063eb12d61e14610352578063fa1188c614610372578063fcfbde5b14610392578063ff240fce146103b2575b600080fd5b34801561012d57600080fd5b5061014161013c366004614286565b6103d2565b005b34801561014f57600080fd5b5061014161015e366004614286565b61056e565b34801561016f57600080fd5b5061018361017e366004614368565b6106d2565b6040516101909190614d8a565b60405180910390f35b3480156101a557600080fd5b506101416101b436600461459a565b610aad565b3480156101c557600080fd5b506101416101d4366004614386565b610b3c565b3480156101e557600080fd5b506101f96101f4366004614286565b611662565b6040516101909190614ea9565b34801561021257600080fd5b50610226610221366004614286565b6118b6565b6040516101909190614d9b565b34801561023f57600080fd5b506101836118ce565b34801561025457600080fd5b5061025d611bbf565b6040516101909190614eba565b34801561027657600080fd5b5061027f611bc5565b6040516101909190614d79565b34801561029857600080fd5b5061025d61208c565b3480156102ad57600080fd5b506101416102bc3660046144ea565b612151565b3480156102cd57600080fd5b5061025d612218565b3480156102e257600080fd5b506102f66102f1366004614368565b612236565b60405161019096959493929190614ec8565b34801561031457600080fd5b506101f9612272565b34801561032957600080fd5b5061027f610338366004614368565b6124c9565b34801561034957600080fd5b506101416129e4565b34801561035e57600080fd5b5061014161036d366004614286565b6129ef565b34801561037e57600080fd5b5061025d61038d3660046143eb565b612a0c565b34801561039e57600080fd5b506101416103ad3660046142ac565b612a9b565b3480156103be57600080fd5b506101416103cd366004614286565b612b7f565b600160a060020a038181166000908152600360205260408120600601546101009004909116116104205760405160e560020a62461bcd02815260040161041790614de9565b60405180910390fd5b600160a060020a03811660009081526003602081905260408083208201543384529220015414806104555750610455336118b6565b15156104765760405160e560020a62461bcd02815260040161041790614df9565b60023360009081526003602052604090206006015460ff16600281111561049957fe5b14806104a957506104a9336118b6565b15156104ca5760405160e560020a62461bcd02815260040161041790614e69565b6001600160a060020a03821660009081526003602052604090206006015460ff1660028111156104f657fe5b146105165760405160e560020a62461bcd02815260040161041790614dc9565b600160a060020a038116600090815260036020526040902060060180546002919060ff19166001835b0217905550600160a060020a0381166000908152600360208190526040909120015461056b9082612c53565b50565b600160a060020a038181166000908152600360205260408120600601546101009004909116116105b35760405160e560020a62461bcd02815260040161041790614de9565b600160a060020a03811660009081526003602081905260408083208201543384529220015414806105e857506105e8336118b6565b15156106095760405160e560020a62461bcd02815260040161041790614df9565b60023360009081526003602052604090206006015460ff16600281111561062c57fe5b148061063c575061063c336118b6565b151561065d5760405160e560020a62461bcd02815260040161041790614e69565b6001600160a060020a03821660009081526003602052604090206006015460ff16600281111561068957fe5b146106a95760405160e560020a62461bcd02815260040161041790614e09565b600160a060020a0381166000908152600360205260408120600601805460ff191660018361053f565b6060600080600060606000806106e661208c565b95506106f3600a89612dc2565b60045490955061070490600a612dfb565b935085158061071257508585115b8061071c57508388115b1561072657610aa2565b60408051600a808252610160820190925290816020015b610745613fb5565b81526020019060019003908161073d579050509250600091508490505b600454811015610a9e573360009081526003602081905260408220810154600480549193918590811061079157fe5b6000918252602080832090910154600160a060020a0316835282019290925260400190206003015414801561080e57506002600360006004848154811015156107d657fe5b6000918252602080832090910154600160a060020a0316835282019290925260400190206006015460ff16600281111561080c57fe5b145b15610a96576003600060048381548110151561082657fe5b600091825260208083209190910154600160a060020a0316835282810193909352604091820190208151610100808201845282548252600180840180548651600293821615909402600019011691909104601f810187900487028301870190955284825291949293858401939192918301828280156108e65780601f106108bb576101008083540402835291602001916108e6565b820191906000526020600020905b8154815290600101906020018083116108c957829003601f168201915b5050509183525050600282810180546040805160206001841615610100026000190190931694909404601f810183900483028501830190915280845293810193908301828280156109785780601f1061094d57610100808354040283529160200191610978565b820191906000526020600020905b81548152906001019060200180831161095b57829003601f168201915b505050505081526020016003820154815260200160048201548152602001600582018054600181600116156101000203166002900480601f016020809104026020016040519081016040528092919081815260200182805460018160011615610100020316600290048015610a2e5780601f10610a0357610100808354040283529160200191610a2e565b820191906000526020600020905b815481529060010190602001808311610a1157829003601f168201915b5050509183525050600682015460209091019060ff166002811115610a4f57fe5b6002811115610a5a57fe5b8152600691909101546101009004600160a060020a03166020909101528351849084908110610a8557fe5b602090810290910101526001909101905b600101610762565b8296505b505050505050919050565b610ab6336118b6565b1515610ac157600080fd5b60008781526001602052604081205411610af05760405160e560020a62461bcd02815260040161041790614e39565b600087815260016020819052604090912001548614610b245760405160e560020a62461bcd02815260040161041790614da9565b610b3387878787878787612e1e565b50505050505050565b610b44614006565b60606000806000610b5486613417565b9450610b5f85613465565b9350610ba1610b85856005815181101515610b7657fe5b90602001906020020151613465565b80516001908110610b9257fe5b90602001906020020151613538565b925060019150600190505b60075481116116585760008181526005602052604090206003015460ff161515871515148015610bdc5750808814155b1561165057600081815260056020526040812060020180549091908110610bff57fe5b90600052602060002090600202016001016040516020018082805460018160011615610100020316600290048015610c6e5780601f10610c4c576101008083540402835291820191610c6e565b820191906000526020600020905b815481529060010190602001808311610c5a575b50509150506040516020818303038152906040526040518082805190602001908083835b60208310610cb15780518252601f199092019160209182019101610c92565b6001836020036101000a038019825116818451168082178552505050505050905001915050604051809103902060001916610d13610cf7866000815181101515610b7657fe5b80516001908110610d0457fe5b9060200190602002015161356e565b6040516020018082805190602001908083835b60208310610d455780518252601f199092019160209182019101610d26565b6001836020036101000a0380198251168184511680821785525050505050509050019150506040516020818303038152906040526040518082805190602001908083835b60208310610da85780518252601f199092019160209182019101610d89565b6001836020036101000a038019825116818451168082178552505050505050905001915050604051809103902060001916148015610fbf5750600081815260056020526040902060020180546001908110610dff57fe5b90600052602060002090600202016001016040516020018082805460018160011615610100020316600290048015610e6e5780601f10610e4c576101008083540402835291820191610e6e565b820191906000526020600020905b815481529060010190602001808311610e5a575b50509150506040516020818303038152906040526040518082805190602001908083835b60208310610eb15780518252601f199092019160209182019101610e92565b6001836020036101000a038019825116818451168082178552505050505050905001915050604051809103902060001916610ef7610cf7866001815181101515610b7657fe5b6040516020018082805190602001908083835b60208310610f295780518252601f199092019160209182019101610f0a565b6001836020036101000a0380198251168184511680821785525050505050509050019150506040516020818303038152906040526040518082805190602001908083835b60208310610f8c5780518252601f199092019160209182019101610f6d565b6001836020036101000a038019825116818451168082178552505050505050905001915050604051809103902060001916145b80156111a657506000818152600560205260409020600290810180549091908110610fe657fe5b906000526020600020906002020160010160405160200180828054600181600116156101000203166002900480156110555780601f10611033576101008083540402835291820191611055565b820191906000526020600020905b815481529060010190602001808311611041575b50509150506040516020818303038152906040526040518082805190602001908083835b602083106110985780518252601f199092019160209182019101611079565b6001836020036101000a0380198251168184511680821785525050505050509050019150506040518091039020600019166110de610cf7866002815181101515610b7657fe5b6040516020018082805190602001908083835b602083106111105780518252601f1990920191602091820191016110f1565b6001836020036101000a0380198251168184511680821785525050505050509050019150506040516020818303038152906040526040518082805190602001908083835b602083106111735780518252601f199092019160209182019101611154565b6001836020036101000a038019825116818451168082178552505050505050905001915050604051809103902060001916145b801561138b57506000818152600560205260409020600201805460039081106111cb57fe5b9060005260206000209060020201600101604051602001808280546001816001161561010002031660029004801561123a5780601f1061121857610100808354040283529182019161123a565b820191906000526020600020905b815481529060010190602001808311611226575b50509150506040516020818303038152906040526040518082805190602001908083835b6020831061127d5780518252601f19909201916020918201910161125e565b6001836020036101000a0380198251168184511680821785525050505050509050019150506040518091039020600019166112c3610cf7866003815181101515610b7657fe5b6040516020018082805190602001908083835b602083106112f55780518252601f1990920191602091820191016112d6565b6001836020036101000a0380198251168184511680821785525050505050509050019150506040516020818303038152906040526040518082805190602001908083835b602083106113585780518252601f199092019160209182019101611339565b6001836020036101000a038019825116818451168082178552505050505050905001915050604051809103902060001916145b801561157057506000818152600560205260409020600201805460049081106113b057fe5b9060005260206000209060020201600101604051602001808280546001816001161561010002031660029004801561141f5780601f106113fd57610100808354040283529182019161141f565b820191906000526020600020905b81548152906001019060200180831161140b575b50509150506040516020818303038152906040526040518082805190602001908083835b602083106114625780518252601f199092019160209182019101611443565b6001836020036101000a0380198251168184511680821785525050505050509050019150506040518091039020600019166114a8610cf7866004815181101515610b7657fe5b6040516020018082805190602001908083835b602083106114da5780518252601f1990920191602091820191016114bb565b6001836020036101000a0380198251168184511680821785525050505050509050019150506040516020818303038152906040526040518082805190602001908083835b6020831061153d5780518252601f19909201916020918201910161151e565b6001836020036101000a038019825116818451168082178552505050505050905001915050604051809103902060001916145b15611650576000818152600660205260409020805461ffff80821686011661ffff1990911617905581156115ca57600081815260066020526040808220548a8352908220805461ffff191661ffff90921691909117905591505b600081815260066020526040902054606461ffff90911611156116505760008881526005602081905260408083208201805460ff19166001179055838352909120015460ff1615156116505760008181526005602052604090206004015461163290896135e0565b600081815260056020819052604090912001805460ff191660011790555b600101610bac565b5050505050505050565b61166a613fb5565b600160a060020a0382166000908152600360209081526040918290208251610100808201855282548252600180840180548751600293821615909402600019011691909104601f810186900486028301860190965285825291949293858101939192919083018282801561171f5780601f106116f45761010080835404028352916020019161171f565b820191906000526020600020905b81548152906001019060200180831161170257829003601f168201915b5050509183525050600282810180546040805160206001841615610100026000190190931694909404601f810183900483028501830190915280845293810193908301828280156117b15780601f10611786576101008083540402835291602001916117b1565b820191906000526020600020905b81548152906001019060200180831161179457829003601f168201915b505050505081526020016003820154815260200160048201548152602001600582018054600181600116156101000203166002900480601f0160208091040260200160405190810160405280929190818152602001828054600181600116156101000203166002900480156118675780601f1061183c57610100808354040283529160200191611867565b820191906000526020600020905b81548152906001019060200180831161184a57829003601f168201915b5050509183525050600682015460209091019060ff16600281111561188857fe5b600281111561189357fe5b8152600691909101546101009004600160a060020a031660209091015292915050565b60006118c8818363ffffffff61360516565b92915050565b60608060006118dc336118b6565b15156118e757600080fd5b60045460408051828152602080840282010190915290801561192357816020015b611910613fb5565b8152602001906001900390816119085790505b509150600090505b600454811015611bb9576003600060048381548110151561194857fe5b600091825260208083209190910154600160a060020a0316835282810193909352604091820190208151610100808201845282548252600180840180548651600293821615909402600019011691909104601f81018790048702830187019095528482529194929385840193919291830182828015611a085780601f106119dd57610100808354040283529160200191611a08565b820191906000526020600020905b8154815290600101906020018083116119eb57829003601f168201915b5050509183525050600282810180546040805160206001841615610100026000190190931694909404601f81018390048302850183019091528084529381019390830182828015611a9a5780601f10611a6f57610100808354040283529160200191611a9a565b820191906000526020600020905b815481529060010190602001808311611a7d57829003601f168201915b505050505081526020016003820154815260200160048201548152602001600582018054600181600116156101000203166002900480601f016020809104026020016040519081016040528092919081815260200182805460018160011615610100020316600290048015611b505780601f10611b2557610100808354040283529160200191611b50565b820191906000526020600020905b815481529060010190602001808311611b3357829003601f168201915b5050509183525050600682015460209091019060ff166002811115611b7157fe5b6002811115611b7c57fe5b8152600691909101546101009004600160a060020a03166020909101528251839083908110611ba757fe5b6020908102909101015260010161192b565b50919050565b60075481565b6060806000600280549050604051908082528060200260200182016040528015611c0957816020015b611bf661401d565b815260200190600190039081611bee5790505b509150600090505b600254811015611bb95760016000600283815481101515611c2e57fe5b9060005260206000200154815260200190815260200160002061014060405190810160405290816000820154815260200160018201548152602001600282018054600181600116156101000203166002900480601f016020809104026020016040519081016040528092919081815260200182805460018160011615610100020316600290048015611d015780601f10611cd657610100808354040283529160200191611d01565b820191906000526020600020905b815481529060010190602001808311611ce457829003601f168201915b505050918352505060038201805460408051602060026001851615610100026000190190941693909304601f8101849004840282018401909252818152938201939291830182828015611d955780601f10611d6a57610100808354040283529160200191611d95565b820191906000526020600020905b815481529060010190602001808311611d7857829003601f168201915b505050918352505060048201805460408051602060026001851615610100026000190190941693909304601f8101849004840282018401909252818152938201939291830182828015611e295780601f10611dfe57610100808354040283529160200191611e29565b820191906000526020600020905b815481529060010190602001808311611e0c57829003601f168201915b505050918352505060058201805460408051602060026001851615610100026000190190941693909304601f8101849004840282018401909252818152938201939291830182828015611ebd5780601f10611e9257610100808354040283529160200191611ebd565b820191906000526020600020905b815481529060010190602001808311611ea057829003601f168201915b505050918352505060068201805460408051602060026001851615610100026000190190941693909304601f8101849004840282018401909252818152938201939291830182828015611f515780601f10611f2657610100808354040283529160200191611f51565b820191906000526020600020905b815481529060010190602001808311611f3457829003601f168201915b5050505050815260200160078201805480602002602001604051908101604052809291908181526020018280548015611fa957602002820191906000526020600020905b815481526020019060010190808311611f95575b505050505081526020016008820180548060200260200160405190810160405280929190818152602001828054801561200157602002820191906000526020600020905b815481526020019060010190808311611fed575b505050505081526020016009820180548060200260200160405190810160405280929190818152602001828054801561206357602002820191906000526020600020905b8154600160a060020a03168152600190910190602001808311612045575b505050505081525050828281518110151561207a57fe5b60209081029091010152600101611c11565b600080805b600454811015611bb957336000908152600360208190526040822081015460048054919391859081106120c057fe5b6000918252602080832090910154600160a060020a0316835282019290925260400190206003015414801561213d575060026003600060048481548110151561210557fe5b6000918252602080832090910154600160a060020a0316835282019290925260400190206006015460ff16600281111561213b57fe5b145b15612149576001909101905b600101612091565b60008115156121755760405160e560020a62461bcd02815260040161041790614e89565b600086116121985760405160e560020a62461bcd02815260040161041790614e99565b33600090815260036020526040902054156121c85760405160e560020a62461bcd02815260040161041790614dd9565b6121d18261363c565b15156121f25760405160e560020a62461bcd02815260040161041790614e39565b6121fb8661364f565b9050612210868686858588600133600061383e565b505050505050565b6000612223336118b6565b151561222e57600080fd5b506002545b90565b60056020819052600091825260409091208054600182015460038301546004840154948401546006909401549294919360ff9182169391169086565b61227a613fb5565b612282613fb5565b336000908152600360209081526040918290208251610100808201855282548252600180840180548751600293821615909402600019011691909104601f810186900486028301860190965285825291949293858101939192919083018282801561232e5780601f106123035761010080835404028352916020019161232e565b820191906000526020600020905b81548152906001019060200180831161231157829003601f168201915b5050509183525050600282810180546040805160206001841615610100026000190190931694909404601f810183900483028501830190915280845293810193908301828280156123c05780601f10612395576101008083540402835291602001916123c0565b820191906000526020600020905b8154815290600101906020018083116123a357829003601f168201915b505050505081526020016003820154815260200160048201548152602001600582018054600181600116156101000203166002900480601f0160208091040260200160405190810160405280929190818152602001828054600181600116156101000203166002900480156124765780601f1061244b57610100808354040283529160200191612476565b820191906000526020600020905b81548152906001019060200180831161245957829003601f168201915b5050509183525050600682015460209091019060ff16600281111561249757fe5b60028111156124a257fe5b8152600691909101546101009004600160a060020a031660209091015291508190505b5090565b60606000806000606060006124df600a88612dc2565b6002549095506124f090600a612dfb565b600254909450158061250757506002546000190185115b8061251157508387115b1561251b576129da565b60408051600a80825261016082019092526000945090816020015b61253e61401d565b8152602001906001900390816125365790505091508490505b6002548110156129d6576001600060028381548110151561257457fe5b9060005260206000200154815260200190815260200160002061014060405190810160405290816000820154815260200160018201548152602001600282018054600181600116156101000203166002900480601f0160208091040260200160405190810160405280929190818152602001828054600181600116156101000203166002900480156126475780601f1061261c57610100808354040283529160200191612647565b820191906000526020600020905b81548152906001019060200180831161262a57829003601f168201915b505050918352505060038201805460408051602060026001851615610100026000190190941693909304601f81018490048402820184019092528181529382019392918301828280156126db5780601f106126b0576101008083540402835291602001916126db565b820191906000526020600020905b8154815290600101906020018083116126be57829003601f168201915b505050918352505060048201805460408051602060026001851615610100026000190190941693909304601f810184900484028201840190925281815293820193929183018282801561276f5780601f106127445761010080835404028352916020019161276f565b820191906000526020600020905b81548152906001019060200180831161275257829003601f168201915b505050918352505060058201805460408051602060026001851615610100026000190190941693909304601f81018490048402820184019092528181529382019392918301828280156128035780601f106127d857610100808354040283529160200191612803565b820191906000526020600020905b8154815290600101906020018083116127e657829003601f168201915b505050918352505060068201805460408051602060026001851615610100026000190190941693909304601f81018490048402820184019092528181529382019392918301828280156128975780601f1061286c57610100808354040283529160200191612897565b820191906000526020600020905b81548152906001019060200180831161287a57829003601f168201915b50505050508152602001600782018054806020026020016040519081016040528092919081815260200182805480156128ef57602002820191906000526020600020905b8154815260200190600101908083116128db575b505050505081526020016008820180548060200260200160405190810160405280929190818152602001828054801561294757602002820191906000526020600020905b815481526020019060010190808311612933575b50505050508152602001600982018054806020026020016040519081016040528092919081815260200182805480156129a957602002820191906000526020600020905b8154600160a060020a0316815260019091019060200180831161298b575b50505050508152505082848151811015156129c057fe5b6020908102909101015260019283019201612557565b8195505b5050505050919050565b6129ed33613c92565b565b6129f8336118b6565b1515612a0357600080fd5b61056b81613cda565b600080612a18336118b6565b1515612a2357600080fd5b60008811612a465760405160e560020a62461bcd02815260040161041790614e99565b612a4f8861364f565b60008181526001602052604090205490915015612a815760405160e560020a62461bcd02815260040161041790614e29565b612a9081898989898989612e1e565b979650505050505050565b600160a060020a03818116600090815260036020526040812060060154909182918291610100909104168110612ae65760405160e560020a62461bcd02815260040161041790614de9565b6002600160a060020a03851660009081526003602052604090206006015460ff166002811115612b1257fe5b14612b325760405160e560020a62461bcd02815260040161041790614e69565b600160a060020a03841660009081526003602052604090206004810154815460069092015490945090925060ff166002811115612b6b57fe5b905061165882898989878a878b600161383e565b612b88336118b6565b1515612b9357600080fd5b600160a060020a03811660009081526003602081905260409091200154612bba9082612c53565b604080518082018252600b81527f53757065722061646d696e0000000000000000000000000000000000000000006020808301918252600160a060020a03851660009081526003909152929092209051612c1a9260059092019190614071565b50600160a060020a0381166000908152600360208190526040822090810191909155600601805460ff1916600217905561056b816129ef565b6000805b60008481526001602052604090206009015460001901811015612d535760008481526001602052604090206009018054600160a060020a038516919083908110612c9d57fe5b600091825260209091200154600160a060020a03161415612cbd57600191505b8115612d4b576000848152600160208190526040909120600901805490918301908110612ce657fe5b6000918252602080832090910154868352600190915260409091206009018054600160a060020a039092169183908110612d1c57fe5b9060005260206000200160006101000a815481600160a060020a030219169083600160a060020a031602179055505b600101612c57565b600084815260016020526040902060090180546000198101908110612d7457fe5b60009182526020808320909101805473ffffffffffffffffffffffffffffffffffffffff191690558582526001905260409020600901805490612dbb9060001983016140eb565b5050505050565b600080831515612dd55760009150612df4565b50828202828482811515612de557fe5b0414612df057600080fd5b8091505b5092915050565b600080808311612e0a57600080fd5b8284811515612e1557fe5b04949350505050565b612e2661401d565b85511515612e495760405160e560020a62461bcd02815260040161041790614e79565b82511515612e6c5760405160e560020a62461bcd02815260040161041790614e59565b81511515612e8f5760405160e560020a62461bcd02815260040161041790614e49565b6000888152600160208181526040928390208351610140810185528154815281840154818401526002808301805487519681161561010002600019011691909104601f810185900485028601850187528086529195929492860193909190830182828015612f3e5780601f10612f1357610100808354040283529160200191612f3e565b820191906000526020600020905b815481529060010190602001808311612f2157829003601f168201915b505050918352505060038201805460408051602060026001851615610100026000190190941693909304601f8101849004840282018401909252818152938201939291830182828015612fd25780601f10612fa757610100808354040283529160200191612fd2565b820191906000526020600020905b815481529060010190602001808311612fb557829003601f168201915b505050918352505060048201805460408051602060026001851615610100026000190190941693909304601f81018490048402820184019092528181529382019392918301828280156130665780601f1061303b57610100808354040283529160200191613066565b820191906000526020600020905b81548152906001019060200180831161304957829003601f168201915b505050918352505060058201805460408051602060026001851615610100026000190190941693909304601f81018490048402820184019092528181529382019392918301828280156130fa5780601f106130cf576101008083540402835291602001916130fa565b820191906000526020600020905b8154815290600101906020018083116130dd57829003601f168201915b505050918352505060068201805460408051602060026001851615610100026000190190941693909304601f810184900484028201840190925281815293820193929183018282801561318e5780601f106131635761010080835404028352916020019161318e565b820191906000526020600020905b81548152906001019060200180831161317157829003601f168201915b50505050508152602001600782018054806020026020016040519081016040528092919081815260200182805480156131e657602002820191906000526020600020905b8154815260200190600101908083116131d2575b505050505081526020016008820180548060200260200160405190810160405280929190818152602001828054801561323e57602002820191906000526020600020905b81548152602001906001019080831161322a575b50505050508152602001600982018054806020026020016040519081016040528092919081815260200182805480156132a057602002820191906000526020600020905b8154600160a060020a03168152600190910190602001808311613282575b50505091909252505050888152602080820189815260408084018a8152606085018a90526080850189905260a0850188905260c0850187905260008d81526001808652929020855181559251918301919091555180519394508493919261330f92600285019290910190614071565b506060820151805161332b916003840191602090910190614071565b5060808201518051613347916004840191602090910190614071565b5060a08201518051613363916005840191602090910190614071565b5060c0820151805161337f916006840191602090910190614071565b5060e0820151805161339b916007840191602090910190614114565b5061010082015180516133b8916008840191602090910190614114565b5061012082015180516133d591600984019160209091019061414e565b5050600280546001810182556000919091527f405787fa12a823e0f2b7631cc41b3ba8828b3321ca811111fa75cd3aa3bb5ace01989098555050505050505050565b61341f614006565b60008251600014156134465760408051808201909152600080825260208201529150611bb9565b5050604080518082019091528151815260209182019181019190915290565b606060008060008061347686613d22565b151561348157600080fd5b61348a86613d51565b9350836040519080825280602002602001820160405280156134c657816020015b6134b3614006565b8152602001906001900390816134ab5790505b5094506134d68660200151613da1565b8660200151019250600090505b8381101561352f576134f483613e04565b9150604080519081016040528083815260200184815250858281518110151561351957fe5b60209081029091010152918101916001016134e3565b50505050919050565b600080600080600061354d8660200151613da1565b86516020978801518201519190039096036101000a90950495945050505050565b6060600080606060006135848660200151613da1565b9350838660000151039250826040519080825280601f01601f1916602001820160405280156135bd578160200160208202803883390190505b5091508160200190506135d7848760200151018285613e95565b50949350505050565b6000918252600160208181526040842060070180549283018155845290922090910155565b6000600160a060020a038216151561361c57600080fd5b50600160a060020a03166000908152602091909152604090205460ff1690565b6000908152600160205260408120541190565b60008080806002850615156136e15784604051602001808281526020019150506040516020818303038152906040526040518082805190602001908083835b602083106136ad5780518252601f19909201916020918201910161368e565b6001836020036101000a038019825116818451168082178552505050505050905001915050604051809103902092506137cc565b84604051602001808281526020019150506040516020818303038152906040526040518082805190602001908083835b602083106137305780518252601f199092019160209182019101613711565b51815160209384036101000a600019018019909216911617905260408051929094018290038220828201528351808303820181529184019384905281519195509293508392850191508083835b6020831061379c5780518252601f19909201916020918201910161377d565b6001836020036101000a038019825116818451168082178552505050505050905001915050604051809103902092505b60208110156137f9578281602081106137e157fe5b60f860020a91901a81020491909101906001016137cc565b82602060028401066020811061380b57fe5b60f860020a91901a81020483602084066020811061382557fe5b1a60f860020a0260f860020a9004029350505050919050565b613846613fb5565b600084101580613857575060028411155b15156138785760405160e560020a62461bcd02815260040161041790614e19565b8451151561389b5760405160e560020a62461bcd02815260040161041790614db9565b600160a060020a0383166000908152600360209081526040918290208251610100808201855282548252600180840180548751600293821615909402600019011691909104601f81018690048602830186019096528582529194929385810193919291908301828280156139505780601f1061392557610100808354040283529160200191613950565b820191906000526020600020905b81548152906001019060200180831161393357829003601f168201915b5050509183525050600282810180546040805160206001841615610100026000190190931694909404601f810183900483028501830190915280845293810193908301828280156139e25780601f106139b7576101008083540402835291602001916139e2565b820191906000526020600020905b8154815290600101906020018083116139c557829003601f168201915b505050505081526020016003820154815260200160048201548152602001600582018054600181600116156101000203166002900480601f016020809104026020016040519081016040528092919081815260200182805460018160011615610100020316600290048015613a985780601f10613a6d57610100808354040283529160200191613a98565b820191906000526020600020905b815481529060010190602001808311613a7b57829003601f168201915b5050509183525050600682015460209091019060ff166002811115613ab957fe5b6002811115613ac457fe5b8152600691909101546101009004600160a060020a03166020918201528b825281018a905260408101899052606081018890526080810187905260a081018690529050836002811115613b1357fe5b8160c001906002811115613b2357fe5b90816002811115613b3057fe5b905250600160a060020a03831660e082018190526000908152600360209081526040909120825181558183015180518493613b72926001850192910190614071565b5060408201518051613b8e916002840191602090910190614071565b50606082015160038201556080820151600482015560a08201518051613bbe916005840191602090910190614071565b5060c082015160068201805460ff19166001836002811115613bdc57fe5b021790555060e0919091015160069091018054600160a060020a039092166101000274ffffffffffffffffffffffffffffffffffffffff0019909216919091179055811515613c8657600480546001810182556000919091527f8a35acfbc15ff81a39ae7d344fd709f28e8600b4aa8c65c6b64bfe7fe36bd19b01805473ffffffffffffffffffffffffffffffffffffffff1916600160a060020a038516179055613c8687613edc565b50505050505050505050565b613ca360008263ffffffff613f1b16565b604051600160a060020a038216907f3525e22824a8a7df2c9a6029941c824cf95b6447f1e13d5128fd3826d35afe8b90600090a250565b613ceb60008263ffffffff613f6716565b604051600160a060020a038216907f47d1c22a25bb3a5d4e481b9b1e6944c2eade3181a0a20b495ed61d35b5323f2490600090a250565b6020810151805160009190821a9060c060ff83161015613d455760009250613d4a565b600192505b5050919050565b60008060008060009250613d688560200151613da1565b6020860151865191810193500190505b80821015613d9857613d8982613e04565b60019093019290910190613d78565b50909392505050565b8051600090811a6080811015613dba5760009150611bb9565b60b8811080613dd5575060c08110801590613dd5575060f881105b15613de35760019150611bb9565b60c0811015613df85760b51981019150611bb9565b60f51981019150611bb9565b8051600090811a6080811015613e1d5760019150611bb9565b60b8811015613e3257607e1981019150611bb9565b60c0811015613e5f5760b78103600184019350806020036101000a84510460018201810193505050611bb9565b60f8811015613e745760be1981019150611bb9565b60019290920151602083900360f7016101000a900490910160f51901919050565b60005b60208210613eba578351835260209384019390920191601f1990910190613e98565b50915181516020939093036101000a6000190180199091169216919091179052565b6000908152600160208181526040832060090180549283018155835290912001805473ffffffffffffffffffffffffffffffffffffffff191633179055565b600160a060020a0381161515613f3057600080fd5b613f3a8282613605565b1515613f4557600080fd5b600160a060020a0316600090815260209190915260409020805460ff19169055565b600160a060020a0381161515613f7c57600080fd5b613f868282613605565b15613f9057600080fd5b600160a060020a0316600090815260209190915260409020805460ff19166001179055565b6101006040519081016040528060008152602001606081526020016060815260200160008152602001600081526020016060815260200160006002811115613ff957fe5b8152600060209091015290565b604080518082019091526000808252602082015290565b61014060405190810160405280600081526020016000815260200160608152602001606081526020016060815260200160608152602001606081526020016060815260200160608152602001606081525090565b828054600181600116156101000203166002900490600052602060002090601f016020900481019282601f106140b257805160ff19168380011785556140df565b828001600101855582156140df579182015b828111156140df5782518255916020019190600101906140c4565b506124c59291506141bc565b81548183558181111561410f5760008381526020902061410f9181019083016141bc565b505050565b8280548282559060005260206000209081019282156140df57916020028201828111156140df5782518255916020019190600101906140c4565b8280548282559060005260206000209081019282156141b0579160200282015b828111156141b0578251825473ffffffffffffffffffffffffffffffffffffffff1916600160a060020a0390911617825560209092019160019091019061416e565b506124c59291506141d6565b61223391905b808211156124c557600081556001016141c2565b61223391905b808211156124c557805473ffffffffffffffffffffffffffffffffffffffff191681556001016141dc565b60006142138235614f70565b9392505050565b60006142138235614f7c565b6000601f8201831361423757600080fd5b813561424a61424582614f3e565b614f17565b9150808252602083016020830185838301111561426657600080fd5b614271838284614f98565b50505092915050565b60006142138235612233565b60006020828403121561429857600080fd5b60006142a48484614207565b949350505050565b600080600080600060a086880312156142c457600080fd5b853567ffffffffffffffff8111156142db57600080fd5b6142e788828901614226565b955050602086013567ffffffffffffffff81111561430457600080fd5b61431088828901614226565b94505060406143218882890161427a565b935050606086013567ffffffffffffffff81111561433e57600080fd5b61434a88828901614226565b925050608061435b88828901614207565b9150509295509295909350565b60006020828403121561437a57600080fd5b60006142a4848461427a565b60008060006060848603121561439b57600080fd5b60006143a7868661427a565b93505060206143b88682870161421a565b925050604084013567ffffffffffffffff8111156143d557600080fd5b6143e186828701614226565b9150509250925092565b60008060008060008060c0878903121561440457600080fd5b6000614410898961427a565b965050602087013567ffffffffffffffff81111561442d57600080fd5b61443989828a01614226565b955050604087013567ffffffffffffffff81111561445657600080fd5b61446289828a01614226565b945050606087013567ffffffffffffffff81111561447f57600080fd5b61448b89828a01614226565b935050608087013567ffffffffffffffff8111156144a857600080fd5b6144b489828a01614226565b92505060a087013567ffffffffffffffff8111156144d157600080fd5b6144dd89828a01614226565b9150509295509295509295565b600080600080600060a0868803121561450257600080fd5b600061450e888861427a565b955050602086013567ffffffffffffffff81111561452b57600080fd5b61453788828901614226565b945050604086013567ffffffffffffffff81111561455457600080fd5b61456088828901614226565b935050606086013567ffffffffffffffff81111561457d57600080fd5b61458988828901614226565b925050608061435b8882890161427a565b600080600080600080600060e0888a0312156145b557600080fd5b60006145c18a8a61427a565b97505060206145d28a828b0161427a565b965050604088013567ffffffffffffffff8111156145ef57600080fd5b6145fb8a828b01614226565b955050606088013567ffffffffffffffff81111561461857600080fd5b6146248a828b01614226565b945050608088013567ffffffffffffffff81111561464157600080fd5b61464d8a828b01614226565b93505060a088013567ffffffffffffffff81111561466a57600080fd5b6146768a828b01614226565b92505060c088013567ffffffffffffffff81111561469357600080fd5b61469f8a828b01614226565b91505092959891949750929550565b6146b781614f70565b82525050565b60006146c882614f6c565b8084526020840193506146da83614f66565b60005b8281101561470a576146f08683516146ae565b6146f982614f66565b6020969096019591506001016146dd565b5093949350505050565b600061471f82614f6c565b8084526020840193508360208202850161473885614f66565b60005b8481101561476f578383038852614753838351614bb6565b925061475e82614f66565b60209890980197915060010161473b565b50909695505050505050565b600061478682614f6c565b8084526020840193508360208202850161479f85614f66565b60005b8481101561476f5783830388526147ba838351614cb9565b92506147c582614f66565b6020989098019791506001016147a2565b60006147e182614f6c565b8084526020840193506147f383614f66565b60005b8281101561470a57614809868351614d70565b61481282614f66565b6020969096019591506001016147f6565b6146b781614f7c565b6146b781614f8d565b600061484082614f6c565b808452614854816020860160208601614fa4565b61485d81614fd4565b9093016020019392505050565b601a81527f4372656174696f6e204461746520697320696e6d757461626c65000000000000602082015260400190565b601181527f726f6c65206973206d616e6461746f7279000000000000000000000000000000602082015260400190565b602281527f4f6e6c792070656e64696e672075736572732063616e2062652061636365707460208201527f6564000000000000000000000000000000000000000000000000000000000000604082015260600190565b601381527f5573657220616c72656164792065786973747300000000000000000000000000602082015260400190565b601481527f546869732075736572206e6f7420657869737473000000000000000000000000602082015260400190565b601b81527f596f752063616e6e6f7420616363657074207468697320757365720000000000602082015260400190565b602281527f4f6e6c792070656e64696e672075736572732063616e2062652072656a65637460208201527f6564000000000000000000000000000000000000000000000000000000000000604082015260600190565b601381527f737461747573206973206e6f742076616c696400000000000000000000000000602082015260400190565b601581527f4d656d62657220616c7265616479206578697374730000000000000000000000602082015260400190565b601181527f4d656d626572206e6f7420657869737473000000000000000000000000000000602082015260400190565b601281527f5468656d65206973206d616e6461746f72790000000000000000000000000000602082015260400190565b601081527f434d4f206973206d616e6461746f727900000000000000000000000000000000602082015260400190565b601481527f596f7520617265206e6f74206163636570746564000000000000000000000000602082015260400190565b601181527f4e616d65206973206d616e6461746f7279000000000000000000000000000000602082015260400190565b601181527f4e6f2076616c6964206d656d6265724964000000000000000000000000000000602082015260400190565b601981527f4372656174696f6e44617465206973206d616e6461746f727900000000000000602082015260400190565b8051600090610140840190614bcb8582614d70565b506020830151614bde6020860182614d70565b5060408301518482036040860152614bf68282614835565b91505060608301518482036060860152614c108282614835565b91505060808301518482036080860152614c2a8282614835565b91505060a083015184820360a0860152614c448282614835565b91505060c083015184820360c0860152614c5e8282614835565b91505060e083015184820360e0860152614c7882826147d6565b915050610100830151848203610100860152614c9482826147d6565b915050610120830151848203610120860152614cb082826146bd565b95945050505050565b8051600090610100840190614cce8582614d70565b5060208301518482036020860152614ce68282614835565b91505060408301518482036040860152614d008282614835565b9150506060830151614d156060860182614d70565b506080830151614d286080860182614d70565b5060a083015184820360a0860152614d408282614835565b91505060c0830151614d5560c086018261482c565b5060e0830151614d6860e08601826146ae565b509392505050565b6146b781612233565b602080825281016142138184614714565b60208082528101614213818461477b565b602081016118c88284614823565b602080825281016118c88161486a565b602080825281016118c88161489a565b602080825281016118c8816148ca565b602080825281016118c881614920565b602080825281016118c881614950565b602080825281016118c881614980565b602080825281016118c8816149b0565b602080825281016118c881614a06565b602080825281016118c881614a36565b602080825281016118c881614a66565b602080825281016118c881614a96565b602080825281016118c881614ac6565b602080825281016118c881614af6565b602080825281016118c881614b26565b602080825281016118c881614b56565b602080825281016118c881614b86565b602080825281016142138184614cb9565b602081016118c88284614d70565b60c08101614ed68289614d70565b614ee36020830188614d70565b614ef06040830187614823565b614efd6060830186614d70565b614f0a6080830185614823565b612a9060a0830184614d70565b60405181810167ffffffffffffffff81118282101715614f3657600080fd5b604052919050565b600067ffffffffffffffff821115614f5557600080fd5b506020601f91909101601f19160190565b60200190565b5190565b600160a060020a031690565b151590565b6000600382106124c557fe5b60006118c882614f81565b82818337506000910152565b60005b83811015614fbf578181015183820152602001614fa7565b83811115614fce576000848401525b50505050565b601f01601f1916905600a265627a7a72305820601a656931253781036d23108377e404b80eba0a82c70865c9fc98fca3475c2f6c6578706572696d656e74616cf50037",
  "source": "pragma solidity ^0.4.24;\npragma experimental ABIEncoderV2;\n\nimport \"../../node_modules/solidity-rlp/contracts/RLPReader.sol\";\nimport \"./Users.sol\";\nimport \"./Claims.sol\";\n\ncontract Lib is Users {\n\n  using RLPReader for bytes;\n  using RLPReader for uint;\n  using RLPReader for RLPReader.RLPItem;\n\n  //  enum StatusClaimEnum {\n  //    CLAIMED, // = false, means there is NO CONFLICT\n  //    CONFLICT // = true, means there IS a CONFLICT\n  //  }\n\n  //  enum ClaimTypeEnum {\n  //    MUSICAL_WORK,   // false for Musical Works\n  //    SOUND_RECORDING // true for Sound Recordings\n  //  }\n\n  struct NameValue{\n    string name;\n    string value;\n  }\n\n  struct Claim {\n    uint256 creationDate;\n    uint256 claimId; // 2^48 ~ 100 trillion claims\n    NameValue[] claimData;\n    bool claimType;\n    uint256 memberOwner;    // 2^24 ~ 16 million members\n    bool status;\n    uint256 lastChange;\n//    string[] log;\n//    uint16[] log2;\n  }\n\n//  uint256 constant private PAGE_SIZE = 10;\n\n  mapping (uint256 => Claim) public claims_;\n  mapping (uint256 => uint16) private maxSplits_;\n\n  uint256 public claimIdCounter_ = 0;\n  // METHODS\n\n  // Public\n  function checkClaimStatus(uint256 _claimId, bool _claimType, bytes _claimData) public {\n    //            -_addClaimFromInbox(member, _claimId)\n    //            -save memberId/_claimId storage 'maxSplits_'\n    //            -change CONFLICT->CLAIMED if updateClaim() results like this.\n//    require(claimIdCounter_ > 0, \"There is no claim in the system\");\n    RLPReader.RLPItem memory item = _claimData.toRlpItem();\n    RLPReader.RLPItem[] memory itemList = item.toList();  // ((name0, value0), (name, value), (name, value), ...)\n    uint16 split = uint16(itemList[5].toList()[1].toUint());\n//    claims_[_claimId].log.push(string(itemList[5].toList()[1].toBytes()));\n//    claims_[_claimId].log2.push(uint16(itemList[5].toList()[1].toUint()));\n//    maxSplits_[_claimId]=split;\n    bool tempMaxSplitOnce = true;\n    for(uint256 i = 1; i <= claimIdCounter_; i++) {\n      if (_claimType == claims_[i].claimType && _claimId != i) {\n        if(keccak256(abi.encodePacked(itemList[0].toList()[1].toBytes())) == keccak256(abi.encodePacked(claims_[i].claimData[0].value)) // same ISRC/ISWC\n        && keccak256(abi.encodePacked(itemList[1].toList()[1].toBytes())) == keccak256(abi.encodePacked(claims_[i].claimData[1].value)) // same countries\n        && keccak256(abi.encodePacked(itemList[2].toList()[1].toBytes())) == keccak256(abi.encodePacked(claims_[i].claimData[2].value)) // same startDate\n        && keccak256(abi.encodePacked(itemList[3].toList()[1].toBytes())) == keccak256(abi.encodePacked(claims_[i].claimData[3].value)) // same endDate\n        && keccak256(abi.encodePacked(itemList[4].toList()[1].toBytes())) == keccak256(abi.encodePacked(claims_[i].claimData[4].value)) // same useTypes/rightTypes\n        ){\n          // split convert to uint16\n//          claims_[i].log.push(split);\n//          claims_[i].log.push(maxSplits_[i]);\n//          claims_[i].log.push(maxSplits_[i]);\n//          claims_[i].log2.push(split);\n//          claims_[i].log.push(string(itemList[5].toList()[0].toBytes()));\n//          claims_[i].log.push(string(itemList[5].toList()[1].toBytes()));\n\n          maxSplits_[i]+=split;                // build maxSplits_[i]\n          if (tempMaxSplitOnce) {\n            maxSplits_[_claimId]=maxSplits_[i];\n            tempMaxSplitOnce=false;\n          }\n          if (maxSplits_[i]>100) {\n            claims_[_claimId].status = true; // true, means there IS a CONFLICT\n            if (!claims_[i].status) {\n              _addClaimFromInbox(claims_[i].memberOwner, _claimId);\n              claims_[i].status = true;\n            }\n          }\n        }\n      }\n    }\n//   } else {   // when updating\n//\n//   }\n  }\n\n//  function updateClaimStatus(uint256 _claimId) {\n//\n//    uint16 split_i = 0;\n//    bytes b = bytes(claims_[i].claimData[5].value);\n//    for(uint16 j=0;j<b.length;j++){\n//      split_i = uint16(split_i + uint16(b[j])*(2**(8*(b.length-(j+1)))));\n//    }\n//    maxSplits_[_claimId]+=split_i;\n//\n//  }\n\n}\n",
  "sourcePath": "/home/komodo/newUI/bloomen-decentralized-rights-management-v2/truffle/contracts/registry/Lib.sol",
  "compiler": {
    "name": "solc",
    "version": "0.4.24+commit.e67f0147.Emscripten.clang"
  },
  "schemaVersion": "2.0.1",
  "updatedAt": "2019-11-14T13:45:48.907Z"
}