{
  "contractName": "Lib",
  "abi": [
    {
      "constant": false,
      "inputs": [
        {
          "name": "_userToAccept",
          "type": "address"
        }
      ],
      "name": "acceptUser",
      "outputs": [],
      "payable": false,
      "stateMutability": "nonpayable",
      "type": "function"
    },
    {
      "constant": false,
      "inputs": [
        {
          "name": "_userToReject",
          "type": "address"
        }
      ],
      "name": "rejectUser",
      "outputs": [],
      "payable": false,
      "stateMutability": "nonpayable",
      "type": "function"
    },
    {
      "constant": true,
      "inputs": [
        {
          "name": "_page",
          "type": "uint256"
        }
      ],
      "name": "getUsers",
      "outputs": [
        {
          "components": [
            {
              "name": "creationDate",
              "type": "uint256"
            },
            {
              "name": "firstName",
              "type": "string"
            },
            {
              "name": "lastName",
              "type": "string"
            },
            {
              "name": "memberId",
              "type": "uint256"
            },
            {
              "name": "requestId",
              "type": "uint256"
            },
            {
              "name": "role",
              "type": "string"
            },
            {
              "name": "status",
              "type": "uint8"
            },
            {
              "name": "owner",
              "type": "address"
            }
          ],
          "name": "",
          "type": "tuple[]"
        }
      ],
      "payable": false,
      "stateMutability": "view",
      "type": "function"
    },
    {
      "constant": false,
      "inputs": [
        {
          "name": "_memberId",
          "type": "uint256"
        },
        {
          "name": "_creationDate",
          "type": "uint256"
        },
        {
          "name": "_name",
          "type": "string"
        },
        {
          "name": "_logo",
          "type": "string"
        },
        {
          "name": "_country",
          "type": "string"
        },
        {
          "name": "_cmo",
          "type": "string"
        },
        {
          "name": "_theme",
          "type": "string"
        }
      ],
      "name": "updateMember",
      "outputs": [],
      "payable": false,
      "stateMutability": "nonpayable",
      "type": "function"
    },
    {
      "constant": true,
      "inputs": [
        {
          "name": "userAddress",
          "type": "address"
        }
      ],
      "name": "getUserByAddress",
      "outputs": [
        {
          "components": [
            {
              "name": "creationDate",
              "type": "uint256"
            },
            {
              "name": "firstName",
              "type": "string"
            },
            {
              "name": "lastName",
              "type": "string"
            },
            {
              "name": "memberId",
              "type": "uint256"
            },
            {
              "name": "requestId",
              "type": "uint256"
            },
            {
              "name": "role",
              "type": "string"
            },
            {
              "name": "status",
              "type": "uint8"
            },
            {
              "name": "owner",
              "type": "address"
            }
          ],
          "name": "",
          "type": "tuple"
        }
      ],
      "payable": false,
      "stateMutability": "view",
      "type": "function"
    },
    {
      "constant": true,
      "inputs": [
        {
          "name": "account",
          "type": "address"
        }
      ],
      "name": "isSigner",
      "outputs": [
        {
          "name": "",
          "type": "bool"
        }
      ],
      "payable": false,
      "stateMutability": "view",
      "type": "function"
    },
    {
      "constant": true,
      "inputs": [],
      "name": "getUsersOwner",
      "outputs": [
        {
          "components": [
            {
              "name": "creationDate",
              "type": "uint256"
            },
            {
              "name": "firstName",
              "type": "string"
            },
            {
              "name": "lastName",
              "type": "string"
            },
            {
              "name": "memberId",
              "type": "uint256"
            },
            {
              "name": "requestId",
              "type": "uint256"
            },
            {
              "name": "role",
              "type": "string"
            },
            {
              "name": "status",
              "type": "uint8"
            },
            {
              "name": "owner",
              "type": "address"
            }
          ],
          "name": "",
          "type": "tuple[]"
        }
      ],
      "payable": false,
      "stateMutability": "view",
      "type": "function"
    },
    {
      "constant": true,
      "inputs": [],
      "name": "claimIdCounter_",
      "outputs": [
        {
          "name": "",
          "type": "uint256"
        }
      ],
      "payable": false,
      "stateMutability": "view",
      "type": "function"
    },
    {
      "constant": true,
      "inputs": [],
      "name": "getMembers",
      "outputs": [
        {
          "components": [
            {
              "name": "memberId",
              "type": "uint256"
            },
            {
              "name": "creationDate",
              "type": "uint256"
            },
            {
              "name": "name",
              "type": "string"
            },
            {
              "name": "logo",
              "type": "string"
            },
            {
              "name": "country",
              "type": "string"
            },
            {
              "name": "cmo",
              "type": "string"
            },
            {
              "name": "theme",
              "type": "string"
            },
            {
              "name": "claimInbox",
              "type": "uint256[]"
            },
            {
              "name": "claims",
              "type": "uint256[]"
            },
            {
              "name": "userRequests",
              "type": "address[]"
            }
          ],
          "name": "",
          "type": "tuple[]"
        }
      ],
      "payable": false,
      "stateMutability": "view",
      "type": "function"
    },
    {
      "constant": true,
      "inputs": [],
      "name": "getcountUsers",
      "outputs": [
        {
          "name": "",
          "type": "uint256"
        }
      ],
      "payable": false,
      "stateMutability": "view",
      "type": "function"
    },
    {
      "constant": false,
      "inputs": [
        {
          "name": "_creationDate",
          "type": "uint256"
        },
        {
          "name": "_firstName",
          "type": "string"
        },
        {
          "name": "_lastName",
          "type": "string"
        },
        {
          "name": "_role",
          "type": "string"
        },
        {
          "name": "_memberId",
          "type": "uint256"
        }
      ],
      "name": "registerUserRequest",
      "outputs": [],
      "payable": false,
      "stateMutability": "nonpayable",
      "type": "function"
    },
    {
      "constant": true,
      "inputs": [],
      "name": "getCount",
      "outputs": [
        {
          "name": "",
          "type": "uint256"
        }
      ],
      "payable": false,
      "stateMutability": "view",
      "type": "function"
    },
    {
      "constant": true,
      "inputs": [
        {
          "name": "",
          "type": "uint256"
        }
      ],
      "name": "claims_",
      "outputs": [
        {
          "name": "creationDate",
          "type": "uint256"
        },
        {
          "name": "claimId",
          "type": "uint256"
        },
        {
          "name": "claimType",
          "type": "bool"
        },
        {
          "name": "memberOwner",
          "type": "uint256"
        },
        {
          "name": "status",
          "type": "bool"
        },
        {
          "name": "lastChange",
          "type": "uint256"
        }
      ],
      "payable": false,
      "stateMutability": "view",
      "type": "function"
    },
    {
      "constant": true,
      "inputs": [],
      "name": "getMe",
      "outputs": [
        {
          "components": [
            {
              "name": "creationDate",
              "type": "uint256"
            },
            {
              "name": "firstName",
              "type": "string"
            },
            {
              "name": "lastName",
              "type": "string"
            },
            {
              "name": "memberId",
              "type": "uint256"
            },
            {
              "name": "requestId",
              "type": "uint256"
            },
            {
              "name": "role",
              "type": "string"
            },
            {
              "name": "status",
              "type": "uint8"
            },
            {
              "name": "owner",
              "type": "address"
            }
          ],
          "name": "",
          "type": "tuple"
        }
      ],
      "payable": false,
      "stateMutability": "view",
      "type": "function"
    },
    {
      "constant": true,
      "inputs": [
        {
          "name": "_page",
          "type": "uint256"
        }
      ],
      "name": "getMembers",
      "outputs": [
        {
          "components": [
            {
              "name": "memberId",
              "type": "uint256"
            },
            {
              "name": "creationDate",
              "type": "uint256"
            },
            {
              "name": "name",
              "type": "string"
            },
            {
              "name": "logo",
              "type": "string"
            },
            {
              "name": "country",
              "type": "string"
            },
            {
              "name": "cmo",
              "type": "string"
            },
            {
              "name": "theme",
              "type": "string"
            },
            {
              "name": "claimInbox",
              "type": "uint256[]"
            },
            {
              "name": "claims",
              "type": "uint256[]"
            },
            {
              "name": "userRequests",
              "type": "address[]"
            }
          ],
          "name": "",
          "type": "tuple[]"
        }
      ],
      "payable": false,
      "stateMutability": "view",
      "type": "function"
    },
    {
      "constant": false,
      "inputs": [],
      "name": "renounceSigner",
      "outputs": [],
      "payable": false,
      "stateMutability": "nonpayable",
      "type": "function"
    },
    {
      "constant": false,
      "inputs": [
        {
          "name": "account",
          "type": "address"
        }
      ],
      "name": "addSigner",
      "outputs": [],
      "payable": false,
      "stateMutability": "nonpayable",
      "type": "function"
    },
    {
      "constant": false,
      "inputs": [
        {
          "name": "_creationDate",
          "type": "uint256"
        },
        {
          "name": "_name",
          "type": "string"
        },
        {
          "name": "_logo",
          "type": "string"
        },
        {
          "name": "_country",
          "type": "string"
        },
        {
          "name": "_cmo",
          "type": "string"
        },
        {
          "name": "_theme",
          "type": "string"
        }
      ],
      "name": "addMember",
      "outputs": [
        {
          "name": "",
          "type": "uint256"
        }
      ],
      "payable": false,
      "stateMutability": "nonpayable",
      "type": "function"
    },
    {
      "constant": false,
      "inputs": [
        {
          "name": "_firstName",
          "type": "string"
        },
        {
          "name": "_lastName",
          "type": "string"
        },
        {
          "name": "_memberId",
          "type": "uint256"
        },
        {
          "name": "_role",
          "type": "string"
        },
        {
          "name": "owner",
          "type": "address"
        }
      ],
      "name": "updateUser",
      "outputs": [],
      "payable": false,
      "stateMutability": "nonpayable",
      "type": "function"
    },
    {
      "constant": false,
      "inputs": [
        {
          "name": "account",
          "type": "address"
        }
      ],
      "name": "whitelistAdmin",
      "outputs": [],
      "payable": false,
      "stateMutability": "nonpayable",
      "type": "function"
    },
    {
      "anonymous": false,
      "inputs": [
        {
          "indexed": true,
          "name": "account",
          "type": "address"
        }
      ],
      "name": "SignerAdded",
      "type": "event"
    },
    {
      "anonymous": false,
      "inputs": [
        {
          "indexed": true,
          "name": "account",
          "type": "address"
        }
      ],
      "name": "SignerRemoved",
      "type": "event"
    },
    {
      "constant": false,
      "inputs": [
        {
          "name": "_claimId",
          "type": "uint256"
        },
        {
          "name": "_claimType",
          "type": "bool"
        },
        {
          "name": "_claimData",
          "type": "bytes"
        }
      ],
      "name": "checkClaimStatus",
      "outputs": [],
      "payable": false,
      "stateMutability": "nonpayable",
      "type": "function"
    }
  ],
  "bytecode": "0x608060405260006006556200001d3364010000000062000023810204565b62000108565b6200003e60008264010000000062003fdd6200007582021704565b604051600160a060020a038216907f47d1c22a25bb3a5d4e481b9b1e6944c2eade3181a0a20b495ed61d35b5323f2490600090a250565b600160a060020a03811615156200008b57600080fd5b620000a08282640100000000620000d0810204565b15620000ab57600080fd5b600160a060020a0316600090815260209190915260409020805460ff19166001179055565b6000600160a060020a0382161515620000e857600080fd5b50600160a060020a03166000908152602091909152604090205460ff1690565b61508e80620001186000396000f30060806040526004361061011c5763ffffffff7c010000000000000000000000000000000000000000000000000000000060003504166308bdc24d81146101215780634dc92885146101435780635d73ab9a1461016357806365ff0c481461019957806368d3b46b146101b957806369c212f6146101d95780637df73e2714610206578063932191be146102335780639c4d6e32146102485780639eab52531461026a578063a4fdc5941461028c578063a7ed1fe4146102a1578063a87d942c146102c1578063b90dad9a146102d6578063c11e1ff314610308578063c477ecab1461031d578063e5c8b03d1461033d578063eb12d61e14610352578063fa1188c614610372578063fcfbde5b14610392578063ff240fce146103b2575b600080fd5b34801561012d57600080fd5b5061014161013c3660046142fc565b6103d2565b005b34801561014f57600080fd5b5061014161015e3660046142fc565b61056e565b34801561016f57600080fd5b5061018361017e3660046143de565b6106d2565b6040516101909190614e00565b60405180910390f35b3480156101a557600080fd5b506101416101b4366004614610565b610aad565b3480156101c557600080fd5b506101416101d43660046143fc565b610b3c565b3480156101e557600080fd5b506101f96101f43660046142fc565b6116ce565b6040516101909190614f1f565b34801561021257600080fd5b506102266102213660046142fc565b611922565b6040516101909190614e11565b34801561023f57600080fd5b5061018361193a565b34801561025457600080fd5b5061025d611c2b565b6040516101909190614f30565b34801561027657600080fd5b5061027f611c31565b6040516101909190614def565b34801561029857600080fd5b5061025d6120f8565b3480156102ad57600080fd5b506101416102bc366004614560565b6121bd565b3480156102cd57600080fd5b5061025d612284565b3480156102e257600080fd5b506102f66102f13660046143de565b6122a2565b60405161019096959493929190614f3e565b34801561031457600080fd5b506101f96122de565b34801561032957600080fd5b5061027f6103383660046143de565b612535565b34801561034957600080fd5b50610141612a50565b34801561035e57600080fd5b5061014161036d3660046142fc565b612a5b565b34801561037e57600080fd5b5061025d61038d366004614461565b612a78565b34801561039e57600080fd5b506101416103ad366004614322565b612b07565b3480156103be57600080fd5b506101416103cd3660046142fc565b612bf5565b600160a060020a038181166000908152600360205260408120600601546101009004909116116104205760405160e560020a62461bcd02815260040161041790614e5f565b60405180910390fd5b600160a060020a0381166000908152600360208190526040808320820154338452922001541480610455575061045533611922565b15156104765760405160e560020a62461bcd02815260040161041790614e6f565b60023360009081526003602052604090206006015460ff16600281111561049957fe5b14806104a957506104a933611922565b15156104ca5760405160e560020a62461bcd02815260040161041790614edf565b6001600160a060020a03821660009081526003602052604090206006015460ff1660028111156104f657fe5b146105165760405160e560020a62461bcd02815260040161041790614e3f565b600160a060020a038116600090815260036020526040902060060180546002919060ff19166001835b0217905550600160a060020a0381166000908152600360208190526040909120015461056b9082612cc9565b50565b600160a060020a038181166000908152600360205260408120600601546101009004909116116105b35760405160e560020a62461bcd02815260040161041790614e5f565b600160a060020a03811660009081526003602081905260408083208201543384529220015414806105e857506105e833611922565b15156106095760405160e560020a62461bcd02815260040161041790614e6f565b60023360009081526003602052604090206006015460ff16600281111561062c57fe5b148061063c575061063c33611922565b151561065d5760405160e560020a62461bcd02815260040161041790614edf565b6001600160a060020a03821660009081526003602052604090206006015460ff16600281111561068957fe5b146106a95760405160e560020a62461bcd02815260040161041790614e7f565b600160a060020a0381166000908152600360205260408120600601805460ff191660018361053f565b6060600080600060606000806106e66120f8565b95506106f3600a89612e38565b60045490955061070490600a612e71565b935085158061071257508585115b8061071c57508388115b1561072657610aa2565b60408051600a808252610160820190925290816020015b61074561402b565b81526020019060019003908161073d579050509250600091508490505b600454811015610a9e573360009081526003602081905260408220810154600480549193918590811061079157fe5b6000918252602080832090910154600160a060020a0316835282019290925260400190206003015414801561080e57506002600360006004848154811015156107d657fe5b6000918252602080832090910154600160a060020a0316835282019290925260400190206006015460ff16600281111561080c57fe5b145b15610a96576003600060048381548110151561082657fe5b600091825260208083209190910154600160a060020a0316835282810193909352604091820190208151610100808201845282548252600180840180548651600293821615909402600019011691909104601f810187900487028301870190955284825291949293858401939192918301828280156108e65780601f106108bb576101008083540402835291602001916108e6565b820191906000526020600020905b8154815290600101906020018083116108c957829003601f168201915b5050509183525050600282810180546040805160206001841615610100026000190190931694909404601f810183900483028501830190915280845293810193908301828280156109785780601f1061094d57610100808354040283529160200191610978565b820191906000526020600020905b81548152906001019060200180831161095b57829003601f168201915b505050505081526020016003820154815260200160048201548152602001600582018054600181600116156101000203166002900480601f016020809104026020016040519081016040528092919081815260200182805460018160011615610100020316600290048015610a2e5780601f10610a0357610100808354040283529160200191610a2e565b820191906000526020600020905b815481529060010190602001808311610a1157829003601f168201915b5050509183525050600682015460209091019060ff166002811115610a4f57fe5b6002811115610a5a57fe5b8152600691909101546101009004600160a060020a03166020909101528351849084908110610a8557fe5b602090810290910101526001909101905b600101610762565b8296505b505050505050919050565b610ab633611922565b1515610ac157600080fd5b60008781526001602052604081205411610af05760405160e560020a62461bcd02815260040161041790614eaf565b600087815260016020819052604090912001548614610b245760405160e560020a62461bcd02815260040161041790614e1f565b610b3387878787878787612e94565b50505050505050565b610b4461407c565b606060006060600080600080610b598961348d565b9750610b64886134db565b9650610ba6610b8a886005815181101515610b7b57fe5b906020019060200201516134db565b80516001908110610b9757fe5b906020019060200201516135ae565b9550600193505b60065484116116c15760008481526005602052604090206003015460ff1615158a1515148015610bdd5750838b14155b156116b657600084815260056020526040812060020180549091908110610c0057fe5b90600052602060002090600202016001016040516020018082805460018160011615610100020316600290048015610c6f5780601f10610c4d576101008083540402835291820191610c6f565b820191906000526020600020905b815481529060010190602001808311610c5b575b50509150506040516020818303038152906040526040518082805190602001908083835b60208310610cb25780518252601f199092019160209182019101610c93565b6001836020036101000a038019825116818451168082178552505050505050905001915050604051809103902060001916610d14610cf8896000815181101515610b7b57fe5b80516001908110610d0557fe5b906020019060200201516135e4565b6040516020018082805190602001908083835b60208310610d465780518252601f199092019160209182019101610d27565b6001836020036101000a0380198251168184511680821785525050505050509050019150506040516020818303038152906040526040518082805190602001908083835b60208310610da95780518252601f199092019160209182019101610d8a565b6001836020036101000a038019825116818451168082178552505050505050905001915050604051809103902060001916148015610fc05750600084815260056020526040902060020180546001908110610e0057fe5b90600052602060002090600202016001016040516020018082805460018160011615610100020316600290048015610e6f5780601f10610e4d576101008083540402835291820191610e6f565b820191906000526020600020905b815481529060010190602001808311610e5b575b50509150506040516020818303038152906040526040518082805190602001908083835b60208310610eb25780518252601f199092019160209182019101610e93565b6001836020036101000a038019825116818451168082178552505050505050905001915050604051809103902060001916610ef8610cf8896001815181101515610b7b57fe5b6040516020018082805190602001908083835b60208310610f2a5780518252601f199092019160209182019101610f0b565b6001836020036101000a0380198251168184511680821785525050505050509050019150506040516020818303038152906040526040518082805190602001908083835b60208310610f8d5780518252601f199092019160209182019101610f6e565b6001836020036101000a038019825116818451168082178552505050505050905001915050604051809103902060001916145b80156111a757506000848152600560205260409020600290810180549091908110610fe757fe5b906000526020600020906002020160010160405160200180828054600181600116156101000203166002900480156110565780601f10611034576101008083540402835291820191611056565b820191906000526020600020905b815481529060010190602001808311611042575b50509150506040516020818303038152906040526040518082805190602001908083835b602083106110995780518252601f19909201916020918201910161107a565b6001836020036101000a0380198251168184511680821785525050505050509050019150506040518091039020600019166110df610cf8896002815181101515610b7b57fe5b6040516020018082805190602001908083835b602083106111115780518252601f1990920191602091820191016110f2565b6001836020036101000a0380198251168184511680821785525050505050509050019150506040516020818303038152906040526040518082805190602001908083835b602083106111745780518252601f199092019160209182019101611155565b6001836020036101000a038019825116818451168082178552505050505050905001915050604051809103902060001916145b801561138c57506000848152600560205260409020600201805460039081106111cc57fe5b9060005260206000209060020201600101604051602001808280546001816001161561010002031660029004801561123b5780601f1061121957610100808354040283529182019161123b565b820191906000526020600020905b815481529060010190602001808311611227575b50509150506040516020818303038152906040526040518082805190602001908083835b6020831061127e5780518252601f19909201916020918201910161125f565b6001836020036101000a0380198251168184511680821785525050505050509050019150506040518091039020600019166112c4610cf8896003815181101515610b7b57fe5b6040516020018082805190602001908083835b602083106112f65780518252601f1990920191602091820191016112d7565b6001836020036101000a0380198251168184511680821785525050505050509050019150506040516020818303038152906040526040518082805190602001908083835b602083106113595780518252601f19909201916020918201910161133a565b6001836020036101000a038019825116818451168082178552505050505050905001915050604051809103902060001916145b801561157157506000848152600560205260409020600201805460049081106113b157fe5b906000526020600020906002020160010160405160200180828054600181600116156101000203166002900480156114205780601f106113fe576101008083540402835291820191611420565b820191906000526020600020905b81548152906001019060200180831161140c575b50509150506040516020818303038152906040526040518082805190602001908083835b602083106114635780518252601f199092019160209182019101611444565b6001836020036101000a0380198251168184511680821785525050505050509050019150506040518091039020600019166114a9610cf8896004815181101515610b7b57fe5b6040516020018082805190602001908083835b602083106114db5780518252601f1990920191602091820191016114bc565b6001836020036101000a0380198251168184511680821785525050505050509050019150506040516020818303038152906040526040518082805190602001908083835b6020831061153e5780518252601f19909201916020918201910161151f565b6001836020036101000a038019825116818451168082178552505050505050905001915050604051809103902060001916145b156116b65760008481526005602081905260408220600201805492955091811061159757fe5b90600052602060002090600202016001019150600090505b81546002600019610100600184161502019091160460ff821610156115d6576001016115af565b606483870160ff16111561164d5760008b81526005602081905260408083208201805460ff19166001179055868352909120015460ff16151561162f5760008481526005602052604090206004015461162f908c613656565b600084815260056020819052604090912001805460ff191660011790555b60008b81526005602081905260408083208201805460ff19166001179055868352909120015460ff16151561169857600084815260056020526040902060040154611698908c613656565b600084815260056020819052604090912001805460ff191660011790555b600190930192610bad565b5050505050505050505050565b6116d661402b565b600160a060020a0382166000908152600360209081526040918290208251610100808201855282548252600180840180548751600293821615909402600019011691909104601f810186900486028301860190965285825291949293858101939192919083018282801561178b5780601f106117605761010080835404028352916020019161178b565b820191906000526020600020905b81548152906001019060200180831161176e57829003601f168201915b5050509183525050600282810180546040805160206001841615610100026000190190931694909404601f8101839004830285018301909152808452938101939083018282801561181d5780601f106117f25761010080835404028352916020019161181d565b820191906000526020600020905b81548152906001019060200180831161180057829003601f168201915b505050505081526020016003820154815260200160048201548152602001600582018054600181600116156101000203166002900480601f0160208091040260200160405190810160405280929190818152602001828054600181600116156101000203166002900480156118d35780601f106118a8576101008083540402835291602001916118d3565b820191906000526020600020905b8154815290600101906020018083116118b657829003601f168201915b5050509183525050600682015460209091019060ff1660028111156118f457fe5b60028111156118ff57fe5b8152600691909101546101009004600160a060020a031660209091015292915050565b6000611934818363ffffffff61367b16565b92915050565b606080600061194833611922565b151561195357600080fd5b60045460408051828152602080840282010190915290801561198f57816020015b61197c61402b565b8152602001906001900390816119745790505b509150600090505b600454811015611c2557600360006004838154811015156119b457fe5b600091825260208083209190910154600160a060020a0316835282810193909352604091820190208151610100808201845282548252600180840180548651600293821615909402600019011691909104601f81018790048702830187019095528482529194929385840193919291830182828015611a745780601f10611a4957610100808354040283529160200191611a74565b820191906000526020600020905b815481529060010190602001808311611a5757829003601f168201915b5050509183525050600282810180546040805160206001841615610100026000190190931694909404601f81018390048302850183019091528084529381019390830182828015611b065780601f10611adb57610100808354040283529160200191611b06565b820191906000526020600020905b815481529060010190602001808311611ae957829003601f168201915b505050505081526020016003820154815260200160048201548152602001600582018054600181600116156101000203166002900480601f016020809104026020016040519081016040528092919081815260200182805460018160011615610100020316600290048015611bbc5780601f10611b9157610100808354040283529160200191611bbc565b820191906000526020600020905b815481529060010190602001808311611b9f57829003601f168201915b5050509183525050600682015460209091019060ff166002811115611bdd57fe5b6002811115611be857fe5b8152600691909101546101009004600160a060020a03166020909101528251839083908110611c1357fe5b60209081029091010152600101611997565b50919050565b60065481565b6060806000600280549050604051908082528060200260200182016040528015611c7557816020015b611c62614093565b815260200190600190039081611c5a5790505b509150600090505b600254811015611c255760016000600283815481101515611c9a57fe5b9060005260206000200154815260200190815260200160002061014060405190810160405290816000820154815260200160018201548152602001600282018054600181600116156101000203166002900480601f016020809104026020016040519081016040528092919081815260200182805460018160011615610100020316600290048015611d6d5780601f10611d4257610100808354040283529160200191611d6d565b820191906000526020600020905b815481529060010190602001808311611d5057829003601f168201915b505050918352505060038201805460408051602060026001851615610100026000190190941693909304601f8101849004840282018401909252818152938201939291830182828015611e015780601f10611dd657610100808354040283529160200191611e01565b820191906000526020600020905b815481529060010190602001808311611de457829003601f168201915b505050918352505060048201805460408051602060026001851615610100026000190190941693909304601f8101849004840282018401909252818152938201939291830182828015611e955780601f10611e6a57610100808354040283529160200191611e95565b820191906000526020600020905b815481529060010190602001808311611e7857829003601f168201915b505050918352505060058201805460408051602060026001851615610100026000190190941693909304601f8101849004840282018401909252818152938201939291830182828015611f295780601f10611efe57610100808354040283529160200191611f29565b820191906000526020600020905b815481529060010190602001808311611f0c57829003601f168201915b505050918352505060068201805460408051602060026001851615610100026000190190941693909304601f8101849004840282018401909252818152938201939291830182828015611fbd5780601f10611f9257610100808354040283529160200191611fbd565b820191906000526020600020905b815481529060010190602001808311611fa057829003601f168201915b505050505081526020016007820180548060200260200160405190810160405280929190818152602001828054801561201557602002820191906000526020600020905b815481526020019060010190808311612001575b505050505081526020016008820180548060200260200160405190810160405280929190818152602001828054801561206d57602002820191906000526020600020905b815481526020019060010190808311612059575b50505050508152602001600982018054806020026020016040519081016040528092919081815260200182805480156120cf57602002820191906000526020600020905b8154600160a060020a031681526001909101906020018083116120b1575b50505050508152505082828151811015156120e657fe5b60209081029091010152600101611c7d565b600080805b600454811015611c25573360009081526003602081905260408220810154600480549193918590811061212c57fe5b6000918252602080832090910154600160a060020a031683528201929092526040019020600301541480156121a9575060026003600060048481548110151561217157fe5b6000918252602080832090910154600160a060020a0316835282019290925260400190206006015460ff1660028111156121a757fe5b145b156121b5576001909101905b6001016120fd565b60008115156121e15760405160e560020a62461bcd02815260040161041790614eff565b600086116122045760405160e560020a62461bcd02815260040161041790614f0f565b33600090815260036020526040902054156122345760405160e560020a62461bcd02815260040161041790614e4f565b61223d826136b2565b151561225e5760405160e560020a62461bcd02815260040161041790614eaf565b612267866136c5565b905061227c86868685858860013360006138b4565b505050505050565b600061228f33611922565b151561229a57600080fd5b506002545b90565b60056020819052600091825260409091208054600182015460038301546004840154948401546006909401549294919360ff9182169391169086565b6122e661402b565b6122ee61402b565b336000908152600360209081526040918290208251610100808201855282548252600180840180548751600293821615909402600019011691909104601f810186900486028301860190965285825291949293858101939192919083018282801561239a5780601f1061236f5761010080835404028352916020019161239a565b820191906000526020600020905b81548152906001019060200180831161237d57829003601f168201915b5050509183525050600282810180546040805160206001841615610100026000190190931694909404601f8101839004830285018301909152808452938101939083018282801561242c5780601f106124015761010080835404028352916020019161242c565b820191906000526020600020905b81548152906001019060200180831161240f57829003601f168201915b505050505081526020016003820154815260200160048201548152602001600582018054600181600116156101000203166002900480601f0160208091040260200160405190810160405280929190818152602001828054600181600116156101000203166002900480156124e25780601f106124b7576101008083540402835291602001916124e2565b820191906000526020600020905b8154815290600101906020018083116124c557829003601f168201915b5050509183525050600682015460209091019060ff16600281111561250357fe5b600281111561250e57fe5b8152600691909101546101009004600160a060020a031660209091015291508190505b5090565b606060008060006060600061254b600a88612e38565b60025490955061255c90600a612e71565b600254909450158061257357506002546000190185115b8061257d57508387115b1561258757612a46565b60408051600a80825261016082019092526000945090816020015b6125aa614093565b8152602001906001900390816125a25790505091508490505b600254811015612a4257600160006002838154811015156125e057fe5b9060005260206000200154815260200190815260200160002061014060405190810160405290816000820154815260200160018201548152602001600282018054600181600116156101000203166002900480601f0160208091040260200160405190810160405280929190818152602001828054600181600116156101000203166002900480156126b35780601f10612688576101008083540402835291602001916126b3565b820191906000526020600020905b81548152906001019060200180831161269657829003601f168201915b505050918352505060038201805460408051602060026001851615610100026000190190941693909304601f81018490048402820184019092528181529382019392918301828280156127475780601f1061271c57610100808354040283529160200191612747565b820191906000526020600020905b81548152906001019060200180831161272a57829003601f168201915b505050918352505060048201805460408051602060026001851615610100026000190190941693909304601f81018490048402820184019092528181529382019392918301828280156127db5780601f106127b0576101008083540402835291602001916127db565b820191906000526020600020905b8154815290600101906020018083116127be57829003601f168201915b505050918352505060058201805460408051602060026001851615610100026000190190941693909304601f810184900484028201840190925281815293820193929183018282801561286f5780601f106128445761010080835404028352916020019161286f565b820191906000526020600020905b81548152906001019060200180831161285257829003601f168201915b505050918352505060068201805460408051602060026001851615610100026000190190941693909304601f81018490048402820184019092528181529382019392918301828280156129035780601f106128d857610100808354040283529160200191612903565b820191906000526020600020905b8154815290600101906020018083116128e657829003601f168201915b505050505081526020016007820180548060200260200160405190810160405280929190818152602001828054801561295b57602002820191906000526020600020905b815481526020019060010190808311612947575b50505050508152602001600882018054806020026020016040519081016040528092919081815260200182805480156129b357602002820191906000526020600020905b81548152602001906001019080831161299f575b5050505050815260200160098201805480602002602001604051908101604052809291908181526020018280548015612a1557602002820191906000526020600020905b8154600160a060020a031681526001909101906020018083116129f7575b5050505050815250508284815181101515612a2c57fe5b60209081029091010152600192830192016125c3565b8195505b5050505050919050565b612a5933613d08565b565b612a6433611922565b1515612a6f57600080fd5b61056b81613d50565b600080612a8433611922565b1515612a8f57600080fd5b60008811612ab25760405160e560020a62461bcd02815260040161041790614f0f565b612abb886136c5565b60008181526001602052604090205490915015612aed5760405160e560020a62461bcd02815260040161041790614e9f565b612afc81898989898989612e94565b979650505050505050565b600160a060020a03818116600090815260036020526040812060060154909182918291610100909104168110612b525760405160e560020a62461bcd02815260040161041790614e5f565b6002600160a060020a03851660009081526003602052604090206006015460ff166002811115612b7e57fe5b14612b9e5760405160e560020a62461bcd02815260040161041790614edf565b600160a060020a03841660009081526003602052604090206004810154815460069092015490945090925060ff166002811115612bd757fe5b9050612beb82898989878a878b60016138b4565b5050505050505050565b612bfe33611922565b1515612c0957600080fd5b600160a060020a03811660009081526003602081905260409091200154612c309082612cc9565b604080518082018252600b81527f53757065722061646d696e0000000000000000000000000000000000000000006020808301918252600160a060020a03851660009081526003909152929092209051612c9092600590920191906140e7565b50600160a060020a0381166000908152600360208190526040822090810191909155600601805460ff1916600217905561056b81612a5b565b6000805b60008481526001602052604090206009015460001901811015612dc95760008481526001602052604090206009018054600160a060020a038516919083908110612d1357fe5b600091825260209091200154600160a060020a03161415612d3357600191505b8115612dc1576000848152600160208190526040909120600901805490918301908110612d5c57fe5b6000918252602080832090910154868352600190915260409091206009018054600160a060020a039092169183908110612d9257fe5b9060005260206000200160006101000a815481600160a060020a030219169083600160a060020a031602179055505b600101612ccd565b600084815260016020526040902060090180546000198101908110612dea57fe5b60009182526020808320909101805473ffffffffffffffffffffffffffffffffffffffff191690558582526001905260409020600901805490612e31906000198301614161565b5050505050565b600080831515612e4b5760009150612e6a565b50828202828482811515612e5b57fe5b0414612e6657600080fd5b8091505b5092915050565b600080808311612e8057600080fd5b8284811515612e8b57fe5b04949350505050565b612e9c614093565b85511515612ebf5760405160e560020a62461bcd02815260040161041790614eef565b82511515612ee25760405160e560020a62461bcd02815260040161041790614ecf565b81511515612f055760405160e560020a62461bcd02815260040161041790614ebf565b6000888152600160208181526040928390208351610140810185528154815281840154818401526002808301805487519681161561010002600019011691909104601f810185900485028601850187528086529195929492860193909190830182828015612fb45780601f10612f8957610100808354040283529160200191612fb4565b820191906000526020600020905b815481529060010190602001808311612f9757829003601f168201915b505050918352505060038201805460408051602060026001851615610100026000190190941693909304601f81018490048402820184019092528181529382019392918301828280156130485780601f1061301d57610100808354040283529160200191613048565b820191906000526020600020905b81548152906001019060200180831161302b57829003601f168201915b505050918352505060048201805460408051602060026001851615610100026000190190941693909304601f81018490048402820184019092528181529382019392918301828280156130dc5780601f106130b1576101008083540402835291602001916130dc565b820191906000526020600020905b8154815290600101906020018083116130bf57829003601f168201915b505050918352505060058201805460408051602060026001851615610100026000190190941693909304601f81018490048402820184019092528181529382019392918301828280156131705780601f1061314557610100808354040283529160200191613170565b820191906000526020600020905b81548152906001019060200180831161315357829003601f168201915b505050918352505060068201805460408051602060026001851615610100026000190190941693909304601f81018490048402820184019092528181529382019392918301828280156132045780601f106131d957610100808354040283529160200191613204565b820191906000526020600020905b8154815290600101906020018083116131e757829003601f168201915b505050505081526020016007820180548060200260200160405190810160405280929190818152602001828054801561325c57602002820191906000526020600020905b815481526020019060010190808311613248575b50505050508152602001600882018054806020026020016040519081016040528092919081815260200182805480156132b457602002820191906000526020600020905b8154815260200190600101908083116132a0575b505050505081526020016009820180548060200260200160405190810160405280929190818152602001828054801561331657602002820191906000526020600020905b8154600160a060020a031681526001909101906020018083116132f8575b50505091909252505050888152602080820189815260408084018a8152606085018a90526080850189905260a0850188905260c0850187905260008d815260018086529290208551815592519183019190915551805193945084939192613385926002850192909101906140e7565b50606082015180516133a19160038401916020909101906140e7565b50608082015180516133bd9160048401916020909101906140e7565b5060a082015180516133d99160058401916020909101906140e7565b5060c082015180516133f59160068401916020909101906140e7565b5060e0820151805161341191600784019160209091019061418a565b50610100820151805161342e91600884019160209091019061418a565b50610120820151805161344b9160098401916020909101906141c4565b5050600280546001810182556000919091527f405787fa12a823e0f2b7631cc41b3ba8828b3321ca811111fa75cd3aa3bb5ace01989098555050505050505050565b61349561407c565b60008251600014156134bc5760408051808201909152600080825260208201529150611c25565b5050604080518082019091528151815260209182019181019190915290565b60606000806000806134ec86613d98565b15156134f757600080fd5b61350086613dc7565b93508360405190808252806020026020018201604052801561353c57816020015b61352961407c565b8152602001906001900390816135215790505b50945061354c8660200151613e17565b8660200151019250600090505b838110156135a55761356a83613e7a565b9150604080519081016040528083815260200184815250858281518110151561358f57fe5b6020908102909101015291810191600101613559565b50505050919050565b60008060008060006135c38660200151613e17565b86516020978801518201519190039096036101000a90950495945050505050565b6060600080606060006135fa8660200151613e17565b9350838660000151039250826040519080825280601f01601f191660200182016040528015613633578160200160208202803883390190505b50915081602001905061364d848760200151018285613f0b565b50949350505050565b6000918252600160208181526040842060070180549283018155845290922090910155565b6000600160a060020a038216151561369257600080fd5b50600160a060020a03166000908152602091909152604090205460ff1690565b6000908152600160205260408120541190565b60008080806002850615156137575784604051602001808281526020019150506040516020818303038152906040526040518082805190602001908083835b602083106137235780518252601f199092019160209182019101613704565b6001836020036101000a03801982511681845116808217855250505050505090500191505060405180910390209250613842565b84604051602001808281526020019150506040516020818303038152906040526040518082805190602001908083835b602083106137a65780518252601f199092019160209182019101613787565b51815160209384036101000a600019018019909216911617905260408051929094018290038220828201528351808303820181529184019384905281519195509293508392850191508083835b602083106138125780518252601f1990920191602091820191016137f3565b6001836020036101000a038019825116818451168082178552505050505050905001915050604051809103902092505b602081101561386f5782816020811061385757fe5b60f860020a91901a8102049190910190600101613842565b82602060028401066020811061388157fe5b60f860020a91901a81020483602084066020811061389b57fe5b1a60f860020a0260f860020a9004029350505050919050565b6138bc61402b565b6000841015806138cd575060028411155b15156138ee5760405160e560020a62461bcd02815260040161041790614e8f565b845115156139115760405160e560020a62461bcd02815260040161041790614e2f565b600160a060020a0383166000908152600360209081526040918290208251610100808201855282548252600180840180548751600293821615909402600019011691909104601f81018690048602830186019096528582529194929385810193919291908301828280156139c65780601f1061399b576101008083540402835291602001916139c6565b820191906000526020600020905b8154815290600101906020018083116139a957829003601f168201915b5050509183525050600282810180546040805160206001841615610100026000190190931694909404601f81018390048302850183019091528084529381019390830182828015613a585780601f10613a2d57610100808354040283529160200191613a58565b820191906000526020600020905b815481529060010190602001808311613a3b57829003601f168201915b505050505081526020016003820154815260200160048201548152602001600582018054600181600116156101000203166002900480601f016020809104026020016040519081016040528092919081815260200182805460018160011615610100020316600290048015613b0e5780601f10613ae357610100808354040283529160200191613b0e565b820191906000526020600020905b815481529060010190602001808311613af157829003601f168201915b5050509183525050600682015460209091019060ff166002811115613b2f57fe5b6002811115613b3a57fe5b8152600691909101546101009004600160a060020a03166020918201528b825281018a905260408101899052606081018890526080810187905260a081018690529050836002811115613b8957fe5b8160c001906002811115613b9957fe5b90816002811115613ba657fe5b905250600160a060020a03831660e082018190526000908152600360209081526040909120825181558183015180518493613be89260018501929101906140e7565b5060408201518051613c049160028401916020909101906140e7565b50606082015160038201556080820151600482015560a08201518051613c349160058401916020909101906140e7565b5060c082015160068201805460ff19166001836002811115613c5257fe5b021790555060e0919091015160069091018054600160a060020a039092166101000274ffffffffffffffffffffffffffffffffffffffff0019909216919091179055811515613cfc57600480546001810182556000919091527f8a35acfbc15ff81a39ae7d344fd709f28e8600b4aa8c65c6b64bfe7fe36bd19b01805473ffffffffffffffffffffffffffffffffffffffff1916600160a060020a038516179055613cfc87613f52565b50505050505050505050565b613d1960008263ffffffff613f9116565b604051600160a060020a038216907f3525e22824a8a7df2c9a6029941c824cf95b6447f1e13d5128fd3826d35afe8b90600090a250565b613d6160008263ffffffff613fdd16565b604051600160a060020a038216907f47d1c22a25bb3a5d4e481b9b1e6944c2eade3181a0a20b495ed61d35b5323f2490600090a250565b6020810151805160009190821a9060c060ff83161015613dbb5760009250613dc0565b600192505b5050919050565b60008060008060009250613dde8560200151613e17565b6020860151865191810193500190505b80821015613e0e57613dff82613e7a565b60019093019290910190613dee565b50909392505050565b8051600090811a6080811015613e305760009150611c25565b60b8811080613e4b575060c08110801590613e4b575060f881105b15613e595760019150611c25565b60c0811015613e6e5760b51981019150611c25565b60f51981019150611c25565b8051600090811a6080811015613e935760019150611c25565b60b8811015613ea857607e1981019150611c25565b60c0811015613ed55760b78103600184019350806020036101000a84510460018201810193505050611c25565b60f8811015613eea5760be1981019150611c25565b60019290920151602083900360f7016101000a900490910160f51901919050565b60005b60208210613f30578351835260209384019390920191601f1990910190613f0e565b50915181516020939093036101000a6000190180199091169216919091179052565b6000908152600160208181526040832060090180549283018155835290912001805473ffffffffffffffffffffffffffffffffffffffff191633179055565b600160a060020a0381161515613fa657600080fd5b613fb0828261367b565b1515613fbb57600080fd5b600160a060020a0316600090815260209190915260409020805460ff19169055565b600160a060020a0381161515613ff257600080fd5b613ffc828261367b565b1561400657600080fd5b600160a060020a0316600090815260209190915260409020805460ff19166001179055565b610100604051908101604052806000815260200160608152602001606081526020016000815260200160008152602001606081526020016000600281111561406f57fe5b8152600060209091015290565b604080518082019091526000808252602082015290565b61014060405190810160405280600081526020016000815260200160608152602001606081526020016060815260200160608152602001606081526020016060815260200160608152602001606081525090565b828054600181600116156101000203166002900490600052602060002090601f016020900481019282601f1061412857805160ff1916838001178555614155565b82800160010185558215614155579182015b8281111561415557825182559160200191906001019061413a565b50612531929150614232565b81548183558181111561418557600083815260209020614185918101908301614232565b505050565b828054828255906000526020600020908101928215614155579160200282018281111561415557825182559160200191906001019061413a565b828054828255906000526020600020908101928215614226579160200282015b82811115614226578251825473ffffffffffffffffffffffffffffffffffffffff1916600160a060020a039091161782556020909201916001909101906141e4565b5061253192915061424c565b61229f91905b808211156125315760008155600101614238565b61229f91905b8082111561253157805473ffffffffffffffffffffffffffffffffffffffff19168155600101614252565b60006142898235614fe6565b9392505050565b60006142898235614ff2565b6000601f820183136142ad57600080fd5b81356142c06142bb82614fb4565b614f8d565b915080825260208301602083018583830111156142dc57600080fd5b6142e783828461500e565b50505092915050565b6000614289823561229f565b60006020828403121561430e57600080fd5b600061431a848461427d565b949350505050565b600080600080600060a0868803121561433a57600080fd5b853567ffffffffffffffff81111561435157600080fd5b61435d8882890161429c565b955050602086013567ffffffffffffffff81111561437a57600080fd5b6143868882890161429c565b9450506040614397888289016142f0565b935050606086013567ffffffffffffffff8111156143b457600080fd5b6143c08882890161429c565b92505060806143d18882890161427d565b9150509295509295909350565b6000602082840312156143f057600080fd5b600061431a84846142f0565b60008060006060848603121561441157600080fd5b600061441d86866142f0565b935050602061442e86828701614290565b925050604084013567ffffffffffffffff81111561444b57600080fd5b6144578682870161429c565b9150509250925092565b60008060008060008060c0878903121561447a57600080fd5b600061448689896142f0565b965050602087013567ffffffffffffffff8111156144a357600080fd5b6144af89828a0161429c565b955050604087013567ffffffffffffffff8111156144cc57600080fd5b6144d889828a0161429c565b945050606087013567ffffffffffffffff8111156144f557600080fd5b61450189828a0161429c565b935050608087013567ffffffffffffffff81111561451e57600080fd5b61452a89828a0161429c565b92505060a087013567ffffffffffffffff81111561454757600080fd5b61455389828a0161429c565b9150509295509295509295565b600080600080600060a0868803121561457857600080fd5b600061458488886142f0565b955050602086013567ffffffffffffffff8111156145a157600080fd5b6145ad8882890161429c565b945050604086013567ffffffffffffffff8111156145ca57600080fd5b6145d68882890161429c565b935050606086013567ffffffffffffffff8111156145f357600080fd5b6145ff8882890161429c565b92505060806143d1888289016142f0565b600080600080600080600060e0888a03121561462b57600080fd5b60006146378a8a6142f0565b97505060206146488a828b016142f0565b965050604088013567ffffffffffffffff81111561466557600080fd5b6146718a828b0161429c565b955050606088013567ffffffffffffffff81111561468e57600080fd5b61469a8a828b0161429c565b945050608088013567ffffffffffffffff8111156146b757600080fd5b6146c38a828b0161429c565b93505060a088013567ffffffffffffffff8111156146e057600080fd5b6146ec8a828b0161429c565b92505060c088013567ffffffffffffffff81111561470957600080fd5b6147158a828b0161429c565b91505092959891949750929550565b61472d81614fe6565b82525050565b600061473e82614fe2565b80845260208401935061475083614fdc565b60005b8281101561478057614766868351614724565b61476f82614fdc565b602096909601959150600101614753565b5093949350505050565b600061479582614fe2565b808452602084019350836020820285016147ae85614fdc565b60005b848110156147e55783830388526147c9838351614c2c565b92506147d482614fdc565b6020989098019791506001016147b1565b50909695505050505050565b60006147fc82614fe2565b8084526020840193508360208202850161481585614fdc565b60005b848110156147e5578383038852614830838351614d2f565b925061483b82614fdc565b602098909801979150600101614818565b600061485782614fe2565b80845260208401935061486983614fdc565b60005b828110156147805761487f868351614de6565b61488882614fdc565b60209690960195915060010161486c565b61472d81614ff2565b61472d81615003565b60006148b682614fe2565b8084526148ca81602086016020860161501a565b6148d38161504a565b9093016020019392505050565b601a81527f4372656174696f6e204461746520697320696e6d757461626c65000000000000602082015260400190565b601181527f726f6c65206973206d616e6461746f7279000000000000000000000000000000602082015260400190565b602281527f4f6e6c792070656e64696e672075736572732063616e2062652061636365707460208201527f6564000000000000000000000000000000000000000000000000000000000000604082015260600190565b601381527f5573657220616c72656164792065786973747300000000000000000000000000602082015260400190565b601481527f546869732075736572206e6f7420657869737473000000000000000000000000602082015260400190565b601b81527f596f752063616e6e6f7420616363657074207468697320757365720000000000602082015260400190565b602281527f4f6e6c792070656e64696e672075736572732063616e2062652072656a65637460208201527f6564000000000000000000000000000000000000000000000000000000000000604082015260600190565b601381527f737461747573206973206e6f742076616c696400000000000000000000000000602082015260400190565b601581527f4d656d62657220616c7265616479206578697374730000000000000000000000602082015260400190565b601181527f4d656d626572206e6f7420657869737473000000000000000000000000000000602082015260400190565b601281527f5468656d65206973206d616e6461746f72790000000000000000000000000000602082015260400190565b601081527f434d4f206973206d616e6461746f727900000000000000000000000000000000602082015260400190565b601481527f596f7520617265206e6f74206163636570746564000000000000000000000000602082015260400190565b601181527f4e616d65206973206d616e6461746f7279000000000000000000000000000000602082015260400190565b601181527f4e6f2076616c6964206d656d6265724964000000000000000000000000000000602082015260400190565b601981527f4372656174696f6e44617465206973206d616e6461746f727900000000000000602082015260400190565b8051600090610140840190614c418582614de6565b506020830151614c546020860182614de6565b5060408301518482036040860152614c6c82826148ab565b91505060608301518482036060860152614c8682826148ab565b91505060808301518482036080860152614ca082826148ab565b91505060a083015184820360a0860152614cba82826148ab565b91505060c083015184820360c0860152614cd482826148ab565b91505060e083015184820360e0860152614cee828261484c565b915050610100830151848203610100860152614d0a828261484c565b915050610120830151848203610120860152614d268282614733565b95945050505050565b8051600090610100840190614d448582614de6565b5060208301518482036020860152614d5c82826148ab565b91505060408301518482036040860152614d7682826148ab565b9150506060830151614d8b6060860182614de6565b506080830151614d9e6080860182614de6565b5060a083015184820360a0860152614db682826148ab565b91505060c0830151614dcb60c08601826148a2565b5060e0830151614dde60e0860182614724565b509392505050565b61472d8161229f565b60208082528101614289818461478a565b6020808252810161428981846147f1565b602081016119348284614899565b60208082528101611934816148e0565b6020808252810161193481614910565b6020808252810161193481614940565b6020808252810161193481614996565b60208082528101611934816149c6565b60208082528101611934816149f6565b6020808252810161193481614a26565b6020808252810161193481614a7c565b6020808252810161193481614aac565b6020808252810161193481614adc565b6020808252810161193481614b0c565b6020808252810161193481614b3c565b6020808252810161193481614b6c565b6020808252810161193481614b9c565b6020808252810161193481614bcc565b6020808252810161193481614bfc565b602080825281016142898184614d2f565b602081016119348284614de6565b60c08101614f4c8289614de6565b614f596020830188614de6565b614f666040830187614899565b614f736060830186614de6565b614f806080830185614899565b612afc60a0830184614de6565b60405181810167ffffffffffffffff81118282101715614fac57600080fd5b604052919050565b600067ffffffffffffffff821115614fcb57600080fd5b506020601f91909101601f19160190565b60200190565b5190565b600160a060020a031690565b151590565b60006003821061253157fe5b600061193482614ff7565b82818337506000910152565b60005b8381101561503557818101518382015260200161501d565b83811115615044576000848401525b50505050565b601f01601f1916905600a265627a7a723058202f4aafe8ff617640fb555391e1f5b395ddc88d0a0bc66b16349163705db82feb6c6578706572696d656e74616cf50037",
  "source": "pragma solidity ^0.4.24;\npragma experimental ABIEncoderV2;\n\nimport \"../../node_modules/solidity-rlp/contracts/RLPReader.sol\";\nimport \"./Users.sol\";\nimport \"./Claims.sol\";\n\ncontract Lib is Users {\n\n  using RLPReader for bytes;\n  using RLPReader for uint;\n  using RLPReader for RLPReader.RLPItem;\n\n  //  enum StatusClaimEnum {\n  //    CLAIMED, // = false, means there is NO CONFLICT\n  //    CONFLICT // = true, means there IS a CONFLICT\n  //  }\n\n  //  enum ClaimTypeEnum {\n  //    MUSICAL_WORK,   // false for Musical Works\n  //    SOUND_RECORDING // true for Sound Recordings\n  //  }\n\n  struct NameValue{\n    string name;\n    string value;\n  }\n\n  struct Claim {\n    uint256 creationDate;\n    uint256 claimId;\n    NameValue[] claimData;\n    bool claimType;\n    uint256 memberOwner;    //  replace with 'member'\n    //    uint256 memberReceptor; // remove\n    //    string[] messageLog;\n    bool status;\n    uint256 lastChange;\n  }\n\n  uint256 constant private PAGE_SIZE = 10;\n\n  mapping (uint256 => Claim) public claims_;\n  uint256 public claimIdCounter_ = 0;\n//  // METHODS\n\n  // Public\n  function checkClaimStatus(uint256 _claimId, bool _claimType, bytes _claimData) public {\n    //     -browse all (getClaimsByISRC or ISWC) = claims_\n    //     -check if conflict with region, period, useTypes\n    //        -if CONFLICT with split\n    //            -change the status to conflict\n    //            -and if found is not CONFLICT status, then change as well\n    //            -_addClaimFromInbox(member, _claimId)\n    //            -save memberId/_claimId locally (memory)\n//    require(claimIdCounter_ > 0, \"There is no claim in the system\");\n//   if (_claimId == claimIdCounter_) {   // just registered\n    // Push in messageLog of _claimId==1 the _claimData of each claim that is input in this function\n    RLPReader.RLPItem memory item = _claimData.toRlpItem();\n    RLPReader.RLPItem[] memory itemList = item.toList();  // ((name0, value0), (name, value), (name, value), ...)\n    //    claims_[1].claimData.push(NameValue(\"__NEXT__\", \"__CLAIM\"));\n    //    for(uint j = 0; j < itemList.length; ++j) {\n    //      //      RLPReader.RLPItem[] memory itemListClaim = itemList[j].toList(); // (name0, value0)\n    //    string memory data = string(itemList[j].toList()[1].toBytes());\n    //    claims_[1].claimData.push(NameValue(string(itemList[j].toList()[0].toBytes()), string(itemList[j].toList()[1].toBytes())));\n    //    }\n    uint8 split = uint8(itemList[5].toList()[1].toUint());\n    uint[] memory memberOwners;\n    for(uint256 i = 1; i <= claimIdCounter_; i++) {\n      if (_claimType == claims_[i].claimType && _claimId != i) {\n        if(keccak256(abi.encodePacked(itemList[0].toList()[1].toBytes())) == keccak256(abi.encodePacked(claims_[i].claimData[0].value)) // same ISRC/ISWC\n        && keccak256(abi.encodePacked(itemList[1].toList()[1].toBytes())) == keccak256(abi.encodePacked(claims_[i].claimData[1].value)) // same countries\n        && keccak256(abi.encodePacked(itemList[2].toList()[1].toBytes())) == keccak256(abi.encodePacked(claims_[i].claimData[2].value)) // same startDate\n        && keccak256(abi.encodePacked(itemList[3].toList()[1].toBytes())) == keccak256(abi.encodePacked(claims_[i].claimData[3].value)) // same endDate\n        && keccak256(abi.encodePacked(itemList[4].toList()[1].toBytes())) == keccak256(abi.encodePacked(claims_[i].claimData[4].value)) // same useTypes/rightTypes\n        ){\n          // Sound Recording, _claimType = true for Sound Recordings\n//          if (_claimType) {   // split convert to uint8\n            uint8 split_i = 0; // bytesToUint8(bytes(claims_[i].claimData[5].value));\n            bytes b = bytes(claims_[i].claimData[5].value);\n            for(uint8 j=0;j<b.length;j++){\n//              split_i = uint8(split_i + uint8(b[j])*(2**(8*(b.length-(j+1)))));\n            }\n\n            if (split+split_i>100) {\n\n              claims_[_claimId].status = true; // true, means there IS a CONFLICT\n              if (!claims_[i].status) {\n                _addClaimFromInbox(claims_[i].memberOwner, _claimId);\n              }\n              claims_[i].status = true;\n              //                if (uint256(parseInt(claims_[_claimId].claimData[2].value, 0)) + uint256(parseInt(claims_[i].claimData[2].value, 0)) > 100) {\n              //      // check if their splits> 100% (checking between combinations missing!)\n              //\n              //                }\n            }\n            // Musical Work, _claimType = false for Musical Works\n//          } else if (keccak256(abi.encodePacked(itemList[6].toList()[1].toBytes())) == keccak256(abi.encodePacked(claims_[i].claimData[6].value))) { // same rightHolderRole\n\n            claims_[_claimId].status = true;\n            if (!claims_[i].status) {\n              _addClaimFromInbox(claims_[i].memberOwner, _claimId);\n            }\n            claims_[i].status = true;\n\n//          }\n        }\n      }\n    }\n//   } else {   // while updating\n//\n//   }\n  }\n\n//  function bytesToUint8(bytes b) internal pure returns (uint8){\n//    uint8 number;\n//    for(uint8 i=0;i<b.length;i++){\n//      number = uint8(number + uint8(b[i])*(2**(8*(b.length-(i+1)))));\n//    }\n//    return number;\n//  }\n//\n//  function stringToUint(string s) public pure returns (uint8) {\n//    bytes memory b = bytes(s);\n//    uint8 result = 0;\n//    uint8 oldResult = 0;\n//    for (uint8 i = 0; i < b.length; i++) { // c = b[i] was not needed\n//      if (b[i] >= 48 && b[i] <= 57) {\n//        // store old value so we can check for overflows\n//        oldResult = result;\n//        result = result * 10 + (uint8(b[i]) - 48); // bytes and int are not compatible with the operator -.\n//        // prevent overflows\n////        if(oldResult > result ) {\n////          // we can only get here if the result overflowed and is smaller than last stored value\n////          hasError = true;\n////        }\n//      }\n////     else {\n////        hasError = true;\n////      }\n//    }\n//    return result;\n//  }\n}\n",
  "sourcePath": "/home/komodo/newUI/bloomen-decentralized-rights-management-v2/truffle/contracts/registry/Lib.sol",
  "compiler": {
    "name": "solc",
    "version": "0.4.24+commit.e67f0147.Emscripten.clang"
  },
  "schemaVersion": "2.0.1",
  "updatedAt": "2019-11-12T11:55:54.642Z"
}