{
  "contractName": "Lib2",
  "abi": [
    {
      "constant": false,
      "inputs": [
        {
          "name": "_userToAccept",
          "type": "address"
        }
      ],
      "name": "acceptUser",
      "outputs": [],
      "payable": false,
      "stateMutability": "nonpayable",
      "type": "function"
    },
    {
      "constant": false,
      "inputs": [
        {
          "name": "_userToReject",
          "type": "address"
        }
      ],
      "name": "rejectUser",
      "outputs": [],
      "payable": false,
      "stateMutability": "nonpayable",
      "type": "function"
    },
    {
      "constant": true,
      "inputs": [
        {
          "name": "_page",
          "type": "uint256"
        }
      ],
      "name": "getUsers",
      "outputs": [
        {
          "components": [
            {
              "name": "creationDate",
              "type": "uint256"
            },
            {
              "name": "firstName",
              "type": "string"
            },
            {
              "name": "lastName",
              "type": "string"
            },
            {
              "name": "memberId",
              "type": "uint256"
            },
            {
              "name": "requestId",
              "type": "uint256"
            },
            {
              "name": "role",
              "type": "string"
            },
            {
              "name": "status",
              "type": "uint8"
            },
            {
              "name": "owner",
              "type": "address"
            }
          ],
          "name": "",
          "type": "tuple[]"
        }
      ],
      "payable": false,
      "stateMutability": "view",
      "type": "function"
    },
    {
      "constant": false,
      "inputs": [
        {
          "name": "_memberId",
          "type": "uint256"
        },
        {
          "name": "_creationDate",
          "type": "uint256"
        },
        {
          "name": "_name",
          "type": "string"
        },
        {
          "name": "_logo",
          "type": "string"
        },
        {
          "name": "_country",
          "type": "string"
        },
        {
          "name": "_cmo",
          "type": "string"
        },
        {
          "name": "_theme",
          "type": "string"
        }
      ],
      "name": "updateMember",
      "outputs": [],
      "payable": false,
      "stateMutability": "nonpayable",
      "type": "function"
    },
    {
      "constant": true,
      "inputs": [
        {
          "name": "userAddress",
          "type": "address"
        }
      ],
      "name": "getUserByAddress",
      "outputs": [
        {
          "components": [
            {
              "name": "creationDate",
              "type": "uint256"
            },
            {
              "name": "firstName",
              "type": "string"
            },
            {
              "name": "lastName",
              "type": "string"
            },
            {
              "name": "memberId",
              "type": "uint256"
            },
            {
              "name": "requestId",
              "type": "uint256"
            },
            {
              "name": "role",
              "type": "string"
            },
            {
              "name": "status",
              "type": "uint8"
            },
            {
              "name": "owner",
              "type": "address"
            }
          ],
          "name": "",
          "type": "tuple"
        }
      ],
      "payable": false,
      "stateMutability": "view",
      "type": "function"
    },
    {
      "constant": true,
      "inputs": [
        {
          "name": "account",
          "type": "address"
        }
      ],
      "name": "isSigner",
      "outputs": [
        {
          "name": "",
          "type": "bool"
        }
      ],
      "payable": false,
      "stateMutability": "view",
      "type": "function"
    },
    {
      "constant": true,
      "inputs": [],
      "name": "getUsersOwner",
      "outputs": [
        {
          "components": [
            {
              "name": "creationDate",
              "type": "uint256"
            },
            {
              "name": "firstName",
              "type": "string"
            },
            {
              "name": "lastName",
              "type": "string"
            },
            {
              "name": "memberId",
              "type": "uint256"
            },
            {
              "name": "requestId",
              "type": "uint256"
            },
            {
              "name": "role",
              "type": "string"
            },
            {
              "name": "status",
              "type": "uint8"
            },
            {
              "name": "owner",
              "type": "address"
            }
          ],
          "name": "",
          "type": "tuple[]"
        }
      ],
      "payable": false,
      "stateMutability": "view",
      "type": "function"
    },
    {
      "constant": true,
      "inputs": [],
      "name": "claimIdCounter_",
      "outputs": [
        {
          "name": "",
          "type": "uint256"
        }
      ],
      "payable": false,
      "stateMutability": "view",
      "type": "function"
    },
    {
      "constant": true,
      "inputs": [],
      "name": "getMembers",
      "outputs": [
        {
          "components": [
            {
              "name": "memberId",
              "type": "uint256"
            },
            {
              "name": "creationDate",
              "type": "uint256"
            },
            {
              "name": "name",
              "type": "string"
            },
            {
              "name": "logo",
              "type": "string"
            },
            {
              "name": "country",
              "type": "string"
            },
            {
              "name": "cmo",
              "type": "string"
            },
            {
              "name": "theme",
              "type": "string"
            },
            {
              "name": "claimInbox",
              "type": "uint256[]"
            },
            {
              "name": "claims",
              "type": "uint256[]"
            },
            {
              "name": "userRequests",
              "type": "address[]"
            }
          ],
          "name": "",
          "type": "tuple[]"
        }
      ],
      "payable": false,
      "stateMutability": "view",
      "type": "function"
    },
    {
      "constant": true,
      "inputs": [],
      "name": "getcountUsers",
      "outputs": [
        {
          "name": "",
          "type": "uint256"
        }
      ],
      "payable": false,
      "stateMutability": "view",
      "type": "function"
    },
    {
      "constant": false,
      "inputs": [
        {
          "name": "_creationDate",
          "type": "uint256"
        },
        {
          "name": "_firstName",
          "type": "string"
        },
        {
          "name": "_lastName",
          "type": "string"
        },
        {
          "name": "_role",
          "type": "string"
        },
        {
          "name": "_memberId",
          "type": "uint256"
        }
      ],
      "name": "registerUserRequest",
      "outputs": [],
      "payable": false,
      "stateMutability": "nonpayable",
      "type": "function"
    },
    {
      "constant": true,
      "inputs": [],
      "name": "getCount",
      "outputs": [
        {
          "name": "",
          "type": "uint256"
        }
      ],
      "payable": false,
      "stateMutability": "view",
      "type": "function"
    },
    {
      "constant": true,
      "inputs": [],
      "name": "getMe",
      "outputs": [
        {
          "components": [
            {
              "name": "creationDate",
              "type": "uint256"
            },
            {
              "name": "firstName",
              "type": "string"
            },
            {
              "name": "lastName",
              "type": "string"
            },
            {
              "name": "memberId",
              "type": "uint256"
            },
            {
              "name": "requestId",
              "type": "uint256"
            },
            {
              "name": "role",
              "type": "string"
            },
            {
              "name": "status",
              "type": "uint8"
            },
            {
              "name": "owner",
              "type": "address"
            }
          ],
          "name": "",
          "type": "tuple"
        }
      ],
      "payable": false,
      "stateMutability": "view",
      "type": "function"
    },
    {
      "constant": true,
      "inputs": [
        {
          "name": "_page",
          "type": "uint256"
        }
      ],
      "name": "getMembers",
      "outputs": [
        {
          "components": [
            {
              "name": "memberId",
              "type": "uint256"
            },
            {
              "name": "creationDate",
              "type": "uint256"
            },
            {
              "name": "name",
              "type": "string"
            },
            {
              "name": "logo",
              "type": "string"
            },
            {
              "name": "country",
              "type": "string"
            },
            {
              "name": "cmo",
              "type": "string"
            },
            {
              "name": "theme",
              "type": "string"
            },
            {
              "name": "claimInbox",
              "type": "uint256[]"
            },
            {
              "name": "claims",
              "type": "uint256[]"
            },
            {
              "name": "userRequests",
              "type": "address[]"
            }
          ],
          "name": "",
          "type": "tuple[]"
        }
      ],
      "payable": false,
      "stateMutability": "view",
      "type": "function"
    },
    {
      "constant": false,
      "inputs": [],
      "name": "renounceSigner",
      "outputs": [],
      "payable": false,
      "stateMutability": "nonpayable",
      "type": "function"
    },
    {
      "constant": false,
      "inputs": [
        {
          "name": "account",
          "type": "address"
        }
      ],
      "name": "addSigner",
      "outputs": [],
      "payable": false,
      "stateMutability": "nonpayable",
      "type": "function"
    },
    {
      "constant": false,
      "inputs": [
        {
          "name": "_creationDate",
          "type": "uint256"
        },
        {
          "name": "_name",
          "type": "string"
        },
        {
          "name": "_logo",
          "type": "string"
        },
        {
          "name": "_country",
          "type": "string"
        },
        {
          "name": "_cmo",
          "type": "string"
        },
        {
          "name": "_theme",
          "type": "string"
        }
      ],
      "name": "addMember",
      "outputs": [
        {
          "name": "",
          "type": "uint256"
        }
      ],
      "payable": false,
      "stateMutability": "nonpayable",
      "type": "function"
    },
    {
      "constant": false,
      "inputs": [
        {
          "name": "_firstName",
          "type": "string"
        },
        {
          "name": "_lastName",
          "type": "string"
        },
        {
          "name": "_memberId",
          "type": "uint256"
        },
        {
          "name": "_role",
          "type": "string"
        },
        {
          "name": "owner",
          "type": "address"
        }
      ],
      "name": "updateUser",
      "outputs": [],
      "payable": false,
      "stateMutability": "nonpayable",
      "type": "function"
    },
    {
      "constant": false,
      "inputs": [
        {
          "name": "account",
          "type": "address"
        }
      ],
      "name": "whitelistAdmin",
      "outputs": [],
      "payable": false,
      "stateMutability": "nonpayable",
      "type": "function"
    },
    {
      "anonymous": false,
      "inputs": [
        {
          "indexed": true,
          "name": "account",
          "type": "address"
        }
      ],
      "name": "SignerAdded",
      "type": "event"
    },
    {
      "anonymous": false,
      "inputs": [
        {
          "indexed": true,
          "name": "account",
          "type": "address"
        }
      ],
      "name": "SignerRemoved",
      "type": "event"
    }
  ],
  "bytecode": "0x608060405260006007556200001d3364010000000062000023810204565b62000108565b6200003e60008264010000000062002fff6200007582021704565b604051600160a060020a038216907f47d1c22a25bb3a5d4e481b9b1e6944c2eade3181a0a20b495ed61d35b5323f2490600090a250565b600160a060020a03811615156200008b57600080fd5b620000a08282640100000000620000d0810204565b15620000ab57600080fd5b600160a060020a0316600090815260209190915260409020805460ff19166001179055565b6000600160a060020a0382161515620000e857600080fd5b50600160a060020a03166000908152602091909152604090205460ff1690565b613fd980620001186000396000f3006080604052600436106101065763ffffffff7c010000000000000000000000000000000000000000000000000000000060003504166308bdc24d811461010b5780634dc928851461012d5780635d73ab9a1461014d57806365ff0c481461018357806369c212f6146101a35780637df73e27146101d0578063932191be146101fd5780639c4d6e32146102125780639eab525314610234578063a4fdc59414610256578063a7ed1fe41461026b578063a87d942c1461028b578063c11e1ff3146102a0578063c477ecab146102b5578063e5c8b03d146102d5578063eb12d61e146102ea578063fa1188c61461030a578063fcfbde5b1461032a578063ff240fce1461034a575b600080fd5b34801561011757600080fd5b5061012b6101263660046132fb565b61036a565b005b34801561013957600080fd5b5061012b6101483660046132fb565b610506565b34801561015957600080fd5b5061016d6101683660046133dd565b61066a565b60405161017a9190613d9a565b60405180910390f35b34801561018f57600080fd5b5061012b61019e3660046135aa565b610a45565b3480156101af57600080fd5b506101c36101be3660046132fb565b610ad4565b60405161017a9190613eb9565b3480156101dc57600080fd5b506101f06101eb3660046132fb565b610d28565b60405161017a9190613dab565b34801561020957600080fd5b5061016d610d40565b34801561021e57600080fd5b50610227611031565b60405161017a9190613eca565b34801561024057600080fd5b50610249611037565b60405161017a9190613d89565b34801561026257600080fd5b506102276114fe565b34801561027757600080fd5b5061012b6102863660046134fa565b6115c3565b34801561029757600080fd5b5061022761168a565b3480156102ac57600080fd5b506101c36116a8565b3480156102c157600080fd5b506102496102d03660046133dd565b6118ff565b3480156102e157600080fd5b5061012b611e1a565b3480156102f657600080fd5b5061012b6103053660046132fb565b611e25565b34801561031657600080fd5b506102276103253660046133fb565b611e42565b34801561033657600080fd5b5061012b610345366004613321565b611ed1565b34801561035657600080fd5b5061012b6103653660046132fb565b611fbf565b600160a060020a038181166000908152600360205260408120600601546101009004909116116103b85760405160e560020a62461bcd0281526004016103af90613df9565b60405180910390fd5b600160a060020a03811660009081526003602081905260408083208201543384529220015414806103ed57506103ed33610d28565b151561040e5760405160e560020a62461bcd0281526004016103af90613e09565b60023360009081526003602052604090206006015460ff16600281111561043157fe5b1480610441575061044133610d28565b15156104625760405160e560020a62461bcd0281526004016103af90613e79565b6001600160a060020a03821660009081526003602052604090206006015460ff16600281111561048e57fe5b146104ae5760405160e560020a62461bcd0281526004016103af90613dd9565b600160a060020a038116600090815260036020526040902060060180546002919060ff19166001835b0217905550600160a060020a038116600090815260036020819052604090912001546105039082612093565b50565b600160a060020a0381811660009081526003602052604081206006015461010090049091161161054b5760405160e560020a62461bcd0281526004016103af90613df9565b600160a060020a0381166000908152600360208190526040808320820154338452922001541480610580575061058033610d28565b15156105a15760405160e560020a62461bcd0281526004016103af90613e09565b60023360009081526003602052604090206006015460ff1660028111156105c457fe5b14806105d457506105d433610d28565b15156105f55760405160e560020a62461bcd0281526004016103af90613e79565b6001600160a060020a03821660009081526003602052604090206006015460ff16600281111561062157fe5b146106415760405160e560020a62461bcd0281526004016103af90613e19565b600160a060020a0381166000908152600360205260408120600601805460ff19166001836104d7565b60606000806000606060008061067e6114fe565b955061068b600a89612202565b60045490955061069c90600a61223b565b93508515806106aa57508585115b806106b457508388115b156106be57610a3a565b60408051600a808252610160820190925290816020015b6106dd61304d565b8152602001906001900390816106d5579050509250600091508490505b600454811015610a36573360009081526003602081905260408220810154600480549193918590811061072957fe5b6000918252602080832090910154600160a060020a031683528201929092526040019020600301541480156107a6575060026003600060048481548110151561076e57fe5b6000918252602080832090910154600160a060020a0316835282019290925260400190206006015460ff1660028111156107a457fe5b145b15610a2e57600360006004838154811015156107be57fe5b600091825260208083209190910154600160a060020a0316835282810193909352604091820190208151610100808201845282548252600180840180548651600293821615909402600019011691909104601f8101879004870283018701909552848252919492938584019391929183018282801561087e5780601f106108535761010080835404028352916020019161087e565b820191906000526020600020905b81548152906001019060200180831161086157829003601f168201915b5050509183525050600282810180546040805160206001841615610100026000190190931694909404601f810183900483028501830190915280845293810193908301828280156109105780601f106108e557610100808354040283529160200191610910565b820191906000526020600020905b8154815290600101906020018083116108f357829003601f168201915b505050505081526020016003820154815260200160048201548152602001600582018054600181600116156101000203166002900480601f0160208091040260200160405190810160405280929190818152602001828054600181600116156101000203166002900480156109c65780601f1061099b576101008083540402835291602001916109c6565b820191906000526020600020905b8154815290600101906020018083116109a957829003601f168201915b5050509183525050600682015460209091019060ff1660028111156109e757fe5b60028111156109f257fe5b8152600691909101546101009004600160a060020a03166020909101528351849084908110610a1d57fe5b602090810290910101526001909101905b6001016106fa565b8296505b505050505050919050565b610a4e33610d28565b1515610a5957600080fd5b60008781526001602052604081205411610a885760405160e560020a62461bcd0281526004016103af90613e49565b600087815260016020819052604090912001548614610abc5760405160e560020a62461bcd0281526004016103af90613db9565b610acb8787878787878761225e565b50505050505050565b610adc61304d565b600160a060020a0382166000908152600360209081526040918290208251610100808201855282548252600180840180548751600293821615909402600019011691909104601f8101869004860283018601909652858252919492938581019391929190830182828015610b915780601f10610b6657610100808354040283529160200191610b91565b820191906000526020600020905b815481529060010190602001808311610b7457829003601f168201915b5050509183525050600282810180546040805160206001841615610100026000190190931694909404601f81018390048302850183019091528084529381019390830182828015610c235780601f10610bf857610100808354040283529160200191610c23565b820191906000526020600020905b815481529060010190602001808311610c0657829003601f168201915b505050505081526020016003820154815260200160048201548152602001600582018054600181600116156101000203166002900480601f016020809104026020016040519081016040528092919081815260200182805460018160011615610100020316600290048015610cd95780601f10610cae57610100808354040283529160200191610cd9565b820191906000526020600020905b815481529060010190602001808311610cbc57829003601f168201915b5050509183525050600682015460209091019060ff166002811115610cfa57fe5b6002811115610d0557fe5b8152600691909101546101009004600160a060020a031660209091015292915050565b6000610d3a818363ffffffff61285716565b92915050565b6060806000610d4e33610d28565b1515610d5957600080fd5b600454604080518281526020808402820101909152908015610d9557816020015b610d8261304d565b815260200190600190039081610d7a5790505b509150600090505b60045481101561102b5760036000600483815481101515610dba57fe5b600091825260208083209190910154600160a060020a0316835282810193909352604091820190208151610100808201845282548252600180840180548651600293821615909402600019011691909104601f81018790048702830187019095528482529194929385840193919291830182828015610e7a5780601f10610e4f57610100808354040283529160200191610e7a565b820191906000526020600020905b815481529060010190602001808311610e5d57829003601f168201915b5050509183525050600282810180546040805160206001841615610100026000190190931694909404601f81018390048302850183019091528084529381019390830182828015610f0c5780601f10610ee157610100808354040283529160200191610f0c565b820191906000526020600020905b815481529060010190602001808311610eef57829003601f168201915b505050505081526020016003820154815260200160048201548152602001600582018054600181600116156101000203166002900480601f016020809104026020016040519081016040528092919081815260200182805460018160011615610100020316600290048015610fc25780601f10610f9757610100808354040283529160200191610fc2565b820191906000526020600020905b815481529060010190602001808311610fa557829003601f168201915b5050509183525050600682015460209091019060ff166002811115610fe357fe5b6002811115610fee57fe5b8152600691909101546101009004600160a060020a0316602090910152825183908390811061101957fe5b60209081029091010152600101610d9d565b50919050565b60075481565b606080600060028054905060405190808252806020026020018201604052801561107b57816020015b61106861309e565b8152602001906001900390816110605790505b509150600090505b60025481101561102b57600160006002838154811015156110a057fe5b9060005260206000200154815260200190815260200160002061014060405190810160405290816000820154815260200160018201548152602001600282018054600181600116156101000203166002900480601f0160208091040260200160405190810160405280929190818152602001828054600181600116156101000203166002900480156111735780601f1061114857610100808354040283529160200191611173565b820191906000526020600020905b81548152906001019060200180831161115657829003601f168201915b505050918352505060038201805460408051602060026001851615610100026000190190941693909304601f81018490048402820184019092528181529382019392918301828280156112075780601f106111dc57610100808354040283529160200191611207565b820191906000526020600020905b8154815290600101906020018083116111ea57829003601f168201915b505050918352505060048201805460408051602060026001851615610100026000190190941693909304601f810184900484028201840190925281815293820193929183018282801561129b5780601f106112705761010080835404028352916020019161129b565b820191906000526020600020905b81548152906001019060200180831161127e57829003601f168201915b505050918352505060058201805460408051602060026001851615610100026000190190941693909304601f810184900484028201840190925281815293820193929183018282801561132f5780601f106113045761010080835404028352916020019161132f565b820191906000526020600020905b81548152906001019060200180831161131257829003601f168201915b505050918352505060068201805460408051602060026001851615610100026000190190941693909304601f81018490048402820184019092528181529382019392918301828280156113c35780601f10611398576101008083540402835291602001916113c3565b820191906000526020600020905b8154815290600101906020018083116113a657829003601f168201915b505050505081526020016007820180548060200260200160405190810160405280929190818152602001828054801561141b57602002820191906000526020600020905b815481526020019060010190808311611407575b505050505081526020016008820180548060200260200160405190810160405280929190818152602001828054801561147357602002820191906000526020600020905b81548152602001906001019080831161145f575b50505050508152602001600982018054806020026020016040519081016040528092919081815260200182805480156114d557602002820191906000526020600020905b8154600160a060020a031681526001909101906020018083116114b7575b50505050508152505082828151811015156114ec57fe5b60209081029091010152600101611083565b600080805b60045481101561102b573360009081526003602081905260408220810154600480549193918590811061153257fe5b6000918252602080832090910154600160a060020a031683528201929092526040019020600301541480156115af575060026003600060048481548110151561157757fe5b6000918252602080832090910154600160a060020a0316835282019290925260400190206006015460ff1660028111156115ad57fe5b145b156115bb576001909101905b600101611503565b60008115156115e75760405160e560020a62461bcd0281526004016103af90613e99565b6000861161160a5760405160e560020a62461bcd0281526004016103af90613ea9565b336000908152600360205260409020541561163a5760405160e560020a62461bcd0281526004016103af90613de9565b6116438261288e565b15156116645760405160e560020a62461bcd0281526004016103af90613e49565b61166d866128a1565b90506116828686868585886001336000612a90565b505050505050565b600061169533610d28565b15156116a057600080fd5b506002545b90565b6116b061304d565b6116b861304d565b336000908152600360209081526040918290208251610100808201855282548252600180840180548751600293821615909402600019011691909104601f81018690048602830186019096528582529194929385810193919291908301828280156117645780601f1061173957610100808354040283529160200191611764565b820191906000526020600020905b81548152906001019060200180831161174757829003601f168201915b5050509183525050600282810180546040805160206001841615610100026000190190931694909404601f810183900483028501830190915280845293810193908301828280156117f65780601f106117cb576101008083540402835291602001916117f6565b820191906000526020600020905b8154815290600101906020018083116117d957829003601f168201915b505050505081526020016003820154815260200160048201548152602001600582018054600181600116156101000203166002900480601f0160208091040260200160405190810160405280929190818152602001828054600181600116156101000203166002900480156118ac5780601f10611881576101008083540402835291602001916118ac565b820191906000526020600020905b81548152906001019060200180831161188f57829003601f168201915b5050509183525050600682015460209091019060ff1660028111156118cd57fe5b60028111156118d857fe5b8152600691909101546101009004600160a060020a031660209091015291508190505b5090565b6060600080600060606000611915600a88612202565b60025490955061192690600a61223b565b600254909450158061193d57506002546000190185115b8061194757508387115b1561195157611e10565b60408051600a80825261016082019092526000945090816020015b61197461309e565b81526020019060019003908161196c5790505091508490505b600254811015611e0c57600160006002838154811015156119aa57fe5b9060005260206000200154815260200190815260200160002061014060405190810160405290816000820154815260200160018201548152602001600282018054600181600116156101000203166002900480601f016020809104026020016040519081016040528092919081815260200182805460018160011615610100020316600290048015611a7d5780601f10611a5257610100808354040283529160200191611a7d565b820191906000526020600020905b815481529060010190602001808311611a6057829003601f168201915b505050918352505060038201805460408051602060026001851615610100026000190190941693909304601f8101849004840282018401909252818152938201939291830182828015611b115780601f10611ae657610100808354040283529160200191611b11565b820191906000526020600020905b815481529060010190602001808311611af457829003601f168201915b505050918352505060048201805460408051602060026001851615610100026000190190941693909304601f8101849004840282018401909252818152938201939291830182828015611ba55780601f10611b7a57610100808354040283529160200191611ba5565b820191906000526020600020905b815481529060010190602001808311611b8857829003601f168201915b505050918352505060058201805460408051602060026001851615610100026000190190941693909304601f8101849004840282018401909252818152938201939291830182828015611c395780601f10611c0e57610100808354040283529160200191611c39565b820191906000526020600020905b815481529060010190602001808311611c1c57829003601f168201915b505050918352505060068201805460408051602060026001851615610100026000190190941693909304601f8101849004840282018401909252818152938201939291830182828015611ccd5780601f10611ca257610100808354040283529160200191611ccd565b820191906000526020600020905b815481529060010190602001808311611cb057829003601f168201915b5050505050815260200160078201805480602002602001604051908101604052809291908181526020018280548015611d2557602002820191906000526020600020905b815481526020019060010190808311611d11575b5050505050815260200160088201805480602002602001604051908101604052809291908181526020018280548015611d7d57602002820191906000526020600020905b815481526020019060010190808311611d69575b5050505050815260200160098201805480602002602001604051908101604052809291908181526020018280548015611ddf57602002820191906000526020600020905b8154600160a060020a03168152600190910190602001808311611dc1575b5050505050815250508284815181101515611df657fe5b602090810290910101526001928301920161198d565b8195505b5050505050919050565b611e2333612ee4565b565b611e2e33610d28565b1515611e3957600080fd5b61050381612f2c565b600080611e4e33610d28565b1515611e5957600080fd5b60008811611e7c5760405160e560020a62461bcd0281526004016103af90613ea9565b611e85886128a1565b60008181526001602052604090205490915015611eb75760405160e560020a62461bcd0281526004016103af90613e39565b611ec68189898989898961225e565b979650505050505050565b600160a060020a03818116600090815260036020526040812060060154909182918291610100909104168110611f1c5760405160e560020a62461bcd0281526004016103af90613df9565b6002600160a060020a03851660009081526003602052604090206006015460ff166002811115611f4857fe5b14611f685760405160e560020a62461bcd0281526004016103af90613e79565b600160a060020a03841660009081526003602052604090206004810154815460069092015490945090925060ff166002811115611fa157fe5b9050611fb582898989878a878b6001612a90565b5050505050505050565b611fc833610d28565b1515611fd357600080fd5b600160a060020a03811660009081526003602081905260409091200154611ffa9082612093565b604080518082018252600b81527f53757065722061646d696e0000000000000000000000000000000000000000006020808301918252600160a060020a0385166000908152600390915292909220905161205a92600590920191906130f2565b50600160a060020a0381166000908152600360208190526040822090810191909155600601805460ff1916600217905561050381611e25565b6000805b600084815260016020526040902060090154600019018110156121935760008481526001602052604090206009018054600160a060020a0385169190839081106120dd57fe5b600091825260209091200154600160a060020a031614156120fd57600191505b811561218b57600084815260016020819052604090912060090180549091830190811061212657fe5b6000918252602080832090910154868352600190915260409091206009018054600160a060020a03909216918390811061215c57fe5b9060005260206000200160006101000a815481600160a060020a030219169083600160a060020a031602179055505b600101612097565b6000848152600160205260409020600901805460001981019081106121b457fe5b60009182526020808320909101805473ffffffffffffffffffffffffffffffffffffffff1916905585825260019052604090206009018054906121fb90600019830161316c565b5050505050565b6000808315156122155760009150612234565b5082820282848281151561222557fe5b041461223057600080fd5b8091505b5092915050565b60008080831161224a57600080fd5b828481151561225557fe5b04949350505050565b61226661309e565b855115156122895760405160e560020a62461bcd0281526004016103af90613e89565b825115156122ac5760405160e560020a62461bcd0281526004016103af90613e69565b815115156122cf5760405160e560020a62461bcd0281526004016103af90613e59565b6000888152600160208181526040928390208351610140810185528154815281840154818401526002808301805487519681161561010002600019011691909104601f81018590048502860185018752808652919592949286019390919083018282801561237e5780601f106123535761010080835404028352916020019161237e565b820191906000526020600020905b81548152906001019060200180831161236157829003601f168201915b505050918352505060038201805460408051602060026001851615610100026000190190941693909304601f81018490048402820184019092528181529382019392918301828280156124125780601f106123e757610100808354040283529160200191612412565b820191906000526020600020905b8154815290600101906020018083116123f557829003601f168201915b505050918352505060048201805460408051602060026001851615610100026000190190941693909304601f81018490048402820184019092528181529382019392918301828280156124a65780601f1061247b576101008083540402835291602001916124a6565b820191906000526020600020905b81548152906001019060200180831161248957829003601f168201915b505050918352505060058201805460408051602060026001851615610100026000190190941693909304601f810184900484028201840190925281815293820193929183018282801561253a5780601f1061250f5761010080835404028352916020019161253a565b820191906000526020600020905b81548152906001019060200180831161251d57829003601f168201915b505050918352505060068201805460408051602060026001851615610100026000190190941693909304601f81018490048402820184019092528181529382019392918301828280156125ce5780601f106125a3576101008083540402835291602001916125ce565b820191906000526020600020905b8154815290600101906020018083116125b157829003601f168201915b505050505081526020016007820180548060200260200160405190810160405280929190818152602001828054801561262657602002820191906000526020600020905b815481526020019060010190808311612612575b505050505081526020016008820180548060200260200160405190810160405280929190818152602001828054801561267e57602002820191906000526020600020905b81548152602001906001019080831161266a575b50505050508152602001600982018054806020026020016040519081016040528092919081815260200182805480156126e057602002820191906000526020600020905b8154600160a060020a031681526001909101906020018083116126c2575b50505091909252505050888152602080820189815260408084018a8152606085018a90526080850189905260a0850188905260c0850187905260008d81526001808652929020855181559251918301919091555180519394508493919261274f926002850192909101906130f2565b506060820151805161276b9160038401916020909101906130f2565b50608082015180516127879160048401916020909101906130f2565b5060a082015180516127a39160058401916020909101906130f2565b5060c082015180516127bf9160068401916020909101906130f2565b5060e082015180516127db916007840191602090910190613195565b5061010082015180516127f8916008840191602090910190613195565b5061012082015180516128159160098401916020909101906131cf565b5050600280546001810182556000919091527f405787fa12a823e0f2b7631cc41b3ba8828b3321ca811111fa75cd3aa3bb5ace01989098555050505050505050565b6000600160a060020a038216151561286e57600080fd5b50600160a060020a03166000908152602091909152604090205460ff1690565b6000908152600160205260408120541190565b60008080806002850615156129335784604051602001808281526020019150506040516020818303038152906040526040518082805190602001908083835b602083106128ff5780518252601f1990920191602091820191016128e0565b6001836020036101000a03801982511681845116808217855250505050505090500191505060405180910390209250612a1e565b84604051602001808281526020019150506040516020818303038152906040526040518082805190602001908083835b602083106129825780518252601f199092019160209182019101612963565b51815160209384036101000a600019018019909216911617905260408051929094018290038220828201528351808303820181529184019384905281519195509293508392850191508083835b602083106129ee5780518252601f1990920191602091820191016129cf565b6001836020036101000a038019825116818451168082178552505050505050905001915050604051809103902092505b6020811015612a4b57828160208110612a3357fe5b60f860020a91901a8102049190910190600101612a1e565b826020600284010660208110612a5d57fe5b60f860020a91901a810204836020840660208110612a7757fe5b1a60f860020a0260f860020a9004029350505050919050565b612a9861304d565b600084101580612aa9575060028411155b1515612aca5760405160e560020a62461bcd0281526004016103af90613e29565b84511515612aed5760405160e560020a62461bcd0281526004016103af90613dc9565b600160a060020a0383166000908152600360209081526040918290208251610100808201855282548252600180840180548751600293821615909402600019011691909104601f8101869004860283018601909652858252919492938581019391929190830182828015612ba25780601f10612b7757610100808354040283529160200191612ba2565b820191906000526020600020905b815481529060010190602001808311612b8557829003601f168201915b5050509183525050600282810180546040805160206001841615610100026000190190931694909404601f81018390048302850183019091528084529381019390830182828015612c345780601f10612c0957610100808354040283529160200191612c34565b820191906000526020600020905b815481529060010190602001808311612c1757829003601f168201915b505050505081526020016003820154815260200160048201548152602001600582018054600181600116156101000203166002900480601f016020809104026020016040519081016040528092919081815260200182805460018160011615610100020316600290048015612cea5780601f10612cbf57610100808354040283529160200191612cea565b820191906000526020600020905b815481529060010190602001808311612ccd57829003601f168201915b5050509183525050600682015460209091019060ff166002811115612d0b57fe5b6002811115612d1657fe5b8152600691909101546101009004600160a060020a03166020918201528b825281018a905260408101899052606081018890526080810187905260a081018690529050836002811115612d6557fe5b8160c001906002811115612d7557fe5b90816002811115612d8257fe5b905250600160a060020a03831660e082018190526000908152600360209081526040909120825181558183015180518493612dc49260018501929101906130f2565b5060408201518051612de09160028401916020909101906130f2565b50606082015160038201556080820151600482015560a08201518051612e109160058401916020909101906130f2565b5060c082015160068201805460ff19166001836002811115612e2e57fe5b021790555060e0919091015160069091018054600160a060020a039092166101000274ffffffffffffffffffffffffffffffffffffffff0019909216919091179055811515612ed857600480546001810182556000919091527f8a35acfbc15ff81a39ae7d344fd709f28e8600b4aa8c65c6b64bfe7fe36bd19b01805473ffffffffffffffffffffffffffffffffffffffff1916600160a060020a038516179055612ed887612f74565b50505050505050505050565b612ef560008263ffffffff612fb316565b604051600160a060020a038216907f3525e22824a8a7df2c9a6029941c824cf95b6447f1e13d5128fd3826d35afe8b90600090a250565b612f3d60008263ffffffff612fff16565b604051600160a060020a038216907f47d1c22a25bb3a5d4e481b9b1e6944c2eade3181a0a20b495ed61d35b5323f2490600090a250565b6000908152600160208181526040832060090180549283018155835290912001805473ffffffffffffffffffffffffffffffffffffffff191633179055565b600160a060020a0381161515612fc857600080fd5b612fd28282612857565b1515612fdd57600080fd5b600160a060020a0316600090815260209190915260409020805460ff19169055565b600160a060020a038116151561301457600080fd5b61301e8282612857565b1561302857600080fd5b600160a060020a0316600090815260209190915260409020805460ff19166001179055565b610100604051908101604052806000815260200160608152602001606081526020016000815260200160008152602001606081526020016000600281111561309157fe5b8152600060209091015290565b61014060405190810160405280600081526020016000815260200160608152602001606081526020016060815260200160608152602001606081526020016060815260200160608152602001606081525090565b828054600181600116156101000203166002900490600052602060002090601f016020900481019282601f1061313357805160ff1916838001178555613160565b82800160010185558215613160579182015b82811115613160578251825591602001919060010190613145565b506118fb92915061323d565b8154818355818111156131905760008381526020902061319091810190830161323d565b505050565b8280548282559060005260206000209081019282156131605791602002820182811115613160578251825591602001919060010190613145565b828054828255906000526020600020908101928215613231579160200282015b82811115613231578251825473ffffffffffffffffffffffffffffffffffffffff1916600160a060020a039091161782556020909201916001909101906131ef565b506118fb929150613257565b6116a591905b808211156118fb5760008155600101613243565b6116a591905b808211156118fb57805473ffffffffffffffffffffffffffffffffffffffff1916815560010161325d565b60006132948235613f31565b9392505050565b6000601f820183136132ac57600080fd5b81356132bf6132ba82613eff565b613ed8565b915080825260208301602083018583830111156132db57600080fd5b6132e6838284613f59565b50505092915050565b600061329482356116a5565b60006020828403121561330d57600080fd5b60006133198484613288565b949350505050565b600080600080600060a0868803121561333957600080fd5b853567ffffffffffffffff81111561335057600080fd5b61335c8882890161329b565b955050602086013567ffffffffffffffff81111561337957600080fd5b6133858882890161329b565b9450506040613396888289016132ef565b935050606086013567ffffffffffffffff8111156133b357600080fd5b6133bf8882890161329b565b92505060806133d088828901613288565b9150509295509295909350565b6000602082840312156133ef57600080fd5b600061331984846132ef565b60008060008060008060c0878903121561341457600080fd5b600061342089896132ef565b965050602087013567ffffffffffffffff81111561343d57600080fd5b61344989828a0161329b565b955050604087013567ffffffffffffffff81111561346657600080fd5b61347289828a0161329b565b945050606087013567ffffffffffffffff81111561348f57600080fd5b61349b89828a0161329b565b935050608087013567ffffffffffffffff8111156134b857600080fd5b6134c489828a0161329b565b92505060a087013567ffffffffffffffff8111156134e157600080fd5b6134ed89828a0161329b565b9150509295509295509295565b600080600080600060a0868803121561351257600080fd5b600061351e88886132ef565b955050602086013567ffffffffffffffff81111561353b57600080fd5b6135478882890161329b565b945050604086013567ffffffffffffffff81111561356457600080fd5b6135708882890161329b565b935050606086013567ffffffffffffffff81111561358d57600080fd5b6135998882890161329b565b92505060806133d0888289016132ef565b600080600080600080600060e0888a0312156135c557600080fd5b60006135d18a8a6132ef565b97505060206135e28a828b016132ef565b965050604088013567ffffffffffffffff8111156135ff57600080fd5b61360b8a828b0161329b565b955050606088013567ffffffffffffffff81111561362857600080fd5b6136348a828b0161329b565b945050608088013567ffffffffffffffff81111561365157600080fd5b61365d8a828b0161329b565b93505060a088013567ffffffffffffffff81111561367a57600080fd5b6136868a828b0161329b565b92505060c088013567ffffffffffffffff8111156136a357600080fd5b6136af8a828b0161329b565b91505092959891949750929550565b6136c781613f31565b82525050565b60006136d882613f2d565b8084526020840193506136ea83613f27565b60005b8281101561371a576137008683516136be565b61370982613f27565b6020969096019591506001016136ed565b5093949350505050565b600061372f82613f2d565b8084526020840193508360208202850161374885613f27565b60005b8481101561377f578383038852613763838351613bc6565b925061376e82613f27565b60209890980197915060010161374b565b50909695505050505050565b600061379682613f2d565b808452602084019350836020820285016137af85613f27565b60005b8481101561377f5783830388526137ca838351613cc9565b92506137d582613f27565b6020989098019791506001016137b2565b60006137f182613f2d565b80845260208401935061380383613f27565b60005b8281101561371a57613819868351613d80565b61382282613f27565b602096909601959150600101613806565b6136c781613f3d565b6136c781613f4e565b600061385082613f2d565b808452613864816020860160208601613f65565b61386d81613f95565b9093016020019392505050565b601a81527f4372656174696f6e204461746520697320696e6d757461626c65000000000000602082015260400190565b601181527f726f6c65206973206d616e6461746f7279000000000000000000000000000000602082015260400190565b602281527f4f6e6c792070656e64696e672075736572732063616e2062652061636365707460208201527f6564000000000000000000000000000000000000000000000000000000000000604082015260600190565b601381527f5573657220616c72656164792065786973747300000000000000000000000000602082015260400190565b601481527f546869732075736572206e6f7420657869737473000000000000000000000000602082015260400190565b601b81527f596f752063616e6e6f7420616363657074207468697320757365720000000000602082015260400190565b602281527f4f6e6c792070656e64696e672075736572732063616e2062652072656a65637460208201527f6564000000000000000000000000000000000000000000000000000000000000604082015260600190565b601381527f737461747573206973206e6f742076616c696400000000000000000000000000602082015260400190565b601581527f4d656d62657220616c7265616479206578697374730000000000000000000000602082015260400190565b601181527f4d656d626572206e6f7420657869737473000000000000000000000000000000602082015260400190565b601281527f5468656d65206973206d616e6461746f72790000000000000000000000000000602082015260400190565b601081527f434d4f206973206d616e6461746f727900000000000000000000000000000000602082015260400190565b601481527f596f7520617265206e6f74206163636570746564000000000000000000000000602082015260400190565b601181527f4e616d65206973206d616e6461746f7279000000000000000000000000000000602082015260400190565b601181527f4e6f2076616c6964206d656d6265724964000000000000000000000000000000602082015260400190565b601981527f4372656174696f6e44617465206973206d616e6461746f727900000000000000602082015260400190565b8051600090610140840190613bdb8582613d80565b506020830151613bee6020860182613d80565b5060408301518482036040860152613c068282613845565b91505060608301518482036060860152613c208282613845565b91505060808301518482036080860152613c3a8282613845565b91505060a083015184820360a0860152613c548282613845565b91505060c083015184820360c0860152613c6e8282613845565b91505060e083015184820360e0860152613c8882826137e6565b915050610100830151848203610100860152613ca482826137e6565b915050610120830151848203610120860152613cc082826136cd565b95945050505050565b8051600090610100840190613cde8582613d80565b5060208301518482036020860152613cf68282613845565b91505060408301518482036040860152613d108282613845565b9150506060830151613d256060860182613d80565b506080830151613d386080860182613d80565b5060a083015184820360a0860152613d508282613845565b91505060c0830151613d6560c086018261383c565b5060e0830151613d7860e08601826136be565b509392505050565b6136c7816116a5565b602080825281016132948184613724565b60208082528101613294818461378b565b60208101610d3a8284613833565b60208082528101610d3a8161387a565b60208082528101610d3a816138aa565b60208082528101610d3a816138da565b60208082528101610d3a81613930565b60208082528101610d3a81613960565b60208082528101610d3a81613990565b60208082528101610d3a816139c0565b60208082528101610d3a81613a16565b60208082528101610d3a81613a46565b60208082528101610d3a81613a76565b60208082528101610d3a81613aa6565b60208082528101610d3a81613ad6565b60208082528101610d3a81613b06565b60208082528101610d3a81613b36565b60208082528101610d3a81613b66565b60208082528101610d3a81613b96565b602080825281016132948184613cc9565b60208101610d3a8284613d80565b60405181810167ffffffffffffffff81118282101715613ef757600080fd5b604052919050565b600067ffffffffffffffff821115613f1657600080fd5b506020601f91909101601f19160190565b60200190565b5190565b600160a060020a031690565b151590565b6000600382106118fb57fe5b6000610d3a82613f42565b82818337506000910152565b60005b83811015613f80578181015183820152602001613f68565b83811115613f8f576000848401525b50505050565b601f01601f1916905600a265627a7a72305820ad0ec89fdfb9d34c1d1ca1e752be443764e06d9591d68fc8d6ed18891071beed6c6578706572696d656e74616cf50037",
  "source": "pragma solidity ^0.4.24;\npragma experimental ABIEncoderV2;\n\nimport \"../../node_modules/solidity-rlp/contracts/RLPReader.sol\";\n//import \"./Users.sol\";\n//import \"./Claims.sol\";\nimport \"./Lib.sol\";\n\ncontract Lib2 is Lib {\n\n  using RLPReader for bytes;\n  using RLPReader for uint;\n  using RLPReader for RLPReader.RLPItem;\n\n//  uint256 constant private PAGE_SIZE = 10;\n\n//  mapping (uint256 => Claim) public claims_;\n//  mapping (uint256 => uint16) maxSplits_;\n\n//  uint256 public claimIdCounter_ = 0;\n  // METHODS\n\n  function updateClaimStatus(uint256 _claimId, bool _claimType, bytes _claimData) internal {\n\n    bool prevStatus = claims_[_claimId].status;\n    RLPReader.RLPItem memory item = _claimData.toRlpItem();\n    RLPReader.RLPItem[] memory itemList = item.toList();  // ((name0, value0), (name, value), (name, value), ...)\n    uint16 split = uint16(itemList[5].toList()[1].toUint());\n    maxSplits_[_claimId]=split;\n    bool tempMaxSplitOnce = true;\n    for(uint256 i = 1; i <= claimIdCounter_; i++) {\n      if (_claimType == claims_[i].claimType && _claimId != i) {\n        if(keccak256(abi.encodePacked(itemList[0].toList()[1].toBytes())) == keccak256(abi.encodePacked(claims_[i].claimData[0].value)) // same ISRC/ISWC\n        && keccak256(abi.encodePacked(itemList[1].toList()[1].toBytes())) == keccak256(abi.encodePacked(claims_[i].claimData[1].value)) // same countries\n        && keccak256(abi.encodePacked(itemList[2].toList()[1].toBytes())) == keccak256(abi.encodePacked(claims_[i].claimData[2].value)) // same startDate\n        && keccak256(abi.encodePacked(itemList[3].toList()[1].toBytes())) == keccak256(abi.encodePacked(claims_[i].claimData[3].value)) // same endDate\n        && keccak256(abi.encodePacked(itemList[4].toList()[1].toBytes())) == keccak256(abi.encodePacked(claims_[i].claimData[4].value)) // same useTypes/rightTypes\n        ){\n          maxSplits_[i]-=split;\n          if (tempMaxSplitOnce) {\n            maxSplits_[_claimId]=maxSplits_[i];\n            tempMaxSplitOnce=false;\n          }\n          if (maxSplits_[i]<=100) {\n            claims_[_claimId].status = false;\n            if (claims_[i].status) {\n              _removeClaimFromInbox(claims_[i].memberOwner, _claimId);\n              claims_[i].status = false;\n            }\n          }\n        }\n      }\n    }\n\n    if (!prevStatus && prevStatus != claims_[_claimId].status) { // if there WAS NO CONFLICT and now there is\n      _addClaimFromInbox(claims_[_claimId].memberOwner, _claimId);\n    } else if (prevStatus && prevStatus != claims_[_claimId].status) { // if there WAS CONFLICT and now there is NOT\n      _removeClaimFromInbox(claims_[_claimId].memberOwner, _claimId);\n    }\n\n    //\n//    uint16 split_i = 0;\n//    bytes b = bytes(claims_[i].claimData[5].value);\n//    for(uint16 j=0;j<b.length;j++){\n//      split_i = uint16(split_i + uint16(b[j])*(2**(8*(b.length-(j+1)))));\n//    }\n//    maxSplits_[_claimId]+=split_i;\n//\n  }\n}\n",
  "sourcePath": "/home/komodo/newUI/bloomen-decentralized-rights-management-v2/truffle/contracts/registry/Lib2.sol",
  "compiler": {
    "name": "solc",
    "version": "0.4.24+commit.e67f0147.Emscripten.clang"
  },
  "schemaVersion": "2.0.1",
  "updatedAt": "2019-11-15T07:32:35.829Z"
}