{
  "contractName": "Lib3",
  "abi": [
    {
      "constant": false,
      "inputs": [
        {
          "name": "_userToAccept",
          "type": "address"
        }
      ],
      "name": "acceptUser",
      "outputs": [],
      "payable": false,
      "stateMutability": "nonpayable",
      "type": "function"
    },
    {
      "constant": true,
      "inputs": [],
      "name": "getClaimsCountByMemberId",
      "outputs": [
        {
          "name": "",
          "type": "uint256"
        }
      ],
      "payable": false,
      "stateMutability": "view",
      "type": "function"
    },
    {
      "constant": false,
      "inputs": [
        {
          "name": "_userToReject",
          "type": "address"
        }
      ],
      "name": "rejectUser",
      "outputs": [],
      "payable": false,
      "stateMutability": "nonpayable",
      "type": "function"
    },
    {
      "constant": true,
      "inputs": [
        {
          "name": "_claimId",
          "type": "uint256"
        }
      ],
      "name": "getClaim",
      "outputs": [
        {
          "components": [
            {
              "name": "creationDate",
              "type": "uint256"
            },
            {
              "name": "claimId",
              "type": "uint256"
            },
            {
              "components": [
                {
                  "name": "name",
                  "type": "string"
                },
                {
                  "name": "value",
                  "type": "string"
                }
              ],
              "name": "claimData",
              "type": "tuple[]"
            },
            {
              "name": "claimType",
              "type": "bool"
            },
            {
              "name": "memberOwner",
              "type": "uint256"
            },
            {
              "name": "status",
              "type": "bool"
            },
            {
              "name": "lastChange",
              "type": "uint256"
            }
          ],
          "name": "",
          "type": "tuple"
        }
      ],
      "payable": false,
      "stateMutability": "view",
      "type": "function"
    },
    {
      "constant": true,
      "inputs": [
        {
          "name": "_page",
          "type": "uint256"
        }
      ],
      "name": "getUsers",
      "outputs": [
        {
          "components": [
            {
              "name": "creationDate",
              "type": "uint256"
            },
            {
              "name": "firstName",
              "type": "string"
            },
            {
              "name": "lastName",
              "type": "string"
            },
            {
              "name": "memberId",
              "type": "uint256"
            },
            {
              "name": "requestId",
              "type": "uint256"
            },
            {
              "name": "role",
              "type": "string"
            },
            {
              "name": "status",
              "type": "uint8"
            },
            {
              "name": "owner",
              "type": "address"
            }
          ],
          "name": "",
          "type": "tuple[]"
        }
      ],
      "payable": false,
      "stateMutability": "view",
      "type": "function"
    },
    {
      "constant": false,
      "inputs": [
        {
          "name": "_memberId",
          "type": "uint256"
        },
        {
          "name": "_creationDate",
          "type": "uint256"
        },
        {
          "name": "_name",
          "type": "string"
        },
        {
          "name": "_logo",
          "type": "string"
        },
        {
          "name": "_country",
          "type": "string"
        },
        {
          "name": "_cmo",
          "type": "string"
        },
        {
          "name": "_theme",
          "type": "string"
        }
      ],
      "name": "updateMember",
      "outputs": [],
      "payable": false,
      "stateMutability": "nonpayable",
      "type": "function"
    },
    {
      "constant": true,
      "inputs": [
        {
          "name": "userAddress",
          "type": "address"
        }
      ],
      "name": "getUserByAddress",
      "outputs": [
        {
          "components": [
            {
              "name": "creationDate",
              "type": "uint256"
            },
            {
              "name": "firstName",
              "type": "string"
            },
            {
              "name": "lastName",
              "type": "string"
            },
            {
              "name": "memberId",
              "type": "uint256"
            },
            {
              "name": "requestId",
              "type": "uint256"
            },
            {
              "name": "role",
              "type": "string"
            },
            {
              "name": "status",
              "type": "uint8"
            },
            {
              "name": "owner",
              "type": "address"
            }
          ],
          "name": "",
          "type": "tuple"
        }
      ],
      "payable": false,
      "stateMutability": "view",
      "type": "function"
    },
    {
      "constant": true,
      "inputs": [
        {
          "name": "account",
          "type": "address"
        }
      ],
      "name": "isSigner",
      "outputs": [
        {
          "name": "",
          "type": "bool"
        }
      ],
      "payable": false,
      "stateMutability": "view",
      "type": "function"
    },
    {
      "constant": true,
      "inputs": [],
      "name": "getUsersOwner",
      "outputs": [
        {
          "components": [
            {
              "name": "creationDate",
              "type": "uint256"
            },
            {
              "name": "firstName",
              "type": "string"
            },
            {
              "name": "lastName",
              "type": "string"
            },
            {
              "name": "memberId",
              "type": "uint256"
            },
            {
              "name": "requestId",
              "type": "uint256"
            },
            {
              "name": "role",
              "type": "string"
            },
            {
              "name": "status",
              "type": "uint8"
            },
            {
              "name": "owner",
              "type": "address"
            }
          ],
          "name": "",
          "type": "tuple[]"
        }
      ],
      "payable": false,
      "stateMutability": "view",
      "type": "function"
    },
    {
      "constant": true,
      "inputs": [],
      "name": "getMembers",
      "outputs": [
        {
          "components": [
            {
              "name": "memberId",
              "type": "uint256"
            },
            {
              "name": "creationDate",
              "type": "uint256"
            },
            {
              "name": "name",
              "type": "string"
            },
            {
              "name": "logo",
              "type": "string"
            },
            {
              "name": "country",
              "type": "string"
            },
            {
              "name": "cmo",
              "type": "string"
            },
            {
              "name": "theme",
              "type": "string"
            },
            {
              "name": "claimInbox",
              "type": "uint256[]"
            },
            {
              "name": "claims",
              "type": "uint256[]"
            },
            {
              "name": "userRequests",
              "type": "address[]"
            }
          ],
          "name": "",
          "type": "tuple[]"
        }
      ],
      "payable": false,
      "stateMutability": "view",
      "type": "function"
    },
    {
      "constant": true,
      "inputs": [],
      "name": "getcountUsers",
      "outputs": [
        {
          "name": "",
          "type": "uint256"
        }
      ],
      "payable": false,
      "stateMutability": "view",
      "type": "function"
    },
    {
      "constant": false,
      "inputs": [
        {
          "name": "_creationDate",
          "type": "uint256"
        },
        {
          "name": "_firstName",
          "type": "string"
        },
        {
          "name": "_lastName",
          "type": "string"
        },
        {
          "name": "_role",
          "type": "string"
        },
        {
          "name": "_memberId",
          "type": "uint256"
        }
      ],
      "name": "registerUserRequest",
      "outputs": [],
      "payable": false,
      "stateMutability": "nonpayable",
      "type": "function"
    },
    {
      "constant": true,
      "inputs": [],
      "name": "getCount",
      "outputs": [
        {
          "name": "",
          "type": "uint256"
        }
      ],
      "payable": false,
      "stateMutability": "view",
      "type": "function"
    },
    {
      "constant": false,
      "inputs": [
        {
          "name": "_creationDate",
          "type": "uint256"
        },
        {
          "name": "_claimData",
          "type": "bytes"
        },
        {
          "name": "_claimType",
          "type": "bool"
        },
        {
          "name": "_memberOwner",
          "type": "uint256"
        },
        {
          "name": "reg_update",
          "type": "bool"
        },
        {
          "name": "_claimId",
          "type": "uint256"
        },
        {
          "name": "_oldClaimData",
          "type": "bytes"
        },
        {
          "name": "_lastChange",
          "type": "uint256"
        }
      ],
      "name": "computeClaim",
      "outputs": [],
      "payable": false,
      "stateMutability": "nonpayable",
      "type": "function"
    },
    {
      "constant": true,
      "inputs": [
        {
          "name": "_page",
          "type": "uint256"
        }
      ],
      "name": "getClaimsByMemberId",
      "outputs": [
        {
          "components": [
            {
              "name": "creationDate",
              "type": "uint256"
            },
            {
              "name": "claimId",
              "type": "uint256"
            },
            {
              "components": [
                {
                  "name": "name",
                  "type": "string"
                },
                {
                  "name": "value",
                  "type": "string"
                }
              ],
              "name": "claimData",
              "type": "tuple[]"
            },
            {
              "name": "claimType",
              "type": "bool"
            },
            {
              "name": "memberOwner",
              "type": "uint256"
            },
            {
              "name": "status",
              "type": "bool"
            },
            {
              "name": "lastChange",
              "type": "uint256"
            }
          ],
          "name": "",
          "type": "tuple[]"
        }
      ],
      "payable": false,
      "stateMutability": "view",
      "type": "function"
    },
    {
      "constant": true,
      "inputs": [],
      "name": "getMe",
      "outputs": [
        {
          "components": [
            {
              "name": "creationDate",
              "type": "uint256"
            },
            {
              "name": "firstName",
              "type": "string"
            },
            {
              "name": "lastName",
              "type": "string"
            },
            {
              "name": "memberId",
              "type": "uint256"
            },
            {
              "name": "requestId",
              "type": "uint256"
            },
            {
              "name": "role",
              "type": "string"
            },
            {
              "name": "status",
              "type": "uint8"
            },
            {
              "name": "owner",
              "type": "address"
            }
          ],
          "name": "",
          "type": "tuple"
        }
      ],
      "payable": false,
      "stateMutability": "view",
      "type": "function"
    },
    {
      "constant": true,
      "inputs": [
        {
          "name": "_page",
          "type": "uint256"
        }
      ],
      "name": "getMembers",
      "outputs": [
        {
          "components": [
            {
              "name": "memberId",
              "type": "uint256"
            },
            {
              "name": "creationDate",
              "type": "uint256"
            },
            {
              "name": "name",
              "type": "string"
            },
            {
              "name": "logo",
              "type": "string"
            },
            {
              "name": "country",
              "type": "string"
            },
            {
              "name": "cmo",
              "type": "string"
            },
            {
              "name": "theme",
              "type": "string"
            },
            {
              "name": "claimInbox",
              "type": "uint256[]"
            },
            {
              "name": "claims",
              "type": "uint256[]"
            },
            {
              "name": "userRequests",
              "type": "address[]"
            }
          ],
          "name": "",
          "type": "tuple[]"
        }
      ],
      "payable": false,
      "stateMutability": "view",
      "type": "function"
    },
    {
      "constant": false,
      "inputs": [],
      "name": "renounceSigner",
      "outputs": [],
      "payable": false,
      "stateMutability": "nonpayable",
      "type": "function"
    },
    {
      "constant": false,
      "inputs": [
        {
          "name": "account",
          "type": "address"
        }
      ],
      "name": "addSigner",
      "outputs": [],
      "payable": false,
      "stateMutability": "nonpayable",
      "type": "function"
    },
    {
      "constant": false,
      "inputs": [
        {
          "name": "_creationDate",
          "type": "uint256"
        },
        {
          "name": "_name",
          "type": "string"
        },
        {
          "name": "_logo",
          "type": "string"
        },
        {
          "name": "_country",
          "type": "string"
        },
        {
          "name": "_cmo",
          "type": "string"
        },
        {
          "name": "_theme",
          "type": "string"
        }
      ],
      "name": "addMember",
      "outputs": [
        {
          "name": "",
          "type": "uint256"
        }
      ],
      "payable": false,
      "stateMutability": "nonpayable",
      "type": "function"
    },
    {
      "constant": false,
      "inputs": [
        {
          "name": "_firstName",
          "type": "string"
        },
        {
          "name": "_lastName",
          "type": "string"
        },
        {
          "name": "_memberId",
          "type": "uint256"
        },
        {
          "name": "_role",
          "type": "string"
        },
        {
          "name": "owner",
          "type": "address"
        }
      ],
      "name": "updateUser",
      "outputs": [],
      "payable": false,
      "stateMutability": "nonpayable",
      "type": "function"
    },
    {
      "constant": false,
      "inputs": [
        {
          "name": "account",
          "type": "address"
        }
      ],
      "name": "whitelistAdmin",
      "outputs": [],
      "payable": false,
      "stateMutability": "nonpayable",
      "type": "function"
    },
    {
      "anonymous": false,
      "inputs": [
        {
          "indexed": true,
          "name": "account",
          "type": "address"
        }
      ],
      "name": "SignerAdded",
      "type": "event"
    },
    {
      "anonymous": false,
      "inputs": [
        {
          "indexed": true,
          "name": "account",
          "type": "address"
        }
      ],
      "name": "SignerRemoved",
      "type": "event"
    },
    {
      "constant": false,
      "inputs": [
        {
          "name": "_claimId",
          "type": "uint256"
        },
        {
          "name": "_claimType",
          "type": "bool"
        },
        {
          "name": "_claimData",
          "type": "bytes"
        }
      ],
      "name": "deleteClaim",
      "outputs": [],
      "payable": false,
      "stateMutability": "nonpayable",
      "type": "function"
    }
  ],
  "bytecode": "0x608060405260006008556200001d3364010000000062000023810204565b62000108565b6200003e600082640100000000620043936200007582021704565b604051600160a060020a038216907f47d1c22a25bb3a5d4e481b9b1e6944c2eade3181a0a20b495ed61d35b5323f2490600090a250565b600160a060020a03811615156200008b57600080fd5b620000a08282640100000000620000d0810204565b15620000ab57600080fd5b600160a060020a0316600090815260209190915260409020805460ff19166001179055565b6000600160a060020a0382161515620000e857600080fd5b50600160a060020a03166000908152602091909152604090205460ff1690565b615cb180620001186000396000f3006080604052600436106101325763ffffffff7c010000000000000000000000000000000000000000000000000000000060003504166308bdc24d81146101375780631be8850b146101595780634dc92885146101845780635aef2447146101a45780635d73ab9a146101d157806365ff0c48146101fe57806369c212f61461021e5780637df73e271461024b578063932191be146102785780639eab52531461028d578063a4fdc594146102af578063a7ed1fe4146102c4578063a87d942c146102e4578063aa5b3a06146102f9578063b6bc381214610319578063c11e1ff314610346578063c477ecab1461035b578063d979fd4e1461037b578063e5c8b03d1461039b578063eb12d61e146103b0578063fa1188c6146103d0578063fcfbde5b146103f0578063ff240fce14610410575b600080fd5b34801561014357600080fd5b50610157610152366004614c77565b610430565b005b34801561016557600080fd5b5061016e6105cc565b60405161017b9190615ba2565b60405180910390f35b34801561019057600080fd5b5061015761019f366004614c77565b6105e9565b3480156101b057600080fd5b506101c46101bf366004614d59565b61074d565b60405161017b9190615b80565b3480156101dd57600080fd5b506101f16101ec366004614d59565b61094c565b60405161017b9190615a41565b34801561020a57600080fd5b5061015761021936600461506b565b610d27565b34801561022a57600080fd5b5061023e610239366004614c77565b610db6565b60405161017b9190615b91565b34801561025757600080fd5b5061026b610266366004614c77565b61100a565b60405161017b9190615a52565b34801561028457600080fd5b506101f1611022565b34801561029957600080fd5b506102a2611313565b60405161017b9190615a30565b3480156102bb57600080fd5b5061016e6117da565b3480156102d057600080fd5b506101576102df366004614fbb565b61189f565b3480156102f057600080fd5b5061016e611966565b34801561030557600080fd5b50610157610314366004614ddc565b611984565b34801561032557600080fd5b50610339610334366004614d59565b611a7e565b60405161017b9190615a1f565b34801561035257600080fd5b5061023e611d80565b34801561036757600080fd5b506102a2610376366004614d59565b611e11565b34801561038757600080fd5b50610157610396366004614d77565b61232c565b3480156103a757600080fd5b5061015761233e565b3480156103bc57600080fd5b506101576103cb366004614c77565b612349565b3480156103dc57600080fd5b5061016e6103eb366004614ebc565b612366565b3480156103fc57600080fd5b5061015761040b366004614c9d565b6123f5565b34801561041c57600080fd5b5061015761042b366004614c77565b6124d9565b600160a060020a0381811660009081526003602052604081206006015461010090049091161161047e5760405160e560020a62461bcd02815260040161047590615aa0565b60405180910390fd5b600160a060020a03811660009081526003602081905260408083208201543384529220015414806104b357506104b33361100a565b15156104d45760405160e560020a62461bcd02815260040161047590615ab0565b60023360009081526003602052604090206006015460ff1660028111156104f757fe5b148061050757506105073361100a565b15156105285760405160e560020a62461bcd02815260040161047590615b40565b6001600160a060020a03821660009081526003602052604090206006015460ff16600281111561055457fe5b146105745760405160e560020a62461bcd02815260040161047590615a80565b600160a060020a038116600090815260036020526040902060060180546002919060ff19166001835b0217905550600160a060020a038116600090815260036020819052604090912001546105c990826125ad565b50565b6000806105d761271c565b90506105e281612733565b91505b5090565b600160a060020a0381811660009081526003602052604081206006015461010090049091161161062e5760405160e560020a62461bcd02815260040161047590615aa0565b600160a060020a038116600090815260036020819052604080832082015433845292200154148061066357506106633361100a565b15156106845760405160e560020a62461bcd02815260040161047590615ab0565b60023360009081526003602052604090206006015460ff1660028111156106a757fe5b14806106b757506106b73361100a565b15156106d85760405160e560020a62461bcd02815260040161047590615b40565b6001600160a060020a03821660009081526003602052604090206006015460ff16600281111561070457fe5b146107245760405160e560020a62461bcd02815260040161047590615ac0565b600160a060020a0381166000908152600360205260408120600601805460ff191660018361059d565b6107556148d3565b6006600083815260200190815260200160002060e06040519081016040529081600082015481526020016001820154815260200160028201805480602002602001604051908101604052809291908181526020016000905b8282101561090b5760008481526020908190206040805160028681029093018054600181161561010002600019011693909304601f8101859004909402810160609081018352918101848152909384928491908401828280156108515780601f1061082657610100808354040283529160200191610851565b820191906000526020600020905b81548152906001019060200180831161083457829003601f168201915b50505050508152602001600182018054600181600116156101000203166002900480601f0160208091040260200160405190810160405280929190818152602001828054600181600116156101000203166002900480156108f35780601f106108c8576101008083540402835291602001916108f3565b820191906000526020600020905b8154815290600101906020018083116108d657829003601f168201915b505050505081525050815260200190600101906107ad565b50505090825250600382015460ff90811615156020830152600483015460408301526005830154161515606082015260069091015460809091015292915050565b6060600080600060606000806109606117da565b955061096d600a89612748565b60045490955061097e90600a612781565b935085158061098c57508585115b8061099657508388115b156109a057610d1c565b60408051600a808252610160820190925290816020015b6109bf614915565b8152602001906001900390816109b7579050509250600091508490505b600454811015610d185733600090815260036020819052604082208101546004805491939185908110610a0b57fe5b6000918252602080832090910154600160a060020a03168352820192909252604001902060030154148015610a885750600260036000600484815481101515610a5057fe5b6000918252602080832090910154600160a060020a0316835282019290925260400190206006015460ff166002811115610a8657fe5b145b15610d105760036000600483815481101515610aa057fe5b600091825260208083209190910154600160a060020a0316835282810193909352604091820190208151610100808201845282548252600180840180548651600293821615909402600019011691909104601f81018790048702830187019095528482529194929385840193919291830182828015610b605780601f10610b3557610100808354040283529160200191610b60565b820191906000526020600020905b815481529060010190602001808311610b4357829003601f168201915b5050509183525050600282810180546040805160206001841615610100026000190190931694909404601f81018390048302850183019091528084529381019390830182828015610bf25780601f10610bc757610100808354040283529160200191610bf2565b820191906000526020600020905b815481529060010190602001808311610bd557829003601f168201915b505050505081526020016003820154815260200160048201548152602001600582018054600181600116156101000203166002900480601f016020809104026020016040519081016040528092919081815260200182805460018160011615610100020316600290048015610ca85780601f10610c7d57610100808354040283529160200191610ca8565b820191906000526020600020905b815481529060010190602001808311610c8b57829003601f168201915b5050509183525050600682015460209091019060ff166002811115610cc957fe5b6002811115610cd457fe5b8152600691909101546101009004600160a060020a03166020909101528351849084908110610cff57fe5b602090810290910101526001909101905b6001016109dc565b8296505b505050505050919050565b610d303361100a565b1515610d3b57600080fd5b60008781526001602052604081205411610d6a5760405160e560020a62461bcd02815260040161047590615b10565b600087815260016020819052604090912001548614610d9e5760405160e560020a62461bcd02815260040161047590615a60565b610dad878787878787876127a4565b50505050505050565b610dbe614915565b600160a060020a0382166000908152600360209081526040918290208251610100808201855282548252600180840180548751600293821615909402600019011691909104601f8101869004860283018601909652858252919492938581019391929190830182828015610e735780601f10610e4857610100808354040283529160200191610e73565b820191906000526020600020905b815481529060010190602001808311610e5657829003601f168201915b5050509183525050600282810180546040805160206001841615610100026000190190931694909404601f81018390048302850183019091528084529381019390830182828015610f055780601f10610eda57610100808354040283529160200191610f05565b820191906000526020600020905b815481529060010190602001808311610ee857829003601f168201915b505050505081526020016003820154815260200160048201548152602001600582018054600181600116156101000203166002900480601f016020809104026020016040519081016040528092919081815260200182805460018160011615610100020316600290048015610fbb5780601f10610f9057610100808354040283529160200191610fbb565b820191906000526020600020905b815481529060010190602001808311610f9e57829003601f168201915b5050509183525050600682015460209091019060ff166002811115610fdc57fe5b6002811115610fe757fe5b8152600691909101546101009004600160a060020a031660209091015292915050565b600061101c818363ffffffff612d9d16565b92915050565b60608060006110303361100a565b151561103b57600080fd5b60045460408051828152602080840282010190915290801561107757816020015b611064614915565b81526020019060019003908161105c5790505b509150600090505b60045481101561130d576003600060048381548110151561109c57fe5b600091825260208083209190910154600160a060020a0316835282810193909352604091820190208151610100808201845282548252600180840180548651600293821615909402600019011691909104601f8101879004870283018701909552848252919492938584019391929183018282801561115c5780601f106111315761010080835404028352916020019161115c565b820191906000526020600020905b81548152906001019060200180831161113f57829003601f168201915b5050509183525050600282810180546040805160206001841615610100026000190190931694909404601f810183900483028501830190915280845293810193908301828280156111ee5780601f106111c3576101008083540402835291602001916111ee565b820191906000526020600020905b8154815290600101906020018083116111d157829003601f168201915b505050505081526020016003820154815260200160048201548152602001600582018054600181600116156101000203166002900480601f0160208091040260200160405190810160405280929190818152602001828054600181600116156101000203166002900480156112a45780601f10611279576101008083540402835291602001916112a4565b820191906000526020600020905b81548152906001019060200180831161128757829003601f168201915b5050509183525050600682015460209091019060ff1660028111156112c557fe5b60028111156112d057fe5b8152600691909101546101009004600160a060020a031660209091015282518390839081106112fb57fe5b6020908102909101015260010161107f565b50919050565b606080600060028054905060405190808252806020026020018201604052801561135757816020015b611344614966565b81526020019060019003908161133c5790505b509150600090505b60025481101561130d576001600060028381548110151561137c57fe5b9060005260206000200154815260200190815260200160002061014060405190810160405290816000820154815260200160018201548152602001600282018054600181600116156101000203166002900480601f01602080910402602001604051908101604052809291908181526020018280546001816001161561010002031660029004801561144f5780601f106114245761010080835404028352916020019161144f565b820191906000526020600020905b81548152906001019060200180831161143257829003601f168201915b505050918352505060038201805460408051602060026001851615610100026000190190941693909304601f81018490048402820184019092528181529382019392918301828280156114e35780601f106114b8576101008083540402835291602001916114e3565b820191906000526020600020905b8154815290600101906020018083116114c657829003601f168201915b505050918352505060048201805460408051602060026001851615610100026000190190941693909304601f81018490048402820184019092528181529382019392918301828280156115775780601f1061154c57610100808354040283529160200191611577565b820191906000526020600020905b81548152906001019060200180831161155a57829003601f168201915b505050918352505060058201805460408051602060026001851615610100026000190190941693909304601f810184900484028201840190925281815293820193929183018282801561160b5780601f106115e05761010080835404028352916020019161160b565b820191906000526020600020905b8154815290600101906020018083116115ee57829003601f168201915b505050918352505060068201805460408051602060026001851615610100026000190190941693909304601f810184900484028201840190925281815293820193929183018282801561169f5780601f106116745761010080835404028352916020019161169f565b820191906000526020600020905b81548152906001019060200180831161168257829003601f168201915b50505050508152602001600782018054806020026020016040519081016040528092919081815260200182805480156116f757602002820191906000526020600020905b8154815260200190600101908083116116e3575b505050505081526020016008820180548060200260200160405190810160405280929190818152602001828054801561174f57602002820191906000526020600020905b81548152602001906001019080831161173b575b50505050508152602001600982018054806020026020016040519081016040528092919081815260200182805480156117b157602002820191906000526020600020905b8154600160a060020a03168152600190910190602001808311611793575b50505050508152505082828151811015156117c857fe5b6020908102909101015260010161135f565b600080805b60045481101561130d573360009081526003602081905260408220810154600480549193918590811061180e57fe5b6000918252602080832090910154600160a060020a0316835282019290925260400190206003015414801561188b575060026003600060048481548110151561185357fe5b6000918252602080832090910154600160a060020a0316835282019290925260400190206006015460ff16600281111561188957fe5b145b15611897576001909101905b6001016117df565b60008115156118c35760405160e560020a62461bcd02815260040161047590615b60565b600086116118e65760405160e560020a62461bcd02815260040161047590615b70565b33600090815260036020526040902054156119165760405160e560020a62461bcd02815260040161047590615a90565b61191f82612dd4565b15156119405760405160e560020a62461bcd02815260040161047590615b10565b61194986612de7565b905061195e8686868585886001336000612fd7565b505050505050565b60006119713361100a565b151561197c57600080fd5b506002545b90565b83156119f757600880546001019081905592506119a085612dd4565b15156119c15760405160e560020a62461bcd02815260040161047590615af0565b6119c961271c565b94506119db838989898960008e61342b565b6119e585846135a6565b6119f283878960016135cb565b611a74565b600083815260066020526040812060030154611a1a91859160ff169085906135cb565b600083815260066020526040902060030154611a3d90849060ff168960016135cb565b6000838152600660205260409020805460038201546004830154600590930154611a74938793928c9260ff9182169291168761342b565b5050505050505050565b6060600080600080606080600080611a97600a8b612748565b9750611aa161271c565b9650611aac87612733565b9550611ab986600a612781565b9450851580611aca57506001860388115b80611ad45750848a115b15611ade57611d73565b611ae787613c0a565b60408051600a8082526101608201909252919550816020015b611b086148d3565b815260200190600190039081611b00579050509250600091508790505b8351811015611d6f57600a821015611d6257600660008583815181101515611b4957fe5b90602001906020020151815260200190815260200160002060e06040519081016040529081600082015481526020016001820154815260200160028201805480602002602001604051908101604052809291908181526020016000905b82821015611d045760008481526020908190206040805160028681029093018054600181161561010002600019011693909304601f810185900490940281016060908101835291810184815290938492849190840182828015611c4a5780601f10611c1f57610100808354040283529160200191611c4a565b820191906000526020600020905b815481529060010190602001808311611c2d57829003601f168201915b50505050508152602001600182018054600181600116156101000203166002900480601f016020809104026020016040519081016040528092919081815260200182805460018160011615610100020316600290048015611cec5780601f10611cc157610100808354040283529160200191611cec565b820191906000526020600020905b815481529060010190602001808311611ccf57829003601f168201915b50505050508152505081526020019060010190611ba6565b50505090825250600382015460ff9081161515602083015260048301546040830152600583015416151560608201526006909101546080909101528351849084908110611d4d57fe5b60209081029091010152600190910190611d67565b611d6f565b600101611b25565b8298505b5050505050505050919050565b611d88614915565b611d90614915565b336000908152600360209081526040918290208251610100808201855282548252600180840180548751600293821615909402600019011691909104601f8101869004860283018601909652858252919492938581019391929190830182828015610e735780601f10610e4857610100808354040283529160200191610e73565b6060600080600060606000611e27600a88612748565b600254909550611e3890600a612781565b6002549094501580611e4f57506002546000190185115b80611e5957508387115b15611e6357612322565b60408051600a80825261016082019092526000945090816020015b611e86614966565b815260200190600190039081611e7e5790505091508490505b60025481101561231e5760016000600283815481101515611ebc57fe5b9060005260206000200154815260200190815260200160002061014060405190810160405290816000820154815260200160018201548152602001600282018054600181600116156101000203166002900480601f016020809104026020016040519081016040528092919081815260200182805460018160011615610100020316600290048015611f8f5780601f10611f6457610100808354040283529160200191611f8f565b820191906000526020600020905b815481529060010190602001808311611f7257829003601f168201915b505050918352505060038201805460408051602060026001851615610100026000190190941693909304601f81018490048402820184019092528181529382019392918301828280156120235780601f10611ff857610100808354040283529160200191612023565b820191906000526020600020905b81548152906001019060200180831161200657829003601f168201915b505050918352505060048201805460408051602060026001851615610100026000190190941693909304601f81018490048402820184019092528181529382019392918301828280156120b75780601f1061208c576101008083540402835291602001916120b7565b820191906000526020600020905b81548152906001019060200180831161209a57829003601f168201915b505050918352505060058201805460408051602060026001851615610100026000190190941693909304601f810184900484028201840190925281815293820193929183018282801561214b5780601f106121205761010080835404028352916020019161214b565b820191906000526020600020905b81548152906001019060200180831161212e57829003601f168201915b505050918352505060068201805460408051602060026001851615610100026000190190941693909304601f81018490048402820184019092528181529382019392918301828280156121df5780601f106121b4576101008083540402835291602001916121df565b820191906000526020600020905b8154815290600101906020018083116121c257829003601f168201915b505050505081526020016007820180548060200260200160405190810160405280929190818152602001828054801561223757602002820191906000526020600020905b815481526020019060010190808311612223575b505050505081526020016008820180548060200260200160405190810160405280929190818152602001828054801561228f57602002820191906000526020600020905b81548152602001906001019080831161227b575b50505050508152602001600982018054806020026020016040519081016040528092919081815260200182805480156122f157602002820191906000526020600020905b8154600160a060020a031681526001909101906020018083116122d3575b505050505081525050828481518110151561230857fe5b6020908102909101015260019283019201611e9f565b8195505b5050505050919050565b61233983838360006135cb565b505050565b61234733613c9f565b565b6123523361100a565b151561235d57600080fd5b6105c981613ce7565b6000806123723361100a565b151561237d57600080fd5b600088116123a05760405160e560020a62461bcd02815260040161047590615b70565b6123a988612de7565b600081815260016020526040902054909150156123db5760405160e560020a62461bcd02815260040161047590615b00565b6123ea818989898989896127a4565b979650505050505050565b600160a060020a038181166000908152600360205260408120600601549091829182916101009091041681106124405760405160e560020a62461bcd02815260040161047590615aa0565b6002600160a060020a03851660009081526003602052604090206006015460ff16600281111561246c57fe5b1461248c5760405160e560020a62461bcd02815260040161047590615b40565b600160a060020a03841660009081526003602052604090206004810154815460069092015490945090925060ff1660028111156124c557fe5b9050611a7482898989878a878b6001612fd7565b6124e23361100a565b15156124ed57600080fd5b600160a060020a0381166000908152600360208190526040909120015461251490826125ad565b604080518082018252600b81527f53757065722061646d696e0000000000000000000000000000000000000000006020808301918252600160a060020a0385166000908152600390915292909220905161257492600590920191906149ba565b50600160a060020a0381166000908152600360208190526040822090810191909155600601805460ff191660021790556105c981612349565b6000805b600084815260016020526040902060090154600019018110156126ad5760008481526001602052604090206009018054600160a060020a0385169190839081106125f757fe5b600091825260209091200154600160a060020a0316141561261757600191505b81156126a557600084815260016020819052604090912060090180549091830190811061264057fe5b6000918252602080832090910154868352600190915260409091206009018054600160a060020a03909216918390811061267657fe5b9060005260206000200160006101000a815481600160a060020a030219169083600160a060020a031602179055505b6001016125b1565b6000848152600160205260409020600901805460001981019081106126ce57fe5b60009182526020808320909101805473ffffffffffffffffffffffffffffffffffffffff191690558582526001905260409020600901805490612715906000198301614a34565b5050505050565b336000908152600360208190526040909120015490565b60009081526001602052604090206008015490565b60008083151561275b576000915061277a565b5082820282848281151561276b57fe5b041461277657600080fd5b8091505b5092915050565b60008080831161279057600080fd5b828481151561279b57fe5b04949350505050565b6127ac614966565b855115156127cf5760405160e560020a62461bcd02815260040161047590615b50565b825115156127f25760405160e560020a62461bcd02815260040161047590615b30565b815115156128155760405160e560020a62461bcd02815260040161047590615b20565b6000888152600160208181526040928390208351610140810185528154815281840154818401526002808301805487519681161561010002600019011691909104601f8101859004850286018501875280865291959294928601939091908301828280156128c45780601f10612899576101008083540402835291602001916128c4565b820191906000526020600020905b8154815290600101906020018083116128a757829003601f168201915b505050918352505060038201805460408051602060026001851615610100026000190190941693909304601f81018490048402820184019092528181529382019392918301828280156129585780601f1061292d57610100808354040283529160200191612958565b820191906000526020600020905b81548152906001019060200180831161293b57829003601f168201915b505050918352505060048201805460408051602060026001851615610100026000190190941693909304601f81018490048402820184019092528181529382019392918301828280156129ec5780601f106129c1576101008083540402835291602001916129ec565b820191906000526020600020905b8154815290600101906020018083116129cf57829003601f168201915b505050918352505060058201805460408051602060026001851615610100026000190190941693909304601f8101849004840282018401909252818152938201939291830182828015612a805780601f10612a5557610100808354040283529160200191612a80565b820191906000526020600020905b815481529060010190602001808311612a6357829003601f168201915b505050918352505060068201805460408051602060026001851615610100026000190190941693909304601f8101849004840282018401909252818152938201939291830182828015612b145780601f10612ae957610100808354040283529160200191612b14565b820191906000526020600020905b815481529060010190602001808311612af757829003601f168201915b5050505050815260200160078201805480602002602001604051908101604052809291908181526020018280548015612b6c57602002820191906000526020600020905b815481526020019060010190808311612b58575b5050505050815260200160088201805480602002602001604051908101604052809291908181526020018280548015612bc457602002820191906000526020600020905b815481526020019060010190808311612bb0575b5050505050815260200160098201805480602002602001604051908101604052809291908181526020018280548015612c2657602002820191906000526020600020905b8154600160a060020a03168152600190910190602001808311612c08575b50505091909252505050888152602080820189815260408084018a8152606085018a90526080850189905260a0850188905260c0850187905260008d815260018086529290208551815592519183019190915551805193945084939192612c95926002850192909101906149ba565b5060608201518051612cb19160038401916020909101906149ba565b5060808201518051612ccd9160048401916020909101906149ba565b5060a08201518051612ce99160058401916020909101906149ba565b5060c08201518051612d059160068401916020909101906149ba565b5060e08201518051612d21916007840191602090910190614a58565b506101008201518051612d3e916008840191602090910190614a58565b506101208201518051612d5b916009840191602090910190614a92565b5050600280546001810182556000919091527f405787fa12a823e0f2b7631cc41b3ba8828b3321ca811111fa75cd3aa3bb5ace01989098555050505050505050565b6000600160a060020a0382161515612db457600080fd5b50600160a060020a03166000908152602091909152604090205460ff1690565b6000908152600160205260408120541190565b6000808080600285061515612e795784604051602001808281526020019150506040516020818303038152906040526040518082805190602001908083835b60208310612e455780518252601f199092019160209182019101612e26565b6001836020036101000a03801982511681845116808217855250505050505090500191505060405180910390209250612f64565b84604051602001808281526020019150506040516020818303038152906040526040518082805190602001908083835b60208310612ec85780518252601f199092019160209182019101612ea9565b51815160209384036101000a600019018019909216911617905260408051929094018290038220828201528351808303820181529184019384905281519195509293508392850191508083835b60208310612f345780518252601f199092019160209182019101612f15565b6001836020036101000a038019825116818451168082178552505050505050905001915050604051809103902092505b6020811015612f9157828160208110612f7957fe5b60f860020a91901a8102049190910190600101612f64565b826020600284010660208110612fa357fe5b60f860020a91901a810204836020840660208110612fbd57fe5b1a60f860020a0260f860020a90040293505b505050919050565b612fdf614915565b600084101580612ff0575060028411155b15156130115760405160e560020a62461bcd02815260040161047590615ad0565b845115156130345760405160e560020a62461bcd02815260040161047590615a70565b600160a060020a0383166000908152600360209081526040918290208251610100808201855282548252600180840180548751600293821615909402600019011691909104601f81018690048602830186019096528582529194929385810193919291908301828280156130e95780601f106130be576101008083540402835291602001916130e9565b820191906000526020600020905b8154815290600101906020018083116130cc57829003601f168201915b5050509183525050600282810180546040805160206001841615610100026000190190931694909404601f8101839004830285018301909152808452938101939083018282801561317b5780601f106131505761010080835404028352916020019161317b565b820191906000526020600020905b81548152906001019060200180831161315e57829003601f168201915b505050505081526020016003820154815260200160048201548152602001600582018054600181600116156101000203166002900480601f0160208091040260200160405190810160405280929190818152602001828054600181600116156101000203166002900480156132315780601f1061320657610100808354040283529160200191613231565b820191906000526020600020905b81548152906001019060200180831161321457829003601f168201915b5050509183525050600682015460209091019060ff16600281111561325257fe5b600281111561325d57fe5b8152600691909101546101009004600160a060020a03166020918201528b825281018a905260408101899052606081018890526080810187905260a0810186905290508360028111156132ac57fe5b8160c0019060028111156132bc57fe5b908160028111156132c957fe5b905250600160a060020a03831660e08201819052600090815260036020908152604090912082518155818301518051849361330b9260018501929101906149ba565b50604082015180516133279160028401916020909101906149ba565b50606082015160038201556080820151600482015560a082015180516133579160058401916020909101906149ba565b5060c082015160068201805460ff1916600183600281111561337557fe5b021790555060e0919091015160069091018054600160a060020a039092166101000274ffffffffffffffffffffffffffffffffffffffff001990921691909117905581151561341f57600480546001810182556000919091527f8a35acfbc15ff81a39ae7d344fd709f28e8600b4aa8c65c6b64bfe7fe36bd19b01805473ffffffffffffffffffffffffffffffffffffffff1916600160a060020a03851617905561341f87613d2f565b50505050505050505050565b613433614b00565b60606000606061344289613d6e565b935061344d84613dbc565b60008c8152600660205260408120600181018e90558c815560038101805460ff19168c15151790559194506134859160020190614b17565b600091505b825182101561356a576134b383838151811015156134a457fe5b90602001906020020151613dbc565b9050600660008c815260200190815260200160002060020160408051908101604052806134f78460008151811015156134e857fe5b90602001906020020151613e8f565b815260200161350e8460018151811015156134e857fe5b90528154600181018084556000938452602093849020835180519295600290940290910192613542928492909101906149ba565b50602082810151805161355b92600185019201906149ba565b5050505081600101915061348a565b505050600097885250600660208190526040909720600481019390935595820195909555600501805460ff191694151594909417909355505050565b6000918252600160208181526040842060080180549283018155845290922090910155565b6135d3614b00565b60606000806000806000806135e78a613d6e565b97506135f288613dbc565b965061361e61361961360c8960058151811015156134a457fe5b805160019081106134e857fe5b613f01565b955061363861361961360c8960028151811015156134a457fe5b945061365261361961360c8960038151811015156134a457fe5b60008d8152600760209081526040808320805461ffff191661ffff8c16179055600690915290206005015490945060ff169250600191508190505b6008548111613bfc5760008181526006602052604090206003015460ff1615158b15151480156136bd5750808c14155b15613bf4576005805460ff191690556000818152600660205260408120600201805490919081106136ea57fe5b906000526020600020906002020160010160405180828054600181600116156101000203166002900480156137565780601f10613734576101008083540402835291820191613756565b820191906000526020600020905b815481529060010190602001808311613742575b505091505060405180910390206000191661377c61360c8960008151811015156134a457fe5b6040518082805190602001908083835b602083106137ab5780518252601f19909201916020918201910161378c565b6001836020036101000a0380198251168184511680821785525050505050509050019150506040518091039020600019161480156138c957506000818152600660205260409020600290810180546138b59290811061380657fe5b90600052602060002090600202016001018054600181600116156101000203166002900480601f0160208091040260200160405190810160405280929190818152602001828054600181600116156101000203166002900480156138ab5780601f10613880576101008083540402835291602001916138ab565b820191906000526020600020905b81548152906001019060200180831161388e57829003601f168201915b5050505050613f01565b65ffffffffffff168465ffffffffffff1610155b80156139075750600081815260066020526040902060020180546138f39190600390811061380657fe5b65ffffffffffff168565ffffffffffff1611155b15613bf4576139f161392461360c8960048151811015156134a457fe5b60008381526006602052604090206002018054600490811061394257fe5b90600052602060002090600202016001018054600181600116156101000203166002900480601f0160208091040260200160405190810160405280929190818152602001828054600181600116156101000203166002900480156139e75780601f106139bc576101008083540402835291602001916139e7565b820191906000526020600020905b8154815290600101906020018083116139ca57829003601f168201915b5050505050613f5f565b60055460ff1615613bf457613a32613a1461360c8960018151811015156134a457fe5b60008381526006602052604090206002018054600190811061394257fe5b60055460ff1615613bf4578815613b09576000818152600760205260409020805461ffff19811661ffff918216890182161791829055606491161115613b0457821515613aa95760008c815260066020526040902060058101805460ff1916600117905560040154613aa4908d61420f565b600192505b60008181526006602052604090206005015460ff161515613b045760008181526006602052604090206004810154600190910154613ae7919061420f565b6000818152600660205260409020600501805460ff191660011790555b613bc2565b6000818152600760205260409020805461ffff19811661ffff918216899003821617918290556064911611613bc2578215613b6b5760008c815260066020526040902060058101805460ff1916905560040154613b66908d614234565b600092505b60008181526006602052604090206005015460ff1615613bc25760008181526006602052604090206004810154600190910154613ba89190614234565b6000818152600660205260409020600501805460ff191690555b8115613bf457600081815260076020526040808220548e8352908220805461ffff191661ffff90921691909117905591505b60010161368d565b505050505050505050505050565b60008181526001602052604081205460609110613c3c5760405160e560020a62461bcd02815260040161047590615ae0565b60008281526001602090815260409182902060080180548351818402810184019094528084529091830182828015613c9357602002820191906000526020600020905b815481526020019060010190808311613c7f575b50505050509050919050565b613cb060008263ffffffff61434716565b604051600160a060020a038216907f3525e22824a8a7df2c9a6029941c824cf95b6447f1e13d5128fd3826d35afe8b90600090a250565b613cf860008263ffffffff61439316565b604051600160a060020a038216907f47d1c22a25bb3a5d4e481b9b1e6944c2eade3181a0a20b495ed61d35b5323f2490600090a250565b6000908152600160208181526040832060090180549283018155835290912001805473ffffffffffffffffffffffffffffffffffffffff191633179055565b613d76614b00565b6000825160001415613d9d576040805180820190915260008082526020820152915061130d565b5050604080518082019091528151815260209182019181019190915290565b6060600080600080613dcd866143e1565b1515613dd857600080fd5b613de186614410565b935083604051908082528060200260200182016040528015613e1d57816020015b613e0a614b00565b815260200190600190039081613e025790505b509450613e2d8660200151614460565b8660200151019250600090505b83811015613e8657613e4b836144c3565b91506040805190810160405280838152602001848152508582815181101515613e7057fe5b6020908102909101015291810191600101613e3a565b50505050919050565b606060008060606000613ea58660200151614460565b9350838660000151039250826040519080825280601f01601f191660200182016040528015613ede578160200160208202803883390190505b509150816020019050613ef8848760200151018285614554565b50949350505050565b60008181805b8251821015612fcf578282815181101515613f1e57fe5b016020015160f860020a90819004810204905060308110801590613f43575060398111155b15613f54576030810384600a020193505b600190910190613f07565b613f67614b00565b613f6f614b00565b613f77614b00565b606080600080613f868961459b565b9650613f918861459b565b9550613fd16040805190810160405280600181526020017f2c0000000000000000000000000000000000000000000000000000000000000081525061459b565b9450613fe3878663ffffffff6145c116565b60010160405190808252806020026020018201604052801561401957816020015b60608152602001906001900390816140045790505b50935061402c868663ffffffff6145c116565b60010160405190808252806020026020018201604052801561406257816020015b606081526020019060019003908161404d5790505b5092508251845110156141025761407f878663ffffffff6145c116565b6001016040519080825280602002602001820160405280156140b557816020015b60608152602001906001900390816140a05790505b5092506140c8868663ffffffff6145c116565b6001016040519080825280602002602001820160405280156140fe57816020015b60608152602001906001900390816140e95790505b5093505b600091505b835182101561420457614128614123888763ffffffff61462716565b61463a565b848381518110151561413657fe5b602090810290910101525060005b8181116141e95782518210156141b857614167614123878763ffffffff61462716565b838381518110151561417557fe5b6020908102909101015283516141b89085908390811061419157fe5b9060200190602002015184848151811015156141a957fe5b9060200190602002015161468d565b6141e183828151811015156141c957fe5b9060200190602002015185848151811015156141a957fe5b600101614144565b60055460ff16156141f957614204565b600190910190614107565b505050505050505050565b6000918252600160208181526040842060070180549283018155845290922090910155565b6000805b600084815260016020526040902060070154600019018110156142f757600084815260016020526040902060070180548491908390811061427557fe5b9060005260206000200154141561428b57600191505b81156142ef5760008481526001602081905260409091206007018054909183019081106142b457fe5b906000526020600020015460016000868152602001908152602001600020600701828154811015156142e257fe5b6000918252602090912001555b600101614238565b60008481526001602052604090206007018054600019810190811061431857fe5b600091825260208083209091018290558582526001905260409020600701805490612715906000198301614a34565b600160a060020a038116151561435c57600080fd5b6143668282612d9d565b151561437157600080fd5b600160a060020a0316600090815260209190915260409020805460ff19169055565b600160a060020a03811615156143a857600080fd5b6143b28282612d9d565b156143bc57600080fd5b600160a060020a0316600090815260209190915260409020805460ff19166001179055565b6020810151805160009190821a9060c060ff831610156144045760009250614409565b600192505b5050919050565b600080600080600092506144278560200151614460565b6020860151865191810193500190505b8082101561445757614448826144c3565b60019093019290910190614437565b50909392505050565b8051600090811a6080811015614479576000915061130d565b60b8811080614494575060c08110801590614494575060f881105b156144a2576001915061130d565b60c08110156144b75760b5198101915061130d565b60f5198101915061130d565b8051600090811a60808110156144dc576001915061130d565b60b88110156144f157607e198101915061130d565b60c081101561451e5760b78103600184019350806020036101000a8451046001820181019350505061130d565b60f88110156145335760be198101915061130d565b60019290920151602083900360f7016101000a900490910160f51901919050565b60005b60208210614579578351835260209384019390920191601f1990910190614557565b50915181516020939093036101000a6000190180199091169216919091179052565b6145a3614b00565b50604080518082019091528151815260209182019181019190915290565b60008082600001516145e5856000015186602001518660000151876020015161475f565b0190505b8351602085015101811161277a57825160208086015186519186015160019095019461461f92918503909103908490849061475f565b0190506145e9565b61462f614b00565b61277a83838361481f565b606080600083600001516040519080825280601f01601f191660200182016040528015614671578160200160208202803883390190505b50915060208201905061277a818560200151866000015161488f565b806040518082805190602001908083835b602083106146bd5780518252601f19909201916020918201910161469e565b51815160209384036101000a6000190180199092169116179052604051919093018190038120875190955087945090928392508401908083835b602083106147165780518252601f1990920191602091820191016146f7565b6001836020036101000a038019825116818451168082178552505050505050905001915050604051809103902060001916141561475b576005805460ff191660011790555b5050565b600083818080808080808c8b116148095760208b116147d25760018b60200360080260020a03196001029550858a511694508a8d8d010393508588511692505b8285146147ca578388106147b7578c8c01985061480f565b878060010198505085885116925061479f565b87985061480f565b8a8a209150600096505b8a8d0387116148095750898720818114156147f95787985061480f565b60019788019796909601956147dc565b8c8c0198505b5050505050505050949350505050565b614827614b00565b6000614845856000015186602001518660000151876020015161475f565b602080870180519186019190915280518203855286519051919250018114156148715760008552614457565b83518351865191019003855283518101602086015250909392505050565b60005b602082106148b4578251845260209384019390920191601f1990910190614892565b50905182516020929092036101000a6000190180199091169116179052565b60e06040519081016040528060008152602001600081526020016060815260200160001515815260200160008152602001600015158152602001600081525090565b610100604051908101604052806000815260200160608152602001606081526020016000815260200160008152602001606081526020016000600281111561495957fe5b8152600060209091015290565b61014060405190810160405280600081526020016000815260200160608152602001606081526020016060815260200160608152602001606081526020016060815260200160608152602001606081525090565b828054600181600116156101000203166002900490600052602060002090601f016020900481019282601f106149fb57805160ff1916838001178555614a28565b82800160010185558215614a28579182015b82811115614a28578251825591602001919060010190614a0d565b506105e5929150614b38565b81548183558181111561233957600083815260209020612339918101908301614b38565b828054828255906000526020600020908101928215614a285791602002820182811115614a28578251825591602001919060010190614a0d565b828054828255906000526020600020908101928215614af4579160200282015b82811115614af4578251825473ffffffffffffffffffffffffffffffffffffffff1916600160a060020a03909116178255602090920191600190910190614ab2565b506105e5929150614b52565b604080518082019091526000808252602082015290565b50805460008255600202906000526020600020908101906105c99190614b83565b61198191905b808211156105e55760008155600101614b3e565b61198191905b808211156105e557805473ffffffffffffffffffffffffffffffffffffffff19168155600101614b58565b61198191905b808211156105e5576000614b9d8282614bb4565b614bab600183016000614bb4565b50600201614b89565b50805460018160011615610100020316600290046000825580601f10614bda57506105c9565b601f0160209004906000526020600020908101906105c99190614b38565b6000614c048235615c09565b9392505050565b6000614c048235615c15565b6000601f82018313614c2857600080fd5b8135614c3b614c3682615bd7565b615bb0565b91508082526020830160208301858383011115614c5757600080fd5b614c62838284615c31565b50505092915050565b6000614c048235611981565b600060208284031215614c8957600080fd5b6000614c958484614bf8565b949350505050565b600080600080600060a08688031215614cb557600080fd5b853567ffffffffffffffff811115614ccc57600080fd5b614cd888828901614c17565b955050602086013567ffffffffffffffff811115614cf557600080fd5b614d0188828901614c17565b9450506040614d1288828901614c6b565b935050606086013567ffffffffffffffff811115614d2f57600080fd5b614d3b88828901614c17565b9250506080614d4c88828901614bf8565b9150509295509295909350565b600060208284031215614d6b57600080fd5b6000614c958484614c6b565b600080600060608486031215614d8c57600080fd5b6000614d988686614c6b565b9350506020614da986828701614c0b565b925050604084013567ffffffffffffffff811115614dc657600080fd5b614dd286828701614c17565b9150509250925092565b600080600080600080600080610100898b031215614df957600080fd5b6000614e058b8b614c6b565b985050602089013567ffffffffffffffff811115614e2257600080fd5b614e2e8b828c01614c17565b9750506040614e3f8b828c01614c0b565b9650506060614e508b828c01614c6b565b9550506080614e618b828c01614c0b565b94505060a0614e728b828c01614c6b565b93505060c089013567ffffffffffffffff811115614e8f57600080fd5b614e9b8b828c01614c17565b92505060e0614eac8b828c01614c6b565b9150509295985092959890939650565b60008060008060008060c08789031215614ed557600080fd5b6000614ee18989614c6b565b965050602087013567ffffffffffffffff811115614efe57600080fd5b614f0a89828a01614c17565b955050604087013567ffffffffffffffff811115614f2757600080fd5b614f3389828a01614c17565b945050606087013567ffffffffffffffff811115614f5057600080fd5b614f5c89828a01614c17565b935050608087013567ffffffffffffffff811115614f7957600080fd5b614f8589828a01614c17565b92505060a087013567ffffffffffffffff811115614fa257600080fd5b614fae89828a01614c17565b9150509295509295509295565b600080600080600060a08688031215614fd357600080fd5b6000614fdf8888614c6b565b955050602086013567ffffffffffffffff811115614ffc57600080fd5b61500888828901614c17565b945050604086013567ffffffffffffffff81111561502557600080fd5b61503188828901614c17565b935050606086013567ffffffffffffffff81111561504e57600080fd5b61505a88828901614c17565b9250506080614d4c88828901614c6b565b600080600080600080600060e0888a03121561508657600080fd5b60006150928a8a614c6b565b97505060206150a38a828b01614c6b565b965050604088013567ffffffffffffffff8111156150c057600080fd5b6150cc8a828b01614c17565b955050606088013567ffffffffffffffff8111156150e957600080fd5b6150f58a828b01614c17565b945050608088013567ffffffffffffffff81111561511257600080fd5b61511e8a828b01614c17565b93505060a088013567ffffffffffffffff81111561513b57600080fd5b6151478a828b01614c17565b92505060c088013567ffffffffffffffff81111561516457600080fd5b6151708a828b01614c17565b91505092959891949750929550565b61518881615c09565b82525050565b600061519982615c05565b8084526020840193506151ab83615bff565b60005b828110156151db576151c186835161517f565b6151ca82615bff565b6020969096019591506001016151ae565b5093949350505050565b60006151f082615c05565b8084526020840193508360208202850161520985615bff565b60005b8481101561524057838303885261522483835161579d565b925061522f82615bff565b60209890980197915060010161520c565b50909695505050505050565b600061525782615c05565b8084526020840193508360208202850161527085615bff565b60005b8481101561524057838303885261528b838351615832565b925061529682615bff565b602098909801979150600101615273565b60006152b282615c05565b808452602084019350836020820285016152cb85615bff565b60005b848110156152405783830388526152e6838351615935565b92506152f182615bff565b6020989098019791506001016152ce565b600061530d82615c05565b8084526020840193508360208202850161532685615bff565b60005b84811015615240578383038852615341838351615967565b925061534c82615bff565b602098909801979150600101615329565b600061536882615c05565b80845260208401935061537a83615bff565b60005b828110156151db57615390868351615a16565b61539982615bff565b60209690960195915060010161537d565b61518881615c15565b61518881615c26565b60006153c782615c05565b8084526153db816020860160208601615c3d565b6153e481615c6d565b9093016020019392505050565b601a81527f4372656174696f6e204461746520697320696e6d757461626c65000000000000602082015260400190565b601181527f726f6c65206973206d616e6461746f7279000000000000000000000000000000602082015260400190565b602281527f4f6e6c792070656e64696e672075736572732063616e2062652061636365707460208201527f6564000000000000000000000000000000000000000000000000000000000000604082015260600190565b601381527f5573657220616c72656164792065786973747300000000000000000000000000602082015260400190565b601481527f546869732075736572206e6f7420657869737473000000000000000000000000602082015260400190565b601b81527f596f752063616e6e6f7420616363657074207468697320757365720000000000602082015260400190565b602281527f4f6e6c792070656e64696e672075736572732063616e2062652072656a65637460208201527f6564000000000000000000000000000000000000000000000000000000000000604082015260600190565b601381527f737461747573206973206e6f742076616c696400000000000000000000000000602082015260400190565b601181527f6d656d626572206e6f7420657869737473000000000000000000000000000000602082015260400190565b601481527f4d656d62657220646f206e6f7420657869737473000000000000000000000000602082015260400190565b601581527f4d656d62657220616c7265616479206578697374730000000000000000000000602082015260400190565b601181527f4d656d626572206e6f7420657869737473000000000000000000000000000000602082015260400190565b601281527f5468656d65206973206d616e6461746f72790000000000000000000000000000602082015260400190565b601081527f434d4f206973206d616e6461746f727900000000000000000000000000000000602082015260400190565b601481527f596f7520617265206e6f74206163636570746564000000000000000000000000602082015260400190565b601181527f4e616d65206973206d616e6461746f7279000000000000000000000000000000602082015260400190565b601181527f4e6f2076616c6964206d656d6265724964000000000000000000000000000000602082015260400190565b601981527f4372656174696f6e44617465206973206d616e6461746f727900000000000000602082015260400190565b805160009060e08401906157b18582615a16565b5060208301516157c46020860182615a16565b50604083015184820360408601526157dc82826152a7565b91505060608301516157f160608601826153aa565b5060808301516158046080860182615a16565b5060a083015161581760a08601826153aa565b5060c083015161582a60c0860182615a16565b509392505050565b80516000906101408401906158478582615a16565b50602083015161585a6020860182615a16565b506040830151848203604086015261587282826153bc565b9150506060830151848203606086015261588c82826153bc565b915050608083015184820360808601526158a682826153bc565b91505060a083015184820360a08601526158c082826153bc565b91505060c083015184820360c08601526158da82826153bc565b91505060e083015184820360e08601526158f4828261535d565b915050610100830151848203610100860152615910828261535d565b91505061012083015184820361012086015261592c828261518e565b95945050505050565b805160408084526000919084019061594d82826153bc565b9150506020830151848203602086015261592c82826153bc565b805160009061010084019061597c8582615a16565b506020830151848203602086015261599482826153bc565b915050604083015184820360408601526159ae82826153bc565b91505060608301516159c36060860182615a16565b5060808301516159d66080860182615a16565b5060a083015184820360a08601526159ee82826153bc565b91505060c0830151615a0360c08601826153b3565b5060e083015161582a60e086018261517f565b61518881611981565b60208082528101614c0481846151e5565b60208082528101614c04818461524c565b60208082528101614c048184615302565b6020810161101c82846153aa565b6020808252810161101c816153f1565b6020808252810161101c81615421565b6020808252810161101c81615451565b6020808252810161101c816154a7565b6020808252810161101c816154d7565b6020808252810161101c81615507565b6020808252810161101c81615537565b6020808252810161101c8161558d565b6020808252810161101c816155bd565b6020808252810161101c816155ed565b6020808252810161101c8161561d565b6020808252810161101c8161564d565b6020808252810161101c8161567d565b6020808252810161101c816156ad565b6020808252810161101c816156dd565b6020808252810161101c8161570d565b6020808252810161101c8161573d565b6020808252810161101c8161576d565b60208082528101614c04818461579d565b60208082528101614c048184615967565b6020810161101c8284615a16565b60405181810167ffffffffffffffff81118282101715615bcf57600080fd5b604052919050565b600067ffffffffffffffff821115615bee57600080fd5b506020601f91909101601f19160190565b60200190565b5190565b600160a060020a031690565b151590565b6000600382106105e557fe5b600061101c82615c1a565b82818337506000910152565b60005b83811015615c58578181015183820152602001615c40565b83811115615c67576000848401525b50505050565b601f01601f1916905600a265627a7a723058207ae9c2cb675bf8acc90a9f75fb4e8b42d2d81710446b418da10ce0208fa7c35f6c6578706572696d656e74616cf50037",
  "source": "pragma solidity ^0.4.24;\npragma experimental ABIEncoderV2;\n\nimport \"./Claims.sol\";\n\ncontract Lib3 is Claims {\n\n  function deleteClaim(uint256 _claimId, bool _claimType, bytes _claimData) public {\n    checkClaimStatus(_claimId, _claimType, _claimData, false);\n//    claims_[_claimId].deleted = true;\n\n    //    delete claims_[_claimId].claimType;\n//    delete claims_[_claimId].claimData;\n//    delete claims_[_claimId].creationDate;\n//    delete claims_[_claimId].lastChange;\n//    delete claims_[_claimId].memberOwner;\n//    delete claims_[_claimId].status;\n//    claims_[_claimId].claimId = 0;\n//\n//    uint rowToDelete = userStructs[userAddress].index;\n//    address keyToMove = userIndex[userIndex.length-1];\n//    userIndex[rowToDelete] = keyToMove;\n//    userStructs[keyToMove].index = rowToDelete;\n//    userIndex.length=userIndex.length-1;\n\n\n//    uint claimIdToDelete = _claimId;\n//    uint claimIdToMove = claimIdIndex[claimIdIndex.length-1];\n//    claimIdIndex[claimIdToDelete] = claimIdToMove;\n//    claims_[claimIdToMove].claimId = claimIdToDelete;\n//    claimIdIndex.length=claimIdIndex.length-1;\n//    claimIdCounter_-=1;\n//    maxSplits_;\n\n    // try to do it without claimIdIndex[]\n//    uint claimIdToDelete = _claimId;\n//    uint claimIdToMove = claims_[claimIdCounter_-1].claimId;\n//    claims_[_claimId].claimId = claimIdToMove;\n//    claims_[claimIdToMove].claimId = _claimId;\n//    maxSplits_[_claimId] = uint16(claimIdToMove);\n//    maxSplits_[claimIdToMove] = uint16(_claimId);\n//    claimIdCounter_-=1;\n\n\n//    claims_[_claimId].creationDate = 0;\n//    claims_[_claimId].claimType = false;\n//    delete claims_[_claimId].claimData;\n//    claims_[_claimId].memberOwner = 0;\n//    claims_[_claimId].lastChange = 0;\n//    claims_[_claimId].status = false;\n//    claims_[_claimId].claimId = 0;\n  }\n\n}",
  "sourcePath": "/home/komodo/newUI/bloomen-decentralized-rights-management-v2/truffle/contracts/registry/Lib3.sol",
  "compiler": {
    "name": "solc",
    "version": "0.4.24+commit.e67f0147.Emscripten.clang"
  },
  "schemaVersion": "2.0.1",
  "updatedAt": "2019-12-02T14:47:49.600Z"
}