{
  "contractName": "Members",
  "abi": [
    {
      "constant": false,
      "inputs": [
        {
          "name": "_cmo",
          "type": "string"
        }
      ],
      "name": "addCMO",
      "outputs": [],
      "payable": false,
      "stateMutability": "nonpayable",
      "type": "function"
    },
    {
      "constant": true,
      "inputs": [],
      "name": "getCMOs",
      "outputs": [
        {
          "name": "",
          "type": "string[]"
        }
      ],
      "payable": false,
      "stateMutability": "view",
      "type": "function"
    },
    {
      "constant": true,
      "inputs": [
        {
          "name": "account",
          "type": "address"
        }
      ],
      "name": "isSigner",
      "outputs": [
        {
          "name": "",
          "type": "bool"
        }
      ],
      "payable": false,
      "stateMutability": "view",
      "type": "function"
    },
    {
      "constant": false,
      "inputs": [
        {
          "name": "_index",
          "type": "uint256"
        }
      ],
      "name": "deleteCMO",
      "outputs": [],
      "payable": false,
      "stateMutability": "nonpayable",
      "type": "function"
    },
    {
      "constant": false,
      "inputs": [],
      "name": "renounceSigner",
      "outputs": [],
      "payable": false,
      "stateMutability": "nonpayable",
      "type": "function"
    },
    {
      "constant": false,
      "inputs": [
        {
          "name": "account",
          "type": "address"
        }
      ],
      "name": "addSigner",
      "outputs": [],
      "payable": false,
      "stateMutability": "nonpayable",
      "type": "function"
    },
    {
      "anonymous": false,
      "inputs": [
        {
          "indexed": true,
          "name": "account",
          "type": "address"
        }
      ],
      "name": "SignerAdded",
      "type": "event"
    },
    {
      "anonymous": false,
      "inputs": [
        {
          "indexed": true,
          "name": "account",
          "type": "address"
        }
      ],
      "name": "SignerRemoved",
      "type": "event"
    },
    {
      "constant": false,
      "inputs": [
        {
          "name": "_creationDate",
          "type": "uint256"
        },
        {
          "name": "_name",
          "type": "string"
        },
        {
          "name": "_logo",
          "type": "string"
        },
        {
          "name": "_country",
          "type": "string"
        },
        {
          "name": "_cmo",
          "type": "string"
        },
        {
          "name": "_theme",
          "type": "string"
        }
      ],
      "name": "addMember",
      "outputs": [
        {
          "name": "",
          "type": "uint256"
        }
      ],
      "payable": false,
      "stateMutability": "nonpayable",
      "type": "function"
    },
    {
      "constant": false,
      "inputs": [
        {
          "name": "_memberId",
          "type": "uint256"
        },
        {
          "name": "_creationDate",
          "type": "uint256"
        },
        {
          "name": "_name",
          "type": "string"
        },
        {
          "name": "_logo",
          "type": "string"
        },
        {
          "name": "_country",
          "type": "string"
        },
        {
          "name": "_cmo",
          "type": "string"
        },
        {
          "name": "_theme",
          "type": "string"
        },
        {
          "name": "_totalTokens",
          "type": "uint256"
        }
      ],
      "name": "updateMember",
      "outputs": [],
      "payable": false,
      "stateMutability": "nonpayable",
      "type": "function"
    },
    {
      "constant": false,
      "inputs": [
        {
          "name": "_memberId",
          "type": "uint256"
        },
        {
          "name": "newInbox",
          "type": "uint256[]"
        }
      ],
      "name": "updateMemberClaimInbox",
      "outputs": [],
      "payable": false,
      "stateMutability": "nonpayable",
      "type": "function"
    },
    {
      "constant": true,
      "inputs": [
        {
          "name": "_page",
          "type": "uint256"
        }
      ],
      "name": "getMembers",
      "outputs": [
        {
          "components": [
            {
              "name": "memberId",
              "type": "uint256"
            },
            {
              "name": "creationDate",
              "type": "uint256"
            },
            {
              "name": "name",
              "type": "string"
            },
            {
              "name": "logo",
              "type": "string"
            },
            {
              "name": "country",
              "type": "string"
            },
            {
              "name": "cmo",
              "type": "string"
            },
            {
              "name": "theme",
              "type": "string"
            },
            {
              "name": "claimInbox",
              "type": "uint256[]"
            },
            {
              "name": "claims",
              "type": "uint256[]"
            },
            {
              "name": "userRequests",
              "type": "address[]"
            },
            {
              "name": "totalTokens",
              "type": "uint256"
            }
          ],
          "name": "",
          "type": "tuple[]"
        }
      ],
      "payable": false,
      "stateMutability": "view",
      "type": "function"
    },
    {
      "constant": true,
      "inputs": [],
      "name": "getMembers",
      "outputs": [
        {
          "components": [
            {
              "name": "memberId",
              "type": "uint256"
            },
            {
              "name": "creationDate",
              "type": "uint256"
            },
            {
              "name": "name",
              "type": "string"
            },
            {
              "name": "logo",
              "type": "string"
            },
            {
              "name": "country",
              "type": "string"
            },
            {
              "name": "cmo",
              "type": "string"
            },
            {
              "name": "theme",
              "type": "string"
            },
            {
              "name": "claimInbox",
              "type": "uint256[]"
            },
            {
              "name": "claims",
              "type": "uint256[]"
            },
            {
              "name": "userRequests",
              "type": "address[]"
            },
            {
              "name": "totalTokens",
              "type": "uint256"
            }
          ],
          "name": "",
          "type": "tuple[]"
        }
      ],
      "payable": false,
      "stateMutability": "view",
      "type": "function"
    },
    {
      "constant": true,
      "inputs": [],
      "name": "getCount",
      "outputs": [
        {
          "name": "",
          "type": "uint256"
        }
      ],
      "payable": false,
      "stateMutability": "view",
      "type": "function"
    },
    {
      "constant": false,
      "inputs": [
        {
          "name": "currentCMO",
          "type": "string"
        },
        {
          "name": "currentCMOId",
          "type": "uint256"
        }
      ],
      "name": "_getMemberIdsOfCurrentCMO",
      "outputs": [
        {
          "name": "",
          "type": "uint256[]"
        }
      ],
      "payable": false,
      "stateMutability": "nonpayable",
      "type": "function"
    },
    {
      "constant": true,
      "inputs": [
        {
          "name": "_memberId",
          "type": "uint256"
        }
      ],
      "name": "_getClaimsIdByMember",
      "outputs": [
        {
          "name": "",
          "type": "uint256[]"
        }
      ],
      "payable": false,
      "stateMutability": "view",
      "type": "function"
    },
    {
      "constant": true,
      "inputs": [
        {
          "name": "_memberId",
          "type": "uint256"
        }
      ],
      "name": "_getClaimsCountByMember",
      "outputs": [
        {
          "name": "",
          "type": "uint256"
        }
      ],
      "payable": false,
      "stateMutability": "view",
      "type": "function"
    },
    {
      "constant": false,
      "inputs": [
        {
          "name": "_memberId",
          "type": "uint256"
        }
      ],
      "name": "_addUserToMemberRequest",
      "outputs": [],
      "payable": false,
      "stateMutability": "nonpayable",
      "type": "function"
    },
    {
      "constant": false,
      "inputs": [
        {
          "name": "_memberId",
          "type": "uint256"
        },
        {
          "name": "_claimId",
          "type": "uint256"
        }
      ],
      "name": "_addClaimIdToMemberOwner",
      "outputs": [],
      "payable": false,
      "stateMutability": "nonpayable",
      "type": "function"
    },
    {
      "constant": false,
      "inputs": [
        {
          "name": "_memberId",
          "type": "uint256"
        },
        {
          "name": "_claimId",
          "type": "uint256"
        }
      ],
      "name": "_removeClaimFromMember",
      "outputs": [],
      "payable": false,
      "stateMutability": "nonpayable",
      "type": "function"
    },
    {
      "constant": false,
      "inputs": [
        {
          "name": "_memberId",
          "type": "uint256"
        },
        {
          "name": "_claimId",
          "type": "uint256"
        }
      ],
      "name": "_addClaimFromInbox",
      "outputs": [],
      "payable": false,
      "stateMutability": "nonpayable",
      "type": "function"
    },
    {
      "constant": true,
      "inputs": [
        {
          "name": "_memberId",
          "type": "uint256"
        }
      ],
      "name": "_memberExists",
      "outputs": [
        {
          "name": "",
          "type": "bool"
        }
      ],
      "payable": false,
      "stateMutability": "view",
      "type": "function"
    },
    {
      "constant": false,
      "inputs": [
        {
          "name": "_memberId",
          "type": "uint256"
        },
        {
          "name": "_claimId",
          "type": "uint256"
        }
      ],
      "name": "_removeClaimFromInbox",
      "outputs": [],
      "payable": false,
      "stateMutability": "nonpayable",
      "type": "function"
    },
    {
      "constant": false,
      "inputs": [
        {
          "name": "_memberId",
          "type": "uint256"
        },
        {
          "name": "userAddress",
          "type": "address"
        }
      ],
      "name": "_clearUserFromMemberRequest",
      "outputs": [],
      "payable": false,
      "stateMutability": "nonpayable",
      "type": "function"
    },
    {
      "constant": false,
      "inputs": [
        {
          "name": "memberId",
          "type": "uint256"
        },
        {
          "name": "cost",
          "type": "uint256"
        }
      ],
      "name": "updateMemberTotalTokens",
      "outputs": [],
      "payable": false,
      "stateMutability": "nonpayable",
      "type": "function"
    },
    {
      "constant": false,
      "inputs": [
        {
          "name": "memberId",
          "type": "uint256"
        },
        {
          "name": "cost",
          "type": "uint256"
        }
      ],
      "name": "increaseMemberTotalTokens",
      "outputs": [],
      "payable": false,
      "stateMutability": "nonpayable",
      "type": "function"
    },
    {
      "constant": true,
      "inputs": [
        {
          "name": "memberId",
          "type": "uint256"
        }
      ],
      "name": "getMemberCmo",
      "outputs": [
        {
          "name": "",
          "type": "string"
        }
      ],
      "payable": false,
      "stateMutability": "view",
      "type": "function"
    },
    {
      "constant": true,
      "inputs": [
        {
          "name": "memberId",
          "type": "uint256"
        }
      ],
      "name": "getMemberTotalTokens",
      "outputs": [
        {
          "name": "",
          "type": "uint256"
        }
      ],
      "payable": false,
      "stateMutability": "view",
      "type": "function"
    },
    {
      "constant": true,
      "inputs": [
        {
          "name": "seed",
          "type": "uint256"
        }
      ],
      "name": "calcRandom",
      "outputs": [
        {
          "name": "",
          "type": "uint256"
        }
      ],
      "payable": false,
      "stateMutability": "view",
      "type": "function"
    },
    {
      "constant": false,
      "inputs": [],
      "name": "returnUpdatedMemberIdCounter",
      "outputs": [
        {
          "name": "",
          "type": "uint256"
        }
      ],
      "payable": false,
      "stateMutability": "nonpayable",
      "type": "function"
    }
  ],
  "bytecode": "0x608060405260006003556200001d3364010000000062000023810204565b62000108565b6200003e600082640100000000620024546200007582021704565b604051600160a060020a038216907f47d1c22a25bb3a5d4e481b9b1e6944c2eade3181a0a20b495ed61d35b5323f2490600090a250565b600160a060020a03811615156200008b57600080fd5b620000a08282640100000000620000d0810204565b15620000ab57600080fd5b600160a060020a0316600090815260209190915260409020805460ff19166001179055565b6000600160a060020a0382161515620000e857600080fd5b50600160a060020a03166000908152602091909152604090205460ff1690565b61329080620001186000396000f3006080604052600436106101695763ffffffff7c01000000000000000000000000000000000000000000000000000000006000350416633a59ccf1811461016e578063466cc2bf146101905780636262dff6146101c6578063656d561c146101f35780636ce5e2bb146102155780636df448981461024257806374853239146102625780637df73e27146102825780638b92892b146102af578063989359df146102cf5780639eab5253146102ef578063a87d942c14610311578063affccd8414610326578063b78c36c714610346578063bb03b70614610366578063bf3d007e14610386578063c29c9225146103a6578063c477ecab146103c6578063c88597c2146103e6578063d68dee9d14610406578063d803437914610426578063e2c11f9e14610446578063e5c8b03d14610466578063eb12d61e1461047b578063f44a8bbe1461049b578063f8380733146104b0578063fa1188c6146104d0578063fda65156146104f0575b600080fd5b34801561017a57600080fd5b5061018e6101893660046128a5565b610510565b005b34801561019c57600080fd5b506101b06101ab36600461292b565b61056c565b6040516101bd91906130ea565b60405180910390f35b3480156101d257600080fd5b506101e66101e136600461292b565b61060e565b6040516101bd91906130cb565b3480156101ff57600080fd5b506102086106ab565b6040516101bd91906130a9565b34801561022157600080fd5b5061023561023036600461292b565b610784565b6040516101bd919061317b565b34801561024e57600080fd5b5061018e61025d366004612ac0565b610795565b34801561026e57600080fd5b5061018e61027d366004612ac0565b6107b0565b34801561028e57600080fd5b506102a261029d36600461287f565b6107d6565b6040516101bd91906130dc565b3480156102bb57600080fd5b5061018e6102ca366004612ac0565b6107e8565b3480156102db57600080fd5b506101e66102ea3660046128da565b610906565b3480156102fb57600080fd5b50610304610af7565b6040516101bd91906130ba565b34801561031d57600080fd5b50610235610fce565b34801561033257600080fd5b5061023561034136600461292b565b610feb565b34801561035257600080fd5b5061018e61036136600461292b565b611000565b34801561037257600080fd5b5061018e610381366004612ac0565b611040565b34801561039257600080fd5b5061018e6103a136600461292b565b611156565b3480156103b257600080fd5b5061018e6103c1366004612979565b611213565b3480156103d257600080fd5b506103046103e136600461292b565b611238565b3480156103f257600080fd5b5061018e610401366004612949565b61175d565b34801561041257600080fd5b5061018e610421366004612adf565b6118c2565b34801561043257600080fd5b5061023561044136600461292b565b6119a2565b34801561045257600080fd5b5061018e610461366004612ac0565b6119b7565b34801561047257600080fd5b5061018e6119dd565b34801561048757600080fd5b5061018e61049636600461287f565b6119e8565b3480156104a757600080fd5b50610235611a08565b3480156104bc57600080fd5b506102a26104cb36600461292b565b611a16565b3480156104dc57600080fd5b506102356104eb3660046129c1565b611a29565b3480156104fc57600080fd5b5061018e61050b366004612ac0565b611acf565b610519336107d6565b151561052457600080fd5b600180548082018083556000929092528251610567917fb10e2d527612073b26eecdfd717e6a320cf44b4afac2b0732d9fcbe2b7fa0cf6019060208501906124a2565b505050565b600081815260026020818152604092839020600501805484516001821615610100026000190190911693909304601f810183900483028401830190945283835260609390918301828280156106025780601f106105d757610100808354040283529160200191610602565b820191906000526020600020905b8154815290600101906020018083116105e557829003601f168201915b50505050509050919050565b600081815260026020526040812054606091106106495760405160e560020a62461bcd0281526004016106409061310b565b60405180910390fd5b6000828152600260209081526040918290206008018054835181840281018401909452808452909183018282801561060257602002820191906000526020600020905b81548152602001906001019080831161068c5750505050509050919050565b60606001805480602002602001604051908101604052809291908181526020016000905b8282101561077a5760008481526020908190208301805460408051601f60026000196101006001871615020190941693909304928301859004850281018501909152818152928301828280156107665780601f1061073b57610100808354040283529160200191610766565b820191906000526020600020905b81548152906001019060200180831161074957829003601f168201915b5050505050815260200190600101906106cf565b5050505090505b90565b600061078f82611aeb565b92915050565b600091825260026020526040909120600a0180549091019055565b600091825260026020908152604083206007018054600181018255908452922090910155565b600061078f818363ffffffff611cda16565b6000805b600084815260026020526040902060070154600019018110156108a857600084815260026020526040902060070180548491908390811061082957fe5b9060005260206000200154141561083f57600191505b81156108a057600084815260026020526040902060070180546001830190811061086557fe5b9060005260206000200154600260008681526020019081526020016000206007018281548110151561089357fe5b6000918252602090912001555b6001016107ec565b8115610900576000848152600260205260409020600701805460001981019081106108cf57fe5b6000918252602080832090910182905585825260029052604090206007018054906108fe906000198301612520565b505b50505050565b60606000805b600454811015610aa157846040518082805190602001908083835b602083106109465780518252601f199092019160209182019101610927565b6001836020036101000a0380198251168184511680821785525050505050509050019150506040518091039020600019166002600060048481548110151561098a57fe5b906000526020600020015481526020019081526020016000206005016040518082805460018160011615610100020316600290048015610a015780601f106109df576101008083540402835291820191610a01565b820191906000526020600020905b8154815290600101906020018083116109ed575b5050915050604051809103902060001916148015610a4e57508360026000600484815481101515610a2e57fe5b906000526020600020015481526020019081526020016000206000015414155b15610a99578160026000600484815481101515610a6757fe5b600091825260208083209091015483528281019390935260409091018120548354600181018555938252919020909101555b60010161090c565b815460408051602080840282018101909252828152918491830182828015610ae857602002820191906000526020600020905b815481526020019060010190808311610ad4575b50505050509250505092915050565b6060806000600480549050604051908082528060200260200182016040528015610b3b57816020015b610b28612544565b815260200190600190039081610b205790505b509150600090505b600454811015610fc85760026000600483815481101515610b6057fe5b9060005260206000200154815260200190815260200160002061016060405190810160405290816000820154815260200160018201548152602001600282018054600181600116156101000203166002900480601f016020809104026020016040519081016040528092919081815260200182805460018160011615610100020316600290048015610c335780601f10610c0857610100808354040283529160200191610c33565b820191906000526020600020905b815481529060010190602001808311610c1657829003601f168201915b505050918352505060038201805460408051602060026001851615610100026000190190941693909304601f8101849004840282018401909252818152938201939291830182828015610cc75780601f10610c9c57610100808354040283529160200191610cc7565b820191906000526020600020905b815481529060010190602001808311610caa57829003601f168201915b505050918352505060048201805460408051602060026001851615610100026000190190941693909304601f8101849004840282018401909252818152938201939291830182828015610d5b5780601f10610d3057610100808354040283529160200191610d5b565b820191906000526020600020905b815481529060010190602001808311610d3e57829003601f168201915b505050918352505060058201805460408051602060026001851615610100026000190190941693909304601f8101849004840282018401909252818152938201939291830182828015610def5780601f10610dc457610100808354040283529160200191610def565b820191906000526020600020905b815481529060010190602001808311610dd257829003601f168201915b505050918352505060068201805460408051602060026001851615610100026000190190941693909304601f8101849004840282018401909252818152938201939291830182828015610e835780601f10610e5857610100808354040283529160200191610e83565b820191906000526020600020905b815481529060010190602001808311610e6657829003601f168201915b5050505050815260200160078201805480602002602001604051908101604052809291908181526020018280548015610edb57602002820191906000526020600020905b815481526020019060010190808311610ec7575b5050505050815260200160088201805480602002602001604051908101604052809291908181526020018280548015610f3357602002820191906000526020600020905b815481526020019060010190808311610f1f575b5050505050815260200160098201805480602002602001604051908101604052809291908181526020018280548015610f9557602002820191906000526020600020905b8154600160a060020a03168152600190910190602001808311610f77575b50505050508152602001600a820154815250508282815181101515610fb657fe5b60209081029091010152600101610b43565b50919050565b6000610fd9336107d6565b1515610fe457600080fd5b5060045490565b60009081526002602052604090206008015490565b600090815260026020908152604082206009018054600181018255908352912001805473ffffffffffffffffffffffffffffffffffffffff191633179055565b6000805b6000848152600260205260409020600801546000190181101561110057600084815260026020526040902060080180548491908390811061108157fe5b9060005260206000200154141561109757600191505b81156110f85760008481526002602052604090206008018054600183019081106110bd57fe5b906000526020600020015460026000868152602001908152602001600020600801828154811015156110eb57fe5b6000918252602090912001555b600101611044565b81156109005760008481526002602052604090206008018054600019810190811061112757fe5b6000918252602080832090910182905585825260029052604090206008018054906108fe906000198301612520565b6000611161336107d6565b151561116c57600080fd5b50805b600154600019018110156111d8576001805482820190811061118d57fe5b906000526020600020016001828154811015156111a657fe5b9060005260206000200190805460018160011615610100020316600290046111cf92919061259f565b5060010161116f565b6001805460001981019081106111ea57fe5b9060005260206000200160006112009190612614565b6001805490610567906000198301612658565b600082815260026020908152604090912082516105679260079092019184019061267c565b606060008060006060600061124e600a88611d11565b60045490955061125f90600a611d4a565b600454909450158061127657506004546000190185115b8061128057508387115b1561128a57611753565b60408051600a80825261016082019092526000945090816020015b6112ad612544565b8152602001906001900390816112a55790505091508490505b60045481101561174f57600260006004838154811015156112e357fe5b9060005260206000200154815260200190815260200160002061016060405190810160405290816000820154815260200160018201548152602001600282018054600181600116156101000203166002900480601f0160208091040260200160405190810160405280929190818152602001828054600181600116156101000203166002900480156113b65780601f1061138b576101008083540402835291602001916113b6565b820191906000526020600020905b81548152906001019060200180831161139957829003601f168201915b505050918352505060038201805460408051602060026001851615610100026000190190941693909304601f810184900484028201840190925281815293820193929183018282801561144a5780601f1061141f5761010080835404028352916020019161144a565b820191906000526020600020905b81548152906001019060200180831161142d57829003601f168201915b505050918352505060048201805460408051602060026001851615610100026000190190941693909304601f81018490048402820184019092528181529382019392918301828280156114de5780601f106114b3576101008083540402835291602001916114de565b820191906000526020600020905b8154815290600101906020018083116114c157829003601f168201915b505050918352505060058201805460408051602060026001851615610100026000190190941693909304601f81018490048402820184019092528181529382019392918301828280156115725780601f1061154757610100808354040283529160200191611572565b820191906000526020600020905b81548152906001019060200180831161155557829003601f168201915b505050918352505060068201805460408051602060026001851615610100026000190190941693909304601f81018490048402820184019092528181529382019392918301828280156116065780601f106115db57610100808354040283529160200191611606565b820191906000526020600020905b8154815290600101906020018083116115e957829003601f168201915b505050505081526020016007820180548060200260200160405190810160405280929190818152602001828054801561165e57602002820191906000526020600020905b81548152602001906001019080831161164a575b50505050508152602001600882018054806020026020016040519081016040528092919081815260200182805480156116b657602002820191906000526020600020905b8154815260200190600101908083116116a2575b505050505081526020016009820180548060200260200160405190810160405280929190818152602001828054801561171857602002820191906000526020600020905b8154600160a060020a031681526001909101906020018083116116fa575b50505050508152602001600a82015481525050828481518110151561173957fe5b60209081029091010152600192830192016112c6565b8195505b5050505050919050565b6000805b6000848152600260205260409020600901546000190181101561185a5760008481526002602052604090206009018054600160a060020a0385169190839081106117a757fe5b600091825260209091200154600160a060020a031614156117c757600191505b81156118525760008481526002602052604090206009018054600183019081106117ed57fe5b6000918252602080832090910154868352600290915260409091206009018054600160a060020a03909216918390811061182357fe5b9060005260206000200160006101000a815481600160a060020a030219169083600160a060020a031602179055505b600101611761565b60008481526002602052604090206009018054600019810190811061187b57fe5b60009182526020808320909101805473ffffffffffffffffffffffffffffffffffffffff1916905585825260029052604090206009018054906108fe906000198301612520565b6118cb336107d6565b15156118d657600080fd5b600088815260026020526040812054116119055760405160e560020a62461bcd0281526004016106409061312b565b60008881526002602052604090206001015487146119385760405160e560020a62461bcd028152600401610640906130fb565b6000888152600260208181526040909220885161195d939190920191908901906124a2565b5060008881526002602090815260409091208351611983926006909201918501906124a2565b50600097885260026020526040909720600a0196909655505050505050565b6000908152600260205260409020600a015490565b600091825260026020908152604083206008018054600181018255908452922090910155565b6119e633611d6d565b565b6119f1336107d6565b15156119fc57600080fd5b611a0581611db5565b50565b600380546001019081905590565b6000908152600260205260408120541190565b600080611a35336107d6565b1515611a4057600080fd5b60008811611a635760405160e560020a62461bcd0281526004016106409061316b565b50600380546001019081905560008181526002602052604090205415611a9e5760405160e560020a62461bcd0281526004016106409061311b565b611aad81898989898989611dfd565b60008181526002602052604090206103e8600a90910155979650505050505050565b600091825260026020526040909120600a018054919091039055565b6000808080600285061515611b7d5784604051602001808281526020019150506040516020818303038152906040526040518082805190602001908083835b60208310611b495780518252601f199092019160209182019101611b2a565b6001836020036101000a03801982511681845116808217855250505050505090500191505060405180910390209250611c68565b84604051602001808281526020019150506040516020818303038152906040526040518082805190602001908083835b60208310611bcc5780518252601f199092019160209182019101611bad565b51815160209384036101000a600019018019909216911617905260408051929094018290038220828201528351808303820181529184019384905281519195509293508392850191508083835b60208310611c385780518252601f199092019160209182019101611c19565b6001836020036101000a038019825116818451168082178552505050505050905001915050604051809103902092505b6020811015611c9557828160208110611c7d57fe5b60f860020a91901a8102049190910190600101611c68565b826020600284010660208110611ca757fe5b60f860020a91901a810204836020840660208110611cc157fe5b1a60f860020a0260f860020a9004029350505050919050565b6000600160a060020a0382161515611cf157600080fd5b50600160a060020a03166000908152602091909152604090205460ff1690565b600080831515611d245760009150611d43565b50828202828482811515611d3457fe5b0414611d3f57600080fd5b8091505b5092915050565b600080808311611d5957600080fd5b8284811515611d6457fe5b04949350505050565b611d7e60008263ffffffff61240816565b604051600160a060020a038216907f3525e22824a8a7df2c9a6029941c824cf95b6447f1e13d5128fd3826d35afe8b90600090a250565b611dc660008263ffffffff61245416565b604051600160a060020a038216907f47d1c22a25bb3a5d4e481b9b1e6944c2eade3181a0a20b495ed61d35b5323f2490600090a250565b611e05612544565b85511515611e285760405160e560020a62461bcd0281526004016106409061315b565b82511515611e4b5760405160e560020a62461bcd0281526004016106409061314b565b81511515611e6e5760405160e560020a62461bcd0281526004016106409061313b565b6000888152600260208181526040928390208351610160810185528154815260018083015482850152828501805487519281161561010002600019011695909504601f81018590048502820185018752808252919592949286019390929190830182828015611f1e5780601f10611ef357610100808354040283529160200191611f1e565b820191906000526020600020905b815481529060010190602001808311611f0157829003601f168201915b505050918352505060038201805460408051602060026001851615610100026000190190941693909304601f8101849004840282018401909252818152938201939291830182828015611fb25780601f10611f8757610100808354040283529160200191611fb2565b820191906000526020600020905b815481529060010190602001808311611f9557829003601f168201915b505050918352505060048201805460408051602060026001851615610100026000190190941693909304601f81018490048402820184019092528181529382019392918301828280156120465780601f1061201b57610100808354040283529160200191612046565b820191906000526020600020905b81548152906001019060200180831161202957829003601f168201915b505050918352505060058201805460408051602060026001851615610100026000190190941693909304601f81018490048402820184019092528181529382019392918301828280156120da5780601f106120af576101008083540402835291602001916120da565b820191906000526020600020905b8154815290600101906020018083116120bd57829003601f168201915b505050918352505060068201805460408051602060026001851615610100026000190190941693909304601f810184900484028201840190925281815293820193929183018282801561216e5780601f106121435761010080835404028352916020019161216e565b820191906000526020600020905b81548152906001019060200180831161215157829003601f168201915b50505050508152602001600782018054806020026020016040519081016040528092919081815260200182805480156121c657602002820191906000526020600020905b8154815260200190600101908083116121b2575b505050505081526020016008820180548060200260200160405190810160405280929190818152602001828054801561221e57602002820191906000526020600020905b81548152602001906001019080831161220a575b505050505081526020016009820180548060200260200160405190810160405280929190818152602001828054801561228057602002820191906000526020600020905b8154600160a060020a03168152600190910190602001808311612262575b5050509183525050600a919091015460209182015289825281810189815260408084018a8152606085018a90526080850189905260a0850188905260c0850187905260008d815260028086529290208551815592516001840155518051949550859492936122f493928501929101906124a2565b50606082015180516123109160038401916020909101906124a2565b506080820151805161232c9160048401916020909101906124a2565b5060a082015180516123489160058401916020909101906124a2565b5060c082015180516123649160068401916020909101906124a2565b5060e0820151805161238091600784019160209091019061267c565b50610100820151805161239d91600884019160209091019061267c565b5061012082015180516123ba9160098401916020909101906126b6565b506101409190910151600a909101555050600480546001810182556000919091527f8a35acfbc15ff81a39ae7d344fd709f28e8600b4aa8c65c6b64bfe7fe36bd19b01959095555050505050565b600160a060020a038116151561241d57600080fd5b6124278282611cda565b151561243257600080fd5b600160a060020a0316600090815260209190915260409020805460ff19169055565b600160a060020a038116151561246957600080fd5b6124738282611cda565b1561247d57600080fd5b600160a060020a0316600090815260209190915260409020805460ff19166001179055565b828054600181600116156101000203166002900490600052602060002090601f016020900481019282601f106124e357805160ff1916838001178555612510565b82800160010185558215612510579182015b828111156125105782518255916020019190600101906124f5565b5061251c929150612724565b5090565b81548183558181111561056757600083815260209020610567918101908301612724565b6101606040519081016040528060008152602001600081526020016060815260200160608152602001606081526020016060815260200160608152602001606081526020016060815260200160608152602001600081525090565b828054600181600116156101000203166002900490600052602060002090601f016020900481019282601f106125d85780548555612510565b8280016001018555821561251057600052602060002091601f016020900482015b828111156125105782548255916001019190600101906125f9565b50805460018160011615610100020316600290046000825580601f1061263a5750611a05565b601f016020900490600052602060002090810190611a059190612724565b8154818355818111156105675760008381526020902061056791810190830161273e565b82805482825590600052602060002090810192821561251057916020028201828111156125105782518255916020019190600101906124f5565b828054828255906000526020600020908101928215612718579160200282015b82811115612718578251825473ffffffffffffffffffffffffffffffffffffffff1916600160a060020a039091161782556020909201916001909101906126d6565b5061251c929150612761565b61078191905b8082111561251c576000815560010161272a565b61078191905b8082111561251c5760006127588282612614565b50600101612744565b61078191905b8082111561251c57805473ffffffffffffffffffffffffffffffffffffffff19168155600101612767565b600061279e8235613203565b9392505050565b6000601f820183136127b657600080fd5b81356127c96127c4826131b0565b613189565b915081818352602084019350602081019050838560208402820111156127ee57600080fd5b60005b8381101561281a57816128048882612873565b84525060209283019291909101906001016127f1565b5050505092915050565b6000601f8201831361283557600080fd5b81356128436127c4826131d1565b9150808252602083016020830185838301111561285f57600080fd5b61286a838284613214565b50505092915050565b600061279e8235610781565b60006020828403121561289157600080fd5b600061289d8484612792565b949350505050565b6000602082840312156128b757600080fd5b813567ffffffffffffffff8111156128ce57600080fd5b61289d84828501612824565b600080604083850312156128ed57600080fd5b823567ffffffffffffffff81111561290457600080fd5b61291085828601612824565b925050602061292185828601612873565b9150509250929050565b60006020828403121561293d57600080fd5b600061289d8484612873565b6000806040838503121561295c57600080fd5b60006129688585612873565b925050602061292185828601612792565b6000806040838503121561298c57600080fd5b60006129988585612873565b925050602083013567ffffffffffffffff8111156129b557600080fd5b612921858286016127a5565b60008060008060008060c087890312156129da57600080fd5b60006129e68989612873565b965050602087013567ffffffffffffffff811115612a0357600080fd5b612a0f89828a01612824565b955050604087013567ffffffffffffffff811115612a2c57600080fd5b612a3889828a01612824565b945050606087013567ffffffffffffffff811115612a5557600080fd5b612a6189828a01612824565b935050608087013567ffffffffffffffff811115612a7e57600080fd5b612a8a89828a01612824565b92505060a087013567ffffffffffffffff811115612aa757600080fd5b612ab389828a01612824565b9150509295509295509295565b60008060408385031215612ad357600080fd5b60006129108585612873565b600080600080600080600080610100898b031215612afc57600080fd5b6000612b088b8b612873565b9850506020612b198b828c01612873565b975050604089013567ffffffffffffffff811115612b3657600080fd5b612b428b828c01612824565b965050606089013567ffffffffffffffff811115612b5f57600080fd5b612b6b8b828c01612824565b955050608089013567ffffffffffffffff811115612b8857600080fd5b612b948b828c01612824565b94505060a089013567ffffffffffffffff811115612bb157600080fd5b612bbd8b828c01612824565b93505060c089013567ffffffffffffffff811115612bda57600080fd5b612be68b828c01612824565b92505060e0612bf78b828c01612873565b9150509295985092959890939650565b612c1081613203565b82525050565b6000612c21826131ff565b808452602084019350612c33836131f9565b60005b82811015612c6357612c49868351612c07565b612c52826131f9565b602096909601959150600101612c36565b5093949350505050565b6000612c78826131ff565b80845260208401935083602082028501612c91856131f9565b60005b84811015612cc8578383038852612cac838351612dd2565b9250612cb7826131f9565b602098909801979150600101612c94565b50909695505050505050565b6000612cdf826131ff565b80845260208401935083602082028501612cf8856131f9565b60005b84811015612cc8578383038852612d13838351612f87565b9250612d1e826131f9565b602098909801979150600101612cfb565b6000612d3a826131ff565b808452602084019350612d4c836131f9565b60005b82811015612c6357612d628683516130a0565b612d6b826131f9565b602096909601959150600101612d4f565b6000612d87826131ff565b808452602084019350612d99836131f9565b60005b82811015612c6357612daf8683516130a0565b612db8826131f9565b602096909601959150600101612d9c565b612c108161320f565b6000612ddd826131ff565b808452612df1816020860160208601613220565b612dfa8161324c565b9093016020019392505050565b601a81527f4372656174696f6e204461746520697320696d6d757461626c65000000000000602082015260400190565b601181527f6d656d626572206e6f7420657869737473000000000000000000000000000000602082015260400190565b601581527f4d656d62657220616c7265616479206578697374730000000000000000000000602082015260400190565b601181527f4d656d626572206e6f7420657869737473000000000000000000000000000000602082015260400190565b601281527f5468656d65206973206d616e6461746f72790000000000000000000000000000602082015260400190565b601081527f434d4f206973206d616e6461746f727900000000000000000000000000000000602082015260400190565b601181527f4e616d65206973206d616e6461746f7279000000000000000000000000000000602082015260400190565b601981527f4372656174696f6e44617465206973206d616e6461746f727900000000000000602082015260400190565b8051600090610160840190612f9c85826130a0565b506020830151612faf60208601826130a0565b5060408301518482036040860152612fc78282612dd2565b91505060608301518482036060860152612fe18282612dd2565b91505060808301518482036080860152612ffb8282612dd2565b91505060a083015184820360a08601526130158282612dd2565b91505060c083015184820360c086015261302f8282612dd2565b91505060e083015184820360e08601526130498282612d7c565b9150506101008301518482036101008601526130658282612d7c565b9150506101208301518482036101208601526130818282612c16565b9150506101408301516130986101408601826130a0565b509392505050565b612c1081610781565b6020808252810161279e8184612c6d565b6020808252810161279e8184612cd4565b6020808252810161279e8184612d2f565b6020810161078f8284612dc9565b6020808252810161279e8184612dd2565b6020808252810161078f81612e07565b6020808252810161078f81612e37565b6020808252810161078f81612e67565b6020808252810161078f81612e97565b6020808252810161078f81612ec7565b6020808252810161078f81612ef7565b6020808252810161078f81612f27565b6020808252810161078f81612f57565b6020810161078f82846130a0565b60405181810167ffffffffffffffff811182821017156131a857600080fd5b604052919050565b600067ffffffffffffffff8211156131c757600080fd5b5060209081020190565b600067ffffffffffffffff8211156131e857600080fd5b506020601f91909101601f19160190565b60200190565b5190565b600160a060020a031690565b151590565b82818337506000910152565b60005b8381101561323b578181015183820152602001613223565b838111156109005750506000910152565b601f01601f1916905600a265627a7a7230582091bba3b92bd5c3a3daaa5592abb67642889c8ac6eb7a75751b6fa208132291236c6578706572696d656e74616cf50037",
  "source": "pragma solidity ^0.4.24;\npragma experimental ABIEncoderV2;\n\nimport \"./SafeMath.sol\";\nimport \"./random.sol\";\nimport \"./Registry.sol\";\n\ncontract Members is Random, Registry {\n\n  struct Member { \n    uint256 memberId;\n    uint256 creationDate;\n    string name;\n    string logo;\n    string country;\n    string cmo;\n    string theme;\n    uint256[] claimInbox;\n    uint256[] claims;\n    address[] userRequests;\n    uint totalTokens;\n  }\n\n  uint256 constant private PAGE_SIZE = 10;\n\n  mapping (uint256 => Member) members_;\n  uint256 private memberIdCounter_ = 0; // Equals the number of (members + Super Admins) ever inserted, including the deleted ones.\n\n  uint256[] private membersList_;\n\n  // METHODS\n  // Public\n\n  function addMember(uint256 _creationDate, string _name, string _logo, string _country, string _cmo, string _theme) onlySigner public returns(uint) {\n    //  string _group) onlySigner public returns(uint) {\n    require(_creationDate > 0, \"CreationDate is mandatory\");\n//    uint256 _memberId = Random.rand(_creationDate);\n    uint256 _memberId = ++memberIdCounter_;\n    require(members_[_memberId].memberId == 0, \"Member already exists\");\n    _saveMember(_memberId, _creationDate, _name, _logo, _country, _cmo, _theme);\n//    members_[_memberId].group = _group;\n    members_[_memberId].totalTokens = 1000;\n\n    return _memberId;\n  }\n\n  function updateMember(uint256 _memberId, uint256 _creationDate,\n    string _name, string _logo, string _country, string _cmo, string _theme, uint _totalTokens) onlySigner public {\n  // , string _group) onlySigner public {\n    require(members_[_memberId].memberId > 0, \"Member not exists\");\n    require(members_[_memberId].creationDate == _creationDate, \"Creation Date is immutable\");\n//    _saveMember(_memberId, _creationDate, _name, _logo, _country, _cmo, _theme);\n//    members_[_memberId].group = _group;\n    members_[_memberId].name = _name;\n    members_[_memberId].theme = _theme;\n    members_[_memberId].totalTokens = _totalTokens;\n  }\n\n  function updateMemberClaimInbox(uint256 _memberId, uint256[] newInbox) public {\n    members_[_memberId].claimInbox = newInbox;\n  }\n\n  function getMembers() public view returns (Member[] memory) {\n    Member[] memory memberPage = new Member[](membersList_.length);\n    for (uint i = 0; i < membersList_.length; ++i) {\n        memberPage[i] = members_[membersList_[i]];\n    }\n    return memberPage;\n  }\n\n  function getMembers(uint _page) public view returns (Member[] memory) {\n    uint256 pageIndex = SafeMath.mul(PAGE_SIZE, _page);\n    uint256 pageNumber = SafeMath.div(membersList_.length, PAGE_SIZE);\n\n    if (membersList_.length == 0 || pageIndex > membersList_.length - 1 || _page > pageNumber) {\n      return;\n    }\n\n    // Insert items filtered into array.\n    uint256 resultCount = 0;\n    Member[] memory memberPage = new Member[](PAGE_SIZE);\n    for(uint j = pageIndex; j < membersList_.length; ++j) {\n        memberPage[resultCount] = members_[membersList_[j]];\n        ++resultCount;\n    }\n    return memberPage;\n  }\n\n  function getCount() onlySigner public view returns (uint256) {\n    return membersList_.length;\n  }\n\n  // Private\n\n  function _saveMember(uint256 _memberId, uint256 _creationDate, string _name, string _logo, string _country, string _cmo, string _theme) internal {\n\n    require(bytes(_name).length != 0, \"Name is mandatory\");\n    require(bytes(_cmo).length != 0, \"CMO is mandatory\");\n    require(bytes(_theme).length != 0, \"Theme is mandatory\");\n\n    Member memory member = members_[_memberId];\n    member.memberId = _memberId;\n    member.creationDate = _creationDate;\n    member.name = _name;\n    member.logo = _logo;\n    member.country = _country;\n    member.cmo = _cmo;\n    member.theme = _theme;\n\n    members_[_memberId] = member;\n    membersList_.push(_memberId);\n\n  }\n\n  function _getMemberIdsOfCurrentCMO(string currentCMO, uint256 currentCMOId) public returns(uint[]) {\n    uint[] memberIds;\n    for (uint j = 0; j < membersList_.length; ++j) {\n      if (keccak256(members_[membersList_[j]].cmo) == keccak256(currentCMO) && members_[membersList_[j]].memberId != currentCMOId) {\n        memberIds.push(members_[membersList_[j]].memberId);\n      }\n    }\n    return memberIds;\n  }\n\n  function _getClaimsIdByMember(uint _memberId) public view returns(uint[])  {\n    require(members_[_memberId].memberId > 0, \"member not exists\");\n    return members_[_memberId].claims;\n  }\n\n  function _getClaimsCountByMember(uint _memberId) public view returns(uint) {\n    return members_[_memberId].claims.length;\n  }\n\n  function _addUserToMemberRequest(uint _memberId) public {\n    members_[_memberId].userRequests.push(msg.sender);\n  }\n\n  function _addClaimIdToMemberOwner(uint _memberId, uint _claimId) public {\n    members_[_memberId].claims.push(_claimId);\n  }\n\n  function _removeClaimFromMember(uint _memberId, uint _claimId) public {\n    bool found = false;\n    for (uint j = 0; j < members_[_memberId].claims.length - 1; j++) {\n      if(members_[_memberId].claims[j] == _claimId) {\n        found = true;\n      }\n      if(found) {\n        members_[_memberId].claims[j] = members_[_memberId].claims[j + 1];\n      }\n    }\n    //    if (found) {\n//    delete members_[_memberId].claims[members_[_memberId].claims.length - 1];\n//    members_[_memberId].claims.length--;\n    //    }\n    if (found) {\n//      if (members_[_memberId].claims.length == 1) {\n//        delete members_[_memberId].claims;\n//      }\n//      else {\n      delete members_[_memberId].claims[members_[_memberId].claims.length - 1];\n        members_[_memberId].claims.length--;\n//      }\n    }\n  }\n\n  function _addClaimFromInbox(uint _memberId, uint _claimId) public {\n    members_[_memberId].claimInbox.push(_claimId);\n  }\n\n  function _memberExists(uint _memberId) public view returns(bool) {\n    return members_[_memberId].memberId > 0;\n  }\n\n  function _removeClaimFromInbox(uint _memberId, uint _claimId) public {\n    bool found = false;\n    // Remove index\n    for (uint j = 0; j < members_[_memberId].claimInbox.length - 1; j++) {\n      if(members_[_memberId].claimInbox[j] == _claimId) {\n        found = true;\n      }\n      if(found) {\n        members_[_memberId].claimInbox[j] = members_[_memberId].claimInbox[j + 1];\n      }\n    }\n    if (found) {\n      delete members_[_memberId].claimInbox[members_[_memberId].claimInbox.length - 1];\n      members_[_memberId].claimInbox.length--;\n    }\n  }\n\n  function _clearUserFromMemberRequest(uint _memberId, address userAddress) public {\n     bool found = false;\n    // Remove index\n    for (uint j = 0; j < members_[_memberId].userRequests.length - 1; j++) {\n      if(members_[_memberId].userRequests[j] == userAddress) {\n        found = true;\n      }\n      if(found) {\n        members_[_memberId].userRequests[j] = members_[_memberId].userRequests[j + 1];\n      }\n    }\n//    if (found) {\n      delete members_[_memberId].userRequests[members_[_memberId].userRequests.length - 1];\n      members_[_memberId].userRequests.length--;\n//    }\n  }\n\n  // New; after separated Users from Members contract\n  function updateMemberTotalTokens(uint memberId, uint cost) {\n    members_[memberId].totalTokens -= cost;\n  }\n\n  function increaseMemberTotalTokens(uint memberId, uint cost) {\n    members_[memberId].totalTokens += cost;\n  }\n\n  function getMemberCmo(uint memberId) public view returns(string) {\n    return members_[memberId].cmo;\n  }\n\n  function getMemberTotalTokens(uint memberId) public view returns(uint) {\n    return members_[memberId].totalTokens;\n  }\n\n  function calcRandom(uint seed) public view returns(uint) {\n    return Random.rand(seed);\n  }\n\n  function returnUpdatedMemberIdCounter() public returns(uint) {\n    return ++memberIdCounter_;\n  }\n\n}\n",
  "sourcePath": "/home/komodo/newUI2/bloomen-decentralized-rights-management-v2/truffle/contracts/registry/Members.sol",
  "compiler": {
    "name": "solc",
    "version": "0.4.24+commit.e67f0147.Emscripten.clang"
  },
  "schemaVersion": "2.0.1",
  "updatedAt": "2020-06-25T16:41:16.255Z"
}