{
  "contractName": "Members",
  "abi": [
    {
      "constant": false,
      "inputs": [
        {
          "name": "_cmo",
          "type": "string"
        }
      ],
      "name": "addCMO",
      "outputs": [],
      "payable": false,
      "stateMutability": "nonpayable",
      "type": "function"
    },
    {
      "constant": true,
      "inputs": [],
      "name": "getCMOs",
      "outputs": [
        {
          "name": "",
          "type": "string[]"
        }
      ],
      "payable": false,
      "stateMutability": "view",
      "type": "function"
    },
    {
      "constant": true,
      "inputs": [
        {
          "name": "account",
          "type": "address"
        }
      ],
      "name": "isSigner",
      "outputs": [
        {
          "name": "",
          "type": "bool"
        }
      ],
      "payable": false,
      "stateMutability": "view",
      "type": "function"
    },
    {
      "constant": false,
      "inputs": [
        {
          "name": "_index",
          "type": "uint256"
        }
      ],
      "name": "deleteCMO",
      "outputs": [],
      "payable": false,
      "stateMutability": "nonpayable",
      "type": "function"
    },
    {
      "constant": false,
      "inputs": [],
      "name": "renounceSigner",
      "outputs": [],
      "payable": false,
      "stateMutability": "nonpayable",
      "type": "function"
    },
    {
      "constant": false,
      "inputs": [
        {
          "name": "account",
          "type": "address"
        }
      ],
      "name": "addSigner",
      "outputs": [],
      "payable": false,
      "stateMutability": "nonpayable",
      "type": "function"
    },
    {
      "anonymous": false,
      "inputs": [
        {
          "indexed": true,
          "name": "account",
          "type": "address"
        }
      ],
      "name": "SignerAdded",
      "type": "event"
    },
    {
      "anonymous": false,
      "inputs": [
        {
          "indexed": true,
          "name": "account",
          "type": "address"
        }
      ],
      "name": "SignerRemoved",
      "type": "event"
    },
    {
      "constant": false,
      "inputs": [
        {
          "name": "_creationDate",
          "type": "uint256"
        },
        {
          "name": "_name",
          "type": "string"
        },
        {
          "name": "_logo",
          "type": "string"
        },
        {
          "name": "_country",
          "type": "string"
        },
        {
          "name": "_cmo",
          "type": "string"
        },
        {
          "name": "_theme",
          "type": "string"
        }
      ],
      "name": "addMember",
      "outputs": [
        {
          "name": "",
          "type": "uint256"
        }
      ],
      "payable": false,
      "stateMutability": "nonpayable",
      "type": "function"
    },
    {
      "constant": false,
      "inputs": [
        {
          "name": "_memberId",
          "type": "uint256"
        },
        {
          "name": "_creationDate",
          "type": "uint256"
        },
        {
          "name": "_name",
          "type": "string"
        },
        {
          "name": "_logo",
          "type": "string"
        },
        {
          "name": "_country",
          "type": "string"
        },
        {
          "name": "_cmo",
          "type": "string"
        },
        {
          "name": "_theme",
          "type": "string"
        },
        {
          "name": "_totalTokens",
          "type": "uint256"
        }
      ],
      "name": "updateMember",
      "outputs": [],
      "payable": false,
      "stateMutability": "nonpayable",
      "type": "function"
    },
    {
      "constant": false,
      "inputs": [
        {
          "name": "_memberId",
          "type": "uint256"
        },
        {
          "name": "newInbox",
          "type": "uint256[]"
        }
      ],
      "name": "updateMemberClaimInbox",
      "outputs": [],
      "payable": false,
      "stateMutability": "nonpayable",
      "type": "function"
    },
    {
      "constant": true,
      "inputs": [
        {
          "name": "_page",
          "type": "uint256"
        }
      ],
      "name": "getMembers",
      "outputs": [
        {
          "components": [
            {
              "name": "memberId",
              "type": "uint256"
            },
            {
              "name": "creationDate",
              "type": "uint256"
            },
            {
              "name": "name",
              "type": "string"
            },
            {
              "name": "logo",
              "type": "string"
            },
            {
              "name": "country",
              "type": "string"
            },
            {
              "name": "cmo",
              "type": "string"
            },
            {
              "name": "theme",
              "type": "string"
            },
            {
              "name": "claimInbox",
              "type": "uint256[]"
            },
            {
              "name": "claims",
              "type": "uint256[]"
            },
            {
              "name": "userRequests",
              "type": "address[]"
            },
            {
              "name": "totalTokens",
              "type": "uint256"
            }
          ],
          "name": "",
          "type": "tuple[]"
        }
      ],
      "payable": false,
      "stateMutability": "view",
      "type": "function"
    },
    {
      "constant": true,
      "inputs": [],
      "name": "getMembers",
      "outputs": [
        {
          "components": [
            {
              "name": "memberId",
              "type": "uint256"
            },
            {
              "name": "creationDate",
              "type": "uint256"
            },
            {
              "name": "name",
              "type": "string"
            },
            {
              "name": "logo",
              "type": "string"
            },
            {
              "name": "country",
              "type": "string"
            },
            {
              "name": "cmo",
              "type": "string"
            },
            {
              "name": "theme",
              "type": "string"
            },
            {
              "name": "claimInbox",
              "type": "uint256[]"
            },
            {
              "name": "claims",
              "type": "uint256[]"
            },
            {
              "name": "userRequests",
              "type": "address[]"
            },
            {
              "name": "totalTokens",
              "type": "uint256"
            }
          ],
          "name": "",
          "type": "tuple[]"
        }
      ],
      "payable": false,
      "stateMutability": "view",
      "type": "function"
    },
    {
      "constant": true,
      "inputs": [],
      "name": "getCount",
      "outputs": [
        {
          "name": "",
          "type": "uint256"
        }
      ],
      "payable": false,
      "stateMutability": "view",
      "type": "function"
    },
    {
      "constant": false,
      "inputs": [
        {
          "name": "currentCMO",
          "type": "string"
        },
        {
          "name": "currentCMOId",
          "type": "uint256"
        }
      ],
      "name": "_getMemberIdsOfCurrentCMO",
      "outputs": [
        {
          "name": "",
          "type": "uint256[]"
        }
      ],
      "payable": false,
      "stateMutability": "nonpayable",
      "type": "function"
    },
    {
      "constant": true,
      "inputs": [
        {
          "name": "_memberId",
          "type": "uint256"
        }
      ],
      "name": "_getClaimsIdByMember",
      "outputs": [
        {
          "name": "",
          "type": "uint256[]"
        }
      ],
      "payable": false,
      "stateMutability": "view",
      "type": "function"
    },
    {
      "constant": true,
      "inputs": [
        {
          "name": "_memberId",
          "type": "uint256"
        }
      ],
      "name": "_getClaimsCountByMember",
      "outputs": [
        {
          "name": "",
          "type": "uint256"
        }
      ],
      "payable": false,
      "stateMutability": "view",
      "type": "function"
    },
    {
      "constant": false,
      "inputs": [
        {
          "name": "_memberId",
          "type": "uint256"
        }
      ],
      "name": "_addUserToMemberRequest",
      "outputs": [],
      "payable": false,
      "stateMutability": "nonpayable",
      "type": "function"
    },
    {
      "constant": false,
      "inputs": [
        {
          "name": "_memberId",
          "type": "uint256"
        },
        {
          "name": "_claimId",
          "type": "uint256"
        }
      ],
      "name": "_addClaimIdToMemberOwner",
      "outputs": [],
      "payable": false,
      "stateMutability": "nonpayable",
      "type": "function"
    },
    {
      "constant": false,
      "inputs": [
        {
          "name": "_memberId",
          "type": "uint256"
        },
        {
          "name": "_claimId",
          "type": "uint256"
        }
      ],
      "name": "_removeClaimFromMember",
      "outputs": [],
      "payable": false,
      "stateMutability": "nonpayable",
      "type": "function"
    },
    {
      "constant": false,
      "inputs": [
        {
          "name": "_memberId",
          "type": "uint256"
        },
        {
          "name": "_claimId",
          "type": "uint256"
        }
      ],
      "name": "_addClaimFromInbox",
      "outputs": [],
      "payable": false,
      "stateMutability": "nonpayable",
      "type": "function"
    },
    {
      "constant": true,
      "inputs": [
        {
          "name": "_memberId",
          "type": "uint256"
        }
      ],
      "name": "_memberExists",
      "outputs": [
        {
          "name": "",
          "type": "bool"
        }
      ],
      "payable": false,
      "stateMutability": "view",
      "type": "function"
    },
    {
      "constant": false,
      "inputs": [
        {
          "name": "_memberId",
          "type": "uint256"
        },
        {
          "name": "_claimId",
          "type": "uint256"
        }
      ],
      "name": "_removeClaimFromInbox",
      "outputs": [],
      "payable": false,
      "stateMutability": "nonpayable",
      "type": "function"
    },
    {
      "constant": false,
      "inputs": [
        {
          "name": "_memberId",
          "type": "uint256"
        },
        {
          "name": "userAddress",
          "type": "address"
        }
      ],
      "name": "_clearUserFromMemberRequest",
      "outputs": [],
      "payable": false,
      "stateMutability": "nonpayable",
      "type": "function"
    },
    {
      "constant": false,
      "inputs": [
        {
          "name": "memberId",
          "type": "uint256"
        },
        {
          "name": "cost",
          "type": "uint256"
        }
      ],
      "name": "updateMemberTotalTokens",
      "outputs": [],
      "payable": false,
      "stateMutability": "nonpayable",
      "type": "function"
    },
    {
      "constant": false,
      "inputs": [
        {
          "name": "memberId",
          "type": "uint256"
        },
        {
          "name": "cost",
          "type": "uint256"
        }
      ],
      "name": "increaseMemberTotalTokens",
      "outputs": [],
      "payable": false,
      "stateMutability": "nonpayable",
      "type": "function"
    },
    {
      "constant": true,
      "inputs": [
        {
          "name": "memberId",
          "type": "uint256"
        }
      ],
      "name": "getMemberCmo",
      "outputs": [
        {
          "name": "",
          "type": "string"
        }
      ],
      "payable": false,
      "stateMutability": "view",
      "type": "function"
    },
    {
      "constant": true,
      "inputs": [
        {
          "name": "memberId",
          "type": "uint256"
        }
      ],
      "name": "getMemberTotalTokens",
      "outputs": [
        {
          "name": "",
          "type": "uint256"
        }
      ],
      "payable": false,
      "stateMutability": "view",
      "type": "function"
    },
    {
      "constant": true,
      "inputs": [
        {
          "name": "seed",
          "type": "uint256"
        }
      ],
      "name": "calcRandom",
      "outputs": [
        {
          "name": "",
          "type": "uint256"
        }
      ],
      "payable": false,
      "stateMutability": "pure",
      "type": "function"
    },
    {
      "constant": false,
      "inputs": [],
      "name": "returnUpdatedMemberIdCounter",
      "outputs": [
        {
          "name": "",
          "type": "uint256"
        }
      ],
      "payable": false,
      "stateMutability": "nonpayable",
      "type": "function"
    }
  ],
  "bytecode": "0x608060405260006003556200001d3364010000000062000023810204565b62000108565b6200003e600082640100000000620023f26200007582021704565b604051600160a060020a038216907f47d1c22a25bb3a5d4e481b9b1e6944c2eade3181a0a20b495ed61d35b5323f2490600090a250565b600160a060020a03811615156200008b57600080fd5b620000a08282640100000000620000d0810204565b15620000ab57600080fd5b600160a060020a0316600090815260209190915260409020805460ff19166001179055565b6000600160a060020a0382161515620000e857600080fd5b50600160a060020a03166000908152602091909152604090205460ff1690565b6131ae80620001186000396000f3006080604052600436106101695763ffffffff7c01000000000000000000000000000000000000000000000000000000006000350416633a59ccf1811461016e578063466cc2bf146101905780636262dff6146101c6578063656d561c146101f35780636ce5e2bb146102155780636df448981461024257806374853239146102625780637df73e27146102825780638b92892b146102af578063989359df146102cf5780639eab5253146102ef578063a87d942c14610311578063affccd8414610326578063b78c36c714610346578063bb03b70614610366578063bf3d007e14610386578063c29c9225146103a6578063c477ecab146103c6578063c88597c2146103e6578063d68dee9d14610406578063d803437914610426578063e2c11f9e14610446578063e5c8b03d14610466578063eb12d61e1461047b578063f44a8bbe1461049b578063f8380733146104b0578063fa1188c6146104d0578063fda65156146104f0575b600080fd5b34801561017a57600080fd5b5061018e610189366004612843565b610510565b005b34801561019c57600080fd5b506101b06101ab3660046128c9565b61056c565b6040516101bd9190613028565b60405180910390f35b3480156101d257600080fd5b506101e66101e13660046128c9565b61060e565b6040516101bd9190613009565b3480156101ff57600080fd5b506102086106ab565b6040516101bd9190612fe7565b34801561022157600080fd5b506102356102303660046128c9565b610784565b6040516101bd9190613099565b34801561024e57600080fd5b5061018e61025d366004612a5e565b610795565b34801561026e57600080fd5b5061018e61027d366004612a5e565b6107b0565b34801561028e57600080fd5b506102a261029d36600461281d565b6107d6565b6040516101bd919061301a565b3480156102bb57600080fd5b5061018e6102ca366004612a5e565b6107e8565b3480156102db57600080fd5b506101e66102ea366004612878565b610906565b3480156102fb57600080fd5b50610304610af7565b6040516101bd9190612ff8565b34801561031d57600080fd5b50610235610fce565b34801561033257600080fd5b506102356103413660046128c9565b610feb565b34801561035257600080fd5b5061018e6103613660046128c9565b611000565b34801561037257600080fd5b5061018e610381366004612a5e565b611040565b34801561039257600080fd5b5061018e6103a13660046128c9565b611156565b3480156103b257600080fd5b5061018e6103c1366004612917565b611213565b3480156103d257600080fd5b506103046103e13660046128c9565b611238565b3480156103f257600080fd5b5061018e6104013660046128e7565b61175d565b34801561041257600080fd5b5061018e610421366004612a7d565b6118c2565b34801561043257600080fd5b506102356104413660046128c9565b611940565b34801561045257600080fd5b5061018e610461366004612a5e565b611955565b34801561047257600080fd5b5061018e61197b565b34801561048757600080fd5b5061018e61049636600461281d565b611986565b3480156104a757600080fd5b506102356119a6565b3480156104bc57600080fd5b506102a26104cb3660046128c9565b6119b4565b3480156104dc57600080fd5b506102356104eb36600461295f565b6119c7565b3480156104fc57600080fd5b5061018e61050b366004612a5e565b611a6d565b610519336107d6565b151561052457600080fd5b600180548082018083556000929092528251610567917fb10e2d527612073b26eecdfd717e6a320cf44b4afac2b0732d9fcbe2b7fa0cf601906020850190612440565b505050565b600081815260026020818152604092839020600501805484516001821615610100026000190190911693909304601f810183900483028401830190945283835260609390918301828280156106025780601f106105d757610100808354040283529160200191610602565b820191906000526020600020905b8154815290600101906020018083116105e557829003601f168201915b50505050509050919050565b600081815260026020526040812054606091106106495760405160e560020a62461bcd02815260040161064090613039565b60405180910390fd5b6000828152600260209081526040918290206008018054835181840281018401909452808452909183018282801561060257602002820191906000526020600020905b81548152602001906001019080831161068c5750505050509050919050565b60606001805480602002602001604051908101604052809291908181526020016000905b8282101561077a5760008481526020908190208301805460408051601f60026000196101006001871615020190941693909304928301859004850281018501909152818152928301828280156107665780601f1061073b57610100808354040283529160200191610766565b820191906000526020600020905b81548152906001019060200180831161074957829003601f168201915b5050505050815260200190600101906106cf565b5050505090505b90565b600061078f82611a89565b92915050565b600091825260026020526040909120600a0180549091019055565b600091825260026020908152604083206007018054600181018255908452922090910155565b600061078f818363ffffffff611c7816565b6000805b600084815260026020526040902060070154600019018110156108a857600084815260026020526040902060070180548491908390811061082957fe5b9060005260206000200154141561083f57600191505b81156108a057600084815260026020526040902060070180546001830190811061086557fe5b9060005260206000200154600260008681526020019081526020016000206007018281548110151561089357fe5b6000918252602090912001555b6001016107ec565b8115610900576000848152600260205260409020600701805460001981019081106108cf57fe5b6000918252602080832090910182905585825260029052604090206007018054906108fe9060001983016124be565b505b50505050565b60606000805b600454811015610aa157846040518082805190602001908083835b602083106109465780518252601f199092019160209182019101610927565b6001836020036101000a0380198251168184511680821785525050505050509050019150506040518091039020600019166002600060048481548110151561098a57fe5b906000526020600020015481526020019081526020016000206005016040518082805460018160011615610100020316600290048015610a015780601f106109df576101008083540402835291820191610a01565b820191906000526020600020905b8154815290600101906020018083116109ed575b5050915050604051809103902060001916148015610a4e57508360026000600484815481101515610a2e57fe5b906000526020600020015481526020019081526020016000206000015414155b15610a99578160026000600484815481101515610a6757fe5b600091825260208083209091015483528281019390935260409091018120548354600181018555938252919020909101555b60010161090c565b815460408051602080840282018101909252828152918491830182828015610ae857602002820191906000526020600020905b815481526020019060010190808311610ad4575b50505050509250505092915050565b6060806000600480549050604051908082528060200260200182016040528015610b3b57816020015b610b286124e2565b815260200190600190039081610b205790505b509150600090505b600454811015610fc85760026000600483815481101515610b6057fe5b9060005260206000200154815260200190815260200160002061016060405190810160405290816000820154815260200160018201548152602001600282018054600181600116156101000203166002900480601f016020809104026020016040519081016040528092919081815260200182805460018160011615610100020316600290048015610c335780601f10610c0857610100808354040283529160200191610c33565b820191906000526020600020905b815481529060010190602001808311610c1657829003601f168201915b505050918352505060038201805460408051602060026001851615610100026000190190941693909304601f8101849004840282018401909252818152938201939291830182828015610cc75780601f10610c9c57610100808354040283529160200191610cc7565b820191906000526020600020905b815481529060010190602001808311610caa57829003601f168201915b505050918352505060048201805460408051602060026001851615610100026000190190941693909304601f8101849004840282018401909252818152938201939291830182828015610d5b5780601f10610d3057610100808354040283529160200191610d5b565b820191906000526020600020905b815481529060010190602001808311610d3e57829003601f168201915b505050918352505060058201805460408051602060026001851615610100026000190190941693909304601f8101849004840282018401909252818152938201939291830182828015610def5780601f10610dc457610100808354040283529160200191610def565b820191906000526020600020905b815481529060010190602001808311610dd257829003601f168201915b505050918352505060068201805460408051602060026001851615610100026000190190941693909304601f8101849004840282018401909252818152938201939291830182828015610e835780601f10610e5857610100808354040283529160200191610e83565b820191906000526020600020905b815481529060010190602001808311610e6657829003601f168201915b5050505050815260200160078201805480602002602001604051908101604052809291908181526020018280548015610edb57602002820191906000526020600020905b815481526020019060010190808311610ec7575b5050505050815260200160088201805480602002602001604051908101604052809291908181526020018280548015610f3357602002820191906000526020600020905b815481526020019060010190808311610f1f575b5050505050815260200160098201805480602002602001604051908101604052809291908181526020018280548015610f9557602002820191906000526020600020905b8154600160a060020a03168152600190910190602001808311610f77575b50505050508152602001600a820154815250508282815181101515610fb657fe5b60209081029091010152600101610b43565b50919050565b6000610fd9336107d6565b1515610fe457600080fd5b5060045490565b60009081526002602052604090206008015490565b600090815260026020908152604082206009018054600181018255908352912001805473ffffffffffffffffffffffffffffffffffffffff191633179055565b6000805b6000848152600260205260409020600801546000190181101561110057600084815260026020526040902060080180548491908390811061108157fe5b9060005260206000200154141561109757600191505b81156110f85760008481526002602052604090206008018054600183019081106110bd57fe5b906000526020600020015460026000868152602001908152602001600020600801828154811015156110eb57fe5b6000918252602090912001555b600101611044565b81156109005760008481526002602052604090206008018054600019810190811061112757fe5b6000918252602080832090910182905585825260029052604090206008018054906108fe9060001983016124be565b6000611161336107d6565b151561116c57600080fd5b50805b600154600019018110156111d8576001805482820190811061118d57fe5b906000526020600020016001828154811015156111a657fe5b9060005260206000200190805460018160011615610100020316600290046111cf92919061253d565b5060010161116f565b6001805460001981019081106111ea57fe5b90600052602060002001600061120091906125b2565b60018054906105679060001983016125f6565b600082815260026020908152604090912082516105679260079092019184019061261a565b606060008060006060600061124e600a88611caf565b60045490955061125f90600a611ce8565b600454909450158061127657506004546000190185115b8061128057508387115b1561128a57611753565b60408051600a80825261016082019092526000945090816020015b6112ad6124e2565b8152602001906001900390816112a55790505091508490505b60045481101561174f57600260006004838154811015156112e357fe5b9060005260206000200154815260200190815260200160002061016060405190810160405290816000820154815260200160018201548152602001600282018054600181600116156101000203166002900480601f0160208091040260200160405190810160405280929190818152602001828054600181600116156101000203166002900480156113b65780601f1061138b576101008083540402835291602001916113b6565b820191906000526020600020905b81548152906001019060200180831161139957829003601f168201915b505050918352505060038201805460408051602060026001851615610100026000190190941693909304601f810184900484028201840190925281815293820193929183018282801561144a5780601f1061141f5761010080835404028352916020019161144a565b820191906000526020600020905b81548152906001019060200180831161142d57829003601f168201915b505050918352505060048201805460408051602060026001851615610100026000190190941693909304601f81018490048402820184019092528181529382019392918301828280156114de5780601f106114b3576101008083540402835291602001916114de565b820191906000526020600020905b8154815290600101906020018083116114c157829003601f168201915b505050918352505060058201805460408051602060026001851615610100026000190190941693909304601f81018490048402820184019092528181529382019392918301828280156115725780601f1061154757610100808354040283529160200191611572565b820191906000526020600020905b81548152906001019060200180831161155557829003601f168201915b505050918352505060068201805460408051602060026001851615610100026000190190941693909304601f81018490048402820184019092528181529382019392918301828280156116065780601f106115db57610100808354040283529160200191611606565b820191906000526020600020905b8154815290600101906020018083116115e957829003601f168201915b505050505081526020016007820180548060200260200160405190810160405280929190818152602001828054801561165e57602002820191906000526020600020905b81548152602001906001019080831161164a575b50505050508152602001600882018054806020026020016040519081016040528092919081815260200182805480156116b657602002820191906000526020600020905b8154815260200190600101908083116116a2575b505050505081526020016009820180548060200260200160405190810160405280929190818152602001828054801561171857602002820191906000526020600020905b8154600160a060020a031681526001909101906020018083116116fa575b50505050508152602001600a82015481525050828481518110151561173957fe5b60209081029091010152600192830192016112c6565b8195505b5050505050919050565b6000805b6000848152600260205260409020600901546000190181101561185a5760008481526002602052604090206009018054600160a060020a0385169190839081106117a757fe5b600091825260209091200154600160a060020a031614156117c757600191505b81156118525760008481526002602052604090206009018054600183019081106117ed57fe5b6000918252602080832090910154868352600290915260409091206009018054600160a060020a03909216918390811061182357fe5b9060005260206000200160006101000a815481600160a060020a030219169083600160a060020a031602179055505b600101611761565b60008481526002602052604090206009018054600019810190811061187b57fe5b60009182526020808320909101805473ffffffffffffffffffffffffffffffffffffffff1916905585825260029052604090206009018054906108fe9060001983016124be565b6118cb336107d6565b15156118d657600080fd5b600088815260026020818152604090922088516118fb93919092019190890190612440565b506000888152600260209081526040909120835161192192600690920191850190612440565b50600097885260026020526040909720600a0196909655505050505050565b6000908152600260205260409020600a015490565b600091825260026020908152604083206008018054600181018255908452922090910155565b61198433611d0b565b565b61198f336107d6565b151561199a57600080fd5b6119a381611d53565b50565b600380546001019081905590565b6000908152600260205260408120541190565b6000806119d3336107d6565b15156119de57600080fd5b60008811611a015760405160e560020a62461bcd02815260040161064090613089565b50600380546001019081905560008181526002602052604090205415611a3c5760405160e560020a62461bcd02815260040161064090613049565b611a4b81898989898989611d9b565b6000818152600260205260409020612710600a90910155979650505050505050565b600091825260026020526040909120600a018054919091039055565b6000808080600285061515611b1b5784604051602001808281526020019150506040516020818303038152906040526040518082805190602001908083835b60208310611ae75780518252601f199092019160209182019101611ac8565b6001836020036101000a03801982511681845116808217855250505050505090500191505060405180910390209250611c06565b84604051602001808281526020019150506040516020818303038152906040526040518082805190602001908083835b60208310611b6a5780518252601f199092019160209182019101611b4b565b51815160209384036101000a600019018019909216911617905260408051929094018290038220828201528351808303820181529184019384905281519195509293508392850191508083835b60208310611bd65780518252601f199092019160209182019101611bb7565b6001836020036101000a038019825116818451168082178552505050505050905001915050604051809103902092505b6020811015611c3357828160208110611c1b57fe5b60f860020a91901a8102049190910190600101611c06565b826020600284010660208110611c4557fe5b60f860020a91901a810204836020840660208110611c5f57fe5b1a60f860020a0260f860020a9004029350505050919050565b6000600160a060020a0382161515611c8f57600080fd5b50600160a060020a03166000908152602091909152604090205460ff1690565b600080831515611cc25760009150611ce1565b50828202828482811515611cd257fe5b0414611cdd57600080fd5b8091505b5092915050565b600080808311611cf757600080fd5b8284811515611d0257fe5b04949350505050565b611d1c60008263ffffffff6123a616565b604051600160a060020a038216907f3525e22824a8a7df2c9a6029941c824cf95b6447f1e13d5128fd3826d35afe8b90600090a250565b611d6460008263ffffffff6123f216565b604051600160a060020a038216907f47d1c22a25bb3a5d4e481b9b1e6944c2eade3181a0a20b495ed61d35b5323f2490600090a250565b611da36124e2565b85511515611dc65760405160e560020a62461bcd02815260040161064090613079565b82511515611de95760405160e560020a62461bcd02815260040161064090613069565b81511515611e0c5760405160e560020a62461bcd02815260040161064090613059565b6000888152600260208181526040928390208351610160810185528154815260018083015482850152828501805487519281161561010002600019011695909504601f81018590048502820185018752808252919592949286019390929190830182828015611ebc5780601f10611e9157610100808354040283529160200191611ebc565b820191906000526020600020905b815481529060010190602001808311611e9f57829003601f168201915b505050918352505060038201805460408051602060026001851615610100026000190190941693909304601f8101849004840282018401909252818152938201939291830182828015611f505780601f10611f2557610100808354040283529160200191611f50565b820191906000526020600020905b815481529060010190602001808311611f3357829003601f168201915b505050918352505060048201805460408051602060026001851615610100026000190190941693909304601f8101849004840282018401909252818152938201939291830182828015611fe45780601f10611fb957610100808354040283529160200191611fe4565b820191906000526020600020905b815481529060010190602001808311611fc757829003601f168201915b505050918352505060058201805460408051602060026001851615610100026000190190941693909304601f81018490048402820184019092528181529382019392918301828280156120785780601f1061204d57610100808354040283529160200191612078565b820191906000526020600020905b81548152906001019060200180831161205b57829003601f168201915b505050918352505060068201805460408051602060026001851615610100026000190190941693909304601f810184900484028201840190925281815293820193929183018282801561210c5780601f106120e15761010080835404028352916020019161210c565b820191906000526020600020905b8154815290600101906020018083116120ef57829003601f168201915b505050505081526020016007820180548060200260200160405190810160405280929190818152602001828054801561216457602002820191906000526020600020905b815481526020019060010190808311612150575b50505050508152602001600882018054806020026020016040519081016040528092919081815260200182805480156121bc57602002820191906000526020600020905b8154815260200190600101908083116121a8575b505050505081526020016009820180548060200260200160405190810160405280929190818152602001828054801561221e57602002820191906000526020600020905b8154600160a060020a03168152600190910190602001808311612200575b5050509183525050600a919091015460209182015289825281810189815260408084018a8152606085018a90526080850189905260a0850188905260c0850187905260008d815260028086529290208551815592516001840155518051949550859492936122929392850192910190612440565b50606082015180516122ae916003840191602090910190612440565b50608082015180516122ca916004840191602090910190612440565b5060a082015180516122e6916005840191602090910190612440565b5060c08201518051612302916006840191602090910190612440565b5060e0820151805161231e91600784019160209091019061261a565b50610100820151805161233b91600884019160209091019061261a565b506101208201518051612358916009840191602090910190612654565b506101409190910151600a909101555050600480546001810182556000919091527f8a35acfbc15ff81a39ae7d344fd709f28e8600b4aa8c65c6b64bfe7fe36bd19b01959095555050505050565b600160a060020a03811615156123bb57600080fd5b6123c58282611c78565b15156123d057600080fd5b600160a060020a0316600090815260209190915260409020805460ff19169055565b600160a060020a038116151561240757600080fd5b6124118282611c78565b1561241b57600080fd5b600160a060020a0316600090815260209190915260409020805460ff19166001179055565b828054600181600116156101000203166002900490600052602060002090601f016020900481019282601f1061248157805160ff19168380011785556124ae565b828001600101855582156124ae579182015b828111156124ae578251825591602001919060010190612493565b506124ba9291506126c2565b5090565b815481835581811115610567576000838152602090206105679181019083016126c2565b6101606040519081016040528060008152602001600081526020016060815260200160608152602001606081526020016060815260200160608152602001606081526020016060815260200160608152602001600081525090565b828054600181600116156101000203166002900490600052602060002090601f016020900481019282601f1061257657805485556124ae565b828001600101855582156124ae57600052602060002091601f016020900482015b828111156124ae578254825591600101919060010190612597565b50805460018160011615610100020316600290046000825580601f106125d857506119a3565b601f0160209004906000526020600020908101906119a391906126c2565b815481835581811115610567576000838152602090206105679181019083016126dc565b8280548282559060005260206000209081019282156124ae57916020028201828111156124ae578251825591602001919060010190612493565b8280548282559060005260206000209081019282156126b6579160200282015b828111156126b6578251825473ffffffffffffffffffffffffffffffffffffffff1916600160a060020a03909116178255602090920191600190910190612674565b506124ba9291506126ff565b61078191905b808211156124ba57600081556001016126c8565b61078191905b808211156124ba5760006126f682826125b2565b506001016126e2565b61078191905b808211156124ba57805473ffffffffffffffffffffffffffffffffffffffff19168155600101612705565b600061273c8235613121565b9392505050565b6000601f8201831361275457600080fd5b8135612767612762826130ce565b6130a7565b9150818183526020840193506020810190508385602084028201111561278c57600080fd5b60005b838110156127b857816127a28882612811565b845250602092830192919091019060010161278f565b5050505092915050565b6000601f820183136127d357600080fd5b81356127e1612762826130ef565b915080825260208301602083018583830111156127fd57600080fd5b612808838284613132565b50505092915050565b600061273c8235610781565b60006020828403121561282f57600080fd5b600061283b8484612730565b949350505050565b60006020828403121561285557600080fd5b813567ffffffffffffffff81111561286c57600080fd5b61283b848285016127c2565b6000806040838503121561288b57600080fd5b823567ffffffffffffffff8111156128a257600080fd5b6128ae858286016127c2565b92505060206128bf85828601612811565b9150509250929050565b6000602082840312156128db57600080fd5b600061283b8484612811565b600080604083850312156128fa57600080fd5b60006129068585612811565b92505060206128bf85828601612730565b6000806040838503121561292a57600080fd5b60006129368585612811565b925050602083013567ffffffffffffffff81111561295357600080fd5b6128bf85828601612743565b60008060008060008060c0878903121561297857600080fd5b60006129848989612811565b965050602087013567ffffffffffffffff8111156129a157600080fd5b6129ad89828a016127c2565b955050604087013567ffffffffffffffff8111156129ca57600080fd5b6129d689828a016127c2565b945050606087013567ffffffffffffffff8111156129f357600080fd5b6129ff89828a016127c2565b935050608087013567ffffffffffffffff811115612a1c57600080fd5b612a2889828a016127c2565b92505060a087013567ffffffffffffffff811115612a4557600080fd5b612a5189828a016127c2565b9150509295509295509295565b60008060408385031215612a7157600080fd5b60006128ae8585612811565b600080600080600080600080610100898b031215612a9a57600080fd5b6000612aa68b8b612811565b9850506020612ab78b828c01612811565b975050604089013567ffffffffffffffff811115612ad457600080fd5b612ae08b828c016127c2565b965050606089013567ffffffffffffffff811115612afd57600080fd5b612b098b828c016127c2565b955050608089013567ffffffffffffffff811115612b2657600080fd5b612b328b828c016127c2565b94505060a089013567ffffffffffffffff811115612b4f57600080fd5b612b5b8b828c016127c2565b93505060c089013567ffffffffffffffff811115612b7857600080fd5b612b848b828c016127c2565b92505060e0612b958b828c01612811565b9150509295985092959890939650565b612bae81613121565b82525050565b6000612bbf8261311d565b808452602084019350612bd183613117565b60005b82811015612c0157612be7868351612ba5565b612bf082613117565b602096909601959150600101612bd4565b5093949350505050565b6000612c168261311d565b80845260208401935083602082028501612c2f85613117565b60005b84811015612c66578383038852612c4a838351612d70565b9250612c5582613117565b602098909801979150600101612c32565b50909695505050505050565b6000612c7d8261311d565b80845260208401935083602082028501612c9685613117565b60005b84811015612c66578383038852612cb1838351612ec5565b9250612cbc82613117565b602098909801979150600101612c99565b6000612cd88261311d565b808452602084019350612cea83613117565b60005b82811015612c0157612d00868351612fde565b612d0982613117565b602096909601959150600101612ced565b6000612d258261311d565b808452602084019350612d3783613117565b60005b82811015612c0157612d4d868351612fde565b612d5682613117565b602096909601959150600101612d3a565b612bae8161312d565b6000612d7b8261311d565b808452612d8f81602086016020860161313e565b612d988161316a565b9093016020019392505050565b601181527f6d656d626572206e6f7420657869737473000000000000000000000000000000602082015260400190565b601581527f4d656d62657220616c7265616479206578697374730000000000000000000000602082015260400190565b601281527f5468656d65206973206d616e6461746f72790000000000000000000000000000602082015260400190565b601081527f434d4f206973206d616e6461746f727900000000000000000000000000000000602082015260400190565b601181527f4e616d65206973206d616e6461746f7279000000000000000000000000000000602082015260400190565b601981527f4372656174696f6e44617465206973206d616e6461746f727900000000000000602082015260400190565b8051600090610160840190612eda8582612fde565b506020830151612eed6020860182612fde565b5060408301518482036040860152612f058282612d70565b91505060608301518482036060860152612f1f8282612d70565b91505060808301518482036080860152612f398282612d70565b91505060a083015184820360a0860152612f538282612d70565b91505060c083015184820360c0860152612f6d8282612d70565b91505060e083015184820360e0860152612f878282612d1a565b915050610100830151848203610100860152612fa38282612d1a565b915050610120830151848203610120860152612fbf8282612bb4565b915050610140830151612fd6610140860182612fde565b509392505050565b612bae81610781565b6020808252810161273c8184612c0b565b6020808252810161273c8184612c72565b6020808252810161273c8184612ccd565b6020810161078f8284612d67565b6020808252810161273c8184612d70565b6020808252810161078f81612da5565b6020808252810161078f81612dd5565b6020808252810161078f81612e05565b6020808252810161078f81612e35565b6020808252810161078f81612e65565b6020808252810161078f81612e95565b6020810161078f8284612fde565b60405181810167ffffffffffffffff811182821017156130c657600080fd5b604052919050565b600067ffffffffffffffff8211156130e557600080fd5b5060209081020190565b600067ffffffffffffffff82111561310657600080fd5b506020601f91909101601f19160190565b60200190565b5190565b600160a060020a031690565b151590565b82818337506000910152565b60005b83811015613159578181015183820152602001613141565b838111156109005750506000910152565b601f01601f1916905600a265627a7a723058209da64212fba7c14a9bdbd2930f82d59e95e29e486b92f5198cfedd0436f4b1cf6c6578706572696d656e74616cf50037",
  "source": "pragma solidity ^0.4.24;\npragma experimental ABIEncoderV2;\n\nimport \"./SafeMath.sol\";\nimport \"./random.sol\";\nimport \"./Registry.sol\";\n\ncontract Members is Random, Registry {\n\n  struct Member { \n    uint256 memberId;\n    uint256 creationDate;\n    string name;\n    string logo;\n    string country;\n    string cmo;\n    string theme;\n    uint256[] claimInbox;\n    uint256[] claims;\n    address[] userRequests;\n    uint totalTokens;\n  }\n\n  uint256 constant private PAGE_SIZE = 10;\n\n  mapping (uint256 => Member) members_;\n  uint256 private memberIdCounter_ = 0; // Equals the number of (members + Super Admins) ever inserted, including the deleted ones.\n\n  uint256[] private membersList_;\n\n  // METHODS\n  // Public\n\n  function addMember(uint256 _creationDate, string _name, string _logo, string _country, string _cmo, string _theme)\n  onlySigner public returns(uint) {\n    //  string _group) onlySigner public returns(uint) {\n    require(_creationDate > 0, \"CreationDate is mandatory\");\n//    uint256 _memberId = Random.rand(_creationDate);\n    uint256 _memberId = ++memberIdCounter_;\n    require(members_[_memberId].memberId == 0, \"Member already exists\");\n    _saveMember(_memberId, _creationDate, _name, _logo, _country, _cmo, _theme);\n//    members_[_memberId].group = _group;\n    members_[_memberId].totalTokens = 10000;\n\n    return _memberId;\n  }\n\n  function updateMember(uint256 _memberId, uint256 _creationDate,\n    string _name, string _logo, string _country, string _cmo, string _theme, uint _totalTokens) onlySigner public {\n  // , string _group) onlySigner public {\n//    require(members_[_memberId].memberId > 0, \"Member not exists\");\n//    require(members_[_memberId].creationDate == _creationDate, \"Creation Date is immutable\");\n//    _saveMember(_memberId, _creationDate, _name, _logo, _country, _cmo, _theme);\n//    members_[_memberId].group = _group;\n    members_[_memberId].name = _name;\n    members_[_memberId].theme = _theme;\n    members_[_memberId].totalTokens = _totalTokens;\n  }\n\n  function updateMemberClaimInbox(uint256 _memberId, uint256[] newInbox) public {\n    members_[_memberId].claimInbox = newInbox;\n  }\n\n  function getMembers() public view returns (Member[] memory) {\n    Member[] memory memberPage = new Member[](membersList_.length);\n    for (uint i = 0; i < membersList_.length; ++i) {\n        memberPage[i] = members_[membersList_[i]];\n    }\n    return memberPage;\n  }\n\n  function getMembers(uint _page) public view returns (Member[] memory) {\n    uint256 pageIndex = SafeMath.mul(PAGE_SIZE, _page);\n    uint256 pageNumber = SafeMath.div(membersList_.length, PAGE_SIZE);\n\n    if (membersList_.length == 0 || pageIndex > membersList_.length - 1 || _page > pageNumber) {\n      return;\n    }\n\n    // Insert items filtered into array.\n    uint256 resultCount = 0;\n    Member[] memory memberPage = new Member[](PAGE_SIZE);\n    for(uint j = pageIndex; j < membersList_.length; ++j) {\n        memberPage[resultCount] = members_[membersList_[j]];\n        ++resultCount;\n    }\n    return memberPage;\n  }\n\n  function getCount() onlySigner public view returns (uint256) {\n    return membersList_.length;\n  }\n\n  // Private\n\n  function _saveMember(uint256 _memberId, uint256 _creationDate, string _name, string _logo, string _country, string _cmo, string _theme) internal {\n\n    require(bytes(_name).length != 0, \"Name is mandatory\");\n    require(bytes(_cmo).length != 0, \"CMO is mandatory\");\n    require(bytes(_theme).length != 0, \"Theme is mandatory\");\n\n    Member memory member = members_[_memberId];\n    member.memberId = _memberId;\n    member.creationDate = _creationDate;\n    member.name = _name;\n    member.logo = _logo;\n    member.country = _country;\n    member.cmo = _cmo;\n    member.theme = _theme;\n\n    members_[_memberId] = member;\n    membersList_.push(_memberId);\n\n  }\n\n  function _getMemberIdsOfCurrentCMO(string currentCMO, uint256 currentCMOId) public returns(uint[]) {\n    uint[] memberIds;\n    for (uint j = 0; j < membersList_.length; ++j) {\n      if (keccak256(members_[membersList_[j]].cmo) == keccak256(currentCMO) && members_[membersList_[j]].memberId != currentCMOId) {\n        memberIds.push(members_[membersList_[j]].memberId);\n      }\n    }\n    return memberIds;\n  }\n\n  function _getClaimsIdByMember(uint _memberId) public view returns(uint[])  {\n    require(members_[_memberId].memberId > 0, \"member not exists\");\n    return members_[_memberId].claims;\n  }\n\n  function _getClaimsCountByMember(uint _memberId) public view returns(uint) {\n    return members_[_memberId].claims.length;\n  }\n\n  function _addUserToMemberRequest(uint _memberId) public {\n    members_[_memberId].userRequests.push(msg.sender);\n  }\n\n  function _addClaimIdToMemberOwner(uint _memberId, uint _claimId) public {\n    members_[_memberId].claims.push(_claimId);\n  }\n\n  function _removeClaimFromMember(uint _memberId, uint _claimId) public {\n    bool found = false;\n    for (uint j = 0; j < members_[_memberId].claims.length - 1; j++) {\n      if(members_[_memberId].claims[j] == _claimId) {\n        found = true;\n      }\n      if(found) {\n        members_[_memberId].claims[j] = members_[_memberId].claims[j + 1];\n      }\n    }\n    //    if (found) {\n//    delete members_[_memberId].claims[members_[_memberId].claims.length - 1];\n//    members_[_memberId].claims.length--;\n    //    }\n    if (found) {\n//      if (members_[_memberId].claims.length == 1) {\n//        delete members_[_memberId].claims;\n//      }\n//      else {\n      delete members_[_memberId].claims[members_[_memberId].claims.length - 1];\n        members_[_memberId].claims.length--;\n//      }\n    }\n  }\n\n  function _addClaimFromInbox(uint _memberId, uint _claimId) public {\n    members_[_memberId].claimInbox.push(_claimId);\n  }\n\n  function _memberExists(uint _memberId) public view returns(bool) {\n    return members_[_memberId].memberId > 0;\n  }\n\n  function _removeClaimFromInbox(uint _memberId, uint _claimId) public {\n    bool found = false;\n    // Remove index\n    for (uint j = 0; j < members_[_memberId].claimInbox.length - 1; j++) {\n      if(members_[_memberId].claimInbox[j] == _claimId) {\n        found = true;\n      }\n      if(found) {\n        members_[_memberId].claimInbox[j] = members_[_memberId].claimInbox[j + 1];\n      }\n    }\n    if (found) {\n      delete members_[_memberId].claimInbox[members_[_memberId].claimInbox.length - 1];\n      members_[_memberId].claimInbox.length--;\n    }\n  }\n\n  function _clearUserFromMemberRequest(uint _memberId, address userAddress) public {\n     bool found = false;\n    // Remove index\n    for (uint j = 0; j < members_[_memberId].userRequests.length - 1; j++) {\n      if(members_[_memberId].userRequests[j] == userAddress) {\n        found = true;\n      }\n      if(found) {\n        members_[_memberId].userRequests[j] = members_[_memberId].userRequests[j + 1];\n      }\n    }\n//    if (found) {\n      delete members_[_memberId].userRequests[members_[_memberId].userRequests.length - 1];\n      members_[_memberId].userRequests.length--;\n//    }\n  }\n\n  // New; after separated Users from Members contract\n  function updateMemberTotalTokens(uint memberId, uint cost) public {\n    members_[memberId].totalTokens -= cost;\n  }\n\n  function increaseMemberTotalTokens(uint memberId, uint cost) public {\n    members_[memberId].totalTokens += cost;\n  }\n\n  function getMemberCmo(uint memberId) public view returns(string) {\n    return members_[memberId].cmo;\n  }\n\n  function getMemberTotalTokens(uint memberId) public view returns(uint) {\n    return members_[memberId].totalTokens;\n  }\n\n  function calcRandom(uint seed) public pure returns(uint) {\n    return Random.rand(seed);\n  }\n\n  function returnUpdatedMemberIdCounter() public returns(uint) {\n    return ++memberIdCounter_;\n  }\n\n}\n",
  "sourcePath": "/home/komodo/newUI2/bloomen-decentralized-rights-management-v2/truffle/contracts/registry/Members.sol",
  "compiler": {
    "name": "solc",
    "version": "0.4.24+commit.e67f0147.Emscripten.clang"
  },
  "schemaVersion": "2.0.1",
  "updatedAt": "2020-06-28T16:42:06.650Z"
}