{
  "contractName": "Members",
  "abi": [
    {
      "constant": false,
      "inputs": [
        {
          "name": "_cmo",
          "type": "string"
        }
      ],
      "name": "addCMO",
      "outputs": [],
      "payable": false,
      "stateMutability": "nonpayable",
      "type": "function"
    },
    {
      "constant": true,
      "inputs": [],
      "name": "getCMOs",
      "outputs": [
        {
          "name": "",
          "type": "string[]"
        }
      ],
      "payable": false,
      "stateMutability": "view",
      "type": "function"
    },
    {
      "constant": true,
      "inputs": [
        {
          "name": "account",
          "type": "address"
        }
      ],
      "name": "isSigner",
      "outputs": [
        {
          "name": "",
          "type": "bool"
        }
      ],
      "payable": false,
      "stateMutability": "view",
      "type": "function"
    },
    {
      "constant": false,
      "inputs": [
        {
          "name": "_index",
          "type": "uint256"
        }
      ],
      "name": "deleteCMO",
      "outputs": [],
      "payable": false,
      "stateMutability": "nonpayable",
      "type": "function"
    },
    {
      "constant": false,
      "inputs": [],
      "name": "renounceSigner",
      "outputs": [],
      "payable": false,
      "stateMutability": "nonpayable",
      "type": "function"
    },
    {
      "constant": false,
      "inputs": [
        {
          "name": "account",
          "type": "address"
        }
      ],
      "name": "addSigner",
      "outputs": [],
      "payable": false,
      "stateMutability": "nonpayable",
      "type": "function"
    },
    {
      "anonymous": false,
      "inputs": [
        {
          "indexed": true,
          "name": "account",
          "type": "address"
        }
      ],
      "name": "SignerAdded",
      "type": "event"
    },
    {
      "anonymous": false,
      "inputs": [
        {
          "indexed": true,
          "name": "account",
          "type": "address"
        }
      ],
      "name": "SignerRemoved",
      "type": "event"
    },
    {
      "constant": false,
      "inputs": [
        {
          "name": "_creationDate",
          "type": "uint256"
        },
        {
          "name": "_name",
          "type": "string"
        },
        {
          "name": "_logo",
          "type": "string"
        },
        {
          "name": "_country",
          "type": "string"
        },
        {
          "name": "_cmo",
          "type": "string"
        },
        {
          "name": "_theme",
          "type": "string"
        },
        {
          "name": "_group",
          "type": "string"
        }
      ],
      "name": "addMember",
      "outputs": [
        {
          "name": "",
          "type": "uint256"
        }
      ],
      "payable": false,
      "stateMutability": "nonpayable",
      "type": "function"
    },
    {
      "constant": false,
      "inputs": [
        {
          "name": "_memberId",
          "type": "uint256"
        },
        {
          "name": "_creationDate",
          "type": "uint256"
        },
        {
          "name": "_name",
          "type": "string"
        },
        {
          "name": "_logo",
          "type": "string"
        },
        {
          "name": "_country",
          "type": "string"
        },
        {
          "name": "_cmo",
          "type": "string"
        },
        {
          "name": "_theme",
          "type": "string"
        },
        {
          "name": "_group",
          "type": "string"
        }
      ],
      "name": "updateMember",
      "outputs": [],
      "payable": false,
      "stateMutability": "nonpayable",
      "type": "function"
    },
    {
      "constant": true,
      "inputs": [
        {
          "name": "_page",
          "type": "uint256"
        }
      ],
      "name": "getMembers",
      "outputs": [
        {
          "components": [
            {
              "name": "memberId",
              "type": "uint256"
            },
            {
              "name": "creationDate",
              "type": "uint256"
            },
            {
              "name": "name",
              "type": "string"
            },
            {
              "name": "logo",
              "type": "string"
            },
            {
              "name": "country",
              "type": "string"
            },
            {
              "name": "cmo",
              "type": "string"
            },
            {
              "name": "theme",
              "type": "string"
            },
            {
              "name": "claimInbox",
              "type": "uint256[]"
            },
            {
              "name": "claims",
              "type": "uint256[]"
            },
            {
              "name": "userRequests",
              "type": "address[]"
            },
            {
              "name": "group",
              "type": "string"
            }
          ],
          "name": "",
          "type": "tuple[]"
        }
      ],
      "payable": false,
      "stateMutability": "view",
      "type": "function"
    },
    {
      "constant": true,
      "inputs": [],
      "name": "getMembers",
      "outputs": [
        {
          "components": [
            {
              "name": "memberId",
              "type": "uint256"
            },
            {
              "name": "creationDate",
              "type": "uint256"
            },
            {
              "name": "name",
              "type": "string"
            },
            {
              "name": "logo",
              "type": "string"
            },
            {
              "name": "country",
              "type": "string"
            },
            {
              "name": "cmo",
              "type": "string"
            },
            {
              "name": "theme",
              "type": "string"
            },
            {
              "name": "claimInbox",
              "type": "uint256[]"
            },
            {
              "name": "claims",
              "type": "uint256[]"
            },
            {
              "name": "userRequests",
              "type": "address[]"
            },
            {
              "name": "group",
              "type": "string"
            }
          ],
          "name": "",
          "type": "tuple[]"
        }
      ],
      "payable": false,
      "stateMutability": "view",
      "type": "function"
    },
    {
      "constant": true,
      "inputs": [],
      "name": "getCount",
      "outputs": [
        {
          "name": "",
          "type": "uint256"
        }
      ],
      "payable": false,
      "stateMutability": "view",
      "type": "function"
    },
    {
      "constant": true,
      "inputs": [
        {
          "name": "_memberId",
          "type": "uint256"
        }
      ],
      "name": "_getClaimsIdByMember",
      "outputs": [
        {
          "name": "",
          "type": "uint256[]"
        }
      ],
      "payable": false,
      "stateMutability": "view",
      "type": "function"
    },
    {
      "constant": true,
      "inputs": [
        {
          "name": "_memberId",
          "type": "uint256"
        }
      ],
      "name": "_getClaimsCountByMember",
      "outputs": [
        {
          "name": "",
          "type": "uint256"
        }
      ],
      "payable": false,
      "stateMutability": "view",
      "type": "function"
    },
    {
      "constant": false,
      "inputs": [
        {
          "name": "_memberId",
          "type": "uint256"
        },
        {
          "name": "_claimId",
          "type": "uint256"
        }
      ],
      "name": "_addClaimIdToMemberOwner",
      "outputs": [],
      "payable": false,
      "stateMutability": "nonpayable",
      "type": "function"
    },
    {
      "constant": false,
      "inputs": [
        {
          "name": "_memberId",
          "type": "uint256"
        },
        {
          "name": "_claimId",
          "type": "uint256"
        }
      ],
      "name": "_removeClaimIdFromMember",
      "outputs": [],
      "payable": false,
      "stateMutability": "nonpayable",
      "type": "function"
    },
    {
      "constant": false,
      "inputs": [
        {
          "name": "_memberId",
          "type": "uint256"
        },
        {
          "name": "_claimId",
          "type": "uint256"
        }
      ],
      "name": "_addClaimFromInbox",
      "outputs": [],
      "payable": false,
      "stateMutability": "nonpayable",
      "type": "function"
    },
    {
      "constant": true,
      "inputs": [
        {
          "name": "_memberId",
          "type": "uint256"
        }
      ],
      "name": "_memberExists",
      "outputs": [
        {
          "name": "",
          "type": "bool"
        }
      ],
      "payable": false,
      "stateMutability": "view",
      "type": "function"
    },
    {
      "constant": false,
      "inputs": [
        {
          "name": "_memberId",
          "type": "uint256"
        },
        {
          "name": "_claimId",
          "type": "uint256"
        }
      ],
      "name": "_removeClaimFromInbox",
      "outputs": [],
      "payable": false,
      "stateMutability": "nonpayable",
      "type": "function"
    }
  ],
  "bytecode": "0x608060405262000018336401000000006200001e810204565b62000103565b6200003960008264010000000062001f6d6200007082021704565b604051600160a060020a038216907f47d1c22a25bb3a5d4e481b9b1e6944c2eade3181a0a20b495ed61d35b5323f2490600090a250565b600160a060020a03811615156200008657600080fd5b6200009b8282640100000000620000cb810204565b15620000a657600080fd5b600160a060020a0316600090815260209190915260409020805460ff19166001179055565b6000600160a060020a0382161515620000e357600080fd5b50600160a060020a03166000908152602091909152604090205460ff1690565b612c9a80620001136000396000f3006080604052600436106100fb5763ffffffff7c01000000000000000000000000000000000000000000000000000000006000350416630feb866c81146101005780633a59ccf1146101365780636262dff614610158578063656d561c1461018557806374853239146101a75780637df73e27146101c75780638b92892b146101f45780638be56813146102145780639eab525314610234578063a29d441f14610256578063a87d942c14610276578063affccd841461028b578063bf3d007e146102ab578063c477ecab146102cb578063e2c11f9e146102eb578063e5c8b03d1461030b578063eb12d61e14610320578063f838073314610340575b600080fd5b34801561010c57600080fd5b5061012061011b366004612397565b610360565b60405161012d9190612ba6565b60405180910390f35b34801561014257600080fd5b50610156610151366004612344565b61041f565b005b34801561016457600080fd5b50610178610173366004612379565b61047b565b60405161012d9190612b07565b34801561019157600080fd5b5061019a610510565b60405161012d9190612ae5565b3480156101b357600080fd5b506101566101c23660046124c3565b6105e9565b3480156101d357600080fd5b506101e76101e236600461231e565b61060f565b60405161012d9190612b18565b34801561020057600080fd5b5061015661020f3660046124c3565b610627565b34801561022057600080fd5b5061015661022f3660046124fd565b61073e565b34801561024057600080fd5b50610249610830565b60405161012d9190612af6565b34801561026257600080fd5b506101566102713660046124c3565b610d91565b34801561028257600080fd5b50610120610e66565b34801561029757600080fd5b506101206102a6366004612379565b610e83565b3480156102b757600080fd5b506101566102c6366004612379565b610e98565b3480156102d757600080fd5b506102496102e6366004612379565b610f55565b3480156102f757600080fd5b506101566103063660046124c3565b611504565b34801561031757600080fd5b5061015661152a565b34801561032c57600080fd5b5061015661033b36600461231e565b611535565b34801561034c57600080fd5b506101e761035b366004612379565b611555565b60008061036c3361060f565b151561037757600080fd5b600089116103a35760405160e560020a62461bcd02815260040161039a90612b96565b60405180910390fd5b6103ac89611568565b600081815260026020526040902054909150156103de5760405160e560020a62461bcd02815260040161039a90612b46565b6103ed818a8a8a8a8a8a611757565b6000818152600260209081526040909120845161041292600a90920191860190611fbb565b5098975050505050505050565b6104283361060f565b151561043357600080fd5b600180548082018083556000929092528251610476917fb10e2d527612073b26eecdfd717e6a320cf44b4afac2b0732d9fcbe2b7fa0cf601906020850190611fbb565b505050565b600081815260026020526040812054606091106104ad5760405160e560020a62461bcd02815260040161039a90612b36565b6000828152600260209081526040918290206008018054835181840281018401909452808452909183018282801561050457602002820191906000526020600020905b8154815260200190600101908083116104f0575b50505050509050919050565b60606001805480602002602001604051908101604052809291908181526020016000905b828210156105df5760008481526020908190208301805460408051601f60026000196101006001871615020190941693909304928301859004850281018501909152818152928301828280156105cb5780601f106105a0576101008083540402835291602001916105cb565b820191906000526020600020905b8154815290600101906020018083116105ae57829003601f168201915b505050505081526020019060010190610534565b5050505090505b90565b600091825260026020908152604083206007018054600181018255908452922090910155565b6000610621818363ffffffff611dfe16565b92915050565b6000805b600084815260026020526040902060070154600019018110156106e757600084815260026020526040902060070180548491908390811061066857fe5b9060005260206000200154141561067e57600191505b81156106df5760008481526002602052604090206007018054600183019081106106a457fe5b906000526020600020015460026000868152602001908152602001600020600701828154811015156106d257fe5b6000918252602090912001555b60010161062b565b60008481526002602052604090206007018054600019810190811061070857fe5b600091825260208083209091018290558582526002905260409020600701805490610737906000198301612039565b5050505050565b6107473361060f565b151561075257600080fd5b600088815260026020526040812054116107815760405160e560020a62461bcd02815260040161039a90612b56565b60008881526002602052604090206001015487146107b45760405160e560020a62461bcd02815260040161039a90612b26565b600088815260026020908152604090912082516107d992600a90920191840190611fbb565b50600088815260026020818152604090922088516107ff93919092019190890190611fbb565b506000888152600260209081526040909120835161082592600690920191850190611fbb565b505050505050505050565b606080600060038054905060405190808252806020026020018201604052801561087457816020015b61086161205d565b8152602001906001900390816108595790505b509150600090505b600354811015610d8b576002600060038381548110151561089957fe5b9060005260206000200154815260200190815260200160002061016060405190810160405290816000820154815260200160018201548152602001600282018054600181600116156101000203166002900480601f01602080910402602001604051908101604052809291908181526020018280546001816001161561010002031660029004801561096c5780601f106109415761010080835404028352916020019161096c565b820191906000526020600020905b81548152906001019060200180831161094f57829003601f168201915b505050918352505060038201805460408051602060026001851615610100026000190190941693909304601f8101849004840282018401909252818152938201939291830182828015610a005780601f106109d557610100808354040283529160200191610a00565b820191906000526020600020905b8154815290600101906020018083116109e357829003601f168201915b505050918352505060048201805460408051602060026001851615610100026000190190941693909304601f8101849004840282018401909252818152938201939291830182828015610a945780601f10610a6957610100808354040283529160200191610a94565b820191906000526020600020905b815481529060010190602001808311610a7757829003601f168201915b505050918352505060058201805460408051602060026001851615610100026000190190941693909304601f8101849004840282018401909252818152938201939291830182828015610b285780601f10610afd57610100808354040283529160200191610b28565b820191906000526020600020905b815481529060010190602001808311610b0b57829003601f168201915b505050918352505060068201805460408051602060026001851615610100026000190190941693909304601f8101849004840282018401909252818152938201939291830182828015610bbc5780601f10610b9157610100808354040283529160200191610bbc565b820191906000526020600020905b815481529060010190602001808311610b9f57829003601f168201915b5050505050815260200160078201805480602002602001604051908101604052809291908181526020018280548015610c1457602002820191906000526020600020905b815481526020019060010190808311610c00575b5050505050815260200160088201805480602002602001604051908101604052809291908181526020018280548015610c6c57602002820191906000526020600020905b815481526020019060010190808311610c58575b5050505050815260200160098201805480602002602001604051908101604052809291908181526020018280548015610cce57602002820191906000526020600020905b8154600160a060020a03168152600190910190602001808311610cb0575b5050509183525050600a8201805460408051602060026001851615610100026000190190941693909304601f8101849004840282018401909252818152938201939291830182828015610d625780601f10610d3757610100808354040283529160200191610d62565b820191906000526020600020905b815481529060010190602001808311610d4557829003601f168201915b5050505050815250508282815181101515610d7957fe5b6020908102909101015260010161087c565b50919050565b6000828152600260205260408120600801549081111561047657600083815260026020526040902060080180546000198301908110610dcc57fe5b90600052602060002001546002600085815260200190815260200160002060080183815481101515610dfa57fe5b9060005260206000200181905550816002600085815260200190815260200160002060080160018303815481101515610e2f57fe5b6000918252602080832090910192909255848152600290915260409020600801805490610e60906000198301612039565b50505050565b6000610e713361060f565b1515610e7c57600080fd5b5060035490565b60009081526002602052604090206008015490565b6000610ea33361060f565b1515610eae57600080fd5b50805b60015460001901811015610f1a5760018054828201908110610ecf57fe5b90600052602060002001600182815481101515610ee857fe5b906000526020600020019080546001816001161561010002031660029004610f119291906120b8565b50600101610eb1565b600180546000198101908110610f2c57fe5b906000526020600020016000610f42919061212d565b6001805490610476906000198301612171565b6060600080600060606000610f6b600a88611e35565b600354909550610f7c90600a611e6e565b6003549094501580610f9357506003546000190185115b80610f9d57508387115b15610fa7576114fa565b60408051600a80825261016082019092526000945090816020015b610fca61205d565b815260200190600190039081610fc25790505091508490505b6003548110156114f6576002600060038381548110151561100057fe5b9060005260206000200154815260200190815260200160002061016060405190810160405290816000820154815260200160018201548152602001600282018054600181600116156101000203166002900480601f0160208091040260200160405190810160405280929190818152602001828054600181600116156101000203166002900480156110d35780601f106110a8576101008083540402835291602001916110d3565b820191906000526020600020905b8154815290600101906020018083116110b657829003601f168201915b505050918352505060038201805460408051602060026001851615610100026000190190941693909304601f81018490048402820184019092528181529382019392918301828280156111675780601f1061113c57610100808354040283529160200191611167565b820191906000526020600020905b81548152906001019060200180831161114a57829003601f168201915b505050918352505060048201805460408051602060026001851615610100026000190190941693909304601f81018490048402820184019092528181529382019392918301828280156111fb5780601f106111d0576101008083540402835291602001916111fb565b820191906000526020600020905b8154815290600101906020018083116111de57829003601f168201915b505050918352505060058201805460408051602060026001851615610100026000190190941693909304601f810184900484028201840190925281815293820193929183018282801561128f5780601f106112645761010080835404028352916020019161128f565b820191906000526020600020905b81548152906001019060200180831161127257829003601f168201915b505050918352505060068201805460408051602060026001851615610100026000190190941693909304601f81018490048402820184019092528181529382019392918301828280156113235780601f106112f857610100808354040283529160200191611323565b820191906000526020600020905b81548152906001019060200180831161130657829003601f168201915b505050505081526020016007820180548060200260200160405190810160405280929190818152602001828054801561137b57602002820191906000526020600020905b815481526020019060010190808311611367575b50505050508152602001600882018054806020026020016040519081016040528092919081815260200182805480156113d357602002820191906000526020600020905b8154815260200190600101908083116113bf575b505050505081526020016009820180548060200260200160405190810160405280929190818152602001828054801561143557602002820191906000526020600020905b8154600160a060020a03168152600190910190602001808311611417575b5050509183525050600a8201805460408051602060026001851615610100026000190190941693909304601f81018490048402820184019092528181529382019392918301828280156114c95780601f1061149e576101008083540402835291602001916114c9565b820191906000526020600020905b8154815290600101906020018083116114ac57829003601f168201915b50505050508152505082848151811015156114e057fe5b6020908102909101015260019283019201610fe3565b8195505b5050505050919050565b600091825260026020908152604083206008018054600181018255908452922090910155565b61153333611e91565b565b61153e3361060f565b151561154957600080fd5b61155281611ed9565b50565b6000908152600260205260408120541190565b60008080806002850615156115fa5784604051602001808281526020019150506040516020818303038152906040526040518082805190602001908083835b602083106115c65780518252601f1990920191602091820191016115a7565b6001836020036101000a038019825116818451168082178552505050505050905001915050604051809103902092506116e5565b84604051602001808281526020019150506040516020818303038152906040526040518082805190602001908083835b602083106116495780518252601f19909201916020918201910161162a565b51815160209384036101000a600019018019909216911617905260408051929094018290038220828201528351808303820181529184019384905281519195509293508392850191508083835b602083106116b55780518252601f199092019160209182019101611696565b6001836020036101000a038019825116818451168082178552505050505050905001915050604051809103902092505b6020811015611712578281602081106116fa57fe5b60f860020a91901a81020491909101906001016116e5565b82602060028401066020811061172457fe5b60f860020a91901a81020483602084066020811061173e57fe5b1a60f860020a0260f860020a9004029350505050919050565b61175f61205d565b855115156117825760405160e560020a62461bcd02815260040161039a90612b86565b825115156117a55760405160e560020a62461bcd02815260040161039a90612b76565b815115156117c85760405160e560020a62461bcd02815260040161039a90612b66565b6000888152600260208181526040928390208351610160810185528154815260018083015482850152828501805487519281161561010002600019011695909504601f810185900485028201850187528082529195929492860193909291908301828280156118785780601f1061184d57610100808354040283529160200191611878565b820191906000526020600020905b81548152906001019060200180831161185b57829003601f168201915b505050918352505060038201805460408051602060026001851615610100026000190190941693909304601f810184900484028201840190925281815293820193929183018282801561190c5780601f106118e15761010080835404028352916020019161190c565b820191906000526020600020905b8154815290600101906020018083116118ef57829003601f168201915b505050918352505060048201805460408051602060026001851615610100026000190190941693909304601f81018490048402820184019092528181529382019392918301828280156119a05780601f10611975576101008083540402835291602001916119a0565b820191906000526020600020905b81548152906001019060200180831161198357829003601f168201915b505050918352505060058201805460408051602060026001851615610100026000190190941693909304601f8101849004840282018401909252818152938201939291830182828015611a345780601f10611a0957610100808354040283529160200191611a34565b820191906000526020600020905b815481529060010190602001808311611a1757829003601f168201915b505050918352505060068201805460408051602060026001851615610100026000190190941693909304601f8101849004840282018401909252818152938201939291830182828015611ac85780601f10611a9d57610100808354040283529160200191611ac8565b820191906000526020600020905b815481529060010190602001808311611aab57829003601f168201915b5050505050815260200160078201805480602002602001604051908101604052809291908181526020018280548015611b2057602002820191906000526020600020905b815481526020019060010190808311611b0c575b5050505050815260200160088201805480602002602001604051908101604052809291908181526020018280548015611b7857602002820191906000526020600020905b815481526020019060010190808311611b64575b5050505050815260200160098201805480602002602001604051908101604052809291908181526020018280548015611bda57602002820191906000526020600020905b8154600160a060020a03168152600190910190602001808311611bbc575b5050509183525050600a8201805460408051602060026001851615610100026000190190941693909304601f8101849004840282018401909252818152938201939291830182828015611c6e5780601f10611c4357610100808354040283529160200191611c6e565b820191906000526020600020905b815481529060010190602001808311611c5157829003601f168201915b50505091909252505050888152602080820189815260408084018a8152606085018a90526080850189905260a0850188905260c0850187905260008d81526002808652929020855181559251600184015551805194955085949293611cd99392850192910190611fbb565b5060608201518051611cf5916003840191602090910190611fbb565b5060808201518051611d11916004840191602090910190611fbb565b5060a08201518051611d2d916005840191602090910190611fbb565b5060c08201518051611d49916006840191602090910190611fbb565b5060e08201518051611d65916007840191602090910190612195565b506101008201518051611d82916008840191602090910190612195565b506101208201518051611d9f9160098401916020909101906121cf565b506101408201518051611dbc91600a840191602090910190611fbb565b5050600380546001810182556000919091527fc2575a0e9e593c00f959f8c92f12db2869c3395a3b0502d05e2516446f71f85b01989098555050505050505050565b6000600160a060020a0382161515611e1557600080fd5b50600160a060020a03166000908152602091909152604090205460ff1690565b600080831515611e485760009150611e67565b50828202828482811515611e5857fe5b0414611e6357600080fd5b8091505b5092915050565b600080808311611e7d57600080fd5b8284811515611e8857fe5b04949350505050565b611ea260008263ffffffff611f2116565b604051600160a060020a038216907f3525e22824a8a7df2c9a6029941c824cf95b6447f1e13d5128fd3826d35afe8b90600090a250565b611eea60008263ffffffff611f6d16565b604051600160a060020a038216907f47d1c22a25bb3a5d4e481b9b1e6944c2eade3181a0a20b495ed61d35b5323f2490600090a250565b600160a060020a0381161515611f3657600080fd5b611f408282611dfe565b1515611f4b57600080fd5b600160a060020a0316600090815260209190915260409020805460ff19169055565b600160a060020a0381161515611f8257600080fd5b611f8c8282611dfe565b15611f9657600080fd5b600160a060020a0316600090815260209190915260409020805460ff19166001179055565b828054600181600116156101000203166002900490600052602060002090601f016020900481019282601f10611ffc57805160ff1916838001178555612029565b82800160010185558215612029579182015b8281111561202957825182559160200191906001019061200e565b5061203592915061223d565b5090565b8154818355818111156104765760008381526020902061047691810190830161223d565b6101606040519081016040528060008152602001600081526020016060815260200160608152602001606081526020016060815260200160608152602001606081526020016060815260200160608152602001606081525090565b828054600181600116156101000203166002900490600052602060002090601f016020900481019282601f106120f15780548555612029565b8280016001018555821561202957600052602060002091601f016020900482015b82811115612029578254825591600101919060010190612112565b50805460018160011615610100020316600290046000825580601f106121535750611552565b601f016020900490600052602060002090810190611552919061223d565b81548183558181111561047657600083815260209020610476918101908301612257565b828054828255906000526020600020908101928215612029579160200282018281111561202957825182559160200191906001019061200e565b828054828255906000526020600020908101928215612231579160200282015b82811115612231578251825473ffffffffffffffffffffffffffffffffffffffff1916600160a060020a039091161782556020909201916001909101906121ef565b5061203592915061227a565b6105e691905b808211156120355760008155600101612243565b6105e691905b80821115612035576000612271828261212d565b5060010161225d565b6105e691905b8082111561203557805473ffffffffffffffffffffffffffffffffffffffff19168155600101612280565b60006122b78235612c0d565b9392505050565b6000601f820183136122cf57600080fd5b81356122e26122dd82612bdb565b612bb4565b915080825260208301602083018583830111156122fe57600080fd5b612309838284612c1e565b50505092915050565b60006122b782356105e6565b60006020828403121561233057600080fd5b600061233c84846122ab565b949350505050565b60006020828403121561235657600080fd5b813567ffffffffffffffff81111561236d57600080fd5b61233c848285016122be565b60006020828403121561238b57600080fd5b600061233c8484612312565b600080600080600080600060e0888a0312156123b257600080fd5b60006123be8a8a612312565b975050602088013567ffffffffffffffff8111156123db57600080fd5b6123e78a828b016122be565b965050604088013567ffffffffffffffff81111561240457600080fd5b6124108a828b016122be565b955050606088013567ffffffffffffffff81111561242d57600080fd5b6124398a828b016122be565b945050608088013567ffffffffffffffff81111561245657600080fd5b6124628a828b016122be565b93505060a088013567ffffffffffffffff81111561247f57600080fd5b61248b8a828b016122be565b92505060c088013567ffffffffffffffff8111156124a857600080fd5b6124b48a828b016122be565b91505092959891949750929550565b600080604083850312156124d657600080fd5b60006124e28585612312565b92505060206124f385828601612312565b9150509250929050565b600080600080600080600080610100898b03121561251a57600080fd5b60006125268b8b612312565b98505060206125378b828c01612312565b975050604089013567ffffffffffffffff81111561255457600080fd5b6125608b828c016122be565b965050606089013567ffffffffffffffff81111561257d57600080fd5b6125898b828c016122be565b955050608089013567ffffffffffffffff8111156125a657600080fd5b6125b28b828c016122be565b94505060a089013567ffffffffffffffff8111156125cf57600080fd5b6125db8b828c016122be565b93505060c089013567ffffffffffffffff8111156125f857600080fd5b6126048b828c016122be565b92505060e089013567ffffffffffffffff81111561262157600080fd5b61262d8b828c016122be565b9150509295985092959890939650565b61264681612c0d565b82525050565b600061265782612c09565b80845260208401935061266983612c03565b60005b828110156126995761267f86835161263d565b61268882612c03565b60209690960195915060010161266c565b5093949350505050565b60006126ae82612c09565b808452602084019350836020820285016126c785612c03565b60005b848110156126fe5783830388526126e2838351612808565b92506126ed82612c03565b6020989098019791506001016126ca565b50909695505050505050565b600061271582612c09565b8084526020840193508360208202850161272e85612c03565b60005b848110156126fe5783830388526127498383516129bd565b925061275482612c03565b602098909801979150600101612731565b600061277082612c09565b80845260208401935061278283612c03565b60005b8281101561269957612798868351612adc565b6127a182612c03565b602096909601959150600101612785565b60006127bd82612c09565b8084526020840193506127cf83612c03565b60005b82811015612699576127e5868351612adc565b6127ee82612c03565b6020969096019591506001016127d2565b61264681612c19565b600061281382612c09565b808452612827816020860160208601612c2a565b61283081612c56565b9093016020019392505050565b601a81527f4372656174696f6e204461746520697320696e6d757461626c65000000000000602082015260400190565b601181527f6d656d626572206e6f7420657869737473000000000000000000000000000000602082015260400190565b601581527f4d656d62657220616c7265616479206578697374730000000000000000000000602082015260400190565b601181527f4d656d626572206e6f7420657869737473000000000000000000000000000000602082015260400190565b601281527f5468656d65206973206d616e6461746f72790000000000000000000000000000602082015260400190565b601081527f434d4f206973206d616e6461746f727900000000000000000000000000000000602082015260400190565b601181527f4e616d65206973206d616e6461746f7279000000000000000000000000000000602082015260400190565b601981527f4372656174696f6e44617465206973206d616e6461746f727900000000000000602082015260400190565b80516000906101608401906129d28582612adc565b5060208301516129e56020860182612adc565b50604083015184820360408601526129fd8282612808565b91505060608301518482036060860152612a178282612808565b91505060808301518482036080860152612a318282612808565b91505060a083015184820360a0860152612a4b8282612808565b91505060c083015184820360c0860152612a658282612808565b91505060e083015184820360e0860152612a7f82826127b2565b915050610100830151848203610100860152612a9b82826127b2565b915050610120830151848203610120860152612ab7828261264c565b915050610140830151848203610140860152612ad38282612808565b95945050505050565b612646816105e6565b602080825281016122b781846126a3565b602080825281016122b7818461270a565b602080825281016122b78184612765565b6020810161062182846127ff565b602080825281016106218161283d565b602080825281016106218161286d565b602080825281016106218161289d565b60208082528101610621816128cd565b60208082528101610621816128fd565b602080825281016106218161292d565b602080825281016106218161295d565b602080825281016106218161298d565b602081016106218284612adc565b60405181810167ffffffffffffffff81118282101715612bd357600080fd5b604052919050565b600067ffffffffffffffff821115612bf257600080fd5b506020601f91909101601f19160190565b60200190565b5190565b600160a060020a031690565b151590565b82818337506000910152565b60005b83811015612c45578181015183820152602001612c2d565b83811115610e605750506000910152565b601f01601f1916905600a265627a7a72305820f179264b68b2eeeb07d99d95a17a974aa6809c1524dde625a406a8ff638533936c6578706572696d656e74616cf50037",
  "source": "pragma solidity ^0.4.24;\npragma experimental ABIEncoderV2;\n\nimport \"./SafeMath.sol\";\nimport \"./random.sol\";\nimport \"./Registry.sol\";\n\ncontract Members is Random, Registry {\n\n  struct Member { \n    uint256 memberId;\n    uint256 creationDate;\n    string name;\n    string logo;\n    string country;\n    string cmo;\n    string theme;\n    uint256[] claimInbox;\n    uint256[] claims;\n    address[] userRequests;\n    string group;\n  }\n\n  uint256 constant private PAGE_SIZE = 10;\n\n  mapping (uint256 => Member) private members_;\n\n  uint256[] private membersList_;\n\n  // METHODS\n\n  // Public\n\n  function addMember(uint256 _creationDate, string _name, string _logo, string _country, string _cmo, string _theme, string _group) onlySigner public returns(uint) {\n    require(_creationDate > 0, \"CreationDate is mandatory\");\n    uint256 _memberId = Random.rand(_creationDate);\n    require(members_[_memberId].memberId == 0, \"Member already exists\");\n    _saveMember(_memberId, _creationDate, _name, _logo, _country, _cmo, _theme);\n    members_[_memberId].group = _group;\n    return _memberId;\n  }\n\n  function updateMember(uint256 _memberId, uint256 _creationDate, string _name, string _logo, string _country, string _cmo, string _theme, string _group) onlySigner public {\n    require(members_[_memberId].memberId > 0, \"Member not exists\");\n    require(members_[_memberId].creationDate == _creationDate, \"Creation Date is inmutable\");\n//    _saveMember(_memberId, _creationDate, _name, _logo, _country, _cmo, _theme);\n    members_[_memberId].group = _group;\n    members_[_memberId].name = _name;\n    members_[_memberId].theme = _theme;\n  }\n\n  function getMembers() public view returns (Member[] memory) {\n    Member[] memory memberPage = new Member[](membersList_.length);\n    for (uint i = 0; i < membersList_.length; ++i) {\n        memberPage[i] = members_[membersList_[i]];\n    }\n    return memberPage;\n  }\n\n  function getMembers(uint _page) public view returns (Member[] memory) {\n    uint256 pageIndex = SafeMath.mul(PAGE_SIZE, _page);\n    uint256 pageNumber = SafeMath.div(membersList_.length, PAGE_SIZE);\n\n    if (membersList_.length == 0 || pageIndex > membersList_.length - 1 || _page > pageNumber) {\n      return;\n    }\n\n    // Insert items filtered into array.\n    uint256 resultCount = 0;\n    Member[] memory memberPage = new Member[](PAGE_SIZE);\n    for(uint j = pageIndex; j < membersList_.length; ++j) {\n        memberPage[resultCount] = members_[membersList_[j]];\n        ++resultCount;\n    }\n    return memberPage;\n  }\n\n  function getCount() onlySigner public view returns (uint256) {\n    return membersList_.length;\n  }\n\n  // Private\n\n  function _saveMember(uint256 _memberId, uint256 _creationDate, string _name, string _logo, string _country, string _cmo, string _theme) internal {\n\n    require(bytes(_name).length != 0, \"Name is mandatory\");\n    require(bytes(_cmo).length != 0, \"CMO is mandatory\");\n    require(bytes(_theme).length != 0, \"Theme is mandatory\");\n\n    Member memory member = members_[_memberId];\n    member.memberId = _memberId;\n    member.creationDate = _creationDate;\n    member.name = _name;\n    member.logo = _logo;\n    member.country = _country;\n    member.cmo = _cmo;\n    member.theme = _theme;\n\n    members_[_memberId] = member;\n    membersList_.push(_memberId);\n\n  }\n\n  function _getClaimsIdByMember(uint _memberId) public view returns(uint[])  {\n    require(members_[_memberId].memberId > 0, \"member not exists\");\n    return members_[_memberId].claims;\n  }\n\n  function _getClaimsCountByMember(uint _memberId) public view returns(uint) {\n    return members_[_memberId].claims.length;\n  }\n\n  function _addUserToMemberRequest(uint _memberId) internal {\n    members_[_memberId].userRequests.push(msg.sender);\n  }\n\n  function _addClaimIdToMemberOwner(uint _memberId, uint _claimId) public {\n    members_[_memberId].claims.push(_claimId);\n  }\n\n  function _removeClaimIdFromMember(uint _memberId, uint _claimId) public {\n//    _rP(_memberId, _claimId);\n//  }\n//\n//  function _rP(uint _memberId, uint _claimId) private {\n    uint claimCount = members_[_memberId].claims.length;\n    if (claimCount > 0) { // require(claimCount > 0, \"not enough claims in member\");\n      members_[_memberId].claims[_claimId] = members_[_memberId].claims[claimCount-1];\n      members_[_memberId].claims[claimCount-1] = _claimId;\n      members_[_memberId].claims.length--;\n    }\n  }\n\n  function _addClaimFromInbox(uint _memberId, uint _claimId) public {\n    members_[_memberId].claimInbox.push(_claimId);\n  }\n\n  function _memberExists(uint _memberId) public view returns(bool) {\n    return members_[_memberId].memberId > 0;\n  }\n\n  function _removeClaimFromInbox(uint _memberId, uint _claimId) public {\n    bool found = false;\n    // Remove index\n    for (uint j = 0; j < members_[_memberId].claimInbox.length - 1; j++) {\n      if(members_[_memberId].claimInbox[j] == _claimId) {\n        found = true;\n      }\n      if(found) {\n        members_[_memberId].claimInbox[j] = members_[_memberId].claimInbox[j + 1];\n      }\n    }\n    delete members_[_memberId].claimInbox[members_[_memberId].claimInbox.length - 1];\n    members_[_memberId].claimInbox.length--;\n  }\n\n  function _clearUserFromMemberRequest(uint _memberId, address userAddress) internal {\n     bool found = false;\n    // Remove index\n    for (uint j = 0; j < members_[_memberId].userRequests.length - 1; j++) {\n      if(members_[_memberId].userRequests[j] == userAddress) {\n        found = true;\n      }\n      if(found) {\n        members_[_memberId].userRequests[j] = members_[_memberId].userRequests[j + 1];\n      }\n    }\n    delete members_[_memberId].userRequests[members_[_memberId].userRequests.length - 1];\n    members_[_memberId].userRequests.length--;\n  }\n\n}",
  "sourcePath": "/home/komodo/newUI2/bloomen-decentralized-rights-management-v2/truffle/contracts/registry/Members.sol",
  "compiler": {
    "name": "solc",
    "version": "0.4.24+commit.e67f0147.Emscripten.clang"
  },
  "schemaVersion": "2.0.1",
  "updatedAt": "2020-01-27T17:39:33.234Z"
}