{
  "contractName": "Members",
  "abi": [
    {
      "constant": false,
      "inputs": [
        {
          "name": "_cmo",
          "type": "string"
        }
      ],
      "name": "addCMO",
      "outputs": [],
      "payable": false,
      "stateMutability": "nonpayable",
      "type": "function"
    },
    {
      "constant": true,
      "inputs": [],
      "name": "getCMOs",
      "outputs": [
        {
          "name": "",
          "type": "string[]"
        }
      ],
      "payable": false,
      "stateMutability": "view",
      "type": "function"
    },
    {
      "constant": true,
      "inputs": [
        {
          "name": "account",
          "type": "address"
        }
      ],
      "name": "isSigner",
      "outputs": [
        {
          "name": "",
          "type": "bool"
        }
      ],
      "payable": false,
      "stateMutability": "view",
      "type": "function"
    },
    {
      "constant": false,
      "inputs": [
        {
          "name": "_index",
          "type": "uint256"
        }
      ],
      "name": "deleteCMO",
      "outputs": [],
      "payable": false,
      "stateMutability": "nonpayable",
      "type": "function"
    },
    {
      "constant": false,
      "inputs": [],
      "name": "renounceSigner",
      "outputs": [],
      "payable": false,
      "stateMutability": "nonpayable",
      "type": "function"
    },
    {
      "constant": false,
      "inputs": [
        {
          "name": "account",
          "type": "address"
        }
      ],
      "name": "addSigner",
      "outputs": [],
      "payable": false,
      "stateMutability": "nonpayable",
      "type": "function"
    },
    {
      "anonymous": false,
      "inputs": [
        {
          "indexed": true,
          "name": "account",
          "type": "address"
        }
      ],
      "name": "SignerAdded",
      "type": "event"
    },
    {
      "anonymous": false,
      "inputs": [
        {
          "indexed": true,
          "name": "account",
          "type": "address"
        }
      ],
      "name": "SignerRemoved",
      "type": "event"
    },
    {
      "constant": false,
      "inputs": [
        {
          "name": "_creationDate",
          "type": "uint256"
        },
        {
          "name": "_name",
          "type": "string"
        },
        {
          "name": "_logo",
          "type": "string"
        },
        {
          "name": "_country",
          "type": "string"
        },
        {
          "name": "_cmo",
          "type": "string"
        },
        {
          "name": "_theme",
          "type": "string"
        }
      ],
      "name": "addMember",
      "outputs": [
        {
          "name": "",
          "type": "uint256"
        }
      ],
      "payable": false,
      "stateMutability": "nonpayable",
      "type": "function"
    },
    {
      "constant": false,
      "inputs": [
        {
          "name": "_memberId",
          "type": "uint256"
        },
        {
          "name": "_creationDate",
          "type": "uint256"
        },
        {
          "name": "_name",
          "type": "string"
        },
        {
          "name": "_logo",
          "type": "string"
        },
        {
          "name": "_country",
          "type": "string"
        },
        {
          "name": "_cmo",
          "type": "string"
        },
        {
          "name": "_theme",
          "type": "string"
        },
        {
          "name": "_totalTokens",
          "type": "uint256"
        }
      ],
      "name": "updateMember",
      "outputs": [],
      "payable": false,
      "stateMutability": "nonpayable",
      "type": "function"
    },
    {
      "constant": true,
      "inputs": [
        {
          "name": "_page",
          "type": "uint256"
        }
      ],
      "name": "getMembers",
      "outputs": [
        {
          "components": [
            {
              "name": "memberId",
              "type": "uint256"
            },
            {
              "name": "creationDate",
              "type": "uint256"
            },
            {
              "name": "name",
              "type": "string"
            },
            {
              "name": "logo",
              "type": "string"
            },
            {
              "name": "country",
              "type": "string"
            },
            {
              "name": "cmo",
              "type": "string"
            },
            {
              "name": "theme",
              "type": "string"
            },
            {
              "name": "claimInbox",
              "type": "uint256[]"
            },
            {
              "name": "claims",
              "type": "uint256[]"
            },
            {
              "name": "userRequests",
              "type": "address[]"
            },
            {
              "name": "totalTokens",
              "type": "uint256"
            }
          ],
          "name": "",
          "type": "tuple[]"
        }
      ],
      "payable": false,
      "stateMutability": "view",
      "type": "function"
    },
    {
      "constant": true,
      "inputs": [],
      "name": "getMembers",
      "outputs": [
        {
          "components": [
            {
              "name": "memberId",
              "type": "uint256"
            },
            {
              "name": "creationDate",
              "type": "uint256"
            },
            {
              "name": "name",
              "type": "string"
            },
            {
              "name": "logo",
              "type": "string"
            },
            {
              "name": "country",
              "type": "string"
            },
            {
              "name": "cmo",
              "type": "string"
            },
            {
              "name": "theme",
              "type": "string"
            },
            {
              "name": "claimInbox",
              "type": "uint256[]"
            },
            {
              "name": "claims",
              "type": "uint256[]"
            },
            {
              "name": "userRequests",
              "type": "address[]"
            },
            {
              "name": "totalTokens",
              "type": "uint256"
            }
          ],
          "name": "",
          "type": "tuple[]"
        }
      ],
      "payable": false,
      "stateMutability": "view",
      "type": "function"
    },
    {
      "constant": true,
      "inputs": [],
      "name": "getCount",
      "outputs": [
        {
          "name": "",
          "type": "uint256"
        }
      ],
      "payable": false,
      "stateMutability": "view",
      "type": "function"
    },
    {
      "constant": false,
      "inputs": [
        {
          "name": "currentCMO",
          "type": "string"
        },
        {
          "name": "currentCMOId",
          "type": "uint256"
        }
      ],
      "name": "_getMemberIdsOfCurrentCMO",
      "outputs": [
        {
          "name": "",
          "type": "uint256[]"
        }
      ],
      "payable": false,
      "stateMutability": "nonpayable",
      "type": "function"
    },
    {
      "constant": true,
      "inputs": [
        {
          "name": "_memberId",
          "type": "uint256"
        }
      ],
      "name": "_getClaimsIdByMember",
      "outputs": [
        {
          "name": "",
          "type": "uint256[]"
        }
      ],
      "payable": false,
      "stateMutability": "view",
      "type": "function"
    },
    {
      "constant": true,
      "inputs": [
        {
          "name": "_memberId",
          "type": "uint256"
        }
      ],
      "name": "_getClaimsCountByMember",
      "outputs": [
        {
          "name": "",
          "type": "uint256"
        }
      ],
      "payable": false,
      "stateMutability": "view",
      "type": "function"
    },
    {
      "constant": false,
      "inputs": [
        {
          "name": "_memberId",
          "type": "uint256"
        },
        {
          "name": "_claimId",
          "type": "uint256"
        }
      ],
      "name": "_addClaimIdToMemberOwner",
      "outputs": [],
      "payable": false,
      "stateMutability": "nonpayable",
      "type": "function"
    },
    {
      "constant": false,
      "inputs": [
        {
          "name": "_memberId",
          "type": "uint256"
        },
        {
          "name": "_claimId",
          "type": "uint256"
        }
      ],
      "name": "_removeClaimIdFromMember",
      "outputs": [],
      "payable": false,
      "stateMutability": "nonpayable",
      "type": "function"
    },
    {
      "constant": false,
      "inputs": [
        {
          "name": "_memberId",
          "type": "uint256"
        },
        {
          "name": "_claimId",
          "type": "uint256"
        }
      ],
      "name": "_addClaimFromInbox",
      "outputs": [],
      "payable": false,
      "stateMutability": "nonpayable",
      "type": "function"
    },
    {
      "constant": true,
      "inputs": [
        {
          "name": "_memberId",
          "type": "uint256"
        }
      ],
      "name": "_memberExists",
      "outputs": [
        {
          "name": "",
          "type": "bool"
        }
      ],
      "payable": false,
      "stateMutability": "view",
      "type": "function"
    },
    {
      "constant": false,
      "inputs": [
        {
          "name": "_memberId",
          "type": "uint256"
        },
        {
          "name": "_claimId",
          "type": "uint256"
        }
      ],
      "name": "_removeClaimFromInbox",
      "outputs": [],
      "payable": false,
      "stateMutability": "nonpayable",
      "type": "function"
    }
  ],
  "bytecode": "0x608060405260006003556200001d3364010000000062000023810204565b62000108565b6200003e60008264010000000062001e0a6200007582021704565b604051600160a060020a038216907f47d1c22a25bb3a5d4e481b9b1e6944c2eade3181a0a20b495ed61d35b5323f2490600090a250565b600160a060020a03811615156200008b57600080fd5b620000a08282640100000000620000d0810204565b15620000ab57600080fd5b600160a060020a0316600090815260209190915260409020805460ff19166001179055565b6000600160a060020a0382161515620000e857600080fd5b50600160a060020a03166000908152602091909152604090205460ff1690565b612b2280620001186000396000f3006080604052600436106101065763ffffffff7c01000000000000000000000000000000000000000000000000000000006000350416633a59ccf1811461010b5780636262dff61461012d578063656d561c1461016357806374853239146101855780637df73e27146101a55780638b92892b146101d2578063989359df146101f25780639eab525314610212578063a29d441f14610234578063a87d942c14610254578063affccd8414610276578063bf3d007e14610296578063c477ecab146102b6578063d68dee9d146102d6578063e2c11f9e146102f6578063e5c8b03d14610316578063eb12d61e1461032b578063f83807331461034b578063fa1188c61461036b575b600080fd5b34801561011757600080fd5b5061012b6101263660046121e1565b61038b565b005b34801561013957600080fd5b5061014d610148366004612267565b6103e7565b60405161015a919061298f565b60405180910390f35b34801561016f57600080fd5b50610178610485565b60405161015a919061296d565b34801561019157600080fd5b5061012b6101a0366004612384565b61055e565b3480156101b157600080fd5b506101c56101c03660046121bb565b610584565b60405161015a91906129a0565b3480156101de57600080fd5b5061012b6101ed366004612384565b61059c565b3480156101fe57600080fd5b5061014d61020d366004612216565b6106ba565b34801561021e57600080fd5b506102276108ab565b60405161015a919061297e565b34801561024057600080fd5b5061012b61024f366004612384565b610d82565b34801561026057600080fd5b50610269610e92565b60405161015a9190612a2e565b34801561028257600080fd5b50610269610291366004612267565b610eaf565b3480156102a257600080fd5b5061012b6102b1366004612267565b610ec4565b3480156102c257600080fd5b506102276102d1366004612267565b610f81565b3480156102e257600080fd5b5061012b6102f13660046123a3565b6114a6565b34801561030257600080fd5b5061012b610311366004612384565b611586565b34801561032257600080fd5b5061012b6115ac565b34801561033757600080fd5b5061012b6103463660046121bb565b6115b7565b34801561035757600080fd5b506101c5610366366004612267565b6115d7565b34801561037757600080fd5b50610269610386366004612285565b6115ea565b61039433610584565b151561039f57600080fd5b6001805480820180835560009290925282516103e2917fb10e2d527612073b26eecdfd717e6a320cf44b4afac2b0732d9fcbe2b7fa0cf601906020850190611e58565b505050565b600081815260026020526040812054606091106104225760405160e560020a62461bcd028152600401610419906129be565b60405180910390fd5b6000828152600260209081526040918290206008018054835181840281018401909452808452909183018282801561047957602002820191906000526020600020905b815481526020019060010190808311610465575b50505050509050919050565b60606001805480602002602001604051908101604052809291908181526020016000905b828210156105545760008481526020908190208301805460408051601f60026000196101006001871615020190941693909304928301859004850281018501909152818152928301828280156105405780601f1061051557610100808354040283529160200191610540565b820191906000526020600020905b81548152906001019060200180831161052357829003601f168201915b5050505050815260200190600101906104a9565b5050505090505b90565b600091825260026020908152604083206007018054600181018255908452922090910155565b6000610596818363ffffffff61169016565b92915050565b6000805b6000848152600260205260409020600701546000190181101561065c5760008481526002602052604090206007018054849190839081106105dd57fe5b906000526020600020015414156105f357600191505b811561065457600084815260026020526040902060070180546001830190811061061957fe5b9060005260206000200154600260008681526020019081526020016000206007018281548110151561064757fe5b6000918252602090912001555b6001016105a0565b81156106b45760008481526002602052604090206007018054600019810190811061068357fe5b6000918252602080832090910182905585825260029052604090206007018054906106b2906000198301611ed6565b505b50505050565b60606000805b60045481101561085557846040518082805190602001908083835b602083106106fa5780518252601f1990920191602091820191016106db565b6001836020036101000a0380198251168184511680821785525050505050509050019150506040518091039020600019166002600060048481548110151561073e57fe5b9060005260206000200154815260200190815260200160002060050160405180828054600181600116156101000203166002900480156107b55780601f106107935761010080835404028352918201916107b5565b820191906000526020600020905b8154815290600101906020018083116107a1575b5050915050604051809103902060001916148015610802575083600260006004848154811015156107e257fe5b906000526020600020015481526020019081526020016000206000015414155b1561084d57816002600060048481548110151561081b57fe5b600091825260208083209091015483528281019390935260409091018120548354600181018555938252919020909101555b6001016106c0565b81546040805160208084028201810190925282815291849183018282801561089c57602002820191906000526020600020905b815481526020019060010190808311610888575b50505050509250505092915050565b60608060006004805490506040519080825280602002602001820160405280156108ef57816020015b6108dc611efa565b8152602001906001900390816108d45790505b509150600090505b600454811015610d7c576002600060048381548110151561091457fe5b9060005260206000200154815260200190815260200160002061016060405190810160405290816000820154815260200160018201548152602001600282018054600181600116156101000203166002900480601f0160208091040260200160405190810160405280929190818152602001828054600181600116156101000203166002900480156109e75780601f106109bc576101008083540402835291602001916109e7565b820191906000526020600020905b8154815290600101906020018083116109ca57829003601f168201915b505050918352505060038201805460408051602060026001851615610100026000190190941693909304601f8101849004840282018401909252818152938201939291830182828015610a7b5780601f10610a5057610100808354040283529160200191610a7b565b820191906000526020600020905b815481529060010190602001808311610a5e57829003601f168201915b505050918352505060048201805460408051602060026001851615610100026000190190941693909304601f8101849004840282018401909252818152938201939291830182828015610b0f5780601f10610ae457610100808354040283529160200191610b0f565b820191906000526020600020905b815481529060010190602001808311610af257829003601f168201915b505050918352505060058201805460408051602060026001851615610100026000190190941693909304601f8101849004840282018401909252818152938201939291830182828015610ba35780601f10610b7857610100808354040283529160200191610ba3565b820191906000526020600020905b815481529060010190602001808311610b8657829003601f168201915b505050918352505060068201805460408051602060026001851615610100026000190190941693909304601f8101849004840282018401909252818152938201939291830182828015610c375780601f10610c0c57610100808354040283529160200191610c37565b820191906000526020600020905b815481529060010190602001808311610c1a57829003601f168201915b5050505050815260200160078201805480602002602001604051908101604052809291908181526020018280548015610c8f57602002820191906000526020600020905b815481526020019060010190808311610c7b575b5050505050815260200160088201805480602002602001604051908101604052809291908181526020018280548015610ce757602002820191906000526020600020905b815481526020019060010190808311610cd3575b5050505050815260200160098201805480602002602001604051908101604052809291908181526020018280548015610d4957602002820191906000526020600020905b8154600160a060020a03168152600190910190602001808311610d2b575b50505050508152602001600a820154815250508282815181101515610d6a57fe5b602090810290910101526001016108f7565b50919050565b6000805b60008481526002602052604090206008015460001901811015610e42576000848152600260205260409020600801805484919083908110610dc357fe5b90600052602060002001541415610dd957600191505b8115610e3a576000848152600260205260409020600801805460018301908110610dff57fe5b90600052602060002001546002600086815260200190815260200160002060080182815481101515610e2d57fe5b6000918252602090912001555b600101610d86565b600084815260026020526040902060080180546000198101908110610e6357fe5b6000918252602080832090910182905585825260029052604090206008018054906106b2906000198301611ed6565b6000610e9d33610584565b1515610ea857600080fd5b5060045490565b60009081526002602052604090206008015490565b6000610ecf33610584565b1515610eda57600080fd5b50805b60015460001901811015610f465760018054828201908110610efb57fe5b90600052602060002001600182815481101515610f1457fe5b906000526020600020019080546001816001161561010002031660029004610f3d929190611f55565b50600101610edd565b600180546000198101908110610f5857fe5b906000526020600020016000610f6e9190611fca565b60018054906103e290600019830161200e565b6060600080600060606000610f97600a886116c7565b600454909550610fa890600a611700565b6004549094501580610fbf57506004546000190185115b80610fc957508387115b15610fd35761149c565b60408051600a80825261016082019092526000945090816020015b610ff6611efa565b815260200190600190039081610fee5790505091508490505b600454811015611498576002600060048381548110151561102c57fe5b9060005260206000200154815260200190815260200160002061016060405190810160405290816000820154815260200160018201548152602001600282018054600181600116156101000203166002900480601f0160208091040260200160405190810160405280929190818152602001828054600181600116156101000203166002900480156110ff5780601f106110d4576101008083540402835291602001916110ff565b820191906000526020600020905b8154815290600101906020018083116110e257829003601f168201915b505050918352505060038201805460408051602060026001851615610100026000190190941693909304601f81018490048402820184019092528181529382019392918301828280156111935780601f1061116857610100808354040283529160200191611193565b820191906000526020600020905b81548152906001019060200180831161117657829003601f168201915b505050918352505060048201805460408051602060026001851615610100026000190190941693909304601f81018490048402820184019092528181529382019392918301828280156112275780601f106111fc57610100808354040283529160200191611227565b820191906000526020600020905b81548152906001019060200180831161120a57829003601f168201915b505050918352505060058201805460408051602060026001851615610100026000190190941693909304601f81018490048402820184019092528181529382019392918301828280156112bb5780601f10611290576101008083540402835291602001916112bb565b820191906000526020600020905b81548152906001019060200180831161129e57829003601f168201915b505050918352505060068201805460408051602060026001851615610100026000190190941693909304601f810184900484028201840190925281815293820193929183018282801561134f5780601f106113245761010080835404028352916020019161134f565b820191906000526020600020905b81548152906001019060200180831161133257829003601f168201915b50505050508152602001600782018054806020026020016040519081016040528092919081815260200182805480156113a757602002820191906000526020600020905b815481526020019060010190808311611393575b50505050508152602001600882018054806020026020016040519081016040528092919081815260200182805480156113ff57602002820191906000526020600020905b8154815260200190600101908083116113eb575b505050505081526020016009820180548060200260200160405190810160405280929190818152602001828054801561146157602002820191906000526020600020905b8154600160a060020a03168152600190910190602001808311611443575b50505050508152602001600a82015481525050828481518110151561148257fe5b602090810290910101526001928301920161100f565b8195505b5050505050919050565b6114af33610584565b15156114ba57600080fd5b600088815260026020526040812054116114e95760405160e560020a62461bcd028152600401610419906129de565b600088815260026020526040902060010154871461151c5760405160e560020a62461bcd028152600401610419906129ae565b6000888152600260208181526040909220885161154193919092019190890190611e58565b506000888152600260209081526040909120835161156792600690920191850190611e58565b50600097885260026020526040909720600a0196909655505050505050565b600091825260026020908152604083206008018054600181018255908452922090910155565b6115b533611723565b565b6115c033610584565b15156115cb57600080fd5b6115d48161176b565b50565b6000908152600260205260408120541190565b6000806115f633610584565b151561160157600080fd5b600088116116245760405160e560020a62461bcd02815260040161041990612a1e565b5060038054600101908190556000818152600260205260409020541561165f5760405160e560020a62461bcd028152600401610419906129ce565b61166e818989898989896117b3565b60008181526002602052604090206103e8600a90910155979650505050505050565b6000600160a060020a03821615156116a757600080fd5b50600160a060020a03166000908152602091909152604090205460ff1690565b6000808315156116da57600091506116f9565b508282028284828115156116ea57fe5b04146116f557600080fd5b8091505b5092915050565b60008080831161170f57600080fd5b828481151561171a57fe5b04949350505050565b61173460008263ffffffff611dbe16565b604051600160a060020a038216907f3525e22824a8a7df2c9a6029941c824cf95b6447f1e13d5128fd3826d35afe8b90600090a250565b61177c60008263ffffffff611e0a16565b604051600160a060020a038216907f47d1c22a25bb3a5d4e481b9b1e6944c2eade3181a0a20b495ed61d35b5323f2490600090a250565b6117bb611efa565b855115156117de5760405160e560020a62461bcd02815260040161041990612a0e565b825115156118015760405160e560020a62461bcd028152600401610419906129fe565b815115156118245760405160e560020a62461bcd028152600401610419906129ee565b6000888152600260208181526040928390208351610160810185528154815260018083015482850152828501805487519281161561010002600019011695909504601f810185900485028201850187528082529195929492860193909291908301828280156118d45780601f106118a9576101008083540402835291602001916118d4565b820191906000526020600020905b8154815290600101906020018083116118b757829003601f168201915b505050918352505060038201805460408051602060026001851615610100026000190190941693909304601f81018490048402820184019092528181529382019392918301828280156119685780601f1061193d57610100808354040283529160200191611968565b820191906000526020600020905b81548152906001019060200180831161194b57829003601f168201915b505050918352505060048201805460408051602060026001851615610100026000190190941693909304601f81018490048402820184019092528181529382019392918301828280156119fc5780601f106119d1576101008083540402835291602001916119fc565b820191906000526020600020905b8154815290600101906020018083116119df57829003601f168201915b505050918352505060058201805460408051602060026001851615610100026000190190941693909304601f8101849004840282018401909252818152938201939291830182828015611a905780601f10611a6557610100808354040283529160200191611a90565b820191906000526020600020905b815481529060010190602001808311611a7357829003601f168201915b505050918352505060068201805460408051602060026001851615610100026000190190941693909304601f8101849004840282018401909252818152938201939291830182828015611b245780601f10611af957610100808354040283529160200191611b24565b820191906000526020600020905b815481529060010190602001808311611b0757829003601f168201915b5050505050815260200160078201805480602002602001604051908101604052809291908181526020018280548015611b7c57602002820191906000526020600020905b815481526020019060010190808311611b68575b5050505050815260200160088201805480602002602001604051908101604052809291908181526020018280548015611bd457602002820191906000526020600020905b815481526020019060010190808311611bc0575b5050505050815260200160098201805480602002602001604051908101604052809291908181526020018280548015611c3657602002820191906000526020600020905b8154600160a060020a03168152600190910190602001808311611c18575b5050509183525050600a919091015460209182015289825281810189815260408084018a8152606085018a90526080850189905260a0850188905260c0850187905260008d81526002808652929020855181559251600184015551805194955085949293611caa9392850192910190611e58565b5060608201518051611cc6916003840191602090910190611e58565b5060808201518051611ce2916004840191602090910190611e58565b5060a08201518051611cfe916005840191602090910190611e58565b5060c08201518051611d1a916006840191602090910190611e58565b5060e08201518051611d36916007840191602090910190612032565b506101008201518051611d53916008840191602090910190612032565b506101208201518051611d7091600984019160209091019061206c565b506101409190910151600a909101555050600480546001810182556000919091527f8a35acfbc15ff81a39ae7d344fd709f28e8600b4aa8c65c6b64bfe7fe36bd19b01959095555050505050565b600160a060020a0381161515611dd357600080fd5b611ddd8282611690565b1515611de857600080fd5b600160a060020a0316600090815260209190915260409020805460ff19169055565b600160a060020a0381161515611e1f57600080fd5b611e298282611690565b15611e3357600080fd5b600160a060020a0316600090815260209190915260409020805460ff19166001179055565b828054600181600116156101000203166002900490600052602060002090601f016020900481019282601f10611e9957805160ff1916838001178555611ec6565b82800160010185558215611ec6579182015b82811115611ec6578251825591602001919060010190611eab565b50611ed29291506120da565b5090565b8154818355818111156103e2576000838152602090206103e29181019083016120da565b6101606040519081016040528060008152602001600081526020016060815260200160608152602001606081526020016060815260200160608152602001606081526020016060815260200160608152602001600081525090565b828054600181600116156101000203166002900490600052602060002090601f016020900481019282601f10611f8e5780548555611ec6565b82800160010185558215611ec657600052602060002091601f016020900482015b82811115611ec6578254825591600101919060010190611faf565b50805460018160011615610100020316600290046000825580601f10611ff057506115d4565b601f0160209004906000526020600020908101906115d491906120da565b8154818355818111156103e2576000838152602090206103e29181019083016120f4565b828054828255906000526020600020908101928215611ec65791602002820182811115611ec6578251825591602001919060010190611eab565b8280548282559060005260206000209081019282156120ce579160200282015b828111156120ce578251825473ffffffffffffffffffffffffffffffffffffffff1916600160a060020a0390911617825560209092019160019091019061208c565b50611ed2929150612117565b61055b91905b80821115611ed257600081556001016120e0565b61055b91905b80821115611ed257600061210e8282611fca565b506001016120fa565b61055b91905b80821115611ed257805473ffffffffffffffffffffffffffffffffffffffff1916815560010161211d565b60006121548235612a95565b9392505050565b6000601f8201831361216c57600080fd5b813561217f61217a82612a63565b612a3c565b9150808252602083016020830185838301111561219b57600080fd5b6121a6838284612aa6565b50505092915050565b6000612154823561055b565b6000602082840312156121cd57600080fd5b60006121d98484612148565b949350505050565b6000602082840312156121f357600080fd5b813567ffffffffffffffff81111561220a57600080fd5b6121d98482850161215b565b6000806040838503121561222957600080fd5b823567ffffffffffffffff81111561224057600080fd5b61224c8582860161215b565b925050602061225d858286016121af565b9150509250929050565b60006020828403121561227957600080fd5b60006121d984846121af565b60008060008060008060c0878903121561229e57600080fd5b60006122aa89896121af565b965050602087013567ffffffffffffffff8111156122c757600080fd5b6122d389828a0161215b565b955050604087013567ffffffffffffffff8111156122f057600080fd5b6122fc89828a0161215b565b945050606087013567ffffffffffffffff81111561231957600080fd5b61232589828a0161215b565b935050608087013567ffffffffffffffff81111561234257600080fd5b61234e89828a0161215b565b92505060a087013567ffffffffffffffff81111561236b57600080fd5b61237789828a0161215b565b9150509295509295509295565b6000806040838503121561239757600080fd5b600061224c85856121af565b600080600080600080600080610100898b0312156123c057600080fd5b60006123cc8b8b6121af565b98505060206123dd8b828c016121af565b975050604089013567ffffffffffffffff8111156123fa57600080fd5b6124068b828c0161215b565b965050606089013567ffffffffffffffff81111561242357600080fd5b61242f8b828c0161215b565b955050608089013567ffffffffffffffff81111561244c57600080fd5b6124588b828c0161215b565b94505060a089013567ffffffffffffffff81111561247557600080fd5b6124818b828c0161215b565b93505060c089013567ffffffffffffffff81111561249e57600080fd5b6124aa8b828c0161215b565b92505060e06124bb8b828c016121af565b9150509295985092959890939650565b6124d481612a95565b82525050565b60006124e582612a91565b8084526020840193506124f783612a8b565b60005b828110156125275761250d8683516124cb565b61251682612a8b565b6020969096019591506001016124fa565b5093949350505050565b600061253c82612a91565b8084526020840193508360208202850161255585612a8b565b60005b8481101561258c578383038852612570838351612696565b925061257b82612a8b565b602098909801979150600101612558565b50909695505050505050565b60006125a382612a91565b808452602084019350836020820285016125bc85612a8b565b60005b8481101561258c5783830388526125d783835161284b565b92506125e282612a8b565b6020989098019791506001016125bf565b60006125fe82612a91565b80845260208401935061261083612a8b565b60005b8281101561252757612626868351612964565b61262f82612a8b565b602096909601959150600101612613565b600061264b82612a91565b80845260208401935061265d83612a8b565b60005b8281101561252757612673868351612964565b61267c82612a8b565b602096909601959150600101612660565b6124d481612aa1565b60006126a182612a91565b8084526126b5816020860160208601612ab2565b6126be81612ade565b9093016020019392505050565b601a81527f4372656174696f6e204461746520697320696d6d757461626c65000000000000602082015260400190565b601181527f6d656d626572206e6f7420657869737473000000000000000000000000000000602082015260400190565b601581527f4d656d62657220616c7265616479206578697374730000000000000000000000602082015260400190565b601181527f4d656d626572206e6f7420657869737473000000000000000000000000000000602082015260400190565b601281527f5468656d65206973206d616e6461746f72790000000000000000000000000000602082015260400190565b601081527f434d4f206973206d616e6461746f727900000000000000000000000000000000602082015260400190565b601181527f4e616d65206973206d616e6461746f7279000000000000000000000000000000602082015260400190565b601981527f4372656174696f6e44617465206973206d616e6461746f727900000000000000602082015260400190565b80516000906101608401906128608582612964565b5060208301516128736020860182612964565b506040830151848203604086015261288b8282612696565b915050606083015184820360608601526128a58282612696565b915050608083015184820360808601526128bf8282612696565b91505060a083015184820360a08601526128d98282612696565b91505060c083015184820360c08601526128f38282612696565b91505060e083015184820360e086015261290d8282612640565b9150506101008301518482036101008601526129298282612640565b91505061012083015184820361012086015261294582826124da565b91505061014083015161295c610140860182612964565b509392505050565b6124d48161055b565b602080825281016121548184612531565b602080825281016121548184612598565b6020808252810161215481846125f3565b60208101610596828461268d565b60208082528101610596816126cb565b60208082528101610596816126fb565b602080825281016105968161272b565b602080825281016105968161275b565b602080825281016105968161278b565b60208082528101610596816127bb565b60208082528101610596816127eb565b602080825281016105968161281b565b602081016105968284612964565b60405181810167ffffffffffffffff81118282101715612a5b57600080fd5b604052919050565b600067ffffffffffffffff821115612a7a57600080fd5b506020601f91909101601f19160190565b60200190565b5190565b600160a060020a031690565b151590565b82818337506000910152565b60005b83811015612acd578181015183820152602001612ab5565b838111156106b45750506000910152565b601f01601f1916905600a265627a7a723058206378987a183be1a3b3e7afce2cd57539c1be6f6c404ea4651316b7c346d53bf26c6578706572696d656e74616cf50037",
  "source": "pragma solidity ^0.4.24;\npragma experimental ABIEncoderV2;\n\nimport \"./SafeMath.sol\";\nimport \"./random.sol\";\nimport \"./Registry.sol\";\n\ncontract Members is Random, Registry {\n\n  struct Member { \n    uint256 memberId;\n    uint256 creationDate;\n    string name;\n    string logo;\n    string country;\n    string cmo;\n    string theme;\n    uint256[] claimInbox;\n    uint256[] claims;\n    address[] userRequests;\n    uint totalTokens;\n  }\n\n  uint256 constant private PAGE_SIZE = 10;\n\n  mapping (uint256 => Member) members_;\n  uint256 memberIdCounter_ = 0; // Equals the number of (members + Super Admins) ever inserted, including the deleted ones.\n\n  uint256[] private membersList_;\n\n  // METHODS\n  // Public\n\n  function addMember(uint256 _creationDate, string _name, string _logo, string _country, string _cmo, string _theme) onlySigner public returns(uint) {\n    //  string _group) onlySigner public returns(uint) {\n    require(_creationDate > 0, \"CreationDate is mandatory\");\n//    uint256 _memberId = Random.rand(_creationDate);\n    uint256 _memberId = ++memberIdCounter_;\n    require(members_[_memberId].memberId == 0, \"Member already exists\");\n    _saveMember(_memberId, _creationDate, _name, _logo, _country, _cmo, _theme);\n//    members_[_memberId].group = _group;\n    members_[_memberId].totalTokens = 1000;\n\n    return _memberId;\n  }\n\n  function updateMember(uint256 _memberId, uint256 _creationDate,\n    string _name, string _logo, string _country, string _cmo, string _theme, uint _totalTokens) onlySigner public {\n  // , string _group) onlySigner public {\n    require(members_[_memberId].memberId > 0, \"Member not exists\");\n    require(members_[_memberId].creationDate == _creationDate, \"Creation Date is immutable\");\n//    _saveMember(_memberId, _creationDate, _name, _logo, _country, _cmo, _theme);\n//    members_[_memberId].group = _group;\n    members_[_memberId].name = _name;\n    members_[_memberId].theme = _theme;\n    members_[_memberId].totalTokens = _totalTokens;\n  }\n\n  function getMembers() public view returns (Member[] memory) {\n    Member[] memory memberPage = new Member[](membersList_.length);\n    for (uint i = 0; i < membersList_.length; ++i) {\n        memberPage[i] = members_[membersList_[i]];\n    }\n    return memberPage;\n  }\n\n  function getMembers(uint _page) public view returns (Member[] memory) {\n    uint256 pageIndex = SafeMath.mul(PAGE_SIZE, _page);\n    uint256 pageNumber = SafeMath.div(membersList_.length, PAGE_SIZE);\n\n    if (membersList_.length == 0 || pageIndex > membersList_.length - 1 || _page > pageNumber) {\n      return;\n    }\n\n    // Insert items filtered into array.\n    uint256 resultCount = 0;\n    Member[] memory memberPage = new Member[](PAGE_SIZE);\n    for(uint j = pageIndex; j < membersList_.length; ++j) {\n        memberPage[resultCount] = members_[membersList_[j]];\n        ++resultCount;\n    }\n    return memberPage;\n  }\n\n  function getCount() onlySigner public view returns (uint256) {\n    return membersList_.length;\n  }\n\n  // Private\n\n  function _saveMember(uint256 _memberId, uint256 _creationDate, string _name, string _logo, string _country, string _cmo, string _theme) internal {\n\n    require(bytes(_name).length != 0, \"Name is mandatory\");\n    require(bytes(_cmo).length != 0, \"CMO is mandatory\");\n    require(bytes(_theme).length != 0, \"Theme is mandatory\");\n\n    Member memory member = members_[_memberId];\n    member.memberId = _memberId;\n    member.creationDate = _creationDate;\n    member.name = _name;\n    member.logo = _logo;\n    member.country = _country;\n    member.cmo = _cmo;\n    member.theme = _theme;\n\n    members_[_memberId] = member;\n    membersList_.push(_memberId);\n\n  }\n\n  function _getMemberIdsOfCurrentCMO(string currentCMO, uint256 currentCMOId) public returns(uint[]) {\n    uint[] memberIds;\n    for (uint j = 0; j < membersList_.length; ++j) {\n      if (keccak256(members_[membersList_[j]].cmo) == keccak256(currentCMO) && members_[membersList_[j]].memberId != currentCMOId) {\n        memberIds.push(members_[membersList_[j]].memberId);\n      }\n    }\n    return memberIds;\n  }\n\n  function _getClaimsIdByMember(uint _memberId) public view returns(uint[])  {\n    require(members_[_memberId].memberId > 0, \"member not exists\");\n    return members_[_memberId].claims;\n  }\n\n  function _getClaimsCountByMember(uint _memberId) public view returns(uint) {\n    return members_[_memberId].claims.length;\n  }\n\n  function _addUserToMemberRequest(uint _memberId) internal {\n    members_[_memberId].userRequests.push(msg.sender);\n  }\n\n  function _addClaimIdToMemberOwner(uint _memberId, uint _claimId) public {\n    members_[_memberId].claims.push(_claimId);\n  }\n\n  function _removeClaimIdFromMember(uint _memberId, uint _claimId) public {\n    bool found = false;\n    for (uint j = 0; j < members_[_memberId].claims.length - 1; j++) {\n      if(members_[_memberId].claims[j] == _claimId) {\n        found = true;\n      }\n      if(found) {\n        members_[_memberId].claims[j] = members_[_memberId].claims[j + 1];\n      }\n    }\n    //    if (found) {\n    delete members_[_memberId].claims[members_[_memberId].claims.length - 1];\n    members_[_memberId].claims.length--;\n    //    }\n  }\n\n  function _addClaimFromInbox(uint _memberId, uint _claimId) public {\n    members_[_memberId].claimInbox.push(_claimId);\n  }\n\n  function _memberExists(uint _memberId) public view returns(bool) {\n    return members_[_memberId].memberId > 0;\n  }\n\n  function _removeClaimFromInbox(uint _memberId, uint _claimId) public {\n    bool found = false;\n    // Remove index\n    for (uint j = 0; j < members_[_memberId].claimInbox.length - 1; j++) {\n      if(members_[_memberId].claimInbox[j] == _claimId) {\n        found = true;\n      }\n      if(found) {\n        members_[_memberId].claimInbox[j] = members_[_memberId].claimInbox[j + 1];\n      }\n    }\n    if (found) {\n      delete members_[_memberId].claimInbox[members_[_memberId].claimInbox.length - 1];\n      members_[_memberId].claimInbox.length--;\n    }\n  }\n\n  function _clearUserFromMemberRequest(uint _memberId, address userAddress) internal {\n     bool found = false;\n    // Remove index\n    for (uint j = 0; j < members_[_memberId].userRequests.length - 1; j++) {\n      if(members_[_memberId].userRequests[j] == userAddress) {\n        found = true;\n      }\n      if(found) {\n        members_[_memberId].userRequests[j] = members_[_memberId].userRequests[j + 1];\n      }\n    }\n//    if (found) {\n      delete members_[_memberId].userRequests[members_[_memberId].userRequests.length - 1];\n      members_[_memberId].userRequests.length--;\n//    }\n  }\n\n}",
  "sourcePath": "/home/komodo/newUI2/bloomen-decentralized-rights-management-v2/truffle/contracts/registry/Members.sol",
  "compiler": {
    "name": "solc",
    "version": "0.4.24+commit.e67f0147.Emscripten.clang"
  },
  "schemaVersion": "2.0.1",
  "updatedAt": "2020-03-15T17:04:40.751Z"
}