{
  "contractName": "Members",
  "abi": [
    {
      "constant": false,
      "inputs": [
        {
          "name": "_cmo",
          "type": "string"
        }
      ],
      "name": "addCMO",
      "outputs": [],
      "payable": false,
      "stateMutability": "nonpayable",
      "type": "function"
    },
    {
      "constant": true,
      "inputs": [],
      "name": "getCMOs",
      "outputs": [
        {
          "name": "",
          "type": "string[]"
        }
      ],
      "payable": false,
      "stateMutability": "view",
      "type": "function"
    },
    {
      "constant": true,
      "inputs": [
        {
          "name": "account",
          "type": "address"
        }
      ],
      "name": "isSigner",
      "outputs": [
        {
          "name": "",
          "type": "bool"
        }
      ],
      "payable": false,
      "stateMutability": "view",
      "type": "function"
    },
    {
      "constant": false,
      "inputs": [
        {
          "name": "_index",
          "type": "uint256"
        }
      ],
      "name": "deleteCMO",
      "outputs": [],
      "payable": false,
      "stateMutability": "nonpayable",
      "type": "function"
    },
    {
      "constant": false,
      "inputs": [],
      "name": "renounceSigner",
      "outputs": [],
      "payable": false,
      "stateMutability": "nonpayable",
      "type": "function"
    },
    {
      "constant": false,
      "inputs": [
        {
          "name": "account",
          "type": "address"
        }
      ],
      "name": "addSigner",
      "outputs": [],
      "payable": false,
      "stateMutability": "nonpayable",
      "type": "function"
    },
    {
      "anonymous": false,
      "inputs": [
        {
          "indexed": true,
          "name": "account",
          "type": "address"
        }
      ],
      "name": "SignerAdded",
      "type": "event"
    },
    {
      "anonymous": false,
      "inputs": [
        {
          "indexed": true,
          "name": "account",
          "type": "address"
        }
      ],
      "name": "SignerRemoved",
      "type": "event"
    },
    {
      "constant": false,
      "inputs": [
        {
          "name": "_creationDate",
          "type": "uint256"
        },
        {
          "name": "_name",
          "type": "string"
        },
        {
          "name": "_logo",
          "type": "string"
        },
        {
          "name": "_country",
          "type": "string"
        },
        {
          "name": "_cmo",
          "type": "string"
        },
        {
          "name": "_theme",
          "type": "string"
        }
      ],
      "name": "addMember",
      "outputs": [
        {
          "name": "",
          "type": "uint256"
        }
      ],
      "payable": false,
      "stateMutability": "nonpayable",
      "type": "function"
    },
    {
      "constant": false,
      "inputs": [
        {
          "name": "_memberId",
          "type": "uint256"
        },
        {
          "name": "_creationDate",
          "type": "uint256"
        },
        {
          "name": "_name",
          "type": "string"
        },
        {
          "name": "_logo",
          "type": "string"
        },
        {
          "name": "_country",
          "type": "string"
        },
        {
          "name": "_cmo",
          "type": "string"
        },
        {
          "name": "_theme",
          "type": "string"
        }
      ],
      "name": "updateMember",
      "outputs": [],
      "payable": false,
      "stateMutability": "nonpayable",
      "type": "function"
    },
    {
      "constant": true,
      "inputs": [
        {
          "name": "_page",
          "type": "uint256"
        }
      ],
      "name": "getMembers",
      "outputs": [
        {
          "components": [
            {
              "name": "memberId",
              "type": "uint256"
            },
            {
              "name": "creationDate",
              "type": "uint256"
            },
            {
              "name": "name",
              "type": "string"
            },
            {
              "name": "logo",
              "type": "string"
            },
            {
              "name": "country",
              "type": "string"
            },
            {
              "name": "cmo",
              "type": "string"
            },
            {
              "name": "theme",
              "type": "string"
            },
            {
              "name": "claimInbox",
              "type": "uint256[]"
            },
            {
              "name": "claims",
              "type": "uint256[]"
            },
            {
              "name": "userRequests",
              "type": "address[]"
            }
          ],
          "name": "",
          "type": "tuple[]"
        }
      ],
      "payable": false,
      "stateMutability": "view",
      "type": "function"
    },
    {
      "constant": true,
      "inputs": [],
      "name": "getMembers",
      "outputs": [
        {
          "components": [
            {
              "name": "memberId",
              "type": "uint256"
            },
            {
              "name": "creationDate",
              "type": "uint256"
            },
            {
              "name": "name",
              "type": "string"
            },
            {
              "name": "logo",
              "type": "string"
            },
            {
              "name": "country",
              "type": "string"
            },
            {
              "name": "cmo",
              "type": "string"
            },
            {
              "name": "theme",
              "type": "string"
            },
            {
              "name": "claimInbox",
              "type": "uint256[]"
            },
            {
              "name": "claims",
              "type": "uint256[]"
            },
            {
              "name": "userRequests",
              "type": "address[]"
            }
          ],
          "name": "",
          "type": "tuple[]"
        }
      ],
      "payable": false,
      "stateMutability": "view",
      "type": "function"
    },
    {
      "constant": true,
      "inputs": [],
      "name": "getCount",
      "outputs": [
        {
          "name": "",
          "type": "uint256"
        }
      ],
      "payable": false,
      "stateMutability": "view",
      "type": "function"
    },
    {
      "constant": false,
      "inputs": [
        {
          "name": "currentCMO",
          "type": "string"
        },
        {
          "name": "currentCMOId",
          "type": "uint256"
        }
      ],
      "name": "_getMemberIdsOfCurrentCMO",
      "outputs": [
        {
          "name": "",
          "type": "uint256[]"
        }
      ],
      "payable": false,
      "stateMutability": "nonpayable",
      "type": "function"
    },
    {
      "constant": true,
      "inputs": [
        {
          "name": "_memberId",
          "type": "uint256"
        }
      ],
      "name": "_getClaimsIdByMember",
      "outputs": [
        {
          "name": "",
          "type": "uint256[]"
        }
      ],
      "payable": false,
      "stateMutability": "view",
      "type": "function"
    },
    {
      "constant": true,
      "inputs": [
        {
          "name": "_memberId",
          "type": "uint256"
        }
      ],
      "name": "_getClaimsCountByMember",
      "outputs": [
        {
          "name": "",
          "type": "uint256"
        }
      ],
      "payable": false,
      "stateMutability": "view",
      "type": "function"
    },
    {
      "constant": false,
      "inputs": [
        {
          "name": "_memberId",
          "type": "uint256"
        },
        {
          "name": "_claimId",
          "type": "uint256"
        }
      ],
      "name": "_addClaimIdToMemberOwner",
      "outputs": [],
      "payable": false,
      "stateMutability": "nonpayable",
      "type": "function"
    },
    {
      "constant": false,
      "inputs": [
        {
          "name": "_memberId",
          "type": "uint256"
        },
        {
          "name": "_claimId",
          "type": "uint256"
        }
      ],
      "name": "_removeClaimIdFromMember",
      "outputs": [],
      "payable": false,
      "stateMutability": "nonpayable",
      "type": "function"
    },
    {
      "constant": false,
      "inputs": [
        {
          "name": "_memberId",
          "type": "uint256"
        },
        {
          "name": "_claimId",
          "type": "uint256"
        }
      ],
      "name": "_addClaimFromInbox",
      "outputs": [],
      "payable": false,
      "stateMutability": "nonpayable",
      "type": "function"
    },
    {
      "constant": true,
      "inputs": [
        {
          "name": "_memberId",
          "type": "uint256"
        }
      ],
      "name": "_memberExists",
      "outputs": [
        {
          "name": "",
          "type": "bool"
        }
      ],
      "payable": false,
      "stateMutability": "view",
      "type": "function"
    },
    {
      "constant": false,
      "inputs": [
        {
          "name": "_memberId",
          "type": "uint256"
        },
        {
          "name": "_claimId",
          "type": "uint256"
        }
      ],
      "name": "_removeClaimFromInbox",
      "outputs": [],
      "payable": false,
      "stateMutability": "nonpayable",
      "type": "function"
    }
  ],
  "bytecode": "0x608060405260006003556200001d3364010000000062000023810204565b62000108565b6200003e60008264010000000062001d746200007582021704565b604051600160a060020a038216907f47d1c22a25bb3a5d4e481b9b1e6944c2eade3181a0a20b495ed61d35b5323f2490600090a250565b600160a060020a03811615156200008b57600080fd5b620000a08282640100000000620000d0810204565b15620000ab57600080fd5b600160a060020a0316600090815260209190915260409020805460ff19166001179055565b6000600160a060020a0382161515620000e857600080fd5b50600160a060020a03166000908152602091909152604090205460ff1690565b612a5b80620001186000396000f3006080604052600436106101065763ffffffff7c01000000000000000000000000000000000000000000000000000000006000350416633a59ccf1811461010b5780636262dff61461012d578063656d561c1461016357806365ff0c481461018557806374853239146101a55780637df73e27146101c55780638b92892b146101f2578063989359df146102125780639eab525314610232578063a29d441f14610254578063a87d942c14610274578063affccd8414610296578063bf3d007e146102b6578063c477ecab146102d6578063e2c11f9e146102f6578063e5c8b03d14610316578063eb12d61e1461032b578063f83807331461034b578063fa1188c61461036b575b600080fd5b34801561011757600080fd5b5061012b610126366004612144565b61038b565b005b34801561013957600080fd5b5061014d6101483660046121ca565b6103e7565b60405161015a91906128c8565b60405180910390f35b34801561016f57600080fd5b50610178610485565b60405161015a91906128a6565b34801561019157600080fd5b5061012b6101a0366004612306565b61055e565b3480156101b157600080fd5b5061012b6101c03660046122e7565b610629565b3480156101d157600080fd5b506101e56101e036600461211e565b61064f565b60405161015a91906128d9565b3480156101fe57600080fd5b5061012b61020d3660046122e7565b610667565b34801561021e57600080fd5b5061014d61022d366004612179565b610785565b34801561023e57600080fd5b50610247610976565b60405161015a91906128b7565b34801561026057600080fd5b5061012b61026f3660046122e7565b610e43565b34801561028057600080fd5b50610289610f12565b60405161015a9190612967565b3480156102a257600080fd5b506102896102b13660046121ca565b610f2f565b3480156102c257600080fd5b5061012b6102d13660046121ca565b610f44565b3480156102e257600080fd5b506102476102f13660046121ca565b611001565b34801561030257600080fd5b5061012b6103113660046122e7565b61151c565b34801561032257600080fd5b5061012b611542565b34801561033757600080fd5b5061012b61034636600461211e565b61154d565b34801561035757600080fd5b506101e56103663660046121ca565b61156d565b34801561037757600080fd5b506102896103863660046121e8565b611580565b6103943361064f565b151561039f57600080fd5b6001805480820180835560009290925282516103e2917fb10e2d527612073b26eecdfd717e6a320cf44b4afac2b0732d9fcbe2b7fa0cf601906020850190611dc2565b505050565b600081815260026020526040812054606091106104225760405160e560020a62461bcd028152600401610419906128f7565b60405180910390fd5b6000828152600260209081526040918290206008018054835181840281018401909452808452909183018282801561047957602002820191906000526020600020905b815481526020019060010190808311610465575b50505050509050919050565b60606001805480602002602001604051908101604052809291908181526020016000905b828210156105545760008481526020908190208301805460408051601f60026000196101006001871615020190941693909304928301859004850281018501909152818152928301828280156105405780601f1061051557610100808354040283529160200191610540565b820191906000526020600020905b81548152906001019060200180831161052357829003601f168201915b5050505050815260200190600101906104a9565b5050505090505b90565b6105673361064f565b151561057257600080fd5b600087815260026020526040812054116105a15760405160e560020a62461bcd02815260040161041990612917565b60008781526002602052604090206001015486146105d45760405160e560020a62461bcd028152600401610419906128e7565b600087815260026020818152604090922087516105f993919092019190880190611dc2565b506000878152600260209081526040909120825161061f92600690920191840190611dc2565b5050505050505050565b600091825260026020908152604083206007018054600181018255908452922090910155565b6000610661818363ffffffff61160f16565b92915050565b6000805b600084815260026020526040902060070154600019018110156107275760008481526002602052604090206007018054849190839081106106a857fe5b906000526020600020015414156106be57600191505b811561071f5760008481526002602052604090206007018054600183019081106106e457fe5b9060005260206000200154600260008681526020019081526020016000206007018281548110151561071257fe5b6000918252602090912001555b60010161066b565b811561077f5760008481526002602052604090206007018054600019810190811061074e57fe5b60009182526020808320909101829055858252600290526040902060070180549061077d906000198301611e40565b505b50505050565b60606000805b60045481101561092057846040518082805190602001908083835b602083106107c55780518252601f1990920191602091820191016107a6565b6001836020036101000a0380198251168184511680821785525050505050509050019150506040518091039020600019166002600060048481548110151561080957fe5b9060005260206000200154815260200190815260200160002060050160405180828054600181600116156101000203166002900480156108805780601f1061085e576101008083540402835291820191610880565b820191906000526020600020905b81548152906001019060200180831161086c575b50509150506040518091039020600019161480156108cd575083600260006004848154811015156108ad57fe5b906000526020600020015481526020019081526020016000206000015414155b156109185781600260006004848154811015156108e657fe5b600091825260208083209091015483528281019390935260409091018120548354600181018555938252919020909101555b60010161078b565b81546040805160208084028201810190925282815291849183018282801561096757602002820191906000526020600020905b815481526020019060010190808311610953575b50505050509250505092915050565b60608060006004805490506040519080825280602002602001820160405280156109ba57816020015b6109a7611e64565b81526020019060019003908161099f5790505b509150600090505b600454811015610e3d57600260006004838154811015156109df57fe5b9060005260206000200154815260200190815260200160002061014060405190810160405290816000820154815260200160018201548152602001600282018054600181600116156101000203166002900480601f016020809104026020016040519081016040528092919081815260200182805460018160011615610100020316600290048015610ab25780601f10610a8757610100808354040283529160200191610ab2565b820191906000526020600020905b815481529060010190602001808311610a9557829003601f168201915b505050918352505060038201805460408051602060026001851615610100026000190190941693909304601f8101849004840282018401909252818152938201939291830182828015610b465780601f10610b1b57610100808354040283529160200191610b46565b820191906000526020600020905b815481529060010190602001808311610b2957829003601f168201915b505050918352505060048201805460408051602060026001851615610100026000190190941693909304601f8101849004840282018401909252818152938201939291830182828015610bda5780601f10610baf57610100808354040283529160200191610bda565b820191906000526020600020905b815481529060010190602001808311610bbd57829003601f168201915b505050918352505060058201805460408051602060026001851615610100026000190190941693909304601f8101849004840282018401909252818152938201939291830182828015610c6e5780601f10610c4357610100808354040283529160200191610c6e565b820191906000526020600020905b815481529060010190602001808311610c5157829003601f168201915b505050918352505060068201805460408051602060026001851615610100026000190190941693909304601f8101849004840282018401909252818152938201939291830182828015610d025780601f10610cd757610100808354040283529160200191610d02565b820191906000526020600020905b815481529060010190602001808311610ce557829003601f168201915b5050505050815260200160078201805480602002602001604051908101604052809291908181526020018280548015610d5a57602002820191906000526020600020905b815481526020019060010190808311610d46575b5050505050815260200160088201805480602002602001604051908101604052809291908181526020018280548015610db257602002820191906000526020600020905b815481526020019060010190808311610d9e575b5050505050815260200160098201805480602002602001604051908101604052809291908181526020018280548015610e1457602002820191906000526020600020905b8154600160a060020a03168152600190910190602001808311610df6575b5050505050815250508282815181101515610e2b57fe5b602090810290910101526001016109c2565b50919050565b600082815260026020526040812060080154908111156103e257600083815260026020526040902060080180546000198301908110610e7e57fe5b90600052602060002001546002600085815260200190815260200160002060080183815481101515610eac57fe5b9060005260206000200181905550816002600085815260200190815260200160002060080160018303815481101515610ee157fe5b600091825260208083209091019290925584815260029091526040902060080180549061077f906000198301611e40565b6000610f1d3361064f565b1515610f2857600080fd5b5060045490565b60009081526002602052604090206008015490565b6000610f4f3361064f565b1515610f5a57600080fd5b50805b60015460001901811015610fc65760018054828201908110610f7b57fe5b90600052602060002001600182815481101515610f9457fe5b906000526020600020019080546001816001161561010002031660029004610fbd929190611eb8565b50600101610f5d565b600180546000198101908110610fd857fe5b906000526020600020016000610fee9190611f2d565b60018054906103e2906000198301611f71565b6060600080600060606000611017600a88611646565b60045490955061102890600a61167f565b600454909450158061103f57506004546000190185115b8061104957508387115b1561105357611512565b60408051600a80825261016082019092526000945090816020015b611076611e64565b81526020019060019003908161106e5790505091508490505b60045481101561150e57600260006004838154811015156110ac57fe5b9060005260206000200154815260200190815260200160002061014060405190810160405290816000820154815260200160018201548152602001600282018054600181600116156101000203166002900480601f01602080910402602001604051908101604052809291908181526020018280546001816001161561010002031660029004801561117f5780601f106111545761010080835404028352916020019161117f565b820191906000526020600020905b81548152906001019060200180831161116257829003601f168201915b505050918352505060038201805460408051602060026001851615610100026000190190941693909304601f81018490048402820184019092528181529382019392918301828280156112135780601f106111e857610100808354040283529160200191611213565b820191906000526020600020905b8154815290600101906020018083116111f657829003601f168201915b505050918352505060048201805460408051602060026001851615610100026000190190941693909304601f81018490048402820184019092528181529382019392918301828280156112a75780601f1061127c576101008083540402835291602001916112a7565b820191906000526020600020905b81548152906001019060200180831161128a57829003601f168201915b505050918352505060058201805460408051602060026001851615610100026000190190941693909304601f810184900484028201840190925281815293820193929183018282801561133b5780601f106113105761010080835404028352916020019161133b565b820191906000526020600020905b81548152906001019060200180831161131e57829003601f168201915b505050918352505060068201805460408051602060026001851615610100026000190190941693909304601f81018490048402820184019092528181529382019392918301828280156113cf5780601f106113a4576101008083540402835291602001916113cf565b820191906000526020600020905b8154815290600101906020018083116113b257829003601f168201915b505050505081526020016007820180548060200260200160405190810160405280929190818152602001828054801561142757602002820191906000526020600020905b815481526020019060010190808311611413575b505050505081526020016008820180548060200260200160405190810160405280929190818152602001828054801561147f57602002820191906000526020600020905b81548152602001906001019080831161146b575b50505050508152602001600982018054806020026020016040519081016040528092919081815260200182805480156114e157602002820191906000526020600020905b8154600160a060020a031681526001909101906020018083116114c3575b50505050508152505082848151811015156114f857fe5b602090810290910101526001928301920161108f565b8195505b5050505050919050565b600091825260026020908152604083206008018054600181018255908452922090910155565b61154b336116a2565b565b6115563361064f565b151561156157600080fd5b61156a816116ea565b50565b6000908152600260205260408120541190565b60008061158c3361064f565b151561159757600080fd5b600088116115ba5760405160e560020a62461bcd02815260040161041990612957565b506003805460010190819055600081815260026020526040902054156115f55760405160e560020a62461bcd02815260040161041990612907565b61160481898989898989611732565b979650505050505050565b6000600160a060020a038216151561162657600080fd5b50600160a060020a03166000908152602091909152604090205460ff1690565b6000808315156116595760009150611678565b5082820282848281151561166957fe5b041461167457600080fd5b8091505b5092915050565b60008080831161168e57600080fd5b828481151561169957fe5b04949350505050565b6116b360008263ffffffff611d2816565b604051600160a060020a038216907f3525e22824a8a7df2c9a6029941c824cf95b6447f1e13d5128fd3826d35afe8b90600090a250565b6116fb60008263ffffffff611d7416565b604051600160a060020a038216907f47d1c22a25bb3a5d4e481b9b1e6944c2eade3181a0a20b495ed61d35b5323f2490600090a250565b61173a611e64565b8551151561175d5760405160e560020a62461bcd02815260040161041990612947565b825115156117805760405160e560020a62461bcd02815260040161041990612937565b815115156117a35760405160e560020a62461bcd02815260040161041990612927565b6000888152600260208181526040928390208351610140810185528154815260018083015482850152828501805487519281161561010002600019011695909504601f810185900485028201850187528082529195929492860193909291908301828280156118535780601f1061182857610100808354040283529160200191611853565b820191906000526020600020905b81548152906001019060200180831161183657829003601f168201915b505050918352505060038201805460408051602060026001851615610100026000190190941693909304601f81018490048402820184019092528181529382019392918301828280156118e75780601f106118bc576101008083540402835291602001916118e7565b820191906000526020600020905b8154815290600101906020018083116118ca57829003601f168201915b505050918352505060048201805460408051602060026001851615610100026000190190941693909304601f810184900484028201840190925281815293820193929183018282801561197b5780601f106119505761010080835404028352916020019161197b565b820191906000526020600020905b81548152906001019060200180831161195e57829003601f168201915b505050918352505060058201805460408051602060026001851615610100026000190190941693909304601f8101849004840282018401909252818152938201939291830182828015611a0f5780601f106119e457610100808354040283529160200191611a0f565b820191906000526020600020905b8154815290600101906020018083116119f257829003601f168201915b505050918352505060068201805460408051602060026001851615610100026000190190941693909304601f8101849004840282018401909252818152938201939291830182828015611aa35780601f10611a7857610100808354040283529160200191611aa3565b820191906000526020600020905b815481529060010190602001808311611a8657829003601f168201915b5050505050815260200160078201805480602002602001604051908101604052809291908181526020018280548015611afb57602002820191906000526020600020905b815481526020019060010190808311611ae7575b5050505050815260200160088201805480602002602001604051908101604052809291908181526020018280548015611b5357602002820191906000526020600020905b815481526020019060010190808311611b3f575b5050505050815260200160098201805480602002602001604051908101604052809291908181526020018280548015611bb557602002820191906000526020600020905b8154600160a060020a03168152600190910190602001808311611b97575b50505091909252505050888152602080820189815260408084018a8152606085018a90526080850189905260a0850188905260c0850187905260008d81526002808652929020855181559251600184015551805194955085949293611c209392850192910190611dc2565b5060608201518051611c3c916003840191602090910190611dc2565b5060808201518051611c58916004840191602090910190611dc2565b5060a08201518051611c74916005840191602090910190611dc2565b5060c08201518051611c90916006840191602090910190611dc2565b5060e08201518051611cac916007840191602090910190611f95565b506101008201518051611cc9916008840191602090910190611f95565b506101208201518051611ce6916009840191602090910190611fcf565b5050600480546001810182556000919091527f8a35acfbc15ff81a39ae7d344fd709f28e8600b4aa8c65c6b64bfe7fe36bd19b01989098555050505050505050565b600160a060020a0381161515611d3d57600080fd5b611d47828261160f565b1515611d5257600080fd5b600160a060020a0316600090815260209190915260409020805460ff19169055565b600160a060020a0381161515611d8957600080fd5b611d93828261160f565b15611d9d57600080fd5b600160a060020a0316600090815260209190915260409020805460ff19166001179055565b828054600181600116156101000203166002900490600052602060002090601f016020900481019282601f10611e0357805160ff1916838001178555611e30565b82800160010185558215611e30579182015b82811115611e30578251825591602001919060010190611e15565b50611e3c92915061203d565b5090565b8154818355818111156103e2576000838152602090206103e291810190830161203d565b61014060405190810160405280600081526020016000815260200160608152602001606081526020016060815260200160608152602001606081526020016060815260200160608152602001606081525090565b828054600181600116156101000203166002900490600052602060002090601f016020900481019282601f10611ef15780548555611e30565b82800160010185558215611e3057600052602060002091601f016020900482015b82811115611e30578254825591600101919060010190611f12565b50805460018160011615610100020316600290046000825580601f10611f53575061156a565b601f01602090049060005260206000209081019061156a919061203d565b8154818355818111156103e2576000838152602090206103e2918101908301612057565b828054828255906000526020600020908101928215611e305791602002820182811115611e30578251825591602001919060010190611e15565b828054828255906000526020600020908101928215612031579160200282015b82811115612031578251825473ffffffffffffffffffffffffffffffffffffffff1916600160a060020a03909116178255602090920191600190910190611fef565b50611e3c92915061207a565b61055b91905b80821115611e3c5760008155600101612043565b61055b91905b80821115611e3c5760006120718282611f2d565b5060010161205d565b61055b91905b80821115611e3c57805473ffffffffffffffffffffffffffffffffffffffff19168155600101612080565b60006120b782356129ce565b9392505050565b6000601f820183136120cf57600080fd5b81356120e26120dd8261299c565b612975565b915080825260208301602083018583830111156120fe57600080fd5b6121098382846129df565b50505092915050565b60006120b7823561055b565b60006020828403121561213057600080fd5b600061213c84846120ab565b949350505050565b60006020828403121561215657600080fd5b813567ffffffffffffffff81111561216d57600080fd5b61213c848285016120be565b6000806040838503121561218c57600080fd5b823567ffffffffffffffff8111156121a357600080fd5b6121af858286016120be565b92505060206121c085828601612112565b9150509250929050565b6000602082840312156121dc57600080fd5b600061213c8484612112565b60008060008060008060c0878903121561220157600080fd5b600061220d8989612112565b965050602087013567ffffffffffffffff81111561222a57600080fd5b61223689828a016120be565b955050604087013567ffffffffffffffff81111561225357600080fd5b61225f89828a016120be565b945050606087013567ffffffffffffffff81111561227c57600080fd5b61228889828a016120be565b935050608087013567ffffffffffffffff8111156122a557600080fd5b6122b189828a016120be565b92505060a087013567ffffffffffffffff8111156122ce57600080fd5b6122da89828a016120be565b9150509295509295509295565b600080604083850312156122fa57600080fd5b60006121af8585612112565b600080600080600080600060e0888a03121561232157600080fd5b600061232d8a8a612112565b975050602061233e8a828b01612112565b965050604088013567ffffffffffffffff81111561235b57600080fd5b6123678a828b016120be565b955050606088013567ffffffffffffffff81111561238457600080fd5b6123908a828b016120be565b945050608088013567ffffffffffffffff8111156123ad57600080fd5b6123b98a828b016120be565b93505060a088013567ffffffffffffffff8111156123d657600080fd5b6123e28a828b016120be565b92505060c088013567ffffffffffffffff8111156123ff57600080fd5b61240b8a828b016120be565b91505092959891949750929550565b612423816129ce565b82525050565b6000612434826129ca565b808452602084019350612446836129c4565b60005b828110156124765761245c86835161241a565b612465826129c4565b602096909601959150600101612449565b5093949350505050565b600061248b826129ca565b808452602084019350836020820285016124a4856129c4565b60005b848110156124db5783830388526124bf8383516125e5565b92506124ca826129c4565b6020989098019791506001016124a7565b50909695505050505050565b60006124f2826129ca565b8084526020840193508360208202850161250b856129c4565b60005b848110156124db57838303885261252683835161279a565b9250612531826129c4565b60209890980197915060010161250e565b600061254d826129ca565b80845260208401935061255f836129c4565b60005b828110156124765761257586835161289d565b61257e826129c4565b602096909601959150600101612562565b600061259a826129ca565b8084526020840193506125ac836129c4565b60005b82811015612476576125c286835161289d565b6125cb826129c4565b6020969096019591506001016125af565b612423816129da565b60006125f0826129ca565b8084526126048160208601602086016129eb565b61260d81612a17565b9093016020019392505050565b601a81527f4372656174696f6e204461746520697320696d6d757461626c65000000000000602082015260400190565b601181527f6d656d626572206e6f7420657869737473000000000000000000000000000000602082015260400190565b601581527f4d656d62657220616c7265616479206578697374730000000000000000000000602082015260400190565b601181527f4d656d626572206e6f7420657869737473000000000000000000000000000000602082015260400190565b601281527f5468656d65206973206d616e6461746f72790000000000000000000000000000602082015260400190565b601081527f434d4f206973206d616e6461746f727900000000000000000000000000000000602082015260400190565b601181527f4e616d65206973206d616e6461746f7279000000000000000000000000000000602082015260400190565b601981527f4372656174696f6e44617465206973206d616e6461746f727900000000000000602082015260400190565b80516000906101408401906127af858261289d565b5060208301516127c2602086018261289d565b50604083015184820360408601526127da82826125e5565b915050606083015184820360608601526127f482826125e5565b9150506080830151848203608086015261280e82826125e5565b91505060a083015184820360a086015261282882826125e5565b91505060c083015184820360c086015261284282826125e5565b91505060e083015184820360e086015261285c828261258f565b915050610100830151848203610100860152612878828261258f565b9150506101208301518482036101208601526128948282612429565b95945050505050565b6124238161055b565b602080825281016120b78184612480565b602080825281016120b781846124e7565b602080825281016120b78184612542565b6020810161066182846125dc565b602080825281016106618161261a565b602080825281016106618161264a565b602080825281016106618161267a565b60208082528101610661816126aa565b60208082528101610661816126da565b602080825281016106618161270a565b602080825281016106618161273a565b602080825281016106618161276a565b60208101610661828461289d565b60405181810167ffffffffffffffff8111828210171561299457600080fd5b604052919050565b600067ffffffffffffffff8211156129b357600080fd5b506020601f91909101601f19160190565b60200190565b5190565b600160a060020a031690565b151590565b82818337506000910152565b60005b83811015612a065781810151838201526020016129ee565b8381111561077f5750506000910152565b601f01601f1916905600a265627a7a72305820c181083ceedb61e8845348c093ee49a24495c9d26553ae7afc8b2c47a40e2f5e6c6578706572696d656e74616cf50037",
  "source": "pragma solidity ^0.4.24;\npragma experimental ABIEncoderV2;\n\nimport \"./SafeMath.sol\";\nimport \"./random.sol\";\nimport \"./Registry.sol\";\n\ncontract Members is Random, Registry {\n\n  struct Member { \n    uint256 memberId;\n    uint256 creationDate;\n    string name;\n    string logo;\n    string country;\n    string cmo;\n    string theme;\n    uint256[] claimInbox;\n    uint256[] claims;\n    address[] userRequests;\n//    string[] groups;\n  }\n\n  uint256 constant private PAGE_SIZE = 10;\n\n  mapping (uint256 => Member) members_;\n  uint256 memberIdCounter_ = 0; // Equals the number of (members + Super Admins) ever inserted, including the deleted ones.\n\n  uint256[] private membersList_;\n\n  // METHODS\n  // Public\n\n  function addMember(uint256 _creationDate, string _name, string _logo, string _country, string _cmo, string _theme) onlySigner public returns(uint) {\n    //  string _group) onlySigner public returns(uint) {\n    require(_creationDate > 0, \"CreationDate is mandatory\");\n//    uint256 _memberId = Random.rand(_creationDate);\n    uint256 _memberId = ++memberIdCounter_;\n    require(members_[_memberId].memberId == 0, \"Member already exists\");\n    _saveMember(_memberId, _creationDate, _name, _logo, _country, _cmo, _theme);\n//    members_[_memberId].group = _group;\n    return _memberId;\n  }\n\n  function updateMember(uint256 _memberId, uint256 _creationDate, string _name, string _logo, string _country, string _cmo, string _theme) onlySigner public {\n  // , string _group) onlySigner public {\n    require(members_[_memberId].memberId > 0, \"Member not exists\");\n    require(members_[_memberId].creationDate == _creationDate, \"Creation Date is immutable\");\n//    _saveMember(_memberId, _creationDate, _name, _logo, _country, _cmo, _theme);\n//    members_[_memberId].group = _group;\n    members_[_memberId].name = _name;\n    members_[_memberId].theme = _theme;\n  }\n\n  function getMembers() public view returns (Member[] memory) {\n    Member[] memory memberPage = new Member[](membersList_.length);\n    for (uint i = 0; i < membersList_.length; ++i) {\n        memberPage[i] = members_[membersList_[i]];\n    }\n    return memberPage;\n  }\n\n  function getMembers(uint _page) public view returns (Member[] memory) {\n    uint256 pageIndex = SafeMath.mul(PAGE_SIZE, _page);\n    uint256 pageNumber = SafeMath.div(membersList_.length, PAGE_SIZE);\n\n    if (membersList_.length == 0 || pageIndex > membersList_.length - 1 || _page > pageNumber) {\n      return;\n    }\n\n    // Insert items filtered into array.\n    uint256 resultCount = 0;\n    Member[] memory memberPage = new Member[](PAGE_SIZE);\n    for(uint j = pageIndex; j < membersList_.length; ++j) {\n        memberPage[resultCount] = members_[membersList_[j]];\n        ++resultCount;\n    }\n    return memberPage;\n  }\n\n  function getCount() onlySigner public view returns (uint256) {\n    return membersList_.length;\n  }\n\n  // Private\n\n  function _saveMember(uint256 _memberId, uint256 _creationDate, string _name, string _logo, string _country, string _cmo, string _theme) internal {\n\n    require(bytes(_name).length != 0, \"Name is mandatory\");\n    require(bytes(_cmo).length != 0, \"CMO is mandatory\");\n    require(bytes(_theme).length != 0, \"Theme is mandatory\");\n\n    Member memory member = members_[_memberId];\n    member.memberId = _memberId;\n    member.creationDate = _creationDate;\n    member.name = _name;\n    member.logo = _logo;\n    member.country = _country;\n    member.cmo = _cmo;\n    member.theme = _theme;\n\n    members_[_memberId] = member;\n    membersList_.push(_memberId);\n\n  }\n\n  function _getMemberIdsOfCurrentCMO(string currentCMO, uint256 currentCMOId) public returns(uint[]) {\n    uint[] memberIds;\n    for (uint j = 0; j < membersList_.length; ++j) {\n      if (keccak256(members_[membersList_[j]].cmo) == keccak256(currentCMO) && members_[membersList_[j]].memberId != currentCMOId) {\n        memberIds.push(members_[membersList_[j]].memberId);\n      }\n    }\n    return memberIds;\n  }\n\n  function _getClaimsIdByMember(uint _memberId) public view returns(uint[])  {\n    require(members_[_memberId].memberId > 0, \"member not exists\");\n    return members_[_memberId].claims;\n  }\n\n  function _getClaimsCountByMember(uint _memberId) public view returns(uint) {\n    return members_[_memberId].claims.length;\n  }\n\n  function _addUserToMemberRequest(uint _memberId) internal {\n    members_[_memberId].userRequests.push(msg.sender);\n  }\n\n  function _addClaimIdToMemberOwner(uint _memberId, uint _claimId) public {\n    members_[_memberId].claims.push(_claimId);\n  }\n\n  function _removeClaimIdFromMember(uint _memberId, uint _claimId) public {\n//    _rP(_memberId, _claimId);\n//  }\n//\n//  function _rP(uint _memberId, uint _claimId) private {\n    uint claimCount = members_[_memberId].claims.length;\n    if (claimCount > 0) { // require(claimCount > 0, \"not enough claims in member\");\n      members_[_memberId].claims[_claimId] = members_[_memberId].claims[claimCount-1];\n      members_[_memberId].claims[claimCount-1] = _claimId;\n      members_[_memberId].claims.length--;\n    }\n  }\n\n  function _addClaimFromInbox(uint _memberId, uint _claimId) public {\n    members_[_memberId].claimInbox.push(_claimId);\n  }\n\n  function _memberExists(uint _memberId) public view returns(bool) {\n    return members_[_memberId].memberId > 0;\n  }\n\n  function _removeClaimFromInbox(uint _memberId, uint _claimId) public {\n    bool found = false;\n    // Remove index\n    for (uint j = 0; j < members_[_memberId].claimInbox.length - 1; j++) {\n      if(members_[_memberId].claimInbox[j] == _claimId) {\n        found = true;\n      }\n      if(found) {\n        members_[_memberId].claimInbox[j] = members_[_memberId].claimInbox[j + 1];\n      }\n    }\n    if (found) {\n      delete members_[_memberId].claimInbox[members_[_memberId].claimInbox.length - 1];\n      members_[_memberId].claimInbox.length--;\n    }\n  }\n\n  function _clearUserFromMemberRequest(uint _memberId, address userAddress) internal {\n     bool found = false;\n    // Remove index\n    for (uint j = 0; j < members_[_memberId].userRequests.length - 1; j++) {\n      if(members_[_memberId].userRequests[j] == userAddress) {\n        found = true;\n      }\n      if(found) {\n        members_[_memberId].userRequests[j] = members_[_memberId].userRequests[j + 1];\n      }\n    }\n//    if (found) {\n      delete members_[_memberId].userRequests[members_[_memberId].userRequests.length - 1];\n      members_[_memberId].userRequests.length--;\n//    }\n  }\n\n}",
  "sourcePath": "/home/komodo/newUI2/bloomen-decentralized-rights-management-v2/truffle/contracts/registry/Members.sol",
  "compiler": {
    "name": "solc",
    "version": "0.4.24+commit.e67f0147.Emscripten.clang"
  },
  "schemaVersion": "2.0.1",
  "updatedAt": "2020-02-15T12:53:43.999Z"
}