{
  "contractName": "Members",
  "abi": [
    {
      "constant": false,
      "inputs": [
        {
          "name": "_cmo",
          "type": "string"
        }
      ],
      "name": "addCMO",
      "outputs": [],
      "payable": false,
      "stateMutability": "nonpayable",
      "type": "function"
    },
    {
      "constant": true,
      "inputs": [],
      "name": "getCMOs",
      "outputs": [
        {
          "name": "",
          "type": "string[]"
        }
      ],
      "payable": false,
      "stateMutability": "view",
      "type": "function"
    },
    {
      "constant": true,
      "inputs": [
        {
          "name": "account",
          "type": "address"
        }
      ],
      "name": "isSigner",
      "outputs": [
        {
          "name": "",
          "type": "bool"
        }
      ],
      "payable": false,
      "stateMutability": "view",
      "type": "function"
    },
    {
      "constant": false,
      "inputs": [
        {
          "name": "_index",
          "type": "uint256"
        }
      ],
      "name": "deleteCMO",
      "outputs": [],
      "payable": false,
      "stateMutability": "nonpayable",
      "type": "function"
    },
    {
      "constant": false,
      "inputs": [],
      "name": "renounceSigner",
      "outputs": [],
      "payable": false,
      "stateMutability": "nonpayable",
      "type": "function"
    },
    {
      "constant": false,
      "inputs": [
        {
          "name": "account",
          "type": "address"
        }
      ],
      "name": "addSigner",
      "outputs": [],
      "payable": false,
      "stateMutability": "nonpayable",
      "type": "function"
    },
    {
      "anonymous": false,
      "inputs": [
        {
          "indexed": true,
          "name": "account",
          "type": "address"
        }
      ],
      "name": "SignerAdded",
      "type": "event"
    },
    {
      "anonymous": false,
      "inputs": [
        {
          "indexed": true,
          "name": "account",
          "type": "address"
        }
      ],
      "name": "SignerRemoved",
      "type": "event"
    },
    {
      "constant": false,
      "inputs": [
        {
          "name": "_creationDate",
          "type": "uint256"
        },
        {
          "name": "_name",
          "type": "string"
        },
        {
          "name": "_logo",
          "type": "string"
        },
        {
          "name": "_country",
          "type": "string"
        },
        {
          "name": "_cmo",
          "type": "string"
        },
        {
          "name": "_theme",
          "type": "string"
        }
      ],
      "name": "addMember",
      "outputs": [
        {
          "name": "",
          "type": "uint256"
        }
      ],
      "payable": false,
      "stateMutability": "nonpayable",
      "type": "function"
    },
    {
      "constant": false,
      "inputs": [
        {
          "name": "_memberId",
          "type": "uint256"
        },
        {
          "name": "_creationDate",
          "type": "uint256"
        },
        {
          "name": "_name",
          "type": "string"
        },
        {
          "name": "_logo",
          "type": "string"
        },
        {
          "name": "_country",
          "type": "string"
        },
        {
          "name": "_cmo",
          "type": "string"
        },
        {
          "name": "_theme",
          "type": "string"
        },
        {
          "name": "_totalTokens",
          "type": "uint256"
        }
      ],
      "name": "updateMember",
      "outputs": [],
      "payable": false,
      "stateMutability": "nonpayable",
      "type": "function"
    },
    {
      "constant": false,
      "inputs": [
        {
          "name": "_memberId",
          "type": "uint256"
        },
        {
          "name": "newInbox",
          "type": "uint256[]"
        }
      ],
      "name": "updateMemberClaimInbox",
      "outputs": [],
      "payable": false,
      "stateMutability": "nonpayable",
      "type": "function"
    },
    {
      "constant": true,
      "inputs": [],
      "name": "getMembers",
      "outputs": [
        {
          "components": [
            {
              "name": "memberId",
              "type": "uint256"
            },
            {
              "name": "creationDate",
              "type": "uint256"
            },
            {
              "name": "name",
              "type": "string"
            },
            {
              "name": "logo",
              "type": "string"
            },
            {
              "name": "country",
              "type": "string"
            },
            {
              "name": "cmo",
              "type": "string"
            },
            {
              "name": "theme",
              "type": "string"
            },
            {
              "name": "claimInbox",
              "type": "uint256[]"
            },
            {
              "name": "claims",
              "type": "uint256[]"
            },
            {
              "name": "userRequests",
              "type": "address[]"
            },
            {
              "name": "totalTokens",
              "type": "uint256"
            }
          ],
          "name": "",
          "type": "tuple[]"
        }
      ],
      "payable": false,
      "stateMutability": "view",
      "type": "function"
    },
    {
      "constant": true,
      "inputs": [
        {
          "name": "_page",
          "type": "uint256"
        }
      ],
      "name": "getMembers",
      "outputs": [
        {
          "components": [
            {
              "name": "memberId",
              "type": "uint256"
            },
            {
              "name": "creationDate",
              "type": "uint256"
            },
            {
              "name": "name",
              "type": "string"
            },
            {
              "name": "logo",
              "type": "string"
            },
            {
              "name": "country",
              "type": "string"
            },
            {
              "name": "cmo",
              "type": "string"
            },
            {
              "name": "theme",
              "type": "string"
            },
            {
              "name": "claimInbox",
              "type": "uint256[]"
            },
            {
              "name": "claims",
              "type": "uint256[]"
            },
            {
              "name": "userRequests",
              "type": "address[]"
            },
            {
              "name": "totalTokens",
              "type": "uint256"
            }
          ],
          "name": "",
          "type": "tuple[]"
        }
      ],
      "payable": false,
      "stateMutability": "view",
      "type": "function"
    },
    {
      "constant": true,
      "inputs": [],
      "name": "getCount",
      "outputs": [
        {
          "name": "",
          "type": "uint256"
        }
      ],
      "payable": false,
      "stateMutability": "view",
      "type": "function"
    },
    {
      "constant": false,
      "inputs": [
        {
          "name": "currentCMO",
          "type": "string"
        },
        {
          "name": "currentCMOId",
          "type": "uint256"
        }
      ],
      "name": "_getMemberIdsOfCurrentCMO",
      "outputs": [
        {
          "name": "",
          "type": "uint256[]"
        }
      ],
      "payable": false,
      "stateMutability": "nonpayable",
      "type": "function"
    },
    {
      "constant": true,
      "inputs": [
        {
          "name": "_memberId",
          "type": "uint256"
        }
      ],
      "name": "_getClaimsIdByMember",
      "outputs": [
        {
          "name": "",
          "type": "uint256[]"
        }
      ],
      "payable": false,
      "stateMutability": "view",
      "type": "function"
    },
    {
      "constant": true,
      "inputs": [
        {
          "name": "_memberId",
          "type": "uint256"
        }
      ],
      "name": "_getClaimsCountByMember",
      "outputs": [
        {
          "name": "",
          "type": "uint256"
        }
      ],
      "payable": false,
      "stateMutability": "view",
      "type": "function"
    },
    {
      "constant": false,
      "inputs": [
        {
          "name": "_memberId",
          "type": "uint256"
        },
        {
          "name": "_claimId",
          "type": "uint256"
        }
      ],
      "name": "_addClaimIdToMemberOwner",
      "outputs": [],
      "payable": false,
      "stateMutability": "nonpayable",
      "type": "function"
    },
    {
      "constant": false,
      "inputs": [
        {
          "name": "_memberId",
          "type": "uint256"
        },
        {
          "name": "_claimId",
          "type": "uint256"
        }
      ],
      "name": "_removeClaimFromMember",
      "outputs": [],
      "payable": false,
      "stateMutability": "nonpayable",
      "type": "function"
    },
    {
      "constant": false,
      "inputs": [
        {
          "name": "_memberId",
          "type": "uint256"
        },
        {
          "name": "_claimId",
          "type": "uint256"
        }
      ],
      "name": "_addClaimFromInbox",
      "outputs": [],
      "payable": false,
      "stateMutability": "nonpayable",
      "type": "function"
    },
    {
      "constant": true,
      "inputs": [
        {
          "name": "_memberId",
          "type": "uint256"
        }
      ],
      "name": "_memberExists",
      "outputs": [
        {
          "name": "",
          "type": "bool"
        }
      ],
      "payable": false,
      "stateMutability": "view",
      "type": "function"
    },
    {
      "constant": false,
      "inputs": [
        {
          "name": "_memberId",
          "type": "uint256"
        },
        {
          "name": "_claimId",
          "type": "uint256"
        }
      ],
      "name": "_removeClaimFromInbox",
      "outputs": [],
      "payable": false,
      "stateMutability": "nonpayable",
      "type": "function"
    }
  ],
  "bytecode": "0x608060405260006003556200001d3364010000000062000023810204565b62000108565b6200003e60008264010000000062001efb6200007582021704565b604051600160a060020a038216907f47d1c22a25bb3a5d4e481b9b1e6944c2eade3181a0a20b495ed61d35b5323f2490600090a250565b600160a060020a03811615156200008b57600080fd5b620000a08282640100000000620000d0810204565b15620000ab57600080fd5b600160a060020a0316600090815260209190915260409020805460ff19166001179055565b6000600160a060020a0382161515620000e857600080fd5b50600160a060020a03166000908152602091909152604090205460ff1690565b612cf680620001186000396000f3006080604052600436106101115763ffffffff7c01000000000000000000000000000000000000000000000000000000006000350416633a59ccf181146101165780636262dff614610138578063656d561c1461016e57806374853239146101905780637df73e27146101b05780638b92892b146101dd578063989359df146101fd5780639eab52531461021d578063a87d942c1461023f578063affccd8414610261578063bb03b70614610281578063bf3d007e146102a1578063c29c9225146102c1578063c477ecab146102e1578063d68dee9d14610301578063e2c11f9e14610321578063e5c8b03d14610341578063eb12d61e14610356578063f838073314610376578063fa1188c614610396575b600080fd5b34801561012257600080fd5b5061013661013136600461234c565b6103b6565b005b34801561014457600080fd5b506101586101533660046123d2565b610412565b6040516101659190612b42565b60405180910390f35b34801561017a57600080fd5b506101836104b0565b6040516101659190612b20565b34801561019c57600080fd5b506101366101ab366004612537565b610589565b3480156101bc57600080fd5b506101d06101cb366004612326565b6105af565b6040516101659190612b53565b3480156101e957600080fd5b506101366101f8366004612537565b6105c7565b34801561020957600080fd5b50610158610218366004612381565b610732565b34801561022957600080fd5b50610232610923565b6040516101659190612b31565b34801561024b57600080fd5b50610254610dfa565b6040516101659190612be1565b34801561026d57600080fd5b5061025461027c3660046123d2565b610e17565b34801561028d57600080fd5b5061013661029c366004612537565b610e2c565b3480156102ad57600080fd5b506101366102bc3660046123d2565b610f8f565b3480156102cd57600080fd5b506101366102dc3660046123f0565b61104c565b3480156102ed57600080fd5b506102326102fc3660046123d2565b611071565b34801561030d57600080fd5b5061013661031c366004612556565b611596565b34801561032d57600080fd5b5061013661033c366004612537565b611676565b34801561034d57600080fd5b5061013661169c565b34801561036257600080fd5b50610136610371366004612326565b6116a7565b34801561038257600080fd5b506101d06103913660046123d2565b6116c7565b3480156103a257600080fd5b506102546103b1366004612438565b6116da565b6103bf336105af565b15156103ca57600080fd5b60018054808201808355600092909252825161040d917fb10e2d527612073b26eecdfd717e6a320cf44b4afac2b0732d9fcbe2b7fa0cf601906020850190611f49565b505050565b6000818152600260205260408120546060911061044d5760405160e560020a62461bcd02815260040161044490612b71565b60405180910390fd5b600082815260026020908152604091829020600801805483518184028101840190945280845290918301828280156104a457602002820191906000526020600020905b815481526020019060010190808311610490575b50505050509050919050565b60606001805480602002602001604051908101604052809291908181526020016000905b8282101561057f5760008481526020908190208301805460408051601f600260001961010060018716150201909416939093049283018590048502810185019091528181529283018282801561056b5780601f106105405761010080835404028352916020019161056b565b820191906000526020600020905b81548152906001019060200180831161054e57829003601f168201915b5050505050815260200190600101906104d4565b5050505090505b90565b600091825260026020908152604083206007018054600181018255908452922090910155565b60006105c1818363ffffffff61178116565b92915050565b6000805b6000848152600260205260409020600701546000190181101561068757600084815260026020526040902060070180548491908390811061060857fe5b9060005260206000200154141561061e57600191505b811561067f57600084815260026020526040902060070180546001830190811061064457fe5b9060005260206000200154600260008681526020019081526020016000206007018281548110151561067257fe5b6000918252602090912001555b6001016105cb565b81806106d5575060008481526002602052604090206007015460011480156106d557506000848152600260205260408120600701805485929081106106c857fe5b9060005260206000200154145b1561072c576000848152600260205260409020600701805460001981019081106106fb57fe5b60009182526020808320909101829055858252600290526040902060070180549061072a906000198301611fc7565b505b50505050565b60606000805b6004548110156108cd57846040518082805190602001908083835b602083106107725780518252601f199092019160209182019101610753565b6001836020036101000a038019825116818451168082178552505050505050905001915050604051809103902060001916600260006004848154811015156107b657fe5b90600052602060002001548152602001908152602001600020600501604051808280546001816001161561010002031660029004801561082d5780601f1061080b57610100808354040283529182019161082d565b820191906000526020600020905b815481529060010190602001808311610819575b505091505060405180910390206000191614801561087a5750836002600060048481548110151561085a57fe5b906000526020600020015481526020019081526020016000206000015414155b156108c557816002600060048481548110151561089357fe5b600091825260208083209091015483528281019390935260409091018120548354600181018555938252919020909101555b600101610738565b81546040805160208084028201810190925282815291849183018282801561091457602002820191906000526020600020905b815481526020019060010190808311610900575b50505050509250505092915050565b606080600060048054905060405190808252806020026020018201604052801561096757816020015b610954611feb565b81526020019060019003908161094c5790505b509150600090505b600454811015610df4576002600060048381548110151561098c57fe5b9060005260206000200154815260200190815260200160002061016060405190810160405290816000820154815260200160018201548152602001600282018054600181600116156101000203166002900480601f016020809104026020016040519081016040528092919081815260200182805460018160011615610100020316600290048015610a5f5780601f10610a3457610100808354040283529160200191610a5f565b820191906000526020600020905b815481529060010190602001808311610a4257829003601f168201915b505050918352505060038201805460408051602060026001851615610100026000190190941693909304601f8101849004840282018401909252818152938201939291830182828015610af35780601f10610ac857610100808354040283529160200191610af3565b820191906000526020600020905b815481529060010190602001808311610ad657829003601f168201915b505050918352505060048201805460408051602060026001851615610100026000190190941693909304601f8101849004840282018401909252818152938201939291830182828015610b875780601f10610b5c57610100808354040283529160200191610b87565b820191906000526020600020905b815481529060010190602001808311610b6a57829003601f168201915b505050918352505060058201805460408051602060026001851615610100026000190190941693909304601f8101849004840282018401909252818152938201939291830182828015610c1b5780601f10610bf057610100808354040283529160200191610c1b565b820191906000526020600020905b815481529060010190602001808311610bfe57829003601f168201915b505050918352505060068201805460408051602060026001851615610100026000190190941693909304601f8101849004840282018401909252818152938201939291830182828015610caf5780601f10610c8457610100808354040283529160200191610caf565b820191906000526020600020905b815481529060010190602001808311610c9257829003601f168201915b5050505050815260200160078201805480602002602001604051908101604052809291908181526020018280548015610d0757602002820191906000526020600020905b815481526020019060010190808311610cf3575b5050505050815260200160088201805480602002602001604051908101604052809291908181526020018280548015610d5f57602002820191906000526020600020905b815481526020019060010190808311610d4b575b5050505050815260200160098201805480602002602001604051908101604052809291908181526020018280548015610dc157602002820191906000526020600020905b8154600160a060020a03168152600190910190602001808311610da3575b50505050508152602001600a820154815250508282815181101515610de257fe5b6020908102909101015260010161096f565b50919050565b6000610e05336105af565b1515610e1057600080fd5b5060045490565b60009081526002602052604090206008015490565b6000805b60008481526002602052604090206008015460001901811015610eec576000848152600260205260409020600801805484919083908110610e6d57fe5b90600052602060002001541415610e8357600191505b8115610ee4576000848152600260205260409020600801805460018301908110610ea957fe5b90600052602060002001546002600086815260200190815260200160002060080182815481101515610ed757fe5b6000918252602090912001555b600101610e30565b8180610f3a57506000848152600260205260409020600801546001148015610f3a5750600084815260026020526040812060080180548592908110610f2d57fe5b9060005260206000200154145b1561072c57600084815260026020526040902060080180546000198101908110610f6057fe5b60009182526020808320909101829055858252600290526040902060080180549061072a906000198301611fc7565b6000610f9a336105af565b1515610fa557600080fd5b50805b600154600019018110156110115760018054828201908110610fc657fe5b90600052602060002001600182815481101515610fdf57fe5b906000526020600020019080546001816001161561010002031660029004611008929190612046565b50600101610fa8565b60018054600019810190811061102357fe5b90600052602060002001600061103991906120bb565b600180549061040d9060001983016120ff565b6000828152600260209081526040909120825161040d92600790920191840190612123565b6060600080600060606000611087600a886117b8565b60045490955061109890600a6117f1565b60045490945015806110af57506004546000190185115b806110b957508387115b156110c35761158c565b60408051600a80825261016082019092526000945090816020015b6110e6611feb565b8152602001906001900390816110de5790505091508490505b600454811015611588576002600060048381548110151561111c57fe5b9060005260206000200154815260200190815260200160002061016060405190810160405290816000820154815260200160018201548152602001600282018054600181600116156101000203166002900480601f0160208091040260200160405190810160405280929190818152602001828054600181600116156101000203166002900480156111ef5780601f106111c4576101008083540402835291602001916111ef565b820191906000526020600020905b8154815290600101906020018083116111d257829003601f168201915b505050918352505060038201805460408051602060026001851615610100026000190190941693909304601f81018490048402820184019092528181529382019392918301828280156112835780601f1061125857610100808354040283529160200191611283565b820191906000526020600020905b81548152906001019060200180831161126657829003601f168201915b505050918352505060048201805460408051602060026001851615610100026000190190941693909304601f81018490048402820184019092528181529382019392918301828280156113175780601f106112ec57610100808354040283529160200191611317565b820191906000526020600020905b8154815290600101906020018083116112fa57829003601f168201915b505050918352505060058201805460408051602060026001851615610100026000190190941693909304601f81018490048402820184019092528181529382019392918301828280156113ab5780601f10611380576101008083540402835291602001916113ab565b820191906000526020600020905b81548152906001019060200180831161138e57829003601f168201915b505050918352505060068201805460408051602060026001851615610100026000190190941693909304601f810184900484028201840190925281815293820193929183018282801561143f5780601f106114145761010080835404028352916020019161143f565b820191906000526020600020905b81548152906001019060200180831161142257829003601f168201915b505050505081526020016007820180548060200260200160405190810160405280929190818152602001828054801561149757602002820191906000526020600020905b815481526020019060010190808311611483575b50505050508152602001600882018054806020026020016040519081016040528092919081815260200182805480156114ef57602002820191906000526020600020905b8154815260200190600101908083116114db575b505050505081526020016009820180548060200260200160405190810160405280929190818152602001828054801561155157602002820191906000526020600020905b8154600160a060020a03168152600190910190602001808311611533575b50505050508152602001600a82015481525050828481518110151561157257fe5b60209081029091010152600192830192016110ff565b8195505b5050505050919050565b61159f336105af565b15156115aa57600080fd5b600088815260026020526040812054116115d95760405160e560020a62461bcd02815260040161044490612b91565b600088815260026020526040902060010154871461160c5760405160e560020a62461bcd02815260040161044490612b61565b6000888152600260208181526040909220885161163193919092019190890190611f49565b506000888152600260209081526040909120835161165792600690920191850190611f49565b50600097885260026020526040909720600a0196909655505050505050565b600091825260026020908152604083206008018054600181018255908452922090910155565b6116a533611814565b565b6116b0336105af565b15156116bb57600080fd5b6116c48161185c565b50565b6000908152600260205260408120541190565b6000806116e6336105af565b15156116f157600080fd5b600088116117145760405160e560020a62461bcd02815260040161044490612bd1565b5060038054600101908190556000818152600260205260409020541561174f5760405160e560020a62461bcd02815260040161044490612b81565b61175e818989898989896118a4565b60008181526002602052604090206298967f600a90910155979650505050505050565b6000600160a060020a038216151561179857600080fd5b50600160a060020a03166000908152602091909152604090205460ff1690565b6000808315156117cb57600091506117ea565b508282028284828115156117db57fe5b04146117e657600080fd5b8091505b5092915050565b60008080831161180057600080fd5b828481151561180b57fe5b04949350505050565b61182560008263ffffffff611eaf16565b604051600160a060020a038216907f3525e22824a8a7df2c9a6029941c824cf95b6447f1e13d5128fd3826d35afe8b90600090a250565b61186d60008263ffffffff611efb16565b604051600160a060020a038216907f47d1c22a25bb3a5d4e481b9b1e6944c2eade3181a0a20b495ed61d35b5323f2490600090a250565b6118ac611feb565b855115156118cf5760405160e560020a62461bcd02815260040161044490612bc1565b825115156118f25760405160e560020a62461bcd02815260040161044490612bb1565b815115156119155760405160e560020a62461bcd02815260040161044490612ba1565b6000888152600260208181526040928390208351610160810185528154815260018083015482850152828501805487519281161561010002600019011695909504601f810185900485028201850187528082529195929492860193909291908301828280156119c55780601f1061199a576101008083540402835291602001916119c5565b820191906000526020600020905b8154815290600101906020018083116119a857829003601f168201915b505050918352505060038201805460408051602060026001851615610100026000190190941693909304601f8101849004840282018401909252818152938201939291830182828015611a595780601f10611a2e57610100808354040283529160200191611a59565b820191906000526020600020905b815481529060010190602001808311611a3c57829003601f168201915b505050918352505060048201805460408051602060026001851615610100026000190190941693909304601f8101849004840282018401909252818152938201939291830182828015611aed5780601f10611ac257610100808354040283529160200191611aed565b820191906000526020600020905b815481529060010190602001808311611ad057829003601f168201915b505050918352505060058201805460408051602060026001851615610100026000190190941693909304601f8101849004840282018401909252818152938201939291830182828015611b815780601f10611b5657610100808354040283529160200191611b81565b820191906000526020600020905b815481529060010190602001808311611b6457829003601f168201915b505050918352505060068201805460408051602060026001851615610100026000190190941693909304601f8101849004840282018401909252818152938201939291830182828015611c155780601f10611bea57610100808354040283529160200191611c15565b820191906000526020600020905b815481529060010190602001808311611bf857829003601f168201915b5050505050815260200160078201805480602002602001604051908101604052809291908181526020018280548015611c6d57602002820191906000526020600020905b815481526020019060010190808311611c59575b5050505050815260200160088201805480602002602001604051908101604052809291908181526020018280548015611cc557602002820191906000526020600020905b815481526020019060010190808311611cb1575b5050505050815260200160098201805480602002602001604051908101604052809291908181526020018280548015611d2757602002820191906000526020600020905b8154600160a060020a03168152600190910190602001808311611d09575b5050509183525050600a919091015460209182015289825281810189815260408084018a8152606085018a90526080850189905260a0850188905260c0850187905260008d81526002808652929020855181559251600184015551805194955085949293611d9b9392850192910190611f49565b5060608201518051611db7916003840191602090910190611f49565b5060808201518051611dd3916004840191602090910190611f49565b5060a08201518051611def916005840191602090910190611f49565b5060c08201518051611e0b916006840191602090910190611f49565b5060e08201518051611e27916007840191602090910190612123565b506101008201518051611e44916008840191602090910190612123565b506101208201518051611e6191600984019160209091019061215d565b506101409190910151600a909101555050600480546001810182556000919091527f8a35acfbc15ff81a39ae7d344fd709f28e8600b4aa8c65c6b64bfe7fe36bd19b01959095555050505050565b600160a060020a0381161515611ec457600080fd5b611ece8282611781565b1515611ed957600080fd5b600160a060020a0316600090815260209190915260409020805460ff19169055565b600160a060020a0381161515611f1057600080fd5b611f1a8282611781565b15611f2457600080fd5b600160a060020a0316600090815260209190915260409020805460ff19166001179055565b828054600181600116156101000203166002900490600052602060002090601f016020900481019282601f10611f8a57805160ff1916838001178555611fb7565b82800160010185558215611fb7579182015b82811115611fb7578251825591602001919060010190611f9c565b50611fc39291506121cb565b5090565b81548183558181111561040d5760008381526020902061040d9181019083016121cb565b6101606040519081016040528060008152602001600081526020016060815260200160608152602001606081526020016060815260200160608152602001606081526020016060815260200160608152602001600081525090565b828054600181600116156101000203166002900490600052602060002090601f016020900481019282601f1061207f5780548555611fb7565b82800160010185558215611fb757600052602060002091601f016020900482015b82811115611fb75782548255916001019190600101906120a0565b50805460018160011615610100020316600290046000825580601f106120e157506116c4565b601f0160209004906000526020600020908101906116c491906121cb565b81548183558181111561040d5760008381526020902061040d9181019083016121e5565b828054828255906000526020600020908101928215611fb75791602002820182811115611fb7578251825591602001919060010190611f9c565b8280548282559060005260206000209081019282156121bf579160200282015b828111156121bf578251825473ffffffffffffffffffffffffffffffffffffffff1916600160a060020a0390911617825560209092019160019091019061217d565b50611fc3929150612208565b61058691905b80821115611fc357600081556001016121d1565b61058691905b80821115611fc35760006121ff82826120bb565b506001016121eb565b61058691905b80821115611fc357805473ffffffffffffffffffffffffffffffffffffffff1916815560010161220e565b60006122458235612c69565b9392505050565b6000601f8201831361225d57600080fd5b813561227061226b82612c16565b612bef565b9150818183526020840193506020810190508385602084028201111561229557600080fd5b60005b838110156122c157816122ab888261231a565b8452506020928301929190910190600101612298565b5050505092915050565b6000601f820183136122dc57600080fd5b81356122ea61226b82612c37565b9150808252602083016020830185838301111561230657600080fd5b612311838284612c7a565b50505092915050565b60006122458235610586565b60006020828403121561233857600080fd5b60006123448484612239565b949350505050565b60006020828403121561235e57600080fd5b813567ffffffffffffffff81111561237557600080fd5b612344848285016122cb565b6000806040838503121561239457600080fd5b823567ffffffffffffffff8111156123ab57600080fd5b6123b7858286016122cb565b92505060206123c88582860161231a565b9150509250929050565b6000602082840312156123e457600080fd5b6000612344848461231a565b6000806040838503121561240357600080fd5b600061240f858561231a565b925050602083013567ffffffffffffffff81111561242c57600080fd5b6123c88582860161224c565b60008060008060008060c0878903121561245157600080fd5b600061245d898961231a565b965050602087013567ffffffffffffffff81111561247a57600080fd5b61248689828a016122cb565b955050604087013567ffffffffffffffff8111156124a357600080fd5b6124af89828a016122cb565b945050606087013567ffffffffffffffff8111156124cc57600080fd5b6124d889828a016122cb565b935050608087013567ffffffffffffffff8111156124f557600080fd5b61250189828a016122cb565b92505060a087013567ffffffffffffffff81111561251e57600080fd5b61252a89828a016122cb565b9150509295509295509295565b6000806040838503121561254a57600080fd5b60006123b7858561231a565b600080600080600080600080610100898b03121561257357600080fd5b600061257f8b8b61231a565b98505060206125908b828c0161231a565b975050604089013567ffffffffffffffff8111156125ad57600080fd5b6125b98b828c016122cb565b965050606089013567ffffffffffffffff8111156125d657600080fd5b6125e28b828c016122cb565b955050608089013567ffffffffffffffff8111156125ff57600080fd5b61260b8b828c016122cb565b94505060a089013567ffffffffffffffff81111561262857600080fd5b6126348b828c016122cb565b93505060c089013567ffffffffffffffff81111561265157600080fd5b61265d8b828c016122cb565b92505060e061266e8b828c0161231a565b9150509295985092959890939650565b61268781612c69565b82525050565b600061269882612c65565b8084526020840193506126aa83612c5f565b60005b828110156126da576126c086835161267e565b6126c982612c5f565b6020969096019591506001016126ad565b5093949350505050565b60006126ef82612c65565b8084526020840193508360208202850161270885612c5f565b60005b8481101561273f578383038852612723838351612849565b925061272e82612c5f565b60209890980197915060010161270b565b50909695505050505050565b600061275682612c65565b8084526020840193508360208202850161276f85612c5f565b60005b8481101561273f57838303885261278a8383516129fe565b925061279582612c5f565b602098909801979150600101612772565b60006127b182612c65565b8084526020840193506127c383612c5f565b60005b828110156126da576127d9868351612b17565b6127e282612c5f565b6020969096019591506001016127c6565b60006127fe82612c65565b80845260208401935061281083612c5f565b60005b828110156126da57612826868351612b17565b61282f82612c5f565b602096909601959150600101612813565b61268781612c75565b600061285482612c65565b808452612868816020860160208601612c86565b61287181612cb2565b9093016020019392505050565b601a81527f4372656174696f6e204461746520697320696d6d757461626c65000000000000602082015260400190565b601181527f6d656d626572206e6f7420657869737473000000000000000000000000000000602082015260400190565b601581527f4d656d62657220616c7265616479206578697374730000000000000000000000602082015260400190565b601181527f4d656d626572206e6f7420657869737473000000000000000000000000000000602082015260400190565b601281527f5468656d65206973206d616e6461746f72790000000000000000000000000000602082015260400190565b601081527f434d4f206973206d616e6461746f727900000000000000000000000000000000602082015260400190565b601181527f4e616d65206973206d616e6461746f7279000000000000000000000000000000602082015260400190565b601981527f4372656174696f6e44617465206973206d616e6461746f727900000000000000602082015260400190565b8051600090610160840190612a138582612b17565b506020830151612a266020860182612b17565b5060408301518482036040860152612a3e8282612849565b91505060608301518482036060860152612a588282612849565b91505060808301518482036080860152612a728282612849565b91505060a083015184820360a0860152612a8c8282612849565b91505060c083015184820360c0860152612aa68282612849565b91505060e083015184820360e0860152612ac082826127f3565b915050610100830151848203610100860152612adc82826127f3565b915050610120830151848203610120860152612af8828261268d565b915050610140830151612b0f610140860182612b17565b509392505050565b61268781610586565b6020808252810161224581846126e4565b60208082528101612245818461274b565b6020808252810161224581846127a6565b602081016105c18284612840565b602080825281016105c18161287e565b602080825281016105c1816128ae565b602080825281016105c1816128de565b602080825281016105c18161290e565b602080825281016105c18161293e565b602080825281016105c18161296e565b602080825281016105c18161299e565b602080825281016105c1816129ce565b602081016105c18284612b17565b60405181810167ffffffffffffffff81118282101715612c0e57600080fd5b604052919050565b600067ffffffffffffffff821115612c2d57600080fd5b5060209081020190565b600067ffffffffffffffff821115612c4e57600080fd5b506020601f91909101601f19160190565b60200190565b5190565b600160a060020a031690565b151590565b82818337506000910152565b60005b83811015612ca1578181015183820152602001612c89565b8381111561072c5750506000910152565b601f01601f1916905600a265627a7a72305820c91b6ee94aad4a546fd5e92c3b9b49b289d02340c0a4112d69646295ffcd4ad06c6578706572696d656e74616cf50037",
  "source": "pragma solidity ^0.4.24;\npragma experimental ABIEncoderV2;\n\nimport \"./SafeMath.sol\";\nimport \"./random.sol\";\nimport \"./Registry.sol\";\n\ncontract Members is Random, Registry {\n\n  struct Member { \n    uint256 memberId;\n    uint256 creationDate;\n    string name;\n    string logo;\n    string country;\n    string cmo;\n    string theme;\n    uint256[] claimInbox;\n    uint256[] claims;\n    address[] userRequests;\n    uint totalTokens;\n  }\n\n  uint256 constant private PAGE_SIZE = 10;\n\n  mapping (uint256 => Member) members_;\n  uint256 memberIdCounter_ = 0; // Equals the number of (members + Super Admins) ever inserted, including the deleted ones.\n\n  uint256[] private membersList_;\n\n  // METHODS\n  // Public\n\n  function addMember(uint256 _creationDate, string _name, string _logo, string _country, string _cmo, string _theme) onlySigner public returns(uint) {\n    //  string _group) onlySigner public returns(uint) {\n    require(_creationDate > 0, \"CreationDate is mandatory\");\n//    uint256 _memberId = Random.rand(_creationDate);\n    uint256 _memberId = ++memberIdCounter_;\n    require(members_[_memberId].memberId == 0, \"Member already exists\");\n    _saveMember(_memberId, _creationDate, _name, _logo, _country, _cmo, _theme);\n//    members_[_memberId].group = _group;\n    members_[_memberId].totalTokens = 9999999;\n\n    return _memberId;\n  }\n\n  function updateMember(uint256 _memberId, uint256 _creationDate,\n    string _name, string _logo, string _country, string _cmo, string _theme, uint _totalTokens) onlySigner public {\n  // , string _group) onlySigner public {\n    require(members_[_memberId].memberId > 0, \"Member not exists\");\n    require(members_[_memberId].creationDate == _creationDate, \"Creation Date is immutable\");\n//    _saveMember(_memberId, _creationDate, _name, _logo, _country, _cmo, _theme);\n//    members_[_memberId].group = _group;\n    members_[_memberId].name = _name;\n    members_[_memberId].theme = _theme;\n    members_[_memberId].totalTokens = _totalTokens;\n  }\n\n  function updateMemberClaimInbox(uint256 _memberId, uint256[] newInbox) public {\n    members_[_memberId].claimInbox = newInbox;\n  }\n\n  function getMembers() public view returns (Member[] memory) {\n    Member[] memory memberPage = new Member[](membersList_.length);\n    for (uint i = 0; i < membersList_.length; ++i) {\n        memberPage[i] = members_[membersList_[i]];\n    }\n    return memberPage;\n  }\n\n  function getMembers(uint _page) public view returns (Member[] memory) {\n    uint256 pageIndex = SafeMath.mul(PAGE_SIZE, _page);\n    uint256 pageNumber = SafeMath.div(membersList_.length, PAGE_SIZE);\n\n    if (membersList_.length == 0 || pageIndex > membersList_.length - 1 || _page > pageNumber) {\n      return;\n    }\n\n    // Insert items filtered into array.\n    uint256 resultCount = 0;\n    Member[] memory memberPage = new Member[](PAGE_SIZE);\n    for(uint j = pageIndex; j < membersList_.length; ++j) {\n        memberPage[resultCount] = members_[membersList_[j]];\n        ++resultCount;\n    }\n    return memberPage;\n  }\n\n  function getCount() onlySigner public view returns (uint256) {\n    return membersList_.length;\n  }\n\n  // Private\n\n  function _saveMember(uint256 _memberId, uint256 _creationDate, string _name, string _logo, string _country, string _cmo, string _theme) internal {\n\n    require(bytes(_name).length != 0, \"Name is mandatory\");\n    require(bytes(_cmo).length != 0, \"CMO is mandatory\");\n    require(bytes(_theme).length != 0, \"Theme is mandatory\");\n\n    Member memory member = members_[_memberId];\n    member.memberId = _memberId;\n    member.creationDate = _creationDate;\n    member.name = _name;\n    member.logo = _logo;\n    member.country = _country;\n    member.cmo = _cmo;\n    member.theme = _theme;\n\n    members_[_memberId] = member;\n    membersList_.push(_memberId);\n\n  }\n\n  function _getMemberIdsOfCurrentCMO(string currentCMO, uint256 currentCMOId) public returns(uint[]) {\n    uint[] memberIds;\n    for (uint j = 0; j < membersList_.length; ++j) {\n      if (keccak256(members_[membersList_[j]].cmo) == keccak256(currentCMO) && members_[membersList_[j]].memberId != currentCMOId) {\n        memberIds.push(members_[membersList_[j]].memberId);\n      }\n    }\n    return memberIds;\n  }\n\n  function _getClaimsIdByMember(uint _memberId) public view returns(uint[])  {\n    require(members_[_memberId].memberId > 0, \"member not exists\");\n    return members_[_memberId].claims;\n  }\n\n  function _getClaimsCountByMember(uint _memberId) public view returns(uint) {\n    return members_[_memberId].claims.length;\n  }\n\n  function _addUserToMemberRequest(uint _memberId) internal {\n    members_[_memberId].userRequests.push(msg.sender);\n  }\n\n  function _addClaimIdToMemberOwner(uint _memberId, uint _claimId) public {\n    members_[_memberId].claims.push(_claimId);\n  }\n\n  function _removeClaimFromMember(uint _memberId, uint _claimId) public {\n    bool found = false;\n    for (uint j = 0; j < members_[_memberId].claims.length - 1; j++) {\n      if(members_[_memberId].claims[j] == _claimId) {\n        found = true;\n      }\n      if(found) {\n        members_[_memberId].claims[j] = members_[_memberId].claims[j + 1];\n      }\n    }\n    //    if (found) {\n//    delete members_[_memberId].claims[members_[_memberId].claims.length - 1];\n//    members_[_memberId].claims.length--;\n    //    }\n    if (found || (members_[_memberId].claims.length == 1 && members_[_memberId].claims[0] == _claimId)) {\n//      if (members_[_memberId].claims.length == 1) {\n//        delete members_[_memberId].claims;\n//      }\n//      else {\n      delete members_[_memberId].claims[members_[_memberId].claims.length - 1];\n      members_[_memberId].claims.length--;\n//      }\n    }\n  }\n\n  function _addClaimFromInbox(uint _memberId, uint _claimId) public {\n    members_[_memberId].claimInbox.push(_claimId);\n  }\n\n  function _memberExists(uint _memberId) public view returns(bool) {\n    return members_[_memberId].memberId > 0;\n  }\n\n  function _removeClaimFromInbox(uint _memberId, uint _claimId) public {\n    bool found = false;\n    for (uint j = 0; j < members_[_memberId].claimInbox.length - 1; j++) {\n      if(members_[_memberId].claimInbox[j] == _claimId) {\n        found = true;\n      }\n      if(found) {\n        members_[_memberId].claimInbox[j] = members_[_memberId].claimInbox[j + 1];\n      }\n    }\n    //    if (found) {\n    //    delete members_[_memberId].claims[members_[_memberId].claims.length - 1];\n    //    members_[_memberId].claims.length--;\n    //    }\n    if (found || (members_[_memberId].claimInbox.length == 1 && members_[_memberId].claimInbox[0] == _claimId)) {\n      //      if (members_[_memberId].claims.length == 1) {\n      //        delete members_[_memberId].claims;\n      //      }\n      //      else {\n      delete members_[_memberId].claimInbox[members_[_memberId].claimInbox.length - 1];\n      members_[_memberId].claimInbox.length--;\n      //      }\n    }\n  }\n\n//  function _removeClaimFromInbox(uint _memberId, uint _claimId) public { // OLD\n//    bool found = false;\n//    // Remove index\n//    for (uint j = 0; j < members_[_memberId].claimInbox.length - 1; j++) {\n//      if(members_[_memberId].claimInbox[j] == _claimId) {\n//        found = true;\n//      }\n//      if(found) {\n//        members_[_memberId].claimInbox[j] = members_[_memberId].claimInbox[j + 1];\n//      }\n//    }\n//    if (found || (members_[_memberId].claims.length == 1 && members_[_memberId].claims[0] == _claimId)) {\n//      delete members_[_memberId].claimInbox[members_[_memberId].claimInbox.length - 1];\n//      members_[_memberId].claimInbox.length--;\n//    }\n//  }\n\n  function _clearUserFromMemberRequest(uint _memberId, address userAddress) internal {\n     bool found = false;\n    // Remove index\n    for (uint j = 0; j < members_[_memberId].userRequests.length - 1; j++) {\n      if(members_[_memberId].userRequests[j] == userAddress) {\n        found = true;\n      }\n      if(found) {\n        members_[_memberId].userRequests[j] = members_[_memberId].userRequests[j + 1];\n      }\n    }\n//    if (found) {\n      delete members_[_memberId].userRequests[members_[_memberId].userRequests.length - 1];\n      members_[_memberId].userRequests.length--;\n//    }\n  }\n\n}\n",
  "sourcePath": "/home/komodo/newUI3/bloomen-decentralized-rights-management-v2/truffle/contracts/registry/Members.sol",
  "compiler": {
    "name": "solc",
    "version": "0.4.24+commit.e67f0147.Emscripten.clang"
  },
  "schemaVersion": "2.0.1",
  "updatedAt": "2020-09-10T07:06:42.628Z"
}