{
  "contractName": "Members",
  "abi": [
    {
      "constant": true,
      "inputs": [
        {
          "name": "account",
          "type": "address"
        }
      ],
      "name": "isSigner",
      "outputs": [
        {
          "name": "",
          "type": "bool"
        }
      ],
      "payable": false,
      "stateMutability": "view",
      "type": "function"
    },
    {
      "constant": false,
      "inputs": [],
      "name": "renounceSigner",
      "outputs": [],
      "payable": false,
      "stateMutability": "nonpayable",
      "type": "function"
    },
    {
      "constant": false,
      "inputs": [
        {
          "name": "account",
          "type": "address"
        }
      ],
      "name": "addSigner",
      "outputs": [],
      "payable": false,
      "stateMutability": "nonpayable",
      "type": "function"
    },
    {
      "anonymous": false,
      "inputs": [
        {
          "indexed": true,
          "name": "account",
          "type": "address"
        }
      ],
      "name": "SignerAdded",
      "type": "event"
    },
    {
      "anonymous": false,
      "inputs": [
        {
          "indexed": true,
          "name": "account",
          "type": "address"
        }
      ],
      "name": "SignerRemoved",
      "type": "event"
    },
    {
      "constant": false,
      "inputs": [
        {
          "name": "_creationDate",
          "type": "uint256"
        },
        {
          "name": "_name",
          "type": "string"
        },
        {
          "name": "_logo",
          "type": "string"
        },
        {
          "name": "_country",
          "type": "string"
        },
        {
          "name": "_cmo",
          "type": "string"
        },
        {
          "name": "_theme",
          "type": "string"
        }
      ],
      "name": "addMember",
      "outputs": [
        {
          "name": "",
          "type": "uint256"
        }
      ],
      "payable": false,
      "stateMutability": "nonpayable",
      "type": "function"
    },
    {
      "constant": false,
      "inputs": [
        {
          "name": "_memberId",
          "type": "uint256"
        },
        {
          "name": "_creationDate",
          "type": "uint256"
        },
        {
          "name": "_name",
          "type": "string"
        },
        {
          "name": "_logo",
          "type": "string"
        },
        {
          "name": "_country",
          "type": "string"
        },
        {
          "name": "_cmo",
          "type": "string"
        },
        {
          "name": "_theme",
          "type": "string"
        }
      ],
      "name": "updateMember",
      "outputs": [],
      "payable": false,
      "stateMutability": "nonpayable",
      "type": "function"
    },
    {
      "constant": true,
      "inputs": [],
      "name": "getMembers",
      "outputs": [
        {
          "components": [
            {
              "name": "memberId",
              "type": "uint256"
            },
            {
              "name": "creationDate",
              "type": "uint256"
            },
            {
              "name": "name",
              "type": "string"
            },
            {
              "name": "logo",
              "type": "string"
            },
            {
              "name": "country",
              "type": "string"
            },
            {
              "name": "cmo",
              "type": "string"
            },
            {
              "name": "theme",
              "type": "string"
            },
            {
              "name": "claimInbox",
              "type": "uint256[]"
            },
            {
              "name": "claims",
              "type": "uint256[]"
            },
            {
              "name": "userRequests",
              "type": "address[]"
            }
          ],
          "name": "",
          "type": "tuple[]"
        }
      ],
      "payable": false,
      "stateMutability": "view",
      "type": "function"
    },
    {
      "constant": true,
      "inputs": [
        {
          "name": "_page",
          "type": "uint256"
        }
      ],
      "name": "getMembers",
      "outputs": [
        {
          "components": [
            {
              "name": "memberId",
              "type": "uint256"
            },
            {
              "name": "creationDate",
              "type": "uint256"
            },
            {
              "name": "name",
              "type": "string"
            },
            {
              "name": "logo",
              "type": "string"
            },
            {
              "name": "country",
              "type": "string"
            },
            {
              "name": "cmo",
              "type": "string"
            },
            {
              "name": "theme",
              "type": "string"
            },
            {
              "name": "claimInbox",
              "type": "uint256[]"
            },
            {
              "name": "claims",
              "type": "uint256[]"
            },
            {
              "name": "userRequests",
              "type": "address[]"
            }
          ],
          "name": "",
          "type": "tuple[]"
        }
      ],
      "payable": false,
      "stateMutability": "view",
      "type": "function"
    },
    {
      "constant": true,
      "inputs": [],
      "name": "getCount",
      "outputs": [
        {
          "name": "",
          "type": "uint256"
        }
      ],
      "payable": false,
      "stateMutability": "view",
      "type": "function"
    }
  ],
  "bytecode": "0x608060405262000018336401000000006200001e810204565b62000103565b620000396000826401000000006200166a6200007082021704565b604051600160a060020a038216907f47d1c22a25bb3a5d4e481b9b1e6944c2eade3181a0a20b495ed61d35b5323f2490600090a250565b600160a060020a03811615156200008657600080fd5b6200009b8282640100000000620000cb810204565b15620000a657600080fd5b600160a060020a0316600090815260209190915260409020805460ff19166001179055565b6000600160a060020a0382161515620000e357600080fd5b50600160a060020a03166000908152602091909152604090205460ff1690565b61208280620001136000396000f30060806040526004361061008d5763ffffffff7c010000000000000000000000000000000000000000000000000000000060003504166365ff0c4881146100925780637df73e27146100b45780639eab5253146100ea578063a87d942c1461010c578063c477ecab1461012e578063e5c8b03d1461014e578063eb12d61e14610163578063fa1188c614610183575b600080fd5b34801561009e57600080fd5b506100b26100ad366004611a33565b6101a3565b005b3480156100c057600080fd5b506100d46100cf3660046118f0565b61023b565b6040516100e19190611f0c565b60405180910390f35b3480156100f657600080fd5b506100ff610253565b6040516100e19190611efb565b34801561011857600080fd5b50610121610720565b6040516100e19190611f8a565b34801561013a57600080fd5b506100ff610149366004611916565b61073e565b34801561015a57600080fd5b506100b2610c59565b34801561016f57600080fd5b506100b261017e3660046118f0565b610c64565b34801561018f57600080fd5b5061012161019e366004611934565b610c84565b6101ac3361023b565b15156101b757600080fd5b600087815260016020526040812054116101ef5760405160e560020a62461bcd0281526004016101e690611f3a565b60405180910390fd5b6000878152600160208190526040909120015486146102235760405160e560020a62461bcd0281526004016101e690611f1a565b61023287878787878787610d13565b50505050505050565b600061024d818363ffffffff61130c16565b92915050565b606080600060028054905060405190808252806020026020018201604052801561029757816020015b6102846116b8565b81526020019060019003908161027c5790505b509150600090505b60025481101561071a57600160006002838154811015156102bc57fe5b9060005260206000200154815260200190815260200160002061014060405190810160405290816000820154815260200160018201548152602001600282018054600181600116156101000203166002900480601f01602080910402602001604051908101604052809291908181526020018280546001816001161561010002031660029004801561038f5780601f106103645761010080835404028352916020019161038f565b820191906000526020600020905b81548152906001019060200180831161037257829003601f168201915b505050918352505060038201805460408051602060026001851615610100026000190190941693909304601f81018490048402820184019092528181529382019392918301828280156104235780601f106103f857610100808354040283529160200191610423565b820191906000526020600020905b81548152906001019060200180831161040657829003601f168201915b505050918352505060048201805460408051602060026001851615610100026000190190941693909304601f81018490048402820184019092528181529382019392918301828280156104b75780601f1061048c576101008083540402835291602001916104b7565b820191906000526020600020905b81548152906001019060200180831161049a57829003601f168201915b505050918352505060058201805460408051602060026001851615610100026000190190941693909304601f810184900484028201840190925281815293820193929183018282801561054b5780601f106105205761010080835404028352916020019161054b565b820191906000526020600020905b81548152906001019060200180831161052e57829003601f168201915b505050918352505060068201805460408051602060026001851615610100026000190190941693909304601f81018490048402820184019092528181529382019392918301828280156105df5780601f106105b4576101008083540402835291602001916105df565b820191906000526020600020905b8154815290600101906020018083116105c257829003601f168201915b505050505081526020016007820180548060200260200160405190810160405280929190818152602001828054801561063757602002820191906000526020600020905b815481526020019060010190808311610623575b505050505081526020016008820180548060200260200160405190810160405280929190818152602001828054801561068f57602002820191906000526020600020905b81548152602001906001019080831161067b575b50505050508152602001600982018054806020026020016040519081016040528092919081815260200182805480156106f157602002820191906000526020600020905b8154600160a060020a031681526001909101906020018083116106d3575b505050505081525050828281518110151561070857fe5b6020908102909101015260010161029f565b50919050565b600061072b3361023b565b151561073657600080fd5b506002545b90565b6060600080600060606000610754600a88611343565b60025490955061076590600a61137c565b600254909450158061077c57506002546000190185115b8061078657508387115b1561079057610c4f565b60408051600a80825261016082019092526000945090816020015b6107b36116b8565b8152602001906001900390816107ab5790505091508490505b600254811015610c4b57600160006002838154811015156107e957fe5b9060005260206000200154815260200190815260200160002061014060405190810160405290816000820154815260200160018201548152602001600282018054600181600116156101000203166002900480601f0160208091040260200160405190810160405280929190818152602001828054600181600116156101000203166002900480156108bc5780601f10610891576101008083540402835291602001916108bc565b820191906000526020600020905b81548152906001019060200180831161089f57829003601f168201915b505050918352505060038201805460408051602060026001851615610100026000190190941693909304601f81018490048402820184019092528181529382019392918301828280156109505780601f1061092557610100808354040283529160200191610950565b820191906000526020600020905b81548152906001019060200180831161093357829003601f168201915b505050918352505060048201805460408051602060026001851615610100026000190190941693909304601f81018490048402820184019092528181529382019392918301828280156109e45780601f106109b9576101008083540402835291602001916109e4565b820191906000526020600020905b8154815290600101906020018083116109c757829003601f168201915b505050918352505060058201805460408051602060026001851615610100026000190190941693909304601f8101849004840282018401909252818152938201939291830182828015610a785780601f10610a4d57610100808354040283529160200191610a78565b820191906000526020600020905b815481529060010190602001808311610a5b57829003601f168201915b505050918352505060068201805460408051602060026001851615610100026000190190941693909304601f8101849004840282018401909252818152938201939291830182828015610b0c5780601f10610ae157610100808354040283529160200191610b0c565b820191906000526020600020905b815481529060010190602001808311610aef57829003601f168201915b5050505050815260200160078201805480602002602001604051908101604052809291908181526020018280548015610b6457602002820191906000526020600020905b815481526020019060010190808311610b50575b5050505050815260200160088201805480602002602001604051908101604052809291908181526020018280548015610bbc57602002820191906000526020600020905b815481526020019060010190808311610ba8575b5050505050815260200160098201805480602002602001604051908101604052809291908181526020018280548015610c1e57602002820191906000526020600020905b8154600160a060020a03168152600190910190602001808311610c00575b5050505050815250508284815181101515610c3557fe5b60209081029091010152600192830192016107cc565b8195505b5050505050919050565b610c623361139f565b565b610c6d3361023b565b1515610c7857600080fd5b610c81816113e7565b50565b600080610c903361023b565b1515610c9b57600080fd5b60008811610cbe5760405160e560020a62461bcd0281526004016101e690611f7a565b610cc78861142f565b60008181526001602052604090205490915015610cf95760405160e560020a62461bcd0281526004016101e690611f2a565b610d0881898989898989610d13565b979650505050505050565b610d1b6116b8565b85511515610d3e5760405160e560020a62461bcd0281526004016101e690611f6a565b82511515610d615760405160e560020a62461bcd0281526004016101e690611f5a565b81511515610d845760405160e560020a62461bcd0281526004016101e690611f4a565b6000888152600160208181526040928390208351610140810185528154815281840154818401526002808301805487519681161561010002600019011691909104601f810185900485028601850187528086529195929492860193909190830182828015610e335780601f10610e0857610100808354040283529160200191610e33565b820191906000526020600020905b815481529060010190602001808311610e1657829003601f168201915b505050918352505060038201805460408051602060026001851615610100026000190190941693909304601f8101849004840282018401909252818152938201939291830182828015610ec75780601f10610e9c57610100808354040283529160200191610ec7565b820191906000526020600020905b815481529060010190602001808311610eaa57829003601f168201915b505050918352505060048201805460408051602060026001851615610100026000190190941693909304601f8101849004840282018401909252818152938201939291830182828015610f5b5780601f10610f3057610100808354040283529160200191610f5b565b820191906000526020600020905b815481529060010190602001808311610f3e57829003601f168201915b505050918352505060058201805460408051602060026001851615610100026000190190941693909304601f8101849004840282018401909252818152938201939291830182828015610fef5780601f10610fc457610100808354040283529160200191610fef565b820191906000526020600020905b815481529060010190602001808311610fd257829003601f168201915b505050918352505060068201805460408051602060026001851615610100026000190190941693909304601f81018490048402820184019092528181529382019392918301828280156110835780601f1061105857610100808354040283529160200191611083565b820191906000526020600020905b81548152906001019060200180831161106657829003601f168201915b50505050508152602001600782018054806020026020016040519081016040528092919081815260200182805480156110db57602002820191906000526020600020905b8154815260200190600101908083116110c7575b505050505081526020016008820180548060200260200160405190810160405280929190818152602001828054801561113357602002820191906000526020600020905b81548152602001906001019080831161111f575b505050505081526020016009820180548060200260200160405190810160405280929190818152602001828054801561119557602002820191906000526020600020905b8154600160a060020a03168152600190910190602001808311611177575b50505091909252505050888152602080820189815260408084018a8152606085018a90526080850189905260a0850188905260c0850187905260008d8152600180865292902085518155925191830191909155518051939450849391926112049260028501929091019061170c565b506060820151805161122091600384019160209091019061170c565b506080820151805161123c91600484019160209091019061170c565b5060a0820151805161125891600584019160209091019061170c565b5060c0820151805161127491600684019160209091019061170c565b5060e0820151805161129091600784019160209091019061178a565b5061010082015180516112ad91600884019160209091019061178a565b5061012082015180516112ca9160098401916020909101906117c4565b5050600280546001810182556000919091527f405787fa12a823e0f2b7631cc41b3ba8828b3321ca811111fa75cd3aa3bb5ace01989098555050505050505050565b6000600160a060020a038216151561132357600080fd5b50600160a060020a03166000908152602091909152604090205460ff1690565b6000808315156113565760009150611375565b5082820282848281151561136657fe5b041461137157600080fd5b8091505b5092915050565b60008080831161138b57600080fd5b828481151561139657fe5b04949350505050565b6113b060008263ffffffff61161e16565b604051600160a060020a038216907f3525e22824a8a7df2c9a6029941c824cf95b6447f1e13d5128fd3826d35afe8b90600090a250565b6113f860008263ffffffff61166a16565b604051600160a060020a038216907f47d1c22a25bb3a5d4e481b9b1e6944c2eade3181a0a20b495ed61d35b5323f2490600090a250565b60008080806002850615156114c15784604051602001808281526020019150506040516020818303038152906040526040518082805190602001908083835b6020831061148d5780518252601f19909201916020918201910161146e565b6001836020036101000a038019825116818451168082178552505050505050905001915050604051809103902092506115ac565b84604051602001808281526020019150506040516020818303038152906040526040518082805190602001908083835b602083106115105780518252601f1990920191602091820191016114f1565b51815160209384036101000a600019018019909216911617905260408051929094018290038220828201528351808303820181529184019384905281519195509293508392850191508083835b6020831061157c5780518252601f19909201916020918201910161155d565b6001836020036101000a038019825116818451168082178552505050505050905001915050604051809103902092505b60208110156115d9578281602081106115c157fe5b60f860020a91901a81020491909101906001016115ac565b8260206002840106602081106115eb57fe5b60f860020a91901a81020483602084066020811061160557fe5b1a60f860020a0260f860020a9004029350505050919050565b600160a060020a038116151561163357600080fd5b61163d828261130c565b151561164857600080fd5b600160a060020a0316600090815260209190915260409020805460ff19169055565b600160a060020a038116151561167f57600080fd5b611689828261130c565b1561169357600080fd5b600160a060020a0316600090815260209190915260409020805460ff19166001179055565b61014060405190810160405280600081526020016000815260200160608152602001606081526020016060815260200160608152602001606081526020016060815260200160608152602001606081525090565b828054600181600116156101000203166002900490600052602060002090601f016020900481019282601f1061174d57805160ff191683800117855561177a565b8280016001018555821561177a579182015b8281111561177a57825182559160200191906001019061175f565b50611786929150611832565b5090565b82805482825590600052602060002090810192821561177a579160200282018281111561177a57825182559160200191906001019061175f565b828054828255906000526020600020908101928215611826579160200282015b82811115611826578251825473ffffffffffffffffffffffffffffffffffffffff1916600160a060020a039091161782556020909201916001909101906117e4565b5061178692915061184c565b61073b91905b808211156117865760008155600101611838565b61073b91905b8082111561178657805473ffffffffffffffffffffffffffffffffffffffff19168155600101611852565b60006118898235611ff1565b9392505050565b6000601f820183136118a157600080fd5b81356118b46118af82611fbf565b611f98565b915080825260208301602083018583830111156118d057600080fd5b6118db838284612002565b50505092915050565b6000611889823561073b565b60006020828403121561190257600080fd5b600061190e848461187d565b949350505050565b60006020828403121561192857600080fd5b600061190e84846118e4565b60008060008060008060c0878903121561194d57600080fd5b600061195989896118e4565b965050602087013567ffffffffffffffff81111561197657600080fd5b61198289828a01611890565b955050604087013567ffffffffffffffff81111561199f57600080fd5b6119ab89828a01611890565b945050606087013567ffffffffffffffff8111156119c857600080fd5b6119d489828a01611890565b935050608087013567ffffffffffffffff8111156119f157600080fd5b6119fd89828a01611890565b92505060a087013567ffffffffffffffff811115611a1a57600080fd5b611a2689828a01611890565b9150509295509295509295565b600080600080600080600060e0888a031215611a4e57600080fd5b6000611a5a8a8a6118e4565b9750506020611a6b8a828b016118e4565b965050604088013567ffffffffffffffff811115611a8857600080fd5b611a948a828b01611890565b955050606088013567ffffffffffffffff811115611ab157600080fd5b611abd8a828b01611890565b945050608088013567ffffffffffffffff811115611ada57600080fd5b611ae68a828b01611890565b93505060a088013567ffffffffffffffff811115611b0357600080fd5b611b0f8a828b01611890565b92505060c088013567ffffffffffffffff811115611b2c57600080fd5b611b388a828b01611890565b91505092959891949750929550565b611b5081611ff1565b82525050565b6000611b6182611fed565b808452602084019350611b7383611fe7565b60005b82811015611ba357611b89868351611b47565b611b9282611fe7565b602096909601959150600101611b76565b5093949350505050565b6000611bb882611fed565b80845260208401935083602082028501611bd185611fe7565b60005b84811015611c08578383038852611bec838351611def565b9250611bf782611fe7565b602098909801979150600101611bd4565b50909695505050505050565b6000611c1f82611fed565b808452602084019350611c3183611fe7565b60005b82811015611ba357611c47868351611ef2565b611c5082611fe7565b602096909601959150600101611c34565b611b5081611ffd565b6000611c7582611fed565b808452611c8981602086016020860161200e565b611c928161203e565b9093016020019392505050565b601a81527f4372656174696f6e204461746520697320696e6d757461626c65000000000000602082015260400190565b601581527f4d656d62657220616c7265616479206578697374730000000000000000000000602082015260400190565b601181527f4d656d626572206e6f7420657869737473000000000000000000000000000000602082015260400190565b601281527f5468656d65206973206d616e6461746f72790000000000000000000000000000602082015260400190565b601081527f434d4f206973206d616e6461746f727900000000000000000000000000000000602082015260400190565b601181527f4e616d65206973206d616e6461746f7279000000000000000000000000000000602082015260400190565b601981527f4372656174696f6e44617465206973206d616e6461746f727900000000000000602082015260400190565b8051600090610140840190611e048582611ef2565b506020830151611e176020860182611ef2565b5060408301518482036040860152611e2f8282611c6a565b91505060608301518482036060860152611e498282611c6a565b91505060808301518482036080860152611e638282611c6a565b91505060a083015184820360a0860152611e7d8282611c6a565b91505060c083015184820360c0860152611e978282611c6a565b91505060e083015184820360e0860152611eb18282611c14565b915050610100830151848203610100860152611ecd8282611c14565b915050610120830151848203610120860152611ee98282611b56565b95945050505050565b611b508161073b565b602080825281016118898184611bad565b6020810161024d8284611c61565b6020808252810161024d81611c9f565b6020808252810161024d81611ccf565b6020808252810161024d81611cff565b6020808252810161024d81611d2f565b6020808252810161024d81611d5f565b6020808252810161024d81611d8f565b6020808252810161024d81611dbf565b6020810161024d8284611ef2565b60405181810167ffffffffffffffff81118282101715611fb757600080fd5b604052919050565b600067ffffffffffffffff821115611fd657600080fd5b506020601f91909101601f19160190565b60200190565b5190565b600160a060020a031690565b151590565b82818337506000910152565b60005b83811015612029578181015183820152602001612011565b83811115612038576000848401525b50505050565b601f01601f1916905600a265627a7a72305820821d0df15121906a5a8206e6333a5cee05d958c9af462c96f6fb3b12a065199f6c6578706572696d656e74616cf50037",
  "source": "pragma solidity ^0.4.24;\npragma experimental ABIEncoderV2;\n\n\nimport \"../../node_modules/openzeppelin-solidity/contracts/math/SafeMath.sol\";\nimport \"../../node_modules/openzeppelin-solidity/contracts/access/roles/SignerRole.sol\";\nimport \"../utils/random.sol\";\n\ncontract Members is SignerRole, Random {\n\n  struct Member { \n    uint256 memberId;\n    uint256 creationDate;\n    string name;\n    string logo;\n    string country;\n    string cmo;\n    string theme;\n    uint256[] claimInbox;\n    uint256[] claims;\n    address[] userRequests;\n  }\n\n  uint256 constant private PAGE_SIZE = 10;\n\n  mapping (uint256 => Member) private members_;\n\n  uint256[] private membersList_;\n\n  // METHODS\n\n  // Public\n\n  function addMember(uint256 _creationDate, string _name, string _logo, string _country, string _cmo, string _theme) onlySigner public returns(uint) {\n    require(_creationDate > 0, \"CreationDate is mandatory\");\n    uint256 _memberId = Random.rand(_creationDate);\n    require(members_[_memberId].memberId == 0, \"Member already exists\");\n    _saveMember(_memberId, _creationDate, _name, _logo, _country, _cmo, _theme);\n    return _memberId;\n  }\n\n  function updateMember(uint256 _memberId, uint256 _creationDate, string _name, string _logo, string _country, string _cmo, string _theme) onlySigner public {\n    require(members_[_memberId].memberId > 0, \"Member not exists\");\n    require(members_[_memberId].creationDate == _creationDate, \"Creation Date is inmutable\");\n    _saveMember(_memberId, _creationDate, _name, _logo, _country, _cmo, _theme);\n  }\n\n  function getMembers() public view returns (Member[] memory) {\n    Member[] memory memberPage = new Member[](membersList_.length);\n    for (uint i = 0; i < membersList_.length; ++i) {\n        memberPage[i] = members_[membersList_[i]];\n    }\n    return memberPage;\n  }\n\n  function getMembers(uint _page) public view returns (Member[] memory) {\n    uint256 pageIndex = SafeMath.mul(PAGE_SIZE, _page);\n    uint256 pageNumber = SafeMath.div(membersList_.length, PAGE_SIZE);\n\n    if (membersList_.length == 0 || pageIndex > membersList_.length - 1 || _page > pageNumber) {\n      return;\n    }\n\n    // Insert items filtered into array.\n    uint256 resultCount = 0;\n    Member[] memory memberPage = new Member[](PAGE_SIZE);\n    for(uint j = pageIndex; j < membersList_.length; ++j) {\n        memberPage[resultCount] = members_[membersList_[j]];\n        ++resultCount;\n    }\n    return memberPage;\n  }\n\n  function getCount() onlySigner public view returns (uint256) {\n    return membersList_.length;\n  }\n\n  // Private\n\n  function _saveMember(uint256 _memberId, uint256 _creationDate, string _name, string _logo, string _country, string _cmo, string _theme) internal {\n\n    require(bytes(_name).length != 0, \"Name is mandatory\");\n    require(bytes(_cmo).length != 0, \"CMO is mandatory\");\n    require(bytes(_theme).length != 0, \"Theme is mandatory\");\n\n    Member memory member = members_[_memberId];\n    member.memberId = _memberId;\n    member.creationDate = _creationDate;\n    member.name = _name;\n    member.logo = _logo;\n    member.country = _country;\n    member.cmo = _cmo;\n    member.theme = _theme;\n\n    members_[_memberId] = member;\n    membersList_.push(_memberId);\n\n  }\n\n  function _getClaimsIdByMember(uint _memberId) internal view returns(uint[])  {\n    require(members_[_memberId].memberId > 0, \"member not exists\");\n    return members_[_memberId].claims;\n  }\n\n  function _getClaimsCountByMember(uint _memberId) internal view returns(uint) {\n    return members_[_memberId].claims.length;\n  }\n\n  function _addUserToMemberRequest(uint _memberId) internal {\n    members_[_memberId].userRequests.push(msg.sender);\n  }\n\n  function _addClaimIdToMemberOwner(uint _memberId, uint _claimId) internal {\n    members_[_memberId].claims.push(_claimId);\n  }\n\n  function _addClaimFromInbox(uint _memberId, uint _claimId) internal {\n    members_[_memberId].claimInbox.push(_claimId);\n  }\n\n  function _memberExists(uint _memberId) internal view returns(bool) {\n    return members_[_memberId].memberId > 0;\n  }\n\n  function _removeClaimFromInbox(uint _memberId, uint _claimId) internal {\n    bool found = false;\n    // Remove index\n    for (uint j = 0; j < members_[_memberId].claimInbox.length - 1; j++) {\n      if(members_[_memberId].claimInbox[j] == _claimId) {\n        found = true;\n      }\n      if(found) {\n        members_[_memberId].claimInbox[j] = members_[_memberId].claimInbox[j + 1];\n      }\n    }\n    delete members_[_memberId].claimInbox[members_[_memberId].claimInbox.length - 1];\n    members_[_memberId].claimInbox.length--;\n  }\n\n  function _clearUserFromMemberRequest(uint _memberId, address userAddress) internal {\n     bool found = false;\n    // Remove index\n    for (uint j = 0; j < members_[_memberId].userRequests.length - 1; j++) {\n      if(members_[_memberId].userRequests[j] == userAddress) {\n        found = true;\n      }\n      if(found) {\n        members_[_memberId].userRequests[j] = members_[_memberId].userRequests[j + 1];\n      }\n    }\n    delete members_[_memberId].userRequests[members_[_memberId].userRequests.length - 1];\n    members_[_memberId].userRequests.length--;\n  }\n\n  function _isClaimIntoReceptorInbox(uint _memberId, uint _claimId) internal view returns(bool) {\n    for(uint256 i = 0; i < members_[_memberId].claimInbox.length; ++i) {\n      if(members_[_memberId].claimInbox[i] == _claimId) {\n        return true;\n      }\n    }\n    return false;\n  }\n}",
  "sourcePath": "/home/komodo/newUI/bloomen-decentralized-rights-management-v2/truffle/contracts/registry/Members.sol",
  "compiler": {
    "name": "solc",
    "version": "0.4.24+commit.e67f0147.Emscripten.clang"
  },
  "schemaVersion": "2.0.1",
  "updatedAt": "2019-11-29T19:16:54.255Z"
}