{
  "contractName": "Members",
  "abi": [
    {
      "constant": false,
      "inputs": [
        {
          "name": "_cmo",
          "type": "string"
        }
      ],
      "name": "addCMO",
      "outputs": [],
      "payable": false,
      "stateMutability": "nonpayable",
      "type": "function"
    },
    {
      "constant": true,
      "inputs": [],
      "name": "getCMOs",
      "outputs": [
        {
          "name": "",
          "type": "string[]"
        }
      ],
      "payable": false,
      "stateMutability": "view",
      "type": "function"
    },
    {
      "constant": true,
      "inputs": [
        {
          "name": "account",
          "type": "address"
        }
      ],
      "name": "isSigner",
      "outputs": [
        {
          "name": "",
          "type": "bool"
        }
      ],
      "payable": false,
      "stateMutability": "view",
      "type": "function"
    },
    {
      "constant": false,
      "inputs": [
        {
          "name": "_index",
          "type": "uint256"
        }
      ],
      "name": "deleteCMO",
      "outputs": [],
      "payable": false,
      "stateMutability": "nonpayable",
      "type": "function"
    },
    {
      "constant": false,
      "inputs": [],
      "name": "renounceSigner",
      "outputs": [],
      "payable": false,
      "stateMutability": "nonpayable",
      "type": "function"
    },
    {
      "constant": false,
      "inputs": [
        {
          "name": "account",
          "type": "address"
        }
      ],
      "name": "addSigner",
      "outputs": [],
      "payable": false,
      "stateMutability": "nonpayable",
      "type": "function"
    },
    {
      "constant": true,
      "inputs": [],
      "name": "memberIdCounter_",
      "outputs": [
        {
          "name": "",
          "type": "uint256"
        }
      ],
      "payable": false,
      "stateMutability": "view",
      "type": "function"
    },
    {
      "anonymous": false,
      "inputs": [
        {
          "indexed": true,
          "name": "account",
          "type": "address"
        }
      ],
      "name": "SignerAdded",
      "type": "event"
    },
    {
      "anonymous": false,
      "inputs": [
        {
          "indexed": true,
          "name": "account",
          "type": "address"
        }
      ],
      "name": "SignerRemoved",
      "type": "event"
    },
    {
      "constant": false,
      "inputs": [
        {
          "name": "_creationDate",
          "type": "uint256"
        },
        {
          "name": "_name",
          "type": "string"
        },
        {
          "name": "_logo",
          "type": "string"
        },
        {
          "name": "_country",
          "type": "string"
        },
        {
          "name": "_cmo",
          "type": "string"
        },
        {
          "name": "_theme",
          "type": "string"
        }
      ],
      "name": "addMember",
      "outputs": [
        {
          "name": "",
          "type": "uint256"
        }
      ],
      "payable": false,
      "stateMutability": "nonpayable",
      "type": "function"
    },
    {
      "constant": false,
      "inputs": [
        {
          "name": "_memberId",
          "type": "uint256"
        },
        {
          "name": "_creationDate",
          "type": "uint256"
        },
        {
          "name": "_name",
          "type": "string"
        },
        {
          "name": "_logo",
          "type": "string"
        },
        {
          "name": "_country",
          "type": "string"
        },
        {
          "name": "_cmo",
          "type": "string"
        },
        {
          "name": "_theme",
          "type": "string"
        }
      ],
      "name": "updateMember",
      "outputs": [],
      "payable": false,
      "stateMutability": "nonpayable",
      "type": "function"
    },
    {
      "constant": true,
      "inputs": [
        {
          "name": "_page",
          "type": "uint256"
        }
      ],
      "name": "getMembers",
      "outputs": [
        {
          "components": [
            {
              "name": "memberId",
              "type": "uint256"
            },
            {
              "name": "creationDate",
              "type": "uint256"
            },
            {
              "name": "name",
              "type": "string"
            },
            {
              "name": "logo",
              "type": "string"
            },
            {
              "name": "country",
              "type": "string"
            },
            {
              "name": "cmo",
              "type": "string"
            },
            {
              "name": "theme",
              "type": "string"
            },
            {
              "name": "claimInbox",
              "type": "uint256[]"
            },
            {
              "name": "claims",
              "type": "uint256[]"
            },
            {
              "name": "userRequests",
              "type": "address[]"
            }
          ],
          "name": "",
          "type": "tuple[]"
        }
      ],
      "payable": false,
      "stateMutability": "view",
      "type": "function"
    },
    {
      "constant": true,
      "inputs": [],
      "name": "getMembers",
      "outputs": [
        {
          "components": [
            {
              "name": "memberId",
              "type": "uint256"
            },
            {
              "name": "creationDate",
              "type": "uint256"
            },
            {
              "name": "name",
              "type": "string"
            },
            {
              "name": "logo",
              "type": "string"
            },
            {
              "name": "country",
              "type": "string"
            },
            {
              "name": "cmo",
              "type": "string"
            },
            {
              "name": "theme",
              "type": "string"
            },
            {
              "name": "claimInbox",
              "type": "uint256[]"
            },
            {
              "name": "claims",
              "type": "uint256[]"
            },
            {
              "name": "userRequests",
              "type": "address[]"
            }
          ],
          "name": "",
          "type": "tuple[]"
        }
      ],
      "payable": false,
      "stateMutability": "view",
      "type": "function"
    },
    {
      "constant": true,
      "inputs": [],
      "name": "getCount",
      "outputs": [
        {
          "name": "",
          "type": "uint256"
        }
      ],
      "payable": false,
      "stateMutability": "view",
      "type": "function"
    },
    {
      "constant": true,
      "inputs": [
        {
          "name": "_memberId",
          "type": "uint256"
        }
      ],
      "name": "_getClaimsIdByMember",
      "outputs": [
        {
          "name": "",
          "type": "uint256[]"
        }
      ],
      "payable": false,
      "stateMutability": "view",
      "type": "function"
    },
    {
      "constant": true,
      "inputs": [
        {
          "name": "_memberId",
          "type": "uint256"
        }
      ],
      "name": "_getClaimsCountByMember",
      "outputs": [
        {
          "name": "",
          "type": "uint256"
        }
      ],
      "payable": false,
      "stateMutability": "view",
      "type": "function"
    },
    {
      "constant": false,
      "inputs": [
        {
          "name": "_memberId",
          "type": "uint256"
        },
        {
          "name": "_claimId",
          "type": "uint256"
        }
      ],
      "name": "_addClaimIdToMemberOwner",
      "outputs": [],
      "payable": false,
      "stateMutability": "nonpayable",
      "type": "function"
    },
    {
      "constant": false,
      "inputs": [
        {
          "name": "_memberId",
          "type": "uint256"
        },
        {
          "name": "_claimId",
          "type": "uint256"
        }
      ],
      "name": "_removeClaimIdFromMember",
      "outputs": [],
      "payable": false,
      "stateMutability": "nonpayable",
      "type": "function"
    },
    {
      "constant": false,
      "inputs": [
        {
          "name": "_memberId",
          "type": "uint256"
        },
        {
          "name": "_claimId",
          "type": "uint256"
        }
      ],
      "name": "_addClaimFromInbox",
      "outputs": [],
      "payable": false,
      "stateMutability": "nonpayable",
      "type": "function"
    },
    {
      "constant": true,
      "inputs": [
        {
          "name": "_memberId",
          "type": "uint256"
        }
      ],
      "name": "_memberExists",
      "outputs": [
        {
          "name": "",
          "type": "bool"
        }
      ],
      "payable": false,
      "stateMutability": "view",
      "type": "function"
    },
    {
      "constant": false,
      "inputs": [
        {
          "name": "_memberId",
          "type": "uint256"
        },
        {
          "name": "_claimId",
          "type": "uint256"
        }
      ],
      "name": "_removeClaimFromInbox",
      "outputs": [],
      "payable": false,
      "stateMutability": "nonpayable",
      "type": "function"
    }
  ],
  "bytecode": "0x608060405260006003556200001d3364010000000062000023810204565b62000108565b6200003e60008264010000000062001b7d6200007582021704565b604051600160a060020a038216907f47d1c22a25bb3a5d4e481b9b1e6944c2eade3181a0a20b495ed61d35b5323f2490600090a250565b600160a060020a03811615156200008b57600080fd5b620000a08282640100000000620000d0810204565b15620000ab57600080fd5b600160a060020a0316600090815260209190915260409020805460ff19166001179055565b6000600160a060020a0382161515620000e857600080fd5b50600160a060020a03166000908152602091909152604090205460ff1690565b61282e80620001186000396000f3006080604052600436106101065763ffffffff7c01000000000000000000000000000000000000000000000000000000006000350416633a59ccf1811461010b5780636262dff61461012d578063656d561c1461016357806365ff0c481461018557806374853239146101a55780637df73e27146101c55780638b92892b146101f25780639eab525314610212578063a29d441f14610234578063a87d942c14610254578063affccd8414610276578063bf3d007e14610296578063c477ecab146102b6578063e2c11f9e146102d6578063e5c8b03d146102f6578063eb12d61e1461030b578063f83807331461032b578063fa1188c61461034b578063fa92dbdf1461036b575b600080fd5b34801561011757600080fd5b5061012b610126366004611f4d565b610380565b005b34801561013957600080fd5b5061014d610148366004611f82565b6103dc565b60405161015a919061269b565b60405180910390f35b34801561016f57600080fd5b5061017861047a565b60405161015a9190612679565b34801561019157600080fd5b5061012b6101a03660046120d9565b610553565b3480156101b157600080fd5b5061012b6101c036600461209f565b61061e565b3480156101d157600080fd5b506101e56101e0366004611f27565b610644565b60405161015a91906126ac565b3480156101fe57600080fd5b5061012b61020d36600461209f565b61065c565b34801561021e57600080fd5b50610227610773565b60405161015a919061268a565b34801561024057600080fd5b5061012b61024f36600461209f565b610c40565b34801561026057600080fd5b50610269610d15565b60405161015a919061273a565b34801561028257600080fd5b50610269610291366004611f82565b610d32565b3480156102a257600080fd5b5061012b6102b1366004611f82565b610d47565b3480156102c257600080fd5b506102276102d1366004611f82565b610e04565b3480156102e257600080fd5b5061012b6102f136600461209f565b61131f565b34801561030257600080fd5b5061012b611345565b34801561031757600080fd5b5061012b610326366004611f27565b611350565b34801561033757600080fd5b506101e5610346366004611f82565b611370565b34801561035757600080fd5b50610269610366366004611fa0565b611383565b34801561037757600080fd5b50610269611412565b61038933610644565b151561039457600080fd5b6001805480820180835560009290925282516103d7917fb10e2d527612073b26eecdfd717e6a320cf44b4afac2b0732d9fcbe2b7fa0cf601906020850190611bcb565b505050565b600081815260026020526040812054606091106104175760405160e560020a62461bcd02815260040161040e906126ca565b60405180910390fd5b6000828152600260209081526040918290206008018054835181840281018401909452808452909183018282801561046e57602002820191906000526020600020905b81548152602001906001019080831161045a575b50505050509050919050565b60606001805480602002602001604051908101604052809291908181526020016000905b828210156105495760008481526020908190208301805460408051601f60026000196101006001871615020190941693909304928301859004850281018501909152818152928301828280156105355780601f1061050a57610100808354040283529160200191610535565b820191906000526020600020905b81548152906001019060200180831161051857829003601f168201915b50505050508152602001906001019061049e565b5050505090505b90565b61055c33610644565b151561056757600080fd5b600087815260026020526040812054116105965760405160e560020a62461bcd02815260040161040e906126ea565b60008781526002602052604090206001015486146105c95760405160e560020a62461bcd02815260040161040e906126ba565b600087815260026020818152604090922087516105ee93919092019190880190611bcb565b506000878152600260209081526040909120825161061492600690920191840190611bcb565b5050505050505050565b600091825260026020908152604083206007018054600181018255908452922090910155565b6000610656818363ffffffff61141816565b92915050565b6000805b6000848152600260205260409020600701546000190181101561071c57600084815260026020526040902060070180548491908390811061069d57fe5b906000526020600020015414156106b357600191505b81156107145760008481526002602052604090206007018054600183019081106106d957fe5b9060005260206000200154600260008681526020019081526020016000206007018281548110151561070757fe5b6000918252602090912001555b600101610660565b60008481526002602052604090206007018054600019810190811061073d57fe5b60009182526020808320909101829055858252600290526040902060070180549061076c906000198301611c49565b5050505050565b60608060006004805490506040519080825280602002602001820160405280156107b757816020015b6107a4611c6d565b81526020019060019003908161079c5790505b509150600090505b600454811015610c3a57600260006004838154811015156107dc57fe5b9060005260206000200154815260200190815260200160002061014060405190810160405290816000820154815260200160018201548152602001600282018054600181600116156101000203166002900480601f0160208091040260200160405190810160405280929190818152602001828054600181600116156101000203166002900480156108af5780601f10610884576101008083540402835291602001916108af565b820191906000526020600020905b81548152906001019060200180831161089257829003601f168201915b505050918352505060038201805460408051602060026001851615610100026000190190941693909304601f81018490048402820184019092528181529382019392918301828280156109435780601f1061091857610100808354040283529160200191610943565b820191906000526020600020905b81548152906001019060200180831161092657829003601f168201915b505050918352505060048201805460408051602060026001851615610100026000190190941693909304601f81018490048402820184019092528181529382019392918301828280156109d75780601f106109ac576101008083540402835291602001916109d7565b820191906000526020600020905b8154815290600101906020018083116109ba57829003601f168201915b505050918352505060058201805460408051602060026001851615610100026000190190941693909304601f8101849004840282018401909252818152938201939291830182828015610a6b5780601f10610a4057610100808354040283529160200191610a6b565b820191906000526020600020905b815481529060010190602001808311610a4e57829003601f168201915b505050918352505060068201805460408051602060026001851615610100026000190190941693909304601f8101849004840282018401909252818152938201939291830182828015610aff5780601f10610ad457610100808354040283529160200191610aff565b820191906000526020600020905b815481529060010190602001808311610ae257829003601f168201915b5050505050815260200160078201805480602002602001604051908101604052809291908181526020018280548015610b5757602002820191906000526020600020905b815481526020019060010190808311610b43575b5050505050815260200160088201805480602002602001604051908101604052809291908181526020018280548015610baf57602002820191906000526020600020905b815481526020019060010190808311610b9b575b5050505050815260200160098201805480602002602001604051908101604052809291908181526020018280548015610c1157602002820191906000526020600020905b8154600160a060020a03168152600190910190602001808311610bf3575b5050505050815250508282815181101515610c2857fe5b602090810290910101526001016107bf565b50919050565b600082815260026020526040812060080154908111156103d757600083815260026020526040902060080180546000198301908110610c7b57fe5b90600052602060002001546002600085815260200190815260200160002060080183815481101515610ca957fe5b9060005260206000200181905550816002600085815260200190815260200160002060080160018303815481101515610cde57fe5b6000918252602080832090910192909255848152600290915260409020600801805490610d0f906000198301611c49565b50505050565b6000610d2033610644565b1515610d2b57600080fd5b5060045490565b60009081526002602052604090206008015490565b6000610d5233610644565b1515610d5d57600080fd5b50805b60015460001901811015610dc95760018054828201908110610d7e57fe5b90600052602060002001600182815481101515610d9757fe5b906000526020600020019080546001816001161561010002031660029004610dc0929190611cc1565b50600101610d60565b600180546000198101908110610ddb57fe5b906000526020600020016000610df19190611d36565b60018054906103d7906000198301611d7a565b6060600080600060606000610e1a600a8861144f565b600454909550610e2b90600a611488565b6004549094501580610e4257506004546000190185115b80610e4c57508387115b15610e5657611315565b60408051600a80825261016082019092526000945090816020015b610e79611c6d565b815260200190600190039081610e715790505091508490505b6004548110156113115760026000600483815481101515610eaf57fe5b9060005260206000200154815260200190815260200160002061014060405190810160405290816000820154815260200160018201548152602001600282018054600181600116156101000203166002900480601f016020809104026020016040519081016040528092919081815260200182805460018160011615610100020316600290048015610f825780601f10610f5757610100808354040283529160200191610f82565b820191906000526020600020905b815481529060010190602001808311610f6557829003601f168201915b505050918352505060038201805460408051602060026001851615610100026000190190941693909304601f81018490048402820184019092528181529382019392918301828280156110165780601f10610feb57610100808354040283529160200191611016565b820191906000526020600020905b815481529060010190602001808311610ff957829003601f168201915b505050918352505060048201805460408051602060026001851615610100026000190190941693909304601f81018490048402820184019092528181529382019392918301828280156110aa5780601f1061107f576101008083540402835291602001916110aa565b820191906000526020600020905b81548152906001019060200180831161108d57829003601f168201915b505050918352505060058201805460408051602060026001851615610100026000190190941693909304601f810184900484028201840190925281815293820193929183018282801561113e5780601f106111135761010080835404028352916020019161113e565b820191906000526020600020905b81548152906001019060200180831161112157829003601f168201915b505050918352505060068201805460408051602060026001851615610100026000190190941693909304601f81018490048402820184019092528181529382019392918301828280156111d25780601f106111a7576101008083540402835291602001916111d2565b820191906000526020600020905b8154815290600101906020018083116111b557829003601f168201915b505050505081526020016007820180548060200260200160405190810160405280929190818152602001828054801561122a57602002820191906000526020600020905b815481526020019060010190808311611216575b505050505081526020016008820180548060200260200160405190810160405280929190818152602001828054801561128257602002820191906000526020600020905b81548152602001906001019080831161126e575b50505050508152602001600982018054806020026020016040519081016040528092919081815260200182805480156112e457602002820191906000526020600020905b8154600160a060020a031681526001909101906020018083116112c6575b50505050508152505082848151811015156112fb57fe5b6020908102909101015260019283019201610e92565b8195505b5050505050919050565b600091825260026020908152604083206008018054600181018255908452922090910155565b61134e336114ab565b565b61135933610644565b151561136457600080fd5b61136d816114f3565b50565b6000908152600260205260408120541190565b60008061138f33610644565b151561139a57600080fd5b600088116113bd5760405160e560020a62461bcd02815260040161040e9061272a565b506003805460010190819055600081815260026020526040902054156113f85760405160e560020a62461bcd02815260040161040e906126da565b6114078189898989898961153b565b979650505050505050565b60035481565b6000600160a060020a038216151561142f57600080fd5b50600160a060020a03166000908152602091909152604090205460ff1690565b6000808315156114625760009150611481565b5082820282848281151561147257fe5b041461147d57600080fd5b8091505b5092915050565b60008080831161149757600080fd5b82848115156114a257fe5b04949350505050565b6114bc60008263ffffffff611b3116565b604051600160a060020a038216907f3525e22824a8a7df2c9a6029941c824cf95b6447f1e13d5128fd3826d35afe8b90600090a250565b61150460008263ffffffff611b7d16565b604051600160a060020a038216907f47d1c22a25bb3a5d4e481b9b1e6944c2eade3181a0a20b495ed61d35b5323f2490600090a250565b611543611c6d565b855115156115665760405160e560020a62461bcd02815260040161040e9061271a565b825115156115895760405160e560020a62461bcd02815260040161040e9061270a565b815115156115ac5760405160e560020a62461bcd02815260040161040e906126fa565b6000888152600260208181526040928390208351610140810185528154815260018083015482850152828501805487519281161561010002600019011695909504601f8101859004850282018501875280825291959294928601939092919083018282801561165c5780601f106116315761010080835404028352916020019161165c565b820191906000526020600020905b81548152906001019060200180831161163f57829003601f168201915b505050918352505060038201805460408051602060026001851615610100026000190190941693909304601f81018490048402820184019092528181529382019392918301828280156116f05780601f106116c5576101008083540402835291602001916116f0565b820191906000526020600020905b8154815290600101906020018083116116d357829003601f168201915b505050918352505060048201805460408051602060026001851615610100026000190190941693909304601f81018490048402820184019092528181529382019392918301828280156117845780601f1061175957610100808354040283529160200191611784565b820191906000526020600020905b81548152906001019060200180831161176757829003601f168201915b505050918352505060058201805460408051602060026001851615610100026000190190941693909304601f81018490048402820184019092528181529382019392918301828280156118185780601f106117ed57610100808354040283529160200191611818565b820191906000526020600020905b8154815290600101906020018083116117fb57829003601f168201915b505050918352505060068201805460408051602060026001851615610100026000190190941693909304601f81018490048402820184019092528181529382019392918301828280156118ac5780601f10611881576101008083540402835291602001916118ac565b820191906000526020600020905b81548152906001019060200180831161188f57829003601f168201915b505050505081526020016007820180548060200260200160405190810160405280929190818152602001828054801561190457602002820191906000526020600020905b8154815260200190600101908083116118f0575b505050505081526020016008820180548060200260200160405190810160405280929190818152602001828054801561195c57602002820191906000526020600020905b815481526020019060010190808311611948575b50505050508152602001600982018054806020026020016040519081016040528092919081815260200182805480156119be57602002820191906000526020600020905b8154600160a060020a031681526001909101906020018083116119a0575b50505091909252505050888152602080820189815260408084018a8152606085018a90526080850189905260a0850188905260c0850187905260008d81526002808652929020855181559251600184015551805194955085949293611a299392850192910190611bcb565b5060608201518051611a45916003840191602090910190611bcb565b5060808201518051611a61916004840191602090910190611bcb565b5060a08201518051611a7d916005840191602090910190611bcb565b5060c08201518051611a99916006840191602090910190611bcb565b5060e08201518051611ab5916007840191602090910190611d9e565b506101008201518051611ad2916008840191602090910190611d9e565b506101208201518051611aef916009840191602090910190611dd8565b5050600480546001810182556000919091527f8a35acfbc15ff81a39ae7d344fd709f28e8600b4aa8c65c6b64bfe7fe36bd19b01989098555050505050505050565b600160a060020a0381161515611b4657600080fd5b611b508282611418565b1515611b5b57600080fd5b600160a060020a0316600090815260209190915260409020805460ff19169055565b600160a060020a0381161515611b9257600080fd5b611b9c8282611418565b15611ba657600080fd5b600160a060020a0316600090815260209190915260409020805460ff19166001179055565b828054600181600116156101000203166002900490600052602060002090601f016020900481019282601f10611c0c57805160ff1916838001178555611c39565b82800160010185558215611c39579182015b82811115611c39578251825591602001919060010190611c1e565b50611c45929150611e46565b5090565b8154818355818111156103d7576000838152602090206103d7918101908301611e46565b61014060405190810160405280600081526020016000815260200160608152602001606081526020016060815260200160608152602001606081526020016060815260200160608152602001606081525090565b828054600181600116156101000203166002900490600052602060002090601f016020900481019282601f10611cfa5780548555611c39565b82800160010185558215611c3957600052602060002091601f016020900482015b82811115611c39578254825591600101919060010190611d1b565b50805460018160011615610100020316600290046000825580601f10611d5c575061136d565b601f01602090049060005260206000209081019061136d9190611e46565b8154818355818111156103d7576000838152602090206103d7918101908301611e60565b828054828255906000526020600020908101928215611c395791602002820182811115611c39578251825591602001919060010190611c1e565b828054828255906000526020600020908101928215611e3a579160200282015b82811115611e3a578251825473ffffffffffffffffffffffffffffffffffffffff1916600160a060020a03909116178255602090920191600190910190611df8565b50611c45929150611e83565b61055091905b80821115611c455760008155600101611e4c565b61055091905b80821115611c45576000611e7a8282611d36565b50600101611e66565b61055091905b80821115611c4557805473ffffffffffffffffffffffffffffffffffffffff19168155600101611e89565b6000611ec082356127a1565b9392505050565b6000601f82018313611ed857600080fd5b8135611eeb611ee68261276f565b612748565b91508082526020830160208301858383011115611f0757600080fd5b611f128382846127b2565b50505092915050565b6000611ec08235610550565b600060208284031215611f3957600080fd5b6000611f458484611eb4565b949350505050565b600060208284031215611f5f57600080fd5b813567ffffffffffffffff811115611f7657600080fd5b611f4584828501611ec7565b600060208284031215611f9457600080fd5b6000611f458484611f1b565b60008060008060008060c08789031215611fb957600080fd5b6000611fc58989611f1b565b965050602087013567ffffffffffffffff811115611fe257600080fd5b611fee89828a01611ec7565b955050604087013567ffffffffffffffff81111561200b57600080fd5b61201789828a01611ec7565b945050606087013567ffffffffffffffff81111561203457600080fd5b61204089828a01611ec7565b935050608087013567ffffffffffffffff81111561205d57600080fd5b61206989828a01611ec7565b92505060a087013567ffffffffffffffff81111561208657600080fd5b61209289828a01611ec7565b9150509295509295509295565b600080604083850312156120b257600080fd5b60006120be8585611f1b565b92505060206120cf85828601611f1b565b9150509250929050565b600080600080600080600060e0888a0312156120f457600080fd5b60006121008a8a611f1b565b97505060206121118a828b01611f1b565b965050604088013567ffffffffffffffff81111561212e57600080fd5b61213a8a828b01611ec7565b955050606088013567ffffffffffffffff81111561215757600080fd5b6121638a828b01611ec7565b945050608088013567ffffffffffffffff81111561218057600080fd5b61218c8a828b01611ec7565b93505060a088013567ffffffffffffffff8111156121a957600080fd5b6121b58a828b01611ec7565b92505060c088013567ffffffffffffffff8111156121d257600080fd5b6121de8a828b01611ec7565b91505092959891949750929550565b6121f6816127a1565b82525050565b60006122078261279d565b80845260208401935061221983612797565b60005b828110156122495761222f8683516121ed565b61223882612797565b60209690960195915060010161221c565b5093949350505050565b600061225e8261279d565b8084526020840193508360208202850161227785612797565b60005b848110156122ae5783830388526122928383516123b8565b925061229d82612797565b60209890980197915060010161227a565b50909695505050505050565b60006122c58261279d565b808452602084019350836020820285016122de85612797565b60005b848110156122ae5783830388526122f983835161256d565b925061230482612797565b6020989098019791506001016122e1565b60006123208261279d565b80845260208401935061233283612797565b60005b8281101561224957612348868351612670565b61235182612797565b602096909601959150600101612335565b600061236d8261279d565b80845260208401935061237f83612797565b60005b8281101561224957612395868351612670565b61239e82612797565b602096909601959150600101612382565b6121f6816127ad565b60006123c38261279d565b8084526123d78160208601602086016127be565b6123e0816127ea565b9093016020019392505050565b601a81527f4372656174696f6e204461746520697320696e6d757461626c65000000000000602082015260400190565b601181527f6d656d626572206e6f7420657869737473000000000000000000000000000000602082015260400190565b601581527f4d656d62657220616c7265616479206578697374730000000000000000000000602082015260400190565b601181527f4d656d626572206e6f7420657869737473000000000000000000000000000000602082015260400190565b601281527f5468656d65206973206d616e6461746f72790000000000000000000000000000602082015260400190565b601081527f434d4f206973206d616e6461746f727900000000000000000000000000000000602082015260400190565b601181527f4e616d65206973206d616e6461746f7279000000000000000000000000000000602082015260400190565b601981527f4372656174696f6e44617465206973206d616e6461746f727900000000000000602082015260400190565b80516000906101408401906125828582612670565b5060208301516125956020860182612670565b50604083015184820360408601526125ad82826123b8565b915050606083015184820360608601526125c782826123b8565b915050608083015184820360808601526125e182826123b8565b91505060a083015184820360a08601526125fb82826123b8565b91505060c083015184820360c086015261261582826123b8565b91505060e083015184820360e086015261262f8282612362565b91505061010083015184820361010086015261264b8282612362565b91505061012083015184820361012086015261266782826121fc565b95945050505050565b6121f681610550565b60208082528101611ec08184612253565b60208082528101611ec081846122ba565b60208082528101611ec08184612315565b6020810161065682846123af565b60208082528101610656816123ed565b602080825281016106568161241d565b602080825281016106568161244d565b602080825281016106568161247d565b60208082528101610656816124ad565b60208082528101610656816124dd565b602080825281016106568161250d565b602080825281016106568161253d565b602081016106568284612670565b60405181810167ffffffffffffffff8111828210171561276757600080fd5b604052919050565b600067ffffffffffffffff82111561278657600080fd5b506020601f91909101601f19160190565b60200190565b5190565b600160a060020a031690565b151590565b82818337506000910152565b60005b838110156127d95781810151838201526020016127c1565b83811115610d0f5750506000910152565b601f01601f1916905600a265627a7a72305820a2c98d7313abe75b03cc6ef99561c7053171734addc86bff77a8d665ec86cdc86c6578706572696d656e74616cf50037",
  "source": "pragma solidity ^0.4.24;\npragma experimental ABIEncoderV2;\n\nimport \"./SafeMath.sol\";\nimport \"./random.sol\";\nimport \"./Registry.sol\";\n\ncontract Members is Random, Registry {\n\n  struct Member { \n    uint256 memberId;\n    uint256 creationDate;\n    string name;\n    string logo;\n    string country;\n    string cmo;\n    string theme;\n    uint256[] claimInbox;\n    uint256[] claims;\n    address[] userRequests;\n//    string group;\n  }\n\n  uint256 constant private PAGE_SIZE = 10;\n\n  mapping (uint256 => Member) private members_;\n  uint256 public memberIdCounter_ = 0; // has the number of members + Super Admins ever inserted, including the deleted ones\n\n  uint256[] private membersList_;\n\n  // METHODS\n\n  // Public\n\n  function addMember(uint256 _creationDate, string _name, string _logo, string _country, string _cmo, string _theme) onlySigner public returns(uint) {\n    //  string _group) onlySigner public returns(uint) {\n    require(_creationDate > 0, \"CreationDate is mandatory\");\n//    uint256 _memberId = Random.rand(_creationDate);\n    uint256 _memberId = ++memberIdCounter_;\n    require(members_[_memberId].memberId == 0, \"Member already exists\");\n    _saveMember(_memberId, _creationDate, _name, _logo, _country, _cmo, _theme);\n//    members_[_memberId].group = _group;\n    return _memberId;\n  }\n\n  function updateMember(uint256 _memberId, uint256 _creationDate, string _name, string _logo, string _country, string _cmo, string _theme) onlySigner public {\n  // , string _group) onlySigner public {\n    require(members_[_memberId].memberId > 0, \"Member not exists\");\n    require(members_[_memberId].creationDate == _creationDate, \"Creation Date is inmutable\");\n//    _saveMember(_memberId, _creationDate, _name, _logo, _country, _cmo, _theme);\n//    members_[_memberId].group = _group;\n    members_[_memberId].name = _name;\n    members_[_memberId].theme = _theme;\n  }\n\n  function getMembers() public view returns (Member[] memory) {\n    Member[] memory memberPage = new Member[](membersList_.length);\n    for (uint i = 0; i < membersList_.length; ++i) {\n        memberPage[i] = members_[membersList_[i]];\n    }\n    return memberPage;\n  }\n\n  function getMembers(uint _page) public view returns (Member[] memory) {\n    uint256 pageIndex = SafeMath.mul(PAGE_SIZE, _page);\n    uint256 pageNumber = SafeMath.div(membersList_.length, PAGE_SIZE);\n\n    if (membersList_.length == 0 || pageIndex > membersList_.length - 1 || _page > pageNumber) {\n      return;\n    }\n\n    // Insert items filtered into array.\n    uint256 resultCount = 0;\n    Member[] memory memberPage = new Member[](PAGE_SIZE);\n    for(uint j = pageIndex; j < membersList_.length; ++j) {\n        memberPage[resultCount] = members_[membersList_[j]];\n        ++resultCount;\n    }\n    return memberPage;\n  }\n\n  function getCount() onlySigner public view returns (uint256) {\n    return membersList_.length;\n  }\n\n  // Private\n\n  function _saveMember(uint256 _memberId, uint256 _creationDate, string _name, string _logo, string _country, string _cmo, string _theme) internal {\n\n    require(bytes(_name).length != 0, \"Name is mandatory\");\n    require(bytes(_cmo).length != 0, \"CMO is mandatory\");\n    require(bytes(_theme).length != 0, \"Theme is mandatory\");\n\n    Member memory member = members_[_memberId];\n    member.memberId = _memberId;\n    member.creationDate = _creationDate;\n    member.name = _name;\n    member.logo = _logo;\n    member.country = _country;\n    member.cmo = _cmo;\n    member.theme = _theme;\n\n    members_[_memberId] = member;\n    membersList_.push(_memberId);\n\n  }\n\n  function _getClaimsIdByMember(uint _memberId) public view returns(uint[])  {\n    require(members_[_memberId].memberId > 0, \"member not exists\");\n    return members_[_memberId].claims;\n  }\n\n  function _getClaimsCountByMember(uint _memberId) public view returns(uint) {\n    return members_[_memberId].claims.length;\n  }\n\n  function _addUserToMemberRequest(uint _memberId) internal {\n    members_[_memberId].userRequests.push(msg.sender);\n  }\n\n  function _addClaimIdToMemberOwner(uint _memberId, uint _claimId) public {\n    members_[_memberId].claims.push(_claimId);\n  }\n\n  function _removeClaimIdFromMember(uint _memberId, uint _claimId) public {\n//    _rP(_memberId, _claimId);\n//  }\n//\n//  function _rP(uint _memberId, uint _claimId) private {\n    uint claimCount = members_[_memberId].claims.length;\n    if (claimCount > 0) { // require(claimCount > 0, \"not enough claims in member\");\n      members_[_memberId].claims[_claimId] = members_[_memberId].claims[claimCount-1];\n      members_[_memberId].claims[claimCount-1] = _claimId;\n      members_[_memberId].claims.length--;\n    }\n  }\n\n  function _addClaimFromInbox(uint _memberId, uint _claimId) public {\n    members_[_memberId].claimInbox.push(_claimId);\n  }\n\n  function _memberExists(uint _memberId) public view returns(bool) {\n    return members_[_memberId].memberId > 0;\n  }\n\n  function _removeClaimFromInbox(uint _memberId, uint _claimId) public {\n    bool found = false;\n    // Remove index\n    for (uint j = 0; j < members_[_memberId].claimInbox.length - 1; j++) {\n      if(members_[_memberId].claimInbox[j] == _claimId) {\n        found = true;\n      }\n      if(found) {\n        members_[_memberId].claimInbox[j] = members_[_memberId].claimInbox[j + 1];\n      }\n    }\n    delete members_[_memberId].claimInbox[members_[_memberId].claimInbox.length - 1];\n    members_[_memberId].claimInbox.length--;\n  }\n\n  function _clearUserFromMemberRequest(uint _memberId, address userAddress) internal {\n     bool found = false;\n    // Remove index\n    for (uint j = 0; j < members_[_memberId].userRequests.length - 1; j++) {\n      if(members_[_memberId].userRequests[j] == userAddress) {\n        found = true;\n      }\n      if(found) {\n        members_[_memberId].userRequests[j] = members_[_memberId].userRequests[j + 1];\n      }\n    }\n    delete members_[_memberId].userRequests[members_[_memberId].userRequests.length - 1];\n    members_[_memberId].userRequests.length--;\n  }\n\n}",
  "sourcePath": "/home/komodo/newUI2/bloomen-decentralized-rights-management-v2/truffle/contracts/registry/Members.sol",
  "compiler": {
    "name": "solc",
    "version": "0.4.24+commit.e67f0147.Emscripten.clang"
  },
  "schemaVersion": "2.0.1",
  "updatedAt": "2020-02-04T06:57:32.113Z"
}