{
  "contractName": "Members",
  "abi": [
    {
      "constant": true,
      "inputs": [
        {
          "name": "",
          "type": "uint256"
        }
      ],
      "name": "members_",
      "outputs": [
        {
          "name": "memberId",
          "type": "uint256"
        },
        {
          "name": "creationDate",
          "type": "uint256"
        },
        {
          "name": "name",
          "type": "string"
        },
        {
          "name": "logo",
          "type": "string"
        },
        {
          "name": "country",
          "type": "string"
        },
        {
          "name": "cmo",
          "type": "string"
        },
        {
          "name": "theme",
          "type": "string"
        }
      ],
      "payable": false,
      "stateMutability": "view",
      "type": "function"
    },
    {
      "constant": false,
      "inputs": [
        {
          "name": "_cmo",
          "type": "string"
        }
      ],
      "name": "addCMO",
      "outputs": [],
      "payable": false,
      "stateMutability": "nonpayable",
      "type": "function"
    },
    {
      "constant": true,
      "inputs": [],
      "name": "getCMOs",
      "outputs": [
        {
          "name": "",
          "type": "string[]"
        }
      ],
      "payable": false,
      "stateMutability": "view",
      "type": "function"
    },
    {
      "constant": true,
      "inputs": [
        {
          "name": "account",
          "type": "address"
        }
      ],
      "name": "isSigner",
      "outputs": [
        {
          "name": "",
          "type": "bool"
        }
      ],
      "payable": false,
      "stateMutability": "view",
      "type": "function"
    },
    {
      "constant": false,
      "inputs": [
        {
          "name": "_index",
          "type": "uint256"
        }
      ],
      "name": "deleteCMO",
      "outputs": [],
      "payable": false,
      "stateMutability": "nonpayable",
      "type": "function"
    },
    {
      "constant": false,
      "inputs": [],
      "name": "renounceSigner",
      "outputs": [],
      "payable": false,
      "stateMutability": "nonpayable",
      "type": "function"
    },
    {
      "constant": false,
      "inputs": [
        {
          "name": "account",
          "type": "address"
        }
      ],
      "name": "addSigner",
      "outputs": [],
      "payable": false,
      "stateMutability": "nonpayable",
      "type": "function"
    },
    {
      "constant": true,
      "inputs": [],
      "name": "memberIdCounter_",
      "outputs": [
        {
          "name": "",
          "type": "uint256"
        }
      ],
      "payable": false,
      "stateMutability": "view",
      "type": "function"
    },
    {
      "anonymous": false,
      "inputs": [
        {
          "indexed": true,
          "name": "account",
          "type": "address"
        }
      ],
      "name": "SignerAdded",
      "type": "event"
    },
    {
      "anonymous": false,
      "inputs": [
        {
          "indexed": true,
          "name": "account",
          "type": "address"
        }
      ],
      "name": "SignerRemoved",
      "type": "event"
    },
    {
      "constant": false,
      "inputs": [
        {
          "name": "_creationDate",
          "type": "uint256"
        },
        {
          "name": "_name",
          "type": "string"
        },
        {
          "name": "_logo",
          "type": "string"
        },
        {
          "name": "_country",
          "type": "string"
        },
        {
          "name": "_cmo",
          "type": "string"
        },
        {
          "name": "_theme",
          "type": "string"
        }
      ],
      "name": "addMember",
      "outputs": [
        {
          "name": "",
          "type": "uint256"
        }
      ],
      "payable": false,
      "stateMutability": "nonpayable",
      "type": "function"
    },
    {
      "constant": false,
      "inputs": [
        {
          "name": "_memberId",
          "type": "uint256"
        },
        {
          "name": "_creationDate",
          "type": "uint256"
        },
        {
          "name": "_name",
          "type": "string"
        },
        {
          "name": "_logo",
          "type": "string"
        },
        {
          "name": "_country",
          "type": "string"
        },
        {
          "name": "_cmo",
          "type": "string"
        },
        {
          "name": "_theme",
          "type": "string"
        }
      ],
      "name": "updateMember",
      "outputs": [],
      "payable": false,
      "stateMutability": "nonpayable",
      "type": "function"
    },
    {
      "constant": true,
      "inputs": [
        {
          "name": "_page",
          "type": "uint256"
        }
      ],
      "name": "getMembers",
      "outputs": [
        {
          "components": [
            {
              "name": "memberId",
              "type": "uint256"
            },
            {
              "name": "creationDate",
              "type": "uint256"
            },
            {
              "name": "name",
              "type": "string"
            },
            {
              "name": "logo",
              "type": "string"
            },
            {
              "name": "country",
              "type": "string"
            },
            {
              "name": "cmo",
              "type": "string"
            },
            {
              "name": "theme",
              "type": "string"
            },
            {
              "name": "claimInbox",
              "type": "uint256[]"
            },
            {
              "name": "claims",
              "type": "uint256[]"
            },
            {
              "name": "userRequests",
              "type": "address[]"
            }
          ],
          "name": "",
          "type": "tuple[]"
        }
      ],
      "payable": false,
      "stateMutability": "view",
      "type": "function"
    },
    {
      "constant": true,
      "inputs": [],
      "name": "getMembers",
      "outputs": [
        {
          "components": [
            {
              "name": "memberId",
              "type": "uint256"
            },
            {
              "name": "creationDate",
              "type": "uint256"
            },
            {
              "name": "name",
              "type": "string"
            },
            {
              "name": "logo",
              "type": "string"
            },
            {
              "name": "country",
              "type": "string"
            },
            {
              "name": "cmo",
              "type": "string"
            },
            {
              "name": "theme",
              "type": "string"
            },
            {
              "name": "claimInbox",
              "type": "uint256[]"
            },
            {
              "name": "claims",
              "type": "uint256[]"
            },
            {
              "name": "userRequests",
              "type": "address[]"
            }
          ],
          "name": "",
          "type": "tuple[]"
        }
      ],
      "payable": false,
      "stateMutability": "view",
      "type": "function"
    },
    {
      "constant": true,
      "inputs": [],
      "name": "getCount",
      "outputs": [
        {
          "name": "",
          "type": "uint256"
        }
      ],
      "payable": false,
      "stateMutability": "view",
      "type": "function"
    },
    {
      "constant": true,
      "inputs": [
        {
          "name": "_memberId",
          "type": "uint256"
        }
      ],
      "name": "_getClaimsIdByMember",
      "outputs": [
        {
          "name": "",
          "type": "uint256[]"
        }
      ],
      "payable": false,
      "stateMutability": "view",
      "type": "function"
    },
    {
      "constant": true,
      "inputs": [
        {
          "name": "_memberId",
          "type": "uint256"
        }
      ],
      "name": "_getClaimsCountByMember",
      "outputs": [
        {
          "name": "",
          "type": "uint256"
        }
      ],
      "payable": false,
      "stateMutability": "view",
      "type": "function"
    },
    {
      "constant": false,
      "inputs": [
        {
          "name": "_memberId",
          "type": "uint256"
        },
        {
          "name": "_claimId",
          "type": "uint256"
        }
      ],
      "name": "_addClaimIdToMemberOwner",
      "outputs": [],
      "payable": false,
      "stateMutability": "nonpayable",
      "type": "function"
    },
    {
      "constant": false,
      "inputs": [
        {
          "name": "_memberId",
          "type": "uint256"
        },
        {
          "name": "_claimId",
          "type": "uint256"
        }
      ],
      "name": "_removeClaimIdFromMember",
      "outputs": [],
      "payable": false,
      "stateMutability": "nonpayable",
      "type": "function"
    },
    {
      "constant": false,
      "inputs": [
        {
          "name": "_memberId",
          "type": "uint256"
        },
        {
          "name": "_claimId",
          "type": "uint256"
        }
      ],
      "name": "_addClaimFromInbox",
      "outputs": [],
      "payable": false,
      "stateMutability": "nonpayable",
      "type": "function"
    },
    {
      "constant": true,
      "inputs": [
        {
          "name": "_memberId",
          "type": "uint256"
        }
      ],
      "name": "_memberExists",
      "outputs": [
        {
          "name": "",
          "type": "bool"
        }
      ],
      "payable": false,
      "stateMutability": "view",
      "type": "function"
    },
    {
      "constant": false,
      "inputs": [
        {
          "name": "_memberId",
          "type": "uint256"
        },
        {
          "name": "_claimId",
          "type": "uint256"
        }
      ],
      "name": "_removeClaimFromInbox",
      "outputs": [],
      "payable": false,
      "stateMutability": "nonpayable",
      "type": "function"
    }
  ],
  "bytecode": "0x608060405260006003556200001d3364010000000062000023810204565b62000108565b6200003e60008264010000000062001ea66200007582021704565b604051600160a060020a038216907f47d1c22a25bb3a5d4e481b9b1e6944c2eade3181a0a20b495ed61d35b5323f2490600090a250565b600160a060020a03811615156200008b57600080fd5b620000a08282640100000000620000d0810204565b15620000ab57600080fd5b600160a060020a0316600090815260209190915260409020805460ff19166001179055565b6000600160a060020a0382161515620000e857600080fd5b50600160a060020a03166000908152602091909152604090205460ff1690565b612be180620001186000396000f3006080604052600436106101115763ffffffff7c01000000000000000000000000000000000000000000000000000000006000350416630deae26881146101165780633a59ccf1146101525780636262dff614610174578063656d561c146101a157806365ff0c48146101c357806374853239146101e35780637df73e27146102035780638b92892b146102305780639eab525314610250578063a29d441f14610272578063a87d942c14610292578063affccd84146102b4578063bf3d007e146102d4578063c477ecab146102f4578063e2c11f9e14610314578063e5c8b03d14610334578063eb12d61e14610349578063f838073314610369578063fa1188c614610389578063fa92dbdf146103a9575b600080fd5b34801561012257600080fd5b506101366101313660046122ab565b6103be565b6040516101499796959493929190612a71565b60405180910390f35b34801561015e57600080fd5b5061017261016d366004612276565b6106a8565b005b34801561018057600080fd5b5061019461018f3660046122ab565b610704565b60405161014991906129c4565b3480156101ad57600080fd5b506101b66107a2565b60405161014991906129a2565b3480156101cf57600080fd5b506101726101de366004612402565b61087b565b3480156101ef57600080fd5b506101726101fe3660046123c8565b610946565b34801561020f57600080fd5b5061022361021e366004612250565b61096c565b60405161014991906129d5565b34801561023c57600080fd5b5061017261024b3660046123c8565b610984565b34801561025c57600080fd5b50610265610aa2565b60405161014991906129b3565b34801561027e57600080fd5b5061017261028d3660046123c8565b610f6f565b34801561029e57600080fd5b506102a761103e565b6040516101499190612a63565b3480156102c057600080fd5b506102a76102cf3660046122ab565b61105b565b3480156102e057600080fd5b506101726102ef3660046122ab565b611070565b34801561030057600080fd5b5061026561030f3660046122ab565b61112d565b34801561032057600080fd5b5061017261032f3660046123c8565b611648565b34801561034057600080fd5b5061017261166e565b34801561035557600080fd5b50610172610364366004612250565b611679565b34801561037557600080fd5b506102236103843660046122ab565b611699565b34801561039557600080fd5b506102a76103a43660046122c9565b6116ac565b3480156103b557600080fd5b506102a761173b565b6002602081815260009283526040928390208054600180830154838601805488519381161561010002600019011696909604601f81018690048602830186019097528682529195919492939092919083018282801561045e5780601f106104335761010080835404028352916020019161045e565b820191906000526020600020905b81548152906001019060200180831161044157829003601f168201915b5050505060038301805460408051602060026001851615610100026000190190941693909304601f81018490048402820184019092528181529495949350908301828280156104ee5780601f106104c3576101008083540402835291602001916104ee565b820191906000526020600020905b8154815290600101906020018083116104d157829003601f168201915b5050505060048301805460408051602060026001851615610100026000190190941693909304601f810184900484028201840190925281815294959493509083018282801561057e5780601f106105535761010080835404028352916020019161057e565b820191906000526020600020905b81548152906001019060200180831161056157829003601f168201915b5050505060058301805460408051602060026001851615610100026000190190941693909304601f810184900484028201840190925281815294959493509083018282801561060e5780601f106105e35761010080835404028352916020019161060e565b820191906000526020600020905b8154815290600101906020018083116105f157829003601f168201915b5050505060068301805460408051602060026001851615610100026000190190941693909304601f810184900484028201840190925281815294959493509083018282801561069e5780601f106106735761010080835404028352916020019161069e565b820191906000526020600020905b81548152906001019060200180831161068157829003601f168201915b5050505050905087565b6106b13361096c565b15156106bc57600080fd5b6001805480820180835560009290925282516106ff917fb10e2d527612073b26eecdfd717e6a320cf44b4afac2b0732d9fcbe2b7fa0cf601906020850190611ef4565b505050565b6000818152600260205260408120546060911061073f5760405160e560020a62461bcd028152600401610736906129f3565b60405180910390fd5b6000828152600260209081526040918290206008018054835181840281018401909452808452909183018282801561079657602002820191906000526020600020905b815481526020019060010190808311610782575b50505050509050919050565b60606001805480602002602001604051908101604052809291908181526020016000905b828210156108715760008481526020908190208301805460408051601f600260001961010060018716150201909416939093049283018590048502810185019091528181529283018282801561085d5780601f106108325761010080835404028352916020019161085d565b820191906000526020600020905b81548152906001019060200180831161084057829003601f168201915b5050505050815260200190600101906107c6565b5050505090505b90565b6108843361096c565b151561088f57600080fd5b600087815260026020526040812054116108be5760405160e560020a62461bcd02815260040161073690612a13565b60008781526002602052604090206001015486146108f15760405160e560020a62461bcd028152600401610736906129e3565b6000878152600260208181526040909220875161091693919092019190880190611ef4565b506000878152600260209081526040909120825161093c92600690920191840190611ef4565b5050505050505050565b600091825260026020908152604083206007018054600181018255908452922090910155565b600061097e818363ffffffff61174116565b92915050565b6000805b60008481526002602052604090206007015460001901811015610a445760008481526002602052604090206007018054849190839081106109c557fe5b906000526020600020015414156109db57600191505b8115610a3c576000848152600260205260409020600701805460018301908110610a0157fe5b90600052602060002001546002600086815260200190815260200160002060070182815481101515610a2f57fe5b6000918252602090912001555b600101610988565b8115610a9c57600084815260026020526040902060070180546000198101908110610a6b57fe5b600091825260208083209091018290558582526002905260409020600701805490610a9a906000198301611f72565b505b50505050565b6060806000600480549050604051908082528060200260200182016040528015610ae657816020015b610ad3611f96565b815260200190600190039081610acb5790505b509150600090505b600454811015610f695760026000600483815481101515610b0b57fe5b9060005260206000200154815260200190815260200160002061014060405190810160405290816000820154815260200160018201548152602001600282018054600181600116156101000203166002900480601f016020809104026020016040519081016040528092919081815260200182805460018160011615610100020316600290048015610bde5780601f10610bb357610100808354040283529160200191610bde565b820191906000526020600020905b815481529060010190602001808311610bc157829003601f168201915b505050918352505060038201805460408051602060026001851615610100026000190190941693909304601f8101849004840282018401909252818152938201939291830182828015610c725780601f10610c4757610100808354040283529160200191610c72565b820191906000526020600020905b815481529060010190602001808311610c5557829003601f168201915b505050918352505060048201805460408051602060026001851615610100026000190190941693909304601f8101849004840282018401909252818152938201939291830182828015610d065780601f10610cdb57610100808354040283529160200191610d06565b820191906000526020600020905b815481529060010190602001808311610ce957829003601f168201915b505050918352505060058201805460408051602060026001851615610100026000190190941693909304601f8101849004840282018401909252818152938201939291830182828015610d9a5780601f10610d6f57610100808354040283529160200191610d9a565b820191906000526020600020905b815481529060010190602001808311610d7d57829003601f168201915b505050918352505060068201805460408051602060026001851615610100026000190190941693909304601f8101849004840282018401909252818152938201939291830182828015610e2e5780601f10610e0357610100808354040283529160200191610e2e565b820191906000526020600020905b815481529060010190602001808311610e1157829003601f168201915b5050505050815260200160078201805480602002602001604051908101604052809291908181526020018280548015610e8657602002820191906000526020600020905b815481526020019060010190808311610e72575b5050505050815260200160088201805480602002602001604051908101604052809291908181526020018280548015610ede57602002820191906000526020600020905b815481526020019060010190808311610eca575b5050505050815260200160098201805480602002602001604051908101604052809291908181526020018280548015610f4057602002820191906000526020600020905b8154600160a060020a03168152600190910190602001808311610f22575b5050505050815250508282815181101515610f5757fe5b60209081029091010152600101610aee565b50919050565b600082815260026020526040812060080154908111156106ff57600083815260026020526040902060080180546000198301908110610faa57fe5b90600052602060002001546002600085815260200190815260200160002060080183815481101515610fd857fe5b906000526020600020018190555081600260008581526020019081526020016000206008016001830381548110151561100d57fe5b6000918252602080832090910192909255848152600290915260409020600801805490610a9c906000198301611f72565b60006110493361096c565b151561105457600080fd5b5060045490565b60009081526002602052604090206008015490565b600061107b3361096c565b151561108657600080fd5b50805b600154600019018110156110f257600180548282019081106110a757fe5b906000526020600020016001828154811015156110c057fe5b9060005260206000200190805460018160011615610100020316600290046110e9929190611fea565b50600101611089565b60018054600019810190811061110457fe5b90600052602060002001600061111a919061205f565b60018054906106ff9060001983016120a3565b6060600080600060606000611143600a88611778565b60045490955061115490600a6117b1565b600454909450158061116b57506004546000190185115b8061117557508387115b1561117f5761163e565b60408051600a80825261016082019092526000945090816020015b6111a2611f96565b81526020019060019003908161119a5790505091508490505b60045481101561163a57600260006004838154811015156111d857fe5b9060005260206000200154815260200190815260200160002061014060405190810160405290816000820154815260200160018201548152602001600282018054600181600116156101000203166002900480601f0160208091040260200160405190810160405280929190818152602001828054600181600116156101000203166002900480156112ab5780601f10611280576101008083540402835291602001916112ab565b820191906000526020600020905b81548152906001019060200180831161128e57829003601f168201915b505050918352505060038201805460408051602060026001851615610100026000190190941693909304601f810184900484028201840190925281815293820193929183018282801561133f5780601f106113145761010080835404028352916020019161133f565b820191906000526020600020905b81548152906001019060200180831161132257829003601f168201915b505050918352505060048201805460408051602060026001851615610100026000190190941693909304601f81018490048402820184019092528181529382019392918301828280156113d35780601f106113a8576101008083540402835291602001916113d3565b820191906000526020600020905b8154815290600101906020018083116113b657829003601f168201915b505050918352505060058201805460408051602060026001851615610100026000190190941693909304601f81018490048402820184019092528181529382019392918301828280156114675780601f1061143c57610100808354040283529160200191611467565b820191906000526020600020905b81548152906001019060200180831161144a57829003601f168201915b505050918352505060068201805460408051602060026001851615610100026000190190941693909304601f81018490048402820184019092528181529382019392918301828280156114fb5780601f106114d0576101008083540402835291602001916114fb565b820191906000526020600020905b8154815290600101906020018083116114de57829003601f168201915b505050505081526020016007820180548060200260200160405190810160405280929190818152602001828054801561155357602002820191906000526020600020905b81548152602001906001019080831161153f575b50505050508152602001600882018054806020026020016040519081016040528092919081815260200182805480156115ab57602002820191906000526020600020905b815481526020019060010190808311611597575b505050505081526020016009820180548060200260200160405190810160405280929190818152602001828054801561160d57602002820191906000526020600020905b8154600160a060020a031681526001909101906020018083116115ef575b505050505081525050828481518110151561162457fe5b60209081029091010152600192830192016111bb565b8195505b5050505050919050565b600091825260026020908152604083206008018054600181018255908452922090910155565b611677336117d4565b565b6116823361096c565b151561168d57600080fd5b6116968161181c565b50565b6000908152600260205260408120541190565b6000806116b83361096c565b15156116c357600080fd5b600088116116e65760405160e560020a62461bcd02815260040161073690612a53565b506003805460010190819055600081815260026020526040902054156117215760405160e560020a62461bcd02815260040161073690612a03565b61173081898989898989611864565b979650505050505050565b60035481565b6000600160a060020a038216151561175857600080fd5b50600160a060020a03166000908152602091909152604090205460ff1690565b60008083151561178b57600091506117aa565b5082820282848281151561179b57fe5b04146117a657600080fd5b8091505b5092915050565b6000808083116117c057600080fd5b82848115156117cb57fe5b04949350505050565b6117e560008263ffffffff611e5a16565b604051600160a060020a038216907f3525e22824a8a7df2c9a6029941c824cf95b6447f1e13d5128fd3826d35afe8b90600090a250565b61182d60008263ffffffff611ea616565b604051600160a060020a038216907f47d1c22a25bb3a5d4e481b9b1e6944c2eade3181a0a20b495ed61d35b5323f2490600090a250565b61186c611f96565b8551151561188f5760405160e560020a62461bcd02815260040161073690612a43565b825115156118b25760405160e560020a62461bcd02815260040161073690612a33565b815115156118d55760405160e560020a62461bcd02815260040161073690612a23565b6000888152600260208181526040928390208351610140810185528154815260018083015482850152828501805487519281161561010002600019011695909504601f810185900485028201850187528082529195929492860193909291908301828280156119855780601f1061195a57610100808354040283529160200191611985565b820191906000526020600020905b81548152906001019060200180831161196857829003601f168201915b505050918352505060038201805460408051602060026001851615610100026000190190941693909304601f8101849004840282018401909252818152938201939291830182828015611a195780601f106119ee57610100808354040283529160200191611a19565b820191906000526020600020905b8154815290600101906020018083116119fc57829003601f168201915b505050918352505060048201805460408051602060026001851615610100026000190190941693909304601f8101849004840282018401909252818152938201939291830182828015611aad5780601f10611a8257610100808354040283529160200191611aad565b820191906000526020600020905b815481529060010190602001808311611a9057829003601f168201915b505050918352505060058201805460408051602060026001851615610100026000190190941693909304601f8101849004840282018401909252818152938201939291830182828015611b415780601f10611b1657610100808354040283529160200191611b41565b820191906000526020600020905b815481529060010190602001808311611b2457829003601f168201915b505050918352505060068201805460408051602060026001851615610100026000190190941693909304601f8101849004840282018401909252818152938201939291830182828015611bd55780601f10611baa57610100808354040283529160200191611bd5565b820191906000526020600020905b815481529060010190602001808311611bb857829003601f168201915b5050505050815260200160078201805480602002602001604051908101604052809291908181526020018280548015611c2d57602002820191906000526020600020905b815481526020019060010190808311611c19575b5050505050815260200160088201805480602002602001604051908101604052809291908181526020018280548015611c8557602002820191906000526020600020905b815481526020019060010190808311611c71575b5050505050815260200160098201805480602002602001604051908101604052809291908181526020018280548015611ce757602002820191906000526020600020905b8154600160a060020a03168152600190910190602001808311611cc9575b50505091909252505050888152602080820189815260408084018a8152606085018a90526080850189905260a0850188905260c0850187905260008d81526002808652929020855181559251600184015551805194955085949293611d529392850192910190611ef4565b5060608201518051611d6e916003840191602090910190611ef4565b5060808201518051611d8a916004840191602090910190611ef4565b5060a08201518051611da6916005840191602090910190611ef4565b5060c08201518051611dc2916006840191602090910190611ef4565b5060e08201518051611dde9160078401916020909101906120c7565b506101008201518051611dfb9160088401916020909101906120c7565b506101208201518051611e18916009840191602090910190612101565b5050600480546001810182556000919091527f8a35acfbc15ff81a39ae7d344fd709f28e8600b4aa8c65c6b64bfe7fe36bd19b01989098555050505050505050565b600160a060020a0381161515611e6f57600080fd5b611e798282611741565b1515611e8457600080fd5b600160a060020a0316600090815260209190915260409020805460ff19169055565b600160a060020a0381161515611ebb57600080fd5b611ec58282611741565b15611ecf57600080fd5b600160a060020a0316600090815260209190915260409020805460ff19166001179055565b828054600181600116156101000203166002900490600052602060002090601f016020900481019282601f10611f3557805160ff1916838001178555611f62565b82800160010185558215611f62579182015b82811115611f62578251825591602001919060010190611f47565b50611f6e92915061216f565b5090565b8154818355818111156106ff576000838152602090206106ff91810190830161216f565b61014060405190810160405280600081526020016000815260200160608152602001606081526020016060815260200160608152602001606081526020016060815260200160608152602001606081525090565b828054600181600116156101000203166002900490600052602060002090601f016020900481019282601f106120235780548555611f62565b82800160010185558215611f6257600052602060002091601f016020900482015b82811115611f62578254825591600101919060010190612044565b50805460018160011615610100020316600290046000825580601f106120855750611696565b601f016020900490600052602060002090810190611696919061216f565b8154818355818111156106ff576000838152602090206106ff918101908301612189565b828054828255906000526020600020908101928215611f625791602002820182811115611f62578251825591602001919060010190611f47565b828054828255906000526020600020908101928215612163579160200282015b82811115612163578251825473ffffffffffffffffffffffffffffffffffffffff1916600160a060020a03909116178255602090920191600190910190612121565b50611f6e9291506121ac565b61087891905b80821115611f6e5760008155600101612175565b61087891905b80821115611f6e5760006121a3828261205f565b5060010161218f565b61087891905b80821115611f6e57805473ffffffffffffffffffffffffffffffffffffffff191681556001016121b2565b60006121e98235612b54565b9392505050565b6000601f8201831361220157600080fd5b813561221461220f82612b22565b612afb565b9150808252602083016020830185838301111561223057600080fd5b61223b838284612b65565b50505092915050565b60006121e98235610878565b60006020828403121561226257600080fd5b600061226e84846121dd565b949350505050565b60006020828403121561228857600080fd5b813567ffffffffffffffff81111561229f57600080fd5b61226e848285016121f0565b6000602082840312156122bd57600080fd5b600061226e8484612244565b60008060008060008060c087890312156122e257600080fd5b60006122ee8989612244565b965050602087013567ffffffffffffffff81111561230b57600080fd5b61231789828a016121f0565b955050604087013567ffffffffffffffff81111561233457600080fd5b61234089828a016121f0565b945050606087013567ffffffffffffffff81111561235d57600080fd5b61236989828a016121f0565b935050608087013567ffffffffffffffff81111561238657600080fd5b61239289828a016121f0565b92505060a087013567ffffffffffffffff8111156123af57600080fd5b6123bb89828a016121f0565b9150509295509295509295565b600080604083850312156123db57600080fd5b60006123e78585612244565b92505060206123f885828601612244565b9150509250929050565b600080600080600080600060e0888a03121561241d57600080fd5b60006124298a8a612244565b975050602061243a8a828b01612244565b965050604088013567ffffffffffffffff81111561245757600080fd5b6124638a828b016121f0565b955050606088013567ffffffffffffffff81111561248057600080fd5b61248c8a828b016121f0565b945050608088013567ffffffffffffffff8111156124a957600080fd5b6124b58a828b016121f0565b93505060a088013567ffffffffffffffff8111156124d257600080fd5b6124de8a828b016121f0565b92505060c088013567ffffffffffffffff8111156124fb57600080fd5b6125078a828b016121f0565b91505092959891949750929550565b61251f81612b54565b82525050565b600061253082612b50565b80845260208401935061254283612b4a565b60005b8281101561257257612558868351612516565b61256182612b4a565b602096909601959150600101612545565b5093949350505050565b600061258782612b50565b808452602084019350836020820285016125a085612b4a565b60005b848110156125d75783830388526125bb8383516126e1565b92506125c682612b4a565b6020989098019791506001016125a3565b50909695505050505050565b60006125ee82612b50565b8084526020840193508360208202850161260785612b4a565b60005b848110156125d7578383038852612622838351612896565b925061262d82612b4a565b60209890980197915060010161260a565b600061264982612b50565b80845260208401935061265b83612b4a565b60005b8281101561257257612671868351612999565b61267a82612b4a565b60209690960195915060010161265e565b600061269682612b50565b8084526020840193506126a883612b4a565b60005b82811015612572576126be868351612999565b6126c782612b4a565b6020969096019591506001016126ab565b61251f81612b60565b60006126ec82612b50565b808452612700816020860160208601612b71565b61270981612b9d565b9093016020019392505050565b601a81527f4372656174696f6e204461746520697320696d6d757461626c65000000000000602082015260400190565b601181527f6d656d626572206e6f7420657869737473000000000000000000000000000000602082015260400190565b601581527f4d656d62657220616c7265616479206578697374730000000000000000000000602082015260400190565b601181527f4d656d626572206e6f7420657869737473000000000000000000000000000000602082015260400190565b601281527f5468656d65206973206d616e6461746f72790000000000000000000000000000602082015260400190565b601081527f434d4f206973206d616e6461746f727900000000000000000000000000000000602082015260400190565b601181527f4e616d65206973206d616e6461746f7279000000000000000000000000000000602082015260400190565b601981527f4372656174696f6e44617465206973206d616e6461746f727900000000000000602082015260400190565b80516000906101408401906128ab8582612999565b5060208301516128be6020860182612999565b50604083015184820360408601526128d682826126e1565b915050606083015184820360608601526128f082826126e1565b9150506080830151848203608086015261290a82826126e1565b91505060a083015184820360a086015261292482826126e1565b91505060c083015184820360c086015261293e82826126e1565b91505060e083015184820360e0860152612958828261268b565b915050610100830151848203610100860152612974828261268b565b9150506101208301518482036101208601526129908282612525565b95945050505050565b61251f81610878565b602080825281016121e9818461257c565b602080825281016121e981846125e3565b602080825281016121e9818461263e565b6020810161097e82846126d8565b6020808252810161097e81612716565b6020808252810161097e81612746565b6020808252810161097e81612776565b6020808252810161097e816127a6565b6020808252810161097e816127d6565b6020808252810161097e81612806565b6020808252810161097e81612836565b6020808252810161097e81612866565b6020810161097e8284612999565b60e08101612a7f828a612999565b612a8c6020830189612999565b8181036040830152612a9e81886126e1565b90508181036060830152612ab281876126e1565b90508181036080830152612ac681866126e1565b905081810360a0830152612ada81856126e1565b905081810360c0830152612aee81846126e1565b9998505050505050505050565b60405181810167ffffffffffffffff81118282101715612b1a57600080fd5b604052919050565b600067ffffffffffffffff821115612b3957600080fd5b506020601f91909101601f19160190565b60200190565b5190565b600160a060020a031690565b151590565b82818337506000910152565b60005b83811015612b8c578181015183820152602001612b74565b83811115610a9c5750506000910152565b601f01601f1916905600a265627a7a723058200de37d1fdcb138fdbeac74967608f442749ad08fc2872777fc5d5f20e9512c4c6c6578706572696d656e74616cf50037",
  "source": "pragma solidity ^0.4.24;\npragma experimental ABIEncoderV2;\n\nimport \"./SafeMath.sol\";\nimport \"./random.sol\";\nimport \"./Registry.sol\";\n\ncontract Members is Random, Registry {\n\n  struct Member { \n    uint256 memberId;\n    uint256 creationDate;\n    string name;\n    string logo;\n    string country;\n    string cmo;\n    string theme;\n    uint256[] claimInbox;\n    uint256[] claims;\n    address[] userRequests;\n//    string[] groups;\n  }\n\n  uint256 constant private PAGE_SIZE = 10;\n\n  mapping (uint256 => Member) public members_;\n  uint256 public memberIdCounter_ = 0; // Equals the number of (members + Super Admins) ever inserted, including the deleted ones.\n\n  uint256[] private membersList_;\n\n  // METHODS\n  // Public\n\n  function addMember(uint256 _creationDate, string _name, string _logo, string _country, string _cmo, string _theme) onlySigner public returns(uint) {\n    //  string _group) onlySigner public returns(uint) {\n    require(_creationDate > 0, \"CreationDate is mandatory\");\n//    uint256 _memberId = Random.rand(_creationDate);\n    uint256 _memberId = ++memberIdCounter_;\n    require(members_[_memberId].memberId == 0, \"Member already exists\");\n    _saveMember(_memberId, _creationDate, _name, _logo, _country, _cmo, _theme);\n//    members_[_memberId].group = _group;\n    return _memberId;\n  }\n\n  function updateMember(uint256 _memberId, uint256 _creationDate, string _name, string _logo, string _country, string _cmo, string _theme) onlySigner public {\n  // , string _group) onlySigner public {\n    require(members_[_memberId].memberId > 0, \"Member not exists\");\n    require(members_[_memberId].creationDate == _creationDate, \"Creation Date is immutable\");\n//    _saveMember(_memberId, _creationDate, _name, _logo, _country, _cmo, _theme);\n//    members_[_memberId].group = _group;\n    members_[_memberId].name = _name;\n    members_[_memberId].theme = _theme;\n  }\n\n  function getMembers() public view returns (Member[] memory) {\n    Member[] memory memberPage = new Member[](membersList_.length);\n    for (uint i = 0; i < membersList_.length; ++i) {\n        memberPage[i] = members_[membersList_[i]];\n    }\n    return memberPage;\n  }\n\n  function getMembers(uint _page) public view returns (Member[] memory) {\n    uint256 pageIndex = SafeMath.mul(PAGE_SIZE, _page);\n    uint256 pageNumber = SafeMath.div(membersList_.length, PAGE_SIZE);\n\n    if (membersList_.length == 0 || pageIndex > membersList_.length - 1 || _page > pageNumber) {\n      return;\n    }\n\n    // Insert items filtered into array.\n    uint256 resultCount = 0;\n    Member[] memory memberPage = new Member[](PAGE_SIZE);\n    for(uint j = pageIndex; j < membersList_.length; ++j) {\n        memberPage[resultCount] = members_[membersList_[j]];\n        ++resultCount;\n    }\n    return memberPage;\n  }\n\n  function getCount() onlySigner public view returns (uint256) {\n    return membersList_.length;\n  }\n\n  // Private\n\n  function _saveMember(uint256 _memberId, uint256 _creationDate, string _name, string _logo, string _country, string _cmo, string _theme) internal {\n\n    require(bytes(_name).length != 0, \"Name is mandatory\");\n    require(bytes(_cmo).length != 0, \"CMO is mandatory\");\n    require(bytes(_theme).length != 0, \"Theme is mandatory\");\n\n    Member memory member = members_[_memberId];\n    member.memberId = _memberId;\n    member.creationDate = _creationDate;\n    member.name = _name;\n    member.logo = _logo;\n    member.country = _country;\n    member.cmo = _cmo;\n    member.theme = _theme;\n\n    members_[_memberId] = member;\n    membersList_.push(_memberId);\n\n  }\n\n  function _getClaimsIdByMember(uint _memberId) public view returns(uint[])  {\n    require(members_[_memberId].memberId > 0, \"member not exists\");\n    return members_[_memberId].claims;\n  }\n\n  function _getClaimsCountByMember(uint _memberId) public view returns(uint) {\n    return members_[_memberId].claims.length;\n  }\n\n  function _addUserToMemberRequest(uint _memberId) internal {\n    members_[_memberId].userRequests.push(msg.sender);\n  }\n\n  function _addClaimIdToMemberOwner(uint _memberId, uint _claimId) public {\n    members_[_memberId].claims.push(_claimId);\n  }\n\n  function _removeClaimIdFromMember(uint _memberId, uint _claimId) public {\n//    _rP(_memberId, _claimId);\n//  }\n//\n//  function _rP(uint _memberId, uint _claimId) private {\n    uint claimCount = members_[_memberId].claims.length;\n    if (claimCount > 0) { // require(claimCount > 0, \"not enough claims in member\");\n      members_[_memberId].claims[_claimId] = members_[_memberId].claims[claimCount-1];\n      members_[_memberId].claims[claimCount-1] = _claimId;\n      members_[_memberId].claims.length--;\n    }\n  }\n\n  function _addClaimFromInbox(uint _memberId, uint _claimId) public {\n    members_[_memberId].claimInbox.push(_claimId);\n  }\n\n  function _memberExists(uint _memberId) public view returns(bool) {\n    return members_[_memberId].memberId > 0;\n  }\n\n  function _removeClaimFromInbox(uint _memberId, uint _claimId) public {\n    bool found = false;\n    // Remove index\n    for (uint j = 0; j < members_[_memberId].claimInbox.length - 1; j++) {\n      if(members_[_memberId].claimInbox[j] == _claimId) {\n        found = true;\n      }\n      if(found) {\n        members_[_memberId].claimInbox[j] = members_[_memberId].claimInbox[j + 1];\n      }\n    }\n    if (found) {\n      delete members_[_memberId].claimInbox[members_[_memberId].claimInbox.length - 1];\n      members_[_memberId].claimInbox.length--;\n    }\n  }\n\n  function _clearUserFromMemberRequest(uint _memberId, address userAddress) internal {\n     bool found = false;\n    // Remove index\n    for (uint j = 0; j < members_[_memberId].userRequests.length - 1; j++) {\n      if(members_[_memberId].userRequests[j] == userAddress) {\n        found = true;\n      }\n      if(found) {\n        members_[_memberId].userRequests[j] = members_[_memberId].userRequests[j + 1];\n      }\n    }\n//    if (found) {\n      delete members_[_memberId].userRequests[members_[_memberId].userRequests.length - 1];\n      members_[_memberId].userRequests.length--;\n//    }\n  }\n\n}",
  "sourcePath": "/home/komodo/newUI2/bloomen-decentralized-rights-management-v2/truffle/contracts/registry/Members.sol",
  "compiler": {
    "name": "solc",
    "version": "0.4.24+commit.e67f0147.Emscripten.clang"
  },
  "schemaVersion": "2.0.1",
  "updatedAt": "2020-02-08T18:42:12.578Z"
}