{
  "contractName": "Registry",
  "abi": [
    {
      "constant": false,
      "inputs": [
        {
          "name": "_userToAccept",
          "type": "address"
        }
      ],
      "name": "acceptUser",
      "outputs": [],
      "payable": false,
      "stateMutability": "nonpayable",
      "type": "function"
    },
    {
      "constant": true,
      "inputs": [],
      "name": "getClaimsCountByMemberId",
      "outputs": [
        {
          "name": "",
          "type": "uint256"
        }
      ],
      "payable": false,
      "stateMutability": "view",
      "type": "function"
    },
    {
      "constant": false,
      "inputs": [
        {
          "name": "_creationDate",
          "type": "uint256"
        },
        {
          "name": "_claimData",
          "type": "bytes"
        },
        {
          "name": "_claimType",
          "type": "bool"
        },
        {
          "name": "_memberOwner",
          "type": "uint256"
        }
      ],
      "name": "registerClaim",
      "outputs": [],
      "payable": false,
      "stateMutability": "nonpayable",
      "type": "function"
    },
    {
      "constant": false,
      "inputs": [
        {
          "name": "_userToReject",
          "type": "address"
        }
      ],
      "name": "rejectUser",
      "outputs": [],
      "payable": false,
      "stateMutability": "nonpayable",
      "type": "function"
    },
    {
      "constant": true,
      "inputs": [
        {
          "name": "_claimId",
          "type": "uint256"
        }
      ],
      "name": "getClaim",
      "outputs": [
        {
          "components": [
            {
              "name": "creationDate",
              "type": "uint256"
            },
            {
              "name": "claimId",
              "type": "uint256"
            },
            {
              "components": [
                {
                  "name": "name",
                  "type": "string"
                },
                {
                  "name": "value",
                  "type": "string"
                }
              ],
              "name": "claimData",
              "type": "tuple[]"
            },
            {
              "name": "claimType",
              "type": "bool"
            },
            {
              "name": "memberOwner",
              "type": "uint256"
            },
            {
              "name": "status",
              "type": "bool"
            },
            {
              "name": "lastChange",
              "type": "uint256"
            }
          ],
          "name": "",
          "type": "tuple"
        }
      ],
      "payable": false,
      "stateMutability": "view",
      "type": "function"
    },
    {
      "constant": true,
      "inputs": [
        {
          "name": "_page",
          "type": "uint256"
        }
      ],
      "name": "getUsers",
      "outputs": [
        {
          "components": [
            {
              "name": "creationDate",
              "type": "uint256"
            },
            {
              "name": "firstName",
              "type": "string"
            },
            {
              "name": "lastName",
              "type": "string"
            },
            {
              "name": "memberId",
              "type": "uint256"
            },
            {
              "name": "requestId",
              "type": "uint256"
            },
            {
              "name": "role",
              "type": "string"
            },
            {
              "name": "status",
              "type": "uint8"
            },
            {
              "name": "owner",
              "type": "address"
            }
          ],
          "name": "",
          "type": "tuple[]"
        }
      ],
      "payable": false,
      "stateMutability": "view",
      "type": "function"
    },
    {
      "constant": false,
      "inputs": [
        {
          "name": "_memberId",
          "type": "uint256"
        },
        {
          "name": "_creationDate",
          "type": "uint256"
        },
        {
          "name": "_name",
          "type": "string"
        },
        {
          "name": "_logo",
          "type": "string"
        },
        {
          "name": "_country",
          "type": "string"
        },
        {
          "name": "_cmo",
          "type": "string"
        },
        {
          "name": "_theme",
          "type": "string"
        }
      ],
      "name": "updateMember",
      "outputs": [],
      "payable": false,
      "stateMutability": "nonpayable",
      "type": "function"
    },
    {
      "constant": false,
      "inputs": [
        {
          "name": "_claimId",
          "type": "uint256"
        },
        {
          "name": "_claimType",
          "type": "bool"
        },
        {
          "name": "_claimData",
          "type": "bytes"
        }
      ],
      "name": "checkClaimStatus",
      "outputs": [],
      "payable": false,
      "stateMutability": "nonpayable",
      "type": "function"
    },
    {
      "constant": true,
      "inputs": [
        {
          "name": "userAddress",
          "type": "address"
        }
      ],
      "name": "getUserByAddress",
      "outputs": [
        {
          "components": [
            {
              "name": "creationDate",
              "type": "uint256"
            },
            {
              "name": "firstName",
              "type": "string"
            },
            {
              "name": "lastName",
              "type": "string"
            },
            {
              "name": "memberId",
              "type": "uint256"
            },
            {
              "name": "requestId",
              "type": "uint256"
            },
            {
              "name": "role",
              "type": "string"
            },
            {
              "name": "status",
              "type": "uint8"
            },
            {
              "name": "owner",
              "type": "address"
            }
          ],
          "name": "",
          "type": "tuple"
        }
      ],
      "payable": false,
      "stateMutability": "view",
      "type": "function"
    },
    {
      "constant": true,
      "inputs": [
        {
          "name": "account",
          "type": "address"
        }
      ],
      "name": "isSigner",
      "outputs": [
        {
          "name": "",
          "type": "bool"
        }
      ],
      "payable": false,
      "stateMutability": "view",
      "type": "function"
    },
    {
      "constant": true,
      "inputs": [],
      "name": "getUsersOwner",
      "outputs": [
        {
          "components": [
            {
              "name": "creationDate",
              "type": "uint256"
            },
            {
              "name": "firstName",
              "type": "string"
            },
            {
              "name": "lastName",
              "type": "string"
            },
            {
              "name": "memberId",
              "type": "uint256"
            },
            {
              "name": "requestId",
              "type": "uint256"
            },
            {
              "name": "role",
              "type": "string"
            },
            {
              "name": "status",
              "type": "uint8"
            },
            {
              "name": "owner",
              "type": "address"
            }
          ],
          "name": "",
          "type": "tuple[]"
        }
      ],
      "payable": false,
      "stateMutability": "view",
      "type": "function"
    },
    {
      "constant": true,
      "inputs": [],
      "name": "claimIdCounter_",
      "outputs": [
        {
          "name": "",
          "type": "uint256"
        }
      ],
      "payable": false,
      "stateMutability": "view",
      "type": "function"
    },
    {
      "constant": true,
      "inputs": [],
      "name": "getMembers",
      "outputs": [
        {
          "components": [
            {
              "name": "memberId",
              "type": "uint256"
            },
            {
              "name": "creationDate",
              "type": "uint256"
            },
            {
              "name": "name",
              "type": "string"
            },
            {
              "name": "logo",
              "type": "string"
            },
            {
              "name": "country",
              "type": "string"
            },
            {
              "name": "cmo",
              "type": "string"
            },
            {
              "name": "theme",
              "type": "string"
            },
            {
              "name": "claimInbox",
              "type": "uint256[]"
            },
            {
              "name": "claims",
              "type": "uint256[]"
            },
            {
              "name": "userRequests",
              "type": "address[]"
            }
          ],
          "name": "",
          "type": "tuple[]"
        }
      ],
      "payable": false,
      "stateMutability": "view",
      "type": "function"
    },
    {
      "constant": true,
      "inputs": [],
      "name": "getcountUsers",
      "outputs": [
        {
          "name": "",
          "type": "uint256"
        }
      ],
      "payable": false,
      "stateMutability": "view",
      "type": "function"
    },
    {
      "constant": false,
      "inputs": [
        {
          "name": "_creationDate",
          "type": "uint256"
        },
        {
          "name": "_firstName",
          "type": "string"
        },
        {
          "name": "_lastName",
          "type": "string"
        },
        {
          "name": "_role",
          "type": "string"
        },
        {
          "name": "_memberId",
          "type": "uint256"
        }
      ],
      "name": "registerUserRequest",
      "outputs": [],
      "payable": false,
      "stateMutability": "nonpayable",
      "type": "function"
    },
    {
      "constant": true,
      "inputs": [],
      "name": "getCount",
      "outputs": [
        {
          "name": "",
          "type": "uint256"
        }
      ],
      "payable": false,
      "stateMutability": "view",
      "type": "function"
    },
    {
      "constant": true,
      "inputs": [
        {
          "name": "_page",
          "type": "uint256"
        }
      ],
      "name": "getClaimsByMemberId",
      "outputs": [
        {
          "components": [
            {
              "name": "creationDate",
              "type": "uint256"
            },
            {
              "name": "claimId",
              "type": "uint256"
            },
            {
              "components": [
                {
                  "name": "name",
                  "type": "string"
                },
                {
                  "name": "value",
                  "type": "string"
                }
              ],
              "name": "claimData",
              "type": "tuple[]"
            },
            {
              "name": "claimType",
              "type": "bool"
            },
            {
              "name": "memberOwner",
              "type": "uint256"
            },
            {
              "name": "status",
              "type": "bool"
            },
            {
              "name": "lastChange",
              "type": "uint256"
            }
          ],
          "name": "",
          "type": "tuple[]"
        }
      ],
      "payable": false,
      "stateMutability": "view",
      "type": "function"
    },
    {
      "constant": true,
      "inputs": [
        {
          "name": "",
          "type": "uint256"
        }
      ],
      "name": "claims_",
      "outputs": [
        {
          "name": "creationDate",
          "type": "uint256"
        },
        {
          "name": "claimId",
          "type": "uint256"
        },
        {
          "name": "claimType",
          "type": "bool"
        },
        {
          "name": "memberOwner",
          "type": "uint256"
        },
        {
          "name": "status",
          "type": "bool"
        },
        {
          "name": "lastChange",
          "type": "uint256"
        }
      ],
      "payable": false,
      "stateMutability": "view",
      "type": "function"
    },
    {
      "constant": true,
      "inputs": [],
      "name": "getMe",
      "outputs": [
        {
          "components": [
            {
              "name": "creationDate",
              "type": "uint256"
            },
            {
              "name": "firstName",
              "type": "string"
            },
            {
              "name": "lastName",
              "type": "string"
            },
            {
              "name": "memberId",
              "type": "uint256"
            },
            {
              "name": "requestId",
              "type": "uint256"
            },
            {
              "name": "role",
              "type": "string"
            },
            {
              "name": "status",
              "type": "uint8"
            },
            {
              "name": "owner",
              "type": "address"
            }
          ],
          "name": "",
          "type": "tuple"
        }
      ],
      "payable": false,
      "stateMutability": "view",
      "type": "function"
    },
    {
      "constant": true,
      "inputs": [
        {
          "name": "_page",
          "type": "uint256"
        }
      ],
      "name": "getMembers",
      "outputs": [
        {
          "components": [
            {
              "name": "memberId",
              "type": "uint256"
            },
            {
              "name": "creationDate",
              "type": "uint256"
            },
            {
              "name": "name",
              "type": "string"
            },
            {
              "name": "logo",
              "type": "string"
            },
            {
              "name": "country",
              "type": "string"
            },
            {
              "name": "cmo",
              "type": "string"
            },
            {
              "name": "theme",
              "type": "string"
            },
            {
              "name": "claimInbox",
              "type": "uint256[]"
            },
            {
              "name": "claims",
              "type": "uint256[]"
            },
            {
              "name": "userRequests",
              "type": "address[]"
            }
          ],
          "name": "",
          "type": "tuple[]"
        }
      ],
      "payable": false,
      "stateMutability": "view",
      "type": "function"
    },
    {
      "constant": false,
      "inputs": [
        {
          "name": "_claimId",
          "type": "uint256"
        },
        {
          "name": "_claimData",
          "type": "bytes"
        },
        {
          "name": "_lastChange",
          "type": "uint256"
        }
      ],
      "name": "updateClaim",
      "outputs": [],
      "payable": false,
      "stateMutability": "nonpayable",
      "type": "function"
    },
    {
      "constant": false,
      "inputs": [],
      "name": "renounceSigner",
      "outputs": [],
      "payable": false,
      "stateMutability": "nonpayable",
      "type": "function"
    },
    {
      "constant": false,
      "inputs": [
        {
          "name": "account",
          "type": "address"
        }
      ],
      "name": "addSigner",
      "outputs": [],
      "payable": false,
      "stateMutability": "nonpayable",
      "type": "function"
    },
    {
      "constant": false,
      "inputs": [
        {
          "name": "_creationDate",
          "type": "uint256"
        },
        {
          "name": "_name",
          "type": "string"
        },
        {
          "name": "_logo",
          "type": "string"
        },
        {
          "name": "_country",
          "type": "string"
        },
        {
          "name": "_cmo",
          "type": "string"
        },
        {
          "name": "_theme",
          "type": "string"
        }
      ],
      "name": "addMember",
      "outputs": [
        {
          "name": "",
          "type": "uint256"
        }
      ],
      "payable": false,
      "stateMutability": "nonpayable",
      "type": "function"
    },
    {
      "constant": false,
      "inputs": [
        {
          "name": "_firstName",
          "type": "string"
        },
        {
          "name": "_lastName",
          "type": "string"
        },
        {
          "name": "_memberId",
          "type": "uint256"
        },
        {
          "name": "_role",
          "type": "string"
        },
        {
          "name": "owner",
          "type": "address"
        }
      ],
      "name": "updateUser",
      "outputs": [],
      "payable": false,
      "stateMutability": "nonpayable",
      "type": "function"
    },
    {
      "constant": false,
      "inputs": [
        {
          "name": "account",
          "type": "address"
        }
      ],
      "name": "whitelistAdmin",
      "outputs": [],
      "payable": false,
      "stateMutability": "nonpayable",
      "type": "function"
    },
    {
      "anonymous": false,
      "inputs": [
        {
          "indexed": true,
          "name": "account",
          "type": "address"
        }
      ],
      "name": "SignerAdded",
      "type": "event"
    },
    {
      "anonymous": false,
      "inputs": [
        {
          "indexed": true,
          "name": "account",
          "type": "address"
        }
      ],
      "name": "SignerRemoved",
      "type": "event"
    },
    {
      "constant": false,
      "inputs": [
        {
          "name": "_cmo",
          "type": "string"
        }
      ],
      "name": "addCMO",
      "outputs": [],
      "payable": false,
      "stateMutability": "nonpayable",
      "type": "function"
    },
    {
      "constant": false,
      "inputs": [
        {
          "name": "_index",
          "type": "uint256"
        }
      ],
      "name": "deleteCMO",
      "outputs": [],
      "payable": false,
      "stateMutability": "nonpayable",
      "type": "function"
    },
    {
      "constant": true,
      "inputs": [],
      "name": "getCMOs",
      "outputs": [
        {
          "name": "",
          "type": "string[]"
        }
      ],
      "payable": false,
      "stateMutability": "view",
      "type": "function"
    }
  ],
  "bytecode": "0x608060405260006006556200001d3364010000000062000023810204565b62000108565b6200003e600082640100000000620049ed6200007582021704565b604051600160a060020a038216907f47d1c22a25bb3a5d4e481b9b1e6944c2eade3181a0a20b495ed61d35b5323f2490600090a250565b600160a060020a03811615156200008b57600080fd5b620000a08282640100000000620000d0810204565b15620000ab57600080fd5b600160a060020a0316600090815260209190915260409020805460ff19166001179055565b6000600160a060020a0382161515620000e857600080fd5b50600160a060020a03166000908152602091909152604090205460ff1690565b615fb980620001186000396000f3006080604052600436106101745763ffffffff7c010000000000000000000000000000000000000000000000000000000060003504166308bdc24d81146101795780631be8850b1461019b578063373cfbb9146101c65780633a59ccf1146101e65780634dc92885146102065780635aef2447146102265780635d73ab9a14610253578063656d561c1461028057806365ff0c48146102a257806368d3b46b146102c257806369c212f6146102e25780637df73e271461030f578063932191be1461033c5780639c4d6e32146103515780639eab525314610366578063a4fdc59414610388578063a7ed1fe41461039d578063a87d942c146103bd578063b6bc3812146103d2578063b90dad9a146103ff578063bf3d007e14610431578063c11e1ff314610451578063c477ecab14610466578063cb68b9e814610486578063e5c8b03d146104a6578063eb12d61e146104bb578063fa1188c6146104db578063fcfbde5b146104fb578063ff240fce1461051b575b600080fd5b34801561018557600080fd5b50610199610194366004614e9b565b61053b565b005b3480156101a757600080fd5b506101b06106d7565b6040516101bd9190615e5b565b60405180910390f35b3480156101d257600080fd5b506101996101e1366004615035565b6106f4565b3480156101f257600080fd5b50610199610201366004614ec1565b6107b4565b34801561021257600080fd5b50610199610221366004614e9b565b610811565b34801561023257600080fd5b50610246610241366004614fb2565b610975565b6040516101bd9190615e39565b34801561025f57600080fd5b5061027361026e366004614fb2565b610b74565b6040516101bd9190615cfa565b34801561028c57600080fd5b50610295610f4f565b6040516101bd9190615cc7565b3480156102ae57600080fd5b506101996102bd3660046152b8565b611028565b3480156102ce57600080fd5b506101996102dd366004614fd0565b6110b7565b3480156102ee57600080fd5b506103026102fd366004614e9b565b611c49565b6040516101bd9190615e4a565b34801561031b57600080fd5b5061032f61032a366004614e9b565b611e9d565b6040516101bd9190615d0b565b34801561034857600080fd5b50610273611eb5565b34801561035d57600080fd5b506101b06121a6565b34801561037257600080fd5b5061037b6121ac565b6040516101bd9190615ce9565b34801561039457600080fd5b506101b0612673565b3480156103a957600080fd5b506101996103b8366004615208565b612738565b3480156103c957600080fd5b506101b06127ff565b3480156103de57600080fd5b506103f26103ed366004614fb2565b61281c565b6040516101bd9190615cd8565b34801561040b57600080fd5b5061041f61041a366004614fb2565b612b1e565b6040516101bd96959493929190615e69565b34801561043d57600080fd5b5061019961044c366004614fb2565b612b5a565b34801561045d57600080fd5b50610302612c18565b34801561047257600080fd5b5061037b610481366004614fb2565b612ca9565b34801561049257600080fd5b506101996104a13660046150ae565b6131c4565b3480156104b257600080fd5b50610199613227565b3480156104c757600080fd5b506101996104d6366004614e9b565b613232565b3480156104e757600080fd5b506101b06104f6366004615109565b61324f565b34801561050757600080fd5b50610199610516366004614ef6565b6132de565b34801561052757600080fd5b50610199610536366004614e9b565b6133cc565b600160a060020a038181166000908152600360205260408120600601546101009004909116116105895760405160e560020a62461bcd02815260040161058090615d59565b60405180910390fd5b600160a060020a03811660009081526003602081905260408083208201543384529220015414806105be57506105be33611e9d565b15156105df5760405160e560020a62461bcd02815260040161058090615d69565b60023360009081526003602052604090206006015460ff16600281111561060257fe5b1480610612575061061233611e9d565b15156106335760405160e560020a62461bcd02815260040161058090615df9565b6001600160a060020a03821660009081526003602052604090206006015460ff16600281111561065f57fe5b1461067f5760405160e560020a62461bcd02815260040161058090615d39565b600160a060020a038116600090815260036020526040902060060180546002919060ff19166001835b0217905550600160a060020a038116600090815260036020819052604090912001546106d490826134a0565b50565b6000806106e2613608565b90506106ed8161361f565b91505b5090565b60008085116107185760405160e560020a62461bcd02815260040161058090615e29565b50600680546001019081905561072d82613634565b151561074e5760405160e560020a62461bcd02815260040161058090615da9565b610756613608565b9150610768818686868660008b613647565b61077282826137a1565b60016006541115610788576107888184866110b7565b6000818152600560208190526040909120015460ff16156107ad576107ad82826137c6565b5050505050565b6107bd33611e9d565b15156107c857600080fd5b6007805460018101808355600092909252825161080c917fa66cc928b5edb82af9bd49922954155ab7b0942694bea4ce44661d9a8736c68801906020850190614a3b565b505050565b600160a060020a038181166000908152600360205260408120600601546101009004909116116108565760405160e560020a62461bcd02815260040161058090615d59565b600160a060020a038116600090815260036020819052604080832082015433845292200154148061088b575061088b33611e9d565b15156108ac5760405160e560020a62461bcd02815260040161058090615d69565b60023360009081526003602052604090206006015460ff1660028111156108cf57fe5b14806108df57506108df33611e9d565b15156109005760405160e560020a62461bcd02815260040161058090615df9565b6001600160a060020a03821660009081526003602052604090206006015460ff16600281111561092c57fe5b1461094c5760405160e560020a62461bcd02815260040161058090615d79565b600160a060020a0381166000908152600360205260408120600601805460ff19166001836106a8565b61097d614ab5565b6005600083815260200190815260200160002060e06040519081016040529081600082015481526020016001820154815260200160028201805480602002602001604051908101604052809291908181526020016000905b82821015610b335760008481526020908190206040805160028681029093018054600181161561010002600019011693909304601f810185900490940281016060908101835291810184815290938492849190840182828015610a795780601f10610a4e57610100808354040283529160200191610a79565b820191906000526020600020905b815481529060010190602001808311610a5c57829003601f168201915b50505050508152602001600182018054600181600116156101000203166002900480601f016020809104026020016040519081016040528092919081815260200182805460018160011615610100020316600290048015610b1b5780601f10610af057610100808354040283529160200191610b1b565b820191906000526020600020905b815481529060010190602001808311610afe57829003601f168201915b505050505081525050815260200190600101906109d5565b50505090825250600382015460ff90811615156020830152600483015460408301526005830154161515606082015260069091015460809091015292915050565b606060008060006060600080610b88612673565b9550610b95600a896137eb565b600454909550610ba690600a613824565b9350851580610bb457508585115b80610bbe57508388115b15610bc857610f44565b60408051600a808252610160820190925290816020015b610be7614af7565b815260200190600190039081610bdf579050509250600091508490505b600454811015610f405733600090815260036020819052604082208101546004805491939185908110610c3357fe5b6000918252602080832090910154600160a060020a03168352820192909252604001902060030154148015610cb05750600260036000600484815481101515610c7857fe5b6000918252602080832090910154600160a060020a0316835282019290925260400190206006015460ff166002811115610cae57fe5b145b15610f385760036000600483815481101515610cc857fe5b600091825260208083209190910154600160a060020a0316835282810193909352604091820190208151610100808201845282548252600180840180548651600293821615909402600019011691909104601f81018790048702830187019095528482529194929385840193919291830182828015610d885780601f10610d5d57610100808354040283529160200191610d88565b820191906000526020600020905b815481529060010190602001808311610d6b57829003601f168201915b5050509183525050600282810180546040805160206001841615610100026000190190931694909404601f81018390048302850183019091528084529381019390830182828015610e1a5780601f10610def57610100808354040283529160200191610e1a565b820191906000526020600020905b815481529060010190602001808311610dfd57829003601f168201915b505050505081526020016003820154815260200160048201548152602001600582018054600181600116156101000203166002900480601f016020809104026020016040519081016040528092919081815260200182805460018160011615610100020316600290048015610ed05780601f10610ea557610100808354040283529160200191610ed0565b820191906000526020600020905b815481529060010190602001808311610eb357829003601f168201915b5050509183525050600682015460209091019060ff166002811115610ef157fe5b6002811115610efc57fe5b8152600691909101546101009004600160a060020a03166020909101528351849084908110610f2757fe5b602090810290910101526001909101905b600101610c04565b8296505b505050505050919050565b60606007805480602002602001604051908101604052809291908181526020016000905b8282101561101e5760008481526020908190208301805460408051601f600260001961010060018716150201909416939093049283018590048502810185019091528181529283018282801561100a5780601f10610fdf5761010080835404028352916020019161100a565b820191906000526020600020905b815481529060010190602001808311610fed57829003601f168201915b505050505081526020019060010190610f73565b5050505090505b90565b61103133611e9d565b151561103c57600080fd5b6000878152600160205260408120541161106b5760405160e560020a62461bcd02815260040161058090615dc9565b60008781526001602081905260409091200154861461109f5760405160e560020a62461bcd02815260040161058090615d19565b6110ae87878787878787613847565b50505050505050565b6110bf614b48565b6060600060606000806000806110d489613e40565b97506110df88613e8e565b96506111216111058860058151811015156110f657fe5b90602001906020020151613e8e565b8051600190811061111257fe5b90602001906020020151613f61565b9550600193505b6006548411611c3c5760008481526005602052604090206003015460ff1615158a15151480156111585750838b14155b15611c315760008481526005602052604081206002018054909190811061117b57fe5b906000526020600020906002020160010160405160200180828054600181600116156101000203166002900480156111ea5780601f106111c85761010080835404028352918201916111ea565b820191906000526020600020905b8154815290600101906020018083116111d6575b50509150506040516020818303038152906040526040518082805190602001908083835b6020831061122d5780518252601f19909201916020918201910161120e565b6001836020036101000a03801982511681845116808217855250505050505090500191505060405180910390206000191661128f6112738960008151811015156110f657fe5b8051600190811061128057fe5b90602001906020020151613f97565b6040516020018082805190602001908083835b602083106112c15780518252601f1990920191602091820191016112a2565b6001836020036101000a0380198251168184511680821785525050505050509050019150506040516020818303038152906040526040518082805190602001908083835b602083106113245780518252601f199092019160209182019101611305565b6001836020036101000a03801982511681845116808217855250505050505090500191505060405180910390206000191614801561153b575060008481526005602052604090206002018054600190811061137b57fe5b906000526020600020906002020160010160405160200180828054600181600116156101000203166002900480156113ea5780601f106113c85761010080835404028352918201916113ea565b820191906000526020600020905b8154815290600101906020018083116113d6575b50509150506040516020818303038152906040526040518082805190602001908083835b6020831061142d5780518252601f19909201916020918201910161140e565b6001836020036101000a0380198251168184511680821785525050505050509050019150506040518091039020600019166114736112738960018151811015156110f657fe5b6040516020018082805190602001908083835b602083106114a55780518252601f199092019160209182019101611486565b6001836020036101000a0380198251168184511680821785525050505050509050019150506040516020818303038152906040526040518082805190602001908083835b602083106115085780518252601f1990920191602091820191016114e9565b6001836020036101000a038019825116818451168082178552505050505050905001915050604051809103902060001916145b80156117225750600084815260056020526040902060029081018054909190811061156257fe5b906000526020600020906002020160010160405160200180828054600181600116156101000203166002900480156115d15780601f106115af5761010080835404028352918201916115d1565b820191906000526020600020905b8154815290600101906020018083116115bd575b50509150506040516020818303038152906040526040518082805190602001908083835b602083106116145780518252601f1990920191602091820191016115f5565b6001836020036101000a03801982511681845116808217855250505050505090500191505060405180910390206000191661165a6112738960028151811015156110f657fe5b6040516020018082805190602001908083835b6020831061168c5780518252601f19909201916020918201910161166d565b6001836020036101000a0380198251168184511680821785525050505050509050019150506040516020818303038152906040526040518082805190602001908083835b602083106116ef5780518252601f1990920191602091820191016116d0565b6001836020036101000a038019825116818451168082178552505050505050905001915050604051809103902060001916145b8015611907575060008481526005602052604090206002018054600390811061174757fe5b906000526020600020906002020160010160405160200180828054600181600116156101000203166002900480156117b65780601f106117945761010080835404028352918201916117b6565b820191906000526020600020905b8154815290600101906020018083116117a2575b50509150506040516020818303038152906040526040518082805190602001908083835b602083106117f95780518252601f1990920191602091820191016117da565b6001836020036101000a03801982511681845116808217855250505050505090500191505060405180910390206000191661183f6112738960038151811015156110f657fe5b6040516020018082805190602001908083835b602083106118715780518252601f199092019160209182019101611852565b6001836020036101000a0380198251168184511680821785525050505050509050019150506040516020818303038152906040526040518082805190602001908083835b602083106118d45780518252601f1990920191602091820191016118b5565b6001836020036101000a038019825116818451168082178552505050505050905001915050604051809103902060001916145b8015611aec575060008481526005602052604090206002018054600490811061192c57fe5b9060005260206000209060020201600101604051602001808280546001816001161561010002031660029004801561199b5780601f1061197957610100808354040283529182019161199b565b820191906000526020600020905b815481529060010190602001808311611987575b50509150506040516020818303038152906040526040518082805190602001908083835b602083106119de5780518252601f1990920191602091820191016119bf565b6001836020036101000a038019825116818451168082178552505050505050905001915050604051809103902060001916611a246112738960048151811015156110f657fe5b6040516020018082805190602001908083835b60208310611a565780518252601f199092019160209182019101611a37565b6001836020036101000a0380198251168184511680821785525050505050509050019150506040516020818303038152906040526040518082805190602001908083835b60208310611ab95780518252601f199092019160209182019101611a9a565b6001836020036101000a038019825116818451168082178552505050505050905001915050604051809103902060001916145b15611c3157600084815260056020819052604082206002018054929550918110611b1257fe5b90600052602060002090600202016001019150600090505b81546002600019610100600184161502019091160460ff82161015611b5157600101611b2a565b606483870160ff161115611bc85760008b81526005602081905260408083208201805460ff19166001179055868352909120015460ff161515611baa57600084815260056020526040902060040154611baa908c6137c6565b600084815260056020819052604090912001805460ff191660011790555b60008b81526005602081905260408083208201805460ff19166001179055868352909120015460ff161515611c1357600084815260056020526040902060040154611c13908c6137c6565b600084815260056020819052604090912001805460ff191660011790555b600190930192611128565b5050505050505050505050565b611c51614af7565b600160a060020a0382166000908152600360209081526040918290208251610100808201855282548252600180840180548751600293821615909402600019011691909104601f8101869004860283018601909652858252919492938581019391929190830182828015611d065780601f10611cdb57610100808354040283529160200191611d06565b820191906000526020600020905b815481529060010190602001808311611ce957829003601f168201915b5050509183525050600282810180546040805160206001841615610100026000190190931694909404601f81018390048302850183019091528084529381019390830182828015611d985780601f10611d6d57610100808354040283529160200191611d98565b820191906000526020600020905b815481529060010190602001808311611d7b57829003601f168201915b505050505081526020016003820154815260200160048201548152602001600582018054600181600116156101000203166002900480601f016020809104026020016040519081016040528092919081815260200182805460018160011615610100020316600290048015611e4e5780601f10611e2357610100808354040283529160200191611e4e565b820191906000526020600020905b815481529060010190602001808311611e3157829003601f168201915b5050509183525050600682015460209091019060ff166002811115611e6f57fe5b6002811115611e7a57fe5b8152600691909101546101009004600160a060020a031660209091015292915050565b6000611eaf818363ffffffff61400916565b92915050565b6060806000611ec333611e9d565b1515611ece57600080fd5b600454604080518281526020808402820101909152908015611f0a57816020015b611ef7614af7565b815260200190600190039081611eef5790505b509150600090505b6004548110156121a05760036000600483815481101515611f2f57fe5b600091825260208083209190910154600160a060020a0316835282810193909352604091820190208151610100808201845282548252600180840180548651600293821615909402600019011691909104601f81018790048702830187019095528482529194929385840193919291830182828015611fef5780601f10611fc457610100808354040283529160200191611fef565b820191906000526020600020905b815481529060010190602001808311611fd257829003601f168201915b5050509183525050600282810180546040805160206001841615610100026000190190931694909404601f810183900483028501830190915280845293810193908301828280156120815780601f1061205657610100808354040283529160200191612081565b820191906000526020600020905b81548152906001019060200180831161206457829003601f168201915b505050505081526020016003820154815260200160048201548152602001600582018054600181600116156101000203166002900480601f0160208091040260200160405190810160405280929190818152602001828054600181600116156101000203166002900480156121375780601f1061210c57610100808354040283529160200191612137565b820191906000526020600020905b81548152906001019060200180831161211a57829003601f168201915b5050509183525050600682015460209091019060ff16600281111561215857fe5b600281111561216357fe5b8152600691909101546101009004600160a060020a0316602090910152825183908390811061218e57fe5b60209081029091010152600101611f12565b50919050565b60065481565b60608060006002805490506040519080825280602002602001820160405280156121f057816020015b6121dd614b5f565b8152602001906001900390816121d55790505b509150600090505b6002548110156121a0576001600060028381548110151561221557fe5b9060005260206000200154815260200190815260200160002061014060405190810160405290816000820154815260200160018201548152602001600282018054600181600116156101000203166002900480601f0160208091040260200160405190810160405280929190818152602001828054600181600116156101000203166002900480156122e85780601f106122bd576101008083540402835291602001916122e8565b820191906000526020600020905b8154815290600101906020018083116122cb57829003601f168201915b505050918352505060038201805460408051602060026001851615610100026000190190941693909304601f810184900484028201840190925281815293820193929183018282801561237c5780601f106123515761010080835404028352916020019161237c565b820191906000526020600020905b81548152906001019060200180831161235f57829003601f168201915b505050918352505060048201805460408051602060026001851615610100026000190190941693909304601f81018490048402820184019092528181529382019392918301828280156124105780601f106123e557610100808354040283529160200191612410565b820191906000526020600020905b8154815290600101906020018083116123f357829003601f168201915b505050918352505060058201805460408051602060026001851615610100026000190190941693909304601f81018490048402820184019092528181529382019392918301828280156124a45780601f10612479576101008083540402835291602001916124a4565b820191906000526020600020905b81548152906001019060200180831161248757829003601f168201915b505050918352505060068201805460408051602060026001851615610100026000190190941693909304601f81018490048402820184019092528181529382019392918301828280156125385780601f1061250d57610100808354040283529160200191612538565b820191906000526020600020905b81548152906001019060200180831161251b57829003601f168201915b505050505081526020016007820180548060200260200160405190810160405280929190818152602001828054801561259057602002820191906000526020600020905b81548152602001906001019080831161257c575b50505050508152602001600882018054806020026020016040519081016040528092919081815260200182805480156125e857602002820191906000526020600020905b8154815260200190600101908083116125d4575b505050505081526020016009820180548060200260200160405190810160405280929190818152602001828054801561264a57602002820191906000526020600020905b8154600160a060020a0316815260019091019060200180831161262c575b505050505081525050828281518110151561266157fe5b602090810290910101526001016121f8565b600080805b6004548110156121a057336000908152600360208190526040822081015460048054919391859081106126a757fe5b6000918252602080832090910154600160a060020a0316835282019290925260400190206003015414801561272457506002600360006004848154811015156126ec57fe5b6000918252602080832090910154600160a060020a0316835282019290925260400190206006015460ff16600281111561272257fe5b145b15612730576001909101905b600101612678565b600081151561275c5760405160e560020a62461bcd02815260040161058090615e19565b6000861161277f5760405160e560020a62461bcd02815260040161058090615e29565b33600090815260036020526040902054156127af5760405160e560020a62461bcd02815260040161058090615d49565b6127b882613634565b15156127d95760405160e560020a62461bcd02815260040161058090615dc9565b6127e286614040565b90506127f7868686858588600133600061422f565b505050505050565b600061280a33611e9d565b151561281557600080fd5b5060025490565b6060600080600080606080600080612835600a8b6137eb565b975061283f613608565b965061284a8761361f565b955061285786600a613824565b945085158061286857506001860388115b806128725750848a115b1561287c57612b11565b61288587614683565b60408051600a8082526101608201909252919550816020015b6128a6614ab5565b81526020019060019003908161289e579050509250600091508790505b8351811015612b0d57600a821015612b00576005600085838151811015156128e757fe5b90602001906020020151815260200190815260200160002060e06040519081016040529081600082015481526020016001820154815260200160028201805480602002602001604051908101604052809291908181526020016000905b82821015612aa25760008481526020908190206040805160028681029093018054600181161561010002600019011693909304601f8101859004909402810160609081018352918101848152909384928491908401828280156129e85780601f106129bd576101008083540402835291602001916129e8565b820191906000526020600020905b8154815290600101906020018083116129cb57829003601f168201915b50505050508152602001600182018054600181600116156101000203166002900480601f016020809104026020016040519081016040528092919081815260200182805460018160011615610100020316600290048015612a8a5780601f10612a5f57610100808354040283529160200191612a8a565b820191906000526020600020905b815481529060010190602001808311612a6d57829003601f168201915b50505050508152505081526020019060010190612944565b50505090825250600382015460ff9081161515602083015260048301546040830152600583015416151560608201526006909101546080909101528351849084908110612aeb57fe5b60209081029091010152600190910190612b05565b612b0d565b6001016128c3565b8298505b5050505050505050919050565b60056020819052600091825260409091208054600182015460038301546004840154948401546006909401549294919360ff9182169391169086565b6000612b6533611e9d565b1515612b7057600080fd5b50805b60075460001901811015612bdd576007805460018301908110612b9257fe5b90600052602060002001600782815481101515612bab57fe5b906000526020600020019080546001816001161561010002031660029004612bd4929190614bb3565b50600101612b73565b600780546000198101908110612bef57fe5b906000526020600020016000612c059190614c28565b600780549061080c906000198301614c6c565b612c20614af7565b612c28614af7565b336000908152600360209081526040918290208251610100808201855282548252600180840180548751600293821615909402600019011691909104601f8101869004860283018601909652858252919492938581019391929190830182828015611d065780601f10611cdb57610100808354040283529160200191611d06565b6060600080600060606000612cbf600a886137eb565b600254909550612cd090600a613824565b6002549094501580612ce757506002546000190185115b80612cf157508387115b15612cfb576131ba565b60408051600a80825261016082019092526000945090816020015b612d1e614b5f565b815260200190600190039081612d165790505091508490505b6002548110156131b65760016000600283815481101515612d5457fe5b9060005260206000200154815260200190815260200160002061014060405190810160405290816000820154815260200160018201548152602001600282018054600181600116156101000203166002900480601f016020809104026020016040519081016040528092919081815260200182805460018160011615610100020316600290048015612e275780601f10612dfc57610100808354040283529160200191612e27565b820191906000526020600020905b815481529060010190602001808311612e0a57829003601f168201915b505050918352505060038201805460408051602060026001851615610100026000190190941693909304601f8101849004840282018401909252818152938201939291830182828015612ebb5780601f10612e9057610100808354040283529160200191612ebb565b820191906000526020600020905b815481529060010190602001808311612e9e57829003601f168201915b505050918352505060048201805460408051602060026001851615610100026000190190941693909304601f8101849004840282018401909252818152938201939291830182828015612f4f5780601f10612f2457610100808354040283529160200191612f4f565b820191906000526020600020905b815481529060010190602001808311612f3257829003601f168201915b505050918352505060058201805460408051602060026001851615610100026000190190941693909304601f8101849004840282018401909252818152938201939291830182828015612fe35780601f10612fb857610100808354040283529160200191612fe3565b820191906000526020600020905b815481529060010190602001808311612fc657829003601f168201915b505050918352505060068201805460408051602060026001851615610100026000190190941693909304601f81018490048402820184019092528181529382019392918301828280156130775780601f1061304c57610100808354040283529160200191613077565b820191906000526020600020905b81548152906001019060200180831161305a57829003601f168201915b50505050508152602001600782018054806020026020016040519081016040528092919081815260200182805480156130cf57602002820191906000526020600020905b8154815260200190600101908083116130bb575b505050505081526020016008820180548060200260200160405190810160405280929190818152602001828054801561312757602002820191906000526020600020905b815481526020019060010190808311613113575b505050505081526020016009820180548060200260200160405190810160405280929190818152602001828054801561318957602002820191906000526020600020905b8154600160a060020a0316815260019091019060200180831161316b575b50505050508152505082848151811015156131a057fe5b6020908102909101015260019283019201612d37565b8195505b5050505050919050565b600160065411156131f0576000838152600560205260409020600301546131f090849060ff16846110b7565b6000838152600560208190526040909120805460038201546004830154929093015461080c938793879260ff928316921687613647565b61323033614718565b565b61323b33611e9d565b151561324657600080fd5b6106d481614760565b60008061325b33611e9d565b151561326657600080fd5b600088116132895760405160e560020a62461bcd02815260040161058090615e29565b61329288614040565b600081815260016020526040902054909150156132c45760405160e560020a62461bcd02815260040161058090615db9565b6132d381898989898989613847565b979650505050505050565b600160a060020a038181166000908152600360205260408120600601549091829182916101009091041681106133295760405160e560020a62461bcd02815260040161058090615d59565b6002600160a060020a03851660009081526003602052604090206006015460ff16600281111561335557fe5b146133755760405160e560020a62461bcd02815260040161058090615df9565b600160a060020a03841660009081526003602052604090206004810154815460069092015490945090925060ff1660028111156133ae57fe5b90506133c282898989878a878b600161422f565b5050505050505050565b6133d533611e9d565b15156133e057600080fd5b600160a060020a0381166000908152600360208190526040909120015461340790826134a0565b604080518082018252600b81527f53757065722061646d696e0000000000000000000000000000000000000000006020808301918252600160a060020a038516600090815260039091529290922090516134679260059092019190614a3b565b50600160a060020a0381166000908152600360208190526040822090810191909155600601805460ff191660021790556106d481613232565b6000805b600084815260016020526040902060090154600019018110156135a05760008481526001602052604090206009018054600160a060020a0385169190839081106134ea57fe5b600091825260209091200154600160a060020a0316141561350a57600191505b811561359857600084815260016020819052604090912060090180549091830190811061353357fe5b6000918252602080832090910154868352600190915260409091206009018054600160a060020a03909216918390811061356957fe5b9060005260206000200160006101000a815481600160a060020a030219169083600160a060020a031602179055505b6001016134a4565b6000848152600160205260409020600901805460001981019081106135c157fe5b60009182526020808320909101805473ffffffffffffffffffffffffffffffffffffffff1916905585825260019052604090206009018054906107ad906000198301614c90565b336000908152600360208190526040909120015490565b60009081526001602052604090206008015490565b6000908152600160205260408120541190565b61364f614b48565b60606000606061365e89613e40565b935061366984613e8e565b60008c8152600560205260408120600181018e90558c815560038101805460ff19168c15151790559194506136a19160020190614cb4565b600091505b8251821015613768576136c083838151811015156110f657fe5b9050600560008c815260200190815260200160002060020160408051908101604052806136f584600081518110151561128057fe5b815260200161370c84600181518110151561128057fe5b9052815460018101808455600093845260209384902083518051929560029094029091019261374092849290910190614a3b565b5060208281015180516137599260018501920190614a3b565b505050508160010191506136a6565b505050600097885250600560208190526040909720600481019390935560068301559401805460ff191694151594909417909355505050565b6000918252600160208181526040842060080180549283018155845290922090910155565b6000918252600160208181526040842060070180549283018155845290922090910155565b6000808315156137fe576000915061381d565b5082820282848281151561380e57fe5b041461381957600080fd5b8091505b5092915050565b60008080831161383357600080fd5b828481151561383e57fe5b04949350505050565b61384f614b5f565b855115156138725760405160e560020a62461bcd02815260040161058090615e09565b825115156138955760405160e560020a62461bcd02815260040161058090615de9565b815115156138b85760405160e560020a62461bcd02815260040161058090615dd9565b6000888152600160208181526040928390208351610140810185528154815281840154818401526002808301805487519681161561010002600019011691909104601f8101859004850286018501875280865291959294928601939091908301828280156139675780601f1061393c57610100808354040283529160200191613967565b820191906000526020600020905b81548152906001019060200180831161394a57829003601f168201915b505050918352505060038201805460408051602060026001851615610100026000190190941693909304601f81018490048402820184019092528181529382019392918301828280156139fb5780601f106139d0576101008083540402835291602001916139fb565b820191906000526020600020905b8154815290600101906020018083116139de57829003601f168201915b505050918352505060048201805460408051602060026001851615610100026000190190941693909304601f8101849004840282018401909252818152938201939291830182828015613a8f5780601f10613a6457610100808354040283529160200191613a8f565b820191906000526020600020905b815481529060010190602001808311613a7257829003601f168201915b505050918352505060058201805460408051602060026001851615610100026000190190941693909304601f8101849004840282018401909252818152938201939291830182828015613b235780601f10613af857610100808354040283529160200191613b23565b820191906000526020600020905b815481529060010190602001808311613b0657829003601f168201915b505050918352505060068201805460408051602060026001851615610100026000190190941693909304601f8101849004840282018401909252818152938201939291830182828015613bb75780601f10613b8c57610100808354040283529160200191613bb7565b820191906000526020600020905b815481529060010190602001808311613b9a57829003601f168201915b5050505050815260200160078201805480602002602001604051908101604052809291908181526020018280548015613c0f57602002820191906000526020600020905b815481526020019060010190808311613bfb575b5050505050815260200160088201805480602002602001604051908101604052809291908181526020018280548015613c6757602002820191906000526020600020905b815481526020019060010190808311613c53575b5050505050815260200160098201805480602002602001604051908101604052809291908181526020018280548015613cc957602002820191906000526020600020905b8154600160a060020a03168152600190910190602001808311613cab575b50505091909252505050888152602080820189815260408084018a8152606085018a90526080850189905260a0850188905260c0850187905260008d815260018086529290208551815592519183019190915551805193945084939192613d3892600285019290910190614a3b565b5060608201518051613d54916003840191602090910190614a3b565b5060808201518051613d70916004840191602090910190614a3b565b5060a08201518051613d8c916005840191602090910190614a3b565b5060c08201518051613da8916006840191602090910190614a3b565b5060e08201518051613dc4916007840191602090910190614cd5565b506101008201518051613de1916008840191602090910190614cd5565b506101208201518051613dfe916009840191602090910190614d0f565b5050600280546001810182556000919091527f405787fa12a823e0f2b7631cc41b3ba8828b3321ca811111fa75cd3aa3bb5ace01989098555050505050505050565b613e48614b48565b6000825160001415613e6f57604080518082019091526000808252602082015291506121a0565b5050604080518082019091528151815260209182019181019190915290565b6060600080600080613e9f866147a8565b1515613eaa57600080fd5b613eb3866147d7565b935083604051908082528060200260200182016040528015613eef57816020015b613edc614b48565b815260200190600190039081613ed45790505b509450613eff8660200151614827565b8660200151019250600090505b83811015613f5857613f1d8361488a565b91506040805190810160405280838152602001848152508582815181101515613f4257fe5b6020908102909101015291810191600101613f0c565b50505050919050565b6000806000806000613f768660200151614827565b86516020978801518201519190039096036101000a90950495945050505050565b606060008060606000613fad8660200151614827565b9350838660000151039250826040519080825280601f01601f191660200182016040528015613fe6578160200160208202803883390190505b50915081602001905061400084876020015101828561491b565b50949350505050565b6000600160a060020a038216151561402057600080fd5b50600160a060020a03166000908152602091909152604090205460ff1690565b60008080806002850615156140d25784604051602001808281526020019150506040516020818303038152906040526040518082805190602001908083835b6020831061409e5780518252601f19909201916020918201910161407f565b6001836020036101000a038019825116818451168082178552505050505050905001915050604051809103902092506141bd565b84604051602001808281526020019150506040516020818303038152906040526040518082805190602001908083835b602083106141215780518252601f199092019160209182019101614102565b51815160209384036101000a600019018019909216911617905260408051929094018290038220828201528351808303820181529184019384905281519195509293508392850191508083835b6020831061418d5780518252601f19909201916020918201910161416e565b6001836020036101000a038019825116818451168082178552505050505050905001915050604051809103902092505b60208110156141ea578281602081106141d257fe5b60f860020a91901a81020491909101906001016141bd565b8260206002840106602081106141fc57fe5b60f860020a91901a81020483602084066020811061421657fe5b1a60f860020a0260f860020a9004029350505050919050565b614237614af7565b600084101580614248575060028411155b15156142695760405160e560020a62461bcd02815260040161058090615d89565b8451151561428c5760405160e560020a62461bcd02815260040161058090615d29565b600160a060020a0383166000908152600360209081526040918290208251610100808201855282548252600180840180548751600293821615909402600019011691909104601f81018690048602830186019096528582529194929385810193919291908301828280156143415780601f1061431657610100808354040283529160200191614341565b820191906000526020600020905b81548152906001019060200180831161432457829003601f168201915b5050509183525050600282810180546040805160206001841615610100026000190190931694909404601f810183900483028501830190915280845293810193908301828280156143d35780601f106143a8576101008083540402835291602001916143d3565b820191906000526020600020905b8154815290600101906020018083116143b657829003601f168201915b505050505081526020016003820154815260200160048201548152602001600582018054600181600116156101000203166002900480601f0160208091040260200160405190810160405280929190818152602001828054600181600116156101000203166002900480156144895780601f1061445e57610100808354040283529160200191614489565b820191906000526020600020905b81548152906001019060200180831161446c57829003601f168201915b5050509183525050600682015460209091019060ff1660028111156144aa57fe5b60028111156144b557fe5b8152600691909101546101009004600160a060020a03166020918201528b825281018a905260408101899052606081018890526080810187905260a08101869052905083600281111561450457fe5b8160c00190600281111561451457fe5b9081600281111561452157fe5b905250600160a060020a03831660e082018190526000908152600360209081526040909120825181558183015180518493614563926001850192910190614a3b565b506040820151805161457f916002840191602090910190614a3b565b50606082015160038201556080820151600482015560a082015180516145af916005840191602090910190614a3b565b5060c082015160068201805460ff191660018360028111156145cd57fe5b021790555060e0919091015160069091018054600160a060020a039092166101000274ffffffffffffffffffffffffffffffffffffffff001990921691909117905581151561467757600480546001810182556000919091527f8a35acfbc15ff81a39ae7d344fd709f28e8600b4aa8c65c6b64bfe7fe36bd19b01805473ffffffffffffffffffffffffffffffffffffffff1916600160a060020a03851617905561467787614962565b50505050505050505050565b600081815260016020526040812054606091106146b55760405160e560020a62461bcd02815260040161058090615d99565b6000828152600160209081526040918290206008018054835181840281018401909452808452909183018282801561470c57602002820191906000526020600020905b8154815260200190600101908083116146f8575b50505050509050919050565b61472960008263ffffffff6149a116565b604051600160a060020a038216907f3525e22824a8a7df2c9a6029941c824cf95b6447f1e13d5128fd3826d35afe8b90600090a250565b61477160008263ffffffff6149ed16565b604051600160a060020a038216907f47d1c22a25bb3a5d4e481b9b1e6944c2eade3181a0a20b495ed61d35b5323f2490600090a250565b6020810151805160009190821a9060c060ff831610156147cb57600092506147d0565b600192505b5050919050565b600080600080600092506147ee8560200151614827565b6020860151865191810193500190505b8082101561481e5761480f8261488a565b600190930192909101906147fe565b50909392505050565b8051600090811a608081101561484057600091506121a0565b60b881108061485b575060c0811080159061485b575060f881105b1561486957600191506121a0565b60c081101561487e5760b519810191506121a0565b60f519810191506121a0565b8051600090811a60808110156148a357600191506121a0565b60b88110156148b857607e19810191506121a0565b60c08110156148e55760b78103600184019350806020036101000a845104600182018101935050506121a0565b60f88110156148fa5760be19810191506121a0565b60019290920151602083900360f7016101000a900490910160f51901919050565b60005b60208210614940578351835260209384019390920191601f199091019061491e565b50915181516020939093036101000a6000190180199091169216919091179052565b6000908152600160208181526040832060090180549283018155835290912001805473ffffffffffffffffffffffffffffffffffffffff191633179055565b600160a060020a03811615156149b657600080fd5b6149c08282614009565b15156149cb57600080fd5b600160a060020a0316600090815260209190915260409020805460ff19169055565b600160a060020a0381161515614a0257600080fd5b614a0c8282614009565b15614a1657600080fd5b600160a060020a0316600090815260209190915260409020805460ff19166001179055565b828054600181600116156101000203166002900490600052602060002090601f016020900481019282601f10614a7c57805160ff1916838001178555614aa9565b82800160010185558215614aa9579182015b82811115614aa9578251825591602001919060010190614a8e565b506106f0929150614d7d565b60e06040519081016040528060008152602001600081526020016060815260200160001515815260200160008152602001600015158152602001600081525090565b6101006040519081016040528060008152602001606081526020016060815260200160008152602001600081526020016060815260200160006002811115614b3b57fe5b8152600060209091015290565b604080518082019091526000808252602082015290565b61014060405190810160405280600081526020016000815260200160608152602001606081526020016060815260200160608152602001606081526020016060815260200160608152602001606081525090565b828054600181600116156101000203166002900490600052602060002090601f016020900481019282601f10614bec5780548555614aa9565b82800160010185558215614aa957600052602060002091601f016020900482015b82811115614aa9578254825591600101919060010190614c0d565b50805460018160011615610100020316600290046000825580601f10614c4e57506106d4565b601f0160209004906000526020600020908101906106d49190614d7d565b81548183558181111561080c5760008381526020902061080c918101908301614d97565b81548183558181111561080c5760008381526020902061080c918101908301614d7d565b50805460008255600202906000526020600020908101906106d49190614dba565b828054828255906000526020600020908101928215614aa95791602002820182811115614aa9578251825591602001919060010190614a8e565b828054828255906000526020600020908101928215614d71579160200282015b82811115614d71578251825473ffffffffffffffffffffffffffffffffffffffff1916600160a060020a03909116178255602090920191600190910190614d2f565b506106f0929150614deb565b61102591905b808211156106f05760008155600101614d83565b61102591905b808211156106f0576000614db18282614c28565b50600101614d9d565b61102591905b808211156106f0576000614dd48282614c28565b614de2600183016000614c28565b50600201614dc0565b61102591905b808211156106f057805473ffffffffffffffffffffffffffffffffffffffff19168155600101614df1565b6000614e288235615f11565b9392505050565b6000614e288235615f1d565b6000601f82018313614e4c57600080fd5b8135614e5f614e5a82615edf565b615eb8565b91508082526020830160208301858383011115614e7b57600080fd5b614e86838284615f39565b50505092915050565b6000614e288235611025565b600060208284031215614ead57600080fd5b6000614eb98484614e1c565b949350505050565b600060208284031215614ed357600080fd5b813567ffffffffffffffff811115614eea57600080fd5b614eb984828501614e3b565b600080600080600060a08688031215614f0e57600080fd5b853567ffffffffffffffff811115614f2557600080fd5b614f3188828901614e3b565b955050602086013567ffffffffffffffff811115614f4e57600080fd5b614f5a88828901614e3b565b9450506040614f6b88828901614e8f565b935050606086013567ffffffffffffffff811115614f8857600080fd5b614f9488828901614e3b565b9250506080614fa588828901614e1c565b9150509295509295909350565b600060208284031215614fc457600080fd5b6000614eb98484614e8f565b600080600060608486031215614fe557600080fd5b6000614ff18686614e8f565b935050602061500286828701614e2f565b925050604084013567ffffffffffffffff81111561501f57600080fd5b61502b86828701614e3b565b9150509250925092565b6000806000806080858703121561504b57600080fd5b60006150578787614e8f565b945050602085013567ffffffffffffffff81111561507457600080fd5b61508087828801614e3b565b935050604061509187828801614e2f565b92505060606150a287828801614e8f565b91505092959194509250565b6000806000606084860312156150c357600080fd5b60006150cf8686614e8f565b935050602084013567ffffffffffffffff8111156150ec57600080fd5b6150f886828701614e3b565b925050604061502b86828701614e8f565b60008060008060008060c0878903121561512257600080fd5b600061512e8989614e8f565b965050602087013567ffffffffffffffff81111561514b57600080fd5b61515789828a01614e3b565b955050604087013567ffffffffffffffff81111561517457600080fd5b61518089828a01614e3b565b945050606087013567ffffffffffffffff81111561519d57600080fd5b6151a989828a01614e3b565b935050608087013567ffffffffffffffff8111156151c657600080fd5b6151d289828a01614e3b565b92505060a087013567ffffffffffffffff8111156151ef57600080fd5b6151fb89828a01614e3b565b9150509295509295509295565b600080600080600060a0868803121561522057600080fd5b600061522c8888614e8f565b955050602086013567ffffffffffffffff81111561524957600080fd5b61525588828901614e3b565b945050604086013567ffffffffffffffff81111561527257600080fd5b61527e88828901614e3b565b935050606086013567ffffffffffffffff81111561529b57600080fd5b6152a788828901614e3b565b9250506080614fa588828901614e8f565b600080600080600080600060e0888a0312156152d357600080fd5b60006152df8a8a614e8f565b97505060206152f08a828b01614e8f565b965050604088013567ffffffffffffffff81111561530d57600080fd5b6153198a828b01614e3b565b955050606088013567ffffffffffffffff81111561533657600080fd5b6153428a828b01614e3b565b945050608088013567ffffffffffffffff81111561535f57600080fd5b61536b8a828b01614e3b565b93505060a088013567ffffffffffffffff81111561538857600080fd5b6153948a828b01614e3b565b92505060c088013567ffffffffffffffff8111156153b157600080fd5b6153bd8a828b01614e3b565b91505092959891949750929550565b6153d581615f11565b82525050565b60006153e682615f0d565b8084526020840193506153f883615f07565b60005b828110156154285761540e8683516153cc565b61541782615f07565b6020969096019591506001016153fb565b5093949350505050565b600061543d82615f0d565b8084526020840193508360208202850161545685615f07565b60005b8481101561548d578383038852615471838351615664565b925061547c82615f07565b602098909801979150600101615459565b50909695505050505050565b60006154a482615f0d565b808452602084019350836020820285016154bd85615f07565b60005b8481101561548d5783830388526154d8838351615a45565b92506154e382615f07565b6020989098019791506001016154c0565b60006154ff82615f0d565b8084526020840193508360208202850161551885615f07565b60005b8481101561548d578383038852615533838351615ada565b925061553e82615f07565b60209890980197915060010161551b565b600061555a82615f0d565b8084526020840193508360208202850161557385615f07565b60005b8481101561548d57838303885261558e838351615bdd565b925061559982615f07565b602098909801979150600101615576565b60006155b582615f0d565b808452602084019350836020820285016155ce85615f07565b60005b8481101561548d5783830388526155e9838351615c0f565b92506155f482615f07565b6020989098019791506001016155d1565b600061561082615f0d565b80845260208401935061562283615f07565b60005b8281101561542857615638868351615cbe565b61564182615f07565b602096909601959150600101615625565b6153d581615f1d565b6153d581615f2e565b600061566f82615f0d565b808452615683816020860160208601615f45565b61568c81615f75565b9093016020019392505050565b601a81527f4372656174696f6e204461746520697320696e6d757461626c65000000000000602082015260400190565b601181527f726f6c65206973206d616e6461746f7279000000000000000000000000000000602082015260400190565b602281527f4f6e6c792070656e64696e672075736572732063616e2062652061636365707460208201527f6564000000000000000000000000000000000000000000000000000000000000604082015260600190565b601381527f5573657220616c72656164792065786973747300000000000000000000000000602082015260400190565b601481527f546869732075736572206e6f7420657869737473000000000000000000000000602082015260400190565b601b81527f596f752063616e6e6f7420616363657074207468697320757365720000000000602082015260400190565b602281527f4f6e6c792070656e64696e672075736572732063616e2062652072656a65637460208201527f6564000000000000000000000000000000000000000000000000000000000000604082015260600190565b601381527f737461747573206973206e6f742076616c696400000000000000000000000000602082015260400190565b601181527f6d656d626572206e6f7420657869737473000000000000000000000000000000602082015260400190565b601481527f4d656d62657220646f206e6f7420657869737473000000000000000000000000602082015260400190565b601581527f4d656d62657220616c7265616479206578697374730000000000000000000000602082015260400190565b601181527f4d656d626572206e6f7420657869737473000000000000000000000000000000602082015260400190565b601281527f5468656d65206973206d616e6461746f72790000000000000000000000000000602082015260400190565b601081527f434d4f206973206d616e6461746f727900000000000000000000000000000000602082015260400190565b601481527f596f7520617265206e6f74206163636570746564000000000000000000000000602082015260400190565b601181527f4e616d65206973206d616e6461746f7279000000000000000000000000000000602082015260400190565b601181527f4e6f2076616c6964206d656d6265724964000000000000000000000000000000602082015260400190565b601981527f4372656174696f6e44617465206973206d616e6461746f727900000000000000602082015260400190565b805160009060e0840190615a598582615cbe565b506020830151615a6c6020860182615cbe565b5060408301518482036040860152615a84828261554f565b9150506060830151615a996060860182615652565b506080830151615aac6080860182615cbe565b5060a0830151615abf60a0860182615652565b5060c0830151615ad260c0860182615cbe565b509392505050565b8051600090610140840190615aef8582615cbe565b506020830151615b026020860182615cbe565b5060408301518482036040860152615b1a8282615664565b91505060608301518482036060860152615b348282615664565b91505060808301518482036080860152615b4e8282615664565b91505060a083015184820360a0860152615b688282615664565b91505060c083015184820360c0860152615b828282615664565b91505060e083015184820360e0860152615b9c8282615605565b915050610100830151848203610100860152615bb88282615605565b915050610120830151848203610120860152615bd482826153db565b95945050505050565b8051604080845260009190840190615bf58282615664565b91505060208301518482036020860152615bd48282615664565b8051600090610100840190615c248582615cbe565b5060208301518482036020860152615c3c8282615664565b91505060408301518482036040860152615c568282615664565b9150506060830151615c6b6060860182615cbe565b506080830151615c7e6080860182615cbe565b5060a083015184820360a0860152615c968282615664565b91505060c0830151615cab60c086018261565b565b5060e0830151615ad260e08601826153cc565b6153d581611025565b60208082528101614e288184615432565b60208082528101614e288184615499565b60208082528101614e2881846154f4565b60208082528101614e2881846155aa565b60208101611eaf8284615652565b60208082528101611eaf81615699565b60208082528101611eaf816156c9565b60208082528101611eaf816156f9565b60208082528101611eaf8161574f565b60208082528101611eaf8161577f565b60208082528101611eaf816157af565b60208082528101611eaf816157df565b60208082528101611eaf81615835565b60208082528101611eaf81615865565b60208082528101611eaf81615895565b60208082528101611eaf816158c5565b60208082528101611eaf816158f5565b60208082528101611eaf81615925565b60208082528101611eaf81615955565b60208082528101611eaf81615985565b60208082528101611eaf816159b5565b60208082528101611eaf816159e5565b60208082528101611eaf81615a15565b60208082528101614e288184615a45565b60208082528101614e288184615c0f565b60208101611eaf8284615cbe565b60c08101615e778289615cbe565b615e846020830188615cbe565b615e916040830187615652565b615e9e6060830186615cbe565b615eab6080830185615652565b6132d360a0830184615cbe565b60405181810167ffffffffffffffff81118282101715615ed757600080fd5b604052919050565b600067ffffffffffffffff821115615ef657600080fd5b506020601f91909101601f19160190565b60200190565b5190565b600160a060020a031690565b151590565b6000600382106106f057fe5b6000611eaf82615f22565b82818337506000910152565b60005b83811015615f60578181015183820152602001615f48565b83811115615f6f576000848401525b50505050565b601f01601f1916905600a265627a7a723058204ec6a5873f99c579d38825ed0a8f8f8fddc9e28dc9bbb3d3e378a6996ff5ae3c6c6578706572696d656e74616cf50037",
  "source": "pragma solidity ^0.4.24;\npragma experimental ABIEncoderV2;\n\nimport \"./Claims.sol\";\n\ncontract Registry is Claims {\n  \n  string[] private cmos_;\n\n  function addCMO(string memory _cmo) onlySigner public {\n    cmos_.push(_cmo);\n  }\n\n  function deleteCMO(uint _index) onlySigner public {\n    for (uint i = _index; i < cmos_.length-1;i++){\n      cmos_[i] = cmos_[i+1];\n    }\n    delete cmos_[cmos_.length-1];\n    cmos_.length--;\n  }\n\n  function getCMOs() view public returns( string[] memory ) {\n    return cmos_;\n  }\n\n}",
  "sourcePath": "/home/komodo/newUI/bloomen-decentralized-rights-management-v2/truffle/contracts/registry/Registry.sol",
  "compiler": {
    "name": "solc",
    "version": "0.4.24+commit.e67f0147.Emscripten.clang"
  },
  "schemaVersion": "2.0.1",
  "updatedAt": "2019-11-12T11:56:37.255Z"
}