{
  "contractName": "Registry",
  "abi": [
    {
      "constant": false,
      "inputs": [
        {
          "name": "_userToAccept",
          "type": "address"
        }
      ],
      "name": "acceptUser",
      "outputs": [],
      "payable": false,
      "stateMutability": "nonpayable",
      "type": "function"
    },
    {
      "constant": true,
      "inputs": [],
      "name": "getClaimsCountByMemberId",
      "outputs": [
        {
          "name": "",
          "type": "uint256"
        }
      ],
      "payable": false,
      "stateMutability": "view",
      "type": "function"
    },
    {
      "constant": false,
      "inputs": [
        {
          "name": "_creationDate",
          "type": "uint256"
        },
        {
          "name": "_claimData",
          "type": "bytes"
        },
        {
          "name": "_claimType",
          "type": "bool"
        },
        {
          "name": "_memberOwner",
          "type": "uint256"
        }
      ],
      "name": "registerClaim",
      "outputs": [],
      "payable": false,
      "stateMutability": "nonpayable",
      "type": "function"
    },
    {
      "constant": false,
      "inputs": [
        {
          "name": "_userToReject",
          "type": "address"
        }
      ],
      "name": "rejectUser",
      "outputs": [],
      "payable": false,
      "stateMutability": "nonpayable",
      "type": "function"
    },
    {
      "constant": true,
      "inputs": [
        {
          "name": "_claimId",
          "type": "uint256"
        }
      ],
      "name": "getClaim",
      "outputs": [
        {
          "components": [
            {
              "name": "creationDate",
              "type": "uint256"
            },
            {
              "name": "claimId",
              "type": "uint256"
            },
            {
              "components": [
                {
                  "name": "name",
                  "type": "string"
                },
                {
                  "name": "value",
                  "type": "string"
                }
              ],
              "name": "claimData",
              "type": "tuple[]"
            },
            {
              "name": "claimType",
              "type": "bool"
            },
            {
              "name": "memberOwner",
              "type": "uint256"
            },
            {
              "name": "status",
              "type": "bool"
            },
            {
              "name": "lastChange",
              "type": "uint256"
            }
          ],
          "name": "",
          "type": "tuple"
        }
      ],
      "payable": false,
      "stateMutability": "view",
      "type": "function"
    },
    {
      "constant": true,
      "inputs": [
        {
          "name": "_page",
          "type": "uint256"
        }
      ],
      "name": "getUsers",
      "outputs": [
        {
          "components": [
            {
              "name": "creationDate",
              "type": "uint256"
            },
            {
              "name": "firstName",
              "type": "string"
            },
            {
              "name": "lastName",
              "type": "string"
            },
            {
              "name": "memberId",
              "type": "uint256"
            },
            {
              "name": "requestId",
              "type": "uint256"
            },
            {
              "name": "role",
              "type": "string"
            },
            {
              "name": "status",
              "type": "uint8"
            },
            {
              "name": "owner",
              "type": "address"
            }
          ],
          "name": "",
          "type": "tuple[]"
        }
      ],
      "payable": false,
      "stateMutability": "view",
      "type": "function"
    },
    {
      "constant": false,
      "inputs": [
        {
          "name": "_memberId",
          "type": "uint256"
        },
        {
          "name": "_creationDate",
          "type": "uint256"
        },
        {
          "name": "_name",
          "type": "string"
        },
        {
          "name": "_logo",
          "type": "string"
        },
        {
          "name": "_country",
          "type": "string"
        },
        {
          "name": "_cmo",
          "type": "string"
        },
        {
          "name": "_theme",
          "type": "string"
        }
      ],
      "name": "updateMember",
      "outputs": [],
      "payable": false,
      "stateMutability": "nonpayable",
      "type": "function"
    },
    {
      "constant": false,
      "inputs": [
        {
          "name": "_claimId",
          "type": "uint256"
        },
        {
          "name": "_claimType",
          "type": "bool"
        },
        {
          "name": "_claimData",
          "type": "bytes"
        }
      ],
      "name": "checkClaimStatus",
      "outputs": [],
      "payable": false,
      "stateMutability": "nonpayable",
      "type": "function"
    },
    {
      "constant": true,
      "inputs": [
        {
          "name": "userAddress",
          "type": "address"
        }
      ],
      "name": "getUserByAddress",
      "outputs": [
        {
          "components": [
            {
              "name": "creationDate",
              "type": "uint256"
            },
            {
              "name": "firstName",
              "type": "string"
            },
            {
              "name": "lastName",
              "type": "string"
            },
            {
              "name": "memberId",
              "type": "uint256"
            },
            {
              "name": "requestId",
              "type": "uint256"
            },
            {
              "name": "role",
              "type": "string"
            },
            {
              "name": "status",
              "type": "uint8"
            },
            {
              "name": "owner",
              "type": "address"
            }
          ],
          "name": "",
          "type": "tuple"
        }
      ],
      "payable": false,
      "stateMutability": "view",
      "type": "function"
    },
    {
      "constant": true,
      "inputs": [
        {
          "name": "account",
          "type": "address"
        }
      ],
      "name": "isSigner",
      "outputs": [
        {
          "name": "",
          "type": "bool"
        }
      ],
      "payable": false,
      "stateMutability": "view",
      "type": "function"
    },
    {
      "constant": true,
      "inputs": [],
      "name": "getUsersOwner",
      "outputs": [
        {
          "components": [
            {
              "name": "creationDate",
              "type": "uint256"
            },
            {
              "name": "firstName",
              "type": "string"
            },
            {
              "name": "lastName",
              "type": "string"
            },
            {
              "name": "memberId",
              "type": "uint256"
            },
            {
              "name": "requestId",
              "type": "uint256"
            },
            {
              "name": "role",
              "type": "string"
            },
            {
              "name": "status",
              "type": "uint8"
            },
            {
              "name": "owner",
              "type": "address"
            }
          ],
          "name": "",
          "type": "tuple[]"
        }
      ],
      "payable": false,
      "stateMutability": "view",
      "type": "function"
    },
    {
      "constant": true,
      "inputs": [],
      "name": "claimIdCounter_",
      "outputs": [
        {
          "name": "",
          "type": "uint256"
        }
      ],
      "payable": false,
      "stateMutability": "view",
      "type": "function"
    },
    {
      "constant": true,
      "inputs": [],
      "name": "getMembers",
      "outputs": [
        {
          "components": [
            {
              "name": "memberId",
              "type": "uint256"
            },
            {
              "name": "creationDate",
              "type": "uint256"
            },
            {
              "name": "name",
              "type": "string"
            },
            {
              "name": "logo",
              "type": "string"
            },
            {
              "name": "country",
              "type": "string"
            },
            {
              "name": "cmo",
              "type": "string"
            },
            {
              "name": "theme",
              "type": "string"
            },
            {
              "name": "claimInbox",
              "type": "uint256[]"
            },
            {
              "name": "claims",
              "type": "uint256[]"
            },
            {
              "name": "userRequests",
              "type": "address[]"
            }
          ],
          "name": "",
          "type": "tuple[]"
        }
      ],
      "payable": false,
      "stateMutability": "view",
      "type": "function"
    },
    {
      "constant": true,
      "inputs": [],
      "name": "getcountUsers",
      "outputs": [
        {
          "name": "",
          "type": "uint256"
        }
      ],
      "payable": false,
      "stateMutability": "view",
      "type": "function"
    },
    {
      "constant": false,
      "inputs": [
        {
          "name": "_creationDate",
          "type": "uint256"
        },
        {
          "name": "_firstName",
          "type": "string"
        },
        {
          "name": "_lastName",
          "type": "string"
        },
        {
          "name": "_role",
          "type": "string"
        },
        {
          "name": "_memberId",
          "type": "uint256"
        }
      ],
      "name": "registerUserRequest",
      "outputs": [],
      "payable": false,
      "stateMutability": "nonpayable",
      "type": "function"
    },
    {
      "constant": true,
      "inputs": [],
      "name": "getCount",
      "outputs": [
        {
          "name": "",
          "type": "uint256"
        }
      ],
      "payable": false,
      "stateMutability": "view",
      "type": "function"
    },
    {
      "constant": true,
      "inputs": [
        {
          "name": "_page",
          "type": "uint256"
        }
      ],
      "name": "getClaimsByMemberId",
      "outputs": [
        {
          "components": [
            {
              "name": "creationDate",
              "type": "uint256"
            },
            {
              "name": "claimId",
              "type": "uint256"
            },
            {
              "components": [
                {
                  "name": "name",
                  "type": "string"
                },
                {
                  "name": "value",
                  "type": "string"
                }
              ],
              "name": "claimData",
              "type": "tuple[]"
            },
            {
              "name": "claimType",
              "type": "bool"
            },
            {
              "name": "memberOwner",
              "type": "uint256"
            },
            {
              "name": "status",
              "type": "bool"
            },
            {
              "name": "lastChange",
              "type": "uint256"
            }
          ],
          "name": "",
          "type": "tuple[]"
        }
      ],
      "payable": false,
      "stateMutability": "view",
      "type": "function"
    },
    {
      "constant": true,
      "inputs": [
        {
          "name": "",
          "type": "uint256"
        }
      ],
      "name": "claims_",
      "outputs": [
        {
          "name": "creationDate",
          "type": "uint256"
        },
        {
          "name": "claimId",
          "type": "uint256"
        },
        {
          "name": "claimType",
          "type": "bool"
        },
        {
          "name": "memberOwner",
          "type": "uint256"
        },
        {
          "name": "status",
          "type": "bool"
        },
        {
          "name": "lastChange",
          "type": "uint256"
        }
      ],
      "payable": false,
      "stateMutability": "view",
      "type": "function"
    },
    {
      "constant": true,
      "inputs": [],
      "name": "getMe",
      "outputs": [
        {
          "components": [
            {
              "name": "creationDate",
              "type": "uint256"
            },
            {
              "name": "firstName",
              "type": "string"
            },
            {
              "name": "lastName",
              "type": "string"
            },
            {
              "name": "memberId",
              "type": "uint256"
            },
            {
              "name": "requestId",
              "type": "uint256"
            },
            {
              "name": "role",
              "type": "string"
            },
            {
              "name": "status",
              "type": "uint8"
            },
            {
              "name": "owner",
              "type": "address"
            }
          ],
          "name": "",
          "type": "tuple"
        }
      ],
      "payable": false,
      "stateMutability": "view",
      "type": "function"
    },
    {
      "constant": true,
      "inputs": [
        {
          "name": "_page",
          "type": "uint256"
        }
      ],
      "name": "getMembers",
      "outputs": [
        {
          "components": [
            {
              "name": "memberId",
              "type": "uint256"
            },
            {
              "name": "creationDate",
              "type": "uint256"
            },
            {
              "name": "name",
              "type": "string"
            },
            {
              "name": "logo",
              "type": "string"
            },
            {
              "name": "country",
              "type": "string"
            },
            {
              "name": "cmo",
              "type": "string"
            },
            {
              "name": "theme",
              "type": "string"
            },
            {
              "name": "claimInbox",
              "type": "uint256[]"
            },
            {
              "name": "claims",
              "type": "uint256[]"
            },
            {
              "name": "userRequests",
              "type": "address[]"
            }
          ],
          "name": "",
          "type": "tuple[]"
        }
      ],
      "payable": false,
      "stateMutability": "view",
      "type": "function"
    },
    {
      "constant": false,
      "inputs": [
        {
          "name": "_claimId",
          "type": "uint256"
        },
        {
          "name": "_claimData",
          "type": "bytes"
        },
        {
          "name": "_lastChange",
          "type": "uint256"
        }
      ],
      "name": "updateClaim",
      "outputs": [],
      "payable": false,
      "stateMutability": "nonpayable",
      "type": "function"
    },
    {
      "constant": false,
      "inputs": [],
      "name": "renounceSigner",
      "outputs": [],
      "payable": false,
      "stateMutability": "nonpayable",
      "type": "function"
    },
    {
      "constant": false,
      "inputs": [
        {
          "name": "account",
          "type": "address"
        }
      ],
      "name": "addSigner",
      "outputs": [],
      "payable": false,
      "stateMutability": "nonpayable",
      "type": "function"
    },
    {
      "constant": false,
      "inputs": [
        {
          "name": "_creationDate",
          "type": "uint256"
        },
        {
          "name": "_name",
          "type": "string"
        },
        {
          "name": "_logo",
          "type": "string"
        },
        {
          "name": "_country",
          "type": "string"
        },
        {
          "name": "_cmo",
          "type": "string"
        },
        {
          "name": "_theme",
          "type": "string"
        }
      ],
      "name": "addMember",
      "outputs": [
        {
          "name": "",
          "type": "uint256"
        }
      ],
      "payable": false,
      "stateMutability": "nonpayable",
      "type": "function"
    },
    {
      "constant": false,
      "inputs": [
        {
          "name": "_firstName",
          "type": "string"
        },
        {
          "name": "_lastName",
          "type": "string"
        },
        {
          "name": "_memberId",
          "type": "uint256"
        },
        {
          "name": "_role",
          "type": "string"
        },
        {
          "name": "owner",
          "type": "address"
        }
      ],
      "name": "updateUser",
      "outputs": [],
      "payable": false,
      "stateMutability": "nonpayable",
      "type": "function"
    },
    {
      "constant": false,
      "inputs": [
        {
          "name": "account",
          "type": "address"
        }
      ],
      "name": "whitelistAdmin",
      "outputs": [],
      "payable": false,
      "stateMutability": "nonpayable",
      "type": "function"
    },
    {
      "anonymous": false,
      "inputs": [
        {
          "indexed": true,
          "name": "account",
          "type": "address"
        }
      ],
      "name": "SignerAdded",
      "type": "event"
    },
    {
      "anonymous": false,
      "inputs": [
        {
          "indexed": true,
          "name": "account",
          "type": "address"
        }
      ],
      "name": "SignerRemoved",
      "type": "event"
    },
    {
      "constant": false,
      "inputs": [
        {
          "name": "_cmo",
          "type": "string"
        }
      ],
      "name": "addCMO",
      "outputs": [],
      "payable": false,
      "stateMutability": "nonpayable",
      "type": "function"
    },
    {
      "constant": false,
      "inputs": [
        {
          "name": "_index",
          "type": "uint256"
        }
      ],
      "name": "deleteCMO",
      "outputs": [],
      "payable": false,
      "stateMutability": "nonpayable",
      "type": "function"
    },
    {
      "constant": true,
      "inputs": [],
      "name": "getCMOs",
      "outputs": [
        {
          "name": "",
          "type": "string[]"
        }
      ],
      "payable": false,
      "stateMutability": "view",
      "type": "function"
    }
  ],
  "bytecode": "0x608060405260006007556200001d3364010000000062000023810204565b62000108565b6200003e6000826401000000006200496c6200007582021704565b604051600160a060020a038216907f47d1c22a25bb3a5d4e481b9b1e6944c2eade3181a0a20b495ed61d35b5323f2490600090a250565b600160a060020a03811615156200008b57600080fd5b620000a08282640100000000620000d0810204565b15620000ab57600080fd5b600160a060020a0316600090815260209190915260409020805460ff19166001179055565b6000600160a060020a0382161515620000e857600080fd5b50600160a060020a03166000908152602091909152604090205460ff1690565b615f3880620001186000396000f3006080604052600436106101745763ffffffff7c010000000000000000000000000000000000000000000000000000000060003504166308bdc24d81146101795780631be8850b1461019b578063373cfbb9146101c65780633a59ccf1146101e65780634dc92885146102065780635aef2447146102265780635d73ab9a14610253578063656d561c1461028057806365ff0c48146102a257806368d3b46b146102c257806369c212f6146102e25780637df73e271461030f578063932191be1461033c5780639c4d6e32146103515780639eab525314610366578063a4fdc59414610388578063a7ed1fe41461039d578063a87d942c146103bd578063b6bc3812146103d2578063b90dad9a146103ff578063bf3d007e14610431578063c11e1ff314610451578063c477ecab14610466578063cb68b9e814610486578063e5c8b03d146104a6578063eb12d61e146104bb578063fa1188c6146104db578063fcfbde5b146104fb578063ff240fce1461051b575b600080fd5b34801561018557600080fd5b50610199610194366004614e1a565b61053b565b005b3480156101a757600080fd5b506101b06106d7565b6040516101bd9190615dda565b60405180910390f35b3480156101d257600080fd5b506101996101e1366004614fb4565b6106f4565b3480156101f257600080fd5b50610199610201366004614e40565b6107a9565b34801561021257600080fd5b50610199610221366004614e1a565b610806565b34801561023257600080fd5b50610246610241366004614f31565b61096a565b6040516101bd9190615db8565b34801561025f57600080fd5b5061027361026e366004614f31565b610b69565b6040516101bd9190615c79565b34801561028c57600080fd5b50610295610f44565b6040516101bd9190615c46565b3480156102ae57600080fd5b506101996102bd366004615237565b61101d565b3480156102ce57600080fd5b506101996102dd366004614f4f565b6110ac565b3480156102ee57600080fd5b506103026102fd366004614e1a565b611bd2565b6040516101bd9190615dc9565b34801561031b57600080fd5b5061032f61032a366004614e1a565b611e26565b6040516101bd9190615c8a565b34801561034857600080fd5b50610273611e3e565b34801561035d57600080fd5b506101b061212f565b34801561037257600080fd5b5061037b612135565b6040516101bd9190615c68565b34801561039457600080fd5b506101b06125fc565b3480156103a957600080fd5b506101996103b8366004615187565b6126c1565b3480156103c957600080fd5b506101b0612788565b3480156103de57600080fd5b506103f26103ed366004614f31565b6127a5565b6040516101bd9190615c57565b34801561040b57600080fd5b5061041f61041a366004614f31565b612aa7565b6040516101bd96959493929190615de8565b34801561043d57600080fd5b5061019961044c366004614f31565b612ae3565b34801561045d57600080fd5b50610302612ba1565b34801561047257600080fd5b5061037b610481366004614f31565b612c32565b34801561049257600080fd5b506101996104a136600461502d565b61314d565b3480156104b257600080fd5b506101996131b0565b3480156104c757600080fd5b506101996104d6366004614e1a565b6131bb565b3480156104e757600080fd5b506101b06104f6366004615088565b6131d8565b34801561050757600080fd5b50610199610516366004614e75565b613267565b34801561052757600080fd5b50610199610536366004614e1a565b61334b565b600160a060020a038181166000908152600360205260408120600601546101009004909116116105895760405160e560020a62461bcd02815260040161058090615cd8565b60405180910390fd5b600160a060020a03811660009081526003602081905260408083208201543384529220015414806105be57506105be33611e26565b15156105df5760405160e560020a62461bcd02815260040161058090615ce8565b60023360009081526003602052604090206006015460ff16600281111561060257fe5b1480610612575061061233611e26565b15156106335760405160e560020a62461bcd02815260040161058090615d78565b6001600160a060020a03821660009081526003602052604090206006015460ff16600281111561065f57fe5b1461067f5760405160e560020a62461bcd02815260040161058090615cb8565b600160a060020a038116600090815260036020526040902060060180546002919060ff19166001835b0217905550600160a060020a038116600090815260036020819052604090912001546106d4908261341f565b50565b6000806106e2613587565b90506106ed8161359e565b91505b5090565b60008085116107185760405160e560020a62461bcd02815260040161058090615da8565b50600780546001019081905561072d826135b3565b151561074e5760405160e560020a62461bcd02815260040161058090615d28565b610756613587565b9150610768818686868660008b6135c6565b6107728282613720565b61077d8184866110ac565b6000818152600560208190526040909120015460ff16156107a2576107a28282613745565b5050505050565b6107b233611e26565b15156107bd57600080fd5b60088054600181018083556000929092528251610801917ff3f7a9fe364faab93b216da50a3214154f22a0a2b415b23a84c8169e8b636ee3019060208501906149ba565b505050565b600160a060020a0381811660009081526003602052604081206006015461010090049091161161084b5760405160e560020a62461bcd02815260040161058090615cd8565b600160a060020a0381166000908152600360208190526040808320820154338452922001541480610880575061088033611e26565b15156108a15760405160e560020a62461bcd02815260040161058090615ce8565b60023360009081526003602052604090206006015460ff1660028111156108c457fe5b14806108d457506108d433611e26565b15156108f55760405160e560020a62461bcd02815260040161058090615d78565b6001600160a060020a03821660009081526003602052604090206006015460ff16600281111561092157fe5b146109415760405160e560020a62461bcd02815260040161058090615cf8565b600160a060020a0381166000908152600360205260408120600601805460ff19166001836106a8565b610972614a34565b6005600083815260200190815260200160002060e06040519081016040529081600082015481526020016001820154815260200160028201805480602002602001604051908101604052809291908181526020016000905b82821015610b285760008481526020908190206040805160028681029093018054600181161561010002600019011693909304601f810185900490940281016060908101835291810184815290938492849190840182828015610a6e5780601f10610a4357610100808354040283529160200191610a6e565b820191906000526020600020905b815481529060010190602001808311610a5157829003601f168201915b50505050508152602001600182018054600181600116156101000203166002900480601f016020809104026020016040519081016040528092919081815260200182805460018160011615610100020316600290048015610b105780601f10610ae557610100808354040283529160200191610b10565b820191906000526020600020905b815481529060010190602001808311610af357829003601f168201915b505050505081525050815260200190600101906109ca565b50505090825250600382015460ff90811615156020830152600483015460408301526005830154161515606082015260069091015460809091015292915050565b606060008060006060600080610b7d6125fc565b9550610b8a600a8961376a565b600454909550610b9b90600a6137a3565b9350851580610ba957508585115b80610bb357508388115b15610bbd57610f39565b60408051600a808252610160820190925290816020015b610bdc614a76565b815260200190600190039081610bd4579050509250600091508490505b600454811015610f355733600090815260036020819052604082208101546004805491939185908110610c2857fe5b6000918252602080832090910154600160a060020a03168352820192909252604001902060030154148015610ca55750600260036000600484815481101515610c6d57fe5b6000918252602080832090910154600160a060020a0316835282019290925260400190206006015460ff166002811115610ca357fe5b145b15610f2d5760036000600483815481101515610cbd57fe5b600091825260208083209190910154600160a060020a0316835282810193909352604091820190208151610100808201845282548252600180840180548651600293821615909402600019011691909104601f81018790048702830187019095528482529194929385840193919291830182828015610d7d5780601f10610d5257610100808354040283529160200191610d7d565b820191906000526020600020905b815481529060010190602001808311610d6057829003601f168201915b5050509183525050600282810180546040805160206001841615610100026000190190931694909404601f81018390048302850183019091528084529381019390830182828015610e0f5780601f10610de457610100808354040283529160200191610e0f565b820191906000526020600020905b815481529060010190602001808311610df257829003601f168201915b505050505081526020016003820154815260200160048201548152602001600582018054600181600116156101000203166002900480601f016020809104026020016040519081016040528092919081815260200182805460018160011615610100020316600290048015610ec55780601f10610e9a57610100808354040283529160200191610ec5565b820191906000526020600020905b815481529060010190602001808311610ea857829003601f168201915b5050509183525050600682015460209091019060ff166002811115610ee657fe5b6002811115610ef157fe5b8152600691909101546101009004600160a060020a03166020909101528351849084908110610f1c57fe5b602090810290910101526001909101905b600101610bf9565b8296505b505050505050919050565b60606008805480602002602001604051908101604052809291908181526020016000905b828210156110135760008481526020908190208301805460408051601f6002600019610100600187161502019094169390930492830185900485028101850190915281815292830182828015610fff5780601f10610fd457610100808354040283529160200191610fff565b820191906000526020600020905b815481529060010190602001808311610fe257829003601f168201915b505050505081526020019060010190610f68565b5050505090505b90565b61102633611e26565b151561103157600080fd5b600087815260016020526040812054116110605760405160e560020a62461bcd02815260040161058090615d48565b6000878152600160208190526040909120015486146110945760405160e560020a62461bcd02815260040161058090615c98565b6110a3878787878787876137c6565b50505050505050565b6110b4614ac7565b606060008060006110c486613dbf565b94506110cf85613e0d565b93506111116110f58560058151811015156110e657fe5b90602001906020020151613e0d565b8051600190811061110257fe5b90602001906020020151613ee0565b925060019150600190505b6007548111611bc85760008181526005602052604090206003015460ff16151587151514801561114c5750808814155b15611bc05760008181526005602052604081206002018054909190811061116f57fe5b906000526020600020906002020160010160405160200180828054600181600116156101000203166002900480156111de5780601f106111bc5761010080835404028352918201916111de565b820191906000526020600020905b8154815290600101906020018083116111ca575b50509150506040516020818303038152906040526040518082805190602001908083835b602083106112215780518252601f199092019160209182019101611202565b6001836020036101000a0380198251168184511680821785525050505050509050019150506040518091039020600019166112836112678660008151811015156110e657fe5b8051600190811061127457fe5b90602001906020020151613f16565b6040516020018082805190602001908083835b602083106112b55780518252601f199092019160209182019101611296565b6001836020036101000a0380198251168184511680821785525050505050509050019150506040516020818303038152906040526040518082805190602001908083835b602083106113185780518252601f1990920191602091820191016112f9565b6001836020036101000a03801982511681845116808217855250505050505090500191505060405180910390206000191614801561152f575060008181526005602052604090206002018054600190811061136f57fe5b906000526020600020906002020160010160405160200180828054600181600116156101000203166002900480156113de5780601f106113bc5761010080835404028352918201916113de565b820191906000526020600020905b8154815290600101906020018083116113ca575b50509150506040516020818303038152906040526040518082805190602001908083835b602083106114215780518252601f199092019160209182019101611402565b6001836020036101000a0380198251168184511680821785525050505050509050019150506040518091039020600019166114676112678660018151811015156110e657fe5b6040516020018082805190602001908083835b602083106114995780518252601f19909201916020918201910161147a565b6001836020036101000a0380198251168184511680821785525050505050509050019150506040516020818303038152906040526040518082805190602001908083835b602083106114fc5780518252601f1990920191602091820191016114dd565b6001836020036101000a038019825116818451168082178552505050505050905001915050604051809103902060001916145b80156117165750600081815260056020526040902060029081018054909190811061155657fe5b906000526020600020906002020160010160405160200180828054600181600116156101000203166002900480156115c55780601f106115a35761010080835404028352918201916115c5565b820191906000526020600020905b8154815290600101906020018083116115b1575b50509150506040516020818303038152906040526040518082805190602001908083835b602083106116085780518252601f1990920191602091820191016115e9565b6001836020036101000a03801982511681845116808217855250505050505090500191505060405180910390206000191661164e6112678660028151811015156110e657fe5b6040516020018082805190602001908083835b602083106116805780518252601f199092019160209182019101611661565b6001836020036101000a0380198251168184511680821785525050505050509050019150506040516020818303038152906040526040518082805190602001908083835b602083106116e35780518252601f1990920191602091820191016116c4565b6001836020036101000a038019825116818451168082178552505050505050905001915050604051809103902060001916145b80156118fb575060008181526005602052604090206002018054600390811061173b57fe5b906000526020600020906002020160010160405160200180828054600181600116156101000203166002900480156117aa5780601f106117885761010080835404028352918201916117aa565b820191906000526020600020905b815481529060010190602001808311611796575b50509150506040516020818303038152906040526040518082805190602001908083835b602083106117ed5780518252601f1990920191602091820191016117ce565b6001836020036101000a0380198251168184511680821785525050505050509050019150506040518091039020600019166118336112678660038151811015156110e657fe5b6040516020018082805190602001908083835b602083106118655780518252601f199092019160209182019101611846565b6001836020036101000a0380198251168184511680821785525050505050509050019150506040516020818303038152906040526040518082805190602001908083835b602083106118c85780518252601f1990920191602091820191016118a9565b6001836020036101000a038019825116818451168082178552505050505050905001915050604051809103902060001916145b8015611ae0575060008181526005602052604090206002018054600490811061192057fe5b9060005260206000209060020201600101604051602001808280546001816001161561010002031660029004801561198f5780601f1061196d57610100808354040283529182019161198f565b820191906000526020600020905b81548152906001019060200180831161197b575b50509150506040516020818303038152906040526040518082805190602001908083835b602083106119d25780518252601f1990920191602091820191016119b3565b6001836020036101000a038019825116818451168082178552505050505050905001915050604051809103902060001916611a186112678660048151811015156110e657fe5b6040516020018082805190602001908083835b60208310611a4a5780518252601f199092019160209182019101611a2b565b6001836020036101000a0380198251168184511680821785525050505050509050019150506040516020818303038152906040526040518082805190602001908083835b60208310611aad5780518252601f199092019160209182019101611a8e565b6001836020036101000a038019825116818451168082178552505050505050905001915050604051809103902060001916145b15611bc0576000818152600660205260409020805461ffff80821686011661ffff199091161790558115611b3a57600081815260066020526040808220548a8352908220805461ffff191661ffff90921691909117905591505b600081815260066020526040902054606461ffff9091161115611bc05760008881526005602081905260408083208201805460ff19166001179055838352909120015460ff161515611bc057600081815260056020526040902060040154611ba29089613745565b600081815260056020819052604090912001805460ff191660011790555b60010161111c565b5050505050505050565b611bda614a76565b600160a060020a0382166000908152600360209081526040918290208251610100808201855282548252600180840180548751600293821615909402600019011691909104601f8101869004860283018601909652858252919492938581019391929190830182828015611c8f5780601f10611c6457610100808354040283529160200191611c8f565b820191906000526020600020905b815481529060010190602001808311611c7257829003601f168201915b5050509183525050600282810180546040805160206001841615610100026000190190931694909404601f81018390048302850183019091528084529381019390830182828015611d215780601f10611cf657610100808354040283529160200191611d21565b820191906000526020600020905b815481529060010190602001808311611d0457829003601f168201915b505050505081526020016003820154815260200160048201548152602001600582018054600181600116156101000203166002900480601f016020809104026020016040519081016040528092919081815260200182805460018160011615610100020316600290048015611dd75780601f10611dac57610100808354040283529160200191611dd7565b820191906000526020600020905b815481529060010190602001808311611dba57829003601f168201915b5050509183525050600682015460209091019060ff166002811115611df857fe5b6002811115611e0357fe5b8152600691909101546101009004600160a060020a031660209091015292915050565b6000611e38818363ffffffff613f8816565b92915050565b6060806000611e4c33611e26565b1515611e5757600080fd5b600454604080518281526020808402820101909152908015611e9357816020015b611e80614a76565b815260200190600190039081611e785790505b509150600090505b6004548110156121295760036000600483815481101515611eb857fe5b600091825260208083209190910154600160a060020a0316835282810193909352604091820190208151610100808201845282548252600180840180548651600293821615909402600019011691909104601f81018790048702830187019095528482529194929385840193919291830182828015611f785780601f10611f4d57610100808354040283529160200191611f78565b820191906000526020600020905b815481529060010190602001808311611f5b57829003601f168201915b5050509183525050600282810180546040805160206001841615610100026000190190931694909404601f8101839004830285018301909152808452938101939083018282801561200a5780601f10611fdf5761010080835404028352916020019161200a565b820191906000526020600020905b815481529060010190602001808311611fed57829003601f168201915b505050505081526020016003820154815260200160048201548152602001600582018054600181600116156101000203166002900480601f0160208091040260200160405190810160405280929190818152602001828054600181600116156101000203166002900480156120c05780601f10612095576101008083540402835291602001916120c0565b820191906000526020600020905b8154815290600101906020018083116120a357829003601f168201915b5050509183525050600682015460209091019060ff1660028111156120e157fe5b60028111156120ec57fe5b8152600691909101546101009004600160a060020a0316602090910152825183908390811061211757fe5b60209081029091010152600101611e9b565b50919050565b60075481565b606080600060028054905060405190808252806020026020018201604052801561217957816020015b612166614ade565b81526020019060019003908161215e5790505b509150600090505b600254811015612129576001600060028381548110151561219e57fe5b9060005260206000200154815260200190815260200160002061014060405190810160405290816000820154815260200160018201548152602001600282018054600181600116156101000203166002900480601f0160208091040260200160405190810160405280929190818152602001828054600181600116156101000203166002900480156122715780601f1061224657610100808354040283529160200191612271565b820191906000526020600020905b81548152906001019060200180831161225457829003601f168201915b505050918352505060038201805460408051602060026001851615610100026000190190941693909304601f81018490048402820184019092528181529382019392918301828280156123055780601f106122da57610100808354040283529160200191612305565b820191906000526020600020905b8154815290600101906020018083116122e857829003601f168201915b505050918352505060048201805460408051602060026001851615610100026000190190941693909304601f81018490048402820184019092528181529382019392918301828280156123995780601f1061236e57610100808354040283529160200191612399565b820191906000526020600020905b81548152906001019060200180831161237c57829003601f168201915b505050918352505060058201805460408051602060026001851615610100026000190190941693909304601f810184900484028201840190925281815293820193929183018282801561242d5780601f106124025761010080835404028352916020019161242d565b820191906000526020600020905b81548152906001019060200180831161241057829003601f168201915b505050918352505060068201805460408051602060026001851615610100026000190190941693909304601f81018490048402820184019092528181529382019392918301828280156124c15780601f10612496576101008083540402835291602001916124c1565b820191906000526020600020905b8154815290600101906020018083116124a457829003601f168201915b505050505081526020016007820180548060200260200160405190810160405280929190818152602001828054801561251957602002820191906000526020600020905b815481526020019060010190808311612505575b505050505081526020016008820180548060200260200160405190810160405280929190818152602001828054801561257157602002820191906000526020600020905b81548152602001906001019080831161255d575b50505050508152602001600982018054806020026020016040519081016040528092919081815260200182805480156125d357602002820191906000526020600020905b8154600160a060020a031681526001909101906020018083116125b5575b50505050508152505082828151811015156125ea57fe5b60209081029091010152600101612181565b600080805b600454811015612129573360009081526003602081905260408220810154600480549193918590811061263057fe5b6000918252602080832090910154600160a060020a031683528201929092526040019020600301541480156126ad575060026003600060048481548110151561267557fe5b6000918252602080832090910154600160a060020a0316835282019290925260400190206006015460ff1660028111156126ab57fe5b145b156126b9576001909101905b600101612601565b60008115156126e55760405160e560020a62461bcd02815260040161058090615d98565b600086116127085760405160e560020a62461bcd02815260040161058090615da8565b33600090815260036020526040902054156127385760405160e560020a62461bcd02815260040161058090615cc8565b612741826135b3565b15156127625760405160e560020a62461bcd02815260040161058090615d48565b61276b86613fbf565b905061278086868685858860013360006141ae565b505050505050565b600061279333611e26565b151561279e57600080fd5b5060025490565b60606000806000806060806000806127be600a8b61376a565b97506127c8613587565b96506127d38761359e565b95506127e086600a6137a3565b94508515806127f157506001860388115b806127fb5750848a115b1561280557612a9a565b61280e87614602565b60408051600a8082526101608201909252919550816020015b61282f614a34565b815260200190600190039081612827579050509250600091508790505b8351811015612a9657600a821015612a895760056000858381518110151561287057fe5b90602001906020020151815260200190815260200160002060e06040519081016040529081600082015481526020016001820154815260200160028201805480602002602001604051908101604052809291908181526020016000905b82821015612a2b5760008481526020908190206040805160028681029093018054600181161561010002600019011693909304601f8101859004909402810160609081018352918101848152909384928491908401828280156129715780601f1061294657610100808354040283529160200191612971565b820191906000526020600020905b81548152906001019060200180831161295457829003601f168201915b50505050508152602001600182018054600181600116156101000203166002900480601f016020809104026020016040519081016040528092919081815260200182805460018160011615610100020316600290048015612a135780601f106129e857610100808354040283529160200191612a13565b820191906000526020600020905b8154815290600101906020018083116129f657829003601f168201915b505050505081525050815260200190600101906128cd565b50505090825250600382015460ff9081161515602083015260048301546040830152600583015416151560608201526006909101546080909101528351849084908110612a7457fe5b60209081029091010152600190910190612a8e565b612a96565b60010161284c565b8298505b5050505050505050919050565b60056020819052600091825260409091208054600182015460038301546004840154948401546006909401549294919360ff9182169391169086565b6000612aee33611e26565b1515612af957600080fd5b50805b60085460001901811015612b66576008805460018301908110612b1b57fe5b90600052602060002001600882815481101515612b3457fe5b906000526020600020019080546001816001161561010002031660029004612b5d929190614b32565b50600101612afc565b600880546000198101908110612b7857fe5b906000526020600020016000612b8e9190614ba7565b6008805490610801906000198301614beb565b612ba9614a76565b612bb1614a76565b336000908152600360209081526040918290208251610100808201855282548252600180840180548751600293821615909402600019011691909104601f8101869004860283018601909652858252919492938581019391929190830182828015611c8f5780601f10611c6457610100808354040283529160200191611c8f565b6060600080600060606000612c48600a8861376a565b600254909550612c5990600a6137a3565b6002549094501580612c7057506002546000190185115b80612c7a57508387115b15612c8457613143565b60408051600a80825261016082019092526000945090816020015b612ca7614ade565b815260200190600190039081612c9f5790505091508490505b60025481101561313f5760016000600283815481101515612cdd57fe5b9060005260206000200154815260200190815260200160002061014060405190810160405290816000820154815260200160018201548152602001600282018054600181600116156101000203166002900480601f016020809104026020016040519081016040528092919081815260200182805460018160011615610100020316600290048015612db05780601f10612d8557610100808354040283529160200191612db0565b820191906000526020600020905b815481529060010190602001808311612d9357829003601f168201915b505050918352505060038201805460408051602060026001851615610100026000190190941693909304601f8101849004840282018401909252818152938201939291830182828015612e445780601f10612e1957610100808354040283529160200191612e44565b820191906000526020600020905b815481529060010190602001808311612e2757829003601f168201915b505050918352505060048201805460408051602060026001851615610100026000190190941693909304601f8101849004840282018401909252818152938201939291830182828015612ed85780601f10612ead57610100808354040283529160200191612ed8565b820191906000526020600020905b815481529060010190602001808311612ebb57829003601f168201915b505050918352505060058201805460408051602060026001851615610100026000190190941693909304601f8101849004840282018401909252818152938201939291830182828015612f6c5780601f10612f4157610100808354040283529160200191612f6c565b820191906000526020600020905b815481529060010190602001808311612f4f57829003601f168201915b505050918352505060068201805460408051602060026001851615610100026000190190941693909304601f81018490048402820184019092528181529382019392918301828280156130005780601f10612fd557610100808354040283529160200191613000565b820191906000526020600020905b815481529060010190602001808311612fe357829003601f168201915b505050505081526020016007820180548060200260200160405190810160405280929190818152602001828054801561305857602002820191906000526020600020905b815481526020019060010190808311613044575b50505050508152602001600882018054806020026020016040519081016040528092919081815260200182805480156130b057602002820191906000526020600020905b81548152602001906001019080831161309c575b505050505081526020016009820180548060200260200160405190810160405280929190818152602001828054801561311257602002820191906000526020600020905b8154600160a060020a031681526001909101906020018083116130f4575b505050505081525050828481518110151561312957fe5b6020908102909101015260019283019201612cc0565b8195505b5050505050919050565b600160075411156131795760008381526005602052604090206003015461317990849060ff16846110ac565b60008381526005602081905260409091208054600382015460048301549290930154610801938793879260ff9283169216876135c6565b6131b933614697565b565b6131c433611e26565b15156131cf57600080fd5b6106d4816146df565b6000806131e433611e26565b15156131ef57600080fd5b600088116132125760405160e560020a62461bcd02815260040161058090615da8565b61321b88613fbf565b6000818152600160205260409020549091501561324d5760405160e560020a62461bcd02815260040161058090615d38565b61325c818989898989896137c6565b979650505050505050565b600160a060020a038181166000908152600360205260408120600601549091829182916101009091041681106132b25760405160e560020a62461bcd02815260040161058090615cd8565b6002600160a060020a03851660009081526003602052604090206006015460ff1660028111156132de57fe5b146132fe5760405160e560020a62461bcd02815260040161058090615d78565b600160a060020a03841660009081526003602052604090206004810154815460069092015490945090925060ff16600281111561333757fe5b9050611bc882898989878a878b60016141ae565b61335433611e26565b151561335f57600080fd5b600160a060020a03811660009081526003602081905260409091200154613386908261341f565b604080518082018252600b81527f53757065722061646d696e0000000000000000000000000000000000000000006020808301918252600160a060020a038516600090815260039091529290922090516133e692600590920191906149ba565b50600160a060020a0381166000908152600360208190526040822090810191909155600601805460ff191660021790556106d4816131bb565b6000805b6000848152600160205260409020600901546000190181101561351f5760008481526001602052604090206009018054600160a060020a03851691908390811061346957fe5b600091825260209091200154600160a060020a0316141561348957600191505b81156135175760008481526001602081905260409091206009018054909183019081106134b257fe5b6000918252602080832090910154868352600190915260409091206009018054600160a060020a0390921691839081106134e857fe5b9060005260206000200160006101000a815481600160a060020a030219169083600160a060020a031602179055505b600101613423565b60008481526001602052604090206009018054600019810190811061354057fe5b60009182526020808320909101805473ffffffffffffffffffffffffffffffffffffffff1916905585825260019052604090206009018054906107a2906000198301614c0f565b336000908152600360208190526040909120015490565b60009081526001602052604090206008015490565b6000908152600160205260408120541190565b6135ce614ac7565b6060600060606135dd89613dbf565b93506135e884613e0d565b60008c8152600560205260408120600181018e90558c815560038101805460ff19168c15151790559194506136209160020190614c33565b600091505b82518210156136e75761363f83838151811015156110e657fe5b9050600560008c8152602001908152602001600020600201604080519081016040528061367484600081518110151561127457fe5b815260200161368b84600181518110151561127457fe5b905281546001810180845560009384526020938490208351805192956002909402909101926136bf928492909101906149ba565b5060208281015180516136d892600185019201906149ba565b50505050816001019150613625565b505050600097885250600560208190526040909720600481019390935560068301559401805460ff191694151594909417909355505050565b6000918252600160208181526040842060080180549283018155845290922090910155565b6000918252600160208181526040842060070180549283018155845290922090910155565b60008083151561377d576000915061379c565b5082820282848281151561378d57fe5b041461379857600080fd5b8091505b5092915050565b6000808083116137b257600080fd5b82848115156137bd57fe5b04949350505050565b6137ce614ade565b855115156137f15760405160e560020a62461bcd02815260040161058090615d88565b825115156138145760405160e560020a62461bcd02815260040161058090615d68565b815115156138375760405160e560020a62461bcd02815260040161058090615d58565b6000888152600160208181526040928390208351610140810185528154815281840154818401526002808301805487519681161561010002600019011691909104601f8101859004850286018501875280865291959294928601939091908301828280156138e65780601f106138bb576101008083540402835291602001916138e6565b820191906000526020600020905b8154815290600101906020018083116138c957829003601f168201915b505050918352505060038201805460408051602060026001851615610100026000190190941693909304601f810184900484028201840190925281815293820193929183018282801561397a5780601f1061394f5761010080835404028352916020019161397a565b820191906000526020600020905b81548152906001019060200180831161395d57829003601f168201915b505050918352505060048201805460408051602060026001851615610100026000190190941693909304601f8101849004840282018401909252818152938201939291830182828015613a0e5780601f106139e357610100808354040283529160200191613a0e565b820191906000526020600020905b8154815290600101906020018083116139f157829003601f168201915b505050918352505060058201805460408051602060026001851615610100026000190190941693909304601f8101849004840282018401909252818152938201939291830182828015613aa25780601f10613a7757610100808354040283529160200191613aa2565b820191906000526020600020905b815481529060010190602001808311613a8557829003601f168201915b505050918352505060068201805460408051602060026001851615610100026000190190941693909304601f8101849004840282018401909252818152938201939291830182828015613b365780601f10613b0b57610100808354040283529160200191613b36565b820191906000526020600020905b815481529060010190602001808311613b1957829003601f168201915b5050505050815260200160078201805480602002602001604051908101604052809291908181526020018280548015613b8e57602002820191906000526020600020905b815481526020019060010190808311613b7a575b5050505050815260200160088201805480602002602001604051908101604052809291908181526020018280548015613be657602002820191906000526020600020905b815481526020019060010190808311613bd2575b5050505050815260200160098201805480602002602001604051908101604052809291908181526020018280548015613c4857602002820191906000526020600020905b8154600160a060020a03168152600190910190602001808311613c2a575b50505091909252505050888152602080820189815260408084018a8152606085018a90526080850189905260a0850188905260c0850187905260008d815260018086529290208551815592519183019190915551805193945084939192613cb7926002850192909101906149ba565b5060608201518051613cd39160038401916020909101906149ba565b5060808201518051613cef9160048401916020909101906149ba565b5060a08201518051613d0b9160058401916020909101906149ba565b5060c08201518051613d279160068401916020909101906149ba565b5060e08201518051613d43916007840191602090910190614c54565b506101008201518051613d60916008840191602090910190614c54565b506101208201518051613d7d916009840191602090910190614c8e565b5050600280546001810182556000919091527f405787fa12a823e0f2b7631cc41b3ba8828b3321ca811111fa75cd3aa3bb5ace01989098555050505050505050565b613dc7614ac7565b6000825160001415613dee5760408051808201909152600080825260208201529150612129565b5050604080518082019091528151815260209182019181019190915290565b6060600080600080613e1e86614727565b1515613e2957600080fd5b613e3286614756565b935083604051908082528060200260200182016040528015613e6e57816020015b613e5b614ac7565b815260200190600190039081613e535790505b509450613e7e86602001516147a6565b8660200151019250600090505b83811015613ed757613e9c83614809565b91506040805190810160405280838152602001848152508582815181101515613ec157fe5b6020908102909101015291810191600101613e8b565b50505050919050565b6000806000806000613ef586602001516147a6565b86516020978801518201519190039096036101000a90950495945050505050565b606060008060606000613f2c86602001516147a6565b9350838660000151039250826040519080825280601f01601f191660200182016040528015613f65578160200160208202803883390190505b509150816020019050613f7f84876020015101828561489a565b50949350505050565b6000600160a060020a0382161515613f9f57600080fd5b50600160a060020a03166000908152602091909152604090205460ff1690565b60008080806002850615156140515784604051602001808281526020019150506040516020818303038152906040526040518082805190602001908083835b6020831061401d5780518252601f199092019160209182019101613ffe565b6001836020036101000a0380198251168184511680821785525050505050509050019150506040518091039020925061413c565b84604051602001808281526020019150506040516020818303038152906040526040518082805190602001908083835b602083106140a05780518252601f199092019160209182019101614081565b51815160209384036101000a600019018019909216911617905260408051929094018290038220828201528351808303820181529184019384905281519195509293508392850191508083835b6020831061410c5780518252601f1990920191602091820191016140ed565b6001836020036101000a038019825116818451168082178552505050505050905001915050604051809103902092505b60208110156141695782816020811061415157fe5b60f860020a91901a810204919091019060010161413c565b82602060028401066020811061417b57fe5b60f860020a91901a81020483602084066020811061419557fe5b1a60f860020a0260f860020a9004029350505050919050565b6141b6614a76565b6000841015806141c7575060028411155b15156141e85760405160e560020a62461bcd02815260040161058090615d08565b8451151561420b5760405160e560020a62461bcd02815260040161058090615ca8565b600160a060020a0383166000908152600360209081526040918290208251610100808201855282548252600180840180548751600293821615909402600019011691909104601f81018690048602830186019096528582529194929385810193919291908301828280156142c05780601f10614295576101008083540402835291602001916142c0565b820191906000526020600020905b8154815290600101906020018083116142a357829003601f168201915b5050509183525050600282810180546040805160206001841615610100026000190190931694909404601f810183900483028501830190915280845293810193908301828280156143525780601f1061432757610100808354040283529160200191614352565b820191906000526020600020905b81548152906001019060200180831161433557829003601f168201915b505050505081526020016003820154815260200160048201548152602001600582018054600181600116156101000203166002900480601f0160208091040260200160405190810160405280929190818152602001828054600181600116156101000203166002900480156144085780601f106143dd57610100808354040283529160200191614408565b820191906000526020600020905b8154815290600101906020018083116143eb57829003601f168201915b5050509183525050600682015460209091019060ff16600281111561442957fe5b600281111561443457fe5b8152600691909101546101009004600160a060020a03166020918201528b825281018a905260408101899052606081018890526080810187905260a08101869052905083600281111561448357fe5b8160c00190600281111561449357fe5b908160028111156144a057fe5b905250600160a060020a03831660e0820181905260009081526003602090815260409091208251815581830151805184936144e29260018501929101906149ba565b50604082015180516144fe9160028401916020909101906149ba565b50606082015160038201556080820151600482015560a0820151805161452e9160058401916020909101906149ba565b5060c082015160068201805460ff1916600183600281111561454c57fe5b021790555060e0919091015160069091018054600160a060020a039092166101000274ffffffffffffffffffffffffffffffffffffffff00199092169190911790558115156145f657600480546001810182556000919091527f8a35acfbc15ff81a39ae7d344fd709f28e8600b4aa8c65c6b64bfe7fe36bd19b01805473ffffffffffffffffffffffffffffffffffffffff1916600160a060020a0385161790556145f6876148e1565b50505050505050505050565b600081815260016020526040812054606091106146345760405160e560020a62461bcd02815260040161058090615d18565b6000828152600160209081526040918290206008018054835181840281018401909452808452909183018282801561468b57602002820191906000526020600020905b815481526020019060010190808311614677575b50505050509050919050565b6146a860008263ffffffff61492016565b604051600160a060020a038216907f3525e22824a8a7df2c9a6029941c824cf95b6447f1e13d5128fd3826d35afe8b90600090a250565b6146f060008263ffffffff61496c16565b604051600160a060020a038216907f47d1c22a25bb3a5d4e481b9b1e6944c2eade3181a0a20b495ed61d35b5323f2490600090a250565b6020810151805160009190821a9060c060ff8316101561474a576000925061474f565b600192505b5050919050565b6000806000806000925061476d85602001516147a6565b6020860151865191810193500190505b8082101561479d5761478e82614809565b6001909301929091019061477d565b50909392505050565b8051600090811a60808110156147bf5760009150612129565b60b88110806147da575060c081108015906147da575060f881105b156147e85760019150612129565b60c08110156147fd5760b51981019150612129565b60f51981019150612129565b8051600090811a60808110156148225760019150612129565b60b881101561483757607e1981019150612129565b60c08110156148645760b78103600184019350806020036101000a84510460018201810193505050612129565b60f88110156148795760be1981019150612129565b60019290920151602083900360f7016101000a900490910160f51901919050565b60005b602082106148bf578351835260209384019390920191601f199091019061489d565b50915181516020939093036101000a6000190180199091169216919091179052565b6000908152600160208181526040832060090180549283018155835290912001805473ffffffffffffffffffffffffffffffffffffffff191633179055565b600160a060020a038116151561493557600080fd5b61493f8282613f88565b151561494a57600080fd5b600160a060020a0316600090815260209190915260409020805460ff19169055565b600160a060020a038116151561498157600080fd5b61498b8282613f88565b1561499557600080fd5b600160a060020a0316600090815260209190915260409020805460ff19166001179055565b828054600181600116156101000203166002900490600052602060002090601f016020900481019282601f106149fb57805160ff1916838001178555614a28565b82800160010185558215614a28579182015b82811115614a28578251825591602001919060010190614a0d565b506106f0929150614cfc565b60e06040519081016040528060008152602001600081526020016060815260200160001515815260200160008152602001600015158152602001600081525090565b6101006040519081016040528060008152602001606081526020016060815260200160008152602001600081526020016060815260200160006002811115614aba57fe5b8152600060209091015290565b604080518082019091526000808252602082015290565b61014060405190810160405280600081526020016000815260200160608152602001606081526020016060815260200160608152602001606081526020016060815260200160608152602001606081525090565b828054600181600116156101000203166002900490600052602060002090601f016020900481019282601f10614b6b5780548555614a28565b82800160010185558215614a2857600052602060002091601f016020900482015b82811115614a28578254825591600101919060010190614b8c565b50805460018160011615610100020316600290046000825580601f10614bcd57506106d4565b601f0160209004906000526020600020908101906106d49190614cfc565b81548183558181111561080157600083815260209020610801918101908301614d16565b81548183558181111561080157600083815260209020610801918101908301614cfc565b50805460008255600202906000526020600020908101906106d49190614d39565b828054828255906000526020600020908101928215614a285791602002820182811115614a28578251825591602001919060010190614a0d565b828054828255906000526020600020908101928215614cf0579160200282015b82811115614cf0578251825473ffffffffffffffffffffffffffffffffffffffff1916600160a060020a03909116178255602090920191600190910190614cae565b506106f0929150614d6a565b61101a91905b808211156106f05760008155600101614d02565b61101a91905b808211156106f0576000614d308282614ba7565b50600101614d1c565b61101a91905b808211156106f0576000614d538282614ba7565b614d61600183016000614ba7565b50600201614d3f565b61101a91905b808211156106f057805473ffffffffffffffffffffffffffffffffffffffff19168155600101614d70565b6000614da78235615e90565b9392505050565b6000614da78235615e9c565b6000601f82018313614dcb57600080fd5b8135614dde614dd982615e5e565b615e37565b91508082526020830160208301858383011115614dfa57600080fd5b614e05838284615eb8565b50505092915050565b6000614da7823561101a565b600060208284031215614e2c57600080fd5b6000614e388484614d9b565b949350505050565b600060208284031215614e5257600080fd5b813567ffffffffffffffff811115614e6957600080fd5b614e3884828501614dba565b600080600080600060a08688031215614e8d57600080fd5b853567ffffffffffffffff811115614ea457600080fd5b614eb088828901614dba565b955050602086013567ffffffffffffffff811115614ecd57600080fd5b614ed988828901614dba565b9450506040614eea88828901614e0e565b935050606086013567ffffffffffffffff811115614f0757600080fd5b614f1388828901614dba565b9250506080614f2488828901614d9b565b9150509295509295909350565b600060208284031215614f4357600080fd5b6000614e388484614e0e565b600080600060608486031215614f6457600080fd5b6000614f708686614e0e565b9350506020614f8186828701614dae565b925050604084013567ffffffffffffffff811115614f9e57600080fd5b614faa86828701614dba565b9150509250925092565b60008060008060808587031215614fca57600080fd5b6000614fd68787614e0e565b945050602085013567ffffffffffffffff811115614ff357600080fd5b614fff87828801614dba565b935050604061501087828801614dae565b925050606061502187828801614e0e565b91505092959194509250565b60008060006060848603121561504257600080fd5b600061504e8686614e0e565b935050602084013567ffffffffffffffff81111561506b57600080fd5b61507786828701614dba565b9250506040614faa86828701614e0e565b60008060008060008060c087890312156150a157600080fd5b60006150ad8989614e0e565b965050602087013567ffffffffffffffff8111156150ca57600080fd5b6150d689828a01614dba565b955050604087013567ffffffffffffffff8111156150f357600080fd5b6150ff89828a01614dba565b945050606087013567ffffffffffffffff81111561511c57600080fd5b61512889828a01614dba565b935050608087013567ffffffffffffffff81111561514557600080fd5b61515189828a01614dba565b92505060a087013567ffffffffffffffff81111561516e57600080fd5b61517a89828a01614dba565b9150509295509295509295565b600080600080600060a0868803121561519f57600080fd5b60006151ab8888614e0e565b955050602086013567ffffffffffffffff8111156151c857600080fd5b6151d488828901614dba565b945050604086013567ffffffffffffffff8111156151f157600080fd5b6151fd88828901614dba565b935050606086013567ffffffffffffffff81111561521a57600080fd5b61522688828901614dba565b9250506080614f2488828901614e0e565b600080600080600080600060e0888a03121561525257600080fd5b600061525e8a8a614e0e565b975050602061526f8a828b01614e0e565b965050604088013567ffffffffffffffff81111561528c57600080fd5b6152988a828b01614dba565b955050606088013567ffffffffffffffff8111156152b557600080fd5b6152c18a828b01614dba565b945050608088013567ffffffffffffffff8111156152de57600080fd5b6152ea8a828b01614dba565b93505060a088013567ffffffffffffffff81111561530757600080fd5b6153138a828b01614dba565b92505060c088013567ffffffffffffffff81111561533057600080fd5b61533c8a828b01614dba565b91505092959891949750929550565b61535481615e90565b82525050565b600061536582615e8c565b80845260208401935061537783615e86565b60005b828110156153a75761538d86835161534b565b61539682615e86565b60209690960195915060010161537a565b5093949350505050565b60006153bc82615e8c565b808452602084019350836020820285016153d585615e86565b60005b8481101561540c5783830388526153f08383516155e3565b92506153fb82615e86565b6020989098019791506001016153d8565b50909695505050505050565b600061542382615e8c565b8084526020840193508360208202850161543c85615e86565b60005b8481101561540c5783830388526154578383516159c4565b925061546282615e86565b60209890980197915060010161543f565b600061547e82615e8c565b8084526020840193508360208202850161549785615e86565b60005b8481101561540c5783830388526154b2838351615a59565b92506154bd82615e86565b60209890980197915060010161549a565b60006154d982615e8c565b808452602084019350836020820285016154f285615e86565b60005b8481101561540c57838303885261550d838351615b5c565b925061551882615e86565b6020989098019791506001016154f5565b600061553482615e8c565b8084526020840193508360208202850161554d85615e86565b60005b8481101561540c578383038852615568838351615b8e565b925061557382615e86565b602098909801979150600101615550565b600061558f82615e8c565b8084526020840193506155a183615e86565b60005b828110156153a7576155b7868351615c3d565b6155c082615e86565b6020969096019591506001016155a4565b61535481615e9c565b61535481615ead565b60006155ee82615e8c565b808452615602816020860160208601615ec4565b61560b81615ef4565b9093016020019392505050565b601a81527f4372656174696f6e204461746520697320696e6d757461626c65000000000000602082015260400190565b601181527f726f6c65206973206d616e6461746f7279000000000000000000000000000000602082015260400190565b602281527f4f6e6c792070656e64696e672075736572732063616e2062652061636365707460208201527f6564000000000000000000000000000000000000000000000000000000000000604082015260600190565b601381527f5573657220616c72656164792065786973747300000000000000000000000000602082015260400190565b601481527f546869732075736572206e6f7420657869737473000000000000000000000000602082015260400190565b601b81527f596f752063616e6e6f7420616363657074207468697320757365720000000000602082015260400190565b602281527f4f6e6c792070656e64696e672075736572732063616e2062652072656a65637460208201527f6564000000000000000000000000000000000000000000000000000000000000604082015260600190565b601381527f737461747573206973206e6f742076616c696400000000000000000000000000602082015260400190565b601181527f6d656d626572206e6f7420657869737473000000000000000000000000000000602082015260400190565b601481527f4d656d62657220646f206e6f7420657869737473000000000000000000000000602082015260400190565b601581527f4d656d62657220616c7265616479206578697374730000000000000000000000602082015260400190565b601181527f4d656d626572206e6f7420657869737473000000000000000000000000000000602082015260400190565b601281527f5468656d65206973206d616e6461746f72790000000000000000000000000000602082015260400190565b601081527f434d4f206973206d616e6461746f727900000000000000000000000000000000602082015260400190565b601481527f596f7520617265206e6f74206163636570746564000000000000000000000000602082015260400190565b601181527f4e616d65206973206d616e6461746f7279000000000000000000000000000000602082015260400190565b601181527f4e6f2076616c6964206d656d6265724964000000000000000000000000000000602082015260400190565b601981527f4372656174696f6e44617465206973206d616e6461746f727900000000000000602082015260400190565b805160009060e08401906159d88582615c3d565b5060208301516159eb6020860182615c3d565b5060408301518482036040860152615a0382826154ce565b9150506060830151615a1860608601826155d1565b506080830151615a2b6080860182615c3d565b5060a0830151615a3e60a08601826155d1565b5060c0830151615a5160c0860182615c3d565b509392505050565b8051600090610140840190615a6e8582615c3d565b506020830151615a816020860182615c3d565b5060408301518482036040860152615a9982826155e3565b91505060608301518482036060860152615ab382826155e3565b91505060808301518482036080860152615acd82826155e3565b91505060a083015184820360a0860152615ae782826155e3565b91505060c083015184820360c0860152615b0182826155e3565b91505060e083015184820360e0860152615b1b8282615584565b915050610100830151848203610100860152615b378282615584565b915050610120830151848203610120860152615b53828261535a565b95945050505050565b8051604080845260009190840190615b7482826155e3565b91505060208301518482036020860152615b5382826155e3565b8051600090610100840190615ba38582615c3d565b5060208301518482036020860152615bbb82826155e3565b91505060408301518482036040860152615bd582826155e3565b9150506060830151615bea6060860182615c3d565b506080830151615bfd6080860182615c3d565b5060a083015184820360a0860152615c1582826155e3565b91505060c0830151615c2a60c08601826155da565b5060e0830151615a5160e086018261534b565b6153548161101a565b60208082528101614da781846153b1565b60208082528101614da78184615418565b60208082528101614da78184615473565b60208082528101614da78184615529565b60208101611e3882846155d1565b60208082528101611e3881615618565b60208082528101611e3881615648565b60208082528101611e3881615678565b60208082528101611e38816156ce565b60208082528101611e38816156fe565b60208082528101611e388161572e565b60208082528101611e388161575e565b60208082528101611e38816157b4565b60208082528101611e38816157e4565b60208082528101611e3881615814565b60208082528101611e3881615844565b60208082528101611e3881615874565b60208082528101611e38816158a4565b60208082528101611e38816158d4565b60208082528101611e3881615904565b60208082528101611e3881615934565b60208082528101611e3881615964565b60208082528101611e3881615994565b60208082528101614da781846159c4565b60208082528101614da78184615b8e565b60208101611e388284615c3d565b60c08101615df68289615c3d565b615e036020830188615c3d565b615e1060408301876155d1565b615e1d6060830186615c3d565b615e2a60808301856155d1565b61325c60a0830184615c3d565b60405181810167ffffffffffffffff81118282101715615e5657600080fd5b604052919050565b600067ffffffffffffffff821115615e7557600080fd5b506020601f91909101601f19160190565b60200190565b5190565b600160a060020a031690565b151590565b6000600382106106f057fe5b6000611e3882615ea1565b82818337506000910152565b60005b83811015615edf578181015183820152602001615ec7565b83811115615eee576000848401525b50505050565b601f01601f1916905600a265627a7a723058204ff69b771932b573dc2b0a8aee942a58610e6e96dc100b24d8d4569666c08d086c6578706572696d656e74616cf50037",
  "source": "pragma solidity ^0.4.24;\npragma experimental ABIEncoderV2;\n\nimport \"./Claims.sol\";\n\ncontract Registry is Claims {\n  \n  string[] private cmos_;\n\n  function addCMO(string memory _cmo) onlySigner public {\n    cmos_.push(_cmo);\n  }\n\n  function deleteCMO(uint _index) onlySigner public {\n    for (uint i = _index; i < cmos_.length-1;i++){\n      cmos_[i] = cmos_[i+1];\n    }\n    delete cmos_[cmos_.length-1];\n    cmos_.length--;\n  }\n\n  function getCMOs() view public returns( string[] memory ) {\n    return cmos_;\n  }\n\n}",
  "sourcePath": "/home/komodo/newUI/bloomen-decentralized-rights-management-v2/truffle/contracts/registry/Registry.sol",
  "compiler": {
    "name": "solc",
    "version": "0.4.24+commit.e67f0147.Emscripten.clang"
  },
  "schemaVersion": "2.0.1",
  "updatedAt": "2019-11-14T13:46:05.304Z"
}