{
  "contractName": "RegistryToClaims2",
  "abi": [
    {
      "constant": false,
      "inputs": [
        {
          "name": "_userToAccept",
          "type": "address"
        }
      ],
      "name": "acceptUser",
      "outputs": [],
      "payable": false,
      "stateMutability": "nonpayable",
      "type": "function"
    },
    {
      "constant": false,
      "inputs": [
        {
          "name": "_userToReject",
          "type": "address"
        }
      ],
      "name": "rejectUser",
      "outputs": [],
      "payable": false,
      "stateMutability": "nonpayable",
      "type": "function"
    },
    {
      "constant": true,
      "inputs": [
        {
          "name": "_page",
          "type": "uint256"
        }
      ],
      "name": "getUsers",
      "outputs": [
        {
          "components": [
            {
              "name": "creationDate",
              "type": "uint256"
            },
            {
              "name": "firstName",
              "type": "string"
            },
            {
              "name": "lastName",
              "type": "string"
            },
            {
              "name": "memberId",
              "type": "uint256"
            },
            {
              "name": "requestId",
              "type": "uint256"
            },
            {
              "name": "role",
              "type": "string"
            },
            {
              "name": "status",
              "type": "uint8"
            },
            {
              "name": "owner",
              "type": "address"
            }
          ],
          "name": "",
          "type": "tuple[]"
        }
      ],
      "payable": false,
      "stateMutability": "view",
      "type": "function"
    },
    {
      "constant": false,
      "inputs": [
        {
          "name": "_memberId",
          "type": "uint256"
        },
        {
          "name": "_creationDate",
          "type": "uint256"
        },
        {
          "name": "_name",
          "type": "string"
        },
        {
          "name": "_logo",
          "type": "string"
        },
        {
          "name": "_country",
          "type": "string"
        },
        {
          "name": "_cmo",
          "type": "string"
        },
        {
          "name": "_theme",
          "type": "string"
        }
      ],
      "name": "updateMember",
      "outputs": [],
      "payable": false,
      "stateMutability": "nonpayable",
      "type": "function"
    },
    {
      "constant": true,
      "inputs": [
        {
          "name": "userAddress",
          "type": "address"
        }
      ],
      "name": "getUserByAddress",
      "outputs": [
        {
          "components": [
            {
              "name": "creationDate",
              "type": "uint256"
            },
            {
              "name": "firstName",
              "type": "string"
            },
            {
              "name": "lastName",
              "type": "string"
            },
            {
              "name": "memberId",
              "type": "uint256"
            },
            {
              "name": "requestId",
              "type": "uint256"
            },
            {
              "name": "role",
              "type": "string"
            },
            {
              "name": "status",
              "type": "uint8"
            },
            {
              "name": "owner",
              "type": "address"
            }
          ],
          "name": "",
          "type": "tuple"
        }
      ],
      "payable": false,
      "stateMutability": "view",
      "type": "function"
    },
    {
      "constant": true,
      "inputs": [
        {
          "name": "account",
          "type": "address"
        }
      ],
      "name": "isSigner",
      "outputs": [
        {
          "name": "",
          "type": "bool"
        }
      ],
      "payable": false,
      "stateMutability": "view",
      "type": "function"
    },
    {
      "constant": true,
      "inputs": [],
      "name": "getUsersOwner",
      "outputs": [
        {
          "components": [
            {
              "name": "creationDate",
              "type": "uint256"
            },
            {
              "name": "firstName",
              "type": "string"
            },
            {
              "name": "lastName",
              "type": "string"
            },
            {
              "name": "memberId",
              "type": "uint256"
            },
            {
              "name": "requestId",
              "type": "uint256"
            },
            {
              "name": "role",
              "type": "string"
            },
            {
              "name": "status",
              "type": "uint8"
            },
            {
              "name": "owner",
              "type": "address"
            }
          ],
          "name": "",
          "type": "tuple[]"
        }
      ],
      "payable": false,
      "stateMutability": "view",
      "type": "function"
    },
    {
      "constant": true,
      "inputs": [],
      "name": "getMembers",
      "outputs": [
        {
          "components": [
            {
              "name": "memberId",
              "type": "uint256"
            },
            {
              "name": "creationDate",
              "type": "uint256"
            },
            {
              "name": "name",
              "type": "string"
            },
            {
              "name": "logo",
              "type": "string"
            },
            {
              "name": "country",
              "type": "string"
            },
            {
              "name": "cmo",
              "type": "string"
            },
            {
              "name": "theme",
              "type": "string"
            },
            {
              "name": "claimInbox",
              "type": "uint256[]"
            },
            {
              "name": "claims",
              "type": "uint256[]"
            },
            {
              "name": "userRequests",
              "type": "address[]"
            }
          ],
          "name": "",
          "type": "tuple[]"
        }
      ],
      "payable": false,
      "stateMutability": "view",
      "type": "function"
    },
    {
      "constant": true,
      "inputs": [],
      "name": "getcountUsers",
      "outputs": [
        {
          "name": "",
          "type": "uint256"
        }
      ],
      "payable": false,
      "stateMutability": "view",
      "type": "function"
    },
    {
      "constant": false,
      "inputs": [
        {
          "name": "_creationDate",
          "type": "uint256"
        },
        {
          "name": "_firstName",
          "type": "string"
        },
        {
          "name": "_lastName",
          "type": "string"
        },
        {
          "name": "_role",
          "type": "string"
        },
        {
          "name": "_memberId",
          "type": "uint256"
        }
      ],
      "name": "registerUserRequest",
      "outputs": [],
      "payable": false,
      "stateMutability": "nonpayable",
      "type": "function"
    },
    {
      "constant": true,
      "inputs": [],
      "name": "getCount",
      "outputs": [
        {
          "name": "",
          "type": "uint256"
        }
      ],
      "payable": false,
      "stateMutability": "view",
      "type": "function"
    },
    {
      "constant": false,
      "inputs": [
        {
          "name": "_creationDate",
          "type": "uint256"
        },
        {
          "name": "_claimData",
          "type": "bytes"
        },
        {
          "name": "_claimType",
          "type": "bool"
        },
        {
          "name": "_memberOwner",
          "type": "uint256"
        },
        {
          "name": "reg_update",
          "type": "bool"
        },
        {
          "name": "_claimId",
          "type": "uint256"
        },
        {
          "name": "_oldClaimData",
          "type": "bytes"
        },
        {
          "name": "_lastChange",
          "type": "uint256"
        }
      ],
      "name": "computeClaim",
      "outputs": [],
      "payable": false,
      "stateMutability": "nonpayable",
      "type": "function"
    },
    {
      "constant": true,
      "inputs": [
        {
          "name": "_page",
          "type": "uint256"
        }
      ],
      "name": "getClaimsByMemberId",
      "outputs": [
        {
          "components": [
            {
              "name": "creationDate",
              "type": "uint256"
            },
            {
              "name": "claimId",
              "type": "uint256"
            },
            {
              "components": [
                {
                  "name": "name",
                  "type": "string"
                },
                {
                  "name": "value",
                  "type": "string"
                }
              ],
              "name": "claimData",
              "type": "tuple[]"
            },
            {
              "name": "claimType",
              "type": "bool"
            },
            {
              "name": "memberOwner",
              "type": "uint256"
            },
            {
              "name": "status",
              "type": "bool"
            },
            {
              "name": "lastChange",
              "type": "uint256"
            }
          ],
          "name": "",
          "type": "tuple[]"
        }
      ],
      "payable": false,
      "stateMutability": "view",
      "type": "function"
    },
    {
      "constant": true,
      "inputs": [],
      "name": "getMe",
      "outputs": [
        {
          "components": [
            {
              "name": "creationDate",
              "type": "uint256"
            },
            {
              "name": "firstName",
              "type": "string"
            },
            {
              "name": "lastName",
              "type": "string"
            },
            {
              "name": "memberId",
              "type": "uint256"
            },
            {
              "name": "requestId",
              "type": "uint256"
            },
            {
              "name": "role",
              "type": "string"
            },
            {
              "name": "status",
              "type": "uint8"
            },
            {
              "name": "owner",
              "type": "address"
            }
          ],
          "name": "",
          "type": "tuple"
        }
      ],
      "payable": false,
      "stateMutability": "view",
      "type": "function"
    },
    {
      "constant": true,
      "inputs": [
        {
          "name": "_page",
          "type": "uint256"
        }
      ],
      "name": "getMembers",
      "outputs": [
        {
          "components": [
            {
              "name": "memberId",
              "type": "uint256"
            },
            {
              "name": "creationDate",
              "type": "uint256"
            },
            {
              "name": "name",
              "type": "string"
            },
            {
              "name": "logo",
              "type": "string"
            },
            {
              "name": "country",
              "type": "string"
            },
            {
              "name": "cmo",
              "type": "string"
            },
            {
              "name": "theme",
              "type": "string"
            },
            {
              "name": "claimInbox",
              "type": "uint256[]"
            },
            {
              "name": "claims",
              "type": "uint256[]"
            },
            {
              "name": "userRequests",
              "type": "address[]"
            }
          ],
          "name": "",
          "type": "tuple[]"
        }
      ],
      "payable": false,
      "stateMutability": "view",
      "type": "function"
    },
    {
      "constant": false,
      "inputs": [],
      "name": "renounceSigner",
      "outputs": [],
      "payable": false,
      "stateMutability": "nonpayable",
      "type": "function"
    },
    {
      "constant": false,
      "inputs": [
        {
          "name": "account",
          "type": "address"
        }
      ],
      "name": "addSigner",
      "outputs": [],
      "payable": false,
      "stateMutability": "nonpayable",
      "type": "function"
    },
    {
      "constant": false,
      "inputs": [
        {
          "name": "_creationDate",
          "type": "uint256"
        },
        {
          "name": "_name",
          "type": "string"
        },
        {
          "name": "_logo",
          "type": "string"
        },
        {
          "name": "_country",
          "type": "string"
        },
        {
          "name": "_cmo",
          "type": "string"
        },
        {
          "name": "_theme",
          "type": "string"
        }
      ],
      "name": "addMember",
      "outputs": [
        {
          "name": "",
          "type": "uint256"
        }
      ],
      "payable": false,
      "stateMutability": "nonpayable",
      "type": "function"
    },
    {
      "constant": false,
      "inputs": [
        {
          "name": "_firstName",
          "type": "string"
        },
        {
          "name": "_lastName",
          "type": "string"
        },
        {
          "name": "_memberId",
          "type": "uint256"
        },
        {
          "name": "_role",
          "type": "string"
        },
        {
          "name": "owner",
          "type": "address"
        }
      ],
      "name": "updateUser",
      "outputs": [],
      "payable": false,
      "stateMutability": "nonpayable",
      "type": "function"
    },
    {
      "constant": false,
      "inputs": [
        {
          "name": "account",
          "type": "address"
        }
      ],
      "name": "whitelistAdmin",
      "outputs": [],
      "payable": false,
      "stateMutability": "nonpayable",
      "type": "function"
    },
    {
      "anonymous": false,
      "inputs": [
        {
          "indexed": true,
          "name": "account",
          "type": "address"
        }
      ],
      "name": "SignerAdded",
      "type": "event"
    },
    {
      "anonymous": false,
      "inputs": [
        {
          "indexed": true,
          "name": "account",
          "type": "address"
        }
      ],
      "name": "SignerRemoved",
      "type": "event"
    },
    {
      "constant": true,
      "inputs": [
        {
          "name": "_claimId",
          "type": "uint256"
        }
      ],
      "name": "getClaim",
      "outputs": [
        {
          "components": [
            {
              "name": "creationDate",
              "type": "uint256"
            },
            {
              "name": "claimId",
              "type": "uint256"
            },
            {
              "components": [
                {
                  "name": "name",
                  "type": "string"
                },
                {
                  "name": "value",
                  "type": "string"
                }
              ],
              "name": "claimData",
              "type": "tuple[]"
            },
            {
              "name": "claimType",
              "type": "bool"
            },
            {
              "name": "memberOwner",
              "type": "uint256"
            },
            {
              "name": "status",
              "type": "bool"
            },
            {
              "name": "lastChange",
              "type": "uint256"
            }
          ],
          "name": "",
          "type": "tuple"
        }
      ],
      "payable": false,
      "stateMutability": "view",
      "type": "function"
    }
  ],
  "bytecode": "0x608060405260006008556200001d3364010000000062000023810204565b62000108565b6200003e6000826401000000006200464d6200007582021704565b604051600160a060020a038216907f47d1c22a25bb3a5d4e481b9b1e6944c2eade3181a0a20b495ed61d35b5323f2490600090a250565b600160a060020a03811615156200008b57600080fd5b620000a08282640100000000620000d0810204565b15620000ab57600080fd5b600160a060020a0316600090815260209190915260409020805460ff19166001179055565b6000600160a060020a0382161515620000e857600080fd5b50600160a060020a03166000908152602091909152604090205460ff1690565b615f0280620001186000396000f30060806040526004361061011c5763ffffffff7c010000000000000000000000000000000000000000000000000000000060003504166308bdc24d81146101215780634dc92885146101435780635aef2447146101635780635d73ab9a1461019957806365ff0c48146101c657806369c212f6146101e65780637df73e2714610213578063932191be146102405780639eab525314610255578063a4fdc59414610277578063a7ed1fe414610299578063a87d942c146102b9578063aa5b3a06146102ce578063b6bc3812146102ee578063c11e1ff31461031b578063c477ecab14610330578063e5c8b03d14610350578063eb12d61e14610365578063fa1188c614610385578063fcfbde5b146103a5578063ff240fce146103c5575b600080fd5b34801561012d57600080fd5b5061014161013c366004614f31565b6103e5565b005b34801561014f57600080fd5b5061014161015e366004614f31565b610581565b34801561016f57600080fd5b5061018361017e366004615013565b6106e5565b6040516101909190615dd5565b60405180910390f35b3480156101a557600080fd5b506101b96101b4366004615013565b6108e4565b6040516101909190615c96565b3480156101d257600080fd5b506101416101e13660046152c0565b610cbf565b3480156101f257600080fd5b50610206610201366004614f31565b610d4e565b6040516101909190615de6565b34801561021f57600080fd5b5061023361022e366004614f31565b610fa2565b6040516101909190615ca7565b34801561024c57600080fd5b506101b9610fba565b34801561026157600080fd5b5061026a6112ab565b6040516101909190615c85565b34801561028357600080fd5b5061028c611772565b6040516101909190615df7565b3480156102a557600080fd5b506101416102b4366004615210565b611837565b3480156102c557600080fd5b5061028c6118fe565b3480156102da57600080fd5b506101416102e9366004615031565b61191c565b3480156102fa57600080fd5b5061030e610309366004615013565b611aae565b6040516101909190615c74565b34801561032757600080fd5b50610206611db0565b34801561033c57600080fd5b5061026a61034b366004615013565b612007565b34801561035c57600080fd5b50610141612522565b34801561037157600080fd5b50610141610380366004614f31565b61252d565b34801561039157600080fd5b5061028c6103a0366004615111565b61254a565b3480156103b157600080fd5b506101416103c0366004614f57565b6125d9565b3480156103d157600080fd5b506101416103e0366004614f31565b6126bd565b600160a060020a038181166000908152600360205260408120600601546101009004909116116104335760405160e560020a62461bcd02815260040161042a90615cf5565b60405180910390fd5b600160a060020a0381166000908152600360208190526040808320820154338452922001541480610468575061046833610fa2565b15156104895760405160e560020a62461bcd02815260040161042a90615d05565b60023360009081526003602052604090206006015460ff1660028111156104ac57fe5b14806104bc57506104bc33610fa2565b15156104dd5760405160e560020a62461bcd02815260040161042a90615d95565b6001600160a060020a03821660009081526003602052604090206006015460ff16600281111561050957fe5b146105295760405160e560020a62461bcd02815260040161042a90615cd5565b600160a060020a038116600090815260036020526040902060060180546002919060ff19166001835b0217905550600160a060020a0381166000908152600360208190526040909120015461057e9082612791565b50565b600160a060020a038181166000908152600360205260408120600601546101009004909116116105c65760405160e560020a62461bcd02815260040161042a90615cf5565b600160a060020a03811660009081526003602081905260408083208201543384529220015414806105fb57506105fb33610fa2565b151561061c5760405160e560020a62461bcd02815260040161042a90615d05565b60023360009081526003602052604090206006015460ff16600281111561063f57fe5b148061064f575061064f33610fa2565b15156106705760405160e560020a62461bcd02815260040161042a90615d95565b6001600160a060020a03821660009081526003602052604090206006015460ff16600281111561069c57fe5b146106bc5760405160e560020a62461bcd02815260040161042a90615d15565b600160a060020a0381166000908152600360205260408120600601805460ff1916600183610552565b6106ed614b8d565b6006600083815260200190815260200160002060e06040519081016040529081600082015481526020016001820154815260200160028201805480602002602001604051908101604052809291908181526020016000905b828210156108a35760008481526020908190206040805160028681029093018054600181161561010002600019011693909304601f8101859004909402810160609081018352918101848152909384928491908401828280156107e95780601f106107be576101008083540402835291602001916107e9565b820191906000526020600020905b8154815290600101906020018083116107cc57829003601f168201915b50505050508152602001600182018054600181600116156101000203166002900480601f01602080910402602001604051908101604052809291908181526020018280546001816001161561010002031660029004801561088b5780601f106108605761010080835404028352916020019161088b565b820191906000526020600020905b81548152906001019060200180831161086e57829003601f168201915b50505050508152505081526020019060010190610745565b50505090825250600382015460ff90811615156020830152600483015460408301526005830154161515606082015260069091015460809091015292915050565b6060600080600060606000806108f8611772565b9550610905600a89612900565b60045490955061091690600a612939565b935085158061092457508585115b8061092e57508388115b1561093857610cb4565b60408051600a808252610160820190925290816020015b610957614bcf565b81526020019060019003908161094f579050509250600091508490505b600454811015610cb057336000908152600360208190526040822081015460048054919391859081106109a357fe5b6000918252602080832090910154600160a060020a03168352820192909252604001902060030154148015610a2057506002600360006004848154811015156109e857fe5b6000918252602080832090910154600160a060020a0316835282019290925260400190206006015460ff166002811115610a1e57fe5b145b15610ca85760036000600483815481101515610a3857fe5b600091825260208083209190910154600160a060020a0316835282810193909352604091820190208151610100808201845282548252600180840180548651600293821615909402600019011691909104601f81018790048702830187019095528482529194929385840193919291830182828015610af85780601f10610acd57610100808354040283529160200191610af8565b820191906000526020600020905b815481529060010190602001808311610adb57829003601f168201915b5050509183525050600282810180546040805160206001841615610100026000190190931694909404601f81018390048302850183019091528084529381019390830182828015610b8a5780601f10610b5f57610100808354040283529160200191610b8a565b820191906000526020600020905b815481529060010190602001808311610b6d57829003601f168201915b505050505081526020016003820154815260200160048201548152602001600582018054600181600116156101000203166002900480601f016020809104026020016040519081016040528092919081815260200182805460018160011615610100020316600290048015610c405780601f10610c1557610100808354040283529160200191610c40565b820191906000526020600020905b815481529060010190602001808311610c2357829003601f168201915b5050509183525050600682015460209091019060ff166002811115610c6157fe5b6002811115610c6c57fe5b8152600691909101546101009004600160a060020a03166020909101528351849084908110610c9757fe5b602090810290910101526001909101905b600101610974565b8296505b505050505050919050565b610cc833610fa2565b1515610cd357600080fd5b60008781526001602052604081205411610d025760405160e560020a62461bcd02815260040161042a90615d65565b600087815260016020819052604090912001548614610d365760405160e560020a62461bcd02815260040161042a90615cb5565b610d458787878787878761295c565b50505050505050565b610d56614bcf565b600160a060020a0382166000908152600360209081526040918290208251610100808201855282548252600180840180548751600293821615909402600019011691909104601f8101869004860283018601909652858252919492938581019391929190830182828015610e0b5780601f10610de057610100808354040283529160200191610e0b565b820191906000526020600020905b815481529060010190602001808311610dee57829003601f168201915b5050509183525050600282810180546040805160206001841615610100026000190190931694909404601f81018390048302850183019091528084529381019390830182828015610e9d5780601f10610e7257610100808354040283529160200191610e9d565b820191906000526020600020905b815481529060010190602001808311610e8057829003601f168201915b505050505081526020016003820154815260200160048201548152602001600582018054600181600116156101000203166002900480601f016020809104026020016040519081016040528092919081815260200182805460018160011615610100020316600290048015610f535780601f10610f2857610100808354040283529160200191610f53565b820191906000526020600020905b815481529060010190602001808311610f3657829003601f168201915b5050509183525050600682015460209091019060ff166002811115610f7457fe5b6002811115610f7f57fe5b8152600691909101546101009004600160a060020a031660209091015292915050565b6000610fb4818363ffffffff612f5516565b92915050565b6060806000610fc833610fa2565b1515610fd357600080fd5b60045460408051828152602080840282010190915290801561100f57816020015b610ffc614bcf565b815260200190600190039081610ff45790505b509150600090505b6004548110156112a5576003600060048381548110151561103457fe5b600091825260208083209190910154600160a060020a0316835282810193909352604091820190208151610100808201845282548252600180840180548651600293821615909402600019011691909104601f810187900487028301870190955284825291949293858401939192918301828280156110f45780601f106110c9576101008083540402835291602001916110f4565b820191906000526020600020905b8154815290600101906020018083116110d757829003601f168201915b5050509183525050600282810180546040805160206001841615610100026000190190931694909404601f810183900483028501830190915280845293810193908301828280156111865780601f1061115b57610100808354040283529160200191611186565b820191906000526020600020905b81548152906001019060200180831161116957829003601f168201915b505050505081526020016003820154815260200160048201548152602001600582018054600181600116156101000203166002900480601f01602080910402602001604051908101604052809291908181526020018280546001816001161561010002031660029004801561123c5780601f106112115761010080835404028352916020019161123c565b820191906000526020600020905b81548152906001019060200180831161121f57829003601f168201915b5050509183525050600682015460209091019060ff16600281111561125d57fe5b600281111561126857fe5b8152600691909101546101009004600160a060020a0316602090910152825183908390811061129357fe5b60209081029091010152600101611017565b50919050565b60608060006002805490506040519080825280602002602001820160405280156112ef57816020015b6112dc614c20565b8152602001906001900390816112d45790505b509150600090505b6002548110156112a5576001600060028381548110151561131457fe5b9060005260206000200154815260200190815260200160002061014060405190810160405290816000820154815260200160018201548152602001600282018054600181600116156101000203166002900480601f0160208091040260200160405190810160405280929190818152602001828054600181600116156101000203166002900480156113e75780601f106113bc576101008083540402835291602001916113e7565b820191906000526020600020905b8154815290600101906020018083116113ca57829003601f168201915b505050918352505060038201805460408051602060026001851615610100026000190190941693909304601f810184900484028201840190925281815293820193929183018282801561147b5780601f106114505761010080835404028352916020019161147b565b820191906000526020600020905b81548152906001019060200180831161145e57829003601f168201915b505050918352505060048201805460408051602060026001851615610100026000190190941693909304601f810184900484028201840190925281815293820193929183018282801561150f5780601f106114e45761010080835404028352916020019161150f565b820191906000526020600020905b8154815290600101906020018083116114f257829003601f168201915b505050918352505060058201805460408051602060026001851615610100026000190190941693909304601f81018490048402820184019092528181529382019392918301828280156115a35780601f10611578576101008083540402835291602001916115a3565b820191906000526020600020905b81548152906001019060200180831161158657829003601f168201915b505050918352505060068201805460408051602060026001851615610100026000190190941693909304601f81018490048402820184019092528181529382019392918301828280156116375780601f1061160c57610100808354040283529160200191611637565b820191906000526020600020905b81548152906001019060200180831161161a57829003601f168201915b505050505081526020016007820180548060200260200160405190810160405280929190818152602001828054801561168f57602002820191906000526020600020905b81548152602001906001019080831161167b575b50505050508152602001600882018054806020026020016040519081016040528092919081815260200182805480156116e757602002820191906000526020600020905b8154815260200190600101908083116116d3575b505050505081526020016009820180548060200260200160405190810160405280929190818152602001828054801561174957602002820191906000526020600020905b8154600160a060020a0316815260019091019060200180831161172b575b505050505081525050828281518110151561176057fe5b602090810290910101526001016112f7565b600080805b6004548110156112a557336000908152600360208190526040822081015460048054919391859081106117a657fe5b6000918252602080832090910154600160a060020a0316835282019290925260400190206003015414801561182357506002600360006004848154811015156117eb57fe5b6000918252602080832090910154600160a060020a0316835282019290925260400190206006015460ff16600281111561182157fe5b145b1561182f576001909101905b600101611777565b600081151561185b5760405160e560020a62461bcd02815260040161042a90615db5565b6000861161187e5760405160e560020a62461bcd02815260040161042a90615dc5565b33600090815260036020526040902054156118ae5760405160e560020a62461bcd02815260040161042a90615ce5565b6118b782612f8c565b15156118d85760405160e560020a62461bcd02815260040161042a90615d65565b6118e186612f9f565b90506118f6868686858588600133600061318f565b505050505050565b600061190933610fa2565b151561191457600080fd5b506002545b90565b8715156119b957604080518082018252600181527f300000000000000000000000000000000000000000000000000000000000000060208083019190915260008681526006909152919091206002018054600590811061197857fe5b9060005260206000209060020201600101908051906020019061199c929190614c74565b506119aa83878960006135e3565b6119b48584613c40565b611aa4565b8315611a2757600880546001019081905592506119d585612f8c565b15156119f65760405160e560020a62461bcd02815260040161042a90615d45565b6119fe613d16565b9450611a10838989898960008e613d2d565b611a1a8584613e8a565b6119b483878960016135e3565b600083815260066020526040812060030154611a4a91859160ff169085906135e3565b600083815260066020526040902060030154611a6d90849060ff168960016135e3565b6000838152600660205260409020805460038201546004830154600590930154611aa4938793928c9260ff91821692911687613d2d565b5050505050505050565b6060600080600080606080600080611ac7600a8b612900565b9750611ad1613d16565b9650611adc87613eaf565b9550611ae986600a612939565b9450851580611afa57506001860388115b80611b045750848a115b15611b0e57611da3565b611b1787613ec4565b60408051600a8082526101608201909252919550816020015b611b38614b8d565b815260200190600190039081611b30579050509250600091508790505b8351811015611d9f57600a821015611d9257600660008583815181101515611b7957fe5b90602001906020020151815260200190815260200160002060e06040519081016040529081600082015481526020016001820154815260200160028201805480602002602001604051908101604052809291908181526020016000905b82821015611d345760008481526020908190206040805160028681029093018054600181161561010002600019011693909304601f810185900490940281016060908101835291810184815290938492849190840182828015611c7a5780601f10611c4f57610100808354040283529160200191611c7a565b820191906000526020600020905b815481529060010190602001808311611c5d57829003601f168201915b50505050508152602001600182018054600181600116156101000203166002900480601f016020809104026020016040519081016040528092919081815260200182805460018160011615610100020316600290048015611d1c5780601f10611cf157610100808354040283529160200191611d1c565b820191906000526020600020905b815481529060010190602001808311611cff57829003601f168201915b50505050508152505081526020019060010190611bd6565b50505090825250600382015460ff9081161515602083015260048301546040830152600583015416151560608201526006909101546080909101528351849084908110611d7d57fe5b60209081029091010152600190910190611d97565b611d9f565b600101611b55565b8298505b5050505050505050919050565b611db8614bcf565b611dc0614bcf565b336000908152600360209081526040918290208251610100808201855282548252600180840180548751600293821615909402600019011691909104601f8101869004860283018601909652858252919492938581019391929190830182828015611e6c5780601f10611e4157610100808354040283529160200191611e6c565b820191906000526020600020905b815481529060010190602001808311611e4f57829003601f168201915b5050509183525050600282810180546040805160206001841615610100026000190190931694909404601f81018390048302850183019091528084529381019390830182828015611efe5780601f10611ed357610100808354040283529160200191611efe565b820191906000526020600020905b815481529060010190602001808311611ee157829003601f168201915b505050505081526020016003820154815260200160048201548152602001600582018054600181600116156101000203166002900480601f016020809104026020016040519081016040528092919081815260200182805460018160011615610100020316600290048015611fb45780601f10611f8957610100808354040283529160200191611fb4565b820191906000526020600020905b815481529060010190602001808311611f9757829003601f168201915b5050509183525050600682015460209091019060ff166002811115611fd557fe5b6002811115611fe057fe5b8152600691909101546101009004600160a060020a031660209091015291508190505b5090565b606060008060006060600061201d600a88612900565b60025490955061202e90600a612939565b600254909450158061204557506002546000190185115b8061204f57508387115b1561205957612518565b60408051600a80825261016082019092526000945090816020015b61207c614c20565b8152602001906001900390816120745790505091508490505b60025481101561251457600160006002838154811015156120b257fe5b9060005260206000200154815260200190815260200160002061014060405190810160405290816000820154815260200160018201548152602001600282018054600181600116156101000203166002900480601f0160208091040260200160405190810160405280929190818152602001828054600181600116156101000203166002900480156121855780601f1061215a57610100808354040283529160200191612185565b820191906000526020600020905b81548152906001019060200180831161216857829003601f168201915b505050918352505060038201805460408051602060026001851615610100026000190190941693909304601f81018490048402820184019092528181529382019392918301828280156122195780601f106121ee57610100808354040283529160200191612219565b820191906000526020600020905b8154815290600101906020018083116121fc57829003601f168201915b505050918352505060048201805460408051602060026001851615610100026000190190941693909304601f81018490048402820184019092528181529382019392918301828280156122ad5780601f10612282576101008083540402835291602001916122ad565b820191906000526020600020905b81548152906001019060200180831161229057829003601f168201915b505050918352505060058201805460408051602060026001851615610100026000190190941693909304601f81018490048402820184019092528181529382019392918301828280156123415780601f1061231657610100808354040283529160200191612341565b820191906000526020600020905b81548152906001019060200180831161232457829003601f168201915b505050918352505060068201805460408051602060026001851615610100026000190190941693909304601f81018490048402820184019092528181529382019392918301828280156123d55780601f106123aa576101008083540402835291602001916123d5565b820191906000526020600020905b8154815290600101906020018083116123b857829003601f168201915b505050505081526020016007820180548060200260200160405190810160405280929190818152602001828054801561242d57602002820191906000526020600020905b815481526020019060010190808311612419575b505050505081526020016008820180548060200260200160405190810160405280929190818152602001828054801561248557602002820191906000526020600020905b815481526020019060010190808311612471575b50505050508152602001600982018054806020026020016040519081016040528092919081815260200182805480156124e757602002820191906000526020600020905b8154600160a060020a031681526001909101906020018083116124c9575b50505050508152505082848151811015156124fe57fe5b6020908102909101015260019283019201612095565b8195505b5050505050919050565b61252b33613f59565b565b61253633610fa2565b151561254157600080fd5b61057e81613fa1565b60008061255633610fa2565b151561256157600080fd5b600088116125845760405160e560020a62461bcd02815260040161042a90615dc5565b61258d88612f9f565b600081815260016020526040902054909150156125bf5760405160e560020a62461bcd02815260040161042a90615d55565b6125ce8189898989898961295c565b979650505050505050565b600160a060020a038181166000908152600360205260408120600601549091829182916101009091041681106126245760405160e560020a62461bcd02815260040161042a90615cf5565b6002600160a060020a03851660009081526003602052604090206006015460ff16600281111561265057fe5b146126705760405160e560020a62461bcd02815260040161042a90615d95565b600160a060020a03841660009081526003602052604090206004810154815460069092015490945090925060ff1660028111156126a957fe5b9050611aa482898989878a878b600161318f565b6126c633610fa2565b15156126d157600080fd5b600160a060020a038116600090815260036020819052604090912001546126f89082612791565b604080518082018252600b81527f53757065722061646d696e0000000000000000000000000000000000000000006020808301918252600160a060020a038516600090815260039091529290922090516127589260059092019190614c74565b50600160a060020a0381166000908152600360208190526040822090810191909155600601805460ff1916600217905561057e8161252d565b6000805b600084815260016020526040902060090154600019018110156128915760008481526001602052604090206009018054600160a060020a0385169190839081106127db57fe5b600091825260209091200154600160a060020a031614156127fb57600191505b811561288957600084815260016020819052604090912060090180549091830190811061282457fe5b6000918252602080832090910154868352600190915260409091206009018054600160a060020a03909216918390811061285a57fe5b9060005260206000200160006101000a815481600160a060020a030219169083600160a060020a031602179055505b600101612795565b6000848152600160205260409020600901805460001981019081106128b257fe5b60009182526020808320909101805473ffffffffffffffffffffffffffffffffffffffff1916905585825260019052604090206009018054906128f9906000198301614cee565b5050505050565b6000808315156129135760009150612932565b5082820282848281151561292357fe5b041461292e57600080fd5b8091505b5092915050565b60008080831161294857600080fd5b828481151561295357fe5b04949350505050565b612964614c20565b855115156129875760405160e560020a62461bcd02815260040161042a90615da5565b825115156129aa5760405160e560020a62461bcd02815260040161042a90615d85565b815115156129cd5760405160e560020a62461bcd02815260040161042a90615d75565b6000888152600160208181526040928390208351610140810185528154815281840154818401526002808301805487519681161561010002600019011691909104601f810185900485028601850187528086529195929492860193909190830182828015612a7c5780601f10612a5157610100808354040283529160200191612a7c565b820191906000526020600020905b815481529060010190602001808311612a5f57829003601f168201915b505050918352505060038201805460408051602060026001851615610100026000190190941693909304601f8101849004840282018401909252818152938201939291830182828015612b105780601f10612ae557610100808354040283529160200191612b10565b820191906000526020600020905b815481529060010190602001808311612af357829003601f168201915b505050918352505060048201805460408051602060026001851615610100026000190190941693909304601f8101849004840282018401909252818152938201939291830182828015612ba45780601f10612b7957610100808354040283529160200191612ba4565b820191906000526020600020905b815481529060010190602001808311612b8757829003601f168201915b505050918352505060058201805460408051602060026001851615610100026000190190941693909304601f8101849004840282018401909252818152938201939291830182828015612c385780601f10612c0d57610100808354040283529160200191612c38565b820191906000526020600020905b815481529060010190602001808311612c1b57829003601f168201915b505050918352505060068201805460408051602060026001851615610100026000190190941693909304601f8101849004840282018401909252818152938201939291830182828015612ccc5780601f10612ca157610100808354040283529160200191612ccc565b820191906000526020600020905b815481529060010190602001808311612caf57829003601f168201915b5050505050815260200160078201805480602002602001604051908101604052809291908181526020018280548015612d2457602002820191906000526020600020905b815481526020019060010190808311612d10575b5050505050815260200160088201805480602002602001604051908101604052809291908181526020018280548015612d7c57602002820191906000526020600020905b815481526020019060010190808311612d68575b5050505050815260200160098201805480602002602001604051908101604052809291908181526020018280548015612dde57602002820191906000526020600020905b8154600160a060020a03168152600190910190602001808311612dc0575b50505091909252505050888152602080820189815260408084018a8152606085018a90526080850189905260a0850188905260c0850187905260008d815260018086529290208551815592519183019190915551805193945084939192612e4d92600285019290910190614c74565b5060608201518051612e69916003840191602090910190614c74565b5060808201518051612e85916004840191602090910190614c74565b5060a08201518051612ea1916005840191602090910190614c74565b5060c08201518051612ebd916006840191602090910190614c74565b5060e08201518051612ed9916007840191602090910190614d12565b506101008201518051612ef6916008840191602090910190614d12565b506101208201518051612f13916009840191602090910190614d4c565b5050600280546001810182556000919091527f405787fa12a823e0f2b7631cc41b3ba8828b3321ca811111fa75cd3aa3bb5ace01989098555050505050505050565b6000600160a060020a0382161515612f6c57600080fd5b50600160a060020a03166000908152602091909152604090205460ff1690565b6000908152600160205260408120541190565b60008080806002850615156130315784604051602001808281526020019150506040516020818303038152906040526040518082805190602001908083835b60208310612ffd5780518252601f199092019160209182019101612fde565b6001836020036101000a0380198251168184511680821785525050505050509050019150506040518091039020925061311c565b84604051602001808281526020019150506040516020818303038152906040526040518082805190602001908083835b602083106130805780518252601f199092019160209182019101613061565b51815160209384036101000a600019018019909216911617905260408051929094018290038220828201528351808303820181529184019384905281519195509293508392850191508083835b602083106130ec5780518252601f1990920191602091820191016130cd565b6001836020036101000a038019825116818451168082178552505050505050905001915050604051809103902092505b60208110156131495782816020811061313157fe5b60f860020a91901a810204919091019060010161311c565b82602060028401066020811061315b57fe5b60f860020a91901a81020483602084066020811061317557fe5b1a60f860020a0260f860020a90040293505b505050919050565b613197614bcf565b6000841015806131a8575060028411155b15156131c95760405160e560020a62461bcd02815260040161042a90615d25565b845115156131ec5760405160e560020a62461bcd02815260040161042a90615cc5565b600160a060020a0383166000908152600360209081526040918290208251610100808201855282548252600180840180548751600293821615909402600019011691909104601f81018690048602830186019096528582529194929385810193919291908301828280156132a15780601f10613276576101008083540402835291602001916132a1565b820191906000526020600020905b81548152906001019060200180831161328457829003601f168201915b5050509183525050600282810180546040805160206001841615610100026000190190931694909404601f810183900483028501830190915280845293810193908301828280156133335780601f1061330857610100808354040283529160200191613333565b820191906000526020600020905b81548152906001019060200180831161331657829003601f168201915b505050505081526020016003820154815260200160048201548152602001600582018054600181600116156101000203166002900480601f0160208091040260200160405190810160405280929190818152602001828054600181600116156101000203166002900480156133e95780601f106133be576101008083540402835291602001916133e9565b820191906000526020600020905b8154815290600101906020018083116133cc57829003601f168201915b5050509183525050600682015460209091019060ff16600281111561340a57fe5b600281111561341557fe5b8152600691909101546101009004600160a060020a03166020918201528b825281018a905260408101899052606081018890526080810187905260a08101869052905083600281111561346457fe5b8160c00190600281111561347457fe5b9081600281111561348157fe5b905250600160a060020a03831660e0820181905260009081526003602090815260409091208251815581830151805184936134c3926001850192910190614c74565b50604082015180516134df916002840191602090910190614c74565b50606082015160038201556080820151600482015560a0820151805161350f916005840191602090910190614c74565b5060c082015160068201805460ff1916600183600281111561352d57fe5b021790555060e0919091015160069091018054600160a060020a039092166101000274ffffffffffffffffffffffffffffffffffffffff00199092169190911790558115156135d757600480546001810182556000919091527f8a35acfbc15ff81a39ae7d344fd709f28e8600b4aa8c65c6b64bfe7fe36bd19b01805473ffffffffffffffffffffffffffffffffffffffff1916600160a060020a0385161790556135d787613fe9565b50505050505050505050565b6135eb614dba565b60606000806000806000806135ff8a614028565b975061360a88614076565b965061365461364f61363389600581518110151561362457fe5b90602001906020020151614076565b8051600190811061364057fe5b90602001906020020151614149565b6141bb565b955061366e61364f61363389600281518110151561362457fe5b945061368861364f61363389600381518110151561362457fe5b60008d8152600760209081526040808320805461ffff191661ffff8c16179055600690915290206005015490945060ff169250600191508190505b6008548111613c325760008181526006602052604090206003015460ff1615158b15151480156136f35750808c14155b15613c2a576005805460ff1916905560008181526006602052604081206002018054909190811061372057fe5b9060005260206000209060020201600101604051808280546001816001161561010002031660029004801561378c5780601f1061376a57610100808354040283529182019161378c565b820191906000526020600020905b815481529060010190602001808311613778575b50509150506040518091039020600019166137b261363389600081518110151561362457fe5b6040518082805190602001908083835b602083106137e15780518252601f1990920191602091820191016137c2565b6001836020036101000a0380198251168184511680821785525050505050509050019150506040518091039020600019161480156138ff57506000818152600660205260409020600290810180546138eb9290811061383c57fe5b90600052602060002090600202016001018054600181600116156101000203166002900480601f0160208091040260200160405190810160405280929190818152602001828054600181600116156101000203166002900480156138e15780601f106138b6576101008083540402835291602001916138e1565b820191906000526020600020905b8154815290600101906020018083116138c457829003601f168201915b50505050506141bb565b65ffffffffffff168465ffffffffffff1610155b801561393d5750600081815260066020526040902060020180546139299190600390811061383c57fe5b65ffffffffffff168565ffffffffffff1611155b15613c2a57613a2761395a61363389600481518110151561362457fe5b60008381526006602052604090206002018054600490811061397857fe5b90600052602060002090600202016001018054600181600116156101000203166002900480601f016020809104026020016040519081016040528092919081815260200182805460018160011615610100020316600290048015613a1d5780601f106139f257610100808354040283529160200191613a1d565b820191906000526020600020905b815481529060010190602001808311613a0057829003601f168201915b5050505050614219565b60055460ff1615613c2a57613a68613a4a61363389600181518110151561362457fe5b60008381526006602052604090206002018054600190811061397857fe5b60055460ff1615613c2a578815613b3f576000818152600760205260409020805461ffff19811661ffff918216890182161791829055606491161115613b3a57821515613adf5760008c815260066020526040902060058101805460ff1916600117905560040154613ada908d6144c9565b600192505b60008181526006602052604090206005015460ff161515613b3a5760008181526006602052604090206004810154600190910154613b1d91906144c9565b6000818152600660205260409020600501805460ff191660011790555b613bf8565b6000818152600760205260409020805461ffff19811661ffff918216899003821617918290556064911611613bf8578215613ba15760008c815260066020526040902060058101805460ff1916905560040154613b9c908d6144ee565b600092505b60008181526006602052604090206005015460ff1615613bf85760008181526006602052604090206004810154600190910154613bde91906144ee565b6000818152600660205260409020600501805460ff191690555b8115613c2a57600081815260076020526040808220548e8352908220805461ffff191661ffff90921691909117905591505b6001016136c3565b505050505050505050505050565b60008281526001602052604081206008015490811115613d1157600083815260016020526040902060080180546000198301908110613c7b57fe5b90600052602060002001546001600085815260200190815260200160002060080183815481101515613ca957fe5b9060005260206000200181905550816001600085815260200190815260200160002060080160018303815481101515613cde57fe5b6000918252602080832090910192909255848152600190915260409020600801805490613d0f906000198301614cee565b505b505050565b336000908152600360208190526040909120015490565b613d35614dba565b606060006060613d4489614028565b9350613d4f84614076565b60008c8152600660205260408120600181018e90558c815560038101805460ff19168c1515179055919450613d879160020190614dd1565b600091505b8251821015613e4e57613da6838381518110151561362457fe5b9050600660008c81526020019081526020016000206002016040805190810160405280613ddb84600081518110151561364057fe5b8152602001613df284600181518110151561364057fe5b90528154600181018084556000938452602093849020835180519295600290940290910192613e2692849290910190614c74565b506020828101518051613e3f9260018501920190614c74565b50505050816001019150613d8c565b505050600097885250600660208190526040909720600481019390935595820195909555600501805460ff191694151594909417909355505050565b6000918252600160208181526040842060080180549283018155845290922090910155565b60009081526001602052604090206008015490565b60008181526001602052604081205460609110613ef65760405160e560020a62461bcd02815260040161042a90615d35565b60008281526001602090815260409182902060080180548351818402810184019094528084529091830182828015613f4d57602002820191906000526020600020905b815481526020019060010190808311613f39575b50505050509050919050565b613f6a60008263ffffffff61460116565b604051600160a060020a038216907f3525e22824a8a7df2c9a6029941c824cf95b6447f1e13d5128fd3826d35afe8b90600090a250565b613fb260008263ffffffff61464d16565b604051600160a060020a038216907f47d1c22a25bb3a5d4e481b9b1e6944c2eade3181a0a20b495ed61d35b5323f2490600090a250565b6000908152600160208181526040832060090180549283018155835290912001805473ffffffffffffffffffffffffffffffffffffffff191633179055565b614030614dba565b600082516000141561405757604080518082019091526000808252602082015291506112a5565b5050604080518082019091528151815260209182019181019190915290565b60606000806000806140878661469b565b151561409257600080fd5b61409b866146ca565b9350836040519080825280602002602001820160405280156140d757816020015b6140c4614dba565b8152602001906001900390816140bc5790505b5094506140e7866020015161471a565b8660200151019250600090505b83811015614140576141058361477d565b9150604080519081016040528083815260200184815250858281518110151561412a57fe5b60209081029091010152918101916001016140f4565b50505050919050565b60606000806060600061415f866020015161471a565b9350838660000151039250826040519080825280601f01601f191660200182016040528015614198578160200160208202803883390190505b5091508160200190506141b284876020015101828561480e565b50949350505050565b60008181805b82518210156131875782828151811015156141d857fe5b016020015160f860020a908190048102049050603081108015906141fd575060398111155b1561420e576030810384600a020193505b6001909101906141c1565b614221614dba565b614229614dba565b614231614dba565b60608060008061424089614855565b965061424b88614855565b955061428b6040805190810160405280600181526020017f2c00000000000000000000000000000000000000000000000000000000000000815250614855565b945061429d878663ffffffff61487b16565b6001016040519080825280602002602001820160405280156142d357816020015b60608152602001906001900390816142be5790505b5093506142e6868663ffffffff61487b16565b60010160405190808252806020026020018201604052801561431c57816020015b60608152602001906001900390816143075790505b5092508251845110156143bc57614339878663ffffffff61487b16565b60010160405190808252806020026020018201604052801561436f57816020015b606081526020019060019003908161435a5790505b509250614382868663ffffffff61487b16565b6001016040519080825280602002602001820160405280156143b857816020015b60608152602001906001900390816143a35790505b5093505b600091505b83518210156144be576143e26143dd888763ffffffff6148e116565b6148f4565b84838151811015156143f057fe5b602090810290910101525060005b8181116144a3578251821015614472576144216143dd878763ffffffff6148e116565b838381518110151561442f57fe5b6020908102909101015283516144729085908390811061444b57fe5b90602001906020020151848481518110151561446357fe5b90602001906020020151614947565b61449b838281518110151561448357fe5b90602001906020020151858481518110151561446357fe5b6001016143fe565b60055460ff16156144b3576144be565b6001909101906143c1565b505050505050505050565b6000918252600160208181526040842060070180549283018155845290922090910155565b6000805b600084815260016020526040902060070154600019018110156145b157600084815260016020526040902060070180548491908390811061452f57fe5b9060005260206000200154141561454557600191505b81156145a957600084815260016020819052604090912060070180549091830190811061456e57fe5b9060005260206000200154600160008681526020019081526020016000206007018281548110151561459c57fe5b6000918252602090912001555b6001016144f2565b6000848152600160205260409020600701805460001981019081106145d257fe5b6000918252602080832090910182905585825260019052604090206007018054906128f9906000198301614cee565b600160a060020a038116151561461657600080fd5b6146208282612f55565b151561462b57600080fd5b600160a060020a0316600090815260209190915260409020805460ff19169055565b600160a060020a038116151561466257600080fd5b61466c8282612f55565b1561467657600080fd5b600160a060020a0316600090815260209190915260409020805460ff19166001179055565b6020810151805160009190821a9060c060ff831610156146be57600092506146c3565b600192505b5050919050565b600080600080600092506146e1856020015161471a565b6020860151865191810193500190505b80821015614711576147028261477d565b600190930192909101906146f1565b50909392505050565b8051600090811a608081101561473357600091506112a5565b60b881108061474e575060c0811080159061474e575060f881105b1561475c57600191506112a5565b60c08110156147715760b519810191506112a5565b60f519810191506112a5565b8051600090811a608081101561479657600191506112a5565b60b88110156147ab57607e19810191506112a5565b60c08110156147d85760b78103600184019350806020036101000a845104600182018101935050506112a5565b60f88110156147ed5760be19810191506112a5565b60019290920151602083900360f7016101000a900490910160f51901919050565b60005b60208210614833578351835260209384019390920191601f1990910190614811565b50915181516020939093036101000a6000190180199091169216919091179052565b61485d614dba565b50604080518082019091528151815260209182019181019190915290565b600080826000015161489f8560000151866020015186600001518760200151614a19565b0190505b835160208501510181116129325782516020808601518651918601516001909501946148d9929185039091039084908490614a19565b0190506148a3565b6148e9614dba565b612932838383614ad9565b606080600083600001516040519080825280601f01601f19166020018201604052801561492b578160200160208202803883390190505b5091506020820190506129328185602001518660000151614b49565b806040518082805190602001908083835b602083106149775780518252601f199092019160209182019101614958565b51815160209384036101000a6000190180199092169116179052604051919093018190038120875190955087945090928392508401908083835b602083106149d05780518252601f1990920191602091820191016149b1565b6001836020036101000a0380198251168184511680821785525050505050509050019150506040518091039020600019161415614a15576005805460ff191660011790555b5050565b600083818080808080808c8b11614ac35760208b11614a8c5760018b60200360080260020a03196001029550858a511694508a8d8d010393508588511692505b828514614a8457838810614a71578c8c019850614ac9565b8780600101985050858851169250614a59565b879850614ac9565b8a8a209150600096505b8a8d038711614ac3575089872081811415614ab357879850614ac9565b6001978801979690960195614a96565b8c8c0198505b5050505050505050949350505050565b614ae1614dba565b6000614aff8560000151866020015186600001518760200151614a19565b60208087018051918601919091528051820385528651905191925001811415614b2b5760008552614711565b83518351865191019003855283518101602086015250909392505050565b60005b60208210614b6e578251845260209384019390920191601f1990910190614b4c565b50905182516020929092036101000a6000190180199091169116179052565b60e06040519081016040528060008152602001600081526020016060815260200160001515815260200160008152602001600015158152602001600081525090565b6101006040519081016040528060008152602001606081526020016060815260200160008152602001600081526020016060815260200160006002811115614c1357fe5b8152600060209091015290565b61014060405190810160405280600081526020016000815260200160608152602001606081526020016060815260200160608152602001606081526020016060815260200160608152602001606081525090565b828054600181600116156101000203166002900490600052602060002090601f016020900481019282601f10614cb557805160ff1916838001178555614ce2565b82800160010185558215614ce2579182015b82811115614ce2578251825591602001919060010190614cc7565b50612003929150614df2565b815481835581811115613d1157600083815260209020613d11918101908301614df2565b828054828255906000526020600020908101928215614ce25791602002820182811115614ce2578251825591602001919060010190614cc7565b828054828255906000526020600020908101928215614dae579160200282015b82811115614dae578251825473ffffffffffffffffffffffffffffffffffffffff1916600160a060020a03909116178255602090920191600190910190614d6c565b50612003929150614e0c565b604080518082019091526000808252602082015290565b508054600082556002029060005260206000209081019061057e9190614e3d565b61191991905b808211156120035760008155600101614df8565b61191991905b8082111561200357805473ffffffffffffffffffffffffffffffffffffffff19168155600101614e12565b61191991905b80821115612003576000614e578282614e6e565b614e65600183016000614e6e565b50600201614e43565b50805460018160011615610100020316600290046000825580601f10614e94575061057e565b601f01602090049060005260206000209081019061057e9190614df2565b6000614ebe8235615e5e565b9392505050565b6000614ebe8235615e6a565b6000601f82018313614ee257600080fd5b8135614ef5614ef082615e2c565b615e05565b91508082526020830160208301858383011115614f1157600080fd5b614f1c838284615e86565b50505092915050565b6000614ebe8235611919565b600060208284031215614f4357600080fd5b6000614f4f8484614eb2565b949350505050565b600080600080600060a08688031215614f6f57600080fd5b853567ffffffffffffffff811115614f8657600080fd5b614f9288828901614ed1565b955050602086013567ffffffffffffffff811115614faf57600080fd5b614fbb88828901614ed1565b9450506040614fcc88828901614f25565b935050606086013567ffffffffffffffff811115614fe957600080fd5b614ff588828901614ed1565b925050608061500688828901614eb2565b9150509295509295909350565b60006020828403121561502557600080fd5b6000614f4f8484614f25565b600080600080600080600080610100898b03121561504e57600080fd5b600061505a8b8b614f25565b985050602089013567ffffffffffffffff81111561507757600080fd5b6150838b828c01614ed1565b97505060406150948b828c01614ec5565b96505060606150a58b828c01614f25565b95505060806150b68b828c01614ec5565b94505060a06150c78b828c01614f25565b93505060c089013567ffffffffffffffff8111156150e457600080fd5b6150f08b828c01614ed1565b92505060e06151018b828c01614f25565b9150509295985092959890939650565b60008060008060008060c0878903121561512a57600080fd5b60006151368989614f25565b965050602087013567ffffffffffffffff81111561515357600080fd5b61515f89828a01614ed1565b955050604087013567ffffffffffffffff81111561517c57600080fd5b61518889828a01614ed1565b945050606087013567ffffffffffffffff8111156151a557600080fd5b6151b189828a01614ed1565b935050608087013567ffffffffffffffff8111156151ce57600080fd5b6151da89828a01614ed1565b92505060a087013567ffffffffffffffff8111156151f757600080fd5b61520389828a01614ed1565b9150509295509295509295565b600080600080600060a0868803121561522857600080fd5b60006152348888614f25565b955050602086013567ffffffffffffffff81111561525157600080fd5b61525d88828901614ed1565b945050604086013567ffffffffffffffff81111561527a57600080fd5b61528688828901614ed1565b935050606086013567ffffffffffffffff8111156152a357600080fd5b6152af88828901614ed1565b925050608061500688828901614f25565b600080600080600080600060e0888a0312156152db57600080fd5b60006152e78a8a614f25565b97505060206152f88a828b01614f25565b965050604088013567ffffffffffffffff81111561531557600080fd5b6153218a828b01614ed1565b955050606088013567ffffffffffffffff81111561533e57600080fd5b61534a8a828b01614ed1565b945050608088013567ffffffffffffffff81111561536757600080fd5b6153738a828b01614ed1565b93505060a088013567ffffffffffffffff81111561539057600080fd5b61539c8a828b01614ed1565b92505060c088013567ffffffffffffffff8111156153b957600080fd5b6153c58a828b01614ed1565b91505092959891949750929550565b6153dd81615e5e565b82525050565b60006153ee82615e5a565b80845260208401935061540083615e54565b60005b82811015615430576154168683516153d4565b61541f82615e54565b602096909601959150600101615403565b5093949350505050565b600061544582615e5a565b8084526020840193508360208202850161545e85615e54565b60005b848110156154955783830388526154798383516159f2565b925061548482615e54565b602098909801979150600101615461565b50909695505050505050565b60006154ac82615e5a565b808452602084019350836020820285016154c585615e54565b60005b848110156154955783830388526154e0838351615a87565b92506154eb82615e54565b6020989098019791506001016154c8565b600061550782615e5a565b8084526020840193508360208202850161552085615e54565b60005b8481101561549557838303885261553b838351615b8a565b925061554682615e54565b602098909801979150600101615523565b600061556282615e5a565b8084526020840193508360208202850161557b85615e54565b60005b84811015615495578383038852615596838351615bbc565b92506155a182615e54565b60209890980197915060010161557e565b60006155bd82615e5a565b8084526020840193506155cf83615e54565b60005b82811015615430576155e5868351615c6b565b6155ee82615e54565b6020969096019591506001016155d2565b6153dd81615e6a565b6153dd81615e7b565b600061561c82615e5a565b808452615630816020860160208601615e92565b61563981615ebe565b9093016020019392505050565b601a81527f4372656174696f6e204461746520697320696e6d757461626c65000000000000602082015260400190565b601181527f726f6c65206973206d616e6461746f7279000000000000000000000000000000602082015260400190565b602281527f4f6e6c792070656e64696e672075736572732063616e2062652061636365707460208201527f6564000000000000000000000000000000000000000000000000000000000000604082015260600190565b601381527f5573657220616c72656164792065786973747300000000000000000000000000602082015260400190565b601481527f546869732075736572206e6f7420657869737473000000000000000000000000602082015260400190565b601b81527f596f752063616e6e6f7420616363657074207468697320757365720000000000602082015260400190565b602281527f4f6e6c792070656e64696e672075736572732063616e2062652072656a65637460208201527f6564000000000000000000000000000000000000000000000000000000000000604082015260600190565b601381527f737461747573206973206e6f742076616c696400000000000000000000000000602082015260400190565b601181527f6d656d626572206e6f7420657869737473000000000000000000000000000000602082015260400190565b601481527f4d656d62657220646f206e6f7420657869737473000000000000000000000000602082015260400190565b601581527f4d656d62657220616c7265616479206578697374730000000000000000000000602082015260400190565b601181527f4d656d626572206e6f7420657869737473000000000000000000000000000000602082015260400190565b601281527f5468656d65206973206d616e6461746f72790000000000000000000000000000602082015260400190565b601081527f434d4f206973206d616e6461746f727900000000000000000000000000000000602082015260400190565b601481527f596f7520617265206e6f74206163636570746564000000000000000000000000602082015260400190565b601181527f4e616d65206973206d616e6461746f7279000000000000000000000000000000602082015260400190565b601181527f4e6f2076616c6964206d656d6265724964000000000000000000000000000000602082015260400190565b601981527f4372656174696f6e44617465206973206d616e6461746f727900000000000000602082015260400190565b805160009060e0840190615a068582615c6b565b506020830151615a196020860182615c6b565b5060408301518482036040860152615a3182826154fc565b9150506060830151615a4660608601826155ff565b506080830151615a596080860182615c6b565b5060a0830151615a6c60a08601826155ff565b5060c0830151615a7f60c0860182615c6b565b509392505050565b8051600090610140840190615a9c8582615c6b565b506020830151615aaf6020860182615c6b565b5060408301518482036040860152615ac78282615611565b91505060608301518482036060860152615ae18282615611565b91505060808301518482036080860152615afb8282615611565b91505060a083015184820360a0860152615b158282615611565b91505060c083015184820360c0860152615b2f8282615611565b91505060e083015184820360e0860152615b4982826155b2565b915050610100830151848203610100860152615b6582826155b2565b915050610120830151848203610120860152615b8182826153e3565b95945050505050565b8051604080845260009190840190615ba28282615611565b91505060208301518482036020860152615b818282615611565b8051600090610100840190615bd18582615c6b565b5060208301518482036020860152615be98282615611565b91505060408301518482036040860152615c038282615611565b9150506060830151615c186060860182615c6b565b506080830151615c2b6080860182615c6b565b5060a083015184820360a0860152615c438282615611565b91505060c0830151615c5860c0860182615608565b5060e0830151615a7f60e08601826153d4565b6153dd81611919565b60208082528101614ebe818461543a565b60208082528101614ebe81846154a1565b60208082528101614ebe8184615557565b60208101610fb482846155ff565b60208082528101610fb481615646565b60208082528101610fb481615676565b60208082528101610fb4816156a6565b60208082528101610fb4816156fc565b60208082528101610fb48161572c565b60208082528101610fb48161575c565b60208082528101610fb48161578c565b60208082528101610fb4816157e2565b60208082528101610fb481615812565b60208082528101610fb481615842565b60208082528101610fb481615872565b60208082528101610fb4816158a2565b60208082528101610fb4816158d2565b60208082528101610fb481615902565b60208082528101610fb481615932565b60208082528101610fb481615962565b60208082528101610fb481615992565b60208082528101610fb4816159c2565b60208082528101614ebe81846159f2565b60208082528101614ebe8184615bbc565b60208101610fb48284615c6b565b60405181810167ffffffffffffffff81118282101715615e2457600080fd5b604052919050565b600067ffffffffffffffff821115615e4357600080fd5b506020601f91909101601f19160190565b60200190565b5190565b600160a060020a031690565b151590565b60006003821061200357fe5b6000610fb482615e6f565b82818337506000910152565b60005b83811015615ead578181015183820152602001615e95565b83811115613d0f5750506000910152565b601f01601f1916905600a265627a7a7230582096f4e188f7acad7eab9aea6674929f14c7a46680f5f622ea0d596c17e343b2066c6578706572696d656e74616cf50037",
  "source": "pragma solidity ^0.4.24;\npragma experimental ABIEncoderV2;\n\nimport \"./Claims.sol\";\n\ncontract RegistryToClaims is Claims {\n\n  function getClaimsCountByMemberId() view public returns (uint) {\n    uint256 _memberId = _memberIdFromCurrentAddress();\n    return _getClaimsCountByMember(_memberId);\n  }\n}\n\ncontract RegistryToClaims2 is Claims {\n\n  function getClaim(uint256 _claimId) view public returns (Claim) {\n    return claims_[_claimId];\n  }\n\n}\n",
  "sourcePath": "/home/komodo/newUI/bloomen-decentralized-rights-management-v2/truffle/contracts/registry/RegistryToClaims.sol",
  "compiler": {
    "name": "solc",
    "version": "0.4.24+commit.e67f0147.Emscripten.clang"
  },
  "schemaVersion": "2.0.1",
  "updatedAt": "2019-12-05T20:08:37.612Z"
}