{
  "contractName": "Registry",
  "abi": [
    {
      "constant": false,
      "inputs": [
        {
          "name": "_userToAccept",
          "type": "address"
        }
      ],
      "name": "acceptUser",
      "outputs": [],
      "payable": false,
      "stateMutability": "nonpayable",
      "type": "function"
    },
    {
      "constant": true,
      "inputs": [],
      "name": "getClaimsCountByMemberId",
      "outputs": [
        {
          "name": "",
          "type": "uint256"
        }
      ],
      "payable": false,
      "stateMutability": "view",
      "type": "function"
    },
    {
      "constant": false,
      "inputs": [
        {
          "name": "_userToReject",
          "type": "address"
        }
      ],
      "name": "rejectUser",
      "outputs": [],
      "payable": false,
      "stateMutability": "nonpayable",
      "type": "function"
    },
    {
      "constant": true,
      "inputs": [
        {
          "name": "_claimId",
          "type": "uint256"
        }
      ],
      "name": "getClaim",
      "outputs": [
        {
          "components": [
            {
              "name": "creationDate",
              "type": "uint256"
            },
            {
              "name": "claimId",
              "type": "uint256"
            },
            {
              "components": [
                {
                  "name": "name",
                  "type": "string"
                },
                {
                  "name": "value",
                  "type": "string"
                }
              ],
              "name": "claimData",
              "type": "tuple[]"
            },
            {
              "name": "claimType",
              "type": "uint8"
            },
            {
              "name": "memberOwner",
              "type": "uint256"
            },
            {
              "name": "memberReceptor",
              "type": "uint256"
            },
            {
              "name": "messageLog",
              "type": "string[]"
            },
            {
              "name": "status",
              "type": "uint8"
            },
            {
              "name": "lastChange",
              "type": "uint256"
            }
          ],
          "name": "",
          "type": "tuple"
        }
      ],
      "payable": false,
      "stateMutability": "view",
      "type": "function"
    },
    {
      "constant": true,
      "inputs": [
        {
          "name": "_page",
          "type": "uint256"
        }
      ],
      "name": "getUsers",
      "outputs": [
        {
          "components": [
            {
              "name": "creationDate",
              "type": "uint256"
            },
            {
              "name": "firstName",
              "type": "string"
            },
            {
              "name": "lastName",
              "type": "string"
            },
            {
              "name": "memberId",
              "type": "uint256"
            },
            {
              "name": "requestId",
              "type": "uint256"
            },
            {
              "name": "role",
              "type": "string"
            },
            {
              "name": "status",
              "type": "uint8"
            },
            {
              "name": "owner",
              "type": "address"
            }
          ],
          "name": "",
          "type": "tuple[]"
        }
      ],
      "payable": false,
      "stateMutability": "view",
      "type": "function"
    },
    {
      "constant": false,
      "inputs": [
        {
          "name": "_memberId",
          "type": "uint256"
        },
        {
          "name": "_creationDate",
          "type": "uint256"
        },
        {
          "name": "_name",
          "type": "string"
        },
        {
          "name": "_logo",
          "type": "string"
        },
        {
          "name": "_country",
          "type": "string"
        },
        {
          "name": "_cmo",
          "type": "string"
        },
        {
          "name": "_theme",
          "type": "string"
        }
      ],
      "name": "updateMember",
      "outputs": [],
      "payable": false,
      "stateMutability": "nonpayable",
      "type": "function"
    },
    {
      "constant": true,
      "inputs": [
        {
          "name": "userAddress",
          "type": "address"
        }
      ],
      "name": "getUserByAddress",
      "outputs": [
        {
          "components": [
            {
              "name": "creationDate",
              "type": "uint256"
            },
            {
              "name": "firstName",
              "type": "string"
            },
            {
              "name": "lastName",
              "type": "string"
            },
            {
              "name": "memberId",
              "type": "uint256"
            },
            {
              "name": "requestId",
              "type": "uint256"
            },
            {
              "name": "role",
              "type": "string"
            },
            {
              "name": "status",
              "type": "uint8"
            },
            {
              "name": "owner",
              "type": "address"
            }
          ],
          "name": "",
          "type": "tuple"
        }
      ],
      "payable": false,
      "stateMutability": "view",
      "type": "function"
    },
    {
      "constant": true,
      "inputs": [
        {
          "name": "account",
          "type": "address"
        }
      ],
      "name": "isSigner",
      "outputs": [
        {
          "name": "",
          "type": "bool"
        }
      ],
      "payable": false,
      "stateMutability": "view",
      "type": "function"
    },
    {
      "constant": true,
      "inputs": [],
      "name": "getUsersOwner",
      "outputs": [
        {
          "components": [
            {
              "name": "creationDate",
              "type": "uint256"
            },
            {
              "name": "firstName",
              "type": "string"
            },
            {
              "name": "lastName",
              "type": "string"
            },
            {
              "name": "memberId",
              "type": "uint256"
            },
            {
              "name": "requestId",
              "type": "uint256"
            },
            {
              "name": "role",
              "type": "string"
            },
            {
              "name": "status",
              "type": "uint8"
            },
            {
              "name": "owner",
              "type": "address"
            }
          ],
          "name": "",
          "type": "tuple[]"
        }
      ],
      "payable": false,
      "stateMutability": "view",
      "type": "function"
    },
    {
      "constant": true,
      "inputs": [],
      "name": "getMembers",
      "outputs": [
        {
          "components": [
            {
              "name": "memberId",
              "type": "uint256"
            },
            {
              "name": "creationDate",
              "type": "uint256"
            },
            {
              "name": "name",
              "type": "string"
            },
            {
              "name": "logo",
              "type": "string"
            },
            {
              "name": "country",
              "type": "string"
            },
            {
              "name": "cmo",
              "type": "string"
            },
            {
              "name": "theme",
              "type": "string"
            },
            {
              "name": "claimInbox",
              "type": "uint256[]"
            },
            {
              "name": "claims",
              "type": "uint256[]"
            },
            {
              "name": "userRequests",
              "type": "address[]"
            }
          ],
          "name": "",
          "type": "tuple[]"
        }
      ],
      "payable": false,
      "stateMutability": "view",
      "type": "function"
    },
    {
      "constant": false,
      "inputs": [
        {
          "name": "_creationDate",
          "type": "uint256"
        },
        {
          "name": "_claimData",
          "type": "bytes"
        },
        {
          "name": "_claimType",
          "type": "uint256"
        },
        {
          "name": "_memberReceptor",
          "type": "uint256"
        }
      ],
      "name": "registerClaim",
      "outputs": [],
      "payable": false,
      "stateMutability": "nonpayable",
      "type": "function"
    },
    {
      "constant": true,
      "inputs": [],
      "name": "getcountUsers",
      "outputs": [
        {
          "name": "",
          "type": "uint256"
        }
      ],
      "payable": false,
      "stateMutability": "view",
      "type": "function"
    },
    {
      "constant": false,
      "inputs": [
        {
          "name": "_creationDate",
          "type": "uint256"
        },
        {
          "name": "_firstName",
          "type": "string"
        },
        {
          "name": "_lastName",
          "type": "string"
        },
        {
          "name": "_role",
          "type": "string"
        },
        {
          "name": "_memberId",
          "type": "uint256"
        }
      ],
      "name": "registerUserRequest",
      "outputs": [],
      "payable": false,
      "stateMutability": "nonpayable",
      "type": "function"
    },
    {
      "constant": true,
      "inputs": [],
      "name": "getCount",
      "outputs": [
        {
          "name": "",
          "type": "uint256"
        }
      ],
      "payable": false,
      "stateMutability": "view",
      "type": "function"
    },
    {
      "constant": true,
      "inputs": [
        {
          "name": "_page",
          "type": "uint256"
        }
      ],
      "name": "getClaimsByMemberId",
      "outputs": [
        {
          "components": [
            {
              "name": "creationDate",
              "type": "uint256"
            },
            {
              "name": "claimId",
              "type": "uint256"
            },
            {
              "components": [
                {
                  "name": "name",
                  "type": "string"
                },
                {
                  "name": "value",
                  "type": "string"
                }
              ],
              "name": "claimData",
              "type": "tuple[]"
            },
            {
              "name": "claimType",
              "type": "uint8"
            },
            {
              "name": "memberOwner",
              "type": "uint256"
            },
            {
              "name": "memberReceptor",
              "type": "uint256"
            },
            {
              "name": "messageLog",
              "type": "string[]"
            },
            {
              "name": "status",
              "type": "uint8"
            },
            {
              "name": "lastChange",
              "type": "uint256"
            }
          ],
          "name": "",
          "type": "tuple[]"
        }
      ],
      "payable": false,
      "stateMutability": "view",
      "type": "function"
    },
    {
      "constant": true,
      "inputs": [],
      "name": "getMe",
      "outputs": [
        {
          "components": [
            {
              "name": "creationDate",
              "type": "uint256"
            },
            {
              "name": "firstName",
              "type": "string"
            },
            {
              "name": "lastName",
              "type": "string"
            },
            {
              "name": "memberId",
              "type": "uint256"
            },
            {
              "name": "requestId",
              "type": "uint256"
            },
            {
              "name": "role",
              "type": "string"
            },
            {
              "name": "status",
              "type": "uint8"
            },
            {
              "name": "owner",
              "type": "address"
            }
          ],
          "name": "",
          "type": "tuple"
        }
      ],
      "payable": false,
      "stateMutability": "view",
      "type": "function"
    },
    {
      "constant": true,
      "inputs": [
        {
          "name": "_page",
          "type": "uint256"
        }
      ],
      "name": "getMembers",
      "outputs": [
        {
          "components": [
            {
              "name": "memberId",
              "type": "uint256"
            },
            {
              "name": "creationDate",
              "type": "uint256"
            },
            {
              "name": "name",
              "type": "string"
            },
            {
              "name": "logo",
              "type": "string"
            },
            {
              "name": "country",
              "type": "string"
            },
            {
              "name": "cmo",
              "type": "string"
            },
            {
              "name": "theme",
              "type": "string"
            },
            {
              "name": "claimInbox",
              "type": "uint256[]"
            },
            {
              "name": "claims",
              "type": "uint256[]"
            },
            {
              "name": "userRequests",
              "type": "address[]"
            }
          ],
          "name": "",
          "type": "tuple[]"
        }
      ],
      "payable": false,
      "stateMutability": "view",
      "type": "function"
    },
    {
      "constant": false,
      "inputs": [
        {
          "name": "_claimId",
          "type": "uint256"
        },
        {
          "name": "_claimData",
          "type": "bytes"
        },
        {
          "name": "_lastChange",
          "type": "uint256"
        }
      ],
      "name": "updateClaim",
      "outputs": [],
      "payable": false,
      "stateMutability": "nonpayable",
      "type": "function"
    },
    {
      "constant": false,
      "inputs": [],
      "name": "renounceSigner",
      "outputs": [],
      "payable": false,
      "stateMutability": "nonpayable",
      "type": "function"
    },
    {
      "constant": false,
      "inputs": [
        {
          "name": "_claimId",
          "type": "uint256"
        },
        {
          "name": "_status",
          "type": "uint256"
        },
        {
          "name": "_messageLog",
          "type": "string"
        },
        {
          "name": "_lastChange",
          "type": "uint256"
        }
      ],
      "name": "changeState",
      "outputs": [],
      "payable": false,
      "stateMutability": "nonpayable",
      "type": "function"
    },
    {
      "constant": false,
      "inputs": [
        {
          "name": "account",
          "type": "address"
        }
      ],
      "name": "addSigner",
      "outputs": [],
      "payable": false,
      "stateMutability": "nonpayable",
      "type": "function"
    },
    {
      "constant": false,
      "inputs": [
        {
          "name": "_creationDate",
          "type": "uint256"
        },
        {
          "name": "_name",
          "type": "string"
        },
        {
          "name": "_logo",
          "type": "string"
        },
        {
          "name": "_country",
          "type": "string"
        },
        {
          "name": "_cmo",
          "type": "string"
        },
        {
          "name": "_theme",
          "type": "string"
        }
      ],
      "name": "addMember",
      "outputs": [
        {
          "name": "",
          "type": "uint256"
        }
      ],
      "payable": false,
      "stateMutability": "nonpayable",
      "type": "function"
    },
    {
      "constant": false,
      "inputs": [
        {
          "name": "_firstName",
          "type": "string"
        },
        {
          "name": "_lastName",
          "type": "string"
        },
        {
          "name": "_memberId",
          "type": "uint256"
        },
        {
          "name": "_role",
          "type": "string"
        },
        {
          "name": "owner",
          "type": "address"
        }
      ],
      "name": "updateUser",
      "outputs": [],
      "payable": false,
      "stateMutability": "nonpayable",
      "type": "function"
    },
    {
      "constant": false,
      "inputs": [
        {
          "name": "account",
          "type": "address"
        }
      ],
      "name": "whitelistAdmin",
      "outputs": [],
      "payable": false,
      "stateMutability": "nonpayable",
      "type": "function"
    },
    {
      "anonymous": false,
      "inputs": [
        {
          "indexed": true,
          "name": "account",
          "type": "address"
        }
      ],
      "name": "SignerAdded",
      "type": "event"
    },
    {
      "anonymous": false,
      "inputs": [
        {
          "indexed": true,
          "name": "account",
          "type": "address"
        }
      ],
      "name": "SignerRemoved",
      "type": "event"
    },
    {
      "constant": false,
      "inputs": [
        {
          "name": "_cmo",
          "type": "string"
        }
      ],
      "name": "addCMO",
      "outputs": [],
      "payable": false,
      "stateMutability": "nonpayable",
      "type": "function"
    },
    {
      "constant": false,
      "inputs": [
        {
          "name": "_index",
          "type": "uint256"
        }
      ],
      "name": "deleteCMO",
      "outputs": [],
      "payable": false,
      "stateMutability": "nonpayable",
      "type": "function"
    },
    {
      "constant": true,
      "inputs": [],
      "name": "getCMOs",
      "outputs": [
        {
          "name": "",
          "type": "string[]"
        }
      ],
      "payable": false,
      "stateMutability": "view",
      "type": "function"
    }
  ],
  "bytecode": "0x608060405262000018336401000000006200001e810204565b62000103565b62000039600082640100000000620045fc6200007082021704565b604051600160a060020a038216907f47d1c22a25bb3a5d4e481b9b1e6944c2eade3181a0a20b495ed61d35b5323f2490600090a250565b600160a060020a03811615156200008657600080fd5b6200009b8282640100000000620000cb810204565b15620000a657600080fd5b600160a060020a0316600090815260209190915260409020805460ff19166001179055565b6000600160a060020a0382161515620000e357600080fd5b50600160a060020a03166000908152602091909152604090205460ff1690565b615f8980620001136000396000f30060806040526004361061015e5763ffffffff7c010000000000000000000000000000000000000000000000000000000060003504166308bdc24d81146101635780631be8850b146101855780633a59ccf1146101b05780634dc92885146101d05780635aef2447146101f05780635d73ab9a1461021d578063656d561c1461024a57806365ff0c481461026c57806369c212f61461028c5780637df73e27146102b9578063932191be146102e65780639eab5253146102fb578063a42e28db1461031d578063a4fdc5941461033d578063a7ed1fe414610352578063a87d942c14610372578063b6bc381214610387578063bf3d007e146103b4578063c11e1ff3146103d4578063c477ecab146103e9578063cb68b9e814610409578063e5c8b03d14610429578063e9f468bc1461043e578063eb12d61e1461045e578063fa1188c61461047e578063fcfbde5b1461049e578063ff240fce146104be575b600080fd5b34801561016f57600080fd5b5061018361017e366004614cd2565b6104de565b005b34801561019157600080fd5b5061019a61067a565b6040516101a79190615e67565b60405180910390f35b3480156101bc57600080fd5b506101836101cb366004614cf8565b610697565b3480156101dc57600080fd5b506101836101eb366004614cd2565b6106f4565b3480156101fc57600080fd5b5061021061020b366004614de9565b610858565b6040516101a79190615e45565b34801561022957600080fd5b5061023d610238366004614de9565b610bcc565b6040516101a79190615cb6565b34801561025657600080fd5b5061025f610fa7565b6040516101a79190615c83565b34801561027857600080fd5b50610183610287366004615094565b611080565b34801561029857600080fd5b506102ac6102a7366004614cd2565b61110f565b6040516101a79190615e56565b3480156102c557600080fd5b506102d96102d4366004614cd2565b611363565b6040516101a79190615cc7565b3480156102f257600080fd5b5061023d61137b565b34801561030757600080fd5b50610310611666565b6040516101a79190615ca5565b34801561032957600080fd5b50610183610338366004614e6c565b611b2d565b34801561034957600080fd5b5061019a611c4c565b34801561035e57600080fd5b5061018361036d366004614fe4565b611d11565b34801561037e57600080fd5b5061019a611dd8565b34801561039357600080fd5b506103a76103a2366004614de9565b611df5565b6040516101a79190615c94565b3480156103c057600080fd5b506101836103cf366004614de9565b612209565b3480156103e057600080fd5b506102ac6122c7565b3480156103f557600080fd5b50610310610404366004614de9565b612358565b34801561041557600080fd5b50610183610424366004614e07565b612873565b34801561043557600080fd5b50610183612a4a565b34801561044a57600080fd5b506101836104593660046151a8565b612a55565b34801561046a57600080fd5b50610183610479366004614cd2565b612da8565b34801561048a57600080fd5b5061019a610499366004614ee5565b612dc5565b3480156104aa57600080fd5b506101836104b9366004614d2d565b612e54565b3480156104ca57600080fd5b506101836104d9366004614cd2565b612f42565b600160a060020a0381811660009081526003602052604081206006015461010090049091161161052c5760405160e560020a62461bcd02815260040161052390615d35565b60405180910390fd5b600160a060020a0381166000908152600360208190526040808320820154338452922001541480610561575061056133611363565b15156105825760405160e560020a62461bcd02815260040161052390615d45565b60023360009081526003602052604090206006015460ff1660028111156105a557fe5b14806105b557506105b533611363565b15156105d65760405160e560020a62461bcd02815260040161052390615df5565b6001600160a060020a03821660009081526003602052604090206006015460ff16600281111561060257fe5b146106225760405160e560020a62461bcd02815260040161052390615d05565b600160a060020a038116600090815260036020526040902060060180546002919060ff19166001835b0217905550600160a060020a038116600090815260036020819052604090912001546106779082613016565b50565b600080610685613185565b90506106908161319c565b91505b5090565b6106a033611363565b15156106ab57600080fd5b600680546001810180835560009290925282516106ef917ff652222313e28459528d920b65115c16c04f3efc82aaedc97be59f3f377c0d3f01906020850190614804565b505050565b600160a060020a038181166000908152600360205260408120600601546101009004909116116107395760405160e560020a62461bcd02815260040161052390615d35565b600160a060020a038116600090815260036020819052604080832082015433845292200154148061076e575061076e33611363565b151561078f5760405160e560020a62461bcd02815260040161052390615d45565b60023360009081526003602052604090206006015460ff1660028111156107b257fe5b14806107c257506107c233611363565b15156107e35760405160e560020a62461bcd02815260040161052390615df5565b6001600160a060020a03821660009081526003602052604090206006015460ff16600281111561080f57fe5b1461082f5760405160e560020a62461bcd02815260040161052390615d55565b600160a060020a0381166000908152600360205260408120600601805460ff191660018361064b565b61086061487e565b81610869613185565b600082815260056020526040902060040154148061089f575061088a613185565b60008281526005602081905260409091200154145b15156108c05760405160e560020a62461bcd02815260040161052390615d95565b600560008481526020019081526020016000206101206040519081016040529081600082015481526020016001820154815260200160028201805480602002602001604051908101604052809291908181526020016000905b82821015610a775760008481526020908190206040805160028681029093018054600181161561010002600019011693909304601f8101859004909402810160609081018352918101848152909384928491908401828280156109bd5780601f10610992576101008083540402835291602001916109bd565b820191906000526020600020905b8154815290600101906020018083116109a057829003601f168201915b50505050508152602001600182018054600181600116156101000203166002900480601f016020809104026020016040519081016040528092919081815260200182805460018160011615610100020316600290048015610a5f5780601f10610a3457610100808354040283529160200191610a5f565b820191906000526020600020905b815481529060010190602001808311610a4257829003601f168201915b50505050508152505081526020019060010190610919565b50505090825250600382015460209091019060ff166001811115610a9757fe5b6001811115610aa257fe5b8152602001600482015481526020016005820154815260200160068201805480602002602001604051908101604052809291908181526020016000905b82821015610b8a5760008481526020908190208301805460408051601f6002600019610100600187161502019094169390930492830185900485028101850190915281815292830182828015610b765780601f10610b4b57610100808354040283529160200191610b76565b820191906000526020600020905b815481529060010190602001808311610b5957829003601f168201915b505050505081526020019060010190610adf565b50505090825250600782015460209091019060ff166001811115610baa57fe5b6001811115610bb557fe5b815260200160088201548152505091505b50919050565b606060008060006060600080610be0611c4c565b9550610bed600a896131b1565b600454909550610bfe90600a6131ea565b9350851580610c0c57508585115b80610c1657508388115b15610c2057610f9c565b60408051600a808252610160820190925290816020015b610c3f6148e1565b815260200190600190039081610c37579050509250600091508490505b600454811015610f985733600090815260036020819052604082208101546004805491939185908110610c8b57fe5b6000918252602080832090910154600160a060020a03168352820192909252604001902060030154148015610d085750600260036000600484815481101515610cd057fe5b6000918252602080832090910154600160a060020a0316835282019290925260400190206006015460ff166002811115610d0657fe5b145b15610f905760036000600483815481101515610d2057fe5b600091825260208083209190910154600160a060020a0316835282810193909352604091820190208151610100808201845282548252600180840180548651600293821615909402600019011691909104601f81018790048702830187019095528482529194929385840193919291830182828015610de05780601f10610db557610100808354040283529160200191610de0565b820191906000526020600020905b815481529060010190602001808311610dc357829003601f168201915b5050509183525050600282810180546040805160206001841615610100026000190190931694909404601f81018390048302850183019091528084529381019390830182828015610e725780601f10610e4757610100808354040283529160200191610e72565b820191906000526020600020905b815481529060010190602001808311610e5557829003601f168201915b505050505081526020016003820154815260200160048201548152602001600582018054600181600116156101000203166002900480601f016020809104026020016040519081016040528092919081815260200182805460018160011615610100020316600290048015610f285780601f10610efd57610100808354040283529160200191610f28565b820191906000526020600020905b815481529060010190602001808311610f0b57829003601f168201915b5050509183525050600682015460209091019060ff166002811115610f4957fe5b6002811115610f5457fe5b8152600691909101546101009004600160a060020a03166020909101528351849084908110610f7f57fe5b602090810290910101526001909101905b600101610c5c565b8296505b505050505050919050565b60606006805480602002602001604051908101604052809291908181526020016000905b828210156110765760008481526020908190208301805460408051601f60026000196101006001871615020190941693909304928301859004850281018501909152818152928301828280156110625780601f1061103757610100808354040283529160200191611062565b820191906000526020600020905b81548152906001019060200180831161104557829003601f168201915b505050505081526020019060010190610fcb565b5050505090505b90565b61108933611363565b151561109457600080fd5b600087815260016020526040812054116110c35760405160e560020a62461bcd02815260040161052390615dc5565b6000878152600160208190526040909120015486146110f75760405160e560020a62461bcd02815260040161052390615cd5565b6111068787878787878761320d565b50505050505050565b6111176148e1565b600160a060020a0382166000908152600360209081526040918290208251610100808201855282548252600180840180548751600293821615909402600019011691909104601f81018690048602830186019096528582529194929385810193919291908301828280156111cc5780601f106111a1576101008083540402835291602001916111cc565b820191906000526020600020905b8154815290600101906020018083116111af57829003601f168201915b5050509183525050600282810180546040805160206001841615610100026000190190931694909404601f8101839004830285018301909152808452938101939083018282801561125e5780601f106112335761010080835404028352916020019161125e565b820191906000526020600020905b81548152906001019060200180831161124157829003601f168201915b505050505081526020016003820154815260200160048201548152602001600582018054600181600116156101000203166002900480601f0160208091040260200160405190810160405280929190818152602001828054600181600116156101000203166002900480156113145780601f106112e957610100808354040283529160200191611314565b820191906000526020600020905b8154815290600101906020018083116112f757829003601f168201915b5050509183525050600682015460209091019060ff16600281111561133557fe5b600281111561134057fe5b8152600691909101546101009004600160a060020a031660209091015292915050565b6000611375818363ffffffff61380616565b92915050565b606080600061138933611363565b151561139457600080fd5b6004546040805182815260208084028201019091529080156113d057816020015b6113bd6148e1565b8152602001906001900390816113b55790505b509150600090505b600454811015610bc657600360006004838154811015156113f557fe5b600091825260208083209190910154600160a060020a0316835282810193909352604091820190208151610100808201845282548252600180840180548651600293821615909402600019011691909104601f810187900487028301870190955284825291949293858401939192918301828280156114b55780601f1061148a576101008083540402835291602001916114b5565b820191906000526020600020905b81548152906001019060200180831161149857829003601f168201915b5050509183525050600282810180546040805160206001841615610100026000190190931694909404601f810183900483028501830190915280845293810193908301828280156115475780601f1061151c57610100808354040283529160200191611547565b820191906000526020600020905b81548152906001019060200180831161152a57829003601f168201915b505050505081526020016003820154815260200160048201548152602001600582018054600181600116156101000203166002900480601f0160208091040260200160405190810160405280929190818152602001828054600181600116156101000203166002900480156115fd5780601f106115d2576101008083540402835291602001916115fd565b820191906000526020600020905b8154815290600101906020018083116115e057829003601f168201915b5050509183525050600682015460209091019060ff16600281111561161e57fe5b600281111561162957fe5b8152600691909101546101009004600160a060020a0316602090910152825183908390811061165457fe5b602090810290910101526001016113d8565b60608060006002805490506040519080825280602002602001820160405280156116aa57816020015b611697614932565b81526020019060019003908161168f5790505b509150600090505b600254811015610bc657600160006002838154811015156116cf57fe5b9060005260206000200154815260200190815260200160002061014060405190810160405290816000820154815260200160018201548152602001600282018054600181600116156101000203166002900480601f0160208091040260200160405190810160405280929190818152602001828054600181600116156101000203166002900480156117a25780601f10611777576101008083540402835291602001916117a2565b820191906000526020600020905b81548152906001019060200180831161178557829003601f168201915b505050918352505060038201805460408051602060026001851615610100026000190190941693909304601f81018490048402820184019092528181529382019392918301828280156118365780601f1061180b57610100808354040283529160200191611836565b820191906000526020600020905b81548152906001019060200180831161181957829003601f168201915b505050918352505060048201805460408051602060026001851615610100026000190190941693909304601f81018490048402820184019092528181529382019392918301828280156118ca5780601f1061189f576101008083540402835291602001916118ca565b820191906000526020600020905b8154815290600101906020018083116118ad57829003601f168201915b505050918352505060058201805460408051602060026001851615610100026000190190941693909304601f810184900484028201840190925281815293820193929183018282801561195e5780601f106119335761010080835404028352916020019161195e565b820191906000526020600020905b81548152906001019060200180831161194157829003601f168201915b505050918352505060068201805460408051602060026001851615610100026000190190941693909304601f81018490048402820184019092528181529382019392918301828280156119f25780601f106119c7576101008083540402835291602001916119f2565b820191906000526020600020905b8154815290600101906020018083116119d557829003601f168201915b5050505050815260200160078201805480602002602001604051908101604052809291908181526020018280548015611a4a57602002820191906000526020600020905b815481526020019060010190808311611a36575b5050505050815260200160088201805480602002602001604051908101604052809291908181526020018280548015611aa257602002820191906000526020600020905b815481526020019060010190808311611a8e575b5050505050815260200160098201805480602002602001604051908101604052809291908181526020018280548015611b0457602002820191906000526020600020905b8154600160a060020a03168152600190910190602001808311611ae6575b5050505050815250508282815181101515611b1b57fe5b602090810290910101526001016116b2565b6000806060818711611b545760405160e560020a62461bcd02815260040161052390615e35565b600085101580611b65575060018511155b1515611b865760405160e560020a62461bcd02815260040161052390615e25565b611b8f8761383d565b60008181526005602052604090206001015490935015611bc45760405160e560020a62461bcd02815260040161052390615cf5565b611bcd84613a2c565b1515611bee5760405160e560020a62461bcd02815260040161052390615da5565b611bf6613185565b60408051600080825260208201909252919350611c23565b6060815260200190600190039081611c0e5790505b509050611c388388888886898760008f613a3f565b611c428284613c9f565b6111068484613cc4565b600080805b600454811015610bc65733600090815260036020819052604082208101546004805491939185908110611c8057fe5b6000918252602080832090910154600160a060020a03168352820192909252604001902060030154148015611cfd5750600260036000600484815481101515611cc557fe5b6000918252602080832090910154600160a060020a0316835282019290925260400190206006015460ff166002811115611cfb57fe5b145b15611d09576001909101905b600101611c51565b6000811515611d355760405160e560020a62461bcd02815260040161052390615e15565b60008611611d585760405160e560020a62461bcd02815260040161052390615e35565b3360009081526003602052604090205415611d885760405160e560020a62461bcd02815260040161052390615d25565b611d9182613a2c565b1515611db25760405160e560020a62461bcd02815260040161052390615dc5565b611dbb8661383d565b9050611dd08686868585886001336000613ce9565b505050505050565b6000611de333611363565b1515611dee57600080fd5b5060025490565b6060600080600080606080600080611e0e600a8b6131b1565b9750611e18613185565b9650611e238761319c565b9550611e3086600a6131ea565b9450851580611e4157506001860388115b80611e4b5750848a115b15611e55576121fc565b611e5e8761413d565b60408051600a8082526101608201909252919550816020015b611e7f61487e565b815260200190600190039081611e77579050509250600091508790505b83518110156121f857600a8210156121eb57600560008583815181101515611ec057fe5b9060200190602002015181526020019081526020016000206101206040519081016040529081600082015481526020016001820154815260200160028201805480602002602001604051908101604052809291908181526020016000905b8282101561207c5760008481526020908190206040805160028681029093018054600181161561010002600019011693909304601f810185900490940281016060908101835291810184815290938492849190840182828015611fc25780601f10611f9757610100808354040283529160200191611fc2565b820191906000526020600020905b815481529060010190602001808311611fa557829003601f168201915b50505050508152602001600182018054600181600116156101000203166002900480601f0160208091040260200160405190810160405280929190818152602001828054600181600116156101000203166002900480156120645780601f1061203957610100808354040283529160200191612064565b820191906000526020600020905b81548152906001019060200180831161204757829003601f168201915b50505050508152505081526020019060010190611f1e565b50505090825250600382015460209091019060ff16600181111561209c57fe5b60018111156120a757fe5b8152602001600482015481526020016005820154815260200160068201805480602002602001604051908101604052809291908181526020016000905b8282101561218f5760008481526020908190208301805460408051601f600260001961010060018716150201909416939093049283018590048502810185019091528181529283018282801561217b5780601f106121505761010080835404028352916020019161217b565b820191906000526020600020905b81548152906001019060200180831161215e57829003601f168201915b5050505050815260200190600101906120e4565b50505090825250600782015460209091019060ff1660018111156121af57fe5b60018111156121ba57fe5b815260200160088201548152505083838151811015156121d657fe5b602090810290910101526001909101906121f0565b6121f8565b600101611e9c565b8298505b5050505050505050919050565b600061221433611363565b151561221f57600080fd5b50805b6006546000190181101561228c57600680546001830190811061224157fe5b9060005260206000200160068281548110151561225a57fe5b906000526020600020019080546001816001161561010002031660029004612283929190614986565b50600101612222565b60068054600019810190811061229e57fe5b9060005260206000200160006122b491906149fb565b60068054906106ef906000198301614a3f565b6122cf6148e1565b6122d76148e1565b336000908152600360209081526040918290208251610100808201855282548252600180840180548751600293821615909402600019011691909104601f81018690048602830186019096528582529194929385810193919291908301828280156111cc5780601f106111a1576101008083540402835291602001916111cc565b606060008060006060600061236e600a886131b1565b60025490955061237f90600a6131ea565b600254909450158061239657506002546000190185115b806123a057508387115b156123aa57612869565b60408051600a80825261016082019092526000945090816020015b6123cd614932565b8152602001906001900390816123c55790505091508490505b600254811015612865576001600060028381548110151561240357fe5b9060005260206000200154815260200190815260200160002061014060405190810160405290816000820154815260200160018201548152602001600282018054600181600116156101000203166002900480601f0160208091040260200160405190810160405280929190818152602001828054600181600116156101000203166002900480156124d65780601f106124ab576101008083540402835291602001916124d6565b820191906000526020600020905b8154815290600101906020018083116124b957829003601f168201915b505050918352505060038201805460408051602060026001851615610100026000190190941693909304601f810184900484028201840190925281815293820193929183018282801561256a5780601f1061253f5761010080835404028352916020019161256a565b820191906000526020600020905b81548152906001019060200180831161254d57829003601f168201915b505050918352505060048201805460408051602060026001851615610100026000190190941693909304601f81018490048402820184019092528181529382019392918301828280156125fe5780601f106125d3576101008083540402835291602001916125fe565b820191906000526020600020905b8154815290600101906020018083116125e157829003601f168201915b505050918352505060058201805460408051602060026001851615610100026000190190941693909304601f81018490048402820184019092528181529382019392918301828280156126925780601f1061266757610100808354040283529160200191612692565b820191906000526020600020905b81548152906001019060200180831161267557829003601f168201915b505050918352505060068201805460408051602060026001851615610100026000190190941693909304601f81018490048402820184019092528181529382019392918301828280156127265780601f106126fb57610100808354040283529160200191612726565b820191906000526020600020905b81548152906001019060200180831161270957829003601f168201915b505050505081526020016007820180548060200260200160405190810160405280929190818152602001828054801561277e57602002820191906000526020600020905b81548152602001906001019080831161276a575b50505050508152602001600882018054806020026020016040519081016040528092919081815260200182805480156127d657602002820191906000526020600020905b8154815260200190600101908083116127c2575b505050505081526020016009820180548060200260200160405190810160405280929190818152602001828054801561283857602002820191906000526020600020905b8154600160a060020a0316815260019091019060200180831161281a575b505050505081525050828481518110151561284f57fe5b60209081029091010152600192830192016123e6565b8195505b5050505050919050565b8261287c613185565b60008281526005602052604090206004015414806128b2575061289d613185565b60008281526005602081905260409091200154145b15156128d35760405160e560020a62461bcd02815260040161052390615d95565b600084815260056020526040812060010154116129055760405160e560020a62461bcd02815260040161052390615d75565b60008481526005602052604090208054600390910154612a44918691869060ff16600181111561293157fe5b6000898152600560208181526040808420600481015493810154600690910180548351818602810186019094528084529495919492939092919084015b82821015612a195760008481526020908190208301805460408051601f6002600019610100600187161502019094169390930492830185900485028101850190915281815292830182828015612a055780601f106129da57610100808354040283529160200191612a05565b820191906000526020600020905b8154815290600101906020018083116129e857829003601f168201915b50505050508152602001906001019061296e565b50505060008d81526005602052604090206007015460ff1690506001811115612a3e57fe5b8a613a3f565b50505050565b612a53336141d2565b565b600083600081101580612a69575060018111155b1515612a8a5760405160e560020a62461bcd02815260040161052390615d15565b60008681526005602052604081206001015411612abc5760405160e560020a62461bcd02815260040161052390615d75565b846001811115612ac857fe5b6001811115612ad357fe5b60008781526005602052604090206007015460ff166001811115612af357fe5b14612c205760008681526005602081905260409091200154612b15908761421a565b9150841580612b245750600185145b15612b72578115612b515760008681526005602081905260409091200154612b4c9087614283565b612b6d565b600086815260056020526040902060040154612b6d9087614283565b612bea565b8115612bb157600086815260056020526040902060040154612b949087613cc4565b60008681526005602081905260409091200154612b6d9087614283565b60008681526005602081905260409091200154612bce9087613cc4565b600086815260056020526040902060040154612bea9087614283565b846001811115612bf657fe5b6000878152600560205260409020600701805460ff191660018381811115612c1a57fe5b02179055505b604080516000815260208101918290528051909190819081908082805b60208310612c5c5780518252601f199092019160209182019101612c3d565b51815160209384036101000a60001901801990921691161790526040519190930181900381208951909550899450908301928392508401908083835b60208310612cb75780518252601f199092019160209182019101612c98565b6001836020036101000a0380198251168184511680821785525050505050509050019150506040516020818303038152906040526040518082805190602001908083835b60208310612d1a5780518252601f199092019160209182019101612cfb565b6001836020036101000a038019825116818451168082178552505050505050905001915050604051809103902060001916141515612d8c57600086815260056020908152604082206006018054600181018083559184529282902087519193612d899391019190880190614804565b50505b5050600093845260056020526040909320600801929092555050565b612db133611363565b1515612dbc57600080fd5b61067781614396565b600080612dd133611363565b1515612ddc57600080fd5b60008811612dff5760405160e560020a62461bcd02815260040161052390615e35565b612e088861383d565b60008181526001602052604090205490915015612e3a5760405160e560020a62461bcd02815260040161052390615db5565b612e498189898989898961320d565b979650505050505050565b600160a060020a03818116600090815260036020526040812060060154909182918291610100909104168110612e9f5760405160e560020a62461bcd02815260040161052390615d35565b6002600160a060020a03851660009081526003602052604090206006015460ff166002811115612ecb57fe5b14612eeb5760405160e560020a62461bcd02815260040161052390615df5565b600160a060020a03841660009081526003602052604090206004810154815460069092015490945090925060ff166002811115612f2457fe5b9050612f3882898989878a878b6001613ce9565b5050505050505050565b612f4b33611363565b1515612f5657600080fd5b600160a060020a03811660009081526003602081905260409091200154612f7d9082613016565b604080518082018252600b81527f53757065722061646d696e0000000000000000000000000000000000000000006020808301918252600160a060020a03851660009081526003909152929092209051612fdd9260059092019190614804565b50600160a060020a0381166000908152600360208190526040822090810191909155600601805460ff1916600217905561067781612da8565b6000805b600084815260016020526040902060090154600019018110156131165760008481526001602052604090206009018054600160a060020a03851691908390811061306057fe5b600091825260209091200154600160a060020a0316141561308057600191505b811561310e5760008481526001602081905260409091206009018054909183019081106130a957fe5b6000918252602080832090910154868352600190915260409091206009018054600160a060020a0390921691839081106130df57fe5b9060005260206000200160006101000a815481600160a060020a030219169083600160a060020a031602179055505b60010161301a565b60008481526001602052604090206009018054600019810190811061313757fe5b60009182526020808320909101805473ffffffffffffffffffffffffffffffffffffffff19169055858252600190526040902060090180549061317e906000198301614a63565b5050505050565b336000908152600360208190526040909120015490565b60009081526001602052604090206008015490565b6000808315156131c457600091506131e3565b508282028284828115156131d457fe5b04146131df57600080fd5b8091505b5092915050565b6000808083116131f957600080fd5b828481151561320457fe5b04949350505050565b613215614932565b855115156132385760405160e560020a62461bcd02815260040161052390615e05565b8251151561325b5760405160e560020a62461bcd02815260040161052390615de5565b8151151561327e5760405160e560020a62461bcd02815260040161052390615dd5565b6000888152600160208181526040928390208351610140810185528154815281840154818401526002808301805487519681161561010002600019011691909104601f81018590048502860185018752808652919592949286019390919083018282801561332d5780601f106133025761010080835404028352916020019161332d565b820191906000526020600020905b81548152906001019060200180831161331057829003601f168201915b505050918352505060038201805460408051602060026001851615610100026000190190941693909304601f81018490048402820184019092528181529382019392918301828280156133c15780601f10613396576101008083540402835291602001916133c1565b820191906000526020600020905b8154815290600101906020018083116133a457829003601f168201915b505050918352505060048201805460408051602060026001851615610100026000190190941693909304601f81018490048402820184019092528181529382019392918301828280156134555780601f1061342a57610100808354040283529160200191613455565b820191906000526020600020905b81548152906001019060200180831161343857829003601f168201915b505050918352505060058201805460408051602060026001851615610100026000190190941693909304601f81018490048402820184019092528181529382019392918301828280156134e95780601f106134be576101008083540402835291602001916134e9565b820191906000526020600020905b8154815290600101906020018083116134cc57829003601f168201915b505050918352505060068201805460408051602060026001851615610100026000190190941693909304601f810184900484028201840190925281815293820193929183018282801561357d5780601f106135525761010080835404028352916020019161357d565b820191906000526020600020905b81548152906001019060200180831161356057829003601f168201915b50505050508152602001600782018054806020026020016040519081016040528092919081815260200182805480156135d557602002820191906000526020600020905b8154815260200190600101908083116135c1575b505050505081526020016008820180548060200260200160405190810160405280929190818152602001828054801561362d57602002820191906000526020600020905b815481526020019060010190808311613619575b505050505081526020016009820180548060200260200160405190810160405280929190818152602001828054801561368f57602002820191906000526020600020905b8154600160a060020a03168152600190910190602001808311613671575b50505091909252505050888152602080820189815260408084018a8152606085018a90526080850189905260a0850188905260c0850187905260008d8152600180865292902085518155925191830191909155518051939450849391926136fe92600285019290910190614804565b506060820151805161371a916003840191602090910190614804565b5060808201518051613736916004840191602090910190614804565b5060a08201518051613752916005840191602090910190614804565b5060c0820151805161376e916006840191602090910190614804565b5060e0820151805161378a916007840191602090910190614a87565b5061010082015180516137a7916008840191602090910190614a87565b5061012082015180516137c4916009840191602090910190614ac1565b5050600280546001810182556000919091527f405787fa12a823e0f2b7631cc41b3ba8828b3321ca811111fa75cd3aa3bb5ace01989098555050505050505050565b6000600160a060020a038216151561381d57600080fd5b50600160a060020a03166000908152602091909152604090205460ff1690565b60008080806002850615156138cf5784604051602001808281526020019150506040516020818303038152906040526040518082805190602001908083835b6020831061389b5780518252601f19909201916020918201910161387c565b6001836020036101000a038019825116818451168082178552505050505050905001915050604051809103902092506139ba565b84604051602001808281526020019150506040516020818303038152906040526040518082805190602001908083835b6020831061391e5780518252601f1990920191602091820191016138ff565b51815160209384036101000a600019018019909216911617905260408051929094018290038220828201528351808303820181529184019384905281519195509293508392850191508083835b6020831061398a5780518252601f19909201916020918201910161396b565b6001836020036101000a038019825116818451168082178552505050505050905001915050604051809103902092505b60208110156139e7578281602081106139cf57fe5b60f860020a91901a81020491909101906001016139ba565b8260206002840106602081106139f957fe5b60f860020a91901a810204836020840660208110613a1357fe5b1a60f860020a0260f860020a9004029350505050919050565b6000908152600160205260408120541190565b613a47614b2f565b606060006060613a568b6143de565b9350613a618461442c565b92508c600560008f8152602001908152602001600020600101819055508b600560008f815260200190815260200160002060000181905550896001811115613aa557fe5b60008e8152600560205260409020600301805460ff191660018381811115613ac957fe5b021790555060008d8152600560205260408120613aeb91600290910190614b46565b600091505b8251821015613bd057613b198383815181101515613b0a57fe5b9060200190602002015161442c565b9050600560008e81526020019081526020016000206002016040805190810160405280613b5d846000815181101515613b4e57fe5b906020019060200201516144ff565b8152602001613b74846001815181101515613b4e57fe5b90528154600181018084556000938452602093849020835180519295600290940290910192613ba892849290910190614804565b506020828101518051613bc19260018501920190614804565b50505050816001019150613af0565b60008d8152600560208181526040909220600481018c90559081018a9055600881018790558851613c09926006909201918a0190614b67565b5060008611613c1b5760009550613c5b565b60018611613c2c5760019550613c5b565b60028611613c3d5760019550613c5b565b60038611613c4e5760009550613c5b565b60048611613c5b57600195505b856001811115613c6757fe5b60008e8152600560205260409020600701805460ff191660018381811115613c8b57fe5b021790555050505050505050505050505050565b6000918252600160208181526040842060080180549283018155845290922090910155565b6000918252600160208181526040842060070180549283018155845290922090910155565b613cf16148e1565b600084101580613d02575060028411155b1515613d235760405160e560020a62461bcd02815260040161052390615d65565b84511515613d465760405160e560020a62461bcd02815260040161052390615ce5565b600160a060020a0383166000908152600360209081526040918290208251610100808201855282548252600180840180548751600293821615909402600019011691909104601f8101869004860283018601909652858252919492938581019391929190830182828015613dfb5780601f10613dd057610100808354040283529160200191613dfb565b820191906000526020600020905b815481529060010190602001808311613dde57829003601f168201915b5050509183525050600282810180546040805160206001841615610100026000190190931694909404601f81018390048302850183019091528084529381019390830182828015613e8d5780601f10613e6257610100808354040283529160200191613e8d565b820191906000526020600020905b815481529060010190602001808311613e7057829003601f168201915b505050505081526020016003820154815260200160048201548152602001600582018054600181600116156101000203166002900480601f016020809104026020016040519081016040528092919081815260200182805460018160011615610100020316600290048015613f435780601f10613f1857610100808354040283529160200191613f43565b820191906000526020600020905b815481529060010190602001808311613f2657829003601f168201915b5050509183525050600682015460209091019060ff166002811115613f6457fe5b6002811115613f6f57fe5b8152600691909101546101009004600160a060020a03166020918201528b825281018a905260408101899052606081018890526080810187905260a081018690529050836002811115613fbe57fe5b8160c001906002811115613fce57fe5b90816002811115613fdb57fe5b905250600160a060020a03831660e08201819052600090815260036020908152604090912082518155818301518051849361401d926001850192910190614804565b5060408201518051614039916002840191602090910190614804565b50606082015160038201556080820151600482015560a08201518051614069916005840191602090910190614804565b5060c082015160068201805460ff1916600183600281111561408757fe5b021790555060e0919091015160069091018054600160a060020a039092166101000274ffffffffffffffffffffffffffffffffffffffff001990921691909117905581151561413157600480546001810182556000919091527f8a35acfbc15ff81a39ae7d344fd709f28e8600b4aa8c65c6b64bfe7fe36bd19b01805473ffffffffffffffffffffffffffffffffffffffff1916600160a060020a03851617905561413187614571565b50505050505050505050565b6000818152600160205260408120546060911061416f5760405160e560020a62461bcd02815260040161052390615d85565b600082815260016020908152604091829020600801805483518184028101840190945280845290918301828280156141c657602002820191906000526020600020905b8154815260200190600101908083116141b2575b50505050509050919050565b6141e360008263ffffffff6145b016565b604051600160a060020a038216907f3525e22824a8a7df2c9a6029941c824cf95b6447f1e13d5128fd3826d35afe8b90600090a250565b6000805b60008481526001602052604090206007015481101561427957600084815260016020526040902060070180548491908390811061425757fe5b9060005260206000200154141561427157600191506131e3565b60010161421e565b5060009392505050565b6000805b600084815260016020526040902060070154600019018110156143465760008481526001602052604090206007018054849190839081106142c457fe5b906000526020600020015414156142da57600191505b811561433e57600084815260016020819052604090912060070180549091830190811061430357fe5b9060005260206000200154600160008681526020019081526020016000206007018281548110151561433157fe5b6000918252602090912001555b600101614287565b60008481526001602052604090206007018054600019810190811061436757fe5b60009182526020808320909101829055858252600190526040902060070180549061317e906000198301614a63565b6143a760008263ffffffff6145fc16565b604051600160a060020a038216907f47d1c22a25bb3a5d4e481b9b1e6944c2eade3181a0a20b495ed61d35b5323f2490600090a250565b6143e6614b2f565b600082516000141561440d5760408051808201909152600080825260208201529150610bc6565b5050604080518082019091528151815260209182019181019190915290565b606060008060008061443d8661464a565b151561444857600080fd5b61445186614679565b93508360405190808252806020026020018201604052801561448d57816020015b61447a614b2f565b8152602001906001900390816144725790505b50945061449d86602001516146c9565b8660200151019250600090505b838110156144f6576144bb8361472c565b915060408051908101604052808381526020018481525085828151811015156144e057fe5b60209081029091010152918101916001016144aa565b50505050919050565b60606000806060600061451586602001516146c9565b9350838660000151039250826040519080825280601f01601f19166020018201604052801561454e578160200160208202803883390190505b5091508160200190506145688487602001510182856147bd565b50949350505050565b6000908152600160208181526040832060090180549283018155835290912001805473ffffffffffffffffffffffffffffffffffffffff191633179055565b600160a060020a03811615156145c557600080fd5b6145cf8282613806565b15156145da57600080fd5b600160a060020a0316600090815260209190915260409020805460ff19169055565b600160a060020a038116151561461157600080fd5b61461b8282613806565b1561462557600080fd5b600160a060020a0316600090815260209190915260409020805460ff19166001179055565b6020810151805160009190821a9060c060ff8316101561466d5760009250614672565b600192505b5050919050565b6000806000806000925061469085602001516146c9565b6020860151865191810193500190505b808210156146c0576146b18261472c565b600190930192909101906146a0565b50909392505050565b8051600090811a60808110156146e25760009150610bc6565b60b88110806146fd575060c081108015906146fd575060f881105b1561470b5760019150610bc6565b60c08110156147205760b51981019150610bc6565b60f51981019150610bc6565b8051600090811a60808110156147455760019150610bc6565b60b881101561475a57607e1981019150610bc6565b60c08110156147875760b78103600184019350806020036101000a84510460018201810193505050610bc6565b60f881101561479c5760be1981019150610bc6565b60019290920151602083900360f7016101000a900490910160f51901919050565b60005b602082106147e2578351835260209384019390920191601f19909101906147c0565b50915181516020939093036101000a6000190180199091169216919091179052565b828054600181600116156101000203166002900490600052602060002090601f016020900481019282601f1061484557805160ff1916838001178555614872565b82800160010185558215614872579182015b82811115614872578251825591602001919060010190614857565b50610693929150614bc0565b61012060405190810160405280600081526020016000815260200160608152602001600060018111156148ad57fe5b8152602001600081526020016000815260200160608152602001600060018111156148d457fe5b8152602001600081525090565b610100604051908101604052806000815260200160608152602001606081526020016000815260200160008152602001606081526020016000600281111561492557fe5b8152600060209091015290565b61014060405190810160405280600081526020016000815260200160608152602001606081526020016060815260200160608152602001606081526020016060815260200160608152602001606081525090565b828054600181600116156101000203166002900490600052602060002090601f016020900481019282601f106149bf5780548555614872565b8280016001018555821561487257600052602060002091601f016020900482015b828111156148725782548255916001019190600101906149e0565b50805460018160011615610100020316600290046000825580601f10614a215750610677565b601f0160209004906000526020600020908101906106779190614bc0565b8154818355818111156106ef576000838152602090206106ef918101908301614bda565b8154818355818111156106ef576000838152602090206106ef918101908301614bc0565b8280548282559060005260206000209081019282156148725791602002820182811115614872578251825591602001919060010190614857565b828054828255906000526020600020908101928215614b23579160200282015b82811115614b23578251825473ffffffffffffffffffffffffffffffffffffffff1916600160a060020a03909116178255602090920191600190910190614ae1565b50610693929150614bfd565b604080518082019091526000808252602082015290565b50805460008255600202906000526020600020908101906106779190614c2e565b828054828255906000526020600020908101928215614bb4579160200282015b82811115614bb45782518051614ba4918491602090910190614804565b5091602001919060010190614b87565b50610693929150614bda565b61107d91905b808211156106935760008155600101614bc6565b61107d91905b80821115610693576000614bf482826149fb565b50600101614be0565b61107d91905b8082111561069357805473ffffffffffffffffffffffffffffffffffffffff19168155600101614c03565b61107d91905b80821115610693576000614c4882826149fb565b614c566001830160006149fb565b50600201614c34565b6000614c6b8235615ece565b9392505050565b6000601f82018313614c8357600080fd5b8135614c96614c9182615e9c565b615e75565b91508082526020830160208301858383011115614cb257600080fd5b614cbd838284615f0d565b50505092915050565b6000614c6b823561107d565b600060208284031215614ce457600080fd5b6000614cf08484614c5f565b949350505050565b600060208284031215614d0a57600080fd5b813567ffffffffffffffff811115614d2157600080fd5b614cf084828501614c72565b600080600080600060a08688031215614d4557600080fd5b853567ffffffffffffffff811115614d5c57600080fd5b614d6888828901614c72565b955050602086013567ffffffffffffffff811115614d8557600080fd5b614d9188828901614c72565b9450506040614da288828901614cc6565b935050606086013567ffffffffffffffff811115614dbf57600080fd5b614dcb88828901614c72565b9250506080614ddc88828901614c5f565b9150509295509295909350565b600060208284031215614dfb57600080fd5b6000614cf08484614cc6565b600080600060608486031215614e1c57600080fd5b6000614e288686614cc6565b935050602084013567ffffffffffffffff811115614e4557600080fd5b614e5186828701614c72565b9250506040614e6286828701614cc6565b9150509250925092565b60008060008060808587031215614e8257600080fd5b6000614e8e8787614cc6565b945050602085013567ffffffffffffffff811115614eab57600080fd5b614eb787828801614c72565b9350506040614ec887828801614cc6565b9250506060614ed987828801614cc6565b91505092959194509250565b60008060008060008060c08789031215614efe57600080fd5b6000614f0a8989614cc6565b965050602087013567ffffffffffffffff811115614f2757600080fd5b614f3389828a01614c72565b955050604087013567ffffffffffffffff811115614f5057600080fd5b614f5c89828a01614c72565b945050606087013567ffffffffffffffff811115614f7957600080fd5b614f8589828a01614c72565b935050608087013567ffffffffffffffff811115614fa257600080fd5b614fae89828a01614c72565b92505060a087013567ffffffffffffffff811115614fcb57600080fd5b614fd789828a01614c72565b9150509295509295509295565b600080600080600060a08688031215614ffc57600080fd5b60006150088888614cc6565b955050602086013567ffffffffffffffff81111561502557600080fd5b61503188828901614c72565b945050604086013567ffffffffffffffff81111561504e57600080fd5b61505a88828901614c72565b935050606086013567ffffffffffffffff81111561507757600080fd5b61508388828901614c72565b9250506080614ddc88828901614cc6565b600080600080600080600060e0888a0312156150af57600080fd5b60006150bb8a8a614cc6565b97505060206150cc8a828b01614cc6565b965050604088013567ffffffffffffffff8111156150e957600080fd5b6150f58a828b01614c72565b955050606088013567ffffffffffffffff81111561511257600080fd5b61511e8a828b01614c72565b945050608088013567ffffffffffffffff81111561513b57600080fd5b6151478a828b01614c72565b93505060a088013567ffffffffffffffff81111561516457600080fd5b6151708a828b01614c72565b92505060c088013567ffffffffffffffff81111561518d57600080fd5b6151998a828b01614c72565b91505092959891949750929550565b600080600080608085870312156151be57600080fd5b60006151ca8787614cc6565b94505060206151db87828801614cc6565b935050604085013567ffffffffffffffff8111156151f857600080fd5b614ec887828801614c72565b61520d81615ece565b82525050565b600061521e82615eca565b80845260208401935061523083615ec4565b60005b8281101561526057615246868351615204565b61524f82615ec4565b602096909601959150600101615233565b5093949350505050565b600061527582615eca565b8084526020840193508360208202850161528e85615ec4565b60005b848110156152c55783830388526152a9838351615500565b92506152b482615ec4565b602098909801979150600101615291565b50909695505050505050565b60006152dc82615eca565b808452602084019350836020820285016152f585615ec4565b60005b848110156152c5578383038852615310838351615500565b925061531b82615ec4565b6020989098019791506001016152f8565b600061533782615eca565b8084526020840193508360208202850161535085615ec4565b60005b848110156152c557838303885261536b8383516159d1565b925061537682615ec4565b602098909801979150600101615353565b600061539282615eca565b808452602084019350836020820285016153ab85615ec4565b60005b848110156152c55783830388526153c6838351615a96565b92506153d182615ec4565b6020989098019791506001016153ae565b60006153ed82615eca565b8084526020840193508360208202850161540685615ec4565b60005b848110156152c5578383038852615421838351615b99565b925061542c82615ec4565b602098909801979150600101615409565b600061544882615eca565b8084526020840193508360208202850161546185615ec4565b60005b848110156152c557838303885261547c838351615bcb565b925061548782615ec4565b602098909801979150600101615464565b60006154a382615eca565b8084526020840193506154b583615ec4565b60005b82811015615260576154cb868351615c7a565b6154d482615ec4565b6020969096019591506001016154b8565b61520d81615eda565b61520d81615ef7565b61520d81615f02565b600061550b82615eca565b80845261551f816020860160208601615f19565b61552881615f45565b9093016020019392505050565b601a81527f4372656174696f6e204461746520697320696e6d757461626c65000000000000602082015260400190565b601181527f726f6c65206973206d616e6461746f7279000000000000000000000000000000602082015260400190565b601481527f436c61696d20616c726561647920657869737473000000000000000000000000602082015260400190565b602281527f4f6e6c792070656e64696e672075736572732063616e2062652061636365707460208201527f6564000000000000000000000000000000000000000000000000000000000000604082015260600190565b601281527f737461747573206e6f7420616c6c6f7765640000000000000000000000000000602082015260400190565b601381527f5573657220616c72656164792065786973747300000000000000000000000000602082015260400190565b601481527f546869732075736572206e6f7420657869737473000000000000000000000000602082015260400190565b601b81527f596f752063616e6e6f7420616363657074207468697320757365720000000000602082015260400190565b602281527f4f6e6c792070656e64696e672075736572732063616e2062652072656a65637460208201527f6564000000000000000000000000000000000000000000000000000000000000604082015260600190565b601381527f737461747573206973206e6f742076616c696400000000000000000000000000602082015260400190565b601081527f436c61696d206e6f742065786973747300000000000000000000000000000000602082015260400190565b601181527f6d656d626572206e6f7420657869737473000000000000000000000000000000602082015260400190565b601d81527f6e6f7420616c6c6f77656420746f20676574207468697320636c61696d000000602082015260400190565b601481527f4d656d62657220646f206e6f7420657869737473000000000000000000000000602082015260400190565b601581527f4d656d62657220616c7265616479206578697374730000000000000000000000602082015260400190565b601181527f4d656d626572206e6f7420657869737473000000000000000000000000000000602082015260400190565b601281527f5468656d65206973206d616e6461746f72790000000000000000000000000000602082015260400190565b601081527f434d4f206973206d616e6461746f727900000000000000000000000000000000602082015260400190565b601481527f596f7520617265206e6f74206163636570746564000000000000000000000000602082015260400190565b601181527f4e616d65206973206d616e6461746f7279000000000000000000000000000000602082015260400190565b601181527f4e6f2076616c6964206d656d6265724964000000000000000000000000000000602082015260400190565b601481527f496e636f727265637420436c61696d2054797065000000000000000000000000602082015260400190565b601981527f4372656174696f6e44617465206973206d616e6461746f727900000000000000602082015260400190565b80516000906101208401906159e68582615c7a565b5060208301516159f96020860182615c7a565b5060408301518482036040860152615a1182826153e2565b9150506060830151615a2660608601826154ee565b506080830151615a396080860182615c7a565b5060a0830151615a4c60a0860182615c7a565b5060c083015184820360c0860152615a6482826152d1565b91505060e0830151615a7960e08601826154ee565b50610100830151615a8e610100860182615c7a565b509392505050565b8051600090610140840190615aab8582615c7a565b506020830151615abe6020860182615c7a565b5060408301518482036040860152615ad68282615500565b91505060608301518482036060860152615af08282615500565b91505060808301518482036080860152615b0a8282615500565b91505060a083015184820360a0860152615b248282615500565b91505060c083015184820360c0860152615b3e8282615500565b91505060e083015184820360e0860152615b588282615498565b915050610100830151848203610100860152615b748282615498565b915050610120830151848203610120860152615b908282615213565b95945050505050565b8051604080845260009190840190615bb18282615500565b91505060208301518482036020860152615b908282615500565b8051600090610100840190615be08582615c7a565b5060208301518482036020860152615bf88282615500565b91505060408301518482036040860152615c128282615500565b9150506060830151615c276060860182615c7a565b506080830151615c3a6080860182615c7a565b5060a083015184820360a0860152615c528282615500565b91505060c0830151615c6760c08601826154f7565b5060e0830151615a8e60e0860182615204565b61520d8161107d565b60208082528101614c6b818461526a565b60208082528101614c6b818461532c565b60208082528101614c6b8184615387565b60208082528101614c6b818461543d565b6020810161137582846154e5565b6020808252810161137581615535565b6020808252810161137581615565565b6020808252810161137581615595565b60208082528101611375816155c5565b602080825281016113758161561b565b602080825281016113758161564b565b602080825281016113758161567b565b60208082528101611375816156ab565b60208082528101611375816156db565b6020808252810161137581615731565b6020808252810161137581615761565b6020808252810161137581615791565b60208082528101611375816157c1565b60208082528101611375816157f1565b6020808252810161137581615821565b6020808252810161137581615851565b6020808252810161137581615881565b60208082528101611375816158b1565b60208082528101611375816158e1565b6020808252810161137581615911565b6020808252810161137581615941565b6020808252810161137581615971565b60208082528101611375816159a1565b60208082528101614c6b81846159d1565b60208082528101614c6b8184615bcb565b602081016113758284615c7a565b60405181810167ffffffffffffffff81118282101715615e9457600080fd5b604052919050565b600067ffffffffffffffff821115615eb357600080fd5b506020601f91909101601f19160190565b60200190565b5190565b600160a060020a031690565b151590565b60006002821061069357fe5b60006003821061069357fe5b600061137582615edf565b600061137582615eeb565b82818337506000910152565b60005b83811015615f34578181015183820152602001615f1c565b83811115612a445750506000910152565b601f01601f1916905600a265627a7a7230582036b70588692ce9c41f8bc8df7f78f2b2d5134a7db7d637048300127cc6e71a436c6578706572696d656e74616cf50037",
  "source": "pragma solidity ^0.4.24;\npragma experimental ABIEncoderV2;\n\nimport \"./Claims.sol\";\n\ncontract Registry is Claims {\n  \n  string[] private cmos_;\n\n  function addCMO(string memory _cmo) onlySigner public {\n    cmos_.push(_cmo);\n  }\n\n  function deleteCMO(uint _index) onlySigner public {\n    for (uint i = _index; i < cmos_.length-1;i++){\n      cmos_[i] = cmos_[i+1];\n    }\n    delete cmos_[cmos_.length-1];\n    cmos_.length--;\n  }\n\n  function getCMOs() view public returns( string[] memory ) {\n    return cmos_;\n  }\n\n}",
  "sourcePath": "/home/komodo/newUI/bloomen-decentralized-rights-management-v2/truffle/contracts/registry/Registry.sol",
  "compiler": {
    "name": "solc",
    "version": "0.4.24+commit.e67f0147.Emscripten.clang"
  },
  "schemaVersion": "2.0.1",
  "updatedAt": "2019-10-24T12:04:17.702Z"
}