{
  "contractName": "RegistryToClaims",
  "abi": [
    {
      "constant": false,
      "inputs": [
        {
          "name": "_userToAccept",
          "type": "address"
        }
      ],
      "name": "acceptUser",
      "outputs": [],
      "payable": false,
      "stateMutability": "nonpayable",
      "type": "function"
    },
    {
      "constant": true,
      "inputs": [],
      "name": "getClaimsCountByMemberId",
      "outputs": [
        {
          "name": "",
          "type": "uint256"
        }
      ],
      "payable": false,
      "stateMutability": "view",
      "type": "function"
    },
    {
      "constant": false,
      "inputs": [
        {
          "name": "_userToReject",
          "type": "address"
        }
      ],
      "name": "rejectUser",
      "outputs": [],
      "payable": false,
      "stateMutability": "nonpayable",
      "type": "function"
    },
    {
      "constant": true,
      "inputs": [
        {
          "name": "_claimId",
          "type": "uint256"
        }
      ],
      "name": "getClaim",
      "outputs": [
        {
          "components": [
            {
              "name": "creationDate",
              "type": "uint256"
            },
            {
              "name": "claimId",
              "type": "uint256"
            },
            {
              "components": [
                {
                  "name": "name",
                  "type": "string"
                },
                {
                  "name": "value",
                  "type": "string"
                }
              ],
              "name": "claimData",
              "type": "tuple[]"
            },
            {
              "name": "claimType",
              "type": "bool"
            },
            {
              "name": "memberOwner",
              "type": "uint256"
            },
            {
              "name": "status",
              "type": "bool"
            },
            {
              "name": "lastChange",
              "type": "uint256"
            }
          ],
          "name": "",
          "type": "tuple"
        }
      ],
      "payable": false,
      "stateMutability": "view",
      "type": "function"
    },
    {
      "constant": true,
      "inputs": [
        {
          "name": "_page",
          "type": "uint256"
        }
      ],
      "name": "getUsers",
      "outputs": [
        {
          "components": [
            {
              "name": "creationDate",
              "type": "uint256"
            },
            {
              "name": "firstName",
              "type": "string"
            },
            {
              "name": "lastName",
              "type": "string"
            },
            {
              "name": "memberId",
              "type": "uint256"
            },
            {
              "name": "requestId",
              "type": "uint256"
            },
            {
              "name": "role",
              "type": "string"
            },
            {
              "name": "status",
              "type": "uint8"
            },
            {
              "name": "owner",
              "type": "address"
            }
          ],
          "name": "",
          "type": "tuple[]"
        }
      ],
      "payable": false,
      "stateMutability": "view",
      "type": "function"
    },
    {
      "constant": false,
      "inputs": [
        {
          "name": "_memberId",
          "type": "uint256"
        },
        {
          "name": "_creationDate",
          "type": "uint256"
        },
        {
          "name": "_name",
          "type": "string"
        },
        {
          "name": "_logo",
          "type": "string"
        },
        {
          "name": "_country",
          "type": "string"
        },
        {
          "name": "_cmo",
          "type": "string"
        },
        {
          "name": "_theme",
          "type": "string"
        }
      ],
      "name": "updateMember",
      "outputs": [],
      "payable": false,
      "stateMutability": "nonpayable",
      "type": "function"
    },
    {
      "constant": true,
      "inputs": [
        {
          "name": "userAddress",
          "type": "address"
        }
      ],
      "name": "getUserByAddress",
      "outputs": [
        {
          "components": [
            {
              "name": "creationDate",
              "type": "uint256"
            },
            {
              "name": "firstName",
              "type": "string"
            },
            {
              "name": "lastName",
              "type": "string"
            },
            {
              "name": "memberId",
              "type": "uint256"
            },
            {
              "name": "requestId",
              "type": "uint256"
            },
            {
              "name": "role",
              "type": "string"
            },
            {
              "name": "status",
              "type": "uint8"
            },
            {
              "name": "owner",
              "type": "address"
            }
          ],
          "name": "",
          "type": "tuple"
        }
      ],
      "payable": false,
      "stateMutability": "view",
      "type": "function"
    },
    {
      "constant": true,
      "inputs": [
        {
          "name": "account",
          "type": "address"
        }
      ],
      "name": "isSigner",
      "outputs": [
        {
          "name": "",
          "type": "bool"
        }
      ],
      "payable": false,
      "stateMutability": "view",
      "type": "function"
    },
    {
      "constant": true,
      "inputs": [],
      "name": "getUsersOwner",
      "outputs": [
        {
          "components": [
            {
              "name": "creationDate",
              "type": "uint256"
            },
            {
              "name": "firstName",
              "type": "string"
            },
            {
              "name": "lastName",
              "type": "string"
            },
            {
              "name": "memberId",
              "type": "uint256"
            },
            {
              "name": "requestId",
              "type": "uint256"
            },
            {
              "name": "role",
              "type": "string"
            },
            {
              "name": "status",
              "type": "uint8"
            },
            {
              "name": "owner",
              "type": "address"
            }
          ],
          "name": "",
          "type": "tuple[]"
        }
      ],
      "payable": false,
      "stateMutability": "view",
      "type": "function"
    },
    {
      "constant": true,
      "inputs": [],
      "name": "getMembers",
      "outputs": [
        {
          "components": [
            {
              "name": "memberId",
              "type": "uint256"
            },
            {
              "name": "creationDate",
              "type": "uint256"
            },
            {
              "name": "name",
              "type": "string"
            },
            {
              "name": "logo",
              "type": "string"
            },
            {
              "name": "country",
              "type": "string"
            },
            {
              "name": "cmo",
              "type": "string"
            },
            {
              "name": "theme",
              "type": "string"
            },
            {
              "name": "claimInbox",
              "type": "uint256[]"
            },
            {
              "name": "claims",
              "type": "uint256[]"
            },
            {
              "name": "userRequests",
              "type": "address[]"
            }
          ],
          "name": "",
          "type": "tuple[]"
        }
      ],
      "payable": false,
      "stateMutability": "view",
      "type": "function"
    },
    {
      "constant": true,
      "inputs": [],
      "name": "getcountUsers",
      "outputs": [
        {
          "name": "",
          "type": "uint256"
        }
      ],
      "payable": false,
      "stateMutability": "view",
      "type": "function"
    },
    {
      "constant": false,
      "inputs": [
        {
          "name": "_creationDate",
          "type": "uint256"
        },
        {
          "name": "_firstName",
          "type": "string"
        },
        {
          "name": "_lastName",
          "type": "string"
        },
        {
          "name": "_role",
          "type": "string"
        },
        {
          "name": "_memberId",
          "type": "uint256"
        }
      ],
      "name": "registerUserRequest",
      "outputs": [],
      "payable": false,
      "stateMutability": "nonpayable",
      "type": "function"
    },
    {
      "constant": true,
      "inputs": [],
      "name": "getCount",
      "outputs": [
        {
          "name": "",
          "type": "uint256"
        }
      ],
      "payable": false,
      "stateMutability": "view",
      "type": "function"
    },
    {
      "constant": false,
      "inputs": [
        {
          "name": "_creationDate",
          "type": "uint256"
        },
        {
          "name": "_claimData",
          "type": "bytes"
        },
        {
          "name": "_claimType",
          "type": "bool"
        },
        {
          "name": "_memberOwner",
          "type": "uint256"
        },
        {
          "name": "reg_update",
          "type": "bool"
        },
        {
          "name": "_claimId",
          "type": "uint256"
        },
        {
          "name": "_oldClaimData",
          "type": "bytes"
        },
        {
          "name": "_lastChange",
          "type": "uint256"
        }
      ],
      "name": "computeClaim",
      "outputs": [],
      "payable": false,
      "stateMutability": "nonpayable",
      "type": "function"
    },
    {
      "constant": true,
      "inputs": [
        {
          "name": "_page",
          "type": "uint256"
        }
      ],
      "name": "getClaimsByMemberId",
      "outputs": [
        {
          "components": [
            {
              "name": "creationDate",
              "type": "uint256"
            },
            {
              "name": "claimId",
              "type": "uint256"
            },
            {
              "components": [
                {
                  "name": "name",
                  "type": "string"
                },
                {
                  "name": "value",
                  "type": "string"
                }
              ],
              "name": "claimData",
              "type": "tuple[]"
            },
            {
              "name": "claimType",
              "type": "bool"
            },
            {
              "name": "memberOwner",
              "type": "uint256"
            },
            {
              "name": "status",
              "type": "bool"
            },
            {
              "name": "lastChange",
              "type": "uint256"
            }
          ],
          "name": "",
          "type": "tuple[]"
        }
      ],
      "payable": false,
      "stateMutability": "view",
      "type": "function"
    },
    {
      "constant": true,
      "inputs": [],
      "name": "getMe",
      "outputs": [
        {
          "components": [
            {
              "name": "creationDate",
              "type": "uint256"
            },
            {
              "name": "firstName",
              "type": "string"
            },
            {
              "name": "lastName",
              "type": "string"
            },
            {
              "name": "memberId",
              "type": "uint256"
            },
            {
              "name": "requestId",
              "type": "uint256"
            },
            {
              "name": "role",
              "type": "string"
            },
            {
              "name": "status",
              "type": "uint8"
            },
            {
              "name": "owner",
              "type": "address"
            }
          ],
          "name": "",
          "type": "tuple"
        }
      ],
      "payable": false,
      "stateMutability": "view",
      "type": "function"
    },
    {
      "constant": true,
      "inputs": [
        {
          "name": "_page",
          "type": "uint256"
        }
      ],
      "name": "getMembers",
      "outputs": [
        {
          "components": [
            {
              "name": "memberId",
              "type": "uint256"
            },
            {
              "name": "creationDate",
              "type": "uint256"
            },
            {
              "name": "name",
              "type": "string"
            },
            {
              "name": "logo",
              "type": "string"
            },
            {
              "name": "country",
              "type": "string"
            },
            {
              "name": "cmo",
              "type": "string"
            },
            {
              "name": "theme",
              "type": "string"
            },
            {
              "name": "claimInbox",
              "type": "uint256[]"
            },
            {
              "name": "claims",
              "type": "uint256[]"
            },
            {
              "name": "userRequests",
              "type": "address[]"
            }
          ],
          "name": "",
          "type": "tuple[]"
        }
      ],
      "payable": false,
      "stateMutability": "view",
      "type": "function"
    },
    {
      "constant": false,
      "inputs": [],
      "name": "renounceSigner",
      "outputs": [],
      "payable": false,
      "stateMutability": "nonpayable",
      "type": "function"
    },
    {
      "constant": false,
      "inputs": [
        {
          "name": "account",
          "type": "address"
        }
      ],
      "name": "addSigner",
      "outputs": [],
      "payable": false,
      "stateMutability": "nonpayable",
      "type": "function"
    },
    {
      "constant": false,
      "inputs": [
        {
          "name": "_creationDate",
          "type": "uint256"
        },
        {
          "name": "_name",
          "type": "string"
        },
        {
          "name": "_logo",
          "type": "string"
        },
        {
          "name": "_country",
          "type": "string"
        },
        {
          "name": "_cmo",
          "type": "string"
        },
        {
          "name": "_theme",
          "type": "string"
        }
      ],
      "name": "addMember",
      "outputs": [
        {
          "name": "",
          "type": "uint256"
        }
      ],
      "payable": false,
      "stateMutability": "nonpayable",
      "type": "function"
    },
    {
      "constant": false,
      "inputs": [
        {
          "name": "_firstName",
          "type": "string"
        },
        {
          "name": "_lastName",
          "type": "string"
        },
        {
          "name": "_memberId",
          "type": "uint256"
        },
        {
          "name": "_role",
          "type": "string"
        },
        {
          "name": "owner",
          "type": "address"
        }
      ],
      "name": "updateUser",
      "outputs": [],
      "payable": false,
      "stateMutability": "nonpayable",
      "type": "function"
    },
    {
      "constant": false,
      "inputs": [
        {
          "name": "account",
          "type": "address"
        }
      ],
      "name": "whitelistAdmin",
      "outputs": [],
      "payable": false,
      "stateMutability": "nonpayable",
      "type": "function"
    },
    {
      "anonymous": false,
      "inputs": [
        {
          "indexed": true,
          "name": "account",
          "type": "address"
        }
      ],
      "name": "SignerAdded",
      "type": "event"
    },
    {
      "anonymous": false,
      "inputs": [
        {
          "indexed": true,
          "name": "account",
          "type": "address"
        }
      ],
      "name": "SignerRemoved",
      "type": "event"
    }
  ],
  "bytecode": "0x608060405260006008556200001d3364010000000062000023810204565b62000108565b6200003e600082640100000000620043726200007582021704565b604051600160a060020a038216907f47d1c22a25bb3a5d4e481b9b1e6944c2eade3181a0a20b495ed61d35b5323f2490600090a250565b600160a060020a03811615156200008b57600080fd5b620000a08282640100000000620000d0810204565b15620000ab57600080fd5b600160a060020a0316600090815260209190915260409020805460ff19166001179055565b6000600160a060020a0382161515620000e857600080fd5b50600160a060020a03166000908152602091909152604090205460ff1690565b615c3080620001186000396000f3006080604052600436106101275763ffffffff7c010000000000000000000000000000000000000000000000000000000060003504166308bdc24d811461012c5780631be8850b1461014e5780634dc92885146101795780635aef2447146101995780635d73ab9a146101c657806365ff0c48146101f357806369c212f6146102135780637df73e2714610240578063932191be1461026d5780639eab525314610282578063a4fdc594146102a4578063a7ed1fe4146102b9578063a87d942c146102d9578063aa5b3a06146102ee578063b6bc38121461030e578063c11e1ff31461033b578063c477ecab14610350578063e5c8b03d14610370578063eb12d61e14610385578063fa1188c6146103a5578063fcfbde5b146103c5578063ff240fce146103e5575b600080fd5b34801561013857600080fd5b5061014c610147366004614c5b565b610405565b005b34801561015a57600080fd5b506101636105a1565b6040516101709190615b21565b60405180910390f35b34801561018557600080fd5b5061014c610194366004614c5b565b6105be565b3480156101a557600080fd5b506101b96101b4366004614d3d565b610722565b6040516101709190615aff565b3480156101d257600080fd5b506101e66101e1366004614d3d565b610921565b60405161017091906159c0565b3480156101ff57600080fd5b5061014c61020e366004614fea565b610cfc565b34801561021f57600080fd5b5061023361022e366004614c5b565b610d8b565b6040516101709190615b10565b34801561024c57600080fd5b5061026061025b366004614c5b565b610fdf565b60405161017091906159d1565b34801561027957600080fd5b506101e6610ff7565b34801561028e57600080fd5b506102976112e8565b60405161017091906159af565b3480156102b057600080fd5b506101636117af565b3480156102c557600080fd5b5061014c6102d4366004614f3a565b611874565b3480156102e557600080fd5b5061016361193b565b3480156102fa57600080fd5b5061014c610309366004614d5b565b611959565b34801561031a57600080fd5b5061032e610329366004614d3d565b611a64565b604051610170919061599e565b34801561034757600080fd5b50610233611d66565b34801561035c57600080fd5b5061029761036b366004614d3d565b611df7565b34801561037c57600080fd5b5061014c612312565b34801561039157600080fd5b5061014c6103a0366004614c5b565b61231d565b3480156103b157600080fd5b506101636103c0366004614e3b565b61233a565b3480156103d157600080fd5b5061014c6103e0366004614c81565b6123c9565b3480156103f157600080fd5b5061014c610400366004614c5b565b6124ad565b600160a060020a038181166000908152600360205260408120600601546101009004909116116104535760405160e560020a62461bcd02815260040161044a90615a1f565b60405180910390fd5b600160a060020a0381166000908152600360208190526040808320820154338452922001541480610488575061048833610fdf565b15156104a95760405160e560020a62461bcd02815260040161044a90615a2f565b60023360009081526003602052604090206006015460ff1660028111156104cc57fe5b14806104dc57506104dc33610fdf565b15156104fd5760405160e560020a62461bcd02815260040161044a90615abf565b6001600160a060020a03821660009081526003602052604090206006015460ff16600281111561052957fe5b146105495760405160e560020a62461bcd02815260040161044a906159ff565b600160a060020a038116600090815260036020526040902060060180546002919060ff19166001835b0217905550600160a060020a0381166000908152600360208190526040909120015461059e9082612581565b50565b6000806105ac6126f0565b90506105b781612707565b91505b5090565b600160a060020a038181166000908152600360205260408120600601546101009004909116116106035760405160e560020a62461bcd02815260040161044a90615a1f565b600160a060020a0381166000908152600360208190526040808320820154338452922001541480610638575061063833610fdf565b15156106595760405160e560020a62461bcd02815260040161044a90615a2f565b60023360009081526003602052604090206006015460ff16600281111561067c57fe5b148061068c575061068c33610fdf565b15156106ad5760405160e560020a62461bcd02815260040161044a90615abf565b6001600160a060020a03821660009081526003602052604090206006015460ff1660028111156106d957fe5b146106f95760405160e560020a62461bcd02815260040161044a90615a3f565b600160a060020a0381166000908152600360205260408120600601805460ff1916600183610572565b61072a6148b2565b6006600083815260200190815260200160002060e06040519081016040529081600082015481526020016001820154815260200160028201805480602002602001604051908101604052809291908181526020016000905b828210156108e05760008481526020908190206040805160028681029093018054600181161561010002600019011693909304601f8101859004909402810160609081018352918101848152909384928491908401828280156108265780601f106107fb57610100808354040283529160200191610826565b820191906000526020600020905b81548152906001019060200180831161080957829003601f168201915b50505050508152602001600182018054600181600116156101000203166002900480601f0160208091040260200160405190810160405280929190818152602001828054600181600116156101000203166002900480156108c85780601f1061089d576101008083540402835291602001916108c8565b820191906000526020600020905b8154815290600101906020018083116108ab57829003601f168201915b50505050508152505081526020019060010190610782565b50505090825250600382015460ff90811615156020830152600483015460408301526005830154161515606082015260069091015460809091015292915050565b6060600080600060606000806109356117af565b9550610942600a8961271c565b60045490955061095390600a612755565b935085158061096157508585115b8061096b57508388115b1561097557610cf1565b60408051600a808252610160820190925290816020015b6109946148f4565b81526020019060019003908161098c579050509250600091508490505b600454811015610ced57336000908152600360208190526040822081015460048054919391859081106109e057fe5b6000918252602080832090910154600160a060020a03168352820192909252604001902060030154148015610a5d5750600260036000600484815481101515610a2557fe5b6000918252602080832090910154600160a060020a0316835282019290925260400190206006015460ff166002811115610a5b57fe5b145b15610ce55760036000600483815481101515610a7557fe5b600091825260208083209190910154600160a060020a0316835282810193909352604091820190208151610100808201845282548252600180840180548651600293821615909402600019011691909104601f81018790048702830187019095528482529194929385840193919291830182828015610b355780601f10610b0a57610100808354040283529160200191610b35565b820191906000526020600020905b815481529060010190602001808311610b1857829003601f168201915b5050509183525050600282810180546040805160206001841615610100026000190190931694909404601f81018390048302850183019091528084529381019390830182828015610bc75780601f10610b9c57610100808354040283529160200191610bc7565b820191906000526020600020905b815481529060010190602001808311610baa57829003601f168201915b505050505081526020016003820154815260200160048201548152602001600582018054600181600116156101000203166002900480601f016020809104026020016040519081016040528092919081815260200182805460018160011615610100020316600290048015610c7d5780601f10610c5257610100808354040283529160200191610c7d565b820191906000526020600020905b815481529060010190602001808311610c6057829003601f168201915b5050509183525050600682015460209091019060ff166002811115610c9e57fe5b6002811115610ca957fe5b8152600691909101546101009004600160a060020a03166020909101528351849084908110610cd457fe5b602090810290910101526001909101905b6001016109b1565b8296505b505050505050919050565b610d0533610fdf565b1515610d1057600080fd5b60008781526001602052604081205411610d3f5760405160e560020a62461bcd02815260040161044a90615a8f565b600087815260016020819052604090912001548614610d735760405160e560020a62461bcd02815260040161044a906159df565b610d8287878787878787612778565b50505050505050565b610d936148f4565b600160a060020a0382166000908152600360209081526040918290208251610100808201855282548252600180840180548751600293821615909402600019011691909104601f8101869004860283018601909652858252919492938581019391929190830182828015610e485780601f10610e1d57610100808354040283529160200191610e48565b820191906000526020600020905b815481529060010190602001808311610e2b57829003601f168201915b5050509183525050600282810180546040805160206001841615610100026000190190931694909404601f81018390048302850183019091528084529381019390830182828015610eda5780601f10610eaf57610100808354040283529160200191610eda565b820191906000526020600020905b815481529060010190602001808311610ebd57829003601f168201915b505050505081526020016003820154815260200160048201548152602001600582018054600181600116156101000203166002900480601f016020809104026020016040519081016040528092919081815260200182805460018160011615610100020316600290048015610f905780601f10610f6557610100808354040283529160200191610f90565b820191906000526020600020905b815481529060010190602001808311610f7357829003601f168201915b5050509183525050600682015460209091019060ff166002811115610fb157fe5b6002811115610fbc57fe5b8152600691909101546101009004600160a060020a031660209091015292915050565b6000610ff1818363ffffffff612d7116565b92915050565b606080600061100533610fdf565b151561101057600080fd5b60045460408051828152602080840282010190915290801561104c57816020015b6110396148f4565b8152602001906001900390816110315790505b509150600090505b6004548110156112e2576003600060048381548110151561107157fe5b600091825260208083209190910154600160a060020a0316835282810193909352604091820190208151610100808201845282548252600180840180548651600293821615909402600019011691909104601f810187900487028301870190955284825291949293858401939192918301828280156111315780601f1061110657610100808354040283529160200191611131565b820191906000526020600020905b81548152906001019060200180831161111457829003601f168201915b5050509183525050600282810180546040805160206001841615610100026000190190931694909404601f810183900483028501830190915280845293810193908301828280156111c35780601f10611198576101008083540402835291602001916111c3565b820191906000526020600020905b8154815290600101906020018083116111a657829003601f168201915b505050505081526020016003820154815260200160048201548152602001600582018054600181600116156101000203166002900480601f0160208091040260200160405190810160405280929190818152602001828054600181600116156101000203166002900480156112795780601f1061124e57610100808354040283529160200191611279565b820191906000526020600020905b81548152906001019060200180831161125c57829003601f168201915b5050509183525050600682015460209091019060ff16600281111561129a57fe5b60028111156112a557fe5b8152600691909101546101009004600160a060020a031660209091015282518390839081106112d057fe5b60209081029091010152600101611054565b50919050565b606080600060028054905060405190808252806020026020018201604052801561132c57816020015b611319614945565b8152602001906001900390816113115790505b509150600090505b6002548110156112e2576001600060028381548110151561135157fe5b9060005260206000200154815260200190815260200160002061014060405190810160405290816000820154815260200160018201548152602001600282018054600181600116156101000203166002900480601f0160208091040260200160405190810160405280929190818152602001828054600181600116156101000203166002900480156114245780601f106113f957610100808354040283529160200191611424565b820191906000526020600020905b81548152906001019060200180831161140757829003601f168201915b505050918352505060038201805460408051602060026001851615610100026000190190941693909304601f81018490048402820184019092528181529382019392918301828280156114b85780601f1061148d576101008083540402835291602001916114b8565b820191906000526020600020905b81548152906001019060200180831161149b57829003601f168201915b505050918352505060048201805460408051602060026001851615610100026000190190941693909304601f810184900484028201840190925281815293820193929183018282801561154c5780601f106115215761010080835404028352916020019161154c565b820191906000526020600020905b81548152906001019060200180831161152f57829003601f168201915b505050918352505060058201805460408051602060026001851615610100026000190190941693909304601f81018490048402820184019092528181529382019392918301828280156115e05780601f106115b5576101008083540402835291602001916115e0565b820191906000526020600020905b8154815290600101906020018083116115c357829003601f168201915b505050918352505060068201805460408051602060026001851615610100026000190190941693909304601f81018490048402820184019092528181529382019392918301828280156116745780601f1061164957610100808354040283529160200191611674565b820191906000526020600020905b81548152906001019060200180831161165757829003601f168201915b50505050508152602001600782018054806020026020016040519081016040528092919081815260200182805480156116cc57602002820191906000526020600020905b8154815260200190600101908083116116b8575b505050505081526020016008820180548060200260200160405190810160405280929190818152602001828054801561172457602002820191906000526020600020905b815481526020019060010190808311611710575b505050505081526020016009820180548060200260200160405190810160405280929190818152602001828054801561178657602002820191906000526020600020905b8154600160a060020a03168152600190910190602001808311611768575b505050505081525050828281518110151561179d57fe5b60209081029091010152600101611334565b600080805b6004548110156112e257336000908152600360208190526040822081015460048054919391859081106117e357fe5b6000918252602080832090910154600160a060020a03168352820192909252604001902060030154148015611860575060026003600060048481548110151561182857fe5b6000918252602080832090910154600160a060020a0316835282019290925260400190206006015460ff16600281111561185e57fe5b145b1561186c576001909101905b6001016117b4565b60008115156118985760405160e560020a62461bcd02815260040161044a90615adf565b600086116118bb5760405160e560020a62461bcd02815260040161044a90615aef565b33600090815260036020526040902054156118eb5760405160e560020a62461bcd02815260040161044a90615a0f565b6118f482612da8565b15156119155760405160e560020a62461bcd02815260040161044a90615a8f565b61191e86612dbb565b90506119338686868585886001336000612fab565b505050505050565b600061194633610fdf565b151561195157600080fd5b506002545b90565b83156119cc576008805460010190819055925061197585612da8565b15156119965760405160e560020a62461bcd02815260040161044a90615a6f565b61199e6126f0565b94506119b0838989898960008e6133ff565b6119ba858461357a565b6119c7838789600161359f565b611a5a565b6000838152600660205260408120600301546119ef91859160ff1690859061359f565b600083815260066020526040902060030154611a1290849060ff1689600161359f565b600083815260066020526040902060038101546004820154600590920154611a499286928c928c9260ff92831692909116876133ff565b871515611a5a57611a5a8584613bde565b5050505050505050565b6060600080600080606080600080611a7d600a8b61271c565b9750611a876126f0565b9650611a9287612707565b9550611a9f86600a612755565b9450851580611ab057506001860388115b80611aba5750848a115b15611ac457611d59565b611acd87613be9565b60408051600a8082526101608201909252919550816020015b611aee6148b2565b815260200190600190039081611ae6579050509250600091508790505b8351811015611d5557600a821015611d4857600660008583815181101515611b2f57fe5b90602001906020020151815260200190815260200160002060e06040519081016040529081600082015481526020016001820154815260200160028201805480602002602001604051908101604052809291908181526020016000905b82821015611cea5760008481526020908190206040805160028681029093018054600181161561010002600019011693909304601f810185900490940281016060908101835291810184815290938492849190840182828015611c305780601f10611c0557610100808354040283529160200191611c30565b820191906000526020600020905b815481529060010190602001808311611c1357829003601f168201915b50505050508152602001600182018054600181600116156101000203166002900480601f016020809104026020016040519081016040528092919081815260200182805460018160011615610100020316600290048015611cd25780601f10611ca757610100808354040283529160200191611cd2565b820191906000526020600020905b815481529060010190602001808311611cb557829003601f168201915b50505050508152505081526020019060010190611b8c565b50505090825250600382015460ff9081161515602083015260048301546040830152600583015416151560608201526006909101546080909101528351849084908110611d3357fe5b60209081029091010152600190910190611d4d565b611d55565b600101611b0b565b8298505b5050505050505050919050565b611d6e6148f4565b611d766148f4565b336000908152600360209081526040918290208251610100808201855282548252600180840180548751600293821615909402600019011691909104601f8101869004860283018601909652858252919492938581019391929190830182828015610e485780601f10610e1d57610100808354040283529160200191610e48565b6060600080600060606000611e0d600a8861271c565b600254909550611e1e90600a612755565b6002549094501580611e3557506002546000190185115b80611e3f57508387115b15611e4957612308565b60408051600a80825261016082019092526000945090816020015b611e6c614945565b815260200190600190039081611e645790505091508490505b6002548110156123045760016000600283815481101515611ea257fe5b9060005260206000200154815260200190815260200160002061014060405190810160405290816000820154815260200160018201548152602001600282018054600181600116156101000203166002900480601f016020809104026020016040519081016040528092919081815260200182805460018160011615610100020316600290048015611f755780601f10611f4a57610100808354040283529160200191611f75565b820191906000526020600020905b815481529060010190602001808311611f5857829003601f168201915b505050918352505060038201805460408051602060026001851615610100026000190190941693909304601f81018490048402820184019092528181529382019392918301828280156120095780601f10611fde57610100808354040283529160200191612009565b820191906000526020600020905b815481529060010190602001808311611fec57829003601f168201915b505050918352505060048201805460408051602060026001851615610100026000190190941693909304601f810184900484028201840190925281815293820193929183018282801561209d5780601f106120725761010080835404028352916020019161209d565b820191906000526020600020905b81548152906001019060200180831161208057829003601f168201915b505050918352505060058201805460408051602060026001851615610100026000190190941693909304601f81018490048402820184019092528181529382019392918301828280156121315780601f1061210657610100808354040283529160200191612131565b820191906000526020600020905b81548152906001019060200180831161211457829003601f168201915b505050918352505060068201805460408051602060026001851615610100026000190190941693909304601f81018490048402820184019092528181529382019392918301828280156121c55780601f1061219a576101008083540402835291602001916121c5565b820191906000526020600020905b8154815290600101906020018083116121a857829003601f168201915b505050505081526020016007820180548060200260200160405190810160405280929190818152602001828054801561221d57602002820191906000526020600020905b815481526020019060010190808311612209575b505050505081526020016008820180548060200260200160405190810160405280929190818152602001828054801561227557602002820191906000526020600020905b815481526020019060010190808311612261575b50505050508152602001600982018054806020026020016040519081016040528092919081815260200182805480156122d757602002820191906000526020600020905b8154600160a060020a031681526001909101906020018083116122b9575b50505050508152505082848151811015156122ee57fe5b6020908102909101015260019283019201611e85565b8195505b5050505050919050565b61231b33613c7e565b565b61232633610fdf565b151561233157600080fd5b61059e81613cc6565b60008061234633610fdf565b151561235157600080fd5b600088116123745760405160e560020a62461bcd02815260040161044a90615aef565b61237d88612dbb565b600081815260016020526040902054909150156123af5760405160e560020a62461bcd02815260040161044a90615a7f565b6123be81898989898989612778565b979650505050505050565b600160a060020a038181166000908152600360205260408120600601549091829182916101009091041681106124145760405160e560020a62461bcd02815260040161044a90615a1f565b6002600160a060020a03851660009081526003602052604090206006015460ff16600281111561244057fe5b146124605760405160e560020a62461bcd02815260040161044a90615abf565b600160a060020a03841660009081526003602052604090206004810154815460069092015490945090925060ff16600281111561249957fe5b9050611a5a82898989878a878b6001612fab565b6124b633610fdf565b15156124c157600080fd5b600160a060020a038116600090815260036020819052604090912001546124e89082612581565b604080518082018252600b81527f53757065722061646d696e0000000000000000000000000000000000000000006020808301918252600160a060020a038516600090815260039091529290922090516125489260059092019190614999565b50600160a060020a0381166000908152600360208190526040822090810191909155600601805460ff1916600217905561059e8161231d565b6000805b600084815260016020526040902060090154600019018110156126815760008481526001602052604090206009018054600160a060020a0385169190839081106125cb57fe5b600091825260209091200154600160a060020a031614156125eb57600191505b811561267957600084815260016020819052604090912060090180549091830190811061261457fe5b6000918252602080832090910154868352600190915260409091206009018054600160a060020a03909216918390811061264a57fe5b9060005260206000200160006101000a815481600160a060020a030219169083600160a060020a031602179055505b600101612585565b6000848152600160205260409020600901805460001981019081106126a257fe5b60009182526020808320909101805473ffffffffffffffffffffffffffffffffffffffff1916905585825260019052604090206009018054906126e9906000198301614a13565b5050505050565b336000908152600360208190526040909120015490565b60009081526001602052604090206008015490565b60008083151561272f576000915061274e565b5082820282848281151561273f57fe5b041461274a57600080fd5b8091505b5092915050565b60008080831161276457600080fd5b828481151561276f57fe5b04949350505050565b612780614945565b855115156127a35760405160e560020a62461bcd02815260040161044a90615acf565b825115156127c65760405160e560020a62461bcd02815260040161044a90615aaf565b815115156127e95760405160e560020a62461bcd02815260040161044a90615a9f565b6000888152600160208181526040928390208351610140810185528154815281840154818401526002808301805487519681161561010002600019011691909104601f8101859004850286018501875280865291959294928601939091908301828280156128985780601f1061286d57610100808354040283529160200191612898565b820191906000526020600020905b81548152906001019060200180831161287b57829003601f168201915b505050918352505060038201805460408051602060026001851615610100026000190190941693909304601f810184900484028201840190925281815293820193929183018282801561292c5780601f106129015761010080835404028352916020019161292c565b820191906000526020600020905b81548152906001019060200180831161290f57829003601f168201915b505050918352505060048201805460408051602060026001851615610100026000190190941693909304601f81018490048402820184019092528181529382019392918301828280156129c05780601f10612995576101008083540402835291602001916129c0565b820191906000526020600020905b8154815290600101906020018083116129a357829003601f168201915b505050918352505060058201805460408051602060026001851615610100026000190190941693909304601f8101849004840282018401909252818152938201939291830182828015612a545780601f10612a2957610100808354040283529160200191612a54565b820191906000526020600020905b815481529060010190602001808311612a3757829003601f168201915b505050918352505060068201805460408051602060026001851615610100026000190190941693909304601f8101849004840282018401909252818152938201939291830182828015612ae85780601f10612abd57610100808354040283529160200191612ae8565b820191906000526020600020905b815481529060010190602001808311612acb57829003601f168201915b5050505050815260200160078201805480602002602001604051908101604052809291908181526020018280548015612b4057602002820191906000526020600020905b815481526020019060010190808311612b2c575b5050505050815260200160088201805480602002602001604051908101604052809291908181526020018280548015612b9857602002820191906000526020600020905b815481526020019060010190808311612b84575b5050505050815260200160098201805480602002602001604051908101604052809291908181526020018280548015612bfa57602002820191906000526020600020905b8154600160a060020a03168152600190910190602001808311612bdc575b50505091909252505050888152602080820189815260408084018a8152606085018a90526080850189905260a0850188905260c0850187905260008d815260018086529290208551815592519183019190915551805193945084939192612c6992600285019290910190614999565b5060608201518051612c85916003840191602090910190614999565b5060808201518051612ca1916004840191602090910190614999565b5060a08201518051612cbd916005840191602090910190614999565b5060c08201518051612cd9916006840191602090910190614999565b5060e08201518051612cf5916007840191602090910190614a3c565b506101008201518051612d12916008840191602090910190614a3c565b506101208201518051612d2f916009840191602090910190614a76565b5050600280546001810182556000919091527f405787fa12a823e0f2b7631cc41b3ba8828b3321ca811111fa75cd3aa3bb5ace01989098555050505050505050565b6000600160a060020a0382161515612d8857600080fd5b50600160a060020a03166000908152602091909152604090205460ff1690565b6000908152600160205260408120541190565b6000808080600285061515612e4d5784604051602001808281526020019150506040516020818303038152906040526040518082805190602001908083835b60208310612e195780518252601f199092019160209182019101612dfa565b6001836020036101000a03801982511681845116808217855250505050505090500191505060405180910390209250612f38565b84604051602001808281526020019150506040516020818303038152906040526040518082805190602001908083835b60208310612e9c5780518252601f199092019160209182019101612e7d565b51815160209384036101000a600019018019909216911617905260408051929094018290038220828201528351808303820181529184019384905281519195509293508392850191508083835b60208310612f085780518252601f199092019160209182019101612ee9565b6001836020036101000a038019825116818451168082178552505050505050905001915050604051809103902092505b6020811015612f6557828160208110612f4d57fe5b60f860020a91901a8102049190910190600101612f38565b826020600284010660208110612f7757fe5b60f860020a91901a810204836020840660208110612f9157fe5b1a60f860020a0260f860020a90040293505b505050919050565b612fb36148f4565b600084101580612fc4575060028411155b1515612fe55760405160e560020a62461bcd02815260040161044a90615a4f565b845115156130085760405160e560020a62461bcd02815260040161044a906159ef565b600160a060020a0383166000908152600360209081526040918290208251610100808201855282548252600180840180548751600293821615909402600019011691909104601f81018690048602830186019096528582529194929385810193919291908301828280156130bd5780601f10613092576101008083540402835291602001916130bd565b820191906000526020600020905b8154815290600101906020018083116130a057829003601f168201915b5050509183525050600282810180546040805160206001841615610100026000190190931694909404601f8101839004830285018301909152808452938101939083018282801561314f5780601f106131245761010080835404028352916020019161314f565b820191906000526020600020905b81548152906001019060200180831161313257829003601f168201915b505050505081526020016003820154815260200160048201548152602001600582018054600181600116156101000203166002900480601f0160208091040260200160405190810160405280929190818152602001828054600181600116156101000203166002900480156132055780601f106131da57610100808354040283529160200191613205565b820191906000526020600020905b8154815290600101906020018083116131e857829003601f168201915b5050509183525050600682015460209091019060ff16600281111561322657fe5b600281111561323157fe5b8152600691909101546101009004600160a060020a03166020918201528b825281018a905260408101899052606081018890526080810187905260a08101869052905083600281111561328057fe5b8160c00190600281111561329057fe5b9081600281111561329d57fe5b905250600160a060020a03831660e0820181905260009081526003602090815260409091208251815581830151805184936132df926001850192910190614999565b50604082015180516132fb916002840191602090910190614999565b50606082015160038201556080820151600482015560a0820151805161332b916005840191602090910190614999565b5060c082015160068201805460ff1916600183600281111561334957fe5b021790555060e0919091015160069091018054600160a060020a039092166101000274ffffffffffffffffffffffffffffffffffffffff00199092169190911790558115156133f357600480546001810182556000919091527f8a35acfbc15ff81a39ae7d344fd709f28e8600b4aa8c65c6b64bfe7fe36bd19b01805473ffffffffffffffffffffffffffffffffffffffff1916600160a060020a0385161790556133f387613d0e565b50505050505050505050565b613407614ae4565b60606000606061341689613d4d565b935061342184613d9b565b60008c8152600660205260408120600181018e90558c815560038101805460ff19168c15151790559194506134599160020190614afb565b600091505b825182101561353e57613487838381518110151561347857fe5b90602001906020020151613d9b565b9050600660008c815260200190815260200160002060020160408051908101604052806134cb8460008151811015156134bc57fe5b90602001906020020151613e6e565b81526020016134e28460018151811015156134bc57fe5b9052815460018101808455600093845260209384902083518051929560029094029091019261351692849290910190614999565b50602082810151805161352f9260018501920190614999565b5050505081600101915061345e565b505050600097885250600660208190526040909720600481019390935595820195909555600501805460ff191694151594909417909355505050565b6000918252600160208181526040842060080180549283018155845290922090910155565b6135a7614ae4565b60606000806000806000806135bb8a613d4d565b97506135c688613d9b565b96506135f26135ed6135e089600581518110151561347857fe5b805160019081106134bc57fe5b613ee0565b955061360c6135ed6135e089600281518110151561347857fe5b94506136266135ed6135e089600381518110151561347857fe5b60008d8152600760209081526040808320805461ffff191661ffff8c16179055600690915290206005015490945060ff169250600191508190505b6008548111613bd05760008181526006602052604090206003015460ff1615158b15151480156136915750808c14155b15613bc8576005805460ff191690556000818152600660205260408120600201805490919081106136be57fe5b9060005260206000209060020201600101604051808280546001816001161561010002031660029004801561372a5780601f1061370857610100808354040283529182019161372a565b820191906000526020600020905b815481529060010190602001808311613716575b50509150506040518091039020600019166137506135e089600081518110151561347857fe5b6040518082805190602001908083835b6020831061377f5780518252601f199092019160209182019101613760565b6001836020036101000a03801982511681845116808217855250505050505090500191505060405180910390206000191614801561389d5750600081815260066020526040902060029081018054613889929081106137da57fe5b90600052602060002090600202016001018054600181600116156101000203166002900480601f01602080910402602001604051908101604052809291908181526020018280546001816001161561010002031660029004801561387f5780601f106138545761010080835404028352916020019161387f565b820191906000526020600020905b81548152906001019060200180831161386257829003601f168201915b5050505050613ee0565b65ffffffffffff168465ffffffffffff1610155b80156138db5750600081815260066020526040902060020180546138c7919060039081106137da57fe5b65ffffffffffff168565ffffffffffff1611155b15613bc8576139c56138f86135e089600481518110151561347857fe5b60008381526006602052604090206002018054600490811061391657fe5b90600052602060002090600202016001018054600181600116156101000203166002900480601f0160208091040260200160405190810160405280929190818152602001828054600181600116156101000203166002900480156139bb5780601f10613990576101008083540402835291602001916139bb565b820191906000526020600020905b81548152906001019060200180831161399e57829003601f168201915b5050505050613f3e565b60055460ff1615613bc857613a066139e86135e089600181518110151561347857fe5b60008381526006602052604090206002018054600190811061391657fe5b60055460ff1615613bc8578815613add576000818152600760205260409020805461ffff19811661ffff918216890182161791829055606491161115613ad857821515613a7d5760008c815260066020526040902060058101805460ff1916600117905560040154613a78908d6141ee565b600192505b60008181526006602052604090206005015460ff161515613ad85760008181526006602052604090206004810154600190910154613abb91906141ee565b6000818152600660205260409020600501805460ff191660011790555b613b96565b6000818152600760205260409020805461ffff19811661ffff918216899003821617918290556064911611613b96578215613b3f5760008c815260066020526040902060058101805460ff1916905560040154613b3a908d614213565b600092505b60008181526006602052604090206005015460ff1615613b965760008181526006602052604090206004810154600190910154613b7c9190614213565b6000818152600660205260409020600501805460ff191690555b8115613bc857600081815260076020526040808220548e8352908220805461ffff191661ffff90921691909117905591505b600101613661565b505050505050505050505050565b506000526001602052565b60008181526001602052604081205460609110613c1b5760405160e560020a62461bcd02815260040161044a90615a5f565b60008281526001602090815260409182902060080180548351818402810184019094528084529091830182828015613c7257602002820191906000526020600020905b815481526020019060010190808311613c5e575b50505050509050919050565b613c8f60008263ffffffff61432616565b604051600160a060020a038216907f3525e22824a8a7df2c9a6029941c824cf95b6447f1e13d5128fd3826d35afe8b90600090a250565b613cd760008263ffffffff61437216565b604051600160a060020a038216907f47d1c22a25bb3a5d4e481b9b1e6944c2eade3181a0a20b495ed61d35b5323f2490600090a250565b6000908152600160208181526040832060090180549283018155835290912001805473ffffffffffffffffffffffffffffffffffffffff191633179055565b613d55614ae4565b6000825160001415613d7c57604080518082019091526000808252602082015291506112e2565b5050604080518082019091528151815260209182019181019190915290565b6060600080600080613dac866143c0565b1515613db757600080fd5b613dc0866143ef565b935083604051908082528060200260200182016040528015613dfc57816020015b613de9614ae4565b815260200190600190039081613de15790505b509450613e0c866020015161443f565b8660200151019250600090505b83811015613e6557613e2a836144a2565b91506040805190810160405280838152602001848152508582815181101515613e4f57fe5b6020908102909101015291810191600101613e19565b50505050919050565b606060008060606000613e84866020015161443f565b9350838660000151039250826040519080825280601f01601f191660200182016040528015613ebd578160200160208202803883390190505b509150816020019050613ed7848760200151018285614533565b50949350505050565b60008181805b8251821015612fa3578282815181101515613efd57fe5b016020015160f860020a90819004810204905060308110801590613f22575060398111155b15613f33576030810384600a020193505b600190910190613ee6565b613f46614ae4565b613f4e614ae4565b613f56614ae4565b606080600080613f658961457a565b9650613f708861457a565b9550613fb06040805190810160405280600181526020017f2c0000000000000000000000000000000000000000000000000000000000000081525061457a565b9450613fc2878663ffffffff6145a016565b600101604051908082528060200260200182016040528015613ff857816020015b6060815260200190600190039081613fe35790505b50935061400b868663ffffffff6145a016565b60010160405190808252806020026020018201604052801561404157816020015b606081526020019060019003908161402c5790505b5092508251845110156140e15761405e878663ffffffff6145a016565b60010160405190808252806020026020018201604052801561409457816020015b606081526020019060019003908161407f5790505b5092506140a7868663ffffffff6145a016565b6001016040519080825280602002602001820160405280156140dd57816020015b60608152602001906001900390816140c85790505b5093505b600091505b83518210156141e357614107614102888763ffffffff61460616565b614619565b848381518110151561411557fe5b602090810290910101525060005b8181116141c857825182101561419757614146614102878763ffffffff61460616565b838381518110151561415457fe5b6020908102909101015283516141979085908390811061417057fe5b90602001906020020151848481518110151561418857fe5b9060200190602002015161466c565b6141c083828151811015156141a857fe5b90602001906020020151858481518110151561418857fe5b600101614123565b60055460ff16156141d8576141e3565b6001909101906140e6565b505050505050505050565b6000918252600160208181526040842060070180549283018155845290922090910155565b6000805b600084815260016020526040902060070154600019018110156142d657600084815260016020526040902060070180548491908390811061425457fe5b9060005260206000200154141561426a57600191505b81156142ce57600084815260016020819052604090912060070180549091830190811061429357fe5b906000526020600020015460016000868152602001908152602001600020600701828154811015156142c157fe5b6000918252602090912001555b600101614217565b6000848152600160205260409020600701805460001981019081106142f757fe5b6000918252602080832090910182905585825260019052604090206007018054906126e9906000198301614a13565b600160a060020a038116151561433b57600080fd5b6143458282612d71565b151561435057600080fd5b600160a060020a0316600090815260209190915260409020805460ff19169055565b600160a060020a038116151561438757600080fd5b6143918282612d71565b1561439b57600080fd5b600160a060020a0316600090815260209190915260409020805460ff19166001179055565b6020810151805160009190821a9060c060ff831610156143e357600092506143e8565b600192505b5050919050565b60008060008060009250614406856020015161443f565b6020860151865191810193500190505b8082101561443657614427826144a2565b60019093019290910190614416565b50909392505050565b8051600090811a608081101561445857600091506112e2565b60b8811080614473575060c08110801590614473575060f881105b1561448157600191506112e2565b60c08110156144965760b519810191506112e2565b60f519810191506112e2565b8051600090811a60808110156144bb57600191506112e2565b60b88110156144d057607e19810191506112e2565b60c08110156144fd5760b78103600184019350806020036101000a845104600182018101935050506112e2565b60f88110156145125760be19810191506112e2565b60019290920151602083900360f7016101000a900490910160f51901919050565b60005b60208210614558578351835260209384019390920191601f1990910190614536565b50915181516020939093036101000a6000190180199091169216919091179052565b614582614ae4565b50604080518082019091528151815260209182019181019190915290565b60008082600001516145c4856000015186602001518660000151876020015161473e565b0190505b8351602085015101811161274e5782516020808601518651918601516001909501946145fe92918503909103908490849061473e565b0190506145c8565b61460e614ae4565b61274e8383836147fe565b606080600083600001516040519080825280601f01601f191660200182016040528015614650578160200160208202803883390190505b50915060208201905061274e818560200151866000015161486e565b806040518082805190602001908083835b6020831061469c5780518252601f19909201916020918201910161467d565b51815160209384036101000a6000190180199092169116179052604051919093018190038120875190955087945090928392508401908083835b602083106146f55780518252601f1990920191602091820191016146d6565b6001836020036101000a038019825116818451168082178552505050505050905001915050604051809103902060001916141561473a576005805460ff191660011790555b5050565b600083818080808080808c8b116147e85760208b116147b15760018b60200360080260020a03196001029550858a511694508a8d8d010393508588511692505b8285146147a957838810614796578c8c0198506147ee565b878060010198505085885116925061477e565b8798506147ee565b8a8a209150600096505b8a8d0387116147e85750898720818114156147d8578798506147ee565b60019788019796909601956147bb565b8c8c0198505b5050505050505050949350505050565b614806614ae4565b6000614824856000015186602001518660000151876020015161473e565b602080870180519186019190915280518203855286519051919250018114156148505760008552614436565b83518351865191019003855283518101602086015250909392505050565b60005b60208210614893578251845260209384019390920191601f1990910190614871565b50905182516020929092036101000a6000190180199091169116179052565b60e06040519081016040528060008152602001600081526020016060815260200160001515815260200160008152602001600015158152602001600081525090565b610100604051908101604052806000815260200160608152602001606081526020016000815260200160008152602001606081526020016000600281111561493857fe5b8152600060209091015290565b61014060405190810160405280600081526020016000815260200160608152602001606081526020016060815260200160608152602001606081526020016060815260200160608152602001606081525090565b828054600181600116156101000203166002900490600052602060002090601f016020900481019282601f106149da57805160ff1916838001178555614a07565b82800160010185558215614a07579182015b82811115614a075782518255916020019190600101906149ec565b506105ba929150614b1c565b815481835581811115614a3757600083815260209020614a37918101908301614b1c565b505050565b828054828255906000526020600020908101928215614a075791602002820182811115614a075782518255916020019190600101906149ec565b828054828255906000526020600020908101928215614ad8579160200282015b82811115614ad8578251825473ffffffffffffffffffffffffffffffffffffffff1916600160a060020a03909116178255602090920191600190910190614a96565b506105ba929150614b36565b604080518082019091526000808252602082015290565b508054600082556002029060005260206000209081019061059e9190614b67565b61195691905b808211156105ba5760008155600101614b22565b61195691905b808211156105ba57805473ffffffffffffffffffffffffffffffffffffffff19168155600101614b3c565b61195691905b808211156105ba576000614b818282614b98565b614b8f600183016000614b98565b50600201614b6d565b50805460018160011615610100020316600290046000825580601f10614bbe575061059e565b601f01602090049060005260206000209081019061059e9190614b1c565b6000614be88235615b88565b9392505050565b6000614be88235615b94565b6000601f82018313614c0c57600080fd5b8135614c1f614c1a82615b56565b615b2f565b91508082526020830160208301858383011115614c3b57600080fd5b614c46838284615bb0565b50505092915050565b6000614be88235611956565b600060208284031215614c6d57600080fd5b6000614c798484614bdc565b949350505050565b600080600080600060a08688031215614c9957600080fd5b853567ffffffffffffffff811115614cb057600080fd5b614cbc88828901614bfb565b955050602086013567ffffffffffffffff811115614cd957600080fd5b614ce588828901614bfb565b9450506040614cf688828901614c4f565b935050606086013567ffffffffffffffff811115614d1357600080fd5b614d1f88828901614bfb565b9250506080614d3088828901614bdc565b9150509295509295909350565b600060208284031215614d4f57600080fd5b6000614c798484614c4f565b600080600080600080600080610100898b031215614d7857600080fd5b6000614d848b8b614c4f565b985050602089013567ffffffffffffffff811115614da157600080fd5b614dad8b828c01614bfb565b9750506040614dbe8b828c01614bef565b9650506060614dcf8b828c01614c4f565b9550506080614de08b828c01614bef565b94505060a0614df18b828c01614c4f565b93505060c089013567ffffffffffffffff811115614e0e57600080fd5b614e1a8b828c01614bfb565b92505060e0614e2b8b828c01614c4f565b9150509295985092959890939650565b60008060008060008060c08789031215614e5457600080fd5b6000614e608989614c4f565b965050602087013567ffffffffffffffff811115614e7d57600080fd5b614e8989828a01614bfb565b955050604087013567ffffffffffffffff811115614ea657600080fd5b614eb289828a01614bfb565b945050606087013567ffffffffffffffff811115614ecf57600080fd5b614edb89828a01614bfb565b935050608087013567ffffffffffffffff811115614ef857600080fd5b614f0489828a01614bfb565b92505060a087013567ffffffffffffffff811115614f2157600080fd5b614f2d89828a01614bfb565b9150509295509295509295565b600080600080600060a08688031215614f5257600080fd5b6000614f5e8888614c4f565b955050602086013567ffffffffffffffff811115614f7b57600080fd5b614f8788828901614bfb565b945050604086013567ffffffffffffffff811115614fa457600080fd5b614fb088828901614bfb565b935050606086013567ffffffffffffffff811115614fcd57600080fd5b614fd988828901614bfb565b9250506080614d3088828901614c4f565b600080600080600080600060e0888a03121561500557600080fd5b60006150118a8a614c4f565b97505060206150228a828b01614c4f565b965050604088013567ffffffffffffffff81111561503f57600080fd5b61504b8a828b01614bfb565b955050606088013567ffffffffffffffff81111561506857600080fd5b6150748a828b01614bfb565b945050608088013567ffffffffffffffff81111561509157600080fd5b61509d8a828b01614bfb565b93505060a088013567ffffffffffffffff8111156150ba57600080fd5b6150c68a828b01614bfb565b92505060c088013567ffffffffffffffff8111156150e357600080fd5b6150ef8a828b01614bfb565b91505092959891949750929550565b61510781615b88565b82525050565b600061511882615b84565b80845260208401935061512a83615b7e565b60005b8281101561515a576151408683516150fe565b61514982615b7e565b60209690960195915060010161512d565b5093949350505050565b600061516f82615b84565b8084526020840193508360208202850161518885615b7e565b60005b848110156151bf5783830388526151a383835161571c565b92506151ae82615b7e565b60209890980197915060010161518b565b50909695505050505050565b60006151d682615b84565b808452602084019350836020820285016151ef85615b7e565b60005b848110156151bf57838303885261520a8383516157b1565b925061521582615b7e565b6020989098019791506001016151f2565b600061523182615b84565b8084526020840193508360208202850161524a85615b7e565b60005b848110156151bf5783830388526152658383516158b4565b925061527082615b7e565b60209890980197915060010161524d565b600061528c82615b84565b808452602084019350836020820285016152a585615b7e565b60005b848110156151bf5783830388526152c08383516158e6565b92506152cb82615b7e565b6020989098019791506001016152a8565b60006152e782615b84565b8084526020840193506152f983615b7e565b60005b8281101561515a5761530f868351615995565b61531882615b7e565b6020969096019591506001016152fc565b61510781615b94565b61510781615ba5565b600061534682615b84565b80845261535a816020860160208601615bbc565b61536381615bec565b9093016020019392505050565b601a81527f4372656174696f6e204461746520697320696e6d757461626c65000000000000602082015260400190565b601181527f726f6c65206973206d616e6461746f7279000000000000000000000000000000602082015260400190565b602281527f4f6e6c792070656e64696e672075736572732063616e2062652061636365707460208201527f6564000000000000000000000000000000000000000000000000000000000000604082015260600190565b601381527f5573657220616c72656164792065786973747300000000000000000000000000602082015260400190565b601481527f546869732075736572206e6f7420657869737473000000000000000000000000602082015260400190565b601b81527f596f752063616e6e6f7420616363657074207468697320757365720000000000602082015260400190565b602281527f4f6e6c792070656e64696e672075736572732063616e2062652072656a65637460208201527f6564000000000000000000000000000000000000000000000000000000000000604082015260600190565b601381527f737461747573206973206e6f742076616c696400000000000000000000000000602082015260400190565b601181527f6d656d626572206e6f7420657869737473000000000000000000000000000000602082015260400190565b601481527f4d656d62657220646f206e6f7420657869737473000000000000000000000000602082015260400190565b601581527f4d656d62657220616c7265616479206578697374730000000000000000000000602082015260400190565b601181527f4d656d626572206e6f7420657869737473000000000000000000000000000000602082015260400190565b601281527f5468656d65206973206d616e6461746f72790000000000000000000000000000602082015260400190565b601081527f434d4f206973206d616e6461746f727900000000000000000000000000000000602082015260400190565b601481527f596f7520617265206e6f74206163636570746564000000000000000000000000602082015260400190565b601181527f4e616d65206973206d616e6461746f7279000000000000000000000000000000602082015260400190565b601181527f4e6f2076616c6964206d656d6265724964000000000000000000000000000000602082015260400190565b601981527f4372656174696f6e44617465206973206d616e6461746f727900000000000000602082015260400190565b805160009060e08401906157308582615995565b5060208301516157436020860182615995565b506040830151848203604086015261575b8282615226565b91505060608301516157706060860182615329565b5060808301516157836080860182615995565b5060a083015161579660a0860182615329565b5060c08301516157a960c0860182615995565b509392505050565b80516000906101408401906157c68582615995565b5060208301516157d96020860182615995565b50604083015184820360408601526157f1828261533b565b9150506060830151848203606086015261580b828261533b565b91505060808301518482036080860152615825828261533b565b91505060a083015184820360a086015261583f828261533b565b91505060c083015184820360c0860152615859828261533b565b91505060e083015184820360e086015261587382826152dc565b91505061010083015184820361010086015261588f82826152dc565b9150506101208301518482036101208601526158ab828261510d565b95945050505050565b80516040808452600091908401906158cc828261533b565b915050602083015184820360208601526158ab828261533b565b80516000906101008401906158fb8582615995565b5060208301518482036020860152615913828261533b565b9150506040830151848203604086015261592d828261533b565b91505060608301516159426060860182615995565b5060808301516159556080860182615995565b5060a083015184820360a086015261596d828261533b565b91505060c083015161598260c0860182615332565b5060e08301516157a960e08601826150fe565b61510781611956565b60208082528101614be88184615164565b60208082528101614be881846151cb565b60208082528101614be88184615281565b60208101610ff18284615329565b60208082528101610ff181615370565b60208082528101610ff1816153a0565b60208082528101610ff1816153d0565b60208082528101610ff181615426565b60208082528101610ff181615456565b60208082528101610ff181615486565b60208082528101610ff1816154b6565b60208082528101610ff18161550c565b60208082528101610ff18161553c565b60208082528101610ff18161556c565b60208082528101610ff18161559c565b60208082528101610ff1816155cc565b60208082528101610ff1816155fc565b60208082528101610ff18161562c565b60208082528101610ff18161565c565b60208082528101610ff18161568c565b60208082528101610ff1816156bc565b60208082528101610ff1816156ec565b60208082528101614be8818461571c565b60208082528101614be881846158e6565b60208101610ff18284615995565b60405181810167ffffffffffffffff81118282101715615b4e57600080fd5b604052919050565b600067ffffffffffffffff821115615b6d57600080fd5b506020601f91909101601f19160190565b60200190565b5190565b600160a060020a031690565b151590565b6000600382106105ba57fe5b6000610ff182615b99565b82818337506000910152565b60005b83811015615bd7578181015183820152602001615bbf565b83811115615be6576000848401525b50505050565b601f01601f1916905600a265627a7a72305820a27b0a1372e3f80c1158fcfb5134acb1028a23f1e167f939df795185666833de6c6578706572696d656e74616cf50037",
  "source": "pragma solidity ^0.4.24;\npragma experimental ABIEncoderV2;\n\nimport \"./Claims.sol\";\n\ncontract RegistryToClaims is Claims {\n\n//    function getClaim(uint256 _claimId) view public returns (Claim) {\n//        return claims_[_claimId];\n//    }\n}\n",
  "sourcePath": "/home/komodo/newUI/bloomen-decentralized-rights-management-v2/truffle/contracts/registry/RegistryToClaims.sol",
  "compiler": {
    "name": "solc",
    "version": "0.4.24+commit.e67f0147.Emscripten.clang"
  },
  "schemaVersion": "2.0.1",
  "updatedAt": "2019-12-06T17:20:07.918Z"
}