{
  "contractName": "Users",
  "abi": [
    {
      "constant": false,
      "inputs": [
        {
          "name": "_cmo",
          "type": "string"
        }
      ],
      "name": "addCMO",
      "outputs": [],
      "payable": false,
      "stateMutability": "nonpayable",
      "type": "function"
    },
    {
      "constant": true,
      "inputs": [
        {
          "name": "_memberId",
          "type": "uint256"
        }
      ],
      "name": "_getClaimsIdByMember",
      "outputs": [
        {
          "name": "",
          "type": "uint256[]"
        }
      ],
      "payable": false,
      "stateMutability": "view",
      "type": "function"
    },
    {
      "constant": true,
      "inputs": [],
      "name": "getCMOs",
      "outputs": [
        {
          "name": "",
          "type": "string[]"
        }
      ],
      "payable": false,
      "stateMutability": "view",
      "type": "function"
    },
    {
      "constant": false,
      "inputs": [
        {
          "name": "_memberId",
          "type": "uint256"
        },
        {
          "name": "_claimId",
          "type": "uint256"
        }
      ],
      "name": "_addClaimFromInbox",
      "outputs": [],
      "payable": false,
      "stateMutability": "nonpayable",
      "type": "function"
    },
    {
      "constant": true,
      "inputs": [
        {
          "name": "account",
          "type": "address"
        }
      ],
      "name": "isSigner",
      "outputs": [
        {
          "name": "",
          "type": "bool"
        }
      ],
      "payable": false,
      "stateMutability": "view",
      "type": "function"
    },
    {
      "constant": false,
      "inputs": [
        {
          "name": "_memberId",
          "type": "uint256"
        },
        {
          "name": "_claimId",
          "type": "uint256"
        }
      ],
      "name": "_removeClaimFromInbox",
      "outputs": [],
      "payable": false,
      "stateMutability": "nonpayable",
      "type": "function"
    },
    {
      "constant": false,
      "inputs": [
        {
          "name": "currentCMO",
          "type": "string"
        },
        {
          "name": "currentCMOId",
          "type": "uint256"
        }
      ],
      "name": "_getMemberIdsOfCurrentCMO",
      "outputs": [
        {
          "name": "",
          "type": "uint256[]"
        }
      ],
      "payable": false,
      "stateMutability": "nonpayable",
      "type": "function"
    },
    {
      "constant": true,
      "inputs": [],
      "name": "getMembers",
      "outputs": [
        {
          "components": [
            {
              "name": "memberId",
              "type": "uint256"
            },
            {
              "name": "creationDate",
              "type": "uint256"
            },
            {
              "name": "name",
              "type": "string"
            },
            {
              "name": "logo",
              "type": "string"
            },
            {
              "name": "country",
              "type": "string"
            },
            {
              "name": "cmo",
              "type": "string"
            },
            {
              "name": "theme",
              "type": "string"
            },
            {
              "name": "claimInbox",
              "type": "uint256[]"
            },
            {
              "name": "claims",
              "type": "uint256[]"
            },
            {
              "name": "userRequests",
              "type": "address[]"
            },
            {
              "name": "totalTokens",
              "type": "uint256"
            }
          ],
          "name": "",
          "type": "tuple[]"
        }
      ],
      "payable": false,
      "stateMutability": "view",
      "type": "function"
    },
    {
      "constant": true,
      "inputs": [],
      "name": "getCount",
      "outputs": [
        {
          "name": "",
          "type": "uint256"
        }
      ],
      "payable": false,
      "stateMutability": "view",
      "type": "function"
    },
    {
      "constant": true,
      "inputs": [
        {
          "name": "_memberId",
          "type": "uint256"
        }
      ],
      "name": "_getClaimsCountByMember",
      "outputs": [
        {
          "name": "",
          "type": "uint256"
        }
      ],
      "payable": false,
      "stateMutability": "view",
      "type": "function"
    },
    {
      "constant": false,
      "inputs": [
        {
          "name": "_memberId",
          "type": "uint256"
        },
        {
          "name": "_claimId",
          "type": "uint256"
        }
      ],
      "name": "_removeClaimFromMember",
      "outputs": [],
      "payable": false,
      "stateMutability": "nonpayable",
      "type": "function"
    },
    {
      "constant": false,
      "inputs": [
        {
          "name": "_index",
          "type": "uint256"
        }
      ],
      "name": "deleteCMO",
      "outputs": [],
      "payable": false,
      "stateMutability": "nonpayable",
      "type": "function"
    },
    {
      "constant": false,
      "inputs": [
        {
          "name": "_memberId",
          "type": "uint256"
        },
        {
          "name": "newInbox",
          "type": "uint256[]"
        }
      ],
      "name": "updateMemberClaimInbox",
      "outputs": [],
      "payable": false,
      "stateMutability": "nonpayable",
      "type": "function"
    },
    {
      "constant": true,
      "inputs": [
        {
          "name": "_page",
          "type": "uint256"
        }
      ],
      "name": "getMembers",
      "outputs": [
        {
          "components": [
            {
              "name": "memberId",
              "type": "uint256"
            },
            {
              "name": "creationDate",
              "type": "uint256"
            },
            {
              "name": "name",
              "type": "string"
            },
            {
              "name": "logo",
              "type": "string"
            },
            {
              "name": "country",
              "type": "string"
            },
            {
              "name": "cmo",
              "type": "string"
            },
            {
              "name": "theme",
              "type": "string"
            },
            {
              "name": "claimInbox",
              "type": "uint256[]"
            },
            {
              "name": "claims",
              "type": "uint256[]"
            },
            {
              "name": "userRequests",
              "type": "address[]"
            },
            {
              "name": "totalTokens",
              "type": "uint256"
            }
          ],
          "name": "",
          "type": "tuple[]"
        }
      ],
      "payable": false,
      "stateMutability": "view",
      "type": "function"
    },
    {
      "constant": false,
      "inputs": [
        {
          "name": "_memberId",
          "type": "uint256"
        },
        {
          "name": "_creationDate",
          "type": "uint256"
        },
        {
          "name": "_name",
          "type": "string"
        },
        {
          "name": "_logo",
          "type": "string"
        },
        {
          "name": "_country",
          "type": "string"
        },
        {
          "name": "_cmo",
          "type": "string"
        },
        {
          "name": "_theme",
          "type": "string"
        },
        {
          "name": "_totalTokens",
          "type": "uint256"
        }
      ],
      "name": "updateMember",
      "outputs": [],
      "payable": false,
      "stateMutability": "nonpayable",
      "type": "function"
    },
    {
      "constant": false,
      "inputs": [
        {
          "name": "_memberId",
          "type": "uint256"
        },
        {
          "name": "_claimId",
          "type": "uint256"
        }
      ],
      "name": "_addClaimIdToMemberOwner",
      "outputs": [],
      "payable": false,
      "stateMutability": "nonpayable",
      "type": "function"
    },
    {
      "constant": false,
      "inputs": [],
      "name": "renounceSigner",
      "outputs": [],
      "payable": false,
      "stateMutability": "nonpayable",
      "type": "function"
    },
    {
      "constant": false,
      "inputs": [
        {
          "name": "account",
          "type": "address"
        }
      ],
      "name": "addSigner",
      "outputs": [],
      "payable": false,
      "stateMutability": "nonpayable",
      "type": "function"
    },
    {
      "constant": true,
      "inputs": [
        {
          "name": "_memberId",
          "type": "uint256"
        }
      ],
      "name": "_memberExists",
      "outputs": [
        {
          "name": "",
          "type": "bool"
        }
      ],
      "payable": false,
      "stateMutability": "view",
      "type": "function"
    },
    {
      "constant": false,
      "inputs": [
        {
          "name": "_creationDate",
          "type": "uint256"
        },
        {
          "name": "_name",
          "type": "string"
        },
        {
          "name": "_logo",
          "type": "string"
        },
        {
          "name": "_country",
          "type": "string"
        },
        {
          "name": "_cmo",
          "type": "string"
        },
        {
          "name": "_theme",
          "type": "string"
        }
      ],
      "name": "addMember",
      "outputs": [
        {
          "name": "",
          "type": "uint256"
        }
      ],
      "payable": false,
      "stateMutability": "nonpayable",
      "type": "function"
    },
    {
      "anonymous": false,
      "inputs": [
        {
          "indexed": true,
          "name": "account",
          "type": "address"
        }
      ],
      "name": "SignerAdded",
      "type": "event"
    },
    {
      "anonymous": false,
      "inputs": [
        {
          "indexed": true,
          "name": "account",
          "type": "address"
        }
      ],
      "name": "SignerRemoved",
      "type": "event"
    },
    {
      "constant": false,
      "inputs": [
        {
          "name": "_creationDate",
          "type": "uint256"
        },
        {
          "name": "_firstName",
          "type": "string"
        },
        {
          "name": "_lastName",
          "type": "string"
        },
        {
          "name": "_role",
          "type": "string"
        },
        {
          "name": "_memberId",
          "type": "uint256"
        }
      ],
      "name": "registerUserRequest",
      "outputs": [],
      "payable": false,
      "stateMutability": "nonpayable",
      "type": "function"
    },
    {
      "constant": false,
      "inputs": [
        {
          "name": "_firstName",
          "type": "string"
        },
        {
          "name": "_lastName",
          "type": "string"
        },
        {
          "name": "_memberId",
          "type": "uint256"
        },
        {
          "name": "_role",
          "type": "string"
        },
        {
          "name": "owner",
          "type": "address"
        },
        {
          "name": "_tokens",
          "type": "uint256"
        }
      ],
      "name": "updateUser",
      "outputs": [],
      "payable": false,
      "stateMutability": "nonpayable",
      "type": "function"
    },
    {
      "constant": true,
      "inputs": [
        {
          "name": "_memberId",
          "type": "uint256"
        }
      ],
      "name": "getUsedTokens",
      "outputs": [
        {
          "name": "",
          "type": "uint256"
        }
      ],
      "payable": false,
      "stateMutability": "view",
      "type": "function"
    },
    {
      "constant": false,
      "inputs": [
        {
          "name": "_firstName",
          "type": "string"
        },
        {
          "name": "_lastName",
          "type": "string"
        },
        {
          "name": "_memberId",
          "type": "uint256"
        },
        {
          "name": "_role",
          "type": "string"
        },
        {
          "name": "owner",
          "type": "address"
        },
        {
          "name": "_groups",
          "type": "string[]"
        }
      ],
      "name": "updateSuperUser",
      "outputs": [],
      "payable": false,
      "stateMutability": "nonpayable",
      "type": "function"
    },
    {
      "constant": false,
      "inputs": [
        {
          "name": "_userToReject",
          "type": "address"
        }
      ],
      "name": "rejectUser",
      "outputs": [],
      "payable": false,
      "stateMutability": "nonpayable",
      "type": "function"
    },
    {
      "constant": false,
      "inputs": [
        {
          "name": "_userToAccept",
          "type": "address"
        }
      ],
      "name": "acceptUser",
      "outputs": [],
      "payable": false,
      "stateMutability": "nonpayable",
      "type": "function"
    },
    {
      "constant": true,
      "inputs": [],
      "name": "getcountUsers",
      "outputs": [
        {
          "name": "",
          "type": "uint256"
        }
      ],
      "payable": false,
      "stateMutability": "view",
      "type": "function"
    },
    {
      "constant": false,
      "inputs": [
        {
          "name": "account",
          "type": "address"
        },
        {
          "name": "_cmo",
          "type": "string"
        }
      ],
      "name": "whitelistAdmin",
      "outputs": [],
      "payable": false,
      "stateMutability": "nonpayable",
      "type": "function"
    },
    {
      "constant": true,
      "inputs": [
        {
          "name": "_page",
          "type": "uint256"
        }
      ],
      "name": "getUsers",
      "outputs": [
        {
          "components": [
            {
              "name": "creationDate",
              "type": "uint256"
            },
            {
              "name": "firstName",
              "type": "string"
            },
            {
              "name": "lastName",
              "type": "string"
            },
            {
              "name": "memberId",
              "type": "uint256"
            },
            {
              "name": "requestId",
              "type": "uint256"
            },
            {
              "name": "role",
              "type": "string"
            },
            {
              "name": "status",
              "type": "uint8"
            },
            {
              "name": "owner",
              "type": "address"
            },
            {
              "name": "cmo",
              "type": "string"
            },
            {
              "name": "groups",
              "type": "string[]"
            },
            {
              "name": "tokens",
              "type": "uint256"
            }
          ],
          "name": "",
          "type": "tuple[]"
        }
      ],
      "payable": false,
      "stateMutability": "view",
      "type": "function"
    },
    {
      "constant": true,
      "inputs": [
        {
          "name": "userAddress",
          "type": "address"
        }
      ],
      "name": "getUserByAddress",
      "outputs": [
        {
          "components": [
            {
              "name": "creationDate",
              "type": "uint256"
            },
            {
              "name": "firstName",
              "type": "string"
            },
            {
              "name": "lastName",
              "type": "string"
            },
            {
              "name": "memberId",
              "type": "uint256"
            },
            {
              "name": "requestId",
              "type": "uint256"
            },
            {
              "name": "role",
              "type": "string"
            },
            {
              "name": "status",
              "type": "uint8"
            },
            {
              "name": "owner",
              "type": "address"
            },
            {
              "name": "cmo",
              "type": "string"
            },
            {
              "name": "groups",
              "type": "string[]"
            },
            {
              "name": "tokens",
              "type": "uint256"
            }
          ],
          "name": "",
          "type": "tuple"
        }
      ],
      "payable": false,
      "stateMutability": "view",
      "type": "function"
    },
    {
      "constant": true,
      "inputs": [],
      "name": "getUsersOwner",
      "outputs": [
        {
          "components": [
            {
              "name": "creationDate",
              "type": "uint256"
            },
            {
              "name": "firstName",
              "type": "string"
            },
            {
              "name": "lastName",
              "type": "string"
            },
            {
              "name": "memberId",
              "type": "uint256"
            },
            {
              "name": "requestId",
              "type": "uint256"
            },
            {
              "name": "role",
              "type": "string"
            },
            {
              "name": "status",
              "type": "uint8"
            },
            {
              "name": "owner",
              "type": "address"
            },
            {
              "name": "cmo",
              "type": "string"
            },
            {
              "name": "groups",
              "type": "string[]"
            },
            {
              "name": "tokens",
              "type": "uint256"
            }
          ],
          "name": "",
          "type": "tuple[]"
        }
      ],
      "payable": false,
      "stateMutability": "view",
      "type": "function"
    },
    {
      "constant": true,
      "inputs": [],
      "name": "getMe",
      "outputs": [
        {
          "components": [
            {
              "name": "creationDate",
              "type": "uint256"
            },
            {
              "name": "firstName",
              "type": "string"
            },
            {
              "name": "lastName",
              "type": "string"
            },
            {
              "name": "memberId",
              "type": "uint256"
            },
            {
              "name": "requestId",
              "type": "uint256"
            },
            {
              "name": "role",
              "type": "string"
            },
            {
              "name": "status",
              "type": "uint8"
            },
            {
              "name": "owner",
              "type": "address"
            },
            {
              "name": "cmo",
              "type": "string"
            },
            {
              "name": "groups",
              "type": "string[]"
            },
            {
              "name": "tokens",
              "type": "uint256"
            }
          ],
          "name": "",
          "type": "tuple"
        }
      ],
      "payable": false,
      "stateMutability": "view",
      "type": "function"
    },
    {
      "constant": true,
      "inputs": [
        {
          "name": "addr",
          "type": "address"
        }
      ],
      "name": "_memberIdFromCurrentAddress",
      "outputs": [
        {
          "name": "",
          "type": "uint256"
        }
      ],
      "payable": false,
      "stateMutability": "view",
      "type": "function"
    },
    {
      "constant": false,
      "inputs": [
        {
          "name": "addr",
          "type": "address"
        },
        {
          "name": "transactionPrice",
          "type": "uint256"
        }
      ],
      "name": "updateTokens",
      "outputs": [],
      "payable": false,
      "stateMutability": "nonpayable",
      "type": "function"
    },
    {
      "constant": true,
      "inputs": [
        {
          "name": "addr",
          "type": "address"
        }
      ],
      "name": "getUserTokensByAddress",
      "outputs": [
        {
          "name": "",
          "type": "uint256"
        }
      ],
      "payable": false,
      "stateMutability": "view",
      "type": "function"
    }
  ],
  "bytecode": "0x608060405260006003556200001d3364010000000062000023810204565b62000108565b6200003e600082640100000000620047f36200007582021704565b604051600160a060020a038216907f47d1c22a25bb3a5d4e481b9b1e6944c2eade3181a0a20b495ed61d35b5323f2490600090a250565b600160a060020a03811615156200008b57600080fd5b620000a08282640100000000620000d0810204565b15620000ab57600080fd5b600160a060020a0316600090815260209190915260409020805460ff19166001179055565b6000600160a060020a0382161515620000e857600080fd5b50600160a060020a03166000908152602091909152604090205460ff1690565b615ec980620001186000396000f3006080604052600436106101b65763ffffffff7c010000000000000000000000000000000000000000000000000000000060003504166308bdc24d81146101bb57806325f0473b146101dd5780633a59ccf1146101fd5780634dc928851461021d5780635d73ab9a1461023d5780636262dff614610273578063656d561c146102a057806367e482ad146102c257806369c212f6146102e2578063748532391461030f5780637df73e271461032f5780638b92892b1461035c5780639249d7531461037c578063932191be146103a9578063989359df146103be5780639eab5253146103de578063a4fdc59414610400578063a7ed1fe414610415578063a87d942c14610435578063a9eff5111461044a578063affccd841461046a578063bb03b7061461048a578063bcec99a6146104aa578063bf3d007e146104ca578063c11e1ff3146104ea578063c29c9225146104ff578063c477ecab1461051f578063d68dee9d1461053f578063e2c11f9e1461055f578063e5c8b03d1461057f578063eb12d61e14610594578063eff34e59146105b4578063f8380733146105d4578063fa1188c6146105f4578063fc81b52514610614575b600080fd5b3480156101c757600080fd5b506101db6101d6366004614dd2565b610634565b005b3480156101e957600080fd5b506101db6101f8366004614f95565b610831565b34801561020957600080fd5b506101db610218366004614e7a565b6109cb565b34801561022957600080fd5b506101db610238366004614dd2565b610a27565b34801561024957600080fd5b5061025d61025836600461508c565b610b99565b60405161026a9190615c4c565b60405180910390f35b34801561027f57600080fd5b5061029361028e36600461508c565b6110f2565b60405161026a9190615c5d565b3480156102ac57600080fd5b506102b5611187565b60405161026a9190615c2a565b3480156102ce57600080fd5b506101db6102dd366004614e4a565b611260565b3480156102ee57600080fd5b506103026102fd366004614dd2565b6112a1565b60405161026a9190615d8c565b34801561031b57600080fd5b506101db61032a3660046152a1565b611670565b34801561033b57600080fd5b5061034f61034a366004614dd2565b611696565b60405161026a9190615c6e565b34801561036857600080fd5b506101db6103773660046152a1565b6116ae565b34801561038857600080fd5b5061039c610397366004614dd2565b6117cc565b60405161026a9190615d9d565b3480156103b557600080fd5b5061025d6117ea565b3480156103ca57600080fd5b506102936103d9366004615056565b611c58565b3480156103ea57600080fd5b506103f3611e49565b60405161026a9190615c3b565b34801561040c57600080fd5b5061039c61231a565b34801561042157600080fd5b506101db6104303660046151e4565b6123e0565b34801561044157600080fd5b5061039c6124a7565b34801561045657600080fd5b506101db610465366004614df8565b6124c4565b34801561047657600080fd5b5061039c61048536600461508c565b612622565b34801561049657600080fd5b506101db6104a53660046152a1565b612637565b3480156104b657600080fd5b506101db6104c5366004614eaf565b61274d565b3480156104d657600080fd5b506101db6104e536600461508c565b6129a9565b3480156104f657600080fd5b50610302612a66565b34801561050b57600080fd5b506101db61051a3660046150aa565b612e37565b34801561052b57600080fd5b506103f361053a36600461508c565b612e5c565b34801561054b57600080fd5b506101db61055a3660046152c0565b613381565b34801561056b57600080fd5b506101db61057a3660046152a1565b613461565b34801561058b57600080fd5b506101db613487565b3480156105a057600080fd5b506101db6105af366004614dd2565b613492565b3480156105c057600080fd5b5061039c6105cf366004614dd2565b6134af565b3480156105e057600080fd5b5061034f6105ef36600461508c565b6134cd565b34801561060057600080fd5b5061039c61060f3660046150f2565b6134e0565b34801561062057600080fd5b5061039c61062f36600461508c565b613586565b600160a060020a038181166000908152600560205260408120600601546101009004909116116106825760405160e560020a62461bcd02815260040161067990615cbc565b60405180910390fd5b600160a060020a038116600090815260056020526040808220600390810154338452919092209091015414806106bc57506106bc33611696565b15156106dd5760405160e560020a62461bcd02815260040161067990615ccc565b60023360009081526005602052604090206006015460ff16600281111561070057fe5b1480610710575061071033611696565b15156107315760405160e560020a62461bcd02815260040161067990615d4c565b6001600160a060020a03821660009081526005602052604090206006015460ff16600281111561075d57fe5b1461077d5760405160e560020a62461bcd02815260040161067990615c9c565b600160a060020a038116600090815260056020908152604080832060030154835260029091529020600a01546064101561082557600160a060020a038116600090815260056020526040902060068101805460ff19166002179055600301546107e69082613627565b600160a060020a03811660009081526005602090815260408083206064600982015560030154835260029091529020600a01805460631901905561082e565b61082e81610a27565b50565b600160a060020a0382811660009081526005602052604081206006015490918291829161010090910416811061087c5760405160e560020a62461bcd02815260040161067990615cbc565b6002600160a060020a03861660009081526005602052604090206006015460ff1660028111156108a857fe5b146108c85760405160e560020a62461bcd02815260040161067990615d4c565b600160a060020a03851660009081526005602052604090206009015484101561092e57600160a060020a0385166000908152600560209081526040808320600981015460039091015484526002909252909120600a01805491869003909101905561096c565b600160a060020a0385166000908152600560209081526040808320600981015460039091015484526002909252909120600a01805491860390910390555b600160a060020a0385166000908152600560205260409020600981018590556004810154815460069092015490945090925060ff1660028111156109ac57fe5b90506109c0828a8a8a878b878c600161378c565b505050505050505050565b6109d433611696565b15156109df57600080fd5b600180548082018083556000929092528251610a22917fb10e2d527612073b26eecdfd717e6a320cf44b4afac2b0732d9fcbe2b7fa0cf601906020850190614841565b505050565b600160a060020a03818116600090815260056020526040812060060154610100900490911611610a6c5760405160e560020a62461bcd02815260040161067990615cbc565b600160a060020a03811660009081526005602052604080822060039081015433845291909220909101541480610aa65750610aa633611696565b1515610ac75760405160e560020a62461bcd02815260040161067990615ccc565b60023360009081526005602052604090206006015460ff166002811115610aea57fe5b1480610afa5750610afa33611696565b1515610b1b5760405160e560020a62461bcd02815260040161067990615d4c565b6001600160a060020a03821660009081526005602052604090206006015460ff166002811115610b4757fe5b14610b675760405160e560020a62461bcd02815260040161067990615cdc565b600160a060020a038116600090815260056020526040902060068101805460ff191690556003015461082e9082613627565b606060008060006060600080610bad61231a565b9550610bba600a89613e4e565b600654909550610bcb90600a613e83565b9350851580610bd957508585115b80610be357508388115b15610bed576110e7565b60408051600a808252610160820190925290816020015b610c0c6148bb565b815260200190600190039081610c04579050509250600091508490505b6006548110156110e3573360009081526005602081905260408220600301546006805491939185908110610c5957fe5b6000918252602080832090910154600160a060020a03168352820192909252604001902060030154148015610cd65750600260056000600684815481101515610c9e57fe5b6000918252602080832090910154600160a060020a0316835282019290925260400190206006015460ff166002811115610cd457fe5b145b156110db5760056000600683815481101515610cee57fe5b6000918252602080832090910154600160a060020a03168352828101939093526040918201902081516101608101835281548152600182810180548551601f6002600019958416156101000295909501909216939093049081018790048702830187019095528482529194929385840193919291830182828015610db35780601f10610d8857610100808354040283529160200191610db3565b820191906000526020600020905b815481529060010190602001808311610d9657829003601f168201915b5050509183525050600282810180546040805160206001841615610100026000190190931694909404601f81018390048302850183019091528084529381019390830182828015610e455780601f10610e1a57610100808354040283529160200191610e45565b820191906000526020600020905b815481529060010190602001808311610e2857829003601f168201915b505050505081526020016003820154815260200160048201548152602001600582018054600181600116156101000203166002900480601f016020809104026020016040519081016040528092919081815260200182805460018160011615610100020316600290048015610efb5780601f10610ed057610100808354040283529160200191610efb565b820191906000526020600020905b815481529060010190602001808311610ede57829003601f168201915b5050509183525050600682015460209091019060ff166002811115610f1c57fe5b6002811115610f2757fe5b8152600682015461010090819004600160a060020a031660208084019190915260078401805460408051600260018416159096026000190190921694909404601f810184900484028201840185528082529390940193929091830182828015610fd15780601f10610fa657610100808354040283529160200191610fd1565b820191906000526020600020905b815481529060010190602001808311610fb457829003601f168201915b5050505050815260200160088201805480602002602001604051908101604052809291908181526020016000905b828210156110aa5760008481526020908190208301805460408051601f60026000196101006001871615020190941693909304928301859004850281018501909152818152928301828280156110965780601f1061106b57610100808354040283529160200191611096565b820191906000526020600020905b81548152906001019060200180831161107957829003601f168201915b505050505081526020019060010190610fff565b50505050815260200160098201548152505083838151811015156110ca57fe5b602090810290910101526001909101905b600101610c29565b8296505b505050505050919050565b600081815260026020526040812054606091106111245760405160e560020a62461bcd02815260040161067990615cfc565b6000828152600260209081526040918290206008018054835181840281018401909452808452909183018282801561117b57602002820191906000526020600020905b815481526020019060010190808311611167575b50505050509050919050565b60606001805480602002602001604051908101604052809291908181526020016000905b828210156112565760008481526020908190208301805460408051601f60026000196101006001871615020190941693909304928301859004850281018501909152818152928301828280156112425780601f1061121757610100808354040283529160200191611242565b820191906000526020600020905b81548152906001019060200180831161122557829003601f168201915b5050505050815260200190600101906111ab565b5050505090505b90565b600160a060020a039091166000908152600560209081526040808320600981018054869003905560030154835260029091529020600a018054919091039055565b6112a96148bb565b600160a060020a03821660009081526005602090815260409182902082516101608101845281548152600180830180548651600293821615610100026000190190911692909204601f81018690048602830186019096528582529194929385810193919291908301828280156113605780601f1061133557610100808354040283529160200191611360565b820191906000526020600020905b81548152906001019060200180831161134357829003601f168201915b5050509183525050600282810180546040805160206001841615610100026000190190931694909404601f810183900483028501830190915280845293810193908301828280156113f25780601f106113c7576101008083540402835291602001916113f2565b820191906000526020600020905b8154815290600101906020018083116113d557829003601f168201915b505050505081526020016003820154815260200160048201548152602001600582018054600181600116156101000203166002900480601f0160208091040260200160405190810160405280929190818152602001828054600181600116156101000203166002900480156114a85780601f1061147d576101008083540402835291602001916114a8565b820191906000526020600020905b81548152906001019060200180831161148b57829003601f168201915b5050509183525050600682015460209091019060ff1660028111156114c957fe5b60028111156114d457fe5b8152600682015461010090819004600160a060020a031660208084019190915260078401805460408051600260018416159096026000190190921694909404601f81018490048402820184018552808252939094019392909183018282801561157e5780601f106115535761010080835404028352916020019161157e565b820191906000526020600020905b81548152906001019060200180831161156157829003601f168201915b5050505050815260200160088201805480602002602001604051908101604052809291908181526020016000905b828210156116575760008481526020908190208301805460408051601f60026000196101006001871615020190941693909304928301859004850281018501909152818152928301828280156116435780601f1061161857610100808354040283529160200191611643565b820191906000526020600020905b81548152906001019060200180831161162657829003601f168201915b5050505050815260200190600101906115ac565b5050505081526020016009820154815250509050919050565b600091825260026020908152604083206007018054600181018255908452922090910155565b60006116a8818363ffffffff613ea616565b92915050565b6000805b6000848152600260205260409020600701546000190181101561176e5760008481526002602052604090206007018054849190839081106116ef57fe5b9060005260206000200154141561170557600191505b811561176657600084815260026020526040902060070180546001830190811061172b57fe5b9060005260206000200154600260008681526020019081526020016000206007018281548110151561175957fe5b6000918252602090912001555b6001016116b2565b81156117c65760008481526002602052604090206007018054600019810190811061179557fe5b6000918252602080832090910182905585825260029052604090206007018054906117c490600019830161492a565b505b50505050565b600160a060020a031660009081526005602052604090206009015490565b60608060006117f833611696565b151561180357600080fd5b60065460408051828152602080840282010190915290801561183f57816020015b61182c6148bb565b8152602001906001900390816118245790505b509150600090505b600654811015611c52576005600060068381548110151561186457fe5b6000918252602080832090910154600160a060020a03168352828101939093526040918201902081516101608101835281548152600182810180548551601f60026000199584161561010002959095019092169390930490810187900487028301870190955284825291949293858401939192918301828280156119295780601f106118fe57610100808354040283529160200191611929565b820191906000526020600020905b81548152906001019060200180831161190c57829003601f168201915b5050509183525050600282810180546040805160206001841615610100026000190190931694909404601f810183900483028501830190915280845293810193908301828280156119bb5780601f10611990576101008083540402835291602001916119bb565b820191906000526020600020905b81548152906001019060200180831161199e57829003601f168201915b505050505081526020016003820154815260200160048201548152602001600582018054600181600116156101000203166002900480601f016020809104026020016040519081016040528092919081815260200182805460018160011615610100020316600290048015611a715780601f10611a4657610100808354040283529160200191611a71565b820191906000526020600020905b815481529060010190602001808311611a5457829003601f168201915b5050509183525050600682015460209091019060ff166002811115611a9257fe5b6002811115611a9d57fe5b8152600682015461010090819004600160a060020a031660208084019190915260078401805460408051600260018416159096026000190190921694909404601f810184900484028201840185528082529390940193929091830182828015611b475780601f10611b1c57610100808354040283529160200191611b47565b820191906000526020600020905b815481529060010190602001808311611b2a57829003601f168201915b5050505050815260200160088201805480602002602001604051908101604052809291908181526020016000905b82821015611c205760008481526020908190208301805460408051601f6002600019610100600187161502019094169390930492830185900485028101850190915281815292830182828015611c0c5780601f10611be157610100808354040283529160200191611c0c565b820191906000526020600020905b815481529060010190602001808311611bef57829003601f168201915b505050505081526020019060010190611b75565b5050505081526020016009820154815250508282815181101515611c4057fe5b60209081029091010152600101611847565b50919050565b60606000805b600454811015611df357846040518082805190602001908083835b60208310611c985780518252601f199092019160209182019101611c79565b6001836020036101000a03801982511681845116808217855250505050505090500191505060405180910390206000191660026000600484815481101515611cdc57fe5b906000526020600020015481526020019081526020016000206005016040518082805460018160011615610100020316600290048015611d535780601f10611d31576101008083540402835291820191611d53565b820191906000526020600020905b815481529060010190602001808311611d3f575b5050915050604051809103902060001916148015611da057508360026000600484815481101515611d8057fe5b906000526020600020015481526020019081526020016000206000015414155b15611deb578160026000600484815481101515611db957fe5b600091825260208083209091015483528281019390935260409091018120548354600181018555938252919020909101555b600101611c5e565b815460408051602080840282018101909252828152918491830182828015611e3a57602002820191906000526020600020905b815481526020019060010190808311611e26575b50505050509250505092915050565b6060806000600480549050604051908082528060200260200182016040528015611e8d57816020015b611e7a61494e565b815260200190600190039081611e725790505b509150600090505b600454811015611c525760026000600483815481101515611eb257fe5b9060005260206000200154815260200190815260200160002061016060405190810160405290816000820154815260200160018201548152602001600282018054600181600116156101000203166002900480601f016020809104026020016040519081016040528092919081815260200182805460018160011615610100020316600290048015611f855780601f10611f5a57610100808354040283529160200191611f85565b820191906000526020600020905b815481529060010190602001808311611f6857829003601f168201915b505050918352505060038201805460408051602060026001851615610100026000190190941693909304601f81018490048402820184019092528181529382019392918301828280156120195780601f10611fee57610100808354040283529160200191612019565b820191906000526020600020905b815481529060010190602001808311611ffc57829003601f168201915b505050918352505060048201805460408051602060026001851615610100026000190190941693909304601f81018490048402820184019092528181529382019392918301828280156120ad5780601f10612082576101008083540402835291602001916120ad565b820191906000526020600020905b81548152906001019060200180831161209057829003601f168201915b505050918352505060058201805460408051602060026001851615610100026000190190941693909304601f81018490048402820184019092528181529382019392918301828280156121415780601f1061211657610100808354040283529160200191612141565b820191906000526020600020905b81548152906001019060200180831161212457829003601f168201915b505050918352505060068201805460408051602060026001851615610100026000190190941693909304601f81018490048402820184019092528181529382019392918301828280156121d55780601f106121aa576101008083540402835291602001916121d5565b820191906000526020600020905b8154815290600101906020018083116121b857829003601f168201915b505050505081526020016007820180548060200260200160405190810160405280929190818152602001828054801561222d57602002820191906000526020600020905b815481526020019060010190808311612219575b505050505081526020016008820180548060200260200160405190810160405280929190818152602001828054801561228557602002820191906000526020600020905b815481526020019060010190808311612271575b50505050508152602001600982018054806020026020016040519081016040528092919081815260200182805480156122e757602002820191906000526020600020905b8154600160a060020a031681526001909101906020018083116122c9575b50505050508152602001600a82015481525050828281518110151561230857fe5b60209081029091010152600101611e95565b600080805b600654811015611c5257336000908152600560208190526040822060030154600680549193918590811061234f57fe5b6000918252602080832090910154600160a060020a031683528201929092526040019020600301541480156123cc575060026005600060068481548110151561239457fe5b6000918252602080832090910154600160a060020a0316835282019290925260400190206006015460ff1660028111156123ca57fe5b145b156123d8576001909101905b60010161231f565b60008115156124045760405160e560020a62461bcd02815260040161067990615d6c565b600086116124275760405160e560020a62461bcd02815260040161067990615d7c565b33600090815260056020526040902054156124575760405160e560020a62461bcd02815260040161067990615cac565b612460826134cd565b15156124815760405160e560020a62461bcd02815260040161067990615d1c565b61248a86613edd565b905061249f868686858588600133600061378c565b505050505050565b60006124b233611696565b15156124bd57600080fd5b5060045490565b6124cd33611696565b15156124d857600080fd5b600160a060020a0382166000908152600560205260409020600301546124fe9083613627565b604080518082018252600b81527f53757065722061646d696e0000000000000000000000000000000000000000006020808301918252600160a060020a038616600090815260059182905293909320915161255d939290920191614841565b5060038054600101808255600160a060020a038416600090815260056020908152604090912092830191909155825161259c9260070191840190614841565b50600160a060020a03821660008181526005602081815260408084206006808201805460ff1916600217905582516060810184528085019182527f64696769743100000000000000000000000000000000000000000000000000009381019390935282529490935252612614916008019060016149a9565b5061261e82613492565b5050565b60009081526002602052604090206008015490565b6000805b600084815260026020526040902060080154600019018110156126f757600084815260026020526040902060080180548491908390811061267857fe5b9060005260206000200154141561268e57600191505b81156126ef5760008481526002602052604090206008018054600183019081106126b457fe5b906000526020600020015460026000868152602001908152602001600020600801828154811015156126e257fe5b6000918252602090912001555b60010161263b565b81156117c65760008481526002602052604090206008018054600019810190811061271e57fe5b6000918252602080832090910182905585825260029052604090206008018054906117c490600019830161492a565b600160a060020a03821660009081526005602090815260408220885161277b926001909201918a0190614841565b50600160a060020a038316600090815260056020908152604090912087516127ab92600290920191890190614841565b50600160a060020a038316600090815260056020908152604090912083516127db92600890920191850190614a02565b50600090505b6006548110156129a0576005600084600160a060020a0316600160a060020a03168152602001908152602001600020600701604051808280546001816001161561010002031660029004801561286e5780601f1061284c57610100808354040283529182019161286e565b820191906000526020600020905b81548152906001019060200180831161285a575b50509150506040518091039020600019166005600060068481548110151561289257fe5b9060005260206000200160009054906101000a9004600160a060020a0316600160a060020a0316600160a060020a03168152602001908152602001600020600701604051808280546001816001161561010002031660029004801561292e5780601f1061290c57610100808354040283529182019161292e565b820191906000526020600020905b81548152906001019060200180831161291a575b5050915050604051809103902060001916141561299857816005600060068481548110151561295957fe5b6000918252602080832090910154600160a060020a0316835282810193909352604090910190208251612996936008909201929190910190614a02565b505b6001016127e1565b50505050505050565b60006129b433611696565b15156129bf57600080fd5b50805b60015460001901811015612a2b57600180548282019081106129e057fe5b906000526020600020016001828154811015156129f957fe5b906000526020600020019080546001816001161561010002031660029004612a22929190614a4f565b506001016129c2565b600180546000198101908110612a3d57fe5b906000526020600020016000612a539190614ac4565b6001805490610a22906000198301614b08565b612a6e6148bb565b612a766148bb565b3360009081526005602090815260409182902082516101608101845281548152600180830180548651600293821615610100026000190190911692909204601f8101869004860283018601909652858252919492938581019391929190830182828015612b245780601f10612af957610100808354040283529160200191612b24565b820191906000526020600020905b815481529060010190602001808311612b0757829003601f168201915b5050509183525050600282810180546040805160206001841615610100026000190190931694909404601f81018390048302850183019091528084529381019390830182828015612bb65780601f10612b8b57610100808354040283529160200191612bb6565b820191906000526020600020905b815481529060010190602001808311612b9957829003601f168201915b505050505081526020016003820154815260200160048201548152602001600582018054600181600116156101000203166002900480601f016020809104026020016040519081016040528092919081815260200182805460018160011615610100020316600290048015612c6c5780601f10612c4157610100808354040283529160200191612c6c565b820191906000526020600020905b815481529060010190602001808311612c4f57829003601f168201915b5050509183525050600682015460209091019060ff166002811115612c8d57fe5b6002811115612c9857fe5b8152600682015461010090819004600160a060020a031660208084019190915260078401805460408051600260018416159096026000190190921694909404601f810184900484028201840185528082529390940193929091830182828015612d425780601f10612d1757610100808354040283529160200191612d42565b820191906000526020600020905b815481529060010190602001808311612d2557829003601f168201915b5050505050815260200160088201805480602002602001604051908101604052809291908181526020016000905b82821015612e1b5760008481526020908190208301805460408051601f6002600019610100600187161502019094169390930492830185900485028101850190915281815292830182828015612e075780601f10612ddc57610100808354040283529160200191612e07565b820191906000526020600020905b815481529060010190602001808311612dea57829003601f168201915b505050505081526020019060010190612d70565b50505050815260200160098201548152505090508091505b5090565b60008281526002602090815260409091208251610a2292600790920191840190614b2c565b6060600080600060606000612e72600a88613e4e565b600454909550612e8390600a613e83565b6004549094501580612e9a57506004546000190185115b80612ea457508387115b15612eae57613377565b60408051600a80825261016082019092526000945090816020015b612ed161494e565b815260200190600190039081612ec95790505091508490505b6004548110156133735760026000600483815481101515612f0757fe5b9060005260206000200154815260200190815260200160002061016060405190810160405290816000820154815260200160018201548152602001600282018054600181600116156101000203166002900480601f016020809104026020016040519081016040528092919081815260200182805460018160011615610100020316600290048015612fda5780601f10612faf57610100808354040283529160200191612fda565b820191906000526020600020905b815481529060010190602001808311612fbd57829003601f168201915b505050918352505060038201805460408051602060026001851615610100026000190190941693909304601f810184900484028201840190925281815293820193929183018282801561306e5780601f106130435761010080835404028352916020019161306e565b820191906000526020600020905b81548152906001019060200180831161305157829003601f168201915b505050918352505060048201805460408051602060026001851615610100026000190190941693909304601f81018490048402820184019092528181529382019392918301828280156131025780601f106130d757610100808354040283529160200191613102565b820191906000526020600020905b8154815290600101906020018083116130e557829003601f168201915b505050918352505060058201805460408051602060026001851615610100026000190190941693909304601f81018490048402820184019092528181529382019392918301828280156131965780601f1061316b57610100808354040283529160200191613196565b820191906000526020600020905b81548152906001019060200180831161317957829003601f168201915b505050918352505060068201805460408051602060026001851615610100026000190190941693909304601f810184900484028201840190925281815293820193929183018282801561322a5780601f106131ff5761010080835404028352916020019161322a565b820191906000526020600020905b81548152906001019060200180831161320d57829003601f168201915b505050505081526020016007820180548060200260200160405190810160405280929190818152602001828054801561328257602002820191906000526020600020905b81548152602001906001019080831161326e575b50505050508152602001600882018054806020026020016040519081016040528092919081815260200182805480156132da57602002820191906000526020600020905b8154815260200190600101908083116132c6575b505050505081526020016009820180548060200260200160405190810160405280929190818152602001828054801561333c57602002820191906000526020600020905b8154600160a060020a0316815260019091019060200180831161331e575b50505050508152602001600a82015481525050828481518110151561335d57fe5b6020908102909101015260019283019201612eea565b8195505b5050505050919050565b61338a33611696565b151561339557600080fd5b600088815260026020526040812054116133c45760405160e560020a62461bcd02815260040161067990615d1c565b60008881526002602052604090206001015487146133f75760405160e560020a62461bcd02815260040161067990615c7c565b6000888152600260208181526040909220885161341c93919092019190890190614841565b506000888152600260209081526040909120835161344292600690920191850190614841565b50600097885260026020526040909720600a0196909655505050505050565b600091825260026020908152604083206008018054600181018255908452922090910155565b613490336140cc565b565b61349b33611696565b15156134a657600080fd5b61082e81614114565b600160a060020a031660009081526005602052604090206003015490565b6000908152600260205260408120541190565b6000806134ec33611696565b15156134f757600080fd5b6000881161351a5760405160e560020a62461bcd02815260040161067990615d7c565b506003805460010190819055600081815260026020526040902054156135555760405160e560020a62461bcd02815260040161067990615d0c565b6135648189898989898961415c565b60008181526002602052604090206103e8600a90910155979650505050505050565b600080805b6006548110156136205783600560006006848154811015156135a957fe5b6000918252602080832090910154600160a060020a03168352820192909252604001902060030154141561361857600560006006838154811015156135ea57fe5b6000918252602080832090910154600160a060020a0316835282019290925260400190206009015491909101905b60010161358b565b5092915050565b6000805b600084815260026020526040902060090154600019018110156137245760008481526002602052604090206009018054600160a060020a03851691908390811061367157fe5b600091825260209091200154600160a060020a0316141561369157600191505b811561371c5760008481526002602052604090206009018054600183019081106136b757fe5b6000918252602080832090910154868352600290915260409091206009018054600160a060020a0390921691839081106136ed57fe5b9060005260206000200160006101000a815481600160a060020a030219169083600160a060020a031602179055505b60010161362b565b60008481526002602052604090206009018054600019810190811061374557fe5b60009182526020808320909101805473ffffffffffffffffffffffffffffffffffffffff1916905585825260029052604090206009018054906117c490600019830161492a565b6137946148bb565b6000841015806137a5575060028411155b15156137c65760405160e560020a62461bcd02815260040161067990615cec565b845115156137e95760405160e560020a62461bcd02815260040161067990615c8c565b600160a060020a03831660009081526005602090815260409182902082516101608101845281548152600180830180548651600293821615610100026000190190911692909204601f81018690048602830186019096528582529194929385810193919291908301828280156138a05780601f10613875576101008083540402835291602001916138a0565b820191906000526020600020905b81548152906001019060200180831161388357829003601f168201915b5050509183525050600282810180546040805160206001841615610100026000190190931694909404601f810183900483028501830190915280845293810193908301828280156139325780601f1061390757610100808354040283529160200191613932565b820191906000526020600020905b81548152906001019060200180831161391557829003601f168201915b505050505081526020016003820154815260200160048201548152602001600582018054600181600116156101000203166002900480601f0160208091040260200160405190810160405280929190818152602001828054600181600116156101000203166002900480156139e85780601f106139bd576101008083540402835291602001916139e8565b820191906000526020600020905b8154815290600101906020018083116139cb57829003601f168201915b5050509183525050600682015460209091019060ff166002811115613a0957fe5b6002811115613a1457fe5b8152600682015461010090819004600160a060020a031660208084019190915260078401805460408051600260018416159096026000190190921694909404601f810184900484028201840185528082529390940193929091830182828015613abe5780601f10613a9357610100808354040283529160200191613abe565b820191906000526020600020905b815481529060010190602001808311613aa157829003601f168201915b5050505050815260200160088201805480602002602001604051908101604052809291908181526020016000905b82821015613b975760008481526020908190208301805460408051601f6002600019610100600187161502019094169390930492830185900485028101850190915281815292830182828015613b835780601f10613b5857610100808354040283529160200191613b83565b820191906000526020600020905b815481529060010190602001808311613b6657829003601f168201915b505050505081526020019060010190613aec565b50505090825250600991909101546020918201528b825281018a905260408101899052606081018890526080810187905260a081018690529050836002811115613bdd57fe5b8160c001906002811115613bed57fe5b90816002811115613bfa57fe5b905250600160a060020a03831660e082018190526000908152600560209081526040909120825181558183015180518493613c3c926001850192910190614841565b5060408201518051613c58916002840191602090910190614841565b50606082015160038201556080820151600482015560a08201518051613c88916005840191602090910190614841565b5060c082015160068201805460ff19166001836002811115613ca657fe5b021790555060e082015160068201805474ffffffffffffffffffffffffffffffffffffffff001916610100600160a060020a0390931683021790558201518051613cfa916007840191602090910190614841565b506101208201518051613d17916008840191602090910190614b66565b506101409190910151600990910155811515613e4257600680546001810182556000919091527ff652222313e28459528d920b65115c16c04f3efc82aaedc97be59f3f377c0d3f01805473ffffffffffffffffffffffffffffffffffffffff1916600160a060020a038516179055613d8e87614767565b60408051606081018252600660208281019182527f646967697431000000000000000000000000000000000000000000000000000083850152908252600160a060020a0386166000908152600590915291909120613df39160089091019060016149a9565b5060608101516000908152600260208181526040808420600160a060020a0388168552600592839052932092018054613e4093600701926000196101006001841615020190911604614a4f565b505b50505050505050505050565b600080831515613e615760009150613620565b50828202828482811515613e7157fe5b0414613e7c57600080fd5b9392505050565b600080808311613e9257600080fd5b8284811515613e9d57fe5b04949350505050565b6000600160a060020a0382161515613ebd57600080fd5b50600160a060020a03166000908152602091909152604090205460ff1690565b6000808080600285061515613f6f5784604051602001808281526020019150506040516020818303038152906040526040518082805190602001908083835b60208310613f3b5780518252601f199092019160209182019101613f1c565b6001836020036101000a0380198251168184511680821785525050505050509050019150506040518091039020925061405a565b84604051602001808281526020019150506040516020818303038152906040526040518082805190602001908083835b60208310613fbe5780518252601f199092019160209182019101613f9f565b51815160209384036101000a600019018019909216911617905260408051929094018290038220828201528351808303820181529184019384905281519195509293508392850191508083835b6020831061402a5780518252601f19909201916020918201910161400b565b6001836020036101000a038019825116818451168082178552505050505050905001915050604051809103902092505b60208110156140875782816020811061406f57fe5b60f860020a91901a810204919091019060010161405a565b82602060028401066020811061409957fe5b60f860020a91901a8102048360208406602081106140b357fe5b1a60f860020a0260f860020a9004029350505050919050565b6140dd60008263ffffffff6147a716565b604051600160a060020a038216907f3525e22824a8a7df2c9a6029941c824cf95b6447f1e13d5128fd3826d35afe8b90600090a250565b61412560008263ffffffff6147f316565b604051600160a060020a038216907f47d1c22a25bb3a5d4e481b9b1e6944c2eade3181a0a20b495ed61d35b5323f2490600090a250565b61416461494e565b855115156141875760405160e560020a62461bcd02815260040161067990615d5c565b825115156141aa5760405160e560020a62461bcd02815260040161067990615d3c565b815115156141cd5760405160e560020a62461bcd02815260040161067990615d2c565b6000888152600260208181526040928390208351610160810185528154815260018083015482850152828501805487519281161561010002600019011695909504601f8101859004850282018501875280825291959294928601939092919083018282801561427d5780601f106142525761010080835404028352916020019161427d565b820191906000526020600020905b81548152906001019060200180831161426057829003601f168201915b505050918352505060038201805460408051602060026001851615610100026000190190941693909304601f81018490048402820184019092528181529382019392918301828280156143115780601f106142e657610100808354040283529160200191614311565b820191906000526020600020905b8154815290600101906020018083116142f457829003601f168201915b505050918352505060048201805460408051602060026001851615610100026000190190941693909304601f81018490048402820184019092528181529382019392918301828280156143a55780601f1061437a576101008083540402835291602001916143a5565b820191906000526020600020905b81548152906001019060200180831161438857829003601f168201915b505050918352505060058201805460408051602060026001851615610100026000190190941693909304601f81018490048402820184019092528181529382019392918301828280156144395780601f1061440e57610100808354040283529160200191614439565b820191906000526020600020905b81548152906001019060200180831161441c57829003601f168201915b505050918352505060068201805460408051602060026001851615610100026000190190941693909304601f81018490048402820184019092528181529382019392918301828280156144cd5780601f106144a2576101008083540402835291602001916144cd565b820191906000526020600020905b8154815290600101906020018083116144b057829003601f168201915b505050505081526020016007820180548060200260200160405190810160405280929190818152602001828054801561452557602002820191906000526020600020905b815481526020019060010190808311614511575b505050505081526020016008820180548060200260200160405190810160405280929190818152602001828054801561457d57602002820191906000526020600020905b815481526020019060010190808311614569575b50505050508152602001600982018054806020026020016040519081016040528092919081815260200182805480156145df57602002820191906000526020600020905b8154600160a060020a031681526001909101906020018083116145c1575b5050509183525050600a919091015460209182015289825281810189815260408084018a8152606085018a90526080850189905260a0850188905260c0850187905260008d815260028086529290208551815592516001840155518051949550859492936146539392850192910190614841565b506060820151805161466f916003840191602090910190614841565b506080820151805161468b916004840191602090910190614841565b5060a082015180516146a7916005840191602090910190614841565b5060c082015180516146c3916006840191602090910190614841565b5060e082015180516146df916007840191602090910190614b2c565b5061010082015180516146fc916008840191602090910190614b2c565b506101208201518051614719916009840191602090910190614bb3565b506101409190910151600a909101555050600480546001810182556000919091527f8a35acfbc15ff81a39ae7d344fd709f28e8600b4aa8c65c6b64bfe7fe36bd19b01959095555050505050565b600090815260026020908152604082206009018054600181018255908352912001805473ffffffffffffffffffffffffffffffffffffffff191633179055565b600160a060020a03811615156147bc57600080fd5b6147c68282613ea6565b15156147d157600080fd5b600160a060020a0316600090815260209190915260409020805460ff19169055565b600160a060020a038116151561480857600080fd5b6148128282613ea6565b1561481c57600080fd5b600160a060020a0316600090815260209190915260409020805460ff19166001179055565b828054600181600116156101000203166002900490600052602060002090601f016020900481019282601f1061488257805160ff19168380011785556148af565b828001600101855582156148af579182015b828111156148af578251825591602001919060010190614894565b50612e33929150614c21565b61016060405190810160405280600081526020016060815260200160608152602001600081526020016000815260200160608152602001600060028111156148ff57fe5b81526020016000600160a060020a031681526020016060815260200160608152602001600081525090565b815481835581811115610a2257600083815260209020610a22918101908301614c21565b6101606040519081016040528060008152602001600081526020016060815260200160608152602001606081526020016060815260200160608152602001606081526020016060815260200160608152602001600081525090565b8280548282559060005260206000209081019282156149f6579160200282015b828111156149f657825180516149e6918491602090910190614841565b50916020019190600101906149c9565b50612e33929150614c3b565b8280548282559060005260206000209081019282156149f6579160200282015b828111156149f65782518051614a3f918491602090910190614841565b5091602001919060010190614a22565b828054600181600116156101000203166002900490600052602060002090601f016020900481019282601f10614a8857805485556148af565b828001600101855582156148af57600052602060002091601f016020900482015b828111156148af578254825591600101919060010190614aa9565b50805460018160011615610100020316600290046000825580601f10614aea575061082e565b601f01602090049060005260206000209081019061082e9190614c21565b815481835581811115610a2257600083815260209020610a22918101908301614c3b565b8280548282559060005260206000209081019282156148af57916020028201828111156148af578251825591602001919060010190614894565b8280548282559060005260206000209081019282156149f6579160200282015b828111156149f65782518051614ba3918491602090910190614841565b5091602001919060010190614b86565b828054828255906000526020600020908101928215614c15579160200282015b82811115614c15578251825473ffffffffffffffffffffffffffffffffffffffff1916600160a060020a03909116178255602090920191600190910190614bd3565b50612e33929150614c5e565b61125d91905b80821115612e335760008155600101614c27565b61125d91905b80821115612e33576000614c558282614ac4565b50600101614c41565b61125d91905b80821115612e3357805473ffffffffffffffffffffffffffffffffffffffff19168155600101614c64565b6000613e7c8235615e25565b6000601f82018313614cac57600080fd5b8135614cbf614cba82615dd2565b615dab565b81815260209384019390925082018360005b83811015614cfd5781358601614ce78882614d77565b8452506020928301929190910190600101614cd1565b5050505092915050565b6000601f82018313614d1857600080fd5b8135614d26614cba82615dd2565b91508181835260208401935060208101905083856020840282011115614d4b57600080fd5b60005b83811015614cfd5781614d618882614dc6565b8452506020928301929190910190600101614d4e565b6000601f82018313614d8857600080fd5b8135614d96614cba82615df3565b91508082526020830160208301858383011115614db257600080fd5b614dbd838284615e4d565b50505092915050565b6000613e7c823561125d565b600060208284031215614de457600080fd5b6000614df08484614c8f565b949350505050565b60008060408385031215614e0b57600080fd5b6000614e178585614c8f565b925050602083013567ffffffffffffffff811115614e3457600080fd5b614e4085828601614d77565b9150509250929050565b60008060408385031215614e5d57600080fd5b6000614e698585614c8f565b9250506020614e4085828601614dc6565b600060208284031215614e8c57600080fd5b813567ffffffffffffffff811115614ea357600080fd5b614df084828501614d77565b60008060008060008060c08789031215614ec857600080fd5b863567ffffffffffffffff811115614edf57600080fd5b614eeb89828a01614d77565b965050602087013567ffffffffffffffff811115614f0857600080fd5b614f1489828a01614d77565b9550506040614f2589828a01614dc6565b945050606087013567ffffffffffffffff811115614f4257600080fd5b614f4e89828a01614d77565b9350506080614f5f89828a01614c8f565b92505060a087013567ffffffffffffffff811115614f7c57600080fd5b614f8889828a01614c9b565b9150509295509295509295565b60008060008060008060c08789031215614fae57600080fd5b863567ffffffffffffffff811115614fc557600080fd5b614fd189828a01614d77565b965050602087013567ffffffffffffffff811115614fee57600080fd5b614ffa89828a01614d77565b955050604061500b89828a01614dc6565b945050606087013567ffffffffffffffff81111561502857600080fd5b61503489828a01614d77565b935050608061504589828a01614c8f565b92505060a0614f8889828a01614dc6565b6000806040838503121561506957600080fd5b823567ffffffffffffffff81111561508057600080fd5b614e6985828601614d77565b60006020828403121561509e57600080fd5b6000614df08484614dc6565b600080604083850312156150bd57600080fd5b60006150c98585614dc6565b925050602083013567ffffffffffffffff8111156150e657600080fd5b614e4085828601614d07565b60008060008060008060c0878903121561510b57600080fd5b60006151178989614dc6565b965050602087013567ffffffffffffffff81111561513457600080fd5b61514089828a01614d77565b955050604087013567ffffffffffffffff81111561515d57600080fd5b61516989828a01614d77565b945050606087013567ffffffffffffffff81111561518657600080fd5b61519289828a01614d77565b935050608087013567ffffffffffffffff8111156151af57600080fd5b6151bb89828a01614d77565b92505060a087013567ffffffffffffffff8111156151d857600080fd5b614f8889828a01614d77565b600080600080600060a086880312156151fc57600080fd5b60006152088888614dc6565b955050602086013567ffffffffffffffff81111561522557600080fd5b61523188828901614d77565b945050604086013567ffffffffffffffff81111561524e57600080fd5b61525a88828901614d77565b935050606086013567ffffffffffffffff81111561527757600080fd5b61528388828901614d77565b925050608061529488828901614dc6565b9150509295509295909350565b600080604083850312156152b457600080fd5b6000614e698585614dc6565b600080600080600080600080610100898b0312156152dd57600080fd5b60006152e98b8b614dc6565b98505060206152fa8b828c01614dc6565b975050604089013567ffffffffffffffff81111561531757600080fd5b6153238b828c01614d77565b965050606089013567ffffffffffffffff81111561534057600080fd5b61534c8b828c01614d77565b955050608089013567ffffffffffffffff81111561536957600080fd5b6153758b828c01614d77565b94505060a089013567ffffffffffffffff81111561539257600080fd5b61539e8b828c01614d77565b93505060c089013567ffffffffffffffff8111156153bb57600080fd5b6153c78b828c01614d77565b92505060e06153d88b828c01614dc6565b9150509295985092959890939650565b6153f181615e25565b82525050565b600061540282615e21565b80845260208401935061541483615e1b565b60005b828110156154445761542a8683516153e8565b61543382615e1b565b602096909601959150600101615417565b5093949350505050565b600061545982615e21565b8084526020840193508360208202850161547285615e1b565b60005b848110156154a957838303885261548d838351615672565b925061549882615e1b565b602098909801979150600101615475565b50909695505050505050565b60006154c082615e21565b808452602084019350836020820285016154d985615e1b565b60005b848110156154a95783830388526154f4838351615672565b92506154ff82615e1b565b6020989098019791506001016154dc565b600061551b82615e21565b8084526020840193508360208202850161553485615e1b565b60005b848110156154a957838303885261554f838351615a23565b925061555a82615e1b565b602098909801979150600101615537565b600061557682615e21565b8084526020840193508360208202850161558f85615e1b565b60005b848110156154a95783830388526155aa838351615b3c565b92506155b582615e1b565b602098909801979150600101615592565b60006155d182615e21565b8084526020840193506155e383615e1b565b60005b82811015615444576155f9868351615c21565b61560282615e1b565b6020969096019591506001016155e6565b600061561e82615e21565b80845260208401935061563083615e1b565b60005b8281101561544457615646868351615c21565b61564f82615e1b565b602096909601959150600101615633565b6153f181615e31565b6153f181615e42565b600061567d82615e21565b808452615691816020860160208601615e59565b61569a81615e85565b9093016020019392505050565b601a81527f4372656174696f6e204461746520697320696d6d757461626c65000000000000602082015260400190565b601181527f726f6c65206973206d616e6461746f7279000000000000000000000000000000602082015260400190565b602281527f4f6e6c792070656e64696e672075736572732063616e2062652061636365707460208201527f6564000000000000000000000000000000000000000000000000000000000000604082015260600190565b601381527f5573657220616c72656164792065786973747300000000000000000000000000602082015260400190565b601481527f546869732075736572206e6f7420657869737473000000000000000000000000602082015260400190565b601b81527f596f752063616e6e6f7420616363657074207468697320757365720000000000602082015260400190565b602281527f4f6e6c792070656e64696e672075736572732063616e2062652072656a65637460208201527f6564000000000000000000000000000000000000000000000000000000000000604082015260600190565b601381527f737461747573206973206e6f742076616c696400000000000000000000000000602082015260400190565b601181527f6d656d626572206e6f7420657869737473000000000000000000000000000000602082015260400190565b601581527f4d656d62657220616c7265616479206578697374730000000000000000000000602082015260400190565b601181527f4d656d626572206e6f7420657869737473000000000000000000000000000000602082015260400190565b601281527f5468656d65206973206d616e6461746f72790000000000000000000000000000602082015260400190565b601081527f434d4f206973206d616e6461746f727900000000000000000000000000000000602082015260400190565b601481527f596f7520617265206e6f74206163636570746564000000000000000000000000602082015260400190565b601181527f4e616d65206973206d616e6461746f7279000000000000000000000000000000602082015260400190565b601181527f4e6f2076616c6964206d656d6265724964000000000000000000000000000000602082015260400190565b601981527f4372656174696f6e44617465206973206d616e6461746f727900000000000000602082015260400190565b8051600090610160840190615a388582615c21565b506020830151615a4b6020860182615c21565b5060408301518482036040860152615a638282615672565b91505060608301518482036060860152615a7d8282615672565b91505060808301518482036080860152615a978282615672565b91505060a083015184820360a0860152615ab18282615672565b91505060c083015184820360c0860152615acb8282615672565b91505060e083015184820360e0860152615ae58282615613565b915050610100830151848203610100860152615b018282615613565b915050610120830151848203610120860152615b1d82826153f7565b915050610140830151615b34610140860182615c21565b509392505050565b8051600090610160840190615b518582615c21565b5060208301518482036020860152615b698282615672565b91505060408301518482036040860152615b838282615672565b9150506060830151615b986060860182615c21565b506080830151615bab6080860182615c21565b5060a083015184820360a0860152615bc38282615672565b91505060c0830151615bd860c0860182615669565b5060e0830151615beb60e08601826153e8565b50610100830151848203610100860152615c058282615672565b915050610120830151848203610120860152615b1d82826154b5565b6153f18161125d565b60208082528101613e7c818461544e565b60208082528101613e7c8184615510565b60208082528101613e7c818461556b565b60208082528101613e7c81846155c6565b602081016116a88284615660565b602080825281016116a8816156a7565b602080825281016116a8816156d7565b602080825281016116a881615707565b602080825281016116a88161575d565b602080825281016116a88161578d565b602080825281016116a8816157bd565b602080825281016116a8816157ed565b602080825281016116a881615843565b602080825281016116a881615873565b602080825281016116a8816158a3565b602080825281016116a8816158d3565b602080825281016116a881615903565b602080825281016116a881615933565b602080825281016116a881615963565b602080825281016116a881615993565b602080825281016116a8816159c3565b602080825281016116a8816159f3565b60208082528101613e7c8184615b3c565b602081016116a88284615c21565b60405181810167ffffffffffffffff81118282101715615dca57600080fd5b604052919050565b600067ffffffffffffffff821115615de957600080fd5b5060209081020190565b600067ffffffffffffffff821115615e0a57600080fd5b506020601f91909101601f19160190565b60200190565b5190565b600160a060020a031690565b151590565b600060038210612e3357fe5b60006116a882615e36565b82818337506000910152565b60005b83811015615e74578181015183820152602001615e5c565b838111156117c65750506000910152565b601f01601f1916905600a265627a7a72305820b6b2804cb7fb708489cb0a081224584322e2720623de890b6af9f9a9d97c763c6c6578706572696d656e74616cf50037",
  "source": "pragma solidity ^0.4.24;\npragma experimental ABIEncoderV2;\n\nimport \"./Members.sol\";\nimport \"./Claims.sol\";\n\n\ncontract Users is Members {\n\n  struct User {\n    uint256 creationDate;\n    string firstName;\n    string lastName;\n    uint256 memberId;\n    uint256 requestId;\n    string role;\n    StatusUserEnum status;\n    address owner;  // primary key\n    string cmo;\n    string[] groups;\n    uint tokens;\n  }\n\n  enum StatusUserEnum {\n    REJECTED,\n    PENDING,\n    ACCEPTED\n  }\n\n  mapping (address => User) private users_;\n  address[] private usersList_;\n  uint256 constant private PAGE_SIZE = 10;\n\n  uint256 constant private userStartTokens = 100;\n\n  // PUBLIC\n\n  function registerUserRequest(uint256 _creationDate, string _firstName, string _lastName, string _role, uint256 _memberId) public {\n\n    require(_memberId != 0, \"No valid memberId\");\n    require(_creationDate > 0, \"CreationDate is mandatory\");\n    require(users_[msg.sender].creationDate == 0, \"User already exists\");\n    require(_memberExists(_memberId), \"Member not exists\");\n\n    uint256 _requestId = Random.rand(_creationDate);\n    _saveUser(_creationDate, _firstName, _lastName, _memberId, _requestId, _role, uint256(StatusUserEnum.PENDING), msg.sender, 0);\n  }\n\n  function updateUser(string _firstName, string _lastName, uint256 _memberId, string _role, address owner, uint _tokens) public {\n\n    require(users_[owner].owner > address(0), \"This user not exists\");\n    require(uint(users_[owner].status) == uint(StatusUserEnum.ACCEPTED), \"You are not accepted\");\n    if (users_[owner].tokens > _tokens) {\n      members_[users_[owner].memberId].totalTokens += users_[owner].tokens - _tokens;\n    } else {\n      members_[users_[owner].memberId].totalTokens -= _tokens - users_[owner].tokens;\n    }\n    users_[owner].tokens = _tokens;\n\n    uint256 _requestId = users_[owner].requestId;\n    uint256 _creationDate = users_[owner].creationDate;\n    uint256 _status = uint(users_[owner].status);\n\n    _saveUser(_creationDate, _firstName, _lastName, _memberId, _requestId, _role, _status, owner, 1);\n  }\n\n  function getUsedTokens(uint256 _memberId) public view returns (uint){\n    uint usedTokens = 0;\n    for (uint i = 0; i < usersList_.length; ++i) {\n      if (users_[usersList_[i]].memberId == _memberId) {\n        usedTokens += users_[usersList_[i]].tokens;\n      }\n    }\n    return usedTokens;\n  }\n\n  function updateSuperUser(string _firstName, string _lastName, uint256 _memberId, string _role, address owner, string[] _groups) public {\n\n    users_[owner].firstName = _firstName;\n    users_[owner].lastName = _lastName;\n    users_[owner].groups = _groups;\n\n    for (uint i = 0; i < usersList_.length; ++i) {\n      if (keccak256(users_[usersList_[i]].cmo) == keccak256(users_[owner].cmo)) {\n        users_[usersList_[i]].groups = _groups;\n      }\n    }\n\n  }\n\n  function rejectUser(address _userToReject) public {\n\n    require(users_[_userToReject].owner > address(0), \"This user not exists\");\n    require((users_[msg.sender].memberId == users_[_userToReject].memberId) || isSigner(msg.sender), \"You cannot accept this user\");\n    require((uint(users_[msg.sender].status) == uint(StatusUserEnum.ACCEPTED)) || isSigner(msg.sender), \"You are not accepted\");\n    require(users_[_userToReject].status == StatusUserEnum.PENDING, \"Only pending users can be rejected\");\n\n    users_[_userToReject].status = StatusUserEnum.REJECTED;\n    _clearUserFromMemberRequest(users_[_userToReject].memberId, _userToReject);\n  }\n\n  function acceptUser(address _userToAccept) public {\n\n    require(users_[_userToAccept].owner > address(0), \"This user not exists\");\n    require((users_[msg.sender].memberId == users_[_userToAccept].memberId) || isSigner(msg.sender), \"You cannot accept this user\");\n    require((uint(users_[msg.sender].status) == uint(StatusUserEnum.ACCEPTED)) || isSigner(msg.sender), \"You are not accepted\");\n    require(users_[_userToAccept].status == StatusUserEnum.PENDING, \"Only pending users can be accepted\");\n\n    if (members_[users_[_userToAccept].memberId].totalTokens > userStartTokens) {\n      users_[_userToAccept].status = StatusUserEnum.ACCEPTED;\n      _clearUserFromMemberRequest(users_[_userToAccept].memberId, _userToAccept);\n      users_[_userToAccept].tokens = userStartTokens;\n      members_[users_[_userToAccept].memberId].totalTokens -= userStartTokens;\n    } else {\n      rejectUser(_userToAccept);\n    }\n  }\n\n  function getcountUsers() public view returns(uint) {\n    uint256 counter = 0;\n    for (uint i = 0; i < usersList_.length; ++i) {\n      if(users_[usersList_[i]].memberId == users_[msg.sender].memberId\n        && users_[usersList_[i]].status == StatusUserEnum.ACCEPTED) {\n        counter++;\n      }\n    }\n    return counter;\n  }\n\n  function whitelistAdmin(address account, string _cmo) public onlySigner {\n    _clearUserFromMemberRequest(users_[account].memberId, account);\n    users_[account].role = \"Super admin\";\n    users_[account].memberId = ++memberIdCounter_;\n    users_[account].cmo = _cmo;\n//    users_[account].tokens = 0; // should \"Super admin\" have tokens?\n    users_[account].status = StatusUserEnum.ACCEPTED;\n    users_[account].groups = [\"digit1\"];\n    addSigner(account);\n  }\n\n  function getUsers(uint256 _page) public view returns(User[] memory) {\n    uint256 counter = getcountUsers();\n\n    uint256 pageIndex = SafeMath.mul(PAGE_SIZE, _page);\n    uint256 pageNumber = SafeMath.div(usersList_.length, PAGE_SIZE);\n\n    if (counter == 0 || pageIndex > counter || _page > pageNumber) {\n      return;\n    }\n\n    User[] memory userPageBasic = new User[](PAGE_SIZE);\n    uint256 counterFinal = 0;\n\n    for (uint j = pageIndex; j < usersList_.length; ++j) {\n      if(users_[usersList_[j]].memberId == users_[msg.sender].memberId\n        && users_[usersList_[j]].status == StatusUserEnum.ACCEPTED) {\n        userPageBasic[counterFinal] = users_[usersList_[j]];\n        ++counterFinal;\n      }\n    }\n    return userPageBasic;\n  }\n\n  function getUserByAddress(address userAddress) public view returns(User memory) {\n    return users_[userAddress];\n  }\n\n  function getUsersOwner() onlySigner public view returns(User[] memory) {\n    User[] memory userPageOwner = new User[](usersList_.length);\n\n    for (uint i = 0; i < usersList_.length; ++i) {\n      userPageOwner[i] = users_[usersList_[i]];\n    }\n\n    return userPageOwner;\n  }\n\n  function getMe() public view returns(User) {\n    User memory user = users_[msg.sender];\n    return user;\n  }\n\n\n  function _saveUser(uint256 _creationDate, string _firstName, string _lastName, uint256 _memberId,\n    uint256 _requestId, string _role, uint256 _status, address owner, uint isCreate) internal {\n\n    require(_status >= 0 || _status <=2, \"status is not valid\");\n    require(bytes(_role).length != 0, \"role is mandatory\");\n\n    User memory user = users_[owner];\n\n    user.creationDate =  _creationDate;\n    user.firstName =  _firstName;\n    user.lastName =  _lastName;\n    user.memberId =  _memberId;\n    user.requestId =  _requestId;\n    user.role = _role;\n    user.status = StatusUserEnum(_status);\n    user.owner = owner;\n\n    users_[owner] = user;\n\n    if(isCreate == 0) {\n      usersList_.push(owner);\n//      if (users_[owner].status != StatusUserEnum.ACCEPTED) {\n      _addUserToMemberRequest(_memberId);\n//      }\n      users_[owner].groups = [\"digit1\"];                  // by default\n      users_[owner].cmo = members_[user.memberId].cmo;  // to initialize\n    }\n  }\n\n  function _memberIdFromCurrentAddress(address addr) view public returns(uint256) {\n    return users_[addr].memberId;\n  }\n\n  function updateTokens(address addr, uint transactionPrice) public {\n    users_[addr].tokens -= transactionPrice;\n    members_[users_[addr].memberId].totalTokens -= transactionPrice;\n  }\n\n  function getUserTokensByAddress(address addr) view public returns(uint) {\n    return users_[addr].tokens;\n  }\n}\n",
  "sourcePath": "/home/komodo/newUI2/bloomen-decentralized-rights-management-v2/truffle/contracts/registry/Users.sol",
  "compiler": {
    "name": "solc",
    "version": "0.4.24+commit.e67f0147.Emscripten.clang"
  },
  "schemaVersion": "2.0.1",
  "updatedAt": "2020-06-20T08:04:33.345Z"
}