{
  "contractName": "Users",
  "abi": [
    {
      "constant": false,
      "inputs": [
        {
          "name": "_memberId",
          "type": "uint256"
        },
        {
          "name": "_creationDate",
          "type": "uint256"
        },
        {
          "name": "_name",
          "type": "string"
        },
        {
          "name": "_logo",
          "type": "string"
        },
        {
          "name": "_country",
          "type": "string"
        },
        {
          "name": "_cmo",
          "type": "string"
        },
        {
          "name": "_theme",
          "type": "string"
        }
      ],
      "name": "updateMember",
      "outputs": [],
      "payable": false,
      "stateMutability": "nonpayable",
      "type": "function"
    },
    {
      "constant": true,
      "inputs": [
        {
          "name": "account",
          "type": "address"
        }
      ],
      "name": "isSigner",
      "outputs": [
        {
          "name": "",
          "type": "bool"
        }
      ],
      "payable": false,
      "stateMutability": "view",
      "type": "function"
    },
    {
      "constant": true,
      "inputs": [],
      "name": "getMembers",
      "outputs": [
        {
          "components": [
            {
              "name": "memberId",
              "type": "uint256"
            },
            {
              "name": "creationDate",
              "type": "uint256"
            },
            {
              "name": "name",
              "type": "string"
            },
            {
              "name": "logo",
              "type": "string"
            },
            {
              "name": "country",
              "type": "string"
            },
            {
              "name": "cmo",
              "type": "string"
            },
            {
              "name": "theme",
              "type": "string"
            },
            {
              "name": "claimInbox",
              "type": "uint256[]"
            },
            {
              "name": "claims",
              "type": "uint256[]"
            },
            {
              "name": "userRequests",
              "type": "address[]"
            }
          ],
          "name": "",
          "type": "tuple[]"
        }
      ],
      "payable": false,
      "stateMutability": "view",
      "type": "function"
    },
    {
      "constant": true,
      "inputs": [],
      "name": "getCount",
      "outputs": [
        {
          "name": "",
          "type": "uint256"
        }
      ],
      "payable": false,
      "stateMutability": "view",
      "type": "function"
    },
    {
      "constant": true,
      "inputs": [
        {
          "name": "_page",
          "type": "uint256"
        }
      ],
      "name": "getMembers",
      "outputs": [
        {
          "components": [
            {
              "name": "memberId",
              "type": "uint256"
            },
            {
              "name": "creationDate",
              "type": "uint256"
            },
            {
              "name": "name",
              "type": "string"
            },
            {
              "name": "logo",
              "type": "string"
            },
            {
              "name": "country",
              "type": "string"
            },
            {
              "name": "cmo",
              "type": "string"
            },
            {
              "name": "theme",
              "type": "string"
            },
            {
              "name": "claimInbox",
              "type": "uint256[]"
            },
            {
              "name": "claims",
              "type": "uint256[]"
            },
            {
              "name": "userRequests",
              "type": "address[]"
            }
          ],
          "name": "",
          "type": "tuple[]"
        }
      ],
      "payable": false,
      "stateMutability": "view",
      "type": "function"
    },
    {
      "constant": false,
      "inputs": [],
      "name": "renounceSigner",
      "outputs": [],
      "payable": false,
      "stateMutability": "nonpayable",
      "type": "function"
    },
    {
      "constant": false,
      "inputs": [
        {
          "name": "account",
          "type": "address"
        }
      ],
      "name": "addSigner",
      "outputs": [],
      "payable": false,
      "stateMutability": "nonpayable",
      "type": "function"
    },
    {
      "constant": false,
      "inputs": [
        {
          "name": "_creationDate",
          "type": "uint256"
        },
        {
          "name": "_name",
          "type": "string"
        },
        {
          "name": "_logo",
          "type": "string"
        },
        {
          "name": "_country",
          "type": "string"
        },
        {
          "name": "_cmo",
          "type": "string"
        },
        {
          "name": "_theme",
          "type": "string"
        }
      ],
      "name": "addMember",
      "outputs": [
        {
          "name": "",
          "type": "uint256"
        }
      ],
      "payable": false,
      "stateMutability": "nonpayable",
      "type": "function"
    },
    {
      "anonymous": false,
      "inputs": [
        {
          "indexed": true,
          "name": "account",
          "type": "address"
        }
      ],
      "name": "SignerAdded",
      "type": "event"
    },
    {
      "anonymous": false,
      "inputs": [
        {
          "indexed": true,
          "name": "account",
          "type": "address"
        }
      ],
      "name": "SignerRemoved",
      "type": "event"
    },
    {
      "constant": false,
      "inputs": [
        {
          "name": "_creationDate",
          "type": "uint256"
        },
        {
          "name": "_firstName",
          "type": "string"
        },
        {
          "name": "_lastName",
          "type": "string"
        },
        {
          "name": "_role",
          "type": "string"
        },
        {
          "name": "_memberId",
          "type": "uint256"
        }
      ],
      "name": "registerUserRequest",
      "outputs": [],
      "payable": false,
      "stateMutability": "nonpayable",
      "type": "function"
    },
    {
      "constant": false,
      "inputs": [
        {
          "name": "_firstName",
          "type": "string"
        },
        {
          "name": "_lastName",
          "type": "string"
        },
        {
          "name": "_memberId",
          "type": "uint256"
        },
        {
          "name": "_role",
          "type": "string"
        },
        {
          "name": "owner",
          "type": "address"
        }
      ],
      "name": "updateUser",
      "outputs": [],
      "payable": false,
      "stateMutability": "nonpayable",
      "type": "function"
    },
    {
      "constant": false,
      "inputs": [
        {
          "name": "_userToReject",
          "type": "address"
        }
      ],
      "name": "rejectUser",
      "outputs": [],
      "payable": false,
      "stateMutability": "nonpayable",
      "type": "function"
    },
    {
      "constant": false,
      "inputs": [
        {
          "name": "_userToAccept",
          "type": "address"
        }
      ],
      "name": "acceptUser",
      "outputs": [],
      "payable": false,
      "stateMutability": "nonpayable",
      "type": "function"
    },
    {
      "constant": true,
      "inputs": [],
      "name": "getcountUsers",
      "outputs": [
        {
          "name": "",
          "type": "uint256"
        }
      ],
      "payable": false,
      "stateMutability": "view",
      "type": "function"
    },
    {
      "constant": false,
      "inputs": [
        {
          "name": "account",
          "type": "address"
        }
      ],
      "name": "whitelistAdmin",
      "outputs": [],
      "payable": false,
      "stateMutability": "nonpayable",
      "type": "function"
    },
    {
      "constant": true,
      "inputs": [
        {
          "name": "_page",
          "type": "uint256"
        }
      ],
      "name": "getUsers",
      "outputs": [
        {
          "components": [
            {
              "name": "creationDate",
              "type": "uint256"
            },
            {
              "name": "firstName",
              "type": "string"
            },
            {
              "name": "lastName",
              "type": "string"
            },
            {
              "name": "memberId",
              "type": "uint256"
            },
            {
              "name": "requestId",
              "type": "uint256"
            },
            {
              "name": "role",
              "type": "string"
            },
            {
              "name": "status",
              "type": "uint8"
            },
            {
              "name": "owner",
              "type": "address"
            }
          ],
          "name": "",
          "type": "tuple[]"
        }
      ],
      "payable": false,
      "stateMutability": "view",
      "type": "function"
    },
    {
      "constant": true,
      "inputs": [
        {
          "name": "userAddress",
          "type": "address"
        }
      ],
      "name": "getUserByAddress",
      "outputs": [
        {
          "components": [
            {
              "name": "creationDate",
              "type": "uint256"
            },
            {
              "name": "firstName",
              "type": "string"
            },
            {
              "name": "lastName",
              "type": "string"
            },
            {
              "name": "memberId",
              "type": "uint256"
            },
            {
              "name": "requestId",
              "type": "uint256"
            },
            {
              "name": "role",
              "type": "string"
            },
            {
              "name": "status",
              "type": "uint8"
            },
            {
              "name": "owner",
              "type": "address"
            }
          ],
          "name": "",
          "type": "tuple"
        }
      ],
      "payable": false,
      "stateMutability": "view",
      "type": "function"
    },
    {
      "constant": true,
      "inputs": [],
      "name": "getUsersOwner",
      "outputs": [
        {
          "components": [
            {
              "name": "creationDate",
              "type": "uint256"
            },
            {
              "name": "firstName",
              "type": "string"
            },
            {
              "name": "lastName",
              "type": "string"
            },
            {
              "name": "memberId",
              "type": "uint256"
            },
            {
              "name": "requestId",
              "type": "uint256"
            },
            {
              "name": "role",
              "type": "string"
            },
            {
              "name": "status",
              "type": "uint8"
            },
            {
              "name": "owner",
              "type": "address"
            }
          ],
          "name": "",
          "type": "tuple[]"
        }
      ],
      "payable": false,
      "stateMutability": "view",
      "type": "function"
    },
    {
      "constant": true,
      "inputs": [],
      "name": "getMe",
      "outputs": [
        {
          "components": [
            {
              "name": "creationDate",
              "type": "uint256"
            },
            {
              "name": "firstName",
              "type": "string"
            },
            {
              "name": "lastName",
              "type": "string"
            },
            {
              "name": "memberId",
              "type": "uint256"
            },
            {
              "name": "requestId",
              "type": "uint256"
            },
            {
              "name": "role",
              "type": "string"
            },
            {
              "name": "status",
              "type": "uint8"
            },
            {
              "name": "owner",
              "type": "address"
            }
          ],
          "name": "",
          "type": "tuple"
        }
      ],
      "payable": false,
      "stateMutability": "view",
      "type": "function"
    }
  ],
  "bytecode": "0x608060405262000018336401000000006200001e810204565b62000103565b6200003960008264010000000062002fd96200007082021704565b604051600160a060020a038216907f47d1c22a25bb3a5d4e481b9b1e6944c2eade3181a0a20b495ed61d35b5323f2490600090a250565b600160a060020a03811615156200008657600080fd5b6200009b8282640100000000620000cb810204565b15620000a657600080fd5b600160a060020a0316600090815260209190915260409020805460ff19166001179055565b6000600160a060020a0382161515620000e357600080fd5b50600160a060020a03166000908152602091909152604090205460ff1690565b613fb380620001136000396000f3006080604052600436106100fb5763ffffffff7c010000000000000000000000000000000000000000000000000000000060003504166308bdc24d81146101005780634dc92885146101225780635d73ab9a1461014257806365ff0c481461017857806369c212f6146101985780637df73e27146101c5578063932191be146101f25780639eab525314610207578063a4fdc59414610229578063a7ed1fe41461024b578063a87d942c1461026b578063c11e1ff314610280578063c477ecab14610295578063e5c8b03d146102b5578063eb12d61e146102ca578063fa1188c6146102ea578063fcfbde5b1461030a578063ff240fce1461032a575b600080fd5b34801561010c57600080fd5b5061012061011b3660046132d5565b61034a565b005b34801561012e57600080fd5b5061012061013d3660046132d5565b6104e6565b34801561014e57600080fd5b5061016261015d3660046133b7565b61064a565b60405161016f9190613d74565b60405180910390f35b34801561018457600080fd5b50610120610193366004613584565b610a25565b3480156101a457600080fd5b506101b86101b33660046132d5565b610ab4565b60405161016f9190613e93565b3480156101d157600080fd5b506101e56101e03660046132d5565b610d08565b60405161016f9190613d85565b3480156101fe57600080fd5b50610162610d20565b34801561021357600080fd5b5061021c611011565b60405161016f9190613d63565b34801561023557600080fd5b5061023e6114d8565b60405161016f9190613ea4565b34801561025757600080fd5b506101206102663660046134d4565b61159d565b34801561027757600080fd5b5061023e611664565b34801561028c57600080fd5b506101b8611682565b3480156102a157600080fd5b5061021c6102b03660046133b7565b6118d9565b3480156102c157600080fd5b50610120611df4565b3480156102d657600080fd5b506101206102e53660046132d5565b611dff565b3480156102f657600080fd5b5061023e6103053660046133d5565b611e1c565b34801561031657600080fd5b506101206103253660046132fb565b611eab565b34801561033657600080fd5b506101206103453660046132d5565b611f99565b600160a060020a038181166000908152600360205260408120600601546101009004909116116103985760405160e560020a62461bcd02815260040161038f90613dd3565b60405180910390fd5b600160a060020a03811660009081526003602081905260408083208201543384529220015414806103cd57506103cd33610d08565b15156103ee5760405160e560020a62461bcd02815260040161038f90613de3565b60023360009081526003602052604090206006015460ff16600281111561041157fe5b1480610421575061042133610d08565b15156104425760405160e560020a62461bcd02815260040161038f90613e53565b6001600160a060020a03821660009081526003602052604090206006015460ff16600281111561046e57fe5b1461048e5760405160e560020a62461bcd02815260040161038f90613db3565b600160a060020a038116600090815260036020526040902060060180546002919060ff19166001835b0217905550600160a060020a038116600090815260036020819052604090912001546104e3908261206d565b50565b600160a060020a0381811660009081526003602052604081206006015461010090049091161161052b5760405160e560020a62461bcd02815260040161038f90613dd3565b600160a060020a0381166000908152600360208190526040808320820154338452922001541480610560575061056033610d08565b15156105815760405160e560020a62461bcd02815260040161038f90613de3565b60023360009081526003602052604090206006015460ff1660028111156105a457fe5b14806105b457506105b433610d08565b15156105d55760405160e560020a62461bcd02815260040161038f90613e53565b6001600160a060020a03821660009081526003602052604090206006015460ff16600281111561060157fe5b146106215760405160e560020a62461bcd02815260040161038f90613df3565b600160a060020a0381166000908152600360205260408120600601805460ff19166001836104b7565b60606000806000606060008061065e6114d8565b955061066b600a896121dc565b60045490955061067c90600a612215565b935085158061068a57508585115b8061069457508388115b1561069e57610a1a565b60408051600a808252610160820190925290816020015b6106bd613027565b8152602001906001900390816106b5579050509250600091508490505b600454811015610a16573360009081526003602081905260408220810154600480549193918590811061070957fe5b6000918252602080832090910154600160a060020a03168352820192909252604001902060030154148015610786575060026003600060048481548110151561074e57fe5b6000918252602080832090910154600160a060020a0316835282019290925260400190206006015460ff16600281111561078457fe5b145b15610a0e576003600060048381548110151561079e57fe5b600091825260208083209190910154600160a060020a0316835282810193909352604091820190208151610100808201845282548252600180840180548651600293821615909402600019011691909104601f8101879004870283018701909552848252919492938584019391929183018282801561085e5780601f106108335761010080835404028352916020019161085e565b820191906000526020600020905b81548152906001019060200180831161084157829003601f168201915b5050509183525050600282810180546040805160206001841615610100026000190190931694909404601f810183900483028501830190915280845293810193908301828280156108f05780601f106108c5576101008083540402835291602001916108f0565b820191906000526020600020905b8154815290600101906020018083116108d357829003601f168201915b505050505081526020016003820154815260200160048201548152602001600582018054600181600116156101000203166002900480601f0160208091040260200160405190810160405280929190818152602001828054600181600116156101000203166002900480156109a65780601f1061097b576101008083540402835291602001916109a6565b820191906000526020600020905b81548152906001019060200180831161098957829003601f168201915b5050509183525050600682015460209091019060ff1660028111156109c757fe5b60028111156109d257fe5b8152600691909101546101009004600160a060020a031660209091015283518490849081106109fd57fe5b602090810290910101526001909101905b6001016106da565b8296505b505050505050919050565b610a2e33610d08565b1515610a3957600080fd5b60008781526001602052604081205411610a685760405160e560020a62461bcd02815260040161038f90613e23565b600087815260016020819052604090912001548614610a9c5760405160e560020a62461bcd02815260040161038f90613d93565b610aab87878787878787612238565b50505050505050565b610abc613027565b600160a060020a0382166000908152600360209081526040918290208251610100808201855282548252600180840180548751600293821615909402600019011691909104601f8101869004860283018601909652858252919492938581019391929190830182828015610b715780601f10610b4657610100808354040283529160200191610b71565b820191906000526020600020905b815481529060010190602001808311610b5457829003601f168201915b5050509183525050600282810180546040805160206001841615610100026000190190931694909404601f81018390048302850183019091528084529381019390830182828015610c035780601f10610bd857610100808354040283529160200191610c03565b820191906000526020600020905b815481529060010190602001808311610be657829003601f168201915b505050505081526020016003820154815260200160048201548152602001600582018054600181600116156101000203166002900480601f016020809104026020016040519081016040528092919081815260200182805460018160011615610100020316600290048015610cb95780601f10610c8e57610100808354040283529160200191610cb9565b820191906000526020600020905b815481529060010190602001808311610c9c57829003601f168201915b5050509183525050600682015460209091019060ff166002811115610cda57fe5b6002811115610ce557fe5b8152600691909101546101009004600160a060020a031660209091015292915050565b6000610d1a818363ffffffff61283116565b92915050565b6060806000610d2e33610d08565b1515610d3957600080fd5b600454604080518281526020808402820101909152908015610d7557816020015b610d62613027565b815260200190600190039081610d5a5790505b509150600090505b60045481101561100b5760036000600483815481101515610d9a57fe5b600091825260208083209190910154600160a060020a0316835282810193909352604091820190208151610100808201845282548252600180840180548651600293821615909402600019011691909104601f81018790048702830187019095528482529194929385840193919291830182828015610e5a5780601f10610e2f57610100808354040283529160200191610e5a565b820191906000526020600020905b815481529060010190602001808311610e3d57829003601f168201915b5050509183525050600282810180546040805160206001841615610100026000190190931694909404601f81018390048302850183019091528084529381019390830182828015610eec5780601f10610ec157610100808354040283529160200191610eec565b820191906000526020600020905b815481529060010190602001808311610ecf57829003601f168201915b505050505081526020016003820154815260200160048201548152602001600582018054600181600116156101000203166002900480601f016020809104026020016040519081016040528092919081815260200182805460018160011615610100020316600290048015610fa25780601f10610f7757610100808354040283529160200191610fa2565b820191906000526020600020905b815481529060010190602001808311610f8557829003601f168201915b5050509183525050600682015460209091019060ff166002811115610fc357fe5b6002811115610fce57fe5b8152600691909101546101009004600160a060020a03166020909101528251839083908110610ff957fe5b60209081029091010152600101610d7d565b50919050565b606080600060028054905060405190808252806020026020018201604052801561105557816020015b611042613078565b81526020019060019003908161103a5790505b509150600090505b60025481101561100b576001600060028381548110151561107a57fe5b9060005260206000200154815260200190815260200160002061014060405190810160405290816000820154815260200160018201548152602001600282018054600181600116156101000203166002900480601f01602080910402602001604051908101604052809291908181526020018280546001816001161561010002031660029004801561114d5780601f106111225761010080835404028352916020019161114d565b820191906000526020600020905b81548152906001019060200180831161113057829003601f168201915b505050918352505060038201805460408051602060026001851615610100026000190190941693909304601f81018490048402820184019092528181529382019392918301828280156111e15780601f106111b6576101008083540402835291602001916111e1565b820191906000526020600020905b8154815290600101906020018083116111c457829003601f168201915b505050918352505060048201805460408051602060026001851615610100026000190190941693909304601f81018490048402820184019092528181529382019392918301828280156112755780601f1061124a57610100808354040283529160200191611275565b820191906000526020600020905b81548152906001019060200180831161125857829003601f168201915b505050918352505060058201805460408051602060026001851615610100026000190190941693909304601f81018490048402820184019092528181529382019392918301828280156113095780601f106112de57610100808354040283529160200191611309565b820191906000526020600020905b8154815290600101906020018083116112ec57829003601f168201915b505050918352505060068201805460408051602060026001851615610100026000190190941693909304601f810184900484028201840190925281815293820193929183018282801561139d5780601f106113725761010080835404028352916020019161139d565b820191906000526020600020905b81548152906001019060200180831161138057829003601f168201915b50505050508152602001600782018054806020026020016040519081016040528092919081815260200182805480156113f557602002820191906000526020600020905b8154815260200190600101908083116113e1575b505050505081526020016008820180548060200260200160405190810160405280929190818152602001828054801561144d57602002820191906000526020600020905b815481526020019060010190808311611439575b50505050508152602001600982018054806020026020016040519081016040528092919081815260200182805480156114af57602002820191906000526020600020905b8154600160a060020a03168152600190910190602001808311611491575b50505050508152505082828151811015156114c657fe5b6020908102909101015260010161105d565b600080805b60045481101561100b573360009081526003602081905260408220810154600480549193918590811061150c57fe5b6000918252602080832090910154600160a060020a03168352820192909252604001902060030154148015611589575060026003600060048481548110151561155157fe5b6000918252602080832090910154600160a060020a0316835282019290925260400190206006015460ff16600281111561158757fe5b145b15611595576001909101905b6001016114dd565b60008115156115c15760405160e560020a62461bcd02815260040161038f90613e73565b600086116115e45760405160e560020a62461bcd02815260040161038f90613e83565b33600090815260036020526040902054156116145760405160e560020a62461bcd02815260040161038f90613dc3565b61161d82612868565b151561163e5760405160e560020a62461bcd02815260040161038f90613e23565b6116478661287b565b905061165c8686868585886001336000612a6a565b505050505050565b600061166f33610d08565b151561167a57600080fd5b506002545b90565b61168a613027565b611692613027565b336000908152600360209081526040918290208251610100808201855282548252600180840180548751600293821615909402600019011691909104601f810186900486028301860190965285825291949293858101939192919083018282801561173e5780601f106117135761010080835404028352916020019161173e565b820191906000526020600020905b81548152906001019060200180831161172157829003601f168201915b5050509183525050600282810180546040805160206001841615610100026000190190931694909404601f810183900483028501830190915280845293810193908301828280156117d05780601f106117a5576101008083540402835291602001916117d0565b820191906000526020600020905b8154815290600101906020018083116117b357829003601f168201915b505050505081526020016003820154815260200160048201548152602001600582018054600181600116156101000203166002900480601f0160208091040260200160405190810160405280929190818152602001828054600181600116156101000203166002900480156118865780601f1061185b57610100808354040283529160200191611886565b820191906000526020600020905b81548152906001019060200180831161186957829003601f168201915b5050509183525050600682015460209091019060ff1660028111156118a757fe5b60028111156118b257fe5b8152600691909101546101009004600160a060020a031660209091015291508190505b5090565b60606000806000606060006118ef600a886121dc565b60025490955061190090600a612215565b600254909450158061191757506002546000190185115b8061192157508387115b1561192b57611dea565b60408051600a80825261016082019092526000945090816020015b61194e613078565b8152602001906001900390816119465790505091508490505b600254811015611de6576001600060028381548110151561198457fe5b9060005260206000200154815260200190815260200160002061014060405190810160405290816000820154815260200160018201548152602001600282018054600181600116156101000203166002900480601f016020809104026020016040519081016040528092919081815260200182805460018160011615610100020316600290048015611a575780601f10611a2c57610100808354040283529160200191611a57565b820191906000526020600020905b815481529060010190602001808311611a3a57829003601f168201915b505050918352505060038201805460408051602060026001851615610100026000190190941693909304601f8101849004840282018401909252818152938201939291830182828015611aeb5780601f10611ac057610100808354040283529160200191611aeb565b820191906000526020600020905b815481529060010190602001808311611ace57829003601f168201915b505050918352505060048201805460408051602060026001851615610100026000190190941693909304601f8101849004840282018401909252818152938201939291830182828015611b7f5780601f10611b5457610100808354040283529160200191611b7f565b820191906000526020600020905b815481529060010190602001808311611b6257829003601f168201915b505050918352505060058201805460408051602060026001851615610100026000190190941693909304601f8101849004840282018401909252818152938201939291830182828015611c135780601f10611be857610100808354040283529160200191611c13565b820191906000526020600020905b815481529060010190602001808311611bf657829003601f168201915b505050918352505060068201805460408051602060026001851615610100026000190190941693909304601f8101849004840282018401909252818152938201939291830182828015611ca75780601f10611c7c57610100808354040283529160200191611ca7565b820191906000526020600020905b815481529060010190602001808311611c8a57829003601f168201915b5050505050815260200160078201805480602002602001604051908101604052809291908181526020018280548015611cff57602002820191906000526020600020905b815481526020019060010190808311611ceb575b5050505050815260200160088201805480602002602001604051908101604052809291908181526020018280548015611d5757602002820191906000526020600020905b815481526020019060010190808311611d43575b5050505050815260200160098201805480602002602001604051908101604052809291908181526020018280548015611db957602002820191906000526020600020905b8154600160a060020a03168152600190910190602001808311611d9b575b5050505050815250508284815181101515611dd057fe5b6020908102909101015260019283019201611967565b8195505b5050505050919050565b611dfd33612ebe565b565b611e0833610d08565b1515611e1357600080fd5b6104e381612f06565b600080611e2833610d08565b1515611e3357600080fd5b60008811611e565760405160e560020a62461bcd02815260040161038f90613e83565b611e5f8861287b565b60008181526001602052604090205490915015611e915760405160e560020a62461bcd02815260040161038f90613e13565b611ea081898989898989612238565b979650505050505050565b600160a060020a03818116600090815260036020526040812060060154909182918291610100909104168110611ef65760405160e560020a62461bcd02815260040161038f90613dd3565b6002600160a060020a03851660009081526003602052604090206006015460ff166002811115611f2257fe5b14611f425760405160e560020a62461bcd02815260040161038f90613e53565b600160a060020a03841660009081526003602052604090206004810154815460069092015490945090925060ff166002811115611f7b57fe5b9050611f8f82898989878a878b6001612a6a565b5050505050505050565b611fa233610d08565b1515611fad57600080fd5b600160a060020a03811660009081526003602081905260409091200154611fd4908261206d565b604080518082018252600b81527f53757065722061646d696e0000000000000000000000000000000000000000006020808301918252600160a060020a0385166000908152600390915292909220905161203492600590920191906130cc565b50600160a060020a0381166000908152600360208190526040822090810191909155600601805460ff191660021790556104e381611dff565b6000805b6000848152600160205260409020600901546000190181101561216d5760008481526001602052604090206009018054600160a060020a0385169190839081106120b757fe5b600091825260209091200154600160a060020a031614156120d757600191505b811561216557600084815260016020819052604090912060090180549091830190811061210057fe5b6000918252602080832090910154868352600190915260409091206009018054600160a060020a03909216918390811061213657fe5b9060005260206000200160006101000a815481600160a060020a030219169083600160a060020a031602179055505b600101612071565b60008481526001602052604090206009018054600019810190811061218e57fe5b60009182526020808320909101805473ffffffffffffffffffffffffffffffffffffffff1916905585825260019052604090206009018054906121d5906000198301613146565b5050505050565b6000808315156121ef576000915061220e565b508282028284828115156121ff57fe5b041461220a57600080fd5b8091505b5092915050565b60008080831161222457600080fd5b828481151561222f57fe5b04949350505050565b612240613078565b855115156122635760405160e560020a62461bcd02815260040161038f90613e63565b825115156122865760405160e560020a62461bcd02815260040161038f90613e43565b815115156122a95760405160e560020a62461bcd02815260040161038f90613e33565b6000888152600160208181526040928390208351610140810185528154815281840154818401526002808301805487519681161561010002600019011691909104601f8101859004850286018501875280865291959294928601939091908301828280156123585780601f1061232d57610100808354040283529160200191612358565b820191906000526020600020905b81548152906001019060200180831161233b57829003601f168201915b505050918352505060038201805460408051602060026001851615610100026000190190941693909304601f81018490048402820184019092528181529382019392918301828280156123ec5780601f106123c1576101008083540402835291602001916123ec565b820191906000526020600020905b8154815290600101906020018083116123cf57829003601f168201915b505050918352505060048201805460408051602060026001851615610100026000190190941693909304601f81018490048402820184019092528181529382019392918301828280156124805780601f1061245557610100808354040283529160200191612480565b820191906000526020600020905b81548152906001019060200180831161246357829003601f168201915b505050918352505060058201805460408051602060026001851615610100026000190190941693909304601f81018490048402820184019092528181529382019392918301828280156125145780601f106124e957610100808354040283529160200191612514565b820191906000526020600020905b8154815290600101906020018083116124f757829003601f168201915b505050918352505060068201805460408051602060026001851615610100026000190190941693909304601f81018490048402820184019092528181529382019392918301828280156125a85780601f1061257d576101008083540402835291602001916125a8565b820191906000526020600020905b81548152906001019060200180831161258b57829003601f168201915b505050505081526020016007820180548060200260200160405190810160405280929190818152602001828054801561260057602002820191906000526020600020905b8154815260200190600101908083116125ec575b505050505081526020016008820180548060200260200160405190810160405280929190818152602001828054801561265857602002820191906000526020600020905b815481526020019060010190808311612644575b50505050508152602001600982018054806020026020016040519081016040528092919081815260200182805480156126ba57602002820191906000526020600020905b8154600160a060020a0316815260019091019060200180831161269c575b50505091909252505050888152602080820189815260408084018a8152606085018a90526080850189905260a0850188905260c0850187905260008d815260018086529290208551815592519183019190915551805193945084939192612729926002850192909101906130cc565b50606082015180516127459160038401916020909101906130cc565b50608082015180516127619160048401916020909101906130cc565b5060a0820151805161277d9160058401916020909101906130cc565b5060c082015180516127999160068401916020909101906130cc565b5060e082015180516127b591600784019160209091019061316f565b5061010082015180516127d291600884019160209091019061316f565b5061012082015180516127ef9160098401916020909101906131a9565b5050600280546001810182556000919091527f405787fa12a823e0f2b7631cc41b3ba8828b3321ca811111fa75cd3aa3bb5ace01989098555050505050505050565b6000600160a060020a038216151561284857600080fd5b50600160a060020a03166000908152602091909152604090205460ff1690565b6000908152600160205260408120541190565b600080808060028506151561290d5784604051602001808281526020019150506040516020818303038152906040526040518082805190602001908083835b602083106128d95780518252601f1990920191602091820191016128ba565b6001836020036101000a038019825116818451168082178552505050505050905001915050604051809103902092506129f8565b84604051602001808281526020019150506040516020818303038152906040526040518082805190602001908083835b6020831061295c5780518252601f19909201916020918201910161293d565b51815160209384036101000a600019018019909216911617905260408051929094018290038220828201528351808303820181529184019384905281519195509293508392850191508083835b602083106129c85780518252601f1990920191602091820191016129a9565b6001836020036101000a038019825116818451168082178552505050505050905001915050604051809103902092505b6020811015612a2557828160208110612a0d57fe5b60f860020a91901a81020491909101906001016129f8565b826020600284010660208110612a3757fe5b60f860020a91901a810204836020840660208110612a5157fe5b1a60f860020a0260f860020a9004029350505050919050565b612a72613027565b600084101580612a83575060028411155b1515612aa45760405160e560020a62461bcd02815260040161038f90613e03565b84511515612ac75760405160e560020a62461bcd02815260040161038f90613da3565b600160a060020a0383166000908152600360209081526040918290208251610100808201855282548252600180840180548751600293821615909402600019011691909104601f8101869004860283018601909652858252919492938581019391929190830182828015612b7c5780601f10612b5157610100808354040283529160200191612b7c565b820191906000526020600020905b815481529060010190602001808311612b5f57829003601f168201915b5050509183525050600282810180546040805160206001841615610100026000190190931694909404601f81018390048302850183019091528084529381019390830182828015612c0e5780601f10612be357610100808354040283529160200191612c0e565b820191906000526020600020905b815481529060010190602001808311612bf157829003601f168201915b505050505081526020016003820154815260200160048201548152602001600582018054600181600116156101000203166002900480601f016020809104026020016040519081016040528092919081815260200182805460018160011615610100020316600290048015612cc45780601f10612c9957610100808354040283529160200191612cc4565b820191906000526020600020905b815481529060010190602001808311612ca757829003601f168201915b5050509183525050600682015460209091019060ff166002811115612ce557fe5b6002811115612cf057fe5b8152600691909101546101009004600160a060020a03166020918201528b825281018a905260408101899052606081018890526080810187905260a081018690529050836002811115612d3f57fe5b8160c001906002811115612d4f57fe5b90816002811115612d5c57fe5b905250600160a060020a03831660e082018190526000908152600360209081526040909120825181558183015180518493612d9e9260018501929101906130cc565b5060408201518051612dba9160028401916020909101906130cc565b50606082015160038201556080820151600482015560a08201518051612dea9160058401916020909101906130cc565b5060c082015160068201805460ff19166001836002811115612e0857fe5b021790555060e0919091015160069091018054600160a060020a039092166101000274ffffffffffffffffffffffffffffffffffffffff0019909216919091179055811515612eb257600480546001810182556000919091527f8a35acfbc15ff81a39ae7d344fd709f28e8600b4aa8c65c6b64bfe7fe36bd19b01805473ffffffffffffffffffffffffffffffffffffffff1916600160a060020a038516179055612eb287612f4e565b50505050505050505050565b612ecf60008263ffffffff612f8d16565b604051600160a060020a038216907f3525e22824a8a7df2c9a6029941c824cf95b6447f1e13d5128fd3826d35afe8b90600090a250565b612f1760008263ffffffff612fd916565b604051600160a060020a038216907f47d1c22a25bb3a5d4e481b9b1e6944c2eade3181a0a20b495ed61d35b5323f2490600090a250565b6000908152600160208181526040832060090180549283018155835290912001805473ffffffffffffffffffffffffffffffffffffffff191633179055565b600160a060020a0381161515612fa257600080fd5b612fac8282612831565b1515612fb757600080fd5b600160a060020a0316600090815260209190915260409020805460ff19169055565b600160a060020a0381161515612fee57600080fd5b612ff88282612831565b1561300257600080fd5b600160a060020a0316600090815260209190915260409020805460ff19166001179055565b610100604051908101604052806000815260200160608152602001606081526020016000815260200160008152602001606081526020016000600281111561306b57fe5b8152600060209091015290565b61014060405190810160405280600081526020016000815260200160608152602001606081526020016060815260200160608152602001606081526020016060815260200160608152602001606081525090565b828054600181600116156101000203166002900490600052602060002090601f016020900481019282601f1061310d57805160ff191683800117855561313a565b8280016001018555821561313a579182015b8281111561313a57825182559160200191906001019061311f565b506118d5929150613217565b81548183558181111561316a5760008381526020902061316a918101908301613217565b505050565b82805482825590600052602060002090810192821561313a579160200282018281111561313a57825182559160200191906001019061311f565b82805482825590600052602060002090810192821561320b579160200282015b8281111561320b578251825473ffffffffffffffffffffffffffffffffffffffff1916600160a060020a039091161782556020909201916001909101906131c9565b506118d5929150613231565b61167f91905b808211156118d5576000815560010161321d565b61167f91905b808211156118d557805473ffffffffffffffffffffffffffffffffffffffff19168155600101613237565b600061326e8235613f0b565b9392505050565b6000601f8201831361328657600080fd5b813561329961329482613ed9565b613eb2565b915080825260208301602083018583830111156132b557600080fd5b6132c0838284613f33565b50505092915050565b600061326e823561167f565b6000602082840312156132e757600080fd5b60006132f38484613262565b949350505050565b600080600080600060a0868803121561331357600080fd5b853567ffffffffffffffff81111561332a57600080fd5b61333688828901613275565b955050602086013567ffffffffffffffff81111561335357600080fd5b61335f88828901613275565b9450506040613370888289016132c9565b935050606086013567ffffffffffffffff81111561338d57600080fd5b61339988828901613275565b92505060806133aa88828901613262565b9150509295509295909350565b6000602082840312156133c957600080fd5b60006132f384846132c9565b60008060008060008060c087890312156133ee57600080fd5b60006133fa89896132c9565b965050602087013567ffffffffffffffff81111561341757600080fd5b61342389828a01613275565b955050604087013567ffffffffffffffff81111561344057600080fd5b61344c89828a01613275565b945050606087013567ffffffffffffffff81111561346957600080fd5b61347589828a01613275565b935050608087013567ffffffffffffffff81111561349257600080fd5b61349e89828a01613275565b92505060a087013567ffffffffffffffff8111156134bb57600080fd5b6134c789828a01613275565b9150509295509295509295565b600080600080600060a086880312156134ec57600080fd5b60006134f888886132c9565b955050602086013567ffffffffffffffff81111561351557600080fd5b61352188828901613275565b945050604086013567ffffffffffffffff81111561353e57600080fd5b61354a88828901613275565b935050606086013567ffffffffffffffff81111561356757600080fd5b61357388828901613275565b92505060806133aa888289016132c9565b600080600080600080600060e0888a03121561359f57600080fd5b60006135ab8a8a6132c9565b97505060206135bc8a828b016132c9565b965050604088013567ffffffffffffffff8111156135d957600080fd5b6135e58a828b01613275565b955050606088013567ffffffffffffffff81111561360257600080fd5b61360e8a828b01613275565b945050608088013567ffffffffffffffff81111561362b57600080fd5b6136378a828b01613275565b93505060a088013567ffffffffffffffff81111561365457600080fd5b6136608a828b01613275565b92505060c088013567ffffffffffffffff81111561367d57600080fd5b6136898a828b01613275565b91505092959891949750929550565b6136a181613f0b565b82525050565b60006136b282613f07565b8084526020840193506136c483613f01565b60005b828110156136f4576136da868351613698565b6136e382613f01565b6020969096019591506001016136c7565b5093949350505050565b600061370982613f07565b8084526020840193508360208202850161372285613f01565b60005b8481101561375957838303885261373d838351613ba0565b925061374882613f01565b602098909801979150600101613725565b50909695505050505050565b600061377082613f07565b8084526020840193508360208202850161378985613f01565b60005b848110156137595783830388526137a4838351613ca3565b92506137af82613f01565b60209890980197915060010161378c565b60006137cb82613f07565b8084526020840193506137dd83613f01565b60005b828110156136f4576137f3868351613d5a565b6137fc82613f01565b6020969096019591506001016137e0565b6136a181613f17565b6136a181613f28565b600061382a82613f07565b80845261383e816020860160208601613f3f565b61384781613f6f565b9093016020019392505050565b601a81527f4372656174696f6e204461746520697320696e6d757461626c65000000000000602082015260400190565b601181527f726f6c65206973206d616e6461746f7279000000000000000000000000000000602082015260400190565b602281527f4f6e6c792070656e64696e672075736572732063616e2062652061636365707460208201527f6564000000000000000000000000000000000000000000000000000000000000604082015260600190565b601381527f5573657220616c72656164792065786973747300000000000000000000000000602082015260400190565b601481527f546869732075736572206e6f7420657869737473000000000000000000000000602082015260400190565b601b81527f596f752063616e6e6f7420616363657074207468697320757365720000000000602082015260400190565b602281527f4f6e6c792070656e64696e672075736572732063616e2062652072656a65637460208201527f6564000000000000000000000000000000000000000000000000000000000000604082015260600190565b601381527f737461747573206973206e6f742076616c696400000000000000000000000000602082015260400190565b601581527f4d656d62657220616c7265616479206578697374730000000000000000000000602082015260400190565b601181527f4d656d626572206e6f7420657869737473000000000000000000000000000000602082015260400190565b601281527f5468656d65206973206d616e6461746f72790000000000000000000000000000602082015260400190565b601081527f434d4f206973206d616e6461746f727900000000000000000000000000000000602082015260400190565b601481527f596f7520617265206e6f74206163636570746564000000000000000000000000602082015260400190565b601181527f4e616d65206973206d616e6461746f7279000000000000000000000000000000602082015260400190565b601181527f4e6f2076616c6964206d656d6265724964000000000000000000000000000000602082015260400190565b601981527f4372656174696f6e44617465206973206d616e6461746f727900000000000000602082015260400190565b8051600090610140840190613bb58582613d5a565b506020830151613bc86020860182613d5a565b5060408301518482036040860152613be0828261381f565b91505060608301518482036060860152613bfa828261381f565b91505060808301518482036080860152613c14828261381f565b91505060a083015184820360a0860152613c2e828261381f565b91505060c083015184820360c0860152613c48828261381f565b91505060e083015184820360e0860152613c6282826137c0565b915050610100830151848203610100860152613c7e82826137c0565b915050610120830151848203610120860152613c9a82826136a7565b95945050505050565b8051600090610100840190613cb88582613d5a565b5060208301518482036020860152613cd0828261381f565b91505060408301518482036040860152613cea828261381f565b9150506060830151613cff6060860182613d5a565b506080830151613d126080860182613d5a565b5060a083015184820360a0860152613d2a828261381f565b91505060c0830151613d3f60c0860182613816565b5060e0830151613d5260e0860182613698565b509392505050565b6136a18161167f565b6020808252810161326e81846136fe565b6020808252810161326e8184613765565b60208101610d1a828461380d565b60208082528101610d1a81613854565b60208082528101610d1a81613884565b60208082528101610d1a816138b4565b60208082528101610d1a8161390a565b60208082528101610d1a8161393a565b60208082528101610d1a8161396a565b60208082528101610d1a8161399a565b60208082528101610d1a816139f0565b60208082528101610d1a81613a20565b60208082528101610d1a81613a50565b60208082528101610d1a81613a80565b60208082528101610d1a81613ab0565b60208082528101610d1a81613ae0565b60208082528101610d1a81613b10565b60208082528101610d1a81613b40565b60208082528101610d1a81613b70565b6020808252810161326e8184613ca3565b60208101610d1a8284613d5a565b60405181810167ffffffffffffffff81118282101715613ed157600080fd5b604052919050565b600067ffffffffffffffff821115613ef057600080fd5b506020601f91909101601f19160190565b60200190565b5190565b600160a060020a031690565b151590565b6000600382106118d557fe5b6000610d1a82613f1c565b82818337506000910152565b60005b83811015613f5a578181015183820152602001613f42565b83811115613f69576000848401525b50505050565b601f01601f1916905600a265627a7a72305820407079a186098e100e2cc14b82291ecaf7d085b731178997b20349e674f867ca6c6578706572696d656e74616cf50037",
  "source": "pragma solidity ^0.4.24;\npragma experimental ABIEncoderV2;\n\nimport \"./Members.sol\";\n\ncontract Users is Members {\n\n\n  struct User {\n    uint256 creationDate;\n    string firstName;\n    string lastName;\n    uint256 memberId;\n    uint256 requestId;\n    string role;\n    StatusUserEnum status;\n    address owner;\n  }\n\n  enum StatusUserEnum {\n    REJECTED,\n    PENDING,\n    ACCEPTED\n  }\n\n  mapping (address => User) private users_;\n  address[] private usersList_;\n\n  uint256 constant private PAGE_SIZE = 10;\n\n  // PUBLIC\n\n  function registerUserRequest(uint256 _creationDate, string _firstName, string _lastName, string _role, uint256 _memberId) public {\n\n    require(_memberId != 0, \"No valid memberId\");\n    require(_creationDate > 0, \"CreationDate is mandatory\");\n    require(users_[msg.sender].creationDate == 0, \"User already exists\");\n    require(_memberExists(_memberId), \"Member not exists\");\n\n    uint256 _requestId = Random.rand(_creationDate);\n    _saveUser(_creationDate, _firstName, _lastName, _memberId, _requestId, _role, uint256(StatusUserEnum.PENDING), msg.sender, 0);\n  }\n\n  function updateUser(string _firstName, string _lastName, uint256 _memberId, string _role, address owner) public {\n\n    require(users_[owner].owner > address(0), \"This user not exists\");\n    require(uint(users_[owner].status) == uint(StatusUserEnum.ACCEPTED), \"You are not accepted\");\n\n    uint256 _requestId = users_[owner].requestId;\n    uint256 _creationDate = users_[owner].creationDate;\n    uint256 _status = uint(users_[owner].status);\n\n    _saveUser(_creationDate, _firstName, _lastName, _memberId, _requestId, _role, _status, owner, 1);\n  }\n\n  function rejectUser(address _userToReject) public {\n\n    require(users_[_userToReject].owner > address(0), \"This user not exists\");\n    require((users_[msg.sender].memberId == users_[_userToReject].memberId) || isSigner(msg.sender), \"You cannot accept this user\");\n    require((uint(users_[msg.sender].status) == uint(StatusUserEnum.ACCEPTED)) || isSigner(msg.sender), \"You are not accepted\");\n    require(users_[_userToReject].status == StatusUserEnum.PENDING, \"Only pending users can be rejected\");\n\n    users_[_userToReject].status = StatusUserEnum.REJECTED;\n    _clearUserFromMemberRequest(users_[_userToReject].memberId, _userToReject);\n  }\n\n  function acceptUser(address _userToAccept) public {\n\n    require(users_[_userToAccept].owner > address(0), \"This user not exists\");\n    require((users_[msg.sender].memberId == users_[_userToAccept].memberId) || isSigner(msg.sender), \"You cannot accept this user\");\n    require((uint(users_[msg.sender].status) == uint(StatusUserEnum.ACCEPTED)) || isSigner(msg.sender), \"You are not accepted\");\n    require(users_[_userToAccept].status == StatusUserEnum.PENDING, \"Only pending users can be accepted\");\n\n    users_[_userToAccept].status = StatusUserEnum.ACCEPTED;\n    _clearUserFromMemberRequest(users_[_userToAccept].memberId, _userToAccept);\n  }\n\n  function getcountUsers() public view returns(uint) {\n    uint256 counter = 0;\n    for (uint i = 0; i < usersList_.length; ++i) {\n      if(users_[usersList_[i]].memberId == users_[msg.sender].memberId\n        && users_[usersList_[i]].status == StatusUserEnum.ACCEPTED) {\n        counter++;\n      }\n    }\n    return counter;\n  }\n\n  function whitelistAdmin(address account) public onlySigner {\n    _clearUserFromMemberRequest(users_[account].memberId, account);\n    users_[account].role = \"Super admin\";\n    users_[account].memberId = 0;\n    users_[account].status = StatusUserEnum.ACCEPTED;\n    addSigner(account);\n\n  }\n\n  function getUsers(uint256 _page) public view returns(User[] memory) {\n    uint256 counter = getcountUsers();\n\n    uint256 pageIndex = SafeMath.mul(PAGE_SIZE, _page);\n    uint256 pageNumber = SafeMath.div(usersList_.length, PAGE_SIZE);\n\n    if (counter == 0 || pageIndex > counter || _page > pageNumber) {\n      return;\n    }\n\n    User[] memory userPageBasic = new User[](PAGE_SIZE);\n    uint256 counterFinal = 0;\n\n    for (uint j = pageIndex; j < usersList_.length; ++j) {\n      if(users_[usersList_[j]].memberId == users_[msg.sender].memberId\n        && users_[usersList_[j]].status == StatusUserEnum.ACCEPTED) {\n        userPageBasic[counterFinal] = users_[usersList_[j]];\n        ++counterFinal;\n      }\n    }\n    return userPageBasic;\n  }\n\n  function getUserByAddress(address userAddress) public view returns(User memory) {\n    return users_[userAddress];\n  }\n\n  function getUsersOwner() onlySigner public view returns(User[] memory) {\n    User[] memory userPageOwner = new User[](usersList_.length);\n\n    for (uint i = 0; i < usersList_.length; ++i) {\n      userPageOwner[i] = users_[usersList_[i]];\n    }\n\n    return userPageOwner;\n  }\n\n  function getMe() public view returns(User) {\n    //TODO: require\n    User memory user = users_[msg.sender];\n    return user;\n  }\n\n  // PRIVATE\n\n  function _saveUser(uint256 _creationDate, string _firstName, string _lastName, uint256 _memberId,\n    uint256 _requestId, string _role, uint256 _status, address owner, uint isCreate) internal {\n\n    require(_status >= 0 || _status <=2, \"status is not valid\");\n    require(bytes(_role).length != 0, \"role is mandatory\");\n\n    User memory user = users_[owner];\n\n    user.creationDate =  _creationDate;\n    user.firstName =  _firstName;\n    user.lastName =  _lastName;\n    user.memberId =  _memberId;\n    user.requestId =  _requestId;\n    user.role = _role;\n    user.status = StatusUserEnum(_status);\n    user.owner = owner;\n\n    users_[owner] = user;\n\n    if(isCreate == 0) {\n      usersList_.push(owner);\n      _addUserToMemberRequest(_memberId);\n    }\n  }\n\n  function _memberIdFromCurrentAddress() view internal returns(uint256) {\n    return users_[msg.sender].memberId;\n  }\n\n//  function bytesToUint8(bytes b) public pure returns (uint8){\n//    uint8 number;\n//    for(uint8 i=0;i<b.length;i++){\n//      number = uint8(number + uint8(b[i])*(2**(8*(b.length-(i+1)))));\n//    }\n//    return number;\n//  }\n//\n//  function stringToUint(string s) public pure returns (uint8) {\n//    bytes memory b = bytes(s);\n//    uint8 result = 0;\n//    uint8 oldResult = 0;\n//    for (uint8 i = 0; i < b.length; i++) { // c = b[i] was not needed\n//      if (b[i] >= 48 && b[i] <= 57) {\n//        // store old value so we can check for overflows\n//        oldResult = result;\n//        result = result * 10 + (uint8(b[i]) - 48); // bytes and int are not compatible with the operator -.\n//        // prevent overflows\n////        if(oldResult > result ) {\n////          // we can only get here if the result overflowed and is smaller than last stored value\n////          hasError = true;\n////        }\n//      }\n////     else {\n////        hasError = true;\n////      }\n//    }\n//    return result;\n//  }\n//\n//  function parseInt(string _a, uint _b) public returns (uint) {\n//    bytes memory bresult = bytes(_a);\n//    uint mint = 0;\n//    bool decimals = false;\n//    for (uint i = 0; i < bresult.length; i++) {\n//      if ((bresult[i] >= 48) && (bresult[i] <= 57)) {\n//        if (decimals) {\n//          if (_b == 0) break;\n//          else _b--;\n//        }\n//        mint *= 10;\n//        mint += uint(bresult[i]) - 48;\n//      } else if (bresult[i] == 46) decimals = true;\n//    }\n//    return mint;\n//  }\n\n}\n",
  "sourcePath": "/home/komodo/newUI/bloomen-decentralized-rights-management-v2/truffle/contracts/registry/Users.sol",
  "compiler": {
    "name": "solc",
    "version": "0.4.24+commit.e67f0147.Emscripten.clang"
  },
  "schemaVersion": "2.0.1",
  "updatedAt": "2019-11-28T14:37:32.673Z"
}