{
  "contractName": "Users",
  "abi": [
    {
      "constant": false,
      "inputs": [
        {
          "name": "_cmo",
          "type": "string"
        }
      ],
      "name": "addCMO",
      "outputs": [],
      "payable": false,
      "stateMutability": "nonpayable",
      "type": "function"
    },
    {
      "constant": true,
      "inputs": [
        {
          "name": "_memberId",
          "type": "uint256"
        }
      ],
      "name": "_getClaimsIdByMember",
      "outputs": [
        {
          "name": "",
          "type": "uint256[]"
        }
      ],
      "payable": false,
      "stateMutability": "view",
      "type": "function"
    },
    {
      "constant": true,
      "inputs": [],
      "name": "getCMOs",
      "outputs": [
        {
          "name": "",
          "type": "string[]"
        }
      ],
      "payable": false,
      "stateMutability": "view",
      "type": "function"
    },
    {
      "constant": false,
      "inputs": [
        {
          "name": "_memberId",
          "type": "uint256"
        },
        {
          "name": "_claimId",
          "type": "uint256"
        }
      ],
      "name": "_addClaimFromInbox",
      "outputs": [],
      "payable": false,
      "stateMutability": "nonpayable",
      "type": "function"
    },
    {
      "constant": true,
      "inputs": [
        {
          "name": "account",
          "type": "address"
        }
      ],
      "name": "isSigner",
      "outputs": [
        {
          "name": "",
          "type": "bool"
        }
      ],
      "payable": false,
      "stateMutability": "view",
      "type": "function"
    },
    {
      "constant": false,
      "inputs": [
        {
          "name": "_memberId",
          "type": "uint256"
        },
        {
          "name": "_claimId",
          "type": "uint256"
        }
      ],
      "name": "_removeClaimFromInbox",
      "outputs": [],
      "payable": false,
      "stateMutability": "nonpayable",
      "type": "function"
    },
    {
      "constant": false,
      "inputs": [
        {
          "name": "currentCMO",
          "type": "string"
        },
        {
          "name": "currentCMOId",
          "type": "uint256"
        }
      ],
      "name": "_getMemberIdsOfCurrentCMO",
      "outputs": [
        {
          "name": "",
          "type": "uint256[]"
        }
      ],
      "payable": false,
      "stateMutability": "nonpayable",
      "type": "function"
    },
    {
      "constant": true,
      "inputs": [],
      "name": "getMembers",
      "outputs": [
        {
          "components": [
            {
              "name": "memberId",
              "type": "uint256"
            },
            {
              "name": "creationDate",
              "type": "uint256"
            },
            {
              "name": "name",
              "type": "string"
            },
            {
              "name": "logo",
              "type": "string"
            },
            {
              "name": "country",
              "type": "string"
            },
            {
              "name": "cmo",
              "type": "string"
            },
            {
              "name": "theme",
              "type": "string"
            },
            {
              "name": "claimInbox",
              "type": "uint256[]"
            },
            {
              "name": "claims",
              "type": "uint256[]"
            },
            {
              "name": "userRequests",
              "type": "address[]"
            },
            {
              "name": "totalTokens",
              "type": "uint256"
            }
          ],
          "name": "",
          "type": "tuple[]"
        }
      ],
      "payable": false,
      "stateMutability": "view",
      "type": "function"
    },
    {
      "constant": false,
      "inputs": [
        {
          "name": "_memberId",
          "type": "uint256"
        },
        {
          "name": "_claimId",
          "type": "uint256"
        }
      ],
      "name": "_removeClaimIdFromMember",
      "outputs": [],
      "payable": false,
      "stateMutability": "nonpayable",
      "type": "function"
    },
    {
      "constant": true,
      "inputs": [],
      "name": "getCount",
      "outputs": [
        {
          "name": "",
          "type": "uint256"
        }
      ],
      "payable": false,
      "stateMutability": "view",
      "type": "function"
    },
    {
      "constant": true,
      "inputs": [
        {
          "name": "_memberId",
          "type": "uint256"
        }
      ],
      "name": "_getClaimsCountByMember",
      "outputs": [
        {
          "name": "",
          "type": "uint256"
        }
      ],
      "payable": false,
      "stateMutability": "view",
      "type": "function"
    },
    {
      "constant": false,
      "inputs": [
        {
          "name": "_index",
          "type": "uint256"
        }
      ],
      "name": "deleteCMO",
      "outputs": [],
      "payable": false,
      "stateMutability": "nonpayable",
      "type": "function"
    },
    {
      "constant": true,
      "inputs": [
        {
          "name": "_page",
          "type": "uint256"
        }
      ],
      "name": "getMembers",
      "outputs": [
        {
          "components": [
            {
              "name": "memberId",
              "type": "uint256"
            },
            {
              "name": "creationDate",
              "type": "uint256"
            },
            {
              "name": "name",
              "type": "string"
            },
            {
              "name": "logo",
              "type": "string"
            },
            {
              "name": "country",
              "type": "string"
            },
            {
              "name": "cmo",
              "type": "string"
            },
            {
              "name": "theme",
              "type": "string"
            },
            {
              "name": "claimInbox",
              "type": "uint256[]"
            },
            {
              "name": "claims",
              "type": "uint256[]"
            },
            {
              "name": "userRequests",
              "type": "address[]"
            },
            {
              "name": "totalTokens",
              "type": "uint256"
            }
          ],
          "name": "",
          "type": "tuple[]"
        }
      ],
      "payable": false,
      "stateMutability": "view",
      "type": "function"
    },
    {
      "constant": false,
      "inputs": [
        {
          "name": "_memberId",
          "type": "uint256"
        },
        {
          "name": "_creationDate",
          "type": "uint256"
        },
        {
          "name": "_name",
          "type": "string"
        },
        {
          "name": "_logo",
          "type": "string"
        },
        {
          "name": "_country",
          "type": "string"
        },
        {
          "name": "_cmo",
          "type": "string"
        },
        {
          "name": "_theme",
          "type": "string"
        },
        {
          "name": "_totalTokens",
          "type": "uint256"
        }
      ],
      "name": "updateMember",
      "outputs": [],
      "payable": false,
      "stateMutability": "nonpayable",
      "type": "function"
    },
    {
      "constant": false,
      "inputs": [
        {
          "name": "_memberId",
          "type": "uint256"
        },
        {
          "name": "_claimId",
          "type": "uint256"
        }
      ],
      "name": "_addClaimIdToMemberOwner",
      "outputs": [],
      "payable": false,
      "stateMutability": "nonpayable",
      "type": "function"
    },
    {
      "constant": false,
      "inputs": [],
      "name": "renounceSigner",
      "outputs": [],
      "payable": false,
      "stateMutability": "nonpayable",
      "type": "function"
    },
    {
      "constant": false,
      "inputs": [
        {
          "name": "account",
          "type": "address"
        }
      ],
      "name": "addSigner",
      "outputs": [],
      "payable": false,
      "stateMutability": "nonpayable",
      "type": "function"
    },
    {
      "constant": true,
      "inputs": [
        {
          "name": "_memberId",
          "type": "uint256"
        }
      ],
      "name": "_memberExists",
      "outputs": [
        {
          "name": "",
          "type": "bool"
        }
      ],
      "payable": false,
      "stateMutability": "view",
      "type": "function"
    },
    {
      "constant": false,
      "inputs": [
        {
          "name": "_creationDate",
          "type": "uint256"
        },
        {
          "name": "_name",
          "type": "string"
        },
        {
          "name": "_logo",
          "type": "string"
        },
        {
          "name": "_country",
          "type": "string"
        },
        {
          "name": "_cmo",
          "type": "string"
        },
        {
          "name": "_theme",
          "type": "string"
        }
      ],
      "name": "addMember",
      "outputs": [
        {
          "name": "",
          "type": "uint256"
        }
      ],
      "payable": false,
      "stateMutability": "nonpayable",
      "type": "function"
    },
    {
      "anonymous": false,
      "inputs": [
        {
          "indexed": true,
          "name": "account",
          "type": "address"
        }
      ],
      "name": "SignerAdded",
      "type": "event"
    },
    {
      "anonymous": false,
      "inputs": [
        {
          "indexed": true,
          "name": "account",
          "type": "address"
        }
      ],
      "name": "SignerRemoved",
      "type": "event"
    },
    {
      "constant": false,
      "inputs": [
        {
          "name": "_creationDate",
          "type": "uint256"
        },
        {
          "name": "_firstName",
          "type": "string"
        },
        {
          "name": "_lastName",
          "type": "string"
        },
        {
          "name": "_role",
          "type": "string"
        },
        {
          "name": "_memberId",
          "type": "uint256"
        }
      ],
      "name": "registerUserRequest",
      "outputs": [],
      "payable": false,
      "stateMutability": "nonpayable",
      "type": "function"
    },
    {
      "constant": false,
      "inputs": [
        {
          "name": "_firstName",
          "type": "string"
        },
        {
          "name": "_lastName",
          "type": "string"
        },
        {
          "name": "_memberId",
          "type": "uint256"
        },
        {
          "name": "_role",
          "type": "string"
        },
        {
          "name": "owner",
          "type": "address"
        },
        {
          "name": "_tokens",
          "type": "uint256"
        }
      ],
      "name": "updateUser",
      "outputs": [],
      "payable": false,
      "stateMutability": "nonpayable",
      "type": "function"
    },
    {
      "constant": false,
      "inputs": [
        {
          "name": "_memberId",
          "type": "uint256"
        }
      ],
      "name": "getUsedTokens",
      "outputs": [
        {
          "name": "",
          "type": "uint256"
        }
      ],
      "payable": false,
      "stateMutability": "nonpayable",
      "type": "function"
    },
    {
      "constant": false,
      "inputs": [
        {
          "name": "_firstName",
          "type": "string"
        },
        {
          "name": "_lastName",
          "type": "string"
        },
        {
          "name": "_memberId",
          "type": "uint256"
        },
        {
          "name": "_role",
          "type": "string"
        },
        {
          "name": "owner",
          "type": "address"
        },
        {
          "name": "_groups",
          "type": "string[]"
        }
      ],
      "name": "updateSuperUser",
      "outputs": [],
      "payable": false,
      "stateMutability": "nonpayable",
      "type": "function"
    },
    {
      "constant": false,
      "inputs": [
        {
          "name": "_userToReject",
          "type": "address"
        }
      ],
      "name": "rejectUser",
      "outputs": [],
      "payable": false,
      "stateMutability": "nonpayable",
      "type": "function"
    },
    {
      "constant": false,
      "inputs": [
        {
          "name": "_userToAccept",
          "type": "address"
        }
      ],
      "name": "acceptUser",
      "outputs": [],
      "payable": false,
      "stateMutability": "nonpayable",
      "type": "function"
    },
    {
      "constant": true,
      "inputs": [],
      "name": "getcountUsers",
      "outputs": [
        {
          "name": "",
          "type": "uint256"
        }
      ],
      "payable": false,
      "stateMutability": "view",
      "type": "function"
    },
    {
      "constant": false,
      "inputs": [
        {
          "name": "account",
          "type": "address"
        },
        {
          "name": "_cmo",
          "type": "string"
        }
      ],
      "name": "whitelistAdmin",
      "outputs": [],
      "payable": false,
      "stateMutability": "nonpayable",
      "type": "function"
    },
    {
      "constant": true,
      "inputs": [
        {
          "name": "_page",
          "type": "uint256"
        }
      ],
      "name": "getUsers",
      "outputs": [
        {
          "components": [
            {
              "name": "creationDate",
              "type": "uint256"
            },
            {
              "name": "firstName",
              "type": "string"
            },
            {
              "name": "lastName",
              "type": "string"
            },
            {
              "name": "memberId",
              "type": "uint256"
            },
            {
              "name": "requestId",
              "type": "uint256"
            },
            {
              "name": "role",
              "type": "string"
            },
            {
              "name": "status",
              "type": "uint8"
            },
            {
              "name": "owner",
              "type": "address"
            },
            {
              "name": "cmo",
              "type": "string"
            },
            {
              "name": "groups",
              "type": "string[]"
            },
            {
              "name": "tokens",
              "type": "uint256"
            }
          ],
          "name": "",
          "type": "tuple[]"
        }
      ],
      "payable": false,
      "stateMutability": "view",
      "type": "function"
    },
    {
      "constant": true,
      "inputs": [
        {
          "name": "userAddress",
          "type": "address"
        }
      ],
      "name": "getUserByAddress",
      "outputs": [
        {
          "components": [
            {
              "name": "creationDate",
              "type": "uint256"
            },
            {
              "name": "firstName",
              "type": "string"
            },
            {
              "name": "lastName",
              "type": "string"
            },
            {
              "name": "memberId",
              "type": "uint256"
            },
            {
              "name": "requestId",
              "type": "uint256"
            },
            {
              "name": "role",
              "type": "string"
            },
            {
              "name": "status",
              "type": "uint8"
            },
            {
              "name": "owner",
              "type": "address"
            },
            {
              "name": "cmo",
              "type": "string"
            },
            {
              "name": "groups",
              "type": "string[]"
            },
            {
              "name": "tokens",
              "type": "uint256"
            }
          ],
          "name": "",
          "type": "tuple"
        }
      ],
      "payable": false,
      "stateMutability": "view",
      "type": "function"
    },
    {
      "constant": true,
      "inputs": [],
      "name": "getUsersOwner",
      "outputs": [
        {
          "components": [
            {
              "name": "creationDate",
              "type": "uint256"
            },
            {
              "name": "firstName",
              "type": "string"
            },
            {
              "name": "lastName",
              "type": "string"
            },
            {
              "name": "memberId",
              "type": "uint256"
            },
            {
              "name": "requestId",
              "type": "uint256"
            },
            {
              "name": "role",
              "type": "string"
            },
            {
              "name": "status",
              "type": "uint8"
            },
            {
              "name": "owner",
              "type": "address"
            },
            {
              "name": "cmo",
              "type": "string"
            },
            {
              "name": "groups",
              "type": "string[]"
            },
            {
              "name": "tokens",
              "type": "uint256"
            }
          ],
          "name": "",
          "type": "tuple[]"
        }
      ],
      "payable": false,
      "stateMutability": "view",
      "type": "function"
    },
    {
      "constant": true,
      "inputs": [],
      "name": "getMe",
      "outputs": [
        {
          "components": [
            {
              "name": "creationDate",
              "type": "uint256"
            },
            {
              "name": "firstName",
              "type": "string"
            },
            {
              "name": "lastName",
              "type": "string"
            },
            {
              "name": "memberId",
              "type": "uint256"
            },
            {
              "name": "requestId",
              "type": "uint256"
            },
            {
              "name": "role",
              "type": "string"
            },
            {
              "name": "status",
              "type": "uint8"
            },
            {
              "name": "owner",
              "type": "address"
            },
            {
              "name": "cmo",
              "type": "string"
            },
            {
              "name": "groups",
              "type": "string[]"
            },
            {
              "name": "tokens",
              "type": "uint256"
            }
          ],
          "name": "",
          "type": "tuple"
        }
      ],
      "payable": false,
      "stateMutability": "view",
      "type": "function"
    },
    {
      "constant": true,
      "inputs": [
        {
          "name": "addr",
          "type": "address"
        }
      ],
      "name": "_memberIdFromCurrentAddress",
      "outputs": [
        {
          "name": "",
          "type": "uint256"
        }
      ],
      "payable": false,
      "stateMutability": "view",
      "type": "function"
    },
    {
      "constant": false,
      "inputs": [
        {
          "name": "addr",
          "type": "address"
        },
        {
          "name": "transactionPrice",
          "type": "uint256"
        }
      ],
      "name": "updateTokens",
      "outputs": [],
      "payable": false,
      "stateMutability": "nonpayable",
      "type": "function"
    },
    {
      "constant": true,
      "inputs": [
        {
          "name": "addr",
          "type": "address"
        }
      ],
      "name": "getUserTokensByAddress",
      "outputs": [
        {
          "name": "",
          "type": "uint256"
        }
      ],
      "payable": false,
      "stateMutability": "view",
      "type": "function"
    }
  ],
  "bytecode": "0x608060405260006003556200001d3364010000000062000023810204565b62000108565b6200003e6000826401000000006200479f6200007582021704565b604051600160a060020a038216907f47d1c22a25bb3a5d4e481b9b1e6944c2eade3181a0a20b495ed61d35b5323f2490600090a250565b600160a060020a03811615156200008b57600080fd5b620000a08282640100000000620000d0810204565b15620000ab57600080fd5b600160a060020a0316600090815260209190915260409020805460ff19166001179055565b6000600160a060020a0382161515620000e857600080fd5b50600160a060020a03166000908152602091909152604090205460ff1690565b615dbd80620001186000396000f3006080604052600436106101ab5763ffffffff7c010000000000000000000000000000000000000000000000000000000060003504166308bdc24d81146101b057806325f0473b146101d25780633a59ccf1146101f25780634dc92885146102125780635d73ab9a146102325780636262dff614610268578063656d561c1461029557806367e482ad146102b757806369c212f6146102d757806374853239146103045780637df73e27146103245780638b92892b146103515780639249d75314610371578063932191be1461039e578063989359df146103b35780639eab5253146103d3578063a29d441f146103f5578063a4fdc59414610415578063a7ed1fe41461042a578063a87d942c1461044a578063a9eff5111461045f578063affccd841461047f578063bcec99a61461049f578063bf3d007e146104bf578063c11e1ff3146104df578063c477ecab146104f4578063d68dee9d14610514578063e2c11f9e14610534578063e5c8b03d14610554578063eb12d61e14610569578063eff34e5914610589578063f8380733146105a9578063fa1188c6146105c9578063fc81b525146105e9575b600080fd5b3480156101bc57600080fd5b506101d06101cb366004614d0e565b610609565b005b3480156101de57600080fd5b506101d06101ed366004614ed1565b610806565b3480156101fe57600080fd5b506101d061020d366004614db6565b6109a0565b34801561021e57600080fd5b506101d061022d366004614d0e565b6109fc565b34801561023e57600080fd5b5061025261024d366004614fc8565b610b6e565b60405161025f9190615b40565b60405180910390f35b34801561027457600080fd5b50610288610283366004614fc8565b6110c7565b60405161025f9190615b51565b3480156102a157600080fd5b506102aa61115c565b60405161025f9190615b1e565b3480156102c357600080fd5b506101d06102d2366004614d86565b611235565b3480156102e357600080fd5b506102f76102f2366004614d0e565b611276565b60405161025f9190615c80565b34801561031057600080fd5b506101d061031f366004615195565b611645565b34801561033057600080fd5b5061034461033f366004614d0e565b61166b565b60405161025f9190615b62565b34801561035d57600080fd5b506101d061036c366004615195565b611683565b34801561037d57600080fd5b5061039161038c366004614d0e565b6117a1565b60405161025f9190615c91565b3480156103aa57600080fd5b506102526117bf565b3480156103bf57600080fd5b506102886103ce366004614f92565b611c2d565b3480156103df57600080fd5b506103e8611e1e565b60405161025f9190615b2f565b34801561040157600080fd5b506101d0610410366004615195565b6122ef565b34801561042157600080fd5b506103916123ff565b34801561043657600080fd5b506101d06104453660046150d8565b6124c5565b34801561045657600080fd5b5061039161258c565b34801561046b57600080fd5b506101d061047a366004614d34565b6125a9565b34801561048b57600080fd5b5061039161049a366004614fc8565b612709565b3480156104ab57600080fd5b506101d06104ba366004614deb565b61271e565b3480156104cb57600080fd5b506101d06104da366004614fc8565b61297a565b3480156104eb57600080fd5b506102f7612a37565b34801561050057600080fd5b506103e861050f366004614fc8565b612e08565b34801561052057600080fd5b506101d061052f3660046151b4565b61332d565b34801561054057600080fd5b506101d061054f366004615195565b61340d565b34801561056057600080fd5b506101d0613433565b34801561057557600080fd5b506101d0610584366004614d0e565b61343e565b34801561059557600080fd5b506103916105a4366004614d0e565b61345b565b3480156105b557600080fd5b506103446105c4366004614fc8565b613479565b3480156105d557600080fd5b506103916105e4366004614fe6565b61348c565b3480156105f557600080fd5b50610391610604366004614fc8565b613532565b600160a060020a038181166000908152600560205260408120600601546101009004909116116106575760405160e560020a62461bcd02815260040161064e90615bb0565b60405180910390fd5b600160a060020a0381166000908152600560205260408082206003908101543384529190922090910154148061069157506106913361166b565b15156106b25760405160e560020a62461bcd02815260040161064e90615bc0565b60023360009081526005602052604090206006015460ff1660028111156106d557fe5b14806106e557506106e53361166b565b15156107065760405160e560020a62461bcd02815260040161064e90615c40565b6001600160a060020a03821660009081526005602052604090206006015460ff16600281111561073257fe5b146107525760405160e560020a62461bcd02815260040161064e90615b90565b600160a060020a038116600090815260056020908152604080832060030154835260029091529020600a0154606410156107fa57600160a060020a038116600090815260056020526040902060068101805460ff19166002179055600301546107bb90826135d3565b600160a060020a03811660009081526005602090815260408083206064600982015560030154835260029091529020600a018054606319019055610803565b610803816109fc565b50565b600160a060020a038281166000908152600560205260408120600601549091829182916101009091041681106108515760405160e560020a62461bcd02815260040161064e90615bb0565b6002600160a060020a03861660009081526005602052604090206006015460ff16600281111561087d57fe5b1461089d5760405160e560020a62461bcd02815260040161064e90615c40565b600160a060020a03851660009081526005602052604090206009015484101561090357600160a060020a0385166000908152600560209081526040808320600981015460039091015484526002909252909120600a018054918690039091019055610941565b600160a060020a0385166000908152600560209081526040808320600981015460039091015484526002909252909120600a01805491860390910390555b600160a060020a0385166000908152600560205260409020600981018590556004810154815460069092015490945090925060ff16600281111561098157fe5b9050610995828a8a8a878b878c6001613738565b505050505050505050565b6109a93361166b565b15156109b457600080fd5b6001805480820180835560009290925282516109f7917fb10e2d527612073b26eecdfd717e6a320cf44b4afac2b0732d9fcbe2b7fa0cf6019060208501906147ed565b505050565b600160a060020a03818116600090815260056020526040812060060154610100900490911611610a415760405160e560020a62461bcd02815260040161064e90615bb0565b600160a060020a03811660009081526005602052604080822060039081015433845291909220909101541480610a7b5750610a7b3361166b565b1515610a9c5760405160e560020a62461bcd02815260040161064e90615bc0565b60023360009081526005602052604090206006015460ff166002811115610abf57fe5b1480610acf5750610acf3361166b565b1515610af05760405160e560020a62461bcd02815260040161064e90615c40565b6001600160a060020a03821660009081526005602052604090206006015460ff166002811115610b1c57fe5b14610b3c5760405160e560020a62461bcd02815260040161064e90615bd0565b600160a060020a038116600090815260056020526040902060068101805460ff191690556003015461080390826135d3565b606060008060006060600080610b826123ff565b9550610b8f600a89613dfa565b600654909550610ba090600a613e2f565b9350851580610bae57508585115b80610bb857508388115b15610bc2576110bc565b60408051600a808252610160820190925290816020015b610be1614867565b815260200190600190039081610bd9579050509250600091508490505b6006548110156110b8573360009081526005602081905260408220600301546006805491939185908110610c2e57fe5b6000918252602080832090910154600160a060020a03168352820192909252604001902060030154148015610cab5750600260056000600684815481101515610c7357fe5b6000918252602080832090910154600160a060020a0316835282019290925260400190206006015460ff166002811115610ca957fe5b145b156110b05760056000600683815481101515610cc357fe5b6000918252602080832090910154600160a060020a03168352828101939093526040918201902081516101608101835281548152600182810180548551601f6002600019958416156101000295909501909216939093049081018790048702830187019095528482529194929385840193919291830182828015610d885780601f10610d5d57610100808354040283529160200191610d88565b820191906000526020600020905b815481529060010190602001808311610d6b57829003601f168201915b5050509183525050600282810180546040805160206001841615610100026000190190931694909404601f81018390048302850183019091528084529381019390830182828015610e1a5780601f10610def57610100808354040283529160200191610e1a565b820191906000526020600020905b815481529060010190602001808311610dfd57829003601f168201915b505050505081526020016003820154815260200160048201548152602001600582018054600181600116156101000203166002900480601f016020809104026020016040519081016040528092919081815260200182805460018160011615610100020316600290048015610ed05780601f10610ea557610100808354040283529160200191610ed0565b820191906000526020600020905b815481529060010190602001808311610eb357829003601f168201915b5050509183525050600682015460209091019060ff166002811115610ef157fe5b6002811115610efc57fe5b8152600682015461010090819004600160a060020a031660208084019190915260078401805460408051600260018416159096026000190190921694909404601f810184900484028201840185528082529390940193929091830182828015610fa65780601f10610f7b57610100808354040283529160200191610fa6565b820191906000526020600020905b815481529060010190602001808311610f8957829003601f168201915b5050505050815260200160088201805480602002602001604051908101604052809291908181526020016000905b8282101561107f5760008481526020908190208301805460408051601f600260001961010060018716150201909416939093049283018590048502810185019091528181529283018282801561106b5780601f106110405761010080835404028352916020019161106b565b820191906000526020600020905b81548152906001019060200180831161104e57829003601f168201915b505050505081526020019060010190610fd4565b505050508152602001600982015481525050838381518110151561109f57fe5b602090810290910101526001909101905b600101610bfe565b8296505b505050505050919050565b600081815260026020526040812054606091106110f95760405160e560020a62461bcd02815260040161064e90615bf0565b6000828152600260209081526040918290206008018054835181840281018401909452808452909183018282801561115057602002820191906000526020600020905b81548152602001906001019080831161113c575b50505050509050919050565b60606001805480602002602001604051908101604052809291908181526020016000905b8282101561122b5760008481526020908190208301805460408051601f60026000196101006001871615020190941693909304928301859004850281018501909152818152928301828280156112175780601f106111ec57610100808354040283529160200191611217565b820191906000526020600020905b8154815290600101906020018083116111fa57829003601f168201915b505050505081526020019060010190611180565b5050505090505b90565b600160a060020a039091166000908152600560209081526040808320600981018054869003905560030154835260029091529020600a018054919091039055565b61127e614867565b600160a060020a03821660009081526005602090815260409182902082516101608101845281548152600180830180548651600293821615610100026000190190911692909204601f81018690048602830186019096528582529194929385810193919291908301828280156113355780601f1061130a57610100808354040283529160200191611335565b820191906000526020600020905b81548152906001019060200180831161131857829003601f168201915b5050509183525050600282810180546040805160206001841615610100026000190190931694909404601f810183900483028501830190915280845293810193908301828280156113c75780601f1061139c576101008083540402835291602001916113c7565b820191906000526020600020905b8154815290600101906020018083116113aa57829003601f168201915b505050505081526020016003820154815260200160048201548152602001600582018054600181600116156101000203166002900480601f01602080910402602001604051908101604052809291908181526020018280546001816001161561010002031660029004801561147d5780601f106114525761010080835404028352916020019161147d565b820191906000526020600020905b81548152906001019060200180831161146057829003601f168201915b5050509183525050600682015460209091019060ff16600281111561149e57fe5b60028111156114a957fe5b8152600682015461010090819004600160a060020a031660208084019190915260078401805460408051600260018416159096026000190190921694909404601f8101849004840282018401855280825293909401939290918301828280156115535780601f1061152857610100808354040283529160200191611553565b820191906000526020600020905b81548152906001019060200180831161153657829003601f168201915b5050505050815260200160088201805480602002602001604051908101604052809291908181526020016000905b8282101561162c5760008481526020908190208301805460408051601f60026000196101006001871615020190941693909304928301859004850281018501909152818152928301828280156116185780601f106115ed57610100808354040283529160200191611618565b820191906000526020600020905b8154815290600101906020018083116115fb57829003601f168201915b505050505081526020019060010190611581565b5050505081526020016009820154815250509050919050565b600091825260026020908152604083206007018054600181018255908452922090910155565b600061167d818363ffffffff613e5216565b92915050565b6000805b600084815260026020526040902060070154600019018110156117435760008481526002602052604090206007018054849190839081106116c457fe5b906000526020600020015414156116da57600191505b811561173b57600084815260026020526040902060070180546001830190811061170057fe5b9060005260206000200154600260008681526020019081526020016000206007018281548110151561172e57fe5b6000918252602090912001555b600101611687565b811561179b5760008481526002602052604090206007018054600019810190811061176a57fe5b6000918252602080832090910182905585825260029052604090206007018054906117999060001983016148d6565b505b50505050565b600160a060020a031660009081526005602052604090206009015490565b60608060006117cd3361166b565b15156117d857600080fd5b60065460408051828152602080840282010190915290801561181457816020015b611801614867565b8152602001906001900390816117f95790505b509150600090505b600654811015611c27576005600060068381548110151561183957fe5b6000918252602080832090910154600160a060020a03168352828101939093526040918201902081516101608101835281548152600182810180548551601f60026000199584161561010002959095019092169390930490810187900487028301870190955284825291949293858401939192918301828280156118fe5780601f106118d3576101008083540402835291602001916118fe565b820191906000526020600020905b8154815290600101906020018083116118e157829003601f168201915b5050509183525050600282810180546040805160206001841615610100026000190190931694909404601f810183900483028501830190915280845293810193908301828280156119905780601f1061196557610100808354040283529160200191611990565b820191906000526020600020905b81548152906001019060200180831161197357829003601f168201915b505050505081526020016003820154815260200160048201548152602001600582018054600181600116156101000203166002900480601f016020809104026020016040519081016040528092919081815260200182805460018160011615610100020316600290048015611a465780601f10611a1b57610100808354040283529160200191611a46565b820191906000526020600020905b815481529060010190602001808311611a2957829003601f168201915b5050509183525050600682015460209091019060ff166002811115611a6757fe5b6002811115611a7257fe5b8152600682015461010090819004600160a060020a031660208084019190915260078401805460408051600260018416159096026000190190921694909404601f810184900484028201840185528082529390940193929091830182828015611b1c5780601f10611af157610100808354040283529160200191611b1c565b820191906000526020600020905b815481529060010190602001808311611aff57829003601f168201915b5050505050815260200160088201805480602002602001604051908101604052809291908181526020016000905b82821015611bf55760008481526020908190208301805460408051601f6002600019610100600187161502019094169390930492830185900485028101850190915281815292830182828015611be15780601f10611bb657610100808354040283529160200191611be1565b820191906000526020600020905b815481529060010190602001808311611bc457829003601f168201915b505050505081526020019060010190611b4a565b5050505081526020016009820154815250508282815181101515611c1557fe5b6020908102909101015260010161181c565b50919050565b60606000805b600454811015611dc857846040518082805190602001908083835b60208310611c6d5780518252601f199092019160209182019101611c4e565b6001836020036101000a03801982511681845116808217855250505050505090500191505060405180910390206000191660026000600484815481101515611cb157fe5b906000526020600020015481526020019081526020016000206005016040518082805460018160011615610100020316600290048015611d285780601f10611d06576101008083540402835291820191611d28565b820191906000526020600020905b815481529060010190602001808311611d14575b5050915050604051809103902060001916148015611d7557508360026000600484815481101515611d5557fe5b906000526020600020015481526020019081526020016000206000015414155b15611dc0578160026000600484815481101515611d8e57fe5b600091825260208083209091015483528281019390935260409091018120548354600181018555938252919020909101555b600101611c33565b815460408051602080840282018101909252828152918491830182828015611e0f57602002820191906000526020600020905b815481526020019060010190808311611dfb575b50505050509250505092915050565b6060806000600480549050604051908082528060200260200182016040528015611e6257816020015b611e4f6148fa565b815260200190600190039081611e475790505b509150600090505b600454811015611c275760026000600483815481101515611e8757fe5b9060005260206000200154815260200190815260200160002061016060405190810160405290816000820154815260200160018201548152602001600282018054600181600116156101000203166002900480601f016020809104026020016040519081016040528092919081815260200182805460018160011615610100020316600290048015611f5a5780601f10611f2f57610100808354040283529160200191611f5a565b820191906000526020600020905b815481529060010190602001808311611f3d57829003601f168201915b505050918352505060038201805460408051602060026001851615610100026000190190941693909304601f8101849004840282018401909252818152938201939291830182828015611fee5780601f10611fc357610100808354040283529160200191611fee565b820191906000526020600020905b815481529060010190602001808311611fd157829003601f168201915b505050918352505060048201805460408051602060026001851615610100026000190190941693909304601f81018490048402820184019092528181529382019392918301828280156120825780601f1061205757610100808354040283529160200191612082565b820191906000526020600020905b81548152906001019060200180831161206557829003601f168201915b505050918352505060058201805460408051602060026001851615610100026000190190941693909304601f81018490048402820184019092528181529382019392918301828280156121165780601f106120eb57610100808354040283529160200191612116565b820191906000526020600020905b8154815290600101906020018083116120f957829003601f168201915b505050918352505060068201805460408051602060026001851615610100026000190190941693909304601f81018490048402820184019092528181529382019392918301828280156121aa5780601f1061217f576101008083540402835291602001916121aa565b820191906000526020600020905b81548152906001019060200180831161218d57829003601f168201915b505050505081526020016007820180548060200260200160405190810160405280929190818152602001828054801561220257602002820191906000526020600020905b8154815260200190600101908083116121ee575b505050505081526020016008820180548060200260200160405190810160405280929190818152602001828054801561225a57602002820191906000526020600020905b815481526020019060010190808311612246575b50505050508152602001600982018054806020026020016040519081016040528092919081815260200182805480156122bc57602002820191906000526020600020905b8154600160a060020a0316815260019091019060200180831161229e575b50505050508152602001600a8201548152505082828151811015156122dd57fe5b60209081029091010152600101611e6a565b6000805b600084815260026020526040902060080154600019018110156123af57600084815260026020526040902060080180548491908390811061233057fe5b9060005260206000200154141561234657600191505b81156123a757600084815260026020526040902060080180546001830190811061236c57fe5b9060005260206000200154600260008681526020019081526020016000206008018281548110151561239a57fe5b6000918252602090912001555b6001016122f3565b6000848152600260205260409020600801805460001981019081106123d057fe5b6000918252602080832090910182905585825260029052604090206008018054906117999060001983016148d6565b600080805b600654811015611c2757336000908152600560208190526040822060030154600680549193918590811061243457fe5b6000918252602080832090910154600160a060020a031683528201929092526040019020600301541480156124b1575060026005600060068481548110151561247957fe5b6000918252602080832090910154600160a060020a0316835282019290925260400190206006015460ff1660028111156124af57fe5b145b156124bd576001909101905b600101612404565b60008115156124e95760405160e560020a62461bcd02815260040161064e90615c60565b6000861161250c5760405160e560020a62461bcd02815260040161064e90615c70565b336000908152600560205260409020541561253c5760405160e560020a62461bcd02815260040161064e90615ba0565b61254582613479565b15156125665760405160e560020a62461bcd02815260040161064e90615c10565b61256f86613e89565b90506125848686868585886001336000613738565b505050505050565b60006125973361166b565b15156125a257600080fd5b5060045490565b6125b23361166b565b15156125bd57600080fd5b600160a060020a0382166000908152600560205260409020600301546125e390836135d3565b604080518082018252600b81527f53757065722061646d696e0000000000000000000000000000000000000000006020808301918252600160a060020a03861660009081526005918290529390932091516126429392909201916147ed565b5060038054600101808255600160a060020a038416600090815260056020908152604090912092830191909155825161268192600701918401906147ed565b50600160a060020a038216600081815260056020818152604080842060068101805460ff19166002179055815160608101835260048185019081527f74657374000000000000000000000000000000000000000000000000000000009382019390935291825294909352526126fb91600801906001614955565b506127058261343e565b5050565b60009081526002602052604090206008015490565b600160a060020a03821660009081526005602090815260408220885161274c926001909201918a01906147ed565b50600160a060020a0383166000908152600560209081526040909120875161277c926002909201918901906147ed565b50600160a060020a038316600090815260056020908152604090912083516127ac926008909201918501906149ae565b50600090505b600654811015612971576005600084600160a060020a0316600160a060020a03168152602001908152602001600020600701604051808280546001816001161561010002031660029004801561283f5780601f1061281d57610100808354040283529182019161283f565b820191906000526020600020905b81548152906001019060200180831161282b575b50509150506040518091039020600019166005600060068481548110151561286357fe5b9060005260206000200160009054906101000a9004600160a060020a0316600160a060020a0316600160a060020a0316815260200190815260200160002060070160405180828054600181600116156101000203166002900480156128ff5780601f106128dd5761010080835404028352918201916128ff565b820191906000526020600020905b8154815290600101906020018083116128eb575b5050915050604051809103902060001916141561296957816005600060068481548110151561292a57fe5b6000918252602080832090910154600160a060020a03168352828101939093526040909101902082516129679360089092019291909101906149ae565b505b6001016127b2565b50505050505050565b60006129853361166b565b151561299057600080fd5b50805b600154600019018110156129fc57600180548282019081106129b157fe5b906000526020600020016001828154811015156129ca57fe5b9060005260206000200190805460018160011615610100020316600290046129f39291906149fb565b50600101612993565b600180546000198101908110612a0e57fe5b906000526020600020016000612a249190614a70565b60018054906109f7906000198301614ab4565b612a3f614867565b612a47614867565b3360009081526005602090815260409182902082516101608101845281548152600180830180548651600293821615610100026000190190911692909204601f8101869004860283018601909652858252919492938581019391929190830182828015612af55780601f10612aca57610100808354040283529160200191612af5565b820191906000526020600020905b815481529060010190602001808311612ad857829003601f168201915b5050509183525050600282810180546040805160206001841615610100026000190190931694909404601f81018390048302850183019091528084529381019390830182828015612b875780601f10612b5c57610100808354040283529160200191612b87565b820191906000526020600020905b815481529060010190602001808311612b6a57829003601f168201915b505050505081526020016003820154815260200160048201548152602001600582018054600181600116156101000203166002900480601f016020809104026020016040519081016040528092919081815260200182805460018160011615610100020316600290048015612c3d5780601f10612c1257610100808354040283529160200191612c3d565b820191906000526020600020905b815481529060010190602001808311612c2057829003601f168201915b5050509183525050600682015460209091019060ff166002811115612c5e57fe5b6002811115612c6957fe5b8152600682015461010090819004600160a060020a031660208084019190915260078401805460408051600260018416159096026000190190921694909404601f810184900484028201840185528082529390940193929091830182828015612d135780601f10612ce857610100808354040283529160200191612d13565b820191906000526020600020905b815481529060010190602001808311612cf657829003601f168201915b5050505050815260200160088201805480602002602001604051908101604052809291908181526020016000905b82821015612dec5760008481526020908190208301805460408051601f6002600019610100600187161502019094169390930492830185900485028101850190915281815292830182828015612dd85780601f10612dad57610100808354040283529160200191612dd8565b820191906000526020600020905b815481529060010190602001808311612dbb57829003601f168201915b505050505081526020019060010190612d41565b50505050815260200160098201548152505090508091505b5090565b6060600080600060606000612e1e600a88613dfa565b600454909550612e2f90600a613e2f565b6004549094501580612e4657506004546000190185115b80612e5057508387115b15612e5a57613323565b60408051600a80825261016082019092526000945090816020015b612e7d6148fa565b815260200190600190039081612e755790505091508490505b60045481101561331f5760026000600483815481101515612eb357fe5b9060005260206000200154815260200190815260200160002061016060405190810160405290816000820154815260200160018201548152602001600282018054600181600116156101000203166002900480601f016020809104026020016040519081016040528092919081815260200182805460018160011615610100020316600290048015612f865780601f10612f5b57610100808354040283529160200191612f86565b820191906000526020600020905b815481529060010190602001808311612f6957829003601f168201915b505050918352505060038201805460408051602060026001851615610100026000190190941693909304601f810184900484028201840190925281815293820193929183018282801561301a5780601f10612fef5761010080835404028352916020019161301a565b820191906000526020600020905b815481529060010190602001808311612ffd57829003601f168201915b505050918352505060048201805460408051602060026001851615610100026000190190941693909304601f81018490048402820184019092528181529382019392918301828280156130ae5780601f10613083576101008083540402835291602001916130ae565b820191906000526020600020905b81548152906001019060200180831161309157829003601f168201915b505050918352505060058201805460408051602060026001851615610100026000190190941693909304601f81018490048402820184019092528181529382019392918301828280156131425780601f1061311757610100808354040283529160200191613142565b820191906000526020600020905b81548152906001019060200180831161312557829003601f168201915b505050918352505060068201805460408051602060026001851615610100026000190190941693909304601f81018490048402820184019092528181529382019392918301828280156131d65780601f106131ab576101008083540402835291602001916131d6565b820191906000526020600020905b8154815290600101906020018083116131b957829003601f168201915b505050505081526020016007820180548060200260200160405190810160405280929190818152602001828054801561322e57602002820191906000526020600020905b81548152602001906001019080831161321a575b505050505081526020016008820180548060200260200160405190810160405280929190818152602001828054801561328657602002820191906000526020600020905b815481526020019060010190808311613272575b50505050508152602001600982018054806020026020016040519081016040528092919081815260200182805480156132e857602002820191906000526020600020905b8154600160a060020a031681526001909101906020018083116132ca575b50505050508152602001600a82015481525050828481518110151561330957fe5b6020908102909101015260019283019201612e96565b8195505b5050505050919050565b6133363361166b565b151561334157600080fd5b600088815260026020526040812054116133705760405160e560020a62461bcd02815260040161064e90615c10565b60008881526002602052604090206001015487146133a35760405160e560020a62461bcd02815260040161064e90615b70565b600088815260026020818152604090922088516133c8939190920191908901906147ed565b50600088815260026020908152604090912083516133ee926006909201918501906147ed565b50600097885260026020526040909720600a0196909655505050505050565b600091825260026020908152604083206008018054600181018255908452922090910155565b61343c33614078565b565b6134473361166b565b151561345257600080fd5b610803816140c0565b600160a060020a031660009081526005602052604090206003015490565b6000908152600260205260408120541190565b6000806134983361166b565b15156134a357600080fd5b600088116134c65760405160e560020a62461bcd02815260040161064e90615c70565b506003805460010190819055600081815260026020526040902054156135015760405160e560020a62461bcd02815260040161064e90615c00565b61351081898989898989614108565b60008181526002602052604090206103e8600a90910155979650505050505050565b600080805b6006548110156135cc57836005600060068481548110151561355557fe5b6000918252602080832090910154600160a060020a0316835282019290925260400190206003015414156135c4576005600060068381548110151561359657fe5b6000918252602080832090910154600160a060020a0316835282019290925260400190206009015491909101905b600101613537565b5092915050565b6000805b600084815260026020526040902060090154600019018110156136d05760008481526002602052604090206009018054600160a060020a03851691908390811061361d57fe5b600091825260209091200154600160a060020a0316141561363d57600191505b81156136c857600084815260026020526040902060090180546001830190811061366357fe5b6000918252602080832090910154868352600290915260409091206009018054600160a060020a03909216918390811061369957fe5b9060005260206000200160006101000a815481600160a060020a030219169083600160a060020a031602179055505b6001016135d7565b6000848152600260205260409020600901805460001981019081106136f157fe5b60009182526020808320909101805473ffffffffffffffffffffffffffffffffffffffff1916905585825260029052604090206009018054906117999060001983016148d6565b613740614867565b600084101580613751575060028411155b15156137725760405160e560020a62461bcd02815260040161064e90615be0565b845115156137955760405160e560020a62461bcd02815260040161064e90615b80565b600160a060020a03831660009081526005602090815260409182902082516101608101845281548152600180830180548651600293821615610100026000190190911692909204601f810186900486028301860190965285825291949293858101939192919083018282801561384c5780601f106138215761010080835404028352916020019161384c565b820191906000526020600020905b81548152906001019060200180831161382f57829003601f168201915b5050509183525050600282810180546040805160206001841615610100026000190190931694909404601f810183900483028501830190915280845293810193908301828280156138de5780601f106138b3576101008083540402835291602001916138de565b820191906000526020600020905b8154815290600101906020018083116138c157829003601f168201915b505050505081526020016003820154815260200160048201548152602001600582018054600181600116156101000203166002900480601f0160208091040260200160405190810160405280929190818152602001828054600181600116156101000203166002900480156139945780601f1061396957610100808354040283529160200191613994565b820191906000526020600020905b81548152906001019060200180831161397757829003601f168201915b5050509183525050600682015460209091019060ff1660028111156139b557fe5b60028111156139c057fe5b8152600682015461010090819004600160a060020a031660208084019190915260078401805460408051600260018416159096026000190190921694909404601f810184900484028201840185528082529390940193929091830182828015613a6a5780601f10613a3f57610100808354040283529160200191613a6a565b820191906000526020600020905b815481529060010190602001808311613a4d57829003601f168201915b5050505050815260200160088201805480602002602001604051908101604052809291908181526020016000905b82821015613b435760008481526020908190208301805460408051601f6002600019610100600187161502019094169390930492830185900485028101850190915281815292830182828015613b2f5780601f10613b0457610100808354040283529160200191613b2f565b820191906000526020600020905b815481529060010190602001808311613b1257829003601f168201915b505050505081526020019060010190613a98565b50505090825250600991909101546020918201528b825281018a905260408101899052606081018890526080810187905260a081018690529050836002811115613b8957fe5b8160c001906002811115613b9957fe5b90816002811115613ba657fe5b905250600160a060020a03831660e082018190526000908152600560209081526040909120825181558183015180518493613be89260018501929101906147ed565b5060408201518051613c049160028401916020909101906147ed565b50606082015160038201556080820151600482015560a08201518051613c349160058401916020909101906147ed565b5060c082015160068201805460ff19166001836002811115613c5257fe5b021790555060e082015160068201805474ffffffffffffffffffffffffffffffffffffffff001916610100600160a060020a0390931683021790558201518051613ca69160078401916020909101906147ed565b506101208201518051613cc3916008840191602090910190614ad8565b506101409190910151600990910155811515613dee57600680546001810182556000919091527ff652222313e28459528d920b65115c16c04f3efc82aaedc97be59f3f377c0d3f01805473ffffffffffffffffffffffffffffffffffffffff1916600160a060020a038516179055613d3a87614713565b60408051606081018252600460208281019182527f746573740000000000000000000000000000000000000000000000000000000083850152908252600160a060020a0386166000908152600590915291909120613d9f916008909101906001614955565b5060608101516000908152600260208181526040808420600160a060020a0388168552600592839052932092018054613dec936007019260001961010060018416150201909116046149fb565b505b50505050505050505050565b600080831515613e0d57600091506135cc565b50828202828482811515613e1d57fe5b0414613e2857600080fd5b9392505050565b600080808311613e3e57600080fd5b8284811515613e4957fe5b04949350505050565b6000600160a060020a0382161515613e6957600080fd5b50600160a060020a03166000908152602091909152604090205460ff1690565b6000808080600285061515613f1b5784604051602001808281526020019150506040516020818303038152906040526040518082805190602001908083835b60208310613ee75780518252601f199092019160209182019101613ec8565b6001836020036101000a03801982511681845116808217855250505050505090500191505060405180910390209250614006565b84604051602001808281526020019150506040516020818303038152906040526040518082805190602001908083835b60208310613f6a5780518252601f199092019160209182019101613f4b565b51815160209384036101000a600019018019909216911617905260408051929094018290038220828201528351808303820181529184019384905281519195509293508392850191508083835b60208310613fd65780518252601f199092019160209182019101613fb7565b6001836020036101000a038019825116818451168082178552505050505050905001915050604051809103902092505b60208110156140335782816020811061401b57fe5b60f860020a91901a8102049190910190600101614006565b82602060028401066020811061404557fe5b60f860020a91901a81020483602084066020811061405f57fe5b1a60f860020a0260f860020a9004029350505050919050565b61408960008263ffffffff61475316565b604051600160a060020a038216907f3525e22824a8a7df2c9a6029941c824cf95b6447f1e13d5128fd3826d35afe8b90600090a250565b6140d160008263ffffffff61479f16565b604051600160a060020a038216907f47d1c22a25bb3a5d4e481b9b1e6944c2eade3181a0a20b495ed61d35b5323f2490600090a250565b6141106148fa565b855115156141335760405160e560020a62461bcd02815260040161064e90615c50565b825115156141565760405160e560020a62461bcd02815260040161064e90615c30565b815115156141795760405160e560020a62461bcd02815260040161064e90615c20565b6000888152600260208181526040928390208351610160810185528154815260018083015482850152828501805487519281161561010002600019011695909504601f810185900485028201850187528082529195929492860193909291908301828280156142295780601f106141fe57610100808354040283529160200191614229565b820191906000526020600020905b81548152906001019060200180831161420c57829003601f168201915b505050918352505060038201805460408051602060026001851615610100026000190190941693909304601f81018490048402820184019092528181529382019392918301828280156142bd5780601f10614292576101008083540402835291602001916142bd565b820191906000526020600020905b8154815290600101906020018083116142a057829003601f168201915b505050918352505060048201805460408051602060026001851615610100026000190190941693909304601f81018490048402820184019092528181529382019392918301828280156143515780601f1061432657610100808354040283529160200191614351565b820191906000526020600020905b81548152906001019060200180831161433457829003601f168201915b505050918352505060058201805460408051602060026001851615610100026000190190941693909304601f81018490048402820184019092528181529382019392918301828280156143e55780601f106143ba576101008083540402835291602001916143e5565b820191906000526020600020905b8154815290600101906020018083116143c857829003601f168201915b505050918352505060068201805460408051602060026001851615610100026000190190941693909304601f81018490048402820184019092528181529382019392918301828280156144795780601f1061444e57610100808354040283529160200191614479565b820191906000526020600020905b81548152906001019060200180831161445c57829003601f168201915b50505050508152602001600782018054806020026020016040519081016040528092919081815260200182805480156144d157602002820191906000526020600020905b8154815260200190600101908083116144bd575b505050505081526020016008820180548060200260200160405190810160405280929190818152602001828054801561452957602002820191906000526020600020905b815481526020019060010190808311614515575b505050505081526020016009820180548060200260200160405190810160405280929190818152602001828054801561458b57602002820191906000526020600020905b8154600160a060020a0316815260019091019060200180831161456d575b5050509183525050600a919091015460209182015289825281810189815260408084018a8152606085018a90526080850189905260a0850188905260c0850187905260008d815260028086529290208551815592516001840155518051949550859492936145ff93928501929101906147ed565b506060820151805161461b9160038401916020909101906147ed565b50608082015180516146379160048401916020909101906147ed565b5060a082015180516146539160058401916020909101906147ed565b5060c0820151805161466f9160068401916020909101906147ed565b5060e0820151805161468b916007840191602090910190614b25565b5061010082015180516146a8916008840191602090910190614b25565b5061012082015180516146c5916009840191602090910190614b5f565b506101409190910151600a909101555050600480546001810182556000919091527f8a35acfbc15ff81a39ae7d344fd709f28e8600b4aa8c65c6b64bfe7fe36bd19b01959095555050505050565b600090815260026020908152604082206009018054600181018255908352912001805473ffffffffffffffffffffffffffffffffffffffff191633179055565b600160a060020a038116151561476857600080fd5b6147728282613e52565b151561477d57600080fd5b600160a060020a0316600090815260209190915260409020805460ff19169055565b600160a060020a03811615156147b457600080fd5b6147be8282613e52565b156147c857600080fd5b600160a060020a0316600090815260209190915260409020805460ff19166001179055565b828054600181600116156101000203166002900490600052602060002090601f016020900481019282601f1061482e57805160ff191683800117855561485b565b8280016001018555821561485b579182015b8281111561485b578251825591602001919060010190614840565b50612e04929150614bcd565b61016060405190810160405280600081526020016060815260200160608152602001600081526020016000815260200160608152602001600060028111156148ab57fe5b81526020016000600160a060020a031681526020016060815260200160608152602001600081525090565b8154818355818111156109f7576000838152602090206109f7918101908301614bcd565b6101606040519081016040528060008152602001600081526020016060815260200160608152602001606081526020016060815260200160608152602001606081526020016060815260200160608152602001600081525090565b8280548282559060005260206000209081019282156149a2579160200282015b828111156149a257825180516149929184916020909101906147ed565b5091602001919060010190614975565b50612e04929150614be7565b8280548282559060005260206000209081019282156149a2579160200282015b828111156149a257825180516149eb9184916020909101906147ed565b50916020019190600101906149ce565b828054600181600116156101000203166002900490600052602060002090601f016020900481019282601f10614a34578054855561485b565b8280016001018555821561485b57600052602060002091601f016020900482015b8281111561485b578254825591600101919060010190614a55565b50805460018160011615610100020316600290046000825580601f10614a965750610803565b601f0160209004906000526020600020908101906108039190614bcd565b8154818355818111156109f7576000838152602090206109f7918101908301614be7565b8280548282559060005260206000209081019282156149a2579160200282015b828111156149a25782518051614b159184916020909101906147ed565b5091602001919060010190614af8565b82805482825590600052602060002090810192821561485b579160200282018281111561485b578251825591602001919060010190614840565b828054828255906000526020600020908101928215614bc1579160200282015b82811115614bc1578251825473ffffffffffffffffffffffffffffffffffffffff1916600160a060020a03909116178255602090920191600190910190614b7f565b50612e04929150614c0a565b61123291905b80821115612e045760008155600101614bd3565b61123291905b80821115612e04576000614c018282614a70565b50600101614bed565b61123291905b80821115612e0457805473ffffffffffffffffffffffffffffffffffffffff19168155600101614c10565b6000613e288235615d19565b6000601f82018313614c5857600080fd5b8135614c6b614c6682615cc6565b615c9f565b81815260209384019390925082018360005b83811015614ca95781358601614c938882614cb3565b8452506020928301929190910190600101614c7d565b5050505092915050565b6000601f82018313614cc457600080fd5b8135614cd2614c6682615ce7565b91508082526020830160208301858383011115614cee57600080fd5b614cf9838284615d41565b50505092915050565b6000613e288235611232565b600060208284031215614d2057600080fd5b6000614d2c8484614c3b565b949350505050565b60008060408385031215614d4757600080fd5b6000614d538585614c3b565b925050602083013567ffffffffffffffff811115614d7057600080fd5b614d7c85828601614cb3565b9150509250929050565b60008060408385031215614d9957600080fd5b6000614da58585614c3b565b9250506020614d7c85828601614d02565b600060208284031215614dc857600080fd5b813567ffffffffffffffff811115614ddf57600080fd5b614d2c84828501614cb3565b60008060008060008060c08789031215614e0457600080fd5b863567ffffffffffffffff811115614e1b57600080fd5b614e2789828a01614cb3565b965050602087013567ffffffffffffffff811115614e4457600080fd5b614e5089828a01614cb3565b9550506040614e6189828a01614d02565b945050606087013567ffffffffffffffff811115614e7e57600080fd5b614e8a89828a01614cb3565b9350506080614e9b89828a01614c3b565b92505060a087013567ffffffffffffffff811115614eb857600080fd5b614ec489828a01614c47565b9150509295509295509295565b60008060008060008060c08789031215614eea57600080fd5b863567ffffffffffffffff811115614f0157600080fd5b614f0d89828a01614cb3565b965050602087013567ffffffffffffffff811115614f2a57600080fd5b614f3689828a01614cb3565b9550506040614f4789828a01614d02565b945050606087013567ffffffffffffffff811115614f6457600080fd5b614f7089828a01614cb3565b9350506080614f8189828a01614c3b565b92505060a0614ec489828a01614d02565b60008060408385031215614fa557600080fd5b823567ffffffffffffffff811115614fbc57600080fd5b614da585828601614cb3565b600060208284031215614fda57600080fd5b6000614d2c8484614d02565b60008060008060008060c08789031215614fff57600080fd5b600061500b8989614d02565b965050602087013567ffffffffffffffff81111561502857600080fd5b61503489828a01614cb3565b955050604087013567ffffffffffffffff81111561505157600080fd5b61505d89828a01614cb3565b945050606087013567ffffffffffffffff81111561507a57600080fd5b61508689828a01614cb3565b935050608087013567ffffffffffffffff8111156150a357600080fd5b6150af89828a01614cb3565b92505060a087013567ffffffffffffffff8111156150cc57600080fd5b614ec489828a01614cb3565b600080600080600060a086880312156150f057600080fd5b60006150fc8888614d02565b955050602086013567ffffffffffffffff81111561511957600080fd5b61512588828901614cb3565b945050604086013567ffffffffffffffff81111561514257600080fd5b61514e88828901614cb3565b935050606086013567ffffffffffffffff81111561516b57600080fd5b61517788828901614cb3565b925050608061518888828901614d02565b9150509295509295909350565b600080604083850312156151a857600080fd5b6000614da58585614d02565b600080600080600080600080610100898b0312156151d157600080fd5b60006151dd8b8b614d02565b98505060206151ee8b828c01614d02565b975050604089013567ffffffffffffffff81111561520b57600080fd5b6152178b828c01614cb3565b965050606089013567ffffffffffffffff81111561523457600080fd5b6152408b828c01614cb3565b955050608089013567ffffffffffffffff81111561525d57600080fd5b6152698b828c01614cb3565b94505060a089013567ffffffffffffffff81111561528657600080fd5b6152928b828c01614cb3565b93505060c089013567ffffffffffffffff8111156152af57600080fd5b6152bb8b828c01614cb3565b92505060e06152cc8b828c01614d02565b9150509295985092959890939650565b6152e581615d19565b82525050565b60006152f682615d15565b80845260208401935061530883615d0f565b60005b828110156153385761531e8683516152dc565b61532782615d0f565b60209690960195915060010161530b565b5093949350505050565b600061534d82615d15565b8084526020840193508360208202850161536685615d0f565b60005b8481101561539d578383038852615381838351615566565b925061538c82615d0f565b602098909801979150600101615369565b50909695505050505050565b60006153b482615d15565b808452602084019350836020820285016153cd85615d0f565b60005b8481101561539d5783830388526153e8838351615566565b92506153f382615d0f565b6020989098019791506001016153d0565b600061540f82615d15565b8084526020840193508360208202850161542885615d0f565b60005b8481101561539d578383038852615443838351615917565b925061544e82615d0f565b60209890980197915060010161542b565b600061546a82615d15565b8084526020840193508360208202850161548385615d0f565b60005b8481101561539d57838303885261549e838351615a30565b92506154a982615d0f565b602098909801979150600101615486565b60006154c582615d15565b8084526020840193506154d783615d0f565b60005b82811015615338576154ed868351615b15565b6154f682615d0f565b6020969096019591506001016154da565b600061551282615d15565b80845260208401935061552483615d0f565b60005b828110156153385761553a868351615b15565b61554382615d0f565b602096909601959150600101615527565b6152e581615d25565b6152e581615d36565b600061557182615d15565b808452615585816020860160208601615d4d565b61558e81615d79565b9093016020019392505050565b601a81527f4372656174696f6e204461746520697320696d6d757461626c65000000000000602082015260400190565b601181527f726f6c65206973206d616e6461746f7279000000000000000000000000000000602082015260400190565b602281527f4f6e6c792070656e64696e672075736572732063616e2062652061636365707460208201527f6564000000000000000000000000000000000000000000000000000000000000604082015260600190565b601381527f5573657220616c72656164792065786973747300000000000000000000000000602082015260400190565b601481527f546869732075736572206e6f7420657869737473000000000000000000000000602082015260400190565b601b81527f596f752063616e6e6f7420616363657074207468697320757365720000000000602082015260400190565b602281527f4f6e6c792070656e64696e672075736572732063616e2062652072656a65637460208201527f6564000000000000000000000000000000000000000000000000000000000000604082015260600190565b601381527f737461747573206973206e6f742076616c696400000000000000000000000000602082015260400190565b601181527f6d656d626572206e6f7420657869737473000000000000000000000000000000602082015260400190565b601581527f4d656d62657220616c7265616479206578697374730000000000000000000000602082015260400190565b601181527f4d656d626572206e6f7420657869737473000000000000000000000000000000602082015260400190565b601281527f5468656d65206973206d616e6461746f72790000000000000000000000000000602082015260400190565b601081527f434d4f206973206d616e6461746f727900000000000000000000000000000000602082015260400190565b601481527f596f7520617265206e6f74206163636570746564000000000000000000000000602082015260400190565b601181527f4e616d65206973206d616e6461746f7279000000000000000000000000000000602082015260400190565b601181527f4e6f2076616c6964206d656d6265724964000000000000000000000000000000602082015260400190565b601981527f4372656174696f6e44617465206973206d616e6461746f727900000000000000602082015260400190565b805160009061016084019061592c8582615b15565b50602083015161593f6020860182615b15565b50604083015184820360408601526159578282615566565b915050606083015184820360608601526159718282615566565b9150506080830151848203608086015261598b8282615566565b91505060a083015184820360a08601526159a58282615566565b91505060c083015184820360c08601526159bf8282615566565b91505060e083015184820360e08601526159d98282615507565b9150506101008301518482036101008601526159f58282615507565b915050610120830151848203610120860152615a1182826152eb565b915050610140830151615a28610140860182615b15565b509392505050565b8051600090610160840190615a458582615b15565b5060208301518482036020860152615a5d8282615566565b91505060408301518482036040860152615a778282615566565b9150506060830151615a8c6060860182615b15565b506080830151615a9f6080860182615b15565b5060a083015184820360a0860152615ab78282615566565b91505060c0830151615acc60c086018261555d565b5060e0830151615adf60e08601826152dc565b50610100830151848203610100860152615af98282615566565b915050610120830151848203610120860152615a1182826153a9565b6152e581611232565b60208082528101613e288184615342565b60208082528101613e288184615404565b60208082528101613e28818461545f565b60208082528101613e2881846154ba565b6020810161167d8284615554565b6020808252810161167d8161559b565b6020808252810161167d816155cb565b6020808252810161167d816155fb565b6020808252810161167d81615651565b6020808252810161167d81615681565b6020808252810161167d816156b1565b6020808252810161167d816156e1565b6020808252810161167d81615737565b6020808252810161167d81615767565b6020808252810161167d81615797565b6020808252810161167d816157c7565b6020808252810161167d816157f7565b6020808252810161167d81615827565b6020808252810161167d81615857565b6020808252810161167d81615887565b6020808252810161167d816158b7565b6020808252810161167d816158e7565b60208082528101613e288184615a30565b6020810161167d8284615b15565b60405181810167ffffffffffffffff81118282101715615cbe57600080fd5b604052919050565b600067ffffffffffffffff821115615cdd57600080fd5b5060209081020190565b600067ffffffffffffffff821115615cfe57600080fd5b506020601f91909101601f19160190565b60200190565b5190565b600160a060020a031690565b151590565b600060038210612e0457fe5b600061167d82615d2a565b82818337506000910152565b60005b83811015615d68578181015183820152602001615d50565b8381111561179b5750506000910152565b601f01601f1916905600a265627a7a723058208f33a9259245a454b68bf18e6cf2a805846a03c7e915f0458ef45bcb557f4b466c6578706572696d656e74616cf50037",
  "source": "pragma solidity ^0.4.24;\npragma experimental ABIEncoderV2;\n\nimport \"./Members.sol\";\nimport \"./Claims.sol\";\n\n\ncontract Users is Members {\n\n  struct User {\n    uint256 creationDate;\n    string firstName;\n    string lastName;\n    uint256 memberId;\n    uint256 requestId;\n    string role;\n    StatusUserEnum status;\n    address owner;  // primary key\n    string cmo;\n    string[] groups;\n    uint tokens;\n  }\n\n  enum StatusUserEnum {\n    REJECTED,\n    PENDING,\n    ACCEPTED\n  }\n\n  mapping (address => User) private users_;\n  address[] private usersList_;\n  uint256 constant private PAGE_SIZE = 10;\n\n  uint256 constant private userStartTokens = 100;\n\n  // PUBLIC\n\n  function registerUserRequest(uint256 _creationDate, string _firstName, string _lastName, string _role, uint256 _memberId) public {\n\n    require(_memberId != 0, \"No valid memberId\");\n    require(_creationDate > 0, \"CreationDate is mandatory\");\n    require(users_[msg.sender].creationDate == 0, \"User already exists\");\n    require(_memberExists(_memberId), \"Member not exists\");\n\n    uint256 _requestId = Random.rand(_creationDate);\n    _saveUser(_creationDate, _firstName, _lastName, _memberId, _requestId, _role, uint256(StatusUserEnum.PENDING), msg.sender, 0);\n  }\n\n  function updateUser(string _firstName, string _lastName, uint256 _memberId, string _role, address owner, uint _tokens) public {\n\n    require(users_[owner].owner > address(0), \"This user not exists\");\n    require(uint(users_[owner].status) == uint(StatusUserEnum.ACCEPTED), \"You are not accepted\");\n    if (users_[owner].tokens > _tokens) {\n      members_[users_[owner].memberId].totalTokens += users_[owner].tokens - _tokens;\n    } else {\n      members_[users_[owner].memberId].totalTokens -= _tokens - users_[owner].tokens;\n    }\n    users_[owner].tokens = _tokens;\n\n    uint256 _requestId = users_[owner].requestId;\n    uint256 _creationDate = users_[owner].creationDate;\n    uint256 _status = uint(users_[owner].status);\n\n    _saveUser(_creationDate, _firstName, _lastName, _memberId, _requestId, _role, _status, owner, 1);\n  }\n\n  function getUsedTokens(uint256 _memberId) public returns (uint){\n    uint usedTokens = 0;\n    for (uint i = 0; i < usersList_.length; ++i) {\n      if (users_[usersList_[i]].memberId == _memberId) {\n        usedTokens += users_[usersList_[i]].tokens;\n      }\n    }\n    return usedTokens;\n  }\n\n  function updateSuperUser(string _firstName, string _lastName, uint256 _memberId, string _role, address owner, string[] _groups) public {\n\n    users_[owner].firstName = _firstName;\n    users_[owner].lastName = _lastName;\n    users_[owner].groups = _groups;\n\n    for (uint i = 0; i < usersList_.length; ++i) {\n      if (keccak256(users_[usersList_[i]].cmo) == keccak256(users_[owner].cmo)) {\n        users_[usersList_[i]].groups = _groups;\n      }\n    }\n\n  }\n\n  function rejectUser(address _userToReject) public {\n\n    require(users_[_userToReject].owner > address(0), \"This user not exists\");\n    require((users_[msg.sender].memberId == users_[_userToReject].memberId) || isSigner(msg.sender), \"You cannot accept this user\");\n    require((uint(users_[msg.sender].status) == uint(StatusUserEnum.ACCEPTED)) || isSigner(msg.sender), \"You are not accepted\");\n    require(users_[_userToReject].status == StatusUserEnum.PENDING, \"Only pending users can be rejected\");\n\n    users_[_userToReject].status = StatusUserEnum.REJECTED;\n    _clearUserFromMemberRequest(users_[_userToReject].memberId, _userToReject);\n  }\n\n  function acceptUser(address _userToAccept) public {\n\n    require(users_[_userToAccept].owner > address(0), \"This user not exists\");\n    require((users_[msg.sender].memberId == users_[_userToAccept].memberId) || isSigner(msg.sender), \"You cannot accept this user\");\n    require((uint(users_[msg.sender].status) == uint(StatusUserEnum.ACCEPTED)) || isSigner(msg.sender), \"You are not accepted\");\n    require(users_[_userToAccept].status == StatusUserEnum.PENDING, \"Only pending users can be accepted\");\n\n    if (members_[users_[_userToAccept].memberId].totalTokens > userStartTokens) {\n      users_[_userToAccept].status = StatusUserEnum.ACCEPTED;\n      _clearUserFromMemberRequest(users_[_userToAccept].memberId, _userToAccept);\n      users_[_userToAccept].tokens = userStartTokens;\n      members_[users_[_userToAccept].memberId].totalTokens -= userStartTokens;\n    } else {\n      rejectUser(_userToAccept);\n    }\n  }\n\n  function getcountUsers() public view returns(uint) {\n    uint256 counter = 0;\n    for (uint i = 0; i < usersList_.length; ++i) {\n      if(users_[usersList_[i]].memberId == users_[msg.sender].memberId\n        && users_[usersList_[i]].status == StatusUserEnum.ACCEPTED) {\n        counter++;\n      }\n    }\n    return counter;\n  }\n\n  function whitelistAdmin(address account, string _cmo) public onlySigner {\n    _clearUserFromMemberRequest(users_[account].memberId, account);\n    users_[account].role = \"Super admin\";\n    users_[account].memberId = ++memberIdCounter_;\n    users_[account].cmo = _cmo;\n//    users_[account].tokens = 0; // should \"Super admin\" have tokens?\n    users_[account].status = StatusUserEnum.ACCEPTED;\n    users_[account].groups = [\"test\"];\n    addSigner(account);\n  }\n\n  function getUsers(uint256 _page) public view returns(User[] memory) {\n    uint256 counter = getcountUsers();\n\n    uint256 pageIndex = SafeMath.mul(PAGE_SIZE, _page);\n    uint256 pageNumber = SafeMath.div(usersList_.length, PAGE_SIZE);\n\n    if (counter == 0 || pageIndex > counter || _page > pageNumber) {\n      return;\n    }\n\n    User[] memory userPageBasic = new User[](PAGE_SIZE);\n    uint256 counterFinal = 0;\n\n    for (uint j = pageIndex; j < usersList_.length; ++j) {\n      if(users_[usersList_[j]].memberId == users_[msg.sender].memberId\n        && users_[usersList_[j]].status == StatusUserEnum.ACCEPTED) {\n        userPageBasic[counterFinal] = users_[usersList_[j]];\n        ++counterFinal;\n      }\n    }\n    return userPageBasic;\n  }\n\n  function getUserByAddress(address userAddress) public view returns(User memory) {\n    return users_[userAddress];\n  }\n\n  function getUsersOwner() onlySigner public view returns(User[] memory) {\n    User[] memory userPageOwner = new User[](usersList_.length);\n\n    for (uint i = 0; i < usersList_.length; ++i) {\n      userPageOwner[i] = users_[usersList_[i]];\n    }\n\n    return userPageOwner;\n  }\n\n  function getMe() public view returns(User) {\n    User memory user = users_[msg.sender];\n    return user;\n  }\n\n\n  function _saveUser(uint256 _creationDate, string _firstName, string _lastName, uint256 _memberId,\n    uint256 _requestId, string _role, uint256 _status, address owner, uint isCreate) internal {\n\n    require(_status >= 0 || _status <=2, \"status is not valid\");\n    require(bytes(_role).length != 0, \"role is mandatory\");\n\n    User memory user = users_[owner];\n\n    user.creationDate =  _creationDate;\n    user.firstName =  _firstName;\n    user.lastName =  _lastName;\n    user.memberId =  _memberId;\n    user.requestId =  _requestId;\n    user.role = _role;\n    user.status = StatusUserEnum(_status);\n    user.owner = owner;\n\n    users_[owner] = user;\n\n    if(isCreate == 0) {\n      usersList_.push(owner);\n//      if (users_[owner].status != StatusUserEnum.ACCEPTED) {\n      _addUserToMemberRequest(_memberId);\n//      }\n      users_[owner].groups = [\"test\"];                  // by default\n      users_[owner].cmo = members_[user.memberId].cmo;  // to initialize\n    }\n  }\n\n  function _memberIdFromCurrentAddress(address addr) view public returns(uint256) {\n    return users_[addr].memberId;\n  }\n\n  function updateTokens(address addr, uint transactionPrice) public {\n    users_[addr].tokens -= transactionPrice;\n    members_[users_[addr].memberId].totalTokens -= transactionPrice;\n  }\n\n  function getUserTokensByAddress(address addr) view public returns(uint) {\n    return users_[addr].tokens;\n  }\n}\n",
  "sourcePath": "/home/komodo/newUI2/bloomen-decentralized-rights-management-v2/truffle/contracts/registry/Users.sol",
  "compiler": {
    "name": "solc",
    "version": "0.4.24+commit.e67f0147.Emscripten.clang"
  },
  "schemaVersion": "2.0.1",
  "updatedAt": "2020-03-15T21:04:04.995Z"
}