{
  "contractName": "Users",
  "abi": [
    {
      "constant": false,
      "inputs": [
        {
          "name": "_cmo",
          "type": "string"
        }
      ],
      "name": "addCMO",
      "outputs": [],
      "payable": false,
      "stateMutability": "nonpayable",
      "type": "function"
    },
    {
      "constant": true,
      "inputs": [
        {
          "name": "_memberId",
          "type": "uint256"
        }
      ],
      "name": "_getClaimsIdByMember",
      "outputs": [
        {
          "name": "",
          "type": "uint256[]"
        }
      ],
      "payable": false,
      "stateMutability": "view",
      "type": "function"
    },
    {
      "constant": true,
      "inputs": [],
      "name": "getCMOs",
      "outputs": [
        {
          "name": "",
          "type": "string[]"
        }
      ],
      "payable": false,
      "stateMutability": "view",
      "type": "function"
    },
    {
      "constant": false,
      "inputs": [
        {
          "name": "_memberId",
          "type": "uint256"
        },
        {
          "name": "_claimId",
          "type": "uint256"
        }
      ],
      "name": "_addClaimFromInbox",
      "outputs": [],
      "payable": false,
      "stateMutability": "nonpayable",
      "type": "function"
    },
    {
      "constant": true,
      "inputs": [
        {
          "name": "account",
          "type": "address"
        }
      ],
      "name": "isSigner",
      "outputs": [
        {
          "name": "",
          "type": "bool"
        }
      ],
      "payable": false,
      "stateMutability": "view",
      "type": "function"
    },
    {
      "constant": false,
      "inputs": [
        {
          "name": "_memberId",
          "type": "uint256"
        },
        {
          "name": "_claimId",
          "type": "uint256"
        }
      ],
      "name": "_removeClaimFromInbox",
      "outputs": [],
      "payable": false,
      "stateMutability": "nonpayable",
      "type": "function"
    },
    {
      "constant": false,
      "inputs": [
        {
          "name": "currentCMO",
          "type": "string"
        },
        {
          "name": "currentCMOId",
          "type": "uint256"
        }
      ],
      "name": "_getMemberIdsOfCurrentCMO",
      "outputs": [
        {
          "name": "",
          "type": "uint256[]"
        }
      ],
      "payable": false,
      "stateMutability": "nonpayable",
      "type": "function"
    },
    {
      "constant": true,
      "inputs": [],
      "name": "getMembers",
      "outputs": [
        {
          "components": [
            {
              "name": "memberId",
              "type": "uint256"
            },
            {
              "name": "creationDate",
              "type": "uint256"
            },
            {
              "name": "name",
              "type": "string"
            },
            {
              "name": "logo",
              "type": "string"
            },
            {
              "name": "country",
              "type": "string"
            },
            {
              "name": "cmo",
              "type": "string"
            },
            {
              "name": "theme",
              "type": "string"
            },
            {
              "name": "claimInbox",
              "type": "uint256[]"
            },
            {
              "name": "claims",
              "type": "uint256[]"
            },
            {
              "name": "userRequests",
              "type": "address[]"
            },
            {
              "name": "totalTokens",
              "type": "uint256"
            }
          ],
          "name": "",
          "type": "tuple[]"
        }
      ],
      "payable": false,
      "stateMutability": "view",
      "type": "function"
    },
    {
      "constant": true,
      "inputs": [],
      "name": "getCount",
      "outputs": [
        {
          "name": "",
          "type": "uint256"
        }
      ],
      "payable": false,
      "stateMutability": "view",
      "type": "function"
    },
    {
      "constant": true,
      "inputs": [
        {
          "name": "_memberId",
          "type": "uint256"
        }
      ],
      "name": "_getClaimsCountByMember",
      "outputs": [
        {
          "name": "",
          "type": "uint256"
        }
      ],
      "payable": false,
      "stateMutability": "view",
      "type": "function"
    },
    {
      "constant": false,
      "inputs": [
        {
          "name": "_memberId",
          "type": "uint256"
        },
        {
          "name": "_claimId",
          "type": "uint256"
        }
      ],
      "name": "_removeClaimFromMember",
      "outputs": [],
      "payable": false,
      "stateMutability": "nonpayable",
      "type": "function"
    },
    {
      "constant": false,
      "inputs": [
        {
          "name": "_index",
          "type": "uint256"
        }
      ],
      "name": "deleteCMO",
      "outputs": [],
      "payable": false,
      "stateMutability": "nonpayable",
      "type": "function"
    },
    {
      "constant": false,
      "inputs": [
        {
          "name": "_memberId",
          "type": "uint256"
        },
        {
          "name": "newInbox",
          "type": "uint256[]"
        }
      ],
      "name": "updateMemberClaimInbox",
      "outputs": [],
      "payable": false,
      "stateMutability": "nonpayable",
      "type": "function"
    },
    {
      "constant": true,
      "inputs": [
        {
          "name": "_page",
          "type": "uint256"
        }
      ],
      "name": "getMembers",
      "outputs": [
        {
          "components": [
            {
              "name": "memberId",
              "type": "uint256"
            },
            {
              "name": "creationDate",
              "type": "uint256"
            },
            {
              "name": "name",
              "type": "string"
            },
            {
              "name": "logo",
              "type": "string"
            },
            {
              "name": "country",
              "type": "string"
            },
            {
              "name": "cmo",
              "type": "string"
            },
            {
              "name": "theme",
              "type": "string"
            },
            {
              "name": "claimInbox",
              "type": "uint256[]"
            },
            {
              "name": "claims",
              "type": "uint256[]"
            },
            {
              "name": "userRequests",
              "type": "address[]"
            },
            {
              "name": "totalTokens",
              "type": "uint256"
            }
          ],
          "name": "",
          "type": "tuple[]"
        }
      ],
      "payable": false,
      "stateMutability": "view",
      "type": "function"
    },
    {
      "constant": false,
      "inputs": [
        {
          "name": "_memberId",
          "type": "uint256"
        },
        {
          "name": "_creationDate",
          "type": "uint256"
        },
        {
          "name": "_name",
          "type": "string"
        },
        {
          "name": "_logo",
          "type": "string"
        },
        {
          "name": "_country",
          "type": "string"
        },
        {
          "name": "_cmo",
          "type": "string"
        },
        {
          "name": "_theme",
          "type": "string"
        },
        {
          "name": "_totalTokens",
          "type": "uint256"
        }
      ],
      "name": "updateMember",
      "outputs": [],
      "payable": false,
      "stateMutability": "nonpayable",
      "type": "function"
    },
    {
      "constant": false,
      "inputs": [
        {
          "name": "_memberId",
          "type": "uint256"
        },
        {
          "name": "_claimId",
          "type": "uint256"
        }
      ],
      "name": "_addClaimIdToMemberOwner",
      "outputs": [],
      "payable": false,
      "stateMutability": "nonpayable",
      "type": "function"
    },
    {
      "constant": false,
      "inputs": [],
      "name": "renounceSigner",
      "outputs": [],
      "payable": false,
      "stateMutability": "nonpayable",
      "type": "function"
    },
    {
      "constant": false,
      "inputs": [
        {
          "name": "account",
          "type": "address"
        }
      ],
      "name": "addSigner",
      "outputs": [],
      "payable": false,
      "stateMutability": "nonpayable",
      "type": "function"
    },
    {
      "constant": true,
      "inputs": [
        {
          "name": "_memberId",
          "type": "uint256"
        }
      ],
      "name": "_memberExists",
      "outputs": [
        {
          "name": "",
          "type": "bool"
        }
      ],
      "payable": false,
      "stateMutability": "view",
      "type": "function"
    },
    {
      "constant": false,
      "inputs": [
        {
          "name": "_creationDate",
          "type": "uint256"
        },
        {
          "name": "_name",
          "type": "string"
        },
        {
          "name": "_logo",
          "type": "string"
        },
        {
          "name": "_country",
          "type": "string"
        },
        {
          "name": "_cmo",
          "type": "string"
        },
        {
          "name": "_theme",
          "type": "string"
        }
      ],
      "name": "addMember",
      "outputs": [
        {
          "name": "",
          "type": "uint256"
        }
      ],
      "payable": false,
      "stateMutability": "nonpayable",
      "type": "function"
    },
    {
      "anonymous": false,
      "inputs": [
        {
          "indexed": true,
          "name": "account",
          "type": "address"
        }
      ],
      "name": "SignerAdded",
      "type": "event"
    },
    {
      "anonymous": false,
      "inputs": [
        {
          "indexed": true,
          "name": "account",
          "type": "address"
        }
      ],
      "name": "SignerRemoved",
      "type": "event"
    },
    {
      "constant": false,
      "inputs": [
        {
          "name": "_creationDate",
          "type": "uint256"
        },
        {
          "name": "_firstName",
          "type": "string"
        },
        {
          "name": "_lastName",
          "type": "string"
        },
        {
          "name": "_role",
          "type": "string"
        },
        {
          "name": "_memberId",
          "type": "uint256"
        }
      ],
      "name": "registerUserRequest",
      "outputs": [],
      "payable": false,
      "stateMutability": "nonpayable",
      "type": "function"
    },
    {
      "constant": false,
      "inputs": [
        {
          "name": "_firstName",
          "type": "string"
        },
        {
          "name": "_lastName",
          "type": "string"
        },
        {
          "name": "_memberId",
          "type": "uint256"
        },
        {
          "name": "_role",
          "type": "string"
        },
        {
          "name": "owner",
          "type": "address"
        },
        {
          "name": "_tokens",
          "type": "uint256"
        }
      ],
      "name": "updateUser",
      "outputs": [],
      "payable": false,
      "stateMutability": "nonpayable",
      "type": "function"
    },
    {
      "constant": true,
      "inputs": [
        {
          "name": "_memberId",
          "type": "uint256"
        }
      ],
      "name": "getUsedTokens",
      "outputs": [
        {
          "name": "",
          "type": "uint256"
        }
      ],
      "payable": false,
      "stateMutability": "view",
      "type": "function"
    },
    {
      "constant": false,
      "inputs": [
        {
          "name": "_firstName",
          "type": "string"
        },
        {
          "name": "_lastName",
          "type": "string"
        },
        {
          "name": "_memberId",
          "type": "uint256"
        },
        {
          "name": "_role",
          "type": "string"
        },
        {
          "name": "owner",
          "type": "address"
        },
        {
          "name": "_groups",
          "type": "string[]"
        }
      ],
      "name": "updateSuperUser",
      "outputs": [],
      "payable": false,
      "stateMutability": "nonpayable",
      "type": "function"
    },
    {
      "constant": false,
      "inputs": [
        {
          "name": "_userToReject",
          "type": "address"
        }
      ],
      "name": "rejectUser",
      "outputs": [],
      "payable": false,
      "stateMutability": "nonpayable",
      "type": "function"
    },
    {
      "constant": false,
      "inputs": [
        {
          "name": "_userToAccept",
          "type": "address"
        }
      ],
      "name": "acceptUser",
      "outputs": [],
      "payable": false,
      "stateMutability": "nonpayable",
      "type": "function"
    },
    {
      "constant": true,
      "inputs": [],
      "name": "getcountUsers",
      "outputs": [
        {
          "name": "",
          "type": "uint256"
        }
      ],
      "payable": false,
      "stateMutability": "view",
      "type": "function"
    },
    {
      "constant": false,
      "inputs": [
        {
          "name": "account",
          "type": "address"
        },
        {
          "name": "_cmo",
          "type": "string"
        }
      ],
      "name": "whitelistAdmin",
      "outputs": [],
      "payable": false,
      "stateMutability": "nonpayable",
      "type": "function"
    },
    {
      "constant": true,
      "inputs": [
        {
          "name": "_page",
          "type": "uint256"
        }
      ],
      "name": "getUsers",
      "outputs": [
        {
          "components": [
            {
              "name": "creationDate",
              "type": "uint256"
            },
            {
              "name": "firstName",
              "type": "string"
            },
            {
              "name": "lastName",
              "type": "string"
            },
            {
              "name": "memberId",
              "type": "uint256"
            },
            {
              "name": "requestId",
              "type": "uint256"
            },
            {
              "name": "role",
              "type": "string"
            },
            {
              "name": "status",
              "type": "uint8"
            },
            {
              "name": "owner",
              "type": "address"
            },
            {
              "name": "cmo",
              "type": "string"
            },
            {
              "name": "groups",
              "type": "string[]"
            },
            {
              "name": "tokens",
              "type": "uint256"
            }
          ],
          "name": "",
          "type": "tuple[]"
        }
      ],
      "payable": false,
      "stateMutability": "view",
      "type": "function"
    },
    {
      "constant": true,
      "inputs": [
        {
          "name": "userAddress",
          "type": "address"
        }
      ],
      "name": "getUserByAddress",
      "outputs": [
        {
          "components": [
            {
              "name": "creationDate",
              "type": "uint256"
            },
            {
              "name": "firstName",
              "type": "string"
            },
            {
              "name": "lastName",
              "type": "string"
            },
            {
              "name": "memberId",
              "type": "uint256"
            },
            {
              "name": "requestId",
              "type": "uint256"
            },
            {
              "name": "role",
              "type": "string"
            },
            {
              "name": "status",
              "type": "uint8"
            },
            {
              "name": "owner",
              "type": "address"
            },
            {
              "name": "cmo",
              "type": "string"
            },
            {
              "name": "groups",
              "type": "string[]"
            },
            {
              "name": "tokens",
              "type": "uint256"
            }
          ],
          "name": "",
          "type": "tuple"
        }
      ],
      "payable": false,
      "stateMutability": "view",
      "type": "function"
    },
    {
      "constant": true,
      "inputs": [],
      "name": "getUsersOwner",
      "outputs": [
        {
          "components": [
            {
              "name": "creationDate",
              "type": "uint256"
            },
            {
              "name": "firstName",
              "type": "string"
            },
            {
              "name": "lastName",
              "type": "string"
            },
            {
              "name": "memberId",
              "type": "uint256"
            },
            {
              "name": "requestId",
              "type": "uint256"
            },
            {
              "name": "role",
              "type": "string"
            },
            {
              "name": "status",
              "type": "uint8"
            },
            {
              "name": "owner",
              "type": "address"
            },
            {
              "name": "cmo",
              "type": "string"
            },
            {
              "name": "groups",
              "type": "string[]"
            },
            {
              "name": "tokens",
              "type": "uint256"
            }
          ],
          "name": "",
          "type": "tuple[]"
        }
      ],
      "payable": false,
      "stateMutability": "view",
      "type": "function"
    },
    {
      "constant": true,
      "inputs": [],
      "name": "getMe",
      "outputs": [
        {
          "components": [
            {
              "name": "creationDate",
              "type": "uint256"
            },
            {
              "name": "firstName",
              "type": "string"
            },
            {
              "name": "lastName",
              "type": "string"
            },
            {
              "name": "memberId",
              "type": "uint256"
            },
            {
              "name": "requestId",
              "type": "uint256"
            },
            {
              "name": "role",
              "type": "string"
            },
            {
              "name": "status",
              "type": "uint8"
            },
            {
              "name": "owner",
              "type": "address"
            },
            {
              "name": "cmo",
              "type": "string"
            },
            {
              "name": "groups",
              "type": "string[]"
            },
            {
              "name": "tokens",
              "type": "uint256"
            }
          ],
          "name": "",
          "type": "tuple"
        }
      ],
      "payable": false,
      "stateMutability": "view",
      "type": "function"
    },
    {
      "constant": true,
      "inputs": [
        {
          "name": "addr",
          "type": "address"
        }
      ],
      "name": "_memberIdFromCurrentAddress",
      "outputs": [
        {
          "name": "",
          "type": "uint256"
        }
      ],
      "payable": false,
      "stateMutability": "view",
      "type": "function"
    },
    {
      "constant": false,
      "inputs": [
        {
          "name": "addr",
          "type": "address"
        },
        {
          "name": "transactionPrice",
          "type": "uint256"
        }
      ],
      "name": "updateTokens",
      "outputs": [],
      "payable": false,
      "stateMutability": "nonpayable",
      "type": "function"
    },
    {
      "constant": true,
      "inputs": [
        {
          "name": "addr",
          "type": "address"
        }
      ],
      "name": "getUserTokensByAddress",
      "outputs": [
        {
          "name": "",
          "type": "uint256"
        }
      ],
      "payable": false,
      "stateMutability": "view",
      "type": "function"
    }
  ],
  "bytecode": "0x608060405260006003556200001d3364010000000062000023810204565b62000108565b6200003e600082640100000000620047f76200007582021704565b604051600160a060020a038216907f47d1c22a25bb3a5d4e481b9b1e6944c2eade3181a0a20b495ed61d35b5323f2490600090a250565b600160a060020a03811615156200008b57600080fd5b620000a08282640100000000620000d0810204565b15620000ab57600080fd5b600160a060020a0316600090815260209190915260409020805460ff19166001179055565b6000600160a060020a0382161515620000e857600080fd5b50600160a060020a03166000908152602091909152604090205460ff1690565b615ecd80620001186000396000f3006080604052600436106101b65763ffffffff7c010000000000000000000000000000000000000000000000000000000060003504166308bdc24d81146101bb57806325f0473b146101dd5780633a59ccf1146101fd5780634dc928851461021d5780635d73ab9a1461023d5780636262dff614610273578063656d561c146102a057806367e482ad146102c257806369c212f6146102e2578063748532391461030f5780637df73e271461032f5780638b92892b1461035c5780639249d7531461037c578063932191be146103a9578063989359df146103be5780639eab5253146103de578063a4fdc59414610400578063a7ed1fe414610415578063a87d942c14610435578063a9eff5111461044a578063affccd841461046a578063bb03b7061461048a578063bcec99a6146104aa578063bf3d007e146104ca578063c11e1ff3146104ea578063c29c9225146104ff578063c477ecab1461051f578063d68dee9d1461053f578063e2c11f9e1461055f578063e5c8b03d1461057f578063eb12d61e14610594578063eff34e59146105b4578063f8380733146105d4578063fa1188c6146105f4578063fc81b52514610614575b600080fd5b3480156101c757600080fd5b506101db6101d6366004614dd6565b610634565b005b3480156101e957600080fd5b506101db6101f8366004614f99565b610834565b34801561020957600080fd5b506101db610218366004614e7e565b6109ce565b34801561022957600080fd5b506101db610238366004614dd6565b610a2a565b34801561024957600080fd5b5061025d610258366004615090565b610b9c565b60405161026a9190615c50565b60405180910390f35b34801561027f57600080fd5b5061029361028e366004615090565b6110f5565b60405161026a9190615c61565b3480156102ac57600080fd5b506102b561118a565b60405161026a9190615c2e565b3480156102ce57600080fd5b506101db6102dd366004614e4e565b611263565b3480156102ee57600080fd5b506103026102fd366004614dd6565b6112a4565b60405161026a9190615d90565b34801561031b57600080fd5b506101db61032a3660046152a5565b611673565b34801561033b57600080fd5b5061034f61034a366004614dd6565b611699565b60405161026a9190615c72565b34801561036857600080fd5b506101db6103773660046152a5565b6116b1565b34801561038857600080fd5b5061039c610397366004614dd6565b6117cf565b60405161026a9190615da1565b3480156103b557600080fd5b5061025d6117ed565b3480156103ca57600080fd5b506102936103d936600461505a565b611c5b565b3480156103ea57600080fd5b506103f3611e4c565b60405161026a9190615c3f565b34801561040c57600080fd5b5061039c61231d565b34801561042157600080fd5b506101db6104303660046151e8565b6123e3565b34801561044157600080fd5b5061039c6124aa565b34801561045657600080fd5b506101db610465366004614dfc565b6124c7565b34801561047657600080fd5b5061039c610485366004615090565b612625565b34801561049657600080fd5b506101db6104a53660046152a5565b61263a565b3480156104b657600080fd5b506101db6104c5366004614eb3565b612750565b3480156104d657600080fd5b506101db6104e5366004615090565b6129ac565b3480156104f657600080fd5b50610302612a69565b34801561050b57600080fd5b506101db61051a3660046150ae565b612e3a565b34801561052b57600080fd5b506103f361053a366004615090565b612e5f565b34801561054b57600080fd5b506101db61055a3660046152c4565b613384565b34801561056b57600080fd5b506101db61057a3660046152a5565b613464565b34801561058b57600080fd5b506101db61348a565b3480156105a057600080fd5b506101db6105af366004614dd6565b613495565b3480156105c057600080fd5b5061039c6105cf366004614dd6565b6134b2565b3480156105e057600080fd5b5061034f6105ef366004615090565b6134d0565b34801561060057600080fd5b5061039c61060f3660046150f6565b6134e3565b34801561062057600080fd5b5061039c61062f366004615090565b61358a565b600160a060020a038181166000908152600560205260408120600601546101009004909116116106825760405160e560020a62461bcd02815260040161067990615cc0565b60405180910390fd5b600160a060020a038116600090815260056020526040808220600390810154338452919092209091015414806106bc57506106bc33611699565b15156106dd5760405160e560020a62461bcd02815260040161067990615cd0565b60023360009081526005602052604090206006015460ff16600281111561070057fe5b1480610710575061071033611699565b15156107315760405160e560020a62461bcd02815260040161067990615d50565b6001600160a060020a03821660009081526005602052604090206006015460ff16600281111561075d57fe5b1461077d5760405160e560020a62461bcd02815260040161067990615ca0565b600160a060020a038116600090815260056020908152604080832060030154835260029091529020600a0154612710101561082857600160a060020a038116600090815260056020526040902060068101805460ff19166002179055600301546107e7908261362b565b600160a060020a0381166000908152600560209081526040808320612710600982015560030154835260029091529020600a01805461270f19019055610831565b61083181610a2a565b50565b600160a060020a0382811660009081526005602052604081206006015490918291829161010090910416811061087f5760405160e560020a62461bcd02815260040161067990615cc0565b6002600160a060020a03861660009081526005602052604090206006015460ff1660028111156108ab57fe5b146108cb5760405160e560020a62461bcd02815260040161067990615d50565b600160a060020a03851660009081526005602052604090206009015484101561093157600160a060020a0385166000908152600560209081526040808320600981015460039091015484526002909252909120600a01805491869003909101905561096f565b600160a060020a0385166000908152600560209081526040808320600981015460039091015484526002909252909120600a01805491860390910390555b600160a060020a0385166000908152600560205260409020600981018590556004810154815460069092015490945090925060ff1660028111156109af57fe5b90506109c3828a8a8a878b878c6001613790565b505050505050505050565b6109d733611699565b15156109e257600080fd5b600180548082018083556000929092528251610a25917fb10e2d527612073b26eecdfd717e6a320cf44b4afac2b0732d9fcbe2b7fa0cf601906020850190614845565b505050565b600160a060020a03818116600090815260056020526040812060060154610100900490911611610a6f5760405160e560020a62461bcd02815260040161067990615cc0565b600160a060020a03811660009081526005602052604080822060039081015433845291909220909101541480610aa95750610aa933611699565b1515610aca5760405160e560020a62461bcd02815260040161067990615cd0565b60023360009081526005602052604090206006015460ff166002811115610aed57fe5b1480610afd5750610afd33611699565b1515610b1e5760405160e560020a62461bcd02815260040161067990615d50565b6001600160a060020a03821660009081526005602052604090206006015460ff166002811115610b4a57fe5b14610b6a5760405160e560020a62461bcd02815260040161067990615ce0565b600160a060020a038116600090815260056020526040902060068101805460ff1916905560030154610831908261362b565b606060008060006060600080610bb061231d565b9550610bbd600a89613e52565b600654909550610bce90600a613e87565b9350851580610bdc57508585115b80610be657508388115b15610bf0576110ea565b60408051600a808252610160820190925290816020015b610c0f6148bf565b815260200190600190039081610c07579050509250600091508490505b6006548110156110e6573360009081526005602081905260408220600301546006805491939185908110610c5c57fe5b6000918252602080832090910154600160a060020a03168352820192909252604001902060030154148015610cd95750600260056000600684815481101515610ca157fe5b6000918252602080832090910154600160a060020a0316835282019290925260400190206006015460ff166002811115610cd757fe5b145b156110de5760056000600683815481101515610cf157fe5b6000918252602080832090910154600160a060020a03168352828101939093526040918201902081516101608101835281548152600182810180548551601f6002600019958416156101000295909501909216939093049081018790048702830187019095528482529194929385840193919291830182828015610db65780601f10610d8b57610100808354040283529160200191610db6565b820191906000526020600020905b815481529060010190602001808311610d9957829003601f168201915b5050509183525050600282810180546040805160206001841615610100026000190190931694909404601f81018390048302850183019091528084529381019390830182828015610e485780601f10610e1d57610100808354040283529160200191610e48565b820191906000526020600020905b815481529060010190602001808311610e2b57829003601f168201915b505050505081526020016003820154815260200160048201548152602001600582018054600181600116156101000203166002900480601f016020809104026020016040519081016040528092919081815260200182805460018160011615610100020316600290048015610efe5780601f10610ed357610100808354040283529160200191610efe565b820191906000526020600020905b815481529060010190602001808311610ee157829003601f168201915b5050509183525050600682015460209091019060ff166002811115610f1f57fe5b6002811115610f2a57fe5b8152600682015461010090819004600160a060020a031660208084019190915260078401805460408051600260018416159096026000190190921694909404601f810184900484028201840185528082529390940193929091830182828015610fd45780601f10610fa957610100808354040283529160200191610fd4565b820191906000526020600020905b815481529060010190602001808311610fb757829003601f168201915b5050505050815260200160088201805480602002602001604051908101604052809291908181526020016000905b828210156110ad5760008481526020908190208301805460408051601f60026000196101006001871615020190941693909304928301859004850281018501909152818152928301828280156110995780601f1061106e57610100808354040283529160200191611099565b820191906000526020600020905b81548152906001019060200180831161107c57829003601f168201915b505050505081526020019060010190611002565b50505050815260200160098201548152505083838151811015156110cd57fe5b602090810290910101526001909101905b600101610c2c565b8296505b505050505050919050565b600081815260026020526040812054606091106111275760405160e560020a62461bcd02815260040161067990615d00565b6000828152600260209081526040918290206008018054835181840281018401909452808452909183018282801561117e57602002820191906000526020600020905b81548152602001906001019080831161116a575b50505050509050919050565b60606001805480602002602001604051908101604052809291908181526020016000905b828210156112595760008481526020908190208301805460408051601f60026000196101006001871615020190941693909304928301859004850281018501909152818152928301828280156112455780601f1061121a57610100808354040283529160200191611245565b820191906000526020600020905b81548152906001019060200180831161122857829003601f168201915b5050505050815260200190600101906111ae565b5050505090505b90565b600160a060020a039091166000908152600560209081526040808320600981018054869003905560030154835260029091529020600a018054919091039055565b6112ac6148bf565b600160a060020a03821660009081526005602090815260409182902082516101608101845281548152600180830180548651600293821615610100026000190190911692909204601f81018690048602830186019096528582529194929385810193919291908301828280156113635780601f1061133857610100808354040283529160200191611363565b820191906000526020600020905b81548152906001019060200180831161134657829003601f168201915b5050509183525050600282810180546040805160206001841615610100026000190190931694909404601f810183900483028501830190915280845293810193908301828280156113f55780601f106113ca576101008083540402835291602001916113f5565b820191906000526020600020905b8154815290600101906020018083116113d857829003601f168201915b505050505081526020016003820154815260200160048201548152602001600582018054600181600116156101000203166002900480601f0160208091040260200160405190810160405280929190818152602001828054600181600116156101000203166002900480156114ab5780601f10611480576101008083540402835291602001916114ab565b820191906000526020600020905b81548152906001019060200180831161148e57829003601f168201915b5050509183525050600682015460209091019060ff1660028111156114cc57fe5b60028111156114d757fe5b8152600682015461010090819004600160a060020a031660208084019190915260078401805460408051600260018416159096026000190190921694909404601f8101849004840282018401855280825293909401939290918301828280156115815780601f1061155657610100808354040283529160200191611581565b820191906000526020600020905b81548152906001019060200180831161156457829003601f168201915b5050505050815260200160088201805480602002602001604051908101604052809291908181526020016000905b8282101561165a5760008481526020908190208301805460408051601f60026000196101006001871615020190941693909304928301859004850281018501909152818152928301828280156116465780601f1061161b57610100808354040283529160200191611646565b820191906000526020600020905b81548152906001019060200180831161162957829003601f168201915b5050505050815260200190600101906115af565b5050505081526020016009820154815250509050919050565b600091825260026020908152604083206007018054600181018255908452922090910155565b60006116ab818363ffffffff613eaa16565b92915050565b6000805b600084815260026020526040902060070154600019018110156117715760008481526002602052604090206007018054849190839081106116f257fe5b9060005260206000200154141561170857600191505b811561176957600084815260026020526040902060070180546001830190811061172e57fe5b9060005260206000200154600260008681526020019081526020016000206007018281548110151561175c57fe5b6000918252602090912001555b6001016116b5565b81156117c95760008481526002602052604090206007018054600019810190811061179857fe5b6000918252602080832090910182905585825260029052604090206007018054906117c790600019830161492e565b505b50505050565b600160a060020a031660009081526005602052604090206009015490565b60608060006117fb33611699565b151561180657600080fd5b60065460408051828152602080840282010190915290801561184257816020015b61182f6148bf565b8152602001906001900390816118275790505b509150600090505b600654811015611c55576005600060068381548110151561186757fe5b6000918252602080832090910154600160a060020a03168352828101939093526040918201902081516101608101835281548152600182810180548551601f600260001995841615610100029590950190921693909304908101879004870283018701909552848252919492938584019391929183018282801561192c5780601f106119015761010080835404028352916020019161192c565b820191906000526020600020905b81548152906001019060200180831161190f57829003601f168201915b5050509183525050600282810180546040805160206001841615610100026000190190931694909404601f810183900483028501830190915280845293810193908301828280156119be5780601f10611993576101008083540402835291602001916119be565b820191906000526020600020905b8154815290600101906020018083116119a157829003601f168201915b505050505081526020016003820154815260200160048201548152602001600582018054600181600116156101000203166002900480601f016020809104026020016040519081016040528092919081815260200182805460018160011615610100020316600290048015611a745780601f10611a4957610100808354040283529160200191611a74565b820191906000526020600020905b815481529060010190602001808311611a5757829003601f168201915b5050509183525050600682015460209091019060ff166002811115611a9557fe5b6002811115611aa057fe5b8152600682015461010090819004600160a060020a031660208084019190915260078401805460408051600260018416159096026000190190921694909404601f810184900484028201840185528082529390940193929091830182828015611b4a5780601f10611b1f57610100808354040283529160200191611b4a565b820191906000526020600020905b815481529060010190602001808311611b2d57829003601f168201915b5050505050815260200160088201805480602002602001604051908101604052809291908181526020016000905b82821015611c235760008481526020908190208301805460408051601f6002600019610100600187161502019094169390930492830185900485028101850190915281815292830182828015611c0f5780601f10611be457610100808354040283529160200191611c0f565b820191906000526020600020905b815481529060010190602001808311611bf257829003601f168201915b505050505081526020019060010190611b78565b5050505081526020016009820154815250508282815181101515611c4357fe5b6020908102909101015260010161184a565b50919050565b60606000805b600454811015611df657846040518082805190602001908083835b60208310611c9b5780518252601f199092019160209182019101611c7c565b6001836020036101000a03801982511681845116808217855250505050505090500191505060405180910390206000191660026000600484815481101515611cdf57fe5b906000526020600020015481526020019081526020016000206005016040518082805460018160011615610100020316600290048015611d565780601f10611d34576101008083540402835291820191611d56565b820191906000526020600020905b815481529060010190602001808311611d42575b5050915050604051809103902060001916148015611da357508360026000600484815481101515611d8357fe5b906000526020600020015481526020019081526020016000206000015414155b15611dee578160026000600484815481101515611dbc57fe5b600091825260208083209091015483528281019390935260409091018120548354600181018555938252919020909101555b600101611c61565b815460408051602080840282018101909252828152918491830182828015611e3d57602002820191906000526020600020905b815481526020019060010190808311611e29575b50505050509250505092915050565b6060806000600480549050604051908082528060200260200182016040528015611e9057816020015b611e7d614952565b815260200190600190039081611e755790505b509150600090505b600454811015611c555760026000600483815481101515611eb557fe5b9060005260206000200154815260200190815260200160002061016060405190810160405290816000820154815260200160018201548152602001600282018054600181600116156101000203166002900480601f016020809104026020016040519081016040528092919081815260200182805460018160011615610100020316600290048015611f885780601f10611f5d57610100808354040283529160200191611f88565b820191906000526020600020905b815481529060010190602001808311611f6b57829003601f168201915b505050918352505060038201805460408051602060026001851615610100026000190190941693909304601f810184900484028201840190925281815293820193929183018282801561201c5780601f10611ff15761010080835404028352916020019161201c565b820191906000526020600020905b815481529060010190602001808311611fff57829003601f168201915b505050918352505060048201805460408051602060026001851615610100026000190190941693909304601f81018490048402820184019092528181529382019392918301828280156120b05780601f10612085576101008083540402835291602001916120b0565b820191906000526020600020905b81548152906001019060200180831161209357829003601f168201915b505050918352505060058201805460408051602060026001851615610100026000190190941693909304601f81018490048402820184019092528181529382019392918301828280156121445780601f1061211957610100808354040283529160200191612144565b820191906000526020600020905b81548152906001019060200180831161212757829003601f168201915b505050918352505060068201805460408051602060026001851615610100026000190190941693909304601f81018490048402820184019092528181529382019392918301828280156121d85780601f106121ad576101008083540402835291602001916121d8565b820191906000526020600020905b8154815290600101906020018083116121bb57829003601f168201915b505050505081526020016007820180548060200260200160405190810160405280929190818152602001828054801561223057602002820191906000526020600020905b81548152602001906001019080831161221c575b505050505081526020016008820180548060200260200160405190810160405280929190818152602001828054801561228857602002820191906000526020600020905b815481526020019060010190808311612274575b50505050508152602001600982018054806020026020016040519081016040528092919081815260200182805480156122ea57602002820191906000526020600020905b8154600160a060020a031681526001909101906020018083116122cc575b50505050508152602001600a82015481525050828281518110151561230b57fe5b60209081029091010152600101611e98565b600080805b600654811015611c5557336000908152600560208190526040822060030154600680549193918590811061235257fe5b6000918252602080832090910154600160a060020a031683528201929092526040019020600301541480156123cf575060026005600060068481548110151561239757fe5b6000918252602080832090910154600160a060020a0316835282019290925260400190206006015460ff1660028111156123cd57fe5b145b156123db576001909101905b600101612322565b60008115156124075760405160e560020a62461bcd02815260040161067990615d70565b6000861161242a5760405160e560020a62461bcd02815260040161067990615d80565b336000908152600560205260409020541561245a5760405160e560020a62461bcd02815260040161067990615cb0565b612463826134d0565b15156124845760405160e560020a62461bcd02815260040161067990615d20565b61248d86613ee1565b90506124a28686868585886001336000613790565b505050505050565b60006124b533611699565b15156124c057600080fd5b5060045490565b6124d033611699565b15156124db57600080fd5b600160a060020a038216600090815260056020526040902060030154612501908361362b565b604080518082018252600b81527f53757065722061646d696e0000000000000000000000000000000000000000006020808301918252600160a060020a0386166000908152600591829052939093209151612560939290920191614845565b5060038054600101808255600160a060020a038416600090815260056020908152604090912092830191909155825161259f9260070191840190614845565b50600160a060020a03821660008181526005602081815260408084206006808201805460ff1916600217905582516060810184528085019182527f64696769743100000000000000000000000000000000000000000000000000009381019390935282529490935252612617916008019060016149ad565b5061262182613495565b5050565b60009081526002602052604090206008015490565b6000805b600084815260026020526040902060080154600019018110156126fa57600084815260026020526040902060080180548491908390811061267b57fe5b9060005260206000200154141561269157600191505b81156126f25760008481526002602052604090206008018054600183019081106126b757fe5b906000526020600020015460026000868152602001908152602001600020600801828154811015156126e557fe5b6000918252602090912001555b60010161263e565b81156117c95760008481526002602052604090206008018054600019810190811061272157fe5b6000918252602080832090910182905585825260029052604090206008018054906117c790600019830161492e565b600160a060020a03821660009081526005602090815260408220885161277e926001909201918a0190614845565b50600160a060020a038316600090815260056020908152604090912087516127ae92600290920191890190614845565b50600160a060020a038316600090815260056020908152604090912083516127de92600890920191850190614a06565b50600090505b6006548110156129a3576005600084600160a060020a0316600160a060020a0316815260200190815260200160002060070160405180828054600181600116156101000203166002900480156128715780601f1061284f576101008083540402835291820191612871565b820191906000526020600020905b81548152906001019060200180831161285d575b50509150506040518091039020600019166005600060068481548110151561289557fe5b9060005260206000200160009054906101000a9004600160a060020a0316600160a060020a0316600160a060020a0316815260200190815260200160002060070160405180828054600181600116156101000203166002900480156129315780601f1061290f576101008083540402835291820191612931565b820191906000526020600020905b81548152906001019060200180831161291d575b5050915050604051809103902060001916141561299b57816005600060068481548110151561295c57fe5b6000918252602080832090910154600160a060020a0316835282810193909352604090910190208251612999936008909201929190910190614a06565b505b6001016127e4565b50505050505050565b60006129b733611699565b15156129c257600080fd5b50805b60015460001901811015612a2e57600180548282019081106129e357fe5b906000526020600020016001828154811015156129fc57fe5b906000526020600020019080546001816001161561010002031660029004612a25929190614a53565b506001016129c5565b600180546000198101908110612a4057fe5b906000526020600020016000612a569190614ac8565b6001805490610a25906000198301614b0c565b612a716148bf565b612a796148bf565b3360009081526005602090815260409182902082516101608101845281548152600180830180548651600293821615610100026000190190911692909204601f8101869004860283018601909652858252919492938581019391929190830182828015612b275780601f10612afc57610100808354040283529160200191612b27565b820191906000526020600020905b815481529060010190602001808311612b0a57829003601f168201915b5050509183525050600282810180546040805160206001841615610100026000190190931694909404601f81018390048302850183019091528084529381019390830182828015612bb95780601f10612b8e57610100808354040283529160200191612bb9565b820191906000526020600020905b815481529060010190602001808311612b9c57829003601f168201915b505050505081526020016003820154815260200160048201548152602001600582018054600181600116156101000203166002900480601f016020809104026020016040519081016040528092919081815260200182805460018160011615610100020316600290048015612c6f5780601f10612c4457610100808354040283529160200191612c6f565b820191906000526020600020905b815481529060010190602001808311612c5257829003601f168201915b5050509183525050600682015460209091019060ff166002811115612c9057fe5b6002811115612c9b57fe5b8152600682015461010090819004600160a060020a031660208084019190915260078401805460408051600260018416159096026000190190921694909404601f810184900484028201840185528082529390940193929091830182828015612d455780601f10612d1a57610100808354040283529160200191612d45565b820191906000526020600020905b815481529060010190602001808311612d2857829003601f168201915b5050505050815260200160088201805480602002602001604051908101604052809291908181526020016000905b82821015612e1e5760008481526020908190208301805460408051601f6002600019610100600187161502019094169390930492830185900485028101850190915281815292830182828015612e0a5780601f10612ddf57610100808354040283529160200191612e0a565b820191906000526020600020905b815481529060010190602001808311612ded57829003601f168201915b505050505081526020019060010190612d73565b50505050815260200160098201548152505090508091505b5090565b60008281526002602090815260409091208251610a2592600790920191840190614b30565b6060600080600060606000612e75600a88613e52565b600454909550612e8690600a613e87565b6004549094501580612e9d57506004546000190185115b80612ea757508387115b15612eb15761337a565b60408051600a80825261016082019092526000945090816020015b612ed4614952565b815260200190600190039081612ecc5790505091508490505b6004548110156133765760026000600483815481101515612f0a57fe5b9060005260206000200154815260200190815260200160002061016060405190810160405290816000820154815260200160018201548152602001600282018054600181600116156101000203166002900480601f016020809104026020016040519081016040528092919081815260200182805460018160011615610100020316600290048015612fdd5780601f10612fb257610100808354040283529160200191612fdd565b820191906000526020600020905b815481529060010190602001808311612fc057829003601f168201915b505050918352505060038201805460408051602060026001851615610100026000190190941693909304601f81018490048402820184019092528181529382019392918301828280156130715780601f1061304657610100808354040283529160200191613071565b820191906000526020600020905b81548152906001019060200180831161305457829003601f168201915b505050918352505060048201805460408051602060026001851615610100026000190190941693909304601f81018490048402820184019092528181529382019392918301828280156131055780601f106130da57610100808354040283529160200191613105565b820191906000526020600020905b8154815290600101906020018083116130e857829003601f168201915b505050918352505060058201805460408051602060026001851615610100026000190190941693909304601f81018490048402820184019092528181529382019392918301828280156131995780601f1061316e57610100808354040283529160200191613199565b820191906000526020600020905b81548152906001019060200180831161317c57829003601f168201915b505050918352505060068201805460408051602060026001851615610100026000190190941693909304601f810184900484028201840190925281815293820193929183018282801561322d5780601f106132025761010080835404028352916020019161322d565b820191906000526020600020905b81548152906001019060200180831161321057829003601f168201915b505050505081526020016007820180548060200260200160405190810160405280929190818152602001828054801561328557602002820191906000526020600020905b815481526020019060010190808311613271575b50505050508152602001600882018054806020026020016040519081016040528092919081815260200182805480156132dd57602002820191906000526020600020905b8154815260200190600101908083116132c9575b505050505081526020016009820180548060200260200160405190810160405280929190818152602001828054801561333f57602002820191906000526020600020905b8154600160a060020a03168152600190910190602001808311613321575b50505050508152602001600a82015481525050828481518110151561336057fe5b6020908102909101015260019283019201612eed565b8195505b5050505050919050565b61338d33611699565b151561339857600080fd5b600088815260026020526040812054116133c75760405160e560020a62461bcd02815260040161067990615d20565b60008881526002602052604090206001015487146133fa5760405160e560020a62461bcd02815260040161067990615c80565b6000888152600260208181526040909220885161341f93919092019190890190614845565b506000888152600260209081526040909120835161344592600690920191850190614845565b50600097885260026020526040909720600a0196909655505050505050565b600091825260026020908152604083206008018054600181018255908452922090910155565b613493336140d0565b565b61349e33611699565b15156134a957600080fd5b61083181614118565b600160a060020a031660009081526005602052604090206003015490565b6000908152600260205260408120541190565b6000806134ef33611699565b15156134fa57600080fd5b6000881161351d5760405160e560020a62461bcd02815260040161067990615d80565b506003805460010190819055600081815260026020526040902054156135585760405160e560020a62461bcd02815260040161067990615d10565b61356781898989898989614160565b60008181526002602052604090206298967f600a90910155979650505050505050565b600080805b6006548110156136245783600560006006848154811015156135ad57fe5b6000918252602080832090910154600160a060020a03168352820192909252604001902060030154141561361c57600560006006838154811015156135ee57fe5b6000918252602080832090910154600160a060020a0316835282019290925260400190206009015491909101905b60010161358f565b5092915050565b6000805b600084815260026020526040902060090154600019018110156137285760008481526002602052604090206009018054600160a060020a03851691908390811061367557fe5b600091825260209091200154600160a060020a0316141561369557600191505b81156137205760008481526002602052604090206009018054600183019081106136bb57fe5b6000918252602080832090910154868352600290915260409091206009018054600160a060020a0390921691839081106136f157fe5b9060005260206000200160006101000a815481600160a060020a030219169083600160a060020a031602179055505b60010161362f565b60008481526002602052604090206009018054600019810190811061374957fe5b60009182526020808320909101805473ffffffffffffffffffffffffffffffffffffffff1916905585825260029052604090206009018054906117c790600019830161492e565b6137986148bf565b6000841015806137a9575060028411155b15156137ca5760405160e560020a62461bcd02815260040161067990615cf0565b845115156137ed5760405160e560020a62461bcd02815260040161067990615c90565b600160a060020a03831660009081526005602090815260409182902082516101608101845281548152600180830180548651600293821615610100026000190190911692909204601f81018690048602830186019096528582529194929385810193919291908301828280156138a45780601f10613879576101008083540402835291602001916138a4565b820191906000526020600020905b81548152906001019060200180831161388757829003601f168201915b5050509183525050600282810180546040805160206001841615610100026000190190931694909404601f810183900483028501830190915280845293810193908301828280156139365780601f1061390b57610100808354040283529160200191613936565b820191906000526020600020905b81548152906001019060200180831161391957829003601f168201915b505050505081526020016003820154815260200160048201548152602001600582018054600181600116156101000203166002900480601f0160208091040260200160405190810160405280929190818152602001828054600181600116156101000203166002900480156139ec5780601f106139c1576101008083540402835291602001916139ec565b820191906000526020600020905b8154815290600101906020018083116139cf57829003601f168201915b5050509183525050600682015460209091019060ff166002811115613a0d57fe5b6002811115613a1857fe5b8152600682015461010090819004600160a060020a031660208084019190915260078401805460408051600260018416159096026000190190921694909404601f810184900484028201840185528082529390940193929091830182828015613ac25780601f10613a9757610100808354040283529160200191613ac2565b820191906000526020600020905b815481529060010190602001808311613aa557829003601f168201915b5050505050815260200160088201805480602002602001604051908101604052809291908181526020016000905b82821015613b9b5760008481526020908190208301805460408051601f6002600019610100600187161502019094169390930492830185900485028101850190915281815292830182828015613b875780601f10613b5c57610100808354040283529160200191613b87565b820191906000526020600020905b815481529060010190602001808311613b6a57829003601f168201915b505050505081526020019060010190613af0565b50505090825250600991909101546020918201528b825281018a905260408101899052606081018890526080810187905260a081018690529050836002811115613be157fe5b8160c001906002811115613bf157fe5b90816002811115613bfe57fe5b905250600160a060020a03831660e082018190526000908152600560209081526040909120825181558183015180518493613c40926001850192910190614845565b5060408201518051613c5c916002840191602090910190614845565b50606082015160038201556080820151600482015560a08201518051613c8c916005840191602090910190614845565b5060c082015160068201805460ff19166001836002811115613caa57fe5b021790555060e082015160068201805474ffffffffffffffffffffffffffffffffffffffff001916610100600160a060020a0390931683021790558201518051613cfe916007840191602090910190614845565b506101208201518051613d1b916008840191602090910190614b6a565b506101409190910151600990910155811515613e4657600680546001810182556000919091527ff652222313e28459528d920b65115c16c04f3efc82aaedc97be59f3f377c0d3f01805473ffffffffffffffffffffffffffffffffffffffff1916600160a060020a038516179055613d928761476b565b60408051606081018252600660208281019182527f646967697431000000000000000000000000000000000000000000000000000083850152908252600160a060020a0386166000908152600590915291909120613df79160089091019060016149ad565b5060608101516000908152600260208181526040808420600160a060020a0388168552600592839052932092018054613e4493600701926000196101006001841615020190911604614a53565b505b50505050505050505050565b600080831515613e655760009150613624565b50828202828482811515613e7557fe5b0414613e8057600080fd5b9392505050565b600080808311613e9657600080fd5b8284811515613ea157fe5b04949350505050565b6000600160a060020a0382161515613ec157600080fd5b50600160a060020a03166000908152602091909152604090205460ff1690565b6000808080600285061515613f735784604051602001808281526020019150506040516020818303038152906040526040518082805190602001908083835b60208310613f3f5780518252601f199092019160209182019101613f20565b6001836020036101000a0380198251168184511680821785525050505050509050019150506040518091039020925061405e565b84604051602001808281526020019150506040516020818303038152906040526040518082805190602001908083835b60208310613fc25780518252601f199092019160209182019101613fa3565b51815160209384036101000a600019018019909216911617905260408051929094018290038220828201528351808303820181529184019384905281519195509293508392850191508083835b6020831061402e5780518252601f19909201916020918201910161400f565b6001836020036101000a038019825116818451168082178552505050505050905001915050604051809103902092505b602081101561408b5782816020811061407357fe5b60f860020a91901a810204919091019060010161405e565b82602060028401066020811061409d57fe5b60f860020a91901a8102048360208406602081106140b757fe5b1a60f860020a0260f860020a9004029350505050919050565b6140e160008263ffffffff6147ab16565b604051600160a060020a038216907f3525e22824a8a7df2c9a6029941c824cf95b6447f1e13d5128fd3826d35afe8b90600090a250565b61412960008263ffffffff6147f716565b604051600160a060020a038216907f47d1c22a25bb3a5d4e481b9b1e6944c2eade3181a0a20b495ed61d35b5323f2490600090a250565b614168614952565b8551151561418b5760405160e560020a62461bcd02815260040161067990615d60565b825115156141ae5760405160e560020a62461bcd02815260040161067990615d40565b815115156141d15760405160e560020a62461bcd02815260040161067990615d30565b6000888152600260208181526040928390208351610160810185528154815260018083015482850152828501805487519281161561010002600019011695909504601f810185900485028201850187528082529195929492860193909291908301828280156142815780601f1061425657610100808354040283529160200191614281565b820191906000526020600020905b81548152906001019060200180831161426457829003601f168201915b505050918352505060038201805460408051602060026001851615610100026000190190941693909304601f81018490048402820184019092528181529382019392918301828280156143155780601f106142ea57610100808354040283529160200191614315565b820191906000526020600020905b8154815290600101906020018083116142f857829003601f168201915b505050918352505060048201805460408051602060026001851615610100026000190190941693909304601f81018490048402820184019092528181529382019392918301828280156143a95780601f1061437e576101008083540402835291602001916143a9565b820191906000526020600020905b81548152906001019060200180831161438c57829003601f168201915b505050918352505060058201805460408051602060026001851615610100026000190190941693909304601f810184900484028201840190925281815293820193929183018282801561443d5780601f106144125761010080835404028352916020019161443d565b820191906000526020600020905b81548152906001019060200180831161442057829003601f168201915b505050918352505060068201805460408051602060026001851615610100026000190190941693909304601f81018490048402820184019092528181529382019392918301828280156144d15780601f106144a6576101008083540402835291602001916144d1565b820191906000526020600020905b8154815290600101906020018083116144b457829003601f168201915b505050505081526020016007820180548060200260200160405190810160405280929190818152602001828054801561452957602002820191906000526020600020905b815481526020019060010190808311614515575b505050505081526020016008820180548060200260200160405190810160405280929190818152602001828054801561458157602002820191906000526020600020905b81548152602001906001019080831161456d575b50505050508152602001600982018054806020026020016040519081016040528092919081815260200182805480156145e357602002820191906000526020600020905b8154600160a060020a031681526001909101906020018083116145c5575b5050509183525050600a919091015460209182015289825281810189815260408084018a8152606085018a90526080850189905260a0850188905260c0850187905260008d815260028086529290208551815592516001840155518051949550859492936146579392850192910190614845565b5060608201518051614673916003840191602090910190614845565b506080820151805161468f916004840191602090910190614845565b5060a082015180516146ab916005840191602090910190614845565b5060c082015180516146c7916006840191602090910190614845565b5060e082015180516146e3916007840191602090910190614b30565b506101008201518051614700916008840191602090910190614b30565b50610120820151805161471d916009840191602090910190614bb7565b506101409190910151600a909101555050600480546001810182556000919091527f8a35acfbc15ff81a39ae7d344fd709f28e8600b4aa8c65c6b64bfe7fe36bd19b01959095555050505050565b600090815260026020908152604082206009018054600181018255908352912001805473ffffffffffffffffffffffffffffffffffffffff191633179055565b600160a060020a03811615156147c057600080fd5b6147ca8282613eaa565b15156147d557600080fd5b600160a060020a0316600090815260209190915260409020805460ff19169055565b600160a060020a038116151561480c57600080fd5b6148168282613eaa565b1561482057600080fd5b600160a060020a0316600090815260209190915260409020805460ff19166001179055565b828054600181600116156101000203166002900490600052602060002090601f016020900481019282601f1061488657805160ff19168380011785556148b3565b828001600101855582156148b3579182015b828111156148b3578251825591602001919060010190614898565b50612e36929150614c25565b610160604051908101604052806000815260200160608152602001606081526020016000815260200160008152602001606081526020016000600281111561490357fe5b81526020016000600160a060020a031681526020016060815260200160608152602001600081525090565b815481835581811115610a2557600083815260209020610a25918101908301614c25565b6101606040519081016040528060008152602001600081526020016060815260200160608152602001606081526020016060815260200160608152602001606081526020016060815260200160608152602001600081525090565b8280548282559060005260206000209081019282156149fa579160200282015b828111156149fa57825180516149ea918491602090910190614845565b50916020019190600101906149cd565b50612e36929150614c3f565b8280548282559060005260206000209081019282156149fa579160200282015b828111156149fa5782518051614a43918491602090910190614845565b5091602001919060010190614a26565b828054600181600116156101000203166002900490600052602060002090601f016020900481019282601f10614a8c57805485556148b3565b828001600101855582156148b357600052602060002091601f016020900482015b828111156148b3578254825591600101919060010190614aad565b50805460018160011615610100020316600290046000825580601f10614aee5750610831565b601f0160209004906000526020600020908101906108319190614c25565b815481835581811115610a2557600083815260209020610a25918101908301614c3f565b8280548282559060005260206000209081019282156148b357916020028201828111156148b3578251825591602001919060010190614898565b8280548282559060005260206000209081019282156149fa579160200282015b828111156149fa5782518051614ba7918491602090910190614845565b5091602001919060010190614b8a565b828054828255906000526020600020908101928215614c19579160200282015b82811115614c19578251825473ffffffffffffffffffffffffffffffffffffffff1916600160a060020a03909116178255602090920191600190910190614bd7565b50612e36929150614c62565b61126091905b80821115612e365760008155600101614c2b565b61126091905b80821115612e36576000614c598282614ac8565b50600101614c45565b61126091905b80821115612e3657805473ffffffffffffffffffffffffffffffffffffffff19168155600101614c68565b6000613e808235615e29565b6000601f82018313614cb057600080fd5b8135614cc3614cbe82615dd6565b615daf565b81815260209384019390925082018360005b83811015614d015781358601614ceb8882614d7b565b8452506020928301929190910190600101614cd5565b5050505092915050565b6000601f82018313614d1c57600080fd5b8135614d2a614cbe82615dd6565b91508181835260208401935060208101905083856020840282011115614d4f57600080fd5b60005b83811015614d015781614d658882614dca565b8452506020928301929190910190600101614d52565b6000601f82018313614d8c57600080fd5b8135614d9a614cbe82615df7565b91508082526020830160208301858383011115614db657600080fd5b614dc1838284615e51565b50505092915050565b6000613e808235611260565b600060208284031215614de857600080fd5b6000614df48484614c93565b949350505050565b60008060408385031215614e0f57600080fd5b6000614e1b8585614c93565b925050602083013567ffffffffffffffff811115614e3857600080fd5b614e4485828601614d7b565b9150509250929050565b60008060408385031215614e6157600080fd5b6000614e6d8585614c93565b9250506020614e4485828601614dca565b600060208284031215614e9057600080fd5b813567ffffffffffffffff811115614ea757600080fd5b614df484828501614d7b565b60008060008060008060c08789031215614ecc57600080fd5b863567ffffffffffffffff811115614ee357600080fd5b614eef89828a01614d7b565b965050602087013567ffffffffffffffff811115614f0c57600080fd5b614f1889828a01614d7b565b9550506040614f2989828a01614dca565b945050606087013567ffffffffffffffff811115614f4657600080fd5b614f5289828a01614d7b565b9350506080614f6389828a01614c93565b92505060a087013567ffffffffffffffff811115614f8057600080fd5b614f8c89828a01614c9f565b9150509295509295509295565b60008060008060008060c08789031215614fb257600080fd5b863567ffffffffffffffff811115614fc957600080fd5b614fd589828a01614d7b565b965050602087013567ffffffffffffffff811115614ff257600080fd5b614ffe89828a01614d7b565b955050604061500f89828a01614dca565b945050606087013567ffffffffffffffff81111561502c57600080fd5b61503889828a01614d7b565b935050608061504989828a01614c93565b92505060a0614f8c89828a01614dca565b6000806040838503121561506d57600080fd5b823567ffffffffffffffff81111561508457600080fd5b614e6d85828601614d7b565b6000602082840312156150a257600080fd5b6000614df48484614dca565b600080604083850312156150c157600080fd5b60006150cd8585614dca565b925050602083013567ffffffffffffffff8111156150ea57600080fd5b614e4485828601614d0b565b60008060008060008060c0878903121561510f57600080fd5b600061511b8989614dca565b965050602087013567ffffffffffffffff81111561513857600080fd5b61514489828a01614d7b565b955050604087013567ffffffffffffffff81111561516157600080fd5b61516d89828a01614d7b565b945050606087013567ffffffffffffffff81111561518a57600080fd5b61519689828a01614d7b565b935050608087013567ffffffffffffffff8111156151b357600080fd5b6151bf89828a01614d7b565b92505060a087013567ffffffffffffffff8111156151dc57600080fd5b614f8c89828a01614d7b565b600080600080600060a0868803121561520057600080fd5b600061520c8888614dca565b955050602086013567ffffffffffffffff81111561522957600080fd5b61523588828901614d7b565b945050604086013567ffffffffffffffff81111561525257600080fd5b61525e88828901614d7b565b935050606086013567ffffffffffffffff81111561527b57600080fd5b61528788828901614d7b565b925050608061529888828901614dca565b9150509295509295909350565b600080604083850312156152b857600080fd5b6000614e6d8585614dca565b600080600080600080600080610100898b0312156152e157600080fd5b60006152ed8b8b614dca565b98505060206152fe8b828c01614dca565b975050604089013567ffffffffffffffff81111561531b57600080fd5b6153278b828c01614d7b565b965050606089013567ffffffffffffffff81111561534457600080fd5b6153508b828c01614d7b565b955050608089013567ffffffffffffffff81111561536d57600080fd5b6153798b828c01614d7b565b94505060a089013567ffffffffffffffff81111561539657600080fd5b6153a28b828c01614d7b565b93505060c089013567ffffffffffffffff8111156153bf57600080fd5b6153cb8b828c01614d7b565b92505060e06153dc8b828c01614dca565b9150509295985092959890939650565b6153f581615e29565b82525050565b600061540682615e25565b80845260208401935061541883615e1f565b60005b828110156154485761542e8683516153ec565b61543782615e1f565b60209690960195915060010161541b565b5093949350505050565b600061545d82615e25565b8084526020840193508360208202850161547685615e1f565b60005b848110156154ad578383038852615491838351615676565b925061549c82615e1f565b602098909801979150600101615479565b50909695505050505050565b60006154c482615e25565b808452602084019350836020820285016154dd85615e1f565b60005b848110156154ad5783830388526154f8838351615676565b925061550382615e1f565b6020989098019791506001016154e0565b600061551f82615e25565b8084526020840193508360208202850161553885615e1f565b60005b848110156154ad578383038852615553838351615a27565b925061555e82615e1f565b60209890980197915060010161553b565b600061557a82615e25565b8084526020840193508360208202850161559385615e1f565b60005b848110156154ad5783830388526155ae838351615b40565b92506155b982615e1f565b602098909801979150600101615596565b60006155d582615e25565b8084526020840193506155e783615e1f565b60005b82811015615448576155fd868351615c25565b61560682615e1f565b6020969096019591506001016155ea565b600061562282615e25565b80845260208401935061563483615e1f565b60005b828110156154485761564a868351615c25565b61565382615e1f565b602096909601959150600101615637565b6153f581615e35565b6153f581615e46565b600061568182615e25565b808452615695816020860160208601615e5d565b61569e81615e89565b9093016020019392505050565b601a81527f4372656174696f6e204461746520697320696d6d757461626c65000000000000602082015260400190565b601181527f726f6c65206973206d616e6461746f7279000000000000000000000000000000602082015260400190565b602281527f4f6e6c792070656e64696e672075736572732063616e2062652061636365707460208201527f6564000000000000000000000000000000000000000000000000000000000000604082015260600190565b601381527f5573657220616c72656164792065786973747300000000000000000000000000602082015260400190565b601481527f546869732075736572206e6f7420657869737473000000000000000000000000602082015260400190565b601b81527f596f752063616e6e6f7420616363657074207468697320757365720000000000602082015260400190565b602281527f4f6e6c792070656e64696e672075736572732063616e2062652072656a65637460208201527f6564000000000000000000000000000000000000000000000000000000000000604082015260600190565b601381527f737461747573206973206e6f742076616c696400000000000000000000000000602082015260400190565b601181527f6d656d626572206e6f7420657869737473000000000000000000000000000000602082015260400190565b601581527f4d656d62657220616c7265616479206578697374730000000000000000000000602082015260400190565b601181527f4d656d626572206e6f7420657869737473000000000000000000000000000000602082015260400190565b601281527f5468656d65206973206d616e6461746f72790000000000000000000000000000602082015260400190565b601081527f434d4f206973206d616e6461746f727900000000000000000000000000000000602082015260400190565b601481527f596f7520617265206e6f74206163636570746564000000000000000000000000602082015260400190565b601181527f4e616d65206973206d616e6461746f7279000000000000000000000000000000602082015260400190565b601181527f4e6f2076616c6964206d656d6265724964000000000000000000000000000000602082015260400190565b601981527f4372656174696f6e44617465206973206d616e6461746f727900000000000000602082015260400190565b8051600090610160840190615a3c8582615c25565b506020830151615a4f6020860182615c25565b5060408301518482036040860152615a678282615676565b91505060608301518482036060860152615a818282615676565b91505060808301518482036080860152615a9b8282615676565b91505060a083015184820360a0860152615ab58282615676565b91505060c083015184820360c0860152615acf8282615676565b91505060e083015184820360e0860152615ae98282615617565b915050610100830151848203610100860152615b058282615617565b915050610120830151848203610120860152615b2182826153fb565b915050610140830151615b38610140860182615c25565b509392505050565b8051600090610160840190615b558582615c25565b5060208301518482036020860152615b6d8282615676565b91505060408301518482036040860152615b878282615676565b9150506060830151615b9c6060860182615c25565b506080830151615baf6080860182615c25565b5060a083015184820360a0860152615bc78282615676565b91505060c0830151615bdc60c086018261566d565b5060e0830151615bef60e08601826153ec565b50610100830151848203610100860152615c098282615676565b915050610120830151848203610120860152615b2182826154b9565b6153f581611260565b60208082528101613e808184615452565b60208082528101613e808184615514565b60208082528101613e80818461556f565b60208082528101613e8081846155ca565b602081016116ab8284615664565b602080825281016116ab816156ab565b602080825281016116ab816156db565b602080825281016116ab8161570b565b602080825281016116ab81615761565b602080825281016116ab81615791565b602080825281016116ab816157c1565b602080825281016116ab816157f1565b602080825281016116ab81615847565b602080825281016116ab81615877565b602080825281016116ab816158a7565b602080825281016116ab816158d7565b602080825281016116ab81615907565b602080825281016116ab81615937565b602080825281016116ab81615967565b602080825281016116ab81615997565b602080825281016116ab816159c7565b602080825281016116ab816159f7565b60208082528101613e808184615b40565b602081016116ab8284615c25565b60405181810167ffffffffffffffff81118282101715615dce57600080fd5b604052919050565b600067ffffffffffffffff821115615ded57600080fd5b5060209081020190565b600067ffffffffffffffff821115615e0e57600080fd5b506020601f91909101601f19160190565b60200190565b5190565b600160a060020a031690565b151590565b600060038210612e3657fe5b60006116ab82615e3a565b82818337506000910152565b60005b83811015615e78578181015183820152602001615e60565b838111156117c95750506000910152565b601f01601f1916905600a265627a7a723058201384b6577a369203087feb7c70c03e4f460256541143452f5fb1095a824c3b0c6c6578706572696d656e74616cf50037",
  "source": "pragma solidity ^0.4.24;\npragma experimental ABIEncoderV2;\n\nimport \"./Members.sol\";\nimport \"./Claims.sol\";\n\n\ncontract Users is Members {\n\n  struct User {\n    uint256 creationDate;\n    string firstName;\n    string lastName;\n    uint256 memberId;\n    uint256 requestId;\n    string role;\n    StatusUserEnum status;\n    address owner;  // primary key\n    string cmo;\n    string[] groups;\n    uint tokens;\n  }\n\n  enum StatusUserEnum {\n    REJECTED,\n    PENDING,\n    ACCEPTED\n  }\n\n  mapping (address => User) private users_;\n  address[] private usersList_;\n  uint256 constant private PAGE_SIZE = 10;\n\n  uint256 constant private userStartTokens = 10000;\n\n  // PUBLIC\n\n  function registerUserRequest(uint256 _creationDate, string _firstName, string _lastName, string _role, uint256 _memberId) public {\n\n    require(_memberId != 0, \"No valid memberId\");\n    require(_creationDate > 0, \"CreationDate is mandatory\");\n    require(users_[msg.sender].creationDate == 0, \"User already exists\");\n    require(_memberExists(_memberId), \"Member not exists\");\n\n    uint256 _requestId = Random.rand(_creationDate);\n    _saveUser(_creationDate, _firstName, _lastName, _memberId, _requestId, _role, uint256(StatusUserEnum.PENDING), msg.sender, 0);\n  }\n\n  function updateUser(string _firstName, string _lastName, uint256 _memberId, string _role, address owner, uint _tokens) public {\n\n    require(users_[owner].owner > address(0), \"This user not exists\");\n    require(uint(users_[owner].status) == uint(StatusUserEnum.ACCEPTED), \"You are not accepted\");\n    if (users_[owner].tokens > _tokens) {\n      members_[users_[owner].memberId].totalTokens += users_[owner].tokens - _tokens;\n    } else {\n      members_[users_[owner].memberId].totalTokens -= _tokens - users_[owner].tokens;\n    }\n    users_[owner].tokens = _tokens;\n\n    uint256 _requestId = users_[owner].requestId;\n    uint256 _creationDate = users_[owner].creationDate;\n    uint256 _status = uint(users_[owner].status);\n\n    _saveUser(_creationDate, _firstName, _lastName, _memberId, _requestId, _role, _status, owner, 1);\n  }\n\n  function getUsedTokens(uint256 _memberId) public view returns (uint){\n    uint usedTokens = 0;\n    for (uint i = 0; i < usersList_.length; ++i) {\n      if (users_[usersList_[i]].memberId == _memberId) {\n        usedTokens += users_[usersList_[i]].tokens;\n      }\n    }\n    return usedTokens;\n  }\n\n  function updateSuperUser(string _firstName, string _lastName, uint256 _memberId, string _role, address owner, string[] _groups) public {\n\n    users_[owner].firstName = _firstName;\n    users_[owner].lastName = _lastName;\n    users_[owner].groups = _groups;\n\n    for (uint i = 0; i < usersList_.length; ++i) {\n      if (keccak256(users_[usersList_[i]].cmo) == keccak256(users_[owner].cmo)) {\n        users_[usersList_[i]].groups = _groups;\n      }\n    }\n\n  }\n\n  function rejectUser(address _userToReject) public {\n\n    require(users_[_userToReject].owner > address(0), \"This user not exists\");\n    require((users_[msg.sender].memberId == users_[_userToReject].memberId) || isSigner(msg.sender), \"You cannot accept this user\");\n    require((uint(users_[msg.sender].status) == uint(StatusUserEnum.ACCEPTED)) || isSigner(msg.sender), \"You are not accepted\");\n    require(users_[_userToReject].status == StatusUserEnum.PENDING, \"Only pending users can be rejected\");\n\n    users_[_userToReject].status = StatusUserEnum.REJECTED;\n    _clearUserFromMemberRequest(users_[_userToReject].memberId, _userToReject);\n  }\n\n  function acceptUser(address _userToAccept) public {\n\n    require(users_[_userToAccept].owner > address(0), \"This user not exists\");\n    require((users_[msg.sender].memberId == users_[_userToAccept].memberId) || isSigner(msg.sender), \"You cannot accept this user\");\n    require((uint(users_[msg.sender].status) == uint(StatusUserEnum.ACCEPTED)) || isSigner(msg.sender), \"You are not accepted\");\n    require(users_[_userToAccept].status == StatusUserEnum.PENDING, \"Only pending users can be accepted\");\n\n    if (members_[users_[_userToAccept].memberId].totalTokens > userStartTokens) {\n      users_[_userToAccept].status = StatusUserEnum.ACCEPTED;\n      _clearUserFromMemberRequest(users_[_userToAccept].memberId, _userToAccept);\n      users_[_userToAccept].tokens = userStartTokens;\n      members_[users_[_userToAccept].memberId].totalTokens -= userStartTokens;\n    } else {\n      rejectUser(_userToAccept);\n    }\n  }\n\n  function getcountUsers() public view returns(uint) {\n    uint256 counter = 0;\n    for (uint i = 0; i < usersList_.length; ++i) {\n      if(users_[usersList_[i]].memberId == users_[msg.sender].memberId\n        && users_[usersList_[i]].status == StatusUserEnum.ACCEPTED) {\n        counter++;\n      }\n    }\n    return counter;\n  }\n\n  function whitelistAdmin(address account, string _cmo) public onlySigner {\n    _clearUserFromMemberRequest(users_[account].memberId, account);\n    users_[account].role = \"Super admin\";\n    users_[account].memberId = ++memberIdCounter_;\n    users_[account].cmo = _cmo;\n//    users_[account].tokens = 0; // should \"Super admin\" have tokens?\n    users_[account].status = StatusUserEnum.ACCEPTED;\n    users_[account].groups = [\"digit1\"];\n    addSigner(account);\n  }\n\n  function getUsers(uint256 _page) public view returns(User[] memory) {\n    uint256 counter = getcountUsers();\n\n    uint256 pageIndex = SafeMath.mul(PAGE_SIZE, _page);\n    uint256 pageNumber = SafeMath.div(usersList_.length, PAGE_SIZE);\n\n    if (counter == 0 || pageIndex > counter || _page > pageNumber) {\n      return;\n    }\n\n    User[] memory userPageBasic = new User[](PAGE_SIZE);\n    uint256 counterFinal = 0;\n\n    for (uint j = pageIndex; j < usersList_.length; ++j) {\n      if(users_[usersList_[j]].memberId == users_[msg.sender].memberId\n        && users_[usersList_[j]].status == StatusUserEnum.ACCEPTED) {\n        userPageBasic[counterFinal] = users_[usersList_[j]];\n        ++counterFinal;\n      }\n    }\n    return userPageBasic;\n  }\n\n  function getUserByAddress(address userAddress) public view returns(User memory) {\n    return users_[userAddress];\n  }\n\n  function getUsersOwner() onlySigner public view returns(User[] memory) {\n    User[] memory userPageOwner = new User[](usersList_.length);\n\n    for (uint i = 0; i < usersList_.length; ++i) {\n      userPageOwner[i] = users_[usersList_[i]];\n    }\n\n    return userPageOwner;\n  }\n\n  function getMe() public view returns(User) {\n    User memory user = users_[msg.sender];\n    return user;\n  }\n\n\n  function _saveUser(uint256 _creationDate, string _firstName, string _lastName, uint256 _memberId,\n    uint256 _requestId, string _role, uint256 _status, address owner, uint isCreate) internal {\n\n    require(_status >= 0 || _status <=2, \"status is not valid\");\n    require(bytes(_role).length != 0, \"role is mandatory\");\n\n    User memory user = users_[owner];\n\n    user.creationDate =  _creationDate;\n    user.firstName =  _firstName;\n    user.lastName =  _lastName;\n    user.memberId =  _memberId;\n    user.requestId =  _requestId;\n    user.role = _role;\n    user.status = StatusUserEnum(_status);\n    user.owner = owner;\n\n    users_[owner] = user;\n\n    if(isCreate == 0) {\n      usersList_.push(owner);\n//      if (users_[owner].status != StatusUserEnum.ACCEPTED) {\n      _addUserToMemberRequest(_memberId);\n//      }\n      users_[owner].groups = [\"digit1\"];                  // by default\n      users_[owner].cmo = members_[user.memberId].cmo;  // to initialize\n    }\n  }\n\n  function _memberIdFromCurrentAddress(address addr) view public returns(uint256) {\n    return users_[addr].memberId;\n  }\n\n  function updateTokens(address addr, uint transactionPrice) public {\n    users_[addr].tokens -= transactionPrice;\n    members_[users_[addr].memberId].totalTokens -= transactionPrice;\n  }\n\n  function getUserTokensByAddress(address addr) view public returns(uint) {\n    return users_[addr].tokens;\n  }\n}\n",
  "sourcePath": "/home/komodo/newUI2/bloomen-decentralized-rights-management-v2/truffle/contracts/registry/Users.sol",
  "compiler": {
    "name": "solc",
    "version": "0.4.24+commit.e67f0147.Emscripten.clang"
  },
  "schemaVersion": "2.0.1",
  "updatedAt": "2020-06-27T09:15:34.483Z"
}