{
  "contractName": "Users",
  "abi": [
    {
      "constant": true,
      "inputs": [
        {
          "name": "",
          "type": "uint256"
        }
      ],
      "name": "members_",
      "outputs": [
        {
          "name": "memberId",
          "type": "uint256"
        },
        {
          "name": "creationDate",
          "type": "uint256"
        },
        {
          "name": "name",
          "type": "string"
        },
        {
          "name": "logo",
          "type": "string"
        },
        {
          "name": "country",
          "type": "string"
        },
        {
          "name": "cmo",
          "type": "string"
        },
        {
          "name": "theme",
          "type": "string"
        }
      ],
      "payable": false,
      "stateMutability": "view",
      "type": "function"
    },
    {
      "constant": false,
      "inputs": [
        {
          "name": "_cmo",
          "type": "string"
        }
      ],
      "name": "addCMO",
      "outputs": [],
      "payable": false,
      "stateMutability": "nonpayable",
      "type": "function"
    },
    {
      "constant": true,
      "inputs": [
        {
          "name": "_memberId",
          "type": "uint256"
        }
      ],
      "name": "_getClaimsIdByMember",
      "outputs": [
        {
          "name": "",
          "type": "uint256[]"
        }
      ],
      "payable": false,
      "stateMutability": "view",
      "type": "function"
    },
    {
      "constant": true,
      "inputs": [],
      "name": "getCMOs",
      "outputs": [
        {
          "name": "",
          "type": "string[]"
        }
      ],
      "payable": false,
      "stateMutability": "view",
      "type": "function"
    },
    {
      "constant": false,
      "inputs": [
        {
          "name": "_memberId",
          "type": "uint256"
        },
        {
          "name": "_creationDate",
          "type": "uint256"
        },
        {
          "name": "_name",
          "type": "string"
        },
        {
          "name": "_logo",
          "type": "string"
        },
        {
          "name": "_country",
          "type": "string"
        },
        {
          "name": "_cmo",
          "type": "string"
        },
        {
          "name": "_theme",
          "type": "string"
        }
      ],
      "name": "updateMember",
      "outputs": [],
      "payable": false,
      "stateMutability": "nonpayable",
      "type": "function"
    },
    {
      "constant": false,
      "inputs": [
        {
          "name": "_memberId",
          "type": "uint256"
        },
        {
          "name": "_claimId",
          "type": "uint256"
        }
      ],
      "name": "_addClaimFromInbox",
      "outputs": [],
      "payable": false,
      "stateMutability": "nonpayable",
      "type": "function"
    },
    {
      "constant": true,
      "inputs": [
        {
          "name": "account",
          "type": "address"
        }
      ],
      "name": "isSigner",
      "outputs": [
        {
          "name": "",
          "type": "bool"
        }
      ],
      "payable": false,
      "stateMutability": "view",
      "type": "function"
    },
    {
      "constant": false,
      "inputs": [
        {
          "name": "_memberId",
          "type": "uint256"
        },
        {
          "name": "_claimId",
          "type": "uint256"
        }
      ],
      "name": "_removeClaimFromInbox",
      "outputs": [],
      "payable": false,
      "stateMutability": "nonpayable",
      "type": "function"
    },
    {
      "constant": true,
      "inputs": [],
      "name": "getMembers",
      "outputs": [
        {
          "components": [
            {
              "name": "memberId",
              "type": "uint256"
            },
            {
              "name": "creationDate",
              "type": "uint256"
            },
            {
              "name": "name",
              "type": "string"
            },
            {
              "name": "logo",
              "type": "string"
            },
            {
              "name": "country",
              "type": "string"
            },
            {
              "name": "cmo",
              "type": "string"
            },
            {
              "name": "theme",
              "type": "string"
            },
            {
              "name": "claimInbox",
              "type": "uint256[]"
            },
            {
              "name": "claims",
              "type": "uint256[]"
            },
            {
              "name": "userRequests",
              "type": "address[]"
            }
          ],
          "name": "",
          "type": "tuple[]"
        }
      ],
      "payable": false,
      "stateMutability": "view",
      "type": "function"
    },
    {
      "constant": false,
      "inputs": [
        {
          "name": "_memberId",
          "type": "uint256"
        },
        {
          "name": "_claimId",
          "type": "uint256"
        }
      ],
      "name": "_removeClaimIdFromMember",
      "outputs": [],
      "payable": false,
      "stateMutability": "nonpayable",
      "type": "function"
    },
    {
      "constant": true,
      "inputs": [],
      "name": "getCount",
      "outputs": [
        {
          "name": "",
          "type": "uint256"
        }
      ],
      "payable": false,
      "stateMutability": "view",
      "type": "function"
    },
    {
      "constant": true,
      "inputs": [
        {
          "name": "_memberId",
          "type": "uint256"
        }
      ],
      "name": "_getClaimsCountByMember",
      "outputs": [
        {
          "name": "",
          "type": "uint256"
        }
      ],
      "payable": false,
      "stateMutability": "view",
      "type": "function"
    },
    {
      "constant": false,
      "inputs": [
        {
          "name": "_index",
          "type": "uint256"
        }
      ],
      "name": "deleteCMO",
      "outputs": [],
      "payable": false,
      "stateMutability": "nonpayable",
      "type": "function"
    },
    {
      "constant": true,
      "inputs": [
        {
          "name": "_page",
          "type": "uint256"
        }
      ],
      "name": "getMembers",
      "outputs": [
        {
          "components": [
            {
              "name": "memberId",
              "type": "uint256"
            },
            {
              "name": "creationDate",
              "type": "uint256"
            },
            {
              "name": "name",
              "type": "string"
            },
            {
              "name": "logo",
              "type": "string"
            },
            {
              "name": "country",
              "type": "string"
            },
            {
              "name": "cmo",
              "type": "string"
            },
            {
              "name": "theme",
              "type": "string"
            },
            {
              "name": "claimInbox",
              "type": "uint256[]"
            },
            {
              "name": "claims",
              "type": "uint256[]"
            },
            {
              "name": "userRequests",
              "type": "address[]"
            }
          ],
          "name": "",
          "type": "tuple[]"
        }
      ],
      "payable": false,
      "stateMutability": "view",
      "type": "function"
    },
    {
      "constant": true,
      "inputs": [
        {
          "name": "",
          "type": "address"
        }
      ],
      "name": "users_",
      "outputs": [
        {
          "name": "creationDate",
          "type": "uint256"
        },
        {
          "name": "firstName",
          "type": "string"
        },
        {
          "name": "lastName",
          "type": "string"
        },
        {
          "name": "memberId",
          "type": "uint256"
        },
        {
          "name": "requestId",
          "type": "uint256"
        },
        {
          "name": "role",
          "type": "string"
        },
        {
          "name": "status",
          "type": "uint8"
        },
        {
          "name": "owner",
          "type": "address"
        },
        {
          "name": "cmo",
          "type": "string"
        }
      ],
      "payable": false,
      "stateMutability": "view",
      "type": "function"
    },
    {
      "constant": false,
      "inputs": [
        {
          "name": "_memberId",
          "type": "uint256"
        },
        {
          "name": "_claimId",
          "type": "uint256"
        }
      ],
      "name": "_addClaimIdToMemberOwner",
      "outputs": [],
      "payable": false,
      "stateMutability": "nonpayable",
      "type": "function"
    },
    {
      "constant": false,
      "inputs": [],
      "name": "renounceSigner",
      "outputs": [],
      "payable": false,
      "stateMutability": "nonpayable",
      "type": "function"
    },
    {
      "constant": false,
      "inputs": [
        {
          "name": "account",
          "type": "address"
        }
      ],
      "name": "addSigner",
      "outputs": [],
      "payable": false,
      "stateMutability": "nonpayable",
      "type": "function"
    },
    {
      "constant": true,
      "inputs": [
        {
          "name": "_memberId",
          "type": "uint256"
        }
      ],
      "name": "_memberExists",
      "outputs": [
        {
          "name": "",
          "type": "bool"
        }
      ],
      "payable": false,
      "stateMutability": "view",
      "type": "function"
    },
    {
      "constant": false,
      "inputs": [
        {
          "name": "_creationDate",
          "type": "uint256"
        },
        {
          "name": "_name",
          "type": "string"
        },
        {
          "name": "_logo",
          "type": "string"
        },
        {
          "name": "_country",
          "type": "string"
        },
        {
          "name": "_cmo",
          "type": "string"
        },
        {
          "name": "_theme",
          "type": "string"
        }
      ],
      "name": "addMember",
      "outputs": [
        {
          "name": "",
          "type": "uint256"
        }
      ],
      "payable": false,
      "stateMutability": "nonpayable",
      "type": "function"
    },
    {
      "constant": true,
      "inputs": [],
      "name": "memberIdCounter_",
      "outputs": [
        {
          "name": "",
          "type": "uint256"
        }
      ],
      "payable": false,
      "stateMutability": "view",
      "type": "function"
    },
    {
      "anonymous": false,
      "inputs": [
        {
          "indexed": true,
          "name": "account",
          "type": "address"
        }
      ],
      "name": "SignerAdded",
      "type": "event"
    },
    {
      "anonymous": false,
      "inputs": [
        {
          "indexed": true,
          "name": "account",
          "type": "address"
        }
      ],
      "name": "SignerRemoved",
      "type": "event"
    },
    {
      "constant": false,
      "inputs": [
        {
          "name": "_creationDate",
          "type": "uint256"
        },
        {
          "name": "_firstName",
          "type": "string"
        },
        {
          "name": "_lastName",
          "type": "string"
        },
        {
          "name": "_role",
          "type": "string"
        },
        {
          "name": "_memberId",
          "type": "uint256"
        }
      ],
      "name": "registerUserRequest",
      "outputs": [],
      "payable": false,
      "stateMutability": "nonpayable",
      "type": "function"
    },
    {
      "constant": false,
      "inputs": [
        {
          "name": "_firstName",
          "type": "string"
        },
        {
          "name": "_lastName",
          "type": "string"
        },
        {
          "name": "_memberId",
          "type": "uint256"
        },
        {
          "name": "_role",
          "type": "string"
        },
        {
          "name": "owner",
          "type": "address"
        }
      ],
      "name": "updateUser",
      "outputs": [],
      "payable": false,
      "stateMutability": "nonpayable",
      "type": "function"
    },
    {
      "constant": false,
      "inputs": [
        {
          "name": "_firstName",
          "type": "string"
        },
        {
          "name": "_lastName",
          "type": "string"
        },
        {
          "name": "_memberId",
          "type": "uint256"
        },
        {
          "name": "_role",
          "type": "string"
        },
        {
          "name": "owner",
          "type": "address"
        },
        {
          "name": "_groups",
          "type": "string[]"
        }
      ],
      "name": "updateSuperUser",
      "outputs": [],
      "payable": false,
      "stateMutability": "nonpayable",
      "type": "function"
    },
    {
      "constant": false,
      "inputs": [
        {
          "name": "_userToReject",
          "type": "address"
        }
      ],
      "name": "rejectUser",
      "outputs": [],
      "payable": false,
      "stateMutability": "nonpayable",
      "type": "function"
    },
    {
      "constant": false,
      "inputs": [
        {
          "name": "_userToAccept",
          "type": "address"
        }
      ],
      "name": "acceptUser",
      "outputs": [],
      "payable": false,
      "stateMutability": "nonpayable",
      "type": "function"
    },
    {
      "constant": true,
      "inputs": [],
      "name": "getcountUsers",
      "outputs": [
        {
          "name": "",
          "type": "uint256"
        }
      ],
      "payable": false,
      "stateMutability": "view",
      "type": "function"
    },
    {
      "constant": false,
      "inputs": [
        {
          "name": "account",
          "type": "address"
        },
        {
          "name": "_cmo",
          "type": "string"
        }
      ],
      "name": "whitelistAdmin",
      "outputs": [],
      "payable": false,
      "stateMutability": "nonpayable",
      "type": "function"
    },
    {
      "constant": true,
      "inputs": [
        {
          "name": "_page",
          "type": "uint256"
        }
      ],
      "name": "getUsers",
      "outputs": [
        {
          "components": [
            {
              "name": "creationDate",
              "type": "uint256"
            },
            {
              "name": "firstName",
              "type": "string"
            },
            {
              "name": "lastName",
              "type": "string"
            },
            {
              "name": "memberId",
              "type": "uint256"
            },
            {
              "name": "requestId",
              "type": "uint256"
            },
            {
              "name": "role",
              "type": "string"
            },
            {
              "name": "status",
              "type": "uint8"
            },
            {
              "name": "owner",
              "type": "address"
            },
            {
              "name": "cmo",
              "type": "string"
            },
            {
              "name": "groups",
              "type": "string[]"
            }
          ],
          "name": "",
          "type": "tuple[]"
        }
      ],
      "payable": false,
      "stateMutability": "view",
      "type": "function"
    },
    {
      "constant": true,
      "inputs": [
        {
          "name": "userAddress",
          "type": "address"
        }
      ],
      "name": "getUserByAddress",
      "outputs": [
        {
          "components": [
            {
              "name": "creationDate",
              "type": "uint256"
            },
            {
              "name": "firstName",
              "type": "string"
            },
            {
              "name": "lastName",
              "type": "string"
            },
            {
              "name": "memberId",
              "type": "uint256"
            },
            {
              "name": "requestId",
              "type": "uint256"
            },
            {
              "name": "role",
              "type": "string"
            },
            {
              "name": "status",
              "type": "uint8"
            },
            {
              "name": "owner",
              "type": "address"
            },
            {
              "name": "cmo",
              "type": "string"
            },
            {
              "name": "groups",
              "type": "string[]"
            }
          ],
          "name": "",
          "type": "tuple"
        }
      ],
      "payable": false,
      "stateMutability": "view",
      "type": "function"
    },
    {
      "constant": true,
      "inputs": [],
      "name": "getUsersOwner",
      "outputs": [
        {
          "components": [
            {
              "name": "creationDate",
              "type": "uint256"
            },
            {
              "name": "firstName",
              "type": "string"
            },
            {
              "name": "lastName",
              "type": "string"
            },
            {
              "name": "memberId",
              "type": "uint256"
            },
            {
              "name": "requestId",
              "type": "uint256"
            },
            {
              "name": "role",
              "type": "string"
            },
            {
              "name": "status",
              "type": "uint8"
            },
            {
              "name": "owner",
              "type": "address"
            },
            {
              "name": "cmo",
              "type": "string"
            },
            {
              "name": "groups",
              "type": "string[]"
            }
          ],
          "name": "",
          "type": "tuple[]"
        }
      ],
      "payable": false,
      "stateMutability": "view",
      "type": "function"
    },
    {
      "constant": true,
      "inputs": [],
      "name": "getMe",
      "outputs": [
        {
          "components": [
            {
              "name": "creationDate",
              "type": "uint256"
            },
            {
              "name": "firstName",
              "type": "string"
            },
            {
              "name": "lastName",
              "type": "string"
            },
            {
              "name": "memberId",
              "type": "uint256"
            },
            {
              "name": "requestId",
              "type": "uint256"
            },
            {
              "name": "role",
              "type": "string"
            },
            {
              "name": "status",
              "type": "uint8"
            },
            {
              "name": "owner",
              "type": "address"
            },
            {
              "name": "cmo",
              "type": "string"
            },
            {
              "name": "groups",
              "type": "string[]"
            }
          ],
          "name": "",
          "type": "tuple"
        }
      ],
      "payable": false,
      "stateMutability": "view",
      "type": "function"
    },
    {
      "constant": true,
      "inputs": [
        {
          "name": "addr",
          "type": "address"
        }
      ],
      "name": "_memberIdFromCurrentAddress",
      "outputs": [
        {
          "name": "",
          "type": "uint256"
        }
      ],
      "payable": false,
      "stateMutability": "view",
      "type": "function"
    }
  ],
  "bytecode": "0x608060405260006003556200001d3364010000000062000023810204565b62000108565b6200003e600082640100000000620048286200007582021704565b604051600160a060020a038216907f47d1c22a25bb3a5d4e481b9b1e6944c2eade3181a0a20b495ed61d35b5323f2490600090a250565b600160a060020a03811615156200008b57600080fd5b620000a08282640100000000620000d0810204565b15620000ab57600080fd5b600160a060020a0316600090815260209190915260409020805460ff19166001179055565b6000600160a060020a0382161515620000e857600080fd5b50600160a060020a03166000908152602091909152604090205460ff1690565b615ece80620001186000396000f3006080604052600436106101a05763ffffffff7c010000000000000000000000000000000000000000000000000000000060003504166308bdc24d81146101a55780630deae268146101c75780633a59ccf1146102035780634dc92885146102235780635d73ab9a146102435780636262dff614610270578063656d561c1461029d57806365ff0c48146102bf57806369c212f6146102df578063748532391461030c5780637df73e271461032c5780638b92892b14610359578063932191be146103795780639eab52531461038e578063a29d441f146103b0578063a4fdc594146103d0578063a7ed1fe4146103f2578063a87d942c14610412578063a9eff51114610427578063affccd8414610447578063bcec99a614610467578063bf3d007e14610487578063c11e1ff3146104a7578063c477ecab146104bc578063d2105a00146104dc578063e2c11f9e14610511578063e5c8b03d14610531578063eb12d61e14610546578063eff34e5914610566578063f838073314610586578063fa1188c6146105a6578063fa92dbdf146105c6578063fcfbde5b146105db575b600080fd5b3480156101b157600080fd5b506101c56101c0366004614d85565b6105fb565b005b3480156101d357600080fd5b506101e76101e2366004614fd4565b61079b565b6040516101fa9796959493929190615d26565b60405180910390f35b34801561020f57600080fd5b506101c561021e366004614dfd565b610a85565b34801561022f57600080fd5b506101c561023e366004614d85565b610ae1565b34801561024f57600080fd5b5061026361025e366004614fd4565b610c4a565b6040516101fa9190615b26565b34801561027c57600080fd5b5061029061028b366004614fd4565b611198565b6040516101fa9190615b37565b3480156102a957600080fd5b506102b261122d565b6040516101fa9190615b04565b3480156102cb57600080fd5b506101c56102da3660046151c4565b611306565b3480156102eb57600080fd5b506102ff6102fa366004614d85565b6113d1565b6040516101fa9190615c66565b34801561031857600080fd5b506101c5610327366004615194565b611795565b34801561033857600080fd5b5061034c610347366004614d85565b6117bb565b6040516101fa9190615b48565b34801561036557600080fd5b506101c5610374366004615194565b6117d3565b34801561038557600080fd5b506102636118f1565b34801561039a57600080fd5b506103a3611d54565b6040516101fa9190615b15565b3480156103bc57600080fd5b506101c56103cb366004615194565b61221b565b3480156103dc57600080fd5b506103e56122ea565b6040516101fa9190615c77565b3480156103fe57600080fd5b506101c561040d3660046150e4565b6123b0565b34801561041e57600080fd5b506103e5612477565b34801561043357600080fd5b506101c5610442366004614dab565b612494565b34801561045357600080fd5b506103e5610462366004614fd4565b6125f4565b34801561047357600080fd5b506101c5610482366004614eee565b612609565b34801561049357600080fd5b506101c56104a2366004614fd4565b612865565b3480156104b357600080fd5b506102ff612922565b3480156104c857600080fd5b506103a36104d7366004614fd4565b612ce9565b3480156104e857600080fd5b506104fc6104f7366004614d85565b613204565b6040516101fa99989796959493929190615c85565b34801561051d57600080fd5b506101c561052c366004615194565b61348c565b34801561053d57600080fd5b506101c56134b2565b34801561055257600080fd5b506101c5610561366004614d85565b6134bd565b34801561057257600080fd5b506103e5610581366004614d85565b6134da565b34801561059257600080fd5b5061034c6105a1366004614fd4565b6134f8565b3480156105b257600080fd5b506103e56105c1366004614ff2565b61350b565b3480156105d257600080fd5b506103e561359a565b3480156105e757600080fd5b506101c56105f6366004614e32565b6135a0565b600160a060020a038181166000908152600560205260408120600601546101009004909116116106495760405160e560020a62461bcd02815260040161064090615b96565b60405180910390fd5b600160a060020a038116600090815260056020526040808220600390810154338452919092209091015414806106835750610683336117bb565b15156106a45760405160e560020a62461bcd02815260040161064090615ba6565b60023360009081526005602052604090206006015460ff1660028111156106c757fe5b14806106d757506106d7336117bb565b15156106f85760405160e560020a62461bcd02815260040161064090615c26565b6001600160a060020a03821660009081526005602052604090206006015460ff16600281111561072457fe5b146107445760405160e560020a62461bcd02815260040161064090615b76565b600160a060020a038116600090815260056020526040902060060180546002919060ff19166001835b0217905550600160a060020a0381166000908152600560205260409020600301546107989082613684565b50565b6002602081815260009283526040928390208054600180830154838601805488519381161561010002600019011696909604601f81018690048602830186019097528682529195919492939092919083018282801561083b5780601f106108105761010080835404028352916020019161083b565b820191906000526020600020905b81548152906001019060200180831161081e57829003601f168201915b5050505060038301805460408051602060026001851615610100026000190190941693909304601f81018490048402820184019092528181529495949350908301828280156108cb5780601f106108a0576101008083540402835291602001916108cb565b820191906000526020600020905b8154815290600101906020018083116108ae57829003601f168201915b5050505060048301805460408051602060026001851615610100026000190190941693909304601f810184900484028201840190925281815294959493509083018282801561095b5780601f106109305761010080835404028352916020019161095b565b820191906000526020600020905b81548152906001019060200180831161093e57829003601f168201915b5050505060058301805460408051602060026001851615610100026000190190941693909304601f81018490048402820184019092528181529495949350908301828280156109eb5780601f106109c0576101008083540402835291602001916109eb565b820191906000526020600020905b8154815290600101906020018083116109ce57829003601f168201915b5050505060068301805460408051602060026001851615610100026000190190941693909304601f8101849004840282018401909252818152949594935090830182828015610a7b5780601f10610a5057610100808354040283529160200191610a7b565b820191906000526020600020905b815481529060010190602001808311610a5e57829003601f168201915b5050505050905087565b610a8e336117bb565b1515610a9957600080fd5b600180548082018083556000929092528251610adc917fb10e2d527612073b26eecdfd717e6a320cf44b4afac2b0732d9fcbe2b7fa0cf601906020850190614876565b505050565b600160a060020a03818116600090815260056020526040812060060154610100900490911611610b265760405160e560020a62461bcd02815260040161064090615b96565b600160a060020a03811660009081526005602052604080822060039081015433845291909220909101541480610b605750610b60336117bb565b1515610b815760405160e560020a62461bcd02815260040161064090615ba6565b60023360009081526005602052604090206006015460ff166002811115610ba457fe5b1480610bb45750610bb4336117bb565b1515610bd55760405160e560020a62461bcd02815260040161064090615c26565b6001600160a060020a03821660009081526005602052604090206006015460ff166002811115610c0157fe5b14610c215760405160e560020a62461bcd02815260040161064090615bb6565b600160a060020a0381166000908152600560205260408120600601805460ff191660018361076d565b606060008060006060600080610c5e6122ea565b9550610c6b600a896137e9565b600654909550610c7c90600a613822565b9350851580610c8a57508585115b80610c9457508388115b15610c9e5761118d565b60408051600a808252610160820190925290816020015b610cbd6148f0565b815260200190600190039081610cb5579050509250600091508490505b600654811015611189573360009081526005602081905260408220600301546006805491939185908110610d0a57fe5b6000918252602080832090910154600160a060020a03168352820192909252604001902060030154148015610d875750600260056000600684815481101515610d4f57fe5b6000918252602080832090910154600160a060020a0316835282019290925260400190206006015460ff166002811115610d8557fe5b145b156111815760056000600683815481101515610d9f57fe5b6000918252602080832090910154600160a060020a03168352828101939093526040918201902081516101408101835281548152600182810180548551601f6002600019958416156101000295909501909216939093049081018790048702830187019095528482529194929385840193919291830182828015610e645780601f10610e3957610100808354040283529160200191610e64565b820191906000526020600020905b815481529060010190602001808311610e4757829003601f168201915b5050509183525050600282810180546040805160206001841615610100026000190190931694909404601f81018390048302850183019091528084529381019390830182828015610ef65780601f10610ecb57610100808354040283529160200191610ef6565b820191906000526020600020905b815481529060010190602001808311610ed957829003601f168201915b505050505081526020016003820154815260200160048201548152602001600582018054600181600116156101000203166002900480601f016020809104026020016040519081016040528092919081815260200182805460018160011615610100020316600290048015610fac5780601f10610f8157610100808354040283529160200191610fac565b820191906000526020600020905b815481529060010190602001808311610f8f57829003601f168201915b5050509183525050600682015460209091019060ff166002811115610fcd57fe5b6002811115610fd857fe5b8152600682015461010090819004600160a060020a031660208084019190915260078401805460408051600260018416159096026000190190921694909404601f8101849004840282018401855280825293909401939290918301828280156110825780601f1061105757610100808354040283529160200191611082565b820191906000526020600020905b81548152906001019060200180831161106557829003601f168201915b5050505050815260200160088201805480602002602001604051908101604052809291908181526020016000905b8282101561115b5760008481526020908190208301805460408051601f60026000196101006001871615020190941693909304928301859004850281018501909152818152928301828280156111475780601f1061111c57610100808354040283529160200191611147565b820191906000526020600020905b81548152906001019060200180831161112a57829003601f168201915b5050505050815260200190600101906110b0565b50505091525050835184908490811061117057fe5b602090810290910101526001909101905b600101610cda565b8296505b505050505050919050565b600081815260026020526040812054606091106111ca5760405160e560020a62461bcd02815260040161064090615bd6565b6000828152600260209081526040918290206008018054835181840281018401909452808452909183018282801561122157602002820191906000526020600020905b81548152602001906001019080831161120d575b50505050509050919050565b60606001805480602002602001604051908101604052809291908181526020016000905b828210156112fc5760008481526020908190208301805460408051601f60026000196101006001871615020190941693909304928301859004850281018501909152818152928301828280156112e85780601f106112bd576101008083540402835291602001916112e8565b820191906000526020600020905b8154815290600101906020018083116112cb57829003601f168201915b505050505081526020019060010190611251565b5050505090505b90565b61130f336117bb565b151561131a57600080fd5b600087815260026020526040812054116113495760405160e560020a62461bcd02815260040161064090615bf6565b600087815260026020526040902060010154861461137c5760405160e560020a62461bcd02815260040161064090615b56565b600087815260026020818152604090922087516113a193919092019190880190614876565b50600087815260026020908152604090912082516113c792600690920191840190614876565b5050505050505050565b6113d96148f0565b600160a060020a03821660009081526005602090815260409182902082516101408101845281548152600180830180548651600293821615610100026000190190911692909204601f81018690048602830186019096528582529194929385810193919291908301828280156114905780601f1061146557610100808354040283529160200191611490565b820191906000526020600020905b81548152906001019060200180831161147357829003601f168201915b5050509183525050600282810180546040805160206001841615610100026000190190931694909404601f810183900483028501830190915280845293810193908301828280156115225780601f106114f757610100808354040283529160200191611522565b820191906000526020600020905b81548152906001019060200180831161150557829003601f168201915b505050505081526020016003820154815260200160048201548152602001600582018054600181600116156101000203166002900480601f0160208091040260200160405190810160405280929190818152602001828054600181600116156101000203166002900480156115d85780601f106115ad576101008083540402835291602001916115d8565b820191906000526020600020905b8154815290600101906020018083116115bb57829003601f168201915b5050509183525050600682015460209091019060ff1660028111156115f957fe5b600281111561160457fe5b8152600682015461010090819004600160a060020a031660208084019190915260078401805460408051600260018416159096026000190190921694909404601f8101849004840282018401855280825293909401939290918301828280156116ae5780601f10611683576101008083540402835291602001916116ae565b820191906000526020600020905b81548152906001019060200180831161169157829003601f168201915b5050505050815260200160088201805480602002602001604051908101604052809291908181526020016000905b828210156117875760008481526020908190208301805460408051601f60026000196101006001871615020190941693909304928301859004850281018501909152818152928301828280156117735780601f1061174857610100808354040283529160200191611773565b820191906000526020600020905b81548152906001019060200180831161175657829003601f168201915b5050505050815260200190600101906116dc565b505050915250909392505050565b600091825260026020908152604083206007018054600181018255908452922090910155565b60006117cd818363ffffffff61384516565b92915050565b6000805b6000848152600260205260409020600701546000190181101561189357600084815260026020526040902060070180548491908390811061181457fe5b9060005260206000200154141561182a57600191505b811561188b57600084815260026020526040902060070180546001830190811061185057fe5b9060005260206000200154600260008681526020019081526020016000206007018281548110151561187e57fe5b6000918252602090912001555b6001016117d7565b81156118eb576000848152600260205260409020600701805460001981019081106118ba57fe5b6000918252602080832090910182905585825260029052604090206007018054906118e990600019830161494d565b505b50505050565b60608060006118ff336117bb565b151561190a57600080fd5b60065460408051828152602080840282010190915290801561194657816020015b6119336148f0565b81526020019060019003908161192b5790505b509150600090505b600654811015611d4e576005600060068381548110151561196b57fe5b6000918252602080832090910154600160a060020a03168352828101939093526040918201902081516101408101835281548152600182810180548551601f6002600019958416156101000295909501909216939093049081018790048702830187019095528482529194929385840193919291830182828015611a305780601f10611a0557610100808354040283529160200191611a30565b820191906000526020600020905b815481529060010190602001808311611a1357829003601f168201915b5050509183525050600282810180546040805160206001841615610100026000190190931694909404601f81018390048302850183019091528084529381019390830182828015611ac25780601f10611a9757610100808354040283529160200191611ac2565b820191906000526020600020905b815481529060010190602001808311611aa557829003601f168201915b505050505081526020016003820154815260200160048201548152602001600582018054600181600116156101000203166002900480601f016020809104026020016040519081016040528092919081815260200182805460018160011615610100020316600290048015611b785780601f10611b4d57610100808354040283529160200191611b78565b820191906000526020600020905b815481529060010190602001808311611b5b57829003601f168201915b5050509183525050600682015460209091019060ff166002811115611b9957fe5b6002811115611ba457fe5b8152600682015461010090819004600160a060020a031660208084019190915260078401805460408051600260018416159096026000190190921694909404601f810184900484028201840185528082529390940193929091830182828015611c4e5780601f10611c2357610100808354040283529160200191611c4e565b820191906000526020600020905b815481529060010190602001808311611c3157829003601f168201915b5050505050815260200160088201805480602002602001604051908101604052809291908181526020016000905b82821015611d275760008481526020908190208301805460408051601f6002600019610100600187161502019094169390930492830185900485028101850190915281815292830182828015611d135780601f10611ce857610100808354040283529160200191611d13565b820191906000526020600020905b815481529060010190602001808311611cf657829003601f168201915b505050505081526020019060010190611c7c565b505050915250508251839083908110611d3c57fe5b6020908102909101015260010161194e565b50919050565b6060806000600480549050604051908082528060200260200182016040528015611d9857816020015b611d85614971565b815260200190600190039081611d7d5790505b509150600090505b600454811015611d4e5760026000600483815481101515611dbd57fe5b9060005260206000200154815260200190815260200160002061014060405190810160405290816000820154815260200160018201548152602001600282018054600181600116156101000203166002900480601f016020809104026020016040519081016040528092919081815260200182805460018160011615610100020316600290048015611e905780601f10611e6557610100808354040283529160200191611e90565b820191906000526020600020905b815481529060010190602001808311611e7357829003601f168201915b505050918352505060038201805460408051602060026001851615610100026000190190941693909304601f8101849004840282018401909252818152938201939291830182828015611f245780601f10611ef957610100808354040283529160200191611f24565b820191906000526020600020905b815481529060010190602001808311611f0757829003601f168201915b505050918352505060048201805460408051602060026001851615610100026000190190941693909304601f8101849004840282018401909252818152938201939291830182828015611fb85780601f10611f8d57610100808354040283529160200191611fb8565b820191906000526020600020905b815481529060010190602001808311611f9b57829003601f168201915b505050918352505060058201805460408051602060026001851615610100026000190190941693909304601f810184900484028201840190925281815293820193929183018282801561204c5780601f106120215761010080835404028352916020019161204c565b820191906000526020600020905b81548152906001019060200180831161202f57829003601f168201915b505050918352505060068201805460408051602060026001851615610100026000190190941693909304601f81018490048402820184019092528181529382019392918301828280156120e05780601f106120b5576101008083540402835291602001916120e0565b820191906000526020600020905b8154815290600101906020018083116120c357829003601f168201915b505050505081526020016007820180548060200260200160405190810160405280929190818152602001828054801561213857602002820191906000526020600020905b815481526020019060010190808311612124575b505050505081526020016008820180548060200260200160405190810160405280929190818152602001828054801561219057602002820191906000526020600020905b81548152602001906001019080831161217c575b50505050508152602001600982018054806020026020016040519081016040528092919081815260200182805480156121f257602002820191906000526020600020905b8154600160a060020a031681526001909101906020018083116121d4575b505050505081525050828281518110151561220957fe5b60209081029091010152600101611da0565b60008281526002602052604081206008015490811115610adc5760008381526002602052604090206008018054600019830190811061225657fe5b9060005260206000200154600260008581526020019081526020016000206008018381548110151561228457fe5b90600052602060002001819055508160026000858152602001908152602001600020600801600183038154811015156122b957fe5b60009182526020808320909101929092558481526002909152604090206008018054906118eb90600019830161494d565b600080805b600654811015611d4e57336000908152600560208190526040822060030154600680549193918590811061231f57fe5b6000918252602080832090910154600160a060020a0316835282019290925260400190206003015414801561239c575060026005600060068481548110151561236457fe5b6000918252602080832090910154600160a060020a0316835282019290925260400190206006015460ff16600281111561239a57fe5b145b156123a8576001909101905b6001016122ef565b60008115156123d45760405160e560020a62461bcd02815260040161064090615c46565b600086116123f75760405160e560020a62461bcd02815260040161064090615c56565b33600090815260056020526040902054156124275760405160e560020a62461bcd02815260040161064090615b86565b612430826134f8565b15156124515760405160e560020a62461bcd02815260040161064090615bf6565b61245a8661387c565b905061246f8686868585886001336000613a6b565b505050505050565b6000612482336117bb565b151561248d57600080fd5b5060045490565b61249d336117bb565b15156124a857600080fd5b600160a060020a0382166000908152600560205260409020600301546124ce9083613684565b604080518082018252600b81527f53757065722061646d696e0000000000000000000000000000000000000000006020808301918252600160a060020a038616600090815260059182905293909320915161252d939290920191614876565b5060038054600101808255600160a060020a038416600090815260056020908152604090912092830191909155825161256c9260070191840190614876565b50600160a060020a038216600081815260056020818152604080842060068101805460ff19166002179055815160608101835260048185019081527f74657374000000000000000000000000000000000000000000000000000000009382019390935291825294909352526125e6916008019060016149c5565b506125f0826134bd565b5050565b60009081526002602052604090206008015490565b600160a060020a038216600090815260056020908152604082208851612637926001909201918a0190614876565b50600160a060020a0383166000908152600560209081526040909120875161266792600290920191890190614876565b50600160a060020a0383166000908152600560209081526040909120835161269792600890920191850190614a1e565b50600090505b60065481101561285c576005600084600160a060020a0316600160a060020a03168152602001908152602001600020600701604051808280546001816001161561010002031660029004801561272a5780601f1061270857610100808354040283529182019161272a565b820191906000526020600020905b815481529060010190602001808311612716575b50509150506040518091039020600019166005600060068481548110151561274e57fe5b9060005260206000200160009054906101000a9004600160a060020a0316600160a060020a0316600160a060020a0316815260200190815260200160002060070160405180828054600181600116156101000203166002900480156127ea5780601f106127c85761010080835404028352918201916127ea565b820191906000526020600020905b8154815290600101906020018083116127d6575b5050915050604051809103902060001916141561285457816005600060068481548110151561281557fe5b6000918252602080832090910154600160a060020a0316835282810193909352604090910190208251612852936008909201929190910190614a1e565b505b60010161269d565b50505050505050565b6000612870336117bb565b151561287b57600080fd5b50805b600154600019018110156128e7576001805482820190811061289c57fe5b906000526020600020016001828154811015156128b557fe5b9060005260206000200190805460018160011615610100020316600290046128de929190614a6b565b5060010161287e565b6001805460001981019081106128f957fe5b90600052602060002001600061290f9190614ae0565b6001805490610adc906000198301614b24565b61292a6148f0565b6129326148f0565b3360009081526005602090815260409182902082516101408101845281548152600180830180548651600293821615610100026000190190911692909204601f81018690048602830186019096528582529194929385810193919291908301828280156129e05780601f106129b5576101008083540402835291602001916129e0565b820191906000526020600020905b8154815290600101906020018083116129c357829003601f168201915b5050509183525050600282810180546040805160206001841615610100026000190190931694909404601f81018390048302850183019091528084529381019390830182828015612a725780601f10612a4757610100808354040283529160200191612a72565b820191906000526020600020905b815481529060010190602001808311612a5557829003601f168201915b505050505081526020016003820154815260200160048201548152602001600582018054600181600116156101000203166002900480601f016020809104026020016040519081016040528092919081815260200182805460018160011615610100020316600290048015612b285780601f10612afd57610100808354040283529160200191612b28565b820191906000526020600020905b815481529060010190602001808311612b0b57829003601f168201915b5050509183525050600682015460209091019060ff166002811115612b4957fe5b6002811115612b5457fe5b8152600682015461010090819004600160a060020a031660208084019190915260078401805460408051600260018416159096026000190190921694909404601f810184900484028201840185528082529390940193929091830182828015612bfe5780601f10612bd357610100808354040283529160200191612bfe565b820191906000526020600020905b815481529060010190602001808311612be157829003601f168201915b5050505050815260200160088201805480602002602001604051908101604052809291908181526020016000905b82821015612cd75760008481526020908190208301805460408051601f6002600019610100600187161502019094169390930492830185900485028101850190915281815292830182828015612cc35780601f10612c9857610100808354040283529160200191612cc3565b820191906000526020600020905b815481529060010190602001808311612ca657829003601f168201915b505050505081526020019060010190612c2c565b505050508152505090508091505b5090565b6060600080600060606000612cff600a886137e9565b600454909550612d1090600a613822565b6004549094501580612d2757506004546000190185115b80612d3157508387115b15612d3b576131fa565b60408051600a80825261016082019092526000945090816020015b612d5e614971565b815260200190600190039081612d565790505091508490505b6004548110156131f65760026000600483815481101515612d9457fe5b9060005260206000200154815260200190815260200160002061014060405190810160405290816000820154815260200160018201548152602001600282018054600181600116156101000203166002900480601f016020809104026020016040519081016040528092919081815260200182805460018160011615610100020316600290048015612e675780601f10612e3c57610100808354040283529160200191612e67565b820191906000526020600020905b815481529060010190602001808311612e4a57829003601f168201915b505050918352505060038201805460408051602060026001851615610100026000190190941693909304601f8101849004840282018401909252818152938201939291830182828015612efb5780601f10612ed057610100808354040283529160200191612efb565b820191906000526020600020905b815481529060010190602001808311612ede57829003601f168201915b505050918352505060048201805460408051602060026001851615610100026000190190941693909304601f8101849004840282018401909252818152938201939291830182828015612f8f5780601f10612f6457610100808354040283529160200191612f8f565b820191906000526020600020905b815481529060010190602001808311612f7257829003601f168201915b505050918352505060058201805460408051602060026001851615610100026000190190941693909304601f81018490048402820184019092528181529382019392918301828280156130235780601f10612ff857610100808354040283529160200191613023565b820191906000526020600020905b81548152906001019060200180831161300657829003601f168201915b505050918352505060068201805460408051602060026001851615610100026000190190941693909304601f81018490048402820184019092528181529382019392918301828280156130b75780601f1061308c576101008083540402835291602001916130b7565b820191906000526020600020905b81548152906001019060200180831161309a57829003601f168201915b505050505081526020016007820180548060200260200160405190810160405280929190818152602001828054801561310f57602002820191906000526020600020905b8154815260200190600101908083116130fb575b505050505081526020016008820180548060200260200160405190810160405280929190818152602001828054801561316757602002820191906000526020600020905b815481526020019060010190808311613153575b50505050508152602001600982018054806020026020016040519081016040528092919081815260200182805480156131c957602002820191906000526020600020905b8154600160a060020a031681526001909101906020018083116131ab575b50505050508152505082848151811015156131e057fe5b6020908102909101015260019283019201612d77565b8195505b5050505050919050565b6005602090815260009182526040918290208054600180830180548651600293821615610100026000190190911692909204601f8101869004860283018601909652858252919492939092908301828280156132a15780601f10613276576101008083540402835291602001916132a1565b820191906000526020600020905b81548152906001019060200180831161328457829003601f168201915b50505060028085018054604080516020601f60001961010060018716150201909416959095049283018590048502810185019091528181529596959450909250908301828280156133335780601f1061330857610100808354040283529160200191613333565b820191906000526020600020905b81548152906001019060200180831161331657829003601f168201915b505050505090806003015490806004015490806005018054600181600116156101000203166002900480601f0160208091040260200160405190810160405280929190818152602001828054600181600116156101000203166002900480156133dd5780601f106133b2576101008083540402835291602001916133dd565b820191906000526020600020905b8154815290600101906020018083116133c057829003601f168201915b5050505060068301546007840180546040805160206002610100600186161581026000190190951604601f8101829004820283018201909352828252969760ff86169793909504600160a060020a0316955092918301828280156134825780601f1061345757610100808354040283529160200191613482565b820191906000526020600020905b81548152906001019060200180831161346557829003601f168201915b5050505050905089565b600091825260026020908152604083206008018054600181018255908452922090910155565b6134bb33614116565b565b6134c6336117bb565b15156134d157600080fd5b6107988161415e565b600160a060020a031660009081526005602052604090206003015490565b6000908152600260205260408120541190565b600080613517336117bb565b151561352257600080fd5b600088116135455760405160e560020a62461bcd02815260040161064090615c56565b506003805460010190819055600081815260026020526040902054156135805760405160e560020a62461bcd02815260040161064090615be6565b61358f818989898989896141a6565b979650505050505050565b60035481565b600160a060020a038181166000908152600560205260408120600601549091829182916101009091041681106135eb5760405160e560020a62461bcd02815260040161064090615b96565b6002600160a060020a03851660009081526005602052604090206006015460ff16600281111561361757fe5b146136375760405160e560020a62461bcd02815260040161064090615c26565b600160a060020a03841660009081526005602052604090206004810154815460069092015490945090925060ff16600281111561367057fe5b90506113c782898989878a878b6001613a6b565b6000805b600084815260026020526040902060090154600019018110156137815760008481526002602052604090206009018054600160a060020a0385169190839081106136ce57fe5b600091825260209091200154600160a060020a031614156136ee57600191505b811561377957600084815260026020526040902060090180546001830190811061371457fe5b6000918252602080832090910154868352600290915260409091206009018054600160a060020a03909216918390811061374a57fe5b9060005260206000200160006101000a815481600160a060020a030219169083600160a060020a031602179055505b600101613688565b6000848152600260205260409020600901805460001981019081106137a257fe5b60009182526020808320909101805473ffffffffffffffffffffffffffffffffffffffff1916905585825260029052604090206009018054906118e990600019830161494d565b6000808315156137fc576000915061381b565b5082820282848281151561380c57fe5b041461381757600080fd5b8091505b5092915050565b60008080831161383157600080fd5b828481151561383c57fe5b04949350505050565b6000600160a060020a038216151561385c57600080fd5b50600160a060020a03166000908152602091909152604090205460ff1690565b600080808060028506151561390e5784604051602001808281526020019150506040516020818303038152906040526040518082805190602001908083835b602083106138da5780518252601f1990920191602091820191016138bb565b6001836020036101000a038019825116818451168082178552505050505050905001915050604051809103902092506139f9565b84604051602001808281526020019150506040516020818303038152906040526040518082805190602001908083835b6020831061395d5780518252601f19909201916020918201910161393e565b51815160209384036101000a600019018019909216911617905260408051929094018290038220828201528351808303820181529184019384905281519195509293508392850191508083835b602083106139c95780518252601f1990920191602091820191016139aa565b6001836020036101000a038019825116818451168082178552505050505050905001915050604051809103902092505b6020811015613a2657828160208110613a0e57fe5b60f860020a91901a81020491909101906001016139f9565b826020600284010660208110613a3857fe5b60f860020a91901a810204836020840660208110613a5257fe5b1a60f860020a0260f860020a9004029350505050919050565b613a736148f0565b600084101580613a84575060028411155b1515613aa55760405160e560020a62461bcd02815260040161064090615bc6565b84511515613ac85760405160e560020a62461bcd02815260040161064090615b66565b600160a060020a03831660009081526005602090815260409182902082516101408101845281548152600180830180548651600293821615610100026000190190911692909204601f8101869004860283018601909652858252919492938581019391929190830182828015613b7f5780601f10613b5457610100808354040283529160200191613b7f565b820191906000526020600020905b815481529060010190602001808311613b6257829003601f168201915b5050509183525050600282810180546040805160206001841615610100026000190190931694909404601f81018390048302850183019091528084529381019390830182828015613c115780601f10613be657610100808354040283529160200191613c11565b820191906000526020600020905b815481529060010190602001808311613bf457829003601f168201915b505050505081526020016003820154815260200160048201548152602001600582018054600181600116156101000203166002900480601f016020809104026020016040519081016040528092919081815260200182805460018160011615610100020316600290048015613cc75780601f10613c9c57610100808354040283529160200191613cc7565b820191906000526020600020905b815481529060010190602001808311613caa57829003601f168201915b5050509183525050600682015460209091019060ff166002811115613ce857fe5b6002811115613cf357fe5b8152600682015461010090819004600160a060020a031660208084019190915260078401805460408051600260018416159096026000190190921694909404601f810184900484028201840185528082529390940193929091830182828015613d9d5780601f10613d7257610100808354040283529160200191613d9d565b820191906000526020600020905b815481529060010190602001808311613d8057829003601f168201915b5050505050815260200160088201805480602002602001604051908101604052809291908181526020016000905b82821015613e765760008481526020908190208301805460408051601f6002600019610100600187161502019094169390930492830185900485028101850190915281815292830182828015613e625780601f10613e3757610100808354040283529160200191613e62565b820191906000526020600020905b815481529060010190602001808311613e4557829003601f168201915b505050505081526020019060010190613dcb565b505050915250508a8152602081018a905260408101899052606081018890526080810187905260a081018690529050836002811115613eb157fe5b8160c001906002811115613ec157fe5b90816002811115613ece57fe5b905250600160a060020a03831660e082018190526000908152600560209081526040909120825181558183015180518493613f10926001850192910190614876565b5060408201518051613f2c916002840191602090910190614876565b50606082015160038201556080820151600482015560a08201518051613f5c916005840191602090910190614876565b5060c082015160068201805460ff19166001836002811115613f7a57fe5b021790555060e082015160068201805474ffffffffffffffffffffffffffffffffffffffff001916610100600160a060020a0390931683021790558201518051613fce916007840191602090910190614876565b506101208201518051613feb916008840191602090910190614b48565b50505081151561410a57600680546001810182556000919091527ff652222313e28459528d920b65115c16c04f3efc82aaedc97be59f3f377c0d3f01805473ffffffffffffffffffffffffffffffffffffffff1916600160a060020a0385161790556140568761479c565b60408051606081018252600460208281019182527f746573740000000000000000000000000000000000000000000000000000000083850152908252600160a060020a03861660009081526005909152919091206140bb9160089091019060016149c5565b5060608101516000908152600260208181526040808420600160a060020a038816855260059283905293209201805461410893600701926000196101006001841615020190911604614a6b565b505b50505050505050505050565b61412760008263ffffffff6147dc16565b604051600160a060020a038216907f3525e22824a8a7df2c9a6029941c824cf95b6447f1e13d5128fd3826d35afe8b90600090a250565b61416f60008263ffffffff61482816565b604051600160a060020a038216907f47d1c22a25bb3a5d4e481b9b1e6944c2eade3181a0a20b495ed61d35b5323f2490600090a250565b6141ae614971565b855115156141d15760405160e560020a62461bcd02815260040161064090615c36565b825115156141f45760405160e560020a62461bcd02815260040161064090615c16565b815115156142175760405160e560020a62461bcd02815260040161064090615c06565b6000888152600260208181526040928390208351610140810185528154815260018083015482850152828501805487519281161561010002600019011695909504601f810185900485028201850187528082529195929492860193909291908301828280156142c75780601f1061429c576101008083540402835291602001916142c7565b820191906000526020600020905b8154815290600101906020018083116142aa57829003601f168201915b505050918352505060038201805460408051602060026001851615610100026000190190941693909304601f810184900484028201840190925281815293820193929183018282801561435b5780601f106143305761010080835404028352916020019161435b565b820191906000526020600020905b81548152906001019060200180831161433e57829003601f168201915b505050918352505060048201805460408051602060026001851615610100026000190190941693909304601f81018490048402820184019092528181529382019392918301828280156143ef5780601f106143c4576101008083540402835291602001916143ef565b820191906000526020600020905b8154815290600101906020018083116143d257829003601f168201915b505050918352505060058201805460408051602060026001851615610100026000190190941693909304601f81018490048402820184019092528181529382019392918301828280156144835780601f1061445857610100808354040283529160200191614483565b820191906000526020600020905b81548152906001019060200180831161446657829003601f168201915b505050918352505060068201805460408051602060026001851615610100026000190190941693909304601f81018490048402820184019092528181529382019392918301828280156145175780601f106144ec57610100808354040283529160200191614517565b820191906000526020600020905b8154815290600101906020018083116144fa57829003601f168201915b505050505081526020016007820180548060200260200160405190810160405280929190818152602001828054801561456f57602002820191906000526020600020905b81548152602001906001019080831161455b575b50505050508152602001600882018054806020026020016040519081016040528092919081815260200182805480156145c757602002820191906000526020600020905b8154815260200190600101908083116145b3575b505050505081526020016009820180548060200260200160405190810160405280929190818152602001828054801561462957602002820191906000526020600020905b8154600160a060020a0316815260019091019060200180831161460b575b50505091909252505050888152602080820189815260408084018a8152606085018a90526080850189905260a0850188905260c0850187905260008d815260028086529290208551815592516001840155518051949550859492936146949392850192910190614876565b50606082015180516146b0916003840191602090910190614876565b50608082015180516146cc916004840191602090910190614876565b5060a082015180516146e8916005840191602090910190614876565b5060c08201518051614704916006840191602090910190614876565b5060e08201518051614720916007840191602090910190614b95565b50610100820151805161473d916008840191602090910190614b95565b50610120820151805161475a916009840191602090910190614bcf565b5050600480546001810182556000919091527f8a35acfbc15ff81a39ae7d344fd709f28e8600b4aa8c65c6b64bfe7fe36bd19b01989098555050505050505050565b600090815260026020908152604082206009018054600181018255908352912001805473ffffffffffffffffffffffffffffffffffffffff191633179055565b600160a060020a03811615156147f157600080fd5b6147fb8282613845565b151561480657600080fd5b600160a060020a0316600090815260209190915260409020805460ff19169055565b600160a060020a038116151561483d57600080fd5b6148478282613845565b1561485157600080fd5b600160a060020a0316600090815260209190915260409020805460ff19166001179055565b828054600181600116156101000203166002900490600052602060002090601f016020900481019282601f106148b757805160ff19168380011785556148e4565b828001600101855582156148e4579182015b828111156148e45782518255916020019190600101906148c9565b50612ce5929150614c3d565b610140604051908101604052806000815260200160608152602001606081526020016000815260200160008152602001606081526020016000600281111561493457fe5b8152600060208201526060604082018190529081015290565b815481835581811115610adc57600083815260209020610adc918101908301614c3d565b61014060405190810160405280600081526020016000815260200160608152602001606081526020016060815260200160608152602001606081526020016060815260200160608152602001606081525090565b828054828255906000526020600020908101928215614a12579160200282015b82811115614a125782518051614a02918491602090910190614876565b50916020019190600101906149e5565b50612ce5929150614c57565b828054828255906000526020600020908101928215614a12579160200282015b82811115614a125782518051614a5b918491602090910190614876565b5091602001919060010190614a3e565b828054600181600116156101000203166002900490600052602060002090601f016020900481019282601f10614aa457805485556148e4565b828001600101855582156148e457600052602060002091601f016020900482015b828111156148e4578254825591600101919060010190614ac5565b50805460018160011615610100020316600290046000825580601f10614b065750610798565b601f0160209004906000526020600020908101906107989190614c3d565b815481835581811115610adc57600083815260209020610adc918101908301614c57565b828054828255906000526020600020908101928215614a12579160200282015b82811115614a125782518051614b85918491602090910190614876565b5091602001919060010190614b68565b8280548282559060005260206000209081019282156148e457916020028201828111156148e45782518255916020019190600101906148c9565b828054828255906000526020600020908101928215614c31579160200282015b82811115614c31578251825473ffffffffffffffffffffffffffffffffffffffff1916600160a060020a03909116178255602090920191600190910190614bef565b50612ce5929150614c7a565b61130391905b80821115612ce55760008155600101614c43565b61130391905b80821115612ce5576000614c718282614ae0565b50600101614c5d565b61130391905b80821115612ce557805473ffffffffffffffffffffffffffffffffffffffff19168155600101614c80565b6000614cb78235615e2a565b9392505050565b6000601f82018313614ccf57600080fd5b8135614ce2614cdd82615dd7565b615db0565b81815260209384019390925082018360005b83811015614d205781358601614d0a8882614d2a565b8452506020928301929190910190600101614cf4565b5050505092915050565b6000601f82018313614d3b57600080fd5b8135614d49614cdd82615df8565b91508082526020830160208301858383011115614d6557600080fd5b614d70838284615e52565b50505092915050565b6000614cb78235611303565b600060208284031215614d9757600080fd5b6000614da38484614cab565b949350505050565b60008060408385031215614dbe57600080fd5b6000614dca8585614cab565b925050602083013567ffffffffffffffff811115614de757600080fd5b614df385828601614d2a565b9150509250929050565b600060208284031215614e0f57600080fd5b813567ffffffffffffffff811115614e2657600080fd5b614da384828501614d2a565b600080600080600060a08688031215614e4a57600080fd5b853567ffffffffffffffff811115614e6157600080fd5b614e6d88828901614d2a565b955050602086013567ffffffffffffffff811115614e8a57600080fd5b614e9688828901614d2a565b9450506040614ea788828901614d79565b935050606086013567ffffffffffffffff811115614ec457600080fd5b614ed088828901614d2a565b9250506080614ee188828901614cab565b9150509295509295909350565b60008060008060008060c08789031215614f0757600080fd5b863567ffffffffffffffff811115614f1e57600080fd5b614f2a89828a01614d2a565b965050602087013567ffffffffffffffff811115614f4757600080fd5b614f5389828a01614d2a565b9550506040614f6489828a01614d79565b945050606087013567ffffffffffffffff811115614f8157600080fd5b614f8d89828a01614d2a565b9350506080614f9e89828a01614cab565b92505060a087013567ffffffffffffffff811115614fbb57600080fd5b614fc789828a01614cbe565b9150509295509295509295565b600060208284031215614fe657600080fd5b6000614da38484614d79565b60008060008060008060c0878903121561500b57600080fd5b60006150178989614d79565b965050602087013567ffffffffffffffff81111561503457600080fd5b61504089828a01614d2a565b955050604087013567ffffffffffffffff81111561505d57600080fd5b61506989828a01614d2a565b945050606087013567ffffffffffffffff81111561508657600080fd5b61509289828a01614d2a565b935050608087013567ffffffffffffffff8111156150af57600080fd5b6150bb89828a01614d2a565b92505060a087013567ffffffffffffffff8111156150d857600080fd5b614fc789828a01614d2a565b600080600080600060a086880312156150fc57600080fd5b60006151088888614d79565b955050602086013567ffffffffffffffff81111561512557600080fd5b61513188828901614d2a565b945050604086013567ffffffffffffffff81111561514e57600080fd5b61515a88828901614d2a565b935050606086013567ffffffffffffffff81111561517757600080fd5b61518388828901614d2a565b9250506080614ee188828901614d79565b600080604083850312156151a757600080fd5b60006151b38585614d79565b9250506020614df385828601614d79565b600080600080600080600060e0888a0312156151df57600080fd5b60006151eb8a8a614d79565b97505060206151fc8a828b01614d79565b965050604088013567ffffffffffffffff81111561521957600080fd5b6152258a828b01614d2a565b955050606088013567ffffffffffffffff81111561524257600080fd5b61524e8a828b01614d2a565b945050608088013567ffffffffffffffff81111561526b57600080fd5b6152778a828b01614d2a565b93505060a088013567ffffffffffffffff81111561529457600080fd5b6152a08a828b01614d2a565b92505060c088013567ffffffffffffffff8111156152bd57600080fd5b6152c98a828b01614d2a565b91505092959891949750929550565b6152e181615e2a565b82525050565b60006152f282615e26565b80845260208401935061530483615e20565b60005b828110156153345761531a8683516152d8565b61532382615e20565b602096909601959150600101615307565b5093949350505050565b600061534982615e26565b8084526020840193508360208202850161536285615e20565b60005b8481101561539957838303885261537d838351615562565b925061538882615e20565b602098909801979150600101615365565b50909695505050505050565b60006153b082615e26565b808452602084019350836020820285016153c985615e20565b60005b848110156153995783830388526153e4838351615562565b92506153ef82615e20565b6020989098019791506001016153cc565b600061540b82615e26565b8084526020840193508360208202850161542485615e20565b60005b8481101561539957838303885261543f838351615913565b925061544a82615e20565b602098909801979150600101615427565b600061546682615e26565b8084526020840193508360208202850161547f85615e20565b60005b8481101561539957838303885261549a838351615a16565b92506154a582615e20565b602098909801979150600101615482565b60006154c182615e26565b8084526020840193506154d383615e20565b60005b82811015615334576154e9868351615afb565b6154f282615e20565b6020969096019591506001016154d6565b600061550e82615e26565b80845260208401935061552083615e20565b60005b8281101561533457615536868351615afb565b61553f82615e20565b602096909601959150600101615523565b6152e181615e36565b6152e181615e47565b600061556d82615e26565b808452615581816020860160208601615e5e565b61558a81615e8a565b9093016020019392505050565b601a81527f4372656174696f6e204461746520697320696d6d757461626c65000000000000602082015260400190565b601181527f726f6c65206973206d616e6461746f7279000000000000000000000000000000602082015260400190565b602281527f4f6e6c792070656e64696e672075736572732063616e2062652061636365707460208201527f6564000000000000000000000000000000000000000000000000000000000000604082015260600190565b601381527f5573657220616c72656164792065786973747300000000000000000000000000602082015260400190565b601481527f546869732075736572206e6f7420657869737473000000000000000000000000602082015260400190565b601b81527f596f752063616e6e6f7420616363657074207468697320757365720000000000602082015260400190565b602281527f4f6e6c792070656e64696e672075736572732063616e2062652072656a65637460208201527f6564000000000000000000000000000000000000000000000000000000000000604082015260600190565b601381527f737461747573206973206e6f742076616c696400000000000000000000000000602082015260400190565b601181527f6d656d626572206e6f7420657869737473000000000000000000000000000000602082015260400190565b601581527f4d656d62657220616c7265616479206578697374730000000000000000000000602082015260400190565b601181527f4d656d626572206e6f7420657869737473000000000000000000000000000000602082015260400190565b601281527f5468656d65206973206d616e6461746f72790000000000000000000000000000602082015260400190565b601081527f434d4f206973206d616e6461746f727900000000000000000000000000000000602082015260400190565b601481527f596f7520617265206e6f74206163636570746564000000000000000000000000602082015260400190565b601181527f4e616d65206973206d616e6461746f7279000000000000000000000000000000602082015260400190565b601181527f4e6f2076616c6964206d656d6265724964000000000000000000000000000000602082015260400190565b601981527f4372656174696f6e44617465206973206d616e6461746f727900000000000000602082015260400190565b80516000906101408401906159288582615afb565b50602083015161593b6020860182615afb565b50604083015184820360408601526159538282615562565b9150506060830151848203606086015261596d8282615562565b915050608083015184820360808601526159878282615562565b91505060a083015184820360a08601526159a18282615562565b91505060c083015184820360c08601526159bb8282615562565b91505060e083015184820360e08601526159d58282615503565b9150506101008301518482036101008601526159f18282615503565b915050610120830151848203610120860152615a0d82826152e7565b95945050505050565b8051600090610140840190615a2b8582615afb565b5060208301518482036020860152615a438282615562565b91505060408301518482036040860152615a5d8282615562565b9150506060830151615a726060860182615afb565b506080830151615a856080860182615afb565b5060a083015184820360a0860152615a9d8282615562565b91505060c0830151615ab260c0860182615559565b5060e0830151615ac560e08601826152d8565b50610100830151848203610100860152615adf8282615562565b915050610120830151848203610120860152615a0d82826153a5565b6152e181611303565b60208082528101614cb7818461533e565b60208082528101614cb78184615400565b60208082528101614cb7818461545b565b60208082528101614cb781846154b6565b602081016117cd8284615550565b602080825281016117cd81615597565b602080825281016117cd816155c7565b602080825281016117cd816155f7565b602080825281016117cd8161564d565b602080825281016117cd8161567d565b602080825281016117cd816156ad565b602080825281016117cd816156dd565b602080825281016117cd81615733565b602080825281016117cd81615763565b602080825281016117cd81615793565b602080825281016117cd816157c3565b602080825281016117cd816157f3565b602080825281016117cd81615823565b602080825281016117cd81615853565b602080825281016117cd81615883565b602080825281016117cd816158b3565b602080825281016117cd816158e3565b60208082528101614cb78184615a16565b602081016117cd8284615afb565b6101208101615c94828c615afb565b8181036020830152615ca6818b615562565b90508181036040830152615cba818a615562565b9050615cc96060830189615afb565b615cd66080830188615afb565b81810360a0830152615ce88187615562565b9050615cf760c0830186615559565b615d0460e08301856152d8565b818103610100830152615d178184615562565b9b9a5050505050505050505050565b60e08101615d34828a615afb565b615d416020830189615afb565b8181036040830152615d538188615562565b90508181036060830152615d678187615562565b90508181036080830152615d7b8186615562565b905081810360a0830152615d8f8185615562565b905081810360c0830152615da38184615562565b9998505050505050505050565b60405181810167ffffffffffffffff81118282101715615dcf57600080fd5b604052919050565b600067ffffffffffffffff821115615dee57600080fd5b5060209081020190565b600067ffffffffffffffff821115615e0f57600080fd5b506020601f91909101601f19160190565b60200190565b5190565b600160a060020a031690565b151590565b600060038210612ce557fe5b60006117cd82615e3b565b82818337506000910152565b60005b83811015615e79578181015183820152602001615e61565b838111156118eb5750506000910152565b601f01601f1916905600a265627a7a72305820552ed9b52c5975309a8459cf642b5b3171c67292affd2ffb672b882c8c5244596c6578706572696d656e74616cf50037",
  "source": "pragma solidity ^0.4.24;\npragma experimental ABIEncoderV2;\n\nimport \"./Members.sol\";\nimport \"./Claims.sol\";\n\ncontract Users is Members {\n\n  struct User {\n    uint256 creationDate;\n    string firstName;\n    string lastName;\n    uint256 memberId;\n    uint256 requestId;\n    string role;\n    StatusUserEnum status;\n    address owner;\n    string cmo;\n    string[] groups;\n  }\n\n  enum StatusUserEnum {\n    REJECTED,\n    PENDING,\n    ACCEPTED\n  }\n\n  mapping (address => User) public users_;\n  address[] private usersList_;\n\n  uint256 constant private PAGE_SIZE = 10;\n\n  // PUBLIC\n\n  function registerUserRequest(uint256 _creationDate, string _firstName, string _lastName, string _role, uint256 _memberId) public {\n\n    require(_memberId != 0, \"No valid memberId\");\n    require(_creationDate > 0, \"CreationDate is mandatory\");\n    require(users_[msg.sender].creationDate == 0, \"User already exists\");\n    require(_memberExists(_memberId), \"Member not exists\");\n\n    uint256 _requestId = Random.rand(_creationDate);\n    _saveUser(_creationDate, _firstName, _lastName, _memberId, _requestId, _role, uint256(StatusUserEnum.PENDING), msg.sender, 0);\n  }\n\n  function updateUser(string _firstName, string _lastName, uint256 _memberId, string _role, address owner) public {\n\n    require(users_[owner].owner > address(0), \"This user not exists\");\n    require(uint(users_[owner].status) == uint(StatusUserEnum.ACCEPTED), \"You are not accepted\");\n\n    uint256 _requestId = users_[owner].requestId;\n    uint256 _creationDate = users_[owner].creationDate;\n    uint256 _status = uint(users_[owner].status);\n\n    _saveUser(_creationDate, _firstName, _lastName, _memberId, _requestId, _role, _status, owner, 1);\n  }\n\n  function updateSuperUser(string _firstName, string _lastName, uint256 _memberId, string _role, address owner, string[] _groups) public {\n\n    users_[owner].firstName = _firstName;\n    users_[owner].lastName = _lastName;\n    users_[owner].groups = _groups;\n\n    for (uint i = 0; i < usersList_.length; ++i) {\n      if (keccak256(users_[usersList_[i]].cmo) == keccak256(users_[owner].cmo)) {\n        users_[usersList_[i]].groups = _groups;\n      }\n    }\n\n  }\n\n  function rejectUser(address _userToReject) public {\n\n    require(users_[_userToReject].owner > address(0), \"This user not exists\");\n    require((users_[msg.sender].memberId == users_[_userToReject].memberId) || isSigner(msg.sender), \"You cannot accept this user\");\n    require((uint(users_[msg.sender].status) == uint(StatusUserEnum.ACCEPTED)) || isSigner(msg.sender), \"You are not accepted\");\n    require(users_[_userToReject].status == StatusUserEnum.PENDING, \"Only pending users can be rejected\");\n\n    users_[_userToReject].status = StatusUserEnum.REJECTED;\n    _clearUserFromMemberRequest(users_[_userToReject].memberId, _userToReject);\n  }\n\n  function acceptUser(address _userToAccept) public {\n\n    require(users_[_userToAccept].owner > address(0), \"This user not exists\");\n    require((users_[msg.sender].memberId == users_[_userToAccept].memberId) || isSigner(msg.sender), \"You cannot accept this user\");\n    require((uint(users_[msg.sender].status) == uint(StatusUserEnum.ACCEPTED)) || isSigner(msg.sender), \"You are not accepted\");\n    require(users_[_userToAccept].status == StatusUserEnum.PENDING, \"Only pending users can be accepted\");\n\n    users_[_userToAccept].status = StatusUserEnum.ACCEPTED;\n    _clearUserFromMemberRequest(users_[_userToAccept].memberId, _userToAccept);\n  }\n\n  function getcountUsers() public view returns(uint) {\n    uint256 counter = 0;\n    for (uint i = 0; i < usersList_.length; ++i) {\n      if(users_[usersList_[i]].memberId == users_[msg.sender].memberId\n        && users_[usersList_[i]].status == StatusUserEnum.ACCEPTED) {\n        counter++;\n      }\n    }\n    return counter;\n  }\n\n  function whitelistAdmin(address account, string _cmo) public onlySigner {\n    _clearUserFromMemberRequest(users_[account].memberId, account);\n    users_[account].role = \"Super admin\";\n    users_[account].memberId = ++memberIdCounter_;\n    users_[account].cmo = _cmo;\n    users_[account].status = StatusUserEnum.ACCEPTED;\n    users_[account].groups = [\"test\"];\n    addSigner(account);\n  }\n\n  function getUsers(uint256 _page) public view returns(User[] memory) {\n    uint256 counter = getcountUsers();\n\n    uint256 pageIndex = SafeMath.mul(PAGE_SIZE, _page);\n    uint256 pageNumber = SafeMath.div(usersList_.length, PAGE_SIZE);\n\n    if (counter == 0 || pageIndex > counter || _page > pageNumber) {\n      return;\n    }\n\n    User[] memory userPageBasic = new User[](PAGE_SIZE);\n    uint256 counterFinal = 0;\n\n    for (uint j = pageIndex; j < usersList_.length; ++j) {\n      if(users_[usersList_[j]].memberId == users_[msg.sender].memberId\n        && users_[usersList_[j]].status == StatusUserEnum.ACCEPTED) {\n        userPageBasic[counterFinal] = users_[usersList_[j]];\n        ++counterFinal;\n      }\n    }\n    return userPageBasic;\n  }\n\n  function getUserByAddress(address userAddress) public view returns(User memory) {\n    return users_[userAddress];\n  }\n\n  function getUsersOwner() onlySigner public view returns(User[] memory) {\n    User[] memory userPageOwner = new User[](usersList_.length);\n\n    for (uint i = 0; i < usersList_.length; ++i) {\n      userPageOwner[i] = users_[usersList_[i]];\n    }\n\n    return userPageOwner;\n  }\n\n  function getMe() public view returns(User) {\n    //TODO: require\n    User memory user = users_[msg.sender];\n    return user;\n  }\n\n  // PRIVATE\n\n  function _saveUser(uint256 _creationDate, string _firstName, string _lastName, uint256 _memberId,\n    uint256 _requestId, string _role, uint256 _status, address owner, uint isCreate) internal {\n\n    require(_status >= 0 || _status <=2, \"status is not valid\");\n    require(bytes(_role).length != 0, \"role is mandatory\");\n\n    User memory user = users_[owner];\n\n    user.creationDate =  _creationDate;\n    user.firstName =  _firstName;\n    user.lastName =  _lastName;\n    user.memberId =  _memberId;\n    user.requestId =  _requestId;\n    user.role = _role;\n    user.status = StatusUserEnum(_status);\n    user.owner = owner;\n\n    users_[owner] = user;\n\n    if(isCreate == 0) {\n      usersList_.push(owner);\n//      if (users_[owner].status != StatusUserEnum.ACCEPTED) {\n      _addUserToMemberRequest(_memberId);\n//      }\n      users_[owner].groups = [\"test\"];                  // by default\n      users_[owner].cmo = members_[user.memberId].cmo;  // to initialize\n    }\n  }\n\n  function _memberIdFromCurrentAddress(address addr) view public returns(uint256) {\n    return users_[addr].memberId;\n  }\n\n}\n",
  "sourcePath": "/home/komodo/newUI2/bloomen-decentralized-rights-management-v2/truffle/contracts/registry/Users.sol",
  "compiler": {
    "name": "solc",
    "version": "0.4.24+commit.e67f0147.Emscripten.clang"
  },
  "schemaVersion": "2.0.1",
  "updatedAt": "2020-02-11T14:51:57.892Z"
}